{
	"contracts/StorageMemoryCalldata.sol": {
		"DataLocations": {
			"abi": [
				{
					"inputs": [
						{
							"internalType": "uint256[]",
							"name": "y",
							"type": "uint256[]"
						},
						{
							"internalType": "string",
							"name": "s",
							"type": "string"
						}
					],
					"name": "examples",
					"outputs": [
						{
							"internalType": "uint256[]",
							"name": "",
							"type": "uint256[]"
						}
					],
					"stateMutability": "nonpayable",
					"type": "function"
				},
				{
					"inputs": [
						{
							"internalType": "address",
							"name": "",
							"type": "address"
						}
					],
					"name": "myStructs",
					"outputs": [
						{
							"internalType": "uint256",
							"name": "foo",
							"type": "uint256"
						},
						{
							"internalType": "string",
							"name": "text",
							"type": "string"
						}
					],
					"stateMutability": "view",
					"type": "function"
				}
			],
			"devdoc": {
				"kind": "dev",
				"methods": {},
				"version": 1
			},
			"evm": {
				"assembly": "    /* \"contracts/StorageMemoryCalldata.sol\":107:855  contract DataLocations {... */\n  mstore(0x40, 0x80)\n  callvalue\n  dup1\n  iszero\n  tag_1\n  jumpi\n  revert(0x00, 0x00)\ntag_1:\n  pop\n  dataSize(sub_0)\n  dup1\n  dataOffset(sub_0)\n  0x00\n  codecopy\n  0x00\n  return\nstop\n\nsub_0: assembly {\n        /* \"contracts/StorageMemoryCalldata.sol\":107:855  contract DataLocations {... */\n      mstore(0x40, 0x80)\n      callvalue\n      dup1\n      iszero\n      tag_1\n      jumpi\n      revert(0x00, 0x00)\n    tag_1:\n      pop\n      jumpi(tag_2, lt(calldatasize, 0x04))\n      shr(0xe0, calldataload(0x00))\n      dup1\n      0xb43c5d33\n      eq\n      tag_3\n      jumpi\n      dup1\n      0xfc277a95\n      eq\n      tag_4\n      jumpi\n    tag_2:\n      revert(0x00, 0x00)\n        /* \"contracts/StorageMemoryCalldata.sol\":206:252  mapping(address => MyStruct)  public myStructs */\n    tag_3:\n      tag_5\n      0x04\n      dup1\n      calldatasize\n      sub\n      dup2\n      add\n      swap1\n      tag_6\n      swap2\n      swap1\n      tag_7\n      jump\t// in\n    tag_6:\n      tag_8\n      jump\t// in\n    tag_5:\n      mload(0x40)\n      tag_9\n      swap3\n      swap2\n      swap1\n      tag_10\n      jump\t// in\n    tag_9:\n      mload(0x40)\n      dup1\n      swap2\n      sub\n      swap1\n      return\n        /* \"contracts/StorageMemoryCalldata.sol\":259:765  function examples(uint256[] calldata y, string calldata s)... */\n    tag_4:\n      tag_11\n      0x04\n      dup1\n      calldatasize\n      sub\n      dup2\n      add\n      swap1\n      tag_12\n      swap2\n      swap1\n      tag_13\n      jump\t// in\n    tag_12:\n      tag_14\n      jump\t// in\n    tag_11:\n      mload(0x40)\n      tag_15\n      swap2\n      swap1\n      tag_16\n      jump\t// in\n    tag_15:\n      mload(0x40)\n      dup1\n      swap2\n      sub\n      swap1\n      return\n        /* \"contracts/StorageMemoryCalldata.sol\":206:252  mapping(address => MyStruct)  public myStructs */\n    tag_8:\n      mstore(0x20, 0x00)\n      dup1\n      0x00\n      mstore\n      keccak256(0x00, 0x40)\n      0x00\n      swap2\n      pop\n      swap1\n      pop\n      dup1\n      0x00\n      add\n      sload\n      swap1\n      dup1\n      0x01\n      add\n      dup1\n      sload\n      tag_17\n      swap1\n      tag_18\n      jump\t// in\n    tag_17:\n      dup1\n      0x1f\n      add\n      0x20\n      dup1\n      swap2\n      div\n      mul\n      0x20\n      add\n      mload(0x40)\n      swap1\n      dup2\n      add\n      0x40\n      mstore\n      dup1\n      swap3\n      swap2\n      swap1\n      dup2\n      dup2\n      mstore\n      0x20\n      add\n      dup3\n      dup1\n      sload\n      tag_19\n      swap1\n      tag_18\n      jump\t// in\n    tag_19:\n      dup1\n      iszero\n      tag_20\n      jumpi\n      dup1\n      0x1f\n      lt\n      tag_21\n      jumpi\n      0x0100\n      dup1\n      dup4\n      sload\n      div\n      mul\n      dup4\n      mstore\n      swap2\n      0x20\n      add\n      swap2\n      jump(tag_20)\n    tag_21:\n      dup3\n      add\n      swap2\n      swap1\n      0x00\n      mstore\n      keccak256(0x00, 0x20)\n      swap1\n    tag_22:\n      dup2\n      sload\n      dup2\n      mstore\n      swap1\n      0x01\n      add\n      swap1\n      0x20\n      add\n      dup1\n      dup4\n      gt\n      tag_22\n      jumpi\n      dup3\n      swap1\n      sub\n      0x1f\n      and\n      dup3\n      add\n      swap2\n    tag_20:\n      pop\n      pop\n      pop\n      pop\n      pop\n      swap1\n      pop\n      dup3\n      jump\t// out\n        /* \"contracts/StorageMemoryCalldata.sol\":259:765  function examples(uint256[] calldata y, string calldata s)... */\n    tag_14:\n        /* \"contracts/StorageMemoryCalldata.sol\":352:368  uint256[] memory */\n      0x60\n        /* \"contracts/StorageMemoryCalldata.sol\":427:460  MyStruct({foo: 123, text: \"bar\"}) */\n      mload(0x40)\n      dup1\n      0x40\n      add\n      0x40\n      mstore\n      dup1\n        /* \"contracts/StorageMemoryCalldata.sol\":442:445  123 */\n      0x7b\n        /* \"contracts/StorageMemoryCalldata.sol\":427:460  MyStruct({foo: 123, text: \"bar\"}) */\n      dup2\n      mstore\n      0x20\n      add\n      mload(0x40)\n      dup1\n      0x40\n      add\n      0x40\n      mstore\n      dup1\n      0x03\n      dup2\n      mstore\n      0x20\n      add\n      0x6261720000000000000000000000000000000000000000000000000000000000\n      dup2\n      mstore\n      pop\n      dup2\n      mstore\n      pop\n        /* \"contracts/StorageMemoryCalldata.sol\":403:412  myStructs */\n      0x00\n        /* \"contracts/StorageMemoryCalldata.sol\":403:424  myStructs[msg.sender] */\n      0x00\n        /* \"contracts/StorageMemoryCalldata.sol\":413:423  msg.sender */\n      caller\n        /* \"contracts/StorageMemoryCalldata.sol\":403:424  myStructs[msg.sender] */\n      0xffffffffffffffffffffffffffffffffffffffff\n      and\n      0xffffffffffffffffffffffffffffffffffffffff\n      and\n      dup2\n      mstore\n      0x20\n      add\n      swap1\n      dup2\n      mstore\n      0x20\n      add\n      0x00\n      keccak256\n        /* \"contracts/StorageMemoryCalldata.sol\":403:460  myStructs[msg.sender] = MyStruct({foo: 123, text: \"bar\"}) */\n      0x00\n      dup3\n      add\n      mload\n      dup2\n      0x00\n      add\n      sstore\n      0x20\n      dup3\n      add\n      mload\n      dup2\n      0x01\n      add\n      swap1\n      dup2\n      tag_24\n      swap2\n      swap1\n      tag_25\n      jump\t// in\n    tag_24:\n      pop\n      swap1\n      pop\n      pop\n        /* \"contracts/StorageMemoryCalldata.sol\":470:495  MyStruct storage myStruct */\n      0x00\n        /* \"contracts/StorageMemoryCalldata.sol\":498:507  myStructs */\n      0x00\n        /* \"contracts/StorageMemoryCalldata.sol\":498:519  myStructs[msg.sender] */\n      0x00\n        /* \"contracts/StorageMemoryCalldata.sol\":508:518  msg.sender */\n      caller\n        /* \"contracts/StorageMemoryCalldata.sol\":498:519  myStructs[msg.sender] */\n      0xffffffffffffffffffffffffffffffffffffffff\n      and\n      0xffffffffffffffffffffffffffffffffffffffff\n      and\n      dup2\n      mstore\n      0x20\n      add\n      swap1\n      dup2\n      mstore\n      0x20\n      add\n      0x00\n      keccak256\n        /* \"contracts/StorageMemoryCalldata.sol\":470:519  MyStruct storage myStruct = myStructs[msg.sender] */\n      swap1\n      pop\n        /* \"contracts/StorageMemoryCalldata.sol\":529:550  myStruct.text = \"foo\" */\n      mload(0x40)\n      dup1\n      0x40\n      add\n      0x40\n      mstore\n      dup1\n      0x03\n      dup2\n      mstore\n      0x20\n      add\n      0x666f6f0000000000000000000000000000000000000000000000000000000000\n      dup2\n      mstore\n      pop\n        /* \"contracts/StorageMemoryCalldata.sol\":529:537  myStruct */\n      dup2\n        /* \"contracts/StorageMemoryCalldata.sol\":529:542  myStruct.text */\n      0x01\n      add\n        /* \"contracts/StorageMemoryCalldata.sol\":529:550  myStruct.text = \"foo\" */\n      swap1\n      dup2\n      tag_26\n      swap2\n      swap1\n      tag_25\n      jump\t// in\n    tag_26:\n      pop\n        /* \"contracts/StorageMemoryCalldata.sol\":560:584  MyStruct memory readOnly */\n      0x00\n        /* \"contracts/StorageMemoryCalldata.sol\":587:596  myStructs */\n      0x00\n        /* \"contracts/StorageMemoryCalldata.sol\":587:608  myStructs[msg.sender] */\n      0x00\n        /* \"contracts/StorageMemoryCalldata.sol\":597:607  msg.sender */\n      caller\n        /* \"contracts/StorageMemoryCalldata.sol\":587:608  myStructs[msg.sender] */\n      0xffffffffffffffffffffffffffffffffffffffff\n      and\n      0xffffffffffffffffffffffffffffffffffffffff\n      and\n      dup2\n      mstore\n      0x20\n      add\n      swap1\n      dup2\n      mstore\n      0x20\n      add\n      0x00\n      keccak256\n        /* \"contracts/StorageMemoryCalldata.sol\":560:608  MyStruct memory readOnly = myStructs[msg.sender] */\n      mload(0x40)\n      dup1\n      0x40\n      add\n      0x40\n      mstore\n      swap1\n      dup2\n      0x00\n      dup3\n      add\n      sload\n      dup2\n      mstore\n      0x20\n      add\n      0x01\n      dup3\n      add\n      dup1\n      sload\n      tag_27\n      swap1\n      tag_18\n      jump\t// in\n    tag_27:\n      dup1\n      0x1f\n      add\n      0x20\n      dup1\n      swap2\n      div\n      mul\n      0x20\n      add\n      mload(0x40)\n      swap1\n      dup2\n      add\n      0x40\n      mstore\n      dup1\n      swap3\n      swap2\n      swap1\n      dup2\n      dup2\n      mstore\n      0x20\n      add\n      dup3\n      dup1\n      sload\n      tag_28\n      swap1\n      tag_18\n      jump\t// in\n    tag_28:\n      dup1\n      iszero\n      tag_29\n      jumpi\n      dup1\n      0x1f\n      lt\n      tag_30\n      jumpi\n      0x0100\n      dup1\n      dup4\n      sload\n      div\n      mul\n      dup4\n      mstore\n      swap2\n      0x20\n      add\n      swap2\n      jump(tag_29)\n    tag_30:\n      dup3\n      add\n      swap2\n      swap1\n      0x00\n      mstore\n      keccak256(0x00, 0x20)\n      swap1\n    tag_31:\n      dup2\n      sload\n      dup2\n      mstore\n      swap1\n      0x01\n      add\n      swap1\n      0x20\n      add\n      dup1\n      dup4\n      gt\n      tag_31\n      jumpi\n      dup3\n      swap1\n      sub\n      0x1f\n      and\n      dup3\n      add\n      swap2\n    tag_29:\n      pop\n      pop\n      pop\n      pop\n      pop\n      dup2\n      mstore\n      pop\n      pop\n      swap1\n      pop\n        /* \"contracts/StorageMemoryCalldata.sol\":633:636  456 */\n      0x01c8\n        /* \"contracts/StorageMemoryCalldata.sol\":618:626  readOnly */\n      dup2\n        /* \"contracts/StorageMemoryCalldata.sol\":618:630  readOnly.foo */\n      0x00\n      add\n        /* \"contracts/StorageMemoryCalldata.sol\":618:636  readOnly.foo = 456 */\n      dup2\n      dup2\n      mstore\n      pop\n      pop\n        /* \"contracts/StorageMemoryCalldata.sol\":646:658  _internal(y) */\n      tag_32\n        /* \"contracts/StorageMemoryCalldata.sol\":656:657  y */\n      dup8\n      dup8\n        /* \"contracts/StorageMemoryCalldata.sol\":646:655  _internal */\n      tag_33\n        /* \"contracts/StorageMemoryCalldata.sol\":646:658  _internal(y) */\n      jump\t// in\n    tag_32:\n        /* \"contracts/StorageMemoryCalldata.sol\":668:691  uint256[] memory memArr */\n      0x00\n        /* \"contracts/StorageMemoryCalldata.sol\":708:709  3 */\n      0x03\n        /* \"contracts/StorageMemoryCalldata.sol\":694:710  new uint256[](3) */\n      0xffffffffffffffff\n      dup2\n      gt\n      iszero\n      tag_34\n      jumpi\n      tag_35\n      tag_36\n      jump\t// in\n    tag_35:\n    tag_34:\n      mload(0x40)\n      swap1\n      dup1\n      dup3\n      mstore\n      dup1\n      0x20\n      mul\n      0x20\n      add\n      dup3\n      add\n      0x40\n      mstore\n      dup1\n      iszero\n      tag_37\n      jumpi\n      dup2\n      0x20\n      add\n      0x20\n      dup3\n      mul\n      dup1\n      calldatasize\n      dup4\n      calldatacopy\n      dup1\n      dup3\n      add\n      swap2\n      pop\n      pop\n      swap1\n      pop\n    tag_37:\n      pop\n        /* \"contracts/StorageMemoryCalldata.sol\":668:710  uint256[] memory memArr = new uint256[](3) */\n      swap1\n      pop\n        /* \"contracts/StorageMemoryCalldata.sol\":732:735  234 */\n      0xea\n        /* \"contracts/StorageMemoryCalldata.sol\":720:726  memArr */\n      dup2\n        /* \"contracts/StorageMemoryCalldata.sol\":727:728  0 */\n      0x00\n        /* \"contracts/StorageMemoryCalldata.sol\":720:729  memArr[0] */\n      dup2\n      mload\n      dup2\n      lt\n      tag_38\n      jumpi\n      tag_39\n      tag_40\n      jump\t// in\n    tag_39:\n    tag_38:\n      0x20\n      mul\n      0x20\n      add\n      add\n        /* \"contracts/StorageMemoryCalldata.sol\":720:735  memArr[0] = 234 */\n      dup2\n      dup2\n      mstore\n      pop\n      pop\n        /* \"contracts/StorageMemoryCalldata.sol\":752:758  memArr */\n      dup1\n        /* \"contracts/StorageMemoryCalldata.sol\":745:758  return memArr */\n      swap4\n      pop\n      pop\n      pop\n      pop\n        /* \"contracts/StorageMemoryCalldata.sol\":259:765  function examples(uint256[] calldata y, string calldata s)... */\n      swap5\n      swap4\n      pop\n      pop\n      pop\n      pop\n      jump\t// out\n        /* \"contracts/StorageMemoryCalldata.sol\":771:853  function _internal(uint256[] calldata y) private {... */\n    tag_33:\n        /* \"contracts/StorageMemoryCalldata.sol\":830:839  uint256 x */\n      0x00\n        /* \"contracts/StorageMemoryCalldata.sol\":842:843  y */\n      dup3\n      dup3\n        /* \"contracts/StorageMemoryCalldata.sol\":844:845  0 */\n      0x00\n        /* \"contracts/StorageMemoryCalldata.sol\":842:846  y[0] */\n      dup2\n      dup2\n      lt\n      tag_42\n      jumpi\n      tag_43\n      tag_40\n      jump\t// in\n    tag_43:\n    tag_42:\n      swap1\n      pop\n      0x20\n      mul\n      add\n      calldataload\n        /* \"contracts/StorageMemoryCalldata.sol\":830:846  uint256 x = y[0] */\n      swap1\n      pop\n        /* \"contracts/StorageMemoryCalldata.sol\":820:853  {... */\n      pop\n        /* \"contracts/StorageMemoryCalldata.sol\":771:853  function _internal(uint256[] calldata y) private {... */\n      pop\n      pop\n      jump\t// out\n        /* \"#utility.yul\":88:205   */\n    tag_45:\n        /* \"#utility.yul\":197:198   */\n      0x00\n        /* \"#utility.yul\":194:195   */\n      0x00\n        /* \"#utility.yul\":187:199   */\n      revert\n        /* \"#utility.yul\":211:328   */\n    tag_46:\n        /* \"#utility.yul\":320:321   */\n      0x00\n        /* \"#utility.yul\":317:318   */\n      0x00\n        /* \"#utility.yul\":310:322   */\n      revert\n        /* \"#utility.yul\":334:460   */\n    tag_47:\n        /* \"#utility.yul\":371:378   */\n      0x00\n        /* \"#utility.yul\":411:453   */\n      0xffffffffffffffffffffffffffffffffffffffff\n        /* \"#utility.yul\":404:409   */\n      dup3\n        /* \"#utility.yul\":400:454   */\n      and\n        /* \"#utility.yul\":389:454   */\n      swap1\n      pop\n        /* \"#utility.yul\":334:460   */\n      swap2\n      swap1\n      pop\n      jump\t// out\n        /* \"#utility.yul\":466:562   */\n    tag_48:\n        /* \"#utility.yul\":503:510   */\n      0x00\n        /* \"#utility.yul\":532:556   */\n      tag_92\n        /* \"#utility.yul\":550:555   */\n      dup3\n        /* \"#utility.yul\":532:556   */\n      tag_47\n      jump\t// in\n    tag_92:\n        /* \"#utility.yul\":521:556   */\n      swap1\n      pop\n        /* \"#utility.yul\":466:562   */\n      swap2\n      swap1\n      pop\n      jump\t// out\n        /* \"#utility.yul\":568:690   */\n    tag_49:\n        /* \"#utility.yul\":641:665   */\n      tag_94\n        /* \"#utility.yul\":659:664   */\n      dup2\n        /* \"#utility.yul\":641:665   */\n      tag_48\n      jump\t// in\n    tag_94:\n        /* \"#utility.yul\":634:639   */\n      dup2\n        /* \"#utility.yul\":631:666   */\n      eq\n        /* \"#utility.yul\":621:684   */\n      tag_95\n      jumpi\n        /* \"#utility.yul\":680:681   */\n      0x00\n        /* \"#utility.yul\":677:678   */\n      0x00\n        /* \"#utility.yul\":670:682   */\n      revert\n        /* \"#utility.yul\":621:684   */\n    tag_95:\n        /* \"#utility.yul\":568:690   */\n      pop\n      jump\t// out\n        /* \"#utility.yul\":696:835   */\n    tag_50:\n        /* \"#utility.yul\":742:747   */\n      0x00\n        /* \"#utility.yul\":780:786   */\n      dup2\n        /* \"#utility.yul\":767:787   */\n      calldataload\n        /* \"#utility.yul\":758:787   */\n      swap1\n      pop\n        /* \"#utility.yul\":796:829   */\n      tag_97\n        /* \"#utility.yul\":823:828   */\n      dup2\n        /* \"#utility.yul\":796:829   */\n      tag_49\n      jump\t// in\n    tag_97:\n        /* \"#utility.yul\":696:835   */\n      swap3\n      swap2\n      pop\n      pop\n      jump\t// out\n        /* \"#utility.yul\":841:1170   */\n    tag_7:\n        /* \"#utility.yul\":900:906   */\n      0x00\n        /* \"#utility.yul\":949:951   */\n      0x20\n        /* \"#utility.yul\":937:946   */\n      dup3\n        /* \"#utility.yul\":928:935   */\n      dup5\n        /* \"#utility.yul\":924:947   */\n      sub\n        /* \"#utility.yul\":920:952   */\n      slt\n        /* \"#utility.yul\":917:1036   */\n      iszero\n      tag_99\n      jumpi\n        /* \"#utility.yul\":955:1034   */\n      tag_100\n      tag_45\n      jump\t// in\n    tag_100:\n        /* \"#utility.yul\":917:1036   */\n    tag_99:\n        /* \"#utility.yul\":1075:1076   */\n      0x00\n        /* \"#utility.yul\":1100:1153   */\n      tag_101\n        /* \"#utility.yul\":1145:1152   */\n      dup5\n        /* \"#utility.yul\":1136:1142   */\n      dup3\n        /* \"#utility.yul\":1125:1134   */\n      dup6\n        /* \"#utility.yul\":1121:1143   */\n      add\n        /* \"#utility.yul\":1100:1153   */\n      tag_50\n      jump\t// in\n    tag_101:\n        /* \"#utility.yul\":1090:1153   */\n      swap2\n      pop\n        /* \"#utility.yul\":1046:1163   */\n      pop\n        /* \"#utility.yul\":841:1170   */\n      swap3\n      swap2\n      pop\n      pop\n      jump\t// out\n        /* \"#utility.yul\":1176:1253   */\n    tag_51:\n        /* \"#utility.yul\":1213:1220   */\n      0x00\n        /* \"#utility.yul\":1242:1247   */\n      dup2\n        /* \"#utility.yul\":1231:1247   */\n      swap1\n      pop\n        /* \"#utility.yul\":1176:1253   */\n      swap2\n      swap1\n      pop\n      jump\t// out\n        /* \"#utility.yul\":1259:1377   */\n    tag_52:\n        /* \"#utility.yul\":1346:1370   */\n      tag_104\n        /* \"#utility.yul\":1364:1369   */\n      dup2\n        /* \"#utility.yul\":1346:1370   */\n      tag_51\n      jump\t// in\n    tag_104:\n        /* \"#utility.yul\":1341:1344   */\n      dup3\n        /* \"#utility.yul\":1334:1371   */\n      mstore\n        /* \"#utility.yul\":1259:1377   */\n      pop\n      pop\n      jump\t// out\n        /* \"#utility.yul\":1383:1482   */\n    tag_53:\n        /* \"#utility.yul\":1435:1441   */\n      0x00\n        /* \"#utility.yul\":1469:1474   */\n      dup2\n        /* \"#utility.yul\":1463:1475   */\n      mload\n        /* \"#utility.yul\":1453:1475   */\n      swap1\n      pop\n        /* \"#utility.yul\":1383:1482   */\n      swap2\n      swap1\n      pop\n      jump\t// out\n        /* \"#utility.yul\":1488:1657   */\n    tag_54:\n        /* \"#utility.yul\":1572:1583   */\n      0x00\n        /* \"#utility.yul\":1606:1612   */\n      dup3\n        /* \"#utility.yul\":1601:1604   */\n      dup3\n        /* \"#utility.yul\":1594:1613   */\n      mstore\n        /* \"#utility.yul\":1646:1650   */\n      0x20\n        /* \"#utility.yul\":1641:1644   */\n      dup3\n        /* \"#utility.yul\":1637:1651   */\n      add\n        /* \"#utility.yul\":1622:1651   */\n      swap1\n      pop\n        /* \"#utility.yul\":1488:1657   */\n      swap3\n      swap2\n      pop\n      pop\n      jump\t// out\n        /* \"#utility.yul\":1663:1802   */\n    tag_55:\n        /* \"#utility.yul\":1752:1758   */\n      dup3\n        /* \"#utility.yul\":1747:1750   */\n      dup2\n        /* \"#utility.yul\":1742:1745   */\n      dup4\n        /* \"#utility.yul\":1736:1759   */\n      mcopy\n        /* \"#utility.yul\":1793:1794   */\n      0x00\n        /* \"#utility.yul\":1784:1790   */\n      dup4\n        /* \"#utility.yul\":1779:1782   */\n      dup4\n        /* \"#utility.yul\":1775:1791   */\n      add\n        /* \"#utility.yul\":1768:1795   */\n      mstore\n        /* \"#utility.yul\":1663:1802   */\n      pop\n      pop\n      pop\n      jump\t// out\n        /* \"#utility.yul\":1808:1910   */\n    tag_56:\n        /* \"#utility.yul\":1849:1855   */\n      0x00\n        /* \"#utility.yul\":1900:1902   */\n      0x1f\n        /* \"#utility.yul\":1896:1903   */\n      not\n        /* \"#utility.yul\":1891:1893   */\n      0x1f\n        /* \"#utility.yul\":1884:1889   */\n      dup4\n        /* \"#utility.yul\":1880:1894   */\n      add\n        /* \"#utility.yul\":1876:1904   */\n      and\n        /* \"#utility.yul\":1866:1904   */\n      swap1\n      pop\n        /* \"#utility.yul\":1808:1910   */\n      swap2\n      swap1\n      pop\n      jump\t// out\n        /* \"#utility.yul\":1916:2293   */\n    tag_57:\n        /* \"#utility.yul\":2004:2007   */\n      0x00\n        /* \"#utility.yul\":2032:2071   */\n      tag_110\n        /* \"#utility.yul\":2065:2070   */\n      dup3\n        /* \"#utility.yul\":2032:2071   */\n      tag_53\n      jump\t// in\n    tag_110:\n        /* \"#utility.yul\":2087:2158   */\n      tag_111\n        /* \"#utility.yul\":2151:2157   */\n      dup2\n        /* \"#utility.yul\":2146:2149   */\n      dup6\n        /* \"#utility.yul\":2087:2158   */\n      tag_54\n      jump\t// in\n    tag_111:\n        /* \"#utility.yul\":2080:2158   */\n      swap4\n      pop\n        /* \"#utility.yul\":2167:2232   */\n      tag_112\n        /* \"#utility.yul\":2225:2231   */\n      dup2\n        /* \"#utility.yul\":2220:2223   */\n      dup6\n        /* \"#utility.yul\":2213:2217   */\n      0x20\n        /* \"#utility.yul\":2206:2211   */\n      dup7\n        /* \"#utility.yul\":2202:2218   */\n      add\n        /* \"#utility.yul\":2167:2232   */\n      tag_55\n      jump\t// in\n    tag_112:\n        /* \"#utility.yul\":2257:2286   */\n      tag_113\n        /* \"#utility.yul\":2279:2285   */\n      dup2\n        /* \"#utility.yul\":2257:2286   */\n      tag_56\n      jump\t// in\n    tag_113:\n        /* \"#utility.yul\":2252:2255   */\n      dup5\n        /* \"#utility.yul\":2248:2287   */\n      add\n        /* \"#utility.yul\":2241:2287   */\n      swap2\n      pop\n        /* \"#utility.yul\":2008:2293   */\n      pop\n        /* \"#utility.yul\":1916:2293   */\n      swap3\n      swap2\n      pop\n      pop\n      jump\t// out\n        /* \"#utility.yul\":2299:2722   */\n    tag_10:\n        /* \"#utility.yul\":2440:2444   */\n      0x00\n        /* \"#utility.yul\":2478:2480   */\n      0x40\n        /* \"#utility.yul\":2467:2476   */\n      dup3\n        /* \"#utility.yul\":2463:2481   */\n      add\n        /* \"#utility.yul\":2455:2481   */\n      swap1\n      pop\n        /* \"#utility.yul\":2491:2562   */\n      tag_115\n        /* \"#utility.yul\":2559:2560   */\n      0x00\n        /* \"#utility.yul\":2548:2557   */\n      dup4\n        /* \"#utility.yul\":2544:2561   */\n      add\n        /* \"#utility.yul\":2535:2541   */\n      dup6\n        /* \"#utility.yul\":2491:2562   */\n      tag_52\n      jump\t// in\n    tag_115:\n        /* \"#utility.yul\":2609:2618   */\n      dup2\n        /* \"#utility.yul\":2603:2607   */\n      dup2\n        /* \"#utility.yul\":2599:2619   */\n      sub\n        /* \"#utility.yul\":2594:2596   */\n      0x20\n        /* \"#utility.yul\":2583:2592   */\n      dup4\n        /* \"#utility.yul\":2579:2597   */\n      add\n        /* \"#utility.yul\":2572:2620   */\n      mstore\n        /* \"#utility.yul\":2637:2715   */\n      tag_116\n        /* \"#utility.yul\":2710:2714   */\n      dup2\n        /* \"#utility.yul\":2701:2707   */\n      dup5\n        /* \"#utility.yul\":2637:2715   */\n      tag_57\n      jump\t// in\n    tag_116:\n        /* \"#utility.yul\":2629:2715   */\n      swap1\n      pop\n        /* \"#utility.yul\":2299:2722   */\n      swap4\n      swap3\n      pop\n      pop\n      pop\n      jump\t// out\n        /* \"#utility.yul\":2728:2845   */\n    tag_58:\n        /* \"#utility.yul\":2837:2838   */\n      0x00\n        /* \"#utility.yul\":2834:2835   */\n      0x00\n        /* \"#utility.yul\":2827:2839   */\n      revert\n        /* \"#utility.yul\":2851:2968   */\n    tag_59:\n        /* \"#utility.yul\":2960:2961   */\n      0x00\n        /* \"#utility.yul\":2957:2958   */\n      0x00\n        /* \"#utility.yul\":2950:2962   */\n      revert\n        /* \"#utility.yul\":2974:3091   */\n    tag_60:\n        /* \"#utility.yul\":3083:3084   */\n      0x00\n        /* \"#utility.yul\":3080:3081   */\n      0x00\n        /* \"#utility.yul\":3073:3085   */\n      revert\n        /* \"#utility.yul\":3114:3682   */\n    tag_61:\n        /* \"#utility.yul\":3187:3195   */\n      0x00\n        /* \"#utility.yul\":3197:3203   */\n      0x00\n        /* \"#utility.yul\":3247:3250   */\n      dup4\n        /* \"#utility.yul\":3240:3244   */\n      0x1f\n        /* \"#utility.yul\":3232:3238   */\n      dup5\n        /* \"#utility.yul\":3228:3245   */\n      add\n        /* \"#utility.yul\":3224:3251   */\n      slt\n        /* \"#utility.yul\":3214:3336   */\n      tag_121\n      jumpi\n        /* \"#utility.yul\":3255:3334   */\n      tag_122\n      tag_58\n      jump\t// in\n    tag_122:\n        /* \"#utility.yul\":3214:3336   */\n    tag_121:\n        /* \"#utility.yul\":3368:3374   */\n      dup3\n        /* \"#utility.yul\":3355:3375   */\n      calldataload\n        /* \"#utility.yul\":3345:3375   */\n      swap1\n      pop\n        /* \"#utility.yul\":3398:3416   */\n      0xffffffffffffffff\n        /* \"#utility.yul\":3390:3396   */\n      dup2\n        /* \"#utility.yul\":3387:3417   */\n      gt\n        /* \"#utility.yul\":3384:3501   */\n      iszero\n      tag_123\n      jumpi\n        /* \"#utility.yul\":3420:3499   */\n      tag_124\n      tag_59\n      jump\t// in\n    tag_124:\n        /* \"#utility.yul\":3384:3501   */\n    tag_123:\n        /* \"#utility.yul\":3534:3538   */\n      0x20\n        /* \"#utility.yul\":3526:3532   */\n      dup4\n        /* \"#utility.yul\":3522:3539   */\n      add\n        /* \"#utility.yul\":3510:3539   */\n      swap2\n      pop\n        /* \"#utility.yul\":3588:3591   */\n      dup4\n        /* \"#utility.yul\":3580:3584   */\n      0x20\n        /* \"#utility.yul\":3572:3578   */\n      dup3\n        /* \"#utility.yul\":3568:3585   */\n      mul\n        /* \"#utility.yul\":3558:3566   */\n      dup4\n        /* \"#utility.yul\":3554:3586   */\n      add\n        /* \"#utility.yul\":3551:3592   */\n      gt\n        /* \"#utility.yul\":3548:3676   */\n      iszero\n      tag_125\n      jumpi\n        /* \"#utility.yul\":3595:3674   */\n      tag_126\n      tag_60\n      jump\t// in\n    tag_126:\n        /* \"#utility.yul\":3548:3676   */\n    tag_125:\n        /* \"#utility.yul\":3114:3682   */\n      swap3\n      pop\n      swap3\n      swap1\n      pop\n      jump\t// out\n        /* \"#utility.yul\":3702:4255   */\n    tag_62:\n        /* \"#utility.yul\":3760:3768   */\n      0x00\n        /* \"#utility.yul\":3770:3776   */\n      0x00\n        /* \"#utility.yul\":3820:3823   */\n      dup4\n        /* \"#utility.yul\":3813:3817   */\n      0x1f\n        /* \"#utility.yul\":3805:3811   */\n      dup5\n        /* \"#utility.yul\":3801:3818   */\n      add\n        /* \"#utility.yul\":3797:3824   */\n      slt\n        /* \"#utility.yul\":3787:3909   */\n      tag_128\n      jumpi\n        /* \"#utility.yul\":3828:3907   */\n      tag_129\n      tag_58\n      jump\t// in\n    tag_129:\n        /* \"#utility.yul\":3787:3909   */\n    tag_128:\n        /* \"#utility.yul\":3941:3947   */\n      dup3\n        /* \"#utility.yul\":3928:3948   */\n      calldataload\n        /* \"#utility.yul\":3918:3948   */\n      swap1\n      pop\n        /* \"#utility.yul\":3971:3989   */\n      0xffffffffffffffff\n        /* \"#utility.yul\":3963:3969   */\n      dup2\n        /* \"#utility.yul\":3960:3990   */\n      gt\n        /* \"#utility.yul\":3957:4074   */\n      iszero\n      tag_130\n      jumpi\n        /* \"#utility.yul\":3993:4072   */\n      tag_131\n      tag_59\n      jump\t// in\n    tag_131:\n        /* \"#utility.yul\":3957:4074   */\n    tag_130:\n        /* \"#utility.yul\":4107:4111   */\n      0x20\n        /* \"#utility.yul\":4099:4105   */\n      dup4\n        /* \"#utility.yul\":4095:4112   */\n      add\n        /* \"#utility.yul\":4083:4112   */\n      swap2\n      pop\n        /* \"#utility.yul\":4161:4164   */\n      dup4\n        /* \"#utility.yul\":4153:4157   */\n      0x01\n        /* \"#utility.yul\":4145:4151   */\n      dup3\n        /* \"#utility.yul\":4141:4158   */\n      mul\n        /* \"#utility.yul\":4131:4139   */\n      dup4\n        /* \"#utility.yul\":4127:4159   */\n      add\n        /* \"#utility.yul\":4124:4165   */\n      gt\n        /* \"#utility.yul\":4121:4249   */\n      iszero\n      tag_132\n      jumpi\n        /* \"#utility.yul\":4168:4247   */\n      tag_133\n      tag_60\n      jump\t// in\n    tag_133:\n        /* \"#utility.yul\":4121:4249   */\n    tag_132:\n        /* \"#utility.yul\":3702:4255   */\n      swap3\n      pop\n      swap3\n      swap1\n      pop\n      jump\t// out\n        /* \"#utility.yul\":4261:5165   */\n    tag_13:\n        /* \"#utility.yul\":4368:4374   */\n      0x00\n        /* \"#utility.yul\":4376:4382   */\n      0x00\n        /* \"#utility.yul\":4384:4390   */\n      0x00\n        /* \"#utility.yul\":4392:4398   */\n      0x00\n        /* \"#utility.yul\":4441:4443   */\n      0x40\n        /* \"#utility.yul\":4429:4438   */\n      dup6\n        /* \"#utility.yul\":4420:4427   */\n      dup8\n        /* \"#utility.yul\":4416:4439   */\n      sub\n        /* \"#utility.yul\":4412:4444   */\n      slt\n        /* \"#utility.yul\":4409:4528   */\n      iszero\n      tag_135\n      jumpi\n        /* \"#utility.yul\":4447:4526   */\n      tag_136\n      tag_45\n      jump\t// in\n    tag_136:\n        /* \"#utility.yul\":4409:4528   */\n    tag_135:\n        /* \"#utility.yul\":4595:4596   */\n      0x00\n        /* \"#utility.yul\":4584:4593   */\n      dup6\n        /* \"#utility.yul\":4580:4597   */\n      add\n        /* \"#utility.yul\":4567:4598   */\n      calldataload\n        /* \"#utility.yul\":4625:4643   */\n      0xffffffffffffffff\n        /* \"#utility.yul\":4617:4623   */\n      dup2\n        /* \"#utility.yul\":4614:4644   */\n      gt\n        /* \"#utility.yul\":4611:4728   */\n      iszero\n      tag_137\n      jumpi\n        /* \"#utility.yul\":4647:4726   */\n      tag_138\n      tag_46\n      jump\t// in\n    tag_138:\n        /* \"#utility.yul\":4611:4728   */\n    tag_137:\n        /* \"#utility.yul\":4760:4840   */\n      tag_139\n        /* \"#utility.yul\":4832:4839   */\n      dup8\n        /* \"#utility.yul\":4823:4829   */\n      dup3\n        /* \"#utility.yul\":4812:4821   */\n      dup9\n        /* \"#utility.yul\":4808:4830   */\n      add\n        /* \"#utility.yul\":4760:4840   */\n      tag_61\n      jump\t// in\n    tag_139:\n        /* \"#utility.yul\":4742:4840   */\n      swap5\n      pop\n      swap5\n      pop\n        /* \"#utility.yul\":4538:4850   */\n      pop\n        /* \"#utility.yul\":4917:4919   */\n      0x20\n        /* \"#utility.yul\":4906:4915   */\n      dup6\n        /* \"#utility.yul\":4902:4920   */\n      add\n        /* \"#utility.yul\":4889:4921   */\n      calldataload\n        /* \"#utility.yul\":4948:4966   */\n      0xffffffffffffffff\n        /* \"#utility.yul\":4940:4946   */\n      dup2\n        /* \"#utility.yul\":4937:4967   */\n      gt\n        /* \"#utility.yul\":4934:5051   */\n      iszero\n      tag_140\n      jumpi\n        /* \"#utility.yul\":4970:5049   */\n      tag_141\n      tag_46\n      jump\t// in\n    tag_141:\n        /* \"#utility.yul\":4934:5051   */\n    tag_140:\n        /* \"#utility.yul\":5083:5148   */\n      tag_142\n        /* \"#utility.yul\":5140:5147   */\n      dup8\n        /* \"#utility.yul\":5131:5137   */\n      dup3\n        /* \"#utility.yul\":5120:5129   */\n      dup9\n        /* \"#utility.yul\":5116:5138   */\n      add\n        /* \"#utility.yul\":5083:5148   */\n      tag_62\n      jump\t// in\n    tag_142:\n        /* \"#utility.yul\":5065:5148   */\n      swap3\n      pop\n      swap3\n      pop\n        /* \"#utility.yul\":4860:5158   */\n      pop\n        /* \"#utility.yul\":4261:5165   */\n      swap3\n      swap6\n      swap2\n      swap5\n      pop\n      swap3\n      pop\n      jump\t// out\n        /* \"#utility.yul\":5171:5285   */\n    tag_63:\n        /* \"#utility.yul\":5238:5244   */\n      0x00\n        /* \"#utility.yul\":5272:5277   */\n      dup2\n        /* \"#utility.yul\":5266:5278   */\n      mload\n        /* \"#utility.yul\":5256:5278   */\n      swap1\n      pop\n        /* \"#utility.yul\":5171:5285   */\n      swap2\n      swap1\n      pop\n      jump\t// out\n        /* \"#utility.yul\":5291:5475   */\n    tag_64:\n        /* \"#utility.yul\":5390:5401   */\n      0x00\n        /* \"#utility.yul\":5424:5430   */\n      dup3\n        /* \"#utility.yul\":5419:5422   */\n      dup3\n        /* \"#utility.yul\":5412:5431   */\n      mstore\n        /* \"#utility.yul\":5464:5468   */\n      0x20\n        /* \"#utility.yul\":5459:5462   */\n      dup3\n        /* \"#utility.yul\":5455:5469   */\n      add\n        /* \"#utility.yul\":5440:5469   */\n      swap1\n      pop\n        /* \"#utility.yul\":5291:5475   */\n      swap3\n      swap2\n      pop\n      pop\n      jump\t// out\n        /* \"#utility.yul\":5481:5613   */\n    tag_65:\n        /* \"#utility.yul\":5548:5552   */\n      0x00\n        /* \"#utility.yul\":5571:5574   */\n      dup2\n        /* \"#utility.yul\":5563:5574   */\n      swap1\n      pop\n        /* \"#utility.yul\":5601:5605   */\n      0x20\n        /* \"#utility.yul\":5596:5599   */\n      dup3\n        /* \"#utility.yul\":5592:5606   */\n      add\n        /* \"#utility.yul\":5584:5606   */\n      swap1\n      pop\n        /* \"#utility.yul\":5481:5613   */\n      swap2\n      swap1\n      pop\n      jump\t// out\n        /* \"#utility.yul\":5619:5727   */\n    tag_66:\n        /* \"#utility.yul\":5696:5720   */\n      tag_147\n        /* \"#utility.yul\":5714:5719   */\n      dup2\n        /* \"#utility.yul\":5696:5720   */\n      tag_51\n      jump\t// in\n    tag_147:\n        /* \"#utility.yul\":5691:5694   */\n      dup3\n        /* \"#utility.yul\":5684:5721   */\n      mstore\n        /* \"#utility.yul\":5619:5727   */\n      pop\n      pop\n      jump\t// out\n        /* \"#utility.yul\":5733:5912   */\n    tag_67:\n        /* \"#utility.yul\":5802:5812   */\n      0x00\n        /* \"#utility.yul\":5823:5869   */\n      tag_149\n        /* \"#utility.yul\":5865:5868   */\n      dup4\n        /* \"#utility.yul\":5857:5863   */\n      dup4\n        /* \"#utility.yul\":5823:5869   */\n      tag_66\n      jump\t// in\n    tag_149:\n        /* \"#utility.yul\":5901:5905   */\n      0x20\n        /* \"#utility.yul\":5896:5899   */\n      dup4\n        /* \"#utility.yul\":5892:5906   */\n      add\n        /* \"#utility.yul\":5878:5906   */\n      swap1\n      pop\n        /* \"#utility.yul\":5733:5912   */\n      swap3\n      swap2\n      pop\n      pop\n      jump\t// out\n        /* \"#utility.yul\":5918:6031   */\n    tag_68:\n        /* \"#utility.yul\":5988:5992   */\n      0x00\n        /* \"#utility.yul\":6020:6024   */\n      0x20\n        /* \"#utility.yul\":6015:6018   */\n      dup3\n        /* \"#utility.yul\":6011:6025   */\n      add\n        /* \"#utility.yul\":6003:6025   */\n      swap1\n      pop\n        /* \"#utility.yul\":5918:6031   */\n      swap2\n      swap1\n      pop\n      jump\t// out\n        /* \"#utility.yul\":6067:6799   */\n    tag_69:\n        /* \"#utility.yul\":6186:6189   */\n      0x00\n        /* \"#utility.yul\":6215:6269   */\n      tag_152\n        /* \"#utility.yul\":6263:6268   */\n      dup3\n        /* \"#utility.yul\":6215:6269   */\n      tag_63\n      jump\t// in\n    tag_152:\n        /* \"#utility.yul\":6285:6371   */\n      tag_153\n        /* \"#utility.yul\":6364:6370   */\n      dup2\n        /* \"#utility.yul\":6359:6362   */\n      dup6\n        /* \"#utility.yul\":6285:6371   */\n      tag_64\n      jump\t// in\n    tag_153:\n        /* \"#utility.yul\":6278:6371   */\n      swap4\n      pop\n        /* \"#utility.yul\":6395:6451   */\n      tag_154\n        /* \"#utility.yul\":6445:6450   */\n      dup4\n        /* \"#utility.yul\":6395:6451   */\n      tag_65\n      jump\t// in\n    tag_154:\n        /* \"#utility.yul\":6474:6481   */\n      dup1\n        /* \"#utility.yul\":6505:6506   */\n      0x00\n        /* \"#utility.yul\":6490:6774   */\n    tag_155:\n        /* \"#utility.yul\":6515:6521   */\n      dup4\n        /* \"#utility.yul\":6512:6513   */\n      dup2\n        /* \"#utility.yul\":6509:6522   */\n      lt\n        /* \"#utility.yul\":6490:6774   */\n      iszero\n      tag_157\n      jumpi\n        /* \"#utility.yul\":6591:6597   */\n      dup2\n        /* \"#utility.yul\":6585:6598   */\n      mload\n        /* \"#utility.yul\":6618:6681   */\n      tag_158\n        /* \"#utility.yul\":6677:6680   */\n      dup9\n        /* \"#utility.yul\":6662:6675   */\n      dup3\n        /* \"#utility.yul\":6618:6681   */\n      tag_67\n      jump\t// in\n    tag_158:\n        /* \"#utility.yul\":6611:6681   */\n      swap8\n      pop\n        /* \"#utility.yul\":6704:6764   */\n      tag_159\n        /* \"#utility.yul\":6757:6763   */\n      dup4\n        /* \"#utility.yul\":6704:6764   */\n      tag_68\n      jump\t// in\n    tag_159:\n        /* \"#utility.yul\":6694:6764   */\n      swap3\n      pop\n        /* \"#utility.yul\":6550:6774   */\n      pop\n        /* \"#utility.yul\":6537:6538   */\n      0x01\n        /* \"#utility.yul\":6534:6535   */\n      dup2\n        /* \"#utility.yul\":6530:6539   */\n      add\n        /* \"#utility.yul\":6525:6539   */\n      swap1\n      pop\n        /* \"#utility.yul\":6490:6774   */\n      jump(tag_155)\n    tag_157:\n        /* \"#utility.yul\":6494:6508   */\n      pop\n        /* \"#utility.yul\":6790:6793   */\n      dup6\n        /* \"#utility.yul\":6783:6793   */\n      swap4\n      pop\n        /* \"#utility.yul\":6191:6799   */\n      pop\n      pop\n      pop\n        /* \"#utility.yul\":6067:6799   */\n      swap3\n      swap2\n      pop\n      pop\n      jump\t// out\n        /* \"#utility.yul\":6805:7178   */\n    tag_16:\n        /* \"#utility.yul\":6948:6952   */\n      0x00\n        /* \"#utility.yul\":6986:6988   */\n      0x20\n        /* \"#utility.yul\":6975:6984   */\n      dup3\n        /* \"#utility.yul\":6971:6989   */\n      add\n        /* \"#utility.yul\":6963:6989   */\n      swap1\n      pop\n        /* \"#utility.yul\":7035:7044   */\n      dup2\n        /* \"#utility.yul\":7029:7033   */\n      dup2\n        /* \"#utility.yul\":7025:7045   */\n      sub\n        /* \"#utility.yul\":7021:7022   */\n      0x00\n        /* \"#utility.yul\":7010:7019   */\n      dup4\n        /* \"#utility.yul\":7006:7023   */\n      add\n        /* \"#utility.yul\":6999:7046   */\n      mstore\n        /* \"#utility.yul\":7063:7171   */\n      tag_161\n        /* \"#utility.yul\":7166:7170   */\n      dup2\n        /* \"#utility.yul\":7157:7163   */\n      dup5\n        /* \"#utility.yul\":7063:7171   */\n      tag_69\n      jump\t// in\n    tag_161:\n        /* \"#utility.yul\":7055:7171   */\n      swap1\n      pop\n        /* \"#utility.yul\":6805:7178   */\n      swap3\n      swap2\n      pop\n      pop\n      jump\t// out\n        /* \"#utility.yul\":7184:7364   */\n    tag_70:\n        /* \"#utility.yul\":7232:7309   */\n      0x4e487b7100000000000000000000000000000000000000000000000000000000\n        /* \"#utility.yul\":7229:7230   */\n      0x00\n        /* \"#utility.yul\":7222:7310   */\n      mstore\n        /* \"#utility.yul\":7329:7333   */\n      0x22\n        /* \"#utility.yul\":7326:7327   */\n      0x04\n        /* \"#utility.yul\":7319:7334   */\n      mstore\n        /* \"#utility.yul\":7353:7357   */\n      0x24\n        /* \"#utility.yul\":7350:7351   */\n      0x00\n        /* \"#utility.yul\":7343:7358   */\n      revert\n        /* \"#utility.yul\":7370:7690   */\n    tag_18:\n        /* \"#utility.yul\":7414:7420   */\n      0x00\n        /* \"#utility.yul\":7451:7452   */\n      0x02\n        /* \"#utility.yul\":7445:7449   */\n      dup3\n        /* \"#utility.yul\":7441:7453   */\n      div\n        /* \"#utility.yul\":7431:7453   */\n      swap1\n      pop\n        /* \"#utility.yul\":7498:7499   */\n      0x01\n        /* \"#utility.yul\":7492:7496   */\n      dup3\n        /* \"#utility.yul\":7488:7500   */\n      and\n        /* \"#utility.yul\":7519:7537   */\n      dup1\n        /* \"#utility.yul\":7509:7590   */\n      tag_164\n      jumpi\n        /* \"#utility.yul\":7575:7579   */\n      0x7f\n        /* \"#utility.yul\":7567:7573   */\n      dup3\n        /* \"#utility.yul\":7563:7580   */\n      and\n        /* \"#utility.yul\":7553:7580   */\n      swap2\n      pop\n        /* \"#utility.yul\":7509:7590   */\n    tag_164:\n        /* \"#utility.yul\":7637:7639   */\n      0x20\n        /* \"#utility.yul\":7629:7635   */\n      dup3\n        /* \"#utility.yul\":7626:7640   */\n      lt\n        /* \"#utility.yul\":7606:7624   */\n      dup2\n        /* \"#utility.yul\":7603:7641   */\n      sub\n        /* \"#utility.yul\":7600:7684   */\n      tag_165\n      jumpi\n        /* \"#utility.yul\":7656:7674   */\n      tag_166\n      tag_70\n      jump\t// in\n    tag_166:\n        /* \"#utility.yul\":7600:7684   */\n    tag_165:\n        /* \"#utility.yul\":7421:7690   */\n      pop\n        /* \"#utility.yul\":7370:7690   */\n      swap2\n      swap1\n      pop\n      jump\t// out\n        /* \"#utility.yul\":7696:7876   */\n    tag_36:\n        /* \"#utility.yul\":7744:7821   */\n      0x4e487b7100000000000000000000000000000000000000000000000000000000\n        /* \"#utility.yul\":7741:7742   */\n      0x00\n        /* \"#utility.yul\":7734:7822   */\n      mstore\n        /* \"#utility.yul\":7841:7845   */\n      0x41\n        /* \"#utility.yul\":7838:7839   */\n      0x04\n        /* \"#utility.yul\":7831:7846   */\n      mstore\n        /* \"#utility.yul\":7865:7869   */\n      0x24\n        /* \"#utility.yul\":7862:7863   */\n      0x00\n        /* \"#utility.yul\":7855:7870   */\n      revert\n        /* \"#utility.yul\":7882:8023   */\n    tag_71:\n        /* \"#utility.yul\":7931:7935   */\n      0x00\n        /* \"#utility.yul\":7954:7957   */\n      dup2\n        /* \"#utility.yul\":7946:7957   */\n      swap1\n      pop\n        /* \"#utility.yul\":7977:7980   */\n      dup2\n        /* \"#utility.yul\":7974:7975   */\n      0x00\n        /* \"#utility.yul\":7967:7981   */\n      mstore\n        /* \"#utility.yul\":8011:8015   */\n      0x20\n        /* \"#utility.yul\":8008:8009   */\n      0x00\n        /* \"#utility.yul\":7998:8016   */\n      keccak256\n        /* \"#utility.yul\":7990:8016   */\n      swap1\n      pop\n        /* \"#utility.yul\":7882:8023   */\n      swap2\n      swap1\n      pop\n      jump\t// out\n        /* \"#utility.yul\":8029:8122   */\n    tag_72:\n        /* \"#utility.yul\":8066:8072   */\n      0x00\n        /* \"#utility.yul\":8113:8115   */\n      0x20\n        /* \"#utility.yul\":8108:8110   */\n      0x1f\n        /* \"#utility.yul\":8101:8106   */\n      dup4\n        /* \"#utility.yul\":8097:8111   */\n      add\n        /* \"#utility.yul\":8093:8116   */\n      div\n        /* \"#utility.yul\":8083:8116   */\n      swap1\n      pop\n        /* \"#utility.yul\":8029:8122   */\n      swap2\n      swap1\n      pop\n      jump\t// out\n        /* \"#utility.yul\":8128:8235   */\n    tag_73:\n        /* \"#utility.yul\":8172:8180   */\n      0x00\n        /* \"#utility.yul\":8222:8227   */\n      dup3\n        /* \"#utility.yul\":8216:8220   */\n      dup3\n        /* \"#utility.yul\":8212:8228   */\n      shl\n        /* \"#utility.yul\":8191:8228   */\n      swap1\n      pop\n        /* \"#utility.yul\":8128:8235   */\n      swap3\n      swap2\n      pop\n      pop\n      jump\t// out\n        /* \"#utility.yul\":8241:8634   */\n    tag_74:\n        /* \"#utility.yul\":8310:8316   */\n      0x00\n        /* \"#utility.yul\":8360:8361   */\n      0x08\n        /* \"#utility.yul\":8348:8358   */\n      dup4\n        /* \"#utility.yul\":8344:8362   */\n      mul\n        /* \"#utility.yul\":8383:8480   */\n      tag_172\n        /* \"#utility.yul\":8413:8479   */\n      0xffffffffffffffffffffffffffffffffffffffffffffffffffffffffffffffff\n        /* \"#utility.yul\":8402:8411   */\n      dup3\n        /* \"#utility.yul\":8383:8480   */\n      tag_73\n      jump\t// in\n    tag_172:\n        /* \"#utility.yul\":8501:8540   */\n      tag_173\n        /* \"#utility.yul\":8531:8539   */\n      dup7\n        /* \"#utility.yul\":8520:8529   */\n      dup4\n        /* \"#utility.yul\":8501:8540   */\n      tag_73\n      jump\t// in\n    tag_173:\n        /* \"#utility.yul\":8489:8540   */\n      swap6\n      pop\n        /* \"#utility.yul\":8573:8577   */\n      dup1\n        /* \"#utility.yul\":8569:8578   */\n      not\n        /* \"#utility.yul\":8562:8567   */\n      dup5\n        /* \"#utility.yul\":8558:8579   */\n      and\n        /* \"#utility.yul\":8549:8579   */\n      swap4\n      pop\n        /* \"#utility.yul\":8622:8626   */\n      dup1\n        /* \"#utility.yul\":8612:8620   */\n      dup7\n        /* \"#utility.yul\":8608:8627   */\n      and\n        /* \"#utility.yul\":8601:8606   */\n      dup5\n        /* \"#utility.yul\":8598:8628   */\n      or\n        /* \"#utility.yul\":8588:8628   */\n      swap3\n      pop\n        /* \"#utility.yul\":8317:8634   */\n      pop\n      pop\n        /* \"#utility.yul\":8241:8634   */\n      swap4\n      swap3\n      pop\n      pop\n      pop\n      jump\t// out\n        /* \"#utility.yul\":8640:8700   */\n    tag_75:\n        /* \"#utility.yul\":8668:8671   */\n      0x00\n        /* \"#utility.yul\":8689:8694   */\n      dup2\n        /* \"#utility.yul\":8682:8694   */\n      swap1\n      pop\n        /* \"#utility.yul\":8640:8700   */\n      swap2\n      swap1\n      pop\n      jump\t// out\n        /* \"#utility.yul\":8706:8848   */\n    tag_76:\n        /* \"#utility.yul\":8756:8765   */\n      0x00\n        /* \"#utility.yul\":8789:8842   */\n      tag_176\n        /* \"#utility.yul\":8807:8841   */\n      tag_177\n        /* \"#utility.yul\":8816:8840   */\n      tag_178\n        /* \"#utility.yul\":8834:8839   */\n      dup5\n        /* \"#utility.yul\":8816:8840   */\n      tag_51\n      jump\t// in\n    tag_178:\n        /* \"#utility.yul\":8807:8841   */\n      tag_75\n      jump\t// in\n    tag_177:\n        /* \"#utility.yul\":8789:8842   */\n      tag_51\n      jump\t// in\n    tag_176:\n        /* \"#utility.yul\":8776:8842   */\n      swap1\n      pop\n        /* \"#utility.yul\":8706:8848   */\n      swap2\n      swap1\n      pop\n      jump\t// out\n        /* \"#utility.yul\":8854:8929   */\n    tag_77:\n        /* \"#utility.yul\":8897:8900   */\n      0x00\n        /* \"#utility.yul\":8918:8923   */\n      dup2\n        /* \"#utility.yul\":8911:8923   */\n      swap1\n      pop\n        /* \"#utility.yul\":8854:8929   */\n      swap2\n      swap1\n      pop\n      jump\t// out\n        /* \"#utility.yul\":8935:9204   */\n    tag_78:\n        /* \"#utility.yul\":9045:9084   */\n      tag_181\n        /* \"#utility.yul\":9076:9083   */\n      dup4\n        /* \"#utility.yul\":9045:9084   */\n      tag_76\n      jump\t// in\n    tag_181:\n        /* \"#utility.yul\":9106:9197   */\n      tag_182\n        /* \"#utility.yul\":9155:9196   */\n      tag_183\n        /* \"#utility.yul\":9179:9195   */\n      dup3\n        /* \"#utility.yul\":9155:9196   */\n      tag_77\n      jump\t// in\n    tag_183:\n        /* \"#utility.yul\":9147:9153   */\n      dup5\n        /* \"#utility.yul\":9140:9144   */\n      dup5\n        /* \"#utility.yul\":9134:9145   */\n      sload\n        /* \"#utility.yul\":9106:9197   */\n      tag_74\n      jump\t// in\n    tag_182:\n        /* \"#utility.yul\":9100:9104   */\n      dup3\n        /* \"#utility.yul\":9093:9198   */\n      sstore\n        /* \"#utility.yul\":9011:9204   */\n      pop\n        /* \"#utility.yul\":8935:9204   */\n      pop\n      pop\n      pop\n      jump\t// out\n        /* \"#utility.yul\":9210:9283   */\n    tag_79:\n        /* \"#utility.yul\":9255:9258   */\n      0x00\n        /* \"#utility.yul\":9276:9277   */\n      0x00\n        /* \"#utility.yul\":9269:9277   */\n      swap1\n      pop\n        /* \"#utility.yul\":9210:9283   */\n      swap1\n      jump\t// out\n        /* \"#utility.yul\":9289:9478   */\n    tag_80:\n        /* \"#utility.yul\":9366:9398   */\n      tag_186\n      tag_79\n      jump\t// in\n    tag_186:\n        /* \"#utility.yul\":9407:9472   */\n      tag_187\n        /* \"#utility.yul\":9465:9471   */\n      dup2\n        /* \"#utility.yul\":9457:9463   */\n      dup5\n        /* \"#utility.yul\":9451:9455   */\n      dup5\n        /* \"#utility.yul\":9407:9472   */\n      tag_78\n      jump\t// in\n    tag_187:\n        /* \"#utility.yul\":9342:9478   */\n      pop\n        /* \"#utility.yul\":9289:9478   */\n      pop\n      pop\n      jump\t// out\n        /* \"#utility.yul\":9484:9670   */\n    tag_81:\n        /* \"#utility.yul\":9544:9664   */\n    tag_189:\n        /* \"#utility.yul\":9561:9564   */\n      dup2\n        /* \"#utility.yul\":9554:9559   */\n      dup2\n        /* \"#utility.yul\":9551:9565   */\n      lt\n        /* \"#utility.yul\":9544:9664   */\n      iszero\n      tag_191\n      jumpi\n        /* \"#utility.yul\":9615:9654   */\n      tag_192\n        /* \"#utility.yul\":9652:9653   */\n      0x00\n        /* \"#utility.yul\":9645:9650   */\n      dup3\n        /* \"#utility.yul\":9615:9654   */\n      tag_80\n      jump\t// in\n    tag_192:\n        /* \"#utility.yul\":9588:9589   */\n      0x01\n        /* \"#utility.yul\":9581:9586   */\n      dup2\n        /* \"#utility.yul\":9577:9590   */\n      add\n        /* \"#utility.yul\":9568:9590   */\n      swap1\n      pop\n        /* \"#utility.yul\":9544:9664   */\n      jump(tag_189)\n    tag_191:\n        /* \"#utility.yul\":9484:9670   */\n      pop\n      pop\n      jump\t// out\n        /* \"#utility.yul\":9676:10219   */\n    tag_82:\n        /* \"#utility.yul\":9777:9779   */\n      0x1f\n        /* \"#utility.yul\":9772:9775   */\n      dup3\n        /* \"#utility.yul\":9769:9780   */\n      gt\n        /* \"#utility.yul\":9766:10212   */\n      iszero\n      tag_194\n      jumpi\n        /* \"#utility.yul\":9811:9849   */\n      tag_195\n        /* \"#utility.yul\":9843:9848   */\n      dup2\n        /* \"#utility.yul\":9811:9849   */\n      tag_71\n      jump\t// in\n    tag_195:\n        /* \"#utility.yul\":9895:9924   */\n      tag_196\n        /* \"#utility.yul\":9913:9923   */\n      dup5\n        /* \"#utility.yul\":9895:9924   */\n      tag_72\n      jump\t// in\n    tag_196:\n        /* \"#utility.yul\":9885:9893   */\n      dup2\n        /* \"#utility.yul\":9881:9925   */\n      add\n        /* \"#utility.yul\":10078:10080   */\n      0x20\n        /* \"#utility.yul\":10066:10076   */\n      dup6\n        /* \"#utility.yul\":10063:10081   */\n      lt\n        /* \"#utility.yul\":10060:10109   */\n      iszero\n      tag_197\n      jumpi\n        /* \"#utility.yul\":10099:10107   */\n      dup2\n        /* \"#utility.yul\":10084:10107   */\n      swap1\n      pop\n        /* \"#utility.yul\":10060:10109   */\n    tag_197:\n        /* \"#utility.yul\":10122:10202   */\n      tag_198\n        /* \"#utility.yul\":10178:10200   */\n      tag_199\n        /* \"#utility.yul\":10196:10199   */\n      dup6\n        /* \"#utility.yul\":10178:10200   */\n      tag_72\n      jump\t// in\n    tag_199:\n        /* \"#utility.yul\":10168:10176   */\n      dup4\n        /* \"#utility.yul\":10164:10201   */\n      add\n        /* \"#utility.yul\":10151:10162   */\n      dup3\n        /* \"#utility.yul\":10122:10202   */\n      tag_81\n      jump\t// in\n    tag_198:\n        /* \"#utility.yul\":9781:10212   */\n      pop\n      pop\n        /* \"#utility.yul\":9766:10212   */\n    tag_194:\n        /* \"#utility.yul\":9676:10219   */\n      pop\n      pop\n      pop\n      jump\t// out\n        /* \"#utility.yul\":10225:10342   */\n    tag_83:\n        /* \"#utility.yul\":10279:10287   */\n      0x00\n        /* \"#utility.yul\":10329:10334   */\n      dup3\n        /* \"#utility.yul\":10323:10327   */\n      dup3\n        /* \"#utility.yul\":10319:10335   */\n      shr\n        /* \"#utility.yul\":10298:10335   */\n      swap1\n      pop\n        /* \"#utility.yul\":10225:10342   */\n      swap3\n      swap2\n      pop\n      pop\n      jump\t// out\n        /* \"#utility.yul\":10348:10517   */\n    tag_84:\n        /* \"#utility.yul\":10392:10398   */\n      0x00\n        /* \"#utility.yul\":10425:10476   */\n      tag_202\n        /* \"#utility.yul\":10473:10474   */\n      0x00\n        /* \"#utility.yul\":10469:10475   */\n      not\n        /* \"#utility.yul\":10461:10466   */\n      dup5\n        /* \"#utility.yul\":10458:10459   */\n      0x08\n        /* \"#utility.yul\":10454:10467   */\n      mul\n        /* \"#utility.yul\":10425:10476   */\n      tag_83\n      jump\t// in\n    tag_202:\n        /* \"#utility.yul\":10421:10477   */\n      not\n        /* \"#utility.yul\":10506:10510   */\n      dup1\n        /* \"#utility.yul\":10500:10504   */\n      dup4\n        /* \"#utility.yul\":10496:10511   */\n      and\n        /* \"#utility.yul\":10486:10511   */\n      swap2\n      pop\n        /* \"#utility.yul\":10399:10517   */\n      pop\n        /* \"#utility.yul\":10348:10517   */\n      swap3\n      swap2\n      pop\n      pop\n      jump\t// out\n        /* \"#utility.yul\":10522:10817   */\n    tag_85:\n        /* \"#utility.yul\":10598:10602   */\n      0x00\n        /* \"#utility.yul\":10744:10773   */\n      tag_204\n        /* \"#utility.yul\":10769:10772   */\n      dup4\n        /* \"#utility.yul\":10763:10767   */\n      dup4\n        /* \"#utility.yul\":10744:10773   */\n      tag_84\n      jump\t// in\n    tag_204:\n        /* \"#utility.yul\":10736:10773   */\n      swap2\n      pop\n        /* \"#utility.yul\":10806:10809   */\n      dup3\n        /* \"#utility.yul\":10803:10804   */\n      0x02\n        /* \"#utility.yul\":10799:10810   */\n      mul\n        /* \"#utility.yul\":10793:10797   */\n      dup3\n        /* \"#utility.yul\":10790:10811   */\n      or\n        /* \"#utility.yul\":10782:10811   */\n      swap1\n      pop\n        /* \"#utility.yul\":10522:10817   */\n      swap3\n      swap2\n      pop\n      pop\n      jump\t// out\n        /* \"#utility.yul\":10822:12217   */\n    tag_25:\n        /* \"#utility.yul\":10939:10976   */\n      tag_206\n        /* \"#utility.yul\":10972:10975   */\n      dup3\n        /* \"#utility.yul\":10939:10976   */\n      tag_53\n      jump\t// in\n    tag_206:\n        /* \"#utility.yul\":11041:11059   */\n      0xffffffffffffffff\n        /* \"#utility.yul\":11033:11039   */\n      dup2\n        /* \"#utility.yul\":11030:11060   */\n      gt\n        /* \"#utility.yul\":11027:11083   */\n      iszero\n      tag_207\n      jumpi\n        /* \"#utility.yul\":11063:11081   */\n      tag_208\n      tag_36\n      jump\t// in\n    tag_208:\n        /* \"#utility.yul\":11027:11083   */\n    tag_207:\n        /* \"#utility.yul\":11107:11145   */\n      tag_209\n        /* \"#utility.yul\":11139:11143   */\n      dup3\n        /* \"#utility.yul\":11133:11144   */\n      sload\n        /* \"#utility.yul\":11107:11145   */\n      tag_18\n      jump\t// in\n    tag_209:\n        /* \"#utility.yul\":11192:11259   */\n      tag_210\n        /* \"#utility.yul\":11252:11258   */\n      dup3\n        /* \"#utility.yul\":11244:11250   */\n      dup3\n        /* \"#utility.yul\":11238:11242   */\n      dup6\n        /* \"#utility.yul\":11192:11259   */\n      tag_82\n      jump\t// in\n    tag_210:\n        /* \"#utility.yul\":11286:11287   */\n      0x00\n        /* \"#utility.yul\":11310:11314   */\n      0x20\n        /* \"#utility.yul\":11297:11314   */\n      swap1\n      pop\n        /* \"#utility.yul\":11342:11344   */\n      0x1f\n        /* \"#utility.yul\":11334:11340   */\n      dup4\n        /* \"#utility.yul\":11331:11345   */\n      gt\n        /* \"#utility.yul\":11359:11360   */\n      0x01\n        /* \"#utility.yul\":11354:11972   */\n      dup2\n      eq\n      tag_212\n      jumpi\n        /* \"#utility.yul\":12016:12017   */\n      0x00\n        /* \"#utility.yul\":12033:12039   */\n      dup5\n        /* \"#utility.yul\":12030:12107   */\n      iszero\n      tag_213\n      jumpi\n        /* \"#utility.yul\":12082:12091   */\n      dup3\n        /* \"#utility.yul\":12077:12080   */\n      dup8\n        /* \"#utility.yul\":12073:12092   */\n      add\n        /* \"#utility.yul\":12067:12093   */\n      mload\n        /* \"#utility.yul\":12058:12093   */\n      swap1\n      pop\n        /* \"#utility.yul\":12030:12107   */\n    tag_213:\n        /* \"#utility.yul\":12133:12200   */\n      tag_214\n        /* \"#utility.yul\":12193:12199   */\n      dup6\n        /* \"#utility.yul\":12186:12191   */\n      dup3\n        /* \"#utility.yul\":12133:12200   */\n      tag_85\n      jump\t// in\n    tag_214:\n        /* \"#utility.yul\":12127:12131   */\n      dup7\n        /* \"#utility.yul\":12120:12201   */\n      sstore\n        /* \"#utility.yul\":11989:12211   */\n      pop\n        /* \"#utility.yul\":11324:12211   */\n      jump(tag_211)\n        /* \"#utility.yul\":11354:11972   */\n    tag_212:\n        /* \"#utility.yul\":11406:11410   */\n      0x1f\n        /* \"#utility.yul\":11402:11411   */\n      not\n        /* \"#utility.yul\":11394:11400   */\n      dup5\n        /* \"#utility.yul\":11390:11412   */\n      and\n        /* \"#utility.yul\":11440:11477   */\n      tag_215\n        /* \"#utility.yul\":11472:11476   */\n      dup7\n        /* \"#utility.yul\":11440:11477   */\n      tag_71\n      jump\t// in\n    tag_215:\n        /* \"#utility.yul\":11499:11500   */\n      0x00\n        /* \"#utility.yul\":11513:11721   */\n    tag_216:\n        /* \"#utility.yul\":11527:11534   */\n      dup3\n        /* \"#utility.yul\":11524:11525   */\n      dup2\n        /* \"#utility.yul\":11521:11535   */\n      lt\n        /* \"#utility.yul\":11513:11721   */\n      iszero\n      tag_218\n      jumpi\n        /* \"#utility.yul\":11606:11615   */\n      dup5\n        /* \"#utility.yul\":11601:11604   */\n      dup10\n        /* \"#utility.yul\":11597:11616   */\n      add\n        /* \"#utility.yul\":11591:11617   */\n      mload\n        /* \"#utility.yul\":11583:11589   */\n      dup3\n        /* \"#utility.yul\":11576:11618   */\n      sstore\n        /* \"#utility.yul\":11657:11658   */\n      0x01\n        /* \"#utility.yul\":11649:11655   */\n      dup3\n        /* \"#utility.yul\":11645:11659   */\n      add\n        /* \"#utility.yul\":11635:11659   */\n      swap2\n      pop\n        /* \"#utility.yul\":11704:11706   */\n      0x20\n        /* \"#utility.yul\":11693:11702   */\n      dup6\n        /* \"#utility.yul\":11689:11707   */\n      add\n        /* \"#utility.yul\":11676:11707   */\n      swap5\n      pop\n        /* \"#utility.yul\":11550:11554   */\n      0x20\n        /* \"#utility.yul\":11547:11548   */\n      dup2\n        /* \"#utility.yul\":11543:11555   */\n      add\n        /* \"#utility.yul\":11538:11555   */\n      swap1\n      pop\n        /* \"#utility.yul\":11513:11721   */\n      jump(tag_216)\n    tag_218:\n        /* \"#utility.yul\":11749:11755   */\n      dup7\n        /* \"#utility.yul\":11740:11747   */\n      dup4\n        /* \"#utility.yul\":11737:11756   */\n      lt\n        /* \"#utility.yul\":11734:11913   */\n      iszero\n      tag_219\n      jumpi\n        /* \"#utility.yul\":11807:11816   */\n      dup5\n        /* \"#utility.yul\":11802:11805   */\n      dup10\n        /* \"#utility.yul\":11798:11817   */\n      add\n        /* \"#utility.yul\":11792:11818   */\n      mload\n        /* \"#utility.yul\":11850:11898   */\n      tag_220\n        /* \"#utility.yul\":11892:11896   */\n      0x1f\n        /* \"#utility.yul\":11884:11890   */\n      dup10\n        /* \"#utility.yul\":11880:11897   */\n      and\n        /* \"#utility.yul\":11869:11878   */\n      dup3\n        /* \"#utility.yul\":11850:11898   */\n      tag_84\n      jump\t// in\n    tag_220:\n        /* \"#utility.yul\":11842:11848   */\n      dup4\n        /* \"#utility.yul\":11835:11899   */\n      sstore\n        /* \"#utility.yul\":11757:11913   */\n      pop\n        /* \"#utility.yul\":11734:11913   */\n    tag_219:\n        /* \"#utility.yul\":11959:11960   */\n      0x01\n        /* \"#utility.yul\":11955:11956   */\n      0x02\n        /* \"#utility.yul\":11947:11953   */\n      dup9\n        /* \"#utility.yul\":11943:11957   */\n      mul\n        /* \"#utility.yul\":11939:11961   */\n      add\n        /* \"#utility.yul\":11933:11937   */\n      dup9\n        /* \"#utility.yul\":11926:11962   */\n      sstore\n        /* \"#utility.yul\":11361:11972   */\n      pop\n      pop\n      pop\n        /* \"#utility.yul\":11324:12211   */\n    tag_211:\n      pop\n        /* \"#utility.yul\":10914:12217   */\n      pop\n      pop\n      pop\n        /* \"#utility.yul\":10822:12217   */\n      pop\n      pop\n      jump\t// out\n        /* \"#utility.yul\":12223:12403   */\n    tag_40:\n        /* \"#utility.yul\":12271:12348   */\n      0x4e487b7100000000000000000000000000000000000000000000000000000000\n        /* \"#utility.yul\":12268:12269   */\n      0x00\n        /* \"#utility.yul\":12261:12349   */\n      mstore\n        /* \"#utility.yul\":12368:12372   */\n      0x32\n        /* \"#utility.yul\":12365:12366   */\n      0x04\n        /* \"#utility.yul\":12358:12373   */\n      mstore\n        /* \"#utility.yul\":12392:12396   */\n      0x24\n        /* \"#utility.yul\":12389:12390   */\n      0x00\n        /* \"#utility.yul\":12382:12397   */\n      revert\n\n    auxdata: 0xa264697066735822122031397d3d89d403350bcecd1f8c614e99902fb86e7cd4dd217472bc9e767b645664736f6c634300081e0033\n}\n",
				"bytecode": {
					"linkReferences": {},
					"object": "6080604052348015600e575f5ffd5b50610aae8061001c5f395ff3fe608060405234801561000f575f5ffd5b5060043610610034575f3560e01c8063b43c5d3314610038578063fc277a9514610069575b5f5ffd5b610052600480360381019061004d9190610466565b610099565b604051610060929190610519565b60405180910390f35b610083600480360381019061007e91906105fd565b61013e565b6040516100909190610732565b60405180910390f35b5f602052805f5260405f205f91509050805f0154908060010180546100bd9061077f565b80601f01602080910402602001604051908101604052809291908181526020018280546100e99061077f565b80156101345780601f1061010b57610100808354040283529160200191610134565b820191905f5260205f20905b81548152906001019060200180831161011757829003601f168201915b5050505050905082565b60606040518060400160405280607b81526020016040518060400160405280600381526020017f62617200000000000000000000000000000000000000000000000000000000008152508152505f5f3373ffffffffffffffffffffffffffffffffffffffff1673ffffffffffffffffffffffffffffffffffffffff1681526020019081526020015f205f820151815f015560208201518160010190816101e4919061097c565b509050505f5f5f3373ffffffffffffffffffffffffffffffffffffffff1673ffffffffffffffffffffffffffffffffffffffff1681526020019081526020015f2090506040518060400160405280600381526020017f666f6f000000000000000000000000000000000000000000000000000000000081525081600101908161026d919061097c565b505f5f5f3373ffffffffffffffffffffffffffffffffffffffff1673ffffffffffffffffffffffffffffffffffffffff1681526020019081526020015f206040518060400160405290815f82015481526020016001820180546102cf9061077f565b80601f01602080910402602001604051908101604052809291908181526020018280546102fb9061077f565b80156103465780601f1061031d57610100808354040283529160200191610346565b820191905f5260205f20905b81548152906001019060200180831161032957829003601f168201915b50505050508152505090506101c8815f01818152505061036687876103e2565b5f600367ffffffffffffffff811115610382576103816107af565b5b6040519080825280602002602001820160405280156103b05781602001602082028036833780820191505090505b50905060ea815f815181106103c8576103c7610a4b565b5b602002602001018181525050809350505050949350505050565b5f82825f8181106103f6576103f5610a4b565b5b905060200201359050505050565b5f5ffd5b5f5ffd5b5f73ffffffffffffffffffffffffffffffffffffffff82169050919050565b5f6104358261040c565b9050919050565b6104458161042b565b811461044f575f5ffd5b50565b5f813590506104608161043c565b92915050565b5f6020828403121561047b5761047a610404565b5b5f61048884828501610452565b91505092915050565b5f819050919050565b6104a381610491565b82525050565b5f81519050919050565b5f82825260208201905092915050565b8281835e5f83830152505050565b5f601f19601f8301169050919050565b5f6104eb826104a9565b6104f581856104b3565b93506105058185602086016104c3565b61050e816104d1565b840191505092915050565b5f60408201905061052c5f83018561049a565b818103602083015261053e81846104e1565b90509392505050565b5f5ffd5b5f5ffd5b5f5ffd5b5f5f83601f84011261056857610567610547565b5b8235905067ffffffffffffffff8111156105855761058461054b565b5b6020830191508360208202830111156105a1576105a061054f565b5b9250929050565b5f5f83601f8401126105bd576105bc610547565b5b8235905067ffffffffffffffff8111156105da576105d961054b565b5b6020830191508360018202830111156105f6576105f561054f565b5b9250929050565b5f5f5f5f6040858703121561061557610614610404565b5b5f85013567ffffffffffffffff81111561063257610631610408565b5b61063e87828801610553565b9450945050602085013567ffffffffffffffff81111561066157610660610408565b5b61066d878288016105a8565b925092505092959194509250565b5f81519050919050565b5f82825260208201905092915050565b5f819050602082019050919050565b6106ad81610491565b82525050565b5f6106be83836106a4565b60208301905092915050565b5f602082019050919050565b5f6106e08261067b565b6106ea8185610685565b93506106f583610695565b805f5b8381101561072557815161070c88826106b3565b9750610717836106ca565b9250506001810190506106f8565b5085935050505092915050565b5f6020820190508181035f83015261074a81846106d6565b905092915050565b7f4e487b71000000000000000000000000000000000000000000000000000000005f52602260045260245ffd5b5f600282049050600182168061079657607f821691505b6020821081036107a9576107a8610752565b5b50919050565b7f4e487b71000000000000000000000000000000000000000000000000000000005f52604160045260245ffd5b5f819050815f5260205f209050919050565b5f6020601f8301049050919050565b5f82821b905092915050565b5f600883026108387fffffffffffffffffffffffffffffffffffffffffffffffffffffffffffffffff826107fd565b61084286836107fd565b95508019841693508086168417925050509392505050565b5f819050919050565b5f61087d61087861087384610491565b61085a565b610491565b9050919050565b5f819050919050565b61089683610863565b6108aa6108a282610884565b848454610809565b825550505050565b5f5f905090565b6108c16108b2565b6108cc81848461088d565b505050565b5b818110156108ef576108e45f826108b9565b6001810190506108d2565b5050565b601f82111561093457610905816107dc565b61090e846107ee565b8101602085101561091d578190505b610931610929856107ee565b8301826108d1565b50505b505050565b5f82821c905092915050565b5f6109545f1984600802610939565b1980831691505092915050565b5f61096c8383610945565b9150826002028217905092915050565b610985826104a9565b67ffffffffffffffff81111561099e5761099d6107af565b5b6109a8825461077f565b6109b38282856108f3565b5f60209050601f8311600181146109e4575f84156109d2578287015190505b6109dc8582610961565b865550610a43565b601f1984166109f2866107dc565b5f5b82811015610a19578489015182556001820191506020850194506020810190506109f4565b86831015610a365784890151610a32601f891682610945565b8355505b6001600288020188555050505b505050505050565b7f4e487b71000000000000000000000000000000000000000000000000000000005f52603260045260245ffdfea264697066735822122031397d3d89d403350bcecd1f8c614e99902fb86e7cd4dd217472bc9e767b645664736f6c634300081e0033",
					"opcodes": "PUSH1 0x80 PUSH1 0x40 MSTORE CALLVALUE DUP1 ISZERO PUSH1 0xE JUMPI PUSH0 PUSH0 REVERT JUMPDEST POP PUSH2 0xAAE DUP1 PUSH2 0x1C PUSH0 CODECOPY PUSH0 RETURN INVALID PUSH1 0x80 PUSH1 0x40 MSTORE CALLVALUE DUP1 ISZERO PUSH2 0xF JUMPI PUSH0 PUSH0 REVERT JUMPDEST POP PUSH1 0x4 CALLDATASIZE LT PUSH2 0x34 JUMPI PUSH0 CALLDATALOAD PUSH1 0xE0 SHR DUP1 PUSH4 0xB43C5D33 EQ PUSH2 0x38 JUMPI DUP1 PUSH4 0xFC277A95 EQ PUSH2 0x69 JUMPI JUMPDEST PUSH0 PUSH0 REVERT JUMPDEST PUSH2 0x52 PUSH1 0x4 DUP1 CALLDATASIZE SUB DUP2 ADD SWAP1 PUSH2 0x4D SWAP2 SWAP1 PUSH2 0x466 JUMP JUMPDEST PUSH2 0x99 JUMP JUMPDEST PUSH1 0x40 MLOAD PUSH2 0x60 SWAP3 SWAP2 SWAP1 PUSH2 0x519 JUMP JUMPDEST PUSH1 0x40 MLOAD DUP1 SWAP2 SUB SWAP1 RETURN JUMPDEST PUSH2 0x83 PUSH1 0x4 DUP1 CALLDATASIZE SUB DUP2 ADD SWAP1 PUSH2 0x7E SWAP2 SWAP1 PUSH2 0x5FD JUMP JUMPDEST PUSH2 0x13E JUMP JUMPDEST PUSH1 0x40 MLOAD PUSH2 0x90 SWAP2 SWAP1 PUSH2 0x732 JUMP JUMPDEST PUSH1 0x40 MLOAD DUP1 SWAP2 SUB SWAP1 RETURN JUMPDEST PUSH0 PUSH1 0x20 MSTORE DUP1 PUSH0 MSTORE PUSH1 0x40 PUSH0 KECCAK256 PUSH0 SWAP2 POP SWAP1 POP DUP1 PUSH0 ADD SLOAD SWAP1 DUP1 PUSH1 0x1 ADD DUP1 SLOAD PUSH2 0xBD SWAP1 PUSH2 0x77F JUMP JUMPDEST DUP1 PUSH1 0x1F ADD PUSH1 0x20 DUP1 SWAP2 DIV MUL PUSH1 0x20 ADD PUSH1 0x40 MLOAD SWAP1 DUP2 ADD PUSH1 0x40 MSTORE DUP1 SWAP3 SWAP2 SWAP1 DUP2 DUP2 MSTORE PUSH1 0x20 ADD DUP3 DUP1 SLOAD PUSH2 0xE9 SWAP1 PUSH2 0x77F JUMP JUMPDEST DUP1 ISZERO PUSH2 0x134 JUMPI DUP1 PUSH1 0x1F LT PUSH2 0x10B JUMPI PUSH2 0x100 DUP1 DUP4 SLOAD DIV MUL DUP4 MSTORE SWAP2 PUSH1 0x20 ADD SWAP2 PUSH2 0x134 JUMP JUMPDEST DUP3 ADD SWAP2 SWAP1 PUSH0 MSTORE PUSH1 0x20 PUSH0 KECCAK256 SWAP1 JUMPDEST DUP2 SLOAD DUP2 MSTORE SWAP1 PUSH1 0x1 ADD SWAP1 PUSH1 0x20 ADD DUP1 DUP4 GT PUSH2 0x117 JUMPI DUP3 SWAP1 SUB PUSH1 0x1F AND DUP3 ADD SWAP2 JUMPDEST POP POP POP POP POP SWAP1 POP DUP3 JUMP JUMPDEST PUSH1 0x60 PUSH1 0x40 MLOAD DUP1 PUSH1 0x40 ADD PUSH1 0x40 MSTORE DUP1 PUSH1 0x7B DUP2 MSTORE PUSH1 0x20 ADD PUSH1 0x40 MLOAD DUP1 PUSH1 0x40 ADD PUSH1 0x40 MSTORE DUP1 PUSH1 0x3 DUP2 MSTORE PUSH1 0x20 ADD PUSH32 0x6261720000000000000000000000000000000000000000000000000000000000 DUP2 MSTORE POP DUP2 MSTORE POP PUSH0 PUSH0 CALLER PUSH20 0xFFFFFFFFFFFFFFFFFFFFFFFFFFFFFFFFFFFFFFFF AND PUSH20 0xFFFFFFFFFFFFFFFFFFFFFFFFFFFFFFFFFFFFFFFF AND DUP2 MSTORE PUSH1 0x20 ADD SWAP1 DUP2 MSTORE PUSH1 0x20 ADD PUSH0 KECCAK256 PUSH0 DUP3 ADD MLOAD DUP2 PUSH0 ADD SSTORE PUSH1 0x20 DUP3 ADD MLOAD DUP2 PUSH1 0x1 ADD SWAP1 DUP2 PUSH2 0x1E4 SWAP2 SWAP1 PUSH2 0x97C JUMP JUMPDEST POP SWAP1 POP POP PUSH0 PUSH0 PUSH0 CALLER PUSH20 0xFFFFFFFFFFFFFFFFFFFFFFFFFFFFFFFFFFFFFFFF AND PUSH20 0xFFFFFFFFFFFFFFFFFFFFFFFFFFFFFFFFFFFFFFFF AND DUP2 MSTORE PUSH1 0x20 ADD SWAP1 DUP2 MSTORE PUSH1 0x20 ADD PUSH0 KECCAK256 SWAP1 POP PUSH1 0x40 MLOAD DUP1 PUSH1 0x40 ADD PUSH1 0x40 MSTORE DUP1 PUSH1 0x3 DUP2 MSTORE PUSH1 0x20 ADD PUSH32 0x666F6F0000000000000000000000000000000000000000000000000000000000 DUP2 MSTORE POP DUP2 PUSH1 0x1 ADD SWAP1 DUP2 PUSH2 0x26D SWAP2 SWAP1 PUSH2 0x97C JUMP JUMPDEST POP PUSH0 PUSH0 PUSH0 CALLER PUSH20 0xFFFFFFFFFFFFFFFFFFFFFFFFFFFFFFFFFFFFFFFF AND PUSH20 0xFFFFFFFFFFFFFFFFFFFFFFFFFFFFFFFFFFFFFFFF AND DUP2 MSTORE PUSH1 0x20 ADD SWAP1 DUP2 MSTORE PUSH1 0x20 ADD PUSH0 KECCAK256 PUSH1 0x40 MLOAD DUP1 PUSH1 0x40 ADD PUSH1 0x40 MSTORE SWAP1 DUP2 PUSH0 DUP3 ADD SLOAD DUP2 MSTORE PUSH1 0x20 ADD PUSH1 0x1 DUP3 ADD DUP1 SLOAD PUSH2 0x2CF SWAP1 PUSH2 0x77F JUMP JUMPDEST DUP1 PUSH1 0x1F ADD PUSH1 0x20 DUP1 SWAP2 DIV MUL PUSH1 0x20 ADD PUSH1 0x40 MLOAD SWAP1 DUP2 ADD PUSH1 0x40 MSTORE DUP1 SWAP3 SWAP2 SWAP1 DUP2 DUP2 MSTORE PUSH1 0x20 ADD DUP3 DUP1 SLOAD PUSH2 0x2FB SWAP1 PUSH2 0x77F JUMP JUMPDEST DUP1 ISZERO PUSH2 0x346 JUMPI DUP1 PUSH1 0x1F LT PUSH2 0x31D JUMPI PUSH2 0x100 DUP1 DUP4 SLOAD DIV MUL DUP4 MSTORE SWAP2 PUSH1 0x20 ADD SWAP2 PUSH2 0x346 JUMP JUMPDEST DUP3 ADD SWAP2 SWAP1 PUSH0 MSTORE PUSH1 0x20 PUSH0 KECCAK256 SWAP1 JUMPDEST DUP2 SLOAD DUP2 MSTORE SWAP1 PUSH1 0x1 ADD SWAP1 PUSH1 0x20 ADD DUP1 DUP4 GT PUSH2 0x329 JUMPI DUP3 SWAP1 SUB PUSH1 0x1F AND DUP3 ADD SWAP2 JUMPDEST POP POP POP POP POP DUP2 MSTORE POP POP SWAP1 POP PUSH2 0x1C8 DUP2 PUSH0 ADD DUP2 DUP2 MSTORE POP POP PUSH2 0x366 DUP8 DUP8 PUSH2 0x3E2 JUMP JUMPDEST PUSH0 PUSH1 0x3 PUSH8 0xFFFFFFFFFFFFFFFF DUP2 GT ISZERO PUSH2 0x382 JUMPI PUSH2 0x381 PUSH2 0x7AF JUMP JUMPDEST JUMPDEST PUSH1 0x40 MLOAD SWAP1 DUP1 DUP3 MSTORE DUP1 PUSH1 0x20 MUL PUSH1 0x20 ADD DUP3 ADD PUSH1 0x40 MSTORE DUP1 ISZERO PUSH2 0x3B0 JUMPI DUP2 PUSH1 0x20 ADD PUSH1 0x20 DUP3 MUL DUP1 CALLDATASIZE DUP4 CALLDATACOPY DUP1 DUP3 ADD SWAP2 POP POP SWAP1 POP JUMPDEST POP SWAP1 POP PUSH1 0xEA DUP2 PUSH0 DUP2 MLOAD DUP2 LT PUSH2 0x3C8 JUMPI PUSH2 0x3C7 PUSH2 0xA4B JUMP JUMPDEST JUMPDEST PUSH1 0x20 MUL PUSH1 0x20 ADD ADD DUP2 DUP2 MSTORE POP POP DUP1 SWAP4 POP POP POP POP SWAP5 SWAP4 POP POP POP POP JUMP JUMPDEST PUSH0 DUP3 DUP3 PUSH0 DUP2 DUP2 LT PUSH2 0x3F6 JUMPI PUSH2 0x3F5 PUSH2 0xA4B JUMP JUMPDEST JUMPDEST SWAP1 POP PUSH1 0x20 MUL ADD CALLDATALOAD SWAP1 POP POP POP POP JUMP JUMPDEST PUSH0 PUSH0 REVERT JUMPDEST PUSH0 PUSH0 REVERT JUMPDEST PUSH0 PUSH20 0xFFFFFFFFFFFFFFFFFFFFFFFFFFFFFFFFFFFFFFFF DUP3 AND SWAP1 POP SWAP2 SWAP1 POP JUMP JUMPDEST PUSH0 PUSH2 0x435 DUP3 PUSH2 0x40C JUMP JUMPDEST SWAP1 POP SWAP2 SWAP1 POP JUMP JUMPDEST PUSH2 0x445 DUP2 PUSH2 0x42B JUMP JUMPDEST DUP2 EQ PUSH2 0x44F JUMPI PUSH0 PUSH0 REVERT JUMPDEST POP JUMP JUMPDEST PUSH0 DUP2 CALLDATALOAD SWAP1 POP PUSH2 0x460 DUP2 PUSH2 0x43C JUMP JUMPDEST SWAP3 SWAP2 POP POP JUMP JUMPDEST PUSH0 PUSH1 0x20 DUP3 DUP5 SUB SLT ISZERO PUSH2 0x47B JUMPI PUSH2 0x47A PUSH2 0x404 JUMP JUMPDEST JUMPDEST PUSH0 PUSH2 0x488 DUP5 DUP3 DUP6 ADD PUSH2 0x452 JUMP JUMPDEST SWAP2 POP POP SWAP3 SWAP2 POP POP JUMP JUMPDEST PUSH0 DUP2 SWAP1 POP SWAP2 SWAP1 POP JUMP JUMPDEST PUSH2 0x4A3 DUP2 PUSH2 0x491 JUMP JUMPDEST DUP3 MSTORE POP POP JUMP JUMPDEST PUSH0 DUP2 MLOAD SWAP1 POP SWAP2 SWAP1 POP JUMP JUMPDEST PUSH0 DUP3 DUP3 MSTORE PUSH1 0x20 DUP3 ADD SWAP1 POP SWAP3 SWAP2 POP POP JUMP JUMPDEST DUP3 DUP2 DUP4 MCOPY PUSH0 DUP4 DUP4 ADD MSTORE POP POP POP JUMP JUMPDEST PUSH0 PUSH1 0x1F NOT PUSH1 0x1F DUP4 ADD AND SWAP1 POP SWAP2 SWAP1 POP JUMP JUMPDEST PUSH0 PUSH2 0x4EB DUP3 PUSH2 0x4A9 JUMP JUMPDEST PUSH2 0x4F5 DUP2 DUP6 PUSH2 0x4B3 JUMP JUMPDEST SWAP4 POP PUSH2 0x505 DUP2 DUP6 PUSH1 0x20 DUP7 ADD PUSH2 0x4C3 JUMP JUMPDEST PUSH2 0x50E DUP2 PUSH2 0x4D1 JUMP JUMPDEST DUP5 ADD SWAP2 POP POP SWAP3 SWAP2 POP POP JUMP JUMPDEST PUSH0 PUSH1 0x40 DUP3 ADD SWAP1 POP PUSH2 0x52C PUSH0 DUP4 ADD DUP6 PUSH2 0x49A JUMP JUMPDEST DUP2 DUP2 SUB PUSH1 0x20 DUP4 ADD MSTORE PUSH2 0x53E DUP2 DUP5 PUSH2 0x4E1 JUMP JUMPDEST SWAP1 POP SWAP4 SWAP3 POP POP POP JUMP JUMPDEST PUSH0 PUSH0 REVERT JUMPDEST PUSH0 PUSH0 REVERT JUMPDEST PUSH0 PUSH0 REVERT JUMPDEST PUSH0 PUSH0 DUP4 PUSH1 0x1F DUP5 ADD SLT PUSH2 0x568 JUMPI PUSH2 0x567 PUSH2 0x547 JUMP JUMPDEST JUMPDEST DUP3 CALLDATALOAD SWAP1 POP PUSH8 0xFFFFFFFFFFFFFFFF DUP2 GT ISZERO PUSH2 0x585 JUMPI PUSH2 0x584 PUSH2 0x54B JUMP JUMPDEST JUMPDEST PUSH1 0x20 DUP4 ADD SWAP2 POP DUP4 PUSH1 0x20 DUP3 MUL DUP4 ADD GT ISZERO PUSH2 0x5A1 JUMPI PUSH2 0x5A0 PUSH2 0x54F JUMP JUMPDEST JUMPDEST SWAP3 POP SWAP3 SWAP1 POP JUMP JUMPDEST PUSH0 PUSH0 DUP4 PUSH1 0x1F DUP5 ADD SLT PUSH2 0x5BD JUMPI PUSH2 0x5BC PUSH2 0x547 JUMP JUMPDEST JUMPDEST DUP3 CALLDATALOAD SWAP1 POP PUSH8 0xFFFFFFFFFFFFFFFF DUP2 GT ISZERO PUSH2 0x5DA JUMPI PUSH2 0x5D9 PUSH2 0x54B JUMP JUMPDEST JUMPDEST PUSH1 0x20 DUP4 ADD SWAP2 POP DUP4 PUSH1 0x1 DUP3 MUL DUP4 ADD GT ISZERO PUSH2 0x5F6 JUMPI PUSH2 0x5F5 PUSH2 0x54F JUMP JUMPDEST JUMPDEST SWAP3 POP SWAP3 SWAP1 POP JUMP JUMPDEST PUSH0 PUSH0 PUSH0 PUSH0 PUSH1 0x40 DUP6 DUP8 SUB SLT ISZERO PUSH2 0x615 JUMPI PUSH2 0x614 PUSH2 0x404 JUMP JUMPDEST JUMPDEST PUSH0 DUP6 ADD CALLDATALOAD PUSH8 0xFFFFFFFFFFFFFFFF DUP2 GT ISZERO PUSH2 0x632 JUMPI PUSH2 0x631 PUSH2 0x408 JUMP JUMPDEST JUMPDEST PUSH2 0x63E DUP8 DUP3 DUP9 ADD PUSH2 0x553 JUMP JUMPDEST SWAP5 POP SWAP5 POP POP PUSH1 0x20 DUP6 ADD CALLDATALOAD PUSH8 0xFFFFFFFFFFFFFFFF DUP2 GT ISZERO PUSH2 0x661 JUMPI PUSH2 0x660 PUSH2 0x408 JUMP JUMPDEST JUMPDEST PUSH2 0x66D DUP8 DUP3 DUP9 ADD PUSH2 0x5A8 JUMP JUMPDEST SWAP3 POP SWAP3 POP POP SWAP3 SWAP6 SWAP2 SWAP5 POP SWAP3 POP JUMP JUMPDEST PUSH0 DUP2 MLOAD SWAP1 POP SWAP2 SWAP1 POP JUMP JUMPDEST PUSH0 DUP3 DUP3 MSTORE PUSH1 0x20 DUP3 ADD SWAP1 POP SWAP3 SWAP2 POP POP JUMP JUMPDEST PUSH0 DUP2 SWAP1 POP PUSH1 0x20 DUP3 ADD SWAP1 POP SWAP2 SWAP1 POP JUMP JUMPDEST PUSH2 0x6AD DUP2 PUSH2 0x491 JUMP JUMPDEST DUP3 MSTORE POP POP JUMP JUMPDEST PUSH0 PUSH2 0x6BE DUP4 DUP4 PUSH2 0x6A4 JUMP JUMPDEST PUSH1 0x20 DUP4 ADD SWAP1 POP SWAP3 SWAP2 POP POP JUMP JUMPDEST PUSH0 PUSH1 0x20 DUP3 ADD SWAP1 POP SWAP2 SWAP1 POP JUMP JUMPDEST PUSH0 PUSH2 0x6E0 DUP3 PUSH2 0x67B JUMP JUMPDEST PUSH2 0x6EA DUP2 DUP6 PUSH2 0x685 JUMP JUMPDEST SWAP4 POP PUSH2 0x6F5 DUP4 PUSH2 0x695 JUMP JUMPDEST DUP1 PUSH0 JUMPDEST DUP4 DUP2 LT ISZERO PUSH2 0x725 JUMPI DUP2 MLOAD PUSH2 0x70C DUP9 DUP3 PUSH2 0x6B3 JUMP JUMPDEST SWAP8 POP PUSH2 0x717 DUP4 PUSH2 0x6CA JUMP JUMPDEST SWAP3 POP POP PUSH1 0x1 DUP2 ADD SWAP1 POP PUSH2 0x6F8 JUMP JUMPDEST POP DUP6 SWAP4 POP POP POP POP SWAP3 SWAP2 POP POP JUMP JUMPDEST PUSH0 PUSH1 0x20 DUP3 ADD SWAP1 POP DUP2 DUP2 SUB PUSH0 DUP4 ADD MSTORE PUSH2 0x74A DUP2 DUP5 PUSH2 0x6D6 JUMP JUMPDEST SWAP1 POP SWAP3 SWAP2 POP POP JUMP JUMPDEST PUSH32 0x4E487B7100000000000000000000000000000000000000000000000000000000 PUSH0 MSTORE PUSH1 0x22 PUSH1 0x4 MSTORE PUSH1 0x24 PUSH0 REVERT JUMPDEST PUSH0 PUSH1 0x2 DUP3 DIV SWAP1 POP PUSH1 0x1 DUP3 AND DUP1 PUSH2 0x796 JUMPI PUSH1 0x7F DUP3 AND SWAP2 POP JUMPDEST PUSH1 0x20 DUP3 LT DUP2 SUB PUSH2 0x7A9 JUMPI PUSH2 0x7A8 PUSH2 0x752 JUMP JUMPDEST JUMPDEST POP SWAP2 SWAP1 POP JUMP JUMPDEST PUSH32 0x4E487B7100000000000000000000000000000000000000000000000000000000 PUSH0 MSTORE PUSH1 0x41 PUSH1 0x4 MSTORE PUSH1 0x24 PUSH0 REVERT JUMPDEST PUSH0 DUP2 SWAP1 POP DUP2 PUSH0 MSTORE PUSH1 0x20 PUSH0 KECCAK256 SWAP1 POP SWAP2 SWAP1 POP JUMP JUMPDEST PUSH0 PUSH1 0x20 PUSH1 0x1F DUP4 ADD DIV SWAP1 POP SWAP2 SWAP1 POP JUMP JUMPDEST PUSH0 DUP3 DUP3 SHL SWAP1 POP SWAP3 SWAP2 POP POP JUMP JUMPDEST PUSH0 PUSH1 0x8 DUP4 MUL PUSH2 0x838 PUSH32 0xFFFFFFFFFFFFFFFFFFFFFFFFFFFFFFFFFFFFFFFFFFFFFFFFFFFFFFFFFFFFFFFF DUP3 PUSH2 0x7FD JUMP JUMPDEST PUSH2 0x842 DUP7 DUP4 PUSH2 0x7FD JUMP JUMPDEST SWAP6 POP DUP1 NOT DUP5 AND SWAP4 POP DUP1 DUP7 AND DUP5 OR SWAP3 POP POP POP SWAP4 SWAP3 POP POP POP JUMP JUMPDEST PUSH0 DUP2 SWAP1 POP SWAP2 SWAP1 POP JUMP JUMPDEST PUSH0 PUSH2 0x87D PUSH2 0x878 PUSH2 0x873 DUP5 PUSH2 0x491 JUMP JUMPDEST PUSH2 0x85A JUMP JUMPDEST PUSH2 0x491 JUMP JUMPDEST SWAP1 POP SWAP2 SWAP1 POP JUMP JUMPDEST PUSH0 DUP2 SWAP1 POP SWAP2 SWAP1 POP JUMP JUMPDEST PUSH2 0x896 DUP4 PUSH2 0x863 JUMP JUMPDEST PUSH2 0x8AA PUSH2 0x8A2 DUP3 PUSH2 0x884 JUMP JUMPDEST DUP5 DUP5 SLOAD PUSH2 0x809 JUMP JUMPDEST DUP3 SSTORE POP POP POP POP JUMP JUMPDEST PUSH0 PUSH0 SWAP1 POP SWAP1 JUMP JUMPDEST PUSH2 0x8C1 PUSH2 0x8B2 JUMP JUMPDEST PUSH2 0x8CC DUP2 DUP5 DUP5 PUSH2 0x88D JUMP JUMPDEST POP POP POP JUMP JUMPDEST JUMPDEST DUP2 DUP2 LT ISZERO PUSH2 0x8EF JUMPI PUSH2 0x8E4 PUSH0 DUP3 PUSH2 0x8B9 JUMP JUMPDEST PUSH1 0x1 DUP2 ADD SWAP1 POP PUSH2 0x8D2 JUMP JUMPDEST POP POP JUMP JUMPDEST PUSH1 0x1F DUP3 GT ISZERO PUSH2 0x934 JUMPI PUSH2 0x905 DUP2 PUSH2 0x7DC JUMP JUMPDEST PUSH2 0x90E DUP5 PUSH2 0x7EE JUMP JUMPDEST DUP2 ADD PUSH1 0x20 DUP6 LT ISZERO PUSH2 0x91D JUMPI DUP2 SWAP1 POP JUMPDEST PUSH2 0x931 PUSH2 0x929 DUP6 PUSH2 0x7EE JUMP JUMPDEST DUP4 ADD DUP3 PUSH2 0x8D1 JUMP JUMPDEST POP POP JUMPDEST POP POP POP JUMP JUMPDEST PUSH0 DUP3 DUP3 SHR SWAP1 POP SWAP3 SWAP2 POP POP JUMP JUMPDEST PUSH0 PUSH2 0x954 PUSH0 NOT DUP5 PUSH1 0x8 MUL PUSH2 0x939 JUMP JUMPDEST NOT DUP1 DUP4 AND SWAP2 POP POP SWAP3 SWAP2 POP POP JUMP JUMPDEST PUSH0 PUSH2 0x96C DUP4 DUP4 PUSH2 0x945 JUMP JUMPDEST SWAP2 POP DUP3 PUSH1 0x2 MUL DUP3 OR SWAP1 POP SWAP3 SWAP2 POP POP JUMP JUMPDEST PUSH2 0x985 DUP3 PUSH2 0x4A9 JUMP JUMPDEST PUSH8 0xFFFFFFFFFFFFFFFF DUP2 GT ISZERO PUSH2 0x99E JUMPI PUSH2 0x99D PUSH2 0x7AF JUMP JUMPDEST JUMPDEST PUSH2 0x9A8 DUP3 SLOAD PUSH2 0x77F JUMP JUMPDEST PUSH2 0x9B3 DUP3 DUP3 DUP6 PUSH2 0x8F3 JUMP JUMPDEST PUSH0 PUSH1 0x20 SWAP1 POP PUSH1 0x1F DUP4 GT PUSH1 0x1 DUP2 EQ PUSH2 0x9E4 JUMPI PUSH0 DUP5 ISZERO PUSH2 0x9D2 JUMPI DUP3 DUP8 ADD MLOAD SWAP1 POP JUMPDEST PUSH2 0x9DC DUP6 DUP3 PUSH2 0x961 JUMP JUMPDEST DUP7 SSTORE POP PUSH2 0xA43 JUMP JUMPDEST PUSH1 0x1F NOT DUP5 AND PUSH2 0x9F2 DUP7 PUSH2 0x7DC JUMP JUMPDEST PUSH0 JUMPDEST DUP3 DUP2 LT ISZERO PUSH2 0xA19 JUMPI DUP5 DUP10 ADD MLOAD DUP3 SSTORE PUSH1 0x1 DUP3 ADD SWAP2 POP PUSH1 0x20 DUP6 ADD SWAP5 POP PUSH1 0x20 DUP2 ADD SWAP1 POP PUSH2 0x9F4 JUMP JUMPDEST DUP7 DUP4 LT ISZERO PUSH2 0xA36 JUMPI DUP5 DUP10 ADD MLOAD PUSH2 0xA32 PUSH1 0x1F DUP10 AND DUP3 PUSH2 0x945 JUMP JUMPDEST DUP4 SSTORE POP JUMPDEST PUSH1 0x1 PUSH1 0x2 DUP9 MUL ADD DUP9 SSTORE POP POP POP JUMPDEST POP POP POP POP POP POP JUMP JUMPDEST PUSH32 0x4E487B7100000000000000000000000000000000000000000000000000000000 PUSH0 MSTORE PUSH1 0x32 PUSH1 0x4 MSTORE PUSH1 0x24 PUSH0 REVERT INVALID LOG2 PUSH5 0x6970667358 0x22 SLT KECCAK256 BALANCE CODECOPY PUSH30 0x3D89D403350BCECD1F8C614E99902FB86E7CD4DD217472BC9E767B645664 PUSH20 0x6F6C634300081E00330000000000000000000000 "
				},
				"gasEstimates": {
					"creation": {
						"codeDepositCost": "546800",
						"executionCost": "579",
						"totalCost": "547379"
					},
					"external": {
						"examples(uint256[],string)": "infinite",
						"myStructs(address)": "infinite"
					},
					"internal": {
						"_internal(uint256[] calldata)": "76"
					}
				},
				"methodIdentifiers": {
					"examples(uint256[],string)": "fc277a95",
					"myStructs(address)": "b43c5d33"
				}
			},
			"storageLayout": {
				"storage": [
					{
						"astId": 11,
						"contract": "contracts/StorageMemoryCalldata.sol:DataLocations",
						"label": "myStructs",
						"offset": 0,
						"slot": "0",
						"type": "t_mapping(t_address,t_struct(MyStruct)6_storage)"
					}
				],
				"types": {
					"t_address": {
						"encoding": "inplace",
						"label": "address",
						"numberOfBytes": "20"
					},
					"t_mapping(t_address,t_struct(MyStruct)6_storage)": {
						"encoding": "mapping",
						"key": "t_address",
						"label": "mapping(address => struct DataLocations.MyStruct)",
						"numberOfBytes": "32",
						"value": "t_struct(MyStruct)6_storage"
					},
					"t_string_storage": {
						"encoding": "bytes",
						"label": "string",
						"numberOfBytes": "32"
					},
					"t_struct(MyStruct)6_storage": {
						"encoding": "inplace",
						"label": "struct DataLocations.MyStruct",
						"members": [
							{
								"astId": 3,
								"contract": "contracts/StorageMemoryCalldata.sol:DataLocations",
								"label": "foo",
								"offset": 0,
								"slot": "0",
								"type": "t_uint256"
							},
							{
								"astId": 5,
								"contract": "contracts/StorageMemoryCalldata.sol:DataLocations",
								"label": "text",
								"offset": 0,
								"slot": "1",
								"type": "t_string_storage"
							}
						],
						"numberOfBytes": "64"
					},
					"t_uint256": {
						"encoding": "inplace",
						"label": "uint256",
						"numberOfBytes": "32"
					}
				}
			},
			"userdoc": {
				"kind": "user",
				"methods": {},
				"version": 1
			}
		}
	}
}