{
	"contracts/other/MostSignificantBit.sol": {
		"MostSignificantBitAssembly": {
			"abi": [
				{
					"inputs": [],
					"name": "MAX_UINT",
					"outputs": [
						{
							"internalType": "uint256",
							"name": "",
							"type": "uint256"
						}
					],
					"stateMutability": "view",
					"type": "function"
				},
				{
					"inputs": [
						{
							"internalType": "uint256",
							"name": "x",
							"type": "uint256"
						}
					],
					"name": "mostSignificantBit",
					"outputs": [
						{
							"internalType": "uint256",
							"name": "r",
							"type": "uint256"
						}
					],
					"stateMutability": "pure",
					"type": "function"
				},
				{
					"inputs": [
						{
							"internalType": "uint256",
							"name": "x",
							"type": "uint256"
						}
					],
					"name": "mostSignificantBit1",
					"outputs": [
						{
							"internalType": "uint256",
							"name": "msb",
							"type": "uint256"
						}
					],
					"stateMutability": "pure",
					"type": "function"
				}
			],
			"devdoc": {
				"kind": "dev",
				"methods": {},
				"version": 1
			},
			"evm": {
				"assembly": "    /* \"contracts/other/MostSignificantBit.sol\":58:2259  contract MostSignificantBitAssembly {... */\n  mstore(0x40, 0x80)\n  callvalue\n  dup1\n  iszero\n  tag_1\n  jumpi\n  0x00\n  dup1\n  revert\ntag_1:\n  pop\n  dataSize(sub_0)\n  dup1\n  dataOffset(sub_0)\n  0x00\n  codecopy\n  0x00\n  return\nstop\n\nsub_0: assembly {\n        /* \"contracts/other/MostSignificantBit.sol\":58:2259  contract MostSignificantBitAssembly {... */\n      mstore(0x40, 0x80)\n      callvalue\n      dup1\n      iszero\n      tag_1\n      jumpi\n      0x00\n      dup1\n      revert\n    tag_1:\n      pop\n      jumpi(tag_2, lt(calldatasize, 0x04))\n      shr(0xe0, calldataload(0x00))\n      dup1\n      0x2841a2c4\n      eq\n      tag_3\n      jumpi\n      dup1\n      0xe5b5019a\n      eq\n      tag_4\n      jumpi\n      dup1\n      0xe6bcbc65\n      eq\n      tag_5\n      jumpi\n    tag_2:\n      0x00\n      dup1\n      revert\n        /* \"contracts/other/MostSignificantBit.sol\":1313:2257  function mostSignificantBit1(uint256 x)... */\n    tag_3:\n      tag_6\n      0x04\n      dup1\n      calldatasize\n      sub\n      dup2\n      add\n      swap1\n      tag_7\n      swap2\n      swap1\n      tag_8\n      jump\t// in\n    tag_7:\n      tag_9\n      jump\t// in\n    tag_6:\n      mload(0x40)\n      tag_10\n      swap2\n      swap1\n      tag_11\n      jump\t// in\n    tag_10:\n      mload(0x40)\n      dup1\n      swap2\n      sub\n      swap1\n      return\n        /* \"contracts/other/MostSignificantBit.sol\":100:152  uint256 public constant MAX_UINT = type(uint256).max */\n    tag_4:\n      tag_12\n      tag_13\n      jump\t// in\n    tag_12:\n      mload(0x40)\n      tag_14\n      swap2\n      swap1\n      tag_11\n      jump\t// in\n    tag_14:\n      mload(0x40)\n      dup1\n      swap2\n      sub\n      swap1\n      return\n        /* \"contracts/other/MostSignificantBit.sol\":174:1295  function mostSignificantBit(uint256 x) external pure returns (uint256 r) {... */\n    tag_5:\n      tag_15\n      0x04\n      dup1\n      calldatasize\n      sub\n      dup2\n      add\n      swap1\n      tag_16\n      swap2\n      swap1\n      tag_8\n      jump\t// in\n    tag_16:\n      tag_17\n      jump\t// in\n    tag_15:\n      mload(0x40)\n      tag_18\n      swap2\n      swap1\n      tag_11\n      jump\t// in\n    tag_18:\n      mload(0x40)\n      dup1\n      swap2\n      sub\n      swap1\n      return\n        /* \"contracts/other/MostSignificantBit.sol\":1313:2257  function mostSignificantBit1(uint256 x)... */\n    tag_9:\n        /* \"contracts/other/MostSignificantBit.sol\":1400:1411  uint256 msb */\n      0x00\n        /* \"contracts/other/MostSignificantBit.sol\":1461:1496  0x100000000000000000000000000000000 */\n      0x0100000000000000000000000000000000\n        /* \"contracts/other/MostSignificantBit.sol\":1456:1457  x */\n      dup3\n        /* \"contracts/other/MostSignificantBit.sol\":1456:1496  x >= 0x100000000000000000000000000000000 */\n      lt\n        /* \"contracts/other/MostSignificantBit.sol\":1452:1556  if (x >= 0x100000000000000000000000000000000) {... */\n      tag_20\n      jumpi\n        /* \"contracts/other/MostSignificantBit.sol\":1518:1521  128 */\n      0x80\n        /* \"contracts/other/MostSignificantBit.sol\":1512:1521  x >>= 128 */\n      dup3\n      swap1\n      shr\n      swap2\n      pop\n        /* \"contracts/other/MostSignificantBit.sol\":1542:1545  128 */\n      0x80\n        /* \"contracts/other/MostSignificantBit.sol\":1535:1545  msb += 128 */\n      dup2\n      tag_21\n      swap2\n      swap1\n      tag_22\n      jump\t// in\n    tag_21:\n      swap1\n      pop\n        /* \"contracts/other/MostSignificantBit.sol\":1452:1556  if (x >= 0x100000000000000000000000000000000) {... */\n    tag_20:\n        /* \"contracts/other/MostSignificantBit.sol\":1598:1617  0x10000000000000000 */\n      0x010000000000000000\n        /* \"contracts/other/MostSignificantBit.sol\":1593:1594  x */\n      dup3\n        /* \"contracts/other/MostSignificantBit.sol\":1593:1617  x >= 0x10000000000000000 */\n      lt\n        /* \"contracts/other/MostSignificantBit.sol\":1589:1675  if (x >= 0x10000000000000000) {... */\n      tag_23\n      jumpi\n        /* \"contracts/other/MostSignificantBit.sol\":1639:1641  64 */\n      0x40\n        /* \"contracts/other/MostSignificantBit.sol\":1633:1641  x >>= 64 */\n      dup3\n      swap1\n      shr\n      swap2\n      pop\n        /* \"contracts/other/MostSignificantBit.sol\":1662:1664  64 */\n      0x40\n        /* \"contracts/other/MostSignificantBit.sol\":1655:1664  msb += 64 */\n      dup2\n      tag_24\n      swap2\n      swap1\n      tag_22\n      jump\t// in\n    tag_24:\n      swap1\n      pop\n        /* \"contracts/other/MostSignificantBit.sol\":1589:1675  if (x >= 0x10000000000000000) {... */\n    tag_23:\n        /* \"contracts/other/MostSignificantBit.sol\":1717:1728  0x100000000 */\n      0x0100000000\n        /* \"contracts/other/MostSignificantBit.sol\":1712:1713  x */\n      dup3\n        /* \"contracts/other/MostSignificantBit.sol\":1712:1728  x >= 0x100000000 */\n      lt\n        /* \"contracts/other/MostSignificantBit.sol\":1708:1786  if (x >= 0x100000000) {... */\n      tag_25\n      jumpi\n        /* \"contracts/other/MostSignificantBit.sol\":1750:1752  32 */\n      0x20\n        /* \"contracts/other/MostSignificantBit.sol\":1744:1752  x >>= 32 */\n      dup3\n      swap1\n      shr\n      swap2\n      pop\n        /* \"contracts/other/MostSignificantBit.sol\":1773:1775  32 */\n      0x20\n        /* \"contracts/other/MostSignificantBit.sol\":1766:1775  msb += 32 */\n      dup2\n      tag_26\n      swap2\n      swap1\n      tag_22\n      jump\t// in\n    tag_26:\n      swap1\n      pop\n        /* \"contracts/other/MostSignificantBit.sol\":1708:1786  if (x >= 0x100000000) {... */\n    tag_25:\n        /* \"contracts/other/MostSignificantBit.sol\":1828:1835  0x10000 */\n      0x010000\n        /* \"contracts/other/MostSignificantBit.sol\":1823:1824  x */\n      dup3\n        /* \"contracts/other/MostSignificantBit.sol\":1823:1835  x >= 0x10000 */\n      lt\n        /* \"contracts/other/MostSignificantBit.sol\":1819:1893  if (x >= 0x10000) {... */\n      tag_27\n      jumpi\n        /* \"contracts/other/MostSignificantBit.sol\":1857:1859  16 */\n      0x10\n        /* \"contracts/other/MostSignificantBit.sol\":1851:1859  x >>= 16 */\n      dup3\n      swap1\n      shr\n      swap2\n      pop\n        /* \"contracts/other/MostSignificantBit.sol\":1880:1882  16 */\n      0x10\n        /* \"contracts/other/MostSignificantBit.sol\":1873:1882  msb += 16 */\n      dup2\n      tag_28\n      swap2\n      swap1\n      tag_22\n      jump\t// in\n    tag_28:\n      swap1\n      pop\n        /* \"contracts/other/MostSignificantBit.sol\":1819:1893  if (x >= 0x10000) {... */\n    tag_27:\n        /* \"contracts/other/MostSignificantBit.sol\":1934:1939  0x100 */\n      0x0100\n        /* \"contracts/other/MostSignificantBit.sol\":1929:1930  x */\n      dup3\n        /* \"contracts/other/MostSignificantBit.sol\":1929:1939  x >= 0x100 */\n      lt\n        /* \"contracts/other/MostSignificantBit.sol\":1925:1995  if (x >= 0x100) {... */\n      tag_29\n      jumpi\n        /* \"contracts/other/MostSignificantBit.sol\":1961:1962  8 */\n      0x08\n        /* \"contracts/other/MostSignificantBit.sol\":1955:1962  x >>= 8 */\n      dup3\n      swap1\n      shr\n      swap2\n      pop\n        /* \"contracts/other/MostSignificantBit.sol\":1983:1984  8 */\n      0x08\n        /* \"contracts/other/MostSignificantBit.sol\":1976:1984  msb += 8 */\n      dup2\n      tag_30\n      swap2\n      swap1\n      tag_22\n      jump\t// in\n    tag_30:\n      swap1\n      pop\n        /* \"contracts/other/MostSignificantBit.sol\":1925:1995  if (x >= 0x100) {... */\n    tag_29:\n        /* \"contracts/other/MostSignificantBit.sol\":2036:2040  0x10 */\n      0x10\n        /* \"contracts/other/MostSignificantBit.sol\":2031:2032  x */\n      dup3\n        /* \"contracts/other/MostSignificantBit.sol\":2031:2040  x >= 0x10 */\n      lt\n        /* \"contracts/other/MostSignificantBit.sol\":2027:2096  if (x >= 0x10) {... */\n      tag_31\n      jumpi\n        /* \"contracts/other/MostSignificantBit.sol\":2062:2063  4 */\n      0x04\n        /* \"contracts/other/MostSignificantBit.sol\":2056:2063  x >>= 4 */\n      dup3\n      swap1\n      shr\n      swap2\n      pop\n        /* \"contracts/other/MostSignificantBit.sol\":2084:2085  4 */\n      0x04\n        /* \"contracts/other/MostSignificantBit.sol\":2077:2085  msb += 4 */\n      dup2\n      tag_32\n      swap2\n      swap1\n      tag_22\n      jump\t// in\n    tag_32:\n      swap1\n      pop\n        /* \"contracts/other/MostSignificantBit.sol\":2027:2096  if (x >= 0x10) {... */\n    tag_31:\n        /* \"contracts/other/MostSignificantBit.sol\":2137:2140  0x4 */\n      0x04\n        /* \"contracts/other/MostSignificantBit.sol\":2132:2133  x */\n      dup3\n        /* \"contracts/other/MostSignificantBit.sol\":2132:2140  x >= 0x4 */\n      lt\n        /* \"contracts/other/MostSignificantBit.sol\":2128:2196  if (x >= 0x4) {... */\n      tag_33\n      jumpi\n        /* \"contracts/other/MostSignificantBit.sol\":2162:2163  2 */\n      0x02\n        /* \"contracts/other/MostSignificantBit.sol\":2156:2163  x >>= 2 */\n      dup3\n      swap1\n      shr\n      swap2\n      pop\n        /* \"contracts/other/MostSignificantBit.sol\":2184:2185  2 */\n      0x02\n        /* \"contracts/other/MostSignificantBit.sol\":2177:2185  msb += 2 */\n      dup2\n      tag_34\n      swap2\n      swap1\n      tag_22\n      jump\t// in\n    tag_34:\n      swap1\n      pop\n        /* \"contracts/other/MostSignificantBit.sol\":2128:2196  if (x >= 0x4) {... */\n    tag_33:\n        /* \"contracts/other/MostSignificantBit.sol\":2237:2240  0x2 */\n      0x02\n        /* \"contracts/other/MostSignificantBit.sol\":2232:2233  x */\n      dup3\n        /* \"contracts/other/MostSignificantBit.sol\":2232:2240  x >= 0x2 */\n      lt\n        /* \"contracts/other/MostSignificantBit.sol\":2228:2250  if (x >= 0x2) msb += 1 */\n      tag_35\n      jumpi\n        /* \"contracts/other/MostSignificantBit.sol\":2249:2250  1 */\n      0x01\n        /* \"contracts/other/MostSignificantBit.sol\":2242:2250  msb += 1 */\n      dup2\n      tag_36\n      swap2\n      swap1\n      tag_22\n      jump\t// in\n    tag_36:\n      swap1\n      pop\n        /* \"contracts/other/MostSignificantBit.sol\":2228:2250  if (x >= 0x2) msb += 1 */\n    tag_35:\n        /* \"contracts/other/MostSignificantBit.sol\":1313:2257  function mostSignificantBit1(uint256 x)... */\n      swap2\n      swap1\n      pop\n      jump\t// out\n        /* \"contracts/other/MostSignificantBit.sol\":100:152  uint256 public constant MAX_UINT = type(uint256).max */\n    tag_13:\n        /* \"contracts/other/MostSignificantBit.sol\":135:152  type(uint256).max */\n      0xffffffffffffffffffffffffffffffffffffffffffffffffffffffffffffffff\n        /* \"contracts/other/MostSignificantBit.sol\":100:152  uint256 public constant MAX_UINT = type(uint256).max */\n      dup2\n      jump\t// out\n        /* \"contracts/other/MostSignificantBit.sol\":174:1295  function mostSignificantBit(uint256 x) external pure returns (uint256 r) {... */\n    tag_17:\n        /* \"contracts/other/MostSignificantBit.sol\":236:245  uint256 r */\n      0x00\n        /* \"contracts/other/MostSignificantBit.sol\":302:336  0xFFFFFFFFFFFFFFFFFFFFFFFFFFFFFFFF */\n      0xffffffffffffffffffffffffffffffff\n        /* \"contracts/other/MostSignificantBit.sol\":299:300  x */\n      dup3\n        /* \"contracts/other/MostSignificantBit.sol\":296:337  gt(x, 0xFFFFFFFFFFFFFFFFFFFFFFFFFFFFFFFF) */\n      gt\n        /* \"contracts/other/MostSignificantBit.sol\":293:294  7 */\n      0x07\n        /* \"contracts/other/MostSignificantBit.sol\":289:338  shl(7, gt(x, 0xFFFFFFFFFFFFFFFFFFFFFFFFFFFFFFFF)) */\n      shl\n        /* \"contracts/other/MostSignificantBit.sol\":363:364  x */\n      dup3\n        /* \"contracts/other/MostSignificantBit.sol\":360:361  f */\n      dup2\n        /* \"contracts/other/MostSignificantBit.sol\":356:365  shr(f, x) */\n      shr\n        /* \"contracts/other/MostSignificantBit.sol\":351:365  x := shr(f, x) */\n      swap3\n      pop\n        /* \"contracts/other/MostSignificantBit.sol\":432:433  f */\n      dup1\n        /* \"contracts/other/MostSignificantBit.sol\":429:430  r */\n      dup3\n        /* \"contracts/other/MostSignificantBit.sol\":426:434  or(r, f) */\n      or\n        /* \"contracts/other/MostSignificantBit.sol\":421:434  r := or(r, f) */\n      swap2\n      pop\n        /* \"contracts/other/MostSignificantBit.sol\":266:444  {... */\n      pop\n        /* \"contracts/other/MostSignificantBit.sol\":498:516  0xFFFFFFFFFFFFFFFF */\n      0xffffffffffffffff\n        /* \"contracts/other/MostSignificantBit.sol\":495:496  x */\n      dup3\n        /* \"contracts/other/MostSignificantBit.sol\":492:517  gt(x, 0xFFFFFFFFFFFFFFFF) */\n      gt\n        /* \"contracts/other/MostSignificantBit.sol\":489:490  6 */\n      0x06\n        /* \"contracts/other/MostSignificantBit.sol\":485:518  shl(6, gt(x, 0xFFFFFFFFFFFFFFFF)) */\n      shl\n        /* \"contracts/other/MostSignificantBit.sol\":543:544  x */\n      dup3\n        /* \"contracts/other/MostSignificantBit.sol\":540:541  f */\n      dup2\n        /* \"contracts/other/MostSignificantBit.sol\":536:545  shr(f, x) */\n      shr\n        /* \"contracts/other/MostSignificantBit.sol\":531:545  x := shr(f, x) */\n      swap3\n      pop\n        /* \"contracts/other/MostSignificantBit.sol\":569:570  f */\n      dup1\n        /* \"contracts/other/MostSignificantBit.sol\":566:567  r */\n      dup3\n        /* \"contracts/other/MostSignificantBit.sol\":563:571  or(r, f) */\n      or\n        /* \"contracts/other/MostSignificantBit.sol\":558:571  r := or(r, f) */\n      swap2\n      pop\n        /* \"contracts/other/MostSignificantBit.sol\":462:581  {... */\n      pop\n        /* \"contracts/other/MostSignificantBit.sol\":635:645  0xFFFFFFFF */\n      0xffffffff\n        /* \"contracts/other/MostSignificantBit.sol\":632:633  x */\n      dup3\n        /* \"contracts/other/MostSignificantBit.sol\":629:646  gt(x, 0xFFFFFFFF) */\n      gt\n        /* \"contracts/other/MostSignificantBit.sol\":626:627  5 */\n      0x05\n        /* \"contracts/other/MostSignificantBit.sol\":622:647  shl(5, gt(x, 0xFFFFFFFF)) */\n      shl\n        /* \"contracts/other/MostSignificantBit.sol\":672:673  x */\n      dup3\n        /* \"contracts/other/MostSignificantBit.sol\":669:670  f */\n      dup2\n        /* \"contracts/other/MostSignificantBit.sol\":665:674  shr(f, x) */\n      shr\n        /* \"contracts/other/MostSignificantBit.sol\":660:674  x := shr(f, x) */\n      swap3\n      pop\n        /* \"contracts/other/MostSignificantBit.sol\":698:699  f */\n      dup1\n        /* \"contracts/other/MostSignificantBit.sol\":695:696  r */\n      dup3\n        /* \"contracts/other/MostSignificantBit.sol\":692:700  or(r, f) */\n      or\n        /* \"contracts/other/MostSignificantBit.sol\":687:700  r := or(r, f) */\n      swap2\n      pop\n        /* \"contracts/other/MostSignificantBit.sol\":599:710  {... */\n      pop\n        /* \"contracts/other/MostSignificantBit.sol\":764:770  0xFFFF */\n      0xffff\n        /* \"contracts/other/MostSignificantBit.sol\":761:762  x */\n      dup3\n        /* \"contracts/other/MostSignificantBit.sol\":758:771  gt(x, 0xFFFF) */\n      gt\n        /* \"contracts/other/MostSignificantBit.sol\":755:756  4 */\n      0x04\n        /* \"contracts/other/MostSignificantBit.sol\":751:772  shl(4, gt(x, 0xFFFF)) */\n      shl\n        /* \"contracts/other/MostSignificantBit.sol\":797:798  x */\n      dup3\n        /* \"contracts/other/MostSignificantBit.sol\":794:795  f */\n      dup2\n        /* \"contracts/other/MostSignificantBit.sol\":790:799  shr(f, x) */\n      shr\n        /* \"contracts/other/MostSignificantBit.sol\":785:799  x := shr(f, x) */\n      swap3\n      pop\n        /* \"contracts/other/MostSignificantBit.sol\":823:824  f */\n      dup1\n        /* \"contracts/other/MostSignificantBit.sol\":820:821  r */\n      dup3\n        /* \"contracts/other/MostSignificantBit.sol\":817:825  or(r, f) */\n      or\n        /* \"contracts/other/MostSignificantBit.sol\":812:825  r := or(r, f) */\n      swap2\n      pop\n        /* \"contracts/other/MostSignificantBit.sol\":728:835  {... */\n      pop\n        /* \"contracts/other/MostSignificantBit.sol\":889:893  0xFF */\n      0xff\n        /* \"contracts/other/MostSignificantBit.sol\":886:887  x */\n      dup3\n        /* \"contracts/other/MostSignificantBit.sol\":883:894  gt(x, 0xFF) */\n      gt\n        /* \"contracts/other/MostSignificantBit.sol\":880:881  3 */\n      0x03\n        /* \"contracts/other/MostSignificantBit.sol\":876:895  shl(3, gt(x, 0xFF)) */\n      shl\n        /* \"contracts/other/MostSignificantBit.sol\":920:921  x */\n      dup3\n        /* \"contracts/other/MostSignificantBit.sol\":917:918  f */\n      dup2\n        /* \"contracts/other/MostSignificantBit.sol\":913:922  shr(f, x) */\n      shr\n        /* \"contracts/other/MostSignificantBit.sol\":908:922  x := shr(f, x) */\n      swap3\n      pop\n        /* \"contracts/other/MostSignificantBit.sol\":946:947  f */\n      dup1\n        /* \"contracts/other/MostSignificantBit.sol\":943:944  r */\n      dup3\n        /* \"contracts/other/MostSignificantBit.sol\":940:948  or(r, f) */\n      or\n        /* \"contracts/other/MostSignificantBit.sol\":935:948  r := or(r, f) */\n      swap2\n      pop\n        /* \"contracts/other/MostSignificantBit.sol\":853:958  {... */\n      pop\n        /* \"contracts/other/MostSignificantBit.sol\":1012:1015  0xF */\n      0x0f\n        /* \"contracts/other/MostSignificantBit.sol\":1009:1010  x */\n      dup3\n        /* \"contracts/other/MostSignificantBit.sol\":1006:1016  gt(x, 0xF) */\n      gt\n        /* \"contracts/other/MostSignificantBit.sol\":1003:1004  2 */\n      0x02\n        /* \"contracts/other/MostSignificantBit.sol\":999:1017  shl(2, gt(x, 0xF)) */\n      shl\n        /* \"contracts/other/MostSignificantBit.sol\":1042:1043  x */\n      dup3\n        /* \"contracts/other/MostSignificantBit.sol\":1039:1040  f */\n      dup2\n        /* \"contracts/other/MostSignificantBit.sol\":1035:1044  shr(f, x) */\n      shr\n        /* \"contracts/other/MostSignificantBit.sol\":1030:1044  x := shr(f, x) */\n      swap3\n      pop\n        /* \"contracts/other/MostSignificantBit.sol\":1068:1069  f */\n      dup1\n        /* \"contracts/other/MostSignificantBit.sol\":1065:1066  r */\n      dup3\n        /* \"contracts/other/MostSignificantBit.sol\":1062:1070  or(r, f) */\n      or\n        /* \"contracts/other/MostSignificantBit.sol\":1057:1070  r := or(r, f) */\n      swap2\n      pop\n        /* \"contracts/other/MostSignificantBit.sol\":976:1080  {... */\n      pop\n        /* \"contracts/other/MostSignificantBit.sol\":1134:1137  0x3 */\n      0x03\n        /* \"contracts/other/MostSignificantBit.sol\":1131:1132  x */\n      dup3\n        /* \"contracts/other/MostSignificantBit.sol\":1128:1138  gt(x, 0x3) */\n      gt\n        /* \"contracts/other/MostSignificantBit.sol\":1125:1126  1 */\n      0x01\n        /* \"contracts/other/MostSignificantBit.sol\":1121:1139  shl(1, gt(x, 0x3)) */\n      shl\n        /* \"contracts/other/MostSignificantBit.sol\":1164:1165  x */\n      dup3\n        /* \"contracts/other/MostSignificantBit.sol\":1161:1162  f */\n      dup2\n        /* \"contracts/other/MostSignificantBit.sol\":1157:1166  shr(f, x) */\n      shr\n        /* \"contracts/other/MostSignificantBit.sol\":1152:1166  x := shr(f, x) */\n      swap3\n      pop\n        /* \"contracts/other/MostSignificantBit.sol\":1190:1191  f */\n      dup1\n        /* \"contracts/other/MostSignificantBit.sol\":1187:1188  r */\n      dup3\n        /* \"contracts/other/MostSignificantBit.sol\":1184:1192  or(r, f) */\n      or\n        /* \"contracts/other/MostSignificantBit.sol\":1179:1192  r := or(r, f) */\n      swap2\n      pop\n        /* \"contracts/other/MostSignificantBit.sol\":1098:1202  {... */\n      pop\n        /* \"contracts/other/MostSignificantBit.sol\":1249:1252  0x1 */\n      0x01\n        /* \"contracts/other/MostSignificantBit.sol\":1246:1247  x */\n      dup3\n        /* \"contracts/other/MostSignificantBit.sol\":1243:1253  gt(x, 0x1) */\n      gt\n        /* \"contracts/other/MostSignificantBit.sol\":1277:1278  f */\n      dup1\n        /* \"contracts/other/MostSignificantBit.sol\":1274:1275  r */\n      dup3\n        /* \"contracts/other/MostSignificantBit.sol\":1271:1279  or(r, f) */\n      or\n        /* \"contracts/other/MostSignificantBit.sol\":1266:1279  r := or(r, f) */\n      swap2\n      pop\n        /* \"contracts/other/MostSignificantBit.sol\":1220:1289  {... */\n      pop\n        /* \"contracts/other/MostSignificantBit.sol\":174:1295  function mostSignificantBit(uint256 x) external pure returns (uint256 r) {... */\n      swap2\n      swap1\n      pop\n      jump\t// out\n        /* \"#utility.yul\":88:205   */\n    tag_39:\n        /* \"#utility.yul\":197:198   */\n      0x00\n        /* \"#utility.yul\":194:195   */\n      dup1\n        /* \"#utility.yul\":187:199   */\n      revert\n        /* \"#utility.yul\":334:411   */\n    tag_41:\n        /* \"#utility.yul\":371:378   */\n      0x00\n        /* \"#utility.yul\":400:405   */\n      dup2\n        /* \"#utility.yul\":389:405   */\n      swap1\n      pop\n        /* \"#utility.yul\":334:411   */\n      swap2\n      swap1\n      pop\n      jump\t// out\n        /* \"#utility.yul\":417:539   */\n    tag_42:\n        /* \"#utility.yul\":490:514   */\n      tag_52\n        /* \"#utility.yul\":508:513   */\n      dup2\n        /* \"#utility.yul\":490:514   */\n      tag_41\n      jump\t// in\n    tag_52:\n        /* \"#utility.yul\":483:488   */\n      dup2\n        /* \"#utility.yul\":480:515   */\n      eq\n        /* \"#utility.yul\":470:533   */\n      tag_53\n      jumpi\n        /* \"#utility.yul\":529:530   */\n      0x00\n        /* \"#utility.yul\":526:527   */\n      dup1\n        /* \"#utility.yul\":519:531   */\n      revert\n        /* \"#utility.yul\":470:533   */\n    tag_53:\n        /* \"#utility.yul\":417:539   */\n      pop\n      jump\t// out\n        /* \"#utility.yul\":545:684   */\n    tag_43:\n        /* \"#utility.yul\":591:596   */\n      0x00\n        /* \"#utility.yul\":629:635   */\n      dup2\n        /* \"#utility.yul\":616:636   */\n      calldataload\n        /* \"#utility.yul\":607:636   */\n      swap1\n      pop\n        /* \"#utility.yul\":645:678   */\n      tag_55\n        /* \"#utility.yul\":672:677   */\n      dup2\n        /* \"#utility.yul\":645:678   */\n      tag_42\n      jump\t// in\n    tag_55:\n        /* \"#utility.yul\":545:684   */\n      swap3\n      swap2\n      pop\n      pop\n      jump\t// out\n        /* \"#utility.yul\":690:1019   */\n    tag_8:\n        /* \"#utility.yul\":749:755   */\n      0x00\n        /* \"#utility.yul\":798:800   */\n      0x20\n        /* \"#utility.yul\":786:795   */\n      dup3\n        /* \"#utility.yul\":777:784   */\n      dup5\n        /* \"#utility.yul\":773:796   */\n      sub\n        /* \"#utility.yul\":769:801   */\n      slt\n        /* \"#utility.yul\":766:885   */\n      iszero\n      tag_57\n      jumpi\n        /* \"#utility.yul\":804:883   */\n      tag_58\n      tag_39\n      jump\t// in\n    tag_58:\n        /* \"#utility.yul\":766:885   */\n    tag_57:\n        /* \"#utility.yul\":924:925   */\n      0x00\n        /* \"#utility.yul\":949:1002   */\n      tag_59\n        /* \"#utility.yul\":994:1001   */\n      dup5\n        /* \"#utility.yul\":985:991   */\n      dup3\n        /* \"#utility.yul\":974:983   */\n      dup6\n        /* \"#utility.yul\":970:992   */\n      add\n        /* \"#utility.yul\":949:1002   */\n      tag_43\n      jump\t// in\n    tag_59:\n        /* \"#utility.yul\":939:1002   */\n      swap2\n      pop\n        /* \"#utility.yul\":895:1012   */\n      pop\n        /* \"#utility.yul\":690:1019   */\n      swap3\n      swap2\n      pop\n      pop\n      jump\t// out\n        /* \"#utility.yul\":1025:1143   */\n    tag_44:\n        /* \"#utility.yul\":1112:1136   */\n      tag_61\n        /* \"#utility.yul\":1130:1135   */\n      dup2\n        /* \"#utility.yul\":1112:1136   */\n      tag_41\n      jump\t// in\n    tag_61:\n        /* \"#utility.yul\":1107:1110   */\n      dup3\n        /* \"#utility.yul\":1100:1137   */\n      mstore\n        /* \"#utility.yul\":1025:1143   */\n      pop\n      pop\n      jump\t// out\n        /* \"#utility.yul\":1149:1371   */\n    tag_11:\n        /* \"#utility.yul\":1242:1246   */\n      0x00\n        /* \"#utility.yul\":1280:1282   */\n      0x20\n        /* \"#utility.yul\":1269:1278   */\n      dup3\n        /* \"#utility.yul\":1265:1283   */\n      add\n        /* \"#utility.yul\":1257:1283   */\n      swap1\n      pop\n        /* \"#utility.yul\":1293:1364   */\n      tag_63\n        /* \"#utility.yul\":1361:1362   */\n      0x00\n        /* \"#utility.yul\":1350:1359   */\n      dup4\n        /* \"#utility.yul\":1346:1363   */\n      add\n        /* \"#utility.yul\":1337:1343   */\n      dup5\n        /* \"#utility.yul\":1293:1364   */\n      tag_44\n      jump\t// in\n    tag_63:\n        /* \"#utility.yul\":1149:1371   */\n      swap3\n      swap2\n      pop\n      pop\n      jump\t// out\n        /* \"#utility.yul\":1377:1557   */\n    tag_45:\n        /* \"#utility.yul\":1425:1502   */\n      0x4e487b7100000000000000000000000000000000000000000000000000000000\n        /* \"#utility.yul\":1422:1423   */\n      0x00\n        /* \"#utility.yul\":1415:1503   */\n      mstore\n        /* \"#utility.yul\":1522:1526   */\n      0x11\n        /* \"#utility.yul\":1519:1520   */\n      0x04\n        /* \"#utility.yul\":1512:1527   */\n      mstore\n        /* \"#utility.yul\":1546:1550   */\n      0x24\n        /* \"#utility.yul\":1543:1544   */\n      0x00\n        /* \"#utility.yul\":1536:1551   */\n      revert\n        /* \"#utility.yul\":1563:1754   */\n    tag_22:\n        /* \"#utility.yul\":1603:1606   */\n      0x00\n        /* \"#utility.yul\":1622:1642   */\n      tag_66\n        /* \"#utility.yul\":1640:1641   */\n      dup3\n        /* \"#utility.yul\":1622:1642   */\n      tag_41\n      jump\t// in\n    tag_66:\n        /* \"#utility.yul\":1617:1642   */\n      swap2\n      pop\n        /* \"#utility.yul\":1656:1676   */\n      tag_67\n        /* \"#utility.yul\":1674:1675   */\n      dup4\n        /* \"#utility.yul\":1656:1676   */\n      tag_41\n      jump\t// in\n    tag_67:\n        /* \"#utility.yul\":1651:1676   */\n      swap3\n      pop\n        /* \"#utility.yul\":1699:1700   */\n      dup3\n        /* \"#utility.yul\":1696:1697   */\n      dup3\n        /* \"#utility.yul\":1692:1701   */\n      add\n        /* \"#utility.yul\":1685:1701   */\n      swap1\n      pop\n        /* \"#utility.yul\":1720:1723   */\n      dup1\n        /* \"#utility.yul\":1717:1718   */\n      dup3\n        /* \"#utility.yul\":1714:1724   */\n      gt\n        /* \"#utility.yul\":1711:1747   */\n      iszero\n      tag_68\n      jumpi\n        /* \"#utility.yul\":1727:1745   */\n      tag_69\n      tag_45\n      jump\t// in\n    tag_69:\n        /* \"#utility.yul\":1711:1747   */\n    tag_68:\n        /* \"#utility.yul\":1563:1754   */\n      swap3\n      swap2\n      pop\n      pop\n      jump\t// out\n\n    auxdata: 0xa2646970667358221220f68ec2b4af5dc25cb120873fc78caaed8f0b231dc4fec4c6fb541dd6640da10b64736f6c634300081a0033\n}\n",
				"bytecode": {
					"linkReferences": {},
					"object": "6080604052348015600e575f80fd5b506103c38061001c5f395ff3fe608060405234801561000f575f80fd5b506004361061003f575f3560e01c80632841a2c414610043578063e5b5019a14610073578063e6bcbc6514610091575b5f80fd5b61005d600480360381019061005891906102da565b6100c1565b60405161006a9190610314565b60405180910390f35b61007b6101d7565b6040516100889190610314565b60405180910390f35b6100ab60048036038101906100a691906102da565b6101fb565b6040516100b89190610314565b60405180910390f35b5f70010000000000000000000000000000000082106100f157608082901c91506080816100ee919061035a565b90505b68010000000000000000821061011857604082901c9150604081610115919061035a565b90505b640100000000821061013b57602082901c9150602081610138919061035a565b90505b62010000821061015c57601082901c9150601081610159919061035a565b90505b610100821061017c57600882901c9150600881610179919061035a565b90505b6010821061019b57600482901c9150600481610198919061035a565b90505b600482106101ba57600282901c91506002816101b7919061035a565b90505b600282106101d2576001816101cf919061035a565b90505b919050565b7fffffffffffffffffffffffffffffffffffffffffffffffffffffffffffffffff81565b5f6fffffffffffffffffffffffffffffffff821160071b82811c925080821791505067ffffffffffffffff821160061b82811c925080821791505063ffffffff821160051b82811c925080821791505061ffff821160041b82811c925080821791505060ff821160031b82811c9250808217915050600f821160021b82811c92508082179150506003821160011b82811c925080821791505060018211808217915050919050565b5f80fd5b5f819050919050565b6102b9816102a7565b81146102c3575f80fd5b50565b5f813590506102d4816102b0565b92915050565b5f602082840312156102ef576102ee6102a3565b5b5f6102fc848285016102c6565b91505092915050565b61030e816102a7565b82525050565b5f6020820190506103275f830184610305565b92915050565b7f4e487b71000000000000000000000000000000000000000000000000000000005f52601160045260245ffd5b5f610364826102a7565b915061036f836102a7565b92508282019050808211156103875761038661032d565b5b9291505056fea2646970667358221220f68ec2b4af5dc25cb120873fc78caaed8f0b231dc4fec4c6fb541dd6640da10b64736f6c634300081a0033",
					"opcodes": "PUSH1 0x80 PUSH1 0x40 MSTORE CALLVALUE DUP1 ISZERO PUSH1 0xE JUMPI PUSH0 DUP1 REVERT JUMPDEST POP PUSH2 0x3C3 DUP1 PUSH2 0x1C PUSH0 CODECOPY PUSH0 RETURN INVALID PUSH1 0x80 PUSH1 0x40 MSTORE CALLVALUE DUP1 ISZERO PUSH2 0xF JUMPI PUSH0 DUP1 REVERT JUMPDEST POP PUSH1 0x4 CALLDATASIZE LT PUSH2 0x3F JUMPI PUSH0 CALLDATALOAD PUSH1 0xE0 SHR DUP1 PUSH4 0x2841A2C4 EQ PUSH2 0x43 JUMPI DUP1 PUSH4 0xE5B5019A EQ PUSH2 0x73 JUMPI DUP1 PUSH4 0xE6BCBC65 EQ PUSH2 0x91 JUMPI JUMPDEST PUSH0 DUP1 REVERT JUMPDEST PUSH2 0x5D PUSH1 0x4 DUP1 CALLDATASIZE SUB DUP2 ADD SWAP1 PUSH2 0x58 SWAP2 SWAP1 PUSH2 0x2DA JUMP JUMPDEST PUSH2 0xC1 JUMP JUMPDEST PUSH1 0x40 MLOAD PUSH2 0x6A SWAP2 SWAP1 PUSH2 0x314 JUMP JUMPDEST PUSH1 0x40 MLOAD DUP1 SWAP2 SUB SWAP1 RETURN JUMPDEST PUSH2 0x7B PUSH2 0x1D7 JUMP JUMPDEST PUSH1 0x40 MLOAD PUSH2 0x88 SWAP2 SWAP1 PUSH2 0x314 JUMP JUMPDEST PUSH1 0x40 MLOAD DUP1 SWAP2 SUB SWAP1 RETURN JUMPDEST PUSH2 0xAB PUSH1 0x4 DUP1 CALLDATASIZE SUB DUP2 ADD SWAP1 PUSH2 0xA6 SWAP2 SWAP1 PUSH2 0x2DA JUMP JUMPDEST PUSH2 0x1FB JUMP JUMPDEST PUSH1 0x40 MLOAD PUSH2 0xB8 SWAP2 SWAP1 PUSH2 0x314 JUMP JUMPDEST PUSH1 0x40 MLOAD DUP1 SWAP2 SUB SWAP1 RETURN JUMPDEST PUSH0 PUSH17 0x100000000000000000000000000000000 DUP3 LT PUSH2 0xF1 JUMPI PUSH1 0x80 DUP3 SWAP1 SHR SWAP2 POP PUSH1 0x80 DUP2 PUSH2 0xEE SWAP2 SWAP1 PUSH2 0x35A JUMP JUMPDEST SWAP1 POP JUMPDEST PUSH9 0x10000000000000000 DUP3 LT PUSH2 0x118 JUMPI PUSH1 0x40 DUP3 SWAP1 SHR SWAP2 POP PUSH1 0x40 DUP2 PUSH2 0x115 SWAP2 SWAP1 PUSH2 0x35A JUMP JUMPDEST SWAP1 POP JUMPDEST PUSH5 0x100000000 DUP3 LT PUSH2 0x13B JUMPI PUSH1 0x20 DUP3 SWAP1 SHR SWAP2 POP PUSH1 0x20 DUP2 PUSH2 0x138 SWAP2 SWAP1 PUSH2 0x35A JUMP JUMPDEST SWAP1 POP JUMPDEST PUSH3 0x10000 DUP3 LT PUSH2 0x15C JUMPI PUSH1 0x10 DUP3 SWAP1 SHR SWAP2 POP PUSH1 0x10 DUP2 PUSH2 0x159 SWAP2 SWAP1 PUSH2 0x35A JUMP JUMPDEST SWAP1 POP JUMPDEST PUSH2 0x100 DUP3 LT PUSH2 0x17C JUMPI PUSH1 0x8 DUP3 SWAP1 SHR SWAP2 POP PUSH1 0x8 DUP2 PUSH2 0x179 SWAP2 SWAP1 PUSH2 0x35A JUMP JUMPDEST SWAP1 POP JUMPDEST PUSH1 0x10 DUP3 LT PUSH2 0x19B JUMPI PUSH1 0x4 DUP3 SWAP1 SHR SWAP2 POP PUSH1 0x4 DUP2 PUSH2 0x198 SWAP2 SWAP1 PUSH2 0x35A JUMP JUMPDEST SWAP1 POP JUMPDEST PUSH1 0x4 DUP3 LT PUSH2 0x1BA JUMPI PUSH1 0x2 DUP3 SWAP1 SHR SWAP2 POP PUSH1 0x2 DUP2 PUSH2 0x1B7 SWAP2 SWAP1 PUSH2 0x35A JUMP JUMPDEST SWAP1 POP JUMPDEST PUSH1 0x2 DUP3 LT PUSH2 0x1D2 JUMPI PUSH1 0x1 DUP2 PUSH2 0x1CF SWAP2 SWAP1 PUSH2 0x35A JUMP JUMPDEST SWAP1 POP JUMPDEST SWAP2 SWAP1 POP JUMP JUMPDEST PUSH32 0xFFFFFFFFFFFFFFFFFFFFFFFFFFFFFFFFFFFFFFFFFFFFFFFFFFFFFFFFFFFFFFFF DUP2 JUMP JUMPDEST PUSH0 PUSH16 0xFFFFFFFFFFFFFFFFFFFFFFFFFFFFFFFF DUP3 GT PUSH1 0x7 SHL DUP3 DUP2 SHR SWAP3 POP DUP1 DUP3 OR SWAP2 POP POP PUSH8 0xFFFFFFFFFFFFFFFF DUP3 GT PUSH1 0x6 SHL DUP3 DUP2 SHR SWAP3 POP DUP1 DUP3 OR SWAP2 POP POP PUSH4 0xFFFFFFFF DUP3 GT PUSH1 0x5 SHL DUP3 DUP2 SHR SWAP3 POP DUP1 DUP3 OR SWAP2 POP POP PUSH2 0xFFFF DUP3 GT PUSH1 0x4 SHL DUP3 DUP2 SHR SWAP3 POP DUP1 DUP3 OR SWAP2 POP POP PUSH1 0xFF DUP3 GT PUSH1 0x3 SHL DUP3 DUP2 SHR SWAP3 POP DUP1 DUP3 OR SWAP2 POP POP PUSH1 0xF DUP3 GT PUSH1 0x2 SHL DUP3 DUP2 SHR SWAP3 POP DUP1 DUP3 OR SWAP2 POP POP PUSH1 0x3 DUP3 GT PUSH1 0x1 SHL DUP3 DUP2 SHR SWAP3 POP DUP1 DUP3 OR SWAP2 POP POP PUSH1 0x1 DUP3 GT DUP1 DUP3 OR SWAP2 POP POP SWAP2 SWAP1 POP JUMP JUMPDEST PUSH0 DUP1 REVERT JUMPDEST PUSH0 DUP2 SWAP1 POP SWAP2 SWAP1 POP JUMP JUMPDEST PUSH2 0x2B9 DUP2 PUSH2 0x2A7 JUMP JUMPDEST DUP2 EQ PUSH2 0x2C3 JUMPI PUSH0 DUP1 REVERT JUMPDEST POP JUMP JUMPDEST PUSH0 DUP2 CALLDATALOAD SWAP1 POP PUSH2 0x2D4 DUP2 PUSH2 0x2B0 JUMP JUMPDEST SWAP3 SWAP2 POP POP JUMP JUMPDEST PUSH0 PUSH1 0x20 DUP3 DUP5 SUB SLT ISZERO PUSH2 0x2EF JUMPI PUSH2 0x2EE PUSH2 0x2A3 JUMP JUMPDEST JUMPDEST PUSH0 PUSH2 0x2FC DUP5 DUP3 DUP6 ADD PUSH2 0x2C6 JUMP JUMPDEST SWAP2 POP POP SWAP3 SWAP2 POP POP JUMP JUMPDEST PUSH2 0x30E DUP2 PUSH2 0x2A7 JUMP JUMPDEST DUP3 MSTORE POP POP JUMP JUMPDEST PUSH0 PUSH1 0x20 DUP3 ADD SWAP1 POP PUSH2 0x327 PUSH0 DUP4 ADD DUP5 PUSH2 0x305 JUMP JUMPDEST SWAP3 SWAP2 POP POP JUMP JUMPDEST PUSH32 0x4E487B7100000000000000000000000000000000000000000000000000000000 PUSH0 MSTORE PUSH1 0x11 PUSH1 0x4 MSTORE PUSH1 0x24 PUSH0 REVERT JUMPDEST PUSH0 PUSH2 0x364 DUP3 PUSH2 0x2A7 JUMP JUMPDEST SWAP2 POP PUSH2 0x36F DUP4 PUSH2 0x2A7 JUMP JUMPDEST SWAP3 POP DUP3 DUP3 ADD SWAP1 POP DUP1 DUP3 GT ISZERO PUSH2 0x387 JUMPI PUSH2 0x386 PUSH2 0x32D JUMP JUMPDEST JUMPDEST SWAP3 SWAP2 POP POP JUMP INVALID LOG2 PUSH5 0x6970667358 0x22 SLT KECCAK256 0xF6 DUP15 0xC2 0xB4 0xAF TSTORE 0xC2 TLOAD 0xB1 KECCAK256 DUP8 EXTCODEHASH 0xC7 DUP13 0xAA 0xED DUP16 SIGNEXTEND 0x23 SAR 0xC4 INVALID 0xC4 0xC6 0xFB SLOAD SAR 0xD6 PUSH5 0xDA10B6473 PUSH16 0x6C634300081A00330000000000000000 "
				},
				"gasEstimates": {
					"creation": {
						"codeDepositCost": "192600",
						"executionCost": "236",
						"totalCost": "192836"
					},
					"external": {
						"MAX_UINT()": "325",
						"mostSignificantBit(uint256)": "infinite",
						"mostSignificantBit1(uint256)": "infinite"
					}
				},
				"methodIdentifiers": {
					"MAX_UINT()": "e5b5019a",
					"mostSignificantBit(uint256)": "e6bcbc65",
					"mostSignificantBit1(uint256)": "2841a2c4"
				}
			},
			"storageLayout": {
				"storage": [],
				"types": null
			},
			"userdoc": {
				"kind": "user",
				"methods": {},
				"version": 1
			}
		}
	}
}