{
	"contracts/openzeppelin/upgradable/UUPSV1.sol": {
		"UUPSV1": {
			"abi": [
				{
					"inputs": [
						{
							"internalType": "uint256",
							"name": "_val",
							"type": "uint256"
						}
					],
					"stateMutability": "nonpayable",
					"type": "constructor"
				},
				{
					"inputs": [
						{
							"internalType": "address",
							"name": "target",
							"type": "address"
						}
					],
					"name": "AddressEmptyCode",
					"type": "error"
				},
				{
					"inputs": [
						{
							"internalType": "address",
							"name": "implementation",
							"type": "address"
						}
					],
					"name": "ERC1967InvalidImplementation",
					"type": "error"
				},
				{
					"inputs": [],
					"name": "ERC1967NonPayable",
					"type": "error"
				},
				{
					"inputs": [],
					"name": "FailedCall",
					"type": "error"
				},
				{
					"inputs": [],
					"name": "InvalidInitialization",
					"type": "error"
				},
				{
					"inputs": [],
					"name": "NotInitializing",
					"type": "error"
				},
				{
					"inputs": [
						{
							"internalType": "address",
							"name": "owner",
							"type": "address"
						}
					],
					"name": "OwnableInvalidOwner",
					"type": "error"
				},
				{
					"inputs": [
						{
							"internalType": "address",
							"name": "account",
							"type": "address"
						}
					],
					"name": "OwnableUnauthorizedAccount",
					"type": "error"
				},
				{
					"inputs": [],
					"name": "UUPSUnauthorizedCallContext",
					"type": "error"
				},
				{
					"inputs": [
						{
							"internalType": "bytes32",
							"name": "slot",
							"type": "bytes32"
						}
					],
					"name": "UUPSUnsupportedProxiableUUID",
					"type": "error"
				},
				{
					"anonymous": false,
					"inputs": [
						{
							"indexed": false,
							"internalType": "uint64",
							"name": "version",
							"type": "uint64"
						}
					],
					"name": "Initialized",
					"type": "event"
				},
				{
					"anonymous": false,
					"inputs": [
						{
							"indexed": true,
							"internalType": "address",
							"name": "previousOwner",
							"type": "address"
						},
						{
							"indexed": true,
							"internalType": "address",
							"name": "newOwner",
							"type": "address"
						}
					],
					"name": "OwnershipTransferred",
					"type": "event"
				},
				{
					"anonymous": false,
					"inputs": [
						{
							"indexed": true,
							"internalType": "address",
							"name": "implementation",
							"type": "address"
						}
					],
					"name": "Upgraded",
					"type": "event"
				},
				{
					"inputs": [
						{
							"internalType": "uint256",
							"name": "_val",
							"type": "uint256"
						}
					],
					"name": "Initialize",
					"outputs": [],
					"stateMutability": "nonpayable",
					"type": "function"
				},
				{
					"inputs": [],
					"name": "UPGRADE_INTERFACE_VERSION",
					"outputs": [
						{
							"internalType": "string",
							"name": "",
							"type": "string"
						}
					],
					"stateMutability": "view",
					"type": "function"
				},
				{
					"inputs": [],
					"name": "cal",
					"outputs": [],
					"stateMutability": "nonpayable",
					"type": "function"
				},
				{
					"inputs": [],
					"name": "owner",
					"outputs": [
						{
							"internalType": "address",
							"name": "",
							"type": "address"
						}
					],
					"stateMutability": "view",
					"type": "function"
				},
				{
					"inputs": [],
					"name": "proxiableUUID",
					"outputs": [
						{
							"internalType": "bytes32",
							"name": "",
							"type": "bytes32"
						}
					],
					"stateMutability": "view",
					"type": "function"
				},
				{
					"inputs": [],
					"name": "renounceOwnership",
					"outputs": [],
					"stateMutability": "nonpayable",
					"type": "function"
				},
				{
					"inputs": [],
					"name": "showInvoke",
					"outputs": [
						{
							"internalType": "bytes",
							"name": "",
							"type": "bytes"
						}
					],
					"stateMutability": "pure",
					"type": "function"
				},
				{
					"inputs": [
						{
							"internalType": "address",
							"name": "newOwner",
							"type": "address"
						}
					],
					"name": "transferOwnership",
					"outputs": [],
					"stateMutability": "nonpayable",
					"type": "function"
				},
				{
					"inputs": [
						{
							"internalType": "address",
							"name": "newImplementation",
							"type": "address"
						},
						{
							"internalType": "bytes",
							"name": "data",
							"type": "bytes"
						}
					],
					"name": "upgradeToAndCall",
					"outputs": [],
					"stateMutability": "payable",
					"type": "function"
				},
				{
					"inputs": [],
					"name": "x",
					"outputs": [
						{
							"internalType": "uint256",
							"name": "",
							"type": "uint256"
						}
					],
					"stateMutability": "view",
					"type": "function"
				}
			],
			"devdoc": {
				"errors": {
					"AddressEmptyCode(address)": [
						{
							"details": "There's no code at `target` (it is not a contract)."
						}
					],
					"ERC1967InvalidImplementation(address)": [
						{
							"details": "The `implementation` of the proxy is invalid."
						}
					],
					"ERC1967NonPayable()": [
						{
							"details": "An upgrade function sees `msg.value > 0` that may be lost."
						}
					],
					"FailedCall()": [
						{
							"details": "A call to an address target failed. The target may have reverted."
						}
					],
					"InvalidInitialization()": [
						{
							"details": "The contract is already initialized."
						}
					],
					"NotInitializing()": [
						{
							"details": "The contract is not initializing."
						}
					],
					"OwnableInvalidOwner(address)": [
						{
							"details": "The owner is not a valid owner account. (eg. `address(0)`)"
						}
					],
					"OwnableUnauthorizedAccount(address)": [
						{
							"details": "The caller account is not authorized to perform an operation."
						}
					],
					"UUPSUnauthorizedCallContext()": [
						{
							"details": "The call is from an unauthorized context."
						}
					],
					"UUPSUnsupportedProxiableUUID(bytes32)": [
						{
							"details": "The storage `slot` is unsupported as a UUID."
						}
					]
				},
				"events": {
					"Initialized(uint64)": {
						"details": "Triggered when the contract has been initialized or reinitialized."
					},
					"Upgraded(address)": {
						"details": "Emitted when the implementation is upgraded."
					}
				},
				"kind": "dev",
				"methods": {
					"owner()": {
						"details": "Returns the address of the current owner."
					},
					"proxiableUUID()": {
						"details": "Implementation of the ERC-1822 {proxiableUUID} function. This returns the storage slot used by the implementation. It is used to validate the implementation's compatibility when performing an upgrade. IMPORTANT: A proxy pointing at a proxiable contract should not be considered proxiable itself, because this risks bricking a proxy that upgrades to it, by delegating to itself until out of gas. Thus it is critical that this function revert if invoked through a proxy. This is guaranteed by the `notDelegated` modifier."
					},
					"renounceOwnership()": {
						"details": "Leaves the contract without owner. It will not be possible to call `onlyOwner` functions. Can only be called by the current owner. NOTE: Renouncing ownership will leave the contract without an owner, thereby disabling any functionality that is only available to the owner."
					},
					"transferOwnership(address)": {
						"details": "Transfers ownership of the contract to a new account (`newOwner`). Can only be called by the current owner."
					},
					"upgradeToAndCall(address,bytes)": {
						"custom:oz-upgrades-unsafe-allow-reachable": "delegatecall",
						"details": "Upgrade the implementation of the proxy to `newImplementation`, and subsequently execute the function call encoded in `data`. Calls {_authorizeUpgrade}. Emits an {Upgraded} event."
					}
				},
				"version": 1
			},
			"evm": {
				"assembly": "    /* \"contracts/openzeppelin/upgradable/UUPSV1.sol\":206:827  contract UUPSV1 is Initializable, UUPSUpgradeable, OwnableUpgradeable {... */\n  mstore(0x40, 0xa0)\n    /* \"@openzeppelin/contracts/proxy/utils/UUPSUpgradeable.sol\":1060:1064  this */\n  address\n    /* \"@openzeppelin/contracts/proxy/utils/UUPSUpgradeable.sol\":1017:1065  address private immutable __self = address(this) */\n  0xffffffffffffffffffffffffffffffffffffffff\n  and\n  0x80\n  swap1\n  0xffffffffffffffffffffffffffffffffffffffff\n  and\n  dup2\n  mstore\n  pop\n    /* \"contracts/openzeppelin/upgradable/UUPSV1.sol\":310:364  constructor(uint256 _val) {... */\n  callvalue\n  dup1\n  iszero\n  tag_1\n  jumpi\n  0x00\n  dup1\n  revert\ntag_1:\n  pop\n  mload(0x40)\n  sub(codesize, bytecodeSize)\n  dup1\n  bytecodeSize\n  dup4\n  codecopy\n  dup2\n  dup2\n  add\n  0x40\n  mstore\n  dup2\n  add\n  swap1\n  tag_2\n  swap2\n  swap1\n  tag_3\n  jump\t// in\ntag_2:\n    /* \"contracts/openzeppelin/upgradable/UUPSV1.sol\":351:355  _val */\n  dup1\n    /* \"contracts/openzeppelin/upgradable/UUPSV1.sol\":347:348  x */\n  0x00\n    /* \"contracts/openzeppelin/upgradable/UUPSV1.sol\":347:355  x = _val */\n  dup2\n  swap1\n  sstore\n  pop\n    /* \"contracts/openzeppelin/upgradable/UUPSV1.sol\":310:364  constructor(uint256 _val) {... */\n  pop\n    /* \"contracts/openzeppelin/upgradable/UUPSV1.sol\":206:827  contract UUPSV1 is Initializable, UUPSUpgradeable, OwnableUpgradeable {... */\n  jump(tag_6)\n    /* \"#utility.yul\":88:205   */\ntag_8:\n    /* \"#utility.yul\":197:198   */\n  0x00\n    /* \"#utility.yul\":194:195   */\n  dup1\n    /* \"#utility.yul\":187:199   */\n  revert\n    /* \"#utility.yul\":334:411   */\ntag_10:\n    /* \"#utility.yul\":371:378   */\n  0x00\n    /* \"#utility.yul\":400:405   */\n  dup2\n    /* \"#utility.yul\":389:405   */\n  swap1\n  pop\n    /* \"#utility.yul\":334:411   */\n  swap2\n  swap1\n  pop\n  jump\t// out\n    /* \"#utility.yul\":417:539   */\ntag_11:\n    /* \"#utility.yul\":490:514   */\n  tag_19\n    /* \"#utility.yul\":508:513   */\n  dup2\n    /* \"#utility.yul\":490:514   */\n  tag_10\n  jump\t// in\ntag_19:\n    /* \"#utility.yul\":483:488   */\n  dup2\n    /* \"#utility.yul\":480:515   */\n  eq\n    /* \"#utility.yul\":470:533   */\n  tag_20\n  jumpi\n    /* \"#utility.yul\":529:530   */\n  0x00\n    /* \"#utility.yul\":526:527   */\n  dup1\n    /* \"#utility.yul\":519:531   */\n  revert\n    /* \"#utility.yul\":470:533   */\ntag_20:\n    /* \"#utility.yul\":417:539   */\n  pop\n  jump\t// out\n    /* \"#utility.yul\":545:688   */\ntag_12:\n    /* \"#utility.yul\":602:607   */\n  0x00\n    /* \"#utility.yul\":633:639   */\n  dup2\n    /* \"#utility.yul\":627:640   */\n  mload\n    /* \"#utility.yul\":618:640   */\n  swap1\n  pop\n    /* \"#utility.yul\":649:682   */\n  tag_22\n    /* \"#utility.yul\":676:681   */\n  dup2\n    /* \"#utility.yul\":649:682   */\n  tag_11\n  jump\t// in\ntag_22:\n    /* \"#utility.yul\":545:688   */\n  swap3\n  swap2\n  pop\n  pop\n  jump\t// out\n    /* \"#utility.yul\":694:1045   */\ntag_3:\n    /* \"#utility.yul\":764:770   */\n  0x00\n    /* \"#utility.yul\":813:815   */\n  0x20\n    /* \"#utility.yul\":801:810   */\n  dup3\n    /* \"#utility.yul\":792:799   */\n  dup5\n    /* \"#utility.yul\":788:811   */\n  sub\n    /* \"#utility.yul\":784:816   */\n  slt\n    /* \"#utility.yul\":781:900   */\n  iszero\n  tag_24\n  jumpi\n    /* \"#utility.yul\":819:898   */\n  tag_25\n  tag_8\n  jump\t// in\ntag_25:\n    /* \"#utility.yul\":781:900   */\ntag_24:\n    /* \"#utility.yul\":939:940   */\n  0x00\n    /* \"#utility.yul\":964:1028   */\n  tag_26\n    /* \"#utility.yul\":1020:1027   */\n  dup5\n    /* \"#utility.yul\":1011:1017   */\n  dup3\n    /* \"#utility.yul\":1000:1009   */\n  dup6\n    /* \"#utility.yul\":996:1018   */\n  add\n    /* \"#utility.yul\":964:1028   */\n  tag_12\n  jump\t// in\ntag_26:\n    /* \"#utility.yul\":954:1028   */\n  swap2\n  pop\n    /* \"#utility.yul\":910:1038   */\n  pop\n    /* \"#utility.yul\":694:1045   */\n  swap3\n  swap2\n  pop\n  pop\n  jump\t// out\n    /* \"contracts/openzeppelin/upgradable/UUPSV1.sol\":206:827  contract UUPSV1 is Initializable, UUPSUpgradeable, OwnableUpgradeable {... */\ntag_6:\n  mload(0x80)\n  codecopy(0x00, dataOffset(sub_0), dataSize(sub_0))\n  0x00\n  assignImmutable(\"0x87b8181f2525747f7c2388fad45fd6fdeca8961ce0728225de7247b6a04dc463\")\n  return(0x00, dataSize(sub_0))\nstop\n\nsub_0: assembly {\n        /* \"contracts/openzeppelin/upgradable/UUPSV1.sol\":206:827  contract UUPSV1 is Initializable, UUPSUpgradeable, OwnableUpgradeable {... */\n      mstore(0x40, 0x80)\n      jumpi(tag_1, lt(calldatasize, 0x04))\n      shr(0xe0, calldataload(0x00))\n      dup1\n      0x8da5cb5b\n      gt\n      tag_12\n      jumpi\n      dup1\n      0x8da5cb5b\n      eq\n      tag_7\n      jumpi\n      dup1\n      0xad3cb1cc\n      eq\n      tag_8\n      jumpi\n      dup1\n      0xb7c738f4\n      eq\n      tag_9\n      jumpi\n      dup1\n      0xc43e48cf\n      eq\n      tag_10\n      jumpi\n      dup1\n      0xf2fde38b\n      eq\n      tag_11\n      jumpi\n      jump(tag_1)\n    tag_12:\n      dup1\n      0x0c55699c\n      eq\n      tag_2\n      jumpi\n      dup1\n      0x4f1ef286\n      eq\n      tag_3\n      jumpi\n      dup1\n      0x52d1902d\n      eq\n      tag_4\n      jumpi\n      dup1\n      0x715018a6\n      eq\n      tag_5\n      jumpi\n      dup1\n      0x75beac87\n      eq\n      tag_6\n      jumpi\n    tag_1:\n      0x00\n      dup1\n      revert\n        /* \"contracts/openzeppelin/upgradable/UUPSV1.sol\":285:301  uint256 public x */\n    tag_2:\n      callvalue\n      dup1\n      iszero\n      tag_13\n      jumpi\n      0x00\n      dup1\n      revert\n    tag_13:\n      pop\n      tag_14\n      tag_15\n      jump\t// in\n    tag_14:\n      mload(0x40)\n      tag_16\n      swap2\n      swap1\n      tag_17\n      jump\t// in\n    tag_16:\n      mload(0x40)\n      dup1\n      swap2\n      sub\n      swap1\n      return\n        /* \"@openzeppelin/contracts/proxy/utils/UUPSUpgradeable.sol\":3895:4109  function upgradeToAndCall(address newImplementation, bytes memory data) public payable virtual onlyProxy {... */\n    tag_3:\n      tag_18\n      0x04\n      dup1\n      calldatasize\n      sub\n      dup2\n      add\n      swap1\n      tag_19\n      swap2\n      swap1\n      tag_20\n      jump\t// in\n    tag_19:\n      tag_21\n      jump\t// in\n    tag_18:\n      stop\n        /* \"@openzeppelin/contracts/proxy/utils/UUPSUpgradeable.sol\":3442:3576  function proxiableUUID() external view virtual notDelegated returns (bytes32) {... */\n    tag_4:\n      callvalue\n      dup1\n      iszero\n      tag_22\n      jumpi\n      0x00\n      dup1\n      revert\n    tag_22:\n      pop\n      tag_23\n      tag_24\n      jump\t// in\n    tag_23:\n      mload(0x40)\n      tag_25\n      swap2\n      swap1\n      tag_26\n      jump\t// in\n    tag_25:\n      mload(0x40)\n      dup1\n      swap2\n      sub\n      swap1\n      return\n        /* \"@openzeppelin/contracts-upgradeable/access/OwnableUpgradeable.sol\":3155:3256  function renounceOwnership() public virtual onlyOwner {... */\n    tag_5:\n      callvalue\n      dup1\n      iszero\n      tag_27\n      jumpi\n      0x00\n      dup1\n      revert\n    tag_27:\n      pop\n      tag_28\n      tag_29\n      jump\t// in\n    tag_28:\n      stop\n        /* \"contracts/openzeppelin/upgradable/UUPSV1.sol\":686:822  function showInvoke() external pure returns (bytes memory) {... */\n    tag_6:\n      callvalue\n      dup1\n      iszero\n      tag_30\n      jumpi\n      0x00\n      dup1\n      revert\n    tag_30:\n      pop\n      tag_31\n      tag_32\n      jump\t// in\n    tag_31:\n      mload(0x40)\n      tag_33\n      swap2\n      swap1\n      tag_34\n      jump\t// in\n    tag_33:\n      mload(0x40)\n      dup1\n      swap2\n      sub\n      swap1\n      return\n        /* \"@openzeppelin/contracts-upgradeable/access/OwnableUpgradeable.sol\":2441:2585  function owner() public view virtual returns (address) {... */\n    tag_7:\n      callvalue\n      dup1\n      iszero\n      tag_35\n      jumpi\n      0x00\n      dup1\n      revert\n    tag_35:\n      pop\n      tag_36\n      tag_37\n      jump\t// in\n    tag_36:\n      mload(0x40)\n      tag_38\n      swap2\n      swap1\n      tag_39\n      jump\t// in\n    tag_38:\n      mload(0x40)\n      dup1\n      swap2\n      sub\n      swap1\n      return\n        /* \"@openzeppelin/contracts/proxy/utils/UUPSUpgradeable.sol\":1708:1766  string public constant UPGRADE_INTERFACE_VERSION = \"5.0.0\" */\n    tag_8:\n      callvalue\n      dup1\n      iszero\n      tag_40\n      jumpi\n      0x00\n      dup1\n      revert\n    tag_40:\n      pop\n      tag_41\n      tag_42\n      jump\t// in\n    tag_41:\n      mload(0x40)\n      tag_43\n      swap2\n      swap1\n      tag_44\n      jump\t// in\n    tag_43:\n      mload(0x40)\n      dup1\n      swap2\n      sub\n      swap1\n      return\n        /* \"contracts/openzeppelin/upgradable/UUPSV1.sol\":626:678  function cal() external {... */\n    tag_9:\n      callvalue\n      dup1\n      iszero\n      tag_45\n      jumpi\n      0x00\n      dup1\n      revert\n    tag_45:\n      pop\n      tag_46\n      tag_47\n      jump\t// in\n    tag_46:\n      stop\n        /* \"contracts/openzeppelin/upgradable/UUPSV1.sol\":463:618  function Initialize(uint256 _val) external initializer {... */\n    tag_10:\n      callvalue\n      dup1\n      iszero\n      tag_48\n      jumpi\n      0x00\n      dup1\n      revert\n    tag_48:\n      pop\n      tag_49\n      0x04\n      dup1\n      calldatasize\n      sub\n      dup2\n      add\n      swap1\n      tag_50\n      swap2\n      swap1\n      tag_51\n      jump\t// in\n    tag_50:\n      tag_52\n      jump\t// in\n    tag_49:\n      stop\n        /* \"@openzeppelin/contracts-upgradeable/access/OwnableUpgradeable.sol\":3405:3620  function transferOwnership(address newOwner) public virtual onlyOwner {... */\n    tag_11:\n      callvalue\n      dup1\n      iszero\n      tag_53\n      jumpi\n      0x00\n      dup1\n      revert\n    tag_53:\n      pop\n      tag_54\n      0x04\n      dup1\n      calldatasize\n      sub\n      dup2\n      add\n      swap1\n      tag_55\n      swap2\n      swap1\n      tag_56\n      jump\t// in\n    tag_55:\n      tag_57\n      jump\t// in\n    tag_54:\n      stop\n        /* \"contracts/openzeppelin/upgradable/UUPSV1.sol\":285:301  uint256 public x */\n    tag_15:\n      sload(0x00)\n      dup2\n      jump\t// out\n        /* \"@openzeppelin/contracts/proxy/utils/UUPSUpgradeable.sol\":3895:4109  function upgradeToAndCall(address newImplementation, bytes memory data) public payable virtual onlyProxy {... */\n    tag_21:\n        /* \"@openzeppelin/contracts/proxy/utils/UUPSUpgradeable.sol\":2544:2557  _checkProxy() */\n      tag_59\n        /* \"@openzeppelin/contracts/proxy/utils/UUPSUpgradeable.sol\":2544:2555  _checkProxy */\n      tag_60\n        /* \"@openzeppelin/contracts/proxy/utils/UUPSUpgradeable.sol\":2544:2557  _checkProxy() */\n      jump\t// in\n    tag_59:\n        /* \"@openzeppelin/contracts/proxy/utils/UUPSUpgradeable.sol\":4010:4046  _authorizeUpgrade(newImplementation) */\n      tag_62\n        /* \"@openzeppelin/contracts/proxy/utils/UUPSUpgradeable.sol\":4028:4045  newImplementation */\n      dup3\n        /* \"@openzeppelin/contracts/proxy/utils/UUPSUpgradeable.sol\":4010:4027  _authorizeUpgrade */\n      tag_63\n        /* \"@openzeppelin/contracts/proxy/utils/UUPSUpgradeable.sol\":4010:4046  _authorizeUpgrade(newImplementation) */\n      jump\t// in\n    tag_62:\n        /* \"@openzeppelin/contracts/proxy/utils/UUPSUpgradeable.sol\":4056:4102  _upgradeToAndCallUUPS(newImplementation, data) */\n      tag_64\n        /* \"@openzeppelin/contracts/proxy/utils/UUPSUpgradeable.sol\":4078:4095  newImplementation */\n      dup3\n        /* \"@openzeppelin/contracts/proxy/utils/UUPSUpgradeable.sol\":4097:4101  data */\n      dup3\n        /* \"@openzeppelin/contracts/proxy/utils/UUPSUpgradeable.sol\":4056:4077  _upgradeToAndCallUUPS */\n      tag_65\n        /* \"@openzeppelin/contracts/proxy/utils/UUPSUpgradeable.sol\":4056:4102  _upgradeToAndCallUUPS(newImplementation, data) */\n      jump\t// in\n    tag_64:\n        /* \"@openzeppelin/contracts/proxy/utils/UUPSUpgradeable.sol\":3895:4109  function upgradeToAndCall(address newImplementation, bytes memory data) public payable virtual onlyProxy {... */\n      pop\n      pop\n      jump\t// out\n        /* \"@openzeppelin/contracts/proxy/utils/UUPSUpgradeable.sol\":3442:3576  function proxiableUUID() external view virtual notDelegated returns (bytes32) {... */\n    tag_24:\n        /* \"@openzeppelin/contracts/proxy/utils/UUPSUpgradeable.sol\":3511:3518  bytes32 */\n      0x00\n        /* \"@openzeppelin/contracts/proxy/utils/UUPSUpgradeable.sol\":2815:2835  _checkNotDelegated() */\n      tag_67\n        /* \"@openzeppelin/contracts/proxy/utils/UUPSUpgradeable.sol\":2815:2833  _checkNotDelegated */\n      tag_68\n        /* \"@openzeppelin/contracts/proxy/utils/UUPSUpgradeable.sol\":2815:2835  _checkNotDelegated() */\n      jump\t// in\n    tag_67:\n        /* \"@openzeppelin/contracts/proxy/ERC1967/ERC1967Utils.sol\":811:877  0x360894a13ba1a3210667c828492db98dca3e2076cc3735a920a3ca505d382bbc */\n      0x360894a13ba1a3210667c828492db98dca3e2076cc3735a920a3ca505d382bbc\n        /* \"@openzeppelin/contracts/proxy/utils/UUPSUpgradeable.sol\":3537:3569  ERC1967Utils.IMPLEMENTATION_SLOT */\n      0x00\n      shl\n        /* \"@openzeppelin/contracts/proxy/utils/UUPSUpgradeable.sol\":3530:3569  return ERC1967Utils.IMPLEMENTATION_SLOT */\n      swap1\n      pop\n        /* \"@openzeppelin/contracts/proxy/utils/UUPSUpgradeable.sol\":3442:3576  function proxiableUUID() external view virtual notDelegated returns (bytes32) {... */\n      swap1\n      jump\t// out\n        /* \"@openzeppelin/contracts-upgradeable/access/OwnableUpgradeable.sol\":3155:3256  function renounceOwnership() public virtual onlyOwner {... */\n    tag_29:\n        /* \"@openzeppelin/contracts-upgradeable/access/OwnableUpgradeable.sol\":2334:2347  _checkOwner() */\n      tag_71\n        /* \"@openzeppelin/contracts-upgradeable/access/OwnableUpgradeable.sol\":2334:2345  _checkOwner */\n      tag_72\n        /* \"@openzeppelin/contracts-upgradeable/access/OwnableUpgradeable.sol\":2334:2347  _checkOwner() */\n      jump\t// in\n    tag_71:\n        /* \"@openzeppelin/contracts-upgradeable/access/OwnableUpgradeable.sol\":3219:3249  _transferOwnership(address(0)) */\n      tag_74\n        /* \"@openzeppelin/contracts-upgradeable/access/OwnableUpgradeable.sol\":3246:3247  0 */\n      0x00\n        /* \"@openzeppelin/contracts-upgradeable/access/OwnableUpgradeable.sol\":3219:3237  _transferOwnership */\n      tag_75\n        /* \"@openzeppelin/contracts-upgradeable/access/OwnableUpgradeable.sol\":3219:3249  _transferOwnership(address(0)) */\n      jump\t// in\n    tag_74:\n        /* \"@openzeppelin/contracts-upgradeable/access/OwnableUpgradeable.sol\":3155:3256  function renounceOwnership() public virtual onlyOwner {... */\n      jump\t// out\n        /* \"contracts/openzeppelin/upgradable/UUPSV1.sol\":686:822  function showInvoke() external pure returns (bytes memory) {... */\n    tag_32:\n        /* \"contracts/openzeppelin/upgradable/UUPSV1.sol\":731:743  bytes memory */\n      0x60\n        /* \"contracts/openzeppelin/upgradable/UUPSV1.sol\":786:810  this.Initialize.selector */\n      shl(0xe0, 0xc43e48cf)\n        /* \"contracts/openzeppelin/upgradable/UUPSV1.sol\":812:813  1 */\n      0x01\n        /* \"contracts/openzeppelin/upgradable/UUPSV1.sol\":763:814  abi.encodeWithSelector(this.Initialize.selector, 1) */\n      add(0x24, mload(0x40))\n      tag_77\n      swap2\n      swap1\n      tag_78\n      jump\t// in\n    tag_77:\n      mload(0x40)\n      0x20\n      dup2\n      dup4\n      sub\n      sub\n      dup2\n      mstore\n      swap1\n      0x40\n      mstore\n      swap1\n      not(0xffffffffffffffffffffffffffffffffffffffffffffffffffffffff)\n      and\n      0x20\n      dup3\n      add\n      dup1\n      mload\n      0xffffffffffffffffffffffffffffffffffffffffffffffffffffffff\n      dup4\n      dup2\n      dup4\n      and\n      or\n      dup4\n      mstore\n      pop\n      pop\n      pop\n      pop\n        /* \"contracts/openzeppelin/upgradable/UUPSV1.sol\":756:814  return abi.encodeWithSelector(this.Initialize.selector, 1) */\n      swap1\n      pop\n        /* \"contracts/openzeppelin/upgradable/UUPSV1.sol\":686:822  function showInvoke() external pure returns (bytes memory) {... */\n      swap1\n      jump\t// out\n        /* \"@openzeppelin/contracts-upgradeable/access/OwnableUpgradeable.sol\":2441:2585  function owner() public view virtual returns (address) {... */\n    tag_37:\n        /* \"@openzeppelin/contracts-upgradeable/access/OwnableUpgradeable.sol\":2487:2494  address */\n      0x00\n        /* \"@openzeppelin/contracts-upgradeable/access/OwnableUpgradeable.sol\":2506:2530  OwnableStorage storage $ */\n      dup1\n        /* \"@openzeppelin/contracts-upgradeable/access/OwnableUpgradeable.sol\":2533:2553  _getOwnableStorage() */\n      tag_80\n        /* \"@openzeppelin/contracts-upgradeable/access/OwnableUpgradeable.sol\":2533:2551  _getOwnableStorage */\n      tag_81\n        /* \"@openzeppelin/contracts-upgradeable/access/OwnableUpgradeable.sol\":2533:2553  _getOwnableStorage() */\n      jump\t// in\n    tag_80:\n        /* \"@openzeppelin/contracts-upgradeable/access/OwnableUpgradeable.sol\":2506:2553  OwnableStorage storage $ = _getOwnableStorage() */\n      swap1\n      pop\n        /* \"@openzeppelin/contracts-upgradeable/access/OwnableUpgradeable.sol\":2570:2571  $ */\n      dup1\n        /* \"@openzeppelin/contracts-upgradeable/access/OwnableUpgradeable.sol\":2570:2578  $._owner */\n      0x00\n      add\n      0x00\n      swap1\n      sload\n      swap1\n      0x0100\n      exp\n      swap1\n      div\n      0xffffffffffffffffffffffffffffffffffffffff\n      and\n        /* \"@openzeppelin/contracts-upgradeable/access/OwnableUpgradeable.sol\":2563:2578  return $._owner */\n      swap2\n      pop\n      pop\n        /* \"@openzeppelin/contracts-upgradeable/access/OwnableUpgradeable.sol\":2441:2585  function owner() public view virtual returns (address) {... */\n      swap1\n      jump\t// out\n        /* \"@openzeppelin/contracts/proxy/utils/UUPSUpgradeable.sol\":1708:1766  string public constant UPGRADE_INTERFACE_VERSION = \"5.0.0\" */\n    tag_42:\n      mload(0x40)\n      dup1\n      0x40\n      add\n      0x40\n      mstore\n      dup1\n      0x05\n      dup2\n      mstore\n      0x20\n      add\n      0x352e302e30000000000000000000000000000000000000000000000000000000\n      dup2\n      mstore\n      pop\n      dup2\n      jump\t// out\n        /* \"contracts/openzeppelin/upgradable/UUPSV1.sol\":626:678  function cal() external {... */\n    tag_47:\n        /* \"contracts/openzeppelin/upgradable/UUPSV1.sol\":669:670  1 */\n      0x01\n        /* \"contracts/openzeppelin/upgradable/UUPSV1.sol\":665:666  x */\n      sload(0x00)\n        /* \"contracts/openzeppelin/upgradable/UUPSV1.sol\":665:670  x + 1 */\n      tag_83\n      swap2\n      swap1\n      tag_84\n      jump\t// in\n    tag_83:\n        /* \"contracts/openzeppelin/upgradable/UUPSV1.sol\":661:662  x */\n      0x00\n        /* \"contracts/openzeppelin/upgradable/UUPSV1.sol\":661:670  x = x + 1 */\n      dup2\n      swap1\n      sstore\n      pop\n        /* \"contracts/openzeppelin/upgradable/UUPSV1.sol\":626:678  function cal() external {... */\n      jump\t// out\n        /* \"contracts/openzeppelin/upgradable/UUPSV1.sol\":463:618  function Initialize(uint256 _val) external initializer {... */\n    tag_52:\n        /* \"@openzeppelin/contracts-upgradeable/proxy/utils/Initializable.sol\":4158:4188  InitializableStorage storage $ */\n      0x00\n        /* \"@openzeppelin/contracts-upgradeable/proxy/utils/Initializable.sol\":4191:4217  _getInitializableStorage() */\n      tag_86\n        /* \"@openzeppelin/contracts-upgradeable/proxy/utils/Initializable.sol\":4191:4215  _getInitializableStorage */\n      tag_87\n        /* \"@openzeppelin/contracts-upgradeable/proxy/utils/Initializable.sol\":4191:4217  _getInitializableStorage() */\n      jump\t// in\n    tag_86:\n        /* \"@openzeppelin/contracts-upgradeable/proxy/utils/Initializable.sol\":4158:4217  InitializableStorage storage $ = _getInitializableStorage() */\n      swap1\n      pop\n        /* \"@openzeppelin/contracts-upgradeable/proxy/utils/Initializable.sol\":4279:4298  bool isTopLevelCall */\n      0x00\n        /* \"@openzeppelin/contracts-upgradeable/proxy/utils/Initializable.sol\":4302:4303  $ */\n      dup2\n        /* \"@openzeppelin/contracts-upgradeable/proxy/utils/Initializable.sol\":4302:4317  $._initializing */\n      0x00\n      add\n      0x08\n      swap1\n      sload\n      swap1\n      0x0100\n      exp\n      swap1\n      div\n      0xff\n      and\n        /* \"@openzeppelin/contracts-upgradeable/proxy/utils/Initializable.sol\":4301:4317  !$._initializing */\n      iszero\n        /* \"@openzeppelin/contracts-upgradeable/proxy/utils/Initializable.sol\":4279:4317  bool isTopLevelCall = !$._initializing */\n      swap1\n      pop\n        /* \"@openzeppelin/contracts-upgradeable/proxy/utils/Initializable.sol\":4327:4345  uint64 initialized */\n      0x00\n        /* \"@openzeppelin/contracts-upgradeable/proxy/utils/Initializable.sol\":4348:4349  $ */\n      dup3\n        /* \"@openzeppelin/contracts-upgradeable/proxy/utils/Initializable.sol\":4348:4362  $._initialized */\n      0x00\n      add\n      0x00\n      swap1\n      sload\n      swap1\n      0x0100\n      exp\n      swap1\n      div\n      0xffffffffffffffff\n      and\n        /* \"@openzeppelin/contracts-upgradeable/proxy/utils/Initializable.sol\":4327:4362  uint64 initialized = $._initialized */\n      swap1\n      pop\n        /* \"@openzeppelin/contracts-upgradeable/proxy/utils/Initializable.sol\":4706:4723  bool initialSetup */\n      0x00\n        /* \"@openzeppelin/contracts-upgradeable/proxy/utils/Initializable.sol\":4741:4742  0 */\n      dup1\n        /* \"@openzeppelin/contracts-upgradeable/proxy/utils/Initializable.sol\":4726:4737  initialized */\n      dup3\n        /* \"@openzeppelin/contracts-upgradeable/proxy/utils/Initializable.sol\":4726:4742  initialized == 0 */\n      0xffffffffffffffff\n      and\n      eq\n        /* \"@openzeppelin/contracts-upgradeable/proxy/utils/Initializable.sol\":4726:4760  initialized == 0 && isTopLevelCall */\n      dup1\n      iszero\n      tag_88\n      jumpi\n      pop\n        /* \"@openzeppelin/contracts-upgradeable/proxy/utils/Initializable.sol\":4746:4760  isTopLevelCall */\n      dup3\n        /* \"@openzeppelin/contracts-upgradeable/proxy/utils/Initializable.sol\":4726:4760  initialized == 0 && isTopLevelCall */\n    tag_88:\n        /* \"@openzeppelin/contracts-upgradeable/proxy/utils/Initializable.sol\":4706:4760  bool initialSetup = initialized == 0 && isTopLevelCall */\n      swap1\n      pop\n        /* \"@openzeppelin/contracts-upgradeable/proxy/utils/Initializable.sol\":4770:4787  bool construction */\n      0x00\n        /* \"@openzeppelin/contracts-upgradeable/proxy/utils/Initializable.sol\":4805:4806  1 */\n      0x01\n        /* \"@openzeppelin/contracts-upgradeable/proxy/utils/Initializable.sol\":4790:4801  initialized */\n      dup4\n        /* \"@openzeppelin/contracts-upgradeable/proxy/utils/Initializable.sol\":4790:4806  initialized == 1 */\n      0xffffffffffffffff\n      and\n      eq\n        /* \"@openzeppelin/contracts-upgradeable/proxy/utils/Initializable.sol\":4790:4840  initialized == 1 && address(this).code.length == 0 */\n      dup1\n      iszero\n      tag_89\n      jumpi\n      pop\n        /* \"@openzeppelin/contracts-upgradeable/proxy/utils/Initializable.sol\":4839:4840  0 */\n      0x00\n        /* \"@openzeppelin/contracts-upgradeable/proxy/utils/Initializable.sol\":4818:4822  this */\n      address\n        /* \"@openzeppelin/contracts-upgradeable/proxy/utils/Initializable.sol\":4810:4835  address(this).code.length */\n      0xffffffffffffffffffffffffffffffffffffffff\n      and\n      extcodesize\n        /* \"@openzeppelin/contracts-upgradeable/proxy/utils/Initializable.sol\":4810:4840  address(this).code.length == 0 */\n      eq\n        /* \"@openzeppelin/contracts-upgradeable/proxy/utils/Initializable.sol\":4790:4840  initialized == 1 && address(this).code.length == 0 */\n    tag_89:\n        /* \"@openzeppelin/contracts-upgradeable/proxy/utils/Initializable.sol\":4770:4840  bool construction = initialized == 1 && address(this).code.length == 0 */\n      swap1\n      pop\n        /* \"@openzeppelin/contracts-upgradeable/proxy/utils/Initializable.sol\":4856:4868  initialSetup */\n      dup2\n        /* \"@openzeppelin/contracts-upgradeable/proxy/utils/Initializable.sol\":4855:4868  !initialSetup */\n      iszero\n        /* \"@openzeppelin/contracts-upgradeable/proxy/utils/Initializable.sol\":4855:4885  !initialSetup && !construction */\n      dup1\n      iszero\n      tag_90\n      jumpi\n      pop\n        /* \"@openzeppelin/contracts-upgradeable/proxy/utils/Initializable.sol\":4873:4885  construction */\n      dup1\n        /* \"@openzeppelin/contracts-upgradeable/proxy/utils/Initializable.sol\":4872:4885  !construction */\n      iszero\n        /* \"@openzeppelin/contracts-upgradeable/proxy/utils/Initializable.sol\":4855:4885  !initialSetup && !construction */\n    tag_90:\n        /* \"@openzeppelin/contracts-upgradeable/proxy/utils/Initializable.sol\":4851:4942  if (!initialSetup && !construction) {... */\n      iszero\n      tag_91\n      jumpi\n        /* \"@openzeppelin/contracts-upgradeable/proxy/utils/Initializable.sol\":4908:4931  InvalidInitialization() */\n      mload(0x40)\n      0xf92ee8a900000000000000000000000000000000000000000000000000000000\n      dup2\n      mstore\n      0x04\n      add\n      mload(0x40)\n      dup1\n      swap2\n      sub\n      swap1\n      revert\n        /* \"@openzeppelin/contracts-upgradeable/proxy/utils/Initializable.sol\":4851:4942  if (!initialSetup && !construction) {... */\n    tag_91:\n        /* \"@openzeppelin/contracts-upgradeable/proxy/utils/Initializable.sol\":4968:4969  1 */\n      0x01\n        /* \"@openzeppelin/contracts-upgradeable/proxy/utils/Initializable.sol\":4951:4952  $ */\n      dup6\n        /* \"@openzeppelin/contracts-upgradeable/proxy/utils/Initializable.sol\":4951:4965  $._initialized */\n      0x00\n      add\n      0x00\n        /* \"@openzeppelin/contracts-upgradeable/proxy/utils/Initializable.sol\":4951:4969  $._initialized = 1 */\n      0x0100\n      exp\n      dup2\n      sload\n      dup2\n      0xffffffffffffffff\n      mul\n      not\n      and\n      swap1\n      dup4\n      0xffffffffffffffff\n      and\n      mul\n      or\n      swap1\n      sstore\n      pop\n        /* \"@openzeppelin/contracts-upgradeable/proxy/utils/Initializable.sol\":4983:4997  isTopLevelCall */\n      dup4\n        /* \"@openzeppelin/contracts-upgradeable/proxy/utils/Initializable.sol\":4979:5046  if (isTopLevelCall) {... */\n      iszero\n      tag_92\n      jumpi\n        /* \"@openzeppelin/contracts-upgradeable/proxy/utils/Initializable.sol\":5031:5035  true */\n      0x01\n        /* \"@openzeppelin/contracts-upgradeable/proxy/utils/Initializable.sol\":5013:5014  $ */\n      dup6\n        /* \"@openzeppelin/contracts-upgradeable/proxy/utils/Initializable.sol\":5013:5028  $._initializing */\n      0x00\n      add\n      0x08\n        /* \"@openzeppelin/contracts-upgradeable/proxy/utils/Initializable.sol\":5013:5035  $._initializing = true */\n      0x0100\n      exp\n      dup2\n      sload\n      dup2\n      0xff\n      mul\n      not\n      and\n      swap1\n      dup4\n      iszero\n      iszero\n      mul\n      or\n      swap1\n      sstore\n      pop\n        /* \"@openzeppelin/contracts-upgradeable/proxy/utils/Initializable.sol\":4979:5046  if (isTopLevelCall) {... */\n    tag_92:\n        /* \"contracts/openzeppelin/upgradable/UUPSV1.sol\":533:537  _val */\n      dup6\n        /* \"contracts/openzeppelin/upgradable/UUPSV1.sol\":529:530  x */\n      0x00\n        /* \"contracts/openzeppelin/upgradable/UUPSV1.sol\":529:537  x = _val */\n      dup2\n      swap1\n      sstore\n      pop\n        /* \"contracts/openzeppelin/upgradable/UUPSV1.sol\":584:610  __Ownable_init(msg.sender) */\n      tag_94\n        /* \"contracts/openzeppelin/upgradable/UUPSV1.sol\":599:609  msg.sender */\n      caller\n        /* \"contracts/openzeppelin/upgradable/UUPSV1.sol\":584:598  __Ownable_init */\n      tag_95\n        /* \"contracts/openzeppelin/upgradable/UUPSV1.sol\":584:610  __Ownable_init(msg.sender) */\n      jump\t// in\n    tag_94:\n        /* \"@openzeppelin/contracts-upgradeable/proxy/utils/Initializable.sol\":5070:5084  isTopLevelCall */\n      dup4\n        /* \"@openzeppelin/contracts-upgradeable/proxy/utils/Initializable.sol\":5066:5167  if (isTopLevelCall) {... */\n      iszero\n      tag_96\n      jumpi\n        /* \"@openzeppelin/contracts-upgradeable/proxy/utils/Initializable.sol\":5118:5123  false */\n      0x00\n        /* \"@openzeppelin/contracts-upgradeable/proxy/utils/Initializable.sol\":5100:5101  $ */\n      dup6\n        /* \"@openzeppelin/contracts-upgradeable/proxy/utils/Initializable.sol\":5100:5115  $._initializing */\n      0x00\n      add\n      0x08\n        /* \"@openzeppelin/contracts-upgradeable/proxy/utils/Initializable.sol\":5100:5123  $._initializing = false */\n      0x0100\n      exp\n      dup2\n      sload\n      dup2\n      0xff\n      mul\n      not\n      and\n      swap1\n      dup4\n      iszero\n      iszero\n      mul\n      or\n      swap1\n      sstore\n      pop\n        /* \"@openzeppelin/contracts-upgradeable/proxy/utils/Initializable.sol\":5142:5156  Initialized(1) */\n      0xc7f505b2f371ae2175ee4913f4499e1f2633a7b5936321eed1cdaeb6115181d2\n        /* \"@openzeppelin/contracts-upgradeable/proxy/utils/Initializable.sol\":5154:5155  1 */\n      0x01\n        /* \"@openzeppelin/contracts-upgradeable/proxy/utils/Initializable.sol\":5142:5156  Initialized(1) */\n      mload(0x40)\n      tag_97\n      swap2\n      swap1\n      tag_98\n      jump\t// in\n    tag_97:\n      mload(0x40)\n      dup1\n      swap2\n      sub\n      swap1\n      log1\n        /* \"@openzeppelin/contracts-upgradeable/proxy/utils/Initializable.sol\":5066:5167  if (isTopLevelCall) {... */\n    tag_96:\n        /* \"@openzeppelin/contracts-upgradeable/proxy/utils/Initializable.sol\":4092:5173  {... */\n      pop\n      pop\n      pop\n      pop\n      pop\n        /* \"contracts/openzeppelin/upgradable/UUPSV1.sol\":463:618  function Initialize(uint256 _val) external initializer {... */\n      pop\n      jump\t// out\n        /* \"@openzeppelin/contracts-upgradeable/access/OwnableUpgradeable.sol\":3405:3620  function transferOwnership(address newOwner) public virtual onlyOwner {... */\n    tag_57:\n        /* \"@openzeppelin/contracts-upgradeable/access/OwnableUpgradeable.sol\":2334:2347  _checkOwner() */\n      tag_100\n        /* \"@openzeppelin/contracts-upgradeable/access/OwnableUpgradeable.sol\":2334:2345  _checkOwner */\n      tag_72\n        /* \"@openzeppelin/contracts-upgradeable/access/OwnableUpgradeable.sol\":2334:2347  _checkOwner() */\n      jump\t// in\n    tag_100:\n        /* \"@openzeppelin/contracts-upgradeable/access/OwnableUpgradeable.sol\":3509:3510  0 */\n      0x00\n        /* \"@openzeppelin/contracts-upgradeable/access/OwnableUpgradeable.sol\":3489:3511  newOwner == address(0) */\n      0xffffffffffffffffffffffffffffffffffffffff\n      and\n        /* \"@openzeppelin/contracts-upgradeable/access/OwnableUpgradeable.sol\":3489:3497  newOwner */\n      dup2\n        /* \"@openzeppelin/contracts-upgradeable/access/OwnableUpgradeable.sol\":3489:3511  newOwner == address(0) */\n      0xffffffffffffffffffffffffffffffffffffffff\n      and\n      sub\n        /* \"@openzeppelin/contracts-upgradeable/access/OwnableUpgradeable.sol\":3485:3576  if (newOwner == address(0)) {... */\n      tag_102\n      jumpi\n        /* \"@openzeppelin/contracts-upgradeable/access/OwnableUpgradeable.sol\":3562:3563  0 */\n      0x00\n        /* \"@openzeppelin/contracts-upgradeable/access/OwnableUpgradeable.sol\":3534:3565  OwnableInvalidOwner(address(0)) */\n      mload(0x40)\n      0x1e4fbdf700000000000000000000000000000000000000000000000000000000\n      dup2\n      mstore\n      0x04\n      add\n      tag_103\n      swap2\n      swap1\n      tag_39\n      jump\t// in\n    tag_103:\n      mload(0x40)\n      dup1\n      swap2\n      sub\n      swap1\n      revert\n        /* \"@openzeppelin/contracts-upgradeable/access/OwnableUpgradeable.sol\":3485:3576  if (newOwner == address(0)) {... */\n    tag_102:\n        /* \"@openzeppelin/contracts-upgradeable/access/OwnableUpgradeable.sol\":3585:3613  _transferOwnership(newOwner) */\n      tag_104\n        /* \"@openzeppelin/contracts-upgradeable/access/OwnableUpgradeable.sol\":3604:3612  newOwner */\n      dup2\n        /* \"@openzeppelin/contracts-upgradeable/access/OwnableUpgradeable.sol\":3585:3603  _transferOwnership */\n      tag_75\n        /* \"@openzeppelin/contracts-upgradeable/access/OwnableUpgradeable.sol\":3585:3613  _transferOwnership(newOwner) */\n      jump\t// in\n    tag_104:\n        /* \"@openzeppelin/contracts-upgradeable/access/OwnableUpgradeable.sol\":3405:3620  function transferOwnership(address newOwner) public virtual onlyOwner {... */\n      pop\n      jump\t// out\n        /* \"@openzeppelin/contracts/proxy/utils/UUPSUpgradeable.sol\":4337:4649  function _checkProxy() internal view virtual {... */\n    tag_60:\n        /* \"@openzeppelin/contracts/proxy/utils/UUPSUpgradeable.sol\":4426:4432  __self */\n      immutable(\"0x87b8181f2525747f7c2388fad45fd6fdeca8961ce0728225de7247b6a04dc463\")\n        /* \"@openzeppelin/contracts/proxy/utils/UUPSUpgradeable.sol\":4409:4432  address(this) == __self */\n      0xffffffffffffffffffffffffffffffffffffffff\n      and\n        /* \"@openzeppelin/contracts/proxy/utils/UUPSUpgradeable.sol\":4417:4421  this */\n      address\n        /* \"@openzeppelin/contracts/proxy/utils/UUPSUpgradeable.sol\":4409:4432  address(this) == __self */\n      0xffffffffffffffffffffffffffffffffffffffff\n      and\n      eq\n        /* \"@openzeppelin/contracts/proxy/utils/UUPSUpgradeable.sol\":4409:4529  address(this) == __self || // Must be called through delegatecall... */\n      dup1\n      tag_106\n      jumpi\n      pop\n        /* \"@openzeppelin/contracts/proxy/utils/UUPSUpgradeable.sol\":4523:4529  __self */\n      immutable(\"0x87b8181f2525747f7c2388fad45fd6fdeca8961ce0728225de7247b6a04dc463\")\n        /* \"@openzeppelin/contracts/proxy/utils/UUPSUpgradeable.sol\":4487:4529  ERC1967Utils.getImplementation() != __self */\n      0xffffffffffffffffffffffffffffffffffffffff\n      and\n        /* \"@openzeppelin/contracts/proxy/utils/UUPSUpgradeable.sol\":4487:4519  ERC1967Utils.getImplementation() */\n      tag_107\n        /* \"@openzeppelin/contracts/proxy/utils/UUPSUpgradeable.sol\":4487:4517  ERC1967Utils.getImplementation */\n      tag_108\n        /* \"@openzeppelin/contracts/proxy/utils/UUPSUpgradeable.sol\":4487:4519  ERC1967Utils.getImplementation() */\n      jump\t// in\n    tag_107:\n        /* \"@openzeppelin/contracts/proxy/utils/UUPSUpgradeable.sol\":4487:4529  ERC1967Utils.getImplementation() != __self */\n      0xffffffffffffffffffffffffffffffffffffffff\n      and\n      eq\n      iszero\n        /* \"@openzeppelin/contracts/proxy/utils/UUPSUpgradeable.sol\":4409:4529  address(this) == __self || // Must be called through delegatecall... */\n    tag_106:\n        /* \"@openzeppelin/contracts/proxy/utils/UUPSUpgradeable.sol\":4392:4643  if (... */\n      iszero\n      tag_109\n      jumpi\n        /* \"@openzeppelin/contracts/proxy/utils/UUPSUpgradeable.sol\":4603:4632  UUPSUnauthorizedCallContext() */\n      mload(0x40)\n      0xe07c8dba00000000000000000000000000000000000000000000000000000000\n      dup2\n      mstore\n      0x04\n      add\n      mload(0x40)\n      dup1\n      swap2\n      sub\n      swap1\n      revert\n        /* \"@openzeppelin/contracts/proxy/utils/UUPSUpgradeable.sol\":4392:4643  if (... */\n    tag_109:\n        /* \"@openzeppelin/contracts/proxy/utils/UUPSUpgradeable.sol\":4337:4649  function _checkProxy() internal view virtual {... */\n      jump\t// out\n        /* \"contracts/openzeppelin/upgradable/UUPSV1.sol\":372:455  function _authorizeUpgrade(address newImplementation) internal override  {... */\n    tag_63:\n      pop\n      jump\t// out\n        /* \"@openzeppelin/contracts/proxy/utils/UUPSUpgradeable.sol\":5791:6329  function _upgradeToAndCallUUPS(address newImplementation, bytes memory data) private {... */\n    tag_65:\n        /* \"@openzeppelin/contracts/proxy/utils/UUPSUpgradeable.sol\":5908:5925  newImplementation */\n      dup2\n        /* \"@openzeppelin/contracts/proxy/utils/UUPSUpgradeable.sol\":5890:5940  IERC1822Proxiable(newImplementation).proxiableUUID */\n      0xffffffffffffffffffffffffffffffffffffffff\n      and\n      0x52d1902d\n        /* \"@openzeppelin/contracts/proxy/utils/UUPSUpgradeable.sol\":5890:5942  IERC1822Proxiable(newImplementation).proxiableUUID() */\n      mload(0x40)\n      dup2\n      0xffffffff\n      and\n      0xe0\n      shl\n      dup2\n      mstore\n      0x04\n      add\n      0x20\n      mload(0x40)\n      dup1\n      dup4\n      sub\n      dup2\n      dup7\n      gas\n      staticcall\n      swap3\n      pop\n      pop\n      pop\n      dup1\n      iszero\n      tag_112\n      jumpi\n      pop\n      mload(0x40)\n      returndatasize\n      not(0x1f)\n      0x1f\n      dup3\n      add\n      and\n      dup3\n      add\n      dup1\n      0x40\n      mstore\n      pop\n      dup2\n      add\n      swap1\n      tag_113\n      swap2\n      swap1\n      tag_114\n      jump\t// in\n    tag_113:\n      0x01\n    tag_112:\n        /* \"@openzeppelin/contracts/proxy/utils/UUPSUpgradeable.sol\":5886:6323  try IERC1822Proxiable(newImplementation).proxiableUUID() returns (bytes32 slot) {... */\n      tag_115\n      jumpi\n        /* \"@openzeppelin/contracts/proxy/utils/UUPSUpgradeable.sol\":6294:6311  newImplementation */\n      dup2\n        /* \"@openzeppelin/contracts/proxy/utils/UUPSUpgradeable.sol\":6252:6312  ERC1967Utils.ERC1967InvalidImplementation(newImplementation) */\n      mload(0x40)\n      0x4c9c8ce300000000000000000000000000000000000000000000000000000000\n      dup2\n      mstore\n      0x04\n      add\n      tag_119\n      swap2\n      swap1\n      tag_39\n      jump\t// in\n    tag_119:\n      mload(0x40)\n      dup1\n      swap2\n      sub\n      swap1\n      revert\n        /* \"@openzeppelin/contracts/proxy/utils/UUPSUpgradeable.sol\":5886:6323  try IERC1822Proxiable(newImplementation).proxiableUUID() returns (bytes32 slot) {... */\n    tag_115:\n        /* \"@openzeppelin/contracts/proxy/ERC1967/ERC1967Utils.sol\":811:877  0x360894a13ba1a3210667c828492db98dca3e2076cc3735a920a3ca505d382bbc */\n      0x360894a13ba1a3210667c828492db98dca3e2076cc3735a920a3ca505d382bbc\n        /* \"@openzeppelin/contracts/proxy/utils/UUPSUpgradeable.sol\":5992:6024  ERC1967Utils.IMPLEMENTATION_SLOT */\n      0x00\n      shl\n        /* \"@openzeppelin/contracts/proxy/utils/UUPSUpgradeable.sol\":5984:5988  slot */\n      dup2\n        /* \"@openzeppelin/contracts/proxy/utils/UUPSUpgradeable.sol\":5984:6024  slot != ERC1967Utils.IMPLEMENTATION_SLOT */\n      eq\n        /* \"@openzeppelin/contracts/proxy/utils/UUPSUpgradeable.sol\":5980:6100  if (slot != ERC1967Utils.IMPLEMENTATION_SLOT) {... */\n      tag_121\n      jumpi\n        /* \"@openzeppelin/contracts/proxy/utils/UUPSUpgradeable.sol\":6080:6084  slot */\n      dup1\n        /* \"@openzeppelin/contracts/proxy/utils/UUPSUpgradeable.sol\":6051:6085  UUPSUnsupportedProxiableUUID(slot) */\n      mload(0x40)\n      0xaa1d49a400000000000000000000000000000000000000000000000000000000\n      dup2\n      mstore\n      0x04\n      add\n      tag_122\n      swap2\n      swap1\n      tag_26\n      jump\t// in\n    tag_122:\n      mload(0x40)\n      dup1\n      swap2\n      sub\n      swap1\n      revert\n        /* \"@openzeppelin/contracts/proxy/utils/UUPSUpgradeable.sol\":5980:6100  if (slot != ERC1967Utils.IMPLEMENTATION_SLOT) {... */\n    tag_121:\n        /* \"@openzeppelin/contracts/proxy/utils/UUPSUpgradeable.sol\":6113:6167  ERC1967Utils.upgradeToAndCall(newImplementation, data) */\n      tag_123\n        /* \"@openzeppelin/contracts/proxy/utils/UUPSUpgradeable.sol\":6143:6160  newImplementation */\n      dup4\n        /* \"@openzeppelin/contracts/proxy/utils/UUPSUpgradeable.sol\":6162:6166  data */\n      dup4\n        /* \"@openzeppelin/contracts/proxy/utils/UUPSUpgradeable.sol\":6113:6142  ERC1967Utils.upgradeToAndCall */\n      tag_124\n        /* \"@openzeppelin/contracts/proxy/utils/UUPSUpgradeable.sol\":6113:6167  ERC1967Utils.upgradeToAndCall(newImplementation, data) */\n      jump\t// in\n    tag_123:\n        /* \"@openzeppelin/contracts/proxy/utils/UUPSUpgradeable.sol\":5943:6178  returns (bytes32 slot) {... */\n      pop\n        /* \"@openzeppelin/contracts/proxy/utils/UUPSUpgradeable.sol\":5791:6329  function _upgradeToAndCallUUPS(address newImplementation, bytes memory data) private {... */\n      pop\n      pop\n      jump\t// out\n        /* \"@openzeppelin/contracts/proxy/utils/UUPSUpgradeable.sol\":4766:4979  function _checkNotDelegated() internal view virtual {... */\n    tag_68:\n        /* \"@openzeppelin/contracts/proxy/utils/UUPSUpgradeable.sol\":4849:4855  __self */\n      immutable(\"0x87b8181f2525747f7c2388fad45fd6fdeca8961ce0728225de7247b6a04dc463\")\n        /* \"@openzeppelin/contracts/proxy/utils/UUPSUpgradeable.sol\":4832:4855  address(this) != __self */\n      0xffffffffffffffffffffffffffffffffffffffff\n      and\n        /* \"@openzeppelin/contracts/proxy/utils/UUPSUpgradeable.sol\":4840:4844  this */\n      address\n        /* \"@openzeppelin/contracts/proxy/utils/UUPSUpgradeable.sol\":4832:4855  address(this) != __self */\n      0xffffffffffffffffffffffffffffffffffffffff\n      and\n      eq\n        /* \"@openzeppelin/contracts/proxy/utils/UUPSUpgradeable.sol\":4828:4973  if (address(this) != __self) {... */\n      tag_126\n      jumpi\n        /* \"@openzeppelin/contracts/proxy/utils/UUPSUpgradeable.sol\":4933:4962  UUPSUnauthorizedCallContext() */\n      mload(0x40)\n      0xe07c8dba00000000000000000000000000000000000000000000000000000000\n      dup2\n      mstore\n      0x04\n      add\n      mload(0x40)\n      dup1\n      swap2\n      sub\n      swap1\n      revert\n        /* \"@openzeppelin/contracts/proxy/utils/UUPSUpgradeable.sol\":4828:4973  if (address(this) != __self) {... */\n    tag_126:\n        /* \"@openzeppelin/contracts/proxy/utils/UUPSUpgradeable.sol\":4766:4979  function _checkNotDelegated() internal view virtual {... */\n      jump\t// out\n        /* \"@openzeppelin/contracts-upgradeable/access/OwnableUpgradeable.sol\":2658:2820  function _checkOwner() internal view virtual {... */\n    tag_72:\n        /* \"@openzeppelin/contracts-upgradeable/access/OwnableUpgradeable.sol\":2728:2740  _msgSender() */\n      tag_128\n        /* \"@openzeppelin/contracts-upgradeable/access/OwnableUpgradeable.sol\":2728:2738  _msgSender */\n      tag_129\n        /* \"@openzeppelin/contracts-upgradeable/access/OwnableUpgradeable.sol\":2728:2740  _msgSender() */\n      jump\t// in\n    tag_128:\n        /* \"@openzeppelin/contracts-upgradeable/access/OwnableUpgradeable.sol\":2717:2740  owner() != _msgSender() */\n      0xffffffffffffffffffffffffffffffffffffffff\n      and\n        /* \"@openzeppelin/contracts-upgradeable/access/OwnableUpgradeable.sol\":2717:2724  owner() */\n      tag_130\n        /* \"@openzeppelin/contracts-upgradeable/access/OwnableUpgradeable.sol\":2717:2722  owner */\n      tag_37\n        /* \"@openzeppelin/contracts-upgradeable/access/OwnableUpgradeable.sol\":2717:2724  owner() */\n      jump\t// in\n    tag_130:\n        /* \"@openzeppelin/contracts-upgradeable/access/OwnableUpgradeable.sol\":2717:2740  owner() != _msgSender() */\n      0xffffffffffffffffffffffffffffffffffffffff\n      and\n      eq\n        /* \"@openzeppelin/contracts-upgradeable/access/OwnableUpgradeable.sol\":2713:2814  if (owner() != _msgSender()) {... */\n      tag_131\n      jumpi\n        /* \"@openzeppelin/contracts-upgradeable/access/OwnableUpgradeable.sol\":2790:2802  _msgSender() */\n      tag_132\n        /* \"@openzeppelin/contracts-upgradeable/access/OwnableUpgradeable.sol\":2790:2800  _msgSender */\n      tag_129\n        /* \"@openzeppelin/contracts-upgradeable/access/OwnableUpgradeable.sol\":2790:2802  _msgSender() */\n      jump\t// in\n    tag_132:\n        /* \"@openzeppelin/contracts-upgradeable/access/OwnableUpgradeable.sol\":2763:2803  OwnableUnauthorizedAccount(_msgSender()) */\n      mload(0x40)\n      0x118cdaa700000000000000000000000000000000000000000000000000000000\n      dup2\n      mstore\n      0x04\n      add\n      tag_133\n      swap2\n      swap1\n      tag_39\n      jump\t// in\n    tag_133:\n      mload(0x40)\n      dup1\n      swap2\n      sub\n      swap1\n      revert\n        /* \"@openzeppelin/contracts-upgradeable/access/OwnableUpgradeable.sol\":2713:2814  if (owner() != _msgSender()) {... */\n    tag_131:\n        /* \"@openzeppelin/contracts-upgradeable/access/OwnableUpgradeable.sol\":2658:2820  function _checkOwner() internal view virtual {... */\n      jump\t// out\n        /* \"@openzeppelin/contracts-upgradeable/access/OwnableUpgradeable.sol\":3774:4022  function _transferOwnership(address newOwner) internal virtual {... */\n    tag_75:\n        /* \"@openzeppelin/contracts-upgradeable/access/OwnableUpgradeable.sol\":3847:3871  OwnableStorage storage $ */\n      0x00\n        /* \"@openzeppelin/contracts-upgradeable/access/OwnableUpgradeable.sol\":3874:3894  _getOwnableStorage() */\n      tag_135\n        /* \"@openzeppelin/contracts-upgradeable/access/OwnableUpgradeable.sol\":3874:3892  _getOwnableStorage */\n      tag_81\n        /* \"@openzeppelin/contracts-upgradeable/access/OwnableUpgradeable.sol\":3874:3894  _getOwnableStorage() */\n      jump\t// in\n    tag_135:\n        /* \"@openzeppelin/contracts-upgradeable/access/OwnableUpgradeable.sol\":3847:3894  OwnableStorage storage $ = _getOwnableStorage() */\n      swap1\n      pop\n        /* \"@openzeppelin/contracts-upgradeable/access/OwnableUpgradeable.sol\":3904:3920  address oldOwner */\n      0x00\n        /* \"@openzeppelin/contracts-upgradeable/access/OwnableUpgradeable.sol\":3923:3924  $ */\n      dup2\n        /* \"@openzeppelin/contracts-upgradeable/access/OwnableUpgradeable.sol\":3923:3931  $._owner */\n      0x00\n      add\n      0x00\n      swap1\n      sload\n      swap1\n      0x0100\n      exp\n      swap1\n      div\n      0xffffffffffffffffffffffffffffffffffffffff\n      and\n        /* \"@openzeppelin/contracts-upgradeable/access/OwnableUpgradeable.sol\":3904:3931  address oldOwner = $._owner */\n      swap1\n      pop\n        /* \"@openzeppelin/contracts-upgradeable/access/OwnableUpgradeable.sol\":3952:3960  newOwner */\n      dup3\n        /* \"@openzeppelin/contracts-upgradeable/access/OwnableUpgradeable.sol\":3941:3942  $ */\n      dup3\n        /* \"@openzeppelin/contracts-upgradeable/access/OwnableUpgradeable.sol\":3941:3949  $._owner */\n      0x00\n      add\n      0x00\n        /* \"@openzeppelin/contracts-upgradeable/access/OwnableUpgradeable.sol\":3941:3960  $._owner = newOwner */\n      0x0100\n      exp\n      dup2\n      sload\n      dup2\n      0xffffffffffffffffffffffffffffffffffffffff\n      mul\n      not\n      and\n      swap1\n      dup4\n      0xffffffffffffffffffffffffffffffffffffffff\n      and\n      mul\n      or\n      swap1\n      sstore\n      pop\n        /* \"@openzeppelin/contracts-upgradeable/access/OwnableUpgradeable.sol\":4006:4014  newOwner */\n      dup3\n        /* \"@openzeppelin/contracts-upgradeable/access/OwnableUpgradeable.sol\":3975:4015  OwnershipTransferred(oldOwner, newOwner) */\n      0xffffffffffffffffffffffffffffffffffffffff\n      and\n        /* \"@openzeppelin/contracts-upgradeable/access/OwnableUpgradeable.sol\":3996:4004  oldOwner */\n      dup2\n        /* \"@openzeppelin/contracts-upgradeable/access/OwnableUpgradeable.sol\":3975:4015  OwnershipTransferred(oldOwner, newOwner) */\n      0xffffffffffffffffffffffffffffffffffffffff\n      and\n      0x8be0079c531659141344cd1fd0a4f28419497f9722a3daafe3b4186f6b6457e0\n      mload(0x40)\n      mload(0x40)\n      dup1\n      swap2\n      sub\n      swap1\n      log3\n        /* \"@openzeppelin/contracts-upgradeable/access/OwnableUpgradeable.sol\":3837:4022  {... */\n      pop\n      pop\n        /* \"@openzeppelin/contracts-upgradeable/access/OwnableUpgradeable.sol\":3774:4022  function _transferOwnership(address newOwner) internal virtual {... */\n      pop\n      jump\t// out\n        /* \"@openzeppelin/contracts-upgradeable/access/OwnableUpgradeable.sol\":1192:1351  function _getOwnableStorage() private pure returns (OwnableStorage storage $) {... */\n    tag_81:\n        /* \"@openzeppelin/contracts-upgradeable/access/OwnableUpgradeable.sol\":1244:1268  OwnableStorage storage $ */\n      0x00\n        /* \"@openzeppelin/contracts-upgradeable/access/OwnableUpgradeable.sol\":1313:1335  OwnableStorageLocation */\n      0x9016d09d72d40fdae2fd8ceac6b6234c7706214fd39c1cd1e609a0528c199300\n        /* \"@openzeppelin/contracts-upgradeable/access/OwnableUpgradeable.sol\":1303:1335  $.slot := OwnableStorageLocation */\n      swap1\n      pop\n        /* \"@openzeppelin/contracts-upgradeable/access/OwnableUpgradeable.sol\":1192:1351  function _getOwnableStorage() private pure returns (OwnableStorage storage $) {... */\n      swap1\n      jump\t// out\n        /* \"@openzeppelin/contracts-upgradeable/proxy/utils/Initializable.sol\":8737:8907  function _getInitializableStorage() private pure returns (InitializableStorage storage $) {... */\n    tag_87:\n        /* \"@openzeppelin/contracts-upgradeable/proxy/utils/Initializable.sol\":8795:8825  InitializableStorage storage $ */\n      0x00\n        /* \"@openzeppelin/contracts-upgradeable/proxy/utils/Initializable.sol\":8870:8891  INITIALIZABLE_STORAGE */\n      0xf0c57e16840df040f15088dc2f81fe391c3923bec73e23a9662efc9c229c6a00\n        /* \"@openzeppelin/contracts-upgradeable/proxy/utils/Initializable.sol\":8860:8891  $.slot := INITIALIZABLE_STORAGE */\n      swap1\n      pop\n        /* \"@openzeppelin/contracts-upgradeable/proxy/utils/Initializable.sol\":8737:8907  function _getInitializableStorage() private pure returns (InitializableStorage storage $) {... */\n      swap1\n      jump\t// out\n        /* \"@openzeppelin/contracts-upgradeable/access/OwnableUpgradeable.sol\":1847:1974  function __Ownable_init(address initialOwner) internal onlyInitializing {... */\n    tag_95:\n        /* \"@openzeppelin/contracts-upgradeable/proxy/utils/Initializable.sol\":6931:6951  _checkInitializing() */\n      tag_139\n        /* \"@openzeppelin/contracts-upgradeable/proxy/utils/Initializable.sol\":6931:6949  _checkInitializing */\n      tag_140\n        /* \"@openzeppelin/contracts-upgradeable/proxy/utils/Initializable.sol\":6931:6951  _checkInitializing() */\n      jump\t// in\n    tag_139:\n        /* \"@openzeppelin/contracts-upgradeable/access/OwnableUpgradeable.sol\":1929:1967  __Ownable_init_unchained(initialOwner) */\n      tag_142\n        /* \"@openzeppelin/contracts-upgradeable/access/OwnableUpgradeable.sol\":1954:1966  initialOwner */\n      dup2\n        /* \"@openzeppelin/contracts-upgradeable/access/OwnableUpgradeable.sol\":1929:1953  __Ownable_init_unchained */\n      tag_143\n        /* \"@openzeppelin/contracts-upgradeable/access/OwnableUpgradeable.sol\":1929:1967  __Ownable_init_unchained(initialOwner) */\n      jump\t// in\n    tag_142:\n        /* \"@openzeppelin/contracts-upgradeable/access/OwnableUpgradeable.sol\":1847:1974  function __Ownable_init(address initialOwner) internal onlyInitializing {... */\n      pop\n      jump\t// out\n        /* \"@openzeppelin/contracts/proxy/ERC1967/ERC1967Utils.sol\":1441:1579  function getImplementation() internal view returns (address) {... */\n    tag_108:\n        /* \"@openzeppelin/contracts/proxy/ERC1967/ERC1967Utils.sol\":1493:1500  address */\n      0x00\n        /* \"@openzeppelin/contracts/proxy/ERC1967/ERC1967Utils.sol\":1519:1566  StorageSlot.getAddressSlot(IMPLEMENTATION_SLOT) */\n      tag_145\n        /* \"@openzeppelin/contracts/proxy/ERC1967/ERC1967Utils.sol\":811:877  0x360894a13ba1a3210667c828492db98dca3e2076cc3735a920a3ca505d382bbc */\n      0x360894a13ba1a3210667c828492db98dca3e2076cc3735a920a3ca505d382bbc\n        /* \"@openzeppelin/contracts/proxy/ERC1967/ERC1967Utils.sol\":1546:1565  IMPLEMENTATION_SLOT */\n      0x00\n      shl\n        /* \"@openzeppelin/contracts/proxy/ERC1967/ERC1967Utils.sol\":1519:1545  StorageSlot.getAddressSlot */\n      tag_146\n        /* \"@openzeppelin/contracts/proxy/ERC1967/ERC1967Utils.sol\":1519:1566  StorageSlot.getAddressSlot(IMPLEMENTATION_SLOT) */\n      jump\t// in\n    tag_145:\n        /* \"@openzeppelin/contracts/proxy/ERC1967/ERC1967Utils.sol\":1519:1572  StorageSlot.getAddressSlot(IMPLEMENTATION_SLOT).value */\n      0x00\n      add\n      0x00\n      swap1\n      sload\n      swap1\n      0x0100\n      exp\n      swap1\n      div\n      0xffffffffffffffffffffffffffffffffffffffff\n      and\n        /* \"@openzeppelin/contracts/proxy/ERC1967/ERC1967Utils.sol\":1512:1572  return StorageSlot.getAddressSlot(IMPLEMENTATION_SLOT).value */\n      swap1\n      pop\n        /* \"@openzeppelin/contracts/proxy/ERC1967/ERC1967Utils.sol\":1441:1579  function getImplementation() internal view returns (address) {... */\n      swap1\n      jump\t// out\n        /* \"@openzeppelin/contracts/proxy/ERC1967/ERC1967Utils.sol\":2264:2608  function upgradeToAndCall(address newImplementation, bytes memory data) internal {... */\n    tag_124:\n        /* \"@openzeppelin/contracts/proxy/ERC1967/ERC1967Utils.sol\":2355:2392  _setImplementation(newImplementation) */\n      tag_148\n        /* \"@openzeppelin/contracts/proxy/ERC1967/ERC1967Utils.sol\":2374:2391  newImplementation */\n      dup3\n        /* \"@openzeppelin/contracts/proxy/ERC1967/ERC1967Utils.sol\":2355:2373  _setImplementation */\n      tag_149\n        /* \"@openzeppelin/contracts/proxy/ERC1967/ERC1967Utils.sol\":2355:2392  _setImplementation(newImplementation) */\n      jump\t// in\n    tag_148:\n        /* \"@openzeppelin/contracts/proxy/ERC1967/ERC1967Utils.sol\":2425:2442  newImplementation */\n      dup2\n        /* \"@openzeppelin/contracts/proxy/ERC1967/ERC1967Utils.sol\":2407:2443  IERC1967.Upgraded(newImplementation) */\n      0xffffffffffffffffffffffffffffffffffffffff\n      and\n      0xbc7cd75a20ee27fd9adebab32041f755214dbc6bffa90cc0225b39da2e5c2d3b\n      mload(0x40)\n      mload(0x40)\n      dup1\n      swap2\n      sub\n      swap1\n      log2\n        /* \"@openzeppelin/contracts/proxy/ERC1967/ERC1967Utils.sol\":2472:2473  0 */\n      0x00\n        /* \"@openzeppelin/contracts/proxy/ERC1967/ERC1967Utils.sol\":2458:2462  data */\n      dup2\n        /* \"@openzeppelin/contracts/proxy/ERC1967/ERC1967Utils.sol\":2458:2469  data.length */\n      mload\n        /* \"@openzeppelin/contracts/proxy/ERC1967/ERC1967Utils.sol\":2458:2473  data.length > 0 */\n      gt\n        /* \"@openzeppelin/contracts/proxy/ERC1967/ERC1967Utils.sol\":2454:2602  if (data.length > 0) {... */\n      iszero\n      tag_150\n      jumpi\n        /* \"@openzeppelin/contracts/proxy/ERC1967/ERC1967Utils.sol\":2489:2542  Address.functionDelegateCall(newImplementation, data) */\n      tag_151\n        /* \"@openzeppelin/contracts/proxy/ERC1967/ERC1967Utils.sol\":2518:2535  newImplementation */\n      dup3\n        /* \"@openzeppelin/contracts/proxy/ERC1967/ERC1967Utils.sol\":2537:2541  data */\n      dup3\n        /* \"@openzeppelin/contracts/proxy/ERC1967/ERC1967Utils.sol\":2489:2517  Address.functionDelegateCall */\n      tag_152\n        /* \"@openzeppelin/contracts/proxy/ERC1967/ERC1967Utils.sol\":2489:2542  Address.functionDelegateCall(newImplementation, data) */\n      jump\t// in\n    tag_151:\n      pop\n        /* \"@openzeppelin/contracts/proxy/ERC1967/ERC1967Utils.sol\":2454:2602  if (data.length > 0) {... */\n      jump(tag_153)\n    tag_150:\n        /* \"@openzeppelin/contracts/proxy/ERC1967/ERC1967Utils.sol\":2573:2591  _checkNonPayable() */\n      tag_154\n        /* \"@openzeppelin/contracts/proxy/ERC1967/ERC1967Utils.sol\":2573:2589  _checkNonPayable */\n      tag_155\n        /* \"@openzeppelin/contracts/proxy/ERC1967/ERC1967Utils.sol\":2573:2591  _checkNonPayable() */\n      jump\t// in\n    tag_154:\n        /* \"@openzeppelin/contracts/proxy/ERC1967/ERC1967Utils.sol\":2454:2602  if (data.length > 0) {... */\n    tag_153:\n        /* \"@openzeppelin/contracts/proxy/ERC1967/ERC1967Utils.sol\":2264:2608  function upgradeToAndCall(address newImplementation, bytes memory data) internal {... */\n      pop\n      pop\n      jump\t// out\n        /* \"@openzeppelin/contracts-upgradeable/utils/ContextUpgradeable.sol\":887:983  function _msgSender() internal view virtual returns (address) {... */\n    tag_129:\n        /* \"@openzeppelin/contracts-upgradeable/utils/ContextUpgradeable.sol\":940:947  address */\n      0x00\n        /* \"@openzeppelin/contracts-upgradeable/utils/ContextUpgradeable.sol\":966:976  msg.sender */\n      caller\n        /* \"@openzeppelin/contracts-upgradeable/utils/ContextUpgradeable.sol\":959:976  return msg.sender */\n      swap1\n      pop\n        /* \"@openzeppelin/contracts-upgradeable/utils/ContextUpgradeable.sol\":887:983  function _msgSender() internal view virtual returns (address) {... */\n      swap1\n      jump\t// out\n        /* \"@openzeppelin/contracts-upgradeable/proxy/utils/Initializable.sol\":7084:7225  function _checkInitializing() internal view virtual {... */\n    tag_140:\n        /* \"@openzeppelin/contracts-upgradeable/proxy/utils/Initializable.sol\":7151:7168  _isInitializing() */\n      tag_158\n        /* \"@openzeppelin/contracts-upgradeable/proxy/utils/Initializable.sol\":7151:7166  _isInitializing */\n      tag_159\n        /* \"@openzeppelin/contracts-upgradeable/proxy/utils/Initializable.sol\":7151:7168  _isInitializing() */\n      jump\t// in\n    tag_158:\n        /* \"@openzeppelin/contracts-upgradeable/proxy/utils/Initializable.sol\":7146:7219  if (!_isInitializing()) {... */\n      tag_160\n      jumpi\n        /* \"@openzeppelin/contracts-upgradeable/proxy/utils/Initializable.sol\":7191:7208  NotInitializing() */\n      mload(0x40)\n      0xd7e6bcf800000000000000000000000000000000000000000000000000000000\n      dup2\n      mstore\n      0x04\n      add\n      mload(0x40)\n      dup1\n      swap2\n      sub\n      swap1\n      revert\n        /* \"@openzeppelin/contracts-upgradeable/proxy/utils/Initializable.sol\":7146:7219  if (!_isInitializing()) {... */\n    tag_160:\n        /* \"@openzeppelin/contracts-upgradeable/proxy/utils/Initializable.sol\":7084:7225  function _checkInitializing() internal view virtual {... */\n      jump\t// out\n        /* \"@openzeppelin/contracts-upgradeable/access/OwnableUpgradeable.sol\":1980:2215  function __Ownable_init_unchained(address initialOwner) internal onlyInitializing {... */\n    tag_143:\n        /* \"@openzeppelin/contracts-upgradeable/proxy/utils/Initializable.sol\":6931:6951  _checkInitializing() */\n      tag_162\n        /* \"@openzeppelin/contracts-upgradeable/proxy/utils/Initializable.sol\":6931:6949  _checkInitializing */\n      tag_140\n        /* \"@openzeppelin/contracts-upgradeable/proxy/utils/Initializable.sol\":6931:6951  _checkInitializing() */\n      jump\t// in\n    tag_162:\n        /* \"@openzeppelin/contracts-upgradeable/access/OwnableUpgradeable.sol\":2100:2101  0 */\n      0x00\n        /* \"@openzeppelin/contracts-upgradeable/access/OwnableUpgradeable.sol\":2076:2102  initialOwner == address(0) */\n      0xffffffffffffffffffffffffffffffffffffffff\n      and\n        /* \"@openzeppelin/contracts-upgradeable/access/OwnableUpgradeable.sol\":2076:2088  initialOwner */\n      dup2\n        /* \"@openzeppelin/contracts-upgradeable/access/OwnableUpgradeable.sol\":2076:2102  initialOwner == address(0) */\n      0xffffffffffffffffffffffffffffffffffffffff\n      and\n      sub\n        /* \"@openzeppelin/contracts-upgradeable/access/OwnableUpgradeable.sol\":2072:2167  if (initialOwner == address(0)) {... */\n      tag_164\n      jumpi\n        /* \"@openzeppelin/contracts-upgradeable/access/OwnableUpgradeable.sol\":2153:2154  0 */\n      0x00\n        /* \"@openzeppelin/contracts-upgradeable/access/OwnableUpgradeable.sol\":2125:2156  OwnableInvalidOwner(address(0)) */\n      mload(0x40)\n      0x1e4fbdf700000000000000000000000000000000000000000000000000000000\n      dup2\n      mstore\n      0x04\n      add\n      tag_165\n      swap2\n      swap1\n      tag_39\n      jump\t// in\n    tag_165:\n      mload(0x40)\n      dup1\n      swap2\n      sub\n      swap1\n      revert\n        /* \"@openzeppelin/contracts-upgradeable/access/OwnableUpgradeable.sol\":2072:2167  if (initialOwner == address(0)) {... */\n    tag_164:\n        /* \"@openzeppelin/contracts-upgradeable/access/OwnableUpgradeable.sol\":2176:2208  _transferOwnership(initialOwner) */\n      tag_166\n        /* \"@openzeppelin/contracts-upgradeable/access/OwnableUpgradeable.sol\":2195:2207  initialOwner */\n      dup2\n        /* \"@openzeppelin/contracts-upgradeable/access/OwnableUpgradeable.sol\":2176:2194  _transferOwnership */\n      tag_75\n        /* \"@openzeppelin/contracts-upgradeable/access/OwnableUpgradeable.sol\":2176:2208  _transferOwnership(initialOwner) */\n      jump\t// in\n    tag_166:\n        /* \"@openzeppelin/contracts-upgradeable/access/OwnableUpgradeable.sol\":1980:2215  function __Ownable_init_unchained(address initialOwner) internal onlyInitializing {... */\n      pop\n      jump\t// out\n        /* \"@openzeppelin/contracts/utils/StorageSlot.sol\":1899:2062  function getAddressSlot(bytes32 slot) internal pure returns (AddressSlot storage r) {... */\n    tag_146:\n        /* \"@openzeppelin/contracts/utils/StorageSlot.sol\":1960:1981  AddressSlot storage r */\n      0x00\n        /* \"@openzeppelin/contracts/utils/StorageSlot.sol\":2042:2046  slot */\n      dup2\n        /* \"@openzeppelin/contracts/utils/StorageSlot.sol\":2032:2046  r.slot := slot */\n      swap1\n      pop\n        /* \"@openzeppelin/contracts/utils/StorageSlot.sol\":1899:2062  function getAddressSlot(bytes32 slot) internal pure returns (AddressSlot storage r) {... */\n      swap2\n      swap1\n      pop\n      jump\t// out\n        /* \"@openzeppelin/contracts/proxy/ERC1967/ERC1967Utils.sol\":1671:1952  function _setImplementation(address newImplementation) private {... */\n    tag_149:\n        /* \"@openzeppelin/contracts/proxy/ERC1967/ERC1967Utils.sol\":1781:1782  0 */\n      0x00\n        /* \"@openzeppelin/contracts/proxy/ERC1967/ERC1967Utils.sol\":1748:1765  newImplementation */\n      dup2\n        /* \"@openzeppelin/contracts/proxy/ERC1967/ERC1967Utils.sol\":1748:1777  newImplementation.code.length */\n      0xffffffffffffffffffffffffffffffffffffffff\n      and\n      extcodesize\n        /* \"@openzeppelin/contracts/proxy/ERC1967/ERC1967Utils.sol\":1748:1782  newImplementation.code.length == 0 */\n      sub\n        /* \"@openzeppelin/contracts/proxy/ERC1967/ERC1967Utils.sol\":1744:1863  if (newImplementation.code.length == 0) {... */\n      tag_169\n      jumpi\n        /* \"@openzeppelin/contracts/proxy/ERC1967/ERC1967Utils.sol\":1834:1851  newImplementation */\n      dup1\n        /* \"@openzeppelin/contracts/proxy/ERC1967/ERC1967Utils.sol\":1805:1852  ERC1967InvalidImplementation(newImplementation) */\n      mload(0x40)\n      0x4c9c8ce300000000000000000000000000000000000000000000000000000000\n      dup2\n      mstore\n      0x04\n      add\n      tag_170\n      swap2\n      swap1\n      tag_39\n      jump\t// in\n    tag_170:\n      mload(0x40)\n      dup1\n      swap2\n      sub\n      swap1\n      revert\n        /* \"@openzeppelin/contracts/proxy/ERC1967/ERC1967Utils.sol\":1744:1863  if (newImplementation.code.length == 0) {... */\n    tag_169:\n        /* \"@openzeppelin/contracts/proxy/ERC1967/ERC1967Utils.sol\":1928:1945  newImplementation */\n      dup1\n        /* \"@openzeppelin/contracts/proxy/ERC1967/ERC1967Utils.sol\":1872:1919  StorageSlot.getAddressSlot(IMPLEMENTATION_SLOT) */\n      tag_171\n        /* \"@openzeppelin/contracts/proxy/ERC1967/ERC1967Utils.sol\":811:877  0x360894a13ba1a3210667c828492db98dca3e2076cc3735a920a3ca505d382bbc */\n      0x360894a13ba1a3210667c828492db98dca3e2076cc3735a920a3ca505d382bbc\n        /* \"@openzeppelin/contracts/proxy/ERC1967/ERC1967Utils.sol\":1899:1918  IMPLEMENTATION_SLOT */\n      0x00\n      shl\n        /* \"@openzeppelin/contracts/proxy/ERC1967/ERC1967Utils.sol\":1872:1898  StorageSlot.getAddressSlot */\n      tag_146\n        /* \"@openzeppelin/contracts/proxy/ERC1967/ERC1967Utils.sol\":1872:1919  StorageSlot.getAddressSlot(IMPLEMENTATION_SLOT) */\n      jump\t// in\n    tag_171:\n        /* \"@openzeppelin/contracts/proxy/ERC1967/ERC1967Utils.sol\":1872:1925  StorageSlot.getAddressSlot(IMPLEMENTATION_SLOT).value */\n      0x00\n      add\n      0x00\n        /* \"@openzeppelin/contracts/proxy/ERC1967/ERC1967Utils.sol\":1872:1945  StorageSlot.getAddressSlot(IMPLEMENTATION_SLOT).value = newImplementation */\n      0x0100\n      exp\n      dup2\n      sload\n      dup2\n      0xffffffffffffffffffffffffffffffffffffffff\n      mul\n      not\n      and\n      swap1\n      dup4\n      0xffffffffffffffffffffffffffffffffffffffff\n      and\n      mul\n      or\n      swap1\n      sstore\n      pop\n        /* \"@openzeppelin/contracts/proxy/ERC1967/ERC1967Utils.sol\":1671:1952  function _setImplementation(address newImplementation) private {... */\n      pop\n      jump\t// out\n        /* \"@openzeppelin/contracts/utils/Address.sol\":3916:4169  function functionDelegateCall(address target, bytes memory data) internal returns (bytes memory) {... */\n    tag_152:\n        /* \"@openzeppelin/contracts/utils/Address.sol\":3999:4011  bytes memory */\n      0x60\n        /* \"@openzeppelin/contracts/utils/Address.sol\":4024:4036  bool success */\n      0x00\n        /* \"@openzeppelin/contracts/utils/Address.sol\":4038:4061  bytes memory returndata */\n      dup1\n        /* \"@openzeppelin/contracts/utils/Address.sol\":4065:4071  target */\n      dup5\n        /* \"@openzeppelin/contracts/utils/Address.sol\":4065:4084  target.delegatecall */\n      0xffffffffffffffffffffffffffffffffffffffff\n      and\n        /* \"@openzeppelin/contracts/utils/Address.sol\":4085:4089  data */\n      dup5\n        /* \"@openzeppelin/contracts/utils/Address.sol\":4065:4090  target.delegatecall(data) */\n      mload(0x40)\n      tag_173\n      swap2\n      swap1\n      tag_174\n      jump\t// in\n    tag_173:\n      0x00\n      mload(0x40)\n      dup1\n      dup4\n      sub\n      dup2\n      dup6\n      gas\n      delegatecall\n      swap2\n      pop\n      pop\n      returndatasize\n      dup1\n      0x00\n      dup2\n      eq\n      tag_177\n      jumpi\n      mload(0x40)\n      swap2\n      pop\n      and(add(returndatasize, 0x3f), not(0x1f))\n      dup3\n      add\n      0x40\n      mstore\n      returndatasize\n      dup3\n      mstore\n      returndatasize\n      0x00\n      0x20\n      dup5\n      add\n      returndatacopy\n      jump(tag_176)\n    tag_177:\n      0x60\n      swap2\n      pop\n    tag_176:\n      pop\n        /* \"@openzeppelin/contracts/utils/Address.sol\":4023:4090  (bool success, bytes memory returndata) = target.delegatecall(data) */\n      swap2\n      pop\n      swap2\n      pop\n        /* \"@openzeppelin/contracts/utils/Address.sol\":4107:4162  verifyCallResultFromTarget(target, success, returndata) */\n      tag_178\n        /* \"@openzeppelin/contracts/utils/Address.sol\":4134:4140  target */\n      dup6\n        /* \"@openzeppelin/contracts/utils/Address.sol\":4142:4149  success */\n      dup4\n        /* \"@openzeppelin/contracts/utils/Address.sol\":4151:4161  returndata */\n      dup4\n        /* \"@openzeppelin/contracts/utils/Address.sol\":4107:4133  verifyCallResultFromTarget */\n      tag_179\n        /* \"@openzeppelin/contracts/utils/Address.sol\":4107:4162  verifyCallResultFromTarget(target, success, returndata) */\n      jump\t// in\n    tag_178:\n        /* \"@openzeppelin/contracts/utils/Address.sol\":4100:4162  return verifyCallResultFromTarget(target, success, returndata) */\n      swap3\n      pop\n      pop\n      pop\n        /* \"@openzeppelin/contracts/utils/Address.sol\":3916:4169  function functionDelegateCall(address target, bytes memory data) internal returns (bytes memory) {... */\n      swap3\n      swap2\n      pop\n      pop\n      jump\t// out\n        /* \"@openzeppelin/contracts/proxy/ERC1967/ERC1967Utils.sol\":6113:6235  function _checkNonPayable() private {... */\n    tag_155:\n        /* \"@openzeppelin/contracts/proxy/ERC1967/ERC1967Utils.sol\":6175:6176  0 */\n      0x00\n        /* \"@openzeppelin/contracts/proxy/ERC1967/ERC1967Utils.sol\":6163:6172  msg.value */\n      callvalue\n        /* \"@openzeppelin/contracts/proxy/ERC1967/ERC1967Utils.sol\":6163:6176  msg.value > 0 */\n      gt\n        /* \"@openzeppelin/contracts/proxy/ERC1967/ERC1967Utils.sol\":6159:6229  if (msg.value > 0) {... */\n      iszero\n      tag_181\n      jumpi\n        /* \"@openzeppelin/contracts/proxy/ERC1967/ERC1967Utils.sol\":6199:6218  ERC1967NonPayable() */\n      mload(0x40)\n      0xb398979f00000000000000000000000000000000000000000000000000000000\n      dup2\n      mstore\n      0x04\n      add\n      mload(0x40)\n      dup1\n      swap2\n      sub\n      swap1\n      revert\n        /* \"@openzeppelin/contracts/proxy/ERC1967/ERC1967Utils.sol\":6159:6229  if (msg.value > 0) {... */\n    tag_181:\n        /* \"@openzeppelin/contracts/proxy/ERC1967/ERC1967Utils.sol\":6113:6235  function _checkNonPayable() private {... */\n      jump\t// out\n        /* \"@openzeppelin/contracts-upgradeable/proxy/utils/Initializable.sol\":8487:8607  function _isInitializing() internal view returns (bool) {... */\n    tag_159:\n        /* \"@openzeppelin/contracts-upgradeable/proxy/utils/Initializable.sol\":8537:8541  bool */\n      0x00\n        /* \"@openzeppelin/contracts-upgradeable/proxy/utils/Initializable.sol\":8560:8586  _getInitializableStorage() */\n      tag_183\n        /* \"@openzeppelin/contracts-upgradeable/proxy/utils/Initializable.sol\":8560:8584  _getInitializableStorage */\n      tag_87\n        /* \"@openzeppelin/contracts-upgradeable/proxy/utils/Initializable.sol\":8560:8586  _getInitializableStorage() */\n      jump\t// in\n    tag_183:\n        /* \"@openzeppelin/contracts-upgradeable/proxy/utils/Initializable.sol\":8560:8600  _getInitializableStorage()._initializing */\n      0x00\n      add\n      0x08\n      swap1\n      sload\n      swap1\n      0x0100\n      exp\n      swap1\n      div\n      0xff\n      and\n        /* \"@openzeppelin/contracts-upgradeable/proxy/utils/Initializable.sol\":8553:8600  return _getInitializableStorage()._initializing */\n      swap1\n      pop\n        /* \"@openzeppelin/contracts-upgradeable/proxy/utils/Initializable.sol\":8487:8607  function _isInitializing() internal view returns (bool) {... */\n      swap1\n      jump\t// out\n        /* \"@openzeppelin/contracts/utils/Address.sol\":4437:5019  function verifyCallResultFromTarget(... */\n    tag_179:\n        /* \"@openzeppelin/contracts/utils/Address.sol\":4581:4593  bytes memory */\n      0x60\n        /* \"@openzeppelin/contracts/utils/Address.sol\":4610:4617  success */\n      dup3\n        /* \"@openzeppelin/contracts/utils/Address.sol\":4605:5013  if (!success) {... */\n      tag_185\n      jumpi\n        /* \"@openzeppelin/contracts/utils/Address.sol\":4633:4652  _revert(returndata) */\n      tag_186\n        /* \"@openzeppelin/contracts/utils/Address.sol\":4641:4651  returndata */\n      dup3\n        /* \"@openzeppelin/contracts/utils/Address.sol\":4633:4640  _revert */\n      tag_187\n        /* \"@openzeppelin/contracts/utils/Address.sol\":4633:4652  _revert(returndata) */\n      jump\t// in\n    tag_186:\n        /* \"@openzeppelin/contracts/utils/Address.sol\":4605:5013  if (!success) {... */\n      jump(tag_188)\n    tag_185:\n        /* \"@openzeppelin/contracts/utils/Address.sol\":4878:4879  0 */\n      0x00\n        /* \"@openzeppelin/contracts/utils/Address.sol\":4857:4867  returndata */\n      dup3\n        /* \"@openzeppelin/contracts/utils/Address.sol\":4857:4874  returndata.length */\n      mload\n        /* \"@openzeppelin/contracts/utils/Address.sol\":4857:4879  returndata.length == 0 */\n      eq\n        /* \"@openzeppelin/contracts/utils/Address.sol\":4857:4906  returndata.length == 0 && target.code.length == 0 */\n      dup1\n      iszero\n      tag_189\n      jumpi\n      pop\n        /* \"@openzeppelin/contracts/utils/Address.sol\":4905:4906  0 */\n      0x00\n        /* \"@openzeppelin/contracts/utils/Address.sol\":4883:4889  target */\n      dup5\n        /* \"@openzeppelin/contracts/utils/Address.sol\":4883:4901  target.code.length */\n      0xffffffffffffffffffffffffffffffffffffffff\n      and\n      extcodesize\n        /* \"@openzeppelin/contracts/utils/Address.sol\":4883:4906  target.code.length == 0 */\n      eq\n        /* \"@openzeppelin/contracts/utils/Address.sol\":4857:4906  returndata.length == 0 && target.code.length == 0 */\n    tag_189:\n        /* \"@openzeppelin/contracts/utils/Address.sol\":4853:4972  if (returndata.length == 0 && target.code.length == 0) {... */\n      iszero\n      tag_190\n      jumpi\n        /* \"@openzeppelin/contracts/utils/Address.sol\":4950:4956  target */\n      dup4\n        /* \"@openzeppelin/contracts/utils/Address.sol\":4933:4957  AddressEmptyCode(target) */\n      mload(0x40)\n      0x9996b31500000000000000000000000000000000000000000000000000000000\n      dup2\n      mstore\n      0x04\n      add\n      tag_191\n      swap2\n      swap1\n      tag_39\n      jump\t// in\n    tag_191:\n      mload(0x40)\n      dup1\n      swap2\n      sub\n      swap1\n      revert\n        /* \"@openzeppelin/contracts/utils/Address.sol\":4853:4972  if (returndata.length == 0 && target.code.length == 0) {... */\n    tag_190:\n        /* \"@openzeppelin/contracts/utils/Address.sol\":4992:5002  returndata */\n      dup2\n        /* \"@openzeppelin/contracts/utils/Address.sol\":4985:5002  return returndata */\n      swap1\n      pop\n      jump(tag_184)\n        /* \"@openzeppelin/contracts/utils/Address.sol\":4605:5013  if (!success) {... */\n    tag_188:\n        /* \"@openzeppelin/contracts/utils/Address.sol\":4437:5019  function verifyCallResultFromTarget(... */\n    tag_184:\n      swap4\n      swap3\n      pop\n      pop\n      pop\n      jump\t// out\n        /* \"@openzeppelin/contracts/utils/Address.sol\":5559:6046  function _revert(bytes memory returndata) private pure {... */\n    tag_187:\n        /* \"@openzeppelin/contracts/utils/Address.sol\":5710:5711  0 */\n      0x00\n        /* \"@openzeppelin/contracts/utils/Address.sol\":5690:5700  returndata */\n      dup2\n        /* \"@openzeppelin/contracts/utils/Address.sol\":5690:5707  returndata.length */\n      mload\n        /* \"@openzeppelin/contracts/utils/Address.sol\":5690:5711  returndata.length > 0 */\n      gt\n        /* \"@openzeppelin/contracts/utils/Address.sol\":5686:6040  if (returndata.length > 0) {... */\n      iszero\n      tag_193\n      jumpi\n        /* \"@openzeppelin/contracts/utils/Address.sol\":5887:5897  returndata */\n      dup1\n        /* \"@openzeppelin/contracts/utils/Address.sol\":5881:5898  mload(returndata) */\n      mload\n        /* \"@openzeppelin/contracts/utils/Address.sol\":5943:5958  returndata_size */\n      dup1\n        /* \"@openzeppelin/contracts/utils/Address.sol\":5930:5940  returndata */\n      dup3\n        /* \"@openzeppelin/contracts/utils/Address.sol\":5926:5928  32 */\n      0x20\n        /* \"@openzeppelin/contracts/utils/Address.sol\":5922:5941  add(32, returndata) */\n      add\n        /* \"@openzeppelin/contracts/utils/Address.sol\":5915:5959  revert(add(32, returndata), returndata_size) */\n      revert\n        /* \"@openzeppelin/contracts/utils/Address.sol\":5686:6040  if (returndata.length > 0) {... */\n    tag_193:\n        /* \"@openzeppelin/contracts/utils/Address.sol\":6010:6029  Errors.FailedCall() */\n      mload(0x40)\n      0xd6bda27500000000000000000000000000000000000000000000000000000000\n      dup2\n      mstore\n      0x04\n      add\n      mload(0x40)\n      dup1\n      swap2\n      sub\n      swap1\n      revert\n        /* \"#utility.yul\":7:84   */\n    tag_195:\n        /* \"#utility.yul\":44:51   */\n      0x00\n        /* \"#utility.yul\":73:78   */\n      dup2\n        /* \"#utility.yul\":62:78   */\n      swap1\n      pop\n        /* \"#utility.yul\":7:84   */\n      swap2\n      swap1\n      pop\n      jump\t// out\n        /* \"#utility.yul\":90:208   */\n    tag_196:\n        /* \"#utility.yul\":177:201   */\n      tag_242\n        /* \"#utility.yul\":195:200   */\n      dup2\n        /* \"#utility.yul\":177:201   */\n      tag_195\n      jump\t// in\n    tag_242:\n        /* \"#utility.yul\":172:175   */\n      dup3\n        /* \"#utility.yul\":165:202   */\n      mstore\n        /* \"#utility.yul\":90:208   */\n      pop\n      pop\n      jump\t// out\n        /* \"#utility.yul\":214:436   */\n    tag_17:\n        /* \"#utility.yul\":307:311   */\n      0x00\n        /* \"#utility.yul\":345:347   */\n      0x20\n        /* \"#utility.yul\":334:343   */\n      dup3\n        /* \"#utility.yul\":330:348   */\n      add\n        /* \"#utility.yul\":322:348   */\n      swap1\n      pop\n        /* \"#utility.yul\":358:429   */\n      tag_244\n        /* \"#utility.yul\":426:427   */\n      0x00\n        /* \"#utility.yul\":415:424   */\n      dup4\n        /* \"#utility.yul\":411:428   */\n      add\n        /* \"#utility.yul\":402:408   */\n      dup5\n        /* \"#utility.yul\":358:429   */\n      tag_196\n      jump\t// in\n    tag_244:\n        /* \"#utility.yul\":214:436   */\n      swap3\n      swap2\n      pop\n      pop\n      jump\t// out\n        /* \"#utility.yul\":442:517   */\n    tag_197:\n        /* \"#utility.yul\":475:481   */\n      0x00\n        /* \"#utility.yul\":508:510   */\n      0x40\n        /* \"#utility.yul\":502:511   */\n      mload\n        /* \"#utility.yul\":492:511   */\n      swap1\n      pop\n        /* \"#utility.yul\":442:517   */\n      swap1\n      jump\t// out\n        /* \"#utility.yul\":523:640   */\n    tag_198:\n        /* \"#utility.yul\":632:633   */\n      0x00\n        /* \"#utility.yul\":629:630   */\n      dup1\n        /* \"#utility.yul\":622:634   */\n      revert\n        /* \"#utility.yul\":646:763   */\n    tag_199:\n        /* \"#utility.yul\":755:756   */\n      0x00\n        /* \"#utility.yul\":752:753   */\n      dup1\n        /* \"#utility.yul\":745:757   */\n      revert\n        /* \"#utility.yul\":769:895   */\n    tag_200:\n        /* \"#utility.yul\":806:813   */\n      0x00\n        /* \"#utility.yul\":846:888   */\n      0xffffffffffffffffffffffffffffffffffffffff\n        /* \"#utility.yul\":839:844   */\n      dup3\n        /* \"#utility.yul\":835:889   */\n      and\n        /* \"#utility.yul\":824:889   */\n      swap1\n      pop\n        /* \"#utility.yul\":769:895   */\n      swap2\n      swap1\n      pop\n      jump\t// out\n        /* \"#utility.yul\":901:997   */\n    tag_201:\n        /* \"#utility.yul\":938:945   */\n      0x00\n        /* \"#utility.yul\":967:991   */\n      tag_250\n        /* \"#utility.yul\":985:990   */\n      dup3\n        /* \"#utility.yul\":967:991   */\n      tag_200\n      jump\t// in\n    tag_250:\n        /* \"#utility.yul\":956:991   */\n      swap1\n      pop\n        /* \"#utility.yul\":901:997   */\n      swap2\n      swap1\n      pop\n      jump\t// out\n        /* \"#utility.yul\":1003:1125   */\n    tag_202:\n        /* \"#utility.yul\":1076:1100   */\n      tag_252\n        /* \"#utility.yul\":1094:1099   */\n      dup2\n        /* \"#utility.yul\":1076:1100   */\n      tag_201\n      jump\t// in\n    tag_252:\n        /* \"#utility.yul\":1069:1074   */\n      dup2\n        /* \"#utility.yul\":1066:1101   */\n      eq\n        /* \"#utility.yul\":1056:1119   */\n      tag_253\n      jumpi\n        /* \"#utility.yul\":1115:1116   */\n      0x00\n        /* \"#utility.yul\":1112:1113   */\n      dup1\n        /* \"#utility.yul\":1105:1117   */\n      revert\n        /* \"#utility.yul\":1056:1119   */\n    tag_253:\n        /* \"#utility.yul\":1003:1125   */\n      pop\n      jump\t// out\n        /* \"#utility.yul\":1131:1270   */\n    tag_203:\n        /* \"#utility.yul\":1177:1182   */\n      0x00\n        /* \"#utility.yul\":1215:1221   */\n      dup2\n        /* \"#utility.yul\":1202:1222   */\n      calldataload\n        /* \"#utility.yul\":1193:1222   */\n      swap1\n      pop\n        /* \"#utility.yul\":1231:1264   */\n      tag_255\n        /* \"#utility.yul\":1258:1263   */\n      dup2\n        /* \"#utility.yul\":1231:1264   */\n      tag_202\n      jump\t// in\n    tag_255:\n        /* \"#utility.yul\":1131:1270   */\n      swap3\n      swap2\n      pop\n      pop\n      jump\t// out\n        /* \"#utility.yul\":1276:1393   */\n    tag_204:\n        /* \"#utility.yul\":1385:1386   */\n      0x00\n        /* \"#utility.yul\":1382:1383   */\n      dup1\n        /* \"#utility.yul\":1375:1387   */\n      revert\n        /* \"#utility.yul\":1399:1516   */\n    tag_205:\n        /* \"#utility.yul\":1508:1509   */\n      0x00\n        /* \"#utility.yul\":1505:1506   */\n      dup1\n        /* \"#utility.yul\":1498:1510   */\n      revert\n        /* \"#utility.yul\":1522:1624   */\n    tag_206:\n        /* \"#utility.yul\":1563:1569   */\n      0x00\n        /* \"#utility.yul\":1614:1616   */\n      0x1f\n        /* \"#utility.yul\":1610:1617   */\n      not\n        /* \"#utility.yul\":1605:1607   */\n      0x1f\n        /* \"#utility.yul\":1598:1603   */\n      dup4\n        /* \"#utility.yul\":1594:1608   */\n      add\n        /* \"#utility.yul\":1590:1618   */\n      and\n        /* \"#utility.yul\":1580:1618   */\n      swap1\n      pop\n        /* \"#utility.yul\":1522:1624   */\n      swap2\n      swap1\n      pop\n      jump\t// out\n        /* \"#utility.yul\":1630:1810   */\n    tag_207:\n        /* \"#utility.yul\":1678:1755   */\n      0x4e487b7100000000000000000000000000000000000000000000000000000000\n        /* \"#utility.yul\":1675:1676   */\n      0x00\n        /* \"#utility.yul\":1668:1756   */\n      mstore\n        /* \"#utility.yul\":1775:1779   */\n      0x41\n        /* \"#utility.yul\":1772:1773   */\n      0x04\n        /* \"#utility.yul\":1765:1780   */\n      mstore\n        /* \"#utility.yul\":1799:1803   */\n      0x24\n        /* \"#utility.yul\":1796:1797   */\n      0x00\n        /* \"#utility.yul\":1789:1804   */\n      revert\n        /* \"#utility.yul\":1816:2097   */\n    tag_208:\n        /* \"#utility.yul\":1899:1926   */\n      tag_261\n        /* \"#utility.yul\":1921:1925   */\n      dup3\n        /* \"#utility.yul\":1899:1926   */\n      tag_206\n      jump\t// in\n    tag_261:\n        /* \"#utility.yul\":1891:1897   */\n      dup2\n        /* \"#utility.yul\":1887:1927   */\n      add\n        /* \"#utility.yul\":2029:2035   */\n      dup2\n        /* \"#utility.yul\":2017:2027   */\n      dup2\n        /* \"#utility.yul\":2014:2036   */\n      lt\n        /* \"#utility.yul\":1993:2011   */\n      0xffffffffffffffff\n        /* \"#utility.yul\":1981:1991   */\n      dup3\n        /* \"#utility.yul\":1978:2012   */\n      gt\n        /* \"#utility.yul\":1975:2037   */\n      or\n        /* \"#utility.yul\":1972:2060   */\n      iszero\n      tag_262\n      jumpi\n        /* \"#utility.yul\":2040:2058   */\n      tag_263\n      tag_207\n      jump\t// in\n    tag_263:\n        /* \"#utility.yul\":1972:2060   */\n    tag_262:\n        /* \"#utility.yul\":2080:2090   */\n      dup1\n        /* \"#utility.yul\":2076:2078   */\n      0x40\n        /* \"#utility.yul\":2069:2091   */\n      mstore\n        /* \"#utility.yul\":1859:2097   */\n      pop\n        /* \"#utility.yul\":1816:2097   */\n      pop\n      pop\n      jump\t// out\n        /* \"#utility.yul\":2103:2232   */\n    tag_209:\n        /* \"#utility.yul\":2137:2143   */\n      0x00\n        /* \"#utility.yul\":2164:2184   */\n      tag_265\n      tag_197\n      jump\t// in\n    tag_265:\n        /* \"#utility.yul\":2154:2184   */\n      swap1\n      pop\n        /* \"#utility.yul\":2193:2226   */\n      tag_266\n        /* \"#utility.yul\":2221:2225   */\n      dup3\n        /* \"#utility.yul\":2213:2219   */\n      dup3\n        /* \"#utility.yul\":2193:2226   */\n      tag_208\n      jump\t// in\n    tag_266:\n        /* \"#utility.yul\":2103:2232   */\n      swap2\n      swap1\n      pop\n      jump\t// out\n        /* \"#utility.yul\":2238:2545   */\n    tag_210:\n        /* \"#utility.yul\":2299:2303   */\n      0x00\n        /* \"#utility.yul\":2389:2407   */\n      0xffffffffffffffff\n        /* \"#utility.yul\":2381:2387   */\n      dup3\n        /* \"#utility.yul\":2378:2408   */\n      gt\n        /* \"#utility.yul\":2375:2431   */\n      iszero\n      tag_268\n      jumpi\n        /* \"#utility.yul\":2411:2429   */\n      tag_269\n      tag_207\n      jump\t// in\n    tag_269:\n        /* \"#utility.yul\":2375:2431   */\n    tag_268:\n        /* \"#utility.yul\":2449:2478   */\n      tag_270\n        /* \"#utility.yul\":2471:2477   */\n      dup3\n        /* \"#utility.yul\":2449:2478   */\n      tag_206\n      jump\t// in\n    tag_270:\n        /* \"#utility.yul\":2441:2478   */\n      swap1\n      pop\n        /* \"#utility.yul\":2533:2537   */\n      0x20\n        /* \"#utility.yul\":2527:2531   */\n      dup2\n        /* \"#utility.yul\":2523:2538   */\n      add\n        /* \"#utility.yul\":2515:2538   */\n      swap1\n      pop\n        /* \"#utility.yul\":2238:2545   */\n      swap2\n      swap1\n      pop\n      jump\t// out\n        /* \"#utility.yul\":2551:2699   */\n    tag_211:\n        /* \"#utility.yul\":2649:2655   */\n      dup3\n        /* \"#utility.yul\":2644:2647   */\n      dup2\n        /* \"#utility.yul\":2639:2642   */\n      dup4\n        /* \"#utility.yul\":2626:2656   */\n      calldatacopy\n        /* \"#utility.yul\":2690:2691   */\n      0x00\n        /* \"#utility.yul\":2681:2687   */\n      dup4\n        /* \"#utility.yul\":2676:2679   */\n      dup4\n        /* \"#utility.yul\":2672:2688   */\n      add\n        /* \"#utility.yul\":2665:2692   */\n      mstore\n        /* \"#utility.yul\":2551:2699   */\n      pop\n      pop\n      pop\n      jump\t// out\n        /* \"#utility.yul\":2705:3128   */\n    tag_212:\n        /* \"#utility.yul\":2782:2787   */\n      0x00\n        /* \"#utility.yul\":2807:2872   */\n      tag_273\n        /* \"#utility.yul\":2823:2871   */\n      tag_274\n        /* \"#utility.yul\":2864:2870   */\n      dup5\n        /* \"#utility.yul\":2823:2871   */\n      tag_210\n      jump\t// in\n    tag_274:\n        /* \"#utility.yul\":2807:2872   */\n      tag_209\n      jump\t// in\n    tag_273:\n        /* \"#utility.yul\":2798:2872   */\n      swap1\n      pop\n        /* \"#utility.yul\":2895:2901   */\n      dup3\n        /* \"#utility.yul\":2888:2893   */\n      dup2\n        /* \"#utility.yul\":2881:2902   */\n      mstore\n        /* \"#utility.yul\":2933:2937   */\n      0x20\n        /* \"#utility.yul\":2926:2931   */\n      dup2\n        /* \"#utility.yul\":2922:2938   */\n      add\n        /* \"#utility.yul\":2971:2974   */\n      dup5\n        /* \"#utility.yul\":2962:2968   */\n      dup5\n        /* \"#utility.yul\":2957:2960   */\n      dup5\n        /* \"#utility.yul\":2953:2969   */\n      add\n        /* \"#utility.yul\":2950:2975   */\n      gt\n        /* \"#utility.yul\":2947:3059   */\n      iszero\n      tag_275\n      jumpi\n        /* \"#utility.yul\":2978:3057   */\n      tag_276\n      tag_205\n      jump\t// in\n    tag_276:\n        /* \"#utility.yul\":2947:3059   */\n    tag_275:\n        /* \"#utility.yul\":3068:3122   */\n      tag_277\n        /* \"#utility.yul\":3115:3121   */\n      dup5\n        /* \"#utility.yul\":3110:3113   */\n      dup3\n        /* \"#utility.yul\":3105:3108   */\n      dup6\n        /* \"#utility.yul\":3068:3122   */\n      tag_211\n      jump\t// in\n    tag_277:\n        /* \"#utility.yul\":2788:3128   */\n      pop\n        /* \"#utility.yul\":2705:3128   */\n      swap4\n      swap3\n      pop\n      pop\n      pop\n      jump\t// out\n        /* \"#utility.yul\":3147:3485   */\n    tag_213:\n        /* \"#utility.yul\":3202:3207   */\n      0x00\n        /* \"#utility.yul\":3251:3254   */\n      dup3\n        /* \"#utility.yul\":3244:3248   */\n      0x1f\n        /* \"#utility.yul\":3236:3242   */\n      dup4\n        /* \"#utility.yul\":3232:3249   */\n      add\n        /* \"#utility.yul\":3228:3255   */\n      slt\n        /* \"#utility.yul\":3218:3340   */\n      tag_279\n      jumpi\n        /* \"#utility.yul\":3259:3338   */\n      tag_280\n      tag_204\n      jump\t// in\n    tag_280:\n        /* \"#utility.yul\":3218:3340   */\n    tag_279:\n        /* \"#utility.yul\":3376:3382   */\n      dup2\n        /* \"#utility.yul\":3363:3383   */\n      calldataload\n        /* \"#utility.yul\":3401:3479   */\n      tag_281\n        /* \"#utility.yul\":3475:3478   */\n      dup5\n        /* \"#utility.yul\":3467:3473   */\n      dup3\n        /* \"#utility.yul\":3460:3464   */\n      0x20\n        /* \"#utility.yul\":3452:3458   */\n      dup7\n        /* \"#utility.yul\":3448:3465   */\n      add\n        /* \"#utility.yul\":3401:3479   */\n      tag_212\n      jump\t// in\n    tag_281:\n        /* \"#utility.yul\":3392:3479   */\n      swap2\n      pop\n        /* \"#utility.yul\":3208:3485   */\n      pop\n        /* \"#utility.yul\":3147:3485   */\n      swap3\n      swap2\n      pop\n      pop\n      jump\t// out\n        /* \"#utility.yul\":3491:4143   */\n    tag_20:\n        /* \"#utility.yul\":3568:3574   */\n      0x00\n        /* \"#utility.yul\":3576:3582   */\n      dup1\n        /* \"#utility.yul\":3625:3627   */\n      0x40\n        /* \"#utility.yul\":3613:3622   */\n      dup4\n        /* \"#utility.yul\":3604:3611   */\n      dup6\n        /* \"#utility.yul\":3600:3623   */\n      sub\n        /* \"#utility.yul\":3596:3628   */\n      slt\n        /* \"#utility.yul\":3593:3712   */\n      iszero\n      tag_283\n      jumpi\n        /* \"#utility.yul\":3631:3710   */\n      tag_284\n      tag_198\n      jump\t// in\n    tag_284:\n        /* \"#utility.yul\":3593:3712   */\n    tag_283:\n        /* \"#utility.yul\":3751:3752   */\n      0x00\n        /* \"#utility.yul\":3776:3829   */\n      tag_285\n        /* \"#utility.yul\":3821:3828   */\n      dup6\n        /* \"#utility.yul\":3812:3818   */\n      dup3\n        /* \"#utility.yul\":3801:3810   */\n      dup7\n        /* \"#utility.yul\":3797:3819   */\n      add\n        /* \"#utility.yul\":3776:3829   */\n      tag_203\n      jump\t// in\n    tag_285:\n        /* \"#utility.yul\":3766:3829   */\n      swap3\n      pop\n        /* \"#utility.yul\":3722:3839   */\n      pop\n        /* \"#utility.yul\":3906:3908   */\n      0x20\n        /* \"#utility.yul\":3895:3904   */\n      dup4\n        /* \"#utility.yul\":3891:3909   */\n      add\n        /* \"#utility.yul\":3878:3910   */\n      calldataload\n        /* \"#utility.yul\":3937:3955   */\n      0xffffffffffffffff\n        /* \"#utility.yul\":3929:3935   */\n      dup2\n        /* \"#utility.yul\":3926:3956   */\n      gt\n        /* \"#utility.yul\":3923:4040   */\n      iszero\n      tag_286\n      jumpi\n        /* \"#utility.yul\":3959:4038   */\n      tag_287\n      tag_199\n      jump\t// in\n    tag_287:\n        /* \"#utility.yul\":3923:4040   */\n    tag_286:\n        /* \"#utility.yul\":4064:4126   */\n      tag_288\n        /* \"#utility.yul\":4118:4125   */\n      dup6\n        /* \"#utility.yul\":4109:4115   */\n      dup3\n        /* \"#utility.yul\":4098:4107   */\n      dup7\n        /* \"#utility.yul\":4094:4116   */\n      add\n        /* \"#utility.yul\":4064:4126   */\n      tag_213\n      jump\t// in\n    tag_288:\n        /* \"#utility.yul\":4054:4126   */\n      swap2\n      pop\n        /* \"#utility.yul\":3849:4136   */\n      pop\n        /* \"#utility.yul\":3491:4143   */\n      swap3\n      pop\n      swap3\n      swap1\n      pop\n      jump\t// out\n        /* \"#utility.yul\":4149:4226   */\n    tag_214:\n        /* \"#utility.yul\":4186:4193   */\n      0x00\n        /* \"#utility.yul\":4215:4220   */\n      dup2\n        /* \"#utility.yul\":4204:4220   */\n      swap1\n      pop\n        /* \"#utility.yul\":4149:4226   */\n      swap2\n      swap1\n      pop\n      jump\t// out\n        /* \"#utility.yul\":4232:4350   */\n    tag_215:\n        /* \"#utility.yul\":4319:4343   */\n      tag_291\n        /* \"#utility.yul\":4337:4342   */\n      dup2\n        /* \"#utility.yul\":4319:4343   */\n      tag_214\n      jump\t// in\n    tag_291:\n        /* \"#utility.yul\":4314:4317   */\n      dup3\n        /* \"#utility.yul\":4307:4344   */\n      mstore\n        /* \"#utility.yul\":4232:4350   */\n      pop\n      pop\n      jump\t// out\n        /* \"#utility.yul\":4356:4578   */\n    tag_26:\n        /* \"#utility.yul\":4449:4453   */\n      0x00\n        /* \"#utility.yul\":4487:4489   */\n      0x20\n        /* \"#utility.yul\":4476:4485   */\n      dup3\n        /* \"#utility.yul\":4472:4490   */\n      add\n        /* \"#utility.yul\":4464:4490   */\n      swap1\n      pop\n        /* \"#utility.yul\":4500:4571   */\n      tag_293\n        /* \"#utility.yul\":4568:4569   */\n      0x00\n        /* \"#utility.yul\":4557:4566   */\n      dup4\n        /* \"#utility.yul\":4553:4570   */\n      add\n        /* \"#utility.yul\":4544:4550   */\n      dup5\n        /* \"#utility.yul\":4500:4571   */\n      tag_215\n      jump\t// in\n    tag_293:\n        /* \"#utility.yul\":4356:4578   */\n      swap3\n      swap2\n      pop\n      pop\n      jump\t// out\n        /* \"#utility.yul\":4584:4682   */\n    tag_216:\n        /* \"#utility.yul\":4635:4641   */\n      0x00\n        /* \"#utility.yul\":4669:4674   */\n      dup2\n        /* \"#utility.yul\":4663:4675   */\n      mload\n        /* \"#utility.yul\":4653:4675   */\n      swap1\n      pop\n        /* \"#utility.yul\":4584:4682   */\n      swap2\n      swap1\n      pop\n      jump\t// out\n        /* \"#utility.yul\":4688:4856   */\n    tag_217:\n        /* \"#utility.yul\":4771:4782   */\n      0x00\n        /* \"#utility.yul\":4805:4811   */\n      dup3\n        /* \"#utility.yul\":4800:4803   */\n      dup3\n        /* \"#utility.yul\":4793:4812   */\n      mstore\n        /* \"#utility.yul\":4845:4849   */\n      0x20\n        /* \"#utility.yul\":4840:4843   */\n      dup3\n        /* \"#utility.yul\":4836:4850   */\n      add\n        /* \"#utility.yul\":4821:4850   */\n      swap1\n      pop\n        /* \"#utility.yul\":4688:4856   */\n      swap3\n      swap2\n      pop\n      pop\n      jump\t// out\n        /* \"#utility.yul\":4862:5001   */\n    tag_218:\n        /* \"#utility.yul\":4951:4957   */\n      dup3\n        /* \"#utility.yul\":4946:4949   */\n      dup2\n        /* \"#utility.yul\":4941:4944   */\n      dup4\n        /* \"#utility.yul\":4935:4958   */\n      mcopy\n        /* \"#utility.yul\":4992:4993   */\n      0x00\n        /* \"#utility.yul\":4983:4989   */\n      dup4\n        /* \"#utility.yul\":4978:4981   */\n      dup4\n        /* \"#utility.yul\":4974:4990   */\n      add\n        /* \"#utility.yul\":4967:4994   */\n      mstore\n        /* \"#utility.yul\":4862:5001   */\n      pop\n      pop\n      pop\n      jump\t// out\n        /* \"#utility.yul\":5007:5380   */\n    tag_219:\n        /* \"#utility.yul\":5093:5096   */\n      0x00\n        /* \"#utility.yul\":5121:5159   */\n      tag_298\n        /* \"#utility.yul\":5153:5158   */\n      dup3\n        /* \"#utility.yul\":5121:5159   */\n      tag_216\n      jump\t// in\n    tag_298:\n        /* \"#utility.yul\":5175:5245   */\n      tag_299\n        /* \"#utility.yul\":5238:5244   */\n      dup2\n        /* \"#utility.yul\":5233:5236   */\n      dup6\n        /* \"#utility.yul\":5175:5245   */\n      tag_217\n      jump\t// in\n    tag_299:\n        /* \"#utility.yul\":5168:5245   */\n      swap4\n      pop\n        /* \"#utility.yul\":5254:5319   */\n      tag_300\n        /* \"#utility.yul\":5312:5318   */\n      dup2\n        /* \"#utility.yul\":5307:5310   */\n      dup6\n        /* \"#utility.yul\":5300:5304   */\n      0x20\n        /* \"#utility.yul\":5293:5298   */\n      dup7\n        /* \"#utility.yul\":5289:5305   */\n      add\n        /* \"#utility.yul\":5254:5319   */\n      tag_218\n      jump\t// in\n    tag_300:\n        /* \"#utility.yul\":5344:5373   */\n      tag_301\n        /* \"#utility.yul\":5366:5372   */\n      dup2\n        /* \"#utility.yul\":5344:5373   */\n      tag_206\n      jump\t// in\n    tag_301:\n        /* \"#utility.yul\":5339:5342   */\n      dup5\n        /* \"#utility.yul\":5335:5374   */\n      add\n        /* \"#utility.yul\":5328:5374   */\n      swap2\n      pop\n        /* \"#utility.yul\":5097:5380   */\n      pop\n        /* \"#utility.yul\":5007:5380   */\n      swap3\n      swap2\n      pop\n      pop\n      jump\t// out\n        /* \"#utility.yul\":5386:5695   */\n    tag_34:\n        /* \"#utility.yul\":5497:5501   */\n      0x00\n        /* \"#utility.yul\":5535:5537   */\n      0x20\n        /* \"#utility.yul\":5524:5533   */\n      dup3\n        /* \"#utility.yul\":5520:5538   */\n      add\n        /* \"#utility.yul\":5512:5538   */\n      swap1\n      pop\n        /* \"#utility.yul\":5584:5593   */\n      dup2\n        /* \"#utility.yul\":5578:5582   */\n      dup2\n        /* \"#utility.yul\":5574:5594   */\n      sub\n        /* \"#utility.yul\":5570:5571   */\n      0x00\n        /* \"#utility.yul\":5559:5568   */\n      dup4\n        /* \"#utility.yul\":5555:5572   */\n      add\n        /* \"#utility.yul\":5548:5595   */\n      mstore\n        /* \"#utility.yul\":5612:5688   */\n      tag_303\n        /* \"#utility.yul\":5683:5687   */\n      dup2\n        /* \"#utility.yul\":5674:5680   */\n      dup5\n        /* \"#utility.yul\":5612:5688   */\n      tag_219\n      jump\t// in\n    tag_303:\n        /* \"#utility.yul\":5604:5688   */\n      swap1\n      pop\n        /* \"#utility.yul\":5386:5695   */\n      swap3\n      swap2\n      pop\n      pop\n      jump\t// out\n        /* \"#utility.yul\":5701:5819   */\n    tag_220:\n        /* \"#utility.yul\":5788:5812   */\n      tag_305\n        /* \"#utility.yul\":5806:5811   */\n      dup2\n        /* \"#utility.yul\":5788:5812   */\n      tag_201\n      jump\t// in\n    tag_305:\n        /* \"#utility.yul\":5783:5786   */\n      dup3\n        /* \"#utility.yul\":5776:5813   */\n      mstore\n        /* \"#utility.yul\":5701:5819   */\n      pop\n      pop\n      jump\t// out\n        /* \"#utility.yul\":5825:6047   */\n    tag_39:\n        /* \"#utility.yul\":5918:5922   */\n      0x00\n        /* \"#utility.yul\":5956:5958   */\n      0x20\n        /* \"#utility.yul\":5945:5954   */\n      dup3\n        /* \"#utility.yul\":5941:5959   */\n      add\n        /* \"#utility.yul\":5933:5959   */\n      swap1\n      pop\n        /* \"#utility.yul\":5969:6040   */\n      tag_307\n        /* \"#utility.yul\":6037:6038   */\n      0x00\n        /* \"#utility.yul\":6026:6035   */\n      dup4\n        /* \"#utility.yul\":6022:6039   */\n      add\n        /* \"#utility.yul\":6013:6019   */\n      dup5\n        /* \"#utility.yul\":5969:6040   */\n      tag_220\n      jump\t// in\n    tag_307:\n        /* \"#utility.yul\":5825:6047   */\n      swap3\n      swap2\n      pop\n      pop\n      jump\t// out\n        /* \"#utility.yul\":6053:6152   */\n    tag_221:\n        /* \"#utility.yul\":6105:6111   */\n      0x00\n        /* \"#utility.yul\":6139:6144   */\n      dup2\n        /* \"#utility.yul\":6133:6145   */\n      mload\n        /* \"#utility.yul\":6123:6145   */\n      swap1\n      pop\n        /* \"#utility.yul\":6053:6152   */\n      swap2\n      swap1\n      pop\n      jump\t// out\n        /* \"#utility.yul\":6158:6327   */\n    tag_222:\n        /* \"#utility.yul\":6242:6253   */\n      0x00\n        /* \"#utility.yul\":6276:6282   */\n      dup3\n        /* \"#utility.yul\":6271:6274   */\n      dup3\n        /* \"#utility.yul\":6264:6283   */\n      mstore\n        /* \"#utility.yul\":6316:6320   */\n      0x20\n        /* \"#utility.yul\":6311:6314   */\n      dup3\n        /* \"#utility.yul\":6307:6321   */\n      add\n        /* \"#utility.yul\":6292:6321   */\n      swap1\n      pop\n        /* \"#utility.yul\":6158:6327   */\n      swap3\n      swap2\n      pop\n      pop\n      jump\t// out\n        /* \"#utility.yul\":6333:6710   */\n    tag_223:\n        /* \"#utility.yul\":6421:6424   */\n      0x00\n        /* \"#utility.yul\":6449:6488   */\n      tag_311\n        /* \"#utility.yul\":6482:6487   */\n      dup3\n        /* \"#utility.yul\":6449:6488   */\n      tag_221\n      jump\t// in\n    tag_311:\n        /* \"#utility.yul\":6504:6575   */\n      tag_312\n        /* \"#utility.yul\":6568:6574   */\n      dup2\n        /* \"#utility.yul\":6563:6566   */\n      dup6\n        /* \"#utility.yul\":6504:6575   */\n      tag_222\n      jump\t// in\n    tag_312:\n        /* \"#utility.yul\":6497:6575   */\n      swap4\n      pop\n        /* \"#utility.yul\":6584:6649   */\n      tag_313\n        /* \"#utility.yul\":6642:6648   */\n      dup2\n        /* \"#utility.yul\":6637:6640   */\n      dup6\n        /* \"#utility.yul\":6630:6634   */\n      0x20\n        /* \"#utility.yul\":6623:6628   */\n      dup7\n        /* \"#utility.yul\":6619:6635   */\n      add\n        /* \"#utility.yul\":6584:6649   */\n      tag_218\n      jump\t// in\n    tag_313:\n        /* \"#utility.yul\":6674:6703   */\n      tag_314\n        /* \"#utility.yul\":6696:6702   */\n      dup2\n        /* \"#utility.yul\":6674:6703   */\n      tag_206\n      jump\t// in\n    tag_314:\n        /* \"#utility.yul\":6669:6672   */\n      dup5\n        /* \"#utility.yul\":6665:6704   */\n      add\n        /* \"#utility.yul\":6658:6704   */\n      swap2\n      pop\n        /* \"#utility.yul\":6425:6710   */\n      pop\n        /* \"#utility.yul\":6333:6710   */\n      swap3\n      swap2\n      pop\n      pop\n      jump\t// out\n        /* \"#utility.yul\":6716:7029   */\n    tag_44:\n        /* \"#utility.yul\":6829:6833   */\n      0x00\n        /* \"#utility.yul\":6867:6869   */\n      0x20\n        /* \"#utility.yul\":6856:6865   */\n      dup3\n        /* \"#utility.yul\":6852:6870   */\n      add\n        /* \"#utility.yul\":6844:6870   */\n      swap1\n      pop\n        /* \"#utility.yul\":6916:6925   */\n      dup2\n        /* \"#utility.yul\":6910:6914   */\n      dup2\n        /* \"#utility.yul\":6906:6926   */\n      sub\n        /* \"#utility.yul\":6902:6903   */\n      0x00\n        /* \"#utility.yul\":6891:6900   */\n      dup4\n        /* \"#utility.yul\":6887:6904   */\n      add\n        /* \"#utility.yul\":6880:6927   */\n      mstore\n        /* \"#utility.yul\":6944:7022   */\n      tag_316\n        /* \"#utility.yul\":7017:7021   */\n      dup2\n        /* \"#utility.yul\":7008:7014   */\n      dup5\n        /* \"#utility.yul\":6944:7022   */\n      tag_223\n      jump\t// in\n    tag_316:\n        /* \"#utility.yul\":6936:7022   */\n      swap1\n      pop\n        /* \"#utility.yul\":6716:7029   */\n      swap3\n      swap2\n      pop\n      pop\n      jump\t// out\n        /* \"#utility.yul\":7035:7157   */\n    tag_224:\n        /* \"#utility.yul\":7108:7132   */\n      tag_318\n        /* \"#utility.yul\":7126:7131   */\n      dup2\n        /* \"#utility.yul\":7108:7132   */\n      tag_195\n      jump\t// in\n    tag_318:\n        /* \"#utility.yul\":7101:7106   */\n      dup2\n        /* \"#utility.yul\":7098:7133   */\n      eq\n        /* \"#utility.yul\":7088:7151   */\n      tag_319\n      jumpi\n        /* \"#utility.yul\":7147:7148   */\n      0x00\n        /* \"#utility.yul\":7144:7145   */\n      dup1\n        /* \"#utility.yul\":7137:7149   */\n      revert\n        /* \"#utility.yul\":7088:7151   */\n    tag_319:\n        /* \"#utility.yul\":7035:7157   */\n      pop\n      jump\t// out\n        /* \"#utility.yul\":7163:7302   */\n    tag_225:\n        /* \"#utility.yul\":7209:7214   */\n      0x00\n        /* \"#utility.yul\":7247:7253   */\n      dup2\n        /* \"#utility.yul\":7234:7254   */\n      calldataload\n        /* \"#utility.yul\":7225:7254   */\n      swap1\n      pop\n        /* \"#utility.yul\":7263:7296   */\n      tag_321\n        /* \"#utility.yul\":7290:7295   */\n      dup2\n        /* \"#utility.yul\":7263:7296   */\n      tag_224\n      jump\t// in\n    tag_321:\n        /* \"#utility.yul\":7163:7302   */\n      swap3\n      swap2\n      pop\n      pop\n      jump\t// out\n        /* \"#utility.yul\":7308:7637   */\n    tag_51:\n        /* \"#utility.yul\":7367:7373   */\n      0x00\n        /* \"#utility.yul\":7416:7418   */\n      0x20\n        /* \"#utility.yul\":7404:7413   */\n      dup3\n        /* \"#utility.yul\":7395:7402   */\n      dup5\n        /* \"#utility.yul\":7391:7414   */\n      sub\n        /* \"#utility.yul\":7387:7419   */\n      slt\n        /* \"#utility.yul\":7384:7503   */\n      iszero\n      tag_323\n      jumpi\n        /* \"#utility.yul\":7422:7501   */\n      tag_324\n      tag_198\n      jump\t// in\n    tag_324:\n        /* \"#utility.yul\":7384:7503   */\n    tag_323:\n        /* \"#utility.yul\":7542:7543   */\n      0x00\n        /* \"#utility.yul\":7567:7620   */\n      tag_325\n        /* \"#utility.yul\":7612:7619   */\n      dup5\n        /* \"#utility.yul\":7603:7609   */\n      dup3\n        /* \"#utility.yul\":7592:7601   */\n      dup6\n        /* \"#utility.yul\":7588:7610   */\n      add\n        /* \"#utility.yul\":7567:7620   */\n      tag_225\n      jump\t// in\n    tag_325:\n        /* \"#utility.yul\":7557:7620   */\n      swap2\n      pop\n        /* \"#utility.yul\":7513:7630   */\n      pop\n        /* \"#utility.yul\":7308:7637   */\n      swap3\n      swap2\n      pop\n      pop\n      jump\t// out\n        /* \"#utility.yul\":7643:7972   */\n    tag_56:\n        /* \"#utility.yul\":7702:7708   */\n      0x00\n        /* \"#utility.yul\":7751:7753   */\n      0x20\n        /* \"#utility.yul\":7739:7748   */\n      dup3\n        /* \"#utility.yul\":7730:7737   */\n      dup5\n        /* \"#utility.yul\":7726:7749   */\n      sub\n        /* \"#utility.yul\":7722:7754   */\n      slt\n        /* \"#utility.yul\":7719:7838   */\n      iszero\n      tag_327\n      jumpi\n        /* \"#utility.yul\":7757:7836   */\n      tag_328\n      tag_198\n      jump\t// in\n    tag_328:\n        /* \"#utility.yul\":7719:7838   */\n    tag_327:\n        /* \"#utility.yul\":7877:7878   */\n      0x00\n        /* \"#utility.yul\":7902:7955   */\n      tag_329\n        /* \"#utility.yul\":7947:7954   */\n      dup5\n        /* \"#utility.yul\":7938:7944   */\n      dup3\n        /* \"#utility.yul\":7927:7936   */\n      dup6\n        /* \"#utility.yul\":7923:7945   */\n      add\n        /* \"#utility.yul\":7902:7955   */\n      tag_203\n      jump\t// in\n    tag_329:\n        /* \"#utility.yul\":7892:7955   */\n      swap2\n      pop\n        /* \"#utility.yul\":7848:7965   */\n      pop\n        /* \"#utility.yul\":7643:7972   */\n      swap3\n      swap2\n      pop\n      pop\n      jump\t// out\n        /* \"#utility.yul\":7978:8063   */\n    tag_226:\n        /* \"#utility.yul\":8023:8030   */\n      0x00\n        /* \"#utility.yul\":8052:8057   */\n      dup2\n        /* \"#utility.yul\":8041:8057   */\n      swap1\n      pop\n        /* \"#utility.yul\":7978:8063   */\n      swap2\n      swap1\n      pop\n      jump\t// out\n        /* \"#utility.yul\":8069:8155   */\n    tag_227:\n        /* \"#utility.yul\":8104:8111   */\n      0x00\n        /* \"#utility.yul\":8144:8148   */\n      0xff\n        /* \"#utility.yul\":8137:8142   */\n      dup3\n        /* \"#utility.yul\":8133:8149   */\n      and\n        /* \"#utility.yul\":8122:8149   */\n      swap1\n      pop\n        /* \"#utility.yul\":8069:8155   */\n      swap2\n      swap1\n      pop\n      jump\t// out\n        /* \"#utility.yul\":8161:8221   */\n    tag_228:\n        /* \"#utility.yul\":8189:8192   */\n      0x00\n        /* \"#utility.yul\":8210:8215   */\n      dup2\n        /* \"#utility.yul\":8203:8215   */\n      swap1\n      pop\n        /* \"#utility.yul\":8161:8221   */\n      swap2\n      swap1\n      pop\n      jump\t// out\n        /* \"#utility.yul\":8227:8381   */\n    tag_229:\n        /* \"#utility.yul\":8283:8292   */\n      0x00\n        /* \"#utility.yul\":8316:8375   */\n      tag_334\n        /* \"#utility.yul\":8332:8374   */\n      tag_335\n        /* \"#utility.yul\":8341:8373   */\n      tag_336\n        /* \"#utility.yul\":8367:8372   */\n      dup5\n        /* \"#utility.yul\":8341:8373   */\n      tag_226\n      jump\t// in\n    tag_336:\n        /* \"#utility.yul\":8332:8374   */\n      tag_228\n      jump\t// in\n    tag_335:\n        /* \"#utility.yul\":8316:8375   */\n      tag_227\n      jump\t// in\n    tag_334:\n        /* \"#utility.yul\":8303:8375   */\n      swap1\n      pop\n        /* \"#utility.yul\":8227:8381   */\n      swap2\n      swap1\n      pop\n      jump\t// out\n        /* \"#utility.yul\":8387:8530   */\n    tag_230:\n        /* \"#utility.yul\":8480:8523   */\n      tag_338\n        /* \"#utility.yul\":8517:8522   */\n      dup2\n        /* \"#utility.yul\":8480:8523   */\n      tag_229\n      jump\t// in\n    tag_338:\n        /* \"#utility.yul\":8475:8478   */\n      dup3\n        /* \"#utility.yul\":8468:8524   */\n      mstore\n        /* \"#utility.yul\":8387:8530   */\n      pop\n      pop\n      jump\t// out\n        /* \"#utility.yul\":8536:8770   */\n    tag_78:\n        /* \"#utility.yul\":8635:8639   */\n      0x00\n        /* \"#utility.yul\":8673:8675   */\n      0x20\n        /* \"#utility.yul\":8662:8671   */\n      dup3\n        /* \"#utility.yul\":8658:8676   */\n      add\n        /* \"#utility.yul\":8650:8676   */\n      swap1\n      pop\n        /* \"#utility.yul\":8686:8763   */\n      tag_340\n        /* \"#utility.yul\":8760:8761   */\n      0x00\n        /* \"#utility.yul\":8749:8758   */\n      dup4\n        /* \"#utility.yul\":8745:8762   */\n      add\n        /* \"#utility.yul\":8736:8742   */\n      dup5\n        /* \"#utility.yul\":8686:8763   */\n      tag_230\n      jump\t// in\n    tag_340:\n        /* \"#utility.yul\":8536:8770   */\n      swap3\n      swap2\n      pop\n      pop\n      jump\t// out\n        /* \"#utility.yul\":8776:8956   */\n    tag_231:\n        /* \"#utility.yul\":8824:8901   */\n      0x4e487b7100000000000000000000000000000000000000000000000000000000\n        /* \"#utility.yul\":8821:8822   */\n      0x00\n        /* \"#utility.yul\":8814:8902   */\n      mstore\n        /* \"#utility.yul\":8921:8925   */\n      0x11\n        /* \"#utility.yul\":8918:8919   */\n      0x04\n        /* \"#utility.yul\":8911:8926   */\n      mstore\n        /* \"#utility.yul\":8945:8949   */\n      0x24\n        /* \"#utility.yul\":8942:8943   */\n      0x00\n        /* \"#utility.yul\":8935:8950   */\n      revert\n        /* \"#utility.yul\":8962:9153   */\n    tag_84:\n        /* \"#utility.yul\":9002:9005   */\n      0x00\n        /* \"#utility.yul\":9021:9041   */\n      tag_343\n        /* \"#utility.yul\":9039:9040   */\n      dup3\n        /* \"#utility.yul\":9021:9041   */\n      tag_195\n      jump\t// in\n    tag_343:\n        /* \"#utility.yul\":9016:9041   */\n      swap2\n      pop\n        /* \"#utility.yul\":9055:9075   */\n      tag_344\n        /* \"#utility.yul\":9073:9074   */\n      dup4\n        /* \"#utility.yul\":9055:9075   */\n      tag_195\n      jump\t// in\n    tag_344:\n        /* \"#utility.yul\":9050:9075   */\n      swap3\n      pop\n        /* \"#utility.yul\":9098:9099   */\n      dup3\n        /* \"#utility.yul\":9095:9096   */\n      dup3\n        /* \"#utility.yul\":9091:9100   */\n      add\n        /* \"#utility.yul\":9084:9100   */\n      swap1\n      pop\n        /* \"#utility.yul\":9119:9122   */\n      dup1\n        /* \"#utility.yul\":9116:9117   */\n      dup3\n        /* \"#utility.yul\":9113:9123   */\n      gt\n        /* \"#utility.yul\":9110:9146   */\n      iszero\n      tag_345\n      jumpi\n        /* \"#utility.yul\":9126:9144   */\n      tag_346\n      tag_231\n      jump\t// in\n    tag_346:\n        /* \"#utility.yul\":9110:9146   */\n    tag_345:\n        /* \"#utility.yul\":8962:9153   */\n      swap3\n      swap2\n      pop\n      pop\n      jump\t// out\n        /* \"#utility.yul\":9159:9260   */\n    tag_232:\n        /* \"#utility.yul\":9195:9202   */\n      0x00\n        /* \"#utility.yul\":9235:9253   */\n      0xffffffffffffffff\n        /* \"#utility.yul\":9228:9233   */\n      dup3\n        /* \"#utility.yul\":9224:9254   */\n      and\n        /* \"#utility.yul\":9213:9254   */\n      swap1\n      pop\n        /* \"#utility.yul\":9159:9260   */\n      swap2\n      swap1\n      pop\n      jump\t// out\n        /* \"#utility.yul\":9266:9422   */\n    tag_233:\n        /* \"#utility.yul\":9323:9332   */\n      0x00\n        /* \"#utility.yul\":9356:9416   */\n      tag_349\n        /* \"#utility.yul\":9373:9415   */\n      tag_350\n        /* \"#utility.yul\":9382:9414   */\n      tag_351\n        /* \"#utility.yul\":9408:9413   */\n      dup5\n        /* \"#utility.yul\":9382:9414   */\n      tag_226\n      jump\t// in\n    tag_351:\n        /* \"#utility.yul\":9373:9415   */\n      tag_228\n      jump\t// in\n    tag_350:\n        /* \"#utility.yul\":9356:9416   */\n      tag_232\n      jump\t// in\n    tag_349:\n        /* \"#utility.yul\":9343:9416   */\n      swap1\n      pop\n        /* \"#utility.yul\":9266:9422   */\n      swap2\n      swap1\n      pop\n      jump\t// out\n        /* \"#utility.yul\":9428:9573   */\n    tag_234:\n        /* \"#utility.yul\":9522:9566   */\n      tag_353\n        /* \"#utility.yul\":9560:9565   */\n      dup2\n        /* \"#utility.yul\":9522:9566   */\n      tag_233\n      jump\t// in\n    tag_353:\n        /* \"#utility.yul\":9517:9520   */\n      dup3\n        /* \"#utility.yul\":9510:9567   */\n      mstore\n        /* \"#utility.yul\":9428:9573   */\n      pop\n      pop\n      jump\t// out\n        /* \"#utility.yul\":9579:9815   */\n    tag_98:\n        /* \"#utility.yul\":9679:9683   */\n      0x00\n        /* \"#utility.yul\":9717:9719   */\n      0x20\n        /* \"#utility.yul\":9706:9715   */\n      dup3\n        /* \"#utility.yul\":9702:9720   */\n      add\n        /* \"#utility.yul\":9694:9720   */\n      swap1\n      pop\n        /* \"#utility.yul\":9730:9808   */\n      tag_355\n        /* \"#utility.yul\":9805:9806   */\n      0x00\n        /* \"#utility.yul\":9794:9803   */\n      dup4\n        /* \"#utility.yul\":9790:9807   */\n      add\n        /* \"#utility.yul\":9781:9787   */\n      dup5\n        /* \"#utility.yul\":9730:9808   */\n      tag_234\n      jump\t// in\n    tag_355:\n        /* \"#utility.yul\":9579:9815   */\n      swap3\n      swap2\n      pop\n      pop\n      jump\t// out\n        /* \"#utility.yul\":9821:9943   */\n    tag_235:\n        /* \"#utility.yul\":9894:9918   */\n      tag_357\n        /* \"#utility.yul\":9912:9917   */\n      dup2\n        /* \"#utility.yul\":9894:9918   */\n      tag_214\n      jump\t// in\n    tag_357:\n        /* \"#utility.yul\":9887:9892   */\n      dup2\n        /* \"#utility.yul\":9884:9919   */\n      eq\n        /* \"#utility.yul\":9874:9937   */\n      tag_358\n      jumpi\n        /* \"#utility.yul\":9933:9934   */\n      0x00\n        /* \"#utility.yul\":9930:9931   */\n      dup1\n        /* \"#utility.yul\":9923:9935   */\n      revert\n        /* \"#utility.yul\":9874:9937   */\n    tag_358:\n        /* \"#utility.yul\":9821:9943   */\n      pop\n      jump\t// out\n        /* \"#utility.yul\":9949:10092   */\n    tag_236:\n        /* \"#utility.yul\":10006:10011   */\n      0x00\n        /* \"#utility.yul\":10037:10043   */\n      dup2\n        /* \"#utility.yul\":10031:10044   */\n      mload\n        /* \"#utility.yul\":10022:10044   */\n      swap1\n      pop\n        /* \"#utility.yul\":10053:10086   */\n      tag_360\n        /* \"#utility.yul\":10080:10085   */\n      dup2\n        /* \"#utility.yul\":10053:10086   */\n      tag_235\n      jump\t// in\n    tag_360:\n        /* \"#utility.yul\":9949:10092   */\n      swap3\n      swap2\n      pop\n      pop\n      jump\t// out\n        /* \"#utility.yul\":10098:10449   */\n    tag_114:\n        /* \"#utility.yul\":10168:10174   */\n      0x00\n        /* \"#utility.yul\":10217:10219   */\n      0x20\n        /* \"#utility.yul\":10205:10214   */\n      dup3\n        /* \"#utility.yul\":10196:10203   */\n      dup5\n        /* \"#utility.yul\":10192:10215   */\n      sub\n        /* \"#utility.yul\":10188:10220   */\n      slt\n        /* \"#utility.yul\":10185:10304   */\n      iszero\n      tag_362\n      jumpi\n        /* \"#utility.yul\":10223:10302   */\n      tag_363\n      tag_198\n      jump\t// in\n    tag_363:\n        /* \"#utility.yul\":10185:10304   */\n    tag_362:\n        /* \"#utility.yul\":10343:10344   */\n      0x00\n        /* \"#utility.yul\":10368:10432   */\n      tag_364\n        /* \"#utility.yul\":10424:10431   */\n      dup5\n        /* \"#utility.yul\":10415:10421   */\n      dup3\n        /* \"#utility.yul\":10404:10413   */\n      dup6\n        /* \"#utility.yul\":10400:10422   */\n      add\n        /* \"#utility.yul\":10368:10432   */\n      tag_236\n      jump\t// in\n    tag_364:\n        /* \"#utility.yul\":10358:10432   */\n      swap2\n      pop\n        /* \"#utility.yul\":10314:10442   */\n      pop\n        /* \"#utility.yul\":10098:10449   */\n      swap3\n      swap2\n      pop\n      pop\n      jump\t// out\n        /* \"#utility.yul\":10455:10602   */\n    tag_237:\n        /* \"#utility.yul\":10556:10567   */\n      0x00\n        /* \"#utility.yul\":10593:10596   */\n      dup2\n        /* \"#utility.yul\":10578:10596   */\n      swap1\n      pop\n        /* \"#utility.yul\":10455:10602   */\n      swap3\n      swap2\n      pop\n      pop\n      jump\t// out\n        /* \"#utility.yul\":10608:10994   */\n    tag_238:\n        /* \"#utility.yul\":10712:10715   */\n      0x00\n        /* \"#utility.yul\":10740:10778   */\n      tag_367\n        /* \"#utility.yul\":10772:10777   */\n      dup3\n        /* \"#utility.yul\":10740:10778   */\n      tag_216\n      jump\t// in\n    tag_367:\n        /* \"#utility.yul\":10794:10882   */\n      tag_368\n        /* \"#utility.yul\":10875:10881   */\n      dup2\n        /* \"#utility.yul\":10870:10873   */\n      dup6\n        /* \"#utility.yul\":10794:10882   */\n      tag_237\n      jump\t// in\n    tag_368:\n        /* \"#utility.yul\":10787:10882   */\n      swap4\n      pop\n        /* \"#utility.yul\":10891:10956   */\n      tag_369\n        /* \"#utility.yul\":10949:10955   */\n      dup2\n        /* \"#utility.yul\":10944:10947   */\n      dup6\n        /* \"#utility.yul\":10937:10941   */\n      0x20\n        /* \"#utility.yul\":10930:10935   */\n      dup7\n        /* \"#utility.yul\":10926:10942   */\n      add\n        /* \"#utility.yul\":10891:10956   */\n      tag_218\n      jump\t// in\n    tag_369:\n        /* \"#utility.yul\":10981:10987   */\n      dup1\n        /* \"#utility.yul\":10976:10979   */\n      dup5\n        /* \"#utility.yul\":10972:10988   */\n      add\n        /* \"#utility.yul\":10965:10988   */\n      swap2\n      pop\n        /* \"#utility.yul\":10716:10994   */\n      pop\n        /* \"#utility.yul\":10608:10994   */\n      swap3\n      swap2\n      pop\n      pop\n      jump\t// out\n        /* \"#utility.yul\":11000:11271   */\n    tag_174:\n        /* \"#utility.yul\":11130:11133   */\n      0x00\n        /* \"#utility.yul\":11152:11245   */\n      tag_371\n        /* \"#utility.yul\":11241:11244   */\n      dup3\n        /* \"#utility.yul\":11232:11238   */\n      dup5\n        /* \"#utility.yul\":11152:11245   */\n      tag_238\n      jump\t// in\n    tag_371:\n        /* \"#utility.yul\":11145:11245   */\n      swap2\n      pop\n        /* \"#utility.yul\":11262:11265   */\n      dup2\n        /* \"#utility.yul\":11255:11265   */\n      swap1\n      pop\n        /* \"#utility.yul\":11000:11271   */\n      swap3\n      swap2\n      pop\n      pop\n      jump\t// out\n\n    auxdata: 0xa264697066735822122001363308de276b02799a1e84287e6907d2b9adce1393b329b7660c329c66b18c64736f6c634300081a0033\n}\n",
				"bytecode": {
					"linkReferences": {},
					"object": "60a06040523073ffffffffffffffffffffffffffffffffffffffff1660809073ffffffffffffffffffffffffffffffffffffffff16815250348015610042575f80fd5b506040516114ba3803806114ba833981810160405281019061006491906100a7565b805f81905550506100d2565b5f80fd5b5f819050919050565b61008681610074565b8114610090575f80fd5b50565b5f815190506100a18161007d565b92915050565b5f602082840312156100bc576100bb610070565b5b5f6100c984828501610093565b91505092915050565b6080516113c26100f85f395f8181610574015281816105c9015261077b01526113c25ff3fe608060405260043610610090575f3560e01c80638da5cb5b116100585780638da5cb5b14610144578063ad3cb1cc1461016e578063b7c738f414610198578063c43e48cf146101ae578063f2fde38b146101d657610090565b80630c55699c146100945780634f1ef286146100be57806352d1902d146100da578063715018a61461010457806375beac871461011a575b5f80fd5b34801561009f575f80fd5b506100a86101fe565b6040516100b59190610ddf565b60405180910390f35b6100d860048036038101906100d39190610f9f565b610203565b005b3480156100e5575f80fd5b506100ee610222565b6040516100fb9190611011565b60405180910390f35b34801561010f575f80fd5b50610118610253565b005b348015610125575f80fd5b5061012e610266565b60405161013b919061108a565b60405180910390f35b34801561014f575f80fd5b506101586102e4565b60405161016591906110b9565b60405180910390f35b348015610179575f80fd5b50610182610319565b60405161018f9190611124565b60405180910390f35b3480156101a3575f80fd5b506101ac610352565b005b3480156101b9575f80fd5b506101d460048036038101906101cf919061116e565b610367565b005b3480156101e1575f80fd5b506101fc60048036038101906101f79190611199565b6104ee565b005b5f5481565b61020b610572565b61021482610658565b61021e828261065b565b5050565b5f61022b610779565b7f360894a13ba1a3210667c828492db98dca3e2076cc3735a920a3ca505d382bbc5f1b905090565b61025b610800565b6102645f610887565b565b606063c43e48cf60e01b60016040516024016102829190611212565b604051602081830303815290604052907bffffffffffffffffffffffffffffffffffffffffffffffffffffffff19166020820180517bffffffffffffffffffffffffffffffffffffffffffffffffffffffff8381831617835250505050905090565b5f806102ee610958565b9050805f015f9054906101000a900473ffffffffffffffffffffffffffffffffffffffff1691505090565b6040518060400160405280600581526020017f352e302e3000000000000000000000000000000000000000000000000000000081525081565b60015f546103609190611258565b5f81905550565b5f61037061097f565b90505f815f0160089054906101000a900460ff161590505f825f015f9054906101000a900467ffffffffffffffff1690505f808267ffffffffffffffff161480156103b85750825b90505f60018367ffffffffffffffff161480156103eb57505f3073ffffffffffffffffffffffffffffffffffffffff163b145b9050811580156103f9575080155b15610430576040517ff92ee8a900000000000000000000000000000000000000000000000000000000815260040160405180910390fd5b6001855f015f6101000a81548167ffffffffffffffff021916908367ffffffffffffffff160217905550831561047d576001855f0160086101000a81548160ff0219169083151502179055505b855f8190555061048c336109a6565b83156104e6575f855f0160086101000a81548160ff0219169083151502179055507fc7f505b2f371ae2175ee4913f4499e1f2633a7b5936321eed1cdaeb6115181d260016040516104dd91906112ce565b60405180910390a15b505050505050565b6104f6610800565b5f73ffffffffffffffffffffffffffffffffffffffff168173ffffffffffffffffffffffffffffffffffffffff1603610566575f6040517f1e4fbdf700000000000000000000000000000000000000000000000000000000815260040161055d91906110b9565b60405180910390fd5b61056f81610887565b50565b7f000000000000000000000000000000000000000000000000000000000000000073ffffffffffffffffffffffffffffffffffffffff163073ffffffffffffffffffffffffffffffffffffffff16148061061f57507f000000000000000000000000000000000000000000000000000000000000000073ffffffffffffffffffffffffffffffffffffffff166106066109ba565b73ffffffffffffffffffffffffffffffffffffffff1614155b15610656576040517fe07c8dba00000000000000000000000000000000000000000000000000000000815260040160405180910390fd5b565b50565b8173ffffffffffffffffffffffffffffffffffffffff166352d1902d6040518163ffffffff1660e01b8152600401602060405180830381865afa9250505080156106c357506040513d601f19601f820116820180604052508101906106c09190611311565b60015b61070457816040517f4c9c8ce30000000000000000000000000000000000000000000000000000000081526004016106fb91906110b9565b60405180910390fd5b7f360894a13ba1a3210667c828492db98dca3e2076cc3735a920a3ca505d382bbc5f1b811461076a57806040517faa1d49a40000000000000000000000000000000000000000000000000000000081526004016107619190611011565b60405180910390fd5b6107748383610a0d565b505050565b7f000000000000000000000000000000000000000000000000000000000000000073ffffffffffffffffffffffffffffffffffffffff163073ffffffffffffffffffffffffffffffffffffffff16146107fe576040517fe07c8dba00000000000000000000000000000000000000000000000000000000815260040160405180910390fd5b565b610808610a7f565b73ffffffffffffffffffffffffffffffffffffffff166108266102e4565b73ffffffffffffffffffffffffffffffffffffffff161461088557610849610a7f565b6040517f118cdaa700000000000000000000000000000000000000000000000000000000815260040161087c91906110b9565b60405180910390fd5b565b5f610890610958565b90505f815f015f9054906101000a900473ffffffffffffffffffffffffffffffffffffffff16905082825f015f6101000a81548173ffffffffffffffffffffffffffffffffffffffff021916908373ffffffffffffffffffffffffffffffffffffffff1602179055508273ffffffffffffffffffffffffffffffffffffffff168173ffffffffffffffffffffffffffffffffffffffff167f8be0079c531659141344cd1fd0a4f28419497f9722a3daafe3b4186f6b6457e060405160405180910390a3505050565b5f7f9016d09d72d40fdae2fd8ceac6b6234c7706214fd39c1cd1e609a0528c199300905090565b5f7ff0c57e16840df040f15088dc2f81fe391c3923bec73e23a9662efc9c229c6a00905090565b6109ae610a86565b6109b781610ac6565b50565b5f6109e67f360894a13ba1a3210667c828492db98dca3e2076cc3735a920a3ca505d382bbc5f1b610b4a565b5f015f9054906101000a900473ffffffffffffffffffffffffffffffffffffffff16905090565b610a1682610b53565b8173ffffffffffffffffffffffffffffffffffffffff167fbc7cd75a20ee27fd9adebab32041f755214dbc6bffa90cc0225b39da2e5c2d3b60405160405180910390a25f81511115610a7257610a6c8282610c1c565b50610a7b565b610a7a610c9c565b5b5050565b5f33905090565b610a8e610cd8565b610ac4576040517fd7e6bcf800000000000000000000000000000000000000000000000000000000815260040160405180910390fd5b565b610ace610a86565b5f73ffffffffffffffffffffffffffffffffffffffff168173ffffffffffffffffffffffffffffffffffffffff1603610b3e575f6040517f1e4fbdf7000000000000000000000000000000000000000000000000000000008152600401610b3591906110b9565b60405180910390fd5b610b4781610887565b50565b5f819050919050565b5f8173ffffffffffffffffffffffffffffffffffffffff163b03610bae57806040517f4c9c8ce3000000000000000000000000000000000000000000000000000000008152600401610ba591906110b9565b60405180910390fd5b80610bda7f360894a13ba1a3210667c828492db98dca3e2076cc3735a920a3ca505d382bbc5f1b610b4a565b5f015f6101000a81548173ffffffffffffffffffffffffffffffffffffffff021916908373ffffffffffffffffffffffffffffffffffffffff16021790555050565b60605f808473ffffffffffffffffffffffffffffffffffffffff1684604051610c459190611376565b5f60405180830381855af49150503d805f8114610c7d576040519150601f19603f3d011682016040523d82523d5f602084013e610c82565b606091505b5091509150610c92858383610cf6565b9250505092915050565b5f341115610cd6576040517fb398979f00000000000000000000000000000000000000000000000000000000815260040160405180910390fd5b565b5f610ce161097f565b5f0160089054906101000a900460ff16905090565b606082610d0b57610d0682610d83565b610d7b565b5f8251148015610d3157505f8473ffffffffffffffffffffffffffffffffffffffff163b145b15610d7357836040517f9996b315000000000000000000000000000000000000000000000000000000008152600401610d6a91906110b9565b60405180910390fd5b819050610d7c565b5b9392505050565b5f81511115610d955780518082602001fd5b6040517fd6bda27500000000000000000000000000000000000000000000000000000000815260040160405180910390fd5b5f819050919050565b610dd981610dc7565b82525050565b5f602082019050610df25f830184610dd0565b92915050565b5f604051905090565b5f80fd5b5f80fd5b5f73ffffffffffffffffffffffffffffffffffffffff82169050919050565b5f610e3282610e09565b9050919050565b610e4281610e28565b8114610e4c575f80fd5b50565b5f81359050610e5d81610e39565b92915050565b5f80fd5b5f80fd5b5f601f19601f8301169050919050565b7f4e487b71000000000000000000000000000000000000000000000000000000005f52604160045260245ffd5b610eb182610e6b565b810181811067ffffffffffffffff82111715610ed057610ecf610e7b565b5b80604052505050565b5f610ee2610df8565b9050610eee8282610ea8565b919050565b5f67ffffffffffffffff821115610f0d57610f0c610e7b565b5b610f1682610e6b565b9050602081019050919050565b828183375f83830152505050565b5f610f43610f3e84610ef3565b610ed9565b905082815260208101848484011115610f5f57610f5e610e67565b5b610f6a848285610f23565b509392505050565b5f82601f830112610f8657610f85610e63565b5b8135610f96848260208601610f31565b91505092915050565b5f8060408385031215610fb557610fb4610e01565b5b5f610fc285828601610e4f565b925050602083013567ffffffffffffffff811115610fe357610fe2610e05565b5b610fef85828601610f72565b9150509250929050565b5f819050919050565b61100b81610ff9565b82525050565b5f6020820190506110245f830184611002565b92915050565b5f81519050919050565b5f82825260208201905092915050565b8281835e5f83830152505050565b5f61105c8261102a565b6110668185611034565b9350611076818560208601611044565b61107f81610e6b565b840191505092915050565b5f6020820190508181035f8301526110a28184611052565b905092915050565b6110b381610e28565b82525050565b5f6020820190506110cc5f8301846110aa565b92915050565b5f81519050919050565b5f82825260208201905092915050565b5f6110f6826110d2565b61110081856110dc565b9350611110818560208601611044565b61111981610e6b565b840191505092915050565b5f6020820190508181035f83015261113c81846110ec565b905092915050565b61114d81610dc7565b8114611157575f80fd5b50565b5f8135905061116881611144565b92915050565b5f6020828403121561118357611182610e01565b5b5f6111908482850161115a565b91505092915050565b5f602082840312156111ae576111ad610e01565b5b5f6111bb84828501610e4f565b91505092915050565b5f819050919050565b5f60ff82169050919050565b5f819050919050565b5f6111fc6111f76111f2846111c4565b6111d9565b6111cd565b9050919050565b61120c816111e2565b82525050565b5f6020820190506112255f830184611203565b92915050565b7f4e487b71000000000000000000000000000000000000000000000000000000005f52601160045260245ffd5b5f61126282610dc7565b915061126d83610dc7565b92508282019050808211156112855761128461122b565b5b92915050565b5f67ffffffffffffffff82169050919050565b5f6112b86112b36112ae846111c4565b6111d9565b61128b565b9050919050565b6112c88161129e565b82525050565b5f6020820190506112e15f8301846112bf565b92915050565b6112f081610ff9565b81146112fa575f80fd5b50565b5f8151905061130b816112e7565b92915050565b5f6020828403121561132657611325610e01565b5b5f611333848285016112fd565b91505092915050565b5f81905092915050565b5f6113508261102a565b61135a818561133c565b935061136a818560208601611044565b80840191505092915050565b5f6113818284611346565b91508190509291505056fea264697066735822122001363308de276b02799a1e84287e6907d2b9adce1393b329b7660c329c66b18c64736f6c634300081a0033",
					"opcodes": "PUSH1 0xA0 PUSH1 0x40 MSTORE ADDRESS PUSH20 0xFFFFFFFFFFFFFFFFFFFFFFFFFFFFFFFFFFFFFFFF AND PUSH1 0x80 SWAP1 PUSH20 0xFFFFFFFFFFFFFFFFFFFFFFFFFFFFFFFFFFFFFFFF AND DUP2 MSTORE POP CALLVALUE DUP1 ISZERO PUSH2 0x42 JUMPI PUSH0 DUP1 REVERT JUMPDEST POP PUSH1 0x40 MLOAD PUSH2 0x14BA CODESIZE SUB DUP1 PUSH2 0x14BA DUP4 CODECOPY DUP2 DUP2 ADD PUSH1 0x40 MSTORE DUP2 ADD SWAP1 PUSH2 0x64 SWAP2 SWAP1 PUSH2 0xA7 JUMP JUMPDEST DUP1 PUSH0 DUP2 SWAP1 SSTORE POP POP PUSH2 0xD2 JUMP JUMPDEST PUSH0 DUP1 REVERT JUMPDEST PUSH0 DUP2 SWAP1 POP SWAP2 SWAP1 POP JUMP JUMPDEST PUSH2 0x86 DUP2 PUSH2 0x74 JUMP JUMPDEST DUP2 EQ PUSH2 0x90 JUMPI PUSH0 DUP1 REVERT JUMPDEST POP JUMP JUMPDEST PUSH0 DUP2 MLOAD SWAP1 POP PUSH2 0xA1 DUP2 PUSH2 0x7D JUMP JUMPDEST SWAP3 SWAP2 POP POP JUMP JUMPDEST PUSH0 PUSH1 0x20 DUP3 DUP5 SUB SLT ISZERO PUSH2 0xBC JUMPI PUSH2 0xBB PUSH2 0x70 JUMP JUMPDEST JUMPDEST PUSH0 PUSH2 0xC9 DUP5 DUP3 DUP6 ADD PUSH2 0x93 JUMP JUMPDEST SWAP2 POP POP SWAP3 SWAP2 POP POP JUMP JUMPDEST PUSH1 0x80 MLOAD PUSH2 0x13C2 PUSH2 0xF8 PUSH0 CODECOPY PUSH0 DUP2 DUP2 PUSH2 0x574 ADD MSTORE DUP2 DUP2 PUSH2 0x5C9 ADD MSTORE PUSH2 0x77B ADD MSTORE PUSH2 0x13C2 PUSH0 RETURN INVALID PUSH1 0x80 PUSH1 0x40 MSTORE PUSH1 0x4 CALLDATASIZE LT PUSH2 0x90 JUMPI PUSH0 CALLDATALOAD PUSH1 0xE0 SHR DUP1 PUSH4 0x8DA5CB5B GT PUSH2 0x58 JUMPI DUP1 PUSH4 0x8DA5CB5B EQ PUSH2 0x144 JUMPI DUP1 PUSH4 0xAD3CB1CC EQ PUSH2 0x16E JUMPI DUP1 PUSH4 0xB7C738F4 EQ PUSH2 0x198 JUMPI DUP1 PUSH4 0xC43E48CF EQ PUSH2 0x1AE JUMPI DUP1 PUSH4 0xF2FDE38B EQ PUSH2 0x1D6 JUMPI PUSH2 0x90 JUMP JUMPDEST DUP1 PUSH4 0xC55699C EQ PUSH2 0x94 JUMPI DUP1 PUSH4 0x4F1EF286 EQ PUSH2 0xBE JUMPI DUP1 PUSH4 0x52D1902D EQ PUSH2 0xDA JUMPI DUP1 PUSH4 0x715018A6 EQ PUSH2 0x104 JUMPI DUP1 PUSH4 0x75BEAC87 EQ PUSH2 0x11A JUMPI JUMPDEST PUSH0 DUP1 REVERT JUMPDEST CALLVALUE DUP1 ISZERO PUSH2 0x9F JUMPI PUSH0 DUP1 REVERT JUMPDEST POP PUSH2 0xA8 PUSH2 0x1FE JUMP JUMPDEST PUSH1 0x40 MLOAD PUSH2 0xB5 SWAP2 SWAP1 PUSH2 0xDDF JUMP JUMPDEST PUSH1 0x40 MLOAD DUP1 SWAP2 SUB SWAP1 RETURN JUMPDEST PUSH2 0xD8 PUSH1 0x4 DUP1 CALLDATASIZE SUB DUP2 ADD SWAP1 PUSH2 0xD3 SWAP2 SWAP1 PUSH2 0xF9F JUMP JUMPDEST PUSH2 0x203 JUMP JUMPDEST STOP JUMPDEST CALLVALUE DUP1 ISZERO PUSH2 0xE5 JUMPI PUSH0 DUP1 REVERT JUMPDEST POP PUSH2 0xEE PUSH2 0x222 JUMP JUMPDEST PUSH1 0x40 MLOAD PUSH2 0xFB SWAP2 SWAP1 PUSH2 0x1011 JUMP JUMPDEST PUSH1 0x40 MLOAD DUP1 SWAP2 SUB SWAP1 RETURN JUMPDEST CALLVALUE DUP1 ISZERO PUSH2 0x10F JUMPI PUSH0 DUP1 REVERT JUMPDEST POP PUSH2 0x118 PUSH2 0x253 JUMP JUMPDEST STOP JUMPDEST CALLVALUE DUP1 ISZERO PUSH2 0x125 JUMPI PUSH0 DUP1 REVERT JUMPDEST POP PUSH2 0x12E PUSH2 0x266 JUMP JUMPDEST PUSH1 0x40 MLOAD PUSH2 0x13B SWAP2 SWAP1 PUSH2 0x108A JUMP JUMPDEST PUSH1 0x40 MLOAD DUP1 SWAP2 SUB SWAP1 RETURN JUMPDEST CALLVALUE DUP1 ISZERO PUSH2 0x14F JUMPI PUSH0 DUP1 REVERT JUMPDEST POP PUSH2 0x158 PUSH2 0x2E4 JUMP JUMPDEST PUSH1 0x40 MLOAD PUSH2 0x165 SWAP2 SWAP1 PUSH2 0x10B9 JUMP JUMPDEST PUSH1 0x40 MLOAD DUP1 SWAP2 SUB SWAP1 RETURN JUMPDEST CALLVALUE DUP1 ISZERO PUSH2 0x179 JUMPI PUSH0 DUP1 REVERT JUMPDEST POP PUSH2 0x182 PUSH2 0x319 JUMP JUMPDEST PUSH1 0x40 MLOAD PUSH2 0x18F SWAP2 SWAP1 PUSH2 0x1124 JUMP JUMPDEST PUSH1 0x40 MLOAD DUP1 SWAP2 SUB SWAP1 RETURN JUMPDEST CALLVALUE DUP1 ISZERO PUSH2 0x1A3 JUMPI PUSH0 DUP1 REVERT JUMPDEST POP PUSH2 0x1AC PUSH2 0x352 JUMP JUMPDEST STOP JUMPDEST CALLVALUE DUP1 ISZERO PUSH2 0x1B9 JUMPI PUSH0 DUP1 REVERT JUMPDEST POP PUSH2 0x1D4 PUSH1 0x4 DUP1 CALLDATASIZE SUB DUP2 ADD SWAP1 PUSH2 0x1CF SWAP2 SWAP1 PUSH2 0x116E JUMP JUMPDEST PUSH2 0x367 JUMP JUMPDEST STOP JUMPDEST CALLVALUE DUP1 ISZERO PUSH2 0x1E1 JUMPI PUSH0 DUP1 REVERT JUMPDEST POP PUSH2 0x1FC PUSH1 0x4 DUP1 CALLDATASIZE SUB DUP2 ADD SWAP1 PUSH2 0x1F7 SWAP2 SWAP1 PUSH2 0x1199 JUMP JUMPDEST PUSH2 0x4EE JUMP JUMPDEST STOP JUMPDEST PUSH0 SLOAD DUP2 JUMP JUMPDEST PUSH2 0x20B PUSH2 0x572 JUMP JUMPDEST PUSH2 0x214 DUP3 PUSH2 0x658 JUMP JUMPDEST PUSH2 0x21E DUP3 DUP3 PUSH2 0x65B JUMP JUMPDEST POP POP JUMP JUMPDEST PUSH0 PUSH2 0x22B PUSH2 0x779 JUMP JUMPDEST PUSH32 0x360894A13BA1A3210667C828492DB98DCA3E2076CC3735A920A3CA505D382BBC PUSH0 SHL SWAP1 POP SWAP1 JUMP JUMPDEST PUSH2 0x25B PUSH2 0x800 JUMP JUMPDEST PUSH2 0x264 PUSH0 PUSH2 0x887 JUMP JUMPDEST JUMP JUMPDEST PUSH1 0x60 PUSH4 0xC43E48CF PUSH1 0xE0 SHL PUSH1 0x1 PUSH1 0x40 MLOAD PUSH1 0x24 ADD PUSH2 0x282 SWAP2 SWAP1 PUSH2 0x1212 JUMP JUMPDEST PUSH1 0x40 MLOAD PUSH1 0x20 DUP2 DUP4 SUB SUB DUP2 MSTORE SWAP1 PUSH1 0x40 MSTORE SWAP1 PUSH28 0xFFFFFFFFFFFFFFFFFFFFFFFFFFFFFFFFFFFFFFFFFFFFFFFFFFFFFFFF NOT AND PUSH1 0x20 DUP3 ADD DUP1 MLOAD PUSH28 0xFFFFFFFFFFFFFFFFFFFFFFFFFFFFFFFFFFFFFFFFFFFFFFFFFFFFFFFF DUP4 DUP2 DUP4 AND OR DUP4 MSTORE POP POP POP POP SWAP1 POP SWAP1 JUMP JUMPDEST PUSH0 DUP1 PUSH2 0x2EE PUSH2 0x958 JUMP JUMPDEST SWAP1 POP DUP1 PUSH0 ADD PUSH0 SWAP1 SLOAD SWAP1 PUSH2 0x100 EXP SWAP1 DIV PUSH20 0xFFFFFFFFFFFFFFFFFFFFFFFFFFFFFFFFFFFFFFFF AND SWAP2 POP POP SWAP1 JUMP JUMPDEST PUSH1 0x40 MLOAD DUP1 PUSH1 0x40 ADD PUSH1 0x40 MSTORE DUP1 PUSH1 0x5 DUP2 MSTORE PUSH1 0x20 ADD PUSH32 0x352E302E30000000000000000000000000000000000000000000000000000000 DUP2 MSTORE POP DUP2 JUMP JUMPDEST PUSH1 0x1 PUSH0 SLOAD PUSH2 0x360 SWAP2 SWAP1 PUSH2 0x1258 JUMP JUMPDEST PUSH0 DUP2 SWAP1 SSTORE POP JUMP JUMPDEST PUSH0 PUSH2 0x370 PUSH2 0x97F JUMP JUMPDEST SWAP1 POP PUSH0 DUP2 PUSH0 ADD PUSH1 0x8 SWAP1 SLOAD SWAP1 PUSH2 0x100 EXP SWAP1 DIV PUSH1 0xFF AND ISZERO SWAP1 POP PUSH0 DUP3 PUSH0 ADD PUSH0 SWAP1 SLOAD SWAP1 PUSH2 0x100 EXP SWAP1 DIV PUSH8 0xFFFFFFFFFFFFFFFF AND SWAP1 POP PUSH0 DUP1 DUP3 PUSH8 0xFFFFFFFFFFFFFFFF AND EQ DUP1 ISZERO PUSH2 0x3B8 JUMPI POP DUP3 JUMPDEST SWAP1 POP PUSH0 PUSH1 0x1 DUP4 PUSH8 0xFFFFFFFFFFFFFFFF AND EQ DUP1 ISZERO PUSH2 0x3EB JUMPI POP PUSH0 ADDRESS PUSH20 0xFFFFFFFFFFFFFFFFFFFFFFFFFFFFFFFFFFFFFFFF AND EXTCODESIZE EQ JUMPDEST SWAP1 POP DUP2 ISZERO DUP1 ISZERO PUSH2 0x3F9 JUMPI POP DUP1 ISZERO JUMPDEST ISZERO PUSH2 0x430 JUMPI PUSH1 0x40 MLOAD PUSH32 0xF92EE8A900000000000000000000000000000000000000000000000000000000 DUP2 MSTORE PUSH1 0x4 ADD PUSH1 0x40 MLOAD DUP1 SWAP2 SUB SWAP1 REVERT JUMPDEST PUSH1 0x1 DUP6 PUSH0 ADD PUSH0 PUSH2 0x100 EXP DUP2 SLOAD DUP2 PUSH8 0xFFFFFFFFFFFFFFFF MUL NOT AND SWAP1 DUP4 PUSH8 0xFFFFFFFFFFFFFFFF AND MUL OR SWAP1 SSTORE POP DUP4 ISZERO PUSH2 0x47D JUMPI PUSH1 0x1 DUP6 PUSH0 ADD PUSH1 0x8 PUSH2 0x100 EXP DUP2 SLOAD DUP2 PUSH1 0xFF MUL NOT AND SWAP1 DUP4 ISZERO ISZERO MUL OR SWAP1 SSTORE POP JUMPDEST DUP6 PUSH0 DUP2 SWAP1 SSTORE POP PUSH2 0x48C CALLER PUSH2 0x9A6 JUMP JUMPDEST DUP4 ISZERO PUSH2 0x4E6 JUMPI PUSH0 DUP6 PUSH0 ADD PUSH1 0x8 PUSH2 0x100 EXP DUP2 SLOAD DUP2 PUSH1 0xFF MUL NOT AND SWAP1 DUP4 ISZERO ISZERO MUL OR SWAP1 SSTORE POP PUSH32 0xC7F505B2F371AE2175EE4913F4499E1F2633A7B5936321EED1CDAEB6115181D2 PUSH1 0x1 PUSH1 0x40 MLOAD PUSH2 0x4DD SWAP2 SWAP1 PUSH2 0x12CE JUMP JUMPDEST PUSH1 0x40 MLOAD DUP1 SWAP2 SUB SWAP1 LOG1 JUMPDEST POP POP POP POP POP POP JUMP JUMPDEST PUSH2 0x4F6 PUSH2 0x800 JUMP JUMPDEST PUSH0 PUSH20 0xFFFFFFFFFFFFFFFFFFFFFFFFFFFFFFFFFFFFFFFF AND DUP2 PUSH20 0xFFFFFFFFFFFFFFFFFFFFFFFFFFFFFFFFFFFFFFFF AND SUB PUSH2 0x566 JUMPI PUSH0 PUSH1 0x40 MLOAD PUSH32 0x1E4FBDF700000000000000000000000000000000000000000000000000000000 DUP2 MSTORE PUSH1 0x4 ADD PUSH2 0x55D SWAP2 SWAP1 PUSH2 0x10B9 JUMP JUMPDEST PUSH1 0x40 MLOAD DUP1 SWAP2 SUB SWAP1 REVERT JUMPDEST PUSH2 0x56F DUP2 PUSH2 0x887 JUMP JUMPDEST POP JUMP JUMPDEST PUSH32 0x0 PUSH20 0xFFFFFFFFFFFFFFFFFFFFFFFFFFFFFFFFFFFFFFFF AND ADDRESS PUSH20 0xFFFFFFFFFFFFFFFFFFFFFFFFFFFFFFFFFFFFFFFF AND EQ DUP1 PUSH2 0x61F JUMPI POP PUSH32 0x0 PUSH20 0xFFFFFFFFFFFFFFFFFFFFFFFFFFFFFFFFFFFFFFFF AND PUSH2 0x606 PUSH2 0x9BA JUMP JUMPDEST PUSH20 0xFFFFFFFFFFFFFFFFFFFFFFFFFFFFFFFFFFFFFFFF AND EQ ISZERO JUMPDEST ISZERO PUSH2 0x656 JUMPI PUSH1 0x40 MLOAD PUSH32 0xE07C8DBA00000000000000000000000000000000000000000000000000000000 DUP2 MSTORE PUSH1 0x4 ADD PUSH1 0x40 MLOAD DUP1 SWAP2 SUB SWAP1 REVERT JUMPDEST JUMP JUMPDEST POP JUMP JUMPDEST DUP2 PUSH20 0xFFFFFFFFFFFFFFFFFFFFFFFFFFFFFFFFFFFFFFFF AND PUSH4 0x52D1902D PUSH1 0x40 MLOAD DUP2 PUSH4 0xFFFFFFFF AND PUSH1 0xE0 SHL DUP2 MSTORE PUSH1 0x4 ADD PUSH1 0x20 PUSH1 0x40 MLOAD DUP1 DUP4 SUB DUP2 DUP7 GAS STATICCALL SWAP3 POP POP POP DUP1 ISZERO PUSH2 0x6C3 JUMPI POP PUSH1 0x40 MLOAD RETURNDATASIZE PUSH1 0x1F NOT PUSH1 0x1F DUP3 ADD AND DUP3 ADD DUP1 PUSH1 0x40 MSTORE POP DUP2 ADD SWAP1 PUSH2 0x6C0 SWAP2 SWAP1 PUSH2 0x1311 JUMP JUMPDEST PUSH1 0x1 JUMPDEST PUSH2 0x704 JUMPI DUP2 PUSH1 0x40 MLOAD PUSH32 0x4C9C8CE300000000000000000000000000000000000000000000000000000000 DUP2 MSTORE PUSH1 0x4 ADD PUSH2 0x6FB SWAP2 SWAP1 PUSH2 0x10B9 JUMP JUMPDEST PUSH1 0x40 MLOAD DUP1 SWAP2 SUB SWAP1 REVERT JUMPDEST PUSH32 0x360894A13BA1A3210667C828492DB98DCA3E2076CC3735A920A3CA505D382BBC PUSH0 SHL DUP2 EQ PUSH2 0x76A JUMPI DUP1 PUSH1 0x40 MLOAD PUSH32 0xAA1D49A400000000000000000000000000000000000000000000000000000000 DUP2 MSTORE PUSH1 0x4 ADD PUSH2 0x761 SWAP2 SWAP1 PUSH2 0x1011 JUMP JUMPDEST PUSH1 0x40 MLOAD DUP1 SWAP2 SUB SWAP1 REVERT JUMPDEST PUSH2 0x774 DUP4 DUP4 PUSH2 0xA0D JUMP JUMPDEST POP POP POP JUMP JUMPDEST PUSH32 0x0 PUSH20 0xFFFFFFFFFFFFFFFFFFFFFFFFFFFFFFFFFFFFFFFF AND ADDRESS PUSH20 0xFFFFFFFFFFFFFFFFFFFFFFFFFFFFFFFFFFFFFFFF AND EQ PUSH2 0x7FE JUMPI PUSH1 0x40 MLOAD PUSH32 0xE07C8DBA00000000000000000000000000000000000000000000000000000000 DUP2 MSTORE PUSH1 0x4 ADD PUSH1 0x40 MLOAD DUP1 SWAP2 SUB SWAP1 REVERT JUMPDEST JUMP JUMPDEST PUSH2 0x808 PUSH2 0xA7F JUMP JUMPDEST PUSH20 0xFFFFFFFFFFFFFFFFFFFFFFFFFFFFFFFFFFFFFFFF AND PUSH2 0x826 PUSH2 0x2E4 JUMP JUMPDEST PUSH20 0xFFFFFFFFFFFFFFFFFFFFFFFFFFFFFFFFFFFFFFFF AND EQ PUSH2 0x885 JUMPI PUSH2 0x849 PUSH2 0xA7F JUMP JUMPDEST PUSH1 0x40 MLOAD PUSH32 0x118CDAA700000000000000000000000000000000000000000000000000000000 DUP2 MSTORE PUSH1 0x4 ADD PUSH2 0x87C SWAP2 SWAP1 PUSH2 0x10B9 JUMP JUMPDEST PUSH1 0x40 MLOAD DUP1 SWAP2 SUB SWAP1 REVERT JUMPDEST JUMP JUMPDEST PUSH0 PUSH2 0x890 PUSH2 0x958 JUMP JUMPDEST SWAP1 POP PUSH0 DUP2 PUSH0 ADD PUSH0 SWAP1 SLOAD SWAP1 PUSH2 0x100 EXP SWAP1 DIV PUSH20 0xFFFFFFFFFFFFFFFFFFFFFFFFFFFFFFFFFFFFFFFF AND SWAP1 POP DUP3 DUP3 PUSH0 ADD PUSH0 PUSH2 0x100 EXP DUP2 SLOAD DUP2 PUSH20 0xFFFFFFFFFFFFFFFFFFFFFFFFFFFFFFFFFFFFFFFF MUL NOT AND SWAP1 DUP4 PUSH20 0xFFFFFFFFFFFFFFFFFFFFFFFFFFFFFFFFFFFFFFFF AND MUL OR SWAP1 SSTORE POP DUP3 PUSH20 0xFFFFFFFFFFFFFFFFFFFFFFFFFFFFFFFFFFFFFFFF AND DUP2 PUSH20 0xFFFFFFFFFFFFFFFFFFFFFFFFFFFFFFFFFFFFFFFF AND PUSH32 0x8BE0079C531659141344CD1FD0A4F28419497F9722A3DAAFE3B4186F6B6457E0 PUSH1 0x40 MLOAD PUSH1 0x40 MLOAD DUP1 SWAP2 SUB SWAP1 LOG3 POP POP POP JUMP JUMPDEST PUSH0 PUSH32 0x9016D09D72D40FDAE2FD8CEAC6B6234C7706214FD39C1CD1E609A0528C199300 SWAP1 POP SWAP1 JUMP JUMPDEST PUSH0 PUSH32 0xF0C57E16840DF040F15088DC2F81FE391C3923BEC73E23A9662EFC9C229C6A00 SWAP1 POP SWAP1 JUMP JUMPDEST PUSH2 0x9AE PUSH2 0xA86 JUMP JUMPDEST PUSH2 0x9B7 DUP2 PUSH2 0xAC6 JUMP JUMPDEST POP JUMP JUMPDEST PUSH0 PUSH2 0x9E6 PUSH32 0x360894A13BA1A3210667C828492DB98DCA3E2076CC3735A920A3CA505D382BBC PUSH0 SHL PUSH2 0xB4A JUMP JUMPDEST PUSH0 ADD PUSH0 SWAP1 SLOAD SWAP1 PUSH2 0x100 EXP SWAP1 DIV PUSH20 0xFFFFFFFFFFFFFFFFFFFFFFFFFFFFFFFFFFFFFFFF AND SWAP1 POP SWAP1 JUMP JUMPDEST PUSH2 0xA16 DUP3 PUSH2 0xB53 JUMP JUMPDEST DUP2 PUSH20 0xFFFFFFFFFFFFFFFFFFFFFFFFFFFFFFFFFFFFFFFF AND PUSH32 0xBC7CD75A20EE27FD9ADEBAB32041F755214DBC6BFFA90CC0225B39DA2E5C2D3B PUSH1 0x40 MLOAD PUSH1 0x40 MLOAD DUP1 SWAP2 SUB SWAP1 LOG2 PUSH0 DUP2 MLOAD GT ISZERO PUSH2 0xA72 JUMPI PUSH2 0xA6C DUP3 DUP3 PUSH2 0xC1C JUMP JUMPDEST POP PUSH2 0xA7B JUMP JUMPDEST PUSH2 0xA7A PUSH2 0xC9C JUMP JUMPDEST JUMPDEST POP POP JUMP JUMPDEST PUSH0 CALLER SWAP1 POP SWAP1 JUMP JUMPDEST PUSH2 0xA8E PUSH2 0xCD8 JUMP JUMPDEST PUSH2 0xAC4 JUMPI PUSH1 0x40 MLOAD PUSH32 0xD7E6BCF800000000000000000000000000000000000000000000000000000000 DUP2 MSTORE PUSH1 0x4 ADD PUSH1 0x40 MLOAD DUP1 SWAP2 SUB SWAP1 REVERT JUMPDEST JUMP JUMPDEST PUSH2 0xACE PUSH2 0xA86 JUMP JUMPDEST PUSH0 PUSH20 0xFFFFFFFFFFFFFFFFFFFFFFFFFFFFFFFFFFFFFFFF AND DUP2 PUSH20 0xFFFFFFFFFFFFFFFFFFFFFFFFFFFFFFFFFFFFFFFF AND SUB PUSH2 0xB3E JUMPI PUSH0 PUSH1 0x40 MLOAD PUSH32 0x1E4FBDF700000000000000000000000000000000000000000000000000000000 DUP2 MSTORE PUSH1 0x4 ADD PUSH2 0xB35 SWAP2 SWAP1 PUSH2 0x10B9 JUMP JUMPDEST PUSH1 0x40 MLOAD DUP1 SWAP2 SUB SWAP1 REVERT JUMPDEST PUSH2 0xB47 DUP2 PUSH2 0x887 JUMP JUMPDEST POP JUMP JUMPDEST PUSH0 DUP2 SWAP1 POP SWAP2 SWAP1 POP JUMP JUMPDEST PUSH0 DUP2 PUSH20 0xFFFFFFFFFFFFFFFFFFFFFFFFFFFFFFFFFFFFFFFF AND EXTCODESIZE SUB PUSH2 0xBAE JUMPI DUP1 PUSH1 0x40 MLOAD PUSH32 0x4C9C8CE300000000000000000000000000000000000000000000000000000000 DUP2 MSTORE PUSH1 0x4 ADD PUSH2 0xBA5 SWAP2 SWAP1 PUSH2 0x10B9 JUMP JUMPDEST PUSH1 0x40 MLOAD DUP1 SWAP2 SUB SWAP1 REVERT JUMPDEST DUP1 PUSH2 0xBDA PUSH32 0x360894A13BA1A3210667C828492DB98DCA3E2076CC3735A920A3CA505D382BBC PUSH0 SHL PUSH2 0xB4A JUMP JUMPDEST PUSH0 ADD PUSH0 PUSH2 0x100 EXP DUP2 SLOAD DUP2 PUSH20 0xFFFFFFFFFFFFFFFFFFFFFFFFFFFFFFFFFFFFFFFF MUL NOT AND SWAP1 DUP4 PUSH20 0xFFFFFFFFFFFFFFFFFFFFFFFFFFFFFFFFFFFFFFFF AND MUL OR SWAP1 SSTORE POP POP JUMP JUMPDEST PUSH1 0x60 PUSH0 DUP1 DUP5 PUSH20 0xFFFFFFFFFFFFFFFFFFFFFFFFFFFFFFFFFFFFFFFF AND DUP5 PUSH1 0x40 MLOAD PUSH2 0xC45 SWAP2 SWAP1 PUSH2 0x1376 JUMP JUMPDEST PUSH0 PUSH1 0x40 MLOAD DUP1 DUP4 SUB DUP2 DUP6 GAS DELEGATECALL SWAP2 POP POP RETURNDATASIZE DUP1 PUSH0 DUP2 EQ PUSH2 0xC7D JUMPI PUSH1 0x40 MLOAD SWAP2 POP PUSH1 0x1F NOT PUSH1 0x3F RETURNDATASIZE ADD AND DUP3 ADD PUSH1 0x40 MSTORE RETURNDATASIZE DUP3 MSTORE RETURNDATASIZE PUSH0 PUSH1 0x20 DUP5 ADD RETURNDATACOPY PUSH2 0xC82 JUMP JUMPDEST PUSH1 0x60 SWAP2 POP JUMPDEST POP SWAP2 POP SWAP2 POP PUSH2 0xC92 DUP6 DUP4 DUP4 PUSH2 0xCF6 JUMP JUMPDEST SWAP3 POP POP POP SWAP3 SWAP2 POP POP JUMP JUMPDEST PUSH0 CALLVALUE GT ISZERO PUSH2 0xCD6 JUMPI PUSH1 0x40 MLOAD PUSH32 0xB398979F00000000000000000000000000000000000000000000000000000000 DUP2 MSTORE PUSH1 0x4 ADD PUSH1 0x40 MLOAD DUP1 SWAP2 SUB SWAP1 REVERT JUMPDEST JUMP JUMPDEST PUSH0 PUSH2 0xCE1 PUSH2 0x97F JUMP JUMPDEST PUSH0 ADD PUSH1 0x8 SWAP1 SLOAD SWAP1 PUSH2 0x100 EXP SWAP1 DIV PUSH1 0xFF AND SWAP1 POP SWAP1 JUMP JUMPDEST PUSH1 0x60 DUP3 PUSH2 0xD0B JUMPI PUSH2 0xD06 DUP3 PUSH2 0xD83 JUMP JUMPDEST PUSH2 0xD7B JUMP JUMPDEST PUSH0 DUP3 MLOAD EQ DUP1 ISZERO PUSH2 0xD31 JUMPI POP PUSH0 DUP5 PUSH20 0xFFFFFFFFFFFFFFFFFFFFFFFFFFFFFFFFFFFFFFFF AND EXTCODESIZE EQ JUMPDEST ISZERO PUSH2 0xD73 JUMPI DUP4 PUSH1 0x40 MLOAD PUSH32 0x9996B31500000000000000000000000000000000000000000000000000000000 DUP2 MSTORE PUSH1 0x4 ADD PUSH2 0xD6A SWAP2 SWAP1 PUSH2 0x10B9 JUMP JUMPDEST PUSH1 0x40 MLOAD DUP1 SWAP2 SUB SWAP1 REVERT JUMPDEST DUP2 SWAP1 POP PUSH2 0xD7C JUMP JUMPDEST JUMPDEST SWAP4 SWAP3 POP POP POP JUMP JUMPDEST PUSH0 DUP2 MLOAD GT ISZERO PUSH2 0xD95 JUMPI DUP1 MLOAD DUP1 DUP3 PUSH1 0x20 ADD REVERT JUMPDEST PUSH1 0x40 MLOAD PUSH32 0xD6BDA27500000000000000000000000000000000000000000000000000000000 DUP2 MSTORE PUSH1 0x4 ADD PUSH1 0x40 MLOAD DUP1 SWAP2 SUB SWAP1 REVERT JUMPDEST PUSH0 DUP2 SWAP1 POP SWAP2 SWAP1 POP JUMP JUMPDEST PUSH2 0xDD9 DUP2 PUSH2 0xDC7 JUMP JUMPDEST DUP3 MSTORE POP POP JUMP JUMPDEST PUSH0 PUSH1 0x20 DUP3 ADD SWAP1 POP PUSH2 0xDF2 PUSH0 DUP4 ADD DUP5 PUSH2 0xDD0 JUMP JUMPDEST SWAP3 SWAP2 POP POP JUMP JUMPDEST PUSH0 PUSH1 0x40 MLOAD SWAP1 POP SWAP1 JUMP JUMPDEST PUSH0 DUP1 REVERT JUMPDEST PUSH0 DUP1 REVERT JUMPDEST PUSH0 PUSH20 0xFFFFFFFFFFFFFFFFFFFFFFFFFFFFFFFFFFFFFFFF DUP3 AND SWAP1 POP SWAP2 SWAP1 POP JUMP JUMPDEST PUSH0 PUSH2 0xE32 DUP3 PUSH2 0xE09 JUMP JUMPDEST SWAP1 POP SWAP2 SWAP1 POP JUMP JUMPDEST PUSH2 0xE42 DUP2 PUSH2 0xE28 JUMP JUMPDEST DUP2 EQ PUSH2 0xE4C JUMPI PUSH0 DUP1 REVERT JUMPDEST POP JUMP JUMPDEST PUSH0 DUP2 CALLDATALOAD SWAP1 POP PUSH2 0xE5D DUP2 PUSH2 0xE39 JUMP JUMPDEST SWAP3 SWAP2 POP POP JUMP JUMPDEST PUSH0 DUP1 REVERT JUMPDEST PUSH0 DUP1 REVERT JUMPDEST PUSH0 PUSH1 0x1F NOT PUSH1 0x1F DUP4 ADD AND SWAP1 POP SWAP2 SWAP1 POP JUMP JUMPDEST PUSH32 0x4E487B7100000000000000000000000000000000000000000000000000000000 PUSH0 MSTORE PUSH1 0x41 PUSH1 0x4 MSTORE PUSH1 0x24 PUSH0 REVERT JUMPDEST PUSH2 0xEB1 DUP3 PUSH2 0xE6B JUMP JUMPDEST DUP2 ADD DUP2 DUP2 LT PUSH8 0xFFFFFFFFFFFFFFFF DUP3 GT OR ISZERO PUSH2 0xED0 JUMPI PUSH2 0xECF PUSH2 0xE7B JUMP JUMPDEST JUMPDEST DUP1 PUSH1 0x40 MSTORE POP POP POP JUMP JUMPDEST PUSH0 PUSH2 0xEE2 PUSH2 0xDF8 JUMP JUMPDEST SWAP1 POP PUSH2 0xEEE DUP3 DUP3 PUSH2 0xEA8 JUMP JUMPDEST SWAP2 SWAP1 POP JUMP JUMPDEST PUSH0 PUSH8 0xFFFFFFFFFFFFFFFF DUP3 GT ISZERO PUSH2 0xF0D JUMPI PUSH2 0xF0C PUSH2 0xE7B JUMP JUMPDEST JUMPDEST PUSH2 0xF16 DUP3 PUSH2 0xE6B JUMP JUMPDEST SWAP1 POP PUSH1 0x20 DUP2 ADD SWAP1 POP SWAP2 SWAP1 POP JUMP JUMPDEST DUP3 DUP2 DUP4 CALLDATACOPY PUSH0 DUP4 DUP4 ADD MSTORE POP POP POP JUMP JUMPDEST PUSH0 PUSH2 0xF43 PUSH2 0xF3E DUP5 PUSH2 0xEF3 JUMP JUMPDEST PUSH2 0xED9 JUMP JUMPDEST SWAP1 POP DUP3 DUP2 MSTORE PUSH1 0x20 DUP2 ADD DUP5 DUP5 DUP5 ADD GT ISZERO PUSH2 0xF5F JUMPI PUSH2 0xF5E PUSH2 0xE67 JUMP JUMPDEST JUMPDEST PUSH2 0xF6A DUP5 DUP3 DUP6 PUSH2 0xF23 JUMP JUMPDEST POP SWAP4 SWAP3 POP POP POP JUMP JUMPDEST PUSH0 DUP3 PUSH1 0x1F DUP4 ADD SLT PUSH2 0xF86 JUMPI PUSH2 0xF85 PUSH2 0xE63 JUMP JUMPDEST JUMPDEST DUP2 CALLDATALOAD PUSH2 0xF96 DUP5 DUP3 PUSH1 0x20 DUP7 ADD PUSH2 0xF31 JUMP JUMPDEST SWAP2 POP POP SWAP3 SWAP2 POP POP JUMP JUMPDEST PUSH0 DUP1 PUSH1 0x40 DUP4 DUP6 SUB SLT ISZERO PUSH2 0xFB5 JUMPI PUSH2 0xFB4 PUSH2 0xE01 JUMP JUMPDEST JUMPDEST PUSH0 PUSH2 0xFC2 DUP6 DUP3 DUP7 ADD PUSH2 0xE4F JUMP JUMPDEST SWAP3 POP POP PUSH1 0x20 DUP4 ADD CALLDATALOAD PUSH8 0xFFFFFFFFFFFFFFFF DUP2 GT ISZERO PUSH2 0xFE3 JUMPI PUSH2 0xFE2 PUSH2 0xE05 JUMP JUMPDEST JUMPDEST PUSH2 0xFEF DUP6 DUP3 DUP7 ADD PUSH2 0xF72 JUMP JUMPDEST SWAP2 POP POP SWAP3 POP SWAP3 SWAP1 POP JUMP JUMPDEST PUSH0 DUP2 SWAP1 POP SWAP2 SWAP1 POP JUMP JUMPDEST PUSH2 0x100B DUP2 PUSH2 0xFF9 JUMP JUMPDEST DUP3 MSTORE POP POP JUMP JUMPDEST PUSH0 PUSH1 0x20 DUP3 ADD SWAP1 POP PUSH2 0x1024 PUSH0 DUP4 ADD DUP5 PUSH2 0x1002 JUMP JUMPDEST SWAP3 SWAP2 POP POP JUMP JUMPDEST PUSH0 DUP2 MLOAD SWAP1 POP SWAP2 SWAP1 POP JUMP JUMPDEST PUSH0 DUP3 DUP3 MSTORE PUSH1 0x20 DUP3 ADD SWAP1 POP SWAP3 SWAP2 POP POP JUMP JUMPDEST DUP3 DUP2 DUP4 MCOPY PUSH0 DUP4 DUP4 ADD MSTORE POP POP POP JUMP JUMPDEST PUSH0 PUSH2 0x105C DUP3 PUSH2 0x102A JUMP JUMPDEST PUSH2 0x1066 DUP2 DUP6 PUSH2 0x1034 JUMP JUMPDEST SWAP4 POP PUSH2 0x1076 DUP2 DUP6 PUSH1 0x20 DUP7 ADD PUSH2 0x1044 JUMP JUMPDEST PUSH2 0x107F DUP2 PUSH2 0xE6B JUMP JUMPDEST DUP5 ADD SWAP2 POP POP SWAP3 SWAP2 POP POP JUMP JUMPDEST PUSH0 PUSH1 0x20 DUP3 ADD SWAP1 POP DUP2 DUP2 SUB PUSH0 DUP4 ADD MSTORE PUSH2 0x10A2 DUP2 DUP5 PUSH2 0x1052 JUMP JUMPDEST SWAP1 POP SWAP3 SWAP2 POP POP JUMP JUMPDEST PUSH2 0x10B3 DUP2 PUSH2 0xE28 JUMP JUMPDEST DUP3 MSTORE POP POP JUMP JUMPDEST PUSH0 PUSH1 0x20 DUP3 ADD SWAP1 POP PUSH2 0x10CC PUSH0 DUP4 ADD DUP5 PUSH2 0x10AA JUMP JUMPDEST SWAP3 SWAP2 POP POP JUMP JUMPDEST PUSH0 DUP2 MLOAD SWAP1 POP SWAP2 SWAP1 POP JUMP JUMPDEST PUSH0 DUP3 DUP3 MSTORE PUSH1 0x20 DUP3 ADD SWAP1 POP SWAP3 SWAP2 POP POP JUMP JUMPDEST PUSH0 PUSH2 0x10F6 DUP3 PUSH2 0x10D2 JUMP JUMPDEST PUSH2 0x1100 DUP2 DUP6 PUSH2 0x10DC JUMP JUMPDEST SWAP4 POP PUSH2 0x1110 DUP2 DUP6 PUSH1 0x20 DUP7 ADD PUSH2 0x1044 JUMP JUMPDEST PUSH2 0x1119 DUP2 PUSH2 0xE6B JUMP JUMPDEST DUP5 ADD SWAP2 POP POP SWAP3 SWAP2 POP POP JUMP JUMPDEST PUSH0 PUSH1 0x20 DUP3 ADD SWAP1 POP DUP2 DUP2 SUB PUSH0 DUP4 ADD MSTORE PUSH2 0x113C DUP2 DUP5 PUSH2 0x10EC JUMP JUMPDEST SWAP1 POP SWAP3 SWAP2 POP POP JUMP JUMPDEST PUSH2 0x114D DUP2 PUSH2 0xDC7 JUMP JUMPDEST DUP2 EQ PUSH2 0x1157 JUMPI PUSH0 DUP1 REVERT JUMPDEST POP JUMP JUMPDEST PUSH0 DUP2 CALLDATALOAD SWAP1 POP PUSH2 0x1168 DUP2 PUSH2 0x1144 JUMP JUMPDEST SWAP3 SWAP2 POP POP JUMP JUMPDEST PUSH0 PUSH1 0x20 DUP3 DUP5 SUB SLT ISZERO PUSH2 0x1183 JUMPI PUSH2 0x1182 PUSH2 0xE01 JUMP JUMPDEST JUMPDEST PUSH0 PUSH2 0x1190 DUP5 DUP3 DUP6 ADD PUSH2 0x115A JUMP JUMPDEST SWAP2 POP POP SWAP3 SWAP2 POP POP JUMP JUMPDEST PUSH0 PUSH1 0x20 DUP3 DUP5 SUB SLT ISZERO PUSH2 0x11AE JUMPI PUSH2 0x11AD PUSH2 0xE01 JUMP JUMPDEST JUMPDEST PUSH0 PUSH2 0x11BB DUP5 DUP3 DUP6 ADD PUSH2 0xE4F JUMP JUMPDEST SWAP2 POP POP SWAP3 SWAP2 POP POP JUMP JUMPDEST PUSH0 DUP2 SWAP1 POP SWAP2 SWAP1 POP JUMP JUMPDEST PUSH0 PUSH1 0xFF DUP3 AND SWAP1 POP SWAP2 SWAP1 POP JUMP JUMPDEST PUSH0 DUP2 SWAP1 POP SWAP2 SWAP1 POP JUMP JUMPDEST PUSH0 PUSH2 0x11FC PUSH2 0x11F7 PUSH2 0x11F2 DUP5 PUSH2 0x11C4 JUMP JUMPDEST PUSH2 0x11D9 JUMP JUMPDEST PUSH2 0x11CD JUMP JUMPDEST SWAP1 POP SWAP2 SWAP1 POP JUMP JUMPDEST PUSH2 0x120C DUP2 PUSH2 0x11E2 JUMP JUMPDEST DUP3 MSTORE POP POP JUMP JUMPDEST PUSH0 PUSH1 0x20 DUP3 ADD SWAP1 POP PUSH2 0x1225 PUSH0 DUP4 ADD DUP5 PUSH2 0x1203 JUMP JUMPDEST SWAP3 SWAP2 POP POP JUMP JUMPDEST PUSH32 0x4E487B7100000000000000000000000000000000000000000000000000000000 PUSH0 MSTORE PUSH1 0x11 PUSH1 0x4 MSTORE PUSH1 0x24 PUSH0 REVERT JUMPDEST PUSH0 PUSH2 0x1262 DUP3 PUSH2 0xDC7 JUMP JUMPDEST SWAP2 POP PUSH2 0x126D DUP4 PUSH2 0xDC7 JUMP JUMPDEST SWAP3 POP DUP3 DUP3 ADD SWAP1 POP DUP1 DUP3 GT ISZERO PUSH2 0x1285 JUMPI PUSH2 0x1284 PUSH2 0x122B JUMP JUMPDEST JUMPDEST SWAP3 SWAP2 POP POP JUMP JUMPDEST PUSH0 PUSH8 0xFFFFFFFFFFFFFFFF DUP3 AND SWAP1 POP SWAP2 SWAP1 POP JUMP JUMPDEST PUSH0 PUSH2 0x12B8 PUSH2 0x12B3 PUSH2 0x12AE DUP5 PUSH2 0x11C4 JUMP JUMPDEST PUSH2 0x11D9 JUMP JUMPDEST PUSH2 0x128B JUMP JUMPDEST SWAP1 POP SWAP2 SWAP1 POP JUMP JUMPDEST PUSH2 0x12C8 DUP2 PUSH2 0x129E JUMP JUMPDEST DUP3 MSTORE POP POP JUMP JUMPDEST PUSH0 PUSH1 0x20 DUP3 ADD SWAP1 POP PUSH2 0x12E1 PUSH0 DUP4 ADD DUP5 PUSH2 0x12BF JUMP JUMPDEST SWAP3 SWAP2 POP POP JUMP JUMPDEST PUSH2 0x12F0 DUP2 PUSH2 0xFF9 JUMP JUMPDEST DUP2 EQ PUSH2 0x12FA JUMPI PUSH0 DUP1 REVERT JUMPDEST POP JUMP JUMPDEST PUSH0 DUP2 MLOAD SWAP1 POP PUSH2 0x130B DUP2 PUSH2 0x12E7 JUMP JUMPDEST SWAP3 SWAP2 POP POP JUMP JUMPDEST PUSH0 PUSH1 0x20 DUP3 DUP5 SUB SLT ISZERO PUSH2 0x1326 JUMPI PUSH2 0x1325 PUSH2 0xE01 JUMP JUMPDEST JUMPDEST PUSH0 PUSH2 0x1333 DUP5 DUP3 DUP6 ADD PUSH2 0x12FD JUMP JUMPDEST SWAP2 POP POP SWAP3 SWAP2 POP POP JUMP JUMPDEST PUSH0 DUP2 SWAP1 POP SWAP3 SWAP2 POP POP JUMP JUMPDEST PUSH0 PUSH2 0x1350 DUP3 PUSH2 0x102A JUMP JUMPDEST PUSH2 0x135A DUP2 DUP6 PUSH2 0x133C JUMP JUMPDEST SWAP4 POP PUSH2 0x136A DUP2 DUP6 PUSH1 0x20 DUP7 ADD PUSH2 0x1044 JUMP JUMPDEST DUP1 DUP5 ADD SWAP2 POP POP SWAP3 SWAP2 POP POP JUMP JUMPDEST PUSH0 PUSH2 0x1381 DUP3 DUP5 PUSH2 0x1346 JUMP JUMPDEST SWAP2 POP DUP2 SWAP1 POP SWAP3 SWAP2 POP POP JUMP INVALID LOG2 PUSH5 0x6970667358 0x22 SLT KECCAK256 ADD CALLDATASIZE CALLER ADDMOD 0xDE 0x27 PUSH12 0x2799A1E84287E6907D2B9AD 0xCE SGT SWAP4 0xB3 0x29 0xB7 PUSH7 0xC329C66B18C64 PUSH20 0x6F6C634300081A00330000000000000000000000 "
				},
				"gasEstimates": {
					"creation": {
						"codeDepositCost": "1011600",
						"executionCost": "infinite",
						"totalCost": "infinite"
					},
					"external": {
						"Initialize(uint256)": "infinite",
						"UPGRADE_INTERFACE_VERSION()": "infinite",
						"cal()": "infinite",
						"owner()": "2567",
						"proxiableUUID()": "infinite",
						"renounceOwnership()": "infinite",
						"showInvoke()": "infinite",
						"transferOwnership(address)": "infinite",
						"upgradeToAndCall(address,bytes)": "infinite",
						"x()": "2425"
					},
					"internal": {
						"_authorizeUpgrade(address)": "11"
					}
				},
				"methodIdentifiers": {
					"Initialize(uint256)": "c43e48cf",
					"UPGRADE_INTERFACE_VERSION()": "ad3cb1cc",
					"cal()": "b7c738f4",
					"owner()": "8da5cb5b",
					"proxiableUUID()": "52d1902d",
					"renounceOwnership()": "715018a6",
					"showInvoke()": "75beac87",
					"transferOwnership(address)": "f2fde38b",
					"upgradeToAndCall(address,bytes)": "4f1ef286",
					"x()": "0c55699c"
				}
			},
			"storageLayout": {
				"storage": [
					{
						"astId": 1413,
						"contract": "contracts/openzeppelin/upgradable/UUPSV1.sol:UUPSV1",
						"label": "x",
						"offset": 0,
						"slot": "0",
						"type": "t_uint256"
					}
				],
				"types": {
					"t_uint256": {
						"encoding": "inplace",
						"label": "uint256",
						"numberOfBytes": "32"
					}
				}
			},
			"userdoc": {
				"kind": "user",
				"methods": {},
				"version": 1
			}
		}
	}
}