{
	"contracts/openzeppelin/upgradable/UUPSV1.sol": {
		"UUPSV2": {
			"abi": [
				{
					"inputs": [
						{
							"internalType": "uint256",
							"name": "_val",
							"type": "uint256"
						}
					],
					"stateMutability": "nonpayable",
					"type": "constructor"
				},
				{
					"inputs": [
						{
							"internalType": "address",
							"name": "target",
							"type": "address"
						}
					],
					"name": "AddressEmptyCode",
					"type": "error"
				},
				{
					"inputs": [
						{
							"internalType": "address",
							"name": "implementation",
							"type": "address"
						}
					],
					"name": "ERC1967InvalidImplementation",
					"type": "error"
				},
				{
					"inputs": [],
					"name": "ERC1967NonPayable",
					"type": "error"
				},
				{
					"inputs": [],
					"name": "FailedCall",
					"type": "error"
				},
				{
					"inputs": [],
					"name": "InvalidInitialization",
					"type": "error"
				},
				{
					"inputs": [],
					"name": "NotInitializing",
					"type": "error"
				},
				{
					"inputs": [
						{
							"internalType": "address",
							"name": "owner",
							"type": "address"
						}
					],
					"name": "OwnableInvalidOwner",
					"type": "error"
				},
				{
					"inputs": [
						{
							"internalType": "address",
							"name": "account",
							"type": "address"
						}
					],
					"name": "OwnableUnauthorizedAccount",
					"type": "error"
				},
				{
					"inputs": [],
					"name": "UUPSUnauthorizedCallContext",
					"type": "error"
				},
				{
					"inputs": [
						{
							"internalType": "bytes32",
							"name": "slot",
							"type": "bytes32"
						}
					],
					"name": "UUPSUnsupportedProxiableUUID",
					"type": "error"
				},
				{
					"anonymous": false,
					"inputs": [
						{
							"indexed": false,
							"internalType": "uint64",
							"name": "version",
							"type": "uint64"
						}
					],
					"name": "Initialized",
					"type": "event"
				},
				{
					"anonymous": false,
					"inputs": [
						{
							"indexed": true,
							"internalType": "address",
							"name": "previousOwner",
							"type": "address"
						},
						{
							"indexed": true,
							"internalType": "address",
							"name": "newOwner",
							"type": "address"
						}
					],
					"name": "OwnershipTransferred",
					"type": "event"
				},
				{
					"anonymous": false,
					"inputs": [
						{
							"indexed": true,
							"internalType": "address",
							"name": "implementation",
							"type": "address"
						}
					],
					"name": "Upgraded",
					"type": "event"
				},
				{
					"inputs": [
						{
							"internalType": "uint256",
							"name": "_val",
							"type": "uint256"
						}
					],
					"name": "Initialize",
					"outputs": [],
					"stateMutability": "nonpayable",
					"type": "function"
				},
				{
					"inputs": [],
					"name": "UPGRADE_INTERFACE_VERSION",
					"outputs": [
						{
							"internalType": "string",
							"name": "",
							"type": "string"
						}
					],
					"stateMutability": "view",
					"type": "function"
				},
				{
					"inputs": [],
					"name": "cal",
					"outputs": [],
					"stateMutability": "nonpayable",
					"type": "function"
				},
				{
					"inputs": [],
					"name": "owner",
					"outputs": [
						{
							"internalType": "address",
							"name": "",
							"type": "address"
						}
					],
					"stateMutability": "view",
					"type": "function"
				},
				{
					"inputs": [],
					"name": "proxiableUUID",
					"outputs": [
						{
							"internalType": "bytes32",
							"name": "",
							"type": "bytes32"
						}
					],
					"stateMutability": "view",
					"type": "function"
				},
				{
					"inputs": [],
					"name": "renounceOwnership",
					"outputs": [],
					"stateMutability": "nonpayable",
					"type": "function"
				},
				{
					"inputs": [
						{
							"internalType": "address",
							"name": "newOwner",
							"type": "address"
						}
					],
					"name": "transferOwnership",
					"outputs": [],
					"stateMutability": "nonpayable",
					"type": "function"
				},
				{
					"inputs": [
						{
							"internalType": "address",
							"name": "newImplementation",
							"type": "address"
						},
						{
							"internalType": "bytes",
							"name": "data",
							"type": "bytes"
						}
					],
					"name": "upgradeToAndCall",
					"outputs": [],
					"stateMutability": "payable",
					"type": "function"
				},
				{
					"inputs": [],
					"name": "x",
					"outputs": [
						{
							"internalType": "uint256",
							"name": "",
							"type": "uint256"
						}
					],
					"stateMutability": "view",
					"type": "function"
				}
			],
			"devdoc": {
				"errors": {
					"AddressEmptyCode(address)": [
						{
							"details": "There's no code at `target` (it is not a contract)."
						}
					],
					"ERC1967InvalidImplementation(address)": [
						{
							"details": "The `implementation` of the proxy is invalid."
						}
					],
					"ERC1967NonPayable()": [
						{
							"details": "An upgrade function sees `msg.value > 0` that may be lost."
						}
					],
					"FailedCall()": [
						{
							"details": "A call to an address target failed. The target may have reverted."
						}
					],
					"InvalidInitialization()": [
						{
							"details": "The contract is already initialized."
						}
					],
					"NotInitializing()": [
						{
							"details": "The contract is not initializing."
						}
					],
					"OwnableInvalidOwner(address)": [
						{
							"details": "The owner is not a valid owner account. (eg. `address(0)`)"
						}
					],
					"OwnableUnauthorizedAccount(address)": [
						{
							"details": "The caller account is not authorized to perform an operation."
						}
					],
					"UUPSUnauthorizedCallContext()": [
						{
							"details": "The call is from an unauthorized context."
						}
					],
					"UUPSUnsupportedProxiableUUID(bytes32)": [
						{
							"details": "The storage `slot` is unsupported as a UUID."
						}
					]
				},
				"events": {
					"Initialized(uint64)": {
						"details": "Triggered when the contract has been initialized or reinitialized."
					},
					"Upgraded(address)": {
						"details": "Emitted when the implementation is upgraded."
					}
				},
				"kind": "dev",
				"methods": {
					"owner()": {
						"details": "Returns the address of the current owner."
					},
					"proxiableUUID()": {
						"details": "Implementation of the ERC-1822 {proxiableUUID} function. This returns the storage slot used by the implementation. It is used to validate the implementation's compatibility when performing an upgrade. IMPORTANT: A proxy pointing at a proxiable contract should not be considered proxiable itself, because this risks bricking a proxy that upgrades to it, by delegating to itself until out of gas. Thus it is critical that this function revert if invoked through a proxy. This is guaranteed by the `notDelegated` modifier."
					},
					"renounceOwnership()": {
						"details": "Leaves the contract without owner. It will not be possible to call `onlyOwner` functions. Can only be called by the current owner. NOTE: Renouncing ownership will leave the contract without an owner, thereby disabling any functionality that is only available to the owner."
					},
					"transferOwnership(address)": {
						"details": "Transfers ownership of the contract to a new account (`newOwner`). Can only be called by the current owner."
					},
					"upgradeToAndCall(address,bytes)": {
						"custom:oz-upgrades-unsafe-allow-reachable": "delegatecall",
						"details": "Upgrade the implementation of the proxy to `newImplementation`, and subsequently execute the function call encoded in `data`. Calls {_authorizeUpgrade}. Emits an {Upgraded} event."
					}
				},
				"version": 1
			},
			"evm": {
				"assembly": "    /* \"contracts/openzeppelin/upgradable/UUPSV1.sol\":833:1310  contract UUPSV2 is Initializable, UUPSUpgradeable, OwnableUpgradeable {... */\n  mstore(0x40, 0xa0)\n    /* \"@openzeppelin/contracts/proxy/utils/UUPSUpgradeable.sol\":1060:1064  this */\n  address\n    /* \"@openzeppelin/contracts/proxy/utils/UUPSUpgradeable.sol\":1017:1065  address private immutable __self = address(this) */\n  0xffffffffffffffffffffffffffffffffffffffff\n  and\n  0x80\n  swap1\n  0xffffffffffffffffffffffffffffffffffffffff\n  and\n  dup2\n  mstore\n  pop\n    /* \"contracts/openzeppelin/upgradable/UUPSV1.sol\":937:991  constructor(uint256 _val) {... */\n  callvalue\n  dup1\n  iszero\n  tag_1\n  jumpi\n  0x00\n  dup1\n  revert\ntag_1:\n  pop\n  mload(0x40)\n  sub(codesize, bytecodeSize)\n  dup1\n  bytecodeSize\n  dup4\n  codecopy\n  dup2\n  dup2\n  add\n  0x40\n  mstore\n  dup2\n  add\n  swap1\n  tag_2\n  swap2\n  swap1\n  tag_3\n  jump\t// in\ntag_2:\n    /* \"contracts/openzeppelin/upgradable/UUPSV1.sol\":978:982  _val */\n  dup1\n    /* \"contracts/openzeppelin/upgradable/UUPSV1.sol\":974:975  x */\n  0x00\n    /* \"contracts/openzeppelin/upgradable/UUPSV1.sol\":974:982  x = _val */\n  dup2\n  swap1\n  sstore\n  pop\n    /* \"contracts/openzeppelin/upgradable/UUPSV1.sol\":937:991  constructor(uint256 _val) {... */\n  pop\n    /* \"contracts/openzeppelin/upgradable/UUPSV1.sol\":833:1310  contract UUPSV2 is Initializable, UUPSUpgradeable, OwnableUpgradeable {... */\n  jump(tag_6)\n    /* \"#utility.yul\":88:205   */\ntag_8:\n    /* \"#utility.yul\":197:198   */\n  0x00\n    /* \"#utility.yul\":194:195   */\n  dup1\n    /* \"#utility.yul\":187:199   */\n  revert\n    /* \"#utility.yul\":334:411   */\ntag_10:\n    /* \"#utility.yul\":371:378   */\n  0x00\n    /* \"#utility.yul\":400:405   */\n  dup2\n    /* \"#utility.yul\":389:405   */\n  swap1\n  pop\n    /* \"#utility.yul\":334:411   */\n  swap2\n  swap1\n  pop\n  jump\t// out\n    /* \"#utility.yul\":417:539   */\ntag_11:\n    /* \"#utility.yul\":490:514   */\n  tag_19\n    /* \"#utility.yul\":508:513   */\n  dup2\n    /* \"#utility.yul\":490:514   */\n  tag_10\n  jump\t// in\ntag_19:\n    /* \"#utility.yul\":483:488   */\n  dup2\n    /* \"#utility.yul\":480:515   */\n  eq\n    /* \"#utility.yul\":470:533   */\n  tag_20\n  jumpi\n    /* \"#utility.yul\":529:530   */\n  0x00\n    /* \"#utility.yul\":526:527   */\n  dup1\n    /* \"#utility.yul\":519:531   */\n  revert\n    /* \"#utility.yul\":470:533   */\ntag_20:\n    /* \"#utility.yul\":417:539   */\n  pop\n  jump\t// out\n    /* \"#utility.yul\":545:688   */\ntag_12:\n    /* \"#utility.yul\":602:607   */\n  0x00\n    /* \"#utility.yul\":633:639   */\n  dup2\n    /* \"#utility.yul\":627:640   */\n  mload\n    /* \"#utility.yul\":618:640   */\n  swap1\n  pop\n    /* \"#utility.yul\":649:682   */\n  tag_22\n    /* \"#utility.yul\":676:681   */\n  dup2\n    /* \"#utility.yul\":649:682   */\n  tag_11\n  jump\t// in\ntag_22:\n    /* \"#utility.yul\":545:688   */\n  swap3\n  swap2\n  pop\n  pop\n  jump\t// out\n    /* \"#utility.yul\":694:1045   */\ntag_3:\n    /* \"#utility.yul\":764:770   */\n  0x00\n    /* \"#utility.yul\":813:815   */\n  0x20\n    /* \"#utility.yul\":801:810   */\n  dup3\n    /* \"#utility.yul\":792:799   */\n  dup5\n    /* \"#utility.yul\":788:811   */\n  sub\n    /* \"#utility.yul\":784:816   */\n  slt\n    /* \"#utility.yul\":781:900   */\n  iszero\n  tag_24\n  jumpi\n    /* \"#utility.yul\":819:898   */\n  tag_25\n  tag_8\n  jump\t// in\ntag_25:\n    /* \"#utility.yul\":781:900   */\ntag_24:\n    /* \"#utility.yul\":939:940   */\n  0x00\n    /* \"#utility.yul\":964:1028   */\n  tag_26\n    /* \"#utility.yul\":1020:1027   */\n  dup5\n    /* \"#utility.yul\":1011:1017   */\n  dup3\n    /* \"#utility.yul\":1000:1009   */\n  dup6\n    /* \"#utility.yul\":996:1018   */\n  add\n    /* \"#utility.yul\":964:1028   */\n  tag_12\n  jump\t// in\ntag_26:\n    /* \"#utility.yul\":954:1028   */\n  swap2\n  pop\n    /* \"#utility.yul\":910:1038   */\n  pop\n    /* \"#utility.yul\":694:1045   */\n  swap3\n  swap2\n  pop\n  pop\n  jump\t// out\n    /* \"contracts/openzeppelin/upgradable/UUPSV1.sol\":833:1310  contract UUPSV2 is Initializable, UUPSUpgradeable, OwnableUpgradeable {... */\ntag_6:\n  mload(0x80)\n  codecopy(0x00, dataOffset(sub_0), dataSize(sub_0))\n  0x00\n  assignImmutable(\"0x87b8181f2525747f7c2388fad45fd6fdeca8961ce0728225de7247b6a04dc463\")\n  return(0x00, dataSize(sub_0))\nstop\n\nsub_0: assembly {\n        /* \"contracts/openzeppelin/upgradable/UUPSV1.sol\":833:1310  contract UUPSV2 is Initializable, UUPSUpgradeable, OwnableUpgradeable {... */\n      mstore(0x40, 0x80)\n      jumpi(tag_1, lt(calldatasize, 0x04))\n      shr(0xe0, calldataload(0x00))\n      dup1\n      0x8da5cb5b\n      gt\n      tag_11\n      jumpi\n      dup1\n      0x8da5cb5b\n      eq\n      tag_6\n      jumpi\n      dup1\n      0xad3cb1cc\n      eq\n      tag_7\n      jumpi\n      dup1\n      0xb7c738f4\n      eq\n      tag_8\n      jumpi\n      dup1\n      0xc43e48cf\n      eq\n      tag_9\n      jumpi\n      dup1\n      0xf2fde38b\n      eq\n      tag_10\n      jumpi\n      jump(tag_1)\n    tag_11:\n      dup1\n      0x0c55699c\n      eq\n      tag_2\n      jumpi\n      dup1\n      0x4f1ef286\n      eq\n      tag_3\n      jumpi\n      dup1\n      0x52d1902d\n      eq\n      tag_4\n      jumpi\n      dup1\n      0x715018a6\n      eq\n      tag_5\n      jumpi\n    tag_1:\n      0x00\n      dup1\n      revert\n        /* \"contracts/openzeppelin/upgradable/UUPSV1.sol\":912:928  uint256 public x */\n    tag_2:\n      callvalue\n      dup1\n      iszero\n      tag_12\n      jumpi\n      0x00\n      dup1\n      revert\n    tag_12:\n      pop\n      tag_13\n      tag_14\n      jump\t// in\n    tag_13:\n      mload(0x40)\n      tag_15\n      swap2\n      swap1\n      tag_16\n      jump\t// in\n    tag_15:\n      mload(0x40)\n      dup1\n      swap2\n      sub\n      swap1\n      return\n        /* \"@openzeppelin/contracts/proxy/utils/UUPSUpgradeable.sol\":3895:4109  function upgradeToAndCall(address newImplementation, bytes memory data) public payable virtual onlyProxy {... */\n    tag_3:\n      tag_17\n      0x04\n      dup1\n      calldatasize\n      sub\n      dup2\n      add\n      swap1\n      tag_18\n      swap2\n      swap1\n      tag_19\n      jump\t// in\n    tag_18:\n      tag_20\n      jump\t// in\n    tag_17:\n      stop\n        /* \"@openzeppelin/contracts/proxy/utils/UUPSUpgradeable.sol\":3442:3576  function proxiableUUID() external view virtual notDelegated returns (bytes32) {... */\n    tag_4:\n      callvalue\n      dup1\n      iszero\n      tag_21\n      jumpi\n      0x00\n      dup1\n      revert\n    tag_21:\n      pop\n      tag_22\n      tag_23\n      jump\t// in\n    tag_22:\n      mload(0x40)\n      tag_24\n      swap2\n      swap1\n      tag_25\n      jump\t// in\n    tag_24:\n      mload(0x40)\n      dup1\n      swap2\n      sub\n      swap1\n      return\n        /* \"@openzeppelin/contracts-upgradeable/access/OwnableUpgradeable.sol\":3155:3256  function renounceOwnership() public virtual onlyOwner {... */\n    tag_5:\n      callvalue\n      dup1\n      iszero\n      tag_26\n      jumpi\n      0x00\n      dup1\n      revert\n    tag_26:\n      pop\n      tag_27\n      tag_28\n      jump\t// in\n    tag_27:\n      stop\n        /* \"@openzeppelin/contracts-upgradeable/access/OwnableUpgradeable.sol\":2441:2585  function owner() public view virtual returns (address) {... */\n    tag_6:\n      callvalue\n      dup1\n      iszero\n      tag_29\n      jumpi\n      0x00\n      dup1\n      revert\n    tag_29:\n      pop\n      tag_30\n      tag_31\n      jump\t// in\n    tag_30:\n      mload(0x40)\n      tag_32\n      swap2\n      swap1\n      tag_33\n      jump\t// in\n    tag_32:\n      mload(0x40)\n      dup1\n      swap2\n      sub\n      swap1\n      return\n        /* \"@openzeppelin/contracts/proxy/utils/UUPSUpgradeable.sol\":1708:1766  string public constant UPGRADE_INTERFACE_VERSION = \"5.0.0\" */\n    tag_7:\n      callvalue\n      dup1\n      iszero\n      tag_34\n      jumpi\n      0x00\n      dup1\n      revert\n    tag_34:\n      pop\n      tag_35\n      tag_36\n      jump\t// in\n    tag_35:\n      mload(0x40)\n      tag_37\n      swap2\n      swap1\n      tag_38\n      jump\t// in\n    tag_37:\n      mload(0x40)\n      dup1\n      swap2\n      sub\n      swap1\n      return\n        /* \"contracts/openzeppelin/upgradable/UUPSV1.sol\":1253:1305  function cal() external {... */\n    tag_8:\n      callvalue\n      dup1\n      iszero\n      tag_39\n      jumpi\n      0x00\n      dup1\n      revert\n    tag_39:\n      pop\n      tag_40\n      tag_41\n      jump\t// in\n    tag_40:\n      stop\n        /* \"contracts/openzeppelin/upgradable/UUPSV1.sol\":1090:1245  function Initialize(uint256 _val) external initializer {... */\n    tag_9:\n      callvalue\n      dup1\n      iszero\n      tag_42\n      jumpi\n      0x00\n      dup1\n      revert\n    tag_42:\n      pop\n      tag_43\n      0x04\n      dup1\n      calldatasize\n      sub\n      dup2\n      add\n      swap1\n      tag_44\n      swap2\n      swap1\n      tag_45\n      jump\t// in\n    tag_44:\n      tag_46\n      jump\t// in\n    tag_43:\n      stop\n        /* \"@openzeppelin/contracts-upgradeable/access/OwnableUpgradeable.sol\":3405:3620  function transferOwnership(address newOwner) public virtual onlyOwner {... */\n    tag_10:\n      callvalue\n      dup1\n      iszero\n      tag_47\n      jumpi\n      0x00\n      dup1\n      revert\n    tag_47:\n      pop\n      tag_48\n      0x04\n      dup1\n      calldatasize\n      sub\n      dup2\n      add\n      swap1\n      tag_49\n      swap2\n      swap1\n      tag_50\n      jump\t// in\n    tag_49:\n      tag_51\n      jump\t// in\n    tag_48:\n      stop\n        /* \"contracts/openzeppelin/upgradable/UUPSV1.sol\":912:928  uint256 public x */\n    tag_14:\n      sload(0x00)\n      dup2\n      jump\t// out\n        /* \"@openzeppelin/contracts/proxy/utils/UUPSUpgradeable.sol\":3895:4109  function upgradeToAndCall(address newImplementation, bytes memory data) public payable virtual onlyProxy {... */\n    tag_20:\n        /* \"@openzeppelin/contracts/proxy/utils/UUPSUpgradeable.sol\":2544:2557  _checkProxy() */\n      tag_53\n        /* \"@openzeppelin/contracts/proxy/utils/UUPSUpgradeable.sol\":2544:2555  _checkProxy */\n      tag_54\n        /* \"@openzeppelin/contracts/proxy/utils/UUPSUpgradeable.sol\":2544:2557  _checkProxy() */\n      jump\t// in\n    tag_53:\n        /* \"@openzeppelin/contracts/proxy/utils/UUPSUpgradeable.sol\":4010:4046  _authorizeUpgrade(newImplementation) */\n      tag_56\n        /* \"@openzeppelin/contracts/proxy/utils/UUPSUpgradeable.sol\":4028:4045  newImplementation */\n      dup3\n        /* \"@openzeppelin/contracts/proxy/utils/UUPSUpgradeable.sol\":4010:4027  _authorizeUpgrade */\n      tag_57\n        /* \"@openzeppelin/contracts/proxy/utils/UUPSUpgradeable.sol\":4010:4046  _authorizeUpgrade(newImplementation) */\n      jump\t// in\n    tag_56:\n        /* \"@openzeppelin/contracts/proxy/utils/UUPSUpgradeable.sol\":4056:4102  _upgradeToAndCallUUPS(newImplementation, data) */\n      tag_58\n        /* \"@openzeppelin/contracts/proxy/utils/UUPSUpgradeable.sol\":4078:4095  newImplementation */\n      dup3\n        /* \"@openzeppelin/contracts/proxy/utils/UUPSUpgradeable.sol\":4097:4101  data */\n      dup3\n        /* \"@openzeppelin/contracts/proxy/utils/UUPSUpgradeable.sol\":4056:4077  _upgradeToAndCallUUPS */\n      tag_59\n        /* \"@openzeppelin/contracts/proxy/utils/UUPSUpgradeable.sol\":4056:4102  _upgradeToAndCallUUPS(newImplementation, data) */\n      jump\t// in\n    tag_58:\n        /* \"@openzeppelin/contracts/proxy/utils/UUPSUpgradeable.sol\":3895:4109  function upgradeToAndCall(address newImplementation, bytes memory data) public payable virtual onlyProxy {... */\n      pop\n      pop\n      jump\t// out\n        /* \"@openzeppelin/contracts/proxy/utils/UUPSUpgradeable.sol\":3442:3576  function proxiableUUID() external view virtual notDelegated returns (bytes32) {... */\n    tag_23:\n        /* \"@openzeppelin/contracts/proxy/utils/UUPSUpgradeable.sol\":3511:3518  bytes32 */\n      0x00\n        /* \"@openzeppelin/contracts/proxy/utils/UUPSUpgradeable.sol\":2815:2835  _checkNotDelegated() */\n      tag_61\n        /* \"@openzeppelin/contracts/proxy/utils/UUPSUpgradeable.sol\":2815:2833  _checkNotDelegated */\n      tag_62\n        /* \"@openzeppelin/contracts/proxy/utils/UUPSUpgradeable.sol\":2815:2835  _checkNotDelegated() */\n      jump\t// in\n    tag_61:\n        /* \"@openzeppelin/contracts/proxy/ERC1967/ERC1967Utils.sol\":811:877  0x360894a13ba1a3210667c828492db98dca3e2076cc3735a920a3ca505d382bbc */\n      0x360894a13ba1a3210667c828492db98dca3e2076cc3735a920a3ca505d382bbc\n        /* \"@openzeppelin/contracts/proxy/utils/UUPSUpgradeable.sol\":3537:3569  ERC1967Utils.IMPLEMENTATION_SLOT */\n      0x00\n      shl\n        /* \"@openzeppelin/contracts/proxy/utils/UUPSUpgradeable.sol\":3530:3569  return ERC1967Utils.IMPLEMENTATION_SLOT */\n      swap1\n      pop\n        /* \"@openzeppelin/contracts/proxy/utils/UUPSUpgradeable.sol\":3442:3576  function proxiableUUID() external view virtual notDelegated returns (bytes32) {... */\n      swap1\n      jump\t// out\n        /* \"@openzeppelin/contracts-upgradeable/access/OwnableUpgradeable.sol\":3155:3256  function renounceOwnership() public virtual onlyOwner {... */\n    tag_28:\n        /* \"@openzeppelin/contracts-upgradeable/access/OwnableUpgradeable.sol\":2334:2347  _checkOwner() */\n      tag_65\n        /* \"@openzeppelin/contracts-upgradeable/access/OwnableUpgradeable.sol\":2334:2345  _checkOwner */\n      tag_66\n        /* \"@openzeppelin/contracts-upgradeable/access/OwnableUpgradeable.sol\":2334:2347  _checkOwner() */\n      jump\t// in\n    tag_65:\n        /* \"@openzeppelin/contracts-upgradeable/access/OwnableUpgradeable.sol\":3219:3249  _transferOwnership(address(0)) */\n      tag_68\n        /* \"@openzeppelin/contracts-upgradeable/access/OwnableUpgradeable.sol\":3246:3247  0 */\n      0x00\n        /* \"@openzeppelin/contracts-upgradeable/access/OwnableUpgradeable.sol\":3219:3237  _transferOwnership */\n      tag_69\n        /* \"@openzeppelin/contracts-upgradeable/access/OwnableUpgradeable.sol\":3219:3249  _transferOwnership(address(0)) */\n      jump\t// in\n    tag_68:\n        /* \"@openzeppelin/contracts-upgradeable/access/OwnableUpgradeable.sol\":3155:3256  function renounceOwnership() public virtual onlyOwner {... */\n      jump\t// out\n        /* \"@openzeppelin/contracts-upgradeable/access/OwnableUpgradeable.sol\":2441:2585  function owner() public view virtual returns (address) {... */\n    tag_31:\n        /* \"@openzeppelin/contracts-upgradeable/access/OwnableUpgradeable.sol\":2487:2494  address */\n      0x00\n        /* \"@openzeppelin/contracts-upgradeable/access/OwnableUpgradeable.sol\":2506:2530  OwnableStorage storage $ */\n      dup1\n        /* \"@openzeppelin/contracts-upgradeable/access/OwnableUpgradeable.sol\":2533:2553  _getOwnableStorage() */\n      tag_71\n        /* \"@openzeppelin/contracts-upgradeable/access/OwnableUpgradeable.sol\":2533:2551  _getOwnableStorage */\n      tag_72\n        /* \"@openzeppelin/contracts-upgradeable/access/OwnableUpgradeable.sol\":2533:2553  _getOwnableStorage() */\n      jump\t// in\n    tag_71:\n        /* \"@openzeppelin/contracts-upgradeable/access/OwnableUpgradeable.sol\":2506:2553  OwnableStorage storage $ = _getOwnableStorage() */\n      swap1\n      pop\n        /* \"@openzeppelin/contracts-upgradeable/access/OwnableUpgradeable.sol\":2570:2571  $ */\n      dup1\n        /* \"@openzeppelin/contracts-upgradeable/access/OwnableUpgradeable.sol\":2570:2578  $._owner */\n      0x00\n      add\n      0x00\n      swap1\n      sload\n      swap1\n      0x0100\n      exp\n      swap1\n      div\n      0xffffffffffffffffffffffffffffffffffffffff\n      and\n        /* \"@openzeppelin/contracts-upgradeable/access/OwnableUpgradeable.sol\":2563:2578  return $._owner */\n      swap2\n      pop\n      pop\n        /* \"@openzeppelin/contracts-upgradeable/access/OwnableUpgradeable.sol\":2441:2585  function owner() public view virtual returns (address) {... */\n      swap1\n      jump\t// out\n        /* \"@openzeppelin/contracts/proxy/utils/UUPSUpgradeable.sol\":1708:1766  string public constant UPGRADE_INTERFACE_VERSION = \"5.0.0\" */\n    tag_36:\n      mload(0x40)\n      dup1\n      0x40\n      add\n      0x40\n      mstore\n      dup1\n      0x05\n      dup2\n      mstore\n      0x20\n      add\n      0x352e302e30000000000000000000000000000000000000000000000000000000\n      dup2\n      mstore\n      pop\n      dup2\n      jump\t// out\n        /* \"contracts/openzeppelin/upgradable/UUPSV1.sol\":1253:1305  function cal() external {... */\n    tag_41:\n        /* \"contracts/openzeppelin/upgradable/UUPSV1.sol\":1296:1297  2 */\n      0x02\n        /* \"contracts/openzeppelin/upgradable/UUPSV1.sol\":1292:1293  x */\n      sload(0x00)\n        /* \"contracts/openzeppelin/upgradable/UUPSV1.sol\":1292:1297  x * 2 */\n      tag_74\n      swap2\n      swap1\n      tag_75\n      jump\t// in\n    tag_74:\n        /* \"contracts/openzeppelin/upgradable/UUPSV1.sol\":1288:1289  x */\n      0x00\n        /* \"contracts/openzeppelin/upgradable/UUPSV1.sol\":1288:1297  x = x * 2 */\n      dup2\n      swap1\n      sstore\n      pop\n        /* \"contracts/openzeppelin/upgradable/UUPSV1.sol\":1253:1305  function cal() external {... */\n      jump\t// out\n        /* \"contracts/openzeppelin/upgradable/UUPSV1.sol\":1090:1245  function Initialize(uint256 _val) external initializer {... */\n    tag_46:\n        /* \"@openzeppelin/contracts-upgradeable/proxy/utils/Initializable.sol\":4158:4188  InitializableStorage storage $ */\n      0x00\n        /* \"@openzeppelin/contracts-upgradeable/proxy/utils/Initializable.sol\":4191:4217  _getInitializableStorage() */\n      tag_77\n        /* \"@openzeppelin/contracts-upgradeable/proxy/utils/Initializable.sol\":4191:4215  _getInitializableStorage */\n      tag_78\n        /* \"@openzeppelin/contracts-upgradeable/proxy/utils/Initializable.sol\":4191:4217  _getInitializableStorage() */\n      jump\t// in\n    tag_77:\n        /* \"@openzeppelin/contracts-upgradeable/proxy/utils/Initializable.sol\":4158:4217  InitializableStorage storage $ = _getInitializableStorage() */\n      swap1\n      pop\n        /* \"@openzeppelin/contracts-upgradeable/proxy/utils/Initializable.sol\":4279:4298  bool isTopLevelCall */\n      0x00\n        /* \"@openzeppelin/contracts-upgradeable/proxy/utils/Initializable.sol\":4302:4303  $ */\n      dup2\n        /* \"@openzeppelin/contracts-upgradeable/proxy/utils/Initializable.sol\":4302:4317  $._initializing */\n      0x00\n      add\n      0x08\n      swap1\n      sload\n      swap1\n      0x0100\n      exp\n      swap1\n      div\n      0xff\n      and\n        /* \"@openzeppelin/contracts-upgradeable/proxy/utils/Initializable.sol\":4301:4317  !$._initializing */\n      iszero\n        /* \"@openzeppelin/contracts-upgradeable/proxy/utils/Initializable.sol\":4279:4317  bool isTopLevelCall = !$._initializing */\n      swap1\n      pop\n        /* \"@openzeppelin/contracts-upgradeable/proxy/utils/Initializable.sol\":4327:4345  uint64 initialized */\n      0x00\n        /* \"@openzeppelin/contracts-upgradeable/proxy/utils/Initializable.sol\":4348:4349  $ */\n      dup3\n        /* \"@openzeppelin/contracts-upgradeable/proxy/utils/Initializable.sol\":4348:4362  $._initialized */\n      0x00\n      add\n      0x00\n      swap1\n      sload\n      swap1\n      0x0100\n      exp\n      swap1\n      div\n      0xffffffffffffffff\n      and\n        /* \"@openzeppelin/contracts-upgradeable/proxy/utils/Initializable.sol\":4327:4362  uint64 initialized = $._initialized */\n      swap1\n      pop\n        /* \"@openzeppelin/contracts-upgradeable/proxy/utils/Initializable.sol\":4706:4723  bool initialSetup */\n      0x00\n        /* \"@openzeppelin/contracts-upgradeable/proxy/utils/Initializable.sol\":4741:4742  0 */\n      dup1\n        /* \"@openzeppelin/contracts-upgradeable/proxy/utils/Initializable.sol\":4726:4737  initialized */\n      dup3\n        /* \"@openzeppelin/contracts-upgradeable/proxy/utils/Initializable.sol\":4726:4742  initialized == 0 */\n      0xffffffffffffffff\n      and\n      eq\n        /* \"@openzeppelin/contracts-upgradeable/proxy/utils/Initializable.sol\":4726:4760  initialized == 0 && isTopLevelCall */\n      dup1\n      iszero\n      tag_79\n      jumpi\n      pop\n        /* \"@openzeppelin/contracts-upgradeable/proxy/utils/Initializable.sol\":4746:4760  isTopLevelCall */\n      dup3\n        /* \"@openzeppelin/contracts-upgradeable/proxy/utils/Initializable.sol\":4726:4760  initialized == 0 && isTopLevelCall */\n    tag_79:\n        /* \"@openzeppelin/contracts-upgradeable/proxy/utils/Initializable.sol\":4706:4760  bool initialSetup = initialized == 0 && isTopLevelCall */\n      swap1\n      pop\n        /* \"@openzeppelin/contracts-upgradeable/proxy/utils/Initializable.sol\":4770:4787  bool construction */\n      0x00\n        /* \"@openzeppelin/contracts-upgradeable/proxy/utils/Initializable.sol\":4805:4806  1 */\n      0x01\n        /* \"@openzeppelin/contracts-upgradeable/proxy/utils/Initializable.sol\":4790:4801  initialized */\n      dup4\n        /* \"@openzeppelin/contracts-upgradeable/proxy/utils/Initializable.sol\":4790:4806  initialized == 1 */\n      0xffffffffffffffff\n      and\n      eq\n        /* \"@openzeppelin/contracts-upgradeable/proxy/utils/Initializable.sol\":4790:4840  initialized == 1 && address(this).code.length == 0 */\n      dup1\n      iszero\n      tag_80\n      jumpi\n      pop\n        /* \"@openzeppelin/contracts-upgradeable/proxy/utils/Initializable.sol\":4839:4840  0 */\n      0x00\n        /* \"@openzeppelin/contracts-upgradeable/proxy/utils/Initializable.sol\":4818:4822  this */\n      address\n        /* \"@openzeppelin/contracts-upgradeable/proxy/utils/Initializable.sol\":4810:4835  address(this).code.length */\n      0xffffffffffffffffffffffffffffffffffffffff\n      and\n      extcodesize\n        /* \"@openzeppelin/contracts-upgradeable/proxy/utils/Initializable.sol\":4810:4840  address(this).code.length == 0 */\n      eq\n        /* \"@openzeppelin/contracts-upgradeable/proxy/utils/Initializable.sol\":4790:4840  initialized == 1 && address(this).code.length == 0 */\n    tag_80:\n        /* \"@openzeppelin/contracts-upgradeable/proxy/utils/Initializable.sol\":4770:4840  bool construction = initialized == 1 && address(this).code.length == 0 */\n      swap1\n      pop\n        /* \"@openzeppelin/contracts-upgradeable/proxy/utils/Initializable.sol\":4856:4868  initialSetup */\n      dup2\n        /* \"@openzeppelin/contracts-upgradeable/proxy/utils/Initializable.sol\":4855:4868  !initialSetup */\n      iszero\n        /* \"@openzeppelin/contracts-upgradeable/proxy/utils/Initializable.sol\":4855:4885  !initialSetup && !construction */\n      dup1\n      iszero\n      tag_81\n      jumpi\n      pop\n        /* \"@openzeppelin/contracts-upgradeable/proxy/utils/Initializable.sol\":4873:4885  construction */\n      dup1\n        /* \"@openzeppelin/contracts-upgradeable/proxy/utils/Initializable.sol\":4872:4885  !construction */\n      iszero\n        /* \"@openzeppelin/contracts-upgradeable/proxy/utils/Initializable.sol\":4855:4885  !initialSetup && !construction */\n    tag_81:\n        /* \"@openzeppelin/contracts-upgradeable/proxy/utils/Initializable.sol\":4851:4942  if (!initialSetup && !construction) {... */\n      iszero\n      tag_82\n      jumpi\n        /* \"@openzeppelin/contracts-upgradeable/proxy/utils/Initializable.sol\":4908:4931  InvalidInitialization() */\n      mload(0x40)\n      0xf92ee8a900000000000000000000000000000000000000000000000000000000\n      dup2\n      mstore\n      0x04\n      add\n      mload(0x40)\n      dup1\n      swap2\n      sub\n      swap1\n      revert\n        /* \"@openzeppelin/contracts-upgradeable/proxy/utils/Initializable.sol\":4851:4942  if (!initialSetup && !construction) {... */\n    tag_82:\n        /* \"@openzeppelin/contracts-upgradeable/proxy/utils/Initializable.sol\":4968:4969  1 */\n      0x01\n        /* \"@openzeppelin/contracts-upgradeable/proxy/utils/Initializable.sol\":4951:4952  $ */\n      dup6\n        /* \"@openzeppelin/contracts-upgradeable/proxy/utils/Initializable.sol\":4951:4965  $._initialized */\n      0x00\n      add\n      0x00\n        /* \"@openzeppelin/contracts-upgradeable/proxy/utils/Initializable.sol\":4951:4969  $._initialized = 1 */\n      0x0100\n      exp\n      dup2\n      sload\n      dup2\n      0xffffffffffffffff\n      mul\n      not\n      and\n      swap1\n      dup4\n      0xffffffffffffffff\n      and\n      mul\n      or\n      swap1\n      sstore\n      pop\n        /* \"@openzeppelin/contracts-upgradeable/proxy/utils/Initializable.sol\":4983:4997  isTopLevelCall */\n      dup4\n        /* \"@openzeppelin/contracts-upgradeable/proxy/utils/Initializable.sol\":4979:5046  if (isTopLevelCall) {... */\n      iszero\n      tag_83\n      jumpi\n        /* \"@openzeppelin/contracts-upgradeable/proxy/utils/Initializable.sol\":5031:5035  true */\n      0x01\n        /* \"@openzeppelin/contracts-upgradeable/proxy/utils/Initializable.sol\":5013:5014  $ */\n      dup6\n        /* \"@openzeppelin/contracts-upgradeable/proxy/utils/Initializable.sol\":5013:5028  $._initializing */\n      0x00\n      add\n      0x08\n        /* \"@openzeppelin/contracts-upgradeable/proxy/utils/Initializable.sol\":5013:5035  $._initializing = true */\n      0x0100\n      exp\n      dup2\n      sload\n      dup2\n      0xff\n      mul\n      not\n      and\n      swap1\n      dup4\n      iszero\n      iszero\n      mul\n      or\n      swap1\n      sstore\n      pop\n        /* \"@openzeppelin/contracts-upgradeable/proxy/utils/Initializable.sol\":4979:5046  if (isTopLevelCall) {... */\n    tag_83:\n        /* \"contracts/openzeppelin/upgradable/UUPSV1.sol\":1160:1164  _val */\n      dup6\n        /* \"contracts/openzeppelin/upgradable/UUPSV1.sol\":1156:1157  x */\n      0x00\n        /* \"contracts/openzeppelin/upgradable/UUPSV1.sol\":1156:1164  x = _val */\n      dup2\n      swap1\n      sstore\n      pop\n        /* \"contracts/openzeppelin/upgradable/UUPSV1.sol\":1211:1237  __Ownable_init(msg.sender) */\n      tag_85\n        /* \"contracts/openzeppelin/upgradable/UUPSV1.sol\":1226:1236  msg.sender */\n      caller\n        /* \"contracts/openzeppelin/upgradable/UUPSV1.sol\":1211:1225  __Ownable_init */\n      tag_86\n        /* \"contracts/openzeppelin/upgradable/UUPSV1.sol\":1211:1237  __Ownable_init(msg.sender) */\n      jump\t// in\n    tag_85:\n        /* \"@openzeppelin/contracts-upgradeable/proxy/utils/Initializable.sol\":5070:5084  isTopLevelCall */\n      dup4\n        /* \"@openzeppelin/contracts-upgradeable/proxy/utils/Initializable.sol\":5066:5167  if (isTopLevelCall) {... */\n      iszero\n      tag_87\n      jumpi\n        /* \"@openzeppelin/contracts-upgradeable/proxy/utils/Initializable.sol\":5118:5123  false */\n      0x00\n        /* \"@openzeppelin/contracts-upgradeable/proxy/utils/Initializable.sol\":5100:5101  $ */\n      dup6\n        /* \"@openzeppelin/contracts-upgradeable/proxy/utils/Initializable.sol\":5100:5115  $._initializing */\n      0x00\n      add\n      0x08\n        /* \"@openzeppelin/contracts-upgradeable/proxy/utils/Initializable.sol\":5100:5123  $._initializing = false */\n      0x0100\n      exp\n      dup2\n      sload\n      dup2\n      0xff\n      mul\n      not\n      and\n      swap1\n      dup4\n      iszero\n      iszero\n      mul\n      or\n      swap1\n      sstore\n      pop\n        /* \"@openzeppelin/contracts-upgradeable/proxy/utils/Initializable.sol\":5142:5156  Initialized(1) */\n      0xc7f505b2f371ae2175ee4913f4499e1f2633a7b5936321eed1cdaeb6115181d2\n        /* \"@openzeppelin/contracts-upgradeable/proxy/utils/Initializable.sol\":5154:5155  1 */\n      0x01\n        /* \"@openzeppelin/contracts-upgradeable/proxy/utils/Initializable.sol\":5142:5156  Initialized(1) */\n      mload(0x40)\n      tag_88\n      swap2\n      swap1\n      tag_89\n      jump\t// in\n    tag_88:\n      mload(0x40)\n      dup1\n      swap2\n      sub\n      swap1\n      log1\n        /* \"@openzeppelin/contracts-upgradeable/proxy/utils/Initializable.sol\":5066:5167  if (isTopLevelCall) {... */\n    tag_87:\n        /* \"@openzeppelin/contracts-upgradeable/proxy/utils/Initializable.sol\":4092:5173  {... */\n      pop\n      pop\n      pop\n      pop\n      pop\n        /* \"contracts/openzeppelin/upgradable/UUPSV1.sol\":1090:1245  function Initialize(uint256 _val) external initializer {... */\n      pop\n      jump\t// out\n        /* \"@openzeppelin/contracts-upgradeable/access/OwnableUpgradeable.sol\":3405:3620  function transferOwnership(address newOwner) public virtual onlyOwner {... */\n    tag_51:\n        /* \"@openzeppelin/contracts-upgradeable/access/OwnableUpgradeable.sol\":2334:2347  _checkOwner() */\n      tag_91\n        /* \"@openzeppelin/contracts-upgradeable/access/OwnableUpgradeable.sol\":2334:2345  _checkOwner */\n      tag_66\n        /* \"@openzeppelin/contracts-upgradeable/access/OwnableUpgradeable.sol\":2334:2347  _checkOwner() */\n      jump\t// in\n    tag_91:\n        /* \"@openzeppelin/contracts-upgradeable/access/OwnableUpgradeable.sol\":3509:3510  0 */\n      0x00\n        /* \"@openzeppelin/contracts-upgradeable/access/OwnableUpgradeable.sol\":3489:3511  newOwner == address(0) */\n      0xffffffffffffffffffffffffffffffffffffffff\n      and\n        /* \"@openzeppelin/contracts-upgradeable/access/OwnableUpgradeable.sol\":3489:3497  newOwner */\n      dup2\n        /* \"@openzeppelin/contracts-upgradeable/access/OwnableUpgradeable.sol\":3489:3511  newOwner == address(0) */\n      0xffffffffffffffffffffffffffffffffffffffff\n      and\n      sub\n        /* \"@openzeppelin/contracts-upgradeable/access/OwnableUpgradeable.sol\":3485:3576  if (newOwner == address(0)) {... */\n      tag_93\n      jumpi\n        /* \"@openzeppelin/contracts-upgradeable/access/OwnableUpgradeable.sol\":3562:3563  0 */\n      0x00\n        /* \"@openzeppelin/contracts-upgradeable/access/OwnableUpgradeable.sol\":3534:3565  OwnableInvalidOwner(address(0)) */\n      mload(0x40)\n      0x1e4fbdf700000000000000000000000000000000000000000000000000000000\n      dup2\n      mstore\n      0x04\n      add\n      tag_94\n      swap2\n      swap1\n      tag_33\n      jump\t// in\n    tag_94:\n      mload(0x40)\n      dup1\n      swap2\n      sub\n      swap1\n      revert\n        /* \"@openzeppelin/contracts-upgradeable/access/OwnableUpgradeable.sol\":3485:3576  if (newOwner == address(0)) {... */\n    tag_93:\n        /* \"@openzeppelin/contracts-upgradeable/access/OwnableUpgradeable.sol\":3585:3613  _transferOwnership(newOwner) */\n      tag_95\n        /* \"@openzeppelin/contracts-upgradeable/access/OwnableUpgradeable.sol\":3604:3612  newOwner */\n      dup2\n        /* \"@openzeppelin/contracts-upgradeable/access/OwnableUpgradeable.sol\":3585:3603  _transferOwnership */\n      tag_69\n        /* \"@openzeppelin/contracts-upgradeable/access/OwnableUpgradeable.sol\":3585:3613  _transferOwnership(newOwner) */\n      jump\t// in\n    tag_95:\n        /* \"@openzeppelin/contracts-upgradeable/access/OwnableUpgradeable.sol\":3405:3620  function transferOwnership(address newOwner) public virtual onlyOwner {... */\n      pop\n      jump\t// out\n        /* \"@openzeppelin/contracts/proxy/utils/UUPSUpgradeable.sol\":4337:4649  function _checkProxy() internal view virtual {... */\n    tag_54:\n        /* \"@openzeppelin/contracts/proxy/utils/UUPSUpgradeable.sol\":4426:4432  __self */\n      immutable(\"0x87b8181f2525747f7c2388fad45fd6fdeca8961ce0728225de7247b6a04dc463\")\n        /* \"@openzeppelin/contracts/proxy/utils/UUPSUpgradeable.sol\":4409:4432  address(this) == __self */\n      0xffffffffffffffffffffffffffffffffffffffff\n      and\n        /* \"@openzeppelin/contracts/proxy/utils/UUPSUpgradeable.sol\":4417:4421  this */\n      address\n        /* \"@openzeppelin/contracts/proxy/utils/UUPSUpgradeable.sol\":4409:4432  address(this) == __self */\n      0xffffffffffffffffffffffffffffffffffffffff\n      and\n      eq\n        /* \"@openzeppelin/contracts/proxy/utils/UUPSUpgradeable.sol\":4409:4529  address(this) == __self || // Must be called through delegatecall... */\n      dup1\n      tag_97\n      jumpi\n      pop\n        /* \"@openzeppelin/contracts/proxy/utils/UUPSUpgradeable.sol\":4523:4529  __self */\n      immutable(\"0x87b8181f2525747f7c2388fad45fd6fdeca8961ce0728225de7247b6a04dc463\")\n        /* \"@openzeppelin/contracts/proxy/utils/UUPSUpgradeable.sol\":4487:4529  ERC1967Utils.getImplementation() != __self */\n      0xffffffffffffffffffffffffffffffffffffffff\n      and\n        /* \"@openzeppelin/contracts/proxy/utils/UUPSUpgradeable.sol\":4487:4519  ERC1967Utils.getImplementation() */\n      tag_98\n        /* \"@openzeppelin/contracts/proxy/utils/UUPSUpgradeable.sol\":4487:4517  ERC1967Utils.getImplementation */\n      tag_99\n        /* \"@openzeppelin/contracts/proxy/utils/UUPSUpgradeable.sol\":4487:4519  ERC1967Utils.getImplementation() */\n      jump\t// in\n    tag_98:\n        /* \"@openzeppelin/contracts/proxy/utils/UUPSUpgradeable.sol\":4487:4529  ERC1967Utils.getImplementation() != __self */\n      0xffffffffffffffffffffffffffffffffffffffff\n      and\n      eq\n      iszero\n        /* \"@openzeppelin/contracts/proxy/utils/UUPSUpgradeable.sol\":4409:4529  address(this) == __self || // Must be called through delegatecall... */\n    tag_97:\n        /* \"@openzeppelin/contracts/proxy/utils/UUPSUpgradeable.sol\":4392:4643  if (... */\n      iszero\n      tag_100\n      jumpi\n        /* \"@openzeppelin/contracts/proxy/utils/UUPSUpgradeable.sol\":4603:4632  UUPSUnauthorizedCallContext() */\n      mload(0x40)\n      0xe07c8dba00000000000000000000000000000000000000000000000000000000\n      dup2\n      mstore\n      0x04\n      add\n      mload(0x40)\n      dup1\n      swap2\n      sub\n      swap1\n      revert\n        /* \"@openzeppelin/contracts/proxy/utils/UUPSUpgradeable.sol\":4392:4643  if (... */\n    tag_100:\n        /* \"@openzeppelin/contracts/proxy/utils/UUPSUpgradeable.sol\":4337:4649  function _checkProxy() internal view virtual {... */\n      jump\t// out\n        /* \"contracts/openzeppelin/upgradable/UUPSV1.sol\":999:1082  function _authorizeUpgrade(address newImplementation) internal override  {... */\n    tag_57:\n      pop\n      jump\t// out\n        /* \"@openzeppelin/contracts/proxy/utils/UUPSUpgradeable.sol\":5791:6329  function _upgradeToAndCallUUPS(address newImplementation, bytes memory data) private {... */\n    tag_59:\n        /* \"@openzeppelin/contracts/proxy/utils/UUPSUpgradeable.sol\":5908:5925  newImplementation */\n      dup2\n        /* \"@openzeppelin/contracts/proxy/utils/UUPSUpgradeable.sol\":5890:5940  IERC1822Proxiable(newImplementation).proxiableUUID */\n      0xffffffffffffffffffffffffffffffffffffffff\n      and\n      0x52d1902d\n        /* \"@openzeppelin/contracts/proxy/utils/UUPSUpgradeable.sol\":5890:5942  IERC1822Proxiable(newImplementation).proxiableUUID() */\n      mload(0x40)\n      dup2\n      0xffffffff\n      and\n      0xe0\n      shl\n      dup2\n      mstore\n      0x04\n      add\n      0x20\n      mload(0x40)\n      dup1\n      dup4\n      sub\n      dup2\n      dup7\n      gas\n      staticcall\n      swap3\n      pop\n      pop\n      pop\n      dup1\n      iszero\n      tag_103\n      jumpi\n      pop\n      mload(0x40)\n      returndatasize\n      not(0x1f)\n      0x1f\n      dup3\n      add\n      and\n      dup3\n      add\n      dup1\n      0x40\n      mstore\n      pop\n      dup2\n      add\n      swap1\n      tag_104\n      swap2\n      swap1\n      tag_105\n      jump\t// in\n    tag_104:\n      0x01\n    tag_103:\n        /* \"@openzeppelin/contracts/proxy/utils/UUPSUpgradeable.sol\":5886:6323  try IERC1822Proxiable(newImplementation).proxiableUUID() returns (bytes32 slot) {... */\n      tag_106\n      jumpi\n        /* \"@openzeppelin/contracts/proxy/utils/UUPSUpgradeable.sol\":6294:6311  newImplementation */\n      dup2\n        /* \"@openzeppelin/contracts/proxy/utils/UUPSUpgradeable.sol\":6252:6312  ERC1967Utils.ERC1967InvalidImplementation(newImplementation) */\n      mload(0x40)\n      0x4c9c8ce300000000000000000000000000000000000000000000000000000000\n      dup2\n      mstore\n      0x04\n      add\n      tag_110\n      swap2\n      swap1\n      tag_33\n      jump\t// in\n    tag_110:\n      mload(0x40)\n      dup1\n      swap2\n      sub\n      swap1\n      revert\n        /* \"@openzeppelin/contracts/proxy/utils/UUPSUpgradeable.sol\":5886:6323  try IERC1822Proxiable(newImplementation).proxiableUUID() returns (bytes32 slot) {... */\n    tag_106:\n        /* \"@openzeppelin/contracts/proxy/ERC1967/ERC1967Utils.sol\":811:877  0x360894a13ba1a3210667c828492db98dca3e2076cc3735a920a3ca505d382bbc */\n      0x360894a13ba1a3210667c828492db98dca3e2076cc3735a920a3ca505d382bbc\n        /* \"@openzeppelin/contracts/proxy/utils/UUPSUpgradeable.sol\":5992:6024  ERC1967Utils.IMPLEMENTATION_SLOT */\n      0x00\n      shl\n        /* \"@openzeppelin/contracts/proxy/utils/UUPSUpgradeable.sol\":5984:5988  slot */\n      dup2\n        /* \"@openzeppelin/contracts/proxy/utils/UUPSUpgradeable.sol\":5984:6024  slot != ERC1967Utils.IMPLEMENTATION_SLOT */\n      eq\n        /* \"@openzeppelin/contracts/proxy/utils/UUPSUpgradeable.sol\":5980:6100  if (slot != ERC1967Utils.IMPLEMENTATION_SLOT) {... */\n      tag_112\n      jumpi\n        /* \"@openzeppelin/contracts/proxy/utils/UUPSUpgradeable.sol\":6080:6084  slot */\n      dup1\n        /* \"@openzeppelin/contracts/proxy/utils/UUPSUpgradeable.sol\":6051:6085  UUPSUnsupportedProxiableUUID(slot) */\n      mload(0x40)\n      0xaa1d49a400000000000000000000000000000000000000000000000000000000\n      dup2\n      mstore\n      0x04\n      add\n      tag_113\n      swap2\n      swap1\n      tag_25\n      jump\t// in\n    tag_113:\n      mload(0x40)\n      dup1\n      swap2\n      sub\n      swap1\n      revert\n        /* \"@openzeppelin/contracts/proxy/utils/UUPSUpgradeable.sol\":5980:6100  if (slot != ERC1967Utils.IMPLEMENTATION_SLOT) {... */\n    tag_112:\n        /* \"@openzeppelin/contracts/proxy/utils/UUPSUpgradeable.sol\":6113:6167  ERC1967Utils.upgradeToAndCall(newImplementation, data) */\n      tag_114\n        /* \"@openzeppelin/contracts/proxy/utils/UUPSUpgradeable.sol\":6143:6160  newImplementation */\n      dup4\n        /* \"@openzeppelin/contracts/proxy/utils/UUPSUpgradeable.sol\":6162:6166  data */\n      dup4\n        /* \"@openzeppelin/contracts/proxy/utils/UUPSUpgradeable.sol\":6113:6142  ERC1967Utils.upgradeToAndCall */\n      tag_115\n        /* \"@openzeppelin/contracts/proxy/utils/UUPSUpgradeable.sol\":6113:6167  ERC1967Utils.upgradeToAndCall(newImplementation, data) */\n      jump\t// in\n    tag_114:\n        /* \"@openzeppelin/contracts/proxy/utils/UUPSUpgradeable.sol\":5943:6178  returns (bytes32 slot) {... */\n      pop\n        /* \"@openzeppelin/contracts/proxy/utils/UUPSUpgradeable.sol\":5791:6329  function _upgradeToAndCallUUPS(address newImplementation, bytes memory data) private {... */\n      pop\n      pop\n      jump\t// out\n        /* \"@openzeppelin/contracts/proxy/utils/UUPSUpgradeable.sol\":4766:4979  function _checkNotDelegated() internal view virtual {... */\n    tag_62:\n        /* \"@openzeppelin/contracts/proxy/utils/UUPSUpgradeable.sol\":4849:4855  __self */\n      immutable(\"0x87b8181f2525747f7c2388fad45fd6fdeca8961ce0728225de7247b6a04dc463\")\n        /* \"@openzeppelin/contracts/proxy/utils/UUPSUpgradeable.sol\":4832:4855  address(this) != __self */\n      0xffffffffffffffffffffffffffffffffffffffff\n      and\n        /* \"@openzeppelin/contracts/proxy/utils/UUPSUpgradeable.sol\":4840:4844  this */\n      address\n        /* \"@openzeppelin/contracts/proxy/utils/UUPSUpgradeable.sol\":4832:4855  address(this) != __self */\n      0xffffffffffffffffffffffffffffffffffffffff\n      and\n      eq\n        /* \"@openzeppelin/contracts/proxy/utils/UUPSUpgradeable.sol\":4828:4973  if (address(this) != __self) {... */\n      tag_117\n      jumpi\n        /* \"@openzeppelin/contracts/proxy/utils/UUPSUpgradeable.sol\":4933:4962  UUPSUnauthorizedCallContext() */\n      mload(0x40)\n      0xe07c8dba00000000000000000000000000000000000000000000000000000000\n      dup2\n      mstore\n      0x04\n      add\n      mload(0x40)\n      dup1\n      swap2\n      sub\n      swap1\n      revert\n        /* \"@openzeppelin/contracts/proxy/utils/UUPSUpgradeable.sol\":4828:4973  if (address(this) != __self) {... */\n    tag_117:\n        /* \"@openzeppelin/contracts/proxy/utils/UUPSUpgradeable.sol\":4766:4979  function _checkNotDelegated() internal view virtual {... */\n      jump\t// out\n        /* \"@openzeppelin/contracts-upgradeable/access/OwnableUpgradeable.sol\":2658:2820  function _checkOwner() internal view virtual {... */\n    tag_66:\n        /* \"@openzeppelin/contracts-upgradeable/access/OwnableUpgradeable.sol\":2728:2740  _msgSender() */\n      tag_119\n        /* \"@openzeppelin/contracts-upgradeable/access/OwnableUpgradeable.sol\":2728:2738  _msgSender */\n      tag_120\n        /* \"@openzeppelin/contracts-upgradeable/access/OwnableUpgradeable.sol\":2728:2740  _msgSender() */\n      jump\t// in\n    tag_119:\n        /* \"@openzeppelin/contracts-upgradeable/access/OwnableUpgradeable.sol\":2717:2740  owner() != _msgSender() */\n      0xffffffffffffffffffffffffffffffffffffffff\n      and\n        /* \"@openzeppelin/contracts-upgradeable/access/OwnableUpgradeable.sol\":2717:2724  owner() */\n      tag_121\n        /* \"@openzeppelin/contracts-upgradeable/access/OwnableUpgradeable.sol\":2717:2722  owner */\n      tag_31\n        /* \"@openzeppelin/contracts-upgradeable/access/OwnableUpgradeable.sol\":2717:2724  owner() */\n      jump\t// in\n    tag_121:\n        /* \"@openzeppelin/contracts-upgradeable/access/OwnableUpgradeable.sol\":2717:2740  owner() != _msgSender() */\n      0xffffffffffffffffffffffffffffffffffffffff\n      and\n      eq\n        /* \"@openzeppelin/contracts-upgradeable/access/OwnableUpgradeable.sol\":2713:2814  if (owner() != _msgSender()) {... */\n      tag_122\n      jumpi\n        /* \"@openzeppelin/contracts-upgradeable/access/OwnableUpgradeable.sol\":2790:2802  _msgSender() */\n      tag_123\n        /* \"@openzeppelin/contracts-upgradeable/access/OwnableUpgradeable.sol\":2790:2800  _msgSender */\n      tag_120\n        /* \"@openzeppelin/contracts-upgradeable/access/OwnableUpgradeable.sol\":2790:2802  _msgSender() */\n      jump\t// in\n    tag_123:\n        /* \"@openzeppelin/contracts-upgradeable/access/OwnableUpgradeable.sol\":2763:2803  OwnableUnauthorizedAccount(_msgSender()) */\n      mload(0x40)\n      0x118cdaa700000000000000000000000000000000000000000000000000000000\n      dup2\n      mstore\n      0x04\n      add\n      tag_124\n      swap2\n      swap1\n      tag_33\n      jump\t// in\n    tag_124:\n      mload(0x40)\n      dup1\n      swap2\n      sub\n      swap1\n      revert\n        /* \"@openzeppelin/contracts-upgradeable/access/OwnableUpgradeable.sol\":2713:2814  if (owner() != _msgSender()) {... */\n    tag_122:\n        /* \"@openzeppelin/contracts-upgradeable/access/OwnableUpgradeable.sol\":2658:2820  function _checkOwner() internal view virtual {... */\n      jump\t// out\n        /* \"@openzeppelin/contracts-upgradeable/access/OwnableUpgradeable.sol\":3774:4022  function _transferOwnership(address newOwner) internal virtual {... */\n    tag_69:\n        /* \"@openzeppelin/contracts-upgradeable/access/OwnableUpgradeable.sol\":3847:3871  OwnableStorage storage $ */\n      0x00\n        /* \"@openzeppelin/contracts-upgradeable/access/OwnableUpgradeable.sol\":3874:3894  _getOwnableStorage() */\n      tag_126\n        /* \"@openzeppelin/contracts-upgradeable/access/OwnableUpgradeable.sol\":3874:3892  _getOwnableStorage */\n      tag_72\n        /* \"@openzeppelin/contracts-upgradeable/access/OwnableUpgradeable.sol\":3874:3894  _getOwnableStorage() */\n      jump\t// in\n    tag_126:\n        /* \"@openzeppelin/contracts-upgradeable/access/OwnableUpgradeable.sol\":3847:3894  OwnableStorage storage $ = _getOwnableStorage() */\n      swap1\n      pop\n        /* \"@openzeppelin/contracts-upgradeable/access/OwnableUpgradeable.sol\":3904:3920  address oldOwner */\n      0x00\n        /* \"@openzeppelin/contracts-upgradeable/access/OwnableUpgradeable.sol\":3923:3924  $ */\n      dup2\n        /* \"@openzeppelin/contracts-upgradeable/access/OwnableUpgradeable.sol\":3923:3931  $._owner */\n      0x00\n      add\n      0x00\n      swap1\n      sload\n      swap1\n      0x0100\n      exp\n      swap1\n      div\n      0xffffffffffffffffffffffffffffffffffffffff\n      and\n        /* \"@openzeppelin/contracts-upgradeable/access/OwnableUpgradeable.sol\":3904:3931  address oldOwner = $._owner */\n      swap1\n      pop\n        /* \"@openzeppelin/contracts-upgradeable/access/OwnableUpgradeable.sol\":3952:3960  newOwner */\n      dup3\n        /* \"@openzeppelin/contracts-upgradeable/access/OwnableUpgradeable.sol\":3941:3942  $ */\n      dup3\n        /* \"@openzeppelin/contracts-upgradeable/access/OwnableUpgradeable.sol\":3941:3949  $._owner */\n      0x00\n      add\n      0x00\n        /* \"@openzeppelin/contracts-upgradeable/access/OwnableUpgradeable.sol\":3941:3960  $._owner = newOwner */\n      0x0100\n      exp\n      dup2\n      sload\n      dup2\n      0xffffffffffffffffffffffffffffffffffffffff\n      mul\n      not\n      and\n      swap1\n      dup4\n      0xffffffffffffffffffffffffffffffffffffffff\n      and\n      mul\n      or\n      swap1\n      sstore\n      pop\n        /* \"@openzeppelin/contracts-upgradeable/access/OwnableUpgradeable.sol\":4006:4014  newOwner */\n      dup3\n        /* \"@openzeppelin/contracts-upgradeable/access/OwnableUpgradeable.sol\":3975:4015  OwnershipTransferred(oldOwner, newOwner) */\n      0xffffffffffffffffffffffffffffffffffffffff\n      and\n        /* \"@openzeppelin/contracts-upgradeable/access/OwnableUpgradeable.sol\":3996:4004  oldOwner */\n      dup2\n        /* \"@openzeppelin/contracts-upgradeable/access/OwnableUpgradeable.sol\":3975:4015  OwnershipTransferred(oldOwner, newOwner) */\n      0xffffffffffffffffffffffffffffffffffffffff\n      and\n      0x8be0079c531659141344cd1fd0a4f28419497f9722a3daafe3b4186f6b6457e0\n      mload(0x40)\n      mload(0x40)\n      dup1\n      swap2\n      sub\n      swap1\n      log3\n        /* \"@openzeppelin/contracts-upgradeable/access/OwnableUpgradeable.sol\":3837:4022  {... */\n      pop\n      pop\n        /* \"@openzeppelin/contracts-upgradeable/access/OwnableUpgradeable.sol\":3774:4022  function _transferOwnership(address newOwner) internal virtual {... */\n      pop\n      jump\t// out\n        /* \"@openzeppelin/contracts-upgradeable/access/OwnableUpgradeable.sol\":1192:1351  function _getOwnableStorage() private pure returns (OwnableStorage storage $) {... */\n    tag_72:\n        /* \"@openzeppelin/contracts-upgradeable/access/OwnableUpgradeable.sol\":1244:1268  OwnableStorage storage $ */\n      0x00\n        /* \"@openzeppelin/contracts-upgradeable/access/OwnableUpgradeable.sol\":1313:1335  OwnableStorageLocation */\n      0x9016d09d72d40fdae2fd8ceac6b6234c7706214fd39c1cd1e609a0528c199300\n        /* \"@openzeppelin/contracts-upgradeable/access/OwnableUpgradeable.sol\":1303:1335  $.slot := OwnableStorageLocation */\n      swap1\n      pop\n        /* \"@openzeppelin/contracts-upgradeable/access/OwnableUpgradeable.sol\":1192:1351  function _getOwnableStorage() private pure returns (OwnableStorage storage $) {... */\n      swap1\n      jump\t// out\n        /* \"@openzeppelin/contracts-upgradeable/proxy/utils/Initializable.sol\":8737:8907  function _getInitializableStorage() private pure returns (InitializableStorage storage $) {... */\n    tag_78:\n        /* \"@openzeppelin/contracts-upgradeable/proxy/utils/Initializable.sol\":8795:8825  InitializableStorage storage $ */\n      0x00\n        /* \"@openzeppelin/contracts-upgradeable/proxy/utils/Initializable.sol\":8870:8891  INITIALIZABLE_STORAGE */\n      0xf0c57e16840df040f15088dc2f81fe391c3923bec73e23a9662efc9c229c6a00\n        /* \"@openzeppelin/contracts-upgradeable/proxy/utils/Initializable.sol\":8860:8891  $.slot := INITIALIZABLE_STORAGE */\n      swap1\n      pop\n        /* \"@openzeppelin/contracts-upgradeable/proxy/utils/Initializable.sol\":8737:8907  function _getInitializableStorage() private pure returns (InitializableStorage storage $) {... */\n      swap1\n      jump\t// out\n        /* \"@openzeppelin/contracts-upgradeable/access/OwnableUpgradeable.sol\":1847:1974  function __Ownable_init(address initialOwner) internal onlyInitializing {... */\n    tag_86:\n        /* \"@openzeppelin/contracts-upgradeable/proxy/utils/Initializable.sol\":6931:6951  _checkInitializing() */\n      tag_130\n        /* \"@openzeppelin/contracts-upgradeable/proxy/utils/Initializable.sol\":6931:6949  _checkInitializing */\n      tag_131\n        /* \"@openzeppelin/contracts-upgradeable/proxy/utils/Initializable.sol\":6931:6951  _checkInitializing() */\n      jump\t// in\n    tag_130:\n        /* \"@openzeppelin/contracts-upgradeable/access/OwnableUpgradeable.sol\":1929:1967  __Ownable_init_unchained(initialOwner) */\n      tag_133\n        /* \"@openzeppelin/contracts-upgradeable/access/OwnableUpgradeable.sol\":1954:1966  initialOwner */\n      dup2\n        /* \"@openzeppelin/contracts-upgradeable/access/OwnableUpgradeable.sol\":1929:1953  __Ownable_init_unchained */\n      tag_134\n        /* \"@openzeppelin/contracts-upgradeable/access/OwnableUpgradeable.sol\":1929:1967  __Ownable_init_unchained(initialOwner) */\n      jump\t// in\n    tag_133:\n        /* \"@openzeppelin/contracts-upgradeable/access/OwnableUpgradeable.sol\":1847:1974  function __Ownable_init(address initialOwner) internal onlyInitializing {... */\n      pop\n      jump\t// out\n        /* \"@openzeppelin/contracts/proxy/ERC1967/ERC1967Utils.sol\":1441:1579  function getImplementation() internal view returns (address) {... */\n    tag_99:\n        /* \"@openzeppelin/contracts/proxy/ERC1967/ERC1967Utils.sol\":1493:1500  address */\n      0x00\n        /* \"@openzeppelin/contracts/proxy/ERC1967/ERC1967Utils.sol\":1519:1566  StorageSlot.getAddressSlot(IMPLEMENTATION_SLOT) */\n      tag_136\n        /* \"@openzeppelin/contracts/proxy/ERC1967/ERC1967Utils.sol\":811:877  0x360894a13ba1a3210667c828492db98dca3e2076cc3735a920a3ca505d382bbc */\n      0x360894a13ba1a3210667c828492db98dca3e2076cc3735a920a3ca505d382bbc\n        /* \"@openzeppelin/contracts/proxy/ERC1967/ERC1967Utils.sol\":1546:1565  IMPLEMENTATION_SLOT */\n      0x00\n      shl\n        /* \"@openzeppelin/contracts/proxy/ERC1967/ERC1967Utils.sol\":1519:1545  StorageSlot.getAddressSlot */\n      tag_137\n        /* \"@openzeppelin/contracts/proxy/ERC1967/ERC1967Utils.sol\":1519:1566  StorageSlot.getAddressSlot(IMPLEMENTATION_SLOT) */\n      jump\t// in\n    tag_136:\n        /* \"@openzeppelin/contracts/proxy/ERC1967/ERC1967Utils.sol\":1519:1572  StorageSlot.getAddressSlot(IMPLEMENTATION_SLOT).value */\n      0x00\n      add\n      0x00\n      swap1\n      sload\n      swap1\n      0x0100\n      exp\n      swap1\n      div\n      0xffffffffffffffffffffffffffffffffffffffff\n      and\n        /* \"@openzeppelin/contracts/proxy/ERC1967/ERC1967Utils.sol\":1512:1572  return StorageSlot.getAddressSlot(IMPLEMENTATION_SLOT).value */\n      swap1\n      pop\n        /* \"@openzeppelin/contracts/proxy/ERC1967/ERC1967Utils.sol\":1441:1579  function getImplementation() internal view returns (address) {... */\n      swap1\n      jump\t// out\n        /* \"@openzeppelin/contracts/proxy/ERC1967/ERC1967Utils.sol\":2264:2608  function upgradeToAndCall(address newImplementation, bytes memory data) internal {... */\n    tag_115:\n        /* \"@openzeppelin/contracts/proxy/ERC1967/ERC1967Utils.sol\":2355:2392  _setImplementation(newImplementation) */\n      tag_139\n        /* \"@openzeppelin/contracts/proxy/ERC1967/ERC1967Utils.sol\":2374:2391  newImplementation */\n      dup3\n        /* \"@openzeppelin/contracts/proxy/ERC1967/ERC1967Utils.sol\":2355:2373  _setImplementation */\n      tag_140\n        /* \"@openzeppelin/contracts/proxy/ERC1967/ERC1967Utils.sol\":2355:2392  _setImplementation(newImplementation) */\n      jump\t// in\n    tag_139:\n        /* \"@openzeppelin/contracts/proxy/ERC1967/ERC1967Utils.sol\":2425:2442  newImplementation */\n      dup2\n        /* \"@openzeppelin/contracts/proxy/ERC1967/ERC1967Utils.sol\":2407:2443  IERC1967.Upgraded(newImplementation) */\n      0xffffffffffffffffffffffffffffffffffffffff\n      and\n      0xbc7cd75a20ee27fd9adebab32041f755214dbc6bffa90cc0225b39da2e5c2d3b\n      mload(0x40)\n      mload(0x40)\n      dup1\n      swap2\n      sub\n      swap1\n      log2\n        /* \"@openzeppelin/contracts/proxy/ERC1967/ERC1967Utils.sol\":2472:2473  0 */\n      0x00\n        /* \"@openzeppelin/contracts/proxy/ERC1967/ERC1967Utils.sol\":2458:2462  data */\n      dup2\n        /* \"@openzeppelin/contracts/proxy/ERC1967/ERC1967Utils.sol\":2458:2469  data.length */\n      mload\n        /* \"@openzeppelin/contracts/proxy/ERC1967/ERC1967Utils.sol\":2458:2473  data.length > 0 */\n      gt\n        /* \"@openzeppelin/contracts/proxy/ERC1967/ERC1967Utils.sol\":2454:2602  if (data.length > 0) {... */\n      iszero\n      tag_141\n      jumpi\n        /* \"@openzeppelin/contracts/proxy/ERC1967/ERC1967Utils.sol\":2489:2542  Address.functionDelegateCall(newImplementation, data) */\n      tag_142\n        /* \"@openzeppelin/contracts/proxy/ERC1967/ERC1967Utils.sol\":2518:2535  newImplementation */\n      dup3\n        /* \"@openzeppelin/contracts/proxy/ERC1967/ERC1967Utils.sol\":2537:2541  data */\n      dup3\n        /* \"@openzeppelin/contracts/proxy/ERC1967/ERC1967Utils.sol\":2489:2517  Address.functionDelegateCall */\n      tag_143\n        /* \"@openzeppelin/contracts/proxy/ERC1967/ERC1967Utils.sol\":2489:2542  Address.functionDelegateCall(newImplementation, data) */\n      jump\t// in\n    tag_142:\n      pop\n        /* \"@openzeppelin/contracts/proxy/ERC1967/ERC1967Utils.sol\":2454:2602  if (data.length > 0) {... */\n      jump(tag_144)\n    tag_141:\n        /* \"@openzeppelin/contracts/proxy/ERC1967/ERC1967Utils.sol\":2573:2591  _checkNonPayable() */\n      tag_145\n        /* \"@openzeppelin/contracts/proxy/ERC1967/ERC1967Utils.sol\":2573:2589  _checkNonPayable */\n      tag_146\n        /* \"@openzeppelin/contracts/proxy/ERC1967/ERC1967Utils.sol\":2573:2591  _checkNonPayable() */\n      jump\t// in\n    tag_145:\n        /* \"@openzeppelin/contracts/proxy/ERC1967/ERC1967Utils.sol\":2454:2602  if (data.length > 0) {... */\n    tag_144:\n        /* \"@openzeppelin/contracts/proxy/ERC1967/ERC1967Utils.sol\":2264:2608  function upgradeToAndCall(address newImplementation, bytes memory data) internal {... */\n      pop\n      pop\n      jump\t// out\n        /* \"@openzeppelin/contracts-upgradeable/utils/ContextUpgradeable.sol\":887:983  function _msgSender() internal view virtual returns (address) {... */\n    tag_120:\n        /* \"@openzeppelin/contracts-upgradeable/utils/ContextUpgradeable.sol\":940:947  address */\n      0x00\n        /* \"@openzeppelin/contracts-upgradeable/utils/ContextUpgradeable.sol\":966:976  msg.sender */\n      caller\n        /* \"@openzeppelin/contracts-upgradeable/utils/ContextUpgradeable.sol\":959:976  return msg.sender */\n      swap1\n      pop\n        /* \"@openzeppelin/contracts-upgradeable/utils/ContextUpgradeable.sol\":887:983  function _msgSender() internal view virtual returns (address) {... */\n      swap1\n      jump\t// out\n        /* \"@openzeppelin/contracts-upgradeable/proxy/utils/Initializable.sol\":7084:7225  function _checkInitializing() internal view virtual {... */\n    tag_131:\n        /* \"@openzeppelin/contracts-upgradeable/proxy/utils/Initializable.sol\":7151:7168  _isInitializing() */\n      tag_149\n        /* \"@openzeppelin/contracts-upgradeable/proxy/utils/Initializable.sol\":7151:7166  _isInitializing */\n      tag_150\n        /* \"@openzeppelin/contracts-upgradeable/proxy/utils/Initializable.sol\":7151:7168  _isInitializing() */\n      jump\t// in\n    tag_149:\n        /* \"@openzeppelin/contracts-upgradeable/proxy/utils/Initializable.sol\":7146:7219  if (!_isInitializing()) {... */\n      tag_151\n      jumpi\n        /* \"@openzeppelin/contracts-upgradeable/proxy/utils/Initializable.sol\":7191:7208  NotInitializing() */\n      mload(0x40)\n      0xd7e6bcf800000000000000000000000000000000000000000000000000000000\n      dup2\n      mstore\n      0x04\n      add\n      mload(0x40)\n      dup1\n      swap2\n      sub\n      swap1\n      revert\n        /* \"@openzeppelin/contracts-upgradeable/proxy/utils/Initializable.sol\":7146:7219  if (!_isInitializing()) {... */\n    tag_151:\n        /* \"@openzeppelin/contracts-upgradeable/proxy/utils/Initializable.sol\":7084:7225  function _checkInitializing() internal view virtual {... */\n      jump\t// out\n        /* \"@openzeppelin/contracts-upgradeable/access/OwnableUpgradeable.sol\":1980:2215  function __Ownable_init_unchained(address initialOwner) internal onlyInitializing {... */\n    tag_134:\n        /* \"@openzeppelin/contracts-upgradeable/proxy/utils/Initializable.sol\":6931:6951  _checkInitializing() */\n      tag_153\n        /* \"@openzeppelin/contracts-upgradeable/proxy/utils/Initializable.sol\":6931:6949  _checkInitializing */\n      tag_131\n        /* \"@openzeppelin/contracts-upgradeable/proxy/utils/Initializable.sol\":6931:6951  _checkInitializing() */\n      jump\t// in\n    tag_153:\n        /* \"@openzeppelin/contracts-upgradeable/access/OwnableUpgradeable.sol\":2100:2101  0 */\n      0x00\n        /* \"@openzeppelin/contracts-upgradeable/access/OwnableUpgradeable.sol\":2076:2102  initialOwner == address(0) */\n      0xffffffffffffffffffffffffffffffffffffffff\n      and\n        /* \"@openzeppelin/contracts-upgradeable/access/OwnableUpgradeable.sol\":2076:2088  initialOwner */\n      dup2\n        /* \"@openzeppelin/contracts-upgradeable/access/OwnableUpgradeable.sol\":2076:2102  initialOwner == address(0) */\n      0xffffffffffffffffffffffffffffffffffffffff\n      and\n      sub\n        /* \"@openzeppelin/contracts-upgradeable/access/OwnableUpgradeable.sol\":2072:2167  if (initialOwner == address(0)) {... */\n      tag_155\n      jumpi\n        /* \"@openzeppelin/contracts-upgradeable/access/OwnableUpgradeable.sol\":2153:2154  0 */\n      0x00\n        /* \"@openzeppelin/contracts-upgradeable/access/OwnableUpgradeable.sol\":2125:2156  OwnableInvalidOwner(address(0)) */\n      mload(0x40)\n      0x1e4fbdf700000000000000000000000000000000000000000000000000000000\n      dup2\n      mstore\n      0x04\n      add\n      tag_156\n      swap2\n      swap1\n      tag_33\n      jump\t// in\n    tag_156:\n      mload(0x40)\n      dup1\n      swap2\n      sub\n      swap1\n      revert\n        /* \"@openzeppelin/contracts-upgradeable/access/OwnableUpgradeable.sol\":2072:2167  if (initialOwner == address(0)) {... */\n    tag_155:\n        /* \"@openzeppelin/contracts-upgradeable/access/OwnableUpgradeable.sol\":2176:2208  _transferOwnership(initialOwner) */\n      tag_157\n        /* \"@openzeppelin/contracts-upgradeable/access/OwnableUpgradeable.sol\":2195:2207  initialOwner */\n      dup2\n        /* \"@openzeppelin/contracts-upgradeable/access/OwnableUpgradeable.sol\":2176:2194  _transferOwnership */\n      tag_69\n        /* \"@openzeppelin/contracts-upgradeable/access/OwnableUpgradeable.sol\":2176:2208  _transferOwnership(initialOwner) */\n      jump\t// in\n    tag_157:\n        /* \"@openzeppelin/contracts-upgradeable/access/OwnableUpgradeable.sol\":1980:2215  function __Ownable_init_unchained(address initialOwner) internal onlyInitializing {... */\n      pop\n      jump\t// out\n        /* \"@openzeppelin/contracts/utils/StorageSlot.sol\":1899:2062  function getAddressSlot(bytes32 slot) internal pure returns (AddressSlot storage r) {... */\n    tag_137:\n        /* \"@openzeppelin/contracts/utils/StorageSlot.sol\":1960:1981  AddressSlot storage r */\n      0x00\n        /* \"@openzeppelin/contracts/utils/StorageSlot.sol\":2042:2046  slot */\n      dup2\n        /* \"@openzeppelin/contracts/utils/StorageSlot.sol\":2032:2046  r.slot := slot */\n      swap1\n      pop\n        /* \"@openzeppelin/contracts/utils/StorageSlot.sol\":1899:2062  function getAddressSlot(bytes32 slot) internal pure returns (AddressSlot storage r) {... */\n      swap2\n      swap1\n      pop\n      jump\t// out\n        /* \"@openzeppelin/contracts/proxy/ERC1967/ERC1967Utils.sol\":1671:1952  function _setImplementation(address newImplementation) private {... */\n    tag_140:\n        /* \"@openzeppelin/contracts/proxy/ERC1967/ERC1967Utils.sol\":1781:1782  0 */\n      0x00\n        /* \"@openzeppelin/contracts/proxy/ERC1967/ERC1967Utils.sol\":1748:1765  newImplementation */\n      dup2\n        /* \"@openzeppelin/contracts/proxy/ERC1967/ERC1967Utils.sol\":1748:1777  newImplementation.code.length */\n      0xffffffffffffffffffffffffffffffffffffffff\n      and\n      extcodesize\n        /* \"@openzeppelin/contracts/proxy/ERC1967/ERC1967Utils.sol\":1748:1782  newImplementation.code.length == 0 */\n      sub\n        /* \"@openzeppelin/contracts/proxy/ERC1967/ERC1967Utils.sol\":1744:1863  if (newImplementation.code.length == 0) {... */\n      tag_160\n      jumpi\n        /* \"@openzeppelin/contracts/proxy/ERC1967/ERC1967Utils.sol\":1834:1851  newImplementation */\n      dup1\n        /* \"@openzeppelin/contracts/proxy/ERC1967/ERC1967Utils.sol\":1805:1852  ERC1967InvalidImplementation(newImplementation) */\n      mload(0x40)\n      0x4c9c8ce300000000000000000000000000000000000000000000000000000000\n      dup2\n      mstore\n      0x04\n      add\n      tag_161\n      swap2\n      swap1\n      tag_33\n      jump\t// in\n    tag_161:\n      mload(0x40)\n      dup1\n      swap2\n      sub\n      swap1\n      revert\n        /* \"@openzeppelin/contracts/proxy/ERC1967/ERC1967Utils.sol\":1744:1863  if (newImplementation.code.length == 0) {... */\n    tag_160:\n        /* \"@openzeppelin/contracts/proxy/ERC1967/ERC1967Utils.sol\":1928:1945  newImplementation */\n      dup1\n        /* \"@openzeppelin/contracts/proxy/ERC1967/ERC1967Utils.sol\":1872:1919  StorageSlot.getAddressSlot(IMPLEMENTATION_SLOT) */\n      tag_162\n        /* \"@openzeppelin/contracts/proxy/ERC1967/ERC1967Utils.sol\":811:877  0x360894a13ba1a3210667c828492db98dca3e2076cc3735a920a3ca505d382bbc */\n      0x360894a13ba1a3210667c828492db98dca3e2076cc3735a920a3ca505d382bbc\n        /* \"@openzeppelin/contracts/proxy/ERC1967/ERC1967Utils.sol\":1899:1918  IMPLEMENTATION_SLOT */\n      0x00\n      shl\n        /* \"@openzeppelin/contracts/proxy/ERC1967/ERC1967Utils.sol\":1872:1898  StorageSlot.getAddressSlot */\n      tag_137\n        /* \"@openzeppelin/contracts/proxy/ERC1967/ERC1967Utils.sol\":1872:1919  StorageSlot.getAddressSlot(IMPLEMENTATION_SLOT) */\n      jump\t// in\n    tag_162:\n        /* \"@openzeppelin/contracts/proxy/ERC1967/ERC1967Utils.sol\":1872:1925  StorageSlot.getAddressSlot(IMPLEMENTATION_SLOT).value */\n      0x00\n      add\n      0x00\n        /* \"@openzeppelin/contracts/proxy/ERC1967/ERC1967Utils.sol\":1872:1945  StorageSlot.getAddressSlot(IMPLEMENTATION_SLOT).value = newImplementation */\n      0x0100\n      exp\n      dup2\n      sload\n      dup2\n      0xffffffffffffffffffffffffffffffffffffffff\n      mul\n      not\n      and\n      swap1\n      dup4\n      0xffffffffffffffffffffffffffffffffffffffff\n      and\n      mul\n      or\n      swap1\n      sstore\n      pop\n        /* \"@openzeppelin/contracts/proxy/ERC1967/ERC1967Utils.sol\":1671:1952  function _setImplementation(address newImplementation) private {... */\n      pop\n      jump\t// out\n        /* \"@openzeppelin/contracts/utils/Address.sol\":3916:4169  function functionDelegateCall(address target, bytes memory data) internal returns (bytes memory) {... */\n    tag_143:\n        /* \"@openzeppelin/contracts/utils/Address.sol\":3999:4011  bytes memory */\n      0x60\n        /* \"@openzeppelin/contracts/utils/Address.sol\":4024:4036  bool success */\n      0x00\n        /* \"@openzeppelin/contracts/utils/Address.sol\":4038:4061  bytes memory returndata */\n      dup1\n        /* \"@openzeppelin/contracts/utils/Address.sol\":4065:4071  target */\n      dup5\n        /* \"@openzeppelin/contracts/utils/Address.sol\":4065:4084  target.delegatecall */\n      0xffffffffffffffffffffffffffffffffffffffff\n      and\n        /* \"@openzeppelin/contracts/utils/Address.sol\":4085:4089  data */\n      dup5\n        /* \"@openzeppelin/contracts/utils/Address.sol\":4065:4090  target.delegatecall(data) */\n      mload(0x40)\n      tag_164\n      swap2\n      swap1\n      tag_165\n      jump\t// in\n    tag_164:\n      0x00\n      mload(0x40)\n      dup1\n      dup4\n      sub\n      dup2\n      dup6\n      gas\n      delegatecall\n      swap2\n      pop\n      pop\n      returndatasize\n      dup1\n      0x00\n      dup2\n      eq\n      tag_168\n      jumpi\n      mload(0x40)\n      swap2\n      pop\n      and(add(returndatasize, 0x3f), not(0x1f))\n      dup3\n      add\n      0x40\n      mstore\n      returndatasize\n      dup3\n      mstore\n      returndatasize\n      0x00\n      0x20\n      dup5\n      add\n      returndatacopy\n      jump(tag_167)\n    tag_168:\n      0x60\n      swap2\n      pop\n    tag_167:\n      pop\n        /* \"@openzeppelin/contracts/utils/Address.sol\":4023:4090  (bool success, bytes memory returndata) = target.delegatecall(data) */\n      swap2\n      pop\n      swap2\n      pop\n        /* \"@openzeppelin/contracts/utils/Address.sol\":4107:4162  verifyCallResultFromTarget(target, success, returndata) */\n      tag_169\n        /* \"@openzeppelin/contracts/utils/Address.sol\":4134:4140  target */\n      dup6\n        /* \"@openzeppelin/contracts/utils/Address.sol\":4142:4149  success */\n      dup4\n        /* \"@openzeppelin/contracts/utils/Address.sol\":4151:4161  returndata */\n      dup4\n        /* \"@openzeppelin/contracts/utils/Address.sol\":4107:4133  verifyCallResultFromTarget */\n      tag_170\n        /* \"@openzeppelin/contracts/utils/Address.sol\":4107:4162  verifyCallResultFromTarget(target, success, returndata) */\n      jump\t// in\n    tag_169:\n        /* \"@openzeppelin/contracts/utils/Address.sol\":4100:4162  return verifyCallResultFromTarget(target, success, returndata) */\n      swap3\n      pop\n      pop\n      pop\n        /* \"@openzeppelin/contracts/utils/Address.sol\":3916:4169  function functionDelegateCall(address target, bytes memory data) internal returns (bytes memory) {... */\n      swap3\n      swap2\n      pop\n      pop\n      jump\t// out\n        /* \"@openzeppelin/contracts/proxy/ERC1967/ERC1967Utils.sol\":6113:6235  function _checkNonPayable() private {... */\n    tag_146:\n        /* \"@openzeppelin/contracts/proxy/ERC1967/ERC1967Utils.sol\":6175:6176  0 */\n      0x00\n        /* \"@openzeppelin/contracts/proxy/ERC1967/ERC1967Utils.sol\":6163:6172  msg.value */\n      callvalue\n        /* \"@openzeppelin/contracts/proxy/ERC1967/ERC1967Utils.sol\":6163:6176  msg.value > 0 */\n      gt\n        /* \"@openzeppelin/contracts/proxy/ERC1967/ERC1967Utils.sol\":6159:6229  if (msg.value > 0) {... */\n      iszero\n      tag_172\n      jumpi\n        /* \"@openzeppelin/contracts/proxy/ERC1967/ERC1967Utils.sol\":6199:6218  ERC1967NonPayable() */\n      mload(0x40)\n      0xb398979f00000000000000000000000000000000000000000000000000000000\n      dup2\n      mstore\n      0x04\n      add\n      mload(0x40)\n      dup1\n      swap2\n      sub\n      swap1\n      revert\n        /* \"@openzeppelin/contracts/proxy/ERC1967/ERC1967Utils.sol\":6159:6229  if (msg.value > 0) {... */\n    tag_172:\n        /* \"@openzeppelin/contracts/proxy/ERC1967/ERC1967Utils.sol\":6113:6235  function _checkNonPayable() private {... */\n      jump\t// out\n        /* \"@openzeppelin/contracts-upgradeable/proxy/utils/Initializable.sol\":8487:8607  function _isInitializing() internal view returns (bool) {... */\n    tag_150:\n        /* \"@openzeppelin/contracts-upgradeable/proxy/utils/Initializable.sol\":8537:8541  bool */\n      0x00\n        /* \"@openzeppelin/contracts-upgradeable/proxy/utils/Initializable.sol\":8560:8586  _getInitializableStorage() */\n      tag_174\n        /* \"@openzeppelin/contracts-upgradeable/proxy/utils/Initializable.sol\":8560:8584  _getInitializableStorage */\n      tag_78\n        /* \"@openzeppelin/contracts-upgradeable/proxy/utils/Initializable.sol\":8560:8586  _getInitializableStorage() */\n      jump\t// in\n    tag_174:\n        /* \"@openzeppelin/contracts-upgradeable/proxy/utils/Initializable.sol\":8560:8600  _getInitializableStorage()._initializing */\n      0x00\n      add\n      0x08\n      swap1\n      sload\n      swap1\n      0x0100\n      exp\n      swap1\n      div\n      0xff\n      and\n        /* \"@openzeppelin/contracts-upgradeable/proxy/utils/Initializable.sol\":8553:8600  return _getInitializableStorage()._initializing */\n      swap1\n      pop\n        /* \"@openzeppelin/contracts-upgradeable/proxy/utils/Initializable.sol\":8487:8607  function _isInitializing() internal view returns (bool) {... */\n      swap1\n      jump\t// out\n        /* \"@openzeppelin/contracts/utils/Address.sol\":4437:5019  function verifyCallResultFromTarget(... */\n    tag_170:\n        /* \"@openzeppelin/contracts/utils/Address.sol\":4581:4593  bytes memory */\n      0x60\n        /* \"@openzeppelin/contracts/utils/Address.sol\":4610:4617  success */\n      dup3\n        /* \"@openzeppelin/contracts/utils/Address.sol\":4605:5013  if (!success) {... */\n      tag_176\n      jumpi\n        /* \"@openzeppelin/contracts/utils/Address.sol\":4633:4652  _revert(returndata) */\n      tag_177\n        /* \"@openzeppelin/contracts/utils/Address.sol\":4641:4651  returndata */\n      dup3\n        /* \"@openzeppelin/contracts/utils/Address.sol\":4633:4640  _revert */\n      tag_178\n        /* \"@openzeppelin/contracts/utils/Address.sol\":4633:4652  _revert(returndata) */\n      jump\t// in\n    tag_177:\n        /* \"@openzeppelin/contracts/utils/Address.sol\":4605:5013  if (!success) {... */\n      jump(tag_179)\n    tag_176:\n        /* \"@openzeppelin/contracts/utils/Address.sol\":4878:4879  0 */\n      0x00\n        /* \"@openzeppelin/contracts/utils/Address.sol\":4857:4867  returndata */\n      dup3\n        /* \"@openzeppelin/contracts/utils/Address.sol\":4857:4874  returndata.length */\n      mload\n        /* \"@openzeppelin/contracts/utils/Address.sol\":4857:4879  returndata.length == 0 */\n      eq\n        /* \"@openzeppelin/contracts/utils/Address.sol\":4857:4906  returndata.length == 0 && target.code.length == 0 */\n      dup1\n      iszero\n      tag_180\n      jumpi\n      pop\n        /* \"@openzeppelin/contracts/utils/Address.sol\":4905:4906  0 */\n      0x00\n        /* \"@openzeppelin/contracts/utils/Address.sol\":4883:4889  target */\n      dup5\n        /* \"@openzeppelin/contracts/utils/Address.sol\":4883:4901  target.code.length */\n      0xffffffffffffffffffffffffffffffffffffffff\n      and\n      extcodesize\n        /* \"@openzeppelin/contracts/utils/Address.sol\":4883:4906  target.code.length == 0 */\n      eq\n        /* \"@openzeppelin/contracts/utils/Address.sol\":4857:4906  returndata.length == 0 && target.code.length == 0 */\n    tag_180:\n        /* \"@openzeppelin/contracts/utils/Address.sol\":4853:4972  if (returndata.length == 0 && target.code.length == 0) {... */\n      iszero\n      tag_181\n      jumpi\n        /* \"@openzeppelin/contracts/utils/Address.sol\":4950:4956  target */\n      dup4\n        /* \"@openzeppelin/contracts/utils/Address.sol\":4933:4957  AddressEmptyCode(target) */\n      mload(0x40)\n      0x9996b31500000000000000000000000000000000000000000000000000000000\n      dup2\n      mstore\n      0x04\n      add\n      tag_182\n      swap2\n      swap1\n      tag_33\n      jump\t// in\n    tag_182:\n      mload(0x40)\n      dup1\n      swap2\n      sub\n      swap1\n      revert\n        /* \"@openzeppelin/contracts/utils/Address.sol\":4853:4972  if (returndata.length == 0 && target.code.length == 0) {... */\n    tag_181:\n        /* \"@openzeppelin/contracts/utils/Address.sol\":4992:5002  returndata */\n      dup2\n        /* \"@openzeppelin/contracts/utils/Address.sol\":4985:5002  return returndata */\n      swap1\n      pop\n      jump(tag_175)\n        /* \"@openzeppelin/contracts/utils/Address.sol\":4605:5013  if (!success) {... */\n    tag_179:\n        /* \"@openzeppelin/contracts/utils/Address.sol\":4437:5019  function verifyCallResultFromTarget(... */\n    tag_175:\n      swap4\n      swap3\n      pop\n      pop\n      pop\n      jump\t// out\n        /* \"@openzeppelin/contracts/utils/Address.sol\":5559:6046  function _revert(bytes memory returndata) private pure {... */\n    tag_178:\n        /* \"@openzeppelin/contracts/utils/Address.sol\":5710:5711  0 */\n      0x00\n        /* \"@openzeppelin/contracts/utils/Address.sol\":5690:5700  returndata */\n      dup2\n        /* \"@openzeppelin/contracts/utils/Address.sol\":5690:5707  returndata.length */\n      mload\n        /* \"@openzeppelin/contracts/utils/Address.sol\":5690:5711  returndata.length > 0 */\n      gt\n        /* \"@openzeppelin/contracts/utils/Address.sol\":5686:6040  if (returndata.length > 0) {... */\n      iszero\n      tag_184\n      jumpi\n        /* \"@openzeppelin/contracts/utils/Address.sol\":5887:5897  returndata */\n      dup1\n        /* \"@openzeppelin/contracts/utils/Address.sol\":5881:5898  mload(returndata) */\n      mload\n        /* \"@openzeppelin/contracts/utils/Address.sol\":5943:5958  returndata_size */\n      dup1\n        /* \"@openzeppelin/contracts/utils/Address.sol\":5930:5940  returndata */\n      dup3\n        /* \"@openzeppelin/contracts/utils/Address.sol\":5926:5928  32 */\n      0x20\n        /* \"@openzeppelin/contracts/utils/Address.sol\":5922:5941  add(32, returndata) */\n      add\n        /* \"@openzeppelin/contracts/utils/Address.sol\":5915:5959  revert(add(32, returndata), returndata_size) */\n      revert\n        /* \"@openzeppelin/contracts/utils/Address.sol\":5686:6040  if (returndata.length > 0) {... */\n    tag_184:\n        /* \"@openzeppelin/contracts/utils/Address.sol\":6010:6029  Errors.FailedCall() */\n      mload(0x40)\n      0xd6bda27500000000000000000000000000000000000000000000000000000000\n      dup2\n      mstore\n      0x04\n      add\n      mload(0x40)\n      dup1\n      swap2\n      sub\n      swap1\n      revert\n        /* \"#utility.yul\":7:84   */\n    tag_186:\n        /* \"#utility.yul\":44:51   */\n      0x00\n        /* \"#utility.yul\":73:78   */\n      dup2\n        /* \"#utility.yul\":62:78   */\n      swap1\n      pop\n        /* \"#utility.yul\":7:84   */\n      swap2\n      swap1\n      pop\n      jump\t// out\n        /* \"#utility.yul\":90:208   */\n    tag_187:\n        /* \"#utility.yul\":177:201   */\n      tag_228\n        /* \"#utility.yul\":195:200   */\n      dup2\n        /* \"#utility.yul\":177:201   */\n      tag_186\n      jump\t// in\n    tag_228:\n        /* \"#utility.yul\":172:175   */\n      dup3\n        /* \"#utility.yul\":165:202   */\n      mstore\n        /* \"#utility.yul\":90:208   */\n      pop\n      pop\n      jump\t// out\n        /* \"#utility.yul\":214:436   */\n    tag_16:\n        /* \"#utility.yul\":307:311   */\n      0x00\n        /* \"#utility.yul\":345:347   */\n      0x20\n        /* \"#utility.yul\":334:343   */\n      dup3\n        /* \"#utility.yul\":330:348   */\n      add\n        /* \"#utility.yul\":322:348   */\n      swap1\n      pop\n        /* \"#utility.yul\":358:429   */\n      tag_230\n        /* \"#utility.yul\":426:427   */\n      0x00\n        /* \"#utility.yul\":415:424   */\n      dup4\n        /* \"#utility.yul\":411:428   */\n      add\n        /* \"#utility.yul\":402:408   */\n      dup5\n        /* \"#utility.yul\":358:429   */\n      tag_187\n      jump\t// in\n    tag_230:\n        /* \"#utility.yul\":214:436   */\n      swap3\n      swap2\n      pop\n      pop\n      jump\t// out\n        /* \"#utility.yul\":442:517   */\n    tag_188:\n        /* \"#utility.yul\":475:481   */\n      0x00\n        /* \"#utility.yul\":508:510   */\n      0x40\n        /* \"#utility.yul\":502:511   */\n      mload\n        /* \"#utility.yul\":492:511   */\n      swap1\n      pop\n        /* \"#utility.yul\":442:517   */\n      swap1\n      jump\t// out\n        /* \"#utility.yul\":523:640   */\n    tag_189:\n        /* \"#utility.yul\":632:633   */\n      0x00\n        /* \"#utility.yul\":629:630   */\n      dup1\n        /* \"#utility.yul\":622:634   */\n      revert\n        /* \"#utility.yul\":646:763   */\n    tag_190:\n        /* \"#utility.yul\":755:756   */\n      0x00\n        /* \"#utility.yul\":752:753   */\n      dup1\n        /* \"#utility.yul\":745:757   */\n      revert\n        /* \"#utility.yul\":769:895   */\n    tag_191:\n        /* \"#utility.yul\":806:813   */\n      0x00\n        /* \"#utility.yul\":846:888   */\n      0xffffffffffffffffffffffffffffffffffffffff\n        /* \"#utility.yul\":839:844   */\n      dup3\n        /* \"#utility.yul\":835:889   */\n      and\n        /* \"#utility.yul\":824:889   */\n      swap1\n      pop\n        /* \"#utility.yul\":769:895   */\n      swap2\n      swap1\n      pop\n      jump\t// out\n        /* \"#utility.yul\":901:997   */\n    tag_192:\n        /* \"#utility.yul\":938:945   */\n      0x00\n        /* \"#utility.yul\":967:991   */\n      tag_236\n        /* \"#utility.yul\":985:990   */\n      dup3\n        /* \"#utility.yul\":967:991   */\n      tag_191\n      jump\t// in\n    tag_236:\n        /* \"#utility.yul\":956:991   */\n      swap1\n      pop\n        /* \"#utility.yul\":901:997   */\n      swap2\n      swap1\n      pop\n      jump\t// out\n        /* \"#utility.yul\":1003:1125   */\n    tag_193:\n        /* \"#utility.yul\":1076:1100   */\n      tag_238\n        /* \"#utility.yul\":1094:1099   */\n      dup2\n        /* \"#utility.yul\":1076:1100   */\n      tag_192\n      jump\t// in\n    tag_238:\n        /* \"#utility.yul\":1069:1074   */\n      dup2\n        /* \"#utility.yul\":1066:1101   */\n      eq\n        /* \"#utility.yul\":1056:1119   */\n      tag_239\n      jumpi\n        /* \"#utility.yul\":1115:1116   */\n      0x00\n        /* \"#utility.yul\":1112:1113   */\n      dup1\n        /* \"#utility.yul\":1105:1117   */\n      revert\n        /* \"#utility.yul\":1056:1119   */\n    tag_239:\n        /* \"#utility.yul\":1003:1125   */\n      pop\n      jump\t// out\n        /* \"#utility.yul\":1131:1270   */\n    tag_194:\n        /* \"#utility.yul\":1177:1182   */\n      0x00\n        /* \"#utility.yul\":1215:1221   */\n      dup2\n        /* \"#utility.yul\":1202:1222   */\n      calldataload\n        /* \"#utility.yul\":1193:1222   */\n      swap1\n      pop\n        /* \"#utility.yul\":1231:1264   */\n      tag_241\n        /* \"#utility.yul\":1258:1263   */\n      dup2\n        /* \"#utility.yul\":1231:1264   */\n      tag_193\n      jump\t// in\n    tag_241:\n        /* \"#utility.yul\":1131:1270   */\n      swap3\n      swap2\n      pop\n      pop\n      jump\t// out\n        /* \"#utility.yul\":1276:1393   */\n    tag_195:\n        /* \"#utility.yul\":1385:1386   */\n      0x00\n        /* \"#utility.yul\":1382:1383   */\n      dup1\n        /* \"#utility.yul\":1375:1387   */\n      revert\n        /* \"#utility.yul\":1399:1516   */\n    tag_196:\n        /* \"#utility.yul\":1508:1509   */\n      0x00\n        /* \"#utility.yul\":1505:1506   */\n      dup1\n        /* \"#utility.yul\":1498:1510   */\n      revert\n        /* \"#utility.yul\":1522:1624   */\n    tag_197:\n        /* \"#utility.yul\":1563:1569   */\n      0x00\n        /* \"#utility.yul\":1614:1616   */\n      0x1f\n        /* \"#utility.yul\":1610:1617   */\n      not\n        /* \"#utility.yul\":1605:1607   */\n      0x1f\n        /* \"#utility.yul\":1598:1603   */\n      dup4\n        /* \"#utility.yul\":1594:1608   */\n      add\n        /* \"#utility.yul\":1590:1618   */\n      and\n        /* \"#utility.yul\":1580:1618   */\n      swap1\n      pop\n        /* \"#utility.yul\":1522:1624   */\n      swap2\n      swap1\n      pop\n      jump\t// out\n        /* \"#utility.yul\":1630:1810   */\n    tag_198:\n        /* \"#utility.yul\":1678:1755   */\n      0x4e487b7100000000000000000000000000000000000000000000000000000000\n        /* \"#utility.yul\":1675:1676   */\n      0x00\n        /* \"#utility.yul\":1668:1756   */\n      mstore\n        /* \"#utility.yul\":1775:1779   */\n      0x41\n        /* \"#utility.yul\":1772:1773   */\n      0x04\n        /* \"#utility.yul\":1765:1780   */\n      mstore\n        /* \"#utility.yul\":1799:1803   */\n      0x24\n        /* \"#utility.yul\":1796:1797   */\n      0x00\n        /* \"#utility.yul\":1789:1804   */\n      revert\n        /* \"#utility.yul\":1816:2097   */\n    tag_199:\n        /* \"#utility.yul\":1899:1926   */\n      tag_247\n        /* \"#utility.yul\":1921:1925   */\n      dup3\n        /* \"#utility.yul\":1899:1926   */\n      tag_197\n      jump\t// in\n    tag_247:\n        /* \"#utility.yul\":1891:1897   */\n      dup2\n        /* \"#utility.yul\":1887:1927   */\n      add\n        /* \"#utility.yul\":2029:2035   */\n      dup2\n        /* \"#utility.yul\":2017:2027   */\n      dup2\n        /* \"#utility.yul\":2014:2036   */\n      lt\n        /* \"#utility.yul\":1993:2011   */\n      0xffffffffffffffff\n        /* \"#utility.yul\":1981:1991   */\n      dup3\n        /* \"#utility.yul\":1978:2012   */\n      gt\n        /* \"#utility.yul\":1975:2037   */\n      or\n        /* \"#utility.yul\":1972:2060   */\n      iszero\n      tag_248\n      jumpi\n        /* \"#utility.yul\":2040:2058   */\n      tag_249\n      tag_198\n      jump\t// in\n    tag_249:\n        /* \"#utility.yul\":1972:2060   */\n    tag_248:\n        /* \"#utility.yul\":2080:2090   */\n      dup1\n        /* \"#utility.yul\":2076:2078   */\n      0x40\n        /* \"#utility.yul\":2069:2091   */\n      mstore\n        /* \"#utility.yul\":1859:2097   */\n      pop\n        /* \"#utility.yul\":1816:2097   */\n      pop\n      pop\n      jump\t// out\n        /* \"#utility.yul\":2103:2232   */\n    tag_200:\n        /* \"#utility.yul\":2137:2143   */\n      0x00\n        /* \"#utility.yul\":2164:2184   */\n      tag_251\n      tag_188\n      jump\t// in\n    tag_251:\n        /* \"#utility.yul\":2154:2184   */\n      swap1\n      pop\n        /* \"#utility.yul\":2193:2226   */\n      tag_252\n        /* \"#utility.yul\":2221:2225   */\n      dup3\n        /* \"#utility.yul\":2213:2219   */\n      dup3\n        /* \"#utility.yul\":2193:2226   */\n      tag_199\n      jump\t// in\n    tag_252:\n        /* \"#utility.yul\":2103:2232   */\n      swap2\n      swap1\n      pop\n      jump\t// out\n        /* \"#utility.yul\":2238:2545   */\n    tag_201:\n        /* \"#utility.yul\":2299:2303   */\n      0x00\n        /* \"#utility.yul\":2389:2407   */\n      0xffffffffffffffff\n        /* \"#utility.yul\":2381:2387   */\n      dup3\n        /* \"#utility.yul\":2378:2408   */\n      gt\n        /* \"#utility.yul\":2375:2431   */\n      iszero\n      tag_254\n      jumpi\n        /* \"#utility.yul\":2411:2429   */\n      tag_255\n      tag_198\n      jump\t// in\n    tag_255:\n        /* \"#utility.yul\":2375:2431   */\n    tag_254:\n        /* \"#utility.yul\":2449:2478   */\n      tag_256\n        /* \"#utility.yul\":2471:2477   */\n      dup3\n        /* \"#utility.yul\":2449:2478   */\n      tag_197\n      jump\t// in\n    tag_256:\n        /* \"#utility.yul\":2441:2478   */\n      swap1\n      pop\n        /* \"#utility.yul\":2533:2537   */\n      0x20\n        /* \"#utility.yul\":2527:2531   */\n      dup2\n        /* \"#utility.yul\":2523:2538   */\n      add\n        /* \"#utility.yul\":2515:2538   */\n      swap1\n      pop\n        /* \"#utility.yul\":2238:2545   */\n      swap2\n      swap1\n      pop\n      jump\t// out\n        /* \"#utility.yul\":2551:2699   */\n    tag_202:\n        /* \"#utility.yul\":2649:2655   */\n      dup3\n        /* \"#utility.yul\":2644:2647   */\n      dup2\n        /* \"#utility.yul\":2639:2642   */\n      dup4\n        /* \"#utility.yul\":2626:2656   */\n      calldatacopy\n        /* \"#utility.yul\":2690:2691   */\n      0x00\n        /* \"#utility.yul\":2681:2687   */\n      dup4\n        /* \"#utility.yul\":2676:2679   */\n      dup4\n        /* \"#utility.yul\":2672:2688   */\n      add\n        /* \"#utility.yul\":2665:2692   */\n      mstore\n        /* \"#utility.yul\":2551:2699   */\n      pop\n      pop\n      pop\n      jump\t// out\n        /* \"#utility.yul\":2705:3128   */\n    tag_203:\n        /* \"#utility.yul\":2782:2787   */\n      0x00\n        /* \"#utility.yul\":2807:2872   */\n      tag_259\n        /* \"#utility.yul\":2823:2871   */\n      tag_260\n        /* \"#utility.yul\":2864:2870   */\n      dup5\n        /* \"#utility.yul\":2823:2871   */\n      tag_201\n      jump\t// in\n    tag_260:\n        /* \"#utility.yul\":2807:2872   */\n      tag_200\n      jump\t// in\n    tag_259:\n        /* \"#utility.yul\":2798:2872   */\n      swap1\n      pop\n        /* \"#utility.yul\":2895:2901   */\n      dup3\n        /* \"#utility.yul\":2888:2893   */\n      dup2\n        /* \"#utility.yul\":2881:2902   */\n      mstore\n        /* \"#utility.yul\":2933:2937   */\n      0x20\n        /* \"#utility.yul\":2926:2931   */\n      dup2\n        /* \"#utility.yul\":2922:2938   */\n      add\n        /* \"#utility.yul\":2971:2974   */\n      dup5\n        /* \"#utility.yul\":2962:2968   */\n      dup5\n        /* \"#utility.yul\":2957:2960   */\n      dup5\n        /* \"#utility.yul\":2953:2969   */\n      add\n        /* \"#utility.yul\":2950:2975   */\n      gt\n        /* \"#utility.yul\":2947:3059   */\n      iszero\n      tag_261\n      jumpi\n        /* \"#utility.yul\":2978:3057   */\n      tag_262\n      tag_196\n      jump\t// in\n    tag_262:\n        /* \"#utility.yul\":2947:3059   */\n    tag_261:\n        /* \"#utility.yul\":3068:3122   */\n      tag_263\n        /* \"#utility.yul\":3115:3121   */\n      dup5\n        /* \"#utility.yul\":3110:3113   */\n      dup3\n        /* \"#utility.yul\":3105:3108   */\n      dup6\n        /* \"#utility.yul\":3068:3122   */\n      tag_202\n      jump\t// in\n    tag_263:\n        /* \"#utility.yul\":2788:3128   */\n      pop\n        /* \"#utility.yul\":2705:3128   */\n      swap4\n      swap3\n      pop\n      pop\n      pop\n      jump\t// out\n        /* \"#utility.yul\":3147:3485   */\n    tag_204:\n        /* \"#utility.yul\":3202:3207   */\n      0x00\n        /* \"#utility.yul\":3251:3254   */\n      dup3\n        /* \"#utility.yul\":3244:3248   */\n      0x1f\n        /* \"#utility.yul\":3236:3242   */\n      dup4\n        /* \"#utility.yul\":3232:3249   */\n      add\n        /* \"#utility.yul\":3228:3255   */\n      slt\n        /* \"#utility.yul\":3218:3340   */\n      tag_265\n      jumpi\n        /* \"#utility.yul\":3259:3338   */\n      tag_266\n      tag_195\n      jump\t// in\n    tag_266:\n        /* \"#utility.yul\":3218:3340   */\n    tag_265:\n        /* \"#utility.yul\":3376:3382   */\n      dup2\n        /* \"#utility.yul\":3363:3383   */\n      calldataload\n        /* \"#utility.yul\":3401:3479   */\n      tag_267\n        /* \"#utility.yul\":3475:3478   */\n      dup5\n        /* \"#utility.yul\":3467:3473   */\n      dup3\n        /* \"#utility.yul\":3460:3464   */\n      0x20\n        /* \"#utility.yul\":3452:3458   */\n      dup7\n        /* \"#utility.yul\":3448:3465   */\n      add\n        /* \"#utility.yul\":3401:3479   */\n      tag_203\n      jump\t// in\n    tag_267:\n        /* \"#utility.yul\":3392:3479   */\n      swap2\n      pop\n        /* \"#utility.yul\":3208:3485   */\n      pop\n        /* \"#utility.yul\":3147:3485   */\n      swap3\n      swap2\n      pop\n      pop\n      jump\t// out\n        /* \"#utility.yul\":3491:4143   */\n    tag_19:\n        /* \"#utility.yul\":3568:3574   */\n      0x00\n        /* \"#utility.yul\":3576:3582   */\n      dup1\n        /* \"#utility.yul\":3625:3627   */\n      0x40\n        /* \"#utility.yul\":3613:3622   */\n      dup4\n        /* \"#utility.yul\":3604:3611   */\n      dup6\n        /* \"#utility.yul\":3600:3623   */\n      sub\n        /* \"#utility.yul\":3596:3628   */\n      slt\n        /* \"#utility.yul\":3593:3712   */\n      iszero\n      tag_269\n      jumpi\n        /* \"#utility.yul\":3631:3710   */\n      tag_270\n      tag_189\n      jump\t// in\n    tag_270:\n        /* \"#utility.yul\":3593:3712   */\n    tag_269:\n        /* \"#utility.yul\":3751:3752   */\n      0x00\n        /* \"#utility.yul\":3776:3829   */\n      tag_271\n        /* \"#utility.yul\":3821:3828   */\n      dup6\n        /* \"#utility.yul\":3812:3818   */\n      dup3\n        /* \"#utility.yul\":3801:3810   */\n      dup7\n        /* \"#utility.yul\":3797:3819   */\n      add\n        /* \"#utility.yul\":3776:3829   */\n      tag_194\n      jump\t// in\n    tag_271:\n        /* \"#utility.yul\":3766:3829   */\n      swap3\n      pop\n        /* \"#utility.yul\":3722:3839   */\n      pop\n        /* \"#utility.yul\":3906:3908   */\n      0x20\n        /* \"#utility.yul\":3895:3904   */\n      dup4\n        /* \"#utility.yul\":3891:3909   */\n      add\n        /* \"#utility.yul\":3878:3910   */\n      calldataload\n        /* \"#utility.yul\":3937:3955   */\n      0xffffffffffffffff\n        /* \"#utility.yul\":3929:3935   */\n      dup2\n        /* \"#utility.yul\":3926:3956   */\n      gt\n        /* \"#utility.yul\":3923:4040   */\n      iszero\n      tag_272\n      jumpi\n        /* \"#utility.yul\":3959:4038   */\n      tag_273\n      tag_190\n      jump\t// in\n    tag_273:\n        /* \"#utility.yul\":3923:4040   */\n    tag_272:\n        /* \"#utility.yul\":4064:4126   */\n      tag_274\n        /* \"#utility.yul\":4118:4125   */\n      dup6\n        /* \"#utility.yul\":4109:4115   */\n      dup3\n        /* \"#utility.yul\":4098:4107   */\n      dup7\n        /* \"#utility.yul\":4094:4116   */\n      add\n        /* \"#utility.yul\":4064:4126   */\n      tag_204\n      jump\t// in\n    tag_274:\n        /* \"#utility.yul\":4054:4126   */\n      swap2\n      pop\n        /* \"#utility.yul\":3849:4136   */\n      pop\n        /* \"#utility.yul\":3491:4143   */\n      swap3\n      pop\n      swap3\n      swap1\n      pop\n      jump\t// out\n        /* \"#utility.yul\":4149:4226   */\n    tag_205:\n        /* \"#utility.yul\":4186:4193   */\n      0x00\n        /* \"#utility.yul\":4215:4220   */\n      dup2\n        /* \"#utility.yul\":4204:4220   */\n      swap1\n      pop\n        /* \"#utility.yul\":4149:4226   */\n      swap2\n      swap1\n      pop\n      jump\t// out\n        /* \"#utility.yul\":4232:4350   */\n    tag_206:\n        /* \"#utility.yul\":4319:4343   */\n      tag_277\n        /* \"#utility.yul\":4337:4342   */\n      dup2\n        /* \"#utility.yul\":4319:4343   */\n      tag_205\n      jump\t// in\n    tag_277:\n        /* \"#utility.yul\":4314:4317   */\n      dup3\n        /* \"#utility.yul\":4307:4344   */\n      mstore\n        /* \"#utility.yul\":4232:4350   */\n      pop\n      pop\n      jump\t// out\n        /* \"#utility.yul\":4356:4578   */\n    tag_25:\n        /* \"#utility.yul\":4449:4453   */\n      0x00\n        /* \"#utility.yul\":4487:4489   */\n      0x20\n        /* \"#utility.yul\":4476:4485   */\n      dup3\n        /* \"#utility.yul\":4472:4490   */\n      add\n        /* \"#utility.yul\":4464:4490   */\n      swap1\n      pop\n        /* \"#utility.yul\":4500:4571   */\n      tag_279\n        /* \"#utility.yul\":4568:4569   */\n      0x00\n        /* \"#utility.yul\":4557:4566   */\n      dup4\n        /* \"#utility.yul\":4553:4570   */\n      add\n        /* \"#utility.yul\":4544:4550   */\n      dup5\n        /* \"#utility.yul\":4500:4571   */\n      tag_206\n      jump\t// in\n    tag_279:\n        /* \"#utility.yul\":4356:4578   */\n      swap3\n      swap2\n      pop\n      pop\n      jump\t// out\n        /* \"#utility.yul\":4584:4702   */\n    tag_207:\n        /* \"#utility.yul\":4671:4695   */\n      tag_281\n        /* \"#utility.yul\":4689:4694   */\n      dup2\n        /* \"#utility.yul\":4671:4695   */\n      tag_192\n      jump\t// in\n    tag_281:\n        /* \"#utility.yul\":4666:4669   */\n      dup3\n        /* \"#utility.yul\":4659:4696   */\n      mstore\n        /* \"#utility.yul\":4584:4702   */\n      pop\n      pop\n      jump\t// out\n        /* \"#utility.yul\":4708:4930   */\n    tag_33:\n        /* \"#utility.yul\":4801:4805   */\n      0x00\n        /* \"#utility.yul\":4839:4841   */\n      0x20\n        /* \"#utility.yul\":4828:4837   */\n      dup3\n        /* \"#utility.yul\":4824:4842   */\n      add\n        /* \"#utility.yul\":4816:4842   */\n      swap1\n      pop\n        /* \"#utility.yul\":4852:4923   */\n      tag_283\n        /* \"#utility.yul\":4920:4921   */\n      0x00\n        /* \"#utility.yul\":4909:4918   */\n      dup4\n        /* \"#utility.yul\":4905:4922   */\n      add\n        /* \"#utility.yul\":4896:4902   */\n      dup5\n        /* \"#utility.yul\":4852:4923   */\n      tag_207\n      jump\t// in\n    tag_283:\n        /* \"#utility.yul\":4708:4930   */\n      swap3\n      swap2\n      pop\n      pop\n      jump\t// out\n        /* \"#utility.yul\":4936:5035   */\n    tag_208:\n        /* \"#utility.yul\":4988:4994   */\n      0x00\n        /* \"#utility.yul\":5022:5027   */\n      dup2\n        /* \"#utility.yul\":5016:5028   */\n      mload\n        /* \"#utility.yul\":5006:5028   */\n      swap1\n      pop\n        /* \"#utility.yul\":4936:5035   */\n      swap2\n      swap1\n      pop\n      jump\t// out\n        /* \"#utility.yul\":5041:5210   */\n    tag_209:\n        /* \"#utility.yul\":5125:5136   */\n      0x00\n        /* \"#utility.yul\":5159:5165   */\n      dup3\n        /* \"#utility.yul\":5154:5157   */\n      dup3\n        /* \"#utility.yul\":5147:5166   */\n      mstore\n        /* \"#utility.yul\":5199:5203   */\n      0x20\n        /* \"#utility.yul\":5194:5197   */\n      dup3\n        /* \"#utility.yul\":5190:5204   */\n      add\n        /* \"#utility.yul\":5175:5204   */\n      swap1\n      pop\n        /* \"#utility.yul\":5041:5210   */\n      swap3\n      swap2\n      pop\n      pop\n      jump\t// out\n        /* \"#utility.yul\":5216:5355   */\n    tag_210:\n        /* \"#utility.yul\":5305:5311   */\n      dup3\n        /* \"#utility.yul\":5300:5303   */\n      dup2\n        /* \"#utility.yul\":5295:5298   */\n      dup4\n        /* \"#utility.yul\":5289:5312   */\n      mcopy\n        /* \"#utility.yul\":5346:5347   */\n      0x00\n        /* \"#utility.yul\":5337:5343   */\n      dup4\n        /* \"#utility.yul\":5332:5335   */\n      dup4\n        /* \"#utility.yul\":5328:5344   */\n      add\n        /* \"#utility.yul\":5321:5348   */\n      mstore\n        /* \"#utility.yul\":5216:5355   */\n      pop\n      pop\n      pop\n      jump\t// out\n        /* \"#utility.yul\":5361:5738   */\n    tag_211:\n        /* \"#utility.yul\":5449:5452   */\n      0x00\n        /* \"#utility.yul\":5477:5516   */\n      tag_288\n        /* \"#utility.yul\":5510:5515   */\n      dup3\n        /* \"#utility.yul\":5477:5516   */\n      tag_208\n      jump\t// in\n    tag_288:\n        /* \"#utility.yul\":5532:5603   */\n      tag_289\n        /* \"#utility.yul\":5596:5602   */\n      dup2\n        /* \"#utility.yul\":5591:5594   */\n      dup6\n        /* \"#utility.yul\":5532:5603   */\n      tag_209\n      jump\t// in\n    tag_289:\n        /* \"#utility.yul\":5525:5603   */\n      swap4\n      pop\n        /* \"#utility.yul\":5612:5677   */\n      tag_290\n        /* \"#utility.yul\":5670:5676   */\n      dup2\n        /* \"#utility.yul\":5665:5668   */\n      dup6\n        /* \"#utility.yul\":5658:5662   */\n      0x20\n        /* \"#utility.yul\":5651:5656   */\n      dup7\n        /* \"#utility.yul\":5647:5663   */\n      add\n        /* \"#utility.yul\":5612:5677   */\n      tag_210\n      jump\t// in\n    tag_290:\n        /* \"#utility.yul\":5702:5731   */\n      tag_291\n        /* \"#utility.yul\":5724:5730   */\n      dup2\n        /* \"#utility.yul\":5702:5731   */\n      tag_197\n      jump\t// in\n    tag_291:\n        /* \"#utility.yul\":5697:5700   */\n      dup5\n        /* \"#utility.yul\":5693:5732   */\n      add\n        /* \"#utility.yul\":5686:5732   */\n      swap2\n      pop\n        /* \"#utility.yul\":5453:5738   */\n      pop\n        /* \"#utility.yul\":5361:5738   */\n      swap3\n      swap2\n      pop\n      pop\n      jump\t// out\n        /* \"#utility.yul\":5744:6057   */\n    tag_38:\n        /* \"#utility.yul\":5857:5861   */\n      0x00\n        /* \"#utility.yul\":5895:5897   */\n      0x20\n        /* \"#utility.yul\":5884:5893   */\n      dup3\n        /* \"#utility.yul\":5880:5898   */\n      add\n        /* \"#utility.yul\":5872:5898   */\n      swap1\n      pop\n        /* \"#utility.yul\":5944:5953   */\n      dup2\n        /* \"#utility.yul\":5938:5942   */\n      dup2\n        /* \"#utility.yul\":5934:5954   */\n      sub\n        /* \"#utility.yul\":5930:5931   */\n      0x00\n        /* \"#utility.yul\":5919:5928   */\n      dup4\n        /* \"#utility.yul\":5915:5932   */\n      add\n        /* \"#utility.yul\":5908:5955   */\n      mstore\n        /* \"#utility.yul\":5972:6050   */\n      tag_293\n        /* \"#utility.yul\":6045:6049   */\n      dup2\n        /* \"#utility.yul\":6036:6042   */\n      dup5\n        /* \"#utility.yul\":5972:6050   */\n      tag_211\n      jump\t// in\n    tag_293:\n        /* \"#utility.yul\":5964:6050   */\n      swap1\n      pop\n        /* \"#utility.yul\":5744:6057   */\n      swap3\n      swap2\n      pop\n      pop\n      jump\t// out\n        /* \"#utility.yul\":6063:6185   */\n    tag_212:\n        /* \"#utility.yul\":6136:6160   */\n      tag_295\n        /* \"#utility.yul\":6154:6159   */\n      dup2\n        /* \"#utility.yul\":6136:6160   */\n      tag_186\n      jump\t// in\n    tag_295:\n        /* \"#utility.yul\":6129:6134   */\n      dup2\n        /* \"#utility.yul\":6126:6161   */\n      eq\n        /* \"#utility.yul\":6116:6179   */\n      tag_296\n      jumpi\n        /* \"#utility.yul\":6175:6176   */\n      0x00\n        /* \"#utility.yul\":6172:6173   */\n      dup1\n        /* \"#utility.yul\":6165:6177   */\n      revert\n        /* \"#utility.yul\":6116:6179   */\n    tag_296:\n        /* \"#utility.yul\":6063:6185   */\n      pop\n      jump\t// out\n        /* \"#utility.yul\":6191:6330   */\n    tag_213:\n        /* \"#utility.yul\":6237:6242   */\n      0x00\n        /* \"#utility.yul\":6275:6281   */\n      dup2\n        /* \"#utility.yul\":6262:6282   */\n      calldataload\n        /* \"#utility.yul\":6253:6282   */\n      swap1\n      pop\n        /* \"#utility.yul\":6291:6324   */\n      tag_298\n        /* \"#utility.yul\":6318:6323   */\n      dup2\n        /* \"#utility.yul\":6291:6324   */\n      tag_212\n      jump\t// in\n    tag_298:\n        /* \"#utility.yul\":6191:6330   */\n      swap3\n      swap2\n      pop\n      pop\n      jump\t// out\n        /* \"#utility.yul\":6336:6665   */\n    tag_45:\n        /* \"#utility.yul\":6395:6401   */\n      0x00\n        /* \"#utility.yul\":6444:6446   */\n      0x20\n        /* \"#utility.yul\":6432:6441   */\n      dup3\n        /* \"#utility.yul\":6423:6430   */\n      dup5\n        /* \"#utility.yul\":6419:6442   */\n      sub\n        /* \"#utility.yul\":6415:6447   */\n      slt\n        /* \"#utility.yul\":6412:6531   */\n      iszero\n      tag_300\n      jumpi\n        /* \"#utility.yul\":6450:6529   */\n      tag_301\n      tag_189\n      jump\t// in\n    tag_301:\n        /* \"#utility.yul\":6412:6531   */\n    tag_300:\n        /* \"#utility.yul\":6570:6571   */\n      0x00\n        /* \"#utility.yul\":6595:6648   */\n      tag_302\n        /* \"#utility.yul\":6640:6647   */\n      dup5\n        /* \"#utility.yul\":6631:6637   */\n      dup3\n        /* \"#utility.yul\":6620:6629   */\n      dup6\n        /* \"#utility.yul\":6616:6638   */\n      add\n        /* \"#utility.yul\":6595:6648   */\n      tag_213\n      jump\t// in\n    tag_302:\n        /* \"#utility.yul\":6585:6648   */\n      swap2\n      pop\n        /* \"#utility.yul\":6541:6658   */\n      pop\n        /* \"#utility.yul\":6336:6665   */\n      swap3\n      swap2\n      pop\n      pop\n      jump\t// out\n        /* \"#utility.yul\":6671:7000   */\n    tag_50:\n        /* \"#utility.yul\":6730:6736   */\n      0x00\n        /* \"#utility.yul\":6779:6781   */\n      0x20\n        /* \"#utility.yul\":6767:6776   */\n      dup3\n        /* \"#utility.yul\":6758:6765   */\n      dup5\n        /* \"#utility.yul\":6754:6777   */\n      sub\n        /* \"#utility.yul\":6750:6782   */\n      slt\n        /* \"#utility.yul\":6747:6866   */\n      iszero\n      tag_304\n      jumpi\n        /* \"#utility.yul\":6785:6864   */\n      tag_305\n      tag_189\n      jump\t// in\n    tag_305:\n        /* \"#utility.yul\":6747:6866   */\n    tag_304:\n        /* \"#utility.yul\":6905:6906   */\n      0x00\n        /* \"#utility.yul\":6930:6983   */\n      tag_306\n        /* \"#utility.yul\":6975:6982   */\n      dup5\n        /* \"#utility.yul\":6966:6972   */\n      dup3\n        /* \"#utility.yul\":6955:6964   */\n      dup6\n        /* \"#utility.yul\":6951:6973   */\n      add\n        /* \"#utility.yul\":6930:6983   */\n      tag_194\n      jump\t// in\n    tag_306:\n        /* \"#utility.yul\":6920:6983   */\n      swap2\n      pop\n        /* \"#utility.yul\":6876:6993   */\n      pop\n        /* \"#utility.yul\":6671:7000   */\n      swap3\n      swap2\n      pop\n      pop\n      jump\t// out\n        /* \"#utility.yul\":7006:7186   */\n    tag_214:\n        /* \"#utility.yul\":7054:7131   */\n      0x4e487b7100000000000000000000000000000000000000000000000000000000\n        /* \"#utility.yul\":7051:7052   */\n      0x00\n        /* \"#utility.yul\":7044:7132   */\n      mstore\n        /* \"#utility.yul\":7151:7155   */\n      0x11\n        /* \"#utility.yul\":7148:7149   */\n      0x04\n        /* \"#utility.yul\":7141:7156   */\n      mstore\n        /* \"#utility.yul\":7175:7179   */\n      0x24\n        /* \"#utility.yul\":7172:7173   */\n      0x00\n        /* \"#utility.yul\":7165:7180   */\n      revert\n        /* \"#utility.yul\":7192:7602   */\n    tag_75:\n        /* \"#utility.yul\":7232:7239   */\n      0x00\n        /* \"#utility.yul\":7255:7275   */\n      tag_309\n        /* \"#utility.yul\":7273:7274   */\n      dup3\n        /* \"#utility.yul\":7255:7275   */\n      tag_186\n      jump\t// in\n    tag_309:\n        /* \"#utility.yul\":7250:7275   */\n      swap2\n      pop\n        /* \"#utility.yul\":7289:7309   */\n      tag_310\n        /* \"#utility.yul\":7307:7308   */\n      dup4\n        /* \"#utility.yul\":7289:7309   */\n      tag_186\n      jump\t// in\n    tag_310:\n        /* \"#utility.yul\":7284:7309   */\n      swap3\n      pop\n        /* \"#utility.yul\":7344:7345   */\n      dup3\n        /* \"#utility.yul\":7341:7342   */\n      dup3\n        /* \"#utility.yul\":7337:7346   */\n      mul\n        /* \"#utility.yul\":7366:7396   */\n      tag_311\n        /* \"#utility.yul\":7384:7395   */\n      dup2\n        /* \"#utility.yul\":7366:7396   */\n      tag_186\n      jump\t// in\n    tag_311:\n        /* \"#utility.yul\":7355:7396   */\n      swap2\n      pop\n        /* \"#utility.yul\":7545:7546   */\n      dup3\n        /* \"#utility.yul\":7536:7543   */\n      dup3\n        /* \"#utility.yul\":7532:7547   */\n      div\n        /* \"#utility.yul\":7529:7530   */\n      dup5\n        /* \"#utility.yul\":7526:7548   */\n      eq\n        /* \"#utility.yul\":7506:7507   */\n      dup4\n        /* \"#utility.yul\":7499:7508   */\n      iszero\n        /* \"#utility.yul\":7479:7562   */\n      or\n        /* \"#utility.yul\":7456:7595   */\n      tag_312\n      jumpi\n        /* \"#utility.yul\":7575:7593   */\n      tag_313\n      tag_214\n      jump\t// in\n    tag_313:\n        /* \"#utility.yul\":7456:7595   */\n    tag_312:\n        /* \"#utility.yul\":7240:7602   */\n      pop\n        /* \"#utility.yul\":7192:7602   */\n      swap3\n      swap2\n      pop\n      pop\n      jump\t// out\n        /* \"#utility.yul\":7608:7693   */\n    tag_215:\n        /* \"#utility.yul\":7653:7660   */\n      0x00\n        /* \"#utility.yul\":7682:7687   */\n      dup2\n        /* \"#utility.yul\":7671:7687   */\n      swap1\n      pop\n        /* \"#utility.yul\":7608:7693   */\n      swap2\n      swap1\n      pop\n      jump\t// out\n        /* \"#utility.yul\":7699:7800   */\n    tag_216:\n        /* \"#utility.yul\":7735:7742   */\n      0x00\n        /* \"#utility.yul\":7775:7793   */\n      0xffffffffffffffff\n        /* \"#utility.yul\":7768:7773   */\n      dup3\n        /* \"#utility.yul\":7764:7794   */\n      and\n        /* \"#utility.yul\":7753:7794   */\n      swap1\n      pop\n        /* \"#utility.yul\":7699:7800   */\n      swap2\n      swap1\n      pop\n      jump\t// out\n        /* \"#utility.yul\":7806:7866   */\n    tag_217:\n        /* \"#utility.yul\":7834:7837   */\n      0x00\n        /* \"#utility.yul\":7855:7860   */\n      dup2\n        /* \"#utility.yul\":7848:7860   */\n      swap1\n      pop\n        /* \"#utility.yul\":7806:7866   */\n      swap2\n      swap1\n      pop\n      jump\t// out\n        /* \"#utility.yul\":7872:8028   */\n    tag_218:\n        /* \"#utility.yul\":7929:7938   */\n      0x00\n        /* \"#utility.yul\":7962:8022   */\n      tag_318\n        /* \"#utility.yul\":7979:8021   */\n      tag_319\n        /* \"#utility.yul\":7988:8020   */\n      tag_320\n        /* \"#utility.yul\":8014:8019   */\n      dup5\n        /* \"#utility.yul\":7988:8020   */\n      tag_215\n      jump\t// in\n    tag_320:\n        /* \"#utility.yul\":7979:8021   */\n      tag_217\n      jump\t// in\n    tag_319:\n        /* \"#utility.yul\":7962:8022   */\n      tag_216\n      jump\t// in\n    tag_318:\n        /* \"#utility.yul\":7949:8022   */\n      swap1\n      pop\n        /* \"#utility.yul\":7872:8028   */\n      swap2\n      swap1\n      pop\n      jump\t// out\n        /* \"#utility.yul\":8034:8179   */\n    tag_219:\n        /* \"#utility.yul\":8128:8172   */\n      tag_322\n        /* \"#utility.yul\":8166:8171   */\n      dup2\n        /* \"#utility.yul\":8128:8172   */\n      tag_218\n      jump\t// in\n    tag_322:\n        /* \"#utility.yul\":8123:8126   */\n      dup3\n        /* \"#utility.yul\":8116:8173   */\n      mstore\n        /* \"#utility.yul\":8034:8179   */\n      pop\n      pop\n      jump\t// out\n        /* \"#utility.yul\":8185:8421   */\n    tag_89:\n        /* \"#utility.yul\":8285:8289   */\n      0x00\n        /* \"#utility.yul\":8323:8325   */\n      0x20\n        /* \"#utility.yul\":8312:8321   */\n      dup3\n        /* \"#utility.yul\":8308:8326   */\n      add\n        /* \"#utility.yul\":8300:8326   */\n      swap1\n      pop\n        /* \"#utility.yul\":8336:8414   */\n      tag_324\n        /* \"#utility.yul\":8411:8412   */\n      0x00\n        /* \"#utility.yul\":8400:8409   */\n      dup4\n        /* \"#utility.yul\":8396:8413   */\n      add\n        /* \"#utility.yul\":8387:8393   */\n      dup5\n        /* \"#utility.yul\":8336:8414   */\n      tag_219\n      jump\t// in\n    tag_324:\n        /* \"#utility.yul\":8185:8421   */\n      swap3\n      swap2\n      pop\n      pop\n      jump\t// out\n        /* \"#utility.yul\":8427:8549   */\n    tag_220:\n        /* \"#utility.yul\":8500:8524   */\n      tag_326\n        /* \"#utility.yul\":8518:8523   */\n      dup2\n        /* \"#utility.yul\":8500:8524   */\n      tag_205\n      jump\t// in\n    tag_326:\n        /* \"#utility.yul\":8493:8498   */\n      dup2\n        /* \"#utility.yul\":8490:8525   */\n      eq\n        /* \"#utility.yul\":8480:8543   */\n      tag_327\n      jumpi\n        /* \"#utility.yul\":8539:8540   */\n      0x00\n        /* \"#utility.yul\":8536:8537   */\n      dup1\n        /* \"#utility.yul\":8529:8541   */\n      revert\n        /* \"#utility.yul\":8480:8543   */\n    tag_327:\n        /* \"#utility.yul\":8427:8549   */\n      pop\n      jump\t// out\n        /* \"#utility.yul\":8555:8698   */\n    tag_221:\n        /* \"#utility.yul\":8612:8617   */\n      0x00\n        /* \"#utility.yul\":8643:8649   */\n      dup2\n        /* \"#utility.yul\":8637:8650   */\n      mload\n        /* \"#utility.yul\":8628:8650   */\n      swap1\n      pop\n        /* \"#utility.yul\":8659:8692   */\n      tag_329\n        /* \"#utility.yul\":8686:8691   */\n      dup2\n        /* \"#utility.yul\":8659:8692   */\n      tag_220\n      jump\t// in\n    tag_329:\n        /* \"#utility.yul\":8555:8698   */\n      swap3\n      swap2\n      pop\n      pop\n      jump\t// out\n        /* \"#utility.yul\":8704:9055   */\n    tag_105:\n        /* \"#utility.yul\":8774:8780   */\n      0x00\n        /* \"#utility.yul\":8823:8825   */\n      0x20\n        /* \"#utility.yul\":8811:8820   */\n      dup3\n        /* \"#utility.yul\":8802:8809   */\n      dup5\n        /* \"#utility.yul\":8798:8821   */\n      sub\n        /* \"#utility.yul\":8794:8826   */\n      slt\n        /* \"#utility.yul\":8791:8910   */\n      iszero\n      tag_331\n      jumpi\n        /* \"#utility.yul\":8829:8908   */\n      tag_332\n      tag_189\n      jump\t// in\n    tag_332:\n        /* \"#utility.yul\":8791:8910   */\n    tag_331:\n        /* \"#utility.yul\":8949:8950   */\n      0x00\n        /* \"#utility.yul\":8974:9038   */\n      tag_333\n        /* \"#utility.yul\":9030:9037   */\n      dup5\n        /* \"#utility.yul\":9021:9027   */\n      dup3\n        /* \"#utility.yul\":9010:9019   */\n      dup6\n        /* \"#utility.yul\":9006:9028   */\n      add\n        /* \"#utility.yul\":8974:9038   */\n      tag_221\n      jump\t// in\n    tag_333:\n        /* \"#utility.yul\":8964:9038   */\n      swap2\n      pop\n        /* \"#utility.yul\":8920:9048   */\n      pop\n        /* \"#utility.yul\":8704:9055   */\n      swap3\n      swap2\n      pop\n      pop\n      jump\t// out\n        /* \"#utility.yul\":9061:9159   */\n    tag_222:\n        /* \"#utility.yul\":9112:9118   */\n      0x00\n        /* \"#utility.yul\":9146:9151   */\n      dup2\n        /* \"#utility.yul\":9140:9152   */\n      mload\n        /* \"#utility.yul\":9130:9152   */\n      swap1\n      pop\n        /* \"#utility.yul\":9061:9159   */\n      swap2\n      swap1\n      pop\n      jump\t// out\n        /* \"#utility.yul\":9165:9312   */\n    tag_223:\n        /* \"#utility.yul\":9266:9277   */\n      0x00\n        /* \"#utility.yul\":9303:9306   */\n      dup2\n        /* \"#utility.yul\":9288:9306   */\n      swap1\n      pop\n        /* \"#utility.yul\":9165:9312   */\n      swap3\n      swap2\n      pop\n      pop\n      jump\t// out\n        /* \"#utility.yul\":9318:9704   */\n    tag_224:\n        /* \"#utility.yul\":9422:9425   */\n      0x00\n        /* \"#utility.yul\":9450:9488   */\n      tag_337\n        /* \"#utility.yul\":9482:9487   */\n      dup3\n        /* \"#utility.yul\":9450:9488   */\n      tag_222\n      jump\t// in\n    tag_337:\n        /* \"#utility.yul\":9504:9592   */\n      tag_338\n        /* \"#utility.yul\":9585:9591   */\n      dup2\n        /* \"#utility.yul\":9580:9583   */\n      dup6\n        /* \"#utility.yul\":9504:9592   */\n      tag_223\n      jump\t// in\n    tag_338:\n        /* \"#utility.yul\":9497:9592   */\n      swap4\n      pop\n        /* \"#utility.yul\":9601:9666   */\n      tag_339\n        /* \"#utility.yul\":9659:9665   */\n      dup2\n        /* \"#utility.yul\":9654:9657   */\n      dup6\n        /* \"#utility.yul\":9647:9651   */\n      0x20\n        /* \"#utility.yul\":9640:9645   */\n      dup7\n        /* \"#utility.yul\":9636:9652   */\n      add\n        /* \"#utility.yul\":9601:9666   */\n      tag_210\n      jump\t// in\n    tag_339:\n        /* \"#utility.yul\":9691:9697   */\n      dup1\n        /* \"#utility.yul\":9686:9689   */\n      dup5\n        /* \"#utility.yul\":9682:9698   */\n      add\n        /* \"#utility.yul\":9675:9698   */\n      swap2\n      pop\n        /* \"#utility.yul\":9426:9704   */\n      pop\n        /* \"#utility.yul\":9318:9704   */\n      swap3\n      swap2\n      pop\n      pop\n      jump\t// out\n        /* \"#utility.yul\":9710:9981   */\n    tag_165:\n        /* \"#utility.yul\":9840:9843   */\n      0x00\n        /* \"#utility.yul\":9862:9955   */\n      tag_341\n        /* \"#utility.yul\":9951:9954   */\n      dup3\n        /* \"#utility.yul\":9942:9948   */\n      dup5\n        /* \"#utility.yul\":9862:9955   */\n      tag_224\n      jump\t// in\n    tag_341:\n        /* \"#utility.yul\":9855:9955   */\n      swap2\n      pop\n        /* \"#utility.yul\":9972:9975   */\n      dup2\n        /* \"#utility.yul\":9965:9975   */\n      swap1\n      pop\n        /* \"#utility.yul\":9710:9981   */\n      swap3\n      swap2\n      pop\n      pop\n      jump\t// out\n\n    auxdata: 0xa2646970667358221220a20f11e41052a7424285a009250deaaebe65c82e0e404d3cf611ee2215b51e5964736f6c634300081a0033\n}\n",
				"bytecode": {
					"linkReferences": {},
					"object": "60a06040523073ffffffffffffffffffffffffffffffffffffffff1660809073ffffffffffffffffffffffffffffffffffffffff16815250348015610042575f80fd5b50604051611358380380611358833981810160405281019061006491906100a7565b805f81905550506100d2565b5f80fd5b5f819050919050565b61008681610074565b8114610090575f80fd5b50565b5f815190506100a18161007d565b92915050565b5f602082840312156100bc576100bb610070565b5b5f6100c984828501610093565b91505092915050565b6080516112606100f85f395f81816104c10152818161051601526106c801526112605ff3fe608060405260043610610085575f3560e01c80638da5cb5b116100585780638da5cb5b1461010f578063ad3cb1cc14610139578063b7c738f414610163578063c43e48cf14610179578063f2fde38b146101a157610085565b80630c55699c146100895780634f1ef286146100b357806352d1902d146100cf578063715018a6146100f9575b5f80fd5b348015610094575f80fd5b5061009d6101c9565b6040516100aa9190610d2c565b60405180910390f35b6100cd60048036038101906100c89190610eec565b6101ce565b005b3480156100da575f80fd5b506100e36101ed565b6040516100f09190610f5e565b60405180910390f35b348015610104575f80fd5b5061010d61021e565b005b34801561011a575f80fd5b50610123610231565b6040516101309190610f86565b60405180910390f35b348015610144575f80fd5b5061014d610266565b60405161015a9190610fff565b60405180910390f35b34801561016e575f80fd5b5061017761029f565b005b348015610184575f80fd5b5061019f600480360381019061019a9190611049565b6102b4565b005b3480156101ac575f80fd5b506101c760048036038101906101c29190611074565b61043b565b005b5f5481565b6101d66104bf565b6101df826105a5565b6101e982826105a8565b5050565b5f6101f66106c6565b7f360894a13ba1a3210667c828492db98dca3e2076cc3735a920a3ca505d382bbc5f1b905090565b61022661074d565b61022f5f6107d4565b565b5f8061023b6108a5565b9050805f015f9054906101000a900473ffffffffffffffffffffffffffffffffffffffff1691505090565b6040518060400160405280600581526020017f352e302e3000000000000000000000000000000000000000000000000000000081525081565b60025f546102ad91906110cc565b5f81905550565b5f6102bd6108cc565b90505f815f0160089054906101000a900460ff161590505f825f015f9054906101000a900467ffffffffffffffff1690505f808267ffffffffffffffff161480156103055750825b90505f60018367ffffffffffffffff1614801561033857505f3073ffffffffffffffffffffffffffffffffffffffff163b145b905081158015610346575080155b1561037d576040517ff92ee8a900000000000000000000000000000000000000000000000000000000815260040160405180910390fd5b6001855f015f6101000a81548167ffffffffffffffff021916908367ffffffffffffffff16021790555083156103ca576001855f0160086101000a81548160ff0219169083151502179055505b855f819055506103d9336108f3565b8315610433575f855f0160086101000a81548160ff0219169083151502179055507fc7f505b2f371ae2175ee4913f4499e1f2633a7b5936321eed1cdaeb6115181d2600160405161042a9190611162565b60405180910390a15b505050505050565b61044361074d565b5f73ffffffffffffffffffffffffffffffffffffffff168173ffffffffffffffffffffffffffffffffffffffff16036104b3575f6040517f1e4fbdf70000000000000000000000000000000000000000000000000000000081526004016104aa9190610f86565b60405180910390fd5b6104bc816107d4565b50565b7f000000000000000000000000000000000000000000000000000000000000000073ffffffffffffffffffffffffffffffffffffffff163073ffffffffffffffffffffffffffffffffffffffff16148061056c57507f000000000000000000000000000000000000000000000000000000000000000073ffffffffffffffffffffffffffffffffffffffff16610553610907565b73ffffffffffffffffffffffffffffffffffffffff1614155b156105a3576040517fe07c8dba00000000000000000000000000000000000000000000000000000000815260040160405180910390fd5b565b50565b8173ffffffffffffffffffffffffffffffffffffffff166352d1902d6040518163ffffffff1660e01b8152600401602060405180830381865afa92505050801561061057506040513d601f19601f8201168201806040525081019061060d91906111a5565b60015b61065157816040517f4c9c8ce30000000000000000000000000000000000000000000000000000000081526004016106489190610f86565b60405180910390fd5b7f360894a13ba1a3210667c828492db98dca3e2076cc3735a920a3ca505d382bbc5f1b81146106b757806040517faa1d49a40000000000000000000000000000000000000000000000000000000081526004016106ae9190610f5e565b60405180910390fd5b6106c1838361095a565b505050565b7f000000000000000000000000000000000000000000000000000000000000000073ffffffffffffffffffffffffffffffffffffffff163073ffffffffffffffffffffffffffffffffffffffff161461074b576040517fe07c8dba00000000000000000000000000000000000000000000000000000000815260040160405180910390fd5b565b6107556109cc565b73ffffffffffffffffffffffffffffffffffffffff16610773610231565b73ffffffffffffffffffffffffffffffffffffffff16146107d2576107966109cc565b6040517f118cdaa70000000000000000000000000000000000000000000000000000000081526004016107c99190610f86565b60405180910390fd5b565b5f6107dd6108a5565b90505f815f015f9054906101000a900473ffffffffffffffffffffffffffffffffffffffff16905082825f015f6101000a81548173ffffffffffffffffffffffffffffffffffffffff021916908373ffffffffffffffffffffffffffffffffffffffff1602179055508273ffffffffffffffffffffffffffffffffffffffff168173ffffffffffffffffffffffffffffffffffffffff167f8be0079c531659141344cd1fd0a4f28419497f9722a3daafe3b4186f6b6457e060405160405180910390a3505050565b5f7f9016d09d72d40fdae2fd8ceac6b6234c7706214fd39c1cd1e609a0528c199300905090565b5f7ff0c57e16840df040f15088dc2f81fe391c3923bec73e23a9662efc9c229c6a00905090565b6108fb6109d3565b61090481610a13565b50565b5f6109337f360894a13ba1a3210667c828492db98dca3e2076cc3735a920a3ca505d382bbc5f1b610a97565b5f015f9054906101000a900473ffffffffffffffffffffffffffffffffffffffff16905090565b61096382610aa0565b8173ffffffffffffffffffffffffffffffffffffffff167fbc7cd75a20ee27fd9adebab32041f755214dbc6bffa90cc0225b39da2e5c2d3b60405160405180910390a25f815111156109bf576109b98282610b69565b506109c8565b6109c7610be9565b5b5050565b5f33905090565b6109db610c25565b610a11576040517fd7e6bcf800000000000000000000000000000000000000000000000000000000815260040160405180910390fd5b565b610a1b6109d3565b5f73ffffffffffffffffffffffffffffffffffffffff168173ffffffffffffffffffffffffffffffffffffffff1603610a8b575f6040517f1e4fbdf7000000000000000000000000000000000000000000000000000000008152600401610a829190610f86565b60405180910390fd5b610a94816107d4565b50565b5f819050919050565b5f8173ffffffffffffffffffffffffffffffffffffffff163b03610afb57806040517f4c9c8ce3000000000000000000000000000000000000000000000000000000008152600401610af29190610f86565b60405180910390fd5b80610b277f360894a13ba1a3210667c828492db98dca3e2076cc3735a920a3ca505d382bbc5f1b610a97565b5f015f6101000a81548173ffffffffffffffffffffffffffffffffffffffff021916908373ffffffffffffffffffffffffffffffffffffffff16021790555050565b60605f808473ffffffffffffffffffffffffffffffffffffffff1684604051610b929190611214565b5f60405180830381855af49150503d805f8114610bca576040519150601f19603f3d011682016040523d82523d5f602084013e610bcf565b606091505b5091509150610bdf858383610c43565b9250505092915050565b5f341115610c23576040517fb398979f00000000000000000000000000000000000000000000000000000000815260040160405180910390fd5b565b5f610c2e6108cc565b5f0160089054906101000a900460ff16905090565b606082610c5857610c5382610cd0565b610cc8565b5f8251148015610c7e57505f8473ffffffffffffffffffffffffffffffffffffffff163b145b15610cc057836040517f9996b315000000000000000000000000000000000000000000000000000000008152600401610cb79190610f86565b60405180910390fd5b819050610cc9565b5b9392505050565b5f81511115610ce25780518082602001fd5b6040517fd6bda27500000000000000000000000000000000000000000000000000000000815260040160405180910390fd5b5f819050919050565b610d2681610d14565b82525050565b5f602082019050610d3f5f830184610d1d565b92915050565b5f604051905090565b5f80fd5b5f80fd5b5f73ffffffffffffffffffffffffffffffffffffffff82169050919050565b5f610d7f82610d56565b9050919050565b610d8f81610d75565b8114610d99575f80fd5b50565b5f81359050610daa81610d86565b92915050565b5f80fd5b5f80fd5b5f601f19601f8301169050919050565b7f4e487b71000000000000000000000000000000000000000000000000000000005f52604160045260245ffd5b610dfe82610db8565b810181811067ffffffffffffffff82111715610e1d57610e1c610dc8565b5b80604052505050565b5f610e2f610d45565b9050610e3b8282610df5565b919050565b5f67ffffffffffffffff821115610e5a57610e59610dc8565b5b610e6382610db8565b9050602081019050919050565b828183375f83830152505050565b5f610e90610e8b84610e40565b610e26565b905082815260208101848484011115610eac57610eab610db4565b5b610eb7848285610e70565b509392505050565b5f82601f830112610ed357610ed2610db0565b5b8135610ee3848260208601610e7e565b91505092915050565b5f8060408385031215610f0257610f01610d4e565b5b5f610f0f85828601610d9c565b925050602083013567ffffffffffffffff811115610f3057610f2f610d52565b5b610f3c85828601610ebf565b9150509250929050565b5f819050919050565b610f5881610f46565b82525050565b5f602082019050610f715f830184610f4f565b92915050565b610f8081610d75565b82525050565b5f602082019050610f995f830184610f77565b92915050565b5f81519050919050565b5f82825260208201905092915050565b8281835e5f83830152505050565b5f610fd182610f9f565b610fdb8185610fa9565b9350610feb818560208601610fb9565b610ff481610db8565b840191505092915050565b5f6020820190508181035f8301526110178184610fc7565b905092915050565b61102881610d14565b8114611032575f80fd5b50565b5f813590506110438161101f565b92915050565b5f6020828403121561105e5761105d610d4e565b5b5f61106b84828501611035565b91505092915050565b5f6020828403121561108957611088610d4e565b5b5f61109684828501610d9c565b91505092915050565b7f4e487b71000000000000000000000000000000000000000000000000000000005f52601160045260245ffd5b5f6110d682610d14565b91506110e183610d14565b92508282026110ef81610d14565b915082820484148315176111065761110561109f565b5b5092915050565b5f819050919050565b5f67ffffffffffffffff82169050919050565b5f819050919050565b5f61114c6111476111428461110d565b611129565b611116565b9050919050565b61115c81611132565b82525050565b5f6020820190506111755f830184611153565b92915050565b61118481610f46565b811461118e575f80fd5b50565b5f8151905061119f8161117b565b92915050565b5f602082840312156111ba576111b9610d4e565b5b5f6111c784828501611191565b91505092915050565b5f81519050919050565b5f81905092915050565b5f6111ee826111d0565b6111f881856111da565b9350611208818560208601610fb9565b80840191505092915050565b5f61121f82846111e4565b91508190509291505056fea2646970667358221220a20f11e41052a7424285a009250deaaebe65c82e0e404d3cf611ee2215b51e5964736f6c634300081a0033",
					"opcodes": "PUSH1 0xA0 PUSH1 0x40 MSTORE ADDRESS PUSH20 0xFFFFFFFFFFFFFFFFFFFFFFFFFFFFFFFFFFFFFFFF AND PUSH1 0x80 SWAP1 PUSH20 0xFFFFFFFFFFFFFFFFFFFFFFFFFFFFFFFFFFFFFFFF AND DUP2 MSTORE POP CALLVALUE DUP1 ISZERO PUSH2 0x42 JUMPI PUSH0 DUP1 REVERT JUMPDEST POP PUSH1 0x40 MLOAD PUSH2 0x1358 CODESIZE SUB DUP1 PUSH2 0x1358 DUP4 CODECOPY DUP2 DUP2 ADD PUSH1 0x40 MSTORE DUP2 ADD SWAP1 PUSH2 0x64 SWAP2 SWAP1 PUSH2 0xA7 JUMP JUMPDEST DUP1 PUSH0 DUP2 SWAP1 SSTORE POP POP PUSH2 0xD2 JUMP JUMPDEST PUSH0 DUP1 REVERT JUMPDEST PUSH0 DUP2 SWAP1 POP SWAP2 SWAP1 POP JUMP JUMPDEST PUSH2 0x86 DUP2 PUSH2 0x74 JUMP JUMPDEST DUP2 EQ PUSH2 0x90 JUMPI PUSH0 DUP1 REVERT JUMPDEST POP JUMP JUMPDEST PUSH0 DUP2 MLOAD SWAP1 POP PUSH2 0xA1 DUP2 PUSH2 0x7D JUMP JUMPDEST SWAP3 SWAP2 POP POP JUMP JUMPDEST PUSH0 PUSH1 0x20 DUP3 DUP5 SUB SLT ISZERO PUSH2 0xBC JUMPI PUSH2 0xBB PUSH2 0x70 JUMP JUMPDEST JUMPDEST PUSH0 PUSH2 0xC9 DUP5 DUP3 DUP6 ADD PUSH2 0x93 JUMP JUMPDEST SWAP2 POP POP SWAP3 SWAP2 POP POP JUMP JUMPDEST PUSH1 0x80 MLOAD PUSH2 0x1260 PUSH2 0xF8 PUSH0 CODECOPY PUSH0 DUP2 DUP2 PUSH2 0x4C1 ADD MSTORE DUP2 DUP2 PUSH2 0x516 ADD MSTORE PUSH2 0x6C8 ADD MSTORE PUSH2 0x1260 PUSH0 RETURN INVALID PUSH1 0x80 PUSH1 0x40 MSTORE PUSH1 0x4 CALLDATASIZE LT PUSH2 0x85 JUMPI PUSH0 CALLDATALOAD PUSH1 0xE0 SHR DUP1 PUSH4 0x8DA5CB5B GT PUSH2 0x58 JUMPI DUP1 PUSH4 0x8DA5CB5B EQ PUSH2 0x10F JUMPI DUP1 PUSH4 0xAD3CB1CC EQ PUSH2 0x139 JUMPI DUP1 PUSH4 0xB7C738F4 EQ PUSH2 0x163 JUMPI DUP1 PUSH4 0xC43E48CF EQ PUSH2 0x179 JUMPI DUP1 PUSH4 0xF2FDE38B EQ PUSH2 0x1A1 JUMPI PUSH2 0x85 JUMP JUMPDEST DUP1 PUSH4 0xC55699C EQ PUSH2 0x89 JUMPI DUP1 PUSH4 0x4F1EF286 EQ PUSH2 0xB3 JUMPI DUP1 PUSH4 0x52D1902D EQ PUSH2 0xCF JUMPI DUP1 PUSH4 0x715018A6 EQ PUSH2 0xF9 JUMPI JUMPDEST PUSH0 DUP1 REVERT JUMPDEST CALLVALUE DUP1 ISZERO PUSH2 0x94 JUMPI PUSH0 DUP1 REVERT JUMPDEST POP PUSH2 0x9D PUSH2 0x1C9 JUMP JUMPDEST PUSH1 0x40 MLOAD PUSH2 0xAA SWAP2 SWAP1 PUSH2 0xD2C JUMP JUMPDEST PUSH1 0x40 MLOAD DUP1 SWAP2 SUB SWAP1 RETURN JUMPDEST PUSH2 0xCD PUSH1 0x4 DUP1 CALLDATASIZE SUB DUP2 ADD SWAP1 PUSH2 0xC8 SWAP2 SWAP1 PUSH2 0xEEC JUMP JUMPDEST PUSH2 0x1CE JUMP JUMPDEST STOP JUMPDEST CALLVALUE DUP1 ISZERO PUSH2 0xDA JUMPI PUSH0 DUP1 REVERT JUMPDEST POP PUSH2 0xE3 PUSH2 0x1ED JUMP JUMPDEST PUSH1 0x40 MLOAD PUSH2 0xF0 SWAP2 SWAP1 PUSH2 0xF5E JUMP JUMPDEST PUSH1 0x40 MLOAD DUP1 SWAP2 SUB SWAP1 RETURN JUMPDEST CALLVALUE DUP1 ISZERO PUSH2 0x104 JUMPI PUSH0 DUP1 REVERT JUMPDEST POP PUSH2 0x10D PUSH2 0x21E JUMP JUMPDEST STOP JUMPDEST CALLVALUE DUP1 ISZERO PUSH2 0x11A JUMPI PUSH0 DUP1 REVERT JUMPDEST POP PUSH2 0x123 PUSH2 0x231 JUMP JUMPDEST PUSH1 0x40 MLOAD PUSH2 0x130 SWAP2 SWAP1 PUSH2 0xF86 JUMP JUMPDEST PUSH1 0x40 MLOAD DUP1 SWAP2 SUB SWAP1 RETURN JUMPDEST CALLVALUE DUP1 ISZERO PUSH2 0x144 JUMPI PUSH0 DUP1 REVERT JUMPDEST POP PUSH2 0x14D PUSH2 0x266 JUMP JUMPDEST PUSH1 0x40 MLOAD PUSH2 0x15A SWAP2 SWAP1 PUSH2 0xFFF JUMP JUMPDEST PUSH1 0x40 MLOAD DUP1 SWAP2 SUB SWAP1 RETURN JUMPDEST CALLVALUE DUP1 ISZERO PUSH2 0x16E JUMPI PUSH0 DUP1 REVERT JUMPDEST POP PUSH2 0x177 PUSH2 0x29F JUMP JUMPDEST STOP JUMPDEST CALLVALUE DUP1 ISZERO PUSH2 0x184 JUMPI PUSH0 DUP1 REVERT JUMPDEST POP PUSH2 0x19F PUSH1 0x4 DUP1 CALLDATASIZE SUB DUP2 ADD SWAP1 PUSH2 0x19A SWAP2 SWAP1 PUSH2 0x1049 JUMP JUMPDEST PUSH2 0x2B4 JUMP JUMPDEST STOP JUMPDEST CALLVALUE DUP1 ISZERO PUSH2 0x1AC JUMPI PUSH0 DUP1 REVERT JUMPDEST POP PUSH2 0x1C7 PUSH1 0x4 DUP1 CALLDATASIZE SUB DUP2 ADD SWAP1 PUSH2 0x1C2 SWAP2 SWAP1 PUSH2 0x1074 JUMP JUMPDEST PUSH2 0x43B JUMP JUMPDEST STOP JUMPDEST PUSH0 SLOAD DUP2 JUMP JUMPDEST PUSH2 0x1D6 PUSH2 0x4BF JUMP JUMPDEST PUSH2 0x1DF DUP3 PUSH2 0x5A5 JUMP JUMPDEST PUSH2 0x1E9 DUP3 DUP3 PUSH2 0x5A8 JUMP JUMPDEST POP POP JUMP JUMPDEST PUSH0 PUSH2 0x1F6 PUSH2 0x6C6 JUMP JUMPDEST PUSH32 0x360894A13BA1A3210667C828492DB98DCA3E2076CC3735A920A3CA505D382BBC PUSH0 SHL SWAP1 POP SWAP1 JUMP JUMPDEST PUSH2 0x226 PUSH2 0x74D JUMP JUMPDEST PUSH2 0x22F PUSH0 PUSH2 0x7D4 JUMP JUMPDEST JUMP JUMPDEST PUSH0 DUP1 PUSH2 0x23B PUSH2 0x8A5 JUMP JUMPDEST SWAP1 POP DUP1 PUSH0 ADD PUSH0 SWAP1 SLOAD SWAP1 PUSH2 0x100 EXP SWAP1 DIV PUSH20 0xFFFFFFFFFFFFFFFFFFFFFFFFFFFFFFFFFFFFFFFF AND SWAP2 POP POP SWAP1 JUMP JUMPDEST PUSH1 0x40 MLOAD DUP1 PUSH1 0x40 ADD PUSH1 0x40 MSTORE DUP1 PUSH1 0x5 DUP2 MSTORE PUSH1 0x20 ADD PUSH32 0x352E302E30000000000000000000000000000000000000000000000000000000 DUP2 MSTORE POP DUP2 JUMP JUMPDEST PUSH1 0x2 PUSH0 SLOAD PUSH2 0x2AD SWAP2 SWAP1 PUSH2 0x10CC JUMP JUMPDEST PUSH0 DUP2 SWAP1 SSTORE POP JUMP JUMPDEST PUSH0 PUSH2 0x2BD PUSH2 0x8CC JUMP JUMPDEST SWAP1 POP PUSH0 DUP2 PUSH0 ADD PUSH1 0x8 SWAP1 SLOAD SWAP1 PUSH2 0x100 EXP SWAP1 DIV PUSH1 0xFF AND ISZERO SWAP1 POP PUSH0 DUP3 PUSH0 ADD PUSH0 SWAP1 SLOAD SWAP1 PUSH2 0x100 EXP SWAP1 DIV PUSH8 0xFFFFFFFFFFFFFFFF AND SWAP1 POP PUSH0 DUP1 DUP3 PUSH8 0xFFFFFFFFFFFFFFFF AND EQ DUP1 ISZERO PUSH2 0x305 JUMPI POP DUP3 JUMPDEST SWAP1 POP PUSH0 PUSH1 0x1 DUP4 PUSH8 0xFFFFFFFFFFFFFFFF AND EQ DUP1 ISZERO PUSH2 0x338 JUMPI POP PUSH0 ADDRESS PUSH20 0xFFFFFFFFFFFFFFFFFFFFFFFFFFFFFFFFFFFFFFFF AND EXTCODESIZE EQ JUMPDEST SWAP1 POP DUP2 ISZERO DUP1 ISZERO PUSH2 0x346 JUMPI POP DUP1 ISZERO JUMPDEST ISZERO PUSH2 0x37D JUMPI PUSH1 0x40 MLOAD PUSH32 0xF92EE8A900000000000000000000000000000000000000000000000000000000 DUP2 MSTORE PUSH1 0x4 ADD PUSH1 0x40 MLOAD DUP1 SWAP2 SUB SWAP1 REVERT JUMPDEST PUSH1 0x1 DUP6 PUSH0 ADD PUSH0 PUSH2 0x100 EXP DUP2 SLOAD DUP2 PUSH8 0xFFFFFFFFFFFFFFFF MUL NOT AND SWAP1 DUP4 PUSH8 0xFFFFFFFFFFFFFFFF AND MUL OR SWAP1 SSTORE POP DUP4 ISZERO PUSH2 0x3CA JUMPI PUSH1 0x1 DUP6 PUSH0 ADD PUSH1 0x8 PUSH2 0x100 EXP DUP2 SLOAD DUP2 PUSH1 0xFF MUL NOT AND SWAP1 DUP4 ISZERO ISZERO MUL OR SWAP1 SSTORE POP JUMPDEST DUP6 PUSH0 DUP2 SWAP1 SSTORE POP PUSH2 0x3D9 CALLER PUSH2 0x8F3 JUMP JUMPDEST DUP4 ISZERO PUSH2 0x433 JUMPI PUSH0 DUP6 PUSH0 ADD PUSH1 0x8 PUSH2 0x100 EXP DUP2 SLOAD DUP2 PUSH1 0xFF MUL NOT AND SWAP1 DUP4 ISZERO ISZERO MUL OR SWAP1 SSTORE POP PUSH32 0xC7F505B2F371AE2175EE4913F4499E1F2633A7B5936321EED1CDAEB6115181D2 PUSH1 0x1 PUSH1 0x40 MLOAD PUSH2 0x42A SWAP2 SWAP1 PUSH2 0x1162 JUMP JUMPDEST PUSH1 0x40 MLOAD DUP1 SWAP2 SUB SWAP1 LOG1 JUMPDEST POP POP POP POP POP POP JUMP JUMPDEST PUSH2 0x443 PUSH2 0x74D JUMP JUMPDEST PUSH0 PUSH20 0xFFFFFFFFFFFFFFFFFFFFFFFFFFFFFFFFFFFFFFFF AND DUP2 PUSH20 0xFFFFFFFFFFFFFFFFFFFFFFFFFFFFFFFFFFFFFFFF AND SUB PUSH2 0x4B3 JUMPI PUSH0 PUSH1 0x40 MLOAD PUSH32 0x1E4FBDF700000000000000000000000000000000000000000000000000000000 DUP2 MSTORE PUSH1 0x4 ADD PUSH2 0x4AA SWAP2 SWAP1 PUSH2 0xF86 JUMP JUMPDEST PUSH1 0x40 MLOAD DUP1 SWAP2 SUB SWAP1 REVERT JUMPDEST PUSH2 0x4BC DUP2 PUSH2 0x7D4 JUMP JUMPDEST POP JUMP JUMPDEST PUSH32 0x0 PUSH20 0xFFFFFFFFFFFFFFFFFFFFFFFFFFFFFFFFFFFFFFFF AND ADDRESS PUSH20 0xFFFFFFFFFFFFFFFFFFFFFFFFFFFFFFFFFFFFFFFF AND EQ DUP1 PUSH2 0x56C JUMPI POP PUSH32 0x0 PUSH20 0xFFFFFFFFFFFFFFFFFFFFFFFFFFFFFFFFFFFFFFFF AND PUSH2 0x553 PUSH2 0x907 JUMP JUMPDEST PUSH20 0xFFFFFFFFFFFFFFFFFFFFFFFFFFFFFFFFFFFFFFFF AND EQ ISZERO JUMPDEST ISZERO PUSH2 0x5A3 JUMPI PUSH1 0x40 MLOAD PUSH32 0xE07C8DBA00000000000000000000000000000000000000000000000000000000 DUP2 MSTORE PUSH1 0x4 ADD PUSH1 0x40 MLOAD DUP1 SWAP2 SUB SWAP1 REVERT JUMPDEST JUMP JUMPDEST POP JUMP JUMPDEST DUP2 PUSH20 0xFFFFFFFFFFFFFFFFFFFFFFFFFFFFFFFFFFFFFFFF AND PUSH4 0x52D1902D PUSH1 0x40 MLOAD DUP2 PUSH4 0xFFFFFFFF AND PUSH1 0xE0 SHL DUP2 MSTORE PUSH1 0x4 ADD PUSH1 0x20 PUSH1 0x40 MLOAD DUP1 DUP4 SUB DUP2 DUP7 GAS STATICCALL SWAP3 POP POP POP DUP1 ISZERO PUSH2 0x610 JUMPI POP PUSH1 0x40 MLOAD RETURNDATASIZE PUSH1 0x1F NOT PUSH1 0x1F DUP3 ADD AND DUP3 ADD DUP1 PUSH1 0x40 MSTORE POP DUP2 ADD SWAP1 PUSH2 0x60D SWAP2 SWAP1 PUSH2 0x11A5 JUMP JUMPDEST PUSH1 0x1 JUMPDEST PUSH2 0x651 JUMPI DUP2 PUSH1 0x40 MLOAD PUSH32 0x4C9C8CE300000000000000000000000000000000000000000000000000000000 DUP2 MSTORE PUSH1 0x4 ADD PUSH2 0x648 SWAP2 SWAP1 PUSH2 0xF86 JUMP JUMPDEST PUSH1 0x40 MLOAD DUP1 SWAP2 SUB SWAP1 REVERT JUMPDEST PUSH32 0x360894A13BA1A3210667C828492DB98DCA3E2076CC3735A920A3CA505D382BBC PUSH0 SHL DUP2 EQ PUSH2 0x6B7 JUMPI DUP1 PUSH1 0x40 MLOAD PUSH32 0xAA1D49A400000000000000000000000000000000000000000000000000000000 DUP2 MSTORE PUSH1 0x4 ADD PUSH2 0x6AE SWAP2 SWAP1 PUSH2 0xF5E JUMP JUMPDEST PUSH1 0x40 MLOAD DUP1 SWAP2 SUB SWAP1 REVERT JUMPDEST PUSH2 0x6C1 DUP4 DUP4 PUSH2 0x95A JUMP JUMPDEST POP POP POP JUMP JUMPDEST PUSH32 0x0 PUSH20 0xFFFFFFFFFFFFFFFFFFFFFFFFFFFFFFFFFFFFFFFF AND ADDRESS PUSH20 0xFFFFFFFFFFFFFFFFFFFFFFFFFFFFFFFFFFFFFFFF AND EQ PUSH2 0x74B JUMPI PUSH1 0x40 MLOAD PUSH32 0xE07C8DBA00000000000000000000000000000000000000000000000000000000 DUP2 MSTORE PUSH1 0x4 ADD PUSH1 0x40 MLOAD DUP1 SWAP2 SUB SWAP1 REVERT JUMPDEST JUMP JUMPDEST PUSH2 0x755 PUSH2 0x9CC JUMP JUMPDEST PUSH20 0xFFFFFFFFFFFFFFFFFFFFFFFFFFFFFFFFFFFFFFFF AND PUSH2 0x773 PUSH2 0x231 JUMP JUMPDEST PUSH20 0xFFFFFFFFFFFFFFFFFFFFFFFFFFFFFFFFFFFFFFFF AND EQ PUSH2 0x7D2 JUMPI PUSH2 0x796 PUSH2 0x9CC JUMP JUMPDEST PUSH1 0x40 MLOAD PUSH32 0x118CDAA700000000000000000000000000000000000000000000000000000000 DUP2 MSTORE PUSH1 0x4 ADD PUSH2 0x7C9 SWAP2 SWAP1 PUSH2 0xF86 JUMP JUMPDEST PUSH1 0x40 MLOAD DUP1 SWAP2 SUB SWAP1 REVERT JUMPDEST JUMP JUMPDEST PUSH0 PUSH2 0x7DD PUSH2 0x8A5 JUMP JUMPDEST SWAP1 POP PUSH0 DUP2 PUSH0 ADD PUSH0 SWAP1 SLOAD SWAP1 PUSH2 0x100 EXP SWAP1 DIV PUSH20 0xFFFFFFFFFFFFFFFFFFFFFFFFFFFFFFFFFFFFFFFF AND SWAP1 POP DUP3 DUP3 PUSH0 ADD PUSH0 PUSH2 0x100 EXP DUP2 SLOAD DUP2 PUSH20 0xFFFFFFFFFFFFFFFFFFFFFFFFFFFFFFFFFFFFFFFF MUL NOT AND SWAP1 DUP4 PUSH20 0xFFFFFFFFFFFFFFFFFFFFFFFFFFFFFFFFFFFFFFFF AND MUL OR SWAP1 SSTORE POP DUP3 PUSH20 0xFFFFFFFFFFFFFFFFFFFFFFFFFFFFFFFFFFFFFFFF AND DUP2 PUSH20 0xFFFFFFFFFFFFFFFFFFFFFFFFFFFFFFFFFFFFFFFF AND PUSH32 0x8BE0079C531659141344CD1FD0A4F28419497F9722A3DAAFE3B4186F6B6457E0 PUSH1 0x40 MLOAD PUSH1 0x40 MLOAD DUP1 SWAP2 SUB SWAP1 LOG3 POP POP POP JUMP JUMPDEST PUSH0 PUSH32 0x9016D09D72D40FDAE2FD8CEAC6B6234C7706214FD39C1CD1E609A0528C199300 SWAP1 POP SWAP1 JUMP JUMPDEST PUSH0 PUSH32 0xF0C57E16840DF040F15088DC2F81FE391C3923BEC73E23A9662EFC9C229C6A00 SWAP1 POP SWAP1 JUMP JUMPDEST PUSH2 0x8FB PUSH2 0x9D3 JUMP JUMPDEST PUSH2 0x904 DUP2 PUSH2 0xA13 JUMP JUMPDEST POP JUMP JUMPDEST PUSH0 PUSH2 0x933 PUSH32 0x360894A13BA1A3210667C828492DB98DCA3E2076CC3735A920A3CA505D382BBC PUSH0 SHL PUSH2 0xA97 JUMP JUMPDEST PUSH0 ADD PUSH0 SWAP1 SLOAD SWAP1 PUSH2 0x100 EXP SWAP1 DIV PUSH20 0xFFFFFFFFFFFFFFFFFFFFFFFFFFFFFFFFFFFFFFFF AND SWAP1 POP SWAP1 JUMP JUMPDEST PUSH2 0x963 DUP3 PUSH2 0xAA0 JUMP JUMPDEST DUP2 PUSH20 0xFFFFFFFFFFFFFFFFFFFFFFFFFFFFFFFFFFFFFFFF AND PUSH32 0xBC7CD75A20EE27FD9ADEBAB32041F755214DBC6BFFA90CC0225B39DA2E5C2D3B PUSH1 0x40 MLOAD PUSH1 0x40 MLOAD DUP1 SWAP2 SUB SWAP1 LOG2 PUSH0 DUP2 MLOAD GT ISZERO PUSH2 0x9BF JUMPI PUSH2 0x9B9 DUP3 DUP3 PUSH2 0xB69 JUMP JUMPDEST POP PUSH2 0x9C8 JUMP JUMPDEST PUSH2 0x9C7 PUSH2 0xBE9 JUMP JUMPDEST JUMPDEST POP POP JUMP JUMPDEST PUSH0 CALLER SWAP1 POP SWAP1 JUMP JUMPDEST PUSH2 0x9DB PUSH2 0xC25 JUMP JUMPDEST PUSH2 0xA11 JUMPI PUSH1 0x40 MLOAD PUSH32 0xD7E6BCF800000000000000000000000000000000000000000000000000000000 DUP2 MSTORE PUSH1 0x4 ADD PUSH1 0x40 MLOAD DUP1 SWAP2 SUB SWAP1 REVERT JUMPDEST JUMP JUMPDEST PUSH2 0xA1B PUSH2 0x9D3 JUMP JUMPDEST PUSH0 PUSH20 0xFFFFFFFFFFFFFFFFFFFFFFFFFFFFFFFFFFFFFFFF AND DUP2 PUSH20 0xFFFFFFFFFFFFFFFFFFFFFFFFFFFFFFFFFFFFFFFF AND SUB PUSH2 0xA8B JUMPI PUSH0 PUSH1 0x40 MLOAD PUSH32 0x1E4FBDF700000000000000000000000000000000000000000000000000000000 DUP2 MSTORE PUSH1 0x4 ADD PUSH2 0xA82 SWAP2 SWAP1 PUSH2 0xF86 JUMP JUMPDEST PUSH1 0x40 MLOAD DUP1 SWAP2 SUB SWAP1 REVERT JUMPDEST PUSH2 0xA94 DUP2 PUSH2 0x7D4 JUMP JUMPDEST POP JUMP JUMPDEST PUSH0 DUP2 SWAP1 POP SWAP2 SWAP1 POP JUMP JUMPDEST PUSH0 DUP2 PUSH20 0xFFFFFFFFFFFFFFFFFFFFFFFFFFFFFFFFFFFFFFFF AND EXTCODESIZE SUB PUSH2 0xAFB JUMPI DUP1 PUSH1 0x40 MLOAD PUSH32 0x4C9C8CE300000000000000000000000000000000000000000000000000000000 DUP2 MSTORE PUSH1 0x4 ADD PUSH2 0xAF2 SWAP2 SWAP1 PUSH2 0xF86 JUMP JUMPDEST PUSH1 0x40 MLOAD DUP1 SWAP2 SUB SWAP1 REVERT JUMPDEST DUP1 PUSH2 0xB27 PUSH32 0x360894A13BA1A3210667C828492DB98DCA3E2076CC3735A920A3CA505D382BBC PUSH0 SHL PUSH2 0xA97 JUMP JUMPDEST PUSH0 ADD PUSH0 PUSH2 0x100 EXP DUP2 SLOAD DUP2 PUSH20 0xFFFFFFFFFFFFFFFFFFFFFFFFFFFFFFFFFFFFFFFF MUL NOT AND SWAP1 DUP4 PUSH20 0xFFFFFFFFFFFFFFFFFFFFFFFFFFFFFFFFFFFFFFFF AND MUL OR SWAP1 SSTORE POP POP JUMP JUMPDEST PUSH1 0x60 PUSH0 DUP1 DUP5 PUSH20 0xFFFFFFFFFFFFFFFFFFFFFFFFFFFFFFFFFFFFFFFF AND DUP5 PUSH1 0x40 MLOAD PUSH2 0xB92 SWAP2 SWAP1 PUSH2 0x1214 JUMP JUMPDEST PUSH0 PUSH1 0x40 MLOAD DUP1 DUP4 SUB DUP2 DUP6 GAS DELEGATECALL SWAP2 POP POP RETURNDATASIZE DUP1 PUSH0 DUP2 EQ PUSH2 0xBCA JUMPI PUSH1 0x40 MLOAD SWAP2 POP PUSH1 0x1F NOT PUSH1 0x3F RETURNDATASIZE ADD AND DUP3 ADD PUSH1 0x40 MSTORE RETURNDATASIZE DUP3 MSTORE RETURNDATASIZE PUSH0 PUSH1 0x20 DUP5 ADD RETURNDATACOPY PUSH2 0xBCF JUMP JUMPDEST PUSH1 0x60 SWAP2 POP JUMPDEST POP SWAP2 POP SWAP2 POP PUSH2 0xBDF DUP6 DUP4 DUP4 PUSH2 0xC43 JUMP JUMPDEST SWAP3 POP POP POP SWAP3 SWAP2 POP POP JUMP JUMPDEST PUSH0 CALLVALUE GT ISZERO PUSH2 0xC23 JUMPI PUSH1 0x40 MLOAD PUSH32 0xB398979F00000000000000000000000000000000000000000000000000000000 DUP2 MSTORE PUSH1 0x4 ADD PUSH1 0x40 MLOAD DUP1 SWAP2 SUB SWAP1 REVERT JUMPDEST JUMP JUMPDEST PUSH0 PUSH2 0xC2E PUSH2 0x8CC JUMP JUMPDEST PUSH0 ADD PUSH1 0x8 SWAP1 SLOAD SWAP1 PUSH2 0x100 EXP SWAP1 DIV PUSH1 0xFF AND SWAP1 POP SWAP1 JUMP JUMPDEST PUSH1 0x60 DUP3 PUSH2 0xC58 JUMPI PUSH2 0xC53 DUP3 PUSH2 0xCD0 JUMP JUMPDEST PUSH2 0xCC8 JUMP JUMPDEST PUSH0 DUP3 MLOAD EQ DUP1 ISZERO PUSH2 0xC7E JUMPI POP PUSH0 DUP5 PUSH20 0xFFFFFFFFFFFFFFFFFFFFFFFFFFFFFFFFFFFFFFFF AND EXTCODESIZE EQ JUMPDEST ISZERO PUSH2 0xCC0 JUMPI DUP4 PUSH1 0x40 MLOAD PUSH32 0x9996B31500000000000000000000000000000000000000000000000000000000 DUP2 MSTORE PUSH1 0x4 ADD PUSH2 0xCB7 SWAP2 SWAP1 PUSH2 0xF86 JUMP JUMPDEST PUSH1 0x40 MLOAD DUP1 SWAP2 SUB SWAP1 REVERT JUMPDEST DUP2 SWAP1 POP PUSH2 0xCC9 JUMP JUMPDEST JUMPDEST SWAP4 SWAP3 POP POP POP JUMP JUMPDEST PUSH0 DUP2 MLOAD GT ISZERO PUSH2 0xCE2 JUMPI DUP1 MLOAD DUP1 DUP3 PUSH1 0x20 ADD REVERT JUMPDEST PUSH1 0x40 MLOAD PUSH32 0xD6BDA27500000000000000000000000000000000000000000000000000000000 DUP2 MSTORE PUSH1 0x4 ADD PUSH1 0x40 MLOAD DUP1 SWAP2 SUB SWAP1 REVERT JUMPDEST PUSH0 DUP2 SWAP1 POP SWAP2 SWAP1 POP JUMP JUMPDEST PUSH2 0xD26 DUP2 PUSH2 0xD14 JUMP JUMPDEST DUP3 MSTORE POP POP JUMP JUMPDEST PUSH0 PUSH1 0x20 DUP3 ADD SWAP1 POP PUSH2 0xD3F PUSH0 DUP4 ADD DUP5 PUSH2 0xD1D JUMP JUMPDEST SWAP3 SWAP2 POP POP JUMP JUMPDEST PUSH0 PUSH1 0x40 MLOAD SWAP1 POP SWAP1 JUMP JUMPDEST PUSH0 DUP1 REVERT JUMPDEST PUSH0 DUP1 REVERT JUMPDEST PUSH0 PUSH20 0xFFFFFFFFFFFFFFFFFFFFFFFFFFFFFFFFFFFFFFFF DUP3 AND SWAP1 POP SWAP2 SWAP1 POP JUMP JUMPDEST PUSH0 PUSH2 0xD7F DUP3 PUSH2 0xD56 JUMP JUMPDEST SWAP1 POP SWAP2 SWAP1 POP JUMP JUMPDEST PUSH2 0xD8F DUP2 PUSH2 0xD75 JUMP JUMPDEST DUP2 EQ PUSH2 0xD99 JUMPI PUSH0 DUP1 REVERT JUMPDEST POP JUMP JUMPDEST PUSH0 DUP2 CALLDATALOAD SWAP1 POP PUSH2 0xDAA DUP2 PUSH2 0xD86 JUMP JUMPDEST SWAP3 SWAP2 POP POP JUMP JUMPDEST PUSH0 DUP1 REVERT JUMPDEST PUSH0 DUP1 REVERT JUMPDEST PUSH0 PUSH1 0x1F NOT PUSH1 0x1F DUP4 ADD AND SWAP1 POP SWAP2 SWAP1 POP JUMP JUMPDEST PUSH32 0x4E487B7100000000000000000000000000000000000000000000000000000000 PUSH0 MSTORE PUSH1 0x41 PUSH1 0x4 MSTORE PUSH1 0x24 PUSH0 REVERT JUMPDEST PUSH2 0xDFE DUP3 PUSH2 0xDB8 JUMP JUMPDEST DUP2 ADD DUP2 DUP2 LT PUSH8 0xFFFFFFFFFFFFFFFF DUP3 GT OR ISZERO PUSH2 0xE1D JUMPI PUSH2 0xE1C PUSH2 0xDC8 JUMP JUMPDEST JUMPDEST DUP1 PUSH1 0x40 MSTORE POP POP POP JUMP JUMPDEST PUSH0 PUSH2 0xE2F PUSH2 0xD45 JUMP JUMPDEST SWAP1 POP PUSH2 0xE3B DUP3 DUP3 PUSH2 0xDF5 JUMP JUMPDEST SWAP2 SWAP1 POP JUMP JUMPDEST PUSH0 PUSH8 0xFFFFFFFFFFFFFFFF DUP3 GT ISZERO PUSH2 0xE5A JUMPI PUSH2 0xE59 PUSH2 0xDC8 JUMP JUMPDEST JUMPDEST PUSH2 0xE63 DUP3 PUSH2 0xDB8 JUMP JUMPDEST SWAP1 POP PUSH1 0x20 DUP2 ADD SWAP1 POP SWAP2 SWAP1 POP JUMP JUMPDEST DUP3 DUP2 DUP4 CALLDATACOPY PUSH0 DUP4 DUP4 ADD MSTORE POP POP POP JUMP JUMPDEST PUSH0 PUSH2 0xE90 PUSH2 0xE8B DUP5 PUSH2 0xE40 JUMP JUMPDEST PUSH2 0xE26 JUMP JUMPDEST SWAP1 POP DUP3 DUP2 MSTORE PUSH1 0x20 DUP2 ADD DUP5 DUP5 DUP5 ADD GT ISZERO PUSH2 0xEAC JUMPI PUSH2 0xEAB PUSH2 0xDB4 JUMP JUMPDEST JUMPDEST PUSH2 0xEB7 DUP5 DUP3 DUP6 PUSH2 0xE70 JUMP JUMPDEST POP SWAP4 SWAP3 POP POP POP JUMP JUMPDEST PUSH0 DUP3 PUSH1 0x1F DUP4 ADD SLT PUSH2 0xED3 JUMPI PUSH2 0xED2 PUSH2 0xDB0 JUMP JUMPDEST JUMPDEST DUP2 CALLDATALOAD PUSH2 0xEE3 DUP5 DUP3 PUSH1 0x20 DUP7 ADD PUSH2 0xE7E JUMP JUMPDEST SWAP2 POP POP SWAP3 SWAP2 POP POP JUMP JUMPDEST PUSH0 DUP1 PUSH1 0x40 DUP4 DUP6 SUB SLT ISZERO PUSH2 0xF02 JUMPI PUSH2 0xF01 PUSH2 0xD4E JUMP JUMPDEST JUMPDEST PUSH0 PUSH2 0xF0F DUP6 DUP3 DUP7 ADD PUSH2 0xD9C JUMP JUMPDEST SWAP3 POP POP PUSH1 0x20 DUP4 ADD CALLDATALOAD PUSH8 0xFFFFFFFFFFFFFFFF DUP2 GT ISZERO PUSH2 0xF30 JUMPI PUSH2 0xF2F PUSH2 0xD52 JUMP JUMPDEST JUMPDEST PUSH2 0xF3C DUP6 DUP3 DUP7 ADD PUSH2 0xEBF JUMP JUMPDEST SWAP2 POP POP SWAP3 POP SWAP3 SWAP1 POP JUMP JUMPDEST PUSH0 DUP2 SWAP1 POP SWAP2 SWAP1 POP JUMP JUMPDEST PUSH2 0xF58 DUP2 PUSH2 0xF46 JUMP JUMPDEST DUP3 MSTORE POP POP JUMP JUMPDEST PUSH0 PUSH1 0x20 DUP3 ADD SWAP1 POP PUSH2 0xF71 PUSH0 DUP4 ADD DUP5 PUSH2 0xF4F JUMP JUMPDEST SWAP3 SWAP2 POP POP JUMP JUMPDEST PUSH2 0xF80 DUP2 PUSH2 0xD75 JUMP JUMPDEST DUP3 MSTORE POP POP JUMP JUMPDEST PUSH0 PUSH1 0x20 DUP3 ADD SWAP1 POP PUSH2 0xF99 PUSH0 DUP4 ADD DUP5 PUSH2 0xF77 JUMP JUMPDEST SWAP3 SWAP2 POP POP JUMP JUMPDEST PUSH0 DUP2 MLOAD SWAP1 POP SWAP2 SWAP1 POP JUMP JUMPDEST PUSH0 DUP3 DUP3 MSTORE PUSH1 0x20 DUP3 ADD SWAP1 POP SWAP3 SWAP2 POP POP JUMP JUMPDEST DUP3 DUP2 DUP4 MCOPY PUSH0 DUP4 DUP4 ADD MSTORE POP POP POP JUMP JUMPDEST PUSH0 PUSH2 0xFD1 DUP3 PUSH2 0xF9F JUMP JUMPDEST PUSH2 0xFDB DUP2 DUP6 PUSH2 0xFA9 JUMP JUMPDEST SWAP4 POP PUSH2 0xFEB DUP2 DUP6 PUSH1 0x20 DUP7 ADD PUSH2 0xFB9 JUMP JUMPDEST PUSH2 0xFF4 DUP2 PUSH2 0xDB8 JUMP JUMPDEST DUP5 ADD SWAP2 POP POP SWAP3 SWAP2 POP POP JUMP JUMPDEST PUSH0 PUSH1 0x20 DUP3 ADD SWAP1 POP DUP2 DUP2 SUB PUSH0 DUP4 ADD MSTORE PUSH2 0x1017 DUP2 DUP5 PUSH2 0xFC7 JUMP JUMPDEST SWAP1 POP SWAP3 SWAP2 POP POP JUMP JUMPDEST PUSH2 0x1028 DUP2 PUSH2 0xD14 JUMP JUMPDEST DUP2 EQ PUSH2 0x1032 JUMPI PUSH0 DUP1 REVERT JUMPDEST POP JUMP JUMPDEST PUSH0 DUP2 CALLDATALOAD SWAP1 POP PUSH2 0x1043 DUP2 PUSH2 0x101F JUMP JUMPDEST SWAP3 SWAP2 POP POP JUMP JUMPDEST PUSH0 PUSH1 0x20 DUP3 DUP5 SUB SLT ISZERO PUSH2 0x105E JUMPI PUSH2 0x105D PUSH2 0xD4E JUMP JUMPDEST JUMPDEST PUSH0 PUSH2 0x106B DUP5 DUP3 DUP6 ADD PUSH2 0x1035 JUMP JUMPDEST SWAP2 POP POP SWAP3 SWAP2 POP POP JUMP JUMPDEST PUSH0 PUSH1 0x20 DUP3 DUP5 SUB SLT ISZERO PUSH2 0x1089 JUMPI PUSH2 0x1088 PUSH2 0xD4E JUMP JUMPDEST JUMPDEST PUSH0 PUSH2 0x1096 DUP5 DUP3 DUP6 ADD PUSH2 0xD9C JUMP JUMPDEST SWAP2 POP POP SWAP3 SWAP2 POP POP JUMP JUMPDEST PUSH32 0x4E487B7100000000000000000000000000000000000000000000000000000000 PUSH0 MSTORE PUSH1 0x11 PUSH1 0x4 MSTORE PUSH1 0x24 PUSH0 REVERT JUMPDEST PUSH0 PUSH2 0x10D6 DUP3 PUSH2 0xD14 JUMP JUMPDEST SWAP2 POP PUSH2 0x10E1 DUP4 PUSH2 0xD14 JUMP JUMPDEST SWAP3 POP DUP3 DUP3 MUL PUSH2 0x10EF DUP2 PUSH2 0xD14 JUMP JUMPDEST SWAP2 POP DUP3 DUP3 DIV DUP5 EQ DUP4 ISZERO OR PUSH2 0x1106 JUMPI PUSH2 0x1105 PUSH2 0x109F JUMP JUMPDEST JUMPDEST POP SWAP3 SWAP2 POP POP JUMP JUMPDEST PUSH0 DUP2 SWAP1 POP SWAP2 SWAP1 POP JUMP JUMPDEST PUSH0 PUSH8 0xFFFFFFFFFFFFFFFF DUP3 AND SWAP1 POP SWAP2 SWAP1 POP JUMP JUMPDEST PUSH0 DUP2 SWAP1 POP SWAP2 SWAP1 POP JUMP JUMPDEST PUSH0 PUSH2 0x114C PUSH2 0x1147 PUSH2 0x1142 DUP5 PUSH2 0x110D JUMP JUMPDEST PUSH2 0x1129 JUMP JUMPDEST PUSH2 0x1116 JUMP JUMPDEST SWAP1 POP SWAP2 SWAP1 POP JUMP JUMPDEST PUSH2 0x115C DUP2 PUSH2 0x1132 JUMP JUMPDEST DUP3 MSTORE POP POP JUMP JUMPDEST PUSH0 PUSH1 0x20 DUP3 ADD SWAP1 POP PUSH2 0x1175 PUSH0 DUP4 ADD DUP5 PUSH2 0x1153 JUMP JUMPDEST SWAP3 SWAP2 POP POP JUMP JUMPDEST PUSH2 0x1184 DUP2 PUSH2 0xF46 JUMP JUMPDEST DUP2 EQ PUSH2 0x118E JUMPI PUSH0 DUP1 REVERT JUMPDEST POP JUMP JUMPDEST PUSH0 DUP2 MLOAD SWAP1 POP PUSH2 0x119F DUP2 PUSH2 0x117B JUMP JUMPDEST SWAP3 SWAP2 POP POP JUMP JUMPDEST PUSH0 PUSH1 0x20 DUP3 DUP5 SUB SLT ISZERO PUSH2 0x11BA JUMPI PUSH2 0x11B9 PUSH2 0xD4E JUMP JUMPDEST JUMPDEST PUSH0 PUSH2 0x11C7 DUP5 DUP3 DUP6 ADD PUSH2 0x1191 JUMP JUMPDEST SWAP2 POP POP SWAP3 SWAP2 POP POP JUMP JUMPDEST PUSH0 DUP2 MLOAD SWAP1 POP SWAP2 SWAP1 POP JUMP JUMPDEST PUSH0 DUP2 SWAP1 POP SWAP3 SWAP2 POP POP JUMP JUMPDEST PUSH0 PUSH2 0x11EE DUP3 PUSH2 0x11D0 JUMP JUMPDEST PUSH2 0x11F8 DUP2 DUP6 PUSH2 0x11DA JUMP JUMPDEST SWAP4 POP PUSH2 0x1208 DUP2 DUP6 PUSH1 0x20 DUP7 ADD PUSH2 0xFB9 JUMP JUMPDEST DUP1 DUP5 ADD SWAP2 POP POP SWAP3 SWAP2 POP POP JUMP JUMPDEST PUSH0 PUSH2 0x121F DUP3 DUP5 PUSH2 0x11E4 JUMP JUMPDEST SWAP2 POP DUP2 SWAP1 POP SWAP3 SWAP2 POP POP JUMP INVALID LOG2 PUSH5 0x6970667358 0x22 SLT KECCAK256 LOG2 0xF GT 0xE4 LT MSTORE 0xA7 TIMESTAMP TIMESTAMP DUP6 LOG0 MULMOD 0x25 0xD 0xEA 0xAE 0xBE PUSH6 0xC82E0E404D3C 0xF6 GT 0xEE 0x22 ISZERO 0xB5 0x1E MSIZE PUSH5 0x736F6C6343 STOP ADDMOD BYTE STOP CALLER "
				},
				"gasEstimates": {
					"creation": {
						"codeDepositCost": "940800",
						"executionCost": "infinite",
						"totalCost": "infinite"
					},
					"external": {
						"Initialize(uint256)": "infinite",
						"UPGRADE_INTERFACE_VERSION()": "infinite",
						"cal()": "infinite",
						"owner()": "2567",
						"proxiableUUID()": "infinite",
						"renounceOwnership()": "infinite",
						"transferOwnership(address)": "infinite",
						"upgradeToAndCall(address,bytes)": "infinite",
						"x()": "2425"
					},
					"internal": {
						"_authorizeUpgrade(address)": "11"
					}
				},
				"methodIdentifiers": {
					"Initialize(uint256)": "c43e48cf",
					"UPGRADE_INTERFACE_VERSION()": "ad3cb1cc",
					"cal()": "b7c738f4",
					"owner()": "8da5cb5b",
					"proxiableUUID()": "52d1902d",
					"renounceOwnership()": "715018a6",
					"transferOwnership(address)": "f2fde38b",
					"upgradeToAndCall(address,bytes)": "4f1ef286",
					"x()": "0c55699c"
				}
			},
			"storageLayout": {
				"storage": [
					{
						"astId": 1480,
						"contract": "contracts/openzeppelin/upgradable/UUPSV1.sol:UUPSV2",
						"label": "x",
						"offset": 0,
						"slot": "0",
						"type": "t_uint256"
					}
				],
				"types": {
					"t_uint256": {
						"encoding": "inplace",
						"label": "uint256",
						"numberOfBytes": "32"
					}
				}
			},
			"userdoc": {
				"kind": "user",
				"methods": {},
				"version": 1
			}
		}
	}
}