{
	"contracts/openzeppelin/MathUtils.sol": {
		"MathUtils": {
			"abi": [
				{
					"inputs": [
						{
							"internalType": "uint256",
							"name": "a",
							"type": "uint256"
						},
						{
							"internalType": "uint256",
							"name": "b",
							"type": "uint256"
						}
					],
					"name": "testAdd",
					"outputs": [],
					"stateMutability": "pure",
					"type": "function"
				},
				{
					"inputs": [
						{
							"internalType": "uint256",
							"name": "a",
							"type": "uint256"
						},
						{
							"internalType": "uint256",
							"name": "b",
							"type": "uint256"
						}
					],
					"name": "testAdd2",
					"outputs": [],
					"stateMutability": "pure",
					"type": "function"
				}
			],
			"devdoc": {
				"kind": "dev",
				"methods": {},
				"version": 1
			},
			"evm": {
				"assembly": "    /* \"contracts/openzeppelin/MathUtils.sol\":113:402  contract MathUtils {... */\n  mstore(0x40, 0x80)\n  callvalue\n  dup1\n  iszero\n  tag_1\n  jumpi\n  0x00\n  dup1\n  revert\ntag_1:\n  pop\n  dataSize(sub_0)\n  dup1\n  dataOffset(sub_0)\n  0x00\n  codecopy\n  0x00\n  return\nstop\n\nsub_0: assembly {\n        /* \"contracts/openzeppelin/MathUtils.sol\":113:402  contract MathUtils {... */\n      mstore(0x40, 0x80)\n      callvalue\n      dup1\n      iszero\n      tag_1\n      jumpi\n      0x00\n      dup1\n      revert\n    tag_1:\n      pop\n      jumpi(tag_2, lt(calldatasize, 0x04))\n      shr(0xe0, calldataload(0x00))\n      dup1\n      0x0aa78c71\n      eq\n      tag_3\n      jumpi\n      dup1\n      0x7c3ffef2\n      eq\n      tag_4\n      jumpi\n    tag_2:\n      0x00\n      dup1\n      revert\n        /* \"contracts/openzeppelin/MathUtils.sol\":322:399  function testAdd2(uint a,uint b) external pure {... */\n    tag_3:\n      tag_5\n      0x04\n      dup1\n      calldatasize\n      sub\n      dup2\n      add\n      swap1\n      tag_6\n      swap2\n      swap1\n      tag_7\n      jump\t// in\n    tag_6:\n      tag_8\n      jump\t// in\n    tag_5:\n      stop\n        /* \"contracts/openzeppelin/MathUtils.sol\":202:284  function testAdd(uint a, uint b) external pure {... */\n    tag_4:\n      tag_9\n      0x04\n      dup1\n      calldatasize\n      sub\n      dup2\n      add\n      swap1\n      tag_10\n      swap2\n      swap1\n      tag_7\n      jump\t// in\n    tag_10:\n      tag_11\n      jump\t// in\n    tag_9:\n      stop\n        /* \"contracts/openzeppelin/MathUtils.sol\":322:399  function testAdd2(uint a,uint b) external pure {... */\n    tag_8:\n        /* \"contracts/openzeppelin/MathUtils.sol\":380:391  a.tryAdd(b) */\n      tag_13\n        /* \"contracts/openzeppelin/MathUtils.sol\":389:390  b */\n      dup2\n        /* \"contracts/openzeppelin/MathUtils.sol\":380:381  a */\n      dup4\n        /* \"contracts/openzeppelin/MathUtils.sol\":380:388  a.tryAdd */\n      tag_14\n      swap1\n        /* \"contracts/openzeppelin/MathUtils.sol\":380:391  a.tryAdd(b) */\n      swap2\n      swap1\n      0xffffffff\n      and\n      jump\t// in\n    tag_13:\n      pop\n      pop\n        /* \"contracts/openzeppelin/MathUtils.sol\":322:399  function testAdd2(uint a,uint b) external pure {... */\n      pop\n      pop\n      jump\t// out\n        /* \"contracts/openzeppelin/MathUtils.sol\":202:284  function testAdd(uint a, uint b) external pure {... */\n    tag_11:\n        /* \"contracts/openzeppelin/MathUtils.sol\":260:276  Math.tryAdd(a,b) */\n      tag_16\n        /* \"contracts/openzeppelin/MathUtils.sol\":272:273  a */\n      dup3\n        /* \"contracts/openzeppelin/MathUtils.sol\":274:275  b */\n      dup3\n        /* \"contracts/openzeppelin/MathUtils.sol\":260:271  Math.tryAdd */\n      tag_14\n        /* \"contracts/openzeppelin/MathUtils.sol\":260:276  Math.tryAdd(a,b) */\n      jump\t// in\n    tag_16:\n      pop\n      pop\n        /* \"contracts/openzeppelin/MathUtils.sol\":202:284  function testAdd(uint a, uint b) external pure {... */\n      pop\n      pop\n      jump\t// out\n        /* \"@openzeppelin/contracts/utils/math/Math.sol\":586:817  function tryAdd(uint256 a, uint256 b) internal pure returns (bool success, uint256 result) {... */\n    tag_14:\n        /* \"@openzeppelin/contracts/utils/math/Math.sol\":647:659  bool success */\n      0x00\n        /* \"@openzeppelin/contracts/utils/math/Math.sol\":661:675  uint256 result */\n      dup1\n        /* \"@openzeppelin/contracts/utils/math/Math.sol\":711:720  uint256 c */\n      0x00\n        /* \"@openzeppelin/contracts/utils/math/Math.sol\":727:728  b */\n      dup4\n        /* \"@openzeppelin/contracts/utils/math/Math.sol\":723:724  a */\n      dup6\n        /* \"@openzeppelin/contracts/utils/math/Math.sol\":723:728  a + b */\n      add\n        /* \"@openzeppelin/contracts/utils/math/Math.sol\":711:728  uint256 c = a + b */\n      swap1\n      pop\n        /* \"@openzeppelin/contracts/utils/math/Math.sol\":750:751  a */\n      dup5\n        /* \"@openzeppelin/contracts/utils/math/Math.sol\":746:747  c */\n      dup2\n        /* \"@openzeppelin/contracts/utils/math/Math.sol\":746:751  c < a */\n      lt\n        /* \"@openzeppelin/contracts/utils/math/Math.sol\":742:770  if (c < a) return (false, 0) */\n      iszero\n      tag_18\n      jumpi\n        /* \"@openzeppelin/contracts/utils/math/Math.sol\":761:766  false */\n      0x00\n        /* \"@openzeppelin/contracts/utils/math/Math.sol\":768:769  0 */\n      dup1\n        /* \"@openzeppelin/contracts/utils/math/Math.sol\":753:770  return (false, 0) */\n      swap3\n      pop\n      swap3\n      pop\n      pop\n      jump(tag_17)\n        /* \"@openzeppelin/contracts/utils/math/Math.sol\":742:770  if (c < a) return (false, 0) */\n    tag_18:\n        /* \"@openzeppelin/contracts/utils/math/Math.sol\":792:796  true */\n      0x01\n        /* \"@openzeppelin/contracts/utils/math/Math.sol\":798:799  c */\n      dup2\n        /* \"@openzeppelin/contracts/utils/math/Math.sol\":784:800  return (true, c) */\n      swap3\n      pop\n      swap3\n      pop\n      pop\n        /* \"@openzeppelin/contracts/utils/math/Math.sol\":586:817  function tryAdd(uint256 a, uint256 b) internal pure returns (bool success, uint256 result) {... */\n    tag_17:\n      swap3\n      pop\n      swap3\n      swap1\n      pop\n      jump\t// out\n        /* \"#utility.yul\":88:205   */\n    tag_20:\n        /* \"#utility.yul\":197:198   */\n      0x00\n        /* \"#utility.yul\":194:195   */\n      dup1\n        /* \"#utility.yul\":187:199   */\n      revert\n        /* \"#utility.yul\":334:411   */\n    tag_22:\n        /* \"#utility.yul\":371:378   */\n      0x00\n        /* \"#utility.yul\":400:405   */\n      dup2\n        /* \"#utility.yul\":389:405   */\n      swap1\n      pop\n        /* \"#utility.yul\":334:411   */\n      swap2\n      swap1\n      pop\n      jump\t// out\n        /* \"#utility.yul\":417:539   */\n    tag_23:\n        /* \"#utility.yul\":490:514   */\n      tag_31\n        /* \"#utility.yul\":508:513   */\n      dup2\n        /* \"#utility.yul\":490:514   */\n      tag_22\n      jump\t// in\n    tag_31:\n        /* \"#utility.yul\":483:488   */\n      dup2\n        /* \"#utility.yul\":480:515   */\n      eq\n        /* \"#utility.yul\":470:533   */\n      tag_32\n      jumpi\n        /* \"#utility.yul\":529:530   */\n      0x00\n        /* \"#utility.yul\":526:527   */\n      dup1\n        /* \"#utility.yul\":519:531   */\n      revert\n        /* \"#utility.yul\":470:533   */\n    tag_32:\n        /* \"#utility.yul\":417:539   */\n      pop\n      jump\t// out\n        /* \"#utility.yul\":545:684   */\n    tag_24:\n        /* \"#utility.yul\":591:596   */\n      0x00\n        /* \"#utility.yul\":629:635   */\n      dup2\n        /* \"#utility.yul\":616:636   */\n      calldataload\n        /* \"#utility.yul\":607:636   */\n      swap1\n      pop\n        /* \"#utility.yul\":645:678   */\n      tag_34\n        /* \"#utility.yul\":672:677   */\n      dup2\n        /* \"#utility.yul\":645:678   */\n      tag_23\n      jump\t// in\n    tag_34:\n        /* \"#utility.yul\":545:684   */\n      swap3\n      swap2\n      pop\n      pop\n      jump\t// out\n        /* \"#utility.yul\":690:1164   */\n    tag_7:\n        /* \"#utility.yul\":758:764   */\n      0x00\n        /* \"#utility.yul\":766:772   */\n      dup1\n        /* \"#utility.yul\":815:817   */\n      0x40\n        /* \"#utility.yul\":803:812   */\n      dup4\n        /* \"#utility.yul\":794:801   */\n      dup6\n        /* \"#utility.yul\":790:813   */\n      sub\n        /* \"#utility.yul\":786:818   */\n      slt\n        /* \"#utility.yul\":783:902   */\n      iszero\n      tag_36\n      jumpi\n        /* \"#utility.yul\":821:900   */\n      tag_37\n      tag_20\n      jump\t// in\n    tag_37:\n        /* \"#utility.yul\":783:902   */\n    tag_36:\n        /* \"#utility.yul\":941:942   */\n      0x00\n        /* \"#utility.yul\":966:1019   */\n      tag_38\n        /* \"#utility.yul\":1011:1018   */\n      dup6\n        /* \"#utility.yul\":1002:1008   */\n      dup3\n        /* \"#utility.yul\":991:1000   */\n      dup7\n        /* \"#utility.yul\":987:1009   */\n      add\n        /* \"#utility.yul\":966:1019   */\n      tag_24\n      jump\t// in\n    tag_38:\n        /* \"#utility.yul\":956:1019   */\n      swap3\n      pop\n        /* \"#utility.yul\":912:1029   */\n      pop\n        /* \"#utility.yul\":1068:1070   */\n      0x20\n        /* \"#utility.yul\":1094:1147   */\n      tag_39\n        /* \"#utility.yul\":1139:1146   */\n      dup6\n        /* \"#utility.yul\":1130:1136   */\n      dup3\n        /* \"#utility.yul\":1119:1128   */\n      dup7\n        /* \"#utility.yul\":1115:1137   */\n      add\n        /* \"#utility.yul\":1094:1147   */\n      tag_24\n      jump\t// in\n    tag_39:\n        /* \"#utility.yul\":1084:1147   */\n      swap2\n      pop\n        /* \"#utility.yul\":1039:1157   */\n      pop\n        /* \"#utility.yul\":690:1164   */\n      swap3\n      pop\n      swap3\n      swap1\n      pop\n      jump\t// out\n\n    auxdata: 0xa26469706673582212209272e067ae5c2e1b1e5084552b454e495f4d7cc72b63a29f853afc5cbf5371f664736f6c634300081a0033\n}\n",
				"bytecode": {
					"linkReferences": {},
					"object": "6080604052348015600e575f80fd5b506101708061001c5f395ff3fe608060405234801561000f575f80fd5b5060043610610034575f3560e01c80630aa78c71146100385780637c3ffef214610054575b5f80fd5b610052600480360381019061004d91906100fc565b610070565b005b61006e600480360381019061006991906100fc565b610089565b005b610083818361009990919063ffffffff16565b50505050565b6100938282610099565b50505050565b5f805f8385019050848110156100b5575f8092509250506100be565b60018192509250505b9250929050565b5f80fd5b5f819050919050565b6100db816100c9565b81146100e5575f80fd5b50565b5f813590506100f6816100d2565b92915050565b5f8060408385031215610112576101116100c5565b5b5f61011f858286016100e8565b9250506020610130858286016100e8565b915050925092905056fea26469706673582212209272e067ae5c2e1b1e5084552b454e495f4d7cc72b63a29f853afc5cbf5371f664736f6c634300081a0033",
					"opcodes": "PUSH1 0x80 PUSH1 0x40 MSTORE CALLVALUE DUP1 ISZERO PUSH1 0xE JUMPI PUSH0 DUP1 REVERT JUMPDEST POP PUSH2 0x170 DUP1 PUSH2 0x1C PUSH0 CODECOPY PUSH0 RETURN INVALID PUSH1 0x80 PUSH1 0x40 MSTORE CALLVALUE DUP1 ISZERO PUSH2 0xF JUMPI PUSH0 DUP1 REVERT JUMPDEST POP PUSH1 0x4 CALLDATASIZE LT PUSH2 0x34 JUMPI PUSH0 CALLDATALOAD PUSH1 0xE0 SHR DUP1 PUSH4 0xAA78C71 EQ PUSH2 0x38 JUMPI DUP1 PUSH4 0x7C3FFEF2 EQ PUSH2 0x54 JUMPI JUMPDEST PUSH0 DUP1 REVERT JUMPDEST PUSH2 0x52 PUSH1 0x4 DUP1 CALLDATASIZE SUB DUP2 ADD SWAP1 PUSH2 0x4D SWAP2 SWAP1 PUSH2 0xFC JUMP JUMPDEST PUSH2 0x70 JUMP JUMPDEST STOP JUMPDEST PUSH2 0x6E PUSH1 0x4 DUP1 CALLDATASIZE SUB DUP2 ADD SWAP1 PUSH2 0x69 SWAP2 SWAP1 PUSH2 0xFC JUMP JUMPDEST PUSH2 0x89 JUMP JUMPDEST STOP JUMPDEST PUSH2 0x83 DUP2 DUP4 PUSH2 0x99 SWAP1 SWAP2 SWAP1 PUSH4 0xFFFFFFFF AND JUMP JUMPDEST POP POP POP POP JUMP JUMPDEST PUSH2 0x93 DUP3 DUP3 PUSH2 0x99 JUMP JUMPDEST POP POP POP POP JUMP JUMPDEST PUSH0 DUP1 PUSH0 DUP4 DUP6 ADD SWAP1 POP DUP5 DUP2 LT ISZERO PUSH2 0xB5 JUMPI PUSH0 DUP1 SWAP3 POP SWAP3 POP POP PUSH2 0xBE JUMP JUMPDEST PUSH1 0x1 DUP2 SWAP3 POP SWAP3 POP POP JUMPDEST SWAP3 POP SWAP3 SWAP1 POP JUMP JUMPDEST PUSH0 DUP1 REVERT JUMPDEST PUSH0 DUP2 SWAP1 POP SWAP2 SWAP1 POP JUMP JUMPDEST PUSH2 0xDB DUP2 PUSH2 0xC9 JUMP JUMPDEST DUP2 EQ PUSH2 0xE5 JUMPI PUSH0 DUP1 REVERT JUMPDEST POP JUMP JUMPDEST PUSH0 DUP2 CALLDATALOAD SWAP1 POP PUSH2 0xF6 DUP2 PUSH2 0xD2 JUMP JUMPDEST SWAP3 SWAP2 POP POP JUMP JUMPDEST PUSH0 DUP1 PUSH1 0x40 DUP4 DUP6 SUB SLT ISZERO PUSH2 0x112 JUMPI PUSH2 0x111 PUSH2 0xC5 JUMP JUMPDEST JUMPDEST PUSH0 PUSH2 0x11F DUP6 DUP3 DUP7 ADD PUSH2 0xE8 JUMP JUMPDEST SWAP3 POP POP PUSH1 0x20 PUSH2 0x130 DUP6 DUP3 DUP7 ADD PUSH2 0xE8 JUMP JUMPDEST SWAP2 POP POP SWAP3 POP SWAP3 SWAP1 POP JUMP INVALID LOG2 PUSH5 0x6970667358 0x22 SLT KECCAK256 SWAP3 PUSH19 0xE067AE5C2E1B1E5084552B454E495F4D7CC72B PUSH4 0xA29F853A 0xFC TLOAD 0xBF MSTORE8 PUSH18 0xF664736F6C634300081A0033000000000000 "
				},
				"gasEstimates": {
					"creation": {
						"codeDepositCost": "73600",
						"executionCost": "121",
						"totalCost": "73721"
					},
					"external": {
						"testAdd(uint256,uint256)": "infinite",
						"testAdd2(uint256,uint256)": "infinite"
					}
				},
				"methodIdentifiers": {
					"testAdd(uint256,uint256)": "7c3ffef2",
					"testAdd2(uint256,uint256)": "0aa78c71"
				}
			},
			"storageLayout": {
				"storage": [],
				"types": null
			},
			"userdoc": {
				"kind": "user",
				"methods": {},
				"version": 1
			}
		}
	}
}