{
	"contracts/openzeppelin/FarmingC2N.sol": {
		"FarmingC2N": {
			"abi": [
				{
					"inputs": [
						{
							"internalType": "contract IERC20",
							"name": "_erc20",
							"type": "address"
						},
						{
							"internalType": "uint256",
							"name": "_rewardPerSecond",
							"type": "uint256"
						},
						{
							"internalType": "uint256",
							"name": "_startTimestamp",
							"type": "uint256"
						}
					],
					"stateMutability": "nonpayable",
					"type": "constructor"
				},
				{
					"inputs": [
						{
							"internalType": "address",
							"name": "owner",
							"type": "address"
						}
					],
					"name": "OwnableInvalidOwner",
					"type": "error"
				},
				{
					"inputs": [
						{
							"internalType": "address",
							"name": "account",
							"type": "address"
						}
					],
					"name": "OwnableUnauthorizedAccount",
					"type": "error"
				},
				{
					"inputs": [
						{
							"internalType": "address",
							"name": "token",
							"type": "address"
						}
					],
					"name": "SafeERC20FailedOperation",
					"type": "error"
				},
				{
					"anonymous": false,
					"inputs": [
						{
							"indexed": true,
							"internalType": "address",
							"name": "user",
							"type": "address"
						},
						{
							"indexed": true,
							"internalType": "uint256",
							"name": "pid",
							"type": "uint256"
						},
						{
							"indexed": false,
							"internalType": "uint256",
							"name": "amount",
							"type": "uint256"
						}
					],
					"name": "Deposit",
					"type": "event"
				},
				{
					"anonymous": false,
					"inputs": [
						{
							"indexed": true,
							"internalType": "address",
							"name": "user",
							"type": "address"
						},
						{
							"indexed": true,
							"internalType": "uint256",
							"name": "pid",
							"type": "uint256"
						},
						{
							"indexed": false,
							"internalType": "uint256",
							"name": "amount",
							"type": "uint256"
						}
					],
					"name": "EmergencyWithdraw",
					"type": "event"
				},
				{
					"anonymous": false,
					"inputs": [
						{
							"indexed": true,
							"internalType": "address",
							"name": "previousOwner",
							"type": "address"
						},
						{
							"indexed": true,
							"internalType": "address",
							"name": "newOwner",
							"type": "address"
						}
					],
					"name": "OwnershipTransferred",
					"type": "event"
				},
				{
					"anonymous": false,
					"inputs": [
						{
							"indexed": true,
							"internalType": "address",
							"name": "user",
							"type": "address"
						},
						{
							"indexed": true,
							"internalType": "uint256",
							"name": "pid",
							"type": "uint256"
						},
						{
							"indexed": false,
							"internalType": "uint256",
							"name": "amount",
							"type": "uint256"
						}
					],
					"name": "Withdraw",
					"type": "event"
				},
				{
					"inputs": [
						{
							"internalType": "uint256",
							"name": "_allocPoint",
							"type": "uint256"
						},
						{
							"internalType": "contract IERC20",
							"name": "_lpToken",
							"type": "address"
						},
						{
							"internalType": "bool",
							"name": "_withUpdate",
							"type": "bool"
						}
					],
					"name": "add",
					"outputs": [],
					"stateMutability": "nonpayable",
					"type": "function"
				},
				{
					"inputs": [
						{
							"internalType": "uint256",
							"name": "_pid",
							"type": "uint256"
						},
						{
							"internalType": "uint256",
							"name": "_amount",
							"type": "uint256"
						}
					],
					"name": "deposit",
					"outputs": [],
					"stateMutability": "nonpayable",
					"type": "function"
				},
				{
					"inputs": [
						{
							"internalType": "uint256",
							"name": "_pid",
							"type": "uint256"
						},
						{
							"internalType": "address",
							"name": "_user",
							"type": "address"
						}
					],
					"name": "deposited",
					"outputs": [
						{
							"internalType": "uint256",
							"name": "",
							"type": "uint256"
						}
					],
					"stateMutability": "view",
					"type": "function"
				},
				{
					"inputs": [
						{
							"internalType": "uint256",
							"name": "_pid",
							"type": "uint256"
						}
					],
					"name": "emergencyWithdraw",
					"outputs": [],
					"stateMutability": "nonpayable",
					"type": "function"
				},
				{
					"inputs": [],
					"name": "endTimestamp",
					"outputs": [
						{
							"internalType": "uint256",
							"name": "",
							"type": "uint256"
						}
					],
					"stateMutability": "view",
					"type": "function"
				},
				{
					"inputs": [],
					"name": "erc20",
					"outputs": [
						{
							"internalType": "contract IERC20",
							"name": "",
							"type": "address"
						}
					],
					"stateMutability": "view",
					"type": "function"
				},
				{
					"inputs": [
						{
							"internalType": "uint256",
							"name": "_amount",
							"type": "uint256"
						}
					],
					"name": "fund",
					"outputs": [],
					"stateMutability": "nonpayable",
					"type": "function"
				},
				{
					"inputs": [],
					"name": "massUpdatePools",
					"outputs": [],
					"stateMutability": "nonpayable",
					"type": "function"
				},
				{
					"inputs": [],
					"name": "owner",
					"outputs": [
						{
							"internalType": "address",
							"name": "",
							"type": "address"
						}
					],
					"stateMutability": "view",
					"type": "function"
				},
				{
					"inputs": [],
					"name": "paidOut",
					"outputs": [
						{
							"internalType": "uint256",
							"name": "",
							"type": "uint256"
						}
					],
					"stateMutability": "view",
					"type": "function"
				},
				{
					"inputs": [
						{
							"internalType": "uint256",
							"name": "_pid",
							"type": "uint256"
						},
						{
							"internalType": "address",
							"name": "_user",
							"type": "address"
						}
					],
					"name": "pending",
					"outputs": [
						{
							"internalType": "uint256",
							"name": "",
							"type": "uint256"
						}
					],
					"stateMutability": "view",
					"type": "function"
				},
				{
					"inputs": [
						{
							"internalType": "uint256",
							"name": "",
							"type": "uint256"
						}
					],
					"name": "poolInfo",
					"outputs": [
						{
							"internalType": "contract IERC20",
							"name": "lpToken",
							"type": "address"
						},
						{
							"internalType": "uint256",
							"name": "allocPoint",
							"type": "uint256"
						},
						{
							"internalType": "uint256",
							"name": "lastRewardTimestamp",
							"type": "uint256"
						},
						{
							"internalType": "uint256",
							"name": "accERC20PerShare",
							"type": "uint256"
						},
						{
							"internalType": "uint256",
							"name": "totalDeposits",
							"type": "uint256"
						}
					],
					"stateMutability": "view",
					"type": "function"
				},
				{
					"inputs": [],
					"name": "poolLength",
					"outputs": [
						{
							"internalType": "uint256",
							"name": "",
							"type": "uint256"
						}
					],
					"stateMutability": "view",
					"type": "function"
				},
				{
					"inputs": [],
					"name": "renounceOwnership",
					"outputs": [],
					"stateMutability": "nonpayable",
					"type": "function"
				},
				{
					"inputs": [],
					"name": "rewardPerSecond",
					"outputs": [
						{
							"internalType": "uint256",
							"name": "",
							"type": "uint256"
						}
					],
					"stateMutability": "view",
					"type": "function"
				},
				{
					"inputs": [
						{
							"internalType": "uint256",
							"name": "_pid",
							"type": "uint256"
						},
						{
							"internalType": "uint256",
							"name": "_allocPoint",
							"type": "uint256"
						},
						{
							"internalType": "bool",
							"name": "_withUpdate",
							"type": "bool"
						}
					],
					"name": "set",
					"outputs": [],
					"stateMutability": "nonpayable",
					"type": "function"
				},
				{
					"inputs": [],
					"name": "startTimestamp",
					"outputs": [
						{
							"internalType": "uint256",
							"name": "",
							"type": "uint256"
						}
					],
					"stateMutability": "view",
					"type": "function"
				},
				{
					"inputs": [],
					"name": "totalAllocPoint",
					"outputs": [
						{
							"internalType": "uint256",
							"name": "",
							"type": "uint256"
						}
					],
					"stateMutability": "view",
					"type": "function"
				},
				{
					"inputs": [],
					"name": "totalPending",
					"outputs": [
						{
							"internalType": "uint256",
							"name": "",
							"type": "uint256"
						}
					],
					"stateMutability": "view",
					"type": "function"
				},
				{
					"inputs": [],
					"name": "totalRewards",
					"outputs": [
						{
							"internalType": "uint256",
							"name": "",
							"type": "uint256"
						}
					],
					"stateMutability": "view",
					"type": "function"
				},
				{
					"inputs": [
						{
							"internalType": "address",
							"name": "newOwner",
							"type": "address"
						}
					],
					"name": "transferOwnership",
					"outputs": [],
					"stateMutability": "nonpayable",
					"type": "function"
				},
				{
					"inputs": [
						{
							"internalType": "uint256",
							"name": "_pid",
							"type": "uint256"
						}
					],
					"name": "updatePool",
					"outputs": [],
					"stateMutability": "nonpayable",
					"type": "function"
				},
				{
					"inputs": [
						{
							"internalType": "uint256",
							"name": "",
							"type": "uint256"
						},
						{
							"internalType": "address",
							"name": "",
							"type": "address"
						}
					],
					"name": "userInfo",
					"outputs": [
						{
							"internalType": "uint256",
							"name": "amount",
							"type": "uint256"
						},
						{
							"internalType": "uint256",
							"name": "rewardDebt",
							"type": "uint256"
						}
					],
					"stateMutability": "view",
					"type": "function"
				},
				{
					"inputs": [
						{
							"internalType": "uint256",
							"name": "_pid",
							"type": "uint256"
						},
						{
							"internalType": "uint256",
							"name": "_amount",
							"type": "uint256"
						}
					],
					"name": "withdraw",
					"outputs": [],
					"stateMutability": "nonpayable",
					"type": "function"
				}
			],
			"devdoc": {
				"errors": {
					"OwnableInvalidOwner(address)": [
						{
							"details": "The owner is not a valid owner account. (eg. `address(0)`)"
						}
					],
					"OwnableUnauthorizedAccount(address)": [
						{
							"details": "The caller account is not authorized to perform an operation."
						}
					],
					"SafeERC20FailedOperation(address)": [
						{
							"details": "An operation with an ERC-20 token failed."
						}
					]
				},
				"kind": "dev",
				"methods": {
					"owner()": {
						"details": "Returns the address of the current owner."
					},
					"renounceOwnership()": {
						"details": "Leaves the contract without owner. It will not be possible to call `onlyOwner` functions. Can only be called by the current owner. NOTE: Renouncing ownership will leave the contract without an owner, thereby disabling any functionality that is only available to the owner."
					},
					"transferOwnership(address)": {
						"details": "Transfers ownership of the contract to a new account (`newOwner`). Can only be called by the current owner."
					}
				},
				"version": 1
			},
			"evm": {
				"assembly": "    /* \"contracts/openzeppelin/FarmingC2N.sol\":478:9844  contract FarmingC2N is Ownable {... */\n  mstore(0x40, 0x80)\n    /* \"contracts/openzeppelin/FarmingC2N.sol\":2907:3169  constructor(IERC20 _erc20, uint256 _rewardPerSecond, uint256 _startTimestamp) Ownable(msg.sender)   {... */\n  callvalue\n  dup1\n  iszero\n  tag_1\n  jumpi\n  0x00\n  dup1\n  revert\ntag_1:\n  pop\n  mload(0x40)\n  sub(codesize, bytecodeSize)\n  dup1\n  bytecodeSize\n  dup4\n  codecopy\n  dup2\n  dup2\n  add\n  0x40\n  mstore\n  dup2\n  add\n  swap1\n  tag_2\n  swap2\n  swap1\n  tag_3\n  jump\t// in\ntag_2:\n    /* \"contracts/openzeppelin/FarmingC2N.sol\":2993:3003  msg.sender */\n  caller\n    /* \"@openzeppelin/contracts/access/Ownable.sol\":1297:1298  0 */\n  0x00\n    /* \"@openzeppelin/contracts/access/Ownable.sol\":1273:1299  initialOwner == address(0) */\n  0xffffffffffffffffffffffffffffffffffffffff\n  and\n    /* \"@openzeppelin/contracts/access/Ownable.sol\":1273:1285  initialOwner */\n  dup2\n    /* \"@openzeppelin/contracts/access/Ownable.sol\":1273:1299  initialOwner == address(0) */\n  0xffffffffffffffffffffffffffffffffffffffff\n  and\n  sub\n    /* \"@openzeppelin/contracts/access/Ownable.sol\":1269:1364  if (initialOwner == address(0)) {... */\n  tag_7\n  jumpi\n    /* \"@openzeppelin/contracts/access/Ownable.sol\":1350:1351  0 */\n  0x00\n    /* \"@openzeppelin/contracts/access/Ownable.sol\":1322:1353  OwnableInvalidOwner(address(0)) */\n  mload(0x40)\n  0x1e4fbdf700000000000000000000000000000000000000000000000000000000\n  dup2\n  mstore\n  0x04\n  add\n  tag_8\n  swap2\n  swap1\n  tag_9\n  jump\t// in\ntag_8:\n  mload(0x40)\n  dup1\n  swap2\n  sub\n  swap1\n  revert\n    /* \"@openzeppelin/contracts/access/Ownable.sol\":1269:1364  if (initialOwner == address(0)) {... */\ntag_7:\n    /* \"@openzeppelin/contracts/access/Ownable.sol\":1373:1405  _transferOwnership(initialOwner) */\n  tag_10\n    /* \"@openzeppelin/contracts/access/Ownable.sol\":1392:1404  initialOwner */\n  dup2\n    /* \"@openzeppelin/contracts/access/Ownable.sol\":1373:1391  _transferOwnership */\n  shl(0x20, tag_11)\n    /* \"@openzeppelin/contracts/access/Ownable.sol\":1373:1405  _transferOwnership(initialOwner) */\n  0x20\n  shr\n  jump\t// in\ntag_10:\n    /* \"@openzeppelin/contracts/access/Ownable.sol\":1225:1412  constructor(address initialOwner) {... */\n  pop\n    /* \"contracts/openzeppelin/FarmingC2N.sol\":3026:3032  _erc20 */\n  dup3\n    /* \"contracts/openzeppelin/FarmingC2N.sol\":3018:3023  erc20 */\n  0x01\n  0x00\n    /* \"contracts/openzeppelin/FarmingC2N.sol\":3018:3032  erc20 = _erc20 */\n  0x0100\n  exp\n  dup2\n  sload\n  dup2\n  0xffffffffffffffffffffffffffffffffffffffff\n  mul\n  not\n  and\n  swap1\n  dup4\n  0xffffffffffffffffffffffffffffffffffffffff\n  and\n  mul\n  or\n  swap1\n  sstore\n  pop\n    /* \"contracts/openzeppelin/FarmingC2N.sol\":3061:3077  _rewardPerSecond */\n  dup2\n    /* \"contracts/openzeppelin/FarmingC2N.sol\":3043:3058  rewardPerSecond */\n  0x03\n    /* \"contracts/openzeppelin/FarmingC2N.sol\":3043:3077  rewardPerSecond = _rewardPerSecond */\n  dup2\n  swap1\n  sstore\n  pop\n    /* \"contracts/openzeppelin/FarmingC2N.sol\":3105:3120  _startTimestamp */\n  dup1\n    /* \"contracts/openzeppelin/FarmingC2N.sol\":3088:3102  startTimestamp */\n  0x08\n    /* \"contracts/openzeppelin/FarmingC2N.sol\":3088:3120  startTimestamp = _startTimestamp */\n  dup2\n  swap1\n  sstore\n  pop\n    /* \"contracts/openzeppelin/FarmingC2N.sol\":3146:3161  _startTimestamp */\n  dup1\n    /* \"contracts/openzeppelin/FarmingC2N.sol\":3131:3143  endTimestamp */\n  0x09\n    /* \"contracts/openzeppelin/FarmingC2N.sol\":3131:3161  endTimestamp = _startTimestamp */\n  dup2\n  swap1\n  sstore\n  pop\n    /* \"contracts/openzeppelin/FarmingC2N.sol\":2907:3169  constructor(IERC20 _erc20, uint256 _rewardPerSecond, uint256 _startTimestamp) Ownable(msg.sender)   {... */\n  pop\n  pop\n  pop\n    /* \"contracts/openzeppelin/FarmingC2N.sol\":478:9844  contract FarmingC2N is Ownable {... */\n  jump(tag_13)\n    /* \"@openzeppelin/contracts/access/Ownable.sol\":2912:3099  function _transferOwnership(address newOwner) internal virtual {... */\ntag_11:\n    /* \"@openzeppelin/contracts/access/Ownable.sol\":2985:3001  address oldOwner */\n  0x00\n    /* \"@openzeppelin/contracts/access/Ownable.sol\":3004:3010  _owner */\n  dup1\n  0x00\n  swap1\n  sload\n  swap1\n  0x0100\n  exp\n  swap1\n  div\n  0xffffffffffffffffffffffffffffffffffffffff\n  and\n    /* \"@openzeppelin/contracts/access/Ownable.sol\":2985:3010  address oldOwner = _owner */\n  swap1\n  pop\n    /* \"@openzeppelin/contracts/access/Ownable.sol\":3029:3037  newOwner */\n  dup2\n    /* \"@openzeppelin/contracts/access/Ownable.sol\":3020:3026  _owner */\n  0x00\n  dup1\n    /* \"@openzeppelin/contracts/access/Ownable.sol\":3020:3037  _owner = newOwner */\n  0x0100\n  exp\n  dup2\n  sload\n  dup2\n  0xffffffffffffffffffffffffffffffffffffffff\n  mul\n  not\n  and\n  swap1\n  dup4\n  0xffffffffffffffffffffffffffffffffffffffff\n  and\n  mul\n  or\n  swap1\n  sstore\n  pop\n    /* \"@openzeppelin/contracts/access/Ownable.sol\":3083:3091  newOwner */\n  dup2\n    /* \"@openzeppelin/contracts/access/Ownable.sol\":3052:3092  OwnershipTransferred(oldOwner, newOwner) */\n  0xffffffffffffffffffffffffffffffffffffffff\n  and\n    /* \"@openzeppelin/contracts/access/Ownable.sol\":3073:3081  oldOwner */\n  dup2\n    /* \"@openzeppelin/contracts/access/Ownable.sol\":3052:3092  OwnershipTransferred(oldOwner, newOwner) */\n  0xffffffffffffffffffffffffffffffffffffffff\n  and\n  0x8be0079c531659141344cd1fd0a4f28419497f9722a3daafe3b4186f6b6457e0\n  mload(0x40)\n  mload(0x40)\n  dup1\n  swap2\n  sub\n  swap1\n  log3\n    /* \"@openzeppelin/contracts/access/Ownable.sol\":2975:3099  {... */\n  pop\n    /* \"@openzeppelin/contracts/access/Ownable.sol\":2912:3099  function _transferOwnership(address newOwner) internal virtual {... */\n  pop\n  jump\t// out\n    /* \"#utility.yul\":88:205   */\ntag_16:\n    /* \"#utility.yul\":197:198   */\n  0x00\n    /* \"#utility.yul\":194:195   */\n  dup1\n    /* \"#utility.yul\":187:199   */\n  revert\n    /* \"#utility.yul\":334:460   */\ntag_18:\n    /* \"#utility.yul\":371:378   */\n  0x00\n    /* \"#utility.yul\":411:453   */\n  0xffffffffffffffffffffffffffffffffffffffff\n    /* \"#utility.yul\":404:409   */\n  dup3\n    /* \"#utility.yul\":400:454   */\n  and\n    /* \"#utility.yul\":389:454   */\n  swap1\n  pop\n    /* \"#utility.yul\":334:460   */\n  swap2\n  swap1\n  pop\n  jump\t// out\n    /* \"#utility.yul\":466:562   */\ntag_19:\n    /* \"#utility.yul\":503:510   */\n  0x00\n    /* \"#utility.yul\":532:556   */\n  tag_33\n    /* \"#utility.yul\":550:555   */\n  dup3\n    /* \"#utility.yul\":532:556   */\n  tag_18\n  jump\t// in\ntag_33:\n    /* \"#utility.yul\":521:556   */\n  swap1\n  pop\n    /* \"#utility.yul\":466:562   */\n  swap2\n  swap1\n  pop\n  jump\t// out\n    /* \"#utility.yul\":568:678   */\ntag_20:\n    /* \"#utility.yul\":619:626   */\n  0x00\n    /* \"#utility.yul\":648:672   */\n  tag_35\n    /* \"#utility.yul\":666:671   */\n  dup3\n    /* \"#utility.yul\":648:672   */\n  tag_19\n  jump\t// in\ntag_35:\n    /* \"#utility.yul\":637:672   */\n  swap1\n  pop\n    /* \"#utility.yul\":568:678   */\n  swap2\n  swap1\n  pop\n  jump\t// out\n    /* \"#utility.yul\":684:834   */\ntag_21:\n    /* \"#utility.yul\":771:809   */\n  tag_37\n    /* \"#utility.yul\":803:808   */\n  dup2\n    /* \"#utility.yul\":771:809   */\n  tag_20\n  jump\t// in\ntag_37:\n    /* \"#utility.yul\":764:769   */\n  dup2\n    /* \"#utility.yul\":761:810   */\n  eq\n    /* \"#utility.yul\":751:828   */\n  tag_38\n  jumpi\n    /* \"#utility.yul\":824:825   */\n  0x00\n    /* \"#utility.yul\":821:822   */\n  dup1\n    /* \"#utility.yul\":814:826   */\n  revert\n    /* \"#utility.yul\":751:828   */\ntag_38:\n    /* \"#utility.yul\":684:834   */\n  pop\n  jump\t// out\n    /* \"#utility.yul\":840:1011   */\ntag_22:\n    /* \"#utility.yul\":911:916   */\n  0x00\n    /* \"#utility.yul\":942:948   */\n  dup2\n    /* \"#utility.yul\":936:949   */\n  mload\n    /* \"#utility.yul\":927:949   */\n  swap1\n  pop\n    /* \"#utility.yul\":958:1005   */\n  tag_40\n    /* \"#utility.yul\":999:1004   */\n  dup2\n    /* \"#utility.yul\":958:1005   */\n  tag_21\n  jump\t// in\ntag_40:\n    /* \"#utility.yul\":840:1011   */\n  swap3\n  swap2\n  pop\n  pop\n  jump\t// out\n    /* \"#utility.yul\":1017:1094   */\ntag_23:\n    /* \"#utility.yul\":1054:1061   */\n  0x00\n    /* \"#utility.yul\":1083:1088   */\n  dup2\n    /* \"#utility.yul\":1072:1088   */\n  swap1\n  pop\n    /* \"#utility.yul\":1017:1094   */\n  swap2\n  swap1\n  pop\n  jump\t// out\n    /* \"#utility.yul\":1100:1222   */\ntag_24:\n    /* \"#utility.yul\":1173:1197   */\n  tag_43\n    /* \"#utility.yul\":1191:1196   */\n  dup2\n    /* \"#utility.yul\":1173:1197   */\n  tag_23\n  jump\t// in\ntag_43:\n    /* \"#utility.yul\":1166:1171   */\n  dup2\n    /* \"#utility.yul\":1163:1198   */\n  eq\n    /* \"#utility.yul\":1153:1216   */\n  tag_44\n  jumpi\n    /* \"#utility.yul\":1212:1213   */\n  0x00\n    /* \"#utility.yul\":1209:1210   */\n  dup1\n    /* \"#utility.yul\":1202:1214   */\n  revert\n    /* \"#utility.yul\":1153:1216   */\ntag_44:\n    /* \"#utility.yul\":1100:1222   */\n  pop\n  jump\t// out\n    /* \"#utility.yul\":1228:1371   */\ntag_25:\n    /* \"#utility.yul\":1285:1290   */\n  0x00\n    /* \"#utility.yul\":1316:1322   */\n  dup2\n    /* \"#utility.yul\":1310:1323   */\n  mload\n    /* \"#utility.yul\":1301:1323   */\n  swap1\n  pop\n    /* \"#utility.yul\":1332:1365   */\n  tag_46\n    /* \"#utility.yul\":1359:1364   */\n  dup2\n    /* \"#utility.yul\":1332:1365   */\n  tag_24\n  jump\t// in\ntag_46:\n    /* \"#utility.yul\":1228:1371   */\n  swap3\n  swap2\n  pop\n  pop\n  jump\t// out\n    /* \"#utility.yul\":1377:2068   */\ntag_3:\n    /* \"#utility.yul\":1479:1485   */\n  0x00\n    /* \"#utility.yul\":1487:1493   */\n  dup1\n    /* \"#utility.yul\":1495:1501   */\n  0x00\n    /* \"#utility.yul\":1544:1546   */\n  0x60\n    /* \"#utility.yul\":1532:1541   */\n  dup5\n    /* \"#utility.yul\":1523:1530   */\n  dup7\n    /* \"#utility.yul\":1519:1542   */\n  sub\n    /* \"#utility.yul\":1515:1547   */\n  slt\n    /* \"#utility.yul\":1512:1631   */\n  iszero\n  tag_48\n  jumpi\n    /* \"#utility.yul\":1550:1629   */\n  tag_49\n  tag_16\n  jump\t// in\ntag_49:\n    /* \"#utility.yul\":1512:1631   */\ntag_48:\n    /* \"#utility.yul\":1670:1671   */\n  0x00\n    /* \"#utility.yul\":1695:1773   */\n  tag_50\n    /* \"#utility.yul\":1765:1772   */\n  dup7\n    /* \"#utility.yul\":1756:1762   */\n  dup3\n    /* \"#utility.yul\":1745:1754   */\n  dup8\n    /* \"#utility.yul\":1741:1763   */\n  add\n    /* \"#utility.yul\":1695:1773   */\n  tag_22\n  jump\t// in\ntag_50:\n    /* \"#utility.yul\":1685:1773   */\n  swap4\n  pop\n    /* \"#utility.yul\":1641:1783   */\n  pop\n    /* \"#utility.yul\":1822:1824   */\n  0x20\n    /* \"#utility.yul\":1848:1912   */\n  tag_51\n    /* \"#utility.yul\":1904:1911   */\n  dup7\n    /* \"#utility.yul\":1895:1901   */\n  dup3\n    /* \"#utility.yul\":1884:1893   */\n  dup8\n    /* \"#utility.yul\":1880:1902   */\n  add\n    /* \"#utility.yul\":1848:1912   */\n  tag_25\n  jump\t// in\ntag_51:\n    /* \"#utility.yul\":1838:1912   */\n  swap3\n  pop\n    /* \"#utility.yul\":1793:1922   */\n  pop\n    /* \"#utility.yul\":1961:1963   */\n  0x40\n    /* \"#utility.yul\":1987:2051   */\n  tag_52\n    /* \"#utility.yul\":2043:2050   */\n  dup7\n    /* \"#utility.yul\":2034:2040   */\n  dup3\n    /* \"#utility.yul\":2023:2032   */\n  dup8\n    /* \"#utility.yul\":2019:2041   */\n  add\n    /* \"#utility.yul\":1987:2051   */\n  tag_25\n  jump\t// in\ntag_52:\n    /* \"#utility.yul\":1977:2051   */\n  swap2\n  pop\n    /* \"#utility.yul\":1932:2061   */\n  pop\n    /* \"#utility.yul\":1377:2068   */\n  swap3\n  pop\n  swap3\n  pop\n  swap3\n  jump\t// out\n    /* \"#utility.yul\":2074:2192   */\ntag_26:\n    /* \"#utility.yul\":2161:2185   */\n  tag_54\n    /* \"#utility.yul\":2179:2184   */\n  dup2\n    /* \"#utility.yul\":2161:2185   */\n  tag_19\n  jump\t// in\ntag_54:\n    /* \"#utility.yul\":2156:2159   */\n  dup3\n    /* \"#utility.yul\":2149:2186   */\n  mstore\n    /* \"#utility.yul\":2074:2192   */\n  pop\n  pop\n  jump\t// out\n    /* \"#utility.yul\":2198:2420   */\ntag_9:\n    /* \"#utility.yul\":2291:2295   */\n  0x00\n    /* \"#utility.yul\":2329:2331   */\n  0x20\n    /* \"#utility.yul\":2318:2327   */\n  dup3\n    /* \"#utility.yul\":2314:2332   */\n  add\n    /* \"#utility.yul\":2306:2332   */\n  swap1\n  pop\n    /* \"#utility.yul\":2342:2413   */\n  tag_56\n    /* \"#utility.yul\":2410:2411   */\n  0x00\n    /* \"#utility.yul\":2399:2408   */\n  dup4\n    /* \"#utility.yul\":2395:2412   */\n  add\n    /* \"#utility.yul\":2386:2392   */\n  dup5\n    /* \"#utility.yul\":2342:2413   */\n  tag_26\n  jump\t// in\ntag_56:\n    /* \"#utility.yul\":2198:2420   */\n  swap3\n  swap2\n  pop\n  pop\n  jump\t// out\n    /* \"contracts/openzeppelin/FarmingC2N.sol\":478:9844  contract FarmingC2N is Ownable {... */\ntag_13:\n  dataSize(sub_0)\n  dup1\n  dataOffset(sub_0)\n  0x00\n  codecopy\n  0x00\n  return\nstop\n\nsub_0: assembly {\n        /* \"contracts/openzeppelin/FarmingC2N.sol\":478:9844  contract FarmingC2N is Ownable {... */\n      mstore(0x40, 0x80)\n      callvalue\n      dup1\n      iszero\n      tag_1\n      jumpi\n      0x00\n      dup1\n      revert\n    tag_1:\n      pop\n      jumpi(tag_2, lt(calldatasize, 0x04))\n      shr(0xe0, calldataload(0x00))\n      dup1\n      0x715018a6\n      gt\n      tag_27\n      jumpi\n      dup1\n      0xa85adeab\n      gt\n      tag_28\n      jumpi\n      dup1\n      0xa85adeab\n      eq\n      tag_21\n      jumpi\n      dup1\n      0xca1d209d\n      eq\n      tag_22\n      jumpi\n      dup1\n      0xe2bbb158\n      eq\n      tag_23\n      jumpi\n      dup1\n      0xe4c75c27\n      eq\n      tag_24\n      jumpi\n      dup1\n      0xe6fd48bc\n      eq\n      tag_25\n      jumpi\n      dup1\n      0xf2fde38b\n      eq\n      tag_26\n      jumpi\n      jump(tag_2)\n    tag_28:\n      dup1\n      0x715018a6\n      eq\n      tag_15\n      jumpi\n      dup1\n      0x785e9e86\n      eq\n      tag_16\n      jumpi\n      dup1\n      0x8da5cb5b\n      eq\n      tag_17\n      jumpi\n      dup1\n      0x8f10369a\n      eq\n      tag_18\n      jumpi\n      dup1\n      0x93f1a40b\n      eq\n      tag_19\n      jumpi\n      dup1\n      0xa2383106\n      eq\n      tag_20\n      jumpi\n      jump(tag_2)\n    tag_27:\n      dup1\n      0x441a3e70\n      gt\n      tag_29\n      jumpi\n      dup1\n      0x441a3e70\n      eq\n      tag_9\n      jumpi\n      dup1\n      0x51eb05a6\n      eq\n      tag_10\n      jumpi\n      dup1\n      0x5312ea8e\n      eq\n      tag_11\n      jumpi\n      dup1\n      0x5c76ca2d\n      eq\n      tag_12\n      jumpi\n      dup1\n      0x630b5ba1\n      eq\n      tag_13\n      jumpi\n      dup1\n      0x64482f79\n      eq\n      tag_14\n      jumpi\n      jump(tag_2)\n    tag_29:\n      dup1\n      0x081e3eda\n      eq\n      tag_3\n      jumpi\n      dup1\n      0x0e15561a\n      eq\n      tag_4\n      jumpi\n      dup1\n      0x1526fe27\n      eq\n      tag_5\n      jumpi\n      dup1\n      0x17caf6f1\n      eq\n      tag_6\n      jumpi\n      dup1\n      0x1eaaa045\n      eq\n      tag_7\n      jumpi\n      dup1\n      0x3f90916a\n      eq\n      tag_8\n      jumpi\n    tag_2:\n      0x00\n      dup1\n      revert\n        /* \"contracts/openzeppelin/FarmingC2N.sol\":3204:3299  function poolLength() external view returns (uint256) {... */\n    tag_3:\n      tag_30\n      tag_31\n      jump\t// in\n    tag_30:\n      mload(0x40)\n      tag_32\n      swap2\n      swap1\n      tag_33\n      jump\t// in\n    tag_32:\n      mload(0x40)\n      dup1\n      swap2\n      sub\n      swap1\n      return\n        /* \"contracts/openzeppelin/FarmingC2N.sol\":2186:2213  uint256 public totalRewards */\n    tag_4:\n      tag_34\n      tag_35\n      jump\t// in\n    tag_34:\n      mload(0x40)\n      tag_36\n      swap2\n      swap1\n      tag_33\n      jump\t// in\n    tag_36:\n      mload(0x40)\n      dup1\n      swap2\n      sub\n      swap1\n      return\n        /* \"contracts/openzeppelin/FarmingC2N.sol\":2240:2266  PoolInfo[] public poolInfo */\n    tag_5:\n      tag_37\n      0x04\n      dup1\n      calldatasize\n      sub\n      dup2\n      add\n      swap1\n      tag_38\n      swap2\n      swap1\n      tag_39\n      jump\t// in\n    tag_38:\n      tag_40\n      jump\t// in\n    tag_37:\n      mload(0x40)\n      tag_41\n      swap6\n      swap5\n      swap4\n      swap3\n      swap2\n      swap1\n      tag_42\n      jump\t// in\n    tag_41:\n      mload(0x40)\n      dup1\n      swap2\n      sub\n      swap1\n      return\n        /* \"contracts/openzeppelin/FarmingC2N.sol\":2460:2490  uint256 public totalAllocPoint */\n    tag_6:\n      tag_43\n      tag_44\n      jump\t// in\n    tag_43:\n      mload(0x40)\n      tag_45\n      swap2\n      swap1\n      tag_33\n      jump\t// in\n    tag_45:\n      mload(0x40)\n      dup1\n      swap2\n      sub\n      swap1\n      return\n        /* \"contracts/openzeppelin/FarmingC2N.sol\":3826:4377  function add(uint256 _allocPoint, IERC20 _lpToken, bool _withUpdate) public onlyOwner {... */\n    tag_7:\n      tag_46\n      0x04\n      dup1\n      calldatasize\n      sub\n      dup2\n      add\n      swap1\n      tag_47\n      swap2\n      swap1\n      tag_48\n      jump\t// in\n    tag_47:\n      tag_49\n      jump\t// in\n    tag_46:\n      stop\n        /* \"contracts/openzeppelin/FarmingC2N.sol\":6069:6391  function totalPending() external view returns (uint256) {... */\n    tag_8:\n      tag_50\n      tag_51\n      jump\t// in\n    tag_50:\n      mload(0x40)\n      tag_52\n      swap2\n      swap1\n      tag_33\n      jump\t// in\n    tag_52:\n      mload(0x40)\n      dup1\n      swap2\n      sub\n      swap1\n      return\n        /* \"contracts/openzeppelin/FarmingC2N.sol\":8357:9131  function withdraw(uint256 _pid, uint256 _amount) public {... */\n    tag_9:\n      tag_53\n      0x04\n      dup1\n      calldatasize\n      sub\n      dup2\n      add\n      swap1\n      tag_54\n      swap2\n      swap1\n      tag_55\n      jump\t// in\n    tag_54:\n      tag_56\n      jump\t// in\n    tag_53:\n      stop\n        /* \"contracts/openzeppelin/FarmingC2N.sol\":6730:7487  function updatePool(uint256 _pid) public {... */\n    tag_10:\n      tag_57\n      0x04\n      dup1\n      calldatasize\n      sub\n      dup2\n      add\n      swap1\n      tag_58\n      swap2\n      swap1\n      tag_39\n      jump\t// in\n    tag_58:\n      tag_59\n      jump\t// in\n    tag_57:\n      stop\n        /* \"contracts/openzeppelin/FarmingC2N.sol\":9202:9620  function emergencyWithdraw(uint256 _pid) public {... */\n    tag_11:\n      tag_60\n      0x04\n      dup1\n      calldatasize\n      sub\n      dup2\n      add\n      swap1\n      tag_61\n      swap2\n      swap1\n      tag_39\n      jump\t// in\n    tag_61:\n      tag_62\n      jump\t// in\n    tag_60:\n      stop\n        /* \"contracts/openzeppelin/FarmingC2N.sol\":2030:2052  uint256 public paidOut */\n    tag_12:\n      tag_63\n      tag_64\n      jump\t// in\n    tag_63:\n      mload(0x40)\n      tag_65\n      swap2\n      swap1\n      tag_33\n      jump\t// in\n    tag_65:\n      mload(0x40)\n      dup1\n      swap2\n      sub\n      swap1\n      return\n        /* \"contracts/openzeppelin/FarmingC2N.sol\":6474:6654  function massUpdatePools() public {... */\n    tag_13:\n      tag_66\n      tag_67\n      jump\t// in\n    tag_66:\n      stop\n        /* \"contracts/openzeppelin/FarmingC2N.sol\":4474:4768  function set(uint256 _pid, uint256 _allocPoint, bool _withUpdate) public onlyOwner {... */\n    tag_14:\n      tag_68\n      0x04\n      dup1\n      calldatasize\n      sub\n      dup2\n      add\n      swap1\n      tag_69\n      swap2\n      swap1\n      tag_70\n      jump\t// in\n    tag_69:\n      tag_71\n      jump\t// in\n    tag_68:\n      stop\n        /* \"@openzeppelin/contracts/access/Ownable.sol\":2293:2394  function renounceOwnership() public virtual onlyOwner {... */\n    tag_15:\n      tag_72\n      tag_73\n      jump\t// in\n    tag_72:\n      stop\n        /* \"contracts/openzeppelin/FarmingC2N.sol\":1959:1978  IERC20 public erc20 */\n    tag_16:\n      tag_74\n      tag_75\n      jump\t// in\n    tag_74:\n      mload(0x40)\n      tag_76\n      swap2\n      swap1\n      tag_77\n      jump\t// in\n    tag_76:\n      mload(0x40)\n      dup1\n      swap2\n      sub\n      swap1\n      return\n        /* \"@openzeppelin/contracts/access/Ownable.sol\":1638:1723  function owner() public view virtual returns (address) {... */\n    tag_17:\n      tag_78\n      tag_79\n      jump\t// in\n    tag_78:\n      mload(0x40)\n      tag_80\n      swap2\n      swap1\n      tag_81\n      jump\t// in\n    tag_80:\n      mload(0x40)\n      dup1\n      swap2\n      sub\n      swap1\n      return\n        /* \"contracts/openzeppelin/FarmingC2N.sol\":2095:2125  uint256 public rewardPerSecond */\n    tag_18:\n      tag_82\n      tag_83\n      jump\t// in\n    tag_82:\n      mload(0x40)\n      tag_84\n      swap2\n      swap1\n      tag_33\n      jump\t// in\n    tag_84:\n      mload(0x40)\n      dup1\n      swap2\n      sub\n      swap1\n      return\n        /* \"contracts/openzeppelin/FarmingC2N.sol\":2365:2429  mapping(uint256 => mapping(address => UserInfo)) public userInfo */\n    tag_19:\n      tag_85\n      0x04\n      dup1\n      calldatasize\n      sub\n      dup2\n      add\n      swap1\n      tag_86\n      swap2\n      swap1\n      tag_87\n      jump\t// in\n    tag_86:\n      tag_88\n      jump\t// in\n    tag_85:\n      mload(0x40)\n      tag_89\n      swap3\n      swap2\n      swap1\n      tag_90\n      jump\t// in\n    tag_89:\n      mload(0x40)\n      dup1\n      swap2\n      sub\n      swap1\n      return\n        /* \"contracts/openzeppelin/FarmingC2N.sol\":4830:5003  function deposited(uint256 _pid, address _user) external view returns (uint256) {... */\n    tag_20:\n      tag_91\n      0x04\n      dup1\n      calldatasize\n      sub\n      dup2\n      add\n      swap1\n      tag_92\n      swap2\n      swap1\n      tag_87\n      jump\t// in\n    tag_92:\n      tag_93\n      jump\t// in\n    tag_91:\n      mload(0x40)\n      tag_94\n      swap2\n      swap1\n      tag_33\n      jump\t// in\n    tag_94:\n      mload(0x40)\n      dup1\n      swap2\n      sub\n      swap1\n      return\n        /* \"contracts/openzeppelin/FarmingC2N.sol\":2593:2620  uint256 public endTimestamp */\n    tag_21:\n      tag_95\n      tag_96\n      jump\t// in\n    tag_95:\n      mload(0x40)\n      tag_97\n      swap2\n      swap1\n      tag_33\n      jump\t// in\n    tag_97:\n      mload(0x40)\n      dup1\n      swap2\n      sub\n      swap1\n      return\n        /* \"contracts/openzeppelin/FarmingC2N.sol\":3353:3661  function fund(uint256 _amount) public {... */\n    tag_22:\n      tag_98\n      0x04\n      dup1\n      calldatasize\n      sub\n      dup2\n      add\n      swap1\n      tag_99\n      swap2\n      swap1\n      tag_39\n      jump\t// in\n    tag_99:\n      tag_100\n      jump\t// in\n    tag_98:\n      stop\n        /* \"contracts/openzeppelin/FarmingC2N.sol\":7551:8254  function deposit(uint256 _pid, uint256 _amount) public {... */\n    tag_23:\n      tag_101\n      0x04\n      dup1\n      calldatasize\n      sub\n      dup2\n      add\n      swap1\n      tag_102\n      swap2\n      swap1\n      tag_55\n      jump\t// in\n    tag_102:\n      tag_103\n      jump\t// in\n    tag_101:\n      stop\n        /* \"contracts/openzeppelin/FarmingC2N.sol\":5067:5993  function pending(uint256 _pid, address _user) external view returns (uint256) {... */\n    tag_24:\n      tag_104\n      0x04\n      dup1\n      calldatasize\n      sub\n      dup2\n      add\n      swap1\n      tag_105\n      swap2\n      swap1\n      tag_87\n      jump\t// in\n    tag_105:\n      tag_106\n      jump\t// in\n    tag_104:\n      mload(0x40)\n      tag_107\n      swap2\n      swap1\n      tag_33\n      jump\t// in\n    tag_107:\n      mload(0x40)\n      dup1\n      swap2\n      sub\n      swap1\n      return\n        /* \"contracts/openzeppelin/FarmingC2N.sol\":2528:2557  uint256 public startTimestamp */\n    tag_25:\n      tag_108\n      tag_109\n      jump\t// in\n    tag_108:\n      mload(0x40)\n      tag_110\n      swap2\n      swap1\n      tag_33\n      jump\t// in\n    tag_110:\n      mload(0x40)\n      dup1\n      swap2\n      sub\n      swap1\n      return\n        /* \"@openzeppelin/contracts/access/Ownable.sol\":2543:2758  function transferOwnership(address newOwner) public virtual onlyOwner {... */\n    tag_26:\n      tag_111\n      0x04\n      dup1\n      calldatasize\n      sub\n      dup2\n      add\n      swap1\n      tag_112\n      swap2\n      swap1\n      tag_113\n      jump\t// in\n    tag_112:\n      tag_114\n      jump\t// in\n    tag_111:\n      stop\n        /* \"contracts/openzeppelin/FarmingC2N.sol\":3204:3299  function poolLength() external view returns (uint256) {... */\n    tag_31:\n        /* \"contracts/openzeppelin/FarmingC2N.sol\":3249:3256  uint256 */\n      0x00\n        /* \"contracts/openzeppelin/FarmingC2N.sol\":3276:3284  poolInfo */\n      0x05\n        /* \"contracts/openzeppelin/FarmingC2N.sol\":3276:3291  poolInfo.length */\n      dup1\n      sload\n      swap1\n      pop\n        /* \"contracts/openzeppelin/FarmingC2N.sol\":3269:3291  return poolInfo.length */\n      swap1\n      pop\n        /* \"contracts/openzeppelin/FarmingC2N.sol\":3204:3299  function poolLength() external view returns (uint256) {... */\n      swap1\n      jump\t// out\n        /* \"contracts/openzeppelin/FarmingC2N.sol\":2186:2213  uint256 public totalRewards */\n    tag_35:\n      sload(0x04)\n      dup2\n      jump\t// out\n        /* \"contracts/openzeppelin/FarmingC2N.sol\":2240:2266  PoolInfo[] public poolInfo */\n    tag_40:\n      0x05\n      dup2\n      dup2\n      sload\n      dup2\n      lt\n      tag_116\n      jumpi\n      0x00\n      dup1\n      revert\n    tag_116:\n      swap1\n      0x00\n      mstore\n      keccak256(0x00, 0x20)\n      swap1\n      0x05\n      mul\n      add\n      0x00\n      swap2\n      pop\n      swap1\n      pop\n      dup1\n      0x00\n      add\n      0x00\n      swap1\n      sload\n      swap1\n      0x0100\n      exp\n      swap1\n      div\n      0xffffffffffffffffffffffffffffffffffffffff\n      and\n      swap1\n      dup1\n      0x01\n      add\n      sload\n      swap1\n      dup1\n      0x02\n      add\n      sload\n      swap1\n      dup1\n      0x03\n      add\n      sload\n      swap1\n      dup1\n      0x04\n      add\n      sload\n      swap1\n      pop\n      dup6\n      jump\t// out\n        /* \"contracts/openzeppelin/FarmingC2N.sol\":2460:2490  uint256 public totalAllocPoint */\n    tag_44:\n      sload(0x07)\n      dup2\n      jump\t// out\n        /* \"contracts/openzeppelin/FarmingC2N.sol\":3826:4377  function add(uint256 _allocPoint, IERC20 _lpToken, bool _withUpdate) public onlyOwner {... */\n    tag_49:\n        /* \"@openzeppelin/contracts/access/Ownable.sol\":1531:1544  _checkOwner() */\n      tag_119\n        /* \"@openzeppelin/contracts/access/Ownable.sol\":1531:1542  _checkOwner */\n      tag_120\n        /* \"@openzeppelin/contracts/access/Ownable.sol\":1531:1544  _checkOwner() */\n      jump\t// in\n    tag_119:\n        /* \"contracts/openzeppelin/FarmingC2N.sol\":3927:3938  _withUpdate */\n      dup1\n        /* \"contracts/openzeppelin/FarmingC2N.sol\":3923:3984  if (_withUpdate) {... */\n      iszero\n      tag_122\n      jumpi\n        /* \"contracts/openzeppelin/FarmingC2N.sol\":3955:3972  massUpdatePools() */\n      tag_123\n        /* \"contracts/openzeppelin/FarmingC2N.sol\":3955:3970  massUpdatePools */\n      tag_67\n        /* \"contracts/openzeppelin/FarmingC2N.sol\":3955:3972  massUpdatePools() */\n      jump\t// in\n    tag_123:\n        /* \"contracts/openzeppelin/FarmingC2N.sol\":3923:3984  if (_withUpdate) {... */\n    tag_122:\n        /* \"contracts/openzeppelin/FarmingC2N.sol\":3994:4021  uint256 lastRewardTimestamp */\n      0x00\n        /* \"contracts/openzeppelin/FarmingC2N.sol\":4042:4056  startTimestamp */\n      sload(0x08)\n        /* \"contracts/openzeppelin/FarmingC2N.sol\":4024:4039  block.timestamp */\n      timestamp\n        /* \"contracts/openzeppelin/FarmingC2N.sol\":4024:4056  block.timestamp > startTimestamp */\n      gt\n        /* \"contracts/openzeppelin/FarmingC2N.sol\":4024:4091  block.timestamp > startTimestamp ? block.timestamp : startTimestamp */\n      tag_124\n      jumpi\n        /* \"contracts/openzeppelin/FarmingC2N.sol\":4077:4091  startTimestamp */\n      sload(0x08)\n        /* \"contracts/openzeppelin/FarmingC2N.sol\":4024:4091  block.timestamp > startTimestamp ? block.timestamp : startTimestamp */\n      jump(tag_125)\n    tag_124:\n        /* \"contracts/openzeppelin/FarmingC2N.sol\":4059:4074  block.timestamp */\n      timestamp\n        /* \"contracts/openzeppelin/FarmingC2N.sol\":4024:4091  block.timestamp > startTimestamp ? block.timestamp : startTimestamp */\n    tag_125:\n        /* \"contracts/openzeppelin/FarmingC2N.sol\":3994:4091  uint256 lastRewardTimestamp = block.timestamp > startTimestamp ? block.timestamp : startTimestamp */\n      swap1\n      pop\n        /* \"contracts/openzeppelin/FarmingC2N.sol\":4136:4147  _allocPoint */\n      dup4\n        /* \"contracts/openzeppelin/FarmingC2N.sol\":4120:4135  totalAllocPoint */\n      sload(0x07)\n        /* \"contracts/openzeppelin/FarmingC2N.sol\":4120:4147  totalAllocPoint+_allocPoint */\n      tag_126\n      swap2\n      swap1\n      tag_127\n      jump\t// in\n    tag_126:\n        /* \"contracts/openzeppelin/FarmingC2N.sol\":4102:4117  totalAllocPoint */\n      0x07\n        /* \"contracts/openzeppelin/FarmingC2N.sol\":4102:4147  totalAllocPoint = totalAllocPoint+_allocPoint */\n      dup2\n      swap1\n      sstore\n      pop\n        /* \"contracts/openzeppelin/FarmingC2N.sol\":4158:4166  poolInfo */\n      0x05\n        /* \"contracts/openzeppelin/FarmingC2N.sol\":4172:4368  PoolInfo({... */\n      mload(0x40)\n      dup1\n      0xa0\n      add\n      0x40\n      mstore\n      dup1\n        /* \"contracts/openzeppelin/FarmingC2N.sol\":4202:4210  _lpToken */\n      dup6\n        /* \"contracts/openzeppelin/FarmingC2N.sol\":4172:4368  PoolInfo({... */\n      0xffffffffffffffffffffffffffffffffffffffff\n      and\n      dup2\n      mstore\n      0x20\n      add\n        /* \"contracts/openzeppelin/FarmingC2N.sol\":4234:4245  _allocPoint */\n      dup7\n        /* \"contracts/openzeppelin/FarmingC2N.sol\":4172:4368  PoolInfo({... */\n      dup2\n      mstore\n      0x20\n      add\n        /* \"contracts/openzeppelin/FarmingC2N.sol\":4278:4297  lastRewardTimestamp */\n      dup4\n        /* \"contracts/openzeppelin/FarmingC2N.sol\":4172:4368  PoolInfo({... */\n      dup2\n      mstore\n      0x20\n      add\n        /* \"contracts/openzeppelin/FarmingC2N.sol\":4327:4328  0 */\n      0x00\n        /* \"contracts/openzeppelin/FarmingC2N.sol\":4172:4368  PoolInfo({... */\n      dup2\n      mstore\n      0x20\n      add\n        /* \"contracts/openzeppelin/FarmingC2N.sol\":4355:4356  0 */\n      0x00\n        /* \"contracts/openzeppelin/FarmingC2N.sol\":4172:4368  PoolInfo({... */\n      dup2\n      mstore\n      pop\n        /* \"contracts/openzeppelin/FarmingC2N.sol\":4158:4369  poolInfo.push(PoolInfo({... */\n      swap1\n      dup1\n      0x01\n      dup2\n      sload\n      add\n      dup1\n      dup3\n      sstore\n      dup1\n      swap2\n      pop\n      pop\n      0x01\n      swap1\n      sub\n      swap1\n      0x00\n      mstore\n      keccak256(0x00, 0x20)\n      swap1\n      0x05\n      mul\n      add\n      0x00\n      swap1\n      swap2\n      swap1\n      swap2\n      swap1\n      swap2\n      pop\n      0x00\n      dup3\n      add\n      mload\n      dup2\n      0x00\n      add\n      exp(0x0100, 0x00)\n      dup2\n      sload\n      dup2\n      0xffffffffffffffffffffffffffffffffffffffff\n      mul\n      not\n      and\n      swap1\n      dup4\n      0xffffffffffffffffffffffffffffffffffffffff\n      and\n      mul\n      or\n      swap1\n      sstore\n      pop\n      0x20\n      dup3\n      add\n      mload\n      dup2\n      0x01\n      add\n      sstore\n      0x40\n      dup3\n      add\n      mload\n      dup2\n      0x02\n      add\n      sstore\n      0x60\n      dup3\n      add\n      mload\n      dup2\n      0x03\n      add\n      sstore\n      0x80\n      dup3\n      add\n      mload\n      dup2\n      0x04\n      add\n      sstore\n      pop\n      pop\n        /* \"contracts/openzeppelin/FarmingC2N.sol\":3912:4377  {... */\n      pop\n        /* \"contracts/openzeppelin/FarmingC2N.sol\":3826:4377  function add(uint256 _allocPoint, IERC20 _lpToken, bool _withUpdate) public onlyOwner {... */\n      pop\n      pop\n      pop\n      jump\t// out\n        /* \"contracts/openzeppelin/FarmingC2N.sol\":6069:6391  function totalPending() external view returns (uint256) {... */\n    tag_51:\n        /* \"contracts/openzeppelin/FarmingC2N.sol\":6116:6123  uint256 */\n      0x00\n        /* \"contracts/openzeppelin/FarmingC2N.sol\":6159:6173  startTimestamp */\n      sload(0x08)\n        /* \"contracts/openzeppelin/FarmingC2N.sol\":6140:6155  block.timestamp */\n      timestamp\n        /* \"contracts/openzeppelin/FarmingC2N.sol\":6140:6173  block.timestamp <= startTimestamp */\n      gt\n        /* \"contracts/openzeppelin/FarmingC2N.sol\":6136:6210  if (block.timestamp <= startTimestamp) {... */\n      tag_130\n      jumpi\n        /* \"contracts/openzeppelin/FarmingC2N.sol\":6197:6198  0 */\n      0x00\n        /* \"contracts/openzeppelin/FarmingC2N.sol\":6190:6198  return 0 */\n      swap1\n      pop\n      jump(tag_129)\n        /* \"contracts/openzeppelin/FarmingC2N.sol\":6136:6210  if (block.timestamp <= startTimestamp) {... */\n    tag_130:\n        /* \"contracts/openzeppelin/FarmingC2N.sol\":6222:6243  uint256 lastTimestamp */\n      0x00\n        /* \"contracts/openzeppelin/FarmingC2N.sol\":6264:6276  endTimestamp */\n      sload(0x09)\n        /* \"contracts/openzeppelin/FarmingC2N.sol\":6246:6261  block.timestamp */\n      timestamp\n        /* \"contracts/openzeppelin/FarmingC2N.sol\":6246:6276  block.timestamp < endTimestamp */\n      lt\n        /* \"contracts/openzeppelin/FarmingC2N.sol\":6246:6309  block.timestamp < endTimestamp ? block.timestamp : endTimestamp */\n      tag_131\n      jumpi\n        /* \"contracts/openzeppelin/FarmingC2N.sol\":6297:6309  endTimestamp */\n      sload(0x09)\n        /* \"contracts/openzeppelin/FarmingC2N.sol\":6246:6309  block.timestamp < endTimestamp ? block.timestamp : endTimestamp */\n      jump(tag_132)\n    tag_131:\n        /* \"contracts/openzeppelin/FarmingC2N.sol\":6279:6294  block.timestamp */\n      timestamp\n        /* \"contracts/openzeppelin/FarmingC2N.sol\":6246:6309  block.timestamp < endTimestamp ? block.timestamp : endTimestamp */\n    tag_132:\n        /* \"contracts/openzeppelin/FarmingC2N.sol\":6222:6309  uint256 lastTimestamp = block.timestamp < endTimestamp ? block.timestamp : endTimestamp */\n      swap1\n      pop\n        /* \"contracts/openzeppelin/FarmingC2N.sol\":6376:6383  paidOut */\n      sload(0x02)\n        /* \"contracts/openzeppelin/FarmingC2N.sol\":6360:6374  startTimestamp */\n      sload(0x08)\n        /* \"contracts/openzeppelin/FarmingC2N.sol\":6344:6357  lastTimestamp */\n      dup3\n        /* \"contracts/openzeppelin/FarmingC2N.sol\":6344:6374  lastTimestamp - startTimestamp */\n      tag_133\n      swap2\n      swap1\n      tag_134\n      jump\t// in\n    tag_133:\n        /* \"contracts/openzeppelin/FarmingC2N.sol\":6327:6342  rewardPerSecond */\n      sload(0x03)\n        /* \"contracts/openzeppelin/FarmingC2N.sol\":6327:6375  rewardPerSecond*(lastTimestamp - startTimestamp) */\n      tag_135\n      swap2\n      swap1\n      tag_136\n      jump\t// in\n    tag_135:\n        /* \"contracts/openzeppelin/FarmingC2N.sol\":6327:6383  rewardPerSecond*(lastTimestamp - startTimestamp)-paidOut */\n      tag_137\n      swap2\n      swap1\n      tag_134\n      jump\t// in\n    tag_137:\n        /* \"contracts/openzeppelin/FarmingC2N.sol\":6320:6383  return rewardPerSecond*(lastTimestamp - startTimestamp)-paidOut */\n      swap2\n      pop\n      pop\n        /* \"contracts/openzeppelin/FarmingC2N.sol\":6069:6391  function totalPending() external view returns (uint256) {... */\n    tag_129:\n      swap1\n      jump\t// out\n        /* \"contracts/openzeppelin/FarmingC2N.sol\":8357:9131  function withdraw(uint256 _pid, uint256 _amount) public {... */\n    tag_56:\n        /* \"contracts/openzeppelin/FarmingC2N.sol\":8424:8445  PoolInfo storage pool */\n      0x00\n        /* \"contracts/openzeppelin/FarmingC2N.sol\":8448:8456  poolInfo */\n      0x05\n        /* \"contracts/openzeppelin/FarmingC2N.sol\":8457:8461  _pid */\n      dup4\n        /* \"contracts/openzeppelin/FarmingC2N.sol\":8448:8462  poolInfo[_pid] */\n      dup2\n      sload\n      dup2\n      lt\n      tag_139\n      jumpi\n      tag_140\n      tag_141\n      jump\t// in\n    tag_140:\n    tag_139:\n      swap1\n      0x00\n      mstore\n      keccak256(0x00, 0x20)\n      swap1\n      0x05\n      mul\n      add\n        /* \"contracts/openzeppelin/FarmingC2N.sol\":8424:8462  PoolInfo storage pool = poolInfo[_pid] */\n      swap1\n      pop\n        /* \"contracts/openzeppelin/FarmingC2N.sol\":8473:8494  UserInfo storage user */\n      0x00\n        /* \"contracts/openzeppelin/FarmingC2N.sol\":8497:8505  userInfo */\n      0x06\n        /* \"contracts/openzeppelin/FarmingC2N.sol\":8497:8511  userInfo[_pid] */\n      0x00\n        /* \"contracts/openzeppelin/FarmingC2N.sol\":8506:8510  _pid */\n      dup6\n        /* \"contracts/openzeppelin/FarmingC2N.sol\":8497:8511  userInfo[_pid] */\n      dup2\n      mstore\n      0x20\n      add\n      swap1\n      dup2\n      mstore\n      0x20\n      add\n      0x00\n      keccak256\n        /* \"contracts/openzeppelin/FarmingC2N.sol\":8497:8523  userInfo[_pid][msg.sender] */\n      0x00\n        /* \"contracts/openzeppelin/FarmingC2N.sol\":8512:8522  msg.sender */\n      caller\n        /* \"contracts/openzeppelin/FarmingC2N.sol\":8497:8523  userInfo[_pid][msg.sender] */\n      0xffffffffffffffffffffffffffffffffffffffff\n      and\n      0xffffffffffffffffffffffffffffffffffffffff\n      and\n      dup2\n      mstore\n      0x20\n      add\n      swap1\n      dup2\n      mstore\n      0x20\n      add\n      0x00\n      keccak256\n        /* \"contracts/openzeppelin/FarmingC2N.sol\":8473:8523  UserInfo storage user = userInfo[_pid][msg.sender] */\n      swap1\n      pop\n        /* \"contracts/openzeppelin/FarmingC2N.sol\":8557:8564  _amount */\n      dup3\n        /* \"contracts/openzeppelin/FarmingC2N.sol\":8542:8546  user */\n      dup2\n        /* \"contracts/openzeppelin/FarmingC2N.sol\":8542:8553  user.amount */\n      0x00\n      add\n      sload\n        /* \"contracts/openzeppelin/FarmingC2N.sol\":8542:8564  user.amount >= _amount */\n      lt\n      iszero\n        /* \"contracts/openzeppelin/FarmingC2N.sol\":8534:8611  require(user.amount >= _amount, \"withdraw: can't withdraw more than deposit\") */\n      tag_143\n      jumpi\n      mload(0x40)\n      0x08c379a000000000000000000000000000000000000000000000000000000000\n      dup2\n      mstore\n      0x04\n      add\n      tag_144\n      swap1\n      tag_145\n      jump\t// in\n    tag_144:\n      mload(0x40)\n      dup1\n      swap2\n      sub\n      swap1\n      revert\n    tag_143:\n        /* \"contracts/openzeppelin/FarmingC2N.sol\":8622:8638  updatePool(_pid) */\n      tag_146\n        /* \"contracts/openzeppelin/FarmingC2N.sol\":8633:8637  _pid */\n      dup5\n        /* \"contracts/openzeppelin/FarmingC2N.sol\":8622:8632  updatePool */\n      tag_59\n        /* \"contracts/openzeppelin/FarmingC2N.sol\":8622:8638  updatePool(_pid) */\n      jump\t// in\n    tag_146:\n        /* \"contracts/openzeppelin/FarmingC2N.sol\":8676:8697  uint256 pendingAmount */\n      0x00\n        /* \"contracts/openzeppelin/FarmingC2N.sol\":8739:8743  user */\n      dup2\n        /* \"contracts/openzeppelin/FarmingC2N.sol\":8739:8754  user.rewardDebt */\n      0x01\n      add\n      sload\n        /* \"contracts/openzeppelin/FarmingC2N.sol\":8734:8738  1e36 */\n      0xc097ce7bc90715b34b9f1000000000\n        /* \"contracts/openzeppelin/FarmingC2N.sol\":8712:8716  pool */\n      dup5\n        /* \"contracts/openzeppelin/FarmingC2N.sol\":8712:8733  pool.accERC20PerShare */\n      0x03\n      add\n      sload\n        /* \"contracts/openzeppelin/FarmingC2N.sol\":8700:8704  user */\n      dup5\n        /* \"contracts/openzeppelin/FarmingC2N.sol\":8700:8711  user.amount */\n      0x00\n      add\n      sload\n        /* \"contracts/openzeppelin/FarmingC2N.sol\":8700:8733  user.amount*pool.accERC20PerShare */\n      tag_147\n      swap2\n      swap1\n      tag_136\n      jump\t// in\n    tag_147:\n        /* \"contracts/openzeppelin/FarmingC2N.sol\":8700:8738  user.amount*pool.accERC20PerShare/1e36 */\n      tag_148\n      swap2\n      swap1\n      tag_149\n      jump\t// in\n    tag_148:\n        /* \"contracts/openzeppelin/FarmingC2N.sol\":8700:8754  user.amount*pool.accERC20PerShare/1e36-user.rewardDebt */\n      tag_150\n      swap2\n      swap1\n      tag_134\n      jump\t// in\n    tag_150:\n        /* \"contracts/openzeppelin/FarmingC2N.sol\":8676:8754  uint256 pendingAmount = user.amount*pool.accERC20PerShare/1e36-user.rewardDebt */\n      swap1\n      pop\n        /* \"contracts/openzeppelin/FarmingC2N.sol\":8767:8807  erc20Transfer(msg.sender, pendingAmount) */\n      tag_151\n        /* \"contracts/openzeppelin/FarmingC2N.sol\":8781:8791  msg.sender */\n      caller\n        /* \"contracts/openzeppelin/FarmingC2N.sol\":8793:8806  pendingAmount */\n      dup3\n        /* \"contracts/openzeppelin/FarmingC2N.sol\":8767:8780  erc20Transfer */\n      tag_152\n        /* \"contracts/openzeppelin/FarmingC2N.sol\":8767:8807  erc20Transfer(msg.sender, pendingAmount) */\n      jump\t// in\n    tag_151:\n        /* \"contracts/openzeppelin/FarmingC2N.sol\":8844:8851  _amount */\n      dup4\n        /* \"contracts/openzeppelin/FarmingC2N.sol\":8832:8836  user */\n      dup3\n        /* \"contracts/openzeppelin/FarmingC2N.sol\":8832:8843  user.amount */\n      0x00\n      add\n      sload\n        /* \"contracts/openzeppelin/FarmingC2N.sol\":8832:8851  user.amount-_amount */\n      tag_153\n      swap2\n      swap1\n      tag_134\n      jump\t// in\n    tag_153:\n        /* \"contracts/openzeppelin/FarmingC2N.sol\":8818:8822  user */\n      dup3\n        /* \"contracts/openzeppelin/FarmingC2N.sol\":8818:8829  user.amount */\n      0x00\n      add\n        /* \"contracts/openzeppelin/FarmingC2N.sol\":8818:8851  user.amount = user.amount-_amount */\n      dup2\n      swap1\n      sstore\n      pop\n        /* \"contracts/openzeppelin/FarmingC2N.sol\":8914:8918  1e36 */\n      0xc097ce7bc90715b34b9f1000000000\n        /* \"contracts/openzeppelin/FarmingC2N.sol\":8892:8896  pool */\n      dup4\n        /* \"contracts/openzeppelin/FarmingC2N.sol\":8892:8913  pool.accERC20PerShare */\n      0x03\n      add\n      sload\n        /* \"contracts/openzeppelin/FarmingC2N.sol\":8880:8884  user */\n      dup4\n        /* \"contracts/openzeppelin/FarmingC2N.sol\":8880:8891  user.amount */\n      0x00\n      add\n      sload\n        /* \"contracts/openzeppelin/FarmingC2N.sol\":8880:8913  user.amount*pool.accERC20PerShare */\n      tag_154\n      swap2\n      swap1\n      tag_136\n      jump\t// in\n    tag_154:\n        /* \"contracts/openzeppelin/FarmingC2N.sol\":8880:8918  user.amount*pool.accERC20PerShare/1e36 */\n      tag_155\n      swap2\n      swap1\n      tag_149\n      jump\t// in\n    tag_155:\n        /* \"contracts/openzeppelin/FarmingC2N.sol\":8862:8866  user */\n      dup3\n        /* \"contracts/openzeppelin/FarmingC2N.sol\":8862:8877  user.rewardDebt */\n      0x01\n      add\n        /* \"contracts/openzeppelin/FarmingC2N.sol\":8862:8918  user.rewardDebt = user.amount*pool.accERC20PerShare/1e36 */\n      dup2\n      swap1\n      sstore\n      pop\n        /* \"contracts/openzeppelin/FarmingC2N.sol\":8957:9012  pool.lpToken.safeTransfer(address(msg.sender), _amount) */\n      tag_156\n        /* \"contracts/openzeppelin/FarmingC2N.sol\":8991:9001  msg.sender */\n      caller\n        /* \"contracts/openzeppelin/FarmingC2N.sol\":9004:9011  _amount */\n      dup6\n        /* \"contracts/openzeppelin/FarmingC2N.sol\":8957:8961  pool */\n      dup6\n        /* \"contracts/openzeppelin/FarmingC2N.sol\":8957:8969  pool.lpToken */\n      0x00\n      add\n      0x00\n      swap1\n      sload\n      swap1\n      0x0100\n      exp\n      swap1\n      div\n      0xffffffffffffffffffffffffffffffffffffffff\n      and\n        /* \"contracts/openzeppelin/FarmingC2N.sol\":8957:8982  pool.lpToken.safeTransfer */\n      0xffffffffffffffffffffffffffffffffffffffff\n      and\n      tag_157\n      swap1\n        /* \"contracts/openzeppelin/FarmingC2N.sol\":8957:9012  pool.lpToken.safeTransfer(address(msg.sender), _amount) */\n      swap3\n      swap2\n      swap1\n      0xffffffff\n      and\n      jump\t// in\n    tag_156:\n        /* \"contracts/openzeppelin/FarmingC2N.sol\":9063:9070  _amount */\n      dup4\n        /* \"contracts/openzeppelin/FarmingC2N.sol\":9044:9048  pool */\n      dup4\n        /* \"contracts/openzeppelin/FarmingC2N.sol\":9044:9062  pool.totalDeposits */\n      0x04\n      add\n      sload\n        /* \"contracts/openzeppelin/FarmingC2N.sol\":9044:9070  pool.totalDeposits-_amount */\n      tag_158\n      swap2\n      swap1\n      tag_134\n      jump\t// in\n    tag_158:\n        /* \"contracts/openzeppelin/FarmingC2N.sol\":9023:9027  pool */\n      dup4\n        /* \"contracts/openzeppelin/FarmingC2N.sol\":9023:9041  pool.totalDeposits */\n      0x04\n      add\n        /* \"contracts/openzeppelin/FarmingC2N.sol\":9023:9070  pool.totalDeposits = pool.totalDeposits-_amount */\n      dup2\n      swap1\n      sstore\n      pop\n        /* \"contracts/openzeppelin/FarmingC2N.sol\":9109:9113  _pid */\n      dup5\n        /* \"contracts/openzeppelin/FarmingC2N.sol\":9097:9107  msg.sender */\n      caller\n        /* \"contracts/openzeppelin/FarmingC2N.sol\":9088:9123  Withdraw(msg.sender, _pid, _amount) */\n      0xffffffffffffffffffffffffffffffffffffffff\n      and\n      0xf279e6a1f5e320cca91135676d9cb6e44ca8a08c0b88342bcdb1144f6511b568\n        /* \"contracts/openzeppelin/FarmingC2N.sol\":9115:9122  _amount */\n      dup7\n        /* \"contracts/openzeppelin/FarmingC2N.sol\":9088:9123  Withdraw(msg.sender, _pid, _amount) */\n      mload(0x40)\n      tag_159\n      swap2\n      swap1\n      tag_33\n      jump\t// in\n    tag_159:\n      mload(0x40)\n      dup1\n      swap2\n      sub\n      swap1\n      log3\n        /* \"contracts/openzeppelin/FarmingC2N.sol\":8413:9131  {... */\n      pop\n      pop\n      pop\n        /* \"contracts/openzeppelin/FarmingC2N.sol\":8357:9131  function withdraw(uint256 _pid, uint256 _amount) public {... */\n      pop\n      pop\n      jump\t// out\n        /* \"contracts/openzeppelin/FarmingC2N.sol\":6730:7487  function updatePool(uint256 _pid) public {... */\n    tag_59:\n        /* \"contracts/openzeppelin/FarmingC2N.sol\":6782:6803  PoolInfo storage pool */\n      0x00\n        /* \"contracts/openzeppelin/FarmingC2N.sol\":6806:6814  poolInfo */\n      0x05\n        /* \"contracts/openzeppelin/FarmingC2N.sol\":6815:6819  _pid */\n      dup3\n        /* \"contracts/openzeppelin/FarmingC2N.sol\":6806:6820  poolInfo[_pid] */\n      dup2\n      sload\n      dup2\n      lt\n      tag_161\n      jumpi\n      tag_162\n      tag_141\n      jump\t// in\n    tag_162:\n    tag_161:\n      swap1\n      0x00\n      mstore\n      keccak256(0x00, 0x20)\n      swap1\n      0x05\n      mul\n      add\n        /* \"contracts/openzeppelin/FarmingC2N.sol\":6782:6820  PoolInfo storage pool = poolInfo[_pid] */\n      swap1\n      pop\n        /* \"contracts/openzeppelin/FarmingC2N.sol\":6831:6852  uint256 lastTimestamp */\n      0x00\n        /* \"contracts/openzeppelin/FarmingC2N.sol\":6873:6885  endTimestamp */\n      sload(0x09)\n        /* \"contracts/openzeppelin/FarmingC2N.sol\":6855:6870  block.timestamp */\n      timestamp\n        /* \"contracts/openzeppelin/FarmingC2N.sol\":6855:6885  block.timestamp < endTimestamp */\n      lt\n        /* \"contracts/openzeppelin/FarmingC2N.sol\":6855:6918  block.timestamp < endTimestamp ? block.timestamp : endTimestamp */\n      tag_164\n      jumpi\n        /* \"contracts/openzeppelin/FarmingC2N.sol\":6906:6918  endTimestamp */\n      sload(0x09)\n        /* \"contracts/openzeppelin/FarmingC2N.sol\":6855:6918  block.timestamp < endTimestamp ? block.timestamp : endTimestamp */\n      jump(tag_165)\n    tag_164:\n        /* \"contracts/openzeppelin/FarmingC2N.sol\":6888:6903  block.timestamp */\n      timestamp\n        /* \"contracts/openzeppelin/FarmingC2N.sol\":6855:6918  block.timestamp < endTimestamp ? block.timestamp : endTimestamp */\n    tag_165:\n        /* \"contracts/openzeppelin/FarmingC2N.sol\":6831:6918  uint256 lastTimestamp = block.timestamp < endTimestamp ? block.timestamp : endTimestamp */\n      swap1\n      pop\n        /* \"contracts/openzeppelin/FarmingC2N.sol\":6952:6956  pool */\n      dup2\n        /* \"contracts/openzeppelin/FarmingC2N.sol\":6952:6976  pool.lastRewardTimestamp */\n      0x02\n      add\n      sload\n        /* \"contracts/openzeppelin/FarmingC2N.sol\":6935:6948  lastTimestamp */\n      dup2\n        /* \"contracts/openzeppelin/FarmingC2N.sol\":6935:6976  lastTimestamp <= pool.lastRewardTimestamp */\n      gt\n        /* \"contracts/openzeppelin/FarmingC2N.sol\":6931:7011  if (lastTimestamp <= pool.lastRewardTimestamp) {... */\n      tag_166\n      jumpi\n        /* \"contracts/openzeppelin/FarmingC2N.sol\":6993:7000  return; */\n      pop\n      pop\n      jump(tag_160)\n        /* \"contracts/openzeppelin/FarmingC2N.sol\":6931:7011  if (lastTimestamp <= pool.lastRewardTimestamp) {... */\n    tag_166:\n        /* \"contracts/openzeppelin/FarmingC2N.sol\":7021:7037  uint256 lpSupply */\n      0x00\n        /* \"contracts/openzeppelin/FarmingC2N.sol\":7040:7044  pool */\n      dup3\n        /* \"contracts/openzeppelin/FarmingC2N.sol\":7040:7058  pool.totalDeposits */\n      0x04\n      add\n      sload\n        /* \"contracts/openzeppelin/FarmingC2N.sol\":7021:7058  uint256 lpSupply = pool.totalDeposits */\n      swap1\n      pop\n        /* \"contracts/openzeppelin/FarmingC2N.sol\":7087:7088  0 */\n      0x00\n        /* \"contracts/openzeppelin/FarmingC2N.sol\":7075:7083  lpSupply */\n      dup2\n        /* \"contracts/openzeppelin/FarmingC2N.sol\":7075:7088  lpSupply == 0 */\n      sub\n        /* \"contracts/openzeppelin/FarmingC2N.sol\":7071:7178  if (lpSupply == 0) {... */\n      tag_167\n      jumpi\n        /* \"contracts/openzeppelin/FarmingC2N.sol\":7132:7145  lastTimestamp */\n      dup2\n        /* \"contracts/openzeppelin/FarmingC2N.sol\":7105:7109  pool */\n      dup4\n        /* \"contracts/openzeppelin/FarmingC2N.sol\":7105:7129  pool.lastRewardTimestamp */\n      0x02\n      add\n        /* \"contracts/openzeppelin/FarmingC2N.sol\":7105:7145  pool.lastRewardTimestamp = lastTimestamp */\n      dup2\n      swap1\n      sstore\n      pop\n        /* \"contracts/openzeppelin/FarmingC2N.sol\":7160:7167  return; */\n      pop\n      pop\n      pop\n      jump(tag_160)\n        /* \"contracts/openzeppelin/FarmingC2N.sol\":7071:7178  if (lpSupply == 0) {... */\n    tag_167:\n        /* \"contracts/openzeppelin/FarmingC2N.sol\":7190:7209  uint256 nrOfSeconds */\n      0x00\n        /* \"contracts/openzeppelin/FarmingC2N.sol\":7226:7230  pool */\n      dup4\n        /* \"contracts/openzeppelin/FarmingC2N.sol\":7226:7250  pool.lastRewardTimestamp */\n      0x02\n      add\n      sload\n        /* \"contracts/openzeppelin/FarmingC2N.sol\":7212:7225  lastTimestamp */\n      dup4\n        /* \"contracts/openzeppelin/FarmingC2N.sol\":7212:7250  lastTimestamp-pool.lastRewardTimestamp */\n      tag_168\n      swap2\n      swap1\n      tag_134\n      jump\t// in\n    tag_168:\n        /* \"contracts/openzeppelin/FarmingC2N.sol\":7190:7250  uint256 nrOfSeconds = lastTimestamp-pool.lastRewardTimestamp */\n      swap1\n      pop\n        /* \"contracts/openzeppelin/FarmingC2N.sol\":7261:7280  uint256 erc20Reward */\n      0x00\n        /* \"contracts/openzeppelin/FarmingC2N.sol\":7327:7342  totalAllocPoint */\n      sload(0x07)\n        /* \"contracts/openzeppelin/FarmingC2N.sol\":7311:7315  pool */\n      dup6\n        /* \"contracts/openzeppelin/FarmingC2N.sol\":7311:7326  pool.allocPoint */\n      0x01\n      add\n      sload\n        /* \"contracts/openzeppelin/FarmingC2N.sol\":7295:7310  rewardPerSecond */\n      sload(0x03)\n        /* \"contracts/openzeppelin/FarmingC2N.sol\":7283:7294  nrOfSeconds */\n      dup5\n        /* \"contracts/openzeppelin/FarmingC2N.sol\":7283:7310  nrOfSeconds*rewardPerSecond */\n      tag_169\n      swap2\n      swap1\n      tag_136\n      jump\t// in\n    tag_169:\n        /* \"contracts/openzeppelin/FarmingC2N.sol\":7283:7326  nrOfSeconds*rewardPerSecond*pool.allocPoint */\n      tag_170\n      swap2\n      swap1\n      tag_136\n      jump\t// in\n    tag_170:\n        /* \"contracts/openzeppelin/FarmingC2N.sol\":7283:7342  nrOfSeconds*rewardPerSecond*pool.allocPoint-totalAllocPoint */\n      tag_171\n      swap2\n      swap1\n      tag_134\n      jump\t// in\n    tag_171:\n        /* \"contracts/openzeppelin/FarmingC2N.sol\":7261:7342  uint256 erc20Reward = nrOfSeconds*rewardPerSecond*pool.allocPoint-totalAllocPoint */\n      swap1\n      pop\n        /* \"contracts/openzeppelin/FarmingC2N.sol\":7418:7426  lpSupply */\n      dup3\n        /* \"contracts/openzeppelin/FarmingC2N.sol\":7413:7417  1e36 */\n      0xc097ce7bc90715b34b9f1000000000\n        /* \"contracts/openzeppelin/FarmingC2N.sol\":7401:7412  erc20Reward */\n      dup3\n        /* \"contracts/openzeppelin/FarmingC2N.sol\":7401:7417  erc20Reward*1e36 */\n      tag_172\n      swap2\n      swap1\n      tag_136\n      jump\t// in\n    tag_172:\n        /* \"contracts/openzeppelin/FarmingC2N.sol\":7401:7426  erc20Reward*1e36/lpSupply */\n      tag_173\n      swap2\n      swap1\n      tag_149\n      jump\t// in\n    tag_173:\n        /* \"contracts/openzeppelin/FarmingC2N.sol\":7379:7383  pool */\n      dup6\n        /* \"contracts/openzeppelin/FarmingC2N.sol\":7379:7400  pool.accERC20PerShare */\n      0x03\n      add\n      sload\n        /* \"contracts/openzeppelin/FarmingC2N.sol\":7379:7426  pool.accERC20PerShare+erc20Reward*1e36/lpSupply */\n      tag_174\n      swap2\n      swap1\n      tag_127\n      jump\t// in\n    tag_174:\n        /* \"contracts/openzeppelin/FarmingC2N.sol\":7355:7359  pool */\n      dup6\n        /* \"contracts/openzeppelin/FarmingC2N.sol\":7355:7376  pool.accERC20PerShare */\n      0x03\n      add\n        /* \"contracts/openzeppelin/FarmingC2N.sol\":7355:7426  pool.accERC20PerShare = pool.accERC20PerShare+erc20Reward*1e36/lpSupply */\n      dup2\n      swap1\n      sstore\n      pop\n        /* \"contracts/openzeppelin/FarmingC2N.sol\":7464:7479  block.timestamp */\n      timestamp\n        /* \"contracts/openzeppelin/FarmingC2N.sol\":7437:7441  pool */\n      dup6\n        /* \"contracts/openzeppelin/FarmingC2N.sol\":7437:7461  pool.lastRewardTimestamp */\n      0x02\n      add\n        /* \"contracts/openzeppelin/FarmingC2N.sol\":7437:7479  pool.lastRewardTimestamp = block.timestamp */\n      dup2\n      swap1\n      sstore\n      pop\n        /* \"contracts/openzeppelin/FarmingC2N.sol\":6771:7487  {... */\n      pop\n      pop\n      pop\n      pop\n      pop\n        /* \"contracts/openzeppelin/FarmingC2N.sol\":6730:7487  function updatePool(uint256 _pid) public {... */\n    tag_160:\n      pop\n      jump\t// out\n        /* \"contracts/openzeppelin/FarmingC2N.sol\":9202:9620  function emergencyWithdraw(uint256 _pid) public {... */\n    tag_62:\n        /* \"contracts/openzeppelin/FarmingC2N.sol\":9261:9282  PoolInfo storage pool */\n      0x00\n        /* \"contracts/openzeppelin/FarmingC2N.sol\":9285:9293  poolInfo */\n      0x05\n        /* \"contracts/openzeppelin/FarmingC2N.sol\":9294:9298  _pid */\n      dup3\n        /* \"contracts/openzeppelin/FarmingC2N.sol\":9285:9299  poolInfo[_pid] */\n      dup2\n      sload\n      dup2\n      lt\n      tag_176\n      jumpi\n      tag_177\n      tag_141\n      jump\t// in\n    tag_177:\n    tag_176:\n      swap1\n      0x00\n      mstore\n      keccak256(0x00, 0x20)\n      swap1\n      0x05\n      mul\n      add\n        /* \"contracts/openzeppelin/FarmingC2N.sol\":9261:9299  PoolInfo storage pool = poolInfo[_pid] */\n      swap1\n      pop\n        /* \"contracts/openzeppelin/FarmingC2N.sol\":9310:9331  UserInfo storage user */\n      0x00\n        /* \"contracts/openzeppelin/FarmingC2N.sol\":9334:9342  userInfo */\n      0x06\n        /* \"contracts/openzeppelin/FarmingC2N.sol\":9334:9348  userInfo[_pid] */\n      0x00\n        /* \"contracts/openzeppelin/FarmingC2N.sol\":9343:9347  _pid */\n      dup5\n        /* \"contracts/openzeppelin/FarmingC2N.sol\":9334:9348  userInfo[_pid] */\n      dup2\n      mstore\n      0x20\n      add\n      swap1\n      dup2\n      mstore\n      0x20\n      add\n      0x00\n      keccak256\n        /* \"contracts/openzeppelin/FarmingC2N.sol\":9334:9360  userInfo[_pid][msg.sender] */\n      0x00\n        /* \"contracts/openzeppelin/FarmingC2N.sol\":9349:9359  msg.sender */\n      caller\n        /* \"contracts/openzeppelin/FarmingC2N.sol\":9334:9360  userInfo[_pid][msg.sender] */\n      0xffffffffffffffffffffffffffffffffffffffff\n      and\n      0xffffffffffffffffffffffffffffffffffffffff\n      and\n      dup2\n      mstore\n      0x20\n      add\n      swap1\n      dup2\n      mstore\n      0x20\n      add\n      0x00\n      keccak256\n        /* \"contracts/openzeppelin/FarmingC2N.sol\":9310:9360  UserInfo storage user = userInfo[_pid][msg.sender] */\n      swap1\n      pop\n        /* \"contracts/openzeppelin/FarmingC2N.sol\":9371:9430  pool.lpToken.safeTransfer(address(msg.sender), user.amount) */\n      tag_179\n        /* \"contracts/openzeppelin/FarmingC2N.sol\":9405:9415  msg.sender */\n      caller\n        /* \"contracts/openzeppelin/FarmingC2N.sol\":9418:9422  user */\n      dup3\n        /* \"contracts/openzeppelin/FarmingC2N.sol\":9418:9429  user.amount */\n      0x00\n      add\n      sload\n        /* \"contracts/openzeppelin/FarmingC2N.sol\":9371:9375  pool */\n      dup5\n        /* \"contracts/openzeppelin/FarmingC2N.sol\":9371:9383  pool.lpToken */\n      0x00\n      add\n      0x00\n      swap1\n      sload\n      swap1\n      0x0100\n      exp\n      swap1\n      div\n      0xffffffffffffffffffffffffffffffffffffffff\n      and\n        /* \"contracts/openzeppelin/FarmingC2N.sol\":9371:9396  pool.lpToken.safeTransfer */\n      0xffffffffffffffffffffffffffffffffffffffff\n      and\n      tag_157\n      swap1\n        /* \"contracts/openzeppelin/FarmingC2N.sol\":9371:9430  pool.lpToken.safeTransfer(address(msg.sender), user.amount) */\n      swap3\n      swap2\n      swap1\n      0xffffffff\n      and\n      jump\t// in\n    tag_179:\n        /* \"contracts/openzeppelin/FarmingC2N.sol\":9481:9485  user */\n      dup1\n        /* \"contracts/openzeppelin/FarmingC2N.sol\":9481:9492  user.amount */\n      0x00\n      add\n      sload\n        /* \"contracts/openzeppelin/FarmingC2N.sol\":9462:9466  pool */\n      dup3\n        /* \"contracts/openzeppelin/FarmingC2N.sol\":9462:9480  pool.totalDeposits */\n      0x04\n      add\n      sload\n        /* \"contracts/openzeppelin/FarmingC2N.sol\":9462:9492  pool.totalDeposits-user.amount */\n      tag_180\n      swap2\n      swap1\n      tag_134\n      jump\t// in\n    tag_180:\n        /* \"contracts/openzeppelin/FarmingC2N.sol\":9441:9445  pool */\n      dup3\n        /* \"contracts/openzeppelin/FarmingC2N.sol\":9441:9459  pool.totalDeposits */\n      0x04\n      add\n        /* \"contracts/openzeppelin/FarmingC2N.sol\":9441:9492  pool.totalDeposits = pool.totalDeposits-user.amount */\n      dup2\n      swap1\n      sstore\n      pop\n        /* \"contracts/openzeppelin/FarmingC2N.sol\":9538:9542  _pid */\n      dup3\n        /* \"contracts/openzeppelin/FarmingC2N.sol\":9526:9536  msg.sender */\n      caller\n        /* \"contracts/openzeppelin/FarmingC2N.sol\":9508:9556  EmergencyWithdraw(msg.sender, _pid, user.amount) */\n      0xffffffffffffffffffffffffffffffffffffffff\n      and\n      0xbb757047c2b5f3974fe26b7c10f732e7bce710b0952a71082702781e62ae0595\n        /* \"contracts/openzeppelin/FarmingC2N.sol\":9544:9548  user */\n      dup4\n        /* \"contracts/openzeppelin/FarmingC2N.sol\":9544:9555  user.amount */\n      0x00\n      add\n      sload\n        /* \"contracts/openzeppelin/FarmingC2N.sol\":9508:9556  EmergencyWithdraw(msg.sender, _pid, user.amount) */\n      mload(0x40)\n      tag_181\n      swap2\n      swap1\n      tag_33\n      jump\t// in\n    tag_181:\n      mload(0x40)\n      dup1\n      swap2\n      sub\n      swap1\n      log3\n        /* \"contracts/openzeppelin/FarmingC2N.sol\":9581:9582  0 */\n      0x00\n        /* \"contracts/openzeppelin/FarmingC2N.sol\":9567:9571  user */\n      dup2\n        /* \"contracts/openzeppelin/FarmingC2N.sol\":9567:9578  user.amount */\n      0x00\n      add\n        /* \"contracts/openzeppelin/FarmingC2N.sol\":9567:9582  user.amount = 0 */\n      dup2\n      swap1\n      sstore\n      pop\n        /* \"contracts/openzeppelin/FarmingC2N.sol\":9611:9612  0 */\n      0x00\n        /* \"contracts/openzeppelin/FarmingC2N.sol\":9593:9597  user */\n      dup2\n        /* \"contracts/openzeppelin/FarmingC2N.sol\":9593:9608  user.rewardDebt */\n      0x01\n      add\n        /* \"contracts/openzeppelin/FarmingC2N.sol\":9593:9612  user.rewardDebt = 0 */\n      dup2\n      swap1\n      sstore\n      pop\n        /* \"contracts/openzeppelin/FarmingC2N.sol\":9250:9620  {... */\n      pop\n      pop\n        /* \"contracts/openzeppelin/FarmingC2N.sol\":9202:9620  function emergencyWithdraw(uint256 _pid) public {... */\n      pop\n      jump\t// out\n        /* \"contracts/openzeppelin/FarmingC2N.sol\":2030:2052  uint256 public paidOut */\n    tag_64:\n      sload(0x02)\n      dup2\n      jump\t// out\n        /* \"contracts/openzeppelin/FarmingC2N.sol\":6474:6654  function massUpdatePools() public {... */\n    tag_67:\n        /* \"contracts/openzeppelin/FarmingC2N.sol\":6519:6533  uint256 length */\n      0x00\n        /* \"contracts/openzeppelin/FarmingC2N.sol\":6536:6544  poolInfo */\n      0x05\n        /* \"contracts/openzeppelin/FarmingC2N.sol\":6536:6551  poolInfo.length */\n      dup1\n      sload\n      swap1\n      pop\n        /* \"contracts/openzeppelin/FarmingC2N.sol\":6519:6551  uint256 length = poolInfo.length */\n      swap1\n      pop\n        /* \"contracts/openzeppelin/FarmingC2N.sol\":6567:6578  uint256 pid */\n      0x00\n        /* \"contracts/openzeppelin/FarmingC2N.sol\":6562:6647  for (uint256 pid = 0; pid < length; ++pid) {... */\n    tag_183:\n        /* \"contracts/openzeppelin/FarmingC2N.sol\":6590:6596  length */\n      dup2\n        /* \"contracts/openzeppelin/FarmingC2N.sol\":6584:6587  pid */\n      dup2\n        /* \"contracts/openzeppelin/FarmingC2N.sol\":6584:6596  pid < length */\n      lt\n        /* \"contracts/openzeppelin/FarmingC2N.sol\":6562:6647  for (uint256 pid = 0; pid < length; ++pid) {... */\n      iszero\n      tag_184\n      jumpi\n        /* \"contracts/openzeppelin/FarmingC2N.sol\":6620:6635  updatePool(pid) */\n      tag_186\n        /* \"contracts/openzeppelin/FarmingC2N.sol\":6631:6634  pid */\n      dup2\n        /* \"contracts/openzeppelin/FarmingC2N.sol\":6620:6630  updatePool */\n      tag_59\n        /* \"contracts/openzeppelin/FarmingC2N.sol\":6620:6635  updatePool(pid) */\n      jump\t// in\n    tag_186:\n        /* \"contracts/openzeppelin/FarmingC2N.sol\":6598:6603  ++pid */\n      dup1\n      0x01\n      add\n      swap1\n      pop\n        /* \"contracts/openzeppelin/FarmingC2N.sol\":6562:6647  for (uint256 pid = 0; pid < length; ++pid) {... */\n      jump(tag_183)\n    tag_184:\n      pop\n        /* \"contracts/openzeppelin/FarmingC2N.sol\":6508:6654  {... */\n      pop\n        /* \"contracts/openzeppelin/FarmingC2N.sol\":6474:6654  function massUpdatePools() public {... */\n      jump\t// out\n        /* \"contracts/openzeppelin/FarmingC2N.sol\":4474:4768  function set(uint256 _pid, uint256 _allocPoint, bool _withUpdate) public onlyOwner {... */\n    tag_71:\n        /* \"@openzeppelin/contracts/access/Ownable.sol\":1531:1544  _checkOwner() */\n      tag_188\n        /* \"@openzeppelin/contracts/access/Ownable.sol\":1531:1542  _checkOwner */\n      tag_120\n        /* \"@openzeppelin/contracts/access/Ownable.sol\":1531:1544  _checkOwner() */\n      jump\t// in\n    tag_188:\n        /* \"contracts/openzeppelin/FarmingC2N.sol\":4572:4583  _withUpdate */\n      dup1\n        /* \"contracts/openzeppelin/FarmingC2N.sol\":4568:4629  if (_withUpdate) {... */\n      iszero\n      tag_190\n      jumpi\n        /* \"contracts/openzeppelin/FarmingC2N.sol\":4600:4617  massUpdatePools() */\n      tag_191\n        /* \"contracts/openzeppelin/FarmingC2N.sol\":4600:4615  massUpdatePools */\n      tag_67\n        /* \"contracts/openzeppelin/FarmingC2N.sol\":4600:4617  massUpdatePools() */\n      jump\t// in\n    tag_191:\n        /* \"contracts/openzeppelin/FarmingC2N.sol\":4568:4629  if (_withUpdate) {... */\n    tag_190:\n        /* \"contracts/openzeppelin/FarmingC2N.sol\":4699:4710  _allocPoint */\n      dup2\n        /* \"contracts/openzeppelin/FarmingC2N.sol\":4673:4681  poolInfo */\n      0x05\n        /* \"contracts/openzeppelin/FarmingC2N.sol\":4682:4686  _pid */\n      dup5\n        /* \"contracts/openzeppelin/FarmingC2N.sol\":4673:4687  poolInfo[_pid] */\n      dup2\n      sload\n      dup2\n      lt\n      tag_192\n      jumpi\n      tag_193\n      tag_141\n      jump\t// in\n    tag_193:\n    tag_192:\n      swap1\n      0x00\n      mstore\n      keccak256(0x00, 0x20)\n      swap1\n      0x05\n      mul\n      add\n        /* \"contracts/openzeppelin/FarmingC2N.sol\":4673:4698  poolInfo[_pid].allocPoint */\n      0x01\n      add\n      sload\n        /* \"contracts/openzeppelin/FarmingC2N.sol\":4657:4672  totalAllocPoint */\n      sload(0x07)\n        /* \"contracts/openzeppelin/FarmingC2N.sol\":4657:4698  totalAllocPoint-poolInfo[_pid].allocPoint */\n      tag_195\n      swap2\n      swap1\n      tag_134\n      jump\t// in\n    tag_195:\n        /* \"contracts/openzeppelin/FarmingC2N.sol\":4657:4710  totalAllocPoint-poolInfo[_pid].allocPoint+_allocPoint */\n      tag_196\n      swap2\n      swap1\n      tag_127\n      jump\t// in\n    tag_196:\n        /* \"contracts/openzeppelin/FarmingC2N.sol\":4639:4654  totalAllocPoint */\n      0x07\n        /* \"contracts/openzeppelin/FarmingC2N.sol\":4639:4710  totalAllocPoint = totalAllocPoint-poolInfo[_pid].allocPoint+_allocPoint */\n      dup2\n      swap1\n      sstore\n      pop\n        /* \"contracts/openzeppelin/FarmingC2N.sol\":4749:4760  _allocPoint */\n      dup2\n        /* \"contracts/openzeppelin/FarmingC2N.sol\":4721:4729  poolInfo */\n      0x05\n        /* \"contracts/openzeppelin/FarmingC2N.sol\":4730:4734  _pid */\n      dup5\n        /* \"contracts/openzeppelin/FarmingC2N.sol\":4721:4735  poolInfo[_pid] */\n      dup2\n      sload\n      dup2\n      lt\n      tag_197\n      jumpi\n      tag_198\n      tag_141\n      jump\t// in\n    tag_198:\n    tag_197:\n      swap1\n      0x00\n      mstore\n      keccak256(0x00, 0x20)\n      swap1\n      0x05\n      mul\n      add\n        /* \"contracts/openzeppelin/FarmingC2N.sol\":4721:4746  poolInfo[_pid].allocPoint */\n      0x01\n      add\n        /* \"contracts/openzeppelin/FarmingC2N.sol\":4721:4760  poolInfo[_pid].allocPoint = _allocPoint */\n      dup2\n      swap1\n      sstore\n      pop\n        /* \"contracts/openzeppelin/FarmingC2N.sol\":4474:4768  function set(uint256 _pid, uint256 _allocPoint, bool _withUpdate) public onlyOwner {... */\n      pop\n      pop\n      pop\n      jump\t// out\n        /* \"@openzeppelin/contracts/access/Ownable.sol\":2293:2394  function renounceOwnership() public virtual onlyOwner {... */\n    tag_73:\n        /* \"@openzeppelin/contracts/access/Ownable.sol\":1531:1544  _checkOwner() */\n      tag_201\n        /* \"@openzeppelin/contracts/access/Ownable.sol\":1531:1542  _checkOwner */\n      tag_120\n        /* \"@openzeppelin/contracts/access/Ownable.sol\":1531:1544  _checkOwner() */\n      jump\t// in\n    tag_201:\n        /* \"@openzeppelin/contracts/access/Ownable.sol\":2357:2387  _transferOwnership(address(0)) */\n      tag_203\n        /* \"@openzeppelin/contracts/access/Ownable.sol\":2384:2385  0 */\n      0x00\n        /* \"@openzeppelin/contracts/access/Ownable.sol\":2357:2375  _transferOwnership */\n      tag_204\n        /* \"@openzeppelin/contracts/access/Ownable.sol\":2357:2387  _transferOwnership(address(0)) */\n      jump\t// in\n    tag_203:\n        /* \"@openzeppelin/contracts/access/Ownable.sol\":2293:2394  function renounceOwnership() public virtual onlyOwner {... */\n      jump\t// out\n        /* \"contracts/openzeppelin/FarmingC2N.sol\":1959:1978  IERC20 public erc20 */\n    tag_75:\n      0x01\n      0x00\n      swap1\n      sload\n      swap1\n      0x0100\n      exp\n      swap1\n      div\n      0xffffffffffffffffffffffffffffffffffffffff\n      and\n      dup2\n      jump\t// out\n        /* \"@openzeppelin/contracts/access/Ownable.sol\":1638:1723  function owner() public view virtual returns (address) {... */\n    tag_79:\n        /* \"@openzeppelin/contracts/access/Ownable.sol\":1684:1691  address */\n      0x00\n        /* \"@openzeppelin/contracts/access/Ownable.sol\":1710:1716  _owner */\n      dup1\n      0x00\n      swap1\n      sload\n      swap1\n      0x0100\n      exp\n      swap1\n      div\n      0xffffffffffffffffffffffffffffffffffffffff\n      and\n        /* \"@openzeppelin/contracts/access/Ownable.sol\":1703:1716  return _owner */\n      swap1\n      pop\n        /* \"@openzeppelin/contracts/access/Ownable.sol\":1638:1723  function owner() public view virtual returns (address) {... */\n      swap1\n      jump\t// out\n        /* \"contracts/openzeppelin/FarmingC2N.sol\":2095:2125  uint256 public rewardPerSecond */\n    tag_83:\n      sload(0x03)\n      dup2\n      jump\t// out\n        /* \"contracts/openzeppelin/FarmingC2N.sol\":2365:2429  mapping(uint256 => mapping(address => UserInfo)) public userInfo */\n    tag_88:\n      mstore(0x20, 0x06)\n      dup2\n      0x00\n      mstore\n      mstore(0x20, keccak256(0x00, 0x40))\n      dup1\n      0x00\n      mstore\n      keccak256(0x00, 0x40)\n      0x00\n      swap2\n      pop\n      swap2\n      pop\n      pop\n      dup1\n      0x00\n      add\n      sload\n      swap1\n      dup1\n      0x01\n      add\n      sload\n      swap1\n      pop\n      dup3\n      jump\t// out\n        /* \"contracts/openzeppelin/FarmingC2N.sol\":4830:5003  function deposited(uint256 _pid, address _user) external view returns (uint256) {... */\n    tag_93:\n        /* \"contracts/openzeppelin/FarmingC2N.sol\":4901:4908  uint256 */\n      0x00\n        /* \"contracts/openzeppelin/FarmingC2N.sol\":4921:4942  UserInfo storage user */\n      dup1\n        /* \"contracts/openzeppelin/FarmingC2N.sol\":4945:4953  userInfo */\n      0x06\n        /* \"contracts/openzeppelin/FarmingC2N.sol\":4945:4959  userInfo[_pid] */\n      0x00\n        /* \"contracts/openzeppelin/FarmingC2N.sol\":4954:4958  _pid */\n      dup6\n        /* \"contracts/openzeppelin/FarmingC2N.sol\":4945:4959  userInfo[_pid] */\n      dup2\n      mstore\n      0x20\n      add\n      swap1\n      dup2\n      mstore\n      0x20\n      add\n      0x00\n      keccak256\n        /* \"contracts/openzeppelin/FarmingC2N.sol\":4945:4966  userInfo[_pid][_user] */\n      0x00\n        /* \"contracts/openzeppelin/FarmingC2N.sol\":4960:4965  _user */\n      dup5\n        /* \"contracts/openzeppelin/FarmingC2N.sol\":4945:4966  userInfo[_pid][_user] */\n      0xffffffffffffffffffffffffffffffffffffffff\n      and\n      0xffffffffffffffffffffffffffffffffffffffff\n      and\n      dup2\n      mstore\n      0x20\n      add\n      swap1\n      dup2\n      mstore\n      0x20\n      add\n      0x00\n      keccak256\n        /* \"contracts/openzeppelin/FarmingC2N.sol\":4921:4966  UserInfo storage user = userInfo[_pid][_user] */\n      swap1\n      pop\n        /* \"contracts/openzeppelin/FarmingC2N.sol\":4984:4988  user */\n      dup1\n        /* \"contracts/openzeppelin/FarmingC2N.sol\":4984:4995  user.amount */\n      0x00\n      add\n      sload\n        /* \"contracts/openzeppelin/FarmingC2N.sol\":4977:4995  return user.amount */\n      swap2\n      pop\n      pop\n        /* \"contracts/openzeppelin/FarmingC2N.sol\":4830:5003  function deposited(uint256 _pid, address _user) external view returns (uint256) {... */\n      swap3\n      swap2\n      pop\n      pop\n      jump\t// out\n        /* \"contracts/openzeppelin/FarmingC2N.sol\":2593:2620  uint256 public endTimestamp */\n    tag_96:\n      sload(0x09)\n      dup2\n      jump\t// out\n        /* \"contracts/openzeppelin/FarmingC2N.sol\":3353:3661  function fund(uint256 _amount) public {... */\n    tag_100:\n        /* \"contracts/openzeppelin/FarmingC2N.sol\":3428:3440  endTimestamp */\n      sload(0x09)\n        /* \"contracts/openzeppelin/FarmingC2N.sol\":3410:3425  block.timestamp */\n      timestamp\n        /* \"contracts/openzeppelin/FarmingC2N.sol\":3410:3440  block.timestamp < endTimestamp */\n      lt\n        /* \"contracts/openzeppelin/FarmingC2N.sol\":3402:3479  require(block.timestamp < endTimestamp, \"fund: too late, the farm is closed\") */\n      tag_208\n      jumpi\n      mload(0x40)\n      0x08c379a000000000000000000000000000000000000000000000000000000000\n      dup2\n      mstore\n      0x04\n      add\n      tag_209\n      swap1\n      tag_210\n      jump\t// in\n    tag_209:\n      mload(0x40)\n      dup1\n      swap2\n      sub\n      swap1\n      revert\n    tag_208:\n        /* \"contracts/openzeppelin/FarmingC2N.sol\":3490:3557  erc20.safeTransferFrom(address(msg.sender), address(this), _amount) */\n      tag_211\n        /* \"contracts/openzeppelin/FarmingC2N.sol\":3521:3531  msg.sender */\n      caller\n        /* \"contracts/openzeppelin/FarmingC2N.sol\":3542:3546  this */\n      address\n        /* \"contracts/openzeppelin/FarmingC2N.sol\":3549:3556  _amount */\n      dup4\n        /* \"contracts/openzeppelin/FarmingC2N.sol\":3490:3495  erc20 */\n      0x01\n      0x00\n      swap1\n      sload\n      swap1\n      0x0100\n      exp\n      swap1\n      div\n      0xffffffffffffffffffffffffffffffffffffffff\n      and\n        /* \"contracts/openzeppelin/FarmingC2N.sol\":3490:3512  erc20.safeTransferFrom */\n      0xffffffffffffffffffffffffffffffffffffffff\n      and\n      tag_212\n      swap1\n        /* \"contracts/openzeppelin/FarmingC2N.sol\":3490:3557  erc20.safeTransferFrom(address(msg.sender), address(this), _amount) */\n      swap4\n      swap3\n      swap2\n      swap1\n      0xffffffff\n      and\n      jump\t// in\n    tag_211:\n        /* \"contracts/openzeppelin/FarmingC2N.sol\":3592:3607  rewardPerSecond */\n      sload(0x03)\n        /* \"contracts/openzeppelin/FarmingC2N.sol\":3584:3591  _amount */\n      dup2\n        /* \"contracts/openzeppelin/FarmingC2N.sol\":3584:3607  _amount/rewardPerSecond */\n      tag_213\n      swap2\n      swap1\n      tag_149\n      jump\t// in\n    tag_213:\n        /* \"contracts/openzeppelin/FarmingC2N.sol\":3568:3580  endTimestamp */\n      0x09\n      0x00\n        /* \"contracts/openzeppelin/FarmingC2N.sol\":3568:3607  endTimestamp += _amount/rewardPerSecond */\n      dup3\n      dup3\n      sload\n      tag_214\n      swap2\n      swap1\n      tag_127\n      jump\t// in\n    tag_214:\n      swap3\n      pop\n      pop\n      dup2\n      swap1\n      sstore\n      pop\n        /* \"contracts/openzeppelin/FarmingC2N.sol\":3646:3653  _amount */\n      dup1\n        /* \"contracts/openzeppelin/FarmingC2N.sol\":3633:3645  totalRewards */\n      sload(0x04)\n        /* \"contracts/openzeppelin/FarmingC2N.sol\":3633:3653  totalRewards+_amount */\n      tag_215\n      swap2\n      swap1\n      tag_127\n      jump\t// in\n    tag_215:\n        /* \"contracts/openzeppelin/FarmingC2N.sol\":3618:3630  totalRewards */\n      0x04\n        /* \"contracts/openzeppelin/FarmingC2N.sol\":3618:3653  totalRewards = totalRewards+_amount */\n      dup2\n      swap1\n      sstore\n      pop\n        /* \"contracts/openzeppelin/FarmingC2N.sol\":3353:3661  function fund(uint256 _amount) public {... */\n      pop\n      jump\t// out\n        /* \"contracts/openzeppelin/FarmingC2N.sol\":7551:8254  function deposit(uint256 _pid, uint256 _amount) public {... */\n    tag_103:\n        /* \"contracts/openzeppelin/FarmingC2N.sol\":7617:7638  PoolInfo storage pool */\n      0x00\n        /* \"contracts/openzeppelin/FarmingC2N.sol\":7641:7649  poolInfo */\n      0x05\n        /* \"contracts/openzeppelin/FarmingC2N.sol\":7650:7654  _pid */\n      dup4\n        /* \"contracts/openzeppelin/FarmingC2N.sol\":7641:7655  poolInfo[_pid] */\n      dup2\n      sload\n      dup2\n      lt\n      tag_217\n      jumpi\n      tag_218\n      tag_141\n      jump\t// in\n    tag_218:\n    tag_217:\n      swap1\n      0x00\n      mstore\n      keccak256(0x00, 0x20)\n      swap1\n      0x05\n      mul\n      add\n        /* \"contracts/openzeppelin/FarmingC2N.sol\":7617:7655  PoolInfo storage pool = poolInfo[_pid] */\n      swap1\n      pop\n        /* \"contracts/openzeppelin/FarmingC2N.sol\":7666:7687  UserInfo storage user */\n      0x00\n        /* \"contracts/openzeppelin/FarmingC2N.sol\":7690:7698  userInfo */\n      0x06\n        /* \"contracts/openzeppelin/FarmingC2N.sol\":7690:7704  userInfo[_pid] */\n      0x00\n        /* \"contracts/openzeppelin/FarmingC2N.sol\":7699:7703  _pid */\n      dup6\n        /* \"contracts/openzeppelin/FarmingC2N.sol\":7690:7704  userInfo[_pid] */\n      dup2\n      mstore\n      0x20\n      add\n      swap1\n      dup2\n      mstore\n      0x20\n      add\n      0x00\n      keccak256\n        /* \"contracts/openzeppelin/FarmingC2N.sol\":7690:7716  userInfo[_pid][msg.sender] */\n      0x00\n        /* \"contracts/openzeppelin/FarmingC2N.sol\":7705:7715  msg.sender */\n      caller\n        /* \"contracts/openzeppelin/FarmingC2N.sol\":7690:7716  userInfo[_pid][msg.sender] */\n      0xffffffffffffffffffffffffffffffffffffffff\n      and\n      0xffffffffffffffffffffffffffffffffffffffff\n      and\n      dup2\n      mstore\n      0x20\n      add\n      swap1\n      dup2\n      mstore\n      0x20\n      add\n      0x00\n      keccak256\n        /* \"contracts/openzeppelin/FarmingC2N.sol\":7666:7716  UserInfo storage user = userInfo[_pid][msg.sender] */\n      swap1\n      pop\n        /* \"contracts/openzeppelin/FarmingC2N.sol\":7729:7745  updatePool(_pid) */\n      tag_220\n        /* \"contracts/openzeppelin/FarmingC2N.sol\":7740:7744  _pid */\n      dup5\n        /* \"contracts/openzeppelin/FarmingC2N.sol\":7729:7739  updatePool */\n      tag_59\n        /* \"contracts/openzeppelin/FarmingC2N.sol\":7729:7745  updatePool(_pid) */\n      jump\t// in\n    tag_220:\n        /* \"contracts/openzeppelin/FarmingC2N.sol\":7776:7777  0 */\n      0x00\n        /* \"contracts/openzeppelin/FarmingC2N.sol\":7762:7766  user */\n      dup2\n        /* \"contracts/openzeppelin/FarmingC2N.sol\":7762:7773  user.amount */\n      0x00\n      add\n      sload\n        /* \"contracts/openzeppelin/FarmingC2N.sol\":7762:7777  user.amount > 0 */\n      gt\n        /* \"contracts/openzeppelin/FarmingC2N.sol\":7758:7939  if (user.amount > 0) {... */\n      iszero\n      tag_221\n      jumpi\n        /* \"contracts/openzeppelin/FarmingC2N.sol\":7794:7815  uint256 pendingAmount */\n      0x00\n        /* \"contracts/openzeppelin/FarmingC2N.sol\":7857:7861  user */\n      dup2\n        /* \"contracts/openzeppelin/FarmingC2N.sol\":7857:7872  user.rewardDebt */\n      0x01\n      add\n      sload\n        /* \"contracts/openzeppelin/FarmingC2N.sol\":7852:7856  1e36 */\n      0xc097ce7bc90715b34b9f1000000000\n        /* \"contracts/openzeppelin/FarmingC2N.sol\":7830:7834  pool */\n      dup5\n        /* \"contracts/openzeppelin/FarmingC2N.sol\":7830:7851  pool.accERC20PerShare */\n      0x03\n      add\n      sload\n        /* \"contracts/openzeppelin/FarmingC2N.sol\":7818:7822  user */\n      dup5\n        /* \"contracts/openzeppelin/FarmingC2N.sol\":7818:7829  user.amount */\n      0x00\n      add\n      sload\n        /* \"contracts/openzeppelin/FarmingC2N.sol\":7818:7851  user.amount*pool.accERC20PerShare */\n      tag_222\n      swap2\n      swap1\n      tag_136\n      jump\t// in\n    tag_222:\n        /* \"contracts/openzeppelin/FarmingC2N.sol\":7818:7856  user.amount*pool.accERC20PerShare/1e36 */\n      tag_223\n      swap2\n      swap1\n      tag_149\n      jump\t// in\n    tag_223:\n        /* \"contracts/openzeppelin/FarmingC2N.sol\":7818:7872  user.amount*pool.accERC20PerShare/1e36-user.rewardDebt */\n      tag_224\n      swap2\n      swap1\n      tag_134\n      jump\t// in\n    tag_224:\n        /* \"contracts/openzeppelin/FarmingC2N.sol\":7794:7872  uint256 pendingAmount = user.amount*pool.accERC20PerShare/1e36-user.rewardDebt */\n      swap1\n      pop\n        /* \"contracts/openzeppelin/FarmingC2N.sol\":7887:7927  erc20Transfer(msg.sender, pendingAmount) */\n      tag_225\n        /* \"contracts/openzeppelin/FarmingC2N.sol\":7901:7911  msg.sender */\n      caller\n        /* \"contracts/openzeppelin/FarmingC2N.sol\":7913:7926  pendingAmount */\n      dup3\n        /* \"contracts/openzeppelin/FarmingC2N.sol\":7887:7900  erc20Transfer */\n      tag_152\n        /* \"contracts/openzeppelin/FarmingC2N.sol\":7887:7927  erc20Transfer(msg.sender, pendingAmount) */\n      jump\t// in\n    tag_225:\n        /* \"contracts/openzeppelin/FarmingC2N.sol\":7779:7939  {... */\n      pop\n        /* \"contracts/openzeppelin/FarmingC2N.sol\":7758:7939  if (user.amount > 0) {... */\n    tag_221:\n        /* \"contracts/openzeppelin/FarmingC2N.sol\":7951:8025  pool.lpToken.safeTransferFrom(address(msg.sender), address(this), _amount) */\n      tag_226\n        /* \"contracts/openzeppelin/FarmingC2N.sol\":7989:7999  msg.sender */\n      caller\n        /* \"contracts/openzeppelin/FarmingC2N.sol\":8010:8014  this */\n      address\n        /* \"contracts/openzeppelin/FarmingC2N.sol\":8017:8024  _amount */\n      dup6\n        /* \"contracts/openzeppelin/FarmingC2N.sol\":7951:7955  pool */\n      dup6\n        /* \"contracts/openzeppelin/FarmingC2N.sol\":7951:7963  pool.lpToken */\n      0x00\n      add\n      0x00\n      swap1\n      sload\n      swap1\n      0x0100\n      exp\n      swap1\n      div\n      0xffffffffffffffffffffffffffffffffffffffff\n      and\n        /* \"contracts/openzeppelin/FarmingC2N.sol\":7951:7980  pool.lpToken.safeTransferFrom */\n      0xffffffffffffffffffffffffffffffffffffffff\n      and\n      tag_212\n      swap1\n        /* \"contracts/openzeppelin/FarmingC2N.sol\":7951:8025  pool.lpToken.safeTransferFrom(address(msg.sender), address(this), _amount) */\n      swap4\n      swap3\n      swap2\n      swap1\n      0xffffffff\n      and\n      jump\t// in\n    tag_226:\n        /* \"contracts/openzeppelin/FarmingC2N.sol\":8076:8083  _amount */\n      dup3\n        /* \"contracts/openzeppelin/FarmingC2N.sol\":8057:8061  pool */\n      dup3\n        /* \"contracts/openzeppelin/FarmingC2N.sol\":8057:8075  pool.totalDeposits */\n      0x04\n      add\n      sload\n        /* \"contracts/openzeppelin/FarmingC2N.sol\":8057:8083  pool.totalDeposits+_amount */\n      tag_227\n      swap2\n      swap1\n      tag_127\n      jump\t// in\n    tag_227:\n        /* \"contracts/openzeppelin/FarmingC2N.sol\":8036:8040  pool */\n      dup3\n        /* \"contracts/openzeppelin/FarmingC2N.sol\":8036:8054  pool.totalDeposits */\n      0x04\n      add\n        /* \"contracts/openzeppelin/FarmingC2N.sol\":8036:8083  pool.totalDeposits = pool.totalDeposits+_amount */\n      dup2\n      swap1\n      sstore\n      pop\n        /* \"contracts/openzeppelin/FarmingC2N.sol\":8122:8129  _amount */\n      dup3\n        /* \"contracts/openzeppelin/FarmingC2N.sol\":8110:8114  user */\n      dup2\n        /* \"contracts/openzeppelin/FarmingC2N.sol\":8110:8121  user.amount */\n      0x00\n      add\n      sload\n        /* \"contracts/openzeppelin/FarmingC2N.sol\":8110:8129  user.amount+_amount */\n      tag_228\n      swap2\n      swap1\n      tag_127\n      jump\t// in\n    tag_228:\n        /* \"contracts/openzeppelin/FarmingC2N.sol\":8096:8100  user */\n      dup2\n        /* \"contracts/openzeppelin/FarmingC2N.sol\":8096:8107  user.amount */\n      0x00\n      add\n        /* \"contracts/openzeppelin/FarmingC2N.sol\":8096:8129  user.amount = user.amount+_amount */\n      dup2\n      swap1\n      sstore\n      pop\n        /* \"contracts/openzeppelin/FarmingC2N.sol\":8192:8196  1e36 */\n      0xc097ce7bc90715b34b9f1000000000\n        /* \"contracts/openzeppelin/FarmingC2N.sol\":8170:8174  pool */\n      dup3\n        /* \"contracts/openzeppelin/FarmingC2N.sol\":8170:8191  pool.accERC20PerShare */\n      0x03\n      add\n      sload\n        /* \"contracts/openzeppelin/FarmingC2N.sol\":8158:8162  user */\n      dup3\n        /* \"contracts/openzeppelin/FarmingC2N.sol\":8158:8169  user.amount */\n      0x00\n      add\n      sload\n        /* \"contracts/openzeppelin/FarmingC2N.sol\":8158:8191  user.amount*pool.accERC20PerShare */\n      tag_229\n      swap2\n      swap1\n      tag_136\n      jump\t// in\n    tag_229:\n        /* \"contracts/openzeppelin/FarmingC2N.sol\":8158:8196  user.amount*pool.accERC20PerShare/1e36 */\n      tag_230\n      swap2\n      swap1\n      tag_149\n      jump\t// in\n    tag_230:\n        /* \"contracts/openzeppelin/FarmingC2N.sol\":8140:8144  user */\n      dup2\n        /* \"contracts/openzeppelin/FarmingC2N.sol\":8140:8155  user.rewardDebt */\n      0x01\n      add\n        /* \"contracts/openzeppelin/FarmingC2N.sol\":8140:8196  user.rewardDebt = user.amount*pool.accERC20PerShare/1e36 */\n      dup2\n      swap1\n      sstore\n      pop\n        /* \"contracts/openzeppelin/FarmingC2N.sol\":8232:8236  _pid */\n      dup4\n        /* \"contracts/openzeppelin/FarmingC2N.sol\":8220:8230  msg.sender */\n      caller\n        /* \"contracts/openzeppelin/FarmingC2N.sol\":8212:8246  Deposit(msg.sender, _pid, _amount) */\n      0xffffffffffffffffffffffffffffffffffffffff\n      and\n      0x90890809c654f11d6e72a28fa60149770a0d11ec6c92319d6ceb2bb0a4ea1a15\n        /* \"contracts/openzeppelin/FarmingC2N.sol\":8238:8245  _amount */\n      dup6\n        /* \"contracts/openzeppelin/FarmingC2N.sol\":8212:8246  Deposit(msg.sender, _pid, _amount) */\n      mload(0x40)\n      tag_231\n      swap2\n      swap1\n      tag_33\n      jump\t// in\n    tag_231:\n      mload(0x40)\n      dup1\n      swap2\n      sub\n      swap1\n      log3\n        /* \"contracts/openzeppelin/FarmingC2N.sol\":7606:8254  {... */\n      pop\n      pop\n        /* \"contracts/openzeppelin/FarmingC2N.sol\":7551:8254  function deposit(uint256 _pid, uint256 _amount) public {... */\n      pop\n      pop\n      jump\t// out\n        /* \"contracts/openzeppelin/FarmingC2N.sol\":5067:5993  function pending(uint256 _pid, address _user) external view returns (uint256) {... */\n    tag_106:\n        /* \"contracts/openzeppelin/FarmingC2N.sol\":5136:5143  uint256 */\n      0x00\n        /* \"contracts/openzeppelin/FarmingC2N.sol\":5156:5177  PoolInfo storage pool */\n      dup1\n        /* \"contracts/openzeppelin/FarmingC2N.sol\":5180:5188  poolInfo */\n      0x05\n        /* \"contracts/openzeppelin/FarmingC2N.sol\":5189:5193  _pid */\n      dup5\n        /* \"contracts/openzeppelin/FarmingC2N.sol\":5180:5194  poolInfo[_pid] */\n      dup2\n      sload\n      dup2\n      lt\n      tag_233\n      jumpi\n      tag_234\n      tag_141\n      jump\t// in\n    tag_234:\n    tag_233:\n      swap1\n      0x00\n      mstore\n      keccak256(0x00, 0x20)\n      swap1\n      0x05\n      mul\n      add\n        /* \"contracts/openzeppelin/FarmingC2N.sol\":5156:5194  PoolInfo storage pool = poolInfo[_pid] */\n      swap1\n      pop\n        /* \"contracts/openzeppelin/FarmingC2N.sol\":5205:5226  UserInfo storage user */\n      0x00\n        /* \"contracts/openzeppelin/FarmingC2N.sol\":5229:5237  userInfo */\n      0x06\n        /* \"contracts/openzeppelin/FarmingC2N.sol\":5229:5243  userInfo[_pid] */\n      0x00\n        /* \"contracts/openzeppelin/FarmingC2N.sol\":5238:5242  _pid */\n      dup7\n        /* \"contracts/openzeppelin/FarmingC2N.sol\":5229:5243  userInfo[_pid] */\n      dup2\n      mstore\n      0x20\n      add\n      swap1\n      dup2\n      mstore\n      0x20\n      add\n      0x00\n      keccak256\n        /* \"contracts/openzeppelin/FarmingC2N.sol\":5229:5250  userInfo[_pid][_user] */\n      0x00\n        /* \"contracts/openzeppelin/FarmingC2N.sol\":5244:5249  _user */\n      dup6\n        /* \"contracts/openzeppelin/FarmingC2N.sol\":5229:5250  userInfo[_pid][_user] */\n      0xffffffffffffffffffffffffffffffffffffffff\n      and\n      0xffffffffffffffffffffffffffffffffffffffff\n      and\n      dup2\n      mstore\n      0x20\n      add\n      swap1\n      dup2\n      mstore\n      0x20\n      add\n      0x00\n      keccak256\n        /* \"contracts/openzeppelin/FarmingC2N.sol\":5205:5250  UserInfo storage user = userInfo[_pid][_user] */\n      swap1\n      pop\n        /* \"contracts/openzeppelin/FarmingC2N.sol\":5261:5285  uint256 accERC20PerShare */\n      0x00\n        /* \"contracts/openzeppelin/FarmingC2N.sol\":5288:5292  pool */\n      dup3\n        /* \"contracts/openzeppelin/FarmingC2N.sol\":5288:5309  pool.accERC20PerShare */\n      0x03\n      add\n      sload\n        /* \"contracts/openzeppelin/FarmingC2N.sol\":5261:5309  uint256 accERC20PerShare = pool.accERC20PerShare */\n      swap1\n      pop\n        /* \"contracts/openzeppelin/FarmingC2N.sol\":5322:5338  uint256 lpSupply */\n      0x00\n        /* \"contracts/openzeppelin/FarmingC2N.sol\":5341:5345  pool */\n      dup4\n        /* \"contracts/openzeppelin/FarmingC2N.sol\":5341:5359  pool.totalDeposits */\n      0x04\n      add\n      sload\n        /* \"contracts/openzeppelin/FarmingC2N.sol\":5322:5359  uint256 lpSupply = pool.totalDeposits */\n      swap1\n      pop\n        /* \"contracts/openzeppelin/FarmingC2N.sol\":5394:5398  pool */\n      dup4\n        /* \"contracts/openzeppelin/FarmingC2N.sol\":5394:5418  pool.lastRewardTimestamp */\n      0x02\n      add\n      sload\n        /* \"contracts/openzeppelin/FarmingC2N.sol\":5376:5391  block.timestamp */\n      timestamp\n        /* \"contracts/openzeppelin/FarmingC2N.sol\":5376:5418  block.timestamp > pool.lastRewardTimestamp */\n      gt\n        /* \"contracts/openzeppelin/FarmingC2N.sol\":5376:5435  block.timestamp > pool.lastRewardTimestamp && lpSupply != 0 */\n      dup1\n      iszero\n      tag_236\n      jumpi\n      pop\n        /* \"contracts/openzeppelin/FarmingC2N.sol\":5434:5435  0 */\n      0x00\n        /* \"contracts/openzeppelin/FarmingC2N.sol\":5422:5430  lpSupply */\n      dup2\n        /* \"contracts/openzeppelin/FarmingC2N.sol\":5422:5435  lpSupply != 0 */\n      eq\n      iszero\n        /* \"contracts/openzeppelin/FarmingC2N.sol\":5376:5435  block.timestamp > pool.lastRewardTimestamp && lpSupply != 0 */\n    tag_236:\n        /* \"contracts/openzeppelin/FarmingC2N.sol\":5372:5919  if (block.timestamp > pool.lastRewardTimestamp && lpSupply != 0) {... */\n      iszero\n      tag_237\n      jumpi\n        /* \"contracts/openzeppelin/FarmingC2N.sol\":5452:5473  uint256 lastTimestamp */\n      0x00\n        /* \"contracts/openzeppelin/FarmingC2N.sol\":5494:5506  endTimestamp */\n      sload(0x09)\n        /* \"contracts/openzeppelin/FarmingC2N.sol\":5476:5491  block.timestamp */\n      timestamp\n        /* \"contracts/openzeppelin/FarmingC2N.sol\":5476:5506  block.timestamp < endTimestamp */\n      lt\n        /* \"contracts/openzeppelin/FarmingC2N.sol\":5476:5539  block.timestamp < endTimestamp ? block.timestamp : endTimestamp */\n      tag_238\n      jumpi\n        /* \"contracts/openzeppelin/FarmingC2N.sol\":5527:5539  endTimestamp */\n      sload(0x09)\n        /* \"contracts/openzeppelin/FarmingC2N.sol\":5476:5539  block.timestamp < endTimestamp ? block.timestamp : endTimestamp */\n      jump(tag_239)\n    tag_238:\n        /* \"contracts/openzeppelin/FarmingC2N.sol\":5509:5524  block.timestamp */\n      timestamp\n        /* \"contracts/openzeppelin/FarmingC2N.sol\":5476:5539  block.timestamp < endTimestamp ? block.timestamp : endTimestamp */\n    tag_239:\n        /* \"contracts/openzeppelin/FarmingC2N.sol\":5452:5539  uint256 lastTimestamp = block.timestamp < endTimestamp ? block.timestamp : endTimestamp */\n      swap1\n      pop\n        /* \"contracts/openzeppelin/FarmingC2N.sol\":5554:5580  uint256 timestampToCompare */\n      0x00\n        /* \"contracts/openzeppelin/FarmingC2N.sol\":5610:5622  endTimestamp */\n      sload(0x09)\n        /* \"contracts/openzeppelin/FarmingC2N.sol\":5583:5587  pool */\n      dup7\n        /* \"contracts/openzeppelin/FarmingC2N.sol\":5583:5607  pool.lastRewardTimestamp */\n      0x02\n      add\n      sload\n        /* \"contracts/openzeppelin/FarmingC2N.sol\":5583:5622  pool.lastRewardTimestamp < endTimestamp */\n      lt\n        /* \"contracts/openzeppelin/FarmingC2N.sol\":5583:5664  pool.lastRewardTimestamp < endTimestamp ? pool.lastRewardTimestamp : endTimestamp */\n      tag_240\n      jumpi\n        /* \"contracts/openzeppelin/FarmingC2N.sol\":5652:5664  endTimestamp */\n      sload(0x09)\n        /* \"contracts/openzeppelin/FarmingC2N.sol\":5583:5664  pool.lastRewardTimestamp < endTimestamp ? pool.lastRewardTimestamp : endTimestamp */\n      jump(tag_241)\n    tag_240:\n        /* \"contracts/openzeppelin/FarmingC2N.sol\":5625:5629  pool */\n      dup6\n        /* \"contracts/openzeppelin/FarmingC2N.sol\":5625:5649  pool.lastRewardTimestamp */\n      0x02\n      add\n      sload\n        /* \"contracts/openzeppelin/FarmingC2N.sol\":5583:5664  pool.lastRewardTimestamp < endTimestamp ? pool.lastRewardTimestamp : endTimestamp */\n    tag_241:\n        /* \"contracts/openzeppelin/FarmingC2N.sol\":5554:5664  uint256 timestampToCompare = pool.lastRewardTimestamp < endTimestamp ? pool.lastRewardTimestamp : endTimestamp */\n      swap1\n      pop\n        /* \"contracts/openzeppelin/FarmingC2N.sol\":5679:5698  uint256 nrOfSeconds */\n      0x00\n        /* \"contracts/openzeppelin/FarmingC2N.sol\":5715:5733  timestampToCompare */\n      dup2\n        /* \"contracts/openzeppelin/FarmingC2N.sol\":5701:5714  lastTimestamp */\n      dup4\n        /* \"contracts/openzeppelin/FarmingC2N.sol\":5701:5733  lastTimestamp-timestampToCompare */\n      tag_242\n      swap2\n      swap1\n      tag_134\n      jump\t// in\n    tag_242:\n        /* \"contracts/openzeppelin/FarmingC2N.sol\":5679:5733  uint256 nrOfSeconds = lastTimestamp-timestampToCompare */\n      swap1\n      pop\n        /* \"contracts/openzeppelin/FarmingC2N.sol\":5748:5767  uint256 erc20Reward */\n      0x00\n        /* \"contracts/openzeppelin/FarmingC2N.sol\":5814:5829  totalAllocPoint */\n      sload(0x07)\n        /* \"contracts/openzeppelin/FarmingC2N.sol\":5798:5802  pool */\n      dup9\n        /* \"contracts/openzeppelin/FarmingC2N.sol\":5798:5813  pool.allocPoint */\n      0x01\n      add\n      sload\n        /* \"contracts/openzeppelin/FarmingC2N.sol\":5782:5797  rewardPerSecond */\n      sload(0x03)\n        /* \"contracts/openzeppelin/FarmingC2N.sol\":5770:5781  nrOfSeconds */\n      dup5\n        /* \"contracts/openzeppelin/FarmingC2N.sol\":5770:5797  nrOfSeconds*rewardPerSecond */\n      tag_243\n      swap2\n      swap1\n      tag_136\n      jump\t// in\n    tag_243:\n        /* \"contracts/openzeppelin/FarmingC2N.sol\":5770:5813  nrOfSeconds*rewardPerSecond*pool.allocPoint */\n      tag_244\n      swap2\n      swap1\n      tag_136\n      jump\t// in\n    tag_244:\n        /* \"contracts/openzeppelin/FarmingC2N.sol\":5770:5829  nrOfSeconds*rewardPerSecond*pool.allocPoint/totalAllocPoint */\n      tag_245\n      swap2\n      swap1\n      tag_149\n      jump\t// in\n    tag_245:\n        /* \"contracts/openzeppelin/FarmingC2N.sol\":5748:5829  uint256 erc20Reward = nrOfSeconds*rewardPerSecond*pool.allocPoint/totalAllocPoint */\n      swap1\n      pop\n        /* \"contracts/openzeppelin/FarmingC2N.sol\":5898:5906  lpSupply */\n      dup5\n        /* \"contracts/openzeppelin/FarmingC2N.sol\":5893:5897  1e36 */\n      0xc097ce7bc90715b34b9f1000000000\n        /* \"contracts/openzeppelin/FarmingC2N.sol\":5881:5892  erc20Reward */\n      dup3\n        /* \"contracts/openzeppelin/FarmingC2N.sol\":5881:5897  erc20Reward*1e36 */\n      tag_246\n      swap2\n      swap1\n      tag_136\n      jump\t// in\n    tag_246:\n        /* \"contracts/openzeppelin/FarmingC2N.sol\":5881:5906  erc20Reward*1e36/lpSupply */\n      tag_247\n      swap2\n      swap1\n      tag_149\n      jump\t// in\n    tag_247:\n        /* \"contracts/openzeppelin/FarmingC2N.sol\":5863:5879  accERC20PerShare */\n      dup7\n        /* \"contracts/openzeppelin/FarmingC2N.sol\":5863:5907  accERC20PerShare+(erc20Reward*1e36/lpSupply) */\n      tag_248\n      swap2\n      swap1\n      tag_127\n      jump\t// in\n    tag_248:\n        /* \"contracts/openzeppelin/FarmingC2N.sol\":5844:5907  accERC20PerShare = accERC20PerShare+(erc20Reward*1e36/lpSupply) */\n      swap6\n      pop\n        /* \"contracts/openzeppelin/FarmingC2N.sol\":5437:5919  {... */\n      pop\n      pop\n      pop\n      pop\n        /* \"contracts/openzeppelin/FarmingC2N.sol\":5372:5919  if (block.timestamp > pool.lastRewardTimestamp && lpSupply != 0) {... */\n    tag_237:\n        /* \"contracts/openzeppelin/FarmingC2N.sol\":5970:5974  user */\n      dup3\n        /* \"contracts/openzeppelin/FarmingC2N.sol\":5970:5985  user.rewardDebt */\n      0x01\n      add\n      sload\n        /* \"contracts/openzeppelin/FarmingC2N.sol\":5965:5969  1e36 */\n      0xc097ce7bc90715b34b9f1000000000\n        /* \"contracts/openzeppelin/FarmingC2N.sol\":5948:5964  accERC20PerShare */\n      dup4\n        /* \"contracts/openzeppelin/FarmingC2N.sol\":5936:5940  user */\n      dup6\n        /* \"contracts/openzeppelin/FarmingC2N.sol\":5936:5947  user.amount */\n      0x00\n      add\n      sload\n        /* \"contracts/openzeppelin/FarmingC2N.sol\":5936:5964  user.amount*accERC20PerShare */\n      tag_249\n      swap2\n      swap1\n      tag_136\n      jump\t// in\n    tag_249:\n        /* \"contracts/openzeppelin/FarmingC2N.sol\":5936:5969  user.amount*accERC20PerShare/1e36 */\n      tag_250\n      swap2\n      swap1\n      tag_149\n      jump\t// in\n    tag_250:\n        /* \"contracts/openzeppelin/FarmingC2N.sol\":5936:5985  user.amount*accERC20PerShare/1e36-user.rewardDebt */\n      tag_251\n      swap2\n      swap1\n      tag_134\n      jump\t// in\n    tag_251:\n        /* \"contracts/openzeppelin/FarmingC2N.sol\":5929:5985  return user.amount*accERC20PerShare/1e36-user.rewardDebt */\n      swap5\n      pop\n      pop\n      pop\n      pop\n      pop\n        /* \"contracts/openzeppelin/FarmingC2N.sol\":5067:5993  function pending(uint256 _pid, address _user) external view returns (uint256) {... */\n      swap3\n      swap2\n      pop\n      pop\n      jump\t// out\n        /* \"contracts/openzeppelin/FarmingC2N.sol\":2528:2557  uint256 public startTimestamp */\n    tag_109:\n      sload(0x08)\n      dup2\n      jump\t// out\n        /* \"@openzeppelin/contracts/access/Ownable.sol\":2543:2758  function transferOwnership(address newOwner) public virtual onlyOwner {... */\n    tag_114:\n        /* \"@openzeppelin/contracts/access/Ownable.sol\":1531:1544  _checkOwner() */\n      tag_253\n        /* \"@openzeppelin/contracts/access/Ownable.sol\":1531:1542  _checkOwner */\n      tag_120\n        /* \"@openzeppelin/contracts/access/Ownable.sol\":1531:1544  _checkOwner() */\n      jump\t// in\n    tag_253:\n        /* \"@openzeppelin/contracts/access/Ownable.sol\":2647:2648  0 */\n      0x00\n        /* \"@openzeppelin/contracts/access/Ownable.sol\":2627:2649  newOwner == address(0) */\n      0xffffffffffffffffffffffffffffffffffffffff\n      and\n        /* \"@openzeppelin/contracts/access/Ownable.sol\":2627:2635  newOwner */\n      dup2\n        /* \"@openzeppelin/contracts/access/Ownable.sol\":2627:2649  newOwner == address(0) */\n      0xffffffffffffffffffffffffffffffffffffffff\n      and\n      sub\n        /* \"@openzeppelin/contracts/access/Ownable.sol\":2623:2714  if (newOwner == address(0)) {... */\n      tag_255\n      jumpi\n        /* \"@openzeppelin/contracts/access/Ownable.sol\":2700:2701  0 */\n      0x00\n        /* \"@openzeppelin/contracts/access/Ownable.sol\":2672:2703  OwnableInvalidOwner(address(0)) */\n      mload(0x40)\n      0x1e4fbdf700000000000000000000000000000000000000000000000000000000\n      dup2\n      mstore\n      0x04\n      add\n      tag_256\n      swap2\n      swap1\n      tag_81\n      jump\t// in\n    tag_256:\n      mload(0x40)\n      dup1\n      swap2\n      sub\n      swap1\n      revert\n        /* \"@openzeppelin/contracts/access/Ownable.sol\":2623:2714  if (newOwner == address(0)) {... */\n    tag_255:\n        /* \"@openzeppelin/contracts/access/Ownable.sol\":2723:2751  _transferOwnership(newOwner) */\n      tag_257\n        /* \"@openzeppelin/contracts/access/Ownable.sol\":2742:2750  newOwner */\n      dup2\n        /* \"@openzeppelin/contracts/access/Ownable.sol\":2723:2741  _transferOwnership */\n      tag_204\n        /* \"@openzeppelin/contracts/access/Ownable.sol\":2723:2751  _transferOwnership(newOwner) */\n      jump\t// in\n    tag_257:\n        /* \"@openzeppelin/contracts/access/Ownable.sol\":2543:2758  function transferOwnership(address newOwner) public virtual onlyOwner {... */\n      pop\n      jump\t// out\n        /* \"@openzeppelin/contracts/access/Ownable.sol\":1796:1958  function _checkOwner() internal view virtual {... */\n    tag_120:\n        /* \"@openzeppelin/contracts/access/Ownable.sol\":1866:1878  _msgSender() */\n      tag_259\n        /* \"@openzeppelin/contracts/access/Ownable.sol\":1866:1876  _msgSender */\n      tag_260\n        /* \"@openzeppelin/contracts/access/Ownable.sol\":1866:1878  _msgSender() */\n      jump\t// in\n    tag_259:\n        /* \"@openzeppelin/contracts/access/Ownable.sol\":1855:1878  owner() != _msgSender() */\n      0xffffffffffffffffffffffffffffffffffffffff\n      and\n        /* \"@openzeppelin/contracts/access/Ownable.sol\":1855:1862  owner() */\n      tag_261\n        /* \"@openzeppelin/contracts/access/Ownable.sol\":1855:1860  owner */\n      tag_79\n        /* \"@openzeppelin/contracts/access/Ownable.sol\":1855:1862  owner() */\n      jump\t// in\n    tag_261:\n        /* \"@openzeppelin/contracts/access/Ownable.sol\":1855:1878  owner() != _msgSender() */\n      0xffffffffffffffffffffffffffffffffffffffff\n      and\n      eq\n        /* \"@openzeppelin/contracts/access/Ownable.sol\":1851:1952  if (owner() != _msgSender()) {... */\n      tag_262\n      jumpi\n        /* \"@openzeppelin/contracts/access/Ownable.sol\":1928:1940  _msgSender() */\n      tag_263\n        /* \"@openzeppelin/contracts/access/Ownable.sol\":1928:1938  _msgSender */\n      tag_260\n        /* \"@openzeppelin/contracts/access/Ownable.sol\":1928:1940  _msgSender() */\n      jump\t// in\n    tag_263:\n        /* \"@openzeppelin/contracts/access/Ownable.sol\":1901:1941  OwnableUnauthorizedAccount(_msgSender()) */\n      mload(0x40)\n      0x118cdaa700000000000000000000000000000000000000000000000000000000\n      dup2\n      mstore\n      0x04\n      add\n      tag_264\n      swap2\n      swap1\n      tag_81\n      jump\t// in\n    tag_264:\n      mload(0x40)\n      dup1\n      swap2\n      sub\n      swap1\n      revert\n        /* \"@openzeppelin/contracts/access/Ownable.sol\":1851:1952  if (owner() != _msgSender()) {... */\n    tag_262:\n        /* \"@openzeppelin/contracts/access/Ownable.sol\":1796:1958  function _checkOwner() internal view virtual {... */\n      jump\t// out\n        /* \"contracts/openzeppelin/FarmingC2N.sol\":9703:9841  function erc20Transfer(address _to, uint256 _amount) internal {... */\n    tag_152:\n        /* \"contracts/openzeppelin/FarmingC2N.sol\":9776:9781  erc20 */\n      0x01\n      0x00\n      swap1\n      sload\n      swap1\n      0x0100\n      exp\n      swap1\n      div\n      0xffffffffffffffffffffffffffffffffffffffff\n      and\n        /* \"contracts/openzeppelin/FarmingC2N.sol\":9776:9790  erc20.transfer */\n      0xffffffffffffffffffffffffffffffffffffffff\n      and\n      0xa9059cbb\n        /* \"contracts/openzeppelin/FarmingC2N.sol\":9791:9794  _to */\n      dup4\n        /* \"contracts/openzeppelin/FarmingC2N.sol\":9796:9803  _amount */\n      dup4\n        /* \"contracts/openzeppelin/FarmingC2N.sol\":9776:9804  erc20.transfer(_to, _amount) */\n      mload(0x40)\n      dup4\n      0xffffffff\n      and\n      0xe0\n      shl\n      dup2\n      mstore\n      0x04\n      add\n      tag_266\n      swap3\n      swap2\n      swap1\n      tag_267\n      jump\t// in\n    tag_266:\n      0x20\n      mload(0x40)\n      dup1\n      dup4\n      sub\n      dup2\n      0x00\n      dup8\n      gas\n      call\n      iszero\n      dup1\n      iszero\n      tag_269\n      jumpi\n      returndatasize\n      0x00\n      dup1\n      returndatacopy\n      revert(0x00, returndatasize)\n    tag_269:\n      pop\n      pop\n      pop\n      pop\n      mload(0x40)\n      returndatasize\n      not(0x1f)\n      0x1f\n      dup3\n      add\n      and\n      dup3\n      add\n      dup1\n      0x40\n      mstore\n      pop\n      dup2\n      add\n      swap1\n      tag_270\n      swap2\n      swap1\n      tag_271\n      jump\t// in\n    tag_270:\n      pop\n        /* \"contracts/openzeppelin/FarmingC2N.sol\":9826:9833  _amount */\n      dup1\n        /* \"contracts/openzeppelin/FarmingC2N.sol\":9815:9822  paidOut */\n      0x02\n      0x00\n        /* \"contracts/openzeppelin/FarmingC2N.sol\":9815:9833  paidOut += _amount */\n      dup3\n      dup3\n      sload\n      tag_272\n      swap2\n      swap1\n      tag_127\n      jump\t// in\n    tag_272:\n      swap3\n      pop\n      pop\n      dup2\n      swap1\n      sstore\n      pop\n        /* \"contracts/openzeppelin/FarmingC2N.sol\":9703:9841  function erc20Transfer(address _to, uint256 _amount) internal {... */\n      pop\n      pop\n      jump\t// out\n        /* \"@openzeppelin/contracts/token/ERC20/utils/SafeERC20.sol\":1219:1379  function safeTransfer(IERC20 token, address to, uint256 value) internal {... */\n    tag_157:\n        /* \"@openzeppelin/contracts/token/ERC20/utils/SafeERC20.sol\":1301:1372  _callOptionalReturn(token, abi.encodeCall(token.transfer, (to, value))) */\n      tag_274\n        /* \"@openzeppelin/contracts/token/ERC20/utils/SafeERC20.sol\":1321:1326  token */\n      dup4\n        /* \"@openzeppelin/contracts/token/ERC20/utils/SafeERC20.sol\":1343:1348  token */\n      dup5\n        /* \"@openzeppelin/contracts/token/ERC20/utils/SafeERC20.sol\":1343:1357  token.transfer */\n      0xffffffffffffffffffffffffffffffffffffffff\n      and\n      0xa9059cbb\n        /* \"@openzeppelin/contracts/token/ERC20/utils/SafeERC20.sol\":1360:1362  to */\n      dup6\n        /* \"@openzeppelin/contracts/token/ERC20/utils/SafeERC20.sol\":1364:1369  value */\n      dup6\n        /* \"@openzeppelin/contracts/token/ERC20/utils/SafeERC20.sol\":1328:1371  abi.encodeCall(token.transfer, (to, value)) */\n      add(0x24, mload(0x40))\n      tag_275\n      swap3\n      swap2\n      swap1\n      tag_267\n      jump\t// in\n    tag_275:\n      mload(0x40)\n      0x20\n      dup2\n      dup4\n      sub\n      sub\n      dup2\n      mstore\n      swap1\n      0x40\n      mstore\n      swap2\n      pop\n      0xe0\n      shl\n      0x20\n      dup3\n      add\n      dup1\n      mload\n      0xffffffffffffffffffffffffffffffffffffffffffffffffffffffff\n      dup4\n      dup2\n      dup4\n      and\n      or\n      dup4\n      mstore\n      pop\n      pop\n      pop\n      pop\n        /* \"@openzeppelin/contracts/token/ERC20/utils/SafeERC20.sol\":1301:1320  _callOptionalReturn */\n      tag_276\n        /* \"@openzeppelin/contracts/token/ERC20/utils/SafeERC20.sol\":1301:1372  _callOptionalReturn(token, abi.encodeCall(token.transfer, (to, value))) */\n      jump\t// in\n    tag_274:\n        /* \"@openzeppelin/contracts/token/ERC20/utils/SafeERC20.sol\":1219:1379  function safeTransfer(IERC20 token, address to, uint256 value) internal {... */\n      pop\n      pop\n      pop\n      jump\t// out\n        /* \"@openzeppelin/contracts/access/Ownable.sol\":2912:3099  function _transferOwnership(address newOwner) internal virtual {... */\n    tag_204:\n        /* \"@openzeppelin/contracts/access/Ownable.sol\":2985:3001  address oldOwner */\n      0x00\n        /* \"@openzeppelin/contracts/access/Ownable.sol\":3004:3010  _owner */\n      dup1\n      0x00\n      swap1\n      sload\n      swap1\n      0x0100\n      exp\n      swap1\n      div\n      0xffffffffffffffffffffffffffffffffffffffff\n      and\n        /* \"@openzeppelin/contracts/access/Ownable.sol\":2985:3010  address oldOwner = _owner */\n      swap1\n      pop\n        /* \"@openzeppelin/contracts/access/Ownable.sol\":3029:3037  newOwner */\n      dup2\n        /* \"@openzeppelin/contracts/access/Ownable.sol\":3020:3026  _owner */\n      0x00\n      dup1\n        /* \"@openzeppelin/contracts/access/Ownable.sol\":3020:3037  _owner = newOwner */\n      0x0100\n      exp\n      dup2\n      sload\n      dup2\n      0xffffffffffffffffffffffffffffffffffffffff\n      mul\n      not\n      and\n      swap1\n      dup4\n      0xffffffffffffffffffffffffffffffffffffffff\n      and\n      mul\n      or\n      swap1\n      sstore\n      pop\n        /* \"@openzeppelin/contracts/access/Ownable.sol\":3083:3091  newOwner */\n      dup2\n        /* \"@openzeppelin/contracts/access/Ownable.sol\":3052:3092  OwnershipTransferred(oldOwner, newOwner) */\n      0xffffffffffffffffffffffffffffffffffffffff\n      and\n        /* \"@openzeppelin/contracts/access/Ownable.sol\":3073:3081  oldOwner */\n      dup2\n        /* \"@openzeppelin/contracts/access/Ownable.sol\":3052:3092  OwnershipTransferred(oldOwner, newOwner) */\n      0xffffffffffffffffffffffffffffffffffffffff\n      and\n      0x8be0079c531659141344cd1fd0a4f28419497f9722a3daafe3b4186f6b6457e0\n      mload(0x40)\n      mload(0x40)\n      dup1\n      swap2\n      sub\n      swap1\n      log3\n        /* \"@openzeppelin/contracts/access/Ownable.sol\":2975:3099  {... */\n      pop\n        /* \"@openzeppelin/contracts/access/Ownable.sol\":2912:3099  function _transferOwnership(address newOwner) internal virtual {... */\n      pop\n      jump\t// out\n        /* \"@openzeppelin/contracts/token/ERC20/utils/SafeERC20.sol\":1618:1806  function safeTransferFrom(IERC20 token, address from, address to, uint256 value) internal {... */\n    tag_212:\n        /* \"@openzeppelin/contracts/token/ERC20/utils/SafeERC20.sol\":1718:1799  _callOptionalReturn(token, abi.encodeCall(token.transferFrom, (from, to, value))) */\n      tag_279\n        /* \"@openzeppelin/contracts/token/ERC20/utils/SafeERC20.sol\":1738:1743  token */\n      dup5\n        /* \"@openzeppelin/contracts/token/ERC20/utils/SafeERC20.sol\":1760:1765  token */\n      dup6\n        /* \"@openzeppelin/contracts/token/ERC20/utils/SafeERC20.sol\":1760:1778  token.transferFrom */\n      0xffffffffffffffffffffffffffffffffffffffff\n      and\n      0x23b872dd\n        /* \"@openzeppelin/contracts/token/ERC20/utils/SafeERC20.sol\":1781:1785  from */\n      dup7\n        /* \"@openzeppelin/contracts/token/ERC20/utils/SafeERC20.sol\":1787:1789  to */\n      dup7\n        /* \"@openzeppelin/contracts/token/ERC20/utils/SafeERC20.sol\":1791:1796  value */\n      dup7\n        /* \"@openzeppelin/contracts/token/ERC20/utils/SafeERC20.sol\":1745:1798  abi.encodeCall(token.transferFrom, (from, to, value)) */\n      add(0x24, mload(0x40))\n      tag_280\n      swap4\n      swap3\n      swap2\n      swap1\n      tag_281\n      jump\t// in\n    tag_280:\n      mload(0x40)\n      0x20\n      dup2\n      dup4\n      sub\n      sub\n      dup2\n      mstore\n      swap1\n      0x40\n      mstore\n      swap2\n      pop\n      0xe0\n      shl\n      0x20\n      dup3\n      add\n      dup1\n      mload\n      0xffffffffffffffffffffffffffffffffffffffffffffffffffffffff\n      dup4\n      dup2\n      dup4\n      and\n      or\n      dup4\n      mstore\n      pop\n      pop\n      pop\n      pop\n        /* \"@openzeppelin/contracts/token/ERC20/utils/SafeERC20.sol\":1718:1737  _callOptionalReturn */\n      tag_276\n        /* \"@openzeppelin/contracts/token/ERC20/utils/SafeERC20.sol\":1718:1799  _callOptionalReturn(token, abi.encodeCall(token.transferFrom, (from, to, value))) */\n      jump\t// in\n    tag_279:\n        /* \"@openzeppelin/contracts/token/ERC20/utils/SafeERC20.sol\":1618:1806  function safeTransferFrom(IERC20 token, address from, address to, uint256 value) internal {... */\n      pop\n      pop\n      pop\n      pop\n      jump\t// out\n        /* \"@openzeppelin/contracts/utils/Context.sol\":656:752  function _msgSender() internal view virtual returns (address) {... */\n    tag_260:\n        /* \"@openzeppelin/contracts/utils/Context.sol\":709:716  address */\n      0x00\n        /* \"@openzeppelin/contracts/utils/Context.sol\":735:745  msg.sender */\n      caller\n        /* \"@openzeppelin/contracts/utils/Context.sol\":728:745  return msg.sender */\n      swap1\n      pop\n        /* \"@openzeppelin/contracts/utils/Context.sol\":656:752  function _msgSender() internal view virtual returns (address) {... */\n      swap1\n      jump\t// out\n        /* \"@openzeppelin/contracts/token/ERC20/utils/SafeERC20.sol\":7686:8406  function _callOptionalReturn(IERC20 token, bytes memory data) private {... */\n    tag_276:\n        /* \"@openzeppelin/contracts/token/ERC20/utils/SafeERC20.sol\":7766:7784  uint256 returnSize */\n      0x00\n        /* \"@openzeppelin/contracts/token/ERC20/utils/SafeERC20.sol\":7794:7813  uint256 returnValue */\n      dup1\n        /* \"@openzeppelin/contracts/token/ERC20/utils/SafeERC20.sol\":7932:7936  0x20 */\n      0x20\n        /* \"@openzeppelin/contracts/token/ERC20/utils/SafeERC20.sol\":7929:7930  0 */\n      0x00\n        /* \"@openzeppelin/contracts/token/ERC20/utils/SafeERC20.sol\":7922:7926  data */\n      dup5\n        /* \"@openzeppelin/contracts/token/ERC20/utils/SafeERC20.sol\":7916:7927  mload(data) */\n      mload\n        /* \"@openzeppelin/contracts/token/ERC20/utils/SafeERC20.sol\":7909:7913  0x20 */\n      0x20\n        /* \"@openzeppelin/contracts/token/ERC20/utils/SafeERC20.sol\":7903:7907  data */\n      dup7\n        /* \"@openzeppelin/contracts/token/ERC20/utils/SafeERC20.sol\":7899:7914  add(data, 0x20) */\n      add\n        /* \"@openzeppelin/contracts/token/ERC20/utils/SafeERC20.sol\":7896:7897  0 */\n      0x00\n        /* \"@openzeppelin/contracts/token/ERC20/utils/SafeERC20.sol\":7889:7894  token */\n      dup9\n        /* \"@openzeppelin/contracts/token/ERC20/utils/SafeERC20.sol\":7882:7887  gas() */\n      gas\n        /* \"@openzeppelin/contracts/token/ERC20/utils/SafeERC20.sol\":7877:7937  call(gas(), token, 0, add(data, 0x20), mload(data), 0, 0x20) */\n      call\n        /* \"@openzeppelin/contracts/token/ERC20/utils/SafeERC20.sol\":7989:7996  success */\n      dup1\n        /* \"@openzeppelin/contracts/token/ERC20/utils/SafeERC20.sol\":7979:8155  if iszero(success) {... */\n      tag_284\n      jumpi\n        /* \"@openzeppelin/contracts/token/ERC20/utils/SafeERC20.sol\":8033:8037  0x40 */\n      0x40\n        /* \"@openzeppelin/contracts/token/ERC20/utils/SafeERC20.sol\":8027:8038  mload(0x40) */\n      mload\n        /* \"@openzeppelin/contracts/token/ERC20/utils/SafeERC20.sol\":8078:8094  returndatasize() */\n      returndatasize\n        /* \"@openzeppelin/contracts/token/ERC20/utils/SafeERC20.sol\":8075:8076  0 */\n      0x00\n        /* \"@openzeppelin/contracts/token/ERC20/utils/SafeERC20.sol\":8070:8073  ptr */\n      dup3\n        /* \"@openzeppelin/contracts/token/ERC20/utils/SafeERC20.sol\":8055:8095  returndatacopy(ptr, 0, returndatasize()) */\n      returndatacopy\n        /* \"@openzeppelin/contracts/token/ERC20/utils/SafeERC20.sol\":8124:8140  returndatasize() */\n      returndatasize\n        /* \"@openzeppelin/contracts/token/ERC20/utils/SafeERC20.sol\":8119:8122  ptr */\n      dup2\n        /* \"@openzeppelin/contracts/token/ERC20/utils/SafeERC20.sol\":8112:8141  revert(ptr, returndatasize()) */\n      revert\n        /* \"@openzeppelin/contracts/token/ERC20/utils/SafeERC20.sol\":7979:8155  if iszero(success) {... */\n    tag_284:\n        /* \"@openzeppelin/contracts/token/ERC20/utils/SafeERC20.sol\":8182:8198  returndatasize() */\n      returndatasize\n        /* \"@openzeppelin/contracts/token/ERC20/utils/SafeERC20.sol\":8168:8198  returnSize := returndatasize() */\n      swap3\n      pop\n        /* \"@openzeppelin/contracts/token/ERC20/utils/SafeERC20.sol\":8232:8233  0 */\n      0x00\n        /* \"@openzeppelin/contracts/token/ERC20/utils/SafeERC20.sol\":8226:8234  mload(0) */\n      mload\n        /* \"@openzeppelin/contracts/token/ERC20/utils/SafeERC20.sol\":8211:8234  returnValue := mload(0) */\n      swap2\n      pop\n        /* \"@openzeppelin/contracts/token/ERC20/utils/SafeERC20.sol\":7848:8244  {... */\n      pop\n        /* \"@openzeppelin/contracts/token/ERC20/utils/SafeERC20.sol\":8272:8273  0 */\n      0x00\n        /* \"@openzeppelin/contracts/token/ERC20/utils/SafeERC20.sol\":8258:8268  returnSize */\n      dup3\n        /* \"@openzeppelin/contracts/token/ERC20/utils/SafeERC20.sol\":8258:8273  returnSize == 0 */\n      eq\n        /* \"@openzeppelin/contracts/token/ERC20/utils/SafeERC20.sol\":8258:8326  returnSize == 0 ? address(token).code.length == 0 : returnValue != 1 */\n      tag_285\n      jumpi\n        /* \"@openzeppelin/contracts/token/ERC20/utils/SafeERC20.sol\":8325:8326  1 */\n      0x01\n        /* \"@openzeppelin/contracts/token/ERC20/utils/SafeERC20.sol\":8310:8321  returnValue */\n      dup2\n        /* \"@openzeppelin/contracts/token/ERC20/utils/SafeERC20.sol\":8310:8326  returnValue != 1 */\n      eq\n      iszero\n        /* \"@openzeppelin/contracts/token/ERC20/utils/SafeERC20.sol\":8258:8326  returnSize == 0 ? address(token).code.length == 0 : returnValue != 1 */\n      jump(tag_286)\n    tag_285:\n        /* \"@openzeppelin/contracts/token/ERC20/utils/SafeERC20.sol\":8306:8307  0 */\n      0x00\n        /* \"@openzeppelin/contracts/token/ERC20/utils/SafeERC20.sol\":8284:8289  token */\n      dup5\n        /* \"@openzeppelin/contracts/token/ERC20/utils/SafeERC20.sol\":8276:8302  address(token).code.length */\n      0xffffffffffffffffffffffffffffffffffffffff\n      and\n      extcodesize\n        /* \"@openzeppelin/contracts/token/ERC20/utils/SafeERC20.sol\":8276:8307  address(token).code.length == 0 */\n      eq\n        /* \"@openzeppelin/contracts/token/ERC20/utils/SafeERC20.sol\":8258:8326  returnSize == 0 ? address(token).code.length == 0 : returnValue != 1 */\n    tag_286:\n        /* \"@openzeppelin/contracts/token/ERC20/utils/SafeERC20.sol\":8254:8400  if (returnSize == 0 ? address(token).code.length == 0 : returnValue != 1) {... */\n      iszero\n      tag_287\n      jumpi\n        /* \"@openzeppelin/contracts/token/ERC20/utils/SafeERC20.sol\":8382:8387  token */\n      dup4\n        /* \"@openzeppelin/contracts/token/ERC20/utils/SafeERC20.sol\":8349:8389  SafeERC20FailedOperation(address(token)) */\n      mload(0x40)\n      0x5274afe700000000000000000000000000000000000000000000000000000000\n      dup2\n      mstore\n      0x04\n      add\n      tag_288\n      swap2\n      swap1\n      tag_81\n      jump\t// in\n    tag_288:\n      mload(0x40)\n      dup1\n      swap2\n      sub\n      swap1\n      revert\n        /* \"@openzeppelin/contracts/token/ERC20/utils/SafeERC20.sol\":8254:8400  if (returnSize == 0 ? address(token).code.length == 0 : returnValue != 1) {... */\n    tag_287:\n        /* \"@openzeppelin/contracts/token/ERC20/utils/SafeERC20.sol\":7756:8406  {... */\n      pop\n      pop\n        /* \"@openzeppelin/contracts/token/ERC20/utils/SafeERC20.sol\":7686:8406  function _callOptionalReturn(IERC20 token, bytes memory data) private {... */\n      pop\n      pop\n      jump\t// out\n        /* \"#utility.yul\":7:84   */\n    tag_289:\n        /* \"#utility.yul\":44:51   */\n      0x00\n        /* \"#utility.yul\":73:78   */\n      dup2\n        /* \"#utility.yul\":62:78   */\n      swap1\n      pop\n        /* \"#utility.yul\":7:84   */\n      swap2\n      swap1\n      pop\n      jump\t// out\n        /* \"#utility.yul\":90:208   */\n    tag_290:\n        /* \"#utility.yul\":177:201   */\n      tag_323\n        /* \"#utility.yul\":195:200   */\n      dup2\n        /* \"#utility.yul\":177:201   */\n      tag_289\n      jump\t// in\n    tag_323:\n        /* \"#utility.yul\":172:175   */\n      dup3\n        /* \"#utility.yul\":165:202   */\n      mstore\n        /* \"#utility.yul\":90:208   */\n      pop\n      pop\n      jump\t// out\n        /* \"#utility.yul\":214:436   */\n    tag_33:\n        /* \"#utility.yul\":307:311   */\n      0x00\n        /* \"#utility.yul\":345:347   */\n      0x20\n        /* \"#utility.yul\":334:343   */\n      dup3\n        /* \"#utility.yul\":330:348   */\n      add\n        /* \"#utility.yul\":322:348   */\n      swap1\n      pop\n        /* \"#utility.yul\":358:429   */\n      tag_325\n        /* \"#utility.yul\":426:427   */\n      0x00\n        /* \"#utility.yul\":415:424   */\n      dup4\n        /* \"#utility.yul\":411:428   */\n      add\n        /* \"#utility.yul\":402:408   */\n      dup5\n        /* \"#utility.yul\":358:429   */\n      tag_290\n      jump\t// in\n    tag_325:\n        /* \"#utility.yul\":214:436   */\n      swap3\n      swap2\n      pop\n      pop\n      jump\t// out\n        /* \"#utility.yul\":523:640   */\n    tag_292:\n        /* \"#utility.yul\":632:633   */\n      0x00\n        /* \"#utility.yul\":629:630   */\n      dup1\n        /* \"#utility.yul\":622:634   */\n      revert\n        /* \"#utility.yul\":769:891   */\n    tag_294:\n        /* \"#utility.yul\":842:866   */\n      tag_330\n        /* \"#utility.yul\":860:865   */\n      dup2\n        /* \"#utility.yul\":842:866   */\n      tag_289\n      jump\t// in\n    tag_330:\n        /* \"#utility.yul\":835:840   */\n      dup2\n        /* \"#utility.yul\":832:867   */\n      eq\n        /* \"#utility.yul\":822:885   */\n      tag_331\n      jumpi\n        /* \"#utility.yul\":881:882   */\n      0x00\n        /* \"#utility.yul\":878:879   */\n      dup1\n        /* \"#utility.yul\":871:883   */\n      revert\n        /* \"#utility.yul\":822:885   */\n    tag_331:\n        /* \"#utility.yul\":769:891   */\n      pop\n      jump\t// out\n        /* \"#utility.yul\":897:1036   */\n    tag_295:\n        /* \"#utility.yul\":943:948   */\n      0x00\n        /* \"#utility.yul\":981:987   */\n      dup2\n        /* \"#utility.yul\":968:988   */\n      calldataload\n        /* \"#utility.yul\":959:988   */\n      swap1\n      pop\n        /* \"#utility.yul\":997:1030   */\n      tag_333\n        /* \"#utility.yul\":1024:1029   */\n      dup2\n        /* \"#utility.yul\":997:1030   */\n      tag_294\n      jump\t// in\n    tag_333:\n        /* \"#utility.yul\":897:1036   */\n      swap3\n      swap2\n      pop\n      pop\n      jump\t// out\n        /* \"#utility.yul\":1042:1371   */\n    tag_39:\n        /* \"#utility.yul\":1101:1107   */\n      0x00\n        /* \"#utility.yul\":1150:1152   */\n      0x20\n        /* \"#utility.yul\":1138:1147   */\n      dup3\n        /* \"#utility.yul\":1129:1136   */\n      dup5\n        /* \"#utility.yul\":1125:1148   */\n      sub\n        /* \"#utility.yul\":1121:1153   */\n      slt\n        /* \"#utility.yul\":1118:1237   */\n      iszero\n      tag_335\n      jumpi\n        /* \"#utility.yul\":1156:1235   */\n      tag_336\n      tag_292\n      jump\t// in\n    tag_336:\n        /* \"#utility.yul\":1118:1237   */\n    tag_335:\n        /* \"#utility.yul\":1276:1277   */\n      0x00\n        /* \"#utility.yul\":1301:1354   */\n      tag_337\n        /* \"#utility.yul\":1346:1353   */\n      dup5\n        /* \"#utility.yul\":1337:1343   */\n      dup3\n        /* \"#utility.yul\":1326:1335   */\n      dup6\n        /* \"#utility.yul\":1322:1344   */\n      add\n        /* \"#utility.yul\":1301:1354   */\n      tag_295\n      jump\t// in\n    tag_337:\n        /* \"#utility.yul\":1291:1354   */\n      swap2\n      pop\n        /* \"#utility.yul\":1247:1364   */\n      pop\n        /* \"#utility.yul\":1042:1371   */\n      swap3\n      swap2\n      pop\n      pop\n      jump\t// out\n        /* \"#utility.yul\":1377:1503   */\n    tag_296:\n        /* \"#utility.yul\":1414:1421   */\n      0x00\n        /* \"#utility.yul\":1454:1496   */\n      0xffffffffffffffffffffffffffffffffffffffff\n        /* \"#utility.yul\":1447:1452   */\n      dup3\n        /* \"#utility.yul\":1443:1497   */\n      and\n        /* \"#utility.yul\":1432:1497   */\n      swap1\n      pop\n        /* \"#utility.yul\":1377:1503   */\n      swap2\n      swap1\n      pop\n      jump\t// out\n        /* \"#utility.yul\":1509:1569   */\n    tag_297:\n        /* \"#utility.yul\":1537:1540   */\n      0x00\n        /* \"#utility.yul\":1558:1563   */\n      dup2\n        /* \"#utility.yul\":1551:1563   */\n      swap1\n      pop\n        /* \"#utility.yul\":1509:1569   */\n      swap2\n      swap1\n      pop\n      jump\t// out\n        /* \"#utility.yul\":1575:1717   */\n    tag_298:\n        /* \"#utility.yul\":1625:1634   */\n      0x00\n        /* \"#utility.yul\":1658:1711   */\n      tag_341\n        /* \"#utility.yul\":1676:1710   */\n      tag_342\n        /* \"#utility.yul\":1685:1709   */\n      tag_343\n        /* \"#utility.yul\":1703:1708   */\n      dup5\n        /* \"#utility.yul\":1685:1709   */\n      tag_296\n      jump\t// in\n    tag_343:\n        /* \"#utility.yul\":1676:1710   */\n      tag_297\n      jump\t// in\n    tag_342:\n        /* \"#utility.yul\":1658:1711   */\n      tag_296\n      jump\t// in\n    tag_341:\n        /* \"#utility.yul\":1645:1711   */\n      swap1\n      pop\n        /* \"#utility.yul\":1575:1717   */\n      swap2\n      swap1\n      pop\n      jump\t// out\n        /* \"#utility.yul\":1723:1849   */\n    tag_299:\n        /* \"#utility.yul\":1773:1782   */\n      0x00\n        /* \"#utility.yul\":1806:1843   */\n      tag_345\n        /* \"#utility.yul\":1837:1842   */\n      dup3\n        /* \"#utility.yul\":1806:1843   */\n      tag_298\n      jump\t// in\n    tag_345:\n        /* \"#utility.yul\":1793:1843   */\n      swap1\n      pop\n        /* \"#utility.yul\":1723:1849   */\n      swap2\n      swap1\n      pop\n      jump\t// out\n        /* \"#utility.yul\":1855:1995   */\n    tag_300:\n        /* \"#utility.yul\":1919:1928   */\n      0x00\n        /* \"#utility.yul\":1952:1989   */\n      tag_347\n        /* \"#utility.yul\":1983:1988   */\n      dup3\n        /* \"#utility.yul\":1952:1989   */\n      tag_299\n      jump\t// in\n    tag_347:\n        /* \"#utility.yul\":1939:1989   */\n      swap1\n      pop\n        /* \"#utility.yul\":1855:1995   */\n      swap2\n      swap1\n      pop\n      jump\t// out\n        /* \"#utility.yul\":2001:2160   */\n    tag_301:\n        /* \"#utility.yul\":2102:2153   */\n      tag_349\n        /* \"#utility.yul\":2147:2152   */\n      dup2\n        /* \"#utility.yul\":2102:2153   */\n      tag_300\n      jump\t// in\n    tag_349:\n        /* \"#utility.yul\":2097:2100   */\n      dup3\n        /* \"#utility.yul\":2090:2154   */\n      mstore\n        /* \"#utility.yul\":2001:2160   */\n      pop\n      pop\n      jump\t// out\n        /* \"#utility.yul\":2166:2858   */\n    tag_42:\n        /* \"#utility.yul\":2385:2389   */\n      0x00\n        /* \"#utility.yul\":2423:2426   */\n      0xa0\n        /* \"#utility.yul\":2412:2421   */\n      dup3\n        /* \"#utility.yul\":2408:2427   */\n      add\n        /* \"#utility.yul\":2400:2427   */\n      swap1\n      pop\n        /* \"#utility.yul\":2437:2522   */\n      tag_351\n        /* \"#utility.yul\":2519:2520   */\n      0x00\n        /* \"#utility.yul\":2508:2517   */\n      dup4\n        /* \"#utility.yul\":2504:2521   */\n      add\n        /* \"#utility.yul\":2495:2501   */\n      dup9\n        /* \"#utility.yul\":2437:2522   */\n      tag_301\n      jump\t// in\n    tag_351:\n        /* \"#utility.yul\":2532:2604   */\n      tag_352\n        /* \"#utility.yul\":2600:2602   */\n      0x20\n        /* \"#utility.yul\":2589:2598   */\n      dup4\n        /* \"#utility.yul\":2585:2603   */\n      add\n        /* \"#utility.yul\":2576:2582   */\n      dup8\n        /* \"#utility.yul\":2532:2604   */\n      tag_290\n      jump\t// in\n    tag_352:\n        /* \"#utility.yul\":2614:2686   */\n      tag_353\n        /* \"#utility.yul\":2682:2684   */\n      0x40\n        /* \"#utility.yul\":2671:2680   */\n      dup4\n        /* \"#utility.yul\":2667:2685   */\n      add\n        /* \"#utility.yul\":2658:2664   */\n      dup7\n        /* \"#utility.yul\":2614:2686   */\n      tag_290\n      jump\t// in\n    tag_353:\n        /* \"#utility.yul\":2696:2768   */\n      tag_354\n        /* \"#utility.yul\":2764:2766   */\n      0x60\n        /* \"#utility.yul\":2753:2762   */\n      dup4\n        /* \"#utility.yul\":2749:2767   */\n      add\n        /* \"#utility.yul\":2740:2746   */\n      dup6\n        /* \"#utility.yul\":2696:2768   */\n      tag_290\n      jump\t// in\n    tag_354:\n        /* \"#utility.yul\":2778:2851   */\n      tag_355\n        /* \"#utility.yul\":2846:2849   */\n      0x80\n        /* \"#utility.yul\":2835:2844   */\n      dup4\n        /* \"#utility.yul\":2831:2850   */\n      add\n        /* \"#utility.yul\":2822:2828   */\n      dup5\n        /* \"#utility.yul\":2778:2851   */\n      tag_290\n      jump\t// in\n    tag_355:\n        /* \"#utility.yul\":2166:2858   */\n      swap7\n      swap6\n      pop\n      pop\n      pop\n      pop\n      pop\n      pop\n      jump\t// out\n        /* \"#utility.yul\":2864:2960   */\n    tag_302:\n        /* \"#utility.yul\":2901:2908   */\n      0x00\n        /* \"#utility.yul\":2930:2954   */\n      tag_357\n        /* \"#utility.yul\":2948:2953   */\n      dup3\n        /* \"#utility.yul\":2930:2954   */\n      tag_296\n      jump\t// in\n    tag_357:\n        /* \"#utility.yul\":2919:2954   */\n      swap1\n      pop\n        /* \"#utility.yul\":2864:2960   */\n      swap2\n      swap1\n      pop\n      jump\t// out\n        /* \"#utility.yul\":2966:3076   */\n    tag_303:\n        /* \"#utility.yul\":3017:3024   */\n      0x00\n        /* \"#utility.yul\":3046:3070   */\n      tag_359\n        /* \"#utility.yul\":3064:3069   */\n      dup3\n        /* \"#utility.yul\":3046:3070   */\n      tag_302\n      jump\t// in\n    tag_359:\n        /* \"#utility.yul\":3035:3070   */\n      swap1\n      pop\n        /* \"#utility.yul\":2966:3076   */\n      swap2\n      swap1\n      pop\n      jump\t// out\n        /* \"#utility.yul\":3082:3232   */\n    tag_304:\n        /* \"#utility.yul\":3169:3207   */\n      tag_361\n        /* \"#utility.yul\":3201:3206   */\n      dup2\n        /* \"#utility.yul\":3169:3207   */\n      tag_303\n      jump\t// in\n    tag_361:\n        /* \"#utility.yul\":3162:3167   */\n      dup2\n        /* \"#utility.yul\":3159:3208   */\n      eq\n        /* \"#utility.yul\":3149:3226   */\n      tag_362\n      jumpi\n        /* \"#utility.yul\":3222:3223   */\n      0x00\n        /* \"#utility.yul\":3219:3220   */\n      dup1\n        /* \"#utility.yul\":3212:3224   */\n      revert\n        /* \"#utility.yul\":3149:3226   */\n    tag_362:\n        /* \"#utility.yul\":3082:3232   */\n      pop\n      jump\t// out\n        /* \"#utility.yul\":3238:3405   */\n    tag_305:\n        /* \"#utility.yul\":3298:3303   */\n      0x00\n        /* \"#utility.yul\":3336:3342   */\n      dup2\n        /* \"#utility.yul\":3323:3343   */\n      calldataload\n        /* \"#utility.yul\":3314:3343   */\n      swap1\n      pop\n        /* \"#utility.yul\":3352:3399   */\n      tag_364\n        /* \"#utility.yul\":3393:3398   */\n      dup2\n        /* \"#utility.yul\":3352:3399   */\n      tag_304\n      jump\t// in\n    tag_364:\n        /* \"#utility.yul\":3238:3405   */\n      swap3\n      swap2\n      pop\n      pop\n      jump\t// out\n        /* \"#utility.yul\":3411:3501   */\n    tag_306:\n        /* \"#utility.yul\":3445:3452   */\n      0x00\n        /* \"#utility.yul\":3488:3493   */\n      dup2\n        /* \"#utility.yul\":3481:3494   */\n      iszero\n        /* \"#utility.yul\":3474:3495   */\n      iszero\n        /* \"#utility.yul\":3463:3495   */\n      swap1\n      pop\n        /* \"#utility.yul\":3411:3501   */\n      swap2\n      swap1\n      pop\n      jump\t// out\n        /* \"#utility.yul\":3507:3623   */\n    tag_307:\n        /* \"#utility.yul\":3577:3598   */\n      tag_367\n        /* \"#utility.yul\":3592:3597   */\n      dup2\n        /* \"#utility.yul\":3577:3598   */\n      tag_306\n      jump\t// in\n    tag_367:\n        /* \"#utility.yul\":3570:3575   */\n      dup2\n        /* \"#utility.yul\":3567:3599   */\n      eq\n        /* \"#utility.yul\":3557:3617   */\n      tag_368\n      jumpi\n        /* \"#utility.yul\":3613:3614   */\n      0x00\n        /* \"#utility.yul\":3610:3611   */\n      dup1\n        /* \"#utility.yul\":3603:3615   */\n      revert\n        /* \"#utility.yul\":3557:3617   */\n    tag_368:\n        /* \"#utility.yul\":3507:3623   */\n      pop\n      jump\t// out\n        /* \"#utility.yul\":3629:3762   */\n    tag_308:\n        /* \"#utility.yul\":3672:3677   */\n      0x00\n        /* \"#utility.yul\":3710:3716   */\n      dup2\n        /* \"#utility.yul\":3697:3717   */\n      calldataload\n        /* \"#utility.yul\":3688:3717   */\n      swap1\n      pop\n        /* \"#utility.yul\":3726:3756   */\n      tag_370\n        /* \"#utility.yul\":3750:3755   */\n      dup2\n        /* \"#utility.yul\":3726:3756   */\n      tag_307\n      jump\t// in\n    tag_370:\n        /* \"#utility.yul\":3629:3762   */\n      swap3\n      swap2\n      pop\n      pop\n      jump\t// out\n        /* \"#utility.yul\":3768:4409   */\n    tag_48:\n        /* \"#utility.yul\":3856:3862   */\n      0x00\n        /* \"#utility.yul\":3864:3870   */\n      dup1\n        /* \"#utility.yul\":3872:3878   */\n      0x00\n        /* \"#utility.yul\":3921:3923   */\n      0x60\n        /* \"#utility.yul\":3909:3918   */\n      dup5\n        /* \"#utility.yul\":3900:3907   */\n      dup7\n        /* \"#utility.yul\":3896:3919   */\n      sub\n        /* \"#utility.yul\":3892:3924   */\n      slt\n        /* \"#utility.yul\":3889:4008   */\n      iszero\n      tag_372\n      jumpi\n        /* \"#utility.yul\":3927:4006   */\n      tag_373\n      tag_292\n      jump\t// in\n    tag_373:\n        /* \"#utility.yul\":3889:4008   */\n    tag_372:\n        /* \"#utility.yul\":4047:4048   */\n      0x00\n        /* \"#utility.yul\":4072:4125   */\n      tag_374\n        /* \"#utility.yul\":4117:4124   */\n      dup7\n        /* \"#utility.yul\":4108:4114   */\n      dup3\n        /* \"#utility.yul\":4097:4106   */\n      dup8\n        /* \"#utility.yul\":4093:4115   */\n      add\n        /* \"#utility.yul\":4072:4125   */\n      tag_295\n      jump\t// in\n    tag_374:\n        /* \"#utility.yul\":4062:4125   */\n      swap4\n      pop\n        /* \"#utility.yul\":4018:4135   */\n      pop\n        /* \"#utility.yul\":4174:4176   */\n      0x20\n        /* \"#utility.yul\":4200:4267   */\n      tag_375\n        /* \"#utility.yul\":4259:4266   */\n      dup7\n        /* \"#utility.yul\":4250:4256   */\n      dup3\n        /* \"#utility.yul\":4239:4248   */\n      dup8\n        /* \"#utility.yul\":4235:4257   */\n      add\n        /* \"#utility.yul\":4200:4267   */\n      tag_305\n      jump\t// in\n    tag_375:\n        /* \"#utility.yul\":4190:4267   */\n      swap3\n      pop\n        /* \"#utility.yul\":4145:4277   */\n      pop\n        /* \"#utility.yul\":4316:4318   */\n      0x40\n        /* \"#utility.yul\":4342:4392   */\n      tag_376\n        /* \"#utility.yul\":4384:4391   */\n      dup7\n        /* \"#utility.yul\":4375:4381   */\n      dup3\n        /* \"#utility.yul\":4364:4373   */\n      dup8\n        /* \"#utility.yul\":4360:4382   */\n      add\n        /* \"#utility.yul\":4342:4392   */\n      tag_308\n      jump\t// in\n    tag_376:\n        /* \"#utility.yul\":4332:4392   */\n      swap2\n      pop\n        /* \"#utility.yul\":4287:4402   */\n      pop\n        /* \"#utility.yul\":3768:4409   */\n      swap3\n      pop\n      swap3\n      pop\n      swap3\n      jump\t// out\n        /* \"#utility.yul\":4415:4889   */\n    tag_55:\n        /* \"#utility.yul\":4483:4489   */\n      0x00\n        /* \"#utility.yul\":4491:4497   */\n      dup1\n        /* \"#utility.yul\":4540:4542   */\n      0x40\n        /* \"#utility.yul\":4528:4537   */\n      dup4\n        /* \"#utility.yul\":4519:4526   */\n      dup6\n        /* \"#utility.yul\":4515:4538   */\n      sub\n        /* \"#utility.yul\":4511:4543   */\n      slt\n        /* \"#utility.yul\":4508:4627   */\n      iszero\n      tag_378\n      jumpi\n        /* \"#utility.yul\":4546:4625   */\n      tag_379\n      tag_292\n      jump\t// in\n    tag_379:\n        /* \"#utility.yul\":4508:4627   */\n    tag_378:\n        /* \"#utility.yul\":4666:4667   */\n      0x00\n        /* \"#utility.yul\":4691:4744   */\n      tag_380\n        /* \"#utility.yul\":4736:4743   */\n      dup6\n        /* \"#utility.yul\":4727:4733   */\n      dup3\n        /* \"#utility.yul\":4716:4725   */\n      dup7\n        /* \"#utility.yul\":4712:4734   */\n      add\n        /* \"#utility.yul\":4691:4744   */\n      tag_295\n      jump\t// in\n    tag_380:\n        /* \"#utility.yul\":4681:4744   */\n      swap3\n      pop\n        /* \"#utility.yul\":4637:4754   */\n      pop\n        /* \"#utility.yul\":4793:4795   */\n      0x20\n        /* \"#utility.yul\":4819:4872   */\n      tag_381\n        /* \"#utility.yul\":4864:4871   */\n      dup6\n        /* \"#utility.yul\":4855:4861   */\n      dup3\n        /* \"#utility.yul\":4844:4853   */\n      dup7\n        /* \"#utility.yul\":4840:4862   */\n      add\n        /* \"#utility.yul\":4819:4872   */\n      tag_295\n      jump\t// in\n    tag_381:\n        /* \"#utility.yul\":4809:4872   */\n      swap2\n      pop\n        /* \"#utility.yul\":4764:4882   */\n      pop\n        /* \"#utility.yul\":4415:4889   */\n      swap3\n      pop\n      swap3\n      swap1\n      pop\n      jump\t// out\n        /* \"#utility.yul\":4895:5508   */\n    tag_70:\n        /* \"#utility.yul\":4969:4975   */\n      0x00\n        /* \"#utility.yul\":4977:4983   */\n      dup1\n        /* \"#utility.yul\":4985:4991   */\n      0x00\n        /* \"#utility.yul\":5034:5036   */\n      0x60\n        /* \"#utility.yul\":5022:5031   */\n      dup5\n        /* \"#utility.yul\":5013:5020   */\n      dup7\n        /* \"#utility.yul\":5009:5032   */\n      sub\n        /* \"#utility.yul\":5005:5037   */\n      slt\n        /* \"#utility.yul\":5002:5121   */\n      iszero\n      tag_383\n      jumpi\n        /* \"#utility.yul\":5040:5119   */\n      tag_384\n      tag_292\n      jump\t// in\n    tag_384:\n        /* \"#utility.yul\":5002:5121   */\n    tag_383:\n        /* \"#utility.yul\":5160:5161   */\n      0x00\n        /* \"#utility.yul\":5185:5238   */\n      tag_385\n        /* \"#utility.yul\":5230:5237   */\n      dup7\n        /* \"#utility.yul\":5221:5227   */\n      dup3\n        /* \"#utility.yul\":5210:5219   */\n      dup8\n        /* \"#utility.yul\":5206:5228   */\n      add\n        /* \"#utility.yul\":5185:5238   */\n      tag_295\n      jump\t// in\n    tag_385:\n        /* \"#utility.yul\":5175:5238   */\n      swap4\n      pop\n        /* \"#utility.yul\":5131:5248   */\n      pop\n        /* \"#utility.yul\":5287:5289   */\n      0x20\n        /* \"#utility.yul\":5313:5366   */\n      tag_386\n        /* \"#utility.yul\":5358:5365   */\n      dup7\n        /* \"#utility.yul\":5349:5355   */\n      dup3\n        /* \"#utility.yul\":5338:5347   */\n      dup8\n        /* \"#utility.yul\":5334:5356   */\n      add\n        /* \"#utility.yul\":5313:5366   */\n      tag_295\n      jump\t// in\n    tag_386:\n        /* \"#utility.yul\":5303:5366   */\n      swap3\n      pop\n        /* \"#utility.yul\":5258:5376   */\n      pop\n        /* \"#utility.yul\":5415:5417   */\n      0x40\n        /* \"#utility.yul\":5441:5491   */\n      tag_387\n        /* \"#utility.yul\":5483:5490   */\n      dup7\n        /* \"#utility.yul\":5474:5480   */\n      dup3\n        /* \"#utility.yul\":5463:5472   */\n      dup8\n        /* \"#utility.yul\":5459:5481   */\n      add\n        /* \"#utility.yul\":5441:5491   */\n      tag_308\n      jump\t// in\n    tag_387:\n        /* \"#utility.yul\":5431:5491   */\n      swap2\n      pop\n        /* \"#utility.yul\":5386:5501   */\n      pop\n        /* \"#utility.yul\":4895:5508   */\n      swap3\n      pop\n      swap3\n      pop\n      swap3\n      jump\t// out\n        /* \"#utility.yul\":5514:5764   */\n    tag_77:\n        /* \"#utility.yul\":5621:5625   */\n      0x00\n        /* \"#utility.yul\":5659:5661   */\n      0x20\n        /* \"#utility.yul\":5648:5657   */\n      dup3\n        /* \"#utility.yul\":5644:5662   */\n      add\n        /* \"#utility.yul\":5636:5662   */\n      swap1\n      pop\n        /* \"#utility.yul\":5672:5757   */\n      tag_389\n        /* \"#utility.yul\":5754:5755   */\n      0x00\n        /* \"#utility.yul\":5743:5752   */\n      dup4\n        /* \"#utility.yul\":5739:5756   */\n      add\n        /* \"#utility.yul\":5730:5736   */\n      dup5\n        /* \"#utility.yul\":5672:5757   */\n      tag_301\n      jump\t// in\n    tag_389:\n        /* \"#utility.yul\":5514:5764   */\n      swap3\n      swap2\n      pop\n      pop\n      jump\t// out\n        /* \"#utility.yul\":5770:5888   */\n    tag_309:\n        /* \"#utility.yul\":5857:5881   */\n      tag_391\n        /* \"#utility.yul\":5875:5880   */\n      dup2\n        /* \"#utility.yul\":5857:5881   */\n      tag_302\n      jump\t// in\n    tag_391:\n        /* \"#utility.yul\":5852:5855   */\n      dup3\n        /* \"#utility.yul\":5845:5882   */\n      mstore\n        /* \"#utility.yul\":5770:5888   */\n      pop\n      pop\n      jump\t// out\n        /* \"#utility.yul\":5894:6116   */\n    tag_81:\n        /* \"#utility.yul\":5987:5991   */\n      0x00\n        /* \"#utility.yul\":6025:6027   */\n      0x20\n        /* \"#utility.yul\":6014:6023   */\n      dup3\n        /* \"#utility.yul\":6010:6028   */\n      add\n        /* \"#utility.yul\":6002:6028   */\n      swap1\n      pop\n        /* \"#utility.yul\":6038:6109   */\n      tag_393\n        /* \"#utility.yul\":6106:6107   */\n      0x00\n        /* \"#utility.yul\":6095:6104   */\n      dup4\n        /* \"#utility.yul\":6091:6108   */\n      add\n        /* \"#utility.yul\":6082:6088   */\n      dup5\n        /* \"#utility.yul\":6038:6109   */\n      tag_309\n      jump\t// in\n    tag_393:\n        /* \"#utility.yul\":5894:6116   */\n      swap3\n      swap2\n      pop\n      pop\n      jump\t// out\n        /* \"#utility.yul\":6122:6244   */\n    tag_310:\n        /* \"#utility.yul\":6195:6219   */\n      tag_395\n        /* \"#utility.yul\":6213:6218   */\n      dup2\n        /* \"#utility.yul\":6195:6219   */\n      tag_302\n      jump\t// in\n    tag_395:\n        /* \"#utility.yul\":6188:6193   */\n      dup2\n        /* \"#utility.yul\":6185:6220   */\n      eq\n        /* \"#utility.yul\":6175:6238   */\n      tag_396\n      jumpi\n        /* \"#utility.yul\":6234:6235   */\n      0x00\n        /* \"#utility.yul\":6231:6232   */\n      dup1\n        /* \"#utility.yul\":6224:6236   */\n      revert\n        /* \"#utility.yul\":6175:6238   */\n    tag_396:\n        /* \"#utility.yul\":6122:6244   */\n      pop\n      jump\t// out\n        /* \"#utility.yul\":6250:6389   */\n    tag_311:\n        /* \"#utility.yul\":6296:6301   */\n      0x00\n        /* \"#utility.yul\":6334:6340   */\n      dup2\n        /* \"#utility.yul\":6321:6341   */\n      calldataload\n        /* \"#utility.yul\":6312:6341   */\n      swap1\n      pop\n        /* \"#utility.yul\":6350:6383   */\n      tag_398\n        /* \"#utility.yul\":6377:6382   */\n      dup2\n        /* \"#utility.yul\":6350:6383   */\n      tag_310\n      jump\t// in\n    tag_398:\n        /* \"#utility.yul\":6250:6389   */\n      swap3\n      swap2\n      pop\n      pop\n      jump\t// out\n        /* \"#utility.yul\":6395:6869   */\n    tag_87:\n        /* \"#utility.yul\":6463:6469   */\n      0x00\n        /* \"#utility.yul\":6471:6477   */\n      dup1\n        /* \"#utility.yul\":6520:6522   */\n      0x40\n        /* \"#utility.yul\":6508:6517   */\n      dup4\n        /* \"#utility.yul\":6499:6506   */\n      dup6\n        /* \"#utility.yul\":6495:6518   */\n      sub\n        /* \"#utility.yul\":6491:6523   */\n      slt\n        /* \"#utility.yul\":6488:6607   */\n      iszero\n      tag_400\n      jumpi\n        /* \"#utility.yul\":6526:6605   */\n      tag_401\n      tag_292\n      jump\t// in\n    tag_401:\n        /* \"#utility.yul\":6488:6607   */\n    tag_400:\n        /* \"#utility.yul\":6646:6647   */\n      0x00\n        /* \"#utility.yul\":6671:6724   */\n      tag_402\n        /* \"#utility.yul\":6716:6723   */\n      dup6\n        /* \"#utility.yul\":6707:6713   */\n      dup3\n        /* \"#utility.yul\":6696:6705   */\n      dup7\n        /* \"#utility.yul\":6692:6714   */\n      add\n        /* \"#utility.yul\":6671:6724   */\n      tag_295\n      jump\t// in\n    tag_402:\n        /* \"#utility.yul\":6661:6724   */\n      swap3\n      pop\n        /* \"#utility.yul\":6617:6734   */\n      pop\n        /* \"#utility.yul\":6773:6775   */\n      0x20\n        /* \"#utility.yul\":6799:6852   */\n      tag_403\n        /* \"#utility.yul\":6844:6851   */\n      dup6\n        /* \"#utility.yul\":6835:6841   */\n      dup3\n        /* \"#utility.yul\":6824:6833   */\n      dup7\n        /* \"#utility.yul\":6820:6842   */\n      add\n        /* \"#utility.yul\":6799:6852   */\n      tag_311\n      jump\t// in\n    tag_403:\n        /* \"#utility.yul\":6789:6852   */\n      swap2\n      pop\n        /* \"#utility.yul\":6744:6862   */\n      pop\n        /* \"#utility.yul\":6395:6869   */\n      swap3\n      pop\n      swap3\n      swap1\n      pop\n      jump\t// out\n        /* \"#utility.yul\":6875:7207   */\n    tag_90:\n        /* \"#utility.yul\":6996:7000   */\n      0x00\n        /* \"#utility.yul\":7034:7036   */\n      0x40\n        /* \"#utility.yul\":7023:7032   */\n      dup3\n        /* \"#utility.yul\":7019:7037   */\n      add\n        /* \"#utility.yul\":7011:7037   */\n      swap1\n      pop\n        /* \"#utility.yul\":7047:7118   */\n      tag_405\n        /* \"#utility.yul\":7115:7116   */\n      0x00\n        /* \"#utility.yul\":7104:7113   */\n      dup4\n        /* \"#utility.yul\":7100:7117   */\n      add\n        /* \"#utility.yul\":7091:7097   */\n      dup6\n        /* \"#utility.yul\":7047:7118   */\n      tag_290\n      jump\t// in\n    tag_405:\n        /* \"#utility.yul\":7128:7200   */\n      tag_406\n        /* \"#utility.yul\":7196:7198   */\n      0x20\n        /* \"#utility.yul\":7185:7194   */\n      dup4\n        /* \"#utility.yul\":7181:7199   */\n      add\n        /* \"#utility.yul\":7172:7178   */\n      dup5\n        /* \"#utility.yul\":7128:7200   */\n      tag_290\n      jump\t// in\n    tag_406:\n        /* \"#utility.yul\":6875:7207   */\n      swap4\n      swap3\n      pop\n      pop\n      pop\n      jump\t// out\n        /* \"#utility.yul\":7213:7542   */\n    tag_113:\n        /* \"#utility.yul\":7272:7278   */\n      0x00\n        /* \"#utility.yul\":7321:7323   */\n      0x20\n        /* \"#utility.yul\":7309:7318   */\n      dup3\n        /* \"#utility.yul\":7300:7307   */\n      dup5\n        /* \"#utility.yul\":7296:7319   */\n      sub\n        /* \"#utility.yul\":7292:7324   */\n      slt\n        /* \"#utility.yul\":7289:7408   */\n      iszero\n      tag_408\n      jumpi\n        /* \"#utility.yul\":7327:7406   */\n      tag_409\n      tag_292\n      jump\t// in\n    tag_409:\n        /* \"#utility.yul\":7289:7408   */\n    tag_408:\n        /* \"#utility.yul\":7447:7448   */\n      0x00\n        /* \"#utility.yul\":7472:7525   */\n      tag_410\n        /* \"#utility.yul\":7517:7524   */\n      dup5\n        /* \"#utility.yul\":7508:7514   */\n      dup3\n        /* \"#utility.yul\":7497:7506   */\n      dup6\n        /* \"#utility.yul\":7493:7515   */\n      add\n        /* \"#utility.yul\":7472:7525   */\n      tag_311\n      jump\t// in\n    tag_410:\n        /* \"#utility.yul\":7462:7525   */\n      swap2\n      pop\n        /* \"#utility.yul\":7418:7535   */\n      pop\n        /* \"#utility.yul\":7213:7542   */\n      swap3\n      swap2\n      pop\n      pop\n      jump\t// out\n        /* \"#utility.yul\":7548:7728   */\n    tag_312:\n        /* \"#utility.yul\":7596:7673   */\n      0x4e487b7100000000000000000000000000000000000000000000000000000000\n        /* \"#utility.yul\":7593:7594   */\n      0x00\n        /* \"#utility.yul\":7586:7674   */\n      mstore\n        /* \"#utility.yul\":7693:7697   */\n      0x11\n        /* \"#utility.yul\":7690:7691   */\n      0x04\n        /* \"#utility.yul\":7683:7698   */\n      mstore\n        /* \"#utility.yul\":7717:7721   */\n      0x24\n        /* \"#utility.yul\":7714:7715   */\n      0x00\n        /* \"#utility.yul\":7707:7722   */\n      revert\n        /* \"#utility.yul\":7734:7925   */\n    tag_127:\n        /* \"#utility.yul\":7774:7777   */\n      0x00\n        /* \"#utility.yul\":7793:7813   */\n      tag_413\n        /* \"#utility.yul\":7811:7812   */\n      dup3\n        /* \"#utility.yul\":7793:7813   */\n      tag_289\n      jump\t// in\n    tag_413:\n        /* \"#utility.yul\":7788:7813   */\n      swap2\n      pop\n        /* \"#utility.yul\":7827:7847   */\n      tag_414\n        /* \"#utility.yul\":7845:7846   */\n      dup4\n        /* \"#utility.yul\":7827:7847   */\n      tag_289\n      jump\t// in\n    tag_414:\n        /* \"#utility.yul\":7822:7847   */\n      swap3\n      pop\n        /* \"#utility.yul\":7870:7871   */\n      dup3\n        /* \"#utility.yul\":7867:7868   */\n      dup3\n        /* \"#utility.yul\":7863:7872   */\n      add\n        /* \"#utility.yul\":7856:7872   */\n      swap1\n      pop\n        /* \"#utility.yul\":7891:7894   */\n      dup1\n        /* \"#utility.yul\":7888:7889   */\n      dup3\n        /* \"#utility.yul\":7885:7895   */\n      gt\n        /* \"#utility.yul\":7882:7918   */\n      iszero\n      tag_415\n      jumpi\n        /* \"#utility.yul\":7898:7916   */\n      tag_416\n      tag_312\n      jump\t// in\n    tag_416:\n        /* \"#utility.yul\":7882:7918   */\n    tag_415:\n        /* \"#utility.yul\":7734:7925   */\n      swap3\n      swap2\n      pop\n      pop\n      jump\t// out\n        /* \"#utility.yul\":7931:8125   */\n    tag_134:\n        /* \"#utility.yul\":7971:7975   */\n      0x00\n        /* \"#utility.yul\":7991:8011   */\n      tag_418\n        /* \"#utility.yul\":8009:8010   */\n      dup3\n        /* \"#utility.yul\":7991:8011   */\n      tag_289\n      jump\t// in\n    tag_418:\n        /* \"#utility.yul\":7986:8011   */\n      swap2\n      pop\n        /* \"#utility.yul\":8025:8045   */\n      tag_419\n        /* \"#utility.yul\":8043:8044   */\n      dup4\n        /* \"#utility.yul\":8025:8045   */\n      tag_289\n      jump\t// in\n    tag_419:\n        /* \"#utility.yul\":8020:8045   */\n      swap3\n      pop\n        /* \"#utility.yul\":8069:8070   */\n      dup3\n        /* \"#utility.yul\":8066:8067   */\n      dup3\n        /* \"#utility.yul\":8062:8071   */\n      sub\n        /* \"#utility.yul\":8054:8071   */\n      swap1\n      pop\n        /* \"#utility.yul\":8093:8094   */\n      dup2\n        /* \"#utility.yul\":8087:8091   */\n      dup2\n        /* \"#utility.yul\":8084:8095   */\n      gt\n        /* \"#utility.yul\":8081:8118   */\n      iszero\n      tag_420\n      jumpi\n        /* \"#utility.yul\":8098:8116   */\n      tag_421\n      tag_312\n      jump\t// in\n    tag_421:\n        /* \"#utility.yul\":8081:8118   */\n    tag_420:\n        /* \"#utility.yul\":7931:8125   */\n      swap3\n      swap2\n      pop\n      pop\n      jump\t// out\n        /* \"#utility.yul\":8131:8541   */\n    tag_136:\n        /* \"#utility.yul\":8171:8178   */\n      0x00\n        /* \"#utility.yul\":8194:8214   */\n      tag_423\n        /* \"#utility.yul\":8212:8213   */\n      dup3\n        /* \"#utility.yul\":8194:8214   */\n      tag_289\n      jump\t// in\n    tag_423:\n        /* \"#utility.yul\":8189:8214   */\n      swap2\n      pop\n        /* \"#utility.yul\":8228:8248   */\n      tag_424\n        /* \"#utility.yul\":8246:8247   */\n      dup4\n        /* \"#utility.yul\":8228:8248   */\n      tag_289\n      jump\t// in\n    tag_424:\n        /* \"#utility.yul\":8223:8248   */\n      swap3\n      pop\n        /* \"#utility.yul\":8283:8284   */\n      dup3\n        /* \"#utility.yul\":8280:8281   */\n      dup3\n        /* \"#utility.yul\":8276:8285   */\n      mul\n        /* \"#utility.yul\":8305:8335   */\n      tag_425\n        /* \"#utility.yul\":8323:8334   */\n      dup2\n        /* \"#utility.yul\":8305:8335   */\n      tag_289\n      jump\t// in\n    tag_425:\n        /* \"#utility.yul\":8294:8335   */\n      swap2\n      pop\n        /* \"#utility.yul\":8484:8485   */\n      dup3\n        /* \"#utility.yul\":8475:8482   */\n      dup3\n        /* \"#utility.yul\":8471:8486   */\n      div\n        /* \"#utility.yul\":8468:8469   */\n      dup5\n        /* \"#utility.yul\":8465:8487   */\n      eq\n        /* \"#utility.yul\":8445:8446   */\n      dup4\n        /* \"#utility.yul\":8438:8447   */\n      iszero\n        /* \"#utility.yul\":8418:8501   */\n      or\n        /* \"#utility.yul\":8395:8534   */\n      tag_426\n      jumpi\n        /* \"#utility.yul\":8514:8532   */\n      tag_427\n      tag_312\n      jump\t// in\n    tag_427:\n        /* \"#utility.yul\":8395:8534   */\n    tag_426:\n        /* \"#utility.yul\":8179:8541   */\n      pop\n        /* \"#utility.yul\":8131:8541   */\n      swap3\n      swap2\n      pop\n      pop\n      jump\t// out\n        /* \"#utility.yul\":8547:8727   */\n    tag_141:\n        /* \"#utility.yul\":8595:8672   */\n      0x4e487b7100000000000000000000000000000000000000000000000000000000\n        /* \"#utility.yul\":8592:8593   */\n      0x00\n        /* \"#utility.yul\":8585:8673   */\n      mstore\n        /* \"#utility.yul\":8692:8696   */\n      0x32\n        /* \"#utility.yul\":8689:8690   */\n      0x04\n        /* \"#utility.yul\":8682:8697   */\n      mstore\n        /* \"#utility.yul\":8716:8720   */\n      0x24\n        /* \"#utility.yul\":8713:8714   */\n      0x00\n        /* \"#utility.yul\":8706:8721   */\n      revert\n        /* \"#utility.yul\":8733:8902   */\n    tag_313:\n        /* \"#utility.yul\":8817:8828   */\n      0x00\n        /* \"#utility.yul\":8851:8857   */\n      dup3\n        /* \"#utility.yul\":8846:8849   */\n      dup3\n        /* \"#utility.yul\":8839:8858   */\n      mstore\n        /* \"#utility.yul\":8891:8895   */\n      0x20\n        /* \"#utility.yul\":8886:8889   */\n      dup3\n        /* \"#utility.yul\":8882:8896   */\n      add\n        /* \"#utility.yul\":8867:8896   */\n      swap1\n      pop\n        /* \"#utility.yul\":8733:8902   */\n      swap3\n      swap2\n      pop\n      pop\n      jump\t// out\n        /* \"#utility.yul\":8908:9137   */\n    tag_314:\n        /* \"#utility.yul\":9048:9082   */\n      0x77697468647261773a2063616e2774207769746864726177206d6f7265207468\n        /* \"#utility.yul\":9044:9045   */\n      0x00\n        /* \"#utility.yul\":9036:9042   */\n      dup3\n        /* \"#utility.yul\":9032:9046   */\n      add\n        /* \"#utility.yul\":9025:9083   */\n      mstore\n        /* \"#utility.yul\":9117:9129   */\n      0x616e206465706f73697400000000000000000000000000000000000000000000\n        /* \"#utility.yul\":9112:9114   */\n      0x20\n        /* \"#utility.yul\":9104:9110   */\n      dup3\n        /* \"#utility.yul\":9100:9115   */\n      add\n        /* \"#utility.yul\":9093:9130   */\n      mstore\n        /* \"#utility.yul\":8908:9137   */\n      pop\n      jump\t// out\n        /* \"#utility.yul\":9143:9509   */\n    tag_315:\n        /* \"#utility.yul\":9285:9288   */\n      0x00\n        /* \"#utility.yul\":9306:9373   */\n      tag_432\n        /* \"#utility.yul\":9370:9372   */\n      0x2a\n        /* \"#utility.yul\":9365:9368   */\n      dup4\n        /* \"#utility.yul\":9306:9373   */\n      tag_313\n      jump\t// in\n    tag_432:\n        /* \"#utility.yul\":9299:9373   */\n      swap2\n      pop\n        /* \"#utility.yul\":9382:9475   */\n      tag_433\n        /* \"#utility.yul\":9471:9474   */\n      dup3\n        /* \"#utility.yul\":9382:9475   */\n      tag_314\n      jump\t// in\n    tag_433:\n        /* \"#utility.yul\":9500:9502   */\n      0x40\n        /* \"#utility.yul\":9495:9498   */\n      dup3\n        /* \"#utility.yul\":9491:9503   */\n      add\n        /* \"#utility.yul\":9484:9503   */\n      swap1\n      pop\n        /* \"#utility.yul\":9143:9509   */\n      swap2\n      swap1\n      pop\n      jump\t// out\n        /* \"#utility.yul\":9515:9934   */\n    tag_145:\n        /* \"#utility.yul\":9681:9685   */\n      0x00\n        /* \"#utility.yul\":9719:9721   */\n      0x20\n        /* \"#utility.yul\":9708:9717   */\n      dup3\n        /* \"#utility.yul\":9704:9722   */\n      add\n        /* \"#utility.yul\":9696:9722   */\n      swap1\n      pop\n        /* \"#utility.yul\":9768:9777   */\n      dup2\n        /* \"#utility.yul\":9762:9766   */\n      dup2\n        /* \"#utility.yul\":9758:9778   */\n      sub\n        /* \"#utility.yul\":9754:9755   */\n      0x00\n        /* \"#utility.yul\":9743:9752   */\n      dup4\n        /* \"#utility.yul\":9739:9756   */\n      add\n        /* \"#utility.yul\":9732:9779   */\n      mstore\n        /* \"#utility.yul\":9796:9927   */\n      tag_435\n        /* \"#utility.yul\":9922:9926   */\n      dup2\n        /* \"#utility.yul\":9796:9927   */\n      tag_315\n      jump\t// in\n    tag_435:\n        /* \"#utility.yul\":9788:9927   */\n      swap1\n      pop\n        /* \"#utility.yul\":9515:9934   */\n      swap2\n      swap1\n      pop\n      jump\t// out\n        /* \"#utility.yul\":9940:10120   */\n    tag_316:\n        /* \"#utility.yul\":9988:10065   */\n      0x4e487b7100000000000000000000000000000000000000000000000000000000\n        /* \"#utility.yul\":9985:9986   */\n      0x00\n        /* \"#utility.yul\":9978:10066   */\n      mstore\n        /* \"#utility.yul\":10085:10089   */\n      0x12\n        /* \"#utility.yul\":10082:10083   */\n      0x04\n        /* \"#utility.yul\":10075:10090   */\n      mstore\n        /* \"#utility.yul\":10109:10113   */\n      0x24\n        /* \"#utility.yul\":10106:10107   */\n      0x00\n        /* \"#utility.yul\":10099:10114   */\n      revert\n        /* \"#utility.yul\":10126:10311   */\n    tag_149:\n        /* \"#utility.yul\":10166:10167   */\n      0x00\n        /* \"#utility.yul\":10183:10203   */\n      tag_438\n        /* \"#utility.yul\":10201:10202   */\n      dup3\n        /* \"#utility.yul\":10183:10203   */\n      tag_289\n      jump\t// in\n    tag_438:\n        /* \"#utility.yul\":10178:10203   */\n      swap2\n      pop\n        /* \"#utility.yul\":10217:10237   */\n      tag_439\n        /* \"#utility.yul\":10235:10236   */\n      dup4\n        /* \"#utility.yul\":10217:10237   */\n      tag_289\n      jump\t// in\n    tag_439:\n        /* \"#utility.yul\":10212:10237   */\n      swap3\n      pop\n        /* \"#utility.yul\":10256:10257   */\n      dup3\n        /* \"#utility.yul\":10246:10281   */\n      tag_440\n      jumpi\n        /* \"#utility.yul\":10261:10279   */\n      tag_441\n      tag_316\n      jump\t// in\n    tag_441:\n        /* \"#utility.yul\":10246:10281   */\n    tag_440:\n        /* \"#utility.yul\":10303:10304   */\n      dup3\n        /* \"#utility.yul\":10300:10301   */\n      dup3\n        /* \"#utility.yul\":10296:10305   */\n      div\n        /* \"#utility.yul\":10291:10305   */\n      swap1\n      pop\n        /* \"#utility.yul\":10126:10311   */\n      swap3\n      swap2\n      pop\n      pop\n      jump\t// out\n        /* \"#utility.yul\":10317:10538   */\n    tag_317:\n        /* \"#utility.yul\":10457:10491   */\n      0x66756e643a20746f6f206c6174652c20746865206661726d20697320636c6f73\n        /* \"#utility.yul\":10453:10454   */\n      0x00\n        /* \"#utility.yul\":10445:10451   */\n      dup3\n        /* \"#utility.yul\":10441:10455   */\n      add\n        /* \"#utility.yul\":10434:10492   */\n      mstore\n        /* \"#utility.yul\":10526:10530   */\n      0x6564000000000000000000000000000000000000000000000000000000000000\n        /* \"#utility.yul\":10521:10523   */\n      0x20\n        /* \"#utility.yul\":10513:10519   */\n      dup3\n        /* \"#utility.yul\":10509:10524   */\n      add\n        /* \"#utility.yul\":10502:10531   */\n      mstore\n        /* \"#utility.yul\":10317:10538   */\n      pop\n      jump\t// out\n        /* \"#utility.yul\":10544:10910   */\n    tag_318:\n        /* \"#utility.yul\":10686:10689   */\n      0x00\n        /* \"#utility.yul\":10707:10774   */\n      tag_444\n        /* \"#utility.yul\":10771:10773   */\n      0x22\n        /* \"#utility.yul\":10766:10769   */\n      dup4\n        /* \"#utility.yul\":10707:10774   */\n      tag_313\n      jump\t// in\n    tag_444:\n        /* \"#utility.yul\":10700:10774   */\n      swap2\n      pop\n        /* \"#utility.yul\":10783:10876   */\n      tag_445\n        /* \"#utility.yul\":10872:10875   */\n      dup3\n        /* \"#utility.yul\":10783:10876   */\n      tag_317\n      jump\t// in\n    tag_445:\n        /* \"#utility.yul\":10901:10903   */\n      0x40\n        /* \"#utility.yul\":10896:10899   */\n      dup3\n        /* \"#utility.yul\":10892:10904   */\n      add\n        /* \"#utility.yul\":10885:10904   */\n      swap1\n      pop\n        /* \"#utility.yul\":10544:10910   */\n      swap2\n      swap1\n      pop\n      jump\t// out\n        /* \"#utility.yul\":10916:11335   */\n    tag_210:\n        /* \"#utility.yul\":11082:11086   */\n      0x00\n        /* \"#utility.yul\":11120:11122   */\n      0x20\n        /* \"#utility.yul\":11109:11118   */\n      dup3\n        /* \"#utility.yul\":11105:11123   */\n      add\n        /* \"#utility.yul\":11097:11123   */\n      swap1\n      pop\n        /* \"#utility.yul\":11169:11178   */\n      dup2\n        /* \"#utility.yul\":11163:11167   */\n      dup2\n        /* \"#utility.yul\":11159:11179   */\n      sub\n        /* \"#utility.yul\":11155:11156   */\n      0x00\n        /* \"#utility.yul\":11144:11153   */\n      dup4\n        /* \"#utility.yul\":11140:11157   */\n      add\n        /* \"#utility.yul\":11133:11180   */\n      mstore\n        /* \"#utility.yul\":11197:11328   */\n      tag_447\n        /* \"#utility.yul\":11323:11327   */\n      dup2\n        /* \"#utility.yul\":11197:11328   */\n      tag_318\n      jump\t// in\n    tag_447:\n        /* \"#utility.yul\":11189:11328   */\n      swap1\n      pop\n        /* \"#utility.yul\":10916:11335   */\n      swap2\n      swap1\n      pop\n      jump\t// out\n        /* \"#utility.yul\":11341:11673   */\n    tag_267:\n        /* \"#utility.yul\":11462:11466   */\n      0x00\n        /* \"#utility.yul\":11500:11502   */\n      0x40\n        /* \"#utility.yul\":11489:11498   */\n      dup3\n        /* \"#utility.yul\":11485:11503   */\n      add\n        /* \"#utility.yul\":11477:11503   */\n      swap1\n      pop\n        /* \"#utility.yul\":11513:11584   */\n      tag_449\n        /* \"#utility.yul\":11581:11582   */\n      0x00\n        /* \"#utility.yul\":11570:11579   */\n      dup4\n        /* \"#utility.yul\":11566:11583   */\n      add\n        /* \"#utility.yul\":11557:11563   */\n      dup6\n        /* \"#utility.yul\":11513:11584   */\n      tag_309\n      jump\t// in\n    tag_449:\n        /* \"#utility.yul\":11594:11666   */\n      tag_450\n        /* \"#utility.yul\":11662:11664   */\n      0x20\n        /* \"#utility.yul\":11651:11660   */\n      dup4\n        /* \"#utility.yul\":11647:11665   */\n      add\n        /* \"#utility.yul\":11638:11644   */\n      dup5\n        /* \"#utility.yul\":11594:11666   */\n      tag_290\n      jump\t// in\n    tag_450:\n        /* \"#utility.yul\":11341:11673   */\n      swap4\n      swap3\n      pop\n      pop\n      pop\n      jump\t// out\n        /* \"#utility.yul\":11679:11816   */\n    tag_319:\n        /* \"#utility.yul\":11733:11738   */\n      0x00\n        /* \"#utility.yul\":11764:11770   */\n      dup2\n        /* \"#utility.yul\":11758:11771   */\n      mload\n        /* \"#utility.yul\":11749:11771   */\n      swap1\n      pop\n        /* \"#utility.yul\":11780:11810   */\n      tag_452\n        /* \"#utility.yul\":11804:11809   */\n      dup2\n        /* \"#utility.yul\":11780:11810   */\n      tag_307\n      jump\t// in\n    tag_452:\n        /* \"#utility.yul\":11679:11816   */\n      swap3\n      swap2\n      pop\n      pop\n      jump\t// out\n        /* \"#utility.yul\":11822:12167   */\n    tag_271:\n        /* \"#utility.yul\":11889:11895   */\n      0x00\n        /* \"#utility.yul\":11938:11940   */\n      0x20\n        /* \"#utility.yul\":11926:11935   */\n      dup3\n        /* \"#utility.yul\":11917:11924   */\n      dup5\n        /* \"#utility.yul\":11913:11936   */\n      sub\n        /* \"#utility.yul\":11909:11941   */\n      slt\n        /* \"#utility.yul\":11906:12025   */\n      iszero\n      tag_454\n      jumpi\n        /* \"#utility.yul\":11944:12023   */\n      tag_455\n      tag_292\n      jump\t// in\n    tag_455:\n        /* \"#utility.yul\":11906:12025   */\n    tag_454:\n        /* \"#utility.yul\":12064:12065   */\n      0x00\n        /* \"#utility.yul\":12089:12150   */\n      tag_456\n        /* \"#utility.yul\":12142:12149   */\n      dup5\n        /* \"#utility.yul\":12133:12139   */\n      dup3\n        /* \"#utility.yul\":12122:12131   */\n      dup6\n        /* \"#utility.yul\":12118:12140   */\n      add\n        /* \"#utility.yul\":12089:12150   */\n      tag_319\n      jump\t// in\n    tag_456:\n        /* \"#utility.yul\":12079:12150   */\n      swap2\n      pop\n        /* \"#utility.yul\":12035:12160   */\n      pop\n        /* \"#utility.yul\":11822:12167   */\n      swap3\n      swap2\n      pop\n      pop\n      jump\t// out\n        /* \"#utility.yul\":12173:12615   */\n    tag_281:\n        /* \"#utility.yul\":12322:12326   */\n      0x00\n        /* \"#utility.yul\":12360:12362   */\n      0x60\n        /* \"#utility.yul\":12349:12358   */\n      dup3\n        /* \"#utility.yul\":12345:12363   */\n      add\n        /* \"#utility.yul\":12337:12363   */\n      swap1\n      pop\n        /* \"#utility.yul\":12373:12444   */\n      tag_458\n        /* \"#utility.yul\":12441:12442   */\n      0x00\n        /* \"#utility.yul\":12430:12439   */\n      dup4\n        /* \"#utility.yul\":12426:12443   */\n      add\n        /* \"#utility.yul\":12417:12423   */\n      dup7\n        /* \"#utility.yul\":12373:12444   */\n      tag_309\n      jump\t// in\n    tag_458:\n        /* \"#utility.yul\":12454:12526   */\n      tag_459\n        /* \"#utility.yul\":12522:12524   */\n      0x20\n        /* \"#utility.yul\":12511:12520   */\n      dup4\n        /* \"#utility.yul\":12507:12525   */\n      add\n        /* \"#utility.yul\":12498:12504   */\n      dup6\n        /* \"#utility.yul\":12454:12526   */\n      tag_309\n      jump\t// in\n    tag_459:\n        /* \"#utility.yul\":12536:12608   */\n      tag_460\n        /* \"#utility.yul\":12604:12606   */\n      0x40\n        /* \"#utility.yul\":12593:12602   */\n      dup4\n        /* \"#utility.yul\":12589:12607   */\n      add\n        /* \"#utility.yul\":12580:12586   */\n      dup5\n        /* \"#utility.yul\":12536:12608   */\n      tag_290\n      jump\t// in\n    tag_460:\n        /* \"#utility.yul\":12173:12615   */\n      swap5\n      swap4\n      pop\n      pop\n      pop\n      pop\n      jump\t// out\n\n    auxdata: 0xa2646970667358221220e1286ad8acaa8181c3a24a1fd0bf8ec88e12eff3c1aa592115317d5c36a2a23564736f6c634300081a0033\n}\n",
				"bytecode": {
					"linkReferences": {},
					"object": "608060405234801561000f575f80fd5b50604051611e7d380380611e7d83398181016040528101906100319190610272565b335f73ffffffffffffffffffffffffffffffffffffffff168173ffffffffffffffffffffffffffffffffffffffff16036100a2575f6040517f1e4fbdf700000000000000000000000000000000000000000000000000000000815260040161009991906102d1565b60405180910390fd5b6100b18161010f60201b60201c565b508260015f6101000a81548173ffffffffffffffffffffffffffffffffffffffff021916908373ffffffffffffffffffffffffffffffffffffffff1602179055508160038190555080600881905550806009819055505050506102ea565b5f805f9054906101000a900473ffffffffffffffffffffffffffffffffffffffff169050815f806101000a81548173ffffffffffffffffffffffffffffffffffffffff021916908373ffffffffffffffffffffffffffffffffffffffff1602179055508173ffffffffffffffffffffffffffffffffffffffff168173ffffffffffffffffffffffffffffffffffffffff167f8be0079c531659141344cd1fd0a4f28419497f9722a3daafe3b4186f6b6457e060405160405180910390a35050565b5f80fd5b5f73ffffffffffffffffffffffffffffffffffffffff82169050919050565b5f6101fd826101d4565b9050919050565b5f61020e826101f3565b9050919050565b61021e81610204565b8114610228575f80fd5b50565b5f8151905061023981610215565b92915050565b5f819050919050565b6102518161023f565b811461025b575f80fd5b50565b5f8151905061026c81610248565b92915050565b5f805f60608486031215610289576102886101d0565b5b5f6102968682870161022b565b93505060206102a78682870161025e565b92505060406102b88682870161025e565b9150509250925092565b6102cb816101f3565b82525050565b5f6020820190506102e45f8301846102c2565b92915050565b611b86806102f75f395ff3fe608060405234801561000f575f80fd5b5060043610610156575f3560e01c8063715018a6116100c1578063a85adeab1161007a578063a85adeab1461037f578063ca1d209d1461039d578063e2bbb158146103b9578063e4c75c27146103d5578063e6fd48bc14610405578063f2fde38b1461042357610156565b8063715018a6146102ba578063785e9e86146102c45780638da5cb5b146102e25780638f10369a1461030057806393f1a40b1461031e578063a23831061461034f57610156565b8063441a3e7011610113578063441a3e701461022257806351eb05a61461023e5780635312ea8e1461025a5780635c76ca2d14610276578063630b5ba11461029457806364482f791461029e57610156565b8063081e3eda1461015a5780630e15561a146101785780631526fe271461019657806317caf6f1146101ca5780631eaaa045146101e85780633f90916a14610204575b5f80fd5b61016261043f565b60405161016f9190611494565b60405180910390f35b61018061044b565b60405161018d9190611494565b60405180910390f35b6101b060048036038101906101ab91906114db565b610451565b6040516101c1959493929190611580565b60405180910390f35b6101d26104b1565b6040516101df9190611494565b60405180910390f35b61020260048036038101906101fd9190611652565b6104b7565b005b61020c6105d1565b6040516102199190611494565b60405180910390f35b61023c600480360381019061023791906116a2565b610628565b005b610258600480360381019061025391906114db565b610838565b005b610274600480360381019061026f91906114db565b610932565b005b61027e610a77565b60405161028b9190611494565b60405180910390f35b61029c610a7d565b005b6102b860048036038101906102b391906116e0565b610aa8565b005b6102c2610b2e565b005b6102cc610b41565b6040516102d99190611730565b60405180910390f35b6102ea610b66565b6040516102f79190611758565b60405180910390f35b610308610b8d565b6040516103159190611494565b60405180910390f35b6103386004803603810190610333919061179b565b610b93565b6040516103469291906117d9565b60405180910390f35b6103696004803603810190610364919061179b565b610bbe565b6040516103769190611494565b60405180910390f35b610387610c1b565b6040516103949190611494565b60405180910390f35b6103b760048036038101906103b291906114db565b610c21565b005b6103d360048036038101906103ce91906116a2565b610cef565b005b6103ef60048036038101906103ea919061179b565b610ec7565b6040516103fc9190611494565b60405180910390f35b61040d61104e565b60405161041a9190611494565b60405180910390f35b61043d60048036038101906104389190611800565b611054565b005b5f600580549050905090565b60045481565b60058181548110610460575f80fd5b905f5260205f2090600502015f91509050805f015f9054906101000a900473ffffffffffffffffffffffffffffffffffffffff16908060010154908060020154908060030154908060040154905085565b60075481565b6104bf6110d8565b80156104ce576104cd610a7d565b5b5f60085442116104e0576008546104e2565b425b9050836007546104f29190611858565b60078190555060056040518060a001604052808573ffffffffffffffffffffffffffffffffffffffff1681526020018681526020018381526020015f81526020015f815250908060018154018082558091505060019003905f5260205f2090600502015f909190919091505f820151815f015f6101000a81548173ffffffffffffffffffffffffffffffffffffffff021916908373ffffffffffffffffffffffffffffffffffffffff16021790555060208201518160010155604082015181600201556060820151816003015560808201518160040155505050505050565b5f60085442116105e3575f9050610625565b5f60095442106105f5576009546105f7565b425b90506002546008548261060a919061188b565b60035461061791906118be565b610621919061188b565b9150505b90565b5f6005838154811061063d5761063c6118ff565b5b905f5260205f20906005020190505f60065f8581526020019081526020015f205f3373ffffffffffffffffffffffffffffffffffffffff1673ffffffffffffffffffffffffffffffffffffffff1681526020019081526020015f20905082815f015410156106e0576040517f08c379a00000000000000000000000000000000000000000000000000000000081526004016106d7906119ac565b60405180910390fd5b6106e984610838565b5f81600101546ec097ce7bc90715b34b9f10000000008460030154845f015461071291906118be565b61071c91906119f7565b610726919061188b565b9050610732338261115f565b83825f0154610741919061188b565b825f01819055506ec097ce7bc90715b34b9f10000000008360030154835f015461076b91906118be565b61077591906119f7565b82600101819055506107ca3385855f015f9054906101000a900473ffffffffffffffffffffffffffffffffffffffff1673ffffffffffffffffffffffffffffffffffffffff166112189092919063ffffffff16565b8383600401546107da919061188b565b8360040181905550843373ffffffffffffffffffffffffffffffffffffffff167ff279e6a1f5e320cca91135676d9cb6e44ca8a08c0b88342bcdb1144f6511b568866040516108299190611494565b60405180910390a35050505050565b5f6005828154811061084d5761084c6118ff565b5b905f5260205f20906005020190505f600954421061086d5760095461086f565b425b90508160020154811161088357505061092f565b5f826004015490505f81036108a35781836002018190555050505061092f565b5f8360020154836108b4919061188b565b90505f6007548560010154600354846108cd91906118be565b6108d791906118be565b6108e1919061188b565b9050826ec097ce7bc90715b34b9f1000000000826108ff91906118be565b61090991906119f7565b85600301546109189190611858565b856003018190555042856002018190555050505050505b50565b5f60058281548110610947576109466118ff565b5b905f5260205f20906005020190505f60065f8481526020019081526020015f205f3373ffffffffffffffffffffffffffffffffffffffff1673ffffffffffffffffffffffffffffffffffffffff1681526020019081526020015f2090506109f433825f0154845f015f9054906101000a900473ffffffffffffffffffffffffffffffffffffffff1673ffffffffffffffffffffffffffffffffffffffff166112189092919063ffffffff16565b805f01548260040154610a07919061188b565b8260040181905550823373ffffffffffffffffffffffffffffffffffffffff167fbb757047c2b5f3974fe26b7c10f732e7bce710b0952a71082702781e62ae0595835f0154604051610a599190611494565b60405180910390a35f815f01819055505f8160010181905550505050565b60025481565b5f60058054905090505f5b81811015610aa457610a9981610838565b806001019050610a88565b5050565b610ab06110d8565b8015610abf57610abe610a7d565b5b8160058481548110610ad457610ad36118ff565b5b905f5260205f20906005020160010154600754610af1919061188b565b610afb9190611858565b6007819055508160058481548110610b1657610b156118ff565b5b905f5260205f20906005020160010181905550505050565b610b366110d8565b610b3f5f611297565b565b60015f9054906101000a900473ffffffffffffffffffffffffffffffffffffffff1681565b5f805f9054906101000a900473ffffffffffffffffffffffffffffffffffffffff16905090565b60035481565b6006602052815f5260405f20602052805f5260405f205f9150915050805f0154908060010154905082565b5f8060065f8581526020019081526020015f205f8473ffffffffffffffffffffffffffffffffffffffff1673ffffffffffffffffffffffffffffffffffffffff1681526020019081526020015f209050805f015491505092915050565b60095481565b6009544210610c65576040517f08c379a0000000000000000000000000000000000000000000000000000000008152600401610c5c90611a97565b60405180910390fd5b610cb333308360015f9054906101000a900473ffffffffffffffffffffffffffffffffffffffff1673ffffffffffffffffffffffffffffffffffffffff16611358909392919063ffffffff16565b60035481610cc191906119f7565b60095f828254610cd19190611858565b9250508190555080600454610ce69190611858565b60048190555050565b5f60058381548110610d0457610d036118ff565b5b905f5260205f20906005020190505f60065f8581526020019081526020015f205f3373ffffffffffffffffffffffffffffffffffffffff1673ffffffffffffffffffffffffffffffffffffffff1681526020019081526020015f209050610d6a84610838565b5f815f01541115610dc0575f81600101546ec097ce7bc90715b34b9f10000000008460030154845f0154610d9e91906118be565b610da891906119f7565b610db2919061188b565b9050610dbe338261115f565b505b610e0f333085855f015f9054906101000a900473ffffffffffffffffffffffffffffffffffffffff1673ffffffffffffffffffffffffffffffffffffffff16611358909392919063ffffffff16565b828260040154610e1f9190611858565b826004018190555082815f0154610e369190611858565b815f01819055506ec097ce7bc90715b34b9f10000000008260030154825f0154610e6091906118be565b610e6a91906119f7565b8160010181905550833373ffffffffffffffffffffffffffffffffffffffff167f90890809c654f11d6e72a28fa60149770a0d11ec6c92319d6ceb2bb0a4ea1a1585604051610eb99190611494565b60405180910390a350505050565b5f8060058481548110610edd57610edc6118ff565b5b905f5260205f20906005020190505f60065f8681526020019081526020015f205f8573ffffffffffffffffffffffffffffffffffffffff1673ffffffffffffffffffffffffffffffffffffffff1681526020019081526020015f2090505f826003015490505f83600401549050836002015442118015610f5d57505f8114155b1561100a575f6009544210610f7457600954610f76565b425b90505f600954866002015410610f8e57600954610f94565b85600201545b90505f8183610fa3919061188b565b90505f600754886001015460035484610fbc91906118be565b610fc691906118be565b610fd091906119f7565b9050846ec097ce7bc90715b34b9f100000000082610fee91906118be565b610ff891906119f7565b866110039190611858565b9550505050505b82600101546ec097ce7bc90715b34b9f100000000083855f015461102e91906118be565b61103891906119f7565b611042919061188b565b94505050505092915050565b60085481565b61105c6110d8565b5f73ffffffffffffffffffffffffffffffffffffffff168173ffffffffffffffffffffffffffffffffffffffff16036110cc575f6040517f1e4fbdf70000000000000000000000000000000000000000000000000000000081526004016110c39190611758565b60405180910390fd5b6110d581611297565b50565b6110e06113da565b73ffffffffffffffffffffffffffffffffffffffff166110fe610b66565b73ffffffffffffffffffffffffffffffffffffffff161461115d576111216113da565b6040517f118cdaa70000000000000000000000000000000000000000000000000000000081526004016111549190611758565b60405180910390fd5b565b60015f9054906101000a900473ffffffffffffffffffffffffffffffffffffffff1673ffffffffffffffffffffffffffffffffffffffff1663a9059cbb83836040518363ffffffff1660e01b81526004016111bb929190611ab5565b6020604051808303815f875af11580156111d7573d5f803e3d5ffd5b505050506040513d601f19601f820116820180604052508101906111fb9190611af0565b508060025f82825461120d9190611858565b925050819055505050565b611292838473ffffffffffffffffffffffffffffffffffffffff1663a9059cbb858560405160240161124b929190611ab5565b604051602081830303815290604052915060e01b6020820180517bffffffffffffffffffffffffffffffffffffffffffffffffffffffff83818316178352505050506113e1565b505050565b5f805f9054906101000a900473ffffffffffffffffffffffffffffffffffffffff169050815f806101000a81548173ffffffffffffffffffffffffffffffffffffffff021916908373ffffffffffffffffffffffffffffffffffffffff1602179055508173ffffffffffffffffffffffffffffffffffffffff168173ffffffffffffffffffffffffffffffffffffffff167f8be0079c531659141344cd1fd0a4f28419497f9722a3daafe3b4186f6b6457e060405160405180910390a35050565b6113d4848573ffffffffffffffffffffffffffffffffffffffff166323b872dd86868660405160240161138d93929190611b1b565b604051602081830303815290604052915060e01b6020820180517bffffffffffffffffffffffffffffffffffffffffffffffffffffffff83818316178352505050506113e1565b50505050565b5f33905090565b5f8060205f8451602086015f885af180611400576040513d5f823e3d81fd5b3d92505f519150505f8214611419576001811415611434565b5f8473ffffffffffffffffffffffffffffffffffffffff163b145b1561147657836040517f5274afe700000000000000000000000000000000000000000000000000000000815260040161146d9190611758565b60405180910390fd5b50505050565b5f819050919050565b61148e8161147c565b82525050565b5f6020820190506114a75f830184611485565b92915050565b5f80fd5b6114ba8161147c565b81146114c4575f80fd5b50565b5f813590506114d5816114b1565b92915050565b5f602082840312156114f0576114ef6114ad565b5b5f6114fd848285016114c7565b91505092915050565b5f73ffffffffffffffffffffffffffffffffffffffff82169050919050565b5f819050919050565b5f61154861154361153e84611506565b611525565b611506565b9050919050565b5f6115598261152e565b9050919050565b5f61156a8261154f565b9050919050565b61157a81611560565b82525050565b5f60a0820190506115935f830188611571565b6115a06020830187611485565b6115ad6040830186611485565b6115ba6060830185611485565b6115c76080830184611485565b9695505050505050565b5f6115db82611506565b9050919050565b5f6115ec826115d1565b9050919050565b6115fc816115e2565b8114611606575f80fd5b50565b5f81359050611617816115f3565b92915050565b5f8115159050919050565b6116318161161d565b811461163b575f80fd5b50565b5f8135905061164c81611628565b92915050565b5f805f60608486031215611669576116686114ad565b5b5f611676868287016114c7565b935050602061168786828701611609565b92505060406116988682870161163e565b9150509250925092565b5f80604083850312156116b8576116b76114ad565b5b5f6116c5858286016114c7565b92505060206116d6858286016114c7565b9150509250929050565b5f805f606084860312156116f7576116f66114ad565b5b5f611704868287016114c7565b9350506020611715868287016114c7565b92505060406117268682870161163e565b9150509250925092565b5f6020820190506117435f830184611571565b92915050565b611752816115d1565b82525050565b5f60208201905061176b5f830184611749565b92915050565b61177a816115d1565b8114611784575f80fd5b50565b5f8135905061179581611771565b92915050565b5f80604083850312156117b1576117b06114ad565b5b5f6117be858286016114c7565b92505060206117cf85828601611787565b9150509250929050565b5f6040820190506117ec5f830185611485565b6117f96020830184611485565b9392505050565b5f60208284031215611815576118146114ad565b5b5f61182284828501611787565b91505092915050565b7f4e487b71000000000000000000000000000000000000000000000000000000005f52601160045260245ffd5b5f6118628261147c565b915061186d8361147c565b92508282019050808211156118855761188461182b565b5b92915050565b5f6118958261147c565b91506118a08361147c565b92508282039050818111156118b8576118b761182b565b5b92915050565b5f6118c88261147c565b91506118d38361147c565b92508282026118e18161147c565b915082820484148315176118f8576118f761182b565b5b5092915050565b7f4e487b71000000000000000000000000000000000000000000000000000000005f52603260045260245ffd5b5f82825260208201905092915050565b7f77697468647261773a2063616e2774207769746864726177206d6f72652074685f8201527f616e206465706f73697400000000000000000000000000000000000000000000602082015250565b5f611996602a8361192c565b91506119a18261193c565b604082019050919050565b5f6020820190508181035f8301526119c38161198a565b9050919050565b7f4e487b71000000000000000000000000000000000000000000000000000000005f52601260045260245ffd5b5f611a018261147c565b9150611a0c8361147c565b925082611a1c57611a1b6119ca565b5b828204905092915050565b7f66756e643a20746f6f206c6174652c20746865206661726d20697320636c6f735f8201527f6564000000000000000000000000000000000000000000000000000000000000602082015250565b5f611a8160228361192c565b9150611a8c82611a27565b604082019050919050565b5f6020820190508181035f830152611aae81611a75565b9050919050565b5f604082019050611ac85f830185611749565b611ad56020830184611485565b9392505050565b5f81519050611aea81611628565b92915050565b5f60208284031215611b0557611b046114ad565b5b5f611b1284828501611adc565b91505092915050565b5f606082019050611b2e5f830186611749565b611b3b6020830185611749565b611b486040830184611485565b94935050505056fea2646970667358221220e1286ad8acaa8181c3a24a1fd0bf8ec88e12eff3c1aa592115317d5c36a2a23564736f6c634300081a0033",
					"opcodes": "PUSH1 0x80 PUSH1 0x40 MSTORE CALLVALUE DUP1 ISZERO PUSH2 0xF JUMPI PUSH0 DUP1 REVERT JUMPDEST POP PUSH1 0x40 MLOAD PUSH2 0x1E7D CODESIZE SUB DUP1 PUSH2 0x1E7D DUP4 CODECOPY DUP2 DUP2 ADD PUSH1 0x40 MSTORE DUP2 ADD SWAP1 PUSH2 0x31 SWAP2 SWAP1 PUSH2 0x272 JUMP JUMPDEST CALLER PUSH0 PUSH20 0xFFFFFFFFFFFFFFFFFFFFFFFFFFFFFFFFFFFFFFFF AND DUP2 PUSH20 0xFFFFFFFFFFFFFFFFFFFFFFFFFFFFFFFFFFFFFFFF AND SUB PUSH2 0xA2 JUMPI PUSH0 PUSH1 0x40 MLOAD PUSH32 0x1E4FBDF700000000000000000000000000000000000000000000000000000000 DUP2 MSTORE PUSH1 0x4 ADD PUSH2 0x99 SWAP2 SWAP1 PUSH2 0x2D1 JUMP JUMPDEST PUSH1 0x40 MLOAD DUP1 SWAP2 SUB SWAP1 REVERT JUMPDEST PUSH2 0xB1 DUP2 PUSH2 0x10F PUSH1 0x20 SHL PUSH1 0x20 SHR JUMP JUMPDEST POP DUP3 PUSH1 0x1 PUSH0 PUSH2 0x100 EXP DUP2 SLOAD DUP2 PUSH20 0xFFFFFFFFFFFFFFFFFFFFFFFFFFFFFFFFFFFFFFFF MUL NOT AND SWAP1 DUP4 PUSH20 0xFFFFFFFFFFFFFFFFFFFFFFFFFFFFFFFFFFFFFFFF AND MUL OR SWAP1 SSTORE POP DUP2 PUSH1 0x3 DUP2 SWAP1 SSTORE POP DUP1 PUSH1 0x8 DUP2 SWAP1 SSTORE POP DUP1 PUSH1 0x9 DUP2 SWAP1 SSTORE POP POP POP POP PUSH2 0x2EA JUMP JUMPDEST PUSH0 DUP1 PUSH0 SWAP1 SLOAD SWAP1 PUSH2 0x100 EXP SWAP1 DIV PUSH20 0xFFFFFFFFFFFFFFFFFFFFFFFFFFFFFFFFFFFFFFFF AND SWAP1 POP DUP2 PUSH0 DUP1 PUSH2 0x100 EXP DUP2 SLOAD DUP2 PUSH20 0xFFFFFFFFFFFFFFFFFFFFFFFFFFFFFFFFFFFFFFFF MUL NOT AND SWAP1 DUP4 PUSH20 0xFFFFFFFFFFFFFFFFFFFFFFFFFFFFFFFFFFFFFFFF AND MUL OR SWAP1 SSTORE POP DUP2 PUSH20 0xFFFFFFFFFFFFFFFFFFFFFFFFFFFFFFFFFFFFFFFF AND DUP2 PUSH20 0xFFFFFFFFFFFFFFFFFFFFFFFFFFFFFFFFFFFFFFFF AND PUSH32 0x8BE0079C531659141344CD1FD0A4F28419497F9722A3DAAFE3B4186F6B6457E0 PUSH1 0x40 MLOAD PUSH1 0x40 MLOAD DUP1 SWAP2 SUB SWAP1 LOG3 POP POP JUMP JUMPDEST PUSH0 DUP1 REVERT JUMPDEST PUSH0 PUSH20 0xFFFFFFFFFFFFFFFFFFFFFFFFFFFFFFFFFFFFFFFF DUP3 AND SWAP1 POP SWAP2 SWAP1 POP JUMP JUMPDEST PUSH0 PUSH2 0x1FD DUP3 PUSH2 0x1D4 JUMP JUMPDEST SWAP1 POP SWAP2 SWAP1 POP JUMP JUMPDEST PUSH0 PUSH2 0x20E DUP3 PUSH2 0x1F3 JUMP JUMPDEST SWAP1 POP SWAP2 SWAP1 POP JUMP JUMPDEST PUSH2 0x21E DUP2 PUSH2 0x204 JUMP JUMPDEST DUP2 EQ PUSH2 0x228 JUMPI PUSH0 DUP1 REVERT JUMPDEST POP JUMP JUMPDEST PUSH0 DUP2 MLOAD SWAP1 POP PUSH2 0x239 DUP2 PUSH2 0x215 JUMP JUMPDEST SWAP3 SWAP2 POP POP JUMP JUMPDEST PUSH0 DUP2 SWAP1 POP SWAP2 SWAP1 POP JUMP JUMPDEST PUSH2 0x251 DUP2 PUSH2 0x23F JUMP JUMPDEST DUP2 EQ PUSH2 0x25B JUMPI PUSH0 DUP1 REVERT JUMPDEST POP JUMP JUMPDEST PUSH0 DUP2 MLOAD SWAP1 POP PUSH2 0x26C DUP2 PUSH2 0x248 JUMP JUMPDEST SWAP3 SWAP2 POP POP JUMP JUMPDEST PUSH0 DUP1 PUSH0 PUSH1 0x60 DUP5 DUP7 SUB SLT ISZERO PUSH2 0x289 JUMPI PUSH2 0x288 PUSH2 0x1D0 JUMP JUMPDEST JUMPDEST PUSH0 PUSH2 0x296 DUP7 DUP3 DUP8 ADD PUSH2 0x22B JUMP JUMPDEST SWAP4 POP POP PUSH1 0x20 PUSH2 0x2A7 DUP7 DUP3 DUP8 ADD PUSH2 0x25E JUMP JUMPDEST SWAP3 POP POP PUSH1 0x40 PUSH2 0x2B8 DUP7 DUP3 DUP8 ADD PUSH2 0x25E JUMP JUMPDEST SWAP2 POP POP SWAP3 POP SWAP3 POP SWAP3 JUMP JUMPDEST PUSH2 0x2CB DUP2 PUSH2 0x1F3 JUMP JUMPDEST DUP3 MSTORE POP POP JUMP JUMPDEST PUSH0 PUSH1 0x20 DUP3 ADD SWAP1 POP PUSH2 0x2E4 PUSH0 DUP4 ADD DUP5 PUSH2 0x2C2 JUMP JUMPDEST SWAP3 SWAP2 POP POP JUMP JUMPDEST PUSH2 0x1B86 DUP1 PUSH2 0x2F7 PUSH0 CODECOPY PUSH0 RETURN INVALID PUSH1 0x80 PUSH1 0x40 MSTORE CALLVALUE DUP1 ISZERO PUSH2 0xF JUMPI PUSH0 DUP1 REVERT JUMPDEST POP PUSH1 0x4 CALLDATASIZE LT PUSH2 0x156 JUMPI PUSH0 CALLDATALOAD PUSH1 0xE0 SHR DUP1 PUSH4 0x715018A6 GT PUSH2 0xC1 JUMPI DUP1 PUSH4 0xA85ADEAB GT PUSH2 0x7A JUMPI DUP1 PUSH4 0xA85ADEAB EQ PUSH2 0x37F JUMPI DUP1 PUSH4 0xCA1D209D EQ PUSH2 0x39D JUMPI DUP1 PUSH4 0xE2BBB158 EQ PUSH2 0x3B9 JUMPI DUP1 PUSH4 0xE4C75C27 EQ PUSH2 0x3D5 JUMPI DUP1 PUSH4 0xE6FD48BC EQ PUSH2 0x405 JUMPI DUP1 PUSH4 0xF2FDE38B EQ PUSH2 0x423 JUMPI PUSH2 0x156 JUMP JUMPDEST DUP1 PUSH4 0x715018A6 EQ PUSH2 0x2BA JUMPI DUP1 PUSH4 0x785E9E86 EQ PUSH2 0x2C4 JUMPI DUP1 PUSH4 0x8DA5CB5B EQ PUSH2 0x2E2 JUMPI DUP1 PUSH4 0x8F10369A EQ PUSH2 0x300 JUMPI DUP1 PUSH4 0x93F1A40B EQ PUSH2 0x31E JUMPI DUP1 PUSH4 0xA2383106 EQ PUSH2 0x34F JUMPI PUSH2 0x156 JUMP JUMPDEST DUP1 PUSH4 0x441A3E70 GT PUSH2 0x113 JUMPI DUP1 PUSH4 0x441A3E70 EQ PUSH2 0x222 JUMPI DUP1 PUSH4 0x51EB05A6 EQ PUSH2 0x23E JUMPI DUP1 PUSH4 0x5312EA8E EQ PUSH2 0x25A JUMPI DUP1 PUSH4 0x5C76CA2D EQ PUSH2 0x276 JUMPI DUP1 PUSH4 0x630B5BA1 EQ PUSH2 0x294 JUMPI DUP1 PUSH4 0x64482F79 EQ PUSH2 0x29E JUMPI PUSH2 0x156 JUMP JUMPDEST DUP1 PUSH4 0x81E3EDA EQ PUSH2 0x15A JUMPI DUP1 PUSH4 0xE15561A EQ PUSH2 0x178 JUMPI DUP1 PUSH4 0x1526FE27 EQ PUSH2 0x196 JUMPI DUP1 PUSH4 0x17CAF6F1 EQ PUSH2 0x1CA JUMPI DUP1 PUSH4 0x1EAAA045 EQ PUSH2 0x1E8 JUMPI DUP1 PUSH4 0x3F90916A EQ PUSH2 0x204 JUMPI JUMPDEST PUSH0 DUP1 REVERT JUMPDEST PUSH2 0x162 PUSH2 0x43F JUMP JUMPDEST PUSH1 0x40 MLOAD PUSH2 0x16F SWAP2 SWAP1 PUSH2 0x1494 JUMP JUMPDEST PUSH1 0x40 MLOAD DUP1 SWAP2 SUB SWAP1 RETURN JUMPDEST PUSH2 0x180 PUSH2 0x44B JUMP JUMPDEST PUSH1 0x40 MLOAD PUSH2 0x18D SWAP2 SWAP1 PUSH2 0x1494 JUMP JUMPDEST PUSH1 0x40 MLOAD DUP1 SWAP2 SUB SWAP1 RETURN JUMPDEST PUSH2 0x1B0 PUSH1 0x4 DUP1 CALLDATASIZE SUB DUP2 ADD SWAP1 PUSH2 0x1AB SWAP2 SWAP1 PUSH2 0x14DB JUMP JUMPDEST PUSH2 0x451 JUMP JUMPDEST PUSH1 0x40 MLOAD PUSH2 0x1C1 SWAP6 SWAP5 SWAP4 SWAP3 SWAP2 SWAP1 PUSH2 0x1580 JUMP JUMPDEST PUSH1 0x40 MLOAD DUP1 SWAP2 SUB SWAP1 RETURN JUMPDEST PUSH2 0x1D2 PUSH2 0x4B1 JUMP JUMPDEST PUSH1 0x40 MLOAD PUSH2 0x1DF SWAP2 SWAP1 PUSH2 0x1494 JUMP JUMPDEST PUSH1 0x40 MLOAD DUP1 SWAP2 SUB SWAP1 RETURN JUMPDEST PUSH2 0x202 PUSH1 0x4 DUP1 CALLDATASIZE SUB DUP2 ADD SWAP1 PUSH2 0x1FD SWAP2 SWAP1 PUSH2 0x1652 JUMP JUMPDEST PUSH2 0x4B7 JUMP JUMPDEST STOP JUMPDEST PUSH2 0x20C PUSH2 0x5D1 JUMP JUMPDEST PUSH1 0x40 MLOAD PUSH2 0x219 SWAP2 SWAP1 PUSH2 0x1494 JUMP JUMPDEST PUSH1 0x40 MLOAD DUP1 SWAP2 SUB SWAP1 RETURN JUMPDEST PUSH2 0x23C PUSH1 0x4 DUP1 CALLDATASIZE SUB DUP2 ADD SWAP1 PUSH2 0x237 SWAP2 SWAP1 PUSH2 0x16A2 JUMP JUMPDEST PUSH2 0x628 JUMP JUMPDEST STOP JUMPDEST PUSH2 0x258 PUSH1 0x4 DUP1 CALLDATASIZE SUB DUP2 ADD SWAP1 PUSH2 0x253 SWAP2 SWAP1 PUSH2 0x14DB JUMP JUMPDEST PUSH2 0x838 JUMP JUMPDEST STOP JUMPDEST PUSH2 0x274 PUSH1 0x4 DUP1 CALLDATASIZE SUB DUP2 ADD SWAP1 PUSH2 0x26F SWAP2 SWAP1 PUSH2 0x14DB JUMP JUMPDEST PUSH2 0x932 JUMP JUMPDEST STOP JUMPDEST PUSH2 0x27E PUSH2 0xA77 JUMP JUMPDEST PUSH1 0x40 MLOAD PUSH2 0x28B SWAP2 SWAP1 PUSH2 0x1494 JUMP JUMPDEST PUSH1 0x40 MLOAD DUP1 SWAP2 SUB SWAP1 RETURN JUMPDEST PUSH2 0x29C PUSH2 0xA7D JUMP JUMPDEST STOP JUMPDEST PUSH2 0x2B8 PUSH1 0x4 DUP1 CALLDATASIZE SUB DUP2 ADD SWAP1 PUSH2 0x2B3 SWAP2 SWAP1 PUSH2 0x16E0 JUMP JUMPDEST PUSH2 0xAA8 JUMP JUMPDEST STOP JUMPDEST PUSH2 0x2C2 PUSH2 0xB2E JUMP JUMPDEST STOP JUMPDEST PUSH2 0x2CC PUSH2 0xB41 JUMP JUMPDEST PUSH1 0x40 MLOAD PUSH2 0x2D9 SWAP2 SWAP1 PUSH2 0x1730 JUMP JUMPDEST PUSH1 0x40 MLOAD DUP1 SWAP2 SUB SWAP1 RETURN JUMPDEST PUSH2 0x2EA PUSH2 0xB66 JUMP JUMPDEST PUSH1 0x40 MLOAD PUSH2 0x2F7 SWAP2 SWAP1 PUSH2 0x1758 JUMP JUMPDEST PUSH1 0x40 MLOAD DUP1 SWAP2 SUB SWAP1 RETURN JUMPDEST PUSH2 0x308 PUSH2 0xB8D JUMP JUMPDEST PUSH1 0x40 MLOAD PUSH2 0x315 SWAP2 SWAP1 PUSH2 0x1494 JUMP JUMPDEST PUSH1 0x40 MLOAD DUP1 SWAP2 SUB SWAP1 RETURN JUMPDEST PUSH2 0x338 PUSH1 0x4 DUP1 CALLDATASIZE SUB DUP2 ADD SWAP1 PUSH2 0x333 SWAP2 SWAP1 PUSH2 0x179B JUMP JUMPDEST PUSH2 0xB93 JUMP JUMPDEST PUSH1 0x40 MLOAD PUSH2 0x346 SWAP3 SWAP2 SWAP1 PUSH2 0x17D9 JUMP JUMPDEST PUSH1 0x40 MLOAD DUP1 SWAP2 SUB SWAP1 RETURN JUMPDEST PUSH2 0x369 PUSH1 0x4 DUP1 CALLDATASIZE SUB DUP2 ADD SWAP1 PUSH2 0x364 SWAP2 SWAP1 PUSH2 0x179B JUMP JUMPDEST PUSH2 0xBBE JUMP JUMPDEST PUSH1 0x40 MLOAD PUSH2 0x376 SWAP2 SWAP1 PUSH2 0x1494 JUMP JUMPDEST PUSH1 0x40 MLOAD DUP1 SWAP2 SUB SWAP1 RETURN JUMPDEST PUSH2 0x387 PUSH2 0xC1B JUMP JUMPDEST PUSH1 0x40 MLOAD PUSH2 0x394 SWAP2 SWAP1 PUSH2 0x1494 JUMP JUMPDEST PUSH1 0x40 MLOAD DUP1 SWAP2 SUB SWAP1 RETURN JUMPDEST PUSH2 0x3B7 PUSH1 0x4 DUP1 CALLDATASIZE SUB DUP2 ADD SWAP1 PUSH2 0x3B2 SWAP2 SWAP1 PUSH2 0x14DB JUMP JUMPDEST PUSH2 0xC21 JUMP JUMPDEST STOP JUMPDEST PUSH2 0x3D3 PUSH1 0x4 DUP1 CALLDATASIZE SUB DUP2 ADD SWAP1 PUSH2 0x3CE SWAP2 SWAP1 PUSH2 0x16A2 JUMP JUMPDEST PUSH2 0xCEF JUMP JUMPDEST STOP JUMPDEST PUSH2 0x3EF PUSH1 0x4 DUP1 CALLDATASIZE SUB DUP2 ADD SWAP1 PUSH2 0x3EA SWAP2 SWAP1 PUSH2 0x179B JUMP JUMPDEST PUSH2 0xEC7 JUMP JUMPDEST PUSH1 0x40 MLOAD PUSH2 0x3FC SWAP2 SWAP1 PUSH2 0x1494 JUMP JUMPDEST PUSH1 0x40 MLOAD DUP1 SWAP2 SUB SWAP1 RETURN JUMPDEST PUSH2 0x40D PUSH2 0x104E JUMP JUMPDEST PUSH1 0x40 MLOAD PUSH2 0x41A SWAP2 SWAP1 PUSH2 0x1494 JUMP JUMPDEST PUSH1 0x40 MLOAD DUP1 SWAP2 SUB SWAP1 RETURN JUMPDEST PUSH2 0x43D PUSH1 0x4 DUP1 CALLDATASIZE SUB DUP2 ADD SWAP1 PUSH2 0x438 SWAP2 SWAP1 PUSH2 0x1800 JUMP JUMPDEST PUSH2 0x1054 JUMP JUMPDEST STOP JUMPDEST PUSH0 PUSH1 0x5 DUP1 SLOAD SWAP1 POP SWAP1 POP SWAP1 JUMP JUMPDEST PUSH1 0x4 SLOAD DUP2 JUMP JUMPDEST PUSH1 0x5 DUP2 DUP2 SLOAD DUP2 LT PUSH2 0x460 JUMPI PUSH0 DUP1 REVERT JUMPDEST SWAP1 PUSH0 MSTORE PUSH1 0x20 PUSH0 KECCAK256 SWAP1 PUSH1 0x5 MUL ADD PUSH0 SWAP2 POP SWAP1 POP DUP1 PUSH0 ADD PUSH0 SWAP1 SLOAD SWAP1 PUSH2 0x100 EXP SWAP1 DIV PUSH20 0xFFFFFFFFFFFFFFFFFFFFFFFFFFFFFFFFFFFFFFFF AND SWAP1 DUP1 PUSH1 0x1 ADD SLOAD SWAP1 DUP1 PUSH1 0x2 ADD SLOAD SWAP1 DUP1 PUSH1 0x3 ADD SLOAD SWAP1 DUP1 PUSH1 0x4 ADD SLOAD SWAP1 POP DUP6 JUMP JUMPDEST PUSH1 0x7 SLOAD DUP2 JUMP JUMPDEST PUSH2 0x4BF PUSH2 0x10D8 JUMP JUMPDEST DUP1 ISZERO PUSH2 0x4CE JUMPI PUSH2 0x4CD PUSH2 0xA7D JUMP JUMPDEST JUMPDEST PUSH0 PUSH1 0x8 SLOAD TIMESTAMP GT PUSH2 0x4E0 JUMPI PUSH1 0x8 SLOAD PUSH2 0x4E2 JUMP JUMPDEST TIMESTAMP JUMPDEST SWAP1 POP DUP4 PUSH1 0x7 SLOAD PUSH2 0x4F2 SWAP2 SWAP1 PUSH2 0x1858 JUMP JUMPDEST PUSH1 0x7 DUP2 SWAP1 SSTORE POP PUSH1 0x5 PUSH1 0x40 MLOAD DUP1 PUSH1 0xA0 ADD PUSH1 0x40 MSTORE DUP1 DUP6 PUSH20 0xFFFFFFFFFFFFFFFFFFFFFFFFFFFFFFFFFFFFFFFF AND DUP2 MSTORE PUSH1 0x20 ADD DUP7 DUP2 MSTORE PUSH1 0x20 ADD DUP4 DUP2 MSTORE PUSH1 0x20 ADD PUSH0 DUP2 MSTORE PUSH1 0x20 ADD PUSH0 DUP2 MSTORE POP SWAP1 DUP1 PUSH1 0x1 DUP2 SLOAD ADD DUP1 DUP3 SSTORE DUP1 SWAP2 POP POP PUSH1 0x1 SWAP1 SUB SWAP1 PUSH0 MSTORE PUSH1 0x20 PUSH0 KECCAK256 SWAP1 PUSH1 0x5 MUL ADD PUSH0 SWAP1 SWAP2 SWAP1 SWAP2 SWAP1 SWAP2 POP PUSH0 DUP3 ADD MLOAD DUP2 PUSH0 ADD PUSH0 PUSH2 0x100 EXP DUP2 SLOAD DUP2 PUSH20 0xFFFFFFFFFFFFFFFFFFFFFFFFFFFFFFFFFFFFFFFF MUL NOT AND SWAP1 DUP4 PUSH20 0xFFFFFFFFFFFFFFFFFFFFFFFFFFFFFFFFFFFFFFFF AND MUL OR SWAP1 SSTORE POP PUSH1 0x20 DUP3 ADD MLOAD DUP2 PUSH1 0x1 ADD SSTORE PUSH1 0x40 DUP3 ADD MLOAD DUP2 PUSH1 0x2 ADD SSTORE PUSH1 0x60 DUP3 ADD MLOAD DUP2 PUSH1 0x3 ADD SSTORE PUSH1 0x80 DUP3 ADD MLOAD DUP2 PUSH1 0x4 ADD SSTORE POP POP POP POP POP POP JUMP JUMPDEST PUSH0 PUSH1 0x8 SLOAD TIMESTAMP GT PUSH2 0x5E3 JUMPI PUSH0 SWAP1 POP PUSH2 0x625 JUMP JUMPDEST PUSH0 PUSH1 0x9 SLOAD TIMESTAMP LT PUSH2 0x5F5 JUMPI PUSH1 0x9 SLOAD PUSH2 0x5F7 JUMP JUMPDEST TIMESTAMP JUMPDEST SWAP1 POP PUSH1 0x2 SLOAD PUSH1 0x8 SLOAD DUP3 PUSH2 0x60A SWAP2 SWAP1 PUSH2 0x188B JUMP JUMPDEST PUSH1 0x3 SLOAD PUSH2 0x617 SWAP2 SWAP1 PUSH2 0x18BE JUMP JUMPDEST PUSH2 0x621 SWAP2 SWAP1 PUSH2 0x188B JUMP JUMPDEST SWAP2 POP POP JUMPDEST SWAP1 JUMP JUMPDEST PUSH0 PUSH1 0x5 DUP4 DUP2 SLOAD DUP2 LT PUSH2 0x63D JUMPI PUSH2 0x63C PUSH2 0x18FF JUMP JUMPDEST JUMPDEST SWAP1 PUSH0 MSTORE PUSH1 0x20 PUSH0 KECCAK256 SWAP1 PUSH1 0x5 MUL ADD SWAP1 POP PUSH0 PUSH1 0x6 PUSH0 DUP6 DUP2 MSTORE PUSH1 0x20 ADD SWAP1 DUP2 MSTORE PUSH1 0x20 ADD PUSH0 KECCAK256 PUSH0 CALLER PUSH20 0xFFFFFFFFFFFFFFFFFFFFFFFFFFFFFFFFFFFFFFFF AND PUSH20 0xFFFFFFFFFFFFFFFFFFFFFFFFFFFFFFFFFFFFFFFF AND DUP2 MSTORE PUSH1 0x20 ADD SWAP1 DUP2 MSTORE PUSH1 0x20 ADD PUSH0 KECCAK256 SWAP1 POP DUP3 DUP2 PUSH0 ADD SLOAD LT ISZERO PUSH2 0x6E0 JUMPI PUSH1 0x40 MLOAD PUSH32 0x8C379A000000000000000000000000000000000000000000000000000000000 DUP2 MSTORE PUSH1 0x4 ADD PUSH2 0x6D7 SWAP1 PUSH2 0x19AC JUMP JUMPDEST PUSH1 0x40 MLOAD DUP1 SWAP2 SUB SWAP1 REVERT JUMPDEST PUSH2 0x6E9 DUP5 PUSH2 0x838 JUMP JUMPDEST PUSH0 DUP2 PUSH1 0x1 ADD SLOAD PUSH15 0xC097CE7BC90715B34B9F1000000000 DUP5 PUSH1 0x3 ADD SLOAD DUP5 PUSH0 ADD SLOAD PUSH2 0x712 SWAP2 SWAP1 PUSH2 0x18BE JUMP JUMPDEST PUSH2 0x71C SWAP2 SWAP1 PUSH2 0x19F7 JUMP JUMPDEST PUSH2 0x726 SWAP2 SWAP1 PUSH2 0x188B JUMP JUMPDEST SWAP1 POP PUSH2 0x732 CALLER DUP3 PUSH2 0x115F JUMP JUMPDEST DUP4 DUP3 PUSH0 ADD SLOAD PUSH2 0x741 SWAP2 SWAP1 PUSH2 0x188B JUMP JUMPDEST DUP3 PUSH0 ADD DUP2 SWAP1 SSTORE POP PUSH15 0xC097CE7BC90715B34B9F1000000000 DUP4 PUSH1 0x3 ADD SLOAD DUP4 PUSH0 ADD SLOAD PUSH2 0x76B SWAP2 SWAP1 PUSH2 0x18BE JUMP JUMPDEST PUSH2 0x775 SWAP2 SWAP1 PUSH2 0x19F7 JUMP JUMPDEST DUP3 PUSH1 0x1 ADD DUP2 SWAP1 SSTORE POP PUSH2 0x7CA CALLER DUP6 DUP6 PUSH0 ADD PUSH0 SWAP1 SLOAD SWAP1 PUSH2 0x100 EXP SWAP1 DIV PUSH20 0xFFFFFFFFFFFFFFFFFFFFFFFFFFFFFFFFFFFFFFFF AND PUSH20 0xFFFFFFFFFFFFFFFFFFFFFFFFFFFFFFFFFFFFFFFF AND PUSH2 0x1218 SWAP1 SWAP3 SWAP2 SWAP1 PUSH4 0xFFFFFFFF AND JUMP JUMPDEST DUP4 DUP4 PUSH1 0x4 ADD SLOAD PUSH2 0x7DA SWAP2 SWAP1 PUSH2 0x188B JUMP JUMPDEST DUP4 PUSH1 0x4 ADD DUP2 SWAP1 SSTORE POP DUP5 CALLER PUSH20 0xFFFFFFFFFFFFFFFFFFFFFFFFFFFFFFFFFFFFFFFF AND PUSH32 0xF279E6A1F5E320CCA91135676D9CB6E44CA8A08C0B88342BCDB1144F6511B568 DUP7 PUSH1 0x40 MLOAD PUSH2 0x829 SWAP2 SWAP1 PUSH2 0x1494 JUMP JUMPDEST PUSH1 0x40 MLOAD DUP1 SWAP2 SUB SWAP1 LOG3 POP POP POP POP POP JUMP JUMPDEST PUSH0 PUSH1 0x5 DUP3 DUP2 SLOAD DUP2 LT PUSH2 0x84D JUMPI PUSH2 0x84C PUSH2 0x18FF JUMP JUMPDEST JUMPDEST SWAP1 PUSH0 MSTORE PUSH1 0x20 PUSH0 KECCAK256 SWAP1 PUSH1 0x5 MUL ADD SWAP1 POP PUSH0 PUSH1 0x9 SLOAD TIMESTAMP LT PUSH2 0x86D JUMPI PUSH1 0x9 SLOAD PUSH2 0x86F JUMP JUMPDEST TIMESTAMP JUMPDEST SWAP1 POP DUP2 PUSH1 0x2 ADD SLOAD DUP2 GT PUSH2 0x883 JUMPI POP POP PUSH2 0x92F JUMP JUMPDEST PUSH0 DUP3 PUSH1 0x4 ADD SLOAD SWAP1 POP PUSH0 DUP2 SUB PUSH2 0x8A3 JUMPI DUP2 DUP4 PUSH1 0x2 ADD DUP2 SWAP1 SSTORE POP POP POP POP PUSH2 0x92F JUMP JUMPDEST PUSH0 DUP4 PUSH1 0x2 ADD SLOAD DUP4 PUSH2 0x8B4 SWAP2 SWAP1 PUSH2 0x188B JUMP JUMPDEST SWAP1 POP PUSH0 PUSH1 0x7 SLOAD DUP6 PUSH1 0x1 ADD SLOAD PUSH1 0x3 SLOAD DUP5 PUSH2 0x8CD SWAP2 SWAP1 PUSH2 0x18BE JUMP JUMPDEST PUSH2 0x8D7 SWAP2 SWAP1 PUSH2 0x18BE JUMP JUMPDEST PUSH2 0x8E1 SWAP2 SWAP1 PUSH2 0x188B JUMP JUMPDEST SWAP1 POP DUP3 PUSH15 0xC097CE7BC90715B34B9F1000000000 DUP3 PUSH2 0x8FF SWAP2 SWAP1 PUSH2 0x18BE JUMP JUMPDEST PUSH2 0x909 SWAP2 SWAP1 PUSH2 0x19F7 JUMP JUMPDEST DUP6 PUSH1 0x3 ADD SLOAD PUSH2 0x918 SWAP2 SWAP1 PUSH2 0x1858 JUMP JUMPDEST DUP6 PUSH1 0x3 ADD DUP2 SWAP1 SSTORE POP TIMESTAMP DUP6 PUSH1 0x2 ADD DUP2 SWAP1 SSTORE POP POP POP POP POP POP JUMPDEST POP JUMP JUMPDEST PUSH0 PUSH1 0x5 DUP3 DUP2 SLOAD DUP2 LT PUSH2 0x947 JUMPI PUSH2 0x946 PUSH2 0x18FF JUMP JUMPDEST JUMPDEST SWAP1 PUSH0 MSTORE PUSH1 0x20 PUSH0 KECCAK256 SWAP1 PUSH1 0x5 MUL ADD SWAP1 POP PUSH0 PUSH1 0x6 PUSH0 DUP5 DUP2 MSTORE PUSH1 0x20 ADD SWAP1 DUP2 MSTORE PUSH1 0x20 ADD PUSH0 KECCAK256 PUSH0 CALLER PUSH20 0xFFFFFFFFFFFFFFFFFFFFFFFFFFFFFFFFFFFFFFFF AND PUSH20 0xFFFFFFFFFFFFFFFFFFFFFFFFFFFFFFFFFFFFFFFF AND DUP2 MSTORE PUSH1 0x20 ADD SWAP1 DUP2 MSTORE PUSH1 0x20 ADD PUSH0 KECCAK256 SWAP1 POP PUSH2 0x9F4 CALLER DUP3 PUSH0 ADD SLOAD DUP5 PUSH0 ADD PUSH0 SWAP1 SLOAD SWAP1 PUSH2 0x100 EXP SWAP1 DIV PUSH20 0xFFFFFFFFFFFFFFFFFFFFFFFFFFFFFFFFFFFFFFFF AND PUSH20 0xFFFFFFFFFFFFFFFFFFFFFFFFFFFFFFFFFFFFFFFF AND PUSH2 0x1218 SWAP1 SWAP3 SWAP2 SWAP1 PUSH4 0xFFFFFFFF AND JUMP JUMPDEST DUP1 PUSH0 ADD SLOAD DUP3 PUSH1 0x4 ADD SLOAD PUSH2 0xA07 SWAP2 SWAP1 PUSH2 0x188B JUMP JUMPDEST DUP3 PUSH1 0x4 ADD DUP2 SWAP1 SSTORE POP DUP3 CALLER PUSH20 0xFFFFFFFFFFFFFFFFFFFFFFFFFFFFFFFFFFFFFFFF AND PUSH32 0xBB757047C2B5F3974FE26B7C10F732E7BCE710B0952A71082702781E62AE0595 DUP4 PUSH0 ADD SLOAD PUSH1 0x40 MLOAD PUSH2 0xA59 SWAP2 SWAP1 PUSH2 0x1494 JUMP JUMPDEST PUSH1 0x40 MLOAD DUP1 SWAP2 SUB SWAP1 LOG3 PUSH0 DUP2 PUSH0 ADD DUP2 SWAP1 SSTORE POP PUSH0 DUP2 PUSH1 0x1 ADD DUP2 SWAP1 SSTORE POP POP POP POP JUMP JUMPDEST PUSH1 0x2 SLOAD DUP2 JUMP JUMPDEST PUSH0 PUSH1 0x5 DUP1 SLOAD SWAP1 POP SWAP1 POP PUSH0 JUMPDEST DUP2 DUP2 LT ISZERO PUSH2 0xAA4 JUMPI PUSH2 0xA99 DUP2 PUSH2 0x838 JUMP JUMPDEST DUP1 PUSH1 0x1 ADD SWAP1 POP PUSH2 0xA88 JUMP JUMPDEST POP POP JUMP JUMPDEST PUSH2 0xAB0 PUSH2 0x10D8 JUMP JUMPDEST DUP1 ISZERO PUSH2 0xABF JUMPI PUSH2 0xABE PUSH2 0xA7D JUMP JUMPDEST JUMPDEST DUP2 PUSH1 0x5 DUP5 DUP2 SLOAD DUP2 LT PUSH2 0xAD4 JUMPI PUSH2 0xAD3 PUSH2 0x18FF JUMP JUMPDEST JUMPDEST SWAP1 PUSH0 MSTORE PUSH1 0x20 PUSH0 KECCAK256 SWAP1 PUSH1 0x5 MUL ADD PUSH1 0x1 ADD SLOAD PUSH1 0x7 SLOAD PUSH2 0xAF1 SWAP2 SWAP1 PUSH2 0x188B JUMP JUMPDEST PUSH2 0xAFB SWAP2 SWAP1 PUSH2 0x1858 JUMP JUMPDEST PUSH1 0x7 DUP2 SWAP1 SSTORE POP DUP2 PUSH1 0x5 DUP5 DUP2 SLOAD DUP2 LT PUSH2 0xB16 JUMPI PUSH2 0xB15 PUSH2 0x18FF JUMP JUMPDEST JUMPDEST SWAP1 PUSH0 MSTORE PUSH1 0x20 PUSH0 KECCAK256 SWAP1 PUSH1 0x5 MUL ADD PUSH1 0x1 ADD DUP2 SWAP1 SSTORE POP POP POP POP JUMP JUMPDEST PUSH2 0xB36 PUSH2 0x10D8 JUMP JUMPDEST PUSH2 0xB3F PUSH0 PUSH2 0x1297 JUMP JUMPDEST JUMP JUMPDEST PUSH1 0x1 PUSH0 SWAP1 SLOAD SWAP1 PUSH2 0x100 EXP SWAP1 DIV PUSH20 0xFFFFFFFFFFFFFFFFFFFFFFFFFFFFFFFFFFFFFFFF AND DUP2 JUMP JUMPDEST PUSH0 DUP1 PUSH0 SWAP1 SLOAD SWAP1 PUSH2 0x100 EXP SWAP1 DIV PUSH20 0xFFFFFFFFFFFFFFFFFFFFFFFFFFFFFFFFFFFFFFFF AND SWAP1 POP SWAP1 JUMP JUMPDEST PUSH1 0x3 SLOAD DUP2 JUMP JUMPDEST PUSH1 0x6 PUSH1 0x20 MSTORE DUP2 PUSH0 MSTORE PUSH1 0x40 PUSH0 KECCAK256 PUSH1 0x20 MSTORE DUP1 PUSH0 MSTORE PUSH1 0x40 PUSH0 KECCAK256 PUSH0 SWAP2 POP SWAP2 POP POP DUP1 PUSH0 ADD SLOAD SWAP1 DUP1 PUSH1 0x1 ADD SLOAD SWAP1 POP DUP3 JUMP JUMPDEST PUSH0 DUP1 PUSH1 0x6 PUSH0 DUP6 DUP2 MSTORE PUSH1 0x20 ADD SWAP1 DUP2 MSTORE PUSH1 0x20 ADD PUSH0 KECCAK256 PUSH0 DUP5 PUSH20 0xFFFFFFFFFFFFFFFFFFFFFFFFFFFFFFFFFFFFFFFF AND PUSH20 0xFFFFFFFFFFFFFFFFFFFFFFFFFFFFFFFFFFFFFFFF AND DUP2 MSTORE PUSH1 0x20 ADD SWAP1 DUP2 MSTORE PUSH1 0x20 ADD PUSH0 KECCAK256 SWAP1 POP DUP1 PUSH0 ADD SLOAD SWAP2 POP POP SWAP3 SWAP2 POP POP JUMP JUMPDEST PUSH1 0x9 SLOAD DUP2 JUMP JUMPDEST PUSH1 0x9 SLOAD TIMESTAMP LT PUSH2 0xC65 JUMPI PUSH1 0x40 MLOAD PUSH32 0x8C379A000000000000000000000000000000000000000000000000000000000 DUP2 MSTORE PUSH1 0x4 ADD PUSH2 0xC5C SWAP1 PUSH2 0x1A97 JUMP JUMPDEST PUSH1 0x40 MLOAD DUP1 SWAP2 SUB SWAP1 REVERT JUMPDEST PUSH2 0xCB3 CALLER ADDRESS DUP4 PUSH1 0x1 PUSH0 SWAP1 SLOAD SWAP1 PUSH2 0x100 EXP SWAP1 DIV PUSH20 0xFFFFFFFFFFFFFFFFFFFFFFFFFFFFFFFFFFFFFFFF AND PUSH20 0xFFFFFFFFFFFFFFFFFFFFFFFFFFFFFFFFFFFFFFFF AND PUSH2 0x1358 SWAP1 SWAP4 SWAP3 SWAP2 SWAP1 PUSH4 0xFFFFFFFF AND JUMP JUMPDEST PUSH1 0x3 SLOAD DUP2 PUSH2 0xCC1 SWAP2 SWAP1 PUSH2 0x19F7 JUMP JUMPDEST PUSH1 0x9 PUSH0 DUP3 DUP3 SLOAD PUSH2 0xCD1 SWAP2 SWAP1 PUSH2 0x1858 JUMP JUMPDEST SWAP3 POP POP DUP2 SWAP1 SSTORE POP DUP1 PUSH1 0x4 SLOAD PUSH2 0xCE6 SWAP2 SWAP1 PUSH2 0x1858 JUMP JUMPDEST PUSH1 0x4 DUP2 SWAP1 SSTORE POP POP JUMP JUMPDEST PUSH0 PUSH1 0x5 DUP4 DUP2 SLOAD DUP2 LT PUSH2 0xD04 JUMPI PUSH2 0xD03 PUSH2 0x18FF JUMP JUMPDEST JUMPDEST SWAP1 PUSH0 MSTORE PUSH1 0x20 PUSH0 KECCAK256 SWAP1 PUSH1 0x5 MUL ADD SWAP1 POP PUSH0 PUSH1 0x6 PUSH0 DUP6 DUP2 MSTORE PUSH1 0x20 ADD SWAP1 DUP2 MSTORE PUSH1 0x20 ADD PUSH0 KECCAK256 PUSH0 CALLER PUSH20 0xFFFFFFFFFFFFFFFFFFFFFFFFFFFFFFFFFFFFFFFF AND PUSH20 0xFFFFFFFFFFFFFFFFFFFFFFFFFFFFFFFFFFFFFFFF AND DUP2 MSTORE PUSH1 0x20 ADD SWAP1 DUP2 MSTORE PUSH1 0x20 ADD PUSH0 KECCAK256 SWAP1 POP PUSH2 0xD6A DUP5 PUSH2 0x838 JUMP JUMPDEST PUSH0 DUP2 PUSH0 ADD SLOAD GT ISZERO PUSH2 0xDC0 JUMPI PUSH0 DUP2 PUSH1 0x1 ADD SLOAD PUSH15 0xC097CE7BC90715B34B9F1000000000 DUP5 PUSH1 0x3 ADD SLOAD DUP5 PUSH0 ADD SLOAD PUSH2 0xD9E SWAP2 SWAP1 PUSH2 0x18BE JUMP JUMPDEST PUSH2 0xDA8 SWAP2 SWAP1 PUSH2 0x19F7 JUMP JUMPDEST PUSH2 0xDB2 SWAP2 SWAP1 PUSH2 0x188B JUMP JUMPDEST SWAP1 POP PUSH2 0xDBE CALLER DUP3 PUSH2 0x115F JUMP JUMPDEST POP JUMPDEST PUSH2 0xE0F CALLER ADDRESS DUP6 DUP6 PUSH0 ADD PUSH0 SWAP1 SLOAD SWAP1 PUSH2 0x100 EXP SWAP1 DIV PUSH20 0xFFFFFFFFFFFFFFFFFFFFFFFFFFFFFFFFFFFFFFFF AND PUSH20 0xFFFFFFFFFFFFFFFFFFFFFFFFFFFFFFFFFFFFFFFF AND PUSH2 0x1358 SWAP1 SWAP4 SWAP3 SWAP2 SWAP1 PUSH4 0xFFFFFFFF AND JUMP JUMPDEST DUP3 DUP3 PUSH1 0x4 ADD SLOAD PUSH2 0xE1F SWAP2 SWAP1 PUSH2 0x1858 JUMP JUMPDEST DUP3 PUSH1 0x4 ADD DUP2 SWAP1 SSTORE POP DUP3 DUP2 PUSH0 ADD SLOAD PUSH2 0xE36 SWAP2 SWAP1 PUSH2 0x1858 JUMP JUMPDEST DUP2 PUSH0 ADD DUP2 SWAP1 SSTORE POP PUSH15 0xC097CE7BC90715B34B9F1000000000 DUP3 PUSH1 0x3 ADD SLOAD DUP3 PUSH0 ADD SLOAD PUSH2 0xE60 SWAP2 SWAP1 PUSH2 0x18BE JUMP JUMPDEST PUSH2 0xE6A SWAP2 SWAP1 PUSH2 0x19F7 JUMP JUMPDEST DUP2 PUSH1 0x1 ADD DUP2 SWAP1 SSTORE POP DUP4 CALLER PUSH20 0xFFFFFFFFFFFFFFFFFFFFFFFFFFFFFFFFFFFFFFFF AND PUSH32 0x90890809C654F11D6E72A28FA60149770A0D11EC6C92319D6CEB2BB0A4EA1A15 DUP6 PUSH1 0x40 MLOAD PUSH2 0xEB9 SWAP2 SWAP1 PUSH2 0x1494 JUMP JUMPDEST PUSH1 0x40 MLOAD DUP1 SWAP2 SUB SWAP1 LOG3 POP POP POP POP JUMP JUMPDEST PUSH0 DUP1 PUSH1 0x5 DUP5 DUP2 SLOAD DUP2 LT PUSH2 0xEDD JUMPI PUSH2 0xEDC PUSH2 0x18FF JUMP JUMPDEST JUMPDEST SWAP1 PUSH0 MSTORE PUSH1 0x20 PUSH0 KECCAK256 SWAP1 PUSH1 0x5 MUL ADD SWAP1 POP PUSH0 PUSH1 0x6 PUSH0 DUP7 DUP2 MSTORE PUSH1 0x20 ADD SWAP1 DUP2 MSTORE PUSH1 0x20 ADD PUSH0 KECCAK256 PUSH0 DUP6 PUSH20 0xFFFFFFFFFFFFFFFFFFFFFFFFFFFFFFFFFFFFFFFF AND PUSH20 0xFFFFFFFFFFFFFFFFFFFFFFFFFFFFFFFFFFFFFFFF AND DUP2 MSTORE PUSH1 0x20 ADD SWAP1 DUP2 MSTORE PUSH1 0x20 ADD PUSH0 KECCAK256 SWAP1 POP PUSH0 DUP3 PUSH1 0x3 ADD SLOAD SWAP1 POP PUSH0 DUP4 PUSH1 0x4 ADD SLOAD SWAP1 POP DUP4 PUSH1 0x2 ADD SLOAD TIMESTAMP GT DUP1 ISZERO PUSH2 0xF5D JUMPI POP PUSH0 DUP2 EQ ISZERO JUMPDEST ISZERO PUSH2 0x100A JUMPI PUSH0 PUSH1 0x9 SLOAD TIMESTAMP LT PUSH2 0xF74 JUMPI PUSH1 0x9 SLOAD PUSH2 0xF76 JUMP JUMPDEST TIMESTAMP JUMPDEST SWAP1 POP PUSH0 PUSH1 0x9 SLOAD DUP7 PUSH1 0x2 ADD SLOAD LT PUSH2 0xF8E JUMPI PUSH1 0x9 SLOAD PUSH2 0xF94 JUMP JUMPDEST DUP6 PUSH1 0x2 ADD SLOAD JUMPDEST SWAP1 POP PUSH0 DUP2 DUP4 PUSH2 0xFA3 SWAP2 SWAP1 PUSH2 0x188B JUMP JUMPDEST SWAP1 POP PUSH0 PUSH1 0x7 SLOAD DUP9 PUSH1 0x1 ADD SLOAD PUSH1 0x3 SLOAD DUP5 PUSH2 0xFBC SWAP2 SWAP1 PUSH2 0x18BE JUMP JUMPDEST PUSH2 0xFC6 SWAP2 SWAP1 PUSH2 0x18BE JUMP JUMPDEST PUSH2 0xFD0 SWAP2 SWAP1 PUSH2 0x19F7 JUMP JUMPDEST SWAP1 POP DUP5 PUSH15 0xC097CE7BC90715B34B9F1000000000 DUP3 PUSH2 0xFEE SWAP2 SWAP1 PUSH2 0x18BE JUMP JUMPDEST PUSH2 0xFF8 SWAP2 SWAP1 PUSH2 0x19F7 JUMP JUMPDEST DUP7 PUSH2 0x1003 SWAP2 SWAP1 PUSH2 0x1858 JUMP JUMPDEST SWAP6 POP POP POP POP POP JUMPDEST DUP3 PUSH1 0x1 ADD SLOAD PUSH15 0xC097CE7BC90715B34B9F1000000000 DUP4 DUP6 PUSH0 ADD SLOAD PUSH2 0x102E SWAP2 SWAP1 PUSH2 0x18BE JUMP JUMPDEST PUSH2 0x1038 SWAP2 SWAP1 PUSH2 0x19F7 JUMP JUMPDEST PUSH2 0x1042 SWAP2 SWAP1 PUSH2 0x188B JUMP JUMPDEST SWAP5 POP POP POP POP POP SWAP3 SWAP2 POP POP JUMP JUMPDEST PUSH1 0x8 SLOAD DUP2 JUMP JUMPDEST PUSH2 0x105C PUSH2 0x10D8 JUMP JUMPDEST PUSH0 PUSH20 0xFFFFFFFFFFFFFFFFFFFFFFFFFFFFFFFFFFFFFFFF AND DUP2 PUSH20 0xFFFFFFFFFFFFFFFFFFFFFFFFFFFFFFFFFFFFFFFF AND SUB PUSH2 0x10CC JUMPI PUSH0 PUSH1 0x40 MLOAD PUSH32 0x1E4FBDF700000000000000000000000000000000000000000000000000000000 DUP2 MSTORE PUSH1 0x4 ADD PUSH2 0x10C3 SWAP2 SWAP1 PUSH2 0x1758 JUMP JUMPDEST PUSH1 0x40 MLOAD DUP1 SWAP2 SUB SWAP1 REVERT JUMPDEST PUSH2 0x10D5 DUP2 PUSH2 0x1297 JUMP JUMPDEST POP JUMP JUMPDEST PUSH2 0x10E0 PUSH2 0x13DA JUMP JUMPDEST PUSH20 0xFFFFFFFFFFFFFFFFFFFFFFFFFFFFFFFFFFFFFFFF AND PUSH2 0x10FE PUSH2 0xB66 JUMP JUMPDEST PUSH20 0xFFFFFFFFFFFFFFFFFFFFFFFFFFFFFFFFFFFFFFFF AND EQ PUSH2 0x115D JUMPI PUSH2 0x1121 PUSH2 0x13DA JUMP JUMPDEST PUSH1 0x40 MLOAD PUSH32 0x118CDAA700000000000000000000000000000000000000000000000000000000 DUP2 MSTORE PUSH1 0x4 ADD PUSH2 0x1154 SWAP2 SWAP1 PUSH2 0x1758 JUMP JUMPDEST PUSH1 0x40 MLOAD DUP1 SWAP2 SUB SWAP1 REVERT JUMPDEST JUMP JUMPDEST PUSH1 0x1 PUSH0 SWAP1 SLOAD SWAP1 PUSH2 0x100 EXP SWAP1 DIV PUSH20 0xFFFFFFFFFFFFFFFFFFFFFFFFFFFFFFFFFFFFFFFF AND PUSH20 0xFFFFFFFFFFFFFFFFFFFFFFFFFFFFFFFFFFFFFFFF AND PUSH4 0xA9059CBB DUP4 DUP4 PUSH1 0x40 MLOAD DUP4 PUSH4 0xFFFFFFFF AND PUSH1 0xE0 SHL DUP2 MSTORE PUSH1 0x4 ADD PUSH2 0x11BB SWAP3 SWAP2 SWAP1 PUSH2 0x1AB5 JUMP JUMPDEST PUSH1 0x20 PUSH1 0x40 MLOAD DUP1 DUP4 SUB DUP2 PUSH0 DUP8 GAS CALL ISZERO DUP1 ISZERO PUSH2 0x11D7 JUMPI RETURNDATASIZE PUSH0 DUP1 RETURNDATACOPY RETURNDATASIZE PUSH0 REVERT JUMPDEST POP POP POP POP PUSH1 0x40 MLOAD RETURNDATASIZE PUSH1 0x1F NOT PUSH1 0x1F DUP3 ADD AND DUP3 ADD DUP1 PUSH1 0x40 MSTORE POP DUP2 ADD SWAP1 PUSH2 0x11FB SWAP2 SWAP1 PUSH2 0x1AF0 JUMP JUMPDEST POP DUP1 PUSH1 0x2 PUSH0 DUP3 DUP3 SLOAD PUSH2 0x120D SWAP2 SWAP1 PUSH2 0x1858 JUMP JUMPDEST SWAP3 POP POP DUP2 SWAP1 SSTORE POP POP POP JUMP JUMPDEST PUSH2 0x1292 DUP4 DUP5 PUSH20 0xFFFFFFFFFFFFFFFFFFFFFFFFFFFFFFFFFFFFFFFF AND PUSH4 0xA9059CBB DUP6 DUP6 PUSH1 0x40 MLOAD PUSH1 0x24 ADD PUSH2 0x124B SWAP3 SWAP2 SWAP1 PUSH2 0x1AB5 JUMP JUMPDEST PUSH1 0x40 MLOAD PUSH1 0x20 DUP2 DUP4 SUB SUB DUP2 MSTORE SWAP1 PUSH1 0x40 MSTORE SWAP2 POP PUSH1 0xE0 SHL PUSH1 0x20 DUP3 ADD DUP1 MLOAD PUSH28 0xFFFFFFFFFFFFFFFFFFFFFFFFFFFFFFFFFFFFFFFFFFFFFFFFFFFFFFFF DUP4 DUP2 DUP4 AND OR DUP4 MSTORE POP POP POP POP PUSH2 0x13E1 JUMP JUMPDEST POP POP POP JUMP JUMPDEST PUSH0 DUP1 PUSH0 SWAP1 SLOAD SWAP1 PUSH2 0x100 EXP SWAP1 DIV PUSH20 0xFFFFFFFFFFFFFFFFFFFFFFFFFFFFFFFFFFFFFFFF AND SWAP1 POP DUP2 PUSH0 DUP1 PUSH2 0x100 EXP DUP2 SLOAD DUP2 PUSH20 0xFFFFFFFFFFFFFFFFFFFFFFFFFFFFFFFFFFFFFFFF MUL NOT AND SWAP1 DUP4 PUSH20 0xFFFFFFFFFFFFFFFFFFFFFFFFFFFFFFFFFFFFFFFF AND MUL OR SWAP1 SSTORE POP DUP2 PUSH20 0xFFFFFFFFFFFFFFFFFFFFFFFFFFFFFFFFFFFFFFFF AND DUP2 PUSH20 0xFFFFFFFFFFFFFFFFFFFFFFFFFFFFFFFFFFFFFFFF AND PUSH32 0x8BE0079C531659141344CD1FD0A4F28419497F9722A3DAAFE3B4186F6B6457E0 PUSH1 0x40 MLOAD PUSH1 0x40 MLOAD DUP1 SWAP2 SUB SWAP1 LOG3 POP POP JUMP JUMPDEST PUSH2 0x13D4 DUP5 DUP6 PUSH20 0xFFFFFFFFFFFFFFFFFFFFFFFFFFFFFFFFFFFFFFFF AND PUSH4 0x23B872DD DUP7 DUP7 DUP7 PUSH1 0x40 MLOAD PUSH1 0x24 ADD PUSH2 0x138D SWAP4 SWAP3 SWAP2 SWAP1 PUSH2 0x1B1B JUMP JUMPDEST PUSH1 0x40 MLOAD PUSH1 0x20 DUP2 DUP4 SUB SUB DUP2 MSTORE SWAP1 PUSH1 0x40 MSTORE SWAP2 POP PUSH1 0xE0 SHL PUSH1 0x20 DUP3 ADD DUP1 MLOAD PUSH28 0xFFFFFFFFFFFFFFFFFFFFFFFFFFFFFFFFFFFFFFFFFFFFFFFFFFFFFFFF DUP4 DUP2 DUP4 AND OR DUP4 MSTORE POP POP POP POP PUSH2 0x13E1 JUMP JUMPDEST POP POP POP POP JUMP JUMPDEST PUSH0 CALLER SWAP1 POP SWAP1 JUMP JUMPDEST PUSH0 DUP1 PUSH1 0x20 PUSH0 DUP5 MLOAD PUSH1 0x20 DUP7 ADD PUSH0 DUP9 GAS CALL DUP1 PUSH2 0x1400 JUMPI PUSH1 0x40 MLOAD RETURNDATASIZE PUSH0 DUP3 RETURNDATACOPY RETURNDATASIZE DUP2 REVERT JUMPDEST RETURNDATASIZE SWAP3 POP PUSH0 MLOAD SWAP2 POP POP PUSH0 DUP3 EQ PUSH2 0x1419 JUMPI PUSH1 0x1 DUP2 EQ ISZERO PUSH2 0x1434 JUMP JUMPDEST PUSH0 DUP5 PUSH20 0xFFFFFFFFFFFFFFFFFFFFFFFFFFFFFFFFFFFFFFFF AND EXTCODESIZE EQ JUMPDEST ISZERO PUSH2 0x1476 JUMPI DUP4 PUSH1 0x40 MLOAD PUSH32 0x5274AFE700000000000000000000000000000000000000000000000000000000 DUP2 MSTORE PUSH1 0x4 ADD PUSH2 0x146D SWAP2 SWAP1 PUSH2 0x1758 JUMP JUMPDEST PUSH1 0x40 MLOAD DUP1 SWAP2 SUB SWAP1 REVERT JUMPDEST POP POP POP POP JUMP JUMPDEST PUSH0 DUP2 SWAP1 POP SWAP2 SWAP1 POP JUMP JUMPDEST PUSH2 0x148E DUP2 PUSH2 0x147C JUMP JUMPDEST DUP3 MSTORE POP POP JUMP JUMPDEST PUSH0 PUSH1 0x20 DUP3 ADD SWAP1 POP PUSH2 0x14A7 PUSH0 DUP4 ADD DUP5 PUSH2 0x1485 JUMP JUMPDEST SWAP3 SWAP2 POP POP JUMP JUMPDEST PUSH0 DUP1 REVERT JUMPDEST PUSH2 0x14BA DUP2 PUSH2 0x147C JUMP JUMPDEST DUP2 EQ PUSH2 0x14C4 JUMPI PUSH0 DUP1 REVERT JUMPDEST POP JUMP JUMPDEST PUSH0 DUP2 CALLDATALOAD SWAP1 POP PUSH2 0x14D5 DUP2 PUSH2 0x14B1 JUMP JUMPDEST SWAP3 SWAP2 POP POP JUMP JUMPDEST PUSH0 PUSH1 0x20 DUP3 DUP5 SUB SLT ISZERO PUSH2 0x14F0 JUMPI PUSH2 0x14EF PUSH2 0x14AD JUMP JUMPDEST JUMPDEST PUSH0 PUSH2 0x14FD DUP5 DUP3 DUP6 ADD PUSH2 0x14C7 JUMP JUMPDEST SWAP2 POP POP SWAP3 SWAP2 POP POP JUMP JUMPDEST PUSH0 PUSH20 0xFFFFFFFFFFFFFFFFFFFFFFFFFFFFFFFFFFFFFFFF DUP3 AND SWAP1 POP SWAP2 SWAP1 POP JUMP JUMPDEST PUSH0 DUP2 SWAP1 POP SWAP2 SWAP1 POP JUMP JUMPDEST PUSH0 PUSH2 0x1548 PUSH2 0x1543 PUSH2 0x153E DUP5 PUSH2 0x1506 JUMP JUMPDEST PUSH2 0x1525 JUMP JUMPDEST PUSH2 0x1506 JUMP JUMPDEST SWAP1 POP SWAP2 SWAP1 POP JUMP JUMPDEST PUSH0 PUSH2 0x1559 DUP3 PUSH2 0x152E JUMP JUMPDEST SWAP1 POP SWAP2 SWAP1 POP JUMP JUMPDEST PUSH0 PUSH2 0x156A DUP3 PUSH2 0x154F JUMP JUMPDEST SWAP1 POP SWAP2 SWAP1 POP JUMP JUMPDEST PUSH2 0x157A DUP2 PUSH2 0x1560 JUMP JUMPDEST DUP3 MSTORE POP POP JUMP JUMPDEST PUSH0 PUSH1 0xA0 DUP3 ADD SWAP1 POP PUSH2 0x1593 PUSH0 DUP4 ADD DUP9 PUSH2 0x1571 JUMP JUMPDEST PUSH2 0x15A0 PUSH1 0x20 DUP4 ADD DUP8 PUSH2 0x1485 JUMP JUMPDEST PUSH2 0x15AD PUSH1 0x40 DUP4 ADD DUP7 PUSH2 0x1485 JUMP JUMPDEST PUSH2 0x15BA PUSH1 0x60 DUP4 ADD DUP6 PUSH2 0x1485 JUMP JUMPDEST PUSH2 0x15C7 PUSH1 0x80 DUP4 ADD DUP5 PUSH2 0x1485 JUMP JUMPDEST SWAP7 SWAP6 POP POP POP POP POP POP JUMP JUMPDEST PUSH0 PUSH2 0x15DB DUP3 PUSH2 0x1506 JUMP JUMPDEST SWAP1 POP SWAP2 SWAP1 POP JUMP JUMPDEST PUSH0 PUSH2 0x15EC DUP3 PUSH2 0x15D1 JUMP JUMPDEST SWAP1 POP SWAP2 SWAP1 POP JUMP JUMPDEST PUSH2 0x15FC DUP2 PUSH2 0x15E2 JUMP JUMPDEST DUP2 EQ PUSH2 0x1606 JUMPI PUSH0 DUP1 REVERT JUMPDEST POP JUMP JUMPDEST PUSH0 DUP2 CALLDATALOAD SWAP1 POP PUSH2 0x1617 DUP2 PUSH2 0x15F3 JUMP JUMPDEST SWAP3 SWAP2 POP POP JUMP JUMPDEST PUSH0 DUP2 ISZERO ISZERO SWAP1 POP SWAP2 SWAP1 POP JUMP JUMPDEST PUSH2 0x1631 DUP2 PUSH2 0x161D JUMP JUMPDEST DUP2 EQ PUSH2 0x163B JUMPI PUSH0 DUP1 REVERT JUMPDEST POP JUMP JUMPDEST PUSH0 DUP2 CALLDATALOAD SWAP1 POP PUSH2 0x164C DUP2 PUSH2 0x1628 JUMP JUMPDEST SWAP3 SWAP2 POP POP JUMP JUMPDEST PUSH0 DUP1 PUSH0 PUSH1 0x60 DUP5 DUP7 SUB SLT ISZERO PUSH2 0x1669 JUMPI PUSH2 0x1668 PUSH2 0x14AD JUMP JUMPDEST JUMPDEST PUSH0 PUSH2 0x1676 DUP7 DUP3 DUP8 ADD PUSH2 0x14C7 JUMP JUMPDEST SWAP4 POP POP PUSH1 0x20 PUSH2 0x1687 DUP7 DUP3 DUP8 ADD PUSH2 0x1609 JUMP JUMPDEST SWAP3 POP POP PUSH1 0x40 PUSH2 0x1698 DUP7 DUP3 DUP8 ADD PUSH2 0x163E JUMP JUMPDEST SWAP2 POP POP SWAP3 POP SWAP3 POP SWAP3 JUMP JUMPDEST PUSH0 DUP1 PUSH1 0x40 DUP4 DUP6 SUB SLT ISZERO PUSH2 0x16B8 JUMPI PUSH2 0x16B7 PUSH2 0x14AD JUMP JUMPDEST JUMPDEST PUSH0 PUSH2 0x16C5 DUP6 DUP3 DUP7 ADD PUSH2 0x14C7 JUMP JUMPDEST SWAP3 POP POP PUSH1 0x20 PUSH2 0x16D6 DUP6 DUP3 DUP7 ADD PUSH2 0x14C7 JUMP JUMPDEST SWAP2 POP POP SWAP3 POP SWAP3 SWAP1 POP JUMP JUMPDEST PUSH0 DUP1 PUSH0 PUSH1 0x60 DUP5 DUP7 SUB SLT ISZERO PUSH2 0x16F7 JUMPI PUSH2 0x16F6 PUSH2 0x14AD JUMP JUMPDEST JUMPDEST PUSH0 PUSH2 0x1704 DUP7 DUP3 DUP8 ADD PUSH2 0x14C7 JUMP JUMPDEST SWAP4 POP POP PUSH1 0x20 PUSH2 0x1715 DUP7 DUP3 DUP8 ADD PUSH2 0x14C7 JUMP JUMPDEST SWAP3 POP POP PUSH1 0x40 PUSH2 0x1726 DUP7 DUP3 DUP8 ADD PUSH2 0x163E JUMP JUMPDEST SWAP2 POP POP SWAP3 POP SWAP3 POP SWAP3 JUMP JUMPDEST PUSH0 PUSH1 0x20 DUP3 ADD SWAP1 POP PUSH2 0x1743 PUSH0 DUP4 ADD DUP5 PUSH2 0x1571 JUMP JUMPDEST SWAP3 SWAP2 POP POP JUMP JUMPDEST PUSH2 0x1752 DUP2 PUSH2 0x15D1 JUMP JUMPDEST DUP3 MSTORE POP POP JUMP JUMPDEST PUSH0 PUSH1 0x20 DUP3 ADD SWAP1 POP PUSH2 0x176B PUSH0 DUP4 ADD DUP5 PUSH2 0x1749 JUMP JUMPDEST SWAP3 SWAP2 POP POP JUMP JUMPDEST PUSH2 0x177A DUP2 PUSH2 0x15D1 JUMP JUMPDEST DUP2 EQ PUSH2 0x1784 JUMPI PUSH0 DUP1 REVERT JUMPDEST POP JUMP JUMPDEST PUSH0 DUP2 CALLDATALOAD SWAP1 POP PUSH2 0x1795 DUP2 PUSH2 0x1771 JUMP JUMPDEST SWAP3 SWAP2 POP POP JUMP JUMPDEST PUSH0 DUP1 PUSH1 0x40 DUP4 DUP6 SUB SLT ISZERO PUSH2 0x17B1 JUMPI PUSH2 0x17B0 PUSH2 0x14AD JUMP JUMPDEST JUMPDEST PUSH0 PUSH2 0x17BE DUP6 DUP3 DUP7 ADD PUSH2 0x14C7 JUMP JUMPDEST SWAP3 POP POP PUSH1 0x20 PUSH2 0x17CF DUP6 DUP3 DUP7 ADD PUSH2 0x1787 JUMP JUMPDEST SWAP2 POP POP SWAP3 POP SWAP3 SWAP1 POP JUMP JUMPDEST PUSH0 PUSH1 0x40 DUP3 ADD SWAP1 POP PUSH2 0x17EC PUSH0 DUP4 ADD DUP6 PUSH2 0x1485 JUMP JUMPDEST PUSH2 0x17F9 PUSH1 0x20 DUP4 ADD DUP5 PUSH2 0x1485 JUMP JUMPDEST SWAP4 SWAP3 POP POP POP JUMP JUMPDEST PUSH0 PUSH1 0x20 DUP3 DUP5 SUB SLT ISZERO PUSH2 0x1815 JUMPI PUSH2 0x1814 PUSH2 0x14AD JUMP JUMPDEST JUMPDEST PUSH0 PUSH2 0x1822 DUP5 DUP3 DUP6 ADD PUSH2 0x1787 JUMP JUMPDEST SWAP2 POP POP SWAP3 SWAP2 POP POP JUMP JUMPDEST PUSH32 0x4E487B7100000000000000000000000000000000000000000000000000000000 PUSH0 MSTORE PUSH1 0x11 PUSH1 0x4 MSTORE PUSH1 0x24 PUSH0 REVERT JUMPDEST PUSH0 PUSH2 0x1862 DUP3 PUSH2 0x147C JUMP JUMPDEST SWAP2 POP PUSH2 0x186D DUP4 PUSH2 0x147C JUMP JUMPDEST SWAP3 POP DUP3 DUP3 ADD SWAP1 POP DUP1 DUP3 GT ISZERO PUSH2 0x1885 JUMPI PUSH2 0x1884 PUSH2 0x182B JUMP JUMPDEST JUMPDEST SWAP3 SWAP2 POP POP JUMP JUMPDEST PUSH0 PUSH2 0x1895 DUP3 PUSH2 0x147C JUMP JUMPDEST SWAP2 POP PUSH2 0x18A0 DUP4 PUSH2 0x147C JUMP JUMPDEST SWAP3 POP DUP3 DUP3 SUB SWAP1 POP DUP2 DUP2 GT ISZERO PUSH2 0x18B8 JUMPI PUSH2 0x18B7 PUSH2 0x182B JUMP JUMPDEST JUMPDEST SWAP3 SWAP2 POP POP JUMP JUMPDEST PUSH0 PUSH2 0x18C8 DUP3 PUSH2 0x147C JUMP JUMPDEST SWAP2 POP PUSH2 0x18D3 DUP4 PUSH2 0x147C JUMP JUMPDEST SWAP3 POP DUP3 DUP3 MUL PUSH2 0x18E1 DUP2 PUSH2 0x147C JUMP JUMPDEST SWAP2 POP DUP3 DUP3 DIV DUP5 EQ DUP4 ISZERO OR PUSH2 0x18F8 JUMPI PUSH2 0x18F7 PUSH2 0x182B JUMP JUMPDEST JUMPDEST POP SWAP3 SWAP2 POP POP JUMP JUMPDEST PUSH32 0x4E487B7100000000000000000000000000000000000000000000000000000000 PUSH0 MSTORE PUSH1 0x32 PUSH1 0x4 MSTORE PUSH1 0x24 PUSH0 REVERT JUMPDEST PUSH0 DUP3 DUP3 MSTORE PUSH1 0x20 DUP3 ADD SWAP1 POP SWAP3 SWAP2 POP POP JUMP JUMPDEST PUSH32 0x77697468647261773A2063616E2774207769746864726177206D6F7265207468 PUSH0 DUP3 ADD MSTORE PUSH32 0x616E206465706F73697400000000000000000000000000000000000000000000 PUSH1 0x20 DUP3 ADD MSTORE POP JUMP JUMPDEST PUSH0 PUSH2 0x1996 PUSH1 0x2A DUP4 PUSH2 0x192C JUMP JUMPDEST SWAP2 POP PUSH2 0x19A1 DUP3 PUSH2 0x193C JUMP JUMPDEST PUSH1 0x40 DUP3 ADD SWAP1 POP SWAP2 SWAP1 POP JUMP JUMPDEST PUSH0 PUSH1 0x20 DUP3 ADD SWAP1 POP DUP2 DUP2 SUB PUSH0 DUP4 ADD MSTORE PUSH2 0x19C3 DUP2 PUSH2 0x198A JUMP JUMPDEST SWAP1 POP SWAP2 SWAP1 POP JUMP JUMPDEST PUSH32 0x4E487B7100000000000000000000000000000000000000000000000000000000 PUSH0 MSTORE PUSH1 0x12 PUSH1 0x4 MSTORE PUSH1 0x24 PUSH0 REVERT JUMPDEST PUSH0 PUSH2 0x1A01 DUP3 PUSH2 0x147C JUMP JUMPDEST SWAP2 POP PUSH2 0x1A0C DUP4 PUSH2 0x147C JUMP JUMPDEST SWAP3 POP DUP3 PUSH2 0x1A1C JUMPI PUSH2 0x1A1B PUSH2 0x19CA JUMP JUMPDEST JUMPDEST DUP3 DUP3 DIV SWAP1 POP SWAP3 SWAP2 POP POP JUMP JUMPDEST PUSH32 0x66756E643A20746F6F206C6174652C20746865206661726D20697320636C6F73 PUSH0 DUP3 ADD MSTORE PUSH32 0x6564000000000000000000000000000000000000000000000000000000000000 PUSH1 0x20 DUP3 ADD MSTORE POP JUMP JUMPDEST PUSH0 PUSH2 0x1A81 PUSH1 0x22 DUP4 PUSH2 0x192C JUMP JUMPDEST SWAP2 POP PUSH2 0x1A8C DUP3 PUSH2 0x1A27 JUMP JUMPDEST PUSH1 0x40 DUP3 ADD SWAP1 POP SWAP2 SWAP1 POP JUMP JUMPDEST PUSH0 PUSH1 0x20 DUP3 ADD SWAP1 POP DUP2 DUP2 SUB PUSH0 DUP4 ADD MSTORE PUSH2 0x1AAE DUP2 PUSH2 0x1A75 JUMP JUMPDEST SWAP1 POP SWAP2 SWAP1 POP JUMP JUMPDEST PUSH0 PUSH1 0x40 DUP3 ADD SWAP1 POP PUSH2 0x1AC8 PUSH0 DUP4 ADD DUP6 PUSH2 0x1749 JUMP JUMPDEST PUSH2 0x1AD5 PUSH1 0x20 DUP4 ADD DUP5 PUSH2 0x1485 JUMP JUMPDEST SWAP4 SWAP3 POP POP POP JUMP JUMPDEST PUSH0 DUP2 MLOAD SWAP1 POP PUSH2 0x1AEA DUP2 PUSH2 0x1628 JUMP JUMPDEST SWAP3 SWAP2 POP POP JUMP JUMPDEST PUSH0 PUSH1 0x20 DUP3 DUP5 SUB SLT ISZERO PUSH2 0x1B05 JUMPI PUSH2 0x1B04 PUSH2 0x14AD JUMP JUMPDEST JUMPDEST PUSH0 PUSH2 0x1B12 DUP5 DUP3 DUP6 ADD PUSH2 0x1ADC JUMP JUMPDEST SWAP2 POP POP SWAP3 SWAP2 POP POP JUMP JUMPDEST PUSH0 PUSH1 0x60 DUP3 ADD SWAP1 POP PUSH2 0x1B2E PUSH0 DUP4 ADD DUP7 PUSH2 0x1749 JUMP JUMPDEST PUSH2 0x1B3B PUSH1 0x20 DUP4 ADD DUP6 PUSH2 0x1749 JUMP JUMPDEST PUSH2 0x1B48 PUSH1 0x40 DUP4 ADD DUP5 PUSH2 0x1485 JUMP JUMPDEST SWAP5 SWAP4 POP POP POP POP JUMP INVALID LOG2 PUSH5 0x6970667358 0x22 SLT KECCAK256 0xE1 0x28 PUSH11 0xD8ACAA8181C3A24A1FD0BF DUP15 0xC8 DUP15 SLT 0xEF RETURN 0xC1 0xAA MSIZE 0x21 ISZERO BALANCE PUSH30 0x5C36A2A23564736F6C634300081A00330000000000000000000000000000 "
				},
				"gasEstimates": {
					"creation": {
						"codeDepositCost": "1409200",
						"executionCost": "infinite",
						"totalCost": "infinite"
					},
					"external": {
						"add(uint256,address,bool)": "infinite",
						"deposit(uint256,uint256)": "infinite",
						"deposited(uint256,address)": "infinite",
						"emergencyWithdraw(uint256)": "infinite",
						"endTimestamp()": "2447",
						"erc20()": "infinite",
						"fund(uint256)": "infinite",
						"massUpdatePools()": "infinite",
						"owner()": "2582",
						"paidOut()": "2514",
						"pending(uint256,address)": "infinite",
						"poolInfo(uint256)": "infinite",
						"poolLength()": "2464",
						"renounceOwnership()": "infinite",
						"rewardPerSecond()": "2514",
						"set(uint256,uint256,bool)": "infinite",
						"startTimestamp()": "2535",
						"totalAllocPoint()": "2515",
						"totalPending()": "infinite",
						"totalRewards()": "2471",
						"transferOwnership(address)": "infinite",
						"updatePool(uint256)": "infinite",
						"userInfo(uint256,address)": "infinite",
						"withdraw(uint256,uint256)": "infinite"
					},
					"internal": {
						"erc20Transfer(address,uint256)": "infinite"
					}
				},
				"methodIdentifiers": {
					"add(uint256,address,bool)": "1eaaa045",
					"deposit(uint256,uint256)": "e2bbb158",
					"deposited(uint256,address)": "a2383106",
					"emergencyWithdraw(uint256)": "5312ea8e",
					"endTimestamp()": "a85adeab",
					"erc20()": "785e9e86",
					"fund(uint256)": "ca1d209d",
					"massUpdatePools()": "630b5ba1",
					"owner()": "8da5cb5b",
					"paidOut()": "5c76ca2d",
					"pending(uint256,address)": "e4c75c27",
					"poolInfo(uint256)": "1526fe27",
					"poolLength()": "081e3eda",
					"renounceOwnership()": "715018a6",
					"rewardPerSecond()": "8f10369a",
					"set(uint256,uint256,bool)": "64482f79",
					"startTimestamp()": "e6fd48bc",
					"totalAllocPoint()": "17caf6f1",
					"totalPending()": "3f90916a",
					"totalRewards()": "0e15561a",
					"transferOwnership(address)": "f2fde38b",
					"updatePool(uint256)": "51eb05a6",
					"userInfo(uint256,address)": "93f1a40b",
					"withdraw(uint256,uint256)": "441a3e70"
				}
			},
			"storageLayout": {
				"storage": [
					{
						"astId": 8,
						"contract": "contracts/openzeppelin/FarmingC2N.sol:FarmingC2N",
						"label": "_owner",
						"offset": 0,
						"slot": "0",
						"type": "t_address"
					},
					{
						"astId": 797,
						"contract": "contracts/openzeppelin/FarmingC2N.sol:FarmingC2N",
						"label": "erc20",
						"offset": 0,
						"slot": "1",
						"type": "t_contract(IERC20)315"
					},
					{
						"astId": 799,
						"contract": "contracts/openzeppelin/FarmingC2N.sol:FarmingC2N",
						"label": "paidOut",
						"offset": 0,
						"slot": "2",
						"type": "t_uint256"
					},
					{
						"astId": 801,
						"contract": "contracts/openzeppelin/FarmingC2N.sol:FarmingC2N",
						"label": "rewardPerSecond",
						"offset": 0,
						"slot": "3",
						"type": "t_uint256"
					},
					{
						"astId": 803,
						"contract": "contracts/openzeppelin/FarmingC2N.sol:FarmingC2N",
						"label": "totalRewards",
						"offset": 0,
						"slot": "4",
						"type": "t_uint256"
					},
					{
						"astId": 807,
						"contract": "contracts/openzeppelin/FarmingC2N.sol:FarmingC2N",
						"label": "poolInfo",
						"offset": 0,
						"slot": "5",
						"type": "t_array(t_struct(PoolInfo)794_storage)dyn_storage"
					},
					{
						"astId": 814,
						"contract": "contracts/openzeppelin/FarmingC2N.sol:FarmingC2N",
						"label": "userInfo",
						"offset": 0,
						"slot": "6",
						"type": "t_mapping(t_uint256,t_mapping(t_address,t_struct(UserInfo)782_storage))"
					},
					{
						"astId": 816,
						"contract": "contracts/openzeppelin/FarmingC2N.sol:FarmingC2N",
						"label": "totalAllocPoint",
						"offset": 0,
						"slot": "7",
						"type": "t_uint256"
					},
					{
						"astId": 818,
						"contract": "contracts/openzeppelin/FarmingC2N.sol:FarmingC2N",
						"label": "startTimestamp",
						"offset": 0,
						"slot": "8",
						"type": "t_uint256"
					},
					{
						"astId": 820,
						"contract": "contracts/openzeppelin/FarmingC2N.sol:FarmingC2N",
						"label": "endTimestamp",
						"offset": 0,
						"slot": "9",
						"type": "t_uint256"
					}
				],
				"types": {
					"t_address": {
						"encoding": "inplace",
						"label": "address",
						"numberOfBytes": "20"
					},
					"t_array(t_struct(PoolInfo)794_storage)dyn_storage": {
						"base": "t_struct(PoolInfo)794_storage",
						"encoding": "dynamic_array",
						"label": "struct FarmingC2N.PoolInfo[]",
						"numberOfBytes": "32"
					},
					"t_contract(IERC20)315": {
						"encoding": "inplace",
						"label": "contract IERC20",
						"numberOfBytes": "20"
					},
					"t_mapping(t_address,t_struct(UserInfo)782_storage)": {
						"encoding": "mapping",
						"key": "t_address",
						"label": "mapping(address => struct FarmingC2N.UserInfo)",
						"numberOfBytes": "32",
						"value": "t_struct(UserInfo)782_storage"
					},
					"t_mapping(t_uint256,t_mapping(t_address,t_struct(UserInfo)782_storage))": {
						"encoding": "mapping",
						"key": "t_uint256",
						"label": "mapping(uint256 => mapping(address => struct FarmingC2N.UserInfo))",
						"numberOfBytes": "32",
						"value": "t_mapping(t_address,t_struct(UserInfo)782_storage)"
					},
					"t_struct(PoolInfo)794_storage": {
						"encoding": "inplace",
						"label": "struct FarmingC2N.PoolInfo",
						"members": [
							{
								"astId": 785,
								"contract": "contracts/openzeppelin/FarmingC2N.sol:FarmingC2N",
								"label": "lpToken",
								"offset": 0,
								"slot": "0",
								"type": "t_contract(IERC20)315"
							},
							{
								"astId": 787,
								"contract": "contracts/openzeppelin/FarmingC2N.sol:FarmingC2N",
								"label": "allocPoint",
								"offset": 0,
								"slot": "1",
								"type": "t_uint256"
							},
							{
								"astId": 789,
								"contract": "contracts/openzeppelin/FarmingC2N.sol:FarmingC2N",
								"label": "lastRewardTimestamp",
								"offset": 0,
								"slot": "2",
								"type": "t_uint256"
							},
							{
								"astId": 791,
								"contract": "contracts/openzeppelin/FarmingC2N.sol:FarmingC2N",
								"label": "accERC20PerShare",
								"offset": 0,
								"slot": "3",
								"type": "t_uint256"
							},
							{
								"astId": 793,
								"contract": "contracts/openzeppelin/FarmingC2N.sol:FarmingC2N",
								"label": "totalDeposits",
								"offset": 0,
								"slot": "4",
								"type": "t_uint256"
							}
						],
						"numberOfBytes": "160"
					},
					"t_struct(UserInfo)782_storage": {
						"encoding": "inplace",
						"label": "struct FarmingC2N.UserInfo",
						"members": [
							{
								"astId": 779,
								"contract": "contracts/openzeppelin/FarmingC2N.sol:FarmingC2N",
								"label": "amount",
								"offset": 0,
								"slot": "0",
								"type": "t_uint256"
							},
							{
								"astId": 781,
								"contract": "contracts/openzeppelin/FarmingC2N.sol:FarmingC2N",
								"label": "rewardDebt",
								"offset": 0,
								"slot": "1",
								"type": "t_uint256"
							}
						],
						"numberOfBytes": "64"
					},
					"t_uint256": {
						"encoding": "inplace",
						"label": "uint256",
						"numberOfBytes": "32"
					}
				}
			},
			"userdoc": {
				"kind": "user",
				"methods": {},
				"version": 1
			}
		}
	}
}