{
	"contracts/openzeppelin/VerifySignature2.sol": {
		"VerifySignature2": {
			"abi": [
				{
					"inputs": [],
					"name": "ECDSAInvalidSignature",
					"type": "error"
				},
				{
					"inputs": [
						{
							"internalType": "uint256",
							"name": "length",
							"type": "uint256"
						}
					],
					"name": "ECDSAInvalidSignatureLength",
					"type": "error"
				},
				{
					"inputs": [
						{
							"internalType": "bytes32",
							"name": "s",
							"type": "bytes32"
						}
					],
					"name": "ECDSAInvalidSignatureS",
					"type": "error"
				},
				{
					"inputs": [
						{
							"internalType": "string",
							"name": "str",
							"type": "string"
						},
						{
							"internalType": "bytes",
							"name": "signature",
							"type": "bytes"
						}
					],
					"name": "recover",
					"outputs": [
						{
							"internalType": "address",
							"name": "",
							"type": "address"
						}
					],
					"stateMutability": "pure",
					"type": "function"
				}
			],
			"devdoc": {
				"errors": {
					"ECDSAInvalidSignature()": [
						{
							"details": "The signature derives the `address(0)`."
						}
					],
					"ECDSAInvalidSignatureLength(uint256)": [
						{
							"details": "The signature has an invalid length."
						}
					],
					"ECDSAInvalidSignatureS(bytes32)": [
						{
							"details": "The signature has an S value that is in the upper half order."
						}
					]
				},
				"kind": "dev",
				"methods": {},
				"version": 1
			},
			"evm": {
				"assembly": "    /* \"contracts/openzeppelin/VerifySignature2.sol\":315:638  contract VerifySignature2 {... */\n  mstore(0x40, 0x80)\n  callvalue\n  dup1\n  iszero\n  tag_1\n  jumpi\n  0x00\n  dup1\n  revert\ntag_1:\n  pop\n  dataSize(sub_0)\n  dup1\n  dataOffset(sub_0)\n  0x00\n  codecopy\n  0x00\n  return\nstop\n\nsub_0: assembly {\n        /* \"contracts/openzeppelin/VerifySignature2.sol\":315:638  contract VerifySignature2 {... */\n      mstore(0x40, 0x80)\n      callvalue\n      dup1\n      iszero\n      tag_1\n      jumpi\n      0x00\n      dup1\n      revert\n    tag_1:\n      pop\n      jumpi(tag_2, lt(calldatasize, 0x04))\n      shr(0xe0, calldataload(0x00))\n      dup1\n      0x7cebfb64\n      eq\n      tag_3\n      jumpi\n    tag_2:\n      0x00\n      dup1\n      revert\n        /* \"contracts/openzeppelin/VerifySignature2.sol\":421:635  function recover(string memory str, bytes memory signature) external pure returns(address) {... */\n    tag_3:\n      tag_4\n      0x04\n      dup1\n      calldatasize\n      sub\n      dup2\n      add\n      swap1\n      tag_5\n      swap2\n      swap1\n      tag_6\n      jump\t// in\n    tag_5:\n      tag_7\n      jump\t// in\n    tag_4:\n      mload(0x40)\n      tag_8\n      swap2\n      swap1\n      tag_9\n      jump\t// in\n    tag_8:\n      mload(0x40)\n      dup1\n      swap2\n      sub\n      swap1\n      return\n    tag_7:\n        /* \"contracts/openzeppelin/VerifySignature2.sol\":503:510  address */\n      0x00\n        /* \"contracts/openzeppelin/VerifySignature2.sol\":523:535  bytes32 hash */\n      dup1\n        /* \"contracts/openzeppelin/VerifySignature2.sol\":554:557  str */\n      dup4\n        /* \"contracts/openzeppelin/VerifySignature2.sol\":538:559  keccak256(bytes(str)) */\n      dup1\n      mload\n      swap1\n      0x20\n      add\n      keccak256\n        /* \"contracts/openzeppelin/VerifySignature2.sol\":523:559  bytes32 hash = keccak256(bytes(str)) */\n      swap1\n      pop\n        /* \"contracts/openzeppelin/VerifySignature2.sol\":579:627  hash.toEthSignedMessageHash().recover(signature) */\n      tag_11\n        /* \"contracts/openzeppelin/VerifySignature2.sol\":617:626  signature */\n      dup4\n        /* \"contracts/openzeppelin/VerifySignature2.sol\":579:608  hash.toEthSignedMessageHash() */\n      tag_12\n        /* \"contracts/openzeppelin/VerifySignature2.sol\":579:583  hash */\n      dup4\n        /* \"contracts/openzeppelin/VerifySignature2.sol\":579:606  hash.toEthSignedMessageHash */\n      tag_13\n        /* \"contracts/openzeppelin/VerifySignature2.sol\":579:608  hash.toEthSignedMessageHash() */\n      jump\t// in\n    tag_12:\n        /* \"contracts/openzeppelin/VerifySignature2.sol\":579:616  hash.toEthSignedMessageHash().recover */\n      tag_14\n      swap1\n        /* \"contracts/openzeppelin/VerifySignature2.sol\":579:627  hash.toEthSignedMessageHash().recover(signature) */\n      swap2\n      swap1\n      0xffffffff\n      and\n      jump\t// in\n    tag_11:\n        /* \"contracts/openzeppelin/VerifySignature2.sol\":572:627  return hash.toEthSignedMessageHash().recover(signature) */\n      swap2\n      pop\n      pop\n        /* \"contracts/openzeppelin/VerifySignature2.sol\":421:635  function recover(string memory str, bytes memory signature) external pure returns(address) {... */\n      swap3\n      swap2\n      pop\n      pop\n      jump\t// out\n        /* \"https://github.com/OpenZeppelin/openzeppelin-contracts/blob/v5.0.0-rc.0/contracts/utils/cryptography/MessageHashUtils.sol\":1227:1687  function toEthSignedMessageHash(bytes32 messageHash) internal pure returns (bytes32 digest) {... */\n    tag_13:\n        /* \"https://github.com/OpenZeppelin/openzeppelin-contracts/blob/v5.0.0-rc.0/contracts/utils/cryptography/MessageHashUtils.sol\":1303:1317  bytes32 digest */\n      0x00\n        /* \"https://github.com/OpenZeppelin/openzeppelin-contracts/blob/v5.0.0-rc.0/contracts/utils/cryptography/MessageHashUtils.sol\":1408:1442  \"\\x19Ethereum Signed Message:\\n32\" */\n      0x19457468657265756d205369676e6564204d6573736167653a0a333200000000\n        /* \"https://github.com/OpenZeppelin/openzeppelin-contracts/blob/v5.0.0-rc.0/contracts/utils/cryptography/MessageHashUtils.sol\":1402:1406  0x00 */\n      0x00\n        /* \"https://github.com/OpenZeppelin/openzeppelin-contracts/blob/v5.0.0-rc.0/contracts/utils/cryptography/MessageHashUtils.sol\":1395:1443  mstore(0x00, \"\\x19Ethereum Signed Message:\\n32\") */\n      mstore\n        /* \"https://github.com/OpenZeppelin/openzeppelin-contracts/blob/v5.0.0-rc.0/contracts/utils/cryptography/MessageHashUtils.sol\":1510:1521  messageHash */\n      dup2\n        /* \"https://github.com/OpenZeppelin/openzeppelin-contracts/blob/v5.0.0-rc.0/contracts/utils/cryptography/MessageHashUtils.sol\":1504:1508  0x1c */\n      0x1c\n        /* \"https://github.com/OpenZeppelin/openzeppelin-contracts/blob/v5.0.0-rc.0/contracts/utils/cryptography/MessageHashUtils.sol\":1497:1522  mstore(0x1c, messageHash) */\n      mstore\n        /* \"https://github.com/OpenZeppelin/openzeppelin-contracts/blob/v5.0.0-rc.0/contracts/utils/cryptography/MessageHashUtils.sol\":1602:1606  0x3c */\n      0x3c\n        /* \"https://github.com/OpenZeppelin/openzeppelin-contracts/blob/v5.0.0-rc.0/contracts/utils/cryptography/MessageHashUtils.sol\":1596:1600  0x00 */\n      0x00\n        /* \"https://github.com/OpenZeppelin/openzeppelin-contracts/blob/v5.0.0-rc.0/contracts/utils/cryptography/MessageHashUtils.sol\":1586:1607  keccak256(0x00, 0x3c) */\n      keccak256\n        /* \"https://github.com/OpenZeppelin/openzeppelin-contracts/blob/v5.0.0-rc.0/contracts/utils/cryptography/MessageHashUtils.sol\":1576:1607  digest := keccak256(0x00, 0x3c) */\n      swap1\n      pop\n        /* \"https://github.com/OpenZeppelin/openzeppelin-contracts/blob/v5.0.0-rc.0/contracts/utils/cryptography/MessageHashUtils.sol\":1227:1687  function toEthSignedMessageHash(bytes32 messageHash) internal pure returns (bytes32 digest) {... */\n      swap2\n      swap1\n      pop\n      jump\t// out\n        /* \"https://github.com/OpenZeppelin/openzeppelin-contracts/blob/v5.0.0-rc.0/contracts/utils/cryptography/ECDSA.sol\":3707:3962  function recover(bytes32 hash, bytes memory signature) internal pure returns (address) {... */\n    tag_14:\n        /* \"https://github.com/OpenZeppelin/openzeppelin-contracts/blob/v5.0.0-rc.0/contracts/utils/cryptography/ECDSA.sol\":3785:3792  address */\n      0x00\n        /* \"https://github.com/OpenZeppelin/openzeppelin-contracts/blob/v5.0.0-rc.0/contracts/utils/cryptography/ECDSA.sol\":3805:3822  address recovered */\n      dup1\n        /* \"https://github.com/OpenZeppelin/openzeppelin-contracts/blob/v5.0.0-rc.0/contracts/utils/cryptography/ECDSA.sol\":3824:3842  RecoverError error */\n      0x00\n        /* \"https://github.com/OpenZeppelin/openzeppelin-contracts/blob/v5.0.0-rc.0/contracts/utils/cryptography/ECDSA.sol\":3844:3860  bytes32 errorArg */\n      dup1\n        /* \"https://github.com/OpenZeppelin/openzeppelin-contracts/blob/v5.0.0-rc.0/contracts/utils/cryptography/ECDSA.sol\":3864:3891  tryRecover(hash, signature) */\n      tag_17\n        /* \"https://github.com/OpenZeppelin/openzeppelin-contracts/blob/v5.0.0-rc.0/contracts/utils/cryptography/ECDSA.sol\":3875:3879  hash */\n      dup7\n        /* \"https://github.com/OpenZeppelin/openzeppelin-contracts/blob/v5.0.0-rc.0/contracts/utils/cryptography/ECDSA.sol\":3881:3890  signature */\n      dup7\n        /* \"https://github.com/OpenZeppelin/openzeppelin-contracts/blob/v5.0.0-rc.0/contracts/utils/cryptography/ECDSA.sol\":3864:3874  tryRecover */\n      tag_18\n        /* \"https://github.com/OpenZeppelin/openzeppelin-contracts/blob/v5.0.0-rc.0/contracts/utils/cryptography/ECDSA.sol\":3864:3891  tryRecover(hash, signature) */\n      jump\t// in\n    tag_17:\n        /* \"https://github.com/OpenZeppelin/openzeppelin-contracts/blob/v5.0.0-rc.0/contracts/utils/cryptography/ECDSA.sol\":3804:3891  (address recovered, RecoverError error, bytes32 errorArg) = tryRecover(hash, signature) */\n      swap3\n      pop\n      swap3\n      pop\n      swap3\n      pop\n        /* \"https://github.com/OpenZeppelin/openzeppelin-contracts/blob/v5.0.0-rc.0/contracts/utils/cryptography/ECDSA.sol\":3901:3929  _throwError(error, errorArg) */\n      tag_19\n        /* \"https://github.com/OpenZeppelin/openzeppelin-contracts/blob/v5.0.0-rc.0/contracts/utils/cryptography/ECDSA.sol\":3913:3918  error */\n      dup3\n        /* \"https://github.com/OpenZeppelin/openzeppelin-contracts/blob/v5.0.0-rc.0/contracts/utils/cryptography/ECDSA.sol\":3920:3928  errorArg */\n      dup3\n        /* \"https://github.com/OpenZeppelin/openzeppelin-contracts/blob/v5.0.0-rc.0/contracts/utils/cryptography/ECDSA.sol\":3901:3912  _throwError */\n      tag_20\n        /* \"https://github.com/OpenZeppelin/openzeppelin-contracts/blob/v5.0.0-rc.0/contracts/utils/cryptography/ECDSA.sol\":3901:3929  _throwError(error, errorArg) */\n      jump\t// in\n    tag_19:\n        /* \"https://github.com/OpenZeppelin/openzeppelin-contracts/blob/v5.0.0-rc.0/contracts/utils/cryptography/ECDSA.sol\":3946:3955  recovered */\n      dup3\n        /* \"https://github.com/OpenZeppelin/openzeppelin-contracts/blob/v5.0.0-rc.0/contracts/utils/cryptography/ECDSA.sol\":3939:3955  return recovered */\n      swap4\n      pop\n      pop\n      pop\n      pop\n        /* \"https://github.com/OpenZeppelin/openzeppelin-contracts/blob/v5.0.0-rc.0/contracts/utils/cryptography/ECDSA.sol\":3707:3962  function recover(bytes32 hash, bytes memory signature) internal pure returns (address) {... */\n      swap3\n      swap2\n      pop\n      pop\n      jump\t// out\n        /* \"https://github.com/OpenZeppelin/openzeppelin-contracts/blob/v5.0.0-rc.0/contracts/utils/cryptography/ECDSA.sol\":2134:2900  function tryRecover(bytes32 hash, bytes memory signature) internal pure returns (address, RecoverError, bytes32) {... */\n    tag_18:\n        /* \"https://github.com/OpenZeppelin/openzeppelin-contracts/blob/v5.0.0-rc.0/contracts/utils/cryptography/ECDSA.sol\":2215:2222  address */\n      0x00\n        /* \"https://github.com/OpenZeppelin/openzeppelin-contracts/blob/v5.0.0-rc.0/contracts/utils/cryptography/ECDSA.sol\":2224:2236  RecoverError */\n      dup1\n        /* \"https://github.com/OpenZeppelin/openzeppelin-contracts/blob/v5.0.0-rc.0/contracts/utils/cryptography/ECDSA.sol\":2238:2245  bytes32 */\n      0x00\n        /* \"https://github.com/OpenZeppelin/openzeppelin-contracts/blob/v5.0.0-rc.0/contracts/utils/cryptography/ECDSA.sol\":2281:2283  65 */\n      0x41\n        /* \"https://github.com/OpenZeppelin/openzeppelin-contracts/blob/v5.0.0-rc.0/contracts/utils/cryptography/ECDSA.sol\":2261:2270  signature */\n      dup5\n        /* \"https://github.com/OpenZeppelin/openzeppelin-contracts/blob/v5.0.0-rc.0/contracts/utils/cryptography/ECDSA.sol\":2261:2277  signature.length */\n      mload\n        /* \"https://github.com/OpenZeppelin/openzeppelin-contracts/blob/v5.0.0-rc.0/contracts/utils/cryptography/ECDSA.sol\":2261:2283  signature.length == 65 */\n      sub\n        /* \"https://github.com/OpenZeppelin/openzeppelin-contracts/blob/v5.0.0-rc.0/contracts/utils/cryptography/ECDSA.sol\":2257:2894  if (signature.length == 65) {... */\n      tag_22\n      jumpi\n        /* \"https://github.com/OpenZeppelin/openzeppelin-contracts/blob/v5.0.0-rc.0/contracts/utils/cryptography/ECDSA.sol\":2299:2308  bytes32 r */\n      0x00\n        /* \"https://github.com/OpenZeppelin/openzeppelin-contracts/blob/v5.0.0-rc.0/contracts/utils/cryptography/ECDSA.sol\":2322:2331  bytes32 s */\n      dup1\n        /* \"https://github.com/OpenZeppelin/openzeppelin-contracts/blob/v5.0.0-rc.0/contracts/utils/cryptography/ECDSA.sol\":2345:2352  uint8 v */\n      0x00\n        /* \"https://github.com/OpenZeppelin/openzeppelin-contracts/blob/v5.0.0-rc.0/contracts/utils/cryptography/ECDSA.sol\":2597:2601  0x20 */\n      0x20\n        /* \"https://github.com/OpenZeppelin/openzeppelin-contracts/blob/v5.0.0-rc.0/contracts/utils/cryptography/ECDSA.sol\":2586:2595  signature */\n      dup8\n        /* \"https://github.com/OpenZeppelin/openzeppelin-contracts/blob/v5.0.0-rc.0/contracts/utils/cryptography/ECDSA.sol\":2582:2602  add(signature, 0x20) */\n      add\n        /* \"https://github.com/OpenZeppelin/openzeppelin-contracts/blob/v5.0.0-rc.0/contracts/utils/cryptography/ECDSA.sol\":2576:2603  mload(add(signature, 0x20)) */\n      mload\n        /* \"https://github.com/OpenZeppelin/openzeppelin-contracts/blob/v5.0.0-rc.0/contracts/utils/cryptography/ECDSA.sol\":2571:2603  r := mload(add(signature, 0x20)) */\n      swap3\n      pop\n        /* \"https://github.com/OpenZeppelin/openzeppelin-contracts/blob/v5.0.0-rc.0/contracts/utils/cryptography/ECDSA.sol\":2646:2650  0x40 */\n      0x40\n        /* \"https://github.com/OpenZeppelin/openzeppelin-contracts/blob/v5.0.0-rc.0/contracts/utils/cryptography/ECDSA.sol\":2635:2644  signature */\n      dup8\n        /* \"https://github.com/OpenZeppelin/openzeppelin-contracts/blob/v5.0.0-rc.0/contracts/utils/cryptography/ECDSA.sol\":2631:2651  add(signature, 0x40) */\n      add\n        /* \"https://github.com/OpenZeppelin/openzeppelin-contracts/blob/v5.0.0-rc.0/contracts/utils/cryptography/ECDSA.sol\":2625:2652  mload(add(signature, 0x40)) */\n      mload\n        /* \"https://github.com/OpenZeppelin/openzeppelin-contracts/blob/v5.0.0-rc.0/contracts/utils/cryptography/ECDSA.sol\":2620:2652  s := mload(add(signature, 0x40)) */\n      swap2\n      pop\n        /* \"https://github.com/OpenZeppelin/openzeppelin-contracts/blob/v5.0.0-rc.0/contracts/utils/cryptography/ECDSA.sol\":2703:2707  0x60 */\n      0x60\n        /* \"https://github.com/OpenZeppelin/openzeppelin-contracts/blob/v5.0.0-rc.0/contracts/utils/cryptography/ECDSA.sol\":2692:2701  signature */\n      dup8\n        /* \"https://github.com/OpenZeppelin/openzeppelin-contracts/blob/v5.0.0-rc.0/contracts/utils/cryptography/ECDSA.sol\":2688:2708  add(signature, 0x60) */\n      add\n        /* \"https://github.com/OpenZeppelin/openzeppelin-contracts/blob/v5.0.0-rc.0/contracts/utils/cryptography/ECDSA.sol\":2682:2709  mload(add(signature, 0x60)) */\n      mload\n        /* \"https://github.com/OpenZeppelin/openzeppelin-contracts/blob/v5.0.0-rc.0/contracts/utils/cryptography/ECDSA.sol\":2679:2680  0 */\n      0x00\n        /* \"https://github.com/OpenZeppelin/openzeppelin-contracts/blob/v5.0.0-rc.0/contracts/utils/cryptography/ECDSA.sol\":2674:2710  byte(0, mload(add(signature, 0x60))) */\n      byte\n        /* \"https://github.com/OpenZeppelin/openzeppelin-contracts/blob/v5.0.0-rc.0/contracts/utils/cryptography/ECDSA.sol\":2669:2710  v := byte(0, mload(add(signature, 0x60))) */\n      swap1\n      pop\n        /* \"https://github.com/OpenZeppelin/openzeppelin-contracts/blob/v5.0.0-rc.0/contracts/utils/cryptography/ECDSA.sol\":2744:2769  tryRecover(hash, v, r, s) */\n      tag_23\n        /* \"https://github.com/OpenZeppelin/openzeppelin-contracts/blob/v5.0.0-rc.0/contracts/utils/cryptography/ECDSA.sol\":2755:2759  hash */\n      dup9\n        /* \"https://github.com/OpenZeppelin/openzeppelin-contracts/blob/v5.0.0-rc.0/contracts/utils/cryptography/ECDSA.sol\":2761:2762  v */\n      dup3\n        /* \"https://github.com/OpenZeppelin/openzeppelin-contracts/blob/v5.0.0-rc.0/contracts/utils/cryptography/ECDSA.sol\":2764:2765  r */\n      dup6\n        /* \"https://github.com/OpenZeppelin/openzeppelin-contracts/blob/v5.0.0-rc.0/contracts/utils/cryptography/ECDSA.sol\":2767:2768  s */\n      dup6\n        /* \"https://github.com/OpenZeppelin/openzeppelin-contracts/blob/v5.0.0-rc.0/contracts/utils/cryptography/ECDSA.sol\":2744:2754  tryRecover */\n      tag_24\n        /* \"https://github.com/OpenZeppelin/openzeppelin-contracts/blob/v5.0.0-rc.0/contracts/utils/cryptography/ECDSA.sol\":2744:2769  tryRecover(hash, v, r, s) */\n      jump\t// in\n    tag_23:\n        /* \"https://github.com/OpenZeppelin/openzeppelin-contracts/blob/v5.0.0-rc.0/contracts/utils/cryptography/ECDSA.sol\":2737:2769  return tryRecover(hash, v, r, s) */\n      swap6\n      pop\n      swap6\n      pop\n      swap6\n      pop\n      pop\n      pop\n      pop\n      jump(tag_21)\n        /* \"https://github.com/OpenZeppelin/openzeppelin-contracts/blob/v5.0.0-rc.0/contracts/utils/cryptography/ECDSA.sol\":2257:2894  if (signature.length == 65) {... */\n    tag_22:\n        /* \"https://github.com/OpenZeppelin/openzeppelin-contracts/blob/v5.0.0-rc.0/contracts/utils/cryptography/ECDSA.sol\":2816:2817  0 */\n      0x00\n        /* \"https://github.com/OpenZeppelin/openzeppelin-contracts/blob/v5.0.0-rc.0/contracts/utils/cryptography/ECDSA.sol\":2820:2855  RecoverError.InvalidSignatureLength */\n      0x02\n        /* \"https://github.com/OpenZeppelin/openzeppelin-contracts/blob/v5.0.0-rc.0/contracts/utils/cryptography/ECDSA.sol\":2865:2874  signature */\n      dup6\n        /* \"https://github.com/OpenZeppelin/openzeppelin-contracts/blob/v5.0.0-rc.0/contracts/utils/cryptography/ECDSA.sol\":2865:2881  signature.length */\n      mload\n        /* \"https://github.com/OpenZeppelin/openzeppelin-contracts/blob/v5.0.0-rc.0/contracts/utils/cryptography/ECDSA.sol\":2857:2882  bytes32(signature.length) */\n      0x00\n      shl\n        /* \"https://github.com/OpenZeppelin/openzeppelin-contracts/blob/v5.0.0-rc.0/contracts/utils/cryptography/ECDSA.sol\":2800:2883  return (address(0), RecoverError.InvalidSignatureLength, bytes32(signature.length)) */\n      swap3\n      pop\n      swap3\n      pop\n      swap3\n      pop\n        /* \"https://github.com/OpenZeppelin/openzeppelin-contracts/blob/v5.0.0-rc.0/contracts/utils/cryptography/ECDSA.sol\":2134:2900  function tryRecover(bytes32 hash, bytes memory signature) internal pure returns (address, RecoverError, bytes32) {... */\n    tag_21:\n      swap3\n      pop\n      swap3\n      pop\n      swap3\n      jump\t// out\n        /* \"https://github.com/OpenZeppelin/openzeppelin-contracts/blob/v5.0.0-rc.0/contracts/utils/cryptography/ECDSA.sol\":7201:7733  function _throwError(RecoverError error, bytes32 errorArg) private pure {... */\n    tag_20:\n        /* \"https://github.com/OpenZeppelin/openzeppelin-contracts/blob/v5.0.0-rc.0/contracts/utils/cryptography/ECDSA.sol\":7296:7316  RecoverError.NoError */\n      0x00\n        /* \"https://github.com/OpenZeppelin/openzeppelin-contracts/blob/v5.0.0-rc.0/contracts/utils/cryptography/ECDSA.sol\":7287:7316  error == RecoverError.NoError */\n      0x03\n      dup2\n      gt\n      iszero\n      tag_27\n      jumpi\n      tag_28\n      tag_29\n      jump\t// in\n    tag_28:\n    tag_27:\n        /* \"https://github.com/OpenZeppelin/openzeppelin-contracts/blob/v5.0.0-rc.0/contracts/utils/cryptography/ECDSA.sol\":7287:7292  error */\n      dup3\n        /* \"https://github.com/OpenZeppelin/openzeppelin-contracts/blob/v5.0.0-rc.0/contracts/utils/cryptography/ECDSA.sol\":7287:7316  error == RecoverError.NoError */\n      0x03\n      dup2\n      gt\n      iszero\n      tag_30\n      jumpi\n      tag_31\n      tag_29\n      jump\t// in\n    tag_31:\n    tag_30:\n      sub\n        /* \"https://github.com/OpenZeppelin/openzeppelin-contracts/blob/v5.0.0-rc.0/contracts/utils/cryptography/ECDSA.sol\":7283:7727  if (error == RecoverError.NoError) {... */\n      iszero\n        /* \"https://github.com/OpenZeppelin/openzeppelin-contracts/blob/v5.0.0-rc.0/contracts/utils/cryptography/ECDSA.sol\":7332:7339  return; */\n      tag_26\n        /* \"https://github.com/OpenZeppelin/openzeppelin-contracts/blob/v5.0.0-rc.0/contracts/utils/cryptography/ECDSA.sol\":7283:7727  if (error == RecoverError.NoError) {... */\n      jumpi\n        /* \"https://github.com/OpenZeppelin/openzeppelin-contracts/blob/v5.0.0-rc.0/contracts/utils/cryptography/ECDSA.sol\":7392:7421  RecoverError.InvalidSignature */\n      0x01\n        /* \"https://github.com/OpenZeppelin/openzeppelin-contracts/blob/v5.0.0-rc.0/contracts/utils/cryptography/ECDSA.sol\":7383:7421  error == RecoverError.InvalidSignature */\n      0x03\n      dup2\n      gt\n      iszero\n      tag_34\n      jumpi\n      tag_35\n      tag_29\n      jump\t// in\n    tag_35:\n    tag_34:\n        /* \"https://github.com/OpenZeppelin/openzeppelin-contracts/blob/v5.0.0-rc.0/contracts/utils/cryptography/ECDSA.sol\":7383:7388  error */\n      dup3\n        /* \"https://github.com/OpenZeppelin/openzeppelin-contracts/blob/v5.0.0-rc.0/contracts/utils/cryptography/ECDSA.sol\":7383:7421  error == RecoverError.InvalidSignature */\n      0x03\n      dup2\n      gt\n      iszero\n      tag_36\n      jumpi\n      tag_37\n      tag_29\n      jump\t// in\n    tag_37:\n    tag_36:\n      sub\n        /* \"https://github.com/OpenZeppelin/openzeppelin-contracts/blob/v5.0.0-rc.0/contracts/utils/cryptography/ECDSA.sol\":7379:7727  if (error == RecoverError.InvalidSignature) {... */\n      tag_38\n      jumpi\n        /* \"https://github.com/OpenZeppelin/openzeppelin-contracts/blob/v5.0.0-rc.0/contracts/utils/cryptography/ECDSA.sol\":7444:7467  ECDSAInvalidSignature() */\n      mload(0x40)\n      0xf645eedf00000000000000000000000000000000000000000000000000000000\n      dup2\n      mstore\n      0x04\n      add\n      mload(0x40)\n      dup1\n      swap2\n      sub\n      swap1\n      revert\n        /* \"https://github.com/OpenZeppelin/openzeppelin-contracts/blob/v5.0.0-rc.0/contracts/utils/cryptography/ECDSA.sol\":7379:7727  if (error == RecoverError.InvalidSignature) {... */\n    tag_38:\n        /* \"https://github.com/OpenZeppelin/openzeppelin-contracts/blob/v5.0.0-rc.0/contracts/utils/cryptography/ECDSA.sol\":7497:7532  RecoverError.InvalidSignatureLength */\n      0x02\n        /* \"https://github.com/OpenZeppelin/openzeppelin-contracts/blob/v5.0.0-rc.0/contracts/utils/cryptography/ECDSA.sol\":7488:7532  error == RecoverError.InvalidSignatureLength */\n      0x03\n      dup2\n      gt\n      iszero\n      tag_40\n      jumpi\n      tag_41\n      tag_29\n      jump\t// in\n    tag_41:\n    tag_40:\n        /* \"https://github.com/OpenZeppelin/openzeppelin-contracts/blob/v5.0.0-rc.0/contracts/utils/cryptography/ECDSA.sol\":7488:7493  error */\n      dup3\n        /* \"https://github.com/OpenZeppelin/openzeppelin-contracts/blob/v5.0.0-rc.0/contracts/utils/cryptography/ECDSA.sol\":7488:7532  error == RecoverError.InvalidSignatureLength */\n      0x03\n      dup2\n      gt\n      iszero\n      tag_42\n      jumpi\n      tag_43\n      tag_29\n      jump\t// in\n    tag_43:\n    tag_42:\n      sub\n        /* \"https://github.com/OpenZeppelin/openzeppelin-contracts/blob/v5.0.0-rc.0/contracts/utils/cryptography/ECDSA.sol\":7484:7727  if (error == RecoverError.InvalidSignatureLength) {... */\n      tag_44\n      jumpi\n        /* \"https://github.com/OpenZeppelin/openzeppelin-contracts/blob/v5.0.0-rc.0/contracts/utils/cryptography/ECDSA.sol\":7591:7599  errorArg */\n      dup1\n        /* \"https://github.com/OpenZeppelin/openzeppelin-contracts/blob/v5.0.0-rc.0/contracts/utils/cryptography/ECDSA.sol\":7583:7600  uint256(errorArg) */\n      0x00\n      shr\n        /* \"https://github.com/OpenZeppelin/openzeppelin-contracts/blob/v5.0.0-rc.0/contracts/utils/cryptography/ECDSA.sol\":7555:7601  ECDSAInvalidSignatureLength(uint256(errorArg)) */\n      mload(0x40)\n      0xfce698f700000000000000000000000000000000000000000000000000000000\n      dup2\n      mstore\n      0x04\n      add\n      tag_45\n      swap2\n      swap1\n      tag_46\n      jump\t// in\n    tag_45:\n      mload(0x40)\n      dup1\n      swap2\n      sub\n      swap1\n      revert\n        /* \"https://github.com/OpenZeppelin/openzeppelin-contracts/blob/v5.0.0-rc.0/contracts/utils/cryptography/ECDSA.sol\":7484:7727  if (error == RecoverError.InvalidSignatureLength) {... */\n    tag_44:\n        /* \"https://github.com/OpenZeppelin/openzeppelin-contracts/blob/v5.0.0-rc.0/contracts/utils/cryptography/ECDSA.sol\":7631:7661  RecoverError.InvalidSignatureS */\n      0x03\n        /* \"https://github.com/OpenZeppelin/openzeppelin-contracts/blob/v5.0.0-rc.0/contracts/utils/cryptography/ECDSA.sol\":7622:7661  error == RecoverError.InvalidSignatureS */\n      dup1\n      dup2\n      gt\n      iszero\n      tag_48\n      jumpi\n      tag_49\n      tag_29\n      jump\t// in\n    tag_49:\n    tag_48:\n        /* \"https://github.com/OpenZeppelin/openzeppelin-contracts/blob/v5.0.0-rc.0/contracts/utils/cryptography/ECDSA.sol\":7622:7627  error */\n      dup3\n        /* \"https://github.com/OpenZeppelin/openzeppelin-contracts/blob/v5.0.0-rc.0/contracts/utils/cryptography/ECDSA.sol\":7622:7661  error == RecoverError.InvalidSignatureS */\n      0x03\n      dup2\n      gt\n      iszero\n      tag_50\n      jumpi\n      tag_51\n      tag_29\n      jump\t// in\n    tag_51:\n    tag_50:\n      sub\n        /* \"https://github.com/OpenZeppelin/openzeppelin-contracts/blob/v5.0.0-rc.0/contracts/utils/cryptography/ECDSA.sol\":7618:7727  if (error == RecoverError.InvalidSignatureS) {... */\n      tag_52\n      jumpi\n        /* \"https://github.com/OpenZeppelin/openzeppelin-contracts/blob/v5.0.0-rc.0/contracts/utils/cryptography/ECDSA.sol\":7707:7715  errorArg */\n      dup1\n        /* \"https://github.com/OpenZeppelin/openzeppelin-contracts/blob/v5.0.0-rc.0/contracts/utils/cryptography/ECDSA.sol\":7684:7716  ECDSAInvalidSignatureS(errorArg) */\n      mload(0x40)\n      0xd78bce0c00000000000000000000000000000000000000000000000000000000\n      dup2\n      mstore\n      0x04\n      add\n      tag_53\n      swap2\n      swap1\n      tag_54\n      jump\t// in\n    tag_53:\n      mload(0x40)\n      dup1\n      swap2\n      sub\n      swap1\n      revert\n        /* \"https://github.com/OpenZeppelin/openzeppelin-contracts/blob/v5.0.0-rc.0/contracts/utils/cryptography/ECDSA.sol\":7618:7727  if (error == RecoverError.InvalidSignatureS) {... */\n    tag_52:\n        /* \"https://github.com/OpenZeppelin/openzeppelin-contracts/blob/v5.0.0-rc.0/contracts/utils/cryptography/ECDSA.sol\":7201:7733  function _throwError(RecoverError error, bytes32 errorArg) private pure {... */\n    tag_26:\n      pop\n      pop\n      jump\t// out\n        /* \"https://github.com/OpenZeppelin/openzeppelin-contracts/blob/v5.0.0-rc.0/contracts/utils/cryptography/ECDSA.sol\":5145:6675  function tryRecover(... */\n    tag_24:\n        /* \"https://github.com/OpenZeppelin/openzeppelin-contracts/blob/v5.0.0-rc.0/contracts/utils/cryptography/ECDSA.sol\":5271:5278  address */\n      0x00\n        /* \"https://github.com/OpenZeppelin/openzeppelin-contracts/blob/v5.0.0-rc.0/contracts/utils/cryptography/ECDSA.sol\":5280:5292  RecoverError */\n      dup1\n        /* \"https://github.com/OpenZeppelin/openzeppelin-contracts/blob/v5.0.0-rc.0/contracts/utils/cryptography/ECDSA.sol\":5294:5301  bytes32 */\n      0x00\n        /* \"https://github.com/OpenZeppelin/openzeppelin-contracts/blob/v5.0.0-rc.0/contracts/utils/cryptography/ECDSA.sol\":6204:6270  0x7FFFFFFFFFFFFFFFFFFFFFFFFFFFFFFF5D576E7357A4501DDFE92F46681B20A0 */\n      0x7fffffffffffffffffffffffffffffff5d576e7357a4501ddfe92f46681b20a0\n        /* \"https://github.com/OpenZeppelin/openzeppelin-contracts/blob/v5.0.0-rc.0/contracts/utils/cryptography/ECDSA.sol\":6199:6200  s */\n      dup5\n        /* \"https://github.com/OpenZeppelin/openzeppelin-contracts/blob/v5.0.0-rc.0/contracts/utils/cryptography/ECDSA.sol\":6191:6201  uint256(s) */\n      0x00\n      shr\n        /* \"https://github.com/OpenZeppelin/openzeppelin-contracts/blob/v5.0.0-rc.0/contracts/utils/cryptography/ECDSA.sol\":6191:6270  uint256(s) > 0x7FFFFFFFFFFFFFFFFFFFFFFFFFFFFFFF5D576E7357A4501DDFE92F46681B20A0 */\n      gt\n        /* \"https://github.com/OpenZeppelin/openzeppelin-contracts/blob/v5.0.0-rc.0/contracts/utils/cryptography/ECDSA.sol\":6187:6351  if (uint256(s) > 0x7FFFFFFFFFFFFFFFFFFFFFFFFFFFFFFF5D576E7357A4501DDFE92F46681B20A0) {... */\n      iszero\n      tag_56\n      jumpi\n        /* \"https://github.com/OpenZeppelin/openzeppelin-contracts/blob/v5.0.0-rc.0/contracts/utils/cryptography/ECDSA.sol\":6302:6303  0 */\n      0x00\n        /* \"https://github.com/OpenZeppelin/openzeppelin-contracts/blob/v5.0.0-rc.0/contracts/utils/cryptography/ECDSA.sol\":6306:6336  RecoverError.InvalidSignatureS */\n      0x03\n        /* \"https://github.com/OpenZeppelin/openzeppelin-contracts/blob/v5.0.0-rc.0/contracts/utils/cryptography/ECDSA.sol\":6338:6339  s */\n      dup6\n        /* \"https://github.com/OpenZeppelin/openzeppelin-contracts/blob/v5.0.0-rc.0/contracts/utils/cryptography/ECDSA.sol\":6286:6340  return (address(0), RecoverError.InvalidSignatureS, s) */\n      swap3\n      pop\n      swap3\n      pop\n      swap3\n      pop\n      jump(tag_55)\n        /* \"https://github.com/OpenZeppelin/openzeppelin-contracts/blob/v5.0.0-rc.0/contracts/utils/cryptography/ECDSA.sol\":6187:6351  if (uint256(s) > 0x7FFFFFFFFFFFFFFFFFFFFFFFFFFFFFFF5D576E7357A4501DDFE92F46681B20A0) {... */\n    tag_56:\n        /* \"https://github.com/OpenZeppelin/openzeppelin-contracts/blob/v5.0.0-rc.0/contracts/utils/cryptography/ECDSA.sol\":6445:6459  address signer */\n      0x00\n        /* \"https://github.com/OpenZeppelin/openzeppelin-contracts/blob/v5.0.0-rc.0/contracts/utils/cryptography/ECDSA.sol\":6462:6486  ecrecover(hash, v, r, s) */\n      0x01\n        /* \"https://github.com/OpenZeppelin/openzeppelin-contracts/blob/v5.0.0-rc.0/contracts/utils/cryptography/ECDSA.sol\":6472:6476  hash */\n      dup9\n        /* \"https://github.com/OpenZeppelin/openzeppelin-contracts/blob/v5.0.0-rc.0/contracts/utils/cryptography/ECDSA.sol\":6478:6479  v */\n      dup9\n        /* \"https://github.com/OpenZeppelin/openzeppelin-contracts/blob/v5.0.0-rc.0/contracts/utils/cryptography/ECDSA.sol\":6481:6482  r */\n      dup9\n        /* \"https://github.com/OpenZeppelin/openzeppelin-contracts/blob/v5.0.0-rc.0/contracts/utils/cryptography/ECDSA.sol\":6484:6485  s */\n      dup9\n        /* \"https://github.com/OpenZeppelin/openzeppelin-contracts/blob/v5.0.0-rc.0/contracts/utils/cryptography/ECDSA.sol\":6462:6486  ecrecover(hash, v, r, s) */\n      mload(0x40)\n      0x00\n      dup2\n      mstore\n      0x20\n      add\n      0x40\n      mstore\n      mload(0x40)\n      tag_57\n      swap5\n      swap4\n      swap3\n      swap2\n      swap1\n      tag_58\n      jump\t// in\n    tag_57:\n      0x20\n      mload(0x40)\n      0x20\n      dup2\n      sub\n      swap1\n      dup1\n      dup5\n      sub\n      swap1\n      dup6\n      gas\n      staticcall\n      iszero\n      dup1\n      iszero\n      tag_60\n      jumpi\n      returndatasize\n      0x00\n      dup1\n      returndatacopy\n      revert(0x00, returndatasize)\n    tag_60:\n      pop\n      pop\n      pop\n      mload(sub(mload(0x40), 0x20))\n        /* \"https://github.com/OpenZeppelin/openzeppelin-contracts/blob/v5.0.0-rc.0/contracts/utils/cryptography/ECDSA.sol\":6445:6486  address signer = ecrecover(hash, v, r, s) */\n      swap1\n      pop\n        /* \"https://github.com/OpenZeppelin/openzeppelin-contracts/blob/v5.0.0-rc.0/contracts/utils/cryptography/ECDSA.sol\":6518:6519  0 */\n      0x00\n        /* \"https://github.com/OpenZeppelin/openzeppelin-contracts/blob/v5.0.0-rc.0/contracts/utils/cryptography/ECDSA.sol\":6500:6520  signer == address(0) */\n      0xffffffffffffffffffffffffffffffffffffffff\n      and\n        /* \"https://github.com/OpenZeppelin/openzeppelin-contracts/blob/v5.0.0-rc.0/contracts/utils/cryptography/ECDSA.sol\":6500:6506  signer */\n      dup2\n        /* \"https://github.com/OpenZeppelin/openzeppelin-contracts/blob/v5.0.0-rc.0/contracts/utils/cryptography/ECDSA.sol\":6500:6520  signer == address(0) */\n      0xffffffffffffffffffffffffffffffffffffffff\n      and\n      sub\n        /* \"https://github.com/OpenZeppelin/openzeppelin-contracts/blob/v5.0.0-rc.0/contracts/utils/cryptography/ECDSA.sol\":6496:6609  if (signer == address(0)) {... */\n      tag_61\n      jumpi\n        /* \"https://github.com/OpenZeppelin/openzeppelin-contracts/blob/v5.0.0-rc.0/contracts/utils/cryptography/ECDSA.sol\":6552:6553  0 */\n      0x00\n        /* \"https://github.com/OpenZeppelin/openzeppelin-contracts/blob/v5.0.0-rc.0/contracts/utils/cryptography/ECDSA.sol\":6556:6585  RecoverError.InvalidSignature */\n      0x01\n        /* \"https://github.com/OpenZeppelin/openzeppelin-contracts/blob/v5.0.0-rc.0/contracts/utils/cryptography/ECDSA.sol\":6595:6596  0 */\n      0x00\n        /* \"https://github.com/OpenZeppelin/openzeppelin-contracts/blob/v5.0.0-rc.0/contracts/utils/cryptography/ECDSA.sol\":6587:6597  bytes32(0) */\n      dup1\n      shl\n        /* \"https://github.com/OpenZeppelin/openzeppelin-contracts/blob/v5.0.0-rc.0/contracts/utils/cryptography/ECDSA.sol\":6536:6598  return (address(0), RecoverError.InvalidSignature, bytes32(0)) */\n      swap4\n      pop\n      swap4\n      pop\n      swap4\n      pop\n      pop\n      jump(tag_55)\n        /* \"https://github.com/OpenZeppelin/openzeppelin-contracts/blob/v5.0.0-rc.0/contracts/utils/cryptography/ECDSA.sol\":6496:6609  if (signer == address(0)) {... */\n    tag_61:\n        /* \"https://github.com/OpenZeppelin/openzeppelin-contracts/blob/v5.0.0-rc.0/contracts/utils/cryptography/ECDSA.sol\":6627:6633  signer */\n      dup1\n        /* \"https://github.com/OpenZeppelin/openzeppelin-contracts/blob/v5.0.0-rc.0/contracts/utils/cryptography/ECDSA.sol\":6635:6655  RecoverError.NoError */\n      0x00\n        /* \"https://github.com/OpenZeppelin/openzeppelin-contracts/blob/v5.0.0-rc.0/contracts/utils/cryptography/ECDSA.sol\":6665:6666  0 */\n      dup1\n        /* \"https://github.com/OpenZeppelin/openzeppelin-contracts/blob/v5.0.0-rc.0/contracts/utils/cryptography/ECDSA.sol\":6657:6667  bytes32(0) */\n      0x00\n      shl\n        /* \"https://github.com/OpenZeppelin/openzeppelin-contracts/blob/v5.0.0-rc.0/contracts/utils/cryptography/ECDSA.sol\":6619:6668  return (signer, RecoverError.NoError, bytes32(0)) */\n      swap4\n      pop\n      swap4\n      pop\n      swap4\n      pop\n      pop\n        /* \"https://github.com/OpenZeppelin/openzeppelin-contracts/blob/v5.0.0-rc.0/contracts/utils/cryptography/ECDSA.sol\":5145:6675  function tryRecover(... */\n    tag_55:\n      swap5\n      pop\n      swap5\n      pop\n      swap5\n      swap2\n      pop\n      pop\n      jump\t// out\n        /* \"#utility.yul\":7:82   */\n    tag_62:\n        /* \"#utility.yul\":40:46   */\n      0x00\n        /* \"#utility.yul\":73:75   */\n      0x40\n        /* \"#utility.yul\":67:76   */\n      mload\n        /* \"#utility.yul\":57:76   */\n      swap1\n      pop\n        /* \"#utility.yul\":7:82   */\n      swap1\n      jump\t// out\n        /* \"#utility.yul\":88:205   */\n    tag_63:\n        /* \"#utility.yul\":197:198   */\n      0x00\n        /* \"#utility.yul\":194:195   */\n      dup1\n        /* \"#utility.yul\":187:199   */\n      revert\n        /* \"#utility.yul\":211:328   */\n    tag_64:\n        /* \"#utility.yul\":320:321   */\n      0x00\n        /* \"#utility.yul\":317:318   */\n      dup1\n        /* \"#utility.yul\":310:322   */\n      revert\n        /* \"#utility.yul\":334:451   */\n    tag_65:\n        /* \"#utility.yul\":443:444   */\n      0x00\n        /* \"#utility.yul\":440:441   */\n      dup1\n        /* \"#utility.yul\":433:445   */\n      revert\n        /* \"#utility.yul\":457:574   */\n    tag_66:\n        /* \"#utility.yul\":566:567   */\n      0x00\n        /* \"#utility.yul\":563:564   */\n      dup1\n        /* \"#utility.yul\":556:568   */\n      revert\n        /* \"#utility.yul\":580:682   */\n    tag_67:\n        /* \"#utility.yul\":621:627   */\n      0x00\n        /* \"#utility.yul\":672:674   */\n      0x1f\n        /* \"#utility.yul\":668:675   */\n      not\n        /* \"#utility.yul\":663:665   */\n      0x1f\n        /* \"#utility.yul\":656:661   */\n      dup4\n        /* \"#utility.yul\":652:666   */\n      add\n        /* \"#utility.yul\":648:676   */\n      and\n        /* \"#utility.yul\":638:676   */\n      swap1\n      pop\n        /* \"#utility.yul\":580:682   */\n      swap2\n      swap1\n      pop\n      jump\t// out\n        /* \"#utility.yul\":688:868   */\n    tag_68:\n        /* \"#utility.yul\":736:813   */\n      0x4e487b7100000000000000000000000000000000000000000000000000000000\n        /* \"#utility.yul\":733:734   */\n      0x00\n        /* \"#utility.yul\":726:814   */\n      mstore\n        /* \"#utility.yul\":833:837   */\n      0x41\n        /* \"#utility.yul\":830:831   */\n      0x04\n        /* \"#utility.yul\":823:838   */\n      mstore\n        /* \"#utility.yul\":857:861   */\n      0x24\n        /* \"#utility.yul\":854:855   */\n      0x00\n        /* \"#utility.yul\":847:862   */\n      revert\n        /* \"#utility.yul\":874:1155   */\n    tag_69:\n        /* \"#utility.yul\":957:984   */\n      tag_96\n        /* \"#utility.yul\":979:983   */\n      dup3\n        /* \"#utility.yul\":957:984   */\n      tag_67\n      jump\t// in\n    tag_96:\n        /* \"#utility.yul\":949:955   */\n      dup2\n        /* \"#utility.yul\":945:985   */\n      add\n        /* \"#utility.yul\":1087:1093   */\n      dup2\n        /* \"#utility.yul\":1075:1085   */\n      dup2\n        /* \"#utility.yul\":1072:1094   */\n      lt\n        /* \"#utility.yul\":1051:1069   */\n      0xffffffffffffffff\n        /* \"#utility.yul\":1039:1049   */\n      dup3\n        /* \"#utility.yul\":1036:1070   */\n      gt\n        /* \"#utility.yul\":1033:1095   */\n      or\n        /* \"#utility.yul\":1030:1118   */\n      iszero\n      tag_97\n      jumpi\n        /* \"#utility.yul\":1098:1116   */\n      tag_98\n      tag_68\n      jump\t// in\n    tag_98:\n        /* \"#utility.yul\":1030:1118   */\n    tag_97:\n        /* \"#utility.yul\":1138:1148   */\n      dup1\n        /* \"#utility.yul\":1134:1136   */\n      0x40\n        /* \"#utility.yul\":1127:1149   */\n      mstore\n        /* \"#utility.yul\":917:1155   */\n      pop\n        /* \"#utility.yul\":874:1155   */\n      pop\n      pop\n      jump\t// out\n        /* \"#utility.yul\":1161:1290   */\n    tag_70:\n        /* \"#utility.yul\":1195:1201   */\n      0x00\n        /* \"#utility.yul\":1222:1242   */\n      tag_100\n      tag_62\n      jump\t// in\n    tag_100:\n        /* \"#utility.yul\":1212:1242   */\n      swap1\n      pop\n        /* \"#utility.yul\":1251:1284   */\n      tag_101\n        /* \"#utility.yul\":1279:1283   */\n      dup3\n        /* \"#utility.yul\":1271:1277   */\n      dup3\n        /* \"#utility.yul\":1251:1284   */\n      tag_69\n      jump\t// in\n    tag_101:\n        /* \"#utility.yul\":1161:1290   */\n      swap2\n      swap1\n      pop\n      jump\t// out\n        /* \"#utility.yul\":1296:1604   */\n    tag_71:\n        /* \"#utility.yul\":1358:1362   */\n      0x00\n        /* \"#utility.yul\":1448:1466   */\n      0xffffffffffffffff\n        /* \"#utility.yul\":1440:1446   */\n      dup3\n        /* \"#utility.yul\":1437:1467   */\n      gt\n        /* \"#utility.yul\":1434:1490   */\n      iszero\n      tag_103\n      jumpi\n        /* \"#utility.yul\":1470:1488   */\n      tag_104\n      tag_68\n      jump\t// in\n    tag_104:\n        /* \"#utility.yul\":1434:1490   */\n    tag_103:\n        /* \"#utility.yul\":1508:1537   */\n      tag_105\n        /* \"#utility.yul\":1530:1536   */\n      dup3\n        /* \"#utility.yul\":1508:1537   */\n      tag_67\n      jump\t// in\n    tag_105:\n        /* \"#utility.yul\":1500:1537   */\n      swap1\n      pop\n        /* \"#utility.yul\":1592:1596   */\n      0x20\n        /* \"#utility.yul\":1586:1590   */\n      dup2\n        /* \"#utility.yul\":1582:1597   */\n      add\n        /* \"#utility.yul\":1574:1597   */\n      swap1\n      pop\n        /* \"#utility.yul\":1296:1604   */\n      swap2\n      swap1\n      pop\n      jump\t// out\n        /* \"#utility.yul\":1610:1758   */\n    tag_72:\n        /* \"#utility.yul\":1708:1714   */\n      dup3\n        /* \"#utility.yul\":1703:1706   */\n      dup2\n        /* \"#utility.yul\":1698:1701   */\n      dup4\n        /* \"#utility.yul\":1685:1715   */\n      calldatacopy\n        /* \"#utility.yul\":1749:1750   */\n      0x00\n        /* \"#utility.yul\":1740:1746   */\n      dup4\n        /* \"#utility.yul\":1735:1738   */\n      dup4\n        /* \"#utility.yul\":1731:1747   */\n      add\n        /* \"#utility.yul\":1724:1751   */\n      mstore\n        /* \"#utility.yul\":1610:1758   */\n      pop\n      pop\n      pop\n      jump\t// out\n        /* \"#utility.yul\":1764:2189   */\n    tag_73:\n        /* \"#utility.yul\":1842:1847   */\n      0x00\n        /* \"#utility.yul\":1867:1933   */\n      tag_108\n        /* \"#utility.yul\":1883:1932   */\n      tag_109\n        /* \"#utility.yul\":1925:1931   */\n      dup5\n        /* \"#utility.yul\":1883:1932   */\n      tag_71\n      jump\t// in\n    tag_109:\n        /* \"#utility.yul\":1867:1933   */\n      tag_70\n      jump\t// in\n    tag_108:\n        /* \"#utility.yul\":1858:1933   */\n      swap1\n      pop\n        /* \"#utility.yul\":1956:1962   */\n      dup3\n        /* \"#utility.yul\":1949:1954   */\n      dup2\n        /* \"#utility.yul\":1942:1963   */\n      mstore\n        /* \"#utility.yul\":1994:1998   */\n      0x20\n        /* \"#utility.yul\":1987:1992   */\n      dup2\n        /* \"#utility.yul\":1983:1999   */\n      add\n        /* \"#utility.yul\":2032:2035   */\n      dup5\n        /* \"#utility.yul\":2023:2029   */\n      dup5\n        /* \"#utility.yul\":2018:2021   */\n      dup5\n        /* \"#utility.yul\":2014:2030   */\n      add\n        /* \"#utility.yul\":2011:2036   */\n      gt\n        /* \"#utility.yul\":2008:2120   */\n      iszero\n      tag_110\n      jumpi\n        /* \"#utility.yul\":2039:2118   */\n      tag_111\n      tag_66\n      jump\t// in\n    tag_111:\n        /* \"#utility.yul\":2008:2120   */\n    tag_110:\n        /* \"#utility.yul\":2129:2183   */\n      tag_112\n        /* \"#utility.yul\":2176:2182   */\n      dup5\n        /* \"#utility.yul\":2171:2174   */\n      dup3\n        /* \"#utility.yul\":2166:2169   */\n      dup6\n        /* \"#utility.yul\":2129:2183   */\n      tag_72\n      jump\t// in\n    tag_112:\n        /* \"#utility.yul\":1848:2189   */\n      pop\n        /* \"#utility.yul\":1764:2189   */\n      swap4\n      swap3\n      pop\n      pop\n      pop\n      jump\t// out\n        /* \"#utility.yul\":2209:2549   */\n    tag_74:\n        /* \"#utility.yul\":2265:2270   */\n      0x00\n        /* \"#utility.yul\":2314:2317   */\n      dup3\n        /* \"#utility.yul\":2307:2311   */\n      0x1f\n        /* \"#utility.yul\":2299:2305   */\n      dup4\n        /* \"#utility.yul\":2295:2312   */\n      add\n        /* \"#utility.yul\":2291:2318   */\n      slt\n        /* \"#utility.yul\":2281:2403   */\n      tag_114\n      jumpi\n        /* \"#utility.yul\":2322:2401   */\n      tag_115\n      tag_65\n      jump\t// in\n    tag_115:\n        /* \"#utility.yul\":2281:2403   */\n    tag_114:\n        /* \"#utility.yul\":2439:2445   */\n      dup2\n        /* \"#utility.yul\":2426:2446   */\n      calldataload\n        /* \"#utility.yul\":2464:2543   */\n      tag_116\n        /* \"#utility.yul\":2539:2542   */\n      dup5\n        /* \"#utility.yul\":2531:2537   */\n      dup3\n        /* \"#utility.yul\":2524:2528   */\n      0x20\n        /* \"#utility.yul\":2516:2522   */\n      dup7\n        /* \"#utility.yul\":2512:2529   */\n      add\n        /* \"#utility.yul\":2464:2543   */\n      tag_73\n      jump\t// in\n    tag_116:\n        /* \"#utility.yul\":2455:2543   */\n      swap2\n      pop\n        /* \"#utility.yul\":2271:2549   */\n      pop\n        /* \"#utility.yul\":2209:2549   */\n      swap3\n      swap2\n      pop\n      pop\n      jump\t// out\n        /* \"#utility.yul\":2555:2862   */\n    tag_75:\n        /* \"#utility.yul\":2616:2620   */\n      0x00\n        /* \"#utility.yul\":2706:2724   */\n      0xffffffffffffffff\n        /* \"#utility.yul\":2698:2704   */\n      dup3\n        /* \"#utility.yul\":2695:2725   */\n      gt\n        /* \"#utility.yul\":2692:2748   */\n      iszero\n      tag_118\n      jumpi\n        /* \"#utility.yul\":2728:2746   */\n      tag_119\n      tag_68\n      jump\t// in\n    tag_119:\n        /* \"#utility.yul\":2692:2748   */\n    tag_118:\n        /* \"#utility.yul\":2766:2795   */\n      tag_120\n        /* \"#utility.yul\":2788:2794   */\n      dup3\n        /* \"#utility.yul\":2766:2795   */\n      tag_67\n      jump\t// in\n    tag_120:\n        /* \"#utility.yul\":2758:2795   */\n      swap1\n      pop\n        /* \"#utility.yul\":2850:2854   */\n      0x20\n        /* \"#utility.yul\":2844:2848   */\n      dup2\n        /* \"#utility.yul\":2840:2855   */\n      add\n        /* \"#utility.yul\":2832:2855   */\n      swap1\n      pop\n        /* \"#utility.yul\":2555:2862   */\n      swap2\n      swap1\n      pop\n      jump\t// out\n        /* \"#utility.yul\":2868:3291   */\n    tag_76:\n        /* \"#utility.yul\":2945:2950   */\n      0x00\n        /* \"#utility.yul\":2970:3035   */\n      tag_122\n        /* \"#utility.yul\":2986:3034   */\n      tag_123\n        /* \"#utility.yul\":3027:3033   */\n      dup5\n        /* \"#utility.yul\":2986:3034   */\n      tag_75\n      jump\t// in\n    tag_123:\n        /* \"#utility.yul\":2970:3035   */\n      tag_70\n      jump\t// in\n    tag_122:\n        /* \"#utility.yul\":2961:3035   */\n      swap1\n      pop\n        /* \"#utility.yul\":3058:3064   */\n      dup3\n        /* \"#utility.yul\":3051:3056   */\n      dup2\n        /* \"#utility.yul\":3044:3065   */\n      mstore\n        /* \"#utility.yul\":3096:3100   */\n      0x20\n        /* \"#utility.yul\":3089:3094   */\n      dup2\n        /* \"#utility.yul\":3085:3101   */\n      add\n        /* \"#utility.yul\":3134:3137   */\n      dup5\n        /* \"#utility.yul\":3125:3131   */\n      dup5\n        /* \"#utility.yul\":3120:3123   */\n      dup5\n        /* \"#utility.yul\":3116:3132   */\n      add\n        /* \"#utility.yul\":3113:3138   */\n      gt\n        /* \"#utility.yul\":3110:3222   */\n      iszero\n      tag_124\n      jumpi\n        /* \"#utility.yul\":3141:3220   */\n      tag_125\n      tag_66\n      jump\t// in\n    tag_125:\n        /* \"#utility.yul\":3110:3222   */\n    tag_124:\n        /* \"#utility.yul\":3231:3285   */\n      tag_126\n        /* \"#utility.yul\":3278:3284   */\n      dup5\n        /* \"#utility.yul\":3273:3276   */\n      dup3\n        /* \"#utility.yul\":3268:3271   */\n      dup6\n        /* \"#utility.yul\":3231:3285   */\n      tag_72\n      jump\t// in\n    tag_126:\n        /* \"#utility.yul\":2951:3291   */\n      pop\n        /* \"#utility.yul\":2868:3291   */\n      swap4\n      swap3\n      pop\n      pop\n      pop\n      jump\t// out\n        /* \"#utility.yul\":3310:3648   */\n    tag_77:\n        /* \"#utility.yul\":3365:3370   */\n      0x00\n        /* \"#utility.yul\":3414:3417   */\n      dup3\n        /* \"#utility.yul\":3407:3411   */\n      0x1f\n        /* \"#utility.yul\":3399:3405   */\n      dup4\n        /* \"#utility.yul\":3395:3412   */\n      add\n        /* \"#utility.yul\":3391:3418   */\n      slt\n        /* \"#utility.yul\":3381:3503   */\n      tag_128\n      jumpi\n        /* \"#utility.yul\":3422:3501   */\n      tag_129\n      tag_65\n      jump\t// in\n    tag_129:\n        /* \"#utility.yul\":3381:3503   */\n    tag_128:\n        /* \"#utility.yul\":3539:3545   */\n      dup2\n        /* \"#utility.yul\":3526:3546   */\n      calldataload\n        /* \"#utility.yul\":3564:3642   */\n      tag_130\n        /* \"#utility.yul\":3638:3641   */\n      dup5\n        /* \"#utility.yul\":3630:3636   */\n      dup3\n        /* \"#utility.yul\":3623:3627   */\n      0x20\n        /* \"#utility.yul\":3615:3621   */\n      dup7\n        /* \"#utility.yul\":3611:3628   */\n      add\n        /* \"#utility.yul\":3564:3642   */\n      tag_76\n      jump\t// in\n    tag_130:\n        /* \"#utility.yul\":3555:3642   */\n      swap2\n      pop\n        /* \"#utility.yul\":3371:3648   */\n      pop\n        /* \"#utility.yul\":3310:3648   */\n      swap3\n      swap2\n      pop\n      pop\n      jump\t// out\n        /* \"#utility.yul\":3654:4486   */\n    tag_6:\n        /* \"#utility.yul\":3741:3747   */\n      0x00\n        /* \"#utility.yul\":3749:3755   */\n      dup1\n        /* \"#utility.yul\":3798:3800   */\n      0x40\n        /* \"#utility.yul\":3786:3795   */\n      dup4\n        /* \"#utility.yul\":3777:3784   */\n      dup6\n        /* \"#utility.yul\":3773:3796   */\n      sub\n        /* \"#utility.yul\":3769:3801   */\n      slt\n        /* \"#utility.yul\":3766:3885   */\n      iszero\n      tag_132\n      jumpi\n        /* \"#utility.yul\":3804:3883   */\n      tag_133\n      tag_63\n      jump\t// in\n    tag_133:\n        /* \"#utility.yul\":3766:3885   */\n    tag_132:\n        /* \"#utility.yul\":3952:3953   */\n      0x00\n        /* \"#utility.yul\":3941:3950   */\n      dup4\n        /* \"#utility.yul\":3937:3954   */\n      add\n        /* \"#utility.yul\":3924:3955   */\n      calldataload\n        /* \"#utility.yul\":3982:4000   */\n      0xffffffffffffffff\n        /* \"#utility.yul\":3974:3980   */\n      dup2\n        /* \"#utility.yul\":3971:4001   */\n      gt\n        /* \"#utility.yul\":3968:4085   */\n      iszero\n      tag_134\n      jumpi\n        /* \"#utility.yul\":4004:4083   */\n      tag_135\n      tag_64\n      jump\t// in\n    tag_135:\n        /* \"#utility.yul\":3968:4085   */\n    tag_134:\n        /* \"#utility.yul\":4109:4172   */\n      tag_136\n        /* \"#utility.yul\":4164:4171   */\n      dup6\n        /* \"#utility.yul\":4155:4161   */\n      dup3\n        /* \"#utility.yul\":4144:4153   */\n      dup7\n        /* \"#utility.yul\":4140:4162   */\n      add\n        /* \"#utility.yul\":4109:4172   */\n      tag_74\n      jump\t// in\n    tag_136:\n        /* \"#utility.yul\":4099:4172   */\n      swap3\n      pop\n        /* \"#utility.yul\":3895:4182   */\n      pop\n        /* \"#utility.yul\":4249:4251   */\n      0x20\n        /* \"#utility.yul\":4238:4247   */\n      dup4\n        /* \"#utility.yul\":4234:4252   */\n      add\n        /* \"#utility.yul\":4221:4253   */\n      calldataload\n        /* \"#utility.yul\":4280:4298   */\n      0xffffffffffffffff\n        /* \"#utility.yul\":4272:4278   */\n      dup2\n        /* \"#utility.yul\":4269:4299   */\n      gt\n        /* \"#utility.yul\":4266:4383   */\n      iszero\n      tag_137\n      jumpi\n        /* \"#utility.yul\":4302:4381   */\n      tag_138\n      tag_64\n      jump\t// in\n    tag_138:\n        /* \"#utility.yul\":4266:4383   */\n    tag_137:\n        /* \"#utility.yul\":4407:4469   */\n      tag_139\n        /* \"#utility.yul\":4461:4468   */\n      dup6\n        /* \"#utility.yul\":4452:4458   */\n      dup3\n        /* \"#utility.yul\":4441:4450   */\n      dup7\n        /* \"#utility.yul\":4437:4459   */\n      add\n        /* \"#utility.yul\":4407:4469   */\n      tag_77\n      jump\t// in\n    tag_139:\n        /* \"#utility.yul\":4397:4469   */\n      swap2\n      pop\n        /* \"#utility.yul\":4192:4479   */\n      pop\n        /* \"#utility.yul\":3654:4486   */\n      swap3\n      pop\n      swap3\n      swap1\n      pop\n      jump\t// out\n        /* \"#utility.yul\":4492:4618   */\n    tag_78:\n        /* \"#utility.yul\":4529:4536   */\n      0x00\n        /* \"#utility.yul\":4569:4611   */\n      0xffffffffffffffffffffffffffffffffffffffff\n        /* \"#utility.yul\":4562:4567   */\n      dup3\n        /* \"#utility.yul\":4558:4612   */\n      and\n        /* \"#utility.yul\":4547:4612   */\n      swap1\n      pop\n        /* \"#utility.yul\":4492:4618   */\n      swap2\n      swap1\n      pop\n      jump\t// out\n        /* \"#utility.yul\":4624:4720   */\n    tag_79:\n        /* \"#utility.yul\":4661:4668   */\n      0x00\n        /* \"#utility.yul\":4690:4714   */\n      tag_142\n        /* \"#utility.yul\":4708:4713   */\n      dup3\n        /* \"#utility.yul\":4690:4714   */\n      tag_78\n      jump\t// in\n    tag_142:\n        /* \"#utility.yul\":4679:4714   */\n      swap1\n      pop\n        /* \"#utility.yul\":4624:4720   */\n      swap2\n      swap1\n      pop\n      jump\t// out\n        /* \"#utility.yul\":4726:4844   */\n    tag_80:\n        /* \"#utility.yul\":4813:4837   */\n      tag_144\n        /* \"#utility.yul\":4831:4836   */\n      dup2\n        /* \"#utility.yul\":4813:4837   */\n      tag_79\n      jump\t// in\n    tag_144:\n        /* \"#utility.yul\":4808:4811   */\n      dup3\n        /* \"#utility.yul\":4801:4838   */\n      mstore\n        /* \"#utility.yul\":4726:4844   */\n      pop\n      pop\n      jump\t// out\n        /* \"#utility.yul\":4850:5072   */\n    tag_9:\n        /* \"#utility.yul\":4943:4947   */\n      0x00\n        /* \"#utility.yul\":4981:4983   */\n      0x20\n        /* \"#utility.yul\":4970:4979   */\n      dup3\n        /* \"#utility.yul\":4966:4984   */\n      add\n        /* \"#utility.yul\":4958:4984   */\n      swap1\n      pop\n        /* \"#utility.yul\":4994:5065   */\n      tag_146\n        /* \"#utility.yul\":5062:5063   */\n      0x00\n        /* \"#utility.yul\":5051:5060   */\n      dup4\n        /* \"#utility.yul\":5047:5064   */\n      add\n        /* \"#utility.yul\":5038:5044   */\n      dup5\n        /* \"#utility.yul\":4994:5065   */\n      tag_80\n      jump\t// in\n    tag_146:\n        /* \"#utility.yul\":4850:5072   */\n      swap3\n      swap2\n      pop\n      pop\n      jump\t// out\n        /* \"#utility.yul\":5078:5258   */\n    tag_29:\n        /* \"#utility.yul\":5126:5203   */\n      0x4e487b7100000000000000000000000000000000000000000000000000000000\n        /* \"#utility.yul\":5123:5124   */\n      0x00\n        /* \"#utility.yul\":5116:5204   */\n      mstore\n        /* \"#utility.yul\":5223:5227   */\n      0x21\n        /* \"#utility.yul\":5220:5221   */\n      0x04\n        /* \"#utility.yul\":5213:5228   */\n      mstore\n        /* \"#utility.yul\":5247:5251   */\n      0x24\n        /* \"#utility.yul\":5244:5245   */\n      0x00\n        /* \"#utility.yul\":5237:5252   */\n      revert\n        /* \"#utility.yul\":5264:5341   */\n    tag_81:\n        /* \"#utility.yul\":5301:5308   */\n      0x00\n        /* \"#utility.yul\":5330:5335   */\n      dup2\n        /* \"#utility.yul\":5319:5335   */\n      swap1\n      pop\n        /* \"#utility.yul\":5264:5341   */\n      swap2\n      swap1\n      pop\n      jump\t// out\n        /* \"#utility.yul\":5347:5465   */\n    tag_82:\n        /* \"#utility.yul\":5434:5458   */\n      tag_150\n        /* \"#utility.yul\":5452:5457   */\n      dup2\n        /* \"#utility.yul\":5434:5458   */\n      tag_81\n      jump\t// in\n    tag_150:\n        /* \"#utility.yul\":5429:5432   */\n      dup3\n        /* \"#utility.yul\":5422:5459   */\n      mstore\n        /* \"#utility.yul\":5347:5465   */\n      pop\n      pop\n      jump\t// out\n        /* \"#utility.yul\":5471:5693   */\n    tag_46:\n        /* \"#utility.yul\":5564:5568   */\n      0x00\n        /* \"#utility.yul\":5602:5604   */\n      0x20\n        /* \"#utility.yul\":5591:5600   */\n      dup3\n        /* \"#utility.yul\":5587:5605   */\n      add\n        /* \"#utility.yul\":5579:5605   */\n      swap1\n      pop\n        /* \"#utility.yul\":5615:5686   */\n      tag_152\n        /* \"#utility.yul\":5683:5684   */\n      0x00\n        /* \"#utility.yul\":5672:5681   */\n      dup4\n        /* \"#utility.yul\":5668:5685   */\n      add\n        /* \"#utility.yul\":5659:5665   */\n      dup5\n        /* \"#utility.yul\":5615:5686   */\n      tag_82\n      jump\t// in\n    tag_152:\n        /* \"#utility.yul\":5471:5693   */\n      swap3\n      swap2\n      pop\n      pop\n      jump\t// out\n        /* \"#utility.yul\":5699:5776   */\n    tag_83:\n        /* \"#utility.yul\":5736:5743   */\n      0x00\n        /* \"#utility.yul\":5765:5770   */\n      dup2\n        /* \"#utility.yul\":5754:5770   */\n      swap1\n      pop\n        /* \"#utility.yul\":5699:5776   */\n      swap2\n      swap1\n      pop\n      jump\t// out\n        /* \"#utility.yul\":5782:5900   */\n    tag_84:\n        /* \"#utility.yul\":5869:5893   */\n      tag_155\n        /* \"#utility.yul\":5887:5892   */\n      dup2\n        /* \"#utility.yul\":5869:5893   */\n      tag_83\n      jump\t// in\n    tag_155:\n        /* \"#utility.yul\":5864:5867   */\n      dup3\n        /* \"#utility.yul\":5857:5894   */\n      mstore\n        /* \"#utility.yul\":5782:5900   */\n      pop\n      pop\n      jump\t// out\n        /* \"#utility.yul\":5906:6128   */\n    tag_54:\n        /* \"#utility.yul\":5999:6003   */\n      0x00\n        /* \"#utility.yul\":6037:6039   */\n      0x20\n        /* \"#utility.yul\":6026:6035   */\n      dup3\n        /* \"#utility.yul\":6022:6040   */\n      add\n        /* \"#utility.yul\":6014:6040   */\n      swap1\n      pop\n        /* \"#utility.yul\":6050:6121   */\n      tag_157\n        /* \"#utility.yul\":6118:6119   */\n      0x00\n        /* \"#utility.yul\":6107:6116   */\n      dup4\n        /* \"#utility.yul\":6103:6120   */\n      add\n        /* \"#utility.yul\":6094:6100   */\n      dup5\n        /* \"#utility.yul\":6050:6121   */\n      tag_84\n      jump\t// in\n    tag_157:\n        /* \"#utility.yul\":5906:6128   */\n      swap3\n      swap2\n      pop\n      pop\n      jump\t// out\n        /* \"#utility.yul\":6134:6220   */\n    tag_85:\n        /* \"#utility.yul\":6169:6176   */\n      0x00\n        /* \"#utility.yul\":6209:6213   */\n      0xff\n        /* \"#utility.yul\":6202:6207   */\n      dup3\n        /* \"#utility.yul\":6198:6214   */\n      and\n        /* \"#utility.yul\":6187:6214   */\n      swap1\n      pop\n        /* \"#utility.yul\":6134:6220   */\n      swap2\n      swap1\n      pop\n      jump\t// out\n        /* \"#utility.yul\":6226:6338   */\n    tag_86:\n        /* \"#utility.yul\":6309:6331   */\n      tag_160\n        /* \"#utility.yul\":6325:6330   */\n      dup2\n        /* \"#utility.yul\":6309:6331   */\n      tag_85\n      jump\t// in\n    tag_160:\n        /* \"#utility.yul\":6304:6307   */\n      dup3\n        /* \"#utility.yul\":6297:6332   */\n      mstore\n        /* \"#utility.yul\":6226:6338   */\n      pop\n      pop\n      jump\t// out\n        /* \"#utility.yul\":6344:6889   */\n    tag_58:\n        /* \"#utility.yul\":6517:6521   */\n      0x00\n        /* \"#utility.yul\":6555:6558   */\n      0x80\n        /* \"#utility.yul\":6544:6553   */\n      dup3\n        /* \"#utility.yul\":6540:6559   */\n      add\n        /* \"#utility.yul\":6532:6559   */\n      swap1\n      pop\n        /* \"#utility.yul\":6569:6640   */\n      tag_162\n        /* \"#utility.yul\":6637:6638   */\n      0x00\n        /* \"#utility.yul\":6626:6635   */\n      dup4\n        /* \"#utility.yul\":6622:6639   */\n      add\n        /* \"#utility.yul\":6613:6619   */\n      dup8\n        /* \"#utility.yul\":6569:6640   */\n      tag_84\n      jump\t// in\n    tag_162:\n        /* \"#utility.yul\":6650:6718   */\n      tag_163\n        /* \"#utility.yul\":6714:6716   */\n      0x20\n        /* \"#utility.yul\":6703:6712   */\n      dup4\n        /* \"#utility.yul\":6699:6717   */\n      add\n        /* \"#utility.yul\":6690:6696   */\n      dup7\n        /* \"#utility.yul\":6650:6718   */\n      tag_86\n      jump\t// in\n    tag_163:\n        /* \"#utility.yul\":6728:6800   */\n      tag_164\n        /* \"#utility.yul\":6796:6798   */\n      0x40\n        /* \"#utility.yul\":6785:6794   */\n      dup4\n        /* \"#utility.yul\":6781:6799   */\n      add\n        /* \"#utility.yul\":6772:6778   */\n      dup6\n        /* \"#utility.yul\":6728:6800   */\n      tag_84\n      jump\t// in\n    tag_164:\n        /* \"#utility.yul\":6810:6882   */\n      tag_165\n        /* \"#utility.yul\":6878:6880   */\n      0x60\n        /* \"#utility.yul\":6867:6876   */\n      dup4\n        /* \"#utility.yul\":6863:6881   */\n      add\n        /* \"#utility.yul\":6854:6860   */\n      dup5\n        /* \"#utility.yul\":6810:6882   */\n      tag_84\n      jump\t// in\n    tag_165:\n        /* \"#utility.yul\":6344:6889   */\n      swap6\n      swap5\n      pop\n      pop\n      pop\n      pop\n      pop\n      jump\t// out\n\n    auxdata: 0xa2646970667358221220fe0d62625c3aa17f39b79bc91a641f5ab4484375d61d547bcc46188e2b0fd88b64736f6c634300081a0033\n}\n",
				"bytecode": {
					"linkReferences": {},
					"object": "6080604052348015600e575f80fd5b506107648061001c5f395ff3fe608060405234801561000f575f80fd5b5060043610610029575f3560e01c80637cebfb641461002d575b5f80fd5b61004760048036038101906100429190610573565b61005d565b6040516100549190610628565b60405180910390f35b5f8083805190602001209050610084836100768361008d565b6100c090919063ffffffff16565b91505092915050565b5f7f19457468657265756d205369676e6564204d6573736167653a0a3332000000005f5281601c52603c5f209050919050565b5f805f806100ce86866100ea565b9250925092506100de828261013f565b82935050505092915050565b5f805f604184510361012a575f805f602087015192506040870151915060608701515f1a905061011c888285856102a1565b955095509550505050610138565b5f600285515f1b9250925092505b9250925092565b5f600381111561015257610151610641565b5b82600381111561016557610164610641565b5b031561029d576001600381111561017f5761017e610641565b5b82600381111561019257610191610641565b5b036101c9576040517ff645eedf00000000000000000000000000000000000000000000000000000000815260040160405180910390fd5b600260038111156101dd576101dc610641565b5b8260038111156101f0576101ef610641565b5b0361023457805f1c6040517ffce698f700000000000000000000000000000000000000000000000000000000815260040161022b9190610686565b60405180910390fd5b60038081111561024757610246610641565b5b82600381111561025a57610259610641565b5b0361029c57806040517fd78bce0c00000000000000000000000000000000000000000000000000000000815260040161029391906106b7565b60405180910390fd5b5b5050565b5f805f7f7fffffffffffffffffffffffffffffff5d576e7357a4501ddfe92f46681b20a0845f1c11156102dd575f60038592509250925061037e565b5f6001888888886040515f815260200160405260405161030094939291906106eb565b6020604051602081039080840390855afa158015610320573d5f803e3d5ffd5b5050506020604051035190505f73ffffffffffffffffffffffffffffffffffffffff168173ffffffffffffffffffffffffffffffffffffffff1603610371575f60015f801b9350935093505061037e565b805f805f1b935093509350505b9450945094915050565b5f604051905090565b5f80fd5b5f80fd5b5f80fd5b5f80fd5b5f601f19601f8301169050919050565b7f4e487b71000000000000000000000000000000000000000000000000000000005f52604160045260245ffd5b6103e7826103a1565b810181811067ffffffffffffffff82111715610406576104056103b1565b5b80604052505050565b5f610418610388565b905061042482826103de565b919050565b5f67ffffffffffffffff821115610443576104426103b1565b5b61044c826103a1565b9050602081019050919050565b828183375f83830152505050565b5f61047961047484610429565b61040f565b9050828152602081018484840111156104955761049461039d565b5b6104a0848285610459565b509392505050565b5f82601f8301126104bc576104bb610399565b5b81356104cc848260208601610467565b91505092915050565b5f67ffffffffffffffff8211156104ef576104ee6103b1565b5b6104f8826103a1565b9050602081019050919050565b5f610517610512846104d5565b61040f565b9050828152602081018484840111156105335761053261039d565b5b61053e848285610459565b509392505050565b5f82601f83011261055a57610559610399565b5b813561056a848260208601610505565b91505092915050565b5f806040838503121561058957610588610391565b5b5f83013567ffffffffffffffff8111156105a6576105a5610395565b5b6105b2858286016104a8565b925050602083013567ffffffffffffffff8111156105d3576105d2610395565b5b6105df85828601610546565b9150509250929050565b5f73ffffffffffffffffffffffffffffffffffffffff82169050919050565b5f610612826105e9565b9050919050565b61062281610608565b82525050565b5f60208201905061063b5f830184610619565b92915050565b7f4e487b71000000000000000000000000000000000000000000000000000000005f52602160045260245ffd5b5f819050919050565b6106808161066e565b82525050565b5f6020820190506106995f830184610677565b92915050565b5f819050919050565b6106b18161069f565b82525050565b5f6020820190506106ca5f8301846106a8565b92915050565b5f60ff82169050919050565b6106e5816106d0565b82525050565b5f6080820190506106fe5f8301876106a8565b61070b60208301866106dc565b61071860408301856106a8565b61072560608301846106a8565b9594505050505056fea2646970667358221220fe0d62625c3aa17f39b79bc91a641f5ab4484375d61d547bcc46188e2b0fd88b64736f6c634300081a0033",
					"opcodes": "PUSH1 0x80 PUSH1 0x40 MSTORE CALLVALUE DUP1 ISZERO PUSH1 0xE JUMPI PUSH0 DUP1 REVERT JUMPDEST POP PUSH2 0x764 DUP1 PUSH2 0x1C PUSH0 CODECOPY PUSH0 RETURN INVALID PUSH1 0x80 PUSH1 0x40 MSTORE CALLVALUE DUP1 ISZERO PUSH2 0xF JUMPI PUSH0 DUP1 REVERT JUMPDEST POP PUSH1 0x4 CALLDATASIZE LT PUSH2 0x29 JUMPI PUSH0 CALLDATALOAD PUSH1 0xE0 SHR DUP1 PUSH4 0x7CEBFB64 EQ PUSH2 0x2D JUMPI JUMPDEST PUSH0 DUP1 REVERT JUMPDEST PUSH2 0x47 PUSH1 0x4 DUP1 CALLDATASIZE SUB DUP2 ADD SWAP1 PUSH2 0x42 SWAP2 SWAP1 PUSH2 0x573 JUMP JUMPDEST PUSH2 0x5D JUMP JUMPDEST PUSH1 0x40 MLOAD PUSH2 0x54 SWAP2 SWAP1 PUSH2 0x628 JUMP JUMPDEST PUSH1 0x40 MLOAD DUP1 SWAP2 SUB SWAP1 RETURN JUMPDEST PUSH0 DUP1 DUP4 DUP1 MLOAD SWAP1 PUSH1 0x20 ADD KECCAK256 SWAP1 POP PUSH2 0x84 DUP4 PUSH2 0x76 DUP4 PUSH2 0x8D JUMP JUMPDEST PUSH2 0xC0 SWAP1 SWAP2 SWAP1 PUSH4 0xFFFFFFFF AND JUMP JUMPDEST SWAP2 POP POP SWAP3 SWAP2 POP POP JUMP JUMPDEST PUSH0 PUSH32 0x19457468657265756D205369676E6564204D6573736167653A0A333200000000 PUSH0 MSTORE DUP2 PUSH1 0x1C MSTORE PUSH1 0x3C PUSH0 KECCAK256 SWAP1 POP SWAP2 SWAP1 POP JUMP JUMPDEST PUSH0 DUP1 PUSH0 DUP1 PUSH2 0xCE DUP7 DUP7 PUSH2 0xEA JUMP JUMPDEST SWAP3 POP SWAP3 POP SWAP3 POP PUSH2 0xDE DUP3 DUP3 PUSH2 0x13F JUMP JUMPDEST DUP3 SWAP4 POP POP POP POP SWAP3 SWAP2 POP POP JUMP JUMPDEST PUSH0 DUP1 PUSH0 PUSH1 0x41 DUP5 MLOAD SUB PUSH2 0x12A JUMPI PUSH0 DUP1 PUSH0 PUSH1 0x20 DUP8 ADD MLOAD SWAP3 POP PUSH1 0x40 DUP8 ADD MLOAD SWAP2 POP PUSH1 0x60 DUP8 ADD MLOAD PUSH0 BYTE SWAP1 POP PUSH2 0x11C DUP9 DUP3 DUP6 DUP6 PUSH2 0x2A1 JUMP JUMPDEST SWAP6 POP SWAP6 POP SWAP6 POP POP POP POP PUSH2 0x138 JUMP JUMPDEST PUSH0 PUSH1 0x2 DUP6 MLOAD PUSH0 SHL SWAP3 POP SWAP3 POP SWAP3 POP JUMPDEST SWAP3 POP SWAP3 POP SWAP3 JUMP JUMPDEST PUSH0 PUSH1 0x3 DUP2 GT ISZERO PUSH2 0x152 JUMPI PUSH2 0x151 PUSH2 0x641 JUMP JUMPDEST JUMPDEST DUP3 PUSH1 0x3 DUP2 GT ISZERO PUSH2 0x165 JUMPI PUSH2 0x164 PUSH2 0x641 JUMP JUMPDEST JUMPDEST SUB ISZERO PUSH2 0x29D JUMPI PUSH1 0x1 PUSH1 0x3 DUP2 GT ISZERO PUSH2 0x17F JUMPI PUSH2 0x17E PUSH2 0x641 JUMP JUMPDEST JUMPDEST DUP3 PUSH1 0x3 DUP2 GT ISZERO PUSH2 0x192 JUMPI PUSH2 0x191 PUSH2 0x641 JUMP JUMPDEST JUMPDEST SUB PUSH2 0x1C9 JUMPI PUSH1 0x40 MLOAD PUSH32 0xF645EEDF00000000000000000000000000000000000000000000000000000000 DUP2 MSTORE PUSH1 0x4 ADD PUSH1 0x40 MLOAD DUP1 SWAP2 SUB SWAP1 REVERT JUMPDEST PUSH1 0x2 PUSH1 0x3 DUP2 GT ISZERO PUSH2 0x1DD JUMPI PUSH2 0x1DC PUSH2 0x641 JUMP JUMPDEST JUMPDEST DUP3 PUSH1 0x3 DUP2 GT ISZERO PUSH2 0x1F0 JUMPI PUSH2 0x1EF PUSH2 0x641 JUMP JUMPDEST JUMPDEST SUB PUSH2 0x234 JUMPI DUP1 PUSH0 SHR PUSH1 0x40 MLOAD PUSH32 0xFCE698F700000000000000000000000000000000000000000000000000000000 DUP2 MSTORE PUSH1 0x4 ADD PUSH2 0x22B SWAP2 SWAP1 PUSH2 0x686 JUMP JUMPDEST PUSH1 0x40 MLOAD DUP1 SWAP2 SUB SWAP1 REVERT JUMPDEST PUSH1 0x3 DUP1 DUP2 GT ISZERO PUSH2 0x247 JUMPI PUSH2 0x246 PUSH2 0x641 JUMP JUMPDEST JUMPDEST DUP3 PUSH1 0x3 DUP2 GT ISZERO PUSH2 0x25A JUMPI PUSH2 0x259 PUSH2 0x641 JUMP JUMPDEST JUMPDEST SUB PUSH2 0x29C JUMPI DUP1 PUSH1 0x40 MLOAD PUSH32 0xD78BCE0C00000000000000000000000000000000000000000000000000000000 DUP2 MSTORE PUSH1 0x4 ADD PUSH2 0x293 SWAP2 SWAP1 PUSH2 0x6B7 JUMP JUMPDEST PUSH1 0x40 MLOAD DUP1 SWAP2 SUB SWAP1 REVERT JUMPDEST JUMPDEST POP POP JUMP JUMPDEST PUSH0 DUP1 PUSH0 PUSH32 0x7FFFFFFFFFFFFFFFFFFFFFFFFFFFFFFF5D576E7357A4501DDFE92F46681B20A0 DUP5 PUSH0 SHR GT ISZERO PUSH2 0x2DD JUMPI PUSH0 PUSH1 0x3 DUP6 SWAP3 POP SWAP3 POP SWAP3 POP PUSH2 0x37E JUMP JUMPDEST PUSH0 PUSH1 0x1 DUP9 DUP9 DUP9 DUP9 PUSH1 0x40 MLOAD PUSH0 DUP2 MSTORE PUSH1 0x20 ADD PUSH1 0x40 MSTORE PUSH1 0x40 MLOAD PUSH2 0x300 SWAP5 SWAP4 SWAP3 SWAP2 SWAP1 PUSH2 0x6EB JUMP JUMPDEST PUSH1 0x20 PUSH1 0x40 MLOAD PUSH1 0x20 DUP2 SUB SWAP1 DUP1 DUP5 SUB SWAP1 DUP6 GAS STATICCALL ISZERO DUP1 ISZERO PUSH2 0x320 JUMPI RETURNDATASIZE PUSH0 DUP1 RETURNDATACOPY RETURNDATASIZE PUSH0 REVERT JUMPDEST POP POP POP PUSH1 0x20 PUSH1 0x40 MLOAD SUB MLOAD SWAP1 POP PUSH0 PUSH20 0xFFFFFFFFFFFFFFFFFFFFFFFFFFFFFFFFFFFFFFFF AND DUP2 PUSH20 0xFFFFFFFFFFFFFFFFFFFFFFFFFFFFFFFFFFFFFFFF AND SUB PUSH2 0x371 JUMPI PUSH0 PUSH1 0x1 PUSH0 DUP1 SHL SWAP4 POP SWAP4 POP SWAP4 POP POP PUSH2 0x37E JUMP JUMPDEST DUP1 PUSH0 DUP1 PUSH0 SHL SWAP4 POP SWAP4 POP SWAP4 POP POP JUMPDEST SWAP5 POP SWAP5 POP SWAP5 SWAP2 POP POP JUMP JUMPDEST PUSH0 PUSH1 0x40 MLOAD SWAP1 POP SWAP1 JUMP JUMPDEST PUSH0 DUP1 REVERT JUMPDEST PUSH0 DUP1 REVERT JUMPDEST PUSH0 DUP1 REVERT JUMPDEST PUSH0 DUP1 REVERT JUMPDEST PUSH0 PUSH1 0x1F NOT PUSH1 0x1F DUP4 ADD AND SWAP1 POP SWAP2 SWAP1 POP JUMP JUMPDEST PUSH32 0x4E487B7100000000000000000000000000000000000000000000000000000000 PUSH0 MSTORE PUSH1 0x41 PUSH1 0x4 MSTORE PUSH1 0x24 PUSH0 REVERT JUMPDEST PUSH2 0x3E7 DUP3 PUSH2 0x3A1 JUMP JUMPDEST DUP2 ADD DUP2 DUP2 LT PUSH8 0xFFFFFFFFFFFFFFFF DUP3 GT OR ISZERO PUSH2 0x406 JUMPI PUSH2 0x405 PUSH2 0x3B1 JUMP JUMPDEST JUMPDEST DUP1 PUSH1 0x40 MSTORE POP POP POP JUMP JUMPDEST PUSH0 PUSH2 0x418 PUSH2 0x388 JUMP JUMPDEST SWAP1 POP PUSH2 0x424 DUP3 DUP3 PUSH2 0x3DE JUMP JUMPDEST SWAP2 SWAP1 POP JUMP JUMPDEST PUSH0 PUSH8 0xFFFFFFFFFFFFFFFF DUP3 GT ISZERO PUSH2 0x443 JUMPI PUSH2 0x442 PUSH2 0x3B1 JUMP JUMPDEST JUMPDEST PUSH2 0x44C DUP3 PUSH2 0x3A1 JUMP JUMPDEST SWAP1 POP PUSH1 0x20 DUP2 ADD SWAP1 POP SWAP2 SWAP1 POP JUMP JUMPDEST DUP3 DUP2 DUP4 CALLDATACOPY PUSH0 DUP4 DUP4 ADD MSTORE POP POP POP JUMP JUMPDEST PUSH0 PUSH2 0x479 PUSH2 0x474 DUP5 PUSH2 0x429 JUMP JUMPDEST PUSH2 0x40F JUMP JUMPDEST SWAP1 POP DUP3 DUP2 MSTORE PUSH1 0x20 DUP2 ADD DUP5 DUP5 DUP5 ADD GT ISZERO PUSH2 0x495 JUMPI PUSH2 0x494 PUSH2 0x39D JUMP JUMPDEST JUMPDEST PUSH2 0x4A0 DUP5 DUP3 DUP6 PUSH2 0x459 JUMP JUMPDEST POP SWAP4 SWAP3 POP POP POP JUMP JUMPDEST PUSH0 DUP3 PUSH1 0x1F DUP4 ADD SLT PUSH2 0x4BC JUMPI PUSH2 0x4BB PUSH2 0x399 JUMP JUMPDEST JUMPDEST DUP2 CALLDATALOAD PUSH2 0x4CC DUP5 DUP3 PUSH1 0x20 DUP7 ADD PUSH2 0x467 JUMP JUMPDEST SWAP2 POP POP SWAP3 SWAP2 POP POP JUMP JUMPDEST PUSH0 PUSH8 0xFFFFFFFFFFFFFFFF DUP3 GT ISZERO PUSH2 0x4EF JUMPI PUSH2 0x4EE PUSH2 0x3B1 JUMP JUMPDEST JUMPDEST PUSH2 0x4F8 DUP3 PUSH2 0x3A1 JUMP JUMPDEST SWAP1 POP PUSH1 0x20 DUP2 ADD SWAP1 POP SWAP2 SWAP1 POP JUMP JUMPDEST PUSH0 PUSH2 0x517 PUSH2 0x512 DUP5 PUSH2 0x4D5 JUMP JUMPDEST PUSH2 0x40F JUMP JUMPDEST SWAP1 POP DUP3 DUP2 MSTORE PUSH1 0x20 DUP2 ADD DUP5 DUP5 DUP5 ADD GT ISZERO PUSH2 0x533 JUMPI PUSH2 0x532 PUSH2 0x39D JUMP JUMPDEST JUMPDEST PUSH2 0x53E DUP5 DUP3 DUP6 PUSH2 0x459 JUMP JUMPDEST POP SWAP4 SWAP3 POP POP POP JUMP JUMPDEST PUSH0 DUP3 PUSH1 0x1F DUP4 ADD SLT PUSH2 0x55A JUMPI PUSH2 0x559 PUSH2 0x399 JUMP JUMPDEST JUMPDEST DUP2 CALLDATALOAD PUSH2 0x56A DUP5 DUP3 PUSH1 0x20 DUP7 ADD PUSH2 0x505 JUMP JUMPDEST SWAP2 POP POP SWAP3 SWAP2 POP POP JUMP JUMPDEST PUSH0 DUP1 PUSH1 0x40 DUP4 DUP6 SUB SLT ISZERO PUSH2 0x589 JUMPI PUSH2 0x588 PUSH2 0x391 JUMP JUMPDEST JUMPDEST PUSH0 DUP4 ADD CALLDATALOAD PUSH8 0xFFFFFFFFFFFFFFFF DUP2 GT ISZERO PUSH2 0x5A6 JUMPI PUSH2 0x5A5 PUSH2 0x395 JUMP JUMPDEST JUMPDEST PUSH2 0x5B2 DUP6 DUP3 DUP7 ADD PUSH2 0x4A8 JUMP JUMPDEST SWAP3 POP POP PUSH1 0x20 DUP4 ADD CALLDATALOAD PUSH8 0xFFFFFFFFFFFFFFFF DUP2 GT ISZERO PUSH2 0x5D3 JUMPI PUSH2 0x5D2 PUSH2 0x395 JUMP JUMPDEST JUMPDEST PUSH2 0x5DF DUP6 DUP3 DUP7 ADD PUSH2 0x546 JUMP JUMPDEST SWAP2 POP POP SWAP3 POP SWAP3 SWAP1 POP JUMP JUMPDEST PUSH0 PUSH20 0xFFFFFFFFFFFFFFFFFFFFFFFFFFFFFFFFFFFFFFFF DUP3 AND SWAP1 POP SWAP2 SWAP1 POP JUMP JUMPDEST PUSH0 PUSH2 0x612 DUP3 PUSH2 0x5E9 JUMP JUMPDEST SWAP1 POP SWAP2 SWAP1 POP JUMP JUMPDEST PUSH2 0x622 DUP2 PUSH2 0x608 JUMP JUMPDEST DUP3 MSTORE POP POP JUMP JUMPDEST PUSH0 PUSH1 0x20 DUP3 ADD SWAP1 POP PUSH2 0x63B PUSH0 DUP4 ADD DUP5 PUSH2 0x619 JUMP JUMPDEST SWAP3 SWAP2 POP POP JUMP JUMPDEST PUSH32 0x4E487B7100000000000000000000000000000000000000000000000000000000 PUSH0 MSTORE PUSH1 0x21 PUSH1 0x4 MSTORE PUSH1 0x24 PUSH0 REVERT JUMPDEST PUSH0 DUP2 SWAP1 POP SWAP2 SWAP1 POP JUMP JUMPDEST PUSH2 0x680 DUP2 PUSH2 0x66E JUMP JUMPDEST DUP3 MSTORE POP POP JUMP JUMPDEST PUSH0 PUSH1 0x20 DUP3 ADD SWAP1 POP PUSH2 0x699 PUSH0 DUP4 ADD DUP5 PUSH2 0x677 JUMP JUMPDEST SWAP3 SWAP2 POP POP JUMP JUMPDEST PUSH0 DUP2 SWAP1 POP SWAP2 SWAP1 POP JUMP JUMPDEST PUSH2 0x6B1 DUP2 PUSH2 0x69F JUMP JUMPDEST DUP3 MSTORE POP POP JUMP JUMPDEST PUSH0 PUSH1 0x20 DUP3 ADD SWAP1 POP PUSH2 0x6CA PUSH0 DUP4 ADD DUP5 PUSH2 0x6A8 JUMP JUMPDEST SWAP3 SWAP2 POP POP JUMP JUMPDEST PUSH0 PUSH1 0xFF DUP3 AND SWAP1 POP SWAP2 SWAP1 POP JUMP JUMPDEST PUSH2 0x6E5 DUP2 PUSH2 0x6D0 JUMP JUMPDEST DUP3 MSTORE POP POP JUMP JUMPDEST PUSH0 PUSH1 0x80 DUP3 ADD SWAP1 POP PUSH2 0x6FE PUSH0 DUP4 ADD DUP8 PUSH2 0x6A8 JUMP JUMPDEST PUSH2 0x70B PUSH1 0x20 DUP4 ADD DUP7 PUSH2 0x6DC JUMP JUMPDEST PUSH2 0x718 PUSH1 0x40 DUP4 ADD DUP6 PUSH2 0x6A8 JUMP JUMPDEST PUSH2 0x725 PUSH1 0x60 DUP4 ADD DUP5 PUSH2 0x6A8 JUMP JUMPDEST SWAP6 SWAP5 POP POP POP POP POP JUMP INVALID LOG2 PUSH5 0x6970667358 0x22 SLT KECCAK256 INVALID 0xD PUSH3 0x625C3A LOG1 PUSH32 0x39B79BC91A641F5AB4484375D61D547BCC46188E2B0FD88B64736F6C63430008 BYTE STOP CALLER "
				},
				"gasEstimates": {
					"creation": {
						"codeDepositCost": "378400",
						"executionCost": "416",
						"totalCost": "378816"
					},
					"external": {
						"recover(string,bytes)": "infinite"
					}
				},
				"methodIdentifiers": {
					"recover(string,bytes)": "7cebfb64"
				}
			},
			"storageLayout": {
				"storage": [],
				"types": null
			},
			"userdoc": {
				"kind": "user",
				"methods": {},
				"version": 1
			}
		}
	}
}