{
	"data": {
		"bytecode": {
			"linkReferences": {},
			"object": "610180604052348015610010575f80fd5b506040516171f93803806171f983398181016040528101906100329190610966565b6004816040518060400160405280600a81526020017f4d79476f7665726e6f72000000000000000000000000000000000000000000008152508061007a61018060201b60201c565b61008d5f836101bd60201b90919060201c565b61012081815250506100a96001826101bd60201b90919060201c565b6101408181525050818051906020012060e08181525050808051906020012061010081815250504660a081815250506100e661020a60201b60201c565b608081815250503073ffffffffffffffffffffffffffffffffffffffff1660c08173ffffffffffffffffffffffffffffffffffffffff1681525050505080600390816101329190610bcb565b50508073ffffffffffffffffffffffffffffffffffffffff166101608173ffffffffffffffffffffffffffffffffffffffff1681525050506101798161026460201b60201c565b5050610ff3565b60606040518060400160405280600181526020017f3100000000000000000000000000000000000000000000000000000000000000815250905090565b5f6020835110156101de576101d78361033e60201b60201c565b9050610204565b826101ee836103a360201b60201c565b5f0190816101fc9190610bcb565b5060ff5f1b90505b92915050565b5f7f8b73c3c69bb8fe3d512ecc4cf759cc79239f7b179b0ffacaa9a75d522b39400f60e051610100514630604051602001610249959493929190610cd0565b60405160208183030381529060405280519060200120905090565b5f6102736103ac60201b60201c565b9050808211156102bc5781816040517f243e54450000000000000000000000000000000000000000000000000000000081526004016102b3929190610d21565b60405180910390fd5b5f6102cb6103b460201b60201c565b90506102fe6102de6103e660201b60201c565b6102ed8561047d60201b60201c565b60086104ea60201b9092919060201c565b50507f0553476bf02ef2726e8ce5ced78d63e26e602e4a2257b1f559418e24b46339978184604051610331929190610d21565b60405180910390a1505050565b5f80829050601f8151111561038a57826040517f305a27a90000000000000000000000000000000000000000000000000000000081526004016103819190610dae565b60405180910390fd5b80518161039690610dfb565b5f1c175f1b915050919050565b5f819050919050565b5f6064905090565b5f6103c5600861050b60201b60201c565b79ffffffffffffffffffffffffffffffffffffffffffffffffffff16905090565b5f6103f561057360201b60201c565b73ffffffffffffffffffffffffffffffffffffffff166391ddadf46040518163ffffffff1660e01b8152600401602060405180830381865afa92505050801561045c57506040513d601f19601f820116820180604052508101906104599190610e9c565b60015b6104755761046e61057d60201b60201c565b905061047a565b809150505b90565b5f79ffffffffffffffffffffffffffffffffffffffffffffffffffff80168211156104e25760d0826040517f6dfcc6500000000000000000000000000000000000000000000000000000000081526004016104d9929190610f0c565b60405180910390fd5b819050919050565b5f806104ff855f01858561059260201b60201c565b91509150935093915050565b5f80825f018054905090505f81146105695761053b835f016001836105309190610f60565b61088c60201b60201c565b5f0160069054906101000a900479ffffffffffffffffffffffffffffffffffffffffffffffffffff1661056b565b5f5b915050919050565b5f61016051905090565b5f61058d4361089e60201b60201c565b905090565b5f805f858054905090505f8111156107a4575f6105c1876001846105b69190610f60565b61088c60201b60201c565b90505f815f015f9054906101000a900465ffffffffffff1690505f825f0160069054906101000a900479ffffffffffffffffffffffffffffffffffffffffffffffffffff1690508765ffffffffffff168265ffffffffffff161115610652576040517f2520601d00000000000000000000000000000000000000000000000000000000815260040160405180910390fd5b8765ffffffffffff168265ffffffffffff16036106bc5786835f0160066101000a81548179ffffffffffffffffffffffffffffffffffffffffffffffffffff021916908379ffffffffffffffffffffffffffffffffffffffffffffffffffff160217905550610795565b8860405180604001604052808a65ffffffffffff1681526020018979ffffffffffffffffffffffffffffffffffffffffffffffffffff16815250908060018154018082558091505060019003905f5260205f20015f909190919091505f820151815f015f6101000a81548165ffffffffffff021916908365ffffffffffff1602179055506020820151815f0160066101000a81548179ffffffffffffffffffffffffffffffffffffffffffffffffffff021916908379ffffffffffffffffffffffffffffffffffffffffffffffffffff16021790555050505b80879550955050505050610884565b8560405180604001604052808765ffffffffffff1681526020018679ffffffffffffffffffffffffffffffffffffffffffffffffffff16815250908060018154018082558091505060019003905f5260205f20015f909190919091505f820151815f015f6101000a81548165ffffffffffff021916908365ffffffffffff1602179055506020820151815f0160066101000a81548179ffffffffffffffffffffffffffffffffffffffffffffffffffff021916908379ffffffffffffffffffffffffffffffffffffffffffffffffffff16021790555050505f8492509250505b935093915050565b5f825f528160205f2001905092915050565b5f65ffffffffffff80168211156108ef576030826040517f6dfcc6500000000000000000000000000000000000000000000000000000000081526004016108e6929190610fcc565b60405180910390fd5b819050919050565b5f80fd5b5f73ffffffffffffffffffffffffffffffffffffffff82169050919050565b5f610924826108fb565b9050919050565b5f6109358261091a565b9050919050565b6109458161092b565b811461094f575f80fd5b50565b5f815190506109608161093c565b92915050565b5f6020828403121561097b5761097a6108f7565b5b5f61098884828501610952565b91505092915050565b5f81519050919050565b7f4e487b71000000000000000000000000000000000000000000000000000000005f52604160045260245ffd5b7f4e487b71000000000000000000000000000000000000000000000000000000005f52602260045260245ffd5b5f6002820490506001821680610a0c57607f821691505b602082108103610a1f57610a1e6109c8565b5b50919050565b5f819050815f5260205f209050919050565b5f6020601f8301049050919050565b5f82821b905092915050565b5f60088302610a817fffffffffffffffffffffffffffffffffffffffffffffffffffffffffffffffff82610a46565b610a8b8683610a46565b95508019841693508086168417925050509392505050565b5f819050919050565b5f819050919050565b5f610acf610aca610ac584610aa3565b610aac565b610aa3565b9050919050565b5f819050919050565b610ae883610ab5565b610afc610af482610ad6565b848454610a52565b825550505050565b5f90565b610b10610b04565b610b1b818484610adf565b505050565b5b81811015610b3e57610b335f82610b08565b600181019050610b21565b5050565b601f821115610b8357610b5481610a25565b610b5d84610a37565b81016020851015610b6c578190505b610b80610b7885610a37565b830182610b20565b50505b505050565b5f82821c905092915050565b5f610ba35f1984600802610b88565b1980831691505092915050565b5f610bbb8383610b94565b9150826002028217905092915050565b610bd482610991565b67ffffffffffffffff811115610bed57610bec61099b565b5b610bf782546109f5565b610c02828285610b42565b5f60209050601f831160018114610c33575f8415610c21578287015190505b610c2b8582610bb0565b865550610c92565b601f198416610c4186610a25565b5f5b82811015610c6857848901518255600182019150602085019450602081019050610c43565b86831015610c855784890151610c81601f891682610b94565b8355505b6001600288020188555050505b505050505050565b5f819050919050565b610cac81610c9a565b82525050565b610cbb81610aa3565b82525050565b610cca8161091a565b82525050565b5f60a082019050610ce35f830188610ca3565b610cf06020830187610ca3565b610cfd6040830186610ca3565b610d0a6060830185610cb2565b610d176080830184610cc1565b9695505050505050565b5f604082019050610d345f830185610cb2565b610d416020830184610cb2565b9392505050565b5f82825260208201905092915050565b8281835e5f83830152505050565b5f601f19601f8301169050919050565b5f610d8082610991565b610d8a8185610d48565b9350610d9a818560208601610d58565b610da381610d66565b840191505092915050565b5f6020820190508181035f830152610dc68184610d76565b905092915050565b5f81519050919050565b5f819050602082019050919050565b5f610df28251610c9a565b80915050919050565b5f610e0582610dce565b82610e0f84610dd8565b9050610e1a81610de7565b92506020821015610e5a57610e557fffffffffffffffffffffffffffffffffffffffffffffffffffffffffffffffff83602003600802610a46565b831692505b5050919050565b5f65ffffffffffff82169050919050565b610e7b81610e61565b8114610e85575f80fd5b50565b5f81519050610e9681610e72565b92915050565b5f60208284031215610eb157610eb06108f7565b5b5f610ebe84828501610e88565b91505092915050565b5f819050919050565b5f60ff82169050919050565b5f610ef6610ef1610eec84610ec7565b610aac565b610ed0565b9050919050565b610f0681610edc565b82525050565b5f604082019050610f1f5f830185610efd565b610f2c6020830184610cb2565b9392505050565b7f4e487b71000000000000000000000000000000000000000000000000000000005f52601160045260245ffd5b5f610f6a82610aa3565b9150610f7583610aa3565b9250828203905081811115610f8d57610f8c610f33565b5b92915050565b5f819050919050565b5f610fb6610fb1610fac84610f93565b610aac565b610ed0565b9050919050565b610fc681610f9c565b82525050565b5f604082019050610fdf5f830185610fbd565b610fec6020830184610cb2565b9392505050565b60805160a05160c05160e051610100516101205161014051610160516161ab61104e5f395f611f2501525f612d4a01525f612d0f01525f613caa01525f613c8901525f61308801525f6130de01525f61310701526161ab5ff3fe60806040526004361061025f575f3560e01c80637b3c71d311610143578063b58131b0116100b5578063dd4e2ba511610079578063dd4e2ba514610a84578063deaaa7cc14610aae578063eb9019d414610ad8578063f23a6e6114610b14578063f8ce560a14610b50578063fc0c546a14610b8c576102d2565b8063b58131b01461098a578063bc197c81146109b4578063c01f9e37146109f0578063c28bc2fa14610a2c578063c59057e414610a48576102d2565b806391ddadf41161010757806391ddadf41461085857806397c3d334146108825780639a802a6d146108ac578063a7713a70146108e8578063a9a9529414610912578063ab58fb8e1461094e576102d2565b80637b3c71d3146107385780637d5e81e2146107745780637ecebe00146107b057806384b0196e146107ec5780638ff262e31461081c576102d2565b80633932abb1116101dc578063544ffc9c116101a0578063544ffc9c146105e057806354fd4d501461061e57806356781388146106485780635b8d0e0d146106845780635f398a14146106c057806360c4247f146106fc576102d2565b80633932abb1146104d85780633e4f49e614610502578063438596321461053e578063452115d61461057a5780634bf5d7e9146105b6576102d2565b8063150b7a0211610223578063150b7a02146103ca578063160cbed7146104065780632656227d146104425780632d63f693146104725780632fe3e261146104ae576102d2565b806301ffc9a7146102d657806302a251a31461031257806306f3f9e61461033c57806306fdde0314610364578063143489d01461038e576102d2565b366102d2573073ffffffffffffffffffffffffffffffffffffffff16610283610bb6565b73ffffffffffffffffffffffffffffffffffffffff16146102d0576040517fe90a651e00000000000000000000000000000000000000000000000000000000815260040160405180910390fd5b005b5f80fd5b3480156102e1575f80fd5b506102fc60048036038101906102f79190614102565b610bbd565b6040516103099190614147565b60405180910390f35b34801561031d575f80fd5b50610326610c9e565b6040516103339190614178565b60405180910390f35b348015610347575f80fd5b50610362600480360381019061035d91906141bb565b610ca6565b005b34801561036f575f80fd5b50610378610cba565b6040516103859190614256565b60405180910390f35b348015610399575f80fd5b506103b460048036038101906103af91906141bb565b610d4a565b6040516103c191906142b5565b60405180910390f35b3480156103d5575f80fd5b506103f060048036038101906103eb9190614424565b610d85565b6040516103fd91906144b3565b60405180910390f35b348015610411575f80fd5b5061042c60048036038101906104279190614761565b610e04565b6040516104399190614178565b60405180910390f35b61045c60048036038101906104579190614761565b610efa565b6040516104699190614178565b60405180910390f35b34801561047d575f80fd5b50610498600480360381019061049391906141bb565b6110d4565b6040516104a59190614178565b60405180910390f35b3480156104b9575f80fd5b506104c261110a565b6040516104cf9190614828565b60405180910390f35b3480156104e3575f80fd5b506104ec61112e565b6040516104f99190614178565b60405180910390f35b34801561050d575f80fd5b50610528600480360381019061052391906141bb565b611136565b60405161053591906148b4565b60405180910390f35b348015610549575f80fd5b50610564600480360381019061055f91906148cd565b61128d565b6040516105719190614147565b60405180910390f35b348015610585575f80fd5b506105a0600480360381019061059b9190614761565b6112f2565b6040516105ad9190614178565b60405180910390f35b3480156105c1575f80fd5b506105ca6113b2565b6040516105d79190614256565b60405180910390f35b3480156105eb575f80fd5b50610606600480360381019061060191906141bb565b61146f565b6040516106159392919061490b565b60405180910390f35b348015610629575f80fd5b506106326114a2565b60405161063f9190614256565b60405180910390f35b348015610653575f80fd5b5061066e60048036038101906106699190614976565b6114df565b60405161067b9190614178565b60405180910390f35b34801561068f575f80fd5b506106aa60048036038101906106a59190614a0d565b61150e565b6040516106b79190614178565b60405180910390f35b3480156106cb575f80fd5b506106e660048036038101906106e19190614aef565b61163d565b6040516106f39190614178565b60405180910390f35b348015610707575f80fd5b50610722600480360381019061071d91906141bb565b6116a5565b60405161072f9190614178565b60405180910390f35b348015610743575f80fd5b5061075e60048036038101906107599190614b8f565b61179e565b60405161076b9190614178565b60405180910390f35b34801561077f575f80fd5b5061079a60048036038101906107959190614c9e565b611804565b6040516107a79190614178565b60405180910390f35b3480156107bb575f80fd5b506107d660048036038101906107d19190614d72565b6118fa565b6040516107e39190614178565b60405180910390f35b3480156107f7575f80fd5b50610800611940565b6040516108139796959493929190614e8e565b60405180910390f35b348015610827575f80fd5b50610842600480360381019061083d9190614f10565b6119e5565b60405161084f9190614178565b60405180910390f35b348015610863575f80fd5b5061086c611ab9565b6040516108799190614fb0565b60405180910390f35b34801561088d575f80fd5b50610896611b44565b6040516108a39190614178565b60405180910390f35b3480156108b7575f80fd5b506108d260048036038101906108cd9190614fc9565b611b4c565b6040516108df9190614178565b60405180910390f35b3480156108f3575f80fd5b506108fc611b61565b6040516109099190614178565b60405180910390f35b34801561091d575f80fd5b50610938600480360381019061093391906141bb565b611b8d565b6040516109459190614147565b60405180910390f35b348015610959575f80fd5b50610974600480360381019061096f91906141bb565b611b93565b6040516109819190614178565b60405180910390f35b348015610995575f80fd5b5061099e611bc9565b6040516109ab9190614178565b60405180910390f35b3480156109bf575f80fd5b506109da60048036038101906109d59190615035565b611bcd565b6040516109e791906144b3565b60405180910390f35b3480156109fb575f80fd5b50610a166004803603810190610a1191906141bb565b611c4d565b604051610a239190614178565b60405180910390f35b610a466004803603810190610a419190615155565b611cb7565b005b348015610a53575f80fd5b50610a6e6004803603810190610a699190614761565b611d40565b604051610a7b9190614178565b60405180910390f35b348015610a8f575f80fd5b50610a98611d7a565b604051610aa59190614256565b60405180910390f35b348015610ab9575f80fd5b50610ac2611db7565b604051610acf9190614828565b60405180910390f35b348015610ae3575f80fd5b50610afe6004803603810190610af991906151c6565b611ddb565b604051610b0b9190614178565b60405180910390f35b348015610b1f575f80fd5b50610b3a6004803603810190610b359190615204565b611df6565b604051610b4791906144b3565b60405180910390f35b348015610b5b575f80fd5b50610b766004803603810190610b7191906141bb565b611e76565b604051610b839190614178565b60405180910390f35b348015610b97575f80fd5b50610ba0611f22565b604051610bad91906152f2565b60405180910390f35b5f30905090565b5f7f65455a86000000000000000000000000000000000000000000000000000000007bffffffffffffffffffffffffffffffffffffffffffffffffffffffff1916827bffffffffffffffffffffffffffffffffffffffffffffffffffffffff19161480610c8757507f4e2312e0000000000000000000000000000000000000000000000000000000007bffffffffffffffffffffffffffffffffffffffffffffffffffffffff1916827bffffffffffffffffffffffffffffffffffffffffffffffffffffffff1916145b80610c975750610c9682611f49565b5b9050919050565b5f6002905090565b610cae611fb2565b610cb7816120a7565b50565b606060038054610cc990615338565b80601f0160208091040260200160405190810160405280929190818152602001828054610cf590615338565b8015610d405780601f10610d1757610100808354040283529160200191610d40565b820191905f5260205f20905b815481529060010190602001808311610d2357829003601f168201915b5050505050905090565b5f60045f8381526020019081526020015f205f015f9054906101000a900473ffffffffffffffffffffffffffffffffffffffff169050919050565b5f3073ffffffffffffffffffffffffffffffffffffffff16610da5610bb6565b73ffffffffffffffffffffffffffffffffffffffff1614610df2576040517fe90a651e00000000000000000000000000000000000000000000000000000000815260040160405180910390fd5b63150b7a0260e01b9050949350505050565b5f80610e1286868686611d40565b9050610e2781610e226004612169565b61218d565b505f610e3682888888886121f8565b90505f8165ffffffffffff1614610ebb578060045f8481526020019081526020015f206001015f6101000a81548165ffffffffffff021916908365ffffffffffff1602179055507f9a2e42fd6722813d69113e7d0079d3d940171428df7373df9c7f7617cfda28928282604051610eae929190615398565b60405180910390a1610eed565b6040517f90884a4600000000000000000000000000000000000000000000000000000000815260040160405180910390fd5b8192505050949350505050565b5f80610f0886868686611d40565b9050610f2881610f186005612169565b610f226004612169565b1761218d565b50600160045f8381526020019081526020015f205f01601e6101000a81548160ff0219169083151502179055503073ffffffffffffffffffffffffffffffffffffffff16610f74610bb6565b73ffffffffffffffffffffffffffffffffffffffff161461102a575f5b8651811015611028573073ffffffffffffffffffffffffffffffffffffffff16878281518110610fc457610fc36153bf565b5b602002602001015173ffffffffffffffffffffffffffffffffffffffff160361101d5761101c858281518110610ffd57610ffc6153bf565b5b602002602001015180519060200120600561220290919063ffffffff16565b5b806001019050610f91565b505b61103781878787876122fa565b3073ffffffffffffffffffffffffffffffffffffffff16611056610bb6565b73ffffffffffffffffffffffffffffffffffffffff1614158015611081575061107f60056123df565b155b1561109157611090600561244b565b5b7f712ae1383f79ac853f8d882153778e0260ef8f03b504e2866e0593e04d2b291f816040516110c09190614178565b60405180910390a180915050949350505050565b5f60045f8381526020019081526020015f205f0160149054906101000a900465ffffffffffff1665ffffffffffff169050919050565b7f3e83946653575f9a39005e1545185629e92736b7528ab20ca3816f315424a81181565b5f6002905090565b5f8060045f8481526020019081526020015f2090505f815f01601e9054906101000a900460ff1690505f825f01601f9054906101000a900460ff16905081156111855760079350505050611288565b80156111975760029350505050611288565b5f6111a1866110d4565b90505f81036111e757856040517f6ad060750000000000000000000000000000000000000000000000000000000081526004016111de9190614178565b60405180910390fd5b5f6111f0611ab9565b65ffffffffffff16905080821061120e575f95505050505050611288565b5f61121888611c4d565b90508181106112305760019650505050505050611288565b611239886124c1565b158061124b575061124988612505565b155b1561125f5760039650505050505050611288565b5f61126989611b93565b0361127d5760049650505050505050611288565b600596505050505050505b919050565b5f60075f8481526020019081526020015f206003015f8373ffffffffffffffffffffffffffffffffffffffff1673ffffffffffffffffffffffffffffffffffffffff1681526020019081526020015f205f9054906101000a900460ff16905092915050565b5f8061130086868686611d40565b90506113148161130f5f612169565b61218d565b5061131e81610d4a565b73ffffffffffffffffffffffffffffffffffffffff1661133c61252c565b73ffffffffffffffffffffffffffffffffffffffff161461139b5761135f61252c565b6040517f233d98e300000000000000000000000000000000000000000000000000000000815260040161139291906142b5565b60405180910390fd5b6113a786868686612533565b915050949350505050565b60606113bc611f22565b73ffffffffffffffffffffffffffffffffffffffff16634bf5d7e96040518163ffffffff1660e01b81526004015f60405180830381865afa92505050801561142657506040513d5f823e3d601f19601f82011682018060405250810190611423919061545a565b60015b611467576040518060400160405280601d81526020017f6d6f64653d626c6f636b6e756d6265722666726f6d3d64656661756c74000000815250905061146c565b809150505b90565b5f805f8060075f8681526020019081526020015f209050805f015481600101548260020154935093509350509193909250565b60606040518060400160405280600181526020017f3100000000000000000000000000000000000000000000000000000000000000815250905090565b5f806114e961252c565b905061150584828560405180602001604052805f815250612615565b91505092915050565b5f8061159b876115957f3e83946653575f9a39005e1545185629e92736b7528ab20ca3816f315424a8118c8c8c6115448e612634565b8d8d6040516115549291906154cf565b60405180910390208c8051906020012060405160200161157a97969594939291906154f6565b60405160208183030381529060405280519060200120612687565b856126a0565b9050806115df57866040517f94ab6c070000000000000000000000000000000000000000000000000000000081526004016115d691906142b5565b60405180910390fd5b61162f89888a89898080601f0160208091040260200160405190810160405280939291908181526020018383808284375f81840152601f19601f820116905080830192505050505050508861274c565b915050979650505050505050565b5f8061164761252c565b905061169987828888888080601f0160208091040260200160405190810160405280939291908181526020018383808284375f81840152601f19601f820116905080830192505050505050508761274c565b91505095945050505050565b5f8060085f018054905090505f60085f016001836116c39190615590565b815481106116d4576116d36153bf565b5b905f5260205f200190505f815f015f9054906101000a900465ffffffffffff1690505f825f0160069054906101000a900479ffffffffffffffffffffffffffffffffffffffffffffffffffff169050858265ffffffffffff161161175a578079ffffffffffffffffffffffffffffffffffffffffffffffffffff16945050505050611799565b61177661176687612856565b60086128af90919063ffffffff16565b79ffffffffffffffffffffffffffffffffffffffffffffffffffff169450505050505b919050565b5f806117a861252c565b90506117f986828787878080601f0160208091040260200160405190810160405280939291908181526020018383808284375f81840152601f19601f82011690508083019250505050505050612615565b915050949350505050565b5f8061180e61252c565b905061181a818461299c565b61185b57806040517fd9b3955700000000000000000000000000000000000000000000000000000000815260040161185291906142b5565b60405180910390fd5b5f611864611bc9565b90505f8111156118e1575f61189483600161187d611ab9565b61188791906155c3565b65ffffffffffff16611ddb565b9050818110156118df578281836040517fc242ee160000000000000000000000000000000000000000000000000000000081526004016118d6939291906155fc565b60405180910390fd5b505b6118ee8787878786612a82565b92505050949350505050565b5f60025f8373ffffffffffffffffffffffffffffffffffffffff1673ffffffffffffffffffffffffffffffffffffffff1681526020019081526020015f20549050919050565b5f6060805f805f6060611951612d07565b611959612d41565b46305f801b5f67ffffffffffffffff81111561197857611977614300565b5b6040519080825280602002602001820160405280156119a65781602001602082028036833780820191505090505b507f0f00000000000000000000000000000000000000000000000000000000000000959493929190965096509650965096509650965090919293949596565b5f80611a5084611a4a7ff2aad550cf55f045cb27e9c559f9889fdfb6e6cdaa032301d6ea397784ae51d7898989611a1b8b612634565b604051602001611a2f959493929190615631565b60405160208183030381529060405280519060200120612687565b856126a0565b905080611a9457836040517f94ab6c07000000000000000000000000000000000000000000000000000000008152600401611a8b91906142b5565b60405180910390fd5b611aae86858760405180602001604052805f815250612615565b915050949350505050565b5f611ac2611f22565b73ffffffffffffffffffffffffffffffffffffffff166391ddadf46040518163ffffffff1660e01b8152600401602060405180830381865afa925050508015611b2957506040513d601f19601f82011682018060405250810190611b2691906156ac565b60015b611b3c57611b35612d7c565b9050611b41565b809150505b90565b5f6064905090565b5f611b58848484612d8b565b90509392505050565b5f611b6c6008612e16565b79ffffffffffffffffffffffffffffffffffffffffffffffffffff16905090565b5f919050565b5f60045f8381526020019081526020015f206001015f9054906101000a900465ffffffffffff1665ffffffffffff169050919050565b5f90565b5f3073ffffffffffffffffffffffffffffffffffffffff16611bed610bb6565b73ffffffffffffffffffffffffffffffffffffffff1614611c3a576040517fe90a651e00000000000000000000000000000000000000000000000000000000815260040160405180910390fd5b63bc197c8160e01b905095945050505050565b5f60045f8381526020019081526020015f205f01601a9054906101000a900463ffffffff1663ffffffff1660045f8481526020019081526020015f205f0160149054906101000a900465ffffffffffff16611ca891906156d7565b65ffffffffffff169050919050565b611cbf611fb2565b5f808573ffffffffffffffffffffffffffffffffffffffff16858585604051611ce99291906154cf565b5f6040518083038185875af1925050503d805f8114611d23576040519150601f19603f3d011682016040523d82523d5f602084013e611d28565b606091505b5091509150611d378282612e78565b50505050505050565b5f84848484604051602001611d5894939291906158d4565b604051602081830303815290604052805190602001205f1c9050949350505050565b60606040518060400160405280602081526020017f737570706f72743d627261766f2671756f72756d3d666f722c6162737461696e815250905090565b7ff2aad550cf55f045cb27e9c559f9889fdfb6e6cdaa032301d6ea397784ae51d781565b5f611dee8383611de9612e9c565b612d8b565b905092915050565b5f3073ffffffffffffffffffffffffffffffffffffffff16611e16610bb6565b73ffffffffffffffffffffffffffffffffffffffff1614611e63576040517fe90a651e00000000000000000000000000000000000000000000000000000000815260040160405180910390fd5b63f23a6e6160e01b905095945050505050565b5f611e7f611b44565b611e88836116a5565b611e90611f22565b73ffffffffffffffffffffffffffffffffffffffff16638e539e8c856040518263ffffffff1660e01b8152600401611ec89190614178565b602060405180830381865afa158015611ee3573d5f803e3d5ffd5b505050506040513d601f19601f82011682018060405250810190611f079190615940565b611f11919061596b565b611f1b91906159d9565b9050919050565b5f7f0000000000000000000000000000000000000000000000000000000000000000905090565b5f7f01ffc9a7000000000000000000000000000000000000000000000000000000007bffffffffffffffffffffffffffffffffffffffffffffffffffffffff1916827bffffffffffffffffffffffffffffffffffffffffffffffffffffffff1916149050919050565b611fba61252c565b73ffffffffffffffffffffffffffffffffffffffff16611fd8610bb6565b73ffffffffffffffffffffffffffffffffffffffff161461203757611ffb61252c565b6040517f47096e4700000000000000000000000000000000000000000000000000000000815260040161202e91906142b5565b60405180910390fd5b3073ffffffffffffffffffffffffffffffffffffffff16612056610bb6565b73ffffffffffffffffffffffffffffffffffffffff16146120a5575f61207a612eb2565b6040516120889291906154cf565b604051809103902090505b8061209e6005612ebe565b0361209357505b565b5f6120b0611b44565b9050808211156120f95781816040517f243e54450000000000000000000000000000000000000000000000000000000081526004016120f0929190615a09565b60405180910390fd5b5f612102611b61565b905061212961210f611ab9565b61211885612fec565b60086130599092919063ffffffff16565b50507f0553476bf02ef2726e8ce5ced78d63e26e602e4a2257b1f559418e24b4633997818460405161215c929190615a09565b60405180910390a1505050565b5f81600781111561217d5761217c614841565b5b60ff166001901b5f1b9050919050565b5f8061219884611136565b90505f801b836121a783612169565b16036121ee578381846040517f31b75e4d0000000000000000000000000000000000000000000000000000000081526004016121e593929190615a30565b60405180910390fd5b8091505092915050565b5f95945050505050565b5f825f0160109054906101000a90046fffffffffffffffffffffffffffffffff169050825f015f9054906101000a90046fffffffffffffffffffffffffffffffff166fffffffffffffffffffffffffffffffff16600182016fffffffffffffffffffffffffffffffff160361227c5761227b6041613074565b5b81836001015f836fffffffffffffffffffffffffffffffff166fffffffffffffffffffffffffffffffff1681526020019081526020015f208190555060018101835f0160106101000a8154816fffffffffffffffffffffffffffffffff02191690836fffffffffffffffffffffffffffffffff160217905550505050565b5f5b84518110156123d7575f8086838151811061231a576123196153bf565b5b602002602001015173ffffffffffffffffffffffffffffffffffffffff1686848151811061234b5761234a6153bf565b5b6020026020010151868581518110612366576123656153bf565b5b602002602001015160405161237b9190615a95565b5f6040518083038185875af1925050503d805f81146123b5576040519150601f19603f3d011682016040523d82523d5f602084013e6123ba565b606091505b50915091506123c98282612e78565b5050508060010190506122fc565b505050505050565b5f815f015f9054906101000a90046fffffffffffffffffffffffffffffffff166fffffffffffffffffffffffffffffffff16825f0160109054906101000a90046fffffffffffffffffffffffffffffffff166fffffffffffffffffffffffffffffffff16149050919050565b5f815f015f6101000a8154816fffffffffffffffffffffffffffffffff02191690836fffffffffffffffffffffffffffffffff1602179055505f815f0160106101000a8154816fffffffffffffffffffffffffffffffff02191690836fffffffffffffffffffffffffffffffff16021790555050565b5f8060075f8481526020019081526020015f209050806002015481600101546124ea9190615aab565b6124fb6124f6856110d4565b611e76565b1115915050919050565b5f8060075f8481526020019081526020015f209050805f0154816001015411915050919050565b5f33905090565b5f8061254186868686611d40565b90506125a5816125516007612169565b61255b6006612169565b6125656002612169565b60018060078081111561257b5761257a614841565b5b6125859190615ade565b60026125919190615c41565b61259b9190615590565b5f1b18181861218d565b50600160045f8381526020019081526020015f205f01601f6101000a81548160ff0219169083151502179055507f789cf55be980739dad1d0699b93b58e806b51c9d96619bfa8fe0a28abaa7b30c816040516126019190614178565b60405180910390a180915050949350505050565b5f61262a85858585612625612e9c565b61274c565b9050949350505050565b5f60025f8373ffffffffffffffffffffffffffffffffffffffff1673ffffffffffffffffffffffffffffffffffffffff1681526020019081526020015f205f815480929190600101919050559050919050565b5f612699612693613085565b8361313b565b9050919050565b5f808473ffffffffffffffffffffffffffffffffffffffff163b03612737575f806126cb858561317b565b50915091505f60038111156126e3576126e2614841565b5b8160038111156126f6576126f5614841565b5b14801561272e57508573ffffffffffffffffffffffffffffffffffffffff168273ffffffffffffffffffffffffffffffffffffffff16145b92505050612745565b6127428484846131d0565b90505b9392505050565b5f6127608661275b6001612169565b61218d565b505f6127758661276f896110d4565b85612d8b565b90505f61278588888885886132ef565b90505f8451036127e8578673ffffffffffffffffffffffffffffffffffffffff167fb8e138887d0aa13bab447e82de9d5c1777041ecd21ca36ba824ff1e6c07ddda4898884896040516127db9493929190615c8b565b60405180910390a261283f565b8673ffffffffffffffffffffffffffffffffffffffff167fe2babfbac5889a709b63bb7f598b324e08bc5a4fb9ec647fb3cbc9ec07eb87128988848989604051612836959493929190615d1d565b60405180910390a25b612848886134e4565b809250505095945050505050565b5f65ffffffffffff80168211156128a7576030826040517f6dfcc65000000000000000000000000000000000000000000000000000000000815260040161289e929190615db5565b60405180910390fd5b819050919050565b5f80835f018054905090505f808290506005831115612930575f6128d2846134e7565b846128dd9190615590565b90506128eb875f0182613681565b5f015f9054906101000a900465ffffffffffff1665ffffffffffff168665ffffffffffff16101561291e5780915061292e565b60018161292b9190615aab565b92505b505b5f61293f875f01878585613693565b90505f811461298e57612960875f0160018361295b9190615590565b613681565b5f0160069054906101000a900479ffffffffffffffffffffffffffffffffffffffffffffffffffff16612990565b5f5b94505050505092915050565b5f808251905060348110156129b5576001915050612a7c565b5f6129c38460348403613708565b90507f2370726f706f7365723d0000000000000000000000000000000000000000000075ffffffffffffffffffffffffffffffffffffffffffff19168175ffffffffffffffffffffffffffffffffffffffffffff191614612a2957600192505050612a7c565b5f80612a3986602a860386613718565b91509150811580612a7557508673ffffffffffffffffffffffffffffffffffffffff168173ffffffffffffffffffffffffffffffffffffffff16145b9450505050505b92915050565b5f612a968686868680519060200120611d40565b905084518651141580612aab57508351865114155b80612ab657505f8651145b15612aff578551845186516040517f447b05d0000000000000000000000000000000000000000000000000000000008152600401612af69392919061490b565b60405180910390fd5b5f60045f8381526020019081526020015f205f0160149054906101000a900465ffffffffffff1665ffffffffffff1614612b7e5780612b3d82611136565b5f801b6040517f31b75e4d000000000000000000000000000000000000000000000000000000008152600401612b7593929190615a30565b60405180910390fd5b5f612b8761112e565b612b8f611ab9565b65ffffffffffff16612ba19190615aab565b90505f612bac610c9e565b90505f60045f8581526020019081526020015f20905084815f015f6101000a81548173ffffffffffffffffffffffffffffffffffffffff021916908373ffffffffffffffffffffffffffffffffffffffff160217905550612c0c83612856565b815f0160146101000a81548165ffffffffffff021916908365ffffffffffff160217905550612c3a82613829565b815f01601a6101000a81548163ffffffff021916908363ffffffff1602179055507f7d84a6263ae0d98d3329bd7b46bb4e8d6f98cd35a7adb45c274c8b7fd5ebd5e084868b8b8d5167ffffffffffffffff811115612c9b57612c9a614300565b5b604051908082528060200260200182016040528015612cce57816020015b6060815260200190600190039081612cb95790505b508c89898b612cdd9190615aab565b8e604051612cf399989796959493929190615edf565b60405180910390a150505095945050505050565b6060612d3c5f7f000000000000000000000000000000000000000000000000000000000000000061388090919063ffffffff16565b905090565b6060612d7760017f000000000000000000000000000000000000000000000000000000000000000061388090919063ffffffff16565b905090565b5f612d8643612856565b905090565b5f612d94611f22565b73ffffffffffffffffffffffffffffffffffffffff16633a46b1a885856040518363ffffffff1660e01b8152600401612dce929190615f8d565b602060405180830381865afa158015612de9573d5f803e3d5ffd5b505050506040513d601f19601f82011682018060405250810190612e0d9190615940565b90509392505050565b5f80825f018054905090505f8114612e6e57612e40835f01600183612e3b9190615590565b613681565b5f0160069054906101000a900479ffffffffffffffffffffffffffffffffffffffffffffffffffff16612e70565b5f5b915050919050565b606082612e8d57612e888261392d565b612e95565b819050612e96565b5b92915050565b606060405180602001604052805f815250905090565b365f8036915091509091565b5f80825f015f9054906101000a90046fffffffffffffffffffffffffffffffff169050825f0160109054906101000a90046fffffffffffffffffffffffffffffffff166fffffffffffffffffffffffffffffffff16816fffffffffffffffffffffffffffffffff1603612f3657612f356031613074565b5b826001015f826fffffffffffffffffffffffffffffffff166fffffffffffffffffffffffffffffffff1681526020019081526020015f20549150826001015f826fffffffffffffffffffffffffffffffff166fffffffffffffffffffffffffffffffff1681526020019081526020015f205f905560018101835f015f6101000a8154816fffffffffffffffffffffffffffffffff02191690836fffffffffffffffffffffffffffffffff16021790555050919050565b5f79ffffffffffffffffffffffffffffffffffffffffffffffffffff80168211156130515760d0826040517f6dfcc650000000000000000000000000000000000000000000000000000000008152600401613048929190615fed565b60405180910390fd5b819050919050565b5f80613068855f018585613971565b91509150935093915050565b634e487b715f52806020526024601cfd5b5f7f000000000000000000000000000000000000000000000000000000000000000073ffffffffffffffffffffffffffffffffffffffff163073ffffffffffffffffffffffffffffffffffffffff1614801561310057507f000000000000000000000000000000000000000000000000000000000000000046145b1561312d577f00000000000000000000000000000000000000000000000000000000000000009050613138565b613135613c65565b90505b90565b5f6040517f190100000000000000000000000000000000000000000000000000000000000081528360028201528260228201526042812091505092915050565b5f805f60418451036131bb575f805f602087015192506040870151915060608701515f1a90506131ad88828585613cfa565b9550955095505050506131c9565b5f600285515f1b9250925092505b9250925092565b5f805f8573ffffffffffffffffffffffffffffffffffffffff1685856040516024016131fd929190616014565b604051602081830303815290604052631626ba7e60e01b6020820180517bffffffffffffffffffffffffffffffffffffffffffffffffffffffff838183161783525050505060405161324f9190615a95565b5f60405180830381855afa9150503d805f8114613287576040519150601f19603f3d011682016040523d82523d5f602084013e61328c565b606091505b50915091508180156132a057506020815110155b80156132e45750631626ba7e60e01b7bffffffffffffffffffffffffffffffffffffffffffffffffffffffff1916818060200190518101906132e29190616056565b145b925050509392505050565b5f8060075f8881526020019081526020015f209050806003015f8773ffffffffffffffffffffffffffffffffffffffff1673ffffffffffffffffffffffffffffffffffffffff1681526020019081526020015f205f9054906101000a900460ff161561339257856040517f71c6af4900000000000000000000000000000000000000000000000000000000815260040161338991906142b5565b60405180910390fd5b6001816003015f8873ffffffffffffffffffffffffffffffffffffffff1673ffffffffffffffffffffffffffffffffffffffff1681526020019081526020015f205f6101000a81548160ff0219169083151502179055505f60028111156133fc576133fb614841565b5b60ff168560ff16036134265783815f015f82825461341a9190615aab565b925050819055506134d7565b6001600281111561343a57613439614841565b5b60ff168560ff16036134655783816001015f8282546134599190615aab565b925050819055506134d6565b60028081111561347857613477614841565b5b60ff168560ff16036134a35783816002015f8282546134979190615aab565b925050819055506134d5565b6040517f06b337c200000000000000000000000000000000000000000000000000000000815260040160405180910390fd5b5b5b8391505095945050505050565b50565b5f600182116134f85781905061367c565b5f8290505f60019050700100000000000000000000000000000000821061352857608082901c9150604081901b90505b68010000000000000000821061354757604082901c9150602081901b90505b640100000000821061356257602082901c9150601081901b90505b62010000821061357b57601082901c9150600881901b90505b610100821061359357600882901c9150600481901b90505b601082106135aa57600482901c9150600281901b90505b600482106135ba57600181901b90505b600181600302901c905060018185816135d6576135d56159ac565b5b048201901c905060018185816135ef576135ee6159ac565b5b048201901c90506001818581613608576136076159ac565b5b048201901c90506001818581613621576136206159ac565b5b048201901c9050600181858161363a576136396159ac565b5b048201901c90506001818581613653576136526159ac565b5b048201901c905061367581858161366d5761366c6159ac565b5b048211613de1565b8103925050505b919050565b5f825f528160205f2001905092915050565b5f5b818310156136fd575f6136a88484613dec565b90508465ffffffffffff166136bd8783613681565b5f015f9054906101000a900465ffffffffffff1665ffffffffffff1611156136e7578092506136f7565b6001816136f49190615aab565b93505b50613695565b819050949350505050565b5f81602001830151905092915050565b5f80845183118061372857508284115b15613738575f8091509150613821565b5f6001856137469190615aab565b841180156137be57507f30780000000000000000000000000000000000000000000000000000000000007dffffffffffffffffffffffffffffffffffffffffffffffffffffffffffff191661379b8787613e11565b7dffffffffffffffffffffffffffffffffffffffffffffffffffffffffffff1916145b90505f60026137ce831515613de1565b6137d8919061596b565b60286137e49190615aab565b90508086866137f39190615590565b03613818575f80613805898989613e21565b9150915081819550955050505050613821565b5f809350935050505b935093915050565b5f63ffffffff8016821115613878576020826040517f6dfcc65000000000000000000000000000000000000000000000000000000000815260040161386f9291906160ba565b60405180910390fd5b819050919050565b606060ff5f1b831461389c5761389583613f4c565b9050613927565b8180546138a890615338565b80601f01602080910402602001604051908101604052809291908181526020018280546138d490615338565b801561391f5780601f106138f65761010080835404028352916020019161391f565b820191905f5260205f20905b81548152906001019060200180831161390257829003601f168201915b505050505090505b92915050565b5f8151111561393f5780518082602001fd5b6040517fd6bda27500000000000000000000000000000000000000000000000000000000815260040160405180910390fd5b5f805f858054905090505f811115613b7d575f61399a876001846139959190615590565b613681565b90505f815f015f9054906101000a900465ffffffffffff1690505f825f0160069054906101000a900479ffffffffffffffffffffffffffffffffffffffffffffffffffff1690508765ffffffffffff168265ffffffffffff161115613a2b576040517f2520601d00000000000000000000000000000000000000000000000000000000815260040160405180910390fd5b8765ffffffffffff168265ffffffffffff1603613a955786835f0160066101000a81548179ffffffffffffffffffffffffffffffffffffffffffffffffffff021916908379ffffffffffffffffffffffffffffffffffffffffffffffffffff160217905550613b6e565b8860405180604001604052808a65ffffffffffff1681526020018979ffffffffffffffffffffffffffffffffffffffffffffffffffff16815250908060018154018082558091505060019003905f5260205f20015f909190919091505f820151815f015f6101000a81548165ffffffffffff021916908365ffffffffffff1602179055506020820151815f0160066101000a81548179ffffffffffffffffffffffffffffffffffffffffffffffffffff021916908379ffffffffffffffffffffffffffffffffffffffffffffffffffff16021790555050505b80879550955050505050613c5d565b8560405180604001604052808765ffffffffffff1681526020018679ffffffffffffffffffffffffffffffffffffffffffffffffffff16815250908060018154018082558091505060019003905f5260205f20015f909190919091505f820151815f015f6101000a81548165ffffffffffff021916908365ffffffffffff1602179055506020820151815f0160066101000a81548179ffffffffffffffffffffffffffffffffffffffffffffffffffff021916908379ffffffffffffffffffffffffffffffffffffffffffffffffffff16021790555050505f8492509250505b935093915050565b5f7f8b73c3c69bb8fe3d512ecc4cf759cc79239f7b179b0ffacaa9a75d522b39400f7f00000000000000000000000000000000000000000000000000000000000000007f00000000000000000000000000000000000000000000000000000000000000004630604051602001613cdf9594939291906160e1565b60405160208183030381529060405280519060200120905090565b5f805f7f7fffffffffffffffffffffffffffffff5d576e7357a4501ddfe92f46681b20a0845f1c1115613d36575f600385925092509250613dd7565b5f6001888888886040515f8152602001604052604051613d599493929190616132565b6020604051602081039080840390855afa158015613d79573d5f803e3d5ffd5b5050506020604051035190505f73ffffffffffffffffffffffffffffffffffffffff168173ffffffffffffffffffffffffffffffffffffffff1603613dca575f60015f801b93509350935050613dd7565b805f805f1b935093509350505b9450945094915050565b5f8115159050919050565b5f6002828418613dfc91906159d9565b828416613e099190615aab565b905092915050565b5f81602001830151905092915050565b5f805f8590505f600186613e359190615aab565b85118015613ead57507f30780000000000000000000000000000000000000000000000000000000000007dffffffffffffffffffffffffffffffffffffffffffffffffffffffffffff1916613e8a8388613e11565b7dffffffffffffffffffffffffffffffffffffffffffffffffffffffffffff1916145b90505f6002613ebd831515613de1565b613ec7919061596b565b90505f808289613ed79190615aab565b90505b87811015613f37575f613ef5613ef08784613e11565b613fbe565b9050600f8160ff161115613f14575f8097509750505050505050613f44565b601083613f21919061596b565b92508060ff168301925050806001019050613eda565b5060018195509550505050505b935093915050565b60605f613f588361404e565b90505f602067ffffffffffffffff811115613f7657613f75614300565b5b6040519080825280601f01601f191660200182016040528015613fa85781602001600182028036833780820191505090505b5090508181528360208201528092505050919050565b5f808260f81c9050602f8160ff16118015613fdc5750603a8160ff16105b15613fec57603081039050614044565b60608160ff16118015614002575060678160ff16105b1561401257605781039050614043565b60408160ff16118015614028575060478160ff16105b1561403857603781039050614042565b60ff915050614049565b5b5b809150505b919050565b5f8060ff835f1c169050601f811115614093576040517fb3512b0c00000000000000000000000000000000000000000000000000000000815260040160405180910390fd5b80915050919050565b5f604051905090565b5f80fd5b5f80fd5b5f7fffffffff0000000000000000000000000000000000000000000000000000000082169050919050565b6140e1816140ad565b81146140eb575f80fd5b50565b5f813590506140fc816140d8565b92915050565b5f60208284031215614117576141166140a5565b5b5f614124848285016140ee565b91505092915050565b5f8115159050919050565b6141418161412d565b82525050565b5f60208201905061415a5f830184614138565b92915050565b5f819050919050565b61417281614160565b82525050565b5f60208201905061418b5f830184614169565b92915050565b61419a81614160565b81146141a4575f80fd5b50565b5f813590506141b581614191565b92915050565b5f602082840312156141d0576141cf6140a5565b5b5f6141dd848285016141a7565b91505092915050565b5f81519050919050565b5f82825260208201905092915050565b8281835e5f83830152505050565b5f601f19601f8301169050919050565b5f614228826141e6565b61423281856141f0565b9350614242818560208601614200565b61424b8161420e565b840191505092915050565b5f6020820190508181035f83015261426e818461421e565b905092915050565b5f73ffffffffffffffffffffffffffffffffffffffff82169050919050565b5f61429f82614276565b9050919050565b6142af81614295565b82525050565b5f6020820190506142c85f8301846142a6565b92915050565b6142d781614295565b81146142e1575f80fd5b50565b5f813590506142f2816142ce565b92915050565b5f80fd5b5f80fd5b7f4e487b71000000000000000000000000000000000000000000000000000000005f52604160045260245ffd5b6143368261420e565b810181811067ffffffffffffffff8211171561435557614354614300565b5b80604052505050565b5f61436761409c565b9050614373828261432d565b919050565b5f67ffffffffffffffff82111561439257614391614300565b5b61439b8261420e565b9050602081019050919050565b828183375f83830152505050565b5f6143c86143c384614378565b61435e565b9050828152602081018484840111156143e4576143e36142fc565b5b6143ef8482856143a8565b509392505050565b5f82601f83011261440b5761440a6142f8565b5b813561441b8482602086016143b6565b91505092915050565b5f805f806080858703121561443c5761443b6140a5565b5b5f614449878288016142e4565b945050602061445a878288016142e4565b935050604061446b878288016141a7565b925050606085013567ffffffffffffffff81111561448c5761448b6140a9565b5b614498878288016143f7565b91505092959194509250565b6144ad816140ad565b82525050565b5f6020820190506144c65f8301846144a4565b92915050565b5f67ffffffffffffffff8211156144e6576144e5614300565b5b602082029050602081019050919050565b5f80fd5b5f61450d614508846144cc565b61435e565b905080838252602082019050602084028301858111156145305761452f6144f7565b5b835b81811015614559578061454588826142e4565b845260208401935050602081019050614532565b5050509392505050565b5f82601f830112614577576145766142f8565b5b81356145878482602086016144fb565b91505092915050565b5f67ffffffffffffffff8211156145aa576145a9614300565b5b602082029050602081019050919050565b5f6145cd6145c884614590565b61435e565b905080838252602082019050602084028301858111156145f0576145ef6144f7565b5b835b81811015614619578061460588826141a7565b8452602084019350506020810190506145f2565b5050509392505050565b5f82601f830112614637576146366142f8565b5b81356146478482602086016145bb565b91505092915050565b5f67ffffffffffffffff82111561466a57614669614300565b5b602082029050602081019050919050565b5f61468d61468884614650565b61435e565b905080838252602082019050602084028301858111156146b0576146af6144f7565b5b835b818110156146f757803567ffffffffffffffff8111156146d5576146d46142f8565b5b8086016146e289826143f7565b855260208501945050506020810190506146b2565b5050509392505050565b5f82601f830112614715576147146142f8565b5b813561472584826020860161467b565b91505092915050565b5f819050919050565b6147408161472e565b811461474a575f80fd5b50565b5f8135905061475b81614737565b92915050565b5f805f8060808587031215614779576147786140a5565b5b5f85013567ffffffffffffffff811115614796576147956140a9565b5b6147a287828801614563565b945050602085013567ffffffffffffffff8111156147c3576147c26140a9565b5b6147cf87828801614623565b935050604085013567ffffffffffffffff8111156147f0576147ef6140a9565b5b6147fc87828801614701565b925050606061480d8782880161474d565b91505092959194509250565b6148228161472e565b82525050565b5f60208201905061483b5f830184614819565b92915050565b7f4e487b71000000000000000000000000000000000000000000000000000000005f52602160045260245ffd5b6008811061487f5761487e614841565b5b50565b5f81905061488f8261486e565b919050565b5f61489e82614882565b9050919050565b6148ae81614894565b82525050565b5f6020820190506148c75f8301846148a5565b92915050565b5f80604083850312156148e3576148e26140a5565b5b5f6148f0858286016141a7565b9250506020614901858286016142e4565b9150509250929050565b5f60608201905061491e5f830186614169565b61492b6020830185614169565b6149386040830184614169565b949350505050565b5f60ff82169050919050565b61495581614940565b811461495f575f80fd5b50565b5f813590506149708161494c565b92915050565b5f806040838503121561498c5761498b6140a5565b5b5f614999858286016141a7565b92505060206149aa85828601614962565b9150509250929050565b5f80fd5b5f8083601f8401126149cd576149cc6142f8565b5b8235905067ffffffffffffffff8111156149ea576149e96149b4565b5b602083019150836001820283011115614a0657614a056144f7565b5b9250929050565b5f805f805f805f60c0888a031215614a2857614a276140a5565b5b5f614a358a828b016141a7565b9750506020614a468a828b01614962565b9650506040614a578a828b016142e4565b955050606088013567ffffffffffffffff811115614a7857614a776140a9565b5b614a848a828b016149b8565b9450945050608088013567ffffffffffffffff811115614aa757614aa66140a9565b5b614ab38a828b016143f7565b92505060a088013567ffffffffffffffff811115614ad457614ad36140a9565b5b614ae08a828b016143f7565b91505092959891949750929550565b5f805f805f60808688031215614b0857614b076140a5565b5b5f614b15888289016141a7565b9550506020614b2688828901614962565b945050604086013567ffffffffffffffff811115614b4757614b466140a9565b5b614b53888289016149b8565b9350935050606086013567ffffffffffffffff811115614b7657614b756140a9565b5b614b82888289016143f7565b9150509295509295909350565b5f805f8060608587031215614ba757614ba66140a5565b5b5f614bb4878288016141a7565b9450506020614bc587828801614962565b935050604085013567ffffffffffffffff811115614be657614be56140a9565b5b614bf2878288016149b8565b925092505092959194509250565b5f67ffffffffffffffff821115614c1a57614c19614300565b5b614c238261420e565b9050602081019050919050565b5f614c42614c3d84614c00565b61435e565b905082815260208101848484011115614c5e57614c5d6142fc565b5b614c698482856143a8565b509392505050565b5f82601f830112614c8557614c846142f8565b5b8135614c95848260208601614c30565b91505092915050565b5f805f8060808587031215614cb657614cb56140a5565b5b5f85013567ffffffffffffffff811115614cd357614cd26140a9565b5b614cdf87828801614563565b945050602085013567ffffffffffffffff811115614d0057614cff6140a9565b5b614d0c87828801614623565b935050604085013567ffffffffffffffff811115614d2d57614d2c6140a9565b5b614d3987828801614701565b925050606085013567ffffffffffffffff811115614d5a57614d596140a9565b5b614d6687828801614c71565b91505092959194509250565b5f60208284031215614d8757614d866140a5565b5b5f614d94848285016142e4565b91505092915050565b5f7fff0000000000000000000000000000000000000000000000000000000000000082169050919050565b614dd181614d9d565b82525050565b5f81519050919050565b5f82825260208201905092915050565b5f819050602082019050919050565b614e0981614160565b82525050565b5f614e1a8383614e00565b60208301905092915050565b5f602082019050919050565b5f614e3c82614dd7565b614e468185614de1565b9350614e5183614df1565b805f5b83811015614e81578151614e688882614e0f565b9750614e7383614e26565b925050600181019050614e54565b5085935050505092915050565b5f60e082019050614ea15f83018a614dc8565b8181036020830152614eb3818961421e565b90508181036040830152614ec7818861421e565b9050614ed66060830187614169565b614ee360808301866142a6565b614ef060a0830185614819565b81810360c0830152614f028184614e32565b905098975050505050505050565b5f805f8060808587031215614f2857614f276140a5565b5b5f614f35878288016141a7565b9450506020614f4687828801614962565b9350506040614f57878288016142e4565b925050606085013567ffffffffffffffff811115614f7857614f776140a9565b5b614f84878288016143f7565b91505092959194509250565b5f65ffffffffffff82169050919050565b614faa81614f90565b82525050565b5f602082019050614fc35f830184614fa1565b92915050565b5f805f60608486031215614fe057614fdf6140a5565b5b5f614fed868287016142e4565b9350506020614ffe868287016141a7565b925050604084013567ffffffffffffffff81111561501f5761501e6140a9565b5b61502b868287016143f7565b9150509250925092565b5f805f805f60a0868803121561504e5761504d6140a5565b5b5f61505b888289016142e4565b955050602061506c888289016142e4565b945050604086013567ffffffffffffffff81111561508d5761508c6140a9565b5b61509988828901614623565b935050606086013567ffffffffffffffff8111156150ba576150b96140a9565b5b6150c688828901614623565b925050608086013567ffffffffffffffff8111156150e7576150e66140a9565b5b6150f3888289016143f7565b9150509295509295909350565b5f8083601f840112615115576151146142f8565b5b8235905067ffffffffffffffff811115615132576151316149b4565b5b60208301915083600182028301111561514e5761514d6144f7565b5b9250929050565b5f805f806060858703121561516d5761516c6140a5565b5b5f61517a878288016142e4565b945050602061518b878288016141a7565b935050604085013567ffffffffffffffff8111156151ac576151ab6140a9565b5b6151b887828801615100565b925092505092959194509250565b5f80604083850312156151dc576151db6140a5565b5b5f6151e9858286016142e4565b92505060206151fa858286016141a7565b9150509250929050565b5f805f805f60a0868803121561521d5761521c6140a5565b5b5f61522a888289016142e4565b955050602061523b888289016142e4565b945050604061524c888289016141a7565b935050606061525d888289016141a7565b925050608086013567ffffffffffffffff81111561527e5761527d6140a9565b5b61528a888289016143f7565b9150509295509295909350565b5f819050919050565b5f6152ba6152b56152b084614276565b615297565b614276565b9050919050565b5f6152cb826152a0565b9050919050565b5f6152dc826152c1565b9050919050565b6152ec816152d2565b82525050565b5f6020820190506153055f8301846152e3565b92915050565b7f4e487b71000000000000000000000000000000000000000000000000000000005f52602260045260245ffd5b5f600282049050600182168061534f57607f821691505b6020821081036153625761536161530b565b5b50919050565b5f61538261537d61537884614f90565b615297565b614160565b9050919050565b61539281615368565b82525050565b5f6040820190506153ab5f830185614169565b6153b86020830184615389565b9392505050565b7f4e487b71000000000000000000000000000000000000000000000000000000005f52603260045260245ffd5b5f6153fe6153f984614c00565b61435e565b90508281526020810184848401111561541a576154196142fc565b5b615425848285614200565b509392505050565b5f82601f830112615441576154406142f8565b5b81516154518482602086016153ec565b91505092915050565b5f6020828403121561546f5761546e6140a5565b5b5f82015167ffffffffffffffff81111561548c5761548b6140a9565b5b6154988482850161542d565b91505092915050565b5f81905092915050565b5f6154b683856154a1565b93506154c38385846143a8565b82840190509392505050565b5f6154db8284866154ab565b91508190509392505050565b6154f081614940565b82525050565b5f60e0820190506155095f83018a614819565b6155166020830189614169565b61552360408301886154e7565b61553060608301876142a6565b61553d6080830186614169565b61554a60a0830185614819565b61555760c0830184614819565b98975050505050505050565b7f4e487b71000000000000000000000000000000000000000000000000000000005f52601160045260245ffd5b5f61559a82614160565b91506155a583614160565b92508282039050818111156155bd576155bc615563565b5b92915050565b5f6155cd82614f90565b91506155d883614f90565b9250828203905065ffffffffffff8111156155f6576155f5615563565b5b92915050565b5f60608201905061560f5f8301866142a6565b61561c6020830185614169565b6156296040830184614169565b949350505050565b5f60a0820190506156445f830188614819565b6156516020830187614169565b61565e60408301866154e7565b61566b60608301856142a6565b6156786080830184614169565b9695505050505050565b61568b81614f90565b8114615695575f80fd5b50565b5f815190506156a681615682565b92915050565b5f602082840312156156c1576156c06140a5565b5b5f6156ce84828501615698565b91505092915050565b5f6156e182614f90565b91506156ec83614f90565b9250828201905065ffffffffffff81111561570a57615709615563565b5b92915050565b5f81519050919050565b5f82825260208201905092915050565b5f819050602082019050919050565b61574281614295565b82525050565b5f6157538383615739565b60208301905092915050565b5f602082019050919050565b5f61577582615710565b61577f818561571a565b935061578a8361572a565b805f5b838110156157ba5781516157a18882615748565b97506157ac8361575f565b92505060018101905061578d565b5085935050505092915050565b5f81519050919050565b5f82825260208201905092915050565b5f819050602082019050919050565b5f81519050919050565b5f82825260208201905092915050565b5f615814826157f0565b61581e81856157fa565b935061582e818560208601614200565b6158378161420e565b840191505092915050565b5f61584d838361580a565b905092915050565b5f602082019050919050565b5f61586b826157c7565b61587581856157d1565b935083602082028501615887856157e1565b805f5b858110156158c257848403895281516158a38582615842565b94506158ae83615855565b925060208a0199505060018101905061588a565b50829750879550505050505092915050565b5f6080820190508181035f8301526158ec818761576b565b905081810360208301526159008186614e32565b905081810360408301526159148185615861565b90506159236060830184614819565b95945050505050565b5f8151905061593a81614191565b92915050565b5f60208284031215615955576159546140a5565b5b5f6159628482850161592c565b91505092915050565b5f61597582614160565b915061598083614160565b925082820261598e81614160565b915082820484148315176159a5576159a4615563565b5b5092915050565b7f4e487b71000000000000000000000000000000000000000000000000000000005f52601260045260245ffd5b5f6159e382614160565b91506159ee83614160565b9250826159fe576159fd6159ac565b5b828204905092915050565b5f604082019050615a1c5f830185614169565b615a296020830184614169565b9392505050565b5f606082019050615a435f830186614169565b615a5060208301856148a5565b615a5d6040830184614819565b949350505050565b5f615a6f826157f0565b615a7981856154a1565b9350615a89818560208601614200565b80840191505092915050565b5f615aa08284615a65565b915081905092915050565b5f615ab582614160565b9150615ac083614160565b9250828201905080821115615ad857615ad7615563565b5b92915050565b5f615ae882614940565b9150615af383614940565b9250828201905060ff811115615b0c57615b0b615563565b5b92915050565b5f8160011c9050919050565b5f808291508390505b6001851115615b6757808604811115615b4357615b42615563565b5b6001851615615b525780820291505b8081029050615b6085615b12565b9450615b27565b94509492505050565b5f82615b7f5760019050615c3a565b81615b8c575f9050615c3a565b8160018114615ba25760028114615bac57615bdb565b6001915050615c3a565b60ff841115615bbe57615bbd615563565b5b8360020a915084821115615bd557615bd4615563565b5b50615c3a565b5060208310610133831016604e8410600b8410161715615c105782820a905083811115615c0b57615c0a615563565b5b615c3a565b615c1d8484846001615b1e565b92509050818404811115615c3457615c33615563565b5b81810290505b9392505050565b5f615c4b82614160565b9150615c5683614940565b9250615c837fffffffffffffffffffffffffffffffffffffffffffffffffffffffffffffffff8484615b70565b905092915050565b5f608082019050615c9e5f830187614169565b615cab60208301866154e7565b615cb86040830185614169565b8181036060830152615cca818461421e565b905095945050505050565b5f82825260208201905092915050565b5f615cef826157f0565b615cf98185615cd5565b9350615d09818560208601614200565b615d128161420e565b840191505092915050565b5f60a082019050615d305f830188614169565b615d3d60208301876154e7565b615d4a6040830186614169565b8181036060830152615d5c818561421e565b90508181036080830152615d708184615ce5565b90509695505050505050565b5f819050919050565b5f615d9f615d9a615d9584615d7c565b615297565b614940565b9050919050565b615daf81615d85565b82525050565b5f604082019050615dc85f830185615da6565b615dd56020830184614169565b9392505050565b5f81519050919050565b5f82825260208201905092915050565b5f819050602082019050919050565b5f82825260208201905092915050565b5f615e1f826141e6565b615e298185615e05565b9350615e39818560208601614200565b615e428161420e565b840191505092915050565b5f615e588383615e15565b905092915050565b5f602082019050919050565b5f615e7682615ddc565b615e808185615de6565b935083602082028501615e9285615df6565b805f5b85811015615ecd5784840389528151615eae8582615e4d565b9450615eb983615e60565b925060208a01995050600181019050615e95565b50829750879550505050505092915050565b5f61012082019050615ef35f83018c614169565b615f00602083018b6142a6565b8181036040830152615f12818a61576b565b90508181036060830152615f268189614e32565b90508181036080830152615f3a8188615e6c565b905081810360a0830152615f4e8187615861565b9050615f5d60c0830186614169565b615f6a60e0830185614169565b818103610100830152615f7d818461421e565b90509a9950505050505050505050565b5f604082019050615fa05f8301856142a6565b615fad6020830184614169565b9392505050565b5f819050919050565b5f615fd7615fd2615fcd84615fb4565b615297565b614940565b9050919050565b615fe781615fbd565b82525050565b5f6040820190506160005f830185615fde565b61600d6020830184614169565b9392505050565b5f6040820190506160275f830185614819565b81810360208301526160398184615ce5565b90509392505050565b5f8151905061605081614737565b92915050565b5f6020828403121561606b5761606a6140a5565b5b5f61607884828501616042565b91505092915050565b5f819050919050565b5f6160a461609f61609a84616081565b615297565b614940565b9050919050565b6160b48161608a565b82525050565b5f6040820190506160cd5f8301856160ab565b6160da6020830184614169565b9392505050565b5f60a0820190506160f45f830188614819565b6161016020830187614819565b61610e6040830186614819565b61611b6060830185614169565b61612860808301846142a6565b9695505050505050565b5f6080820190506161455f830187614819565b61615260208301866154e7565b61615f6040830185614819565b61616c6060830184614819565b9594505050505056fea2646970667358221220d953b0fe2f7aa6cbccea932119c8a7881d601485cb330d7293f82a28e45aa1ce64736f6c634300081a0033",
			"opcodes": "PUSH2 0x180 PUSH1 0x40 MSTORE CALLVALUE DUP1 ISZERO PUSH2 0x10 JUMPI PUSH0 DUP1 REVERT JUMPDEST POP PUSH1 0x40 MLOAD PUSH2 0x71F9 CODESIZE SUB DUP1 PUSH2 0x71F9 DUP4 CODECOPY DUP2 DUP2 ADD PUSH1 0x40 MSTORE DUP2 ADD SWAP1 PUSH2 0x32 SWAP2 SWAP1 PUSH2 0x966 JUMP JUMPDEST PUSH1 0x4 DUP2 PUSH1 0x40 MLOAD DUP1 PUSH1 0x40 ADD PUSH1 0x40 MSTORE DUP1 PUSH1 0xA DUP2 MSTORE PUSH1 0x20 ADD PUSH32 0x4D79476F7665726E6F7200000000000000000000000000000000000000000000 DUP2 MSTORE POP DUP1 PUSH2 0x7A PUSH2 0x180 PUSH1 0x20 SHL PUSH1 0x20 SHR JUMP JUMPDEST PUSH2 0x8D PUSH0 DUP4 PUSH2 0x1BD PUSH1 0x20 SHL SWAP1 SWAP2 SWAP1 PUSH1 0x20 SHR JUMP JUMPDEST PUSH2 0x120 DUP2 DUP2 MSTORE POP POP PUSH2 0xA9 PUSH1 0x1 DUP3 PUSH2 0x1BD PUSH1 0x20 SHL SWAP1 SWAP2 SWAP1 PUSH1 0x20 SHR JUMP JUMPDEST PUSH2 0x140 DUP2 DUP2 MSTORE POP POP DUP2 DUP1 MLOAD SWAP1 PUSH1 0x20 ADD KECCAK256 PUSH1 0xE0 DUP2 DUP2 MSTORE POP POP DUP1 DUP1 MLOAD SWAP1 PUSH1 0x20 ADD KECCAK256 PUSH2 0x100 DUP2 DUP2 MSTORE POP POP CHAINID PUSH1 0xA0 DUP2 DUP2 MSTORE POP POP PUSH2 0xE6 PUSH2 0x20A PUSH1 0x20 SHL PUSH1 0x20 SHR JUMP JUMPDEST PUSH1 0x80 DUP2 DUP2 MSTORE POP POP ADDRESS PUSH20 0xFFFFFFFFFFFFFFFFFFFFFFFFFFFFFFFFFFFFFFFF AND PUSH1 0xC0 DUP2 PUSH20 0xFFFFFFFFFFFFFFFFFFFFFFFFFFFFFFFFFFFFFFFF AND DUP2 MSTORE POP POP POP POP DUP1 PUSH1 0x3 SWAP1 DUP2 PUSH2 0x132 SWAP2 SWAP1 PUSH2 0xBCB JUMP JUMPDEST POP POP DUP1 PUSH20 0xFFFFFFFFFFFFFFFFFFFFFFFFFFFFFFFFFFFFFFFF AND PUSH2 0x160 DUP2 PUSH20 0xFFFFFFFFFFFFFFFFFFFFFFFFFFFFFFFFFFFFFFFF AND DUP2 MSTORE POP POP POP PUSH2 0x179 DUP2 PUSH2 0x264 PUSH1 0x20 SHL PUSH1 0x20 SHR JUMP JUMPDEST POP POP PUSH2 0xFF3 JUMP JUMPDEST PUSH1 0x60 PUSH1 0x40 MLOAD DUP1 PUSH1 0x40 ADD PUSH1 0x40 MSTORE DUP1 PUSH1 0x1 DUP2 MSTORE PUSH1 0x20 ADD PUSH32 0x3100000000000000000000000000000000000000000000000000000000000000 DUP2 MSTORE POP SWAP1 POP SWAP1 JUMP JUMPDEST PUSH0 PUSH1 0x20 DUP4 MLOAD LT ISZERO PUSH2 0x1DE JUMPI PUSH2 0x1D7 DUP4 PUSH2 0x33E PUSH1 0x20 SHL PUSH1 0x20 SHR JUMP JUMPDEST SWAP1 POP PUSH2 0x204 JUMP JUMPDEST DUP3 PUSH2 0x1EE DUP4 PUSH2 0x3A3 PUSH1 0x20 SHL PUSH1 0x20 SHR JUMP JUMPDEST PUSH0 ADD SWAP1 DUP2 PUSH2 0x1FC SWAP2 SWAP1 PUSH2 0xBCB JUMP JUMPDEST POP PUSH1 0xFF PUSH0 SHL SWAP1 POP JUMPDEST SWAP3 SWAP2 POP POP JUMP JUMPDEST PUSH0 PUSH32 0x8B73C3C69BB8FE3D512ECC4CF759CC79239F7B179B0FFACAA9A75D522B39400F PUSH1 0xE0 MLOAD PUSH2 0x100 MLOAD CHAINID ADDRESS PUSH1 0x40 MLOAD PUSH1 0x20 ADD PUSH2 0x249 SWAP6 SWAP5 SWAP4 SWAP3 SWAP2 SWAP1 PUSH2 0xCD0 JUMP JUMPDEST PUSH1 0x40 MLOAD PUSH1 0x20 DUP2 DUP4 SUB SUB DUP2 MSTORE SWAP1 PUSH1 0x40 MSTORE DUP1 MLOAD SWAP1 PUSH1 0x20 ADD KECCAK256 SWAP1 POP SWAP1 JUMP JUMPDEST PUSH0 PUSH2 0x273 PUSH2 0x3AC PUSH1 0x20 SHL PUSH1 0x20 SHR JUMP JUMPDEST SWAP1 POP DUP1 DUP3 GT ISZERO PUSH2 0x2BC JUMPI DUP2 DUP2 PUSH1 0x40 MLOAD PUSH32 0x243E544500000000000000000000000000000000000000000000000000000000 DUP2 MSTORE PUSH1 0x4 ADD PUSH2 0x2B3 SWAP3 SWAP2 SWAP1 PUSH2 0xD21 JUMP JUMPDEST PUSH1 0x40 MLOAD DUP1 SWAP2 SUB SWAP1 REVERT JUMPDEST PUSH0 PUSH2 0x2CB PUSH2 0x3B4 PUSH1 0x20 SHL PUSH1 0x20 SHR JUMP JUMPDEST SWAP1 POP PUSH2 0x2FE PUSH2 0x2DE PUSH2 0x3E6 PUSH1 0x20 SHL PUSH1 0x20 SHR JUMP JUMPDEST PUSH2 0x2ED DUP6 PUSH2 0x47D PUSH1 0x20 SHL PUSH1 0x20 SHR JUMP JUMPDEST PUSH1 0x8 PUSH2 0x4EA PUSH1 0x20 SHL SWAP1 SWAP3 SWAP2 SWAP1 PUSH1 0x20 SHR JUMP JUMPDEST POP POP PUSH32 0x553476BF02EF2726E8CE5CED78D63E26E602E4A2257B1F559418E24B4633997 DUP2 DUP5 PUSH1 0x40 MLOAD PUSH2 0x331 SWAP3 SWAP2 SWAP1 PUSH2 0xD21 JUMP JUMPDEST PUSH1 0x40 MLOAD DUP1 SWAP2 SUB SWAP1 LOG1 POP POP POP JUMP JUMPDEST PUSH0 DUP1 DUP3 SWAP1 POP PUSH1 0x1F DUP2 MLOAD GT ISZERO PUSH2 0x38A JUMPI DUP3 PUSH1 0x40 MLOAD PUSH32 0x305A27A900000000000000000000000000000000000000000000000000000000 DUP2 MSTORE PUSH1 0x4 ADD PUSH2 0x381 SWAP2 SWAP1 PUSH2 0xDAE JUMP JUMPDEST PUSH1 0x40 MLOAD DUP1 SWAP2 SUB SWAP1 REVERT JUMPDEST DUP1 MLOAD DUP2 PUSH2 0x396 SWAP1 PUSH2 0xDFB JUMP JUMPDEST PUSH0 SHR OR PUSH0 SHL SWAP2 POP POP SWAP2 SWAP1 POP JUMP JUMPDEST PUSH0 DUP2 SWAP1 POP SWAP2 SWAP1 POP JUMP JUMPDEST PUSH0 PUSH1 0x64 SWAP1 POP SWAP1 JUMP JUMPDEST PUSH0 PUSH2 0x3C5 PUSH1 0x8 PUSH2 0x50B PUSH1 0x20 SHL PUSH1 0x20 SHR JUMP JUMPDEST PUSH26 0xFFFFFFFFFFFFFFFFFFFFFFFFFFFFFFFFFFFFFFFFFFFFFFFFFFFF AND SWAP1 POP SWAP1 JUMP JUMPDEST PUSH0 PUSH2 0x3F5 PUSH2 0x573 PUSH1 0x20 SHL PUSH1 0x20 SHR JUMP JUMPDEST PUSH20 0xFFFFFFFFFFFFFFFFFFFFFFFFFFFFFFFFFFFFFFFF AND PUSH4 0x91DDADF4 PUSH1 0x40 MLOAD DUP2 PUSH4 0xFFFFFFFF AND PUSH1 0xE0 SHL DUP2 MSTORE PUSH1 0x4 ADD PUSH1 0x20 PUSH1 0x40 MLOAD DUP1 DUP4 SUB DUP2 DUP7 GAS STATICCALL SWAP3 POP POP POP DUP1 ISZERO PUSH2 0x45C JUMPI POP PUSH1 0x40 MLOAD RETURNDATASIZE PUSH1 0x1F NOT PUSH1 0x1F DUP3 ADD AND DUP3 ADD DUP1 PUSH1 0x40 MSTORE POP DUP2 ADD SWAP1 PUSH2 0x459 SWAP2 SWAP1 PUSH2 0xE9C JUMP JUMPDEST PUSH1 0x1 JUMPDEST PUSH2 0x475 JUMPI PUSH2 0x46E PUSH2 0x57D PUSH1 0x20 SHL PUSH1 0x20 SHR JUMP JUMPDEST SWAP1 POP PUSH2 0x47A JUMP JUMPDEST DUP1 SWAP2 POP POP JUMPDEST SWAP1 JUMP JUMPDEST PUSH0 PUSH26 0xFFFFFFFFFFFFFFFFFFFFFFFFFFFFFFFFFFFFFFFFFFFFFFFFFFFF DUP1 AND DUP3 GT ISZERO PUSH2 0x4E2 JUMPI PUSH1 0xD0 DUP3 PUSH1 0x40 MLOAD PUSH32 0x6DFCC65000000000000000000000000000000000000000000000000000000000 DUP2 MSTORE PUSH1 0x4 ADD PUSH2 0x4D9 SWAP3 SWAP2 SWAP1 PUSH2 0xF0C JUMP JUMPDEST PUSH1 0x40 MLOAD DUP1 SWAP2 SUB SWAP1 REVERT JUMPDEST DUP2 SWAP1 POP SWAP2 SWAP1 POP JUMP JUMPDEST PUSH0 DUP1 PUSH2 0x4FF DUP6 PUSH0 ADD DUP6 DUP6 PUSH2 0x592 PUSH1 0x20 SHL PUSH1 0x20 SHR JUMP JUMPDEST SWAP2 POP SWAP2 POP SWAP4 POP SWAP4 SWAP2 POP POP JUMP JUMPDEST PUSH0 DUP1 DUP3 PUSH0 ADD DUP1 SLOAD SWAP1 POP SWAP1 POP PUSH0 DUP2 EQ PUSH2 0x569 JUMPI PUSH2 0x53B DUP4 PUSH0 ADD PUSH1 0x1 DUP4 PUSH2 0x530 SWAP2 SWAP1 PUSH2 0xF60 JUMP JUMPDEST PUSH2 0x88C PUSH1 0x20 SHL PUSH1 0x20 SHR JUMP JUMPDEST PUSH0 ADD PUSH1 0x6 SWAP1 SLOAD SWAP1 PUSH2 0x100 EXP SWAP1 DIV PUSH26 0xFFFFFFFFFFFFFFFFFFFFFFFFFFFFFFFFFFFFFFFFFFFFFFFFFFFF AND PUSH2 0x56B JUMP JUMPDEST PUSH0 JUMPDEST SWAP2 POP POP SWAP2 SWAP1 POP JUMP JUMPDEST PUSH0 PUSH2 0x160 MLOAD SWAP1 POP SWAP1 JUMP JUMPDEST PUSH0 PUSH2 0x58D NUMBER PUSH2 0x89E PUSH1 0x20 SHL PUSH1 0x20 SHR JUMP JUMPDEST SWAP1 POP SWAP1 JUMP JUMPDEST PUSH0 DUP1 PUSH0 DUP6 DUP1 SLOAD SWAP1 POP SWAP1 POP PUSH0 DUP2 GT ISZERO PUSH2 0x7A4 JUMPI PUSH0 PUSH2 0x5C1 DUP8 PUSH1 0x1 DUP5 PUSH2 0x5B6 SWAP2 SWAP1 PUSH2 0xF60 JUMP JUMPDEST PUSH2 0x88C PUSH1 0x20 SHL PUSH1 0x20 SHR JUMP JUMPDEST SWAP1 POP PUSH0 DUP2 PUSH0 ADD PUSH0 SWAP1 SLOAD SWAP1 PUSH2 0x100 EXP SWAP1 DIV PUSH6 0xFFFFFFFFFFFF AND SWAP1 POP PUSH0 DUP3 PUSH0 ADD PUSH1 0x6 SWAP1 SLOAD SWAP1 PUSH2 0x100 EXP SWAP1 DIV PUSH26 0xFFFFFFFFFFFFFFFFFFFFFFFFFFFFFFFFFFFFFFFFFFFFFFFFFFFF AND SWAP1 POP DUP8 PUSH6 0xFFFFFFFFFFFF AND DUP3 PUSH6 0xFFFFFFFFFFFF AND GT ISZERO PUSH2 0x652 JUMPI PUSH1 0x40 MLOAD PUSH32 0x2520601D00000000000000000000000000000000000000000000000000000000 DUP2 MSTORE PUSH1 0x4 ADD PUSH1 0x40 MLOAD DUP1 SWAP2 SUB SWAP1 REVERT JUMPDEST DUP8 PUSH6 0xFFFFFFFFFFFF AND DUP3 PUSH6 0xFFFFFFFFFFFF AND SUB PUSH2 0x6BC JUMPI DUP7 DUP4 PUSH0 ADD PUSH1 0x6 PUSH2 0x100 EXP DUP2 SLOAD DUP2 PUSH26 0xFFFFFFFFFFFFFFFFFFFFFFFFFFFFFFFFFFFFFFFFFFFFFFFFFFFF MUL NOT AND SWAP1 DUP4 PUSH26 0xFFFFFFFFFFFFFFFFFFFFFFFFFFFFFFFFFFFFFFFFFFFFFFFFFFFF AND MUL OR SWAP1 SSTORE POP PUSH2 0x795 JUMP JUMPDEST DUP9 PUSH1 0x40 MLOAD DUP1 PUSH1 0x40 ADD PUSH1 0x40 MSTORE DUP1 DUP11 PUSH6 0xFFFFFFFFFFFF AND DUP2 MSTORE PUSH1 0x20 ADD DUP10 PUSH26 0xFFFFFFFFFFFFFFFFFFFFFFFFFFFFFFFFFFFFFFFFFFFFFFFFFFFF AND DUP2 MSTORE POP SWAP1 DUP1 PUSH1 0x1 DUP2 SLOAD ADD DUP1 DUP3 SSTORE DUP1 SWAP2 POP POP PUSH1 0x1 SWAP1 SUB SWAP1 PUSH0 MSTORE PUSH1 0x20 PUSH0 KECCAK256 ADD PUSH0 SWAP1 SWAP2 SWAP1 SWAP2 SWAP1 SWAP2 POP PUSH0 DUP3 ADD MLOAD DUP2 PUSH0 ADD PUSH0 PUSH2 0x100 EXP DUP2 SLOAD DUP2 PUSH6 0xFFFFFFFFFFFF MUL NOT AND SWAP1 DUP4 PUSH6 0xFFFFFFFFFFFF AND MUL OR SWAP1 SSTORE POP PUSH1 0x20 DUP3 ADD MLOAD DUP2 PUSH0 ADD PUSH1 0x6 PUSH2 0x100 EXP DUP2 SLOAD DUP2 PUSH26 0xFFFFFFFFFFFFFFFFFFFFFFFFFFFFFFFFFFFFFFFFFFFFFFFFFFFF MUL NOT AND SWAP1 DUP4 PUSH26 0xFFFFFFFFFFFFFFFFFFFFFFFFFFFFFFFFFFFFFFFFFFFFFFFFFFFF AND MUL OR SWAP1 SSTORE POP POP POP JUMPDEST DUP1 DUP8 SWAP6 POP SWAP6 POP POP POP POP POP PUSH2 0x884 JUMP JUMPDEST DUP6 PUSH1 0x40 MLOAD DUP1 PUSH1 0x40 ADD PUSH1 0x40 MSTORE DUP1 DUP8 PUSH6 0xFFFFFFFFFFFF AND DUP2 MSTORE PUSH1 0x20 ADD DUP7 PUSH26 0xFFFFFFFFFFFFFFFFFFFFFFFFFFFFFFFFFFFFFFFFFFFFFFFFFFFF AND DUP2 MSTORE POP SWAP1 DUP1 PUSH1 0x1 DUP2 SLOAD ADD DUP1 DUP3 SSTORE DUP1 SWAP2 POP POP PUSH1 0x1 SWAP1 SUB SWAP1 PUSH0 MSTORE PUSH1 0x20 PUSH0 KECCAK256 ADD PUSH0 SWAP1 SWAP2 SWAP1 SWAP2 SWAP1 SWAP2 POP PUSH0 DUP3 ADD MLOAD DUP2 PUSH0 ADD PUSH0 PUSH2 0x100 EXP DUP2 SLOAD DUP2 PUSH6 0xFFFFFFFFFFFF MUL NOT AND SWAP1 DUP4 PUSH6 0xFFFFFFFFFFFF AND MUL OR SWAP1 SSTORE POP PUSH1 0x20 DUP3 ADD MLOAD DUP2 PUSH0 ADD PUSH1 0x6 PUSH2 0x100 EXP DUP2 SLOAD DUP2 PUSH26 0xFFFFFFFFFFFFFFFFFFFFFFFFFFFFFFFFFFFFFFFFFFFFFFFFFFFF MUL NOT AND SWAP1 DUP4 PUSH26 0xFFFFFFFFFFFFFFFFFFFFFFFFFFFFFFFFFFFFFFFFFFFFFFFFFFFF AND MUL OR SWAP1 SSTORE POP POP POP PUSH0 DUP5 SWAP3 POP SWAP3 POP POP JUMPDEST SWAP4 POP SWAP4 SWAP2 POP POP JUMP JUMPDEST PUSH0 DUP3 PUSH0 MSTORE DUP2 PUSH1 0x20 PUSH0 KECCAK256 ADD SWAP1 POP SWAP3 SWAP2 POP POP JUMP JUMPDEST PUSH0 PUSH6 0xFFFFFFFFFFFF DUP1 AND DUP3 GT ISZERO PUSH2 0x8EF JUMPI PUSH1 0x30 DUP3 PUSH1 0x40 MLOAD PUSH32 0x6DFCC65000000000000000000000000000000000000000000000000000000000 DUP2 MSTORE PUSH1 0x4 ADD PUSH2 0x8E6 SWAP3 SWAP2 SWAP1 PUSH2 0xFCC JUMP JUMPDEST PUSH1 0x40 MLOAD DUP1 SWAP2 SUB SWAP1 REVERT JUMPDEST DUP2 SWAP1 POP SWAP2 SWAP1 POP JUMP JUMPDEST PUSH0 DUP1 REVERT JUMPDEST PUSH0 PUSH20 0xFFFFFFFFFFFFFFFFFFFFFFFFFFFFFFFFFFFFFFFF DUP3 AND SWAP1 POP SWAP2 SWAP1 POP JUMP JUMPDEST PUSH0 PUSH2 0x924 DUP3 PUSH2 0x8FB JUMP JUMPDEST SWAP1 POP SWAP2 SWAP1 POP JUMP JUMPDEST PUSH0 PUSH2 0x935 DUP3 PUSH2 0x91A JUMP JUMPDEST SWAP1 POP SWAP2 SWAP1 POP JUMP JUMPDEST PUSH2 0x945 DUP2 PUSH2 0x92B JUMP JUMPDEST DUP2 EQ PUSH2 0x94F JUMPI PUSH0 DUP1 REVERT JUMPDEST POP JUMP JUMPDEST PUSH0 DUP2 MLOAD SWAP1 POP PUSH2 0x960 DUP2 PUSH2 0x93C JUMP JUMPDEST SWAP3 SWAP2 POP POP JUMP JUMPDEST PUSH0 PUSH1 0x20 DUP3 DUP5 SUB SLT ISZERO PUSH2 0x97B JUMPI PUSH2 0x97A PUSH2 0x8F7 JUMP JUMPDEST JUMPDEST PUSH0 PUSH2 0x988 DUP5 DUP3 DUP6 ADD PUSH2 0x952 JUMP JUMPDEST SWAP2 POP POP SWAP3 SWAP2 POP POP JUMP JUMPDEST PUSH0 DUP2 MLOAD SWAP1 POP SWAP2 SWAP1 POP JUMP JUMPDEST PUSH32 0x4E487B7100000000000000000000000000000000000000000000000000000000 PUSH0 MSTORE PUSH1 0x41 PUSH1 0x4 MSTORE PUSH1 0x24 PUSH0 REVERT JUMPDEST PUSH32 0x4E487B7100000000000000000000000000000000000000000000000000000000 PUSH0 MSTORE PUSH1 0x22 PUSH1 0x4 MSTORE PUSH1 0x24 PUSH0 REVERT JUMPDEST PUSH0 PUSH1 0x2 DUP3 DIV SWAP1 POP PUSH1 0x1 DUP3 AND DUP1 PUSH2 0xA0C JUMPI PUSH1 0x7F DUP3 AND SWAP2 POP JUMPDEST PUSH1 0x20 DUP3 LT DUP2 SUB PUSH2 0xA1F JUMPI PUSH2 0xA1E PUSH2 0x9C8 JUMP JUMPDEST JUMPDEST POP SWAP2 SWAP1 POP JUMP JUMPDEST PUSH0 DUP2 SWAP1 POP DUP2 PUSH0 MSTORE PUSH1 0x20 PUSH0 KECCAK256 SWAP1 POP SWAP2 SWAP1 POP JUMP JUMPDEST PUSH0 PUSH1 0x20 PUSH1 0x1F DUP4 ADD DIV SWAP1 POP SWAP2 SWAP1 POP JUMP JUMPDEST PUSH0 DUP3 DUP3 SHL SWAP1 POP SWAP3 SWAP2 POP POP JUMP JUMPDEST PUSH0 PUSH1 0x8 DUP4 MUL PUSH2 0xA81 PUSH32 0xFFFFFFFFFFFFFFFFFFFFFFFFFFFFFFFFFFFFFFFFFFFFFFFFFFFFFFFFFFFFFFFF DUP3 PUSH2 0xA46 JUMP JUMPDEST PUSH2 0xA8B DUP7 DUP4 PUSH2 0xA46 JUMP JUMPDEST SWAP6 POP DUP1 NOT DUP5 AND SWAP4 POP DUP1 DUP7 AND DUP5 OR SWAP3 POP POP POP SWAP4 SWAP3 POP POP POP JUMP JUMPDEST PUSH0 DUP2 SWAP1 POP SWAP2 SWAP1 POP JUMP JUMPDEST PUSH0 DUP2 SWAP1 POP SWAP2 SWAP1 POP JUMP JUMPDEST PUSH0 PUSH2 0xACF PUSH2 0xACA PUSH2 0xAC5 DUP5 PUSH2 0xAA3 JUMP JUMPDEST PUSH2 0xAAC JUMP JUMPDEST PUSH2 0xAA3 JUMP JUMPDEST SWAP1 POP SWAP2 SWAP1 POP JUMP JUMPDEST PUSH0 DUP2 SWAP1 POP SWAP2 SWAP1 POP JUMP JUMPDEST PUSH2 0xAE8 DUP4 PUSH2 0xAB5 JUMP JUMPDEST PUSH2 0xAFC PUSH2 0xAF4 DUP3 PUSH2 0xAD6 JUMP JUMPDEST DUP5 DUP5 SLOAD PUSH2 0xA52 JUMP JUMPDEST DUP3 SSTORE POP POP POP POP JUMP JUMPDEST PUSH0 SWAP1 JUMP JUMPDEST PUSH2 0xB10 PUSH2 0xB04 JUMP JUMPDEST PUSH2 0xB1B DUP2 DUP5 DUP5 PUSH2 0xADF JUMP JUMPDEST POP POP POP JUMP JUMPDEST JUMPDEST DUP2 DUP2 LT ISZERO PUSH2 0xB3E JUMPI PUSH2 0xB33 PUSH0 DUP3 PUSH2 0xB08 JUMP JUMPDEST PUSH1 0x1 DUP2 ADD SWAP1 POP PUSH2 0xB21 JUMP JUMPDEST POP POP JUMP JUMPDEST PUSH1 0x1F DUP3 GT ISZERO PUSH2 0xB83 JUMPI PUSH2 0xB54 DUP2 PUSH2 0xA25 JUMP JUMPDEST PUSH2 0xB5D DUP5 PUSH2 0xA37 JUMP JUMPDEST DUP2 ADD PUSH1 0x20 DUP6 LT ISZERO PUSH2 0xB6C JUMPI DUP2 SWAP1 POP JUMPDEST PUSH2 0xB80 PUSH2 0xB78 DUP6 PUSH2 0xA37 JUMP JUMPDEST DUP4 ADD DUP3 PUSH2 0xB20 JUMP JUMPDEST POP POP JUMPDEST POP POP POP JUMP JUMPDEST PUSH0 DUP3 DUP3 SHR SWAP1 POP SWAP3 SWAP2 POP POP JUMP JUMPDEST PUSH0 PUSH2 0xBA3 PUSH0 NOT DUP5 PUSH1 0x8 MUL PUSH2 0xB88 JUMP JUMPDEST NOT DUP1 DUP4 AND SWAP2 POP POP SWAP3 SWAP2 POP POP JUMP JUMPDEST PUSH0 PUSH2 0xBBB DUP4 DUP4 PUSH2 0xB94 JUMP JUMPDEST SWAP2 POP DUP3 PUSH1 0x2 MUL DUP3 OR SWAP1 POP SWAP3 SWAP2 POP POP JUMP JUMPDEST PUSH2 0xBD4 DUP3 PUSH2 0x991 JUMP JUMPDEST PUSH8 0xFFFFFFFFFFFFFFFF DUP2 GT ISZERO PUSH2 0xBED JUMPI PUSH2 0xBEC PUSH2 0x99B JUMP JUMPDEST JUMPDEST PUSH2 0xBF7 DUP3 SLOAD PUSH2 0x9F5 JUMP JUMPDEST PUSH2 0xC02 DUP3 DUP3 DUP6 PUSH2 0xB42 JUMP JUMPDEST PUSH0 PUSH1 0x20 SWAP1 POP PUSH1 0x1F DUP4 GT PUSH1 0x1 DUP2 EQ PUSH2 0xC33 JUMPI PUSH0 DUP5 ISZERO PUSH2 0xC21 JUMPI DUP3 DUP8 ADD MLOAD SWAP1 POP JUMPDEST PUSH2 0xC2B DUP6 DUP3 PUSH2 0xBB0 JUMP JUMPDEST DUP7 SSTORE POP PUSH2 0xC92 JUMP JUMPDEST PUSH1 0x1F NOT DUP5 AND PUSH2 0xC41 DUP7 PUSH2 0xA25 JUMP JUMPDEST PUSH0 JUMPDEST DUP3 DUP2 LT ISZERO PUSH2 0xC68 JUMPI DUP5 DUP10 ADD MLOAD DUP3 SSTORE PUSH1 0x1 DUP3 ADD SWAP2 POP PUSH1 0x20 DUP6 ADD SWAP5 POP PUSH1 0x20 DUP2 ADD SWAP1 POP PUSH2 0xC43 JUMP JUMPDEST DUP7 DUP4 LT ISZERO PUSH2 0xC85 JUMPI DUP5 DUP10 ADD MLOAD PUSH2 0xC81 PUSH1 0x1F DUP10 AND DUP3 PUSH2 0xB94 JUMP JUMPDEST DUP4 SSTORE POP JUMPDEST PUSH1 0x1 PUSH1 0x2 DUP9 MUL ADD DUP9 SSTORE POP POP POP JUMPDEST POP POP POP POP POP POP JUMP JUMPDEST PUSH0 DUP2 SWAP1 POP SWAP2 SWAP1 POP JUMP JUMPDEST PUSH2 0xCAC DUP2 PUSH2 0xC9A JUMP JUMPDEST DUP3 MSTORE POP POP JUMP JUMPDEST PUSH2 0xCBB DUP2 PUSH2 0xAA3 JUMP JUMPDEST DUP3 MSTORE POP POP JUMP JUMPDEST PUSH2 0xCCA DUP2 PUSH2 0x91A JUMP JUMPDEST DUP3 MSTORE POP POP JUMP JUMPDEST PUSH0 PUSH1 0xA0 DUP3 ADD SWAP1 POP PUSH2 0xCE3 PUSH0 DUP4 ADD DUP9 PUSH2 0xCA3 JUMP JUMPDEST PUSH2 0xCF0 PUSH1 0x20 DUP4 ADD DUP8 PUSH2 0xCA3 JUMP JUMPDEST PUSH2 0xCFD PUSH1 0x40 DUP4 ADD DUP7 PUSH2 0xCA3 JUMP JUMPDEST PUSH2 0xD0A PUSH1 0x60 DUP4 ADD DUP6 PUSH2 0xCB2 JUMP JUMPDEST PUSH2 0xD17 PUSH1 0x80 DUP4 ADD DUP5 PUSH2 0xCC1 JUMP JUMPDEST SWAP7 SWAP6 POP POP POP POP POP POP JUMP JUMPDEST PUSH0 PUSH1 0x40 DUP3 ADD SWAP1 POP PUSH2 0xD34 PUSH0 DUP4 ADD DUP6 PUSH2 0xCB2 JUMP JUMPDEST PUSH2 0xD41 PUSH1 0x20 DUP4 ADD DUP5 PUSH2 0xCB2 JUMP JUMPDEST SWAP4 SWAP3 POP POP POP JUMP JUMPDEST PUSH0 DUP3 DUP3 MSTORE PUSH1 0x20 DUP3 ADD SWAP1 POP SWAP3 SWAP2 POP POP JUMP JUMPDEST DUP3 DUP2 DUP4 MCOPY PUSH0 DUP4 DUP4 ADD MSTORE POP POP POP JUMP JUMPDEST PUSH0 PUSH1 0x1F NOT PUSH1 0x1F DUP4 ADD AND SWAP1 POP SWAP2 SWAP1 POP JUMP JUMPDEST PUSH0 PUSH2 0xD80 DUP3 PUSH2 0x991 JUMP JUMPDEST PUSH2 0xD8A DUP2 DUP6 PUSH2 0xD48 JUMP JUMPDEST SWAP4 POP PUSH2 0xD9A DUP2 DUP6 PUSH1 0x20 DUP7 ADD PUSH2 0xD58 JUMP JUMPDEST PUSH2 0xDA3 DUP2 PUSH2 0xD66 JUMP JUMPDEST DUP5 ADD SWAP2 POP POP SWAP3 SWAP2 POP POP JUMP JUMPDEST PUSH0 PUSH1 0x20 DUP3 ADD SWAP1 POP DUP2 DUP2 SUB PUSH0 DUP4 ADD MSTORE PUSH2 0xDC6 DUP2 DUP5 PUSH2 0xD76 JUMP JUMPDEST SWAP1 POP SWAP3 SWAP2 POP POP JUMP JUMPDEST PUSH0 DUP2 MLOAD SWAP1 POP SWAP2 SWAP1 POP JUMP JUMPDEST PUSH0 DUP2 SWAP1 POP PUSH1 0x20 DUP3 ADD SWAP1 POP SWAP2 SWAP1 POP JUMP JUMPDEST PUSH0 PUSH2 0xDF2 DUP3 MLOAD PUSH2 0xC9A JUMP JUMPDEST DUP1 SWAP2 POP POP SWAP2 SWAP1 POP JUMP JUMPDEST PUSH0 PUSH2 0xE05 DUP3 PUSH2 0xDCE JUMP JUMPDEST DUP3 PUSH2 0xE0F DUP5 PUSH2 0xDD8 JUMP JUMPDEST SWAP1 POP PUSH2 0xE1A DUP2 PUSH2 0xDE7 JUMP JUMPDEST SWAP3 POP PUSH1 0x20 DUP3 LT ISZERO PUSH2 0xE5A JUMPI PUSH2 0xE55 PUSH32 0xFFFFFFFFFFFFFFFFFFFFFFFFFFFFFFFFFFFFFFFFFFFFFFFFFFFFFFFFFFFFFFFF DUP4 PUSH1 0x20 SUB PUSH1 0x8 MUL PUSH2 0xA46 JUMP JUMPDEST DUP4 AND SWAP3 POP JUMPDEST POP POP SWAP2 SWAP1 POP JUMP JUMPDEST PUSH0 PUSH6 0xFFFFFFFFFFFF DUP3 AND SWAP1 POP SWAP2 SWAP1 POP JUMP JUMPDEST PUSH2 0xE7B DUP2 PUSH2 0xE61 JUMP JUMPDEST DUP2 EQ PUSH2 0xE85 JUMPI PUSH0 DUP1 REVERT JUMPDEST POP JUMP JUMPDEST PUSH0 DUP2 MLOAD SWAP1 POP PUSH2 0xE96 DUP2 PUSH2 0xE72 JUMP JUMPDEST SWAP3 SWAP2 POP POP JUMP JUMPDEST PUSH0 PUSH1 0x20 DUP3 DUP5 SUB SLT ISZERO PUSH2 0xEB1 JUMPI PUSH2 0xEB0 PUSH2 0x8F7 JUMP JUMPDEST JUMPDEST PUSH0 PUSH2 0xEBE DUP5 DUP3 DUP6 ADD PUSH2 0xE88 JUMP JUMPDEST SWAP2 POP POP SWAP3 SWAP2 POP POP JUMP JUMPDEST PUSH0 DUP2 SWAP1 POP SWAP2 SWAP1 POP JUMP JUMPDEST PUSH0 PUSH1 0xFF DUP3 AND SWAP1 POP SWAP2 SWAP1 POP JUMP JUMPDEST PUSH0 PUSH2 0xEF6 PUSH2 0xEF1 PUSH2 0xEEC DUP5 PUSH2 0xEC7 JUMP JUMPDEST PUSH2 0xAAC JUMP JUMPDEST PUSH2 0xED0 JUMP JUMPDEST SWAP1 POP SWAP2 SWAP1 POP JUMP JUMPDEST PUSH2 0xF06 DUP2 PUSH2 0xEDC JUMP JUMPDEST DUP3 MSTORE POP POP JUMP JUMPDEST PUSH0 PUSH1 0x40 DUP3 ADD SWAP1 POP PUSH2 0xF1F PUSH0 DUP4 ADD DUP6 PUSH2 0xEFD JUMP JUMPDEST PUSH2 0xF2C PUSH1 0x20 DUP4 ADD DUP5 PUSH2 0xCB2 JUMP JUMPDEST SWAP4 SWAP3 POP POP POP JUMP JUMPDEST PUSH32 0x4E487B7100000000000000000000000000000000000000000000000000000000 PUSH0 MSTORE PUSH1 0x11 PUSH1 0x4 MSTORE PUSH1 0x24 PUSH0 REVERT JUMPDEST PUSH0 PUSH2 0xF6A DUP3 PUSH2 0xAA3 JUMP JUMPDEST SWAP2 POP PUSH2 0xF75 DUP4 PUSH2 0xAA3 JUMP JUMPDEST SWAP3 POP DUP3 DUP3 SUB SWAP1 POP DUP2 DUP2 GT ISZERO PUSH2 0xF8D JUMPI PUSH2 0xF8C PUSH2 0xF33 JUMP JUMPDEST JUMPDEST SWAP3 SWAP2 POP POP JUMP JUMPDEST PUSH0 DUP2 SWAP1 POP SWAP2 SWAP1 POP JUMP JUMPDEST PUSH0 PUSH2 0xFB6 PUSH2 0xFB1 PUSH2 0xFAC DUP5 PUSH2 0xF93 JUMP JUMPDEST PUSH2 0xAAC JUMP JUMPDEST PUSH2 0xED0 JUMP JUMPDEST SWAP1 POP SWAP2 SWAP1 POP JUMP JUMPDEST PUSH2 0xFC6 DUP2 PUSH2 0xF9C JUMP JUMPDEST DUP3 MSTORE POP POP JUMP JUMPDEST PUSH0 PUSH1 0x40 DUP3 ADD SWAP1 POP PUSH2 0xFDF PUSH0 DUP4 ADD DUP6 PUSH2 0xFBD JUMP JUMPDEST PUSH2 0xFEC PUSH1 0x20 DUP4 ADD DUP5 PUSH2 0xCB2 JUMP JUMPDEST SWAP4 SWAP3 POP POP POP JUMP JUMPDEST PUSH1 0x80 MLOAD PUSH1 0xA0 MLOAD PUSH1 0xC0 MLOAD PUSH1 0xE0 MLOAD PUSH2 0x100 MLOAD PUSH2 0x120 MLOAD PUSH2 0x140 MLOAD PUSH2 0x160 MLOAD PUSH2 0x61AB PUSH2 0x104E PUSH0 CODECOPY PUSH0 PUSH2 0x1F25 ADD MSTORE PUSH0 PUSH2 0x2D4A ADD MSTORE PUSH0 PUSH2 0x2D0F ADD MSTORE PUSH0 PUSH2 0x3CAA ADD MSTORE PUSH0 PUSH2 0x3C89 ADD MSTORE PUSH0 PUSH2 0x3088 ADD MSTORE PUSH0 PUSH2 0x30DE ADD MSTORE PUSH0 PUSH2 0x3107 ADD MSTORE PUSH2 0x61AB PUSH0 RETURN INVALID PUSH1 0x80 PUSH1 0x40 MSTORE PUSH1 0x4 CALLDATASIZE LT PUSH2 0x25F JUMPI PUSH0 CALLDATALOAD PUSH1 0xE0 SHR DUP1 PUSH4 0x7B3C71D3 GT PUSH2 0x143 JUMPI DUP1 PUSH4 0xB58131B0 GT PUSH2 0xB5 JUMPI DUP1 PUSH4 0xDD4E2BA5 GT PUSH2 0x79 JUMPI DUP1 PUSH4 0xDD4E2BA5 EQ PUSH2 0xA84 JUMPI DUP1 PUSH4 0xDEAAA7CC EQ PUSH2 0xAAE JUMPI DUP1 PUSH4 0xEB9019D4 EQ PUSH2 0xAD8 JUMPI DUP1 PUSH4 0xF23A6E61 EQ PUSH2 0xB14 JUMPI DUP1 PUSH4 0xF8CE560A EQ PUSH2 0xB50 JUMPI DUP1 PUSH4 0xFC0C546A EQ PUSH2 0xB8C JUMPI PUSH2 0x2D2 JUMP JUMPDEST DUP1 PUSH4 0xB58131B0 EQ PUSH2 0x98A JUMPI DUP1 PUSH4 0xBC197C81 EQ PUSH2 0x9B4 JUMPI DUP1 PUSH4 0xC01F9E37 EQ PUSH2 0x9F0 JUMPI DUP1 PUSH4 0xC28BC2FA EQ PUSH2 0xA2C JUMPI DUP1 PUSH4 0xC59057E4 EQ PUSH2 0xA48 JUMPI PUSH2 0x2D2 JUMP JUMPDEST DUP1 PUSH4 0x91DDADF4 GT PUSH2 0x107 JUMPI DUP1 PUSH4 0x91DDADF4 EQ PUSH2 0x858 JUMPI DUP1 PUSH4 0x97C3D334 EQ PUSH2 0x882 JUMPI DUP1 PUSH4 0x9A802A6D EQ PUSH2 0x8AC JUMPI DUP1 PUSH4 0xA7713A70 EQ PUSH2 0x8E8 JUMPI DUP1 PUSH4 0xA9A95294 EQ PUSH2 0x912 JUMPI DUP1 PUSH4 0xAB58FB8E EQ PUSH2 0x94E JUMPI PUSH2 0x2D2 JUMP JUMPDEST DUP1 PUSH4 0x7B3C71D3 EQ PUSH2 0x738 JUMPI DUP1 PUSH4 0x7D5E81E2 EQ PUSH2 0x774 JUMPI DUP1 PUSH4 0x7ECEBE00 EQ PUSH2 0x7B0 JUMPI DUP1 PUSH4 0x84B0196E EQ PUSH2 0x7EC JUMPI DUP1 PUSH4 0x8FF262E3 EQ PUSH2 0x81C JUMPI PUSH2 0x2D2 JUMP JUMPDEST DUP1 PUSH4 0x3932ABB1 GT PUSH2 0x1DC JUMPI DUP1 PUSH4 0x544FFC9C GT PUSH2 0x1A0 JUMPI DUP1 PUSH4 0x544FFC9C EQ PUSH2 0x5E0 JUMPI DUP1 PUSH4 0x54FD4D50 EQ PUSH2 0x61E JUMPI DUP1 PUSH4 0x56781388 EQ PUSH2 0x648 JUMPI DUP1 PUSH4 0x5B8D0E0D EQ PUSH2 0x684 JUMPI DUP1 PUSH4 0x5F398A14 EQ PUSH2 0x6C0 JUMPI DUP1 PUSH4 0x60C4247F EQ PUSH2 0x6FC JUMPI PUSH2 0x2D2 JUMP JUMPDEST DUP1 PUSH4 0x3932ABB1 EQ PUSH2 0x4D8 JUMPI DUP1 PUSH4 0x3E4F49E6 EQ PUSH2 0x502 JUMPI DUP1 PUSH4 0x43859632 EQ PUSH2 0x53E JUMPI DUP1 PUSH4 0x452115D6 EQ PUSH2 0x57A JUMPI DUP1 PUSH4 0x4BF5D7E9 EQ PUSH2 0x5B6 JUMPI PUSH2 0x2D2 JUMP JUMPDEST DUP1 PUSH4 0x150B7A02 GT PUSH2 0x223 JUMPI DUP1 PUSH4 0x150B7A02 EQ PUSH2 0x3CA JUMPI DUP1 PUSH4 0x160CBED7 EQ PUSH2 0x406 JUMPI DUP1 PUSH4 0x2656227D EQ PUSH2 0x442 JUMPI DUP1 PUSH4 0x2D63F693 EQ PUSH2 0x472 JUMPI DUP1 PUSH4 0x2FE3E261 EQ PUSH2 0x4AE JUMPI PUSH2 0x2D2 JUMP JUMPDEST DUP1 PUSH4 0x1FFC9A7 EQ PUSH2 0x2D6 JUMPI DUP1 PUSH4 0x2A251A3 EQ PUSH2 0x312 JUMPI DUP1 PUSH4 0x6F3F9E6 EQ PUSH2 0x33C JUMPI DUP1 PUSH4 0x6FDDE03 EQ PUSH2 0x364 JUMPI DUP1 PUSH4 0x143489D0 EQ PUSH2 0x38E JUMPI PUSH2 0x2D2 JUMP JUMPDEST CALLDATASIZE PUSH2 0x2D2 JUMPI ADDRESS PUSH20 0xFFFFFFFFFFFFFFFFFFFFFFFFFFFFFFFFFFFFFFFF AND PUSH2 0x283 PUSH2 0xBB6 JUMP JUMPDEST PUSH20 0xFFFFFFFFFFFFFFFFFFFFFFFFFFFFFFFFFFFFFFFF AND EQ PUSH2 0x2D0 JUMPI PUSH1 0x40 MLOAD PUSH32 0xE90A651E00000000000000000000000000000000000000000000000000000000 DUP2 MSTORE PUSH1 0x4 ADD PUSH1 0x40 MLOAD DUP1 SWAP2 SUB SWAP1 REVERT JUMPDEST STOP JUMPDEST PUSH0 DUP1 REVERT JUMPDEST CALLVALUE DUP1 ISZERO PUSH2 0x2E1 JUMPI PUSH0 DUP1 REVERT JUMPDEST POP PUSH2 0x2FC PUSH1 0x4 DUP1 CALLDATASIZE SUB DUP2 ADD SWAP1 PUSH2 0x2F7 SWAP2 SWAP1 PUSH2 0x4102 JUMP JUMPDEST PUSH2 0xBBD JUMP JUMPDEST PUSH1 0x40 MLOAD PUSH2 0x309 SWAP2 SWAP1 PUSH2 0x4147 JUMP JUMPDEST PUSH1 0x40 MLOAD DUP1 SWAP2 SUB SWAP1 RETURN JUMPDEST CALLVALUE DUP1 ISZERO PUSH2 0x31D JUMPI PUSH0 DUP1 REVERT JUMPDEST POP PUSH2 0x326 PUSH2 0xC9E JUMP JUMPDEST PUSH1 0x40 MLOAD PUSH2 0x333 SWAP2 SWAP1 PUSH2 0x4178 JUMP JUMPDEST PUSH1 0x40 MLOAD DUP1 SWAP2 SUB SWAP1 RETURN JUMPDEST CALLVALUE DUP1 ISZERO PUSH2 0x347 JUMPI PUSH0 DUP1 REVERT JUMPDEST POP PUSH2 0x362 PUSH1 0x4 DUP1 CALLDATASIZE SUB DUP2 ADD SWAP1 PUSH2 0x35D SWAP2 SWAP1 PUSH2 0x41BB JUMP JUMPDEST PUSH2 0xCA6 JUMP JUMPDEST STOP JUMPDEST CALLVALUE DUP1 ISZERO PUSH2 0x36F JUMPI PUSH0 DUP1 REVERT JUMPDEST POP PUSH2 0x378 PUSH2 0xCBA JUMP JUMPDEST PUSH1 0x40 MLOAD PUSH2 0x385 SWAP2 SWAP1 PUSH2 0x4256 JUMP JUMPDEST PUSH1 0x40 MLOAD DUP1 SWAP2 SUB SWAP1 RETURN JUMPDEST CALLVALUE DUP1 ISZERO PUSH2 0x399 JUMPI PUSH0 DUP1 REVERT JUMPDEST POP PUSH2 0x3B4 PUSH1 0x4 DUP1 CALLDATASIZE SUB DUP2 ADD SWAP1 PUSH2 0x3AF SWAP2 SWAP1 PUSH2 0x41BB JUMP JUMPDEST PUSH2 0xD4A JUMP JUMPDEST PUSH1 0x40 MLOAD PUSH2 0x3C1 SWAP2 SWAP1 PUSH2 0x42B5 JUMP JUMPDEST PUSH1 0x40 MLOAD DUP1 SWAP2 SUB SWAP1 RETURN JUMPDEST CALLVALUE DUP1 ISZERO PUSH2 0x3D5 JUMPI PUSH0 DUP1 REVERT JUMPDEST POP PUSH2 0x3F0 PUSH1 0x4 DUP1 CALLDATASIZE SUB DUP2 ADD SWAP1 PUSH2 0x3EB SWAP2 SWAP1 PUSH2 0x4424 JUMP JUMPDEST PUSH2 0xD85 JUMP JUMPDEST PUSH1 0x40 MLOAD PUSH2 0x3FD SWAP2 SWAP1 PUSH2 0x44B3 JUMP JUMPDEST PUSH1 0x40 MLOAD DUP1 SWAP2 SUB SWAP1 RETURN JUMPDEST CALLVALUE DUP1 ISZERO PUSH2 0x411 JUMPI PUSH0 DUP1 REVERT JUMPDEST POP PUSH2 0x42C PUSH1 0x4 DUP1 CALLDATASIZE SUB DUP2 ADD SWAP1 PUSH2 0x427 SWAP2 SWAP1 PUSH2 0x4761 JUMP JUMPDEST PUSH2 0xE04 JUMP JUMPDEST PUSH1 0x40 MLOAD PUSH2 0x439 SWAP2 SWAP1 PUSH2 0x4178 JUMP JUMPDEST PUSH1 0x40 MLOAD DUP1 SWAP2 SUB SWAP1 RETURN JUMPDEST PUSH2 0x45C PUSH1 0x4 DUP1 CALLDATASIZE SUB DUP2 ADD SWAP1 PUSH2 0x457 SWAP2 SWAP1 PUSH2 0x4761 JUMP JUMPDEST PUSH2 0xEFA JUMP JUMPDEST PUSH1 0x40 MLOAD PUSH2 0x469 SWAP2 SWAP1 PUSH2 0x4178 JUMP JUMPDEST PUSH1 0x40 MLOAD DUP1 SWAP2 SUB SWAP1 RETURN JUMPDEST CALLVALUE DUP1 ISZERO PUSH2 0x47D JUMPI PUSH0 DUP1 REVERT JUMPDEST POP PUSH2 0x498 PUSH1 0x4 DUP1 CALLDATASIZE SUB DUP2 ADD SWAP1 PUSH2 0x493 SWAP2 SWAP1 PUSH2 0x41BB JUMP JUMPDEST PUSH2 0x10D4 JUMP JUMPDEST PUSH1 0x40 MLOAD PUSH2 0x4A5 SWAP2 SWAP1 PUSH2 0x4178 JUMP JUMPDEST PUSH1 0x40 MLOAD DUP1 SWAP2 SUB SWAP1 RETURN JUMPDEST CALLVALUE DUP1 ISZERO PUSH2 0x4B9 JUMPI PUSH0 DUP1 REVERT JUMPDEST POP PUSH2 0x4C2 PUSH2 0x110A JUMP JUMPDEST PUSH1 0x40 MLOAD PUSH2 0x4CF SWAP2 SWAP1 PUSH2 0x4828 JUMP JUMPDEST PUSH1 0x40 MLOAD DUP1 SWAP2 SUB SWAP1 RETURN JUMPDEST CALLVALUE DUP1 ISZERO PUSH2 0x4E3 JUMPI PUSH0 DUP1 REVERT JUMPDEST POP PUSH2 0x4EC PUSH2 0x112E JUMP JUMPDEST PUSH1 0x40 MLOAD PUSH2 0x4F9 SWAP2 SWAP1 PUSH2 0x4178 JUMP JUMPDEST PUSH1 0x40 MLOAD DUP1 SWAP2 SUB SWAP1 RETURN JUMPDEST CALLVALUE DUP1 ISZERO PUSH2 0x50D JUMPI PUSH0 DUP1 REVERT JUMPDEST POP PUSH2 0x528 PUSH1 0x4 DUP1 CALLDATASIZE SUB DUP2 ADD SWAP1 PUSH2 0x523 SWAP2 SWAP1 PUSH2 0x41BB JUMP JUMPDEST PUSH2 0x1136 JUMP JUMPDEST PUSH1 0x40 MLOAD PUSH2 0x535 SWAP2 SWAP1 PUSH2 0x48B4 JUMP JUMPDEST PUSH1 0x40 MLOAD DUP1 SWAP2 SUB SWAP1 RETURN JUMPDEST CALLVALUE DUP1 ISZERO PUSH2 0x549 JUMPI PUSH0 DUP1 REVERT JUMPDEST POP PUSH2 0x564 PUSH1 0x4 DUP1 CALLDATASIZE SUB DUP2 ADD SWAP1 PUSH2 0x55F SWAP2 SWAP1 PUSH2 0x48CD JUMP JUMPDEST PUSH2 0x128D JUMP JUMPDEST PUSH1 0x40 MLOAD PUSH2 0x571 SWAP2 SWAP1 PUSH2 0x4147 JUMP JUMPDEST PUSH1 0x40 MLOAD DUP1 SWAP2 SUB SWAP1 RETURN JUMPDEST CALLVALUE DUP1 ISZERO PUSH2 0x585 JUMPI PUSH0 DUP1 REVERT JUMPDEST POP PUSH2 0x5A0 PUSH1 0x4 DUP1 CALLDATASIZE SUB DUP2 ADD SWAP1 PUSH2 0x59B SWAP2 SWAP1 PUSH2 0x4761 JUMP JUMPDEST PUSH2 0x12F2 JUMP JUMPDEST PUSH1 0x40 MLOAD PUSH2 0x5AD SWAP2 SWAP1 PUSH2 0x4178 JUMP JUMPDEST PUSH1 0x40 MLOAD DUP1 SWAP2 SUB SWAP1 RETURN JUMPDEST CALLVALUE DUP1 ISZERO PUSH2 0x5C1 JUMPI PUSH0 DUP1 REVERT JUMPDEST POP PUSH2 0x5CA PUSH2 0x13B2 JUMP JUMPDEST PUSH1 0x40 MLOAD PUSH2 0x5D7 SWAP2 SWAP1 PUSH2 0x4256 JUMP JUMPDEST PUSH1 0x40 MLOAD DUP1 SWAP2 SUB SWAP1 RETURN JUMPDEST CALLVALUE DUP1 ISZERO PUSH2 0x5EB JUMPI PUSH0 DUP1 REVERT JUMPDEST POP PUSH2 0x606 PUSH1 0x4 DUP1 CALLDATASIZE SUB DUP2 ADD SWAP1 PUSH2 0x601 SWAP2 SWAP1 PUSH2 0x41BB JUMP JUMPDEST PUSH2 0x146F JUMP JUMPDEST PUSH1 0x40 MLOAD PUSH2 0x615 SWAP4 SWAP3 SWAP2 SWAP1 PUSH2 0x490B JUMP JUMPDEST PUSH1 0x40 MLOAD DUP1 SWAP2 SUB SWAP1 RETURN JUMPDEST CALLVALUE DUP1 ISZERO PUSH2 0x629 JUMPI PUSH0 DUP1 REVERT JUMPDEST POP PUSH2 0x632 PUSH2 0x14A2 JUMP JUMPDEST PUSH1 0x40 MLOAD PUSH2 0x63F SWAP2 SWAP1 PUSH2 0x4256 JUMP JUMPDEST PUSH1 0x40 MLOAD DUP1 SWAP2 SUB SWAP1 RETURN JUMPDEST CALLVALUE DUP1 ISZERO PUSH2 0x653 JUMPI PUSH0 DUP1 REVERT JUMPDEST POP PUSH2 0x66E PUSH1 0x4 DUP1 CALLDATASIZE SUB DUP2 ADD SWAP1 PUSH2 0x669 SWAP2 SWAP1 PUSH2 0x4976 JUMP JUMPDEST PUSH2 0x14DF JUMP JUMPDEST PUSH1 0x40 MLOAD PUSH2 0x67B SWAP2 SWAP1 PUSH2 0x4178 JUMP JUMPDEST PUSH1 0x40 MLOAD DUP1 SWAP2 SUB SWAP1 RETURN JUMPDEST CALLVALUE DUP1 ISZERO PUSH2 0x68F JUMPI PUSH0 DUP1 REVERT JUMPDEST POP PUSH2 0x6AA PUSH1 0x4 DUP1 CALLDATASIZE SUB DUP2 ADD SWAP1 PUSH2 0x6A5 SWAP2 SWAP1 PUSH2 0x4A0D JUMP JUMPDEST PUSH2 0x150E JUMP JUMPDEST PUSH1 0x40 MLOAD PUSH2 0x6B7 SWAP2 SWAP1 PUSH2 0x4178 JUMP JUMPDEST PUSH1 0x40 MLOAD DUP1 SWAP2 SUB SWAP1 RETURN JUMPDEST CALLVALUE DUP1 ISZERO PUSH2 0x6CB JUMPI PUSH0 DUP1 REVERT JUMPDEST POP PUSH2 0x6E6 PUSH1 0x4 DUP1 CALLDATASIZE SUB DUP2 ADD SWAP1 PUSH2 0x6E1 SWAP2 SWAP1 PUSH2 0x4AEF JUMP JUMPDEST PUSH2 0x163D JUMP JUMPDEST PUSH1 0x40 MLOAD PUSH2 0x6F3 SWAP2 SWAP1 PUSH2 0x4178 JUMP JUMPDEST PUSH1 0x40 MLOAD DUP1 SWAP2 SUB SWAP1 RETURN JUMPDEST CALLVALUE DUP1 ISZERO PUSH2 0x707 JUMPI PUSH0 DUP1 REVERT JUMPDEST POP PUSH2 0x722 PUSH1 0x4 DUP1 CALLDATASIZE SUB DUP2 ADD SWAP1 PUSH2 0x71D SWAP2 SWAP1 PUSH2 0x41BB JUMP JUMPDEST PUSH2 0x16A5 JUMP JUMPDEST PUSH1 0x40 MLOAD PUSH2 0x72F SWAP2 SWAP1 PUSH2 0x4178 JUMP JUMPDEST PUSH1 0x40 MLOAD DUP1 SWAP2 SUB SWAP1 RETURN JUMPDEST CALLVALUE DUP1 ISZERO PUSH2 0x743 JUMPI PUSH0 DUP1 REVERT JUMPDEST POP PUSH2 0x75E PUSH1 0x4 DUP1 CALLDATASIZE SUB DUP2 ADD SWAP1 PUSH2 0x759 SWAP2 SWAP1 PUSH2 0x4B8F JUMP JUMPDEST PUSH2 0x179E JUMP JUMPDEST PUSH1 0x40 MLOAD PUSH2 0x76B SWAP2 SWAP1 PUSH2 0x4178 JUMP JUMPDEST PUSH1 0x40 MLOAD DUP1 SWAP2 SUB SWAP1 RETURN JUMPDEST CALLVALUE DUP1 ISZERO PUSH2 0x77F JUMPI PUSH0 DUP1 REVERT JUMPDEST POP PUSH2 0x79A PUSH1 0x4 DUP1 CALLDATASIZE SUB DUP2 ADD SWAP1 PUSH2 0x795 SWAP2 SWAP1 PUSH2 0x4C9E JUMP JUMPDEST PUSH2 0x1804 JUMP JUMPDEST PUSH1 0x40 MLOAD PUSH2 0x7A7 SWAP2 SWAP1 PUSH2 0x4178 JUMP JUMPDEST PUSH1 0x40 MLOAD DUP1 SWAP2 SUB SWAP1 RETURN JUMPDEST CALLVALUE DUP1 ISZERO PUSH2 0x7BB JUMPI PUSH0 DUP1 REVERT JUMPDEST POP PUSH2 0x7D6 PUSH1 0x4 DUP1 CALLDATASIZE SUB DUP2 ADD SWAP1 PUSH2 0x7D1 SWAP2 SWAP1 PUSH2 0x4D72 JUMP JUMPDEST PUSH2 0x18FA JUMP JUMPDEST PUSH1 0x40 MLOAD PUSH2 0x7E3 SWAP2 SWAP1 PUSH2 0x4178 JUMP JUMPDEST PUSH1 0x40 MLOAD DUP1 SWAP2 SUB SWAP1 RETURN JUMPDEST CALLVALUE DUP1 ISZERO PUSH2 0x7F7 JUMPI PUSH0 DUP1 REVERT JUMPDEST POP PUSH2 0x800 PUSH2 0x1940 JUMP JUMPDEST PUSH1 0x40 MLOAD PUSH2 0x813 SWAP8 SWAP7 SWAP6 SWAP5 SWAP4 SWAP3 SWAP2 SWAP1 PUSH2 0x4E8E JUMP JUMPDEST PUSH1 0x40 MLOAD DUP1 SWAP2 SUB SWAP1 RETURN JUMPDEST CALLVALUE DUP1 ISZERO PUSH2 0x827 JUMPI PUSH0 DUP1 REVERT JUMPDEST POP PUSH2 0x842 PUSH1 0x4 DUP1 CALLDATASIZE SUB DUP2 ADD SWAP1 PUSH2 0x83D SWAP2 SWAP1 PUSH2 0x4F10 JUMP JUMPDEST PUSH2 0x19E5 JUMP JUMPDEST PUSH1 0x40 MLOAD PUSH2 0x84F SWAP2 SWAP1 PUSH2 0x4178 JUMP JUMPDEST PUSH1 0x40 MLOAD DUP1 SWAP2 SUB SWAP1 RETURN JUMPDEST CALLVALUE DUP1 ISZERO PUSH2 0x863 JUMPI PUSH0 DUP1 REVERT JUMPDEST POP PUSH2 0x86C PUSH2 0x1AB9 JUMP JUMPDEST PUSH1 0x40 MLOAD PUSH2 0x879 SWAP2 SWAP1 PUSH2 0x4FB0 JUMP JUMPDEST PUSH1 0x40 MLOAD DUP1 SWAP2 SUB SWAP1 RETURN JUMPDEST CALLVALUE DUP1 ISZERO PUSH2 0x88D JUMPI PUSH0 DUP1 REVERT JUMPDEST POP PUSH2 0x896 PUSH2 0x1B44 JUMP JUMPDEST PUSH1 0x40 MLOAD PUSH2 0x8A3 SWAP2 SWAP1 PUSH2 0x4178 JUMP JUMPDEST PUSH1 0x40 MLOAD DUP1 SWAP2 SUB SWAP1 RETURN JUMPDEST CALLVALUE DUP1 ISZERO PUSH2 0x8B7 JUMPI PUSH0 DUP1 REVERT JUMPDEST POP PUSH2 0x8D2 PUSH1 0x4 DUP1 CALLDATASIZE SUB DUP2 ADD SWAP1 PUSH2 0x8CD SWAP2 SWAP1 PUSH2 0x4FC9 JUMP JUMPDEST PUSH2 0x1B4C JUMP JUMPDEST PUSH1 0x40 MLOAD PUSH2 0x8DF SWAP2 SWAP1 PUSH2 0x4178 JUMP JUMPDEST PUSH1 0x40 MLOAD DUP1 SWAP2 SUB SWAP1 RETURN JUMPDEST CALLVALUE DUP1 ISZERO PUSH2 0x8F3 JUMPI PUSH0 DUP1 REVERT JUMPDEST POP PUSH2 0x8FC PUSH2 0x1B61 JUMP JUMPDEST PUSH1 0x40 MLOAD PUSH2 0x909 SWAP2 SWAP1 PUSH2 0x4178 JUMP JUMPDEST PUSH1 0x40 MLOAD DUP1 SWAP2 SUB SWAP1 RETURN JUMPDEST CALLVALUE DUP1 ISZERO PUSH2 0x91D JUMPI PUSH0 DUP1 REVERT JUMPDEST POP PUSH2 0x938 PUSH1 0x4 DUP1 CALLDATASIZE SUB DUP2 ADD SWAP1 PUSH2 0x933 SWAP2 SWAP1 PUSH2 0x41BB JUMP JUMPDEST PUSH2 0x1B8D JUMP JUMPDEST PUSH1 0x40 MLOAD PUSH2 0x945 SWAP2 SWAP1 PUSH2 0x4147 JUMP JUMPDEST PUSH1 0x40 MLOAD DUP1 SWAP2 SUB SWAP1 RETURN JUMPDEST CALLVALUE DUP1 ISZERO PUSH2 0x959 JUMPI PUSH0 DUP1 REVERT JUMPDEST POP PUSH2 0x974 PUSH1 0x4 DUP1 CALLDATASIZE SUB DUP2 ADD SWAP1 PUSH2 0x96F SWAP2 SWAP1 PUSH2 0x41BB JUMP JUMPDEST PUSH2 0x1B93 JUMP JUMPDEST PUSH1 0x40 MLOAD PUSH2 0x981 SWAP2 SWAP1 PUSH2 0x4178 JUMP JUMPDEST PUSH1 0x40 MLOAD DUP1 SWAP2 SUB SWAP1 RETURN JUMPDEST CALLVALUE DUP1 ISZERO PUSH2 0x995 JUMPI PUSH0 DUP1 REVERT JUMPDEST POP PUSH2 0x99E PUSH2 0x1BC9 JUMP JUMPDEST PUSH1 0x40 MLOAD PUSH2 0x9AB SWAP2 SWAP1 PUSH2 0x4178 JUMP JUMPDEST PUSH1 0x40 MLOAD DUP1 SWAP2 SUB SWAP1 RETURN JUMPDEST CALLVALUE DUP1 ISZERO PUSH2 0x9BF JUMPI PUSH0 DUP1 REVERT JUMPDEST POP PUSH2 0x9DA PUSH1 0x4 DUP1 CALLDATASIZE SUB DUP2 ADD SWAP1 PUSH2 0x9D5 SWAP2 SWAP1 PUSH2 0x5035 JUMP JUMPDEST PUSH2 0x1BCD JUMP JUMPDEST PUSH1 0x40 MLOAD PUSH2 0x9E7 SWAP2 SWAP1 PUSH2 0x44B3 JUMP JUMPDEST PUSH1 0x40 MLOAD DUP1 SWAP2 SUB SWAP1 RETURN JUMPDEST CALLVALUE DUP1 ISZERO PUSH2 0x9FB JUMPI PUSH0 DUP1 REVERT JUMPDEST POP PUSH2 0xA16 PUSH1 0x4 DUP1 CALLDATASIZE SUB DUP2 ADD SWAP1 PUSH2 0xA11 SWAP2 SWAP1 PUSH2 0x41BB JUMP JUMPDEST PUSH2 0x1C4D JUMP JUMPDEST PUSH1 0x40 MLOAD PUSH2 0xA23 SWAP2 SWAP1 PUSH2 0x4178 JUMP JUMPDEST PUSH1 0x40 MLOAD DUP1 SWAP2 SUB SWAP1 RETURN JUMPDEST PUSH2 0xA46 PUSH1 0x4 DUP1 CALLDATASIZE SUB DUP2 ADD SWAP1 PUSH2 0xA41 SWAP2 SWAP1 PUSH2 0x5155 JUMP JUMPDEST PUSH2 0x1CB7 JUMP JUMPDEST STOP JUMPDEST CALLVALUE DUP1 ISZERO PUSH2 0xA53 JUMPI PUSH0 DUP1 REVERT JUMPDEST POP PUSH2 0xA6E PUSH1 0x4 DUP1 CALLDATASIZE SUB DUP2 ADD SWAP1 PUSH2 0xA69 SWAP2 SWAP1 PUSH2 0x4761 JUMP JUMPDEST PUSH2 0x1D40 JUMP JUMPDEST PUSH1 0x40 MLOAD PUSH2 0xA7B SWAP2 SWAP1 PUSH2 0x4178 JUMP JUMPDEST PUSH1 0x40 MLOAD DUP1 SWAP2 SUB SWAP1 RETURN JUMPDEST CALLVALUE DUP1 ISZERO PUSH2 0xA8F JUMPI PUSH0 DUP1 REVERT JUMPDEST POP PUSH2 0xA98 PUSH2 0x1D7A JUMP JUMPDEST PUSH1 0x40 MLOAD PUSH2 0xAA5 SWAP2 SWAP1 PUSH2 0x4256 JUMP JUMPDEST PUSH1 0x40 MLOAD DUP1 SWAP2 SUB SWAP1 RETURN JUMPDEST CALLVALUE DUP1 ISZERO PUSH2 0xAB9 JUMPI PUSH0 DUP1 REVERT JUMPDEST POP PUSH2 0xAC2 PUSH2 0x1DB7 JUMP JUMPDEST PUSH1 0x40 MLOAD PUSH2 0xACF SWAP2 SWAP1 PUSH2 0x4828 JUMP JUMPDEST PUSH1 0x40 MLOAD DUP1 SWAP2 SUB SWAP1 RETURN JUMPDEST CALLVALUE DUP1 ISZERO PUSH2 0xAE3 JUMPI PUSH0 DUP1 REVERT JUMPDEST POP PUSH2 0xAFE PUSH1 0x4 DUP1 CALLDATASIZE SUB DUP2 ADD SWAP1 PUSH2 0xAF9 SWAP2 SWAP1 PUSH2 0x51C6 JUMP JUMPDEST PUSH2 0x1DDB JUMP JUMPDEST PUSH1 0x40 MLOAD PUSH2 0xB0B SWAP2 SWAP1 PUSH2 0x4178 JUMP JUMPDEST PUSH1 0x40 MLOAD DUP1 SWAP2 SUB SWAP1 RETURN JUMPDEST CALLVALUE DUP1 ISZERO PUSH2 0xB1F JUMPI PUSH0 DUP1 REVERT JUMPDEST POP PUSH2 0xB3A PUSH1 0x4 DUP1 CALLDATASIZE SUB DUP2 ADD SWAP1 PUSH2 0xB35 SWAP2 SWAP1 PUSH2 0x5204 JUMP JUMPDEST PUSH2 0x1DF6 JUMP JUMPDEST PUSH1 0x40 MLOAD PUSH2 0xB47 SWAP2 SWAP1 PUSH2 0x44B3 JUMP JUMPDEST PUSH1 0x40 MLOAD DUP1 SWAP2 SUB SWAP1 RETURN JUMPDEST CALLVALUE DUP1 ISZERO PUSH2 0xB5B JUMPI PUSH0 DUP1 REVERT JUMPDEST POP PUSH2 0xB76 PUSH1 0x4 DUP1 CALLDATASIZE SUB DUP2 ADD SWAP1 PUSH2 0xB71 SWAP2 SWAP1 PUSH2 0x41BB JUMP JUMPDEST PUSH2 0x1E76 JUMP JUMPDEST PUSH1 0x40 MLOAD PUSH2 0xB83 SWAP2 SWAP1 PUSH2 0x4178 JUMP JUMPDEST PUSH1 0x40 MLOAD DUP1 SWAP2 SUB SWAP1 RETURN JUMPDEST CALLVALUE DUP1 ISZERO PUSH2 0xB97 JUMPI PUSH0 DUP1 REVERT JUMPDEST POP PUSH2 0xBA0 PUSH2 0x1F22 JUMP JUMPDEST PUSH1 0x40 MLOAD PUSH2 0xBAD SWAP2 SWAP1 PUSH2 0x52F2 JUMP JUMPDEST PUSH1 0x40 MLOAD DUP1 SWAP2 SUB SWAP1 RETURN JUMPDEST PUSH0 ADDRESS SWAP1 POP SWAP1 JUMP JUMPDEST PUSH0 PUSH32 0x65455A8600000000000000000000000000000000000000000000000000000000 PUSH28 0xFFFFFFFFFFFFFFFFFFFFFFFFFFFFFFFFFFFFFFFFFFFFFFFFFFFFFFFF NOT AND DUP3 PUSH28 0xFFFFFFFFFFFFFFFFFFFFFFFFFFFFFFFFFFFFFFFFFFFFFFFFFFFFFFFF NOT AND EQ DUP1 PUSH2 0xC87 JUMPI POP PUSH32 0x4E2312E000000000000000000000000000000000000000000000000000000000 PUSH28 0xFFFFFFFFFFFFFFFFFFFFFFFFFFFFFFFFFFFFFFFFFFFFFFFFFFFFFFFF NOT AND DUP3 PUSH28 0xFFFFFFFFFFFFFFFFFFFFFFFFFFFFFFFFFFFFFFFFFFFFFFFFFFFFFFFF NOT AND EQ JUMPDEST DUP1 PUSH2 0xC97 JUMPI POP PUSH2 0xC96 DUP3 PUSH2 0x1F49 JUMP JUMPDEST JUMPDEST SWAP1 POP SWAP2 SWAP1 POP JUMP JUMPDEST PUSH0 PUSH1 0x2 SWAP1 POP SWAP1 JUMP JUMPDEST PUSH2 0xCAE PUSH2 0x1FB2 JUMP JUMPDEST PUSH2 0xCB7 DUP2 PUSH2 0x20A7 JUMP JUMPDEST POP JUMP JUMPDEST PUSH1 0x60 PUSH1 0x3 DUP1 SLOAD PUSH2 0xCC9 SWAP1 PUSH2 0x5338 JUMP JUMPDEST DUP1 PUSH1 0x1F ADD PUSH1 0x20 DUP1 SWAP2 DIV MUL PUSH1 0x20 ADD PUSH1 0x40 MLOAD SWAP1 DUP2 ADD PUSH1 0x40 MSTORE DUP1 SWAP3 SWAP2 SWAP1 DUP2 DUP2 MSTORE PUSH1 0x20 ADD DUP3 DUP1 SLOAD PUSH2 0xCF5 SWAP1 PUSH2 0x5338 JUMP JUMPDEST DUP1 ISZERO PUSH2 0xD40 JUMPI DUP1 PUSH1 0x1F LT PUSH2 0xD17 JUMPI PUSH2 0x100 DUP1 DUP4 SLOAD DIV MUL DUP4 MSTORE SWAP2 PUSH1 0x20 ADD SWAP2 PUSH2 0xD40 JUMP JUMPDEST DUP3 ADD SWAP2 SWAP1 PUSH0 MSTORE PUSH1 0x20 PUSH0 KECCAK256 SWAP1 JUMPDEST DUP2 SLOAD DUP2 MSTORE SWAP1 PUSH1 0x1 ADD SWAP1 PUSH1 0x20 ADD DUP1 DUP4 GT PUSH2 0xD23 JUMPI DUP3 SWAP1 SUB PUSH1 0x1F AND DUP3 ADD SWAP2 JUMPDEST POP POP POP POP POP SWAP1 POP SWAP1 JUMP JUMPDEST PUSH0 PUSH1 0x4 PUSH0 DUP4 DUP2 MSTORE PUSH1 0x20 ADD SWAP1 DUP2 MSTORE PUSH1 0x20 ADD PUSH0 KECCAK256 PUSH0 ADD PUSH0 SWAP1 SLOAD SWAP1 PUSH2 0x100 EXP SWAP1 DIV PUSH20 0xFFFFFFFFFFFFFFFFFFFFFFFFFFFFFFFFFFFFFFFF AND SWAP1 POP SWAP2 SWAP1 POP JUMP JUMPDEST PUSH0 ADDRESS PUSH20 0xFFFFFFFFFFFFFFFFFFFFFFFFFFFFFFFFFFFFFFFF AND PUSH2 0xDA5 PUSH2 0xBB6 JUMP JUMPDEST PUSH20 0xFFFFFFFFFFFFFFFFFFFFFFFFFFFFFFFFFFFFFFFF AND EQ PUSH2 0xDF2 JUMPI PUSH1 0x40 MLOAD PUSH32 0xE90A651E00000000000000000000000000000000000000000000000000000000 DUP2 MSTORE PUSH1 0x4 ADD PUSH1 0x40 MLOAD DUP1 SWAP2 SUB SWAP1 REVERT JUMPDEST PUSH4 0x150B7A02 PUSH1 0xE0 SHL SWAP1 POP SWAP5 SWAP4 POP POP POP POP JUMP JUMPDEST PUSH0 DUP1 PUSH2 0xE12 DUP7 DUP7 DUP7 DUP7 PUSH2 0x1D40 JUMP JUMPDEST SWAP1 POP PUSH2 0xE27 DUP2 PUSH2 0xE22 PUSH1 0x4 PUSH2 0x2169 JUMP JUMPDEST PUSH2 0x218D JUMP JUMPDEST POP PUSH0 PUSH2 0xE36 DUP3 DUP9 DUP9 DUP9 DUP9 PUSH2 0x21F8 JUMP JUMPDEST SWAP1 POP PUSH0 DUP2 PUSH6 0xFFFFFFFFFFFF AND EQ PUSH2 0xEBB JUMPI DUP1 PUSH1 0x4 PUSH0 DUP5 DUP2 MSTORE PUSH1 0x20 ADD SWAP1 DUP2 MSTORE PUSH1 0x20 ADD PUSH0 KECCAK256 PUSH1 0x1 ADD PUSH0 PUSH2 0x100 EXP DUP2 SLOAD DUP2 PUSH6 0xFFFFFFFFFFFF MUL NOT AND SWAP1 DUP4 PUSH6 0xFFFFFFFFFFFF AND MUL OR SWAP1 SSTORE POP PUSH32 0x9A2E42FD6722813D69113E7D0079D3D940171428DF7373DF9C7F7617CFDA2892 DUP3 DUP3 PUSH1 0x40 MLOAD PUSH2 0xEAE SWAP3 SWAP2 SWAP1 PUSH2 0x5398 JUMP JUMPDEST PUSH1 0x40 MLOAD DUP1 SWAP2 SUB SWAP1 LOG1 PUSH2 0xEED JUMP JUMPDEST PUSH1 0x40 MLOAD PUSH32 0x90884A4600000000000000000000000000000000000000000000000000000000 DUP2 MSTORE PUSH1 0x4 ADD PUSH1 0x40 MLOAD DUP1 SWAP2 SUB SWAP1 REVERT JUMPDEST DUP2 SWAP3 POP POP POP SWAP5 SWAP4 POP POP POP POP JUMP JUMPDEST PUSH0 DUP1 PUSH2 0xF08 DUP7 DUP7 DUP7 DUP7 PUSH2 0x1D40 JUMP JUMPDEST SWAP1 POP PUSH2 0xF28 DUP2 PUSH2 0xF18 PUSH1 0x5 PUSH2 0x2169 JUMP JUMPDEST PUSH2 0xF22 PUSH1 0x4 PUSH2 0x2169 JUMP JUMPDEST OR PUSH2 0x218D JUMP JUMPDEST POP PUSH1 0x1 PUSH1 0x4 PUSH0 DUP4 DUP2 MSTORE PUSH1 0x20 ADD SWAP1 DUP2 MSTORE PUSH1 0x20 ADD PUSH0 KECCAK256 PUSH0 ADD PUSH1 0x1E PUSH2 0x100 EXP DUP2 SLOAD DUP2 PUSH1 0xFF MUL NOT AND SWAP1 DUP4 ISZERO ISZERO MUL OR SWAP1 SSTORE POP ADDRESS PUSH20 0xFFFFFFFFFFFFFFFFFFFFFFFFFFFFFFFFFFFFFFFF AND PUSH2 0xF74 PUSH2 0xBB6 JUMP JUMPDEST PUSH20 0xFFFFFFFFFFFFFFFFFFFFFFFFFFFFFFFFFFFFFFFF AND EQ PUSH2 0x102A JUMPI PUSH0 JUMPDEST DUP7 MLOAD DUP2 LT ISZERO PUSH2 0x1028 JUMPI ADDRESS PUSH20 0xFFFFFFFFFFFFFFFFFFFFFFFFFFFFFFFFFFFFFFFF AND DUP8 DUP3 DUP2 MLOAD DUP2 LT PUSH2 0xFC4 JUMPI PUSH2 0xFC3 PUSH2 0x53BF JUMP JUMPDEST JUMPDEST PUSH1 0x20 MUL PUSH1 0x20 ADD ADD MLOAD PUSH20 0xFFFFFFFFFFFFFFFFFFFFFFFFFFFFFFFFFFFFFFFF AND SUB PUSH2 0x101D JUMPI PUSH2 0x101C DUP6 DUP3 DUP2 MLOAD DUP2 LT PUSH2 0xFFD JUMPI PUSH2 0xFFC PUSH2 0x53BF JUMP JUMPDEST JUMPDEST PUSH1 0x20 MUL PUSH1 0x20 ADD ADD MLOAD DUP1 MLOAD SWAP1 PUSH1 0x20 ADD KECCAK256 PUSH1 0x5 PUSH2 0x2202 SWAP1 SWAP2 SWAP1 PUSH4 0xFFFFFFFF AND JUMP JUMPDEST JUMPDEST DUP1 PUSH1 0x1 ADD SWAP1 POP PUSH2 0xF91 JUMP JUMPDEST POP JUMPDEST PUSH2 0x1037 DUP2 DUP8 DUP8 DUP8 DUP8 PUSH2 0x22FA JUMP JUMPDEST ADDRESS PUSH20 0xFFFFFFFFFFFFFFFFFFFFFFFFFFFFFFFFFFFFFFFF AND PUSH2 0x1056 PUSH2 0xBB6 JUMP JUMPDEST PUSH20 0xFFFFFFFFFFFFFFFFFFFFFFFFFFFFFFFFFFFFFFFF AND EQ ISZERO DUP1 ISZERO PUSH2 0x1081 JUMPI POP PUSH2 0x107F PUSH1 0x5 PUSH2 0x23DF JUMP JUMPDEST ISZERO JUMPDEST ISZERO PUSH2 0x1091 JUMPI PUSH2 0x1090 PUSH1 0x5 PUSH2 0x244B JUMP JUMPDEST JUMPDEST PUSH32 0x712AE1383F79AC853F8D882153778E0260EF8F03B504E2866E0593E04D2B291F DUP2 PUSH1 0x40 MLOAD PUSH2 0x10C0 SWAP2 SWAP1 PUSH2 0x4178 JUMP JUMPDEST PUSH1 0x40 MLOAD DUP1 SWAP2 SUB SWAP1 LOG1 DUP1 SWAP2 POP POP SWAP5 SWAP4 POP POP POP POP JUMP JUMPDEST PUSH0 PUSH1 0x4 PUSH0 DUP4 DUP2 MSTORE PUSH1 0x20 ADD SWAP1 DUP2 MSTORE PUSH1 0x20 ADD PUSH0 KECCAK256 PUSH0 ADD PUSH1 0x14 SWAP1 SLOAD SWAP1 PUSH2 0x100 EXP SWAP1 DIV PUSH6 0xFFFFFFFFFFFF AND PUSH6 0xFFFFFFFFFFFF AND SWAP1 POP SWAP2 SWAP1 POP JUMP JUMPDEST PUSH32 0x3E83946653575F9A39005E1545185629E92736B7528AB20CA3816F315424A811 DUP2 JUMP JUMPDEST PUSH0 PUSH1 0x2 SWAP1 POP SWAP1 JUMP JUMPDEST PUSH0 DUP1 PUSH1 0x4 PUSH0 DUP5 DUP2 MSTORE PUSH1 0x20 ADD SWAP1 DUP2 MSTORE PUSH1 0x20 ADD PUSH0 KECCAK256 SWAP1 POP PUSH0 DUP2 PUSH0 ADD PUSH1 0x1E SWAP1 SLOAD SWAP1 PUSH2 0x100 EXP SWAP1 DIV PUSH1 0xFF AND SWAP1 POP PUSH0 DUP3 PUSH0 ADD PUSH1 0x1F SWAP1 SLOAD SWAP1 PUSH2 0x100 EXP SWAP1 DIV PUSH1 0xFF AND SWAP1 POP DUP2 ISZERO PUSH2 0x1185 JUMPI PUSH1 0x7 SWAP4 POP POP POP POP PUSH2 0x1288 JUMP JUMPDEST DUP1 ISZERO PUSH2 0x1197 JUMPI PUSH1 0x2 SWAP4 POP POP POP POP PUSH2 0x1288 JUMP JUMPDEST PUSH0 PUSH2 0x11A1 DUP7 PUSH2 0x10D4 JUMP JUMPDEST SWAP1 POP PUSH0 DUP2 SUB PUSH2 0x11E7 JUMPI DUP6 PUSH1 0x40 MLOAD PUSH32 0x6AD0607500000000000000000000000000000000000000000000000000000000 DUP2 MSTORE PUSH1 0x4 ADD PUSH2 0x11DE SWAP2 SWAP1 PUSH2 0x4178 JUMP JUMPDEST PUSH1 0x40 MLOAD DUP1 SWAP2 SUB SWAP1 REVERT JUMPDEST PUSH0 PUSH2 0x11F0 PUSH2 0x1AB9 JUMP JUMPDEST PUSH6 0xFFFFFFFFFFFF AND SWAP1 POP DUP1 DUP3 LT PUSH2 0x120E JUMPI PUSH0 SWAP6 POP POP POP POP POP POP PUSH2 0x1288 JUMP JUMPDEST PUSH0 PUSH2 0x1218 DUP9 PUSH2 0x1C4D JUMP JUMPDEST SWAP1 POP DUP2 DUP2 LT PUSH2 0x1230 JUMPI PUSH1 0x1 SWAP7 POP POP POP POP POP POP POP PUSH2 0x1288 JUMP JUMPDEST PUSH2 0x1239 DUP9 PUSH2 0x24C1 JUMP JUMPDEST ISZERO DUP1 PUSH2 0x124B JUMPI POP PUSH2 0x1249 DUP9 PUSH2 0x2505 JUMP JUMPDEST ISZERO JUMPDEST ISZERO PUSH2 0x125F JUMPI PUSH1 0x3 SWAP7 POP POP POP POP POP POP POP PUSH2 0x1288 JUMP JUMPDEST PUSH0 PUSH2 0x1269 DUP10 PUSH2 0x1B93 JUMP JUMPDEST SUB PUSH2 0x127D JUMPI PUSH1 0x4 SWAP7 POP POP POP POP POP POP POP PUSH2 0x1288 JUMP JUMPDEST PUSH1 0x5 SWAP7 POP POP POP POP POP POP POP JUMPDEST SWAP2 SWAP1 POP JUMP JUMPDEST PUSH0 PUSH1 0x7 PUSH0 DUP5 DUP2 MSTORE PUSH1 0x20 ADD SWAP1 DUP2 MSTORE PUSH1 0x20 ADD PUSH0 KECCAK256 PUSH1 0x3 ADD PUSH0 DUP4 PUSH20 0xFFFFFFFFFFFFFFFFFFFFFFFFFFFFFFFFFFFFFFFF AND PUSH20 0xFFFFFFFFFFFFFFFFFFFFFFFFFFFFFFFFFFFFFFFF AND DUP2 MSTORE PUSH1 0x20 ADD SWAP1 DUP2 MSTORE PUSH1 0x20 ADD PUSH0 KECCAK256 PUSH0 SWAP1 SLOAD SWAP1 PUSH2 0x100 EXP SWAP1 DIV PUSH1 0xFF AND SWAP1 POP SWAP3 SWAP2 POP POP JUMP JUMPDEST PUSH0 DUP1 PUSH2 0x1300 DUP7 DUP7 DUP7 DUP7 PUSH2 0x1D40 JUMP JUMPDEST SWAP1 POP PUSH2 0x1314 DUP2 PUSH2 0x130F PUSH0 PUSH2 0x2169 JUMP JUMPDEST PUSH2 0x218D JUMP JUMPDEST POP PUSH2 0x131E DUP2 PUSH2 0xD4A JUMP JUMPDEST PUSH20 0xFFFFFFFFFFFFFFFFFFFFFFFFFFFFFFFFFFFFFFFF AND PUSH2 0x133C PUSH2 0x252C JUMP JUMPDEST PUSH20 0xFFFFFFFFFFFFFFFFFFFFFFFFFFFFFFFFFFFFFFFF AND EQ PUSH2 0x139B JUMPI PUSH2 0x135F PUSH2 0x252C JUMP JUMPDEST PUSH1 0x40 MLOAD PUSH32 0x233D98E300000000000000000000000000000000000000000000000000000000 DUP2 MSTORE PUSH1 0x4 ADD PUSH2 0x1392 SWAP2 SWAP1 PUSH2 0x42B5 JUMP JUMPDEST PUSH1 0x40 MLOAD DUP1 SWAP2 SUB SWAP1 REVERT JUMPDEST PUSH2 0x13A7 DUP7 DUP7 DUP7 DUP7 PUSH2 0x2533 JUMP JUMPDEST SWAP2 POP POP SWAP5 SWAP4 POP POP POP POP JUMP JUMPDEST PUSH1 0x60 PUSH2 0x13BC PUSH2 0x1F22 JUMP JUMPDEST PUSH20 0xFFFFFFFFFFFFFFFFFFFFFFFFFFFFFFFFFFFFFFFF AND PUSH4 0x4BF5D7E9 PUSH1 0x40 MLOAD DUP2 PUSH4 0xFFFFFFFF AND PUSH1 0xE0 SHL DUP2 MSTORE PUSH1 0x4 ADD PUSH0 PUSH1 0x40 MLOAD DUP1 DUP4 SUB DUP2 DUP7 GAS STATICCALL SWAP3 POP POP POP DUP1 ISZERO PUSH2 0x1426 JUMPI POP PUSH1 0x40 MLOAD RETURNDATASIZE PUSH0 DUP3 RETURNDATACOPY RETURNDATASIZE PUSH1 0x1F NOT PUSH1 0x1F DUP3 ADD AND DUP3 ADD DUP1 PUSH1 0x40 MSTORE POP DUP2 ADD SWAP1 PUSH2 0x1423 SWAP2 SWAP1 PUSH2 0x545A JUMP JUMPDEST PUSH1 0x1 JUMPDEST PUSH2 0x1467 JUMPI PUSH1 0x40 MLOAD DUP1 PUSH1 0x40 ADD PUSH1 0x40 MSTORE DUP1 PUSH1 0x1D DUP2 MSTORE PUSH1 0x20 ADD PUSH32 0x6D6F64653D626C6F636B6E756D6265722666726F6D3D64656661756C74000000 DUP2 MSTORE POP SWAP1 POP PUSH2 0x146C JUMP JUMPDEST DUP1 SWAP2 POP POP JUMPDEST SWAP1 JUMP JUMPDEST PUSH0 DUP1 PUSH0 DUP1 PUSH1 0x7 PUSH0 DUP7 DUP2 MSTORE PUSH1 0x20 ADD SWAP1 DUP2 MSTORE PUSH1 0x20 ADD PUSH0 KECCAK256 SWAP1 POP DUP1 PUSH0 ADD SLOAD DUP2 PUSH1 0x1 ADD SLOAD DUP3 PUSH1 0x2 ADD SLOAD SWAP4 POP SWAP4 POP SWAP4 POP POP SWAP2 SWAP4 SWAP1 SWAP3 POP JUMP JUMPDEST PUSH1 0x60 PUSH1 0x40 MLOAD DUP1 PUSH1 0x40 ADD PUSH1 0x40 MSTORE DUP1 PUSH1 0x1 DUP2 MSTORE PUSH1 0x20 ADD PUSH32 0x3100000000000000000000000000000000000000000000000000000000000000 DUP2 MSTORE POP SWAP1 POP SWAP1 JUMP JUMPDEST PUSH0 DUP1 PUSH2 0x14E9 PUSH2 0x252C JUMP JUMPDEST SWAP1 POP PUSH2 0x1505 DUP5 DUP3 DUP6 PUSH1 0x40 MLOAD DUP1 PUSH1 0x20 ADD PUSH1 0x40 MSTORE DUP1 PUSH0 DUP2 MSTORE POP PUSH2 0x2615 JUMP JUMPDEST SWAP2 POP POP SWAP3 SWAP2 POP POP JUMP JUMPDEST PUSH0 DUP1 PUSH2 0x159B DUP8 PUSH2 0x1595 PUSH32 0x3E83946653575F9A39005E1545185629E92736B7528AB20CA3816F315424A811 DUP13 DUP13 DUP13 PUSH2 0x1544 DUP15 PUSH2 0x2634 JUMP JUMPDEST DUP14 DUP14 PUSH1 0x40 MLOAD PUSH2 0x1554 SWAP3 SWAP2 SWAP1 PUSH2 0x54CF JUMP JUMPDEST PUSH1 0x40 MLOAD DUP1 SWAP2 SUB SWAP1 KECCAK256 DUP13 DUP1 MLOAD SWAP1 PUSH1 0x20 ADD KECCAK256 PUSH1 0x40 MLOAD PUSH1 0x20 ADD PUSH2 0x157A SWAP8 SWAP7 SWAP6 SWAP5 SWAP4 SWAP3 SWAP2 SWAP1 PUSH2 0x54F6 JUMP JUMPDEST PUSH1 0x40 MLOAD PUSH1 0x20 DUP2 DUP4 SUB SUB DUP2 MSTORE SWAP1 PUSH1 0x40 MSTORE DUP1 MLOAD SWAP1 PUSH1 0x20 ADD KECCAK256 PUSH2 0x2687 JUMP JUMPDEST DUP6 PUSH2 0x26A0 JUMP JUMPDEST SWAP1 POP DUP1 PUSH2 0x15DF JUMPI DUP7 PUSH1 0x40 MLOAD PUSH32 0x94AB6C0700000000000000000000000000000000000000000000000000000000 DUP2 MSTORE PUSH1 0x4 ADD PUSH2 0x15D6 SWAP2 SWAP1 PUSH2 0x42B5 JUMP JUMPDEST PUSH1 0x40 MLOAD DUP1 SWAP2 SUB SWAP1 REVERT JUMPDEST PUSH2 0x162F DUP10 DUP9 DUP11 DUP10 DUP10 DUP1 DUP1 PUSH1 0x1F ADD PUSH1 0x20 DUP1 SWAP2 DIV MUL PUSH1 0x20 ADD PUSH1 0x40 MLOAD SWAP1 DUP2 ADD PUSH1 0x40 MSTORE DUP1 SWAP4 SWAP3 SWAP2 SWAP1 DUP2 DUP2 MSTORE PUSH1 0x20 ADD DUP4 DUP4 DUP1 DUP3 DUP5 CALLDATACOPY PUSH0 DUP2 DUP5 ADD MSTORE PUSH1 0x1F NOT PUSH1 0x1F DUP3 ADD AND SWAP1 POP DUP1 DUP4 ADD SWAP3 POP POP POP POP POP POP POP DUP9 PUSH2 0x274C JUMP JUMPDEST SWAP2 POP POP SWAP8 SWAP7 POP POP POP POP POP POP POP JUMP JUMPDEST PUSH0 DUP1 PUSH2 0x1647 PUSH2 0x252C JUMP JUMPDEST SWAP1 POP PUSH2 0x1699 DUP8 DUP3 DUP9 DUP9 DUP9 DUP1 DUP1 PUSH1 0x1F ADD PUSH1 0x20 DUP1 SWAP2 DIV MUL PUSH1 0x20 ADD PUSH1 0x40 MLOAD SWAP1 DUP2 ADD PUSH1 0x40 MSTORE DUP1 SWAP4 SWAP3 SWAP2 SWAP1 DUP2 DUP2 MSTORE PUSH1 0x20 ADD DUP4 DUP4 DUP1 DUP3 DUP5 CALLDATACOPY PUSH0 DUP2 DUP5 ADD MSTORE PUSH1 0x1F NOT PUSH1 0x1F DUP3 ADD AND SWAP1 POP DUP1 DUP4 ADD SWAP3 POP POP POP POP POP POP POP DUP8 PUSH2 0x274C JUMP JUMPDEST SWAP2 POP POP SWAP6 SWAP5 POP POP POP POP POP JUMP JUMPDEST PUSH0 DUP1 PUSH1 0x8 PUSH0 ADD DUP1 SLOAD SWAP1 POP SWAP1 POP PUSH0 PUSH1 0x8 PUSH0 ADD PUSH1 0x1 DUP4 PUSH2 0x16C3 SWAP2 SWAP1 PUSH2 0x5590 JUMP JUMPDEST DUP2 SLOAD DUP2 LT PUSH2 0x16D4 JUMPI PUSH2 0x16D3 PUSH2 0x53BF JUMP JUMPDEST JUMPDEST SWAP1 PUSH0 MSTORE PUSH1 0x20 PUSH0 KECCAK256 ADD SWAP1 POP PUSH0 DUP2 PUSH0 ADD PUSH0 SWAP1 SLOAD SWAP1 PUSH2 0x100 EXP SWAP1 DIV PUSH6 0xFFFFFFFFFFFF AND SWAP1 POP PUSH0 DUP3 PUSH0 ADD PUSH1 0x6 SWAP1 SLOAD SWAP1 PUSH2 0x100 EXP SWAP1 DIV PUSH26 0xFFFFFFFFFFFFFFFFFFFFFFFFFFFFFFFFFFFFFFFFFFFFFFFFFFFF AND SWAP1 POP DUP6 DUP3 PUSH6 0xFFFFFFFFFFFF AND GT PUSH2 0x175A JUMPI DUP1 PUSH26 0xFFFFFFFFFFFFFFFFFFFFFFFFFFFFFFFFFFFFFFFFFFFFFFFFFFFF AND SWAP5 POP POP POP POP POP PUSH2 0x1799 JUMP JUMPDEST PUSH2 0x1776 PUSH2 0x1766 DUP8 PUSH2 0x2856 JUMP JUMPDEST PUSH1 0x8 PUSH2 0x28AF SWAP1 SWAP2 SWAP1 PUSH4 0xFFFFFFFF AND JUMP JUMPDEST PUSH26 0xFFFFFFFFFFFFFFFFFFFFFFFFFFFFFFFFFFFFFFFFFFFFFFFFFFFF AND SWAP5 POP POP POP POP POP JUMPDEST SWAP2 SWAP1 POP JUMP JUMPDEST PUSH0 DUP1 PUSH2 0x17A8 PUSH2 0x252C JUMP JUMPDEST SWAP1 POP PUSH2 0x17F9 DUP7 DUP3 DUP8 DUP8 DUP8 DUP1 DUP1 PUSH1 0x1F ADD PUSH1 0x20 DUP1 SWAP2 DIV MUL PUSH1 0x20 ADD PUSH1 0x40 MLOAD SWAP1 DUP2 ADD PUSH1 0x40 MSTORE DUP1 SWAP4 SWAP3 SWAP2 SWAP1 DUP2 DUP2 MSTORE PUSH1 0x20 ADD DUP4 DUP4 DUP1 DUP3 DUP5 CALLDATACOPY PUSH0 DUP2 DUP5 ADD MSTORE PUSH1 0x1F NOT PUSH1 0x1F DUP3 ADD AND SWAP1 POP DUP1 DUP4 ADD SWAP3 POP POP POP POP POP POP POP PUSH2 0x2615 JUMP JUMPDEST SWAP2 POP POP SWAP5 SWAP4 POP POP POP POP JUMP JUMPDEST PUSH0 DUP1 PUSH2 0x180E PUSH2 0x252C JUMP JUMPDEST SWAP1 POP PUSH2 0x181A DUP2 DUP5 PUSH2 0x299C JUMP JUMPDEST PUSH2 0x185B JUMPI DUP1 PUSH1 0x40 MLOAD PUSH32 0xD9B3955700000000000000000000000000000000000000000000000000000000 DUP2 MSTORE PUSH1 0x4 ADD PUSH2 0x1852 SWAP2 SWAP1 PUSH2 0x42B5 JUMP JUMPDEST PUSH1 0x40 MLOAD DUP1 SWAP2 SUB SWAP1 REVERT JUMPDEST PUSH0 PUSH2 0x1864 PUSH2 0x1BC9 JUMP JUMPDEST SWAP1 POP PUSH0 DUP2 GT ISZERO PUSH2 0x18E1 JUMPI PUSH0 PUSH2 0x1894 DUP4 PUSH1 0x1 PUSH2 0x187D PUSH2 0x1AB9 JUMP JUMPDEST PUSH2 0x1887 SWAP2 SWAP1 PUSH2 0x55C3 JUMP JUMPDEST PUSH6 0xFFFFFFFFFFFF AND PUSH2 0x1DDB JUMP JUMPDEST SWAP1 POP DUP2 DUP2 LT ISZERO PUSH2 0x18DF JUMPI DUP3 DUP2 DUP4 PUSH1 0x40 MLOAD PUSH32 0xC242EE1600000000000000000000000000000000000000000000000000000000 DUP2 MSTORE PUSH1 0x4 ADD PUSH2 0x18D6 SWAP4 SWAP3 SWAP2 SWAP1 PUSH2 0x55FC JUMP JUMPDEST PUSH1 0x40 MLOAD DUP1 SWAP2 SUB SWAP1 REVERT JUMPDEST POP JUMPDEST PUSH2 0x18EE DUP8 DUP8 DUP8 DUP8 DUP7 PUSH2 0x2A82 JUMP JUMPDEST SWAP3 POP POP POP SWAP5 SWAP4 POP POP POP POP JUMP JUMPDEST PUSH0 PUSH1 0x2 PUSH0 DUP4 PUSH20 0xFFFFFFFFFFFFFFFFFFFFFFFFFFFFFFFFFFFFFFFF AND PUSH20 0xFFFFFFFFFFFFFFFFFFFFFFFFFFFFFFFFFFFFFFFF AND DUP2 MSTORE PUSH1 0x20 ADD SWAP1 DUP2 MSTORE PUSH1 0x20 ADD PUSH0 KECCAK256 SLOAD SWAP1 POP SWAP2 SWAP1 POP JUMP JUMPDEST PUSH0 PUSH1 0x60 DUP1 PUSH0 DUP1 PUSH0 PUSH1 0x60 PUSH2 0x1951 PUSH2 0x2D07 JUMP JUMPDEST PUSH2 0x1959 PUSH2 0x2D41 JUMP JUMPDEST CHAINID ADDRESS PUSH0 DUP1 SHL PUSH0 PUSH8 0xFFFFFFFFFFFFFFFF DUP2 GT ISZERO PUSH2 0x1978 JUMPI PUSH2 0x1977 PUSH2 0x4300 JUMP JUMPDEST JUMPDEST PUSH1 0x40 MLOAD SWAP1 DUP1 DUP3 MSTORE DUP1 PUSH1 0x20 MUL PUSH1 0x20 ADD DUP3 ADD PUSH1 0x40 MSTORE DUP1 ISZERO PUSH2 0x19A6 JUMPI DUP2 PUSH1 0x20 ADD PUSH1 0x20 DUP3 MUL DUP1 CALLDATASIZE DUP4 CALLDATACOPY DUP1 DUP3 ADD SWAP2 POP POP SWAP1 POP JUMPDEST POP PUSH32 0xF00000000000000000000000000000000000000000000000000000000000000 SWAP6 SWAP5 SWAP4 SWAP3 SWAP2 SWAP1 SWAP7 POP SWAP7 POP SWAP7 POP SWAP7 POP SWAP7 POP SWAP7 POP SWAP7 POP SWAP1 SWAP2 SWAP3 SWAP4 SWAP5 SWAP6 SWAP7 JUMP JUMPDEST PUSH0 DUP1 PUSH2 0x1A50 DUP5 PUSH2 0x1A4A PUSH32 0xF2AAD550CF55F045CB27E9C559F9889FDFB6E6CDAA032301D6EA397784AE51D7 DUP10 DUP10 DUP10 PUSH2 0x1A1B DUP12 PUSH2 0x2634 JUMP JUMPDEST PUSH1 0x40 MLOAD PUSH1 0x20 ADD PUSH2 0x1A2F SWAP6 SWAP5 SWAP4 SWAP3 SWAP2 SWAP1 PUSH2 0x5631 JUMP JUMPDEST PUSH1 0x40 MLOAD PUSH1 0x20 DUP2 DUP4 SUB SUB DUP2 MSTORE SWAP1 PUSH1 0x40 MSTORE DUP1 MLOAD SWAP1 PUSH1 0x20 ADD KECCAK256 PUSH2 0x2687 JUMP JUMPDEST DUP6 PUSH2 0x26A0 JUMP JUMPDEST SWAP1 POP DUP1 PUSH2 0x1A94 JUMPI DUP4 PUSH1 0x40 MLOAD PUSH32 0x94AB6C0700000000000000000000000000000000000000000000000000000000 DUP2 MSTORE PUSH1 0x4 ADD PUSH2 0x1A8B SWAP2 SWAP1 PUSH2 0x42B5 JUMP JUMPDEST PUSH1 0x40 MLOAD DUP1 SWAP2 SUB SWAP1 REVERT JUMPDEST PUSH2 0x1AAE DUP7 DUP6 DUP8 PUSH1 0x40 MLOAD DUP1 PUSH1 0x20 ADD PUSH1 0x40 MSTORE DUP1 PUSH0 DUP2 MSTORE POP PUSH2 0x2615 JUMP JUMPDEST SWAP2 POP POP SWAP5 SWAP4 POP POP POP POP JUMP JUMPDEST PUSH0 PUSH2 0x1AC2 PUSH2 0x1F22 JUMP JUMPDEST PUSH20 0xFFFFFFFFFFFFFFFFFFFFFFFFFFFFFFFFFFFFFFFF AND PUSH4 0x91DDADF4 PUSH1 0x40 MLOAD DUP2 PUSH4 0xFFFFFFFF AND PUSH1 0xE0 SHL DUP2 MSTORE PUSH1 0x4 ADD PUSH1 0x20 PUSH1 0x40 MLOAD DUP1 DUP4 SUB DUP2 DUP7 GAS STATICCALL SWAP3 POP POP POP DUP1 ISZERO PUSH2 0x1B29 JUMPI POP PUSH1 0x40 MLOAD RETURNDATASIZE PUSH1 0x1F NOT PUSH1 0x1F DUP3 ADD AND DUP3 ADD DUP1 PUSH1 0x40 MSTORE POP DUP2 ADD SWAP1 PUSH2 0x1B26 SWAP2 SWAP1 PUSH2 0x56AC JUMP JUMPDEST PUSH1 0x1 JUMPDEST PUSH2 0x1B3C JUMPI PUSH2 0x1B35 PUSH2 0x2D7C JUMP JUMPDEST SWAP1 POP PUSH2 0x1B41 JUMP JUMPDEST DUP1 SWAP2 POP POP JUMPDEST SWAP1 JUMP JUMPDEST PUSH0 PUSH1 0x64 SWAP1 POP SWAP1 JUMP JUMPDEST PUSH0 PUSH2 0x1B58 DUP5 DUP5 DUP5 PUSH2 0x2D8B JUMP JUMPDEST SWAP1 POP SWAP4 SWAP3 POP POP POP JUMP JUMPDEST PUSH0 PUSH2 0x1B6C PUSH1 0x8 PUSH2 0x2E16 JUMP JUMPDEST PUSH26 0xFFFFFFFFFFFFFFFFFFFFFFFFFFFFFFFFFFFFFFFFFFFFFFFFFFFF AND SWAP1 POP SWAP1 JUMP JUMPDEST PUSH0 SWAP2 SWAP1 POP JUMP JUMPDEST PUSH0 PUSH1 0x4 PUSH0 DUP4 DUP2 MSTORE PUSH1 0x20 ADD SWAP1 DUP2 MSTORE PUSH1 0x20 ADD PUSH0 KECCAK256 PUSH1 0x1 ADD PUSH0 SWAP1 SLOAD SWAP1 PUSH2 0x100 EXP SWAP1 DIV PUSH6 0xFFFFFFFFFFFF AND PUSH6 0xFFFFFFFFFFFF AND SWAP1 POP SWAP2 SWAP1 POP JUMP JUMPDEST PUSH0 SWAP1 JUMP JUMPDEST PUSH0 ADDRESS PUSH20 0xFFFFFFFFFFFFFFFFFFFFFFFFFFFFFFFFFFFFFFFF AND PUSH2 0x1BED PUSH2 0xBB6 JUMP JUMPDEST PUSH20 0xFFFFFFFFFFFFFFFFFFFFFFFFFFFFFFFFFFFFFFFF AND EQ PUSH2 0x1C3A JUMPI PUSH1 0x40 MLOAD PUSH32 0xE90A651E00000000000000000000000000000000000000000000000000000000 DUP2 MSTORE PUSH1 0x4 ADD PUSH1 0x40 MLOAD DUP1 SWAP2 SUB SWAP1 REVERT JUMPDEST PUSH4 0xBC197C81 PUSH1 0xE0 SHL SWAP1 POP SWAP6 SWAP5 POP POP POP POP POP JUMP JUMPDEST PUSH0 PUSH1 0x4 PUSH0 DUP4 DUP2 MSTORE PUSH1 0x20 ADD SWAP1 DUP2 MSTORE PUSH1 0x20 ADD PUSH0 KECCAK256 PUSH0 ADD PUSH1 0x1A SWAP1 SLOAD SWAP1 PUSH2 0x100 EXP SWAP1 DIV PUSH4 0xFFFFFFFF AND PUSH4 0xFFFFFFFF AND PUSH1 0x4 PUSH0 DUP5 DUP2 MSTORE PUSH1 0x20 ADD SWAP1 DUP2 MSTORE PUSH1 0x20 ADD PUSH0 KECCAK256 PUSH0 ADD PUSH1 0x14 SWAP1 SLOAD SWAP1 PUSH2 0x100 EXP SWAP1 DIV PUSH6 0xFFFFFFFFFFFF AND PUSH2 0x1CA8 SWAP2 SWAP1 PUSH2 0x56D7 JUMP JUMPDEST PUSH6 0xFFFFFFFFFFFF AND SWAP1 POP SWAP2 SWAP1 POP JUMP JUMPDEST PUSH2 0x1CBF PUSH2 0x1FB2 JUMP JUMPDEST PUSH0 DUP1 DUP6 PUSH20 0xFFFFFFFFFFFFFFFFFFFFFFFFFFFFFFFFFFFFFFFF AND DUP6 DUP6 DUP6 PUSH1 0x40 MLOAD PUSH2 0x1CE9 SWAP3 SWAP2 SWAP1 PUSH2 0x54CF JUMP JUMPDEST PUSH0 PUSH1 0x40 MLOAD DUP1 DUP4 SUB DUP2 DUP6 DUP8 GAS CALL SWAP3 POP POP POP RETURNDATASIZE DUP1 PUSH0 DUP2 EQ PUSH2 0x1D23 JUMPI PUSH1 0x40 MLOAD SWAP2 POP PUSH1 0x1F NOT PUSH1 0x3F RETURNDATASIZE ADD AND DUP3 ADD PUSH1 0x40 MSTORE RETURNDATASIZE DUP3 MSTORE RETURNDATASIZE PUSH0 PUSH1 0x20 DUP5 ADD RETURNDATACOPY PUSH2 0x1D28 JUMP JUMPDEST PUSH1 0x60 SWAP2 POP JUMPDEST POP SWAP2 POP SWAP2 POP PUSH2 0x1D37 DUP3 DUP3 PUSH2 0x2E78 JUMP JUMPDEST POP POP POP POP POP POP POP JUMP JUMPDEST PUSH0 DUP5 DUP5 DUP5 DUP5 PUSH1 0x40 MLOAD PUSH1 0x20 ADD PUSH2 0x1D58 SWAP5 SWAP4 SWAP3 SWAP2 SWAP1 PUSH2 0x58D4 JUMP JUMPDEST PUSH1 0x40 MLOAD PUSH1 0x20 DUP2 DUP4 SUB SUB DUP2 MSTORE SWAP1 PUSH1 0x40 MSTORE DUP1 MLOAD SWAP1 PUSH1 0x20 ADD KECCAK256 PUSH0 SHR SWAP1 POP SWAP5 SWAP4 POP POP POP POP JUMP JUMPDEST PUSH1 0x60 PUSH1 0x40 MLOAD DUP1 PUSH1 0x40 ADD PUSH1 0x40 MSTORE DUP1 PUSH1 0x20 DUP2 MSTORE PUSH1 0x20 ADD PUSH32 0x737570706F72743D627261766F2671756F72756D3D666F722C6162737461696E DUP2 MSTORE POP SWAP1 POP SWAP1 JUMP JUMPDEST PUSH32 0xF2AAD550CF55F045CB27E9C559F9889FDFB6E6CDAA032301D6EA397784AE51D7 DUP2 JUMP JUMPDEST PUSH0 PUSH2 0x1DEE DUP4 DUP4 PUSH2 0x1DE9 PUSH2 0x2E9C JUMP JUMPDEST PUSH2 0x2D8B JUMP JUMPDEST SWAP1 POP SWAP3 SWAP2 POP POP JUMP JUMPDEST PUSH0 ADDRESS PUSH20 0xFFFFFFFFFFFFFFFFFFFFFFFFFFFFFFFFFFFFFFFF AND PUSH2 0x1E16 PUSH2 0xBB6 JUMP JUMPDEST PUSH20 0xFFFFFFFFFFFFFFFFFFFFFFFFFFFFFFFFFFFFFFFF AND EQ PUSH2 0x1E63 JUMPI PUSH1 0x40 MLOAD PUSH32 0xE90A651E00000000000000000000000000000000000000000000000000000000 DUP2 MSTORE PUSH1 0x4 ADD PUSH1 0x40 MLOAD DUP1 SWAP2 SUB SWAP1 REVERT JUMPDEST PUSH4 0xF23A6E61 PUSH1 0xE0 SHL SWAP1 POP SWAP6 SWAP5 POP POP POP POP POP JUMP JUMPDEST PUSH0 PUSH2 0x1E7F PUSH2 0x1B44 JUMP JUMPDEST PUSH2 0x1E88 DUP4 PUSH2 0x16A5 JUMP JUMPDEST PUSH2 0x1E90 PUSH2 0x1F22 JUMP JUMPDEST PUSH20 0xFFFFFFFFFFFFFFFFFFFFFFFFFFFFFFFFFFFFFFFF AND PUSH4 0x8E539E8C DUP6 PUSH1 0x40 MLOAD DUP3 PUSH4 0xFFFFFFFF AND PUSH1 0xE0 SHL DUP2 MSTORE PUSH1 0x4 ADD PUSH2 0x1EC8 SWAP2 SWAP1 PUSH2 0x4178 JUMP JUMPDEST PUSH1 0x20 PUSH1 0x40 MLOAD DUP1 DUP4 SUB DUP2 DUP7 GAS STATICCALL ISZERO DUP1 ISZERO PUSH2 0x1EE3 JUMPI RETURNDATASIZE PUSH0 DUP1 RETURNDATACOPY RETURNDATASIZE PUSH0 REVERT JUMPDEST POP POP POP POP PUSH1 0x40 MLOAD RETURNDATASIZE PUSH1 0x1F NOT PUSH1 0x1F DUP3 ADD AND DUP3 ADD DUP1 PUSH1 0x40 MSTORE POP DUP2 ADD SWAP1 PUSH2 0x1F07 SWAP2 SWAP1 PUSH2 0x5940 JUMP JUMPDEST PUSH2 0x1F11 SWAP2 SWAP1 PUSH2 0x596B JUMP JUMPDEST PUSH2 0x1F1B SWAP2 SWAP1 PUSH2 0x59D9 JUMP JUMPDEST SWAP1 POP SWAP2 SWAP1 POP JUMP JUMPDEST PUSH0 PUSH32 0x0 SWAP1 POP SWAP1 JUMP JUMPDEST PUSH0 PUSH32 0x1FFC9A700000000000000000000000000000000000000000000000000000000 PUSH28 0xFFFFFFFFFFFFFFFFFFFFFFFFFFFFFFFFFFFFFFFFFFFFFFFFFFFFFFFF NOT AND DUP3 PUSH28 0xFFFFFFFFFFFFFFFFFFFFFFFFFFFFFFFFFFFFFFFFFFFFFFFFFFFFFFFF NOT AND EQ SWAP1 POP SWAP2 SWAP1 POP JUMP JUMPDEST PUSH2 0x1FBA PUSH2 0x252C JUMP JUMPDEST PUSH20 0xFFFFFFFFFFFFFFFFFFFFFFFFFFFFFFFFFFFFFFFF AND PUSH2 0x1FD8 PUSH2 0xBB6 JUMP JUMPDEST PUSH20 0xFFFFFFFFFFFFFFFFFFFFFFFFFFFFFFFFFFFFFFFF AND EQ PUSH2 0x2037 JUMPI PUSH2 0x1FFB PUSH2 0x252C JUMP JUMPDEST PUSH1 0x40 MLOAD PUSH32 0x47096E4700000000000000000000000000000000000000000000000000000000 DUP2 MSTORE PUSH1 0x4 ADD PUSH2 0x202E SWAP2 SWAP1 PUSH2 0x42B5 JUMP JUMPDEST PUSH1 0x40 MLOAD DUP1 SWAP2 SUB SWAP1 REVERT JUMPDEST ADDRESS PUSH20 0xFFFFFFFFFFFFFFFFFFFFFFFFFFFFFFFFFFFFFFFF AND PUSH2 0x2056 PUSH2 0xBB6 JUMP JUMPDEST PUSH20 0xFFFFFFFFFFFFFFFFFFFFFFFFFFFFFFFFFFFFFFFF AND EQ PUSH2 0x20A5 JUMPI PUSH0 PUSH2 0x207A PUSH2 0x2EB2 JUMP JUMPDEST PUSH1 0x40 MLOAD PUSH2 0x2088 SWAP3 SWAP2 SWAP1 PUSH2 0x54CF JUMP JUMPDEST PUSH1 0x40 MLOAD DUP1 SWAP2 SUB SWAP1 KECCAK256 SWAP1 POP JUMPDEST DUP1 PUSH2 0x209E PUSH1 0x5 PUSH2 0x2EBE JUMP JUMPDEST SUB PUSH2 0x2093 JUMPI POP JUMPDEST JUMP JUMPDEST PUSH0 PUSH2 0x20B0 PUSH2 0x1B44 JUMP JUMPDEST SWAP1 POP DUP1 DUP3 GT ISZERO PUSH2 0x20F9 JUMPI DUP2 DUP2 PUSH1 0x40 MLOAD PUSH32 0x243E544500000000000000000000000000000000000000000000000000000000 DUP2 MSTORE PUSH1 0x4 ADD PUSH2 0x20F0 SWAP3 SWAP2 SWAP1 PUSH2 0x5A09 JUMP JUMPDEST PUSH1 0x40 MLOAD DUP1 SWAP2 SUB SWAP1 REVERT JUMPDEST PUSH0 PUSH2 0x2102 PUSH2 0x1B61 JUMP JUMPDEST SWAP1 POP PUSH2 0x2129 PUSH2 0x210F PUSH2 0x1AB9 JUMP JUMPDEST PUSH2 0x2118 DUP6 PUSH2 0x2FEC JUMP JUMPDEST PUSH1 0x8 PUSH2 0x3059 SWAP1 SWAP3 SWAP2 SWAP1 PUSH4 0xFFFFFFFF AND JUMP JUMPDEST POP POP PUSH32 0x553476BF02EF2726E8CE5CED78D63E26E602E4A2257B1F559418E24B4633997 DUP2 DUP5 PUSH1 0x40 MLOAD PUSH2 0x215C SWAP3 SWAP2 SWAP1 PUSH2 0x5A09 JUMP JUMPDEST PUSH1 0x40 MLOAD DUP1 SWAP2 SUB SWAP1 LOG1 POP POP POP JUMP JUMPDEST PUSH0 DUP2 PUSH1 0x7 DUP2 GT ISZERO PUSH2 0x217D JUMPI PUSH2 0x217C PUSH2 0x4841 JUMP JUMPDEST JUMPDEST PUSH1 0xFF AND PUSH1 0x1 SWAP1 SHL PUSH0 SHL SWAP1 POP SWAP2 SWAP1 POP JUMP JUMPDEST PUSH0 DUP1 PUSH2 0x2198 DUP5 PUSH2 0x1136 JUMP JUMPDEST SWAP1 POP PUSH0 DUP1 SHL DUP4 PUSH2 0x21A7 DUP4 PUSH2 0x2169 JUMP JUMPDEST AND SUB PUSH2 0x21EE JUMPI DUP4 DUP2 DUP5 PUSH1 0x40 MLOAD PUSH32 0x31B75E4D00000000000000000000000000000000000000000000000000000000 DUP2 MSTORE PUSH1 0x4 ADD PUSH2 0x21E5 SWAP4 SWAP3 SWAP2 SWAP1 PUSH2 0x5A30 JUMP JUMPDEST PUSH1 0x40 MLOAD DUP1 SWAP2 SUB SWAP1 REVERT JUMPDEST DUP1 SWAP2 POP POP SWAP3 SWAP2 POP POP JUMP JUMPDEST PUSH0 SWAP6 SWAP5 POP POP POP POP POP JUMP JUMPDEST PUSH0 DUP3 PUSH0 ADD PUSH1 0x10 SWAP1 SLOAD SWAP1 PUSH2 0x100 EXP SWAP1 DIV PUSH16 0xFFFFFFFFFFFFFFFFFFFFFFFFFFFFFFFF AND SWAP1 POP DUP3 PUSH0 ADD PUSH0 SWAP1 SLOAD SWAP1 PUSH2 0x100 EXP SWAP1 DIV PUSH16 0xFFFFFFFFFFFFFFFFFFFFFFFFFFFFFFFF AND PUSH16 0xFFFFFFFFFFFFFFFFFFFFFFFFFFFFFFFF AND PUSH1 0x1 DUP3 ADD PUSH16 0xFFFFFFFFFFFFFFFFFFFFFFFFFFFFFFFF AND SUB PUSH2 0x227C JUMPI PUSH2 0x227B PUSH1 0x41 PUSH2 0x3074 JUMP JUMPDEST JUMPDEST DUP2 DUP4 PUSH1 0x1 ADD PUSH0 DUP4 PUSH16 0xFFFFFFFFFFFFFFFFFFFFFFFFFFFFFFFF AND PUSH16 0xFFFFFFFFFFFFFFFFFFFFFFFFFFFFFFFF AND DUP2 MSTORE PUSH1 0x20 ADD SWAP1 DUP2 MSTORE PUSH1 0x20 ADD PUSH0 KECCAK256 DUP2 SWAP1 SSTORE POP PUSH1 0x1 DUP2 ADD DUP4 PUSH0 ADD PUSH1 0x10 PUSH2 0x100 EXP DUP2 SLOAD DUP2 PUSH16 0xFFFFFFFFFFFFFFFFFFFFFFFFFFFFFFFF MUL NOT AND SWAP1 DUP4 PUSH16 0xFFFFFFFFFFFFFFFFFFFFFFFFFFFFFFFF AND MUL OR SWAP1 SSTORE POP POP POP POP JUMP JUMPDEST PUSH0 JUMPDEST DUP5 MLOAD DUP2 LT ISZERO PUSH2 0x23D7 JUMPI PUSH0 DUP1 DUP7 DUP4 DUP2 MLOAD DUP2 LT PUSH2 0x231A JUMPI PUSH2 0x2319 PUSH2 0x53BF JUMP JUMPDEST JUMPDEST PUSH1 0x20 MUL PUSH1 0x20 ADD ADD MLOAD PUSH20 0xFFFFFFFFFFFFFFFFFFFFFFFFFFFFFFFFFFFFFFFF AND DUP7 DUP5 DUP2 MLOAD DUP2 LT PUSH2 0x234B JUMPI PUSH2 0x234A PUSH2 0x53BF JUMP JUMPDEST JUMPDEST PUSH1 0x20 MUL PUSH1 0x20 ADD ADD MLOAD DUP7 DUP6 DUP2 MLOAD DUP2 LT PUSH2 0x2366 JUMPI PUSH2 0x2365 PUSH2 0x53BF JUMP JUMPDEST JUMPDEST PUSH1 0x20 MUL PUSH1 0x20 ADD ADD MLOAD PUSH1 0x40 MLOAD PUSH2 0x237B SWAP2 SWAP1 PUSH2 0x5A95 JUMP JUMPDEST PUSH0 PUSH1 0x40 MLOAD DUP1 DUP4 SUB DUP2 DUP6 DUP8 GAS CALL SWAP3 POP POP POP RETURNDATASIZE DUP1 PUSH0 DUP2 EQ PUSH2 0x23B5 JUMPI PUSH1 0x40 MLOAD SWAP2 POP PUSH1 0x1F NOT PUSH1 0x3F RETURNDATASIZE ADD AND DUP3 ADD PUSH1 0x40 MSTORE RETURNDATASIZE DUP3 MSTORE RETURNDATASIZE PUSH0 PUSH1 0x20 DUP5 ADD RETURNDATACOPY PUSH2 0x23BA JUMP JUMPDEST PUSH1 0x60 SWAP2 POP JUMPDEST POP SWAP2 POP SWAP2 POP PUSH2 0x23C9 DUP3 DUP3 PUSH2 0x2E78 JUMP JUMPDEST POP POP POP DUP1 PUSH1 0x1 ADD SWAP1 POP PUSH2 0x22FC JUMP JUMPDEST POP POP POP POP POP POP JUMP JUMPDEST PUSH0 DUP2 PUSH0 ADD PUSH0 SWAP1 SLOAD SWAP1 PUSH2 0x100 EXP SWAP1 DIV PUSH16 0xFFFFFFFFFFFFFFFFFFFFFFFFFFFFFFFF AND PUSH16 0xFFFFFFFFFFFFFFFFFFFFFFFFFFFFFFFF AND DUP3 PUSH0 ADD PUSH1 0x10 SWAP1 SLOAD SWAP1 PUSH2 0x100 EXP SWAP1 DIV PUSH16 0xFFFFFFFFFFFFFFFFFFFFFFFFFFFFFFFF AND PUSH16 0xFFFFFFFFFFFFFFFFFFFFFFFFFFFFFFFF AND EQ SWAP1 POP SWAP2 SWAP1 POP JUMP JUMPDEST PUSH0 DUP2 PUSH0 ADD PUSH0 PUSH2 0x100 EXP DUP2 SLOAD DUP2 PUSH16 0xFFFFFFFFFFFFFFFFFFFFFFFFFFFFFFFF MUL NOT AND SWAP1 DUP4 PUSH16 0xFFFFFFFFFFFFFFFFFFFFFFFFFFFFFFFF AND MUL OR SWAP1 SSTORE POP PUSH0 DUP2 PUSH0 ADD PUSH1 0x10 PUSH2 0x100 EXP DUP2 SLOAD DUP2 PUSH16 0xFFFFFFFFFFFFFFFFFFFFFFFFFFFFFFFF MUL NOT AND SWAP1 DUP4 PUSH16 0xFFFFFFFFFFFFFFFFFFFFFFFFFFFFFFFF AND MUL OR SWAP1 SSTORE POP POP JUMP JUMPDEST PUSH0 DUP1 PUSH1 0x7 PUSH0 DUP5 DUP2 MSTORE PUSH1 0x20 ADD SWAP1 DUP2 MSTORE PUSH1 0x20 ADD PUSH0 KECCAK256 SWAP1 POP DUP1 PUSH1 0x2 ADD SLOAD DUP2 PUSH1 0x1 ADD SLOAD PUSH2 0x24EA SWAP2 SWAP1 PUSH2 0x5AAB JUMP JUMPDEST PUSH2 0x24FB PUSH2 0x24F6 DUP6 PUSH2 0x10D4 JUMP JUMPDEST PUSH2 0x1E76 JUMP JUMPDEST GT ISZERO SWAP2 POP POP SWAP2 SWAP1 POP JUMP JUMPDEST PUSH0 DUP1 PUSH1 0x7 PUSH0 DUP5 DUP2 MSTORE PUSH1 0x20 ADD SWAP1 DUP2 MSTORE PUSH1 0x20 ADD PUSH0 KECCAK256 SWAP1 POP DUP1 PUSH0 ADD SLOAD DUP2 PUSH1 0x1 ADD SLOAD GT SWAP2 POP POP SWAP2 SWAP1 POP JUMP JUMPDEST PUSH0 CALLER SWAP1 POP SWAP1 JUMP JUMPDEST PUSH0 DUP1 PUSH2 0x2541 DUP7 DUP7 DUP7 DUP7 PUSH2 0x1D40 JUMP JUMPDEST SWAP1 POP PUSH2 0x25A5 DUP2 PUSH2 0x2551 PUSH1 0x7 PUSH2 0x2169 JUMP JUMPDEST PUSH2 0x255B PUSH1 0x6 PUSH2 0x2169 JUMP JUMPDEST PUSH2 0x2565 PUSH1 0x2 PUSH2 0x2169 JUMP JUMPDEST PUSH1 0x1 DUP1 PUSH1 0x7 DUP1 DUP2 GT ISZERO PUSH2 0x257B JUMPI PUSH2 0x257A PUSH2 0x4841 JUMP JUMPDEST JUMPDEST PUSH2 0x2585 SWAP2 SWAP1 PUSH2 0x5ADE JUMP JUMPDEST PUSH1 0x2 PUSH2 0x2591 SWAP2 SWAP1 PUSH2 0x5C41 JUMP JUMPDEST PUSH2 0x259B SWAP2 SWAP1 PUSH2 0x5590 JUMP JUMPDEST PUSH0 SHL XOR XOR XOR PUSH2 0x218D JUMP JUMPDEST POP PUSH1 0x1 PUSH1 0x4 PUSH0 DUP4 DUP2 MSTORE PUSH1 0x20 ADD SWAP1 DUP2 MSTORE PUSH1 0x20 ADD PUSH0 KECCAK256 PUSH0 ADD PUSH1 0x1F PUSH2 0x100 EXP DUP2 SLOAD DUP2 PUSH1 0xFF MUL NOT AND SWAP1 DUP4 ISZERO ISZERO MUL OR SWAP1 SSTORE POP PUSH32 0x789CF55BE980739DAD1D0699B93B58E806B51C9D96619BFA8FE0A28ABAA7B30C DUP2 PUSH1 0x40 MLOAD PUSH2 0x2601 SWAP2 SWAP1 PUSH2 0x4178 JUMP JUMPDEST PUSH1 0x40 MLOAD DUP1 SWAP2 SUB SWAP1 LOG1 DUP1 SWAP2 POP POP SWAP5 SWAP4 POP POP POP POP JUMP JUMPDEST PUSH0 PUSH2 0x262A DUP6 DUP6 DUP6 DUP6 PUSH2 0x2625 PUSH2 0x2E9C JUMP JUMPDEST PUSH2 0x274C JUMP JUMPDEST SWAP1 POP SWAP5 SWAP4 POP POP POP POP JUMP JUMPDEST PUSH0 PUSH1 0x2 PUSH0 DUP4 PUSH20 0xFFFFFFFFFFFFFFFFFFFFFFFFFFFFFFFFFFFFFFFF AND PUSH20 0xFFFFFFFFFFFFFFFFFFFFFFFFFFFFFFFFFFFFFFFF AND DUP2 MSTORE PUSH1 0x20 ADD SWAP1 DUP2 MSTORE PUSH1 0x20 ADD PUSH0 KECCAK256 PUSH0 DUP2 SLOAD DUP1 SWAP3 SWAP2 SWAP1 PUSH1 0x1 ADD SWAP2 SWAP1 POP SSTORE SWAP1 POP SWAP2 SWAP1 POP JUMP JUMPDEST PUSH0 PUSH2 0x2699 PUSH2 0x2693 PUSH2 0x3085 JUMP JUMPDEST DUP4 PUSH2 0x313B JUMP JUMPDEST SWAP1 POP SWAP2 SWAP1 POP JUMP JUMPDEST PUSH0 DUP1 DUP5 PUSH20 0xFFFFFFFFFFFFFFFFFFFFFFFFFFFFFFFFFFFFFFFF AND EXTCODESIZE SUB PUSH2 0x2737 JUMPI PUSH0 DUP1 PUSH2 0x26CB DUP6 DUP6 PUSH2 0x317B JUMP JUMPDEST POP SWAP2 POP SWAP2 POP PUSH0 PUSH1 0x3 DUP2 GT ISZERO PUSH2 0x26E3 JUMPI PUSH2 0x26E2 PUSH2 0x4841 JUMP JUMPDEST JUMPDEST DUP2 PUSH1 0x3 DUP2 GT ISZERO PUSH2 0x26F6 JUMPI PUSH2 0x26F5 PUSH2 0x4841 JUMP JUMPDEST JUMPDEST EQ DUP1 ISZERO PUSH2 0x272E JUMPI POP DUP6 PUSH20 0xFFFFFFFFFFFFFFFFFFFFFFFFFFFFFFFFFFFFFFFF AND DUP3 PUSH20 0xFFFFFFFFFFFFFFFFFFFFFFFFFFFFFFFFFFFFFFFF AND EQ JUMPDEST SWAP3 POP POP POP PUSH2 0x2745 JUMP JUMPDEST PUSH2 0x2742 DUP5 DUP5 DUP5 PUSH2 0x31D0 JUMP JUMPDEST SWAP1 POP JUMPDEST SWAP4 SWAP3 POP POP POP JUMP JUMPDEST PUSH0 PUSH2 0x2760 DUP7 PUSH2 0x275B PUSH1 0x1 PUSH2 0x2169 JUMP JUMPDEST PUSH2 0x218D JUMP JUMPDEST POP PUSH0 PUSH2 0x2775 DUP7 PUSH2 0x276F DUP10 PUSH2 0x10D4 JUMP JUMPDEST DUP6 PUSH2 0x2D8B JUMP JUMPDEST SWAP1 POP PUSH0 PUSH2 0x2785 DUP9 DUP9 DUP9 DUP6 DUP9 PUSH2 0x32EF JUMP JUMPDEST SWAP1 POP PUSH0 DUP5 MLOAD SUB PUSH2 0x27E8 JUMPI DUP7 PUSH20 0xFFFFFFFFFFFFFFFFFFFFFFFFFFFFFFFFFFFFFFFF AND PUSH32 0xB8E138887D0AA13BAB447E82DE9D5C1777041ECD21CA36BA824FF1E6C07DDDA4 DUP10 DUP9 DUP5 DUP10 PUSH1 0x40 MLOAD PUSH2 0x27DB SWAP5 SWAP4 SWAP3 SWAP2 SWAP1 PUSH2 0x5C8B JUMP JUMPDEST PUSH1 0x40 MLOAD DUP1 SWAP2 SUB SWAP1 LOG2 PUSH2 0x283F JUMP JUMPDEST DUP7 PUSH20 0xFFFFFFFFFFFFFFFFFFFFFFFFFFFFFFFFFFFFFFFF AND PUSH32 0xE2BABFBAC5889A709B63BB7F598B324E08BC5A4FB9EC647FB3CBC9EC07EB8712 DUP10 DUP9 DUP5 DUP10 DUP10 PUSH1 0x40 MLOAD PUSH2 0x2836 SWAP6 SWAP5 SWAP4 SWAP3 SWAP2 SWAP1 PUSH2 0x5D1D JUMP JUMPDEST PUSH1 0x40 MLOAD DUP1 SWAP2 SUB SWAP1 LOG2 JUMPDEST PUSH2 0x2848 DUP9 PUSH2 0x34E4 JUMP JUMPDEST DUP1 SWAP3 POP POP POP SWAP6 SWAP5 POP POP POP POP POP JUMP JUMPDEST PUSH0 PUSH6 0xFFFFFFFFFFFF DUP1 AND DUP3 GT ISZERO PUSH2 0x28A7 JUMPI PUSH1 0x30 DUP3 PUSH1 0x40 MLOAD PUSH32 0x6DFCC65000000000000000000000000000000000000000000000000000000000 DUP2 MSTORE PUSH1 0x4 ADD PUSH2 0x289E SWAP3 SWAP2 SWAP1 PUSH2 0x5DB5 JUMP JUMPDEST PUSH1 0x40 MLOAD DUP1 SWAP2 SUB SWAP1 REVERT JUMPDEST DUP2 SWAP1 POP SWAP2 SWAP1 POP JUMP JUMPDEST PUSH0 DUP1 DUP4 PUSH0 ADD DUP1 SLOAD SWAP1 POP SWAP1 POP PUSH0 DUP1 DUP3 SWAP1 POP PUSH1 0x5 DUP4 GT ISZERO PUSH2 0x2930 JUMPI PUSH0 PUSH2 0x28D2 DUP5 PUSH2 0x34E7 JUMP JUMPDEST DUP5 PUSH2 0x28DD SWAP2 SWAP1 PUSH2 0x5590 JUMP JUMPDEST SWAP1 POP PUSH2 0x28EB DUP8 PUSH0 ADD DUP3 PUSH2 0x3681 JUMP JUMPDEST PUSH0 ADD PUSH0 SWAP1 SLOAD SWAP1 PUSH2 0x100 EXP SWAP1 DIV PUSH6 0xFFFFFFFFFFFF AND PUSH6 0xFFFFFFFFFFFF AND DUP7 PUSH6 0xFFFFFFFFFFFF AND LT ISZERO PUSH2 0x291E JUMPI DUP1 SWAP2 POP PUSH2 0x292E JUMP JUMPDEST PUSH1 0x1 DUP2 PUSH2 0x292B SWAP2 SWAP1 PUSH2 0x5AAB JUMP JUMPDEST SWAP3 POP JUMPDEST POP JUMPDEST PUSH0 PUSH2 0x293F DUP8 PUSH0 ADD DUP8 DUP6 DUP6 PUSH2 0x3693 JUMP JUMPDEST SWAP1 POP PUSH0 DUP2 EQ PUSH2 0x298E JUMPI PUSH2 0x2960 DUP8 PUSH0 ADD PUSH1 0x1 DUP4 PUSH2 0x295B SWAP2 SWAP1 PUSH2 0x5590 JUMP JUMPDEST PUSH2 0x3681 JUMP JUMPDEST PUSH0 ADD PUSH1 0x6 SWAP1 SLOAD SWAP1 PUSH2 0x100 EXP SWAP1 DIV PUSH26 0xFFFFFFFFFFFFFFFFFFFFFFFFFFFFFFFFFFFFFFFFFFFFFFFFFFFF AND PUSH2 0x2990 JUMP JUMPDEST PUSH0 JUMPDEST SWAP5 POP POP POP POP POP SWAP3 SWAP2 POP POP JUMP JUMPDEST PUSH0 DUP1 DUP3 MLOAD SWAP1 POP PUSH1 0x34 DUP2 LT ISZERO PUSH2 0x29B5 JUMPI PUSH1 0x1 SWAP2 POP POP PUSH2 0x2A7C JUMP JUMPDEST PUSH0 PUSH2 0x29C3 DUP5 PUSH1 0x34 DUP5 SUB PUSH2 0x3708 JUMP JUMPDEST SWAP1 POP PUSH32 0x2370726F706F7365723D00000000000000000000000000000000000000000000 PUSH22 0xFFFFFFFFFFFFFFFFFFFFFFFFFFFFFFFFFFFFFFFFFFFF NOT AND DUP2 PUSH22 0xFFFFFFFFFFFFFFFFFFFFFFFFFFFFFFFFFFFFFFFFFFFF NOT AND EQ PUSH2 0x2A29 JUMPI PUSH1 0x1 SWAP3 POP POP POP PUSH2 0x2A7C JUMP JUMPDEST PUSH0 DUP1 PUSH2 0x2A39 DUP7 PUSH1 0x2A DUP7 SUB DUP7 PUSH2 0x3718 JUMP JUMPDEST SWAP2 POP SWAP2 POP DUP2 ISZERO DUP1 PUSH2 0x2A75 JUMPI POP DUP7 PUSH20 0xFFFFFFFFFFFFFFFFFFFFFFFFFFFFFFFFFFFFFFFF AND DUP2 PUSH20 0xFFFFFFFFFFFFFFFFFFFFFFFFFFFFFFFFFFFFFFFF AND EQ JUMPDEST SWAP5 POP POP POP POP POP JUMPDEST SWAP3 SWAP2 POP POP JUMP JUMPDEST PUSH0 PUSH2 0x2A96 DUP7 DUP7 DUP7 DUP7 DUP1 MLOAD SWAP1 PUSH1 0x20 ADD KECCAK256 PUSH2 0x1D40 JUMP JUMPDEST SWAP1 POP DUP5 MLOAD DUP7 MLOAD EQ ISZERO DUP1 PUSH2 0x2AAB JUMPI POP DUP4 MLOAD DUP7 MLOAD EQ ISZERO JUMPDEST DUP1 PUSH2 0x2AB6 JUMPI POP PUSH0 DUP7 MLOAD EQ JUMPDEST ISZERO PUSH2 0x2AFF JUMPI DUP6 MLOAD DUP5 MLOAD DUP7 MLOAD PUSH1 0x40 MLOAD PUSH32 0x447B05D000000000000000000000000000000000000000000000000000000000 DUP2 MSTORE PUSH1 0x4 ADD PUSH2 0x2AF6 SWAP4 SWAP3 SWAP2 SWAP1 PUSH2 0x490B JUMP JUMPDEST PUSH1 0x40 MLOAD DUP1 SWAP2 SUB SWAP1 REVERT JUMPDEST PUSH0 PUSH1 0x4 PUSH0 DUP4 DUP2 MSTORE PUSH1 0x20 ADD SWAP1 DUP2 MSTORE PUSH1 0x20 ADD PUSH0 KECCAK256 PUSH0 ADD PUSH1 0x14 SWAP1 SLOAD SWAP1 PUSH2 0x100 EXP SWAP1 DIV PUSH6 0xFFFFFFFFFFFF AND PUSH6 0xFFFFFFFFFFFF AND EQ PUSH2 0x2B7E JUMPI DUP1 PUSH2 0x2B3D DUP3 PUSH2 0x1136 JUMP JUMPDEST PUSH0 DUP1 SHL PUSH1 0x40 MLOAD PUSH32 0x31B75E4D00000000000000000000000000000000000000000000000000000000 DUP2 MSTORE PUSH1 0x4 ADD PUSH2 0x2B75 SWAP4 SWAP3 SWAP2 SWAP1 PUSH2 0x5A30 JUMP JUMPDEST PUSH1 0x40 MLOAD DUP1 SWAP2 SUB SWAP1 REVERT JUMPDEST PUSH0 PUSH2 0x2B87 PUSH2 0x112E JUMP JUMPDEST PUSH2 0x2B8F PUSH2 0x1AB9 JUMP JUMPDEST PUSH6 0xFFFFFFFFFFFF AND PUSH2 0x2BA1 SWAP2 SWAP1 PUSH2 0x5AAB JUMP JUMPDEST SWAP1 POP PUSH0 PUSH2 0x2BAC PUSH2 0xC9E JUMP JUMPDEST SWAP1 POP PUSH0 PUSH1 0x4 PUSH0 DUP6 DUP2 MSTORE PUSH1 0x20 ADD SWAP1 DUP2 MSTORE PUSH1 0x20 ADD PUSH0 KECCAK256 SWAP1 POP DUP5 DUP2 PUSH0 ADD PUSH0 PUSH2 0x100 EXP DUP2 SLOAD DUP2 PUSH20 0xFFFFFFFFFFFFFFFFFFFFFFFFFFFFFFFFFFFFFFFF MUL NOT AND SWAP1 DUP4 PUSH20 0xFFFFFFFFFFFFFFFFFFFFFFFFFFFFFFFFFFFFFFFF AND MUL OR SWAP1 SSTORE POP PUSH2 0x2C0C DUP4 PUSH2 0x2856 JUMP JUMPDEST DUP2 PUSH0 ADD PUSH1 0x14 PUSH2 0x100 EXP DUP2 SLOAD DUP2 PUSH6 0xFFFFFFFFFFFF MUL NOT AND SWAP1 DUP4 PUSH6 0xFFFFFFFFFFFF AND MUL OR SWAP1 SSTORE POP PUSH2 0x2C3A DUP3 PUSH2 0x3829 JUMP JUMPDEST DUP2 PUSH0 ADD PUSH1 0x1A PUSH2 0x100 EXP DUP2 SLOAD DUP2 PUSH4 0xFFFFFFFF MUL NOT AND SWAP1 DUP4 PUSH4 0xFFFFFFFF AND MUL OR SWAP1 SSTORE POP PUSH32 0x7D84A6263AE0D98D3329BD7B46BB4E8D6F98CD35A7ADB45C274C8B7FD5EBD5E0 DUP5 DUP7 DUP12 DUP12 DUP14 MLOAD PUSH8 0xFFFFFFFFFFFFFFFF DUP2 GT ISZERO PUSH2 0x2C9B JUMPI PUSH2 0x2C9A PUSH2 0x4300 JUMP JUMPDEST JUMPDEST PUSH1 0x40 MLOAD SWAP1 DUP1 DUP3 MSTORE DUP1 PUSH1 0x20 MUL PUSH1 0x20 ADD DUP3 ADD PUSH1 0x40 MSTORE DUP1 ISZERO PUSH2 0x2CCE JUMPI DUP2 PUSH1 0x20 ADD JUMPDEST PUSH1 0x60 DUP2 MSTORE PUSH1 0x20 ADD SWAP1 PUSH1 0x1 SWAP1 SUB SWAP1 DUP2 PUSH2 0x2CB9 JUMPI SWAP1 POP JUMPDEST POP DUP13 DUP10 DUP10 DUP12 PUSH2 0x2CDD SWAP2 SWAP1 PUSH2 0x5AAB JUMP JUMPDEST DUP15 PUSH1 0x40 MLOAD PUSH2 0x2CF3 SWAP10 SWAP9 SWAP8 SWAP7 SWAP6 SWAP5 SWAP4 SWAP3 SWAP2 SWAP1 PUSH2 0x5EDF JUMP JUMPDEST PUSH1 0x40 MLOAD DUP1 SWAP2 SUB SWAP1 LOG1 POP POP POP SWAP6 SWAP5 POP POP POP POP POP JUMP JUMPDEST PUSH1 0x60 PUSH2 0x2D3C PUSH0 PUSH32 0x0 PUSH2 0x3880 SWAP1 SWAP2 SWAP1 PUSH4 0xFFFFFFFF AND JUMP JUMPDEST SWAP1 POP SWAP1 JUMP JUMPDEST PUSH1 0x60 PUSH2 0x2D77 PUSH1 0x1 PUSH32 0x0 PUSH2 0x3880 SWAP1 SWAP2 SWAP1 PUSH4 0xFFFFFFFF AND JUMP JUMPDEST SWAP1 POP SWAP1 JUMP JUMPDEST PUSH0 PUSH2 0x2D86 NUMBER PUSH2 0x2856 JUMP JUMPDEST SWAP1 POP SWAP1 JUMP JUMPDEST PUSH0 PUSH2 0x2D94 PUSH2 0x1F22 JUMP JUMPDEST PUSH20 0xFFFFFFFFFFFFFFFFFFFFFFFFFFFFFFFFFFFFFFFF AND PUSH4 0x3A46B1A8 DUP6 DUP6 PUSH1 0x40 MLOAD DUP4 PUSH4 0xFFFFFFFF AND PUSH1 0xE0 SHL DUP2 MSTORE PUSH1 0x4 ADD PUSH2 0x2DCE SWAP3 SWAP2 SWAP1 PUSH2 0x5F8D JUMP JUMPDEST PUSH1 0x20 PUSH1 0x40 MLOAD DUP1 DUP4 SUB DUP2 DUP7 GAS STATICCALL ISZERO DUP1 ISZERO PUSH2 0x2DE9 JUMPI RETURNDATASIZE PUSH0 DUP1 RETURNDATACOPY RETURNDATASIZE PUSH0 REVERT JUMPDEST POP POP POP POP PUSH1 0x40 MLOAD RETURNDATASIZE PUSH1 0x1F NOT PUSH1 0x1F DUP3 ADD AND DUP3 ADD DUP1 PUSH1 0x40 MSTORE POP DUP2 ADD SWAP1 PUSH2 0x2E0D SWAP2 SWAP1 PUSH2 0x5940 JUMP JUMPDEST SWAP1 POP SWAP4 SWAP3 POP POP POP JUMP JUMPDEST PUSH0 DUP1 DUP3 PUSH0 ADD DUP1 SLOAD SWAP1 POP SWAP1 POP PUSH0 DUP2 EQ PUSH2 0x2E6E JUMPI PUSH2 0x2E40 DUP4 PUSH0 ADD PUSH1 0x1 DUP4 PUSH2 0x2E3B SWAP2 SWAP1 PUSH2 0x5590 JUMP JUMPDEST PUSH2 0x3681 JUMP JUMPDEST PUSH0 ADD PUSH1 0x6 SWAP1 SLOAD SWAP1 PUSH2 0x100 EXP SWAP1 DIV PUSH26 0xFFFFFFFFFFFFFFFFFFFFFFFFFFFFFFFFFFFFFFFFFFFFFFFFFFFF AND PUSH2 0x2E70 JUMP JUMPDEST PUSH0 JUMPDEST SWAP2 POP POP SWAP2 SWAP1 POP JUMP JUMPDEST PUSH1 0x60 DUP3 PUSH2 0x2E8D JUMPI PUSH2 0x2E88 DUP3 PUSH2 0x392D JUMP JUMPDEST PUSH2 0x2E95 JUMP JUMPDEST DUP2 SWAP1 POP PUSH2 0x2E96 JUMP JUMPDEST JUMPDEST SWAP3 SWAP2 POP POP JUMP JUMPDEST PUSH1 0x60 PUSH1 0x40 MLOAD DUP1 PUSH1 0x20 ADD PUSH1 0x40 MSTORE DUP1 PUSH0 DUP2 MSTORE POP SWAP1 POP SWAP1 JUMP JUMPDEST CALLDATASIZE PUSH0 DUP1 CALLDATASIZE SWAP2 POP SWAP2 POP SWAP1 SWAP2 JUMP JUMPDEST PUSH0 DUP1 DUP3 PUSH0 ADD PUSH0 SWAP1 SLOAD SWAP1 PUSH2 0x100 EXP SWAP1 DIV PUSH16 0xFFFFFFFFFFFFFFFFFFFFFFFFFFFFFFFF AND SWAP1 POP DUP3 PUSH0 ADD PUSH1 0x10 SWAP1 SLOAD SWAP1 PUSH2 0x100 EXP SWAP1 DIV PUSH16 0xFFFFFFFFFFFFFFFFFFFFFFFFFFFFFFFF AND PUSH16 0xFFFFFFFFFFFFFFFFFFFFFFFFFFFFFFFF AND DUP2 PUSH16 0xFFFFFFFFFFFFFFFFFFFFFFFFFFFFFFFF AND SUB PUSH2 0x2F36 JUMPI PUSH2 0x2F35 PUSH1 0x31 PUSH2 0x3074 JUMP JUMPDEST JUMPDEST DUP3 PUSH1 0x1 ADD PUSH0 DUP3 PUSH16 0xFFFFFFFFFFFFFFFFFFFFFFFFFFFFFFFF AND PUSH16 0xFFFFFFFFFFFFFFFFFFFFFFFFFFFFFFFF AND DUP2 MSTORE PUSH1 0x20 ADD SWAP1 DUP2 MSTORE PUSH1 0x20 ADD PUSH0 KECCAK256 SLOAD SWAP2 POP DUP3 PUSH1 0x1 ADD PUSH0 DUP3 PUSH16 0xFFFFFFFFFFFFFFFFFFFFFFFFFFFFFFFF AND PUSH16 0xFFFFFFFFFFFFFFFFFFFFFFFFFFFFFFFF AND DUP2 MSTORE PUSH1 0x20 ADD SWAP1 DUP2 MSTORE PUSH1 0x20 ADD PUSH0 KECCAK256 PUSH0 SWAP1 SSTORE PUSH1 0x1 DUP2 ADD DUP4 PUSH0 ADD PUSH0 PUSH2 0x100 EXP DUP2 SLOAD DUP2 PUSH16 0xFFFFFFFFFFFFFFFFFFFFFFFFFFFFFFFF MUL NOT AND SWAP1 DUP4 PUSH16 0xFFFFFFFFFFFFFFFFFFFFFFFFFFFFFFFF AND MUL OR SWAP1 SSTORE POP POP SWAP2 SWAP1 POP JUMP JUMPDEST PUSH0 PUSH26 0xFFFFFFFFFFFFFFFFFFFFFFFFFFFFFFFFFFFFFFFFFFFFFFFFFFFF DUP1 AND DUP3 GT ISZERO PUSH2 0x3051 JUMPI PUSH1 0xD0 DUP3 PUSH1 0x40 MLOAD PUSH32 0x6DFCC65000000000000000000000000000000000000000000000000000000000 DUP2 MSTORE PUSH1 0x4 ADD PUSH2 0x3048 SWAP3 SWAP2 SWAP1 PUSH2 0x5FED JUMP JUMPDEST PUSH1 0x40 MLOAD DUP1 SWAP2 SUB SWAP1 REVERT JUMPDEST DUP2 SWAP1 POP SWAP2 SWAP1 POP JUMP JUMPDEST PUSH0 DUP1 PUSH2 0x3068 DUP6 PUSH0 ADD DUP6 DUP6 PUSH2 0x3971 JUMP JUMPDEST SWAP2 POP SWAP2 POP SWAP4 POP SWAP4 SWAP2 POP POP JUMP JUMPDEST PUSH4 0x4E487B71 PUSH0 MSTORE DUP1 PUSH1 0x20 MSTORE PUSH1 0x24 PUSH1 0x1C REVERT JUMPDEST PUSH0 PUSH32 0x0 PUSH20 0xFFFFFFFFFFFFFFFFFFFFFFFFFFFFFFFFFFFFFFFF AND ADDRESS PUSH20 0xFFFFFFFFFFFFFFFFFFFFFFFFFFFFFFFFFFFFFFFF AND EQ DUP1 ISZERO PUSH2 0x3100 JUMPI POP PUSH32 0x0 CHAINID EQ JUMPDEST ISZERO PUSH2 0x312D JUMPI PUSH32 0x0 SWAP1 POP PUSH2 0x3138 JUMP JUMPDEST PUSH2 0x3135 PUSH2 0x3C65 JUMP JUMPDEST SWAP1 POP JUMPDEST SWAP1 JUMP JUMPDEST PUSH0 PUSH1 0x40 MLOAD PUSH32 0x1901000000000000000000000000000000000000000000000000000000000000 DUP2 MSTORE DUP4 PUSH1 0x2 DUP3 ADD MSTORE DUP3 PUSH1 0x22 DUP3 ADD MSTORE PUSH1 0x42 DUP2 KECCAK256 SWAP2 POP POP SWAP3 SWAP2 POP POP JUMP JUMPDEST PUSH0 DUP1 PUSH0 PUSH1 0x41 DUP5 MLOAD SUB PUSH2 0x31BB JUMPI PUSH0 DUP1 PUSH0 PUSH1 0x20 DUP8 ADD MLOAD SWAP3 POP PUSH1 0x40 DUP8 ADD MLOAD SWAP2 POP PUSH1 0x60 DUP8 ADD MLOAD PUSH0 BYTE SWAP1 POP PUSH2 0x31AD DUP9 DUP3 DUP6 DUP6 PUSH2 0x3CFA JUMP JUMPDEST SWAP6 POP SWAP6 POP SWAP6 POP POP POP POP PUSH2 0x31C9 JUMP JUMPDEST PUSH0 PUSH1 0x2 DUP6 MLOAD PUSH0 SHL SWAP3 POP SWAP3 POP SWAP3 POP JUMPDEST SWAP3 POP SWAP3 POP SWAP3 JUMP JUMPDEST PUSH0 DUP1 PUSH0 DUP6 PUSH20 0xFFFFFFFFFFFFFFFFFFFFFFFFFFFFFFFFFFFFFFFF AND DUP6 DUP6 PUSH1 0x40 MLOAD PUSH1 0x24 ADD PUSH2 0x31FD SWAP3 SWAP2 SWAP1 PUSH2 0x6014 JUMP JUMPDEST PUSH1 0x40 MLOAD PUSH1 0x20 DUP2 DUP4 SUB SUB DUP2 MSTORE SWAP1 PUSH1 0x40 MSTORE PUSH4 0x1626BA7E PUSH1 0xE0 SHL PUSH1 0x20 DUP3 ADD DUP1 MLOAD PUSH28 0xFFFFFFFFFFFFFFFFFFFFFFFFFFFFFFFFFFFFFFFFFFFFFFFFFFFFFFFF DUP4 DUP2 DUP4 AND OR DUP4 MSTORE POP POP POP POP PUSH1 0x40 MLOAD PUSH2 0x324F SWAP2 SWAP1 PUSH2 0x5A95 JUMP JUMPDEST PUSH0 PUSH1 0x40 MLOAD DUP1 DUP4 SUB DUP2 DUP6 GAS STATICCALL SWAP2 POP POP RETURNDATASIZE DUP1 PUSH0 DUP2 EQ PUSH2 0x3287 JUMPI PUSH1 0x40 MLOAD SWAP2 POP PUSH1 0x1F NOT PUSH1 0x3F RETURNDATASIZE ADD AND DUP3 ADD PUSH1 0x40 MSTORE RETURNDATASIZE DUP3 MSTORE RETURNDATASIZE PUSH0 PUSH1 0x20 DUP5 ADD RETURNDATACOPY PUSH2 0x328C JUMP JUMPDEST PUSH1 0x60 SWAP2 POP JUMPDEST POP SWAP2 POP SWAP2 POP DUP2 DUP1 ISZERO PUSH2 0x32A0 JUMPI POP PUSH1 0x20 DUP2 MLOAD LT ISZERO JUMPDEST DUP1 ISZERO PUSH2 0x32E4 JUMPI POP PUSH4 0x1626BA7E PUSH1 0xE0 SHL PUSH28 0xFFFFFFFFFFFFFFFFFFFFFFFFFFFFFFFFFFFFFFFFFFFFFFFFFFFFFFFF NOT AND DUP2 DUP1 PUSH1 0x20 ADD SWAP1 MLOAD DUP2 ADD SWAP1 PUSH2 0x32E2 SWAP2 SWAP1 PUSH2 0x6056 JUMP JUMPDEST EQ JUMPDEST SWAP3 POP POP POP SWAP4 SWAP3 POP POP POP JUMP JUMPDEST PUSH0 DUP1 PUSH1 0x7 PUSH0 DUP9 DUP2 MSTORE PUSH1 0x20 ADD SWAP1 DUP2 MSTORE PUSH1 0x20 ADD PUSH0 KECCAK256 SWAP1 POP DUP1 PUSH1 0x3 ADD PUSH0 DUP8 PUSH20 0xFFFFFFFFFFFFFFFFFFFFFFFFFFFFFFFFFFFFFFFF AND PUSH20 0xFFFFFFFFFFFFFFFFFFFFFFFFFFFFFFFFFFFFFFFF AND DUP2 MSTORE PUSH1 0x20 ADD SWAP1 DUP2 MSTORE PUSH1 0x20 ADD PUSH0 KECCAK256 PUSH0 SWAP1 SLOAD SWAP1 PUSH2 0x100 EXP SWAP1 DIV PUSH1 0xFF AND ISZERO PUSH2 0x3392 JUMPI DUP6 PUSH1 0x40 MLOAD PUSH32 0x71C6AF4900000000000000000000000000000000000000000000000000000000 DUP2 MSTORE PUSH1 0x4 ADD PUSH2 0x3389 SWAP2 SWAP1 PUSH2 0x42B5 JUMP JUMPDEST PUSH1 0x40 MLOAD DUP1 SWAP2 SUB SWAP1 REVERT JUMPDEST PUSH1 0x1 DUP2 PUSH1 0x3 ADD PUSH0 DUP9 PUSH20 0xFFFFFFFFFFFFFFFFFFFFFFFFFFFFFFFFFFFFFFFF AND PUSH20 0xFFFFFFFFFFFFFFFFFFFFFFFFFFFFFFFFFFFFFFFF AND DUP2 MSTORE PUSH1 0x20 ADD SWAP1 DUP2 MSTORE PUSH1 0x20 ADD PUSH0 KECCAK256 PUSH0 PUSH2 0x100 EXP DUP2 SLOAD DUP2 PUSH1 0xFF MUL NOT AND SWAP1 DUP4 ISZERO ISZERO MUL OR SWAP1 SSTORE POP PUSH0 PUSH1 0x2 DUP2 GT ISZERO PUSH2 0x33FC JUMPI PUSH2 0x33FB PUSH2 0x4841 JUMP JUMPDEST JUMPDEST PUSH1 0xFF AND DUP6 PUSH1 0xFF AND SUB PUSH2 0x3426 JUMPI DUP4 DUP2 PUSH0 ADD PUSH0 DUP3 DUP3 SLOAD PUSH2 0x341A SWAP2 SWAP1 PUSH2 0x5AAB JUMP JUMPDEST SWAP3 POP POP DUP2 SWAP1 SSTORE POP PUSH2 0x34D7 JUMP JUMPDEST PUSH1 0x1 PUSH1 0x2 DUP2 GT ISZERO PUSH2 0x343A JUMPI PUSH2 0x3439 PUSH2 0x4841 JUMP JUMPDEST JUMPDEST PUSH1 0xFF AND DUP6 PUSH1 0xFF AND SUB PUSH2 0x3465 JUMPI DUP4 DUP2 PUSH1 0x1 ADD PUSH0 DUP3 DUP3 SLOAD PUSH2 0x3459 SWAP2 SWAP1 PUSH2 0x5AAB JUMP JUMPDEST SWAP3 POP POP DUP2 SWAP1 SSTORE POP PUSH2 0x34D6 JUMP JUMPDEST PUSH1 0x2 DUP1 DUP2 GT ISZERO PUSH2 0x3478 JUMPI PUSH2 0x3477 PUSH2 0x4841 JUMP JUMPDEST JUMPDEST PUSH1 0xFF AND DUP6 PUSH1 0xFF AND SUB PUSH2 0x34A3 JUMPI DUP4 DUP2 PUSH1 0x2 ADD PUSH0 DUP3 DUP3 SLOAD PUSH2 0x3497 SWAP2 SWAP1 PUSH2 0x5AAB JUMP JUMPDEST SWAP3 POP POP DUP2 SWAP1 SSTORE POP PUSH2 0x34D5 JUMP JUMPDEST PUSH1 0x40 MLOAD PUSH32 0x6B337C200000000000000000000000000000000000000000000000000000000 DUP2 MSTORE PUSH1 0x4 ADD PUSH1 0x40 MLOAD DUP1 SWAP2 SUB SWAP1 REVERT JUMPDEST JUMPDEST JUMPDEST DUP4 SWAP2 POP POP SWAP6 SWAP5 POP POP POP POP POP JUMP JUMPDEST POP JUMP JUMPDEST PUSH0 PUSH1 0x1 DUP3 GT PUSH2 0x34F8 JUMPI DUP2 SWAP1 POP PUSH2 0x367C JUMP JUMPDEST PUSH0 DUP3 SWAP1 POP PUSH0 PUSH1 0x1 SWAP1 POP PUSH17 0x100000000000000000000000000000000 DUP3 LT PUSH2 0x3528 JUMPI PUSH1 0x80 DUP3 SWAP1 SHR SWAP2 POP PUSH1 0x40 DUP2 SWAP1 SHL SWAP1 POP JUMPDEST PUSH9 0x10000000000000000 DUP3 LT PUSH2 0x3547 JUMPI PUSH1 0x40 DUP3 SWAP1 SHR SWAP2 POP PUSH1 0x20 DUP2 SWAP1 SHL SWAP1 POP JUMPDEST PUSH5 0x100000000 DUP3 LT PUSH2 0x3562 JUMPI PUSH1 0x20 DUP3 SWAP1 SHR SWAP2 POP PUSH1 0x10 DUP2 SWAP1 SHL SWAP1 POP JUMPDEST PUSH3 0x10000 DUP3 LT PUSH2 0x357B JUMPI PUSH1 0x10 DUP3 SWAP1 SHR SWAP2 POP PUSH1 0x8 DUP2 SWAP1 SHL SWAP1 POP JUMPDEST PUSH2 0x100 DUP3 LT PUSH2 0x3593 JUMPI PUSH1 0x8 DUP3 SWAP1 SHR SWAP2 POP PUSH1 0x4 DUP2 SWAP1 SHL SWAP1 POP JUMPDEST PUSH1 0x10 DUP3 LT PUSH2 0x35AA JUMPI PUSH1 0x4 DUP3 SWAP1 SHR SWAP2 POP PUSH1 0x2 DUP2 SWAP1 SHL SWAP1 POP JUMPDEST PUSH1 0x4 DUP3 LT PUSH2 0x35BA JUMPI PUSH1 0x1 DUP2 SWAP1 SHL SWAP1 POP JUMPDEST PUSH1 0x1 DUP2 PUSH1 0x3 MUL SWAP1 SHR SWAP1 POP PUSH1 0x1 DUP2 DUP6 DUP2 PUSH2 0x35D6 JUMPI PUSH2 0x35D5 PUSH2 0x59AC JUMP JUMPDEST JUMPDEST DIV DUP3 ADD SWAP1 SHR SWAP1 POP PUSH1 0x1 DUP2 DUP6 DUP2 PUSH2 0x35EF JUMPI PUSH2 0x35EE PUSH2 0x59AC JUMP JUMPDEST JUMPDEST DIV DUP3 ADD SWAP1 SHR SWAP1 POP PUSH1 0x1 DUP2 DUP6 DUP2 PUSH2 0x3608 JUMPI PUSH2 0x3607 PUSH2 0x59AC JUMP JUMPDEST JUMPDEST DIV DUP3 ADD SWAP1 SHR SWAP1 POP PUSH1 0x1 DUP2 DUP6 DUP2 PUSH2 0x3621 JUMPI PUSH2 0x3620 PUSH2 0x59AC JUMP JUMPDEST JUMPDEST DIV DUP3 ADD SWAP1 SHR SWAP1 POP PUSH1 0x1 DUP2 DUP6 DUP2 PUSH2 0x363A JUMPI PUSH2 0x3639 PUSH2 0x59AC JUMP JUMPDEST JUMPDEST DIV DUP3 ADD SWAP1 SHR SWAP1 POP PUSH1 0x1 DUP2 DUP6 DUP2 PUSH2 0x3653 JUMPI PUSH2 0x3652 PUSH2 0x59AC JUMP JUMPDEST JUMPDEST DIV DUP3 ADD SWAP1 SHR SWAP1 POP PUSH2 0x3675 DUP2 DUP6 DUP2 PUSH2 0x366D JUMPI PUSH2 0x366C PUSH2 0x59AC JUMP JUMPDEST JUMPDEST DIV DUP3 GT PUSH2 0x3DE1 JUMP JUMPDEST DUP2 SUB SWAP3 POP POP POP JUMPDEST SWAP2 SWAP1 POP JUMP JUMPDEST PUSH0 DUP3 PUSH0 MSTORE DUP2 PUSH1 0x20 PUSH0 KECCAK256 ADD SWAP1 POP SWAP3 SWAP2 POP POP JUMP JUMPDEST PUSH0 JUMPDEST DUP2 DUP4 LT ISZERO PUSH2 0x36FD JUMPI PUSH0 PUSH2 0x36A8 DUP5 DUP5 PUSH2 0x3DEC JUMP JUMPDEST SWAP1 POP DUP5 PUSH6 0xFFFFFFFFFFFF AND PUSH2 0x36BD DUP8 DUP4 PUSH2 0x3681 JUMP JUMPDEST PUSH0 ADD PUSH0 SWAP1 SLOAD SWAP1 PUSH2 0x100 EXP SWAP1 DIV PUSH6 0xFFFFFFFFFFFF AND PUSH6 0xFFFFFFFFFFFF AND GT ISZERO PUSH2 0x36E7 JUMPI DUP1 SWAP3 POP PUSH2 0x36F7 JUMP JUMPDEST PUSH1 0x1 DUP2 PUSH2 0x36F4 SWAP2 SWAP1 PUSH2 0x5AAB JUMP JUMPDEST SWAP4 POP JUMPDEST POP PUSH2 0x3695 JUMP JUMPDEST DUP2 SWAP1 POP SWAP5 SWAP4 POP POP POP POP JUMP JUMPDEST PUSH0 DUP2 PUSH1 0x20 ADD DUP4 ADD MLOAD SWAP1 POP SWAP3 SWAP2 POP POP JUMP JUMPDEST PUSH0 DUP1 DUP5 MLOAD DUP4 GT DUP1 PUSH2 0x3728 JUMPI POP DUP3 DUP5 GT JUMPDEST ISZERO PUSH2 0x3738 JUMPI PUSH0 DUP1 SWAP2 POP SWAP2 POP PUSH2 0x3821 JUMP JUMPDEST PUSH0 PUSH1 0x1 DUP6 PUSH2 0x3746 SWAP2 SWAP1 PUSH2 0x5AAB JUMP JUMPDEST DUP5 GT DUP1 ISZERO PUSH2 0x37BE JUMPI POP PUSH32 0x3078000000000000000000000000000000000000000000000000000000000000 PUSH30 0xFFFFFFFFFFFFFFFFFFFFFFFFFFFFFFFFFFFFFFFFFFFFFFFFFFFFFFFFFFFF NOT AND PUSH2 0x379B DUP8 DUP8 PUSH2 0x3E11 JUMP JUMPDEST PUSH30 0xFFFFFFFFFFFFFFFFFFFFFFFFFFFFFFFFFFFFFFFFFFFFFFFFFFFFFFFFFFFF NOT AND EQ JUMPDEST SWAP1 POP PUSH0 PUSH1 0x2 PUSH2 0x37CE DUP4 ISZERO ISZERO PUSH2 0x3DE1 JUMP JUMPDEST PUSH2 0x37D8 SWAP2 SWAP1 PUSH2 0x596B JUMP JUMPDEST PUSH1 0x28 PUSH2 0x37E4 SWAP2 SWAP1 PUSH2 0x5AAB JUMP JUMPDEST SWAP1 POP DUP1 DUP7 DUP7 PUSH2 0x37F3 SWAP2 SWAP1 PUSH2 0x5590 JUMP JUMPDEST SUB PUSH2 0x3818 JUMPI PUSH0 DUP1 PUSH2 0x3805 DUP10 DUP10 DUP10 PUSH2 0x3E21 JUMP JUMPDEST SWAP2 POP SWAP2 POP DUP2 DUP2 SWAP6 POP SWAP6 POP POP POP POP POP PUSH2 0x3821 JUMP JUMPDEST PUSH0 DUP1 SWAP4 POP SWAP4 POP POP POP JUMPDEST SWAP4 POP SWAP4 SWAP2 POP POP JUMP JUMPDEST PUSH0 PUSH4 0xFFFFFFFF DUP1 AND DUP3 GT ISZERO PUSH2 0x3878 JUMPI PUSH1 0x20 DUP3 PUSH1 0x40 MLOAD PUSH32 0x6DFCC65000000000000000000000000000000000000000000000000000000000 DUP2 MSTORE PUSH1 0x4 ADD PUSH2 0x386F SWAP3 SWAP2 SWAP1 PUSH2 0x60BA JUMP JUMPDEST PUSH1 0x40 MLOAD DUP1 SWAP2 SUB SWAP1 REVERT JUMPDEST DUP2 SWAP1 POP SWAP2 SWAP1 POP JUMP JUMPDEST PUSH1 0x60 PUSH1 0xFF PUSH0 SHL DUP4 EQ PUSH2 0x389C JUMPI PUSH2 0x3895 DUP4 PUSH2 0x3F4C JUMP JUMPDEST SWAP1 POP PUSH2 0x3927 JUMP JUMPDEST DUP2 DUP1 SLOAD PUSH2 0x38A8 SWAP1 PUSH2 0x5338 JUMP JUMPDEST DUP1 PUSH1 0x1F ADD PUSH1 0x20 DUP1 SWAP2 DIV MUL PUSH1 0x20 ADD PUSH1 0x40 MLOAD SWAP1 DUP2 ADD PUSH1 0x40 MSTORE DUP1 SWAP3 SWAP2 SWAP1 DUP2 DUP2 MSTORE PUSH1 0x20 ADD DUP3 DUP1 SLOAD PUSH2 0x38D4 SWAP1 PUSH2 0x5338 JUMP JUMPDEST DUP1 ISZERO PUSH2 0x391F JUMPI DUP1 PUSH1 0x1F LT PUSH2 0x38F6 JUMPI PUSH2 0x100 DUP1 DUP4 SLOAD DIV MUL DUP4 MSTORE SWAP2 PUSH1 0x20 ADD SWAP2 PUSH2 0x391F JUMP JUMPDEST DUP3 ADD SWAP2 SWAP1 PUSH0 MSTORE PUSH1 0x20 PUSH0 KECCAK256 SWAP1 JUMPDEST DUP2 SLOAD DUP2 MSTORE SWAP1 PUSH1 0x1 ADD SWAP1 PUSH1 0x20 ADD DUP1 DUP4 GT PUSH2 0x3902 JUMPI DUP3 SWAP1 SUB PUSH1 0x1F AND DUP3 ADD SWAP2 JUMPDEST POP POP POP POP POP SWAP1 POP JUMPDEST SWAP3 SWAP2 POP POP JUMP JUMPDEST PUSH0 DUP2 MLOAD GT ISZERO PUSH2 0x393F JUMPI DUP1 MLOAD DUP1 DUP3 PUSH1 0x20 ADD REVERT JUMPDEST PUSH1 0x40 MLOAD PUSH32 0xD6BDA27500000000000000000000000000000000000000000000000000000000 DUP2 MSTORE PUSH1 0x4 ADD PUSH1 0x40 MLOAD DUP1 SWAP2 SUB SWAP1 REVERT JUMPDEST PUSH0 DUP1 PUSH0 DUP6 DUP1 SLOAD SWAP1 POP SWAP1 POP PUSH0 DUP2 GT ISZERO PUSH2 0x3B7D JUMPI PUSH0 PUSH2 0x399A DUP8 PUSH1 0x1 DUP5 PUSH2 0x3995 SWAP2 SWAP1 PUSH2 0x5590 JUMP JUMPDEST PUSH2 0x3681 JUMP JUMPDEST SWAP1 POP PUSH0 DUP2 PUSH0 ADD PUSH0 SWAP1 SLOAD SWAP1 PUSH2 0x100 EXP SWAP1 DIV PUSH6 0xFFFFFFFFFFFF AND SWAP1 POP PUSH0 DUP3 PUSH0 ADD PUSH1 0x6 SWAP1 SLOAD SWAP1 PUSH2 0x100 EXP SWAP1 DIV PUSH26 0xFFFFFFFFFFFFFFFFFFFFFFFFFFFFFFFFFFFFFFFFFFFFFFFFFFFF AND SWAP1 POP DUP8 PUSH6 0xFFFFFFFFFFFF AND DUP3 PUSH6 0xFFFFFFFFFFFF AND GT ISZERO PUSH2 0x3A2B JUMPI PUSH1 0x40 MLOAD PUSH32 0x2520601D00000000000000000000000000000000000000000000000000000000 DUP2 MSTORE PUSH1 0x4 ADD PUSH1 0x40 MLOAD DUP1 SWAP2 SUB SWAP1 REVERT JUMPDEST DUP8 PUSH6 0xFFFFFFFFFFFF AND DUP3 PUSH6 0xFFFFFFFFFFFF AND SUB PUSH2 0x3A95 JUMPI DUP7 DUP4 PUSH0 ADD PUSH1 0x6 PUSH2 0x100 EXP DUP2 SLOAD DUP2 PUSH26 0xFFFFFFFFFFFFFFFFFFFFFFFFFFFFFFFFFFFFFFFFFFFFFFFFFFFF MUL NOT AND SWAP1 DUP4 PUSH26 0xFFFFFFFFFFFFFFFFFFFFFFFFFFFFFFFFFFFFFFFFFFFFFFFFFFFF AND MUL OR SWAP1 SSTORE POP PUSH2 0x3B6E JUMP JUMPDEST DUP9 PUSH1 0x40 MLOAD DUP1 PUSH1 0x40 ADD PUSH1 0x40 MSTORE DUP1 DUP11 PUSH6 0xFFFFFFFFFFFF AND DUP2 MSTORE PUSH1 0x20 ADD DUP10 PUSH26 0xFFFFFFFFFFFFFFFFFFFFFFFFFFFFFFFFFFFFFFFFFFFFFFFFFFFF AND DUP2 MSTORE POP SWAP1 DUP1 PUSH1 0x1 DUP2 SLOAD ADD DUP1 DUP3 SSTORE DUP1 SWAP2 POP POP PUSH1 0x1 SWAP1 SUB SWAP1 PUSH0 MSTORE PUSH1 0x20 PUSH0 KECCAK256 ADD PUSH0 SWAP1 SWAP2 SWAP1 SWAP2 SWAP1 SWAP2 POP PUSH0 DUP3 ADD MLOAD DUP2 PUSH0 ADD PUSH0 PUSH2 0x100 EXP DUP2 SLOAD DUP2 PUSH6 0xFFFFFFFFFFFF MUL NOT AND SWAP1 DUP4 PUSH6 0xFFFFFFFFFFFF AND MUL OR SWAP1 SSTORE POP PUSH1 0x20 DUP3 ADD MLOAD DUP2 PUSH0 ADD PUSH1 0x6 PUSH2 0x100 EXP DUP2 SLOAD DUP2 PUSH26 0xFFFFFFFFFFFFFFFFFFFFFFFFFFFFFFFFFFFFFFFFFFFFFFFFFFFF MUL NOT AND SWAP1 DUP4 PUSH26 0xFFFFFFFFFFFFFFFFFFFFFFFFFFFFFFFFFFFFFFFFFFFFFFFFFFFF AND MUL OR SWAP1 SSTORE POP POP POP JUMPDEST DUP1 DUP8 SWAP6 POP SWAP6 POP POP POP POP POP PUSH2 0x3C5D JUMP JUMPDEST DUP6 PUSH1 0x40 MLOAD DUP1 PUSH1 0x40 ADD PUSH1 0x40 MSTORE DUP1 DUP8 PUSH6 0xFFFFFFFFFFFF AND DUP2 MSTORE PUSH1 0x20 ADD DUP7 PUSH26 0xFFFFFFFFFFFFFFFFFFFFFFFFFFFFFFFFFFFFFFFFFFFFFFFFFFFF AND DUP2 MSTORE POP SWAP1 DUP1 PUSH1 0x1 DUP2 SLOAD ADD DUP1 DUP3 SSTORE DUP1 SWAP2 POP POP PUSH1 0x1 SWAP1 SUB SWAP1 PUSH0 MSTORE PUSH1 0x20 PUSH0 KECCAK256 ADD PUSH0 SWAP1 SWAP2 SWAP1 SWAP2 SWAP1 SWAP2 POP PUSH0 DUP3 ADD MLOAD DUP2 PUSH0 ADD PUSH0 PUSH2 0x100 EXP DUP2 SLOAD DUP2 PUSH6 0xFFFFFFFFFFFF MUL NOT AND SWAP1 DUP4 PUSH6 0xFFFFFFFFFFFF AND MUL OR SWAP1 SSTORE POP PUSH1 0x20 DUP3 ADD MLOAD DUP2 PUSH0 ADD PUSH1 0x6 PUSH2 0x100 EXP DUP2 SLOAD DUP2 PUSH26 0xFFFFFFFFFFFFFFFFFFFFFFFFFFFFFFFFFFFFFFFFFFFFFFFFFFFF MUL NOT AND SWAP1 DUP4 PUSH26 0xFFFFFFFFFFFFFFFFFFFFFFFFFFFFFFFFFFFFFFFFFFFFFFFFFFFF AND MUL OR SWAP1 SSTORE POP POP POP PUSH0 DUP5 SWAP3 POP SWAP3 POP POP JUMPDEST SWAP4 POP SWAP4 SWAP2 POP POP JUMP JUMPDEST PUSH0 PUSH32 0x8B73C3C69BB8FE3D512ECC4CF759CC79239F7B179B0FFACAA9A75D522B39400F PUSH32 0x0 PUSH32 0x0 CHAINID ADDRESS PUSH1 0x40 MLOAD PUSH1 0x20 ADD PUSH2 0x3CDF SWAP6 SWAP5 SWAP4 SWAP3 SWAP2 SWAP1 PUSH2 0x60E1 JUMP JUMPDEST PUSH1 0x40 MLOAD PUSH1 0x20 DUP2 DUP4 SUB SUB DUP2 MSTORE SWAP1 PUSH1 0x40 MSTORE DUP1 MLOAD SWAP1 PUSH1 0x20 ADD KECCAK256 SWAP1 POP SWAP1 JUMP JUMPDEST PUSH0 DUP1 PUSH0 PUSH32 0x7FFFFFFFFFFFFFFFFFFFFFFFFFFFFFFF5D576E7357A4501DDFE92F46681B20A0 DUP5 PUSH0 SHR GT ISZERO PUSH2 0x3D36 JUMPI PUSH0 PUSH1 0x3 DUP6 SWAP3 POP SWAP3 POP SWAP3 POP PUSH2 0x3DD7 JUMP JUMPDEST PUSH0 PUSH1 0x1 DUP9 DUP9 DUP9 DUP9 PUSH1 0x40 MLOAD PUSH0 DUP2 MSTORE PUSH1 0x20 ADD PUSH1 0x40 MSTORE PUSH1 0x40 MLOAD PUSH2 0x3D59 SWAP5 SWAP4 SWAP3 SWAP2 SWAP1 PUSH2 0x6132 JUMP JUMPDEST PUSH1 0x20 PUSH1 0x40 MLOAD PUSH1 0x20 DUP2 SUB SWAP1 DUP1 DUP5 SUB SWAP1 DUP6 GAS STATICCALL ISZERO DUP1 ISZERO PUSH2 0x3D79 JUMPI RETURNDATASIZE PUSH0 DUP1 RETURNDATACOPY RETURNDATASIZE PUSH0 REVERT JUMPDEST POP POP POP PUSH1 0x20 PUSH1 0x40 MLOAD SUB MLOAD SWAP1 POP PUSH0 PUSH20 0xFFFFFFFFFFFFFFFFFFFFFFFFFFFFFFFFFFFFFFFF AND DUP2 PUSH20 0xFFFFFFFFFFFFFFFFFFFFFFFFFFFFFFFFFFFFFFFF AND SUB PUSH2 0x3DCA JUMPI PUSH0 PUSH1 0x1 PUSH0 DUP1 SHL SWAP4 POP SWAP4 POP SWAP4 POP POP PUSH2 0x3DD7 JUMP JUMPDEST DUP1 PUSH0 DUP1 PUSH0 SHL SWAP4 POP SWAP4 POP SWAP4 POP POP JUMPDEST SWAP5 POP SWAP5 POP SWAP5 SWAP2 POP POP JUMP JUMPDEST PUSH0 DUP2 ISZERO ISZERO SWAP1 POP SWAP2 SWAP1 POP JUMP JUMPDEST PUSH0 PUSH1 0x2 DUP3 DUP5 XOR PUSH2 0x3DFC SWAP2 SWAP1 PUSH2 0x59D9 JUMP JUMPDEST DUP3 DUP5 AND PUSH2 0x3E09 SWAP2 SWAP1 PUSH2 0x5AAB JUMP JUMPDEST SWAP1 POP SWAP3 SWAP2 POP POP JUMP JUMPDEST PUSH0 DUP2 PUSH1 0x20 ADD DUP4 ADD MLOAD SWAP1 POP SWAP3 SWAP2 POP POP JUMP JUMPDEST PUSH0 DUP1 PUSH0 DUP6 SWAP1 POP PUSH0 PUSH1 0x1 DUP7 PUSH2 0x3E35 SWAP2 SWAP1 PUSH2 0x5AAB JUMP JUMPDEST DUP6 GT DUP1 ISZERO PUSH2 0x3EAD JUMPI POP PUSH32 0x3078000000000000000000000000000000000000000000000000000000000000 PUSH30 0xFFFFFFFFFFFFFFFFFFFFFFFFFFFFFFFFFFFFFFFFFFFFFFFFFFFFFFFFFFFF NOT AND PUSH2 0x3E8A DUP4 DUP9 PUSH2 0x3E11 JUMP JUMPDEST PUSH30 0xFFFFFFFFFFFFFFFFFFFFFFFFFFFFFFFFFFFFFFFFFFFFFFFFFFFFFFFFFFFF NOT AND EQ JUMPDEST SWAP1 POP PUSH0 PUSH1 0x2 PUSH2 0x3EBD DUP4 ISZERO ISZERO PUSH2 0x3DE1 JUMP JUMPDEST PUSH2 0x3EC7 SWAP2 SWAP1 PUSH2 0x596B JUMP JUMPDEST SWAP1 POP PUSH0 DUP1 DUP3 DUP10 PUSH2 0x3ED7 SWAP2 SWAP1 PUSH2 0x5AAB JUMP JUMPDEST SWAP1 POP JUMPDEST DUP8 DUP2 LT ISZERO PUSH2 0x3F37 JUMPI PUSH0 PUSH2 0x3EF5 PUSH2 0x3EF0 DUP8 DUP5 PUSH2 0x3E11 JUMP JUMPDEST PUSH2 0x3FBE JUMP JUMPDEST SWAP1 POP PUSH1 0xF DUP2 PUSH1 0xFF AND GT ISZERO PUSH2 0x3F14 JUMPI PUSH0 DUP1 SWAP8 POP SWAP8 POP POP POP POP POP POP POP PUSH2 0x3F44 JUMP JUMPDEST PUSH1 0x10 DUP4 PUSH2 0x3F21 SWAP2 SWAP1 PUSH2 0x596B JUMP JUMPDEST SWAP3 POP DUP1 PUSH1 0xFF AND DUP4 ADD SWAP3 POP POP DUP1 PUSH1 0x1 ADD SWAP1 POP PUSH2 0x3EDA JUMP JUMPDEST POP PUSH1 0x1 DUP2 SWAP6 POP SWAP6 POP POP POP POP POP JUMPDEST SWAP4 POP SWAP4 SWAP2 POP POP JUMP JUMPDEST PUSH1 0x60 PUSH0 PUSH2 0x3F58 DUP4 PUSH2 0x404E JUMP JUMPDEST SWAP1 POP PUSH0 PUSH1 0x20 PUSH8 0xFFFFFFFFFFFFFFFF DUP2 GT ISZERO PUSH2 0x3F76 JUMPI PUSH2 0x3F75 PUSH2 0x4300 JUMP JUMPDEST JUMPDEST PUSH1 0x40 MLOAD SWAP1 DUP1 DUP3 MSTORE DUP1 PUSH1 0x1F ADD PUSH1 0x1F NOT AND PUSH1 0x20 ADD DUP3 ADD PUSH1 0x40 MSTORE DUP1 ISZERO PUSH2 0x3FA8 JUMPI DUP2 PUSH1 0x20 ADD PUSH1 0x1 DUP3 MUL DUP1 CALLDATASIZE DUP4 CALLDATACOPY DUP1 DUP3 ADD SWAP2 POP POP SWAP1 POP JUMPDEST POP SWAP1 POP DUP2 DUP2 MSTORE DUP4 PUSH1 0x20 DUP3 ADD MSTORE DUP1 SWAP3 POP POP POP SWAP2 SWAP1 POP JUMP JUMPDEST PUSH0 DUP1 DUP3 PUSH1 0xF8 SHR SWAP1 POP PUSH1 0x2F DUP2 PUSH1 0xFF AND GT DUP1 ISZERO PUSH2 0x3FDC JUMPI POP PUSH1 0x3A DUP2 PUSH1 0xFF AND LT JUMPDEST ISZERO PUSH2 0x3FEC JUMPI PUSH1 0x30 DUP2 SUB SWAP1 POP PUSH2 0x4044 JUMP JUMPDEST PUSH1 0x60 DUP2 PUSH1 0xFF AND GT DUP1 ISZERO PUSH2 0x4002 JUMPI POP PUSH1 0x67 DUP2 PUSH1 0xFF AND LT JUMPDEST ISZERO PUSH2 0x4012 JUMPI PUSH1 0x57 DUP2 SUB SWAP1 POP PUSH2 0x4043 JUMP JUMPDEST PUSH1 0x40 DUP2 PUSH1 0xFF AND GT DUP1 ISZERO PUSH2 0x4028 JUMPI POP PUSH1 0x47 DUP2 PUSH1 0xFF AND LT JUMPDEST ISZERO PUSH2 0x4038 JUMPI PUSH1 0x37 DUP2 SUB SWAP1 POP PUSH2 0x4042 JUMP JUMPDEST PUSH1 0xFF SWAP2 POP POP PUSH2 0x4049 JUMP JUMPDEST JUMPDEST JUMPDEST DUP1 SWAP2 POP POP JUMPDEST SWAP2 SWAP1 POP JUMP JUMPDEST PUSH0 DUP1 PUSH1 0xFF DUP4 PUSH0 SHR AND SWAP1 POP PUSH1 0x1F DUP2 GT ISZERO PUSH2 0x4093 JUMPI PUSH1 0x40 MLOAD PUSH32 0xB3512B0C00000000000000000000000000000000000000000000000000000000 DUP2 MSTORE PUSH1 0x4 ADD PUSH1 0x40 MLOAD DUP1 SWAP2 SUB SWAP1 REVERT JUMPDEST DUP1 SWAP2 POP POP SWAP2 SWAP1 POP JUMP JUMPDEST PUSH0 PUSH1 0x40 MLOAD SWAP1 POP SWAP1 JUMP JUMPDEST PUSH0 DUP1 REVERT JUMPDEST PUSH0 DUP1 REVERT JUMPDEST PUSH0 PUSH32 0xFFFFFFFF00000000000000000000000000000000000000000000000000000000 DUP3 AND SWAP1 POP SWAP2 SWAP1 POP JUMP JUMPDEST PUSH2 0x40E1 DUP2 PUSH2 0x40AD JUMP JUMPDEST DUP2 EQ PUSH2 0x40EB JUMPI PUSH0 DUP1 REVERT JUMPDEST POP JUMP JUMPDEST PUSH0 DUP2 CALLDATALOAD SWAP1 POP PUSH2 0x40FC DUP2 PUSH2 0x40D8 JUMP JUMPDEST SWAP3 SWAP2 POP POP JUMP JUMPDEST PUSH0 PUSH1 0x20 DUP3 DUP5 SUB SLT ISZERO PUSH2 0x4117 JUMPI PUSH2 0x4116 PUSH2 0x40A5 JUMP JUMPDEST JUMPDEST PUSH0 PUSH2 0x4124 DUP5 DUP3 DUP6 ADD PUSH2 0x40EE JUMP JUMPDEST SWAP2 POP POP SWAP3 SWAP2 POP POP JUMP JUMPDEST PUSH0 DUP2 ISZERO ISZERO SWAP1 POP SWAP2 SWAP1 POP JUMP JUMPDEST PUSH2 0x4141 DUP2 PUSH2 0x412D JUMP JUMPDEST DUP3 MSTORE POP POP JUMP JUMPDEST PUSH0 PUSH1 0x20 DUP3 ADD SWAP1 POP PUSH2 0x415A PUSH0 DUP4 ADD DUP5 PUSH2 0x4138 JUMP JUMPDEST SWAP3 SWAP2 POP POP JUMP JUMPDEST PUSH0 DUP2 SWAP1 POP SWAP2 SWAP1 POP JUMP JUMPDEST PUSH2 0x4172 DUP2 PUSH2 0x4160 JUMP JUMPDEST DUP3 MSTORE POP POP JUMP JUMPDEST PUSH0 PUSH1 0x20 DUP3 ADD SWAP1 POP PUSH2 0x418B PUSH0 DUP4 ADD DUP5 PUSH2 0x4169 JUMP JUMPDEST SWAP3 SWAP2 POP POP JUMP JUMPDEST PUSH2 0x419A DUP2 PUSH2 0x4160 JUMP JUMPDEST DUP2 EQ PUSH2 0x41A4 JUMPI PUSH0 DUP1 REVERT JUMPDEST POP JUMP JUMPDEST PUSH0 DUP2 CALLDATALOAD SWAP1 POP PUSH2 0x41B5 DUP2 PUSH2 0x4191 JUMP JUMPDEST SWAP3 SWAP2 POP POP JUMP JUMPDEST PUSH0 PUSH1 0x20 DUP3 DUP5 SUB SLT ISZERO PUSH2 0x41D0 JUMPI PUSH2 0x41CF PUSH2 0x40A5 JUMP JUMPDEST JUMPDEST PUSH0 PUSH2 0x41DD DUP5 DUP3 DUP6 ADD PUSH2 0x41A7 JUMP JUMPDEST SWAP2 POP POP SWAP3 SWAP2 POP POP JUMP JUMPDEST PUSH0 DUP2 MLOAD SWAP1 POP SWAP2 SWAP1 POP JUMP JUMPDEST PUSH0 DUP3 DUP3 MSTORE PUSH1 0x20 DUP3 ADD SWAP1 POP SWAP3 SWAP2 POP POP JUMP JUMPDEST DUP3 DUP2 DUP4 MCOPY PUSH0 DUP4 DUP4 ADD MSTORE POP POP POP JUMP JUMPDEST PUSH0 PUSH1 0x1F NOT PUSH1 0x1F DUP4 ADD AND SWAP1 POP SWAP2 SWAP1 POP JUMP JUMPDEST PUSH0 PUSH2 0x4228 DUP3 PUSH2 0x41E6 JUMP JUMPDEST PUSH2 0x4232 DUP2 DUP6 PUSH2 0x41F0 JUMP JUMPDEST SWAP4 POP PUSH2 0x4242 DUP2 DUP6 PUSH1 0x20 DUP7 ADD PUSH2 0x4200 JUMP JUMPDEST PUSH2 0x424B DUP2 PUSH2 0x420E JUMP JUMPDEST DUP5 ADD SWAP2 POP POP SWAP3 SWAP2 POP POP JUMP JUMPDEST PUSH0 PUSH1 0x20 DUP3 ADD SWAP1 POP DUP2 DUP2 SUB PUSH0 DUP4 ADD MSTORE PUSH2 0x426E DUP2 DUP5 PUSH2 0x421E JUMP JUMPDEST SWAP1 POP SWAP3 SWAP2 POP POP JUMP JUMPDEST PUSH0 PUSH20 0xFFFFFFFFFFFFFFFFFFFFFFFFFFFFFFFFFFFFFFFF DUP3 AND SWAP1 POP SWAP2 SWAP1 POP JUMP JUMPDEST PUSH0 PUSH2 0x429F DUP3 PUSH2 0x4276 JUMP JUMPDEST SWAP1 POP SWAP2 SWAP1 POP JUMP JUMPDEST PUSH2 0x42AF DUP2 PUSH2 0x4295 JUMP JUMPDEST DUP3 MSTORE POP POP JUMP JUMPDEST PUSH0 PUSH1 0x20 DUP3 ADD SWAP1 POP PUSH2 0x42C8 PUSH0 DUP4 ADD DUP5 PUSH2 0x42A6 JUMP JUMPDEST SWAP3 SWAP2 POP POP JUMP JUMPDEST PUSH2 0x42D7 DUP2 PUSH2 0x4295 JUMP JUMPDEST DUP2 EQ PUSH2 0x42E1 JUMPI PUSH0 DUP1 REVERT JUMPDEST POP JUMP JUMPDEST PUSH0 DUP2 CALLDATALOAD SWAP1 POP PUSH2 0x42F2 DUP2 PUSH2 0x42CE JUMP JUMPDEST SWAP3 SWAP2 POP POP JUMP JUMPDEST PUSH0 DUP1 REVERT JUMPDEST PUSH0 DUP1 REVERT JUMPDEST PUSH32 0x4E487B7100000000000000000000000000000000000000000000000000000000 PUSH0 MSTORE PUSH1 0x41 PUSH1 0x4 MSTORE PUSH1 0x24 PUSH0 REVERT JUMPDEST PUSH2 0x4336 DUP3 PUSH2 0x420E JUMP JUMPDEST DUP2 ADD DUP2 DUP2 LT PUSH8 0xFFFFFFFFFFFFFFFF DUP3 GT OR ISZERO PUSH2 0x4355 JUMPI PUSH2 0x4354 PUSH2 0x4300 JUMP JUMPDEST JUMPDEST DUP1 PUSH1 0x40 MSTORE POP POP POP JUMP JUMPDEST PUSH0 PUSH2 0x4367 PUSH2 0x409C JUMP JUMPDEST SWAP1 POP PUSH2 0x4373 DUP3 DUP3 PUSH2 0x432D JUMP JUMPDEST SWAP2 SWAP1 POP JUMP JUMPDEST PUSH0 PUSH8 0xFFFFFFFFFFFFFFFF DUP3 GT ISZERO PUSH2 0x4392 JUMPI PUSH2 0x4391 PUSH2 0x4300 JUMP JUMPDEST JUMPDEST PUSH2 0x439B DUP3 PUSH2 0x420E JUMP JUMPDEST SWAP1 POP PUSH1 0x20 DUP2 ADD SWAP1 POP SWAP2 SWAP1 POP JUMP JUMPDEST DUP3 DUP2 DUP4 CALLDATACOPY PUSH0 DUP4 DUP4 ADD MSTORE POP POP POP JUMP JUMPDEST PUSH0 PUSH2 0x43C8 PUSH2 0x43C3 DUP5 PUSH2 0x4378 JUMP JUMPDEST PUSH2 0x435E JUMP JUMPDEST SWAP1 POP DUP3 DUP2 MSTORE PUSH1 0x20 DUP2 ADD DUP5 DUP5 DUP5 ADD GT ISZERO PUSH2 0x43E4 JUMPI PUSH2 0x43E3 PUSH2 0x42FC JUMP JUMPDEST JUMPDEST PUSH2 0x43EF DUP5 DUP3 DUP6 PUSH2 0x43A8 JUMP JUMPDEST POP SWAP4 SWAP3 POP POP POP JUMP JUMPDEST PUSH0 DUP3 PUSH1 0x1F DUP4 ADD SLT PUSH2 0x440B JUMPI PUSH2 0x440A PUSH2 0x42F8 JUMP JUMPDEST JUMPDEST DUP2 CALLDATALOAD PUSH2 0x441B DUP5 DUP3 PUSH1 0x20 DUP7 ADD PUSH2 0x43B6 JUMP JUMPDEST SWAP2 POP POP SWAP3 SWAP2 POP POP JUMP JUMPDEST PUSH0 DUP1 PUSH0 DUP1 PUSH1 0x80 DUP6 DUP8 SUB SLT ISZERO PUSH2 0x443C JUMPI PUSH2 0x443B PUSH2 0x40A5 JUMP JUMPDEST JUMPDEST PUSH0 PUSH2 0x4449 DUP8 DUP3 DUP9 ADD PUSH2 0x42E4 JUMP JUMPDEST SWAP5 POP POP PUSH1 0x20 PUSH2 0x445A DUP8 DUP3 DUP9 ADD PUSH2 0x42E4 JUMP JUMPDEST SWAP4 POP POP PUSH1 0x40 PUSH2 0x446B DUP8 DUP3 DUP9 ADD PUSH2 0x41A7 JUMP JUMPDEST SWAP3 POP POP PUSH1 0x60 DUP6 ADD CALLDATALOAD PUSH8 0xFFFFFFFFFFFFFFFF DUP2 GT ISZERO PUSH2 0x448C JUMPI PUSH2 0x448B PUSH2 0x40A9 JUMP JUMPDEST JUMPDEST PUSH2 0x4498 DUP8 DUP3 DUP9 ADD PUSH2 0x43F7 JUMP JUMPDEST SWAP2 POP POP SWAP3 SWAP6 SWAP2 SWAP5 POP SWAP3 POP JUMP JUMPDEST PUSH2 0x44AD DUP2 PUSH2 0x40AD JUMP JUMPDEST DUP3 MSTORE POP POP JUMP JUMPDEST PUSH0 PUSH1 0x20 DUP3 ADD SWAP1 POP PUSH2 0x44C6 PUSH0 DUP4 ADD DUP5 PUSH2 0x44A4 JUMP JUMPDEST SWAP3 SWAP2 POP POP JUMP JUMPDEST PUSH0 PUSH8 0xFFFFFFFFFFFFFFFF DUP3 GT ISZERO PUSH2 0x44E6 JUMPI PUSH2 0x44E5 PUSH2 0x4300 JUMP JUMPDEST JUMPDEST PUSH1 0x20 DUP3 MUL SWAP1 POP PUSH1 0x20 DUP2 ADD SWAP1 POP SWAP2 SWAP1 POP JUMP JUMPDEST PUSH0 DUP1 REVERT JUMPDEST PUSH0 PUSH2 0x450D PUSH2 0x4508 DUP5 PUSH2 0x44CC JUMP JUMPDEST PUSH2 0x435E JUMP JUMPDEST SWAP1 POP DUP1 DUP4 DUP3 MSTORE PUSH1 0x20 DUP3 ADD SWAP1 POP PUSH1 0x20 DUP5 MUL DUP4 ADD DUP6 DUP2 GT ISZERO PUSH2 0x4530 JUMPI PUSH2 0x452F PUSH2 0x44F7 JUMP JUMPDEST JUMPDEST DUP4 JUMPDEST DUP2 DUP2 LT ISZERO PUSH2 0x4559 JUMPI DUP1 PUSH2 0x4545 DUP9 DUP3 PUSH2 0x42E4 JUMP JUMPDEST DUP5 MSTORE PUSH1 0x20 DUP5 ADD SWAP4 POP POP PUSH1 0x20 DUP2 ADD SWAP1 POP PUSH2 0x4532 JUMP JUMPDEST POP POP POP SWAP4 SWAP3 POP POP POP JUMP JUMPDEST PUSH0 DUP3 PUSH1 0x1F DUP4 ADD SLT PUSH2 0x4577 JUMPI PUSH2 0x4576 PUSH2 0x42F8 JUMP JUMPDEST JUMPDEST DUP2 CALLDATALOAD PUSH2 0x4587 DUP5 DUP3 PUSH1 0x20 DUP7 ADD PUSH2 0x44FB JUMP JUMPDEST SWAP2 POP POP SWAP3 SWAP2 POP POP JUMP JUMPDEST PUSH0 PUSH8 0xFFFFFFFFFFFFFFFF DUP3 GT ISZERO PUSH2 0x45AA JUMPI PUSH2 0x45A9 PUSH2 0x4300 JUMP JUMPDEST JUMPDEST PUSH1 0x20 DUP3 MUL SWAP1 POP PUSH1 0x20 DUP2 ADD SWAP1 POP SWAP2 SWAP1 POP JUMP JUMPDEST PUSH0 PUSH2 0x45CD PUSH2 0x45C8 DUP5 PUSH2 0x4590 JUMP JUMPDEST PUSH2 0x435E JUMP JUMPDEST SWAP1 POP DUP1 DUP4 DUP3 MSTORE PUSH1 0x20 DUP3 ADD SWAP1 POP PUSH1 0x20 DUP5 MUL DUP4 ADD DUP6 DUP2 GT ISZERO PUSH2 0x45F0 JUMPI PUSH2 0x45EF PUSH2 0x44F7 JUMP JUMPDEST JUMPDEST DUP4 JUMPDEST DUP2 DUP2 LT ISZERO PUSH2 0x4619 JUMPI DUP1 PUSH2 0x4605 DUP9 DUP3 PUSH2 0x41A7 JUMP JUMPDEST DUP5 MSTORE PUSH1 0x20 DUP5 ADD SWAP4 POP POP PUSH1 0x20 DUP2 ADD SWAP1 POP PUSH2 0x45F2 JUMP JUMPDEST POP POP POP SWAP4 SWAP3 POP POP POP JUMP JUMPDEST PUSH0 DUP3 PUSH1 0x1F DUP4 ADD SLT PUSH2 0x4637 JUMPI PUSH2 0x4636 PUSH2 0x42F8 JUMP JUMPDEST JUMPDEST DUP2 CALLDATALOAD PUSH2 0x4647 DUP5 DUP3 PUSH1 0x20 DUP7 ADD PUSH2 0x45BB JUMP JUMPDEST SWAP2 POP POP SWAP3 SWAP2 POP POP JUMP JUMPDEST PUSH0 PUSH8 0xFFFFFFFFFFFFFFFF DUP3 GT ISZERO PUSH2 0x466A JUMPI PUSH2 0x4669 PUSH2 0x4300 JUMP JUMPDEST JUMPDEST PUSH1 0x20 DUP3 MUL SWAP1 POP PUSH1 0x20 DUP2 ADD SWAP1 POP SWAP2 SWAP1 POP JUMP JUMPDEST PUSH0 PUSH2 0x468D PUSH2 0x4688 DUP5 PUSH2 0x4650 JUMP JUMPDEST PUSH2 0x435E JUMP JUMPDEST SWAP1 POP DUP1 DUP4 DUP3 MSTORE PUSH1 0x20 DUP3 ADD SWAP1 POP PUSH1 0x20 DUP5 MUL DUP4 ADD DUP6 DUP2 GT ISZERO PUSH2 0x46B0 JUMPI PUSH2 0x46AF PUSH2 0x44F7 JUMP JUMPDEST JUMPDEST DUP4 JUMPDEST DUP2 DUP2 LT ISZERO PUSH2 0x46F7 JUMPI DUP1 CALLDATALOAD PUSH8 0xFFFFFFFFFFFFFFFF DUP2 GT ISZERO PUSH2 0x46D5 JUMPI PUSH2 0x46D4 PUSH2 0x42F8 JUMP JUMPDEST JUMPDEST DUP1 DUP7 ADD PUSH2 0x46E2 DUP10 DUP3 PUSH2 0x43F7 JUMP JUMPDEST DUP6 MSTORE PUSH1 0x20 DUP6 ADD SWAP5 POP POP POP PUSH1 0x20 DUP2 ADD SWAP1 POP PUSH2 0x46B2 JUMP JUMPDEST POP POP POP SWAP4 SWAP3 POP POP POP JUMP JUMPDEST PUSH0 DUP3 PUSH1 0x1F DUP4 ADD SLT PUSH2 0x4715 JUMPI PUSH2 0x4714 PUSH2 0x42F8 JUMP JUMPDEST JUMPDEST DUP2 CALLDATALOAD PUSH2 0x4725 DUP5 DUP3 PUSH1 0x20 DUP7 ADD PUSH2 0x467B JUMP JUMPDEST SWAP2 POP POP SWAP3 SWAP2 POP POP JUMP JUMPDEST PUSH0 DUP2 SWAP1 POP SWAP2 SWAP1 POP JUMP JUMPDEST PUSH2 0x4740 DUP2 PUSH2 0x472E JUMP JUMPDEST DUP2 EQ PUSH2 0x474A JUMPI PUSH0 DUP1 REVERT JUMPDEST POP JUMP JUMPDEST PUSH0 DUP2 CALLDATALOAD SWAP1 POP PUSH2 0x475B DUP2 PUSH2 0x4737 JUMP JUMPDEST SWAP3 SWAP2 POP POP JUMP JUMPDEST PUSH0 DUP1 PUSH0 DUP1 PUSH1 0x80 DUP6 DUP8 SUB SLT ISZERO PUSH2 0x4779 JUMPI PUSH2 0x4778 PUSH2 0x40A5 JUMP JUMPDEST JUMPDEST PUSH0 DUP6 ADD CALLDATALOAD PUSH8 0xFFFFFFFFFFFFFFFF DUP2 GT ISZERO PUSH2 0x4796 JUMPI PUSH2 0x4795 PUSH2 0x40A9 JUMP JUMPDEST JUMPDEST PUSH2 0x47A2 DUP8 DUP3 DUP9 ADD PUSH2 0x4563 JUMP JUMPDEST SWAP5 POP POP PUSH1 0x20 DUP6 ADD CALLDATALOAD PUSH8 0xFFFFFFFFFFFFFFFF DUP2 GT ISZERO PUSH2 0x47C3 JUMPI PUSH2 0x47C2 PUSH2 0x40A9 JUMP JUMPDEST JUMPDEST PUSH2 0x47CF DUP8 DUP3 DUP9 ADD PUSH2 0x4623 JUMP JUMPDEST SWAP4 POP POP PUSH1 0x40 DUP6 ADD CALLDATALOAD PUSH8 0xFFFFFFFFFFFFFFFF DUP2 GT ISZERO PUSH2 0x47F0 JUMPI PUSH2 0x47EF PUSH2 0x40A9 JUMP JUMPDEST JUMPDEST PUSH2 0x47FC DUP8 DUP3 DUP9 ADD PUSH2 0x4701 JUMP JUMPDEST SWAP3 POP POP PUSH1 0x60 PUSH2 0x480D DUP8 DUP3 DUP9 ADD PUSH2 0x474D JUMP JUMPDEST SWAP2 POP POP SWAP3 SWAP6 SWAP2 SWAP5 POP SWAP3 POP JUMP JUMPDEST PUSH2 0x4822 DUP2 PUSH2 0x472E JUMP JUMPDEST DUP3 MSTORE POP POP JUMP JUMPDEST PUSH0 PUSH1 0x20 DUP3 ADD SWAP1 POP PUSH2 0x483B PUSH0 DUP4 ADD DUP5 PUSH2 0x4819 JUMP JUMPDEST SWAP3 SWAP2 POP POP JUMP JUMPDEST PUSH32 0x4E487B7100000000000000000000000000000000000000000000000000000000 PUSH0 MSTORE PUSH1 0x21 PUSH1 0x4 MSTORE PUSH1 0x24 PUSH0 REVERT JUMPDEST PUSH1 0x8 DUP2 LT PUSH2 0x487F JUMPI PUSH2 0x487E PUSH2 0x4841 JUMP JUMPDEST JUMPDEST POP JUMP JUMPDEST PUSH0 DUP2 SWAP1 POP PUSH2 0x488F DUP3 PUSH2 0x486E JUMP JUMPDEST SWAP2 SWAP1 POP JUMP JUMPDEST PUSH0 PUSH2 0x489E DUP3 PUSH2 0x4882 JUMP JUMPDEST SWAP1 POP SWAP2 SWAP1 POP JUMP JUMPDEST PUSH2 0x48AE DUP2 PUSH2 0x4894 JUMP JUMPDEST DUP3 MSTORE POP POP JUMP JUMPDEST PUSH0 PUSH1 0x20 DUP3 ADD SWAP1 POP PUSH2 0x48C7 PUSH0 DUP4 ADD DUP5 PUSH2 0x48A5 JUMP JUMPDEST SWAP3 SWAP2 POP POP JUMP JUMPDEST PUSH0 DUP1 PUSH1 0x40 DUP4 DUP6 SUB SLT ISZERO PUSH2 0x48E3 JUMPI PUSH2 0x48E2 PUSH2 0x40A5 JUMP JUMPDEST JUMPDEST PUSH0 PUSH2 0x48F0 DUP6 DUP3 DUP7 ADD PUSH2 0x41A7 JUMP JUMPDEST SWAP3 POP POP PUSH1 0x20 PUSH2 0x4901 DUP6 DUP3 DUP7 ADD PUSH2 0x42E4 JUMP JUMPDEST SWAP2 POP POP SWAP3 POP SWAP3 SWAP1 POP JUMP JUMPDEST PUSH0 PUSH1 0x60 DUP3 ADD SWAP1 POP PUSH2 0x491E PUSH0 DUP4 ADD DUP7 PUSH2 0x4169 JUMP JUMPDEST PUSH2 0x492B PUSH1 0x20 DUP4 ADD DUP6 PUSH2 0x4169 JUMP JUMPDEST PUSH2 0x4938 PUSH1 0x40 DUP4 ADD DUP5 PUSH2 0x4169 JUMP JUMPDEST SWAP5 SWAP4 POP POP POP POP JUMP JUMPDEST PUSH0 PUSH1 0xFF DUP3 AND SWAP1 POP SWAP2 SWAP1 POP JUMP JUMPDEST PUSH2 0x4955 DUP2 PUSH2 0x4940 JUMP JUMPDEST DUP2 EQ PUSH2 0x495F JUMPI PUSH0 DUP1 REVERT JUMPDEST POP JUMP JUMPDEST PUSH0 DUP2 CALLDATALOAD SWAP1 POP PUSH2 0x4970 DUP2 PUSH2 0x494C JUMP JUMPDEST SWAP3 SWAP2 POP POP JUMP JUMPDEST PUSH0 DUP1 PUSH1 0x40 DUP4 DUP6 SUB SLT ISZERO PUSH2 0x498C JUMPI PUSH2 0x498B PUSH2 0x40A5 JUMP JUMPDEST JUMPDEST PUSH0 PUSH2 0x4999 DUP6 DUP3 DUP7 ADD PUSH2 0x41A7 JUMP JUMPDEST SWAP3 POP POP PUSH1 0x20 PUSH2 0x49AA DUP6 DUP3 DUP7 ADD PUSH2 0x4962 JUMP JUMPDEST SWAP2 POP POP SWAP3 POP SWAP3 SWAP1 POP JUMP JUMPDEST PUSH0 DUP1 REVERT JUMPDEST PUSH0 DUP1 DUP4 PUSH1 0x1F DUP5 ADD SLT PUSH2 0x49CD JUMPI PUSH2 0x49CC PUSH2 0x42F8 JUMP JUMPDEST JUMPDEST DUP3 CALLDATALOAD SWAP1 POP PUSH8 0xFFFFFFFFFFFFFFFF DUP2 GT ISZERO PUSH2 0x49EA JUMPI PUSH2 0x49E9 PUSH2 0x49B4 JUMP JUMPDEST JUMPDEST PUSH1 0x20 DUP4 ADD SWAP2 POP DUP4 PUSH1 0x1 DUP3 MUL DUP4 ADD GT ISZERO PUSH2 0x4A06 JUMPI PUSH2 0x4A05 PUSH2 0x44F7 JUMP JUMPDEST JUMPDEST SWAP3 POP SWAP3 SWAP1 POP JUMP JUMPDEST PUSH0 DUP1 PUSH0 DUP1 PUSH0 DUP1 PUSH0 PUSH1 0xC0 DUP9 DUP11 SUB SLT ISZERO PUSH2 0x4A28 JUMPI PUSH2 0x4A27 PUSH2 0x40A5 JUMP JUMPDEST JUMPDEST PUSH0 PUSH2 0x4A35 DUP11 DUP3 DUP12 ADD PUSH2 0x41A7 JUMP JUMPDEST SWAP8 POP POP PUSH1 0x20 PUSH2 0x4A46 DUP11 DUP3 DUP12 ADD PUSH2 0x4962 JUMP JUMPDEST SWAP7 POP POP PUSH1 0x40 PUSH2 0x4A57 DUP11 DUP3 DUP12 ADD PUSH2 0x42E4 JUMP JUMPDEST SWAP6 POP POP PUSH1 0x60 DUP9 ADD CALLDATALOAD PUSH8 0xFFFFFFFFFFFFFFFF DUP2 GT ISZERO PUSH2 0x4A78 JUMPI PUSH2 0x4A77 PUSH2 0x40A9 JUMP JUMPDEST JUMPDEST PUSH2 0x4A84 DUP11 DUP3 DUP12 ADD PUSH2 0x49B8 JUMP JUMPDEST SWAP5 POP SWAP5 POP POP PUSH1 0x80 DUP9 ADD CALLDATALOAD PUSH8 0xFFFFFFFFFFFFFFFF DUP2 GT ISZERO PUSH2 0x4AA7 JUMPI PUSH2 0x4AA6 PUSH2 0x40A9 JUMP JUMPDEST JUMPDEST PUSH2 0x4AB3 DUP11 DUP3 DUP12 ADD PUSH2 0x43F7 JUMP JUMPDEST SWAP3 POP POP PUSH1 0xA0 DUP9 ADD CALLDATALOAD PUSH8 0xFFFFFFFFFFFFFFFF DUP2 GT ISZERO PUSH2 0x4AD4 JUMPI PUSH2 0x4AD3 PUSH2 0x40A9 JUMP JUMPDEST JUMPDEST PUSH2 0x4AE0 DUP11 DUP3 DUP12 ADD PUSH2 0x43F7 JUMP JUMPDEST SWAP2 POP POP SWAP3 SWAP6 SWAP9 SWAP2 SWAP5 SWAP8 POP SWAP3 SWAP6 POP JUMP JUMPDEST PUSH0 DUP1 PUSH0 DUP1 PUSH0 PUSH1 0x80 DUP7 DUP9 SUB SLT ISZERO PUSH2 0x4B08 JUMPI PUSH2 0x4B07 PUSH2 0x40A5 JUMP JUMPDEST JUMPDEST PUSH0 PUSH2 0x4B15 DUP9 DUP3 DUP10 ADD PUSH2 0x41A7 JUMP JUMPDEST SWAP6 POP POP PUSH1 0x20 PUSH2 0x4B26 DUP9 DUP3 DUP10 ADD PUSH2 0x4962 JUMP JUMPDEST SWAP5 POP POP PUSH1 0x40 DUP7 ADD CALLDATALOAD PUSH8 0xFFFFFFFFFFFFFFFF DUP2 GT ISZERO PUSH2 0x4B47 JUMPI PUSH2 0x4B46 PUSH2 0x40A9 JUMP JUMPDEST JUMPDEST PUSH2 0x4B53 DUP9 DUP3 DUP10 ADD PUSH2 0x49B8 JUMP JUMPDEST SWAP4 POP SWAP4 POP POP PUSH1 0x60 DUP7 ADD CALLDATALOAD PUSH8 0xFFFFFFFFFFFFFFFF DUP2 GT ISZERO PUSH2 0x4B76 JUMPI PUSH2 0x4B75 PUSH2 0x40A9 JUMP JUMPDEST JUMPDEST PUSH2 0x4B82 DUP9 DUP3 DUP10 ADD PUSH2 0x43F7 JUMP JUMPDEST SWAP2 POP POP SWAP3 SWAP6 POP SWAP3 SWAP6 SWAP1 SWAP4 POP JUMP JUMPDEST PUSH0 DUP1 PUSH0 DUP1 PUSH1 0x60 DUP6 DUP8 SUB SLT ISZERO PUSH2 0x4BA7 JUMPI PUSH2 0x4BA6 PUSH2 0x40A5 JUMP JUMPDEST JUMPDEST PUSH0 PUSH2 0x4BB4 DUP8 DUP3 DUP9 ADD PUSH2 0x41A7 JUMP JUMPDEST SWAP5 POP POP PUSH1 0x20 PUSH2 0x4BC5 DUP8 DUP3 DUP9 ADD PUSH2 0x4962 JUMP JUMPDEST SWAP4 POP POP PUSH1 0x40 DUP6 ADD CALLDATALOAD PUSH8 0xFFFFFFFFFFFFFFFF DUP2 GT ISZERO PUSH2 0x4BE6 JUMPI PUSH2 0x4BE5 PUSH2 0x40A9 JUMP JUMPDEST JUMPDEST PUSH2 0x4BF2 DUP8 DUP3 DUP9 ADD PUSH2 0x49B8 JUMP JUMPDEST SWAP3 POP SWAP3 POP POP SWAP3 SWAP6 SWAP2 SWAP5 POP SWAP3 POP JUMP JUMPDEST PUSH0 PUSH8 0xFFFFFFFFFFFFFFFF DUP3 GT ISZERO PUSH2 0x4C1A JUMPI PUSH2 0x4C19 PUSH2 0x4300 JUMP JUMPDEST JUMPDEST PUSH2 0x4C23 DUP3 PUSH2 0x420E JUMP JUMPDEST SWAP1 POP PUSH1 0x20 DUP2 ADD SWAP1 POP SWAP2 SWAP1 POP JUMP JUMPDEST PUSH0 PUSH2 0x4C42 PUSH2 0x4C3D DUP5 PUSH2 0x4C00 JUMP JUMPDEST PUSH2 0x435E JUMP JUMPDEST SWAP1 POP DUP3 DUP2 MSTORE PUSH1 0x20 DUP2 ADD DUP5 DUP5 DUP5 ADD GT ISZERO PUSH2 0x4C5E JUMPI PUSH2 0x4C5D PUSH2 0x42FC JUMP JUMPDEST JUMPDEST PUSH2 0x4C69 DUP5 DUP3 DUP6 PUSH2 0x43A8 JUMP JUMPDEST POP SWAP4 SWAP3 POP POP POP JUMP JUMPDEST PUSH0 DUP3 PUSH1 0x1F DUP4 ADD SLT PUSH2 0x4C85 JUMPI PUSH2 0x4C84 PUSH2 0x42F8 JUMP JUMPDEST JUMPDEST DUP2 CALLDATALOAD PUSH2 0x4C95 DUP5 DUP3 PUSH1 0x20 DUP7 ADD PUSH2 0x4C30 JUMP JUMPDEST SWAP2 POP POP SWAP3 SWAP2 POP POP JUMP JUMPDEST PUSH0 DUP1 PUSH0 DUP1 PUSH1 0x80 DUP6 DUP8 SUB SLT ISZERO PUSH2 0x4CB6 JUMPI PUSH2 0x4CB5 PUSH2 0x40A5 JUMP JUMPDEST JUMPDEST PUSH0 DUP6 ADD CALLDATALOAD PUSH8 0xFFFFFFFFFFFFFFFF DUP2 GT ISZERO PUSH2 0x4CD3 JUMPI PUSH2 0x4CD2 PUSH2 0x40A9 JUMP JUMPDEST JUMPDEST PUSH2 0x4CDF DUP8 DUP3 DUP9 ADD PUSH2 0x4563 JUMP JUMPDEST SWAP5 POP POP PUSH1 0x20 DUP6 ADD CALLDATALOAD PUSH8 0xFFFFFFFFFFFFFFFF DUP2 GT ISZERO PUSH2 0x4D00 JUMPI PUSH2 0x4CFF PUSH2 0x40A9 JUMP JUMPDEST JUMPDEST PUSH2 0x4D0C DUP8 DUP3 DUP9 ADD PUSH2 0x4623 JUMP JUMPDEST SWAP4 POP POP PUSH1 0x40 DUP6 ADD CALLDATALOAD PUSH8 0xFFFFFFFFFFFFFFFF DUP2 GT ISZERO PUSH2 0x4D2D JUMPI PUSH2 0x4D2C PUSH2 0x40A9 JUMP JUMPDEST JUMPDEST PUSH2 0x4D39 DUP8 DUP3 DUP9 ADD PUSH2 0x4701 JUMP JUMPDEST SWAP3 POP POP PUSH1 0x60 DUP6 ADD CALLDATALOAD PUSH8 0xFFFFFFFFFFFFFFFF DUP2 GT ISZERO PUSH2 0x4D5A JUMPI PUSH2 0x4D59 PUSH2 0x40A9 JUMP JUMPDEST JUMPDEST PUSH2 0x4D66 DUP8 DUP3 DUP9 ADD PUSH2 0x4C71 JUMP JUMPDEST SWAP2 POP POP SWAP3 SWAP6 SWAP2 SWAP5 POP SWAP3 POP JUMP JUMPDEST PUSH0 PUSH1 0x20 DUP3 DUP5 SUB SLT ISZERO PUSH2 0x4D87 JUMPI PUSH2 0x4D86 PUSH2 0x40A5 JUMP JUMPDEST JUMPDEST PUSH0 PUSH2 0x4D94 DUP5 DUP3 DUP6 ADD PUSH2 0x42E4 JUMP JUMPDEST SWAP2 POP POP SWAP3 SWAP2 POP POP JUMP JUMPDEST PUSH0 PUSH32 0xFF00000000000000000000000000000000000000000000000000000000000000 DUP3 AND SWAP1 POP SWAP2 SWAP1 POP JUMP JUMPDEST PUSH2 0x4DD1 DUP2 PUSH2 0x4D9D JUMP JUMPDEST DUP3 MSTORE POP POP JUMP JUMPDEST PUSH0 DUP2 MLOAD SWAP1 POP SWAP2 SWAP1 POP JUMP JUMPDEST PUSH0 DUP3 DUP3 MSTORE PUSH1 0x20 DUP3 ADD SWAP1 POP SWAP3 SWAP2 POP POP JUMP JUMPDEST PUSH0 DUP2 SWAP1 POP PUSH1 0x20 DUP3 ADD SWAP1 POP SWAP2 SWAP1 POP JUMP JUMPDEST PUSH2 0x4E09 DUP2 PUSH2 0x4160 JUMP JUMPDEST DUP3 MSTORE POP POP JUMP JUMPDEST PUSH0 PUSH2 0x4E1A DUP4 DUP4 PUSH2 0x4E00 JUMP JUMPDEST PUSH1 0x20 DUP4 ADD SWAP1 POP SWAP3 SWAP2 POP POP JUMP JUMPDEST PUSH0 PUSH1 0x20 DUP3 ADD SWAP1 POP SWAP2 SWAP1 POP JUMP JUMPDEST PUSH0 PUSH2 0x4E3C DUP3 PUSH2 0x4DD7 JUMP JUMPDEST PUSH2 0x4E46 DUP2 DUP6 PUSH2 0x4DE1 JUMP JUMPDEST SWAP4 POP PUSH2 0x4E51 DUP4 PUSH2 0x4DF1 JUMP JUMPDEST DUP1 PUSH0 JUMPDEST DUP4 DUP2 LT ISZERO PUSH2 0x4E81 JUMPI DUP2 MLOAD PUSH2 0x4E68 DUP9 DUP3 PUSH2 0x4E0F JUMP JUMPDEST SWAP8 POP PUSH2 0x4E73 DUP4 PUSH2 0x4E26 JUMP JUMPDEST SWAP3 POP POP PUSH1 0x1 DUP2 ADD SWAP1 POP PUSH2 0x4E54 JUMP JUMPDEST POP DUP6 SWAP4 POP POP POP POP SWAP3 SWAP2 POP POP JUMP JUMPDEST PUSH0 PUSH1 0xE0 DUP3 ADD SWAP1 POP PUSH2 0x4EA1 PUSH0 DUP4 ADD DUP11 PUSH2 0x4DC8 JUMP JUMPDEST DUP2 DUP2 SUB PUSH1 0x20 DUP4 ADD MSTORE PUSH2 0x4EB3 DUP2 DUP10 PUSH2 0x421E JUMP JUMPDEST SWAP1 POP DUP2 DUP2 SUB PUSH1 0x40 DUP4 ADD MSTORE PUSH2 0x4EC7 DUP2 DUP9 PUSH2 0x421E JUMP JUMPDEST SWAP1 POP PUSH2 0x4ED6 PUSH1 0x60 DUP4 ADD DUP8 PUSH2 0x4169 JUMP JUMPDEST PUSH2 0x4EE3 PUSH1 0x80 DUP4 ADD DUP7 PUSH2 0x42A6 JUMP JUMPDEST PUSH2 0x4EF0 PUSH1 0xA0 DUP4 ADD DUP6 PUSH2 0x4819 JUMP JUMPDEST DUP2 DUP2 SUB PUSH1 0xC0 DUP4 ADD MSTORE PUSH2 0x4F02 DUP2 DUP5 PUSH2 0x4E32 JUMP JUMPDEST SWAP1 POP SWAP9 SWAP8 POP POP POP POP POP POP POP POP JUMP JUMPDEST PUSH0 DUP1 PUSH0 DUP1 PUSH1 0x80 DUP6 DUP8 SUB SLT ISZERO PUSH2 0x4F28 JUMPI PUSH2 0x4F27 PUSH2 0x40A5 JUMP JUMPDEST JUMPDEST PUSH0 PUSH2 0x4F35 DUP8 DUP3 DUP9 ADD PUSH2 0x41A7 JUMP JUMPDEST SWAP5 POP POP PUSH1 0x20 PUSH2 0x4F46 DUP8 DUP3 DUP9 ADD PUSH2 0x4962 JUMP JUMPDEST SWAP4 POP POP PUSH1 0x40 PUSH2 0x4F57 DUP8 DUP3 DUP9 ADD PUSH2 0x42E4 JUMP JUMPDEST SWAP3 POP POP PUSH1 0x60 DUP6 ADD CALLDATALOAD PUSH8 0xFFFFFFFFFFFFFFFF DUP2 GT ISZERO PUSH2 0x4F78 JUMPI PUSH2 0x4F77 PUSH2 0x40A9 JUMP JUMPDEST JUMPDEST PUSH2 0x4F84 DUP8 DUP3 DUP9 ADD PUSH2 0x43F7 JUMP JUMPDEST SWAP2 POP POP SWAP3 SWAP6 SWAP2 SWAP5 POP SWAP3 POP JUMP JUMPDEST PUSH0 PUSH6 0xFFFFFFFFFFFF DUP3 AND SWAP1 POP SWAP2 SWAP1 POP JUMP JUMPDEST PUSH2 0x4FAA DUP2 PUSH2 0x4F90 JUMP JUMPDEST DUP3 MSTORE POP POP JUMP JUMPDEST PUSH0 PUSH1 0x20 DUP3 ADD SWAP1 POP PUSH2 0x4FC3 PUSH0 DUP4 ADD DUP5 PUSH2 0x4FA1 JUMP JUMPDEST SWAP3 SWAP2 POP POP JUMP JUMPDEST PUSH0 DUP1 PUSH0 PUSH1 0x60 DUP5 DUP7 SUB SLT ISZERO PUSH2 0x4FE0 JUMPI PUSH2 0x4FDF PUSH2 0x40A5 JUMP JUMPDEST JUMPDEST PUSH0 PUSH2 0x4FED DUP7 DUP3 DUP8 ADD PUSH2 0x42E4 JUMP JUMPDEST SWAP4 POP POP PUSH1 0x20 PUSH2 0x4FFE DUP7 DUP3 DUP8 ADD PUSH2 0x41A7 JUMP JUMPDEST SWAP3 POP POP PUSH1 0x40 DUP5 ADD CALLDATALOAD PUSH8 0xFFFFFFFFFFFFFFFF DUP2 GT ISZERO PUSH2 0x501F JUMPI PUSH2 0x501E PUSH2 0x40A9 JUMP JUMPDEST JUMPDEST PUSH2 0x502B DUP7 DUP3 DUP8 ADD PUSH2 0x43F7 JUMP JUMPDEST SWAP2 POP POP SWAP3 POP SWAP3 POP SWAP3 JUMP JUMPDEST PUSH0 DUP1 PUSH0 DUP1 PUSH0 PUSH1 0xA0 DUP7 DUP9 SUB SLT ISZERO PUSH2 0x504E JUMPI PUSH2 0x504D PUSH2 0x40A5 JUMP JUMPDEST JUMPDEST PUSH0 PUSH2 0x505B DUP9 DUP3 DUP10 ADD PUSH2 0x42E4 JUMP JUMPDEST SWAP6 POP POP PUSH1 0x20 PUSH2 0x506C DUP9 DUP3 DUP10 ADD PUSH2 0x42E4 JUMP JUMPDEST SWAP5 POP POP PUSH1 0x40 DUP7 ADD CALLDATALOAD PUSH8 0xFFFFFFFFFFFFFFFF DUP2 GT ISZERO PUSH2 0x508D JUMPI PUSH2 0x508C PUSH2 0x40A9 JUMP JUMPDEST JUMPDEST PUSH2 0x5099 DUP9 DUP3 DUP10 ADD PUSH2 0x4623 JUMP JUMPDEST SWAP4 POP POP PUSH1 0x60 DUP7 ADD CALLDATALOAD PUSH8 0xFFFFFFFFFFFFFFFF DUP2 GT ISZERO PUSH2 0x50BA JUMPI PUSH2 0x50B9 PUSH2 0x40A9 JUMP JUMPDEST JUMPDEST PUSH2 0x50C6 DUP9 DUP3 DUP10 ADD PUSH2 0x4623 JUMP JUMPDEST SWAP3 POP POP PUSH1 0x80 DUP7 ADD CALLDATALOAD PUSH8 0xFFFFFFFFFFFFFFFF DUP2 GT ISZERO PUSH2 0x50E7 JUMPI PUSH2 0x50E6 PUSH2 0x40A9 JUMP JUMPDEST JUMPDEST PUSH2 0x50F3 DUP9 DUP3 DUP10 ADD PUSH2 0x43F7 JUMP JUMPDEST SWAP2 POP POP SWAP3 SWAP6 POP SWAP3 SWAP6 SWAP1 SWAP4 POP JUMP JUMPDEST PUSH0 DUP1 DUP4 PUSH1 0x1F DUP5 ADD SLT PUSH2 0x5115 JUMPI PUSH2 0x5114 PUSH2 0x42F8 JUMP JUMPDEST JUMPDEST DUP3 CALLDATALOAD SWAP1 POP PUSH8 0xFFFFFFFFFFFFFFFF DUP2 GT ISZERO PUSH2 0x5132 JUMPI PUSH2 0x5131 PUSH2 0x49B4 JUMP JUMPDEST JUMPDEST PUSH1 0x20 DUP4 ADD SWAP2 POP DUP4 PUSH1 0x1 DUP3 MUL DUP4 ADD GT ISZERO PUSH2 0x514E JUMPI PUSH2 0x514D PUSH2 0x44F7 JUMP JUMPDEST JUMPDEST SWAP3 POP SWAP3 SWAP1 POP JUMP JUMPDEST PUSH0 DUP1 PUSH0 DUP1 PUSH1 0x60 DUP6 DUP8 SUB SLT ISZERO PUSH2 0x516D JUMPI PUSH2 0x516C PUSH2 0x40A5 JUMP JUMPDEST JUMPDEST PUSH0 PUSH2 0x517A DUP8 DUP3 DUP9 ADD PUSH2 0x42E4 JUMP JUMPDEST SWAP5 POP POP PUSH1 0x20 PUSH2 0x518B DUP8 DUP3 DUP9 ADD PUSH2 0x41A7 JUMP JUMPDEST SWAP4 POP POP PUSH1 0x40 DUP6 ADD CALLDATALOAD PUSH8 0xFFFFFFFFFFFFFFFF DUP2 GT ISZERO PUSH2 0x51AC JUMPI PUSH2 0x51AB PUSH2 0x40A9 JUMP JUMPDEST JUMPDEST PUSH2 0x51B8 DUP8 DUP3 DUP9 ADD PUSH2 0x5100 JUMP JUMPDEST SWAP3 POP SWAP3 POP POP SWAP3 SWAP6 SWAP2 SWAP5 POP SWAP3 POP JUMP JUMPDEST PUSH0 DUP1 PUSH1 0x40 DUP4 DUP6 SUB SLT ISZERO PUSH2 0x51DC JUMPI PUSH2 0x51DB PUSH2 0x40A5 JUMP JUMPDEST JUMPDEST PUSH0 PUSH2 0x51E9 DUP6 DUP3 DUP7 ADD PUSH2 0x42E4 JUMP JUMPDEST SWAP3 POP POP PUSH1 0x20 PUSH2 0x51FA DUP6 DUP3 DUP7 ADD PUSH2 0x41A7 JUMP JUMPDEST SWAP2 POP POP SWAP3 POP SWAP3 SWAP1 POP JUMP JUMPDEST PUSH0 DUP1 PUSH0 DUP1 PUSH0 PUSH1 0xA0 DUP7 DUP9 SUB SLT ISZERO PUSH2 0x521D JUMPI PUSH2 0x521C PUSH2 0x40A5 JUMP JUMPDEST JUMPDEST PUSH0 PUSH2 0x522A DUP9 DUP3 DUP10 ADD PUSH2 0x42E4 JUMP JUMPDEST SWAP6 POP POP PUSH1 0x20 PUSH2 0x523B DUP9 DUP3 DUP10 ADD PUSH2 0x42E4 JUMP JUMPDEST SWAP5 POP POP PUSH1 0x40 PUSH2 0x524C DUP9 DUP3 DUP10 ADD PUSH2 0x41A7 JUMP JUMPDEST SWAP4 POP POP PUSH1 0x60 PUSH2 0x525D DUP9 DUP3 DUP10 ADD PUSH2 0x41A7 JUMP JUMPDEST SWAP3 POP POP PUSH1 0x80 DUP7 ADD CALLDATALOAD PUSH8 0xFFFFFFFFFFFFFFFF DUP2 GT ISZERO PUSH2 0x527E JUMPI PUSH2 0x527D PUSH2 0x40A9 JUMP JUMPDEST JUMPDEST PUSH2 0x528A DUP9 DUP3 DUP10 ADD PUSH2 0x43F7 JUMP JUMPDEST SWAP2 POP POP SWAP3 SWAP6 POP SWAP3 SWAP6 SWAP1 SWAP4 POP JUMP JUMPDEST PUSH0 DUP2 SWAP1 POP SWAP2 SWAP1 POP JUMP JUMPDEST PUSH0 PUSH2 0x52BA PUSH2 0x52B5 PUSH2 0x52B0 DUP5 PUSH2 0x4276 JUMP JUMPDEST PUSH2 0x5297 JUMP JUMPDEST PUSH2 0x4276 JUMP JUMPDEST SWAP1 POP SWAP2 SWAP1 POP JUMP JUMPDEST PUSH0 PUSH2 0x52CB DUP3 PUSH2 0x52A0 JUMP JUMPDEST SWAP1 POP SWAP2 SWAP1 POP JUMP JUMPDEST PUSH0 PUSH2 0x52DC DUP3 PUSH2 0x52C1 JUMP JUMPDEST SWAP1 POP SWAP2 SWAP1 POP JUMP JUMPDEST PUSH2 0x52EC DUP2 PUSH2 0x52D2 JUMP JUMPDEST DUP3 MSTORE POP POP JUMP JUMPDEST PUSH0 PUSH1 0x20 DUP3 ADD SWAP1 POP PUSH2 0x5305 PUSH0 DUP4 ADD DUP5 PUSH2 0x52E3 JUMP JUMPDEST SWAP3 SWAP2 POP POP JUMP JUMPDEST PUSH32 0x4E487B7100000000000000000000000000000000000000000000000000000000 PUSH0 MSTORE PUSH1 0x22 PUSH1 0x4 MSTORE PUSH1 0x24 PUSH0 REVERT JUMPDEST PUSH0 PUSH1 0x2 DUP3 DIV SWAP1 POP PUSH1 0x1 DUP3 AND DUP1 PUSH2 0x534F JUMPI PUSH1 0x7F DUP3 AND SWAP2 POP JUMPDEST PUSH1 0x20 DUP3 LT DUP2 SUB PUSH2 0x5362 JUMPI PUSH2 0x5361 PUSH2 0x530B JUMP JUMPDEST JUMPDEST POP SWAP2 SWAP1 POP JUMP JUMPDEST PUSH0 PUSH2 0x5382 PUSH2 0x537D PUSH2 0x5378 DUP5 PUSH2 0x4F90 JUMP JUMPDEST PUSH2 0x5297 JUMP JUMPDEST PUSH2 0x4160 JUMP JUMPDEST SWAP1 POP SWAP2 SWAP1 POP JUMP JUMPDEST PUSH2 0x5392 DUP2 PUSH2 0x5368 JUMP JUMPDEST DUP3 MSTORE POP POP JUMP JUMPDEST PUSH0 PUSH1 0x40 DUP3 ADD SWAP1 POP PUSH2 0x53AB PUSH0 DUP4 ADD DUP6 PUSH2 0x4169 JUMP JUMPDEST PUSH2 0x53B8 PUSH1 0x20 DUP4 ADD DUP5 PUSH2 0x5389 JUMP JUMPDEST SWAP4 SWAP3 POP POP POP JUMP JUMPDEST PUSH32 0x4E487B7100000000000000000000000000000000000000000000000000000000 PUSH0 MSTORE PUSH1 0x32 PUSH1 0x4 MSTORE PUSH1 0x24 PUSH0 REVERT JUMPDEST PUSH0 PUSH2 0x53FE PUSH2 0x53F9 DUP5 PUSH2 0x4C00 JUMP JUMPDEST PUSH2 0x435E JUMP JUMPDEST SWAP1 POP DUP3 DUP2 MSTORE PUSH1 0x20 DUP2 ADD DUP5 DUP5 DUP5 ADD GT ISZERO PUSH2 0x541A JUMPI PUSH2 0x5419 PUSH2 0x42FC JUMP JUMPDEST JUMPDEST PUSH2 0x5425 DUP5 DUP3 DUP6 PUSH2 0x4200 JUMP JUMPDEST POP SWAP4 SWAP3 POP POP POP JUMP JUMPDEST PUSH0 DUP3 PUSH1 0x1F DUP4 ADD SLT PUSH2 0x5441 JUMPI PUSH2 0x5440 PUSH2 0x42F8 JUMP JUMPDEST JUMPDEST DUP2 MLOAD PUSH2 0x5451 DUP5 DUP3 PUSH1 0x20 DUP7 ADD PUSH2 0x53EC JUMP JUMPDEST SWAP2 POP POP SWAP3 SWAP2 POP POP JUMP JUMPDEST PUSH0 PUSH1 0x20 DUP3 DUP5 SUB SLT ISZERO PUSH2 0x546F JUMPI PUSH2 0x546E PUSH2 0x40A5 JUMP JUMPDEST JUMPDEST PUSH0 DUP3 ADD MLOAD PUSH8 0xFFFFFFFFFFFFFFFF DUP2 GT ISZERO PUSH2 0x548C JUMPI PUSH2 0x548B PUSH2 0x40A9 JUMP JUMPDEST JUMPDEST PUSH2 0x5498 DUP5 DUP3 DUP6 ADD PUSH2 0x542D JUMP JUMPDEST SWAP2 POP POP SWAP3 SWAP2 POP POP JUMP JUMPDEST PUSH0 DUP2 SWAP1 POP SWAP3 SWAP2 POP POP JUMP JUMPDEST PUSH0 PUSH2 0x54B6 DUP4 DUP6 PUSH2 0x54A1 JUMP JUMPDEST SWAP4 POP PUSH2 0x54C3 DUP4 DUP6 DUP5 PUSH2 0x43A8 JUMP JUMPDEST DUP3 DUP5 ADD SWAP1 POP SWAP4 SWAP3 POP POP POP JUMP JUMPDEST PUSH0 PUSH2 0x54DB DUP3 DUP5 DUP7 PUSH2 0x54AB JUMP JUMPDEST SWAP2 POP DUP2 SWAP1 POP SWAP4 SWAP3 POP POP POP JUMP JUMPDEST PUSH2 0x54F0 DUP2 PUSH2 0x4940 JUMP JUMPDEST DUP3 MSTORE POP POP JUMP JUMPDEST PUSH0 PUSH1 0xE0 DUP3 ADD SWAP1 POP PUSH2 0x5509 PUSH0 DUP4 ADD DUP11 PUSH2 0x4819 JUMP JUMPDEST PUSH2 0x5516 PUSH1 0x20 DUP4 ADD DUP10 PUSH2 0x4169 JUMP JUMPDEST PUSH2 0x5523 PUSH1 0x40 DUP4 ADD DUP9 PUSH2 0x54E7 JUMP JUMPDEST PUSH2 0x5530 PUSH1 0x60 DUP4 ADD DUP8 PUSH2 0x42A6 JUMP JUMPDEST PUSH2 0x553D PUSH1 0x80 DUP4 ADD DUP7 PUSH2 0x4169 JUMP JUMPDEST PUSH2 0x554A PUSH1 0xA0 DUP4 ADD DUP6 PUSH2 0x4819 JUMP JUMPDEST PUSH2 0x5557 PUSH1 0xC0 DUP4 ADD DUP5 PUSH2 0x4819 JUMP JUMPDEST SWAP9 SWAP8 POP POP POP POP POP POP POP POP JUMP JUMPDEST PUSH32 0x4E487B7100000000000000000000000000000000000000000000000000000000 PUSH0 MSTORE PUSH1 0x11 PUSH1 0x4 MSTORE PUSH1 0x24 PUSH0 REVERT JUMPDEST PUSH0 PUSH2 0x559A DUP3 PUSH2 0x4160 JUMP JUMPDEST SWAP2 POP PUSH2 0x55A5 DUP4 PUSH2 0x4160 JUMP JUMPDEST SWAP3 POP DUP3 DUP3 SUB SWAP1 POP DUP2 DUP2 GT ISZERO PUSH2 0x55BD JUMPI PUSH2 0x55BC PUSH2 0x5563 JUMP JUMPDEST JUMPDEST SWAP3 SWAP2 POP POP JUMP JUMPDEST PUSH0 PUSH2 0x55CD DUP3 PUSH2 0x4F90 JUMP JUMPDEST SWAP2 POP PUSH2 0x55D8 DUP4 PUSH2 0x4F90 JUMP JUMPDEST SWAP3 POP DUP3 DUP3 SUB SWAP1 POP PUSH6 0xFFFFFFFFFFFF DUP2 GT ISZERO PUSH2 0x55F6 JUMPI PUSH2 0x55F5 PUSH2 0x5563 JUMP JUMPDEST JUMPDEST SWAP3 SWAP2 POP POP JUMP JUMPDEST PUSH0 PUSH1 0x60 DUP3 ADD SWAP1 POP PUSH2 0x560F PUSH0 DUP4 ADD DUP7 PUSH2 0x42A6 JUMP JUMPDEST PUSH2 0x561C PUSH1 0x20 DUP4 ADD DUP6 PUSH2 0x4169 JUMP JUMPDEST PUSH2 0x5629 PUSH1 0x40 DUP4 ADD DUP5 PUSH2 0x4169 JUMP JUMPDEST SWAP5 SWAP4 POP POP POP POP JUMP JUMPDEST PUSH0 PUSH1 0xA0 DUP3 ADD SWAP1 POP PUSH2 0x5644 PUSH0 DUP4 ADD DUP9 PUSH2 0x4819 JUMP JUMPDEST PUSH2 0x5651 PUSH1 0x20 DUP4 ADD DUP8 PUSH2 0x4169 JUMP JUMPDEST PUSH2 0x565E PUSH1 0x40 DUP4 ADD DUP7 PUSH2 0x54E7 JUMP JUMPDEST PUSH2 0x566B PUSH1 0x60 DUP4 ADD DUP6 PUSH2 0x42A6 JUMP JUMPDEST PUSH2 0x5678 PUSH1 0x80 DUP4 ADD DUP5 PUSH2 0x4169 JUMP JUMPDEST SWAP7 SWAP6 POP POP POP POP POP POP JUMP JUMPDEST PUSH2 0x568B DUP2 PUSH2 0x4F90 JUMP JUMPDEST DUP2 EQ PUSH2 0x5695 JUMPI PUSH0 DUP1 REVERT JUMPDEST POP JUMP JUMPDEST PUSH0 DUP2 MLOAD SWAP1 POP PUSH2 0x56A6 DUP2 PUSH2 0x5682 JUMP JUMPDEST SWAP3 SWAP2 POP POP JUMP JUMPDEST PUSH0 PUSH1 0x20 DUP3 DUP5 SUB SLT ISZERO PUSH2 0x56C1 JUMPI PUSH2 0x56C0 PUSH2 0x40A5 JUMP JUMPDEST JUMPDEST PUSH0 PUSH2 0x56CE DUP5 DUP3 DUP6 ADD PUSH2 0x5698 JUMP JUMPDEST SWAP2 POP POP SWAP3 SWAP2 POP POP JUMP JUMPDEST PUSH0 PUSH2 0x56E1 DUP3 PUSH2 0x4F90 JUMP JUMPDEST SWAP2 POP PUSH2 0x56EC DUP4 PUSH2 0x4F90 JUMP JUMPDEST SWAP3 POP DUP3 DUP3 ADD SWAP1 POP PUSH6 0xFFFFFFFFFFFF DUP2 GT ISZERO PUSH2 0x570A JUMPI PUSH2 0x5709 PUSH2 0x5563 JUMP JUMPDEST JUMPDEST SWAP3 SWAP2 POP POP JUMP JUMPDEST PUSH0 DUP2 MLOAD SWAP1 POP SWAP2 SWAP1 POP JUMP JUMPDEST PUSH0 DUP3 DUP3 MSTORE PUSH1 0x20 DUP3 ADD SWAP1 POP SWAP3 SWAP2 POP POP JUMP JUMPDEST PUSH0 DUP2 SWAP1 POP PUSH1 0x20 DUP3 ADD SWAP1 POP SWAP2 SWAP1 POP JUMP JUMPDEST PUSH2 0x5742 DUP2 PUSH2 0x4295 JUMP JUMPDEST DUP3 MSTORE POP POP JUMP JUMPDEST PUSH0 PUSH2 0x5753 DUP4 DUP4 PUSH2 0x5739 JUMP JUMPDEST PUSH1 0x20 DUP4 ADD SWAP1 POP SWAP3 SWAP2 POP POP JUMP JUMPDEST PUSH0 PUSH1 0x20 DUP3 ADD SWAP1 POP SWAP2 SWAP1 POP JUMP JUMPDEST PUSH0 PUSH2 0x5775 DUP3 PUSH2 0x5710 JUMP JUMPDEST PUSH2 0x577F DUP2 DUP6 PUSH2 0x571A JUMP JUMPDEST SWAP4 POP PUSH2 0x578A DUP4 PUSH2 0x572A JUMP JUMPDEST DUP1 PUSH0 JUMPDEST DUP4 DUP2 LT ISZERO PUSH2 0x57BA JUMPI DUP2 MLOAD PUSH2 0x57A1 DUP9 DUP3 PUSH2 0x5748 JUMP JUMPDEST SWAP8 POP PUSH2 0x57AC DUP4 PUSH2 0x575F JUMP JUMPDEST SWAP3 POP POP PUSH1 0x1 DUP2 ADD SWAP1 POP PUSH2 0x578D JUMP JUMPDEST POP DUP6 SWAP4 POP POP POP POP SWAP3 SWAP2 POP POP JUMP JUMPDEST PUSH0 DUP2 MLOAD SWAP1 POP SWAP2 SWAP1 POP JUMP JUMPDEST PUSH0 DUP3 DUP3 MSTORE PUSH1 0x20 DUP3 ADD SWAP1 POP SWAP3 SWAP2 POP POP JUMP JUMPDEST PUSH0 DUP2 SWAP1 POP PUSH1 0x20 DUP3 ADD SWAP1 POP SWAP2 SWAP1 POP JUMP JUMPDEST PUSH0 DUP2 MLOAD SWAP1 POP SWAP2 SWAP1 POP JUMP JUMPDEST PUSH0 DUP3 DUP3 MSTORE PUSH1 0x20 DUP3 ADD SWAP1 POP SWAP3 SWAP2 POP POP JUMP JUMPDEST PUSH0 PUSH2 0x5814 DUP3 PUSH2 0x57F0 JUMP JUMPDEST PUSH2 0x581E DUP2 DUP6 PUSH2 0x57FA JUMP JUMPDEST SWAP4 POP PUSH2 0x582E DUP2 DUP6 PUSH1 0x20 DUP7 ADD PUSH2 0x4200 JUMP JUMPDEST PUSH2 0x5837 DUP2 PUSH2 0x420E JUMP JUMPDEST DUP5 ADD SWAP2 POP POP SWAP3 SWAP2 POP POP JUMP JUMPDEST PUSH0 PUSH2 0x584D DUP4 DUP4 PUSH2 0x580A JUMP JUMPDEST SWAP1 POP SWAP3 SWAP2 POP POP JUMP JUMPDEST PUSH0 PUSH1 0x20 DUP3 ADD SWAP1 POP SWAP2 SWAP1 POP JUMP JUMPDEST PUSH0 PUSH2 0x586B DUP3 PUSH2 0x57C7 JUMP JUMPDEST PUSH2 0x5875 DUP2 DUP6 PUSH2 0x57D1 JUMP JUMPDEST SWAP4 POP DUP4 PUSH1 0x20 DUP3 MUL DUP6 ADD PUSH2 0x5887 DUP6 PUSH2 0x57E1 JUMP JUMPDEST DUP1 PUSH0 JUMPDEST DUP6 DUP2 LT ISZERO PUSH2 0x58C2 JUMPI DUP5 DUP5 SUB DUP10 MSTORE DUP2 MLOAD PUSH2 0x58A3 DUP6 DUP3 PUSH2 0x5842 JUMP JUMPDEST SWAP5 POP PUSH2 0x58AE DUP4 PUSH2 0x5855 JUMP JUMPDEST SWAP3 POP PUSH1 0x20 DUP11 ADD SWAP10 POP POP PUSH1 0x1 DUP2 ADD SWAP1 POP PUSH2 0x588A JUMP JUMPDEST POP DUP3 SWAP8 POP DUP8 SWAP6 POP POP POP POP POP POP SWAP3 SWAP2 POP POP JUMP JUMPDEST PUSH0 PUSH1 0x80 DUP3 ADD SWAP1 POP DUP2 DUP2 SUB PUSH0 DUP4 ADD MSTORE PUSH2 0x58EC DUP2 DUP8 PUSH2 0x576B JUMP JUMPDEST SWAP1 POP DUP2 DUP2 SUB PUSH1 0x20 DUP4 ADD MSTORE PUSH2 0x5900 DUP2 DUP7 PUSH2 0x4E32 JUMP JUMPDEST SWAP1 POP DUP2 DUP2 SUB PUSH1 0x40 DUP4 ADD MSTORE PUSH2 0x5914 DUP2 DUP6 PUSH2 0x5861 JUMP JUMPDEST SWAP1 POP PUSH2 0x5923 PUSH1 0x60 DUP4 ADD DUP5 PUSH2 0x4819 JUMP JUMPDEST SWAP6 SWAP5 POP POP POP POP POP JUMP JUMPDEST PUSH0 DUP2 MLOAD SWAP1 POP PUSH2 0x593A DUP2 PUSH2 0x4191 JUMP JUMPDEST SWAP3 SWAP2 POP POP JUMP JUMPDEST PUSH0 PUSH1 0x20 DUP3 DUP5 SUB SLT ISZERO PUSH2 0x5955 JUMPI PUSH2 0x5954 PUSH2 0x40A5 JUMP JUMPDEST JUMPDEST PUSH0 PUSH2 0x5962 DUP5 DUP3 DUP6 ADD PUSH2 0x592C JUMP JUMPDEST SWAP2 POP POP SWAP3 SWAP2 POP POP JUMP JUMPDEST PUSH0 PUSH2 0x5975 DUP3 PUSH2 0x4160 JUMP JUMPDEST SWAP2 POP PUSH2 0x5980 DUP4 PUSH2 0x4160 JUMP JUMPDEST SWAP3 POP DUP3 DUP3 MUL PUSH2 0x598E DUP2 PUSH2 0x4160 JUMP JUMPDEST SWAP2 POP DUP3 DUP3 DIV DUP5 EQ DUP4 ISZERO OR PUSH2 0x59A5 JUMPI PUSH2 0x59A4 PUSH2 0x5563 JUMP JUMPDEST JUMPDEST POP SWAP3 SWAP2 POP POP JUMP JUMPDEST PUSH32 0x4E487B7100000000000000000000000000000000000000000000000000000000 PUSH0 MSTORE PUSH1 0x12 PUSH1 0x4 MSTORE PUSH1 0x24 PUSH0 REVERT JUMPDEST PUSH0 PUSH2 0x59E3 DUP3 PUSH2 0x4160 JUMP JUMPDEST SWAP2 POP PUSH2 0x59EE DUP4 PUSH2 0x4160 JUMP JUMPDEST SWAP3 POP DUP3 PUSH2 0x59FE JUMPI PUSH2 0x59FD PUSH2 0x59AC JUMP JUMPDEST JUMPDEST DUP3 DUP3 DIV SWAP1 POP SWAP3 SWAP2 POP POP JUMP JUMPDEST PUSH0 PUSH1 0x40 DUP3 ADD SWAP1 POP PUSH2 0x5A1C PUSH0 DUP4 ADD DUP6 PUSH2 0x4169 JUMP JUMPDEST PUSH2 0x5A29 PUSH1 0x20 DUP4 ADD DUP5 PUSH2 0x4169 JUMP JUMPDEST SWAP4 SWAP3 POP POP POP JUMP JUMPDEST PUSH0 PUSH1 0x60 DUP3 ADD SWAP1 POP PUSH2 0x5A43 PUSH0 DUP4 ADD DUP7 PUSH2 0x4169 JUMP JUMPDEST PUSH2 0x5A50 PUSH1 0x20 DUP4 ADD DUP6 PUSH2 0x48A5 JUMP JUMPDEST PUSH2 0x5A5D PUSH1 0x40 DUP4 ADD DUP5 PUSH2 0x4819 JUMP JUMPDEST SWAP5 SWAP4 POP POP POP POP JUMP JUMPDEST PUSH0 PUSH2 0x5A6F DUP3 PUSH2 0x57F0 JUMP JUMPDEST PUSH2 0x5A79 DUP2 DUP6 PUSH2 0x54A1 JUMP JUMPDEST SWAP4 POP PUSH2 0x5A89 DUP2 DUP6 PUSH1 0x20 DUP7 ADD PUSH2 0x4200 JUMP JUMPDEST DUP1 DUP5 ADD SWAP2 POP POP SWAP3 SWAP2 POP POP JUMP JUMPDEST PUSH0 PUSH2 0x5AA0 DUP3 DUP5 PUSH2 0x5A65 JUMP JUMPDEST SWAP2 POP DUP2 SWAP1 POP SWAP3 SWAP2 POP POP JUMP JUMPDEST PUSH0 PUSH2 0x5AB5 DUP3 PUSH2 0x4160 JUMP JUMPDEST SWAP2 POP PUSH2 0x5AC0 DUP4 PUSH2 0x4160 JUMP JUMPDEST SWAP3 POP DUP3 DUP3 ADD SWAP1 POP DUP1 DUP3 GT ISZERO PUSH2 0x5AD8 JUMPI PUSH2 0x5AD7 PUSH2 0x5563 JUMP JUMPDEST JUMPDEST SWAP3 SWAP2 POP POP JUMP JUMPDEST PUSH0 PUSH2 0x5AE8 DUP3 PUSH2 0x4940 JUMP JUMPDEST SWAP2 POP PUSH2 0x5AF3 DUP4 PUSH2 0x4940 JUMP JUMPDEST SWAP3 POP DUP3 DUP3 ADD SWAP1 POP PUSH1 0xFF DUP2 GT ISZERO PUSH2 0x5B0C JUMPI PUSH2 0x5B0B PUSH2 0x5563 JUMP JUMPDEST JUMPDEST SWAP3 SWAP2 POP POP JUMP JUMPDEST PUSH0 DUP2 PUSH1 0x1 SHR SWAP1 POP SWAP2 SWAP1 POP JUMP JUMPDEST PUSH0 DUP1 DUP3 SWAP2 POP DUP4 SWAP1 POP JUMPDEST PUSH1 0x1 DUP6 GT ISZERO PUSH2 0x5B67 JUMPI DUP1 DUP7 DIV DUP2 GT ISZERO PUSH2 0x5B43 JUMPI PUSH2 0x5B42 PUSH2 0x5563 JUMP JUMPDEST JUMPDEST PUSH1 0x1 DUP6 AND ISZERO PUSH2 0x5B52 JUMPI DUP1 DUP3 MUL SWAP2 POP JUMPDEST DUP1 DUP2 MUL SWAP1 POP PUSH2 0x5B60 DUP6 PUSH2 0x5B12 JUMP JUMPDEST SWAP5 POP PUSH2 0x5B27 JUMP JUMPDEST SWAP5 POP SWAP5 SWAP3 POP POP POP JUMP JUMPDEST PUSH0 DUP3 PUSH2 0x5B7F JUMPI PUSH1 0x1 SWAP1 POP PUSH2 0x5C3A JUMP JUMPDEST DUP2 PUSH2 0x5B8C JUMPI PUSH0 SWAP1 POP PUSH2 0x5C3A JUMP JUMPDEST DUP2 PUSH1 0x1 DUP2 EQ PUSH2 0x5BA2 JUMPI PUSH1 0x2 DUP2 EQ PUSH2 0x5BAC JUMPI PUSH2 0x5BDB JUMP JUMPDEST PUSH1 0x1 SWAP2 POP POP PUSH2 0x5C3A JUMP JUMPDEST PUSH1 0xFF DUP5 GT ISZERO PUSH2 0x5BBE JUMPI PUSH2 0x5BBD PUSH2 0x5563 JUMP JUMPDEST JUMPDEST DUP4 PUSH1 0x2 EXP SWAP2 POP DUP5 DUP3 GT ISZERO PUSH2 0x5BD5 JUMPI PUSH2 0x5BD4 PUSH2 0x5563 JUMP JUMPDEST JUMPDEST POP PUSH2 0x5C3A JUMP JUMPDEST POP PUSH1 0x20 DUP4 LT PUSH2 0x133 DUP4 LT AND PUSH1 0x4E DUP5 LT PUSH1 0xB DUP5 LT AND OR ISZERO PUSH2 0x5C10 JUMPI DUP3 DUP3 EXP SWAP1 POP DUP4 DUP2 GT ISZERO PUSH2 0x5C0B JUMPI PUSH2 0x5C0A PUSH2 0x5563 JUMP JUMPDEST JUMPDEST PUSH2 0x5C3A JUMP JUMPDEST PUSH2 0x5C1D DUP5 DUP5 DUP5 PUSH1 0x1 PUSH2 0x5B1E JUMP JUMPDEST SWAP3 POP SWAP1 POP DUP2 DUP5 DIV DUP2 GT ISZERO PUSH2 0x5C34 JUMPI PUSH2 0x5C33 PUSH2 0x5563 JUMP JUMPDEST JUMPDEST DUP2 DUP2 MUL SWAP1 POP JUMPDEST SWAP4 SWAP3 POP POP POP JUMP JUMPDEST PUSH0 PUSH2 0x5C4B DUP3 PUSH2 0x4160 JUMP JUMPDEST SWAP2 POP PUSH2 0x5C56 DUP4 PUSH2 0x4940 JUMP JUMPDEST SWAP3 POP PUSH2 0x5C83 PUSH32 0xFFFFFFFFFFFFFFFFFFFFFFFFFFFFFFFFFFFFFFFFFFFFFFFFFFFFFFFFFFFFFFFF DUP5 DUP5 PUSH2 0x5B70 JUMP JUMPDEST SWAP1 POP SWAP3 SWAP2 POP POP JUMP JUMPDEST PUSH0 PUSH1 0x80 DUP3 ADD SWAP1 POP PUSH2 0x5C9E PUSH0 DUP4 ADD DUP8 PUSH2 0x4169 JUMP JUMPDEST PUSH2 0x5CAB PUSH1 0x20 DUP4 ADD DUP7 PUSH2 0x54E7 JUMP JUMPDEST PUSH2 0x5CB8 PUSH1 0x40 DUP4 ADD DUP6 PUSH2 0x4169 JUMP JUMPDEST DUP2 DUP2 SUB PUSH1 0x60 DUP4 ADD MSTORE PUSH2 0x5CCA DUP2 DUP5 PUSH2 0x421E JUMP JUMPDEST SWAP1 POP SWAP6 SWAP5 POP POP POP POP POP JUMP JUMPDEST PUSH0 DUP3 DUP3 MSTORE PUSH1 0x20 DUP3 ADD SWAP1 POP SWAP3 SWAP2 POP POP JUMP JUMPDEST PUSH0 PUSH2 0x5CEF DUP3 PUSH2 0x57F0 JUMP JUMPDEST PUSH2 0x5CF9 DUP2 DUP6 PUSH2 0x5CD5 JUMP JUMPDEST SWAP4 POP PUSH2 0x5D09 DUP2 DUP6 PUSH1 0x20 DUP7 ADD PUSH2 0x4200 JUMP JUMPDEST PUSH2 0x5D12 DUP2 PUSH2 0x420E JUMP JUMPDEST DUP5 ADD SWAP2 POP POP SWAP3 SWAP2 POP POP JUMP JUMPDEST PUSH0 PUSH1 0xA0 DUP3 ADD SWAP1 POP PUSH2 0x5D30 PUSH0 DUP4 ADD DUP9 PUSH2 0x4169 JUMP JUMPDEST PUSH2 0x5D3D PUSH1 0x20 DUP4 ADD DUP8 PUSH2 0x54E7 JUMP JUMPDEST PUSH2 0x5D4A PUSH1 0x40 DUP4 ADD DUP7 PUSH2 0x4169 JUMP JUMPDEST DUP2 DUP2 SUB PUSH1 0x60 DUP4 ADD MSTORE PUSH2 0x5D5C DUP2 DUP6 PUSH2 0x421E JUMP JUMPDEST SWAP1 POP DUP2 DUP2 SUB PUSH1 0x80 DUP4 ADD MSTORE PUSH2 0x5D70 DUP2 DUP5 PUSH2 0x5CE5 JUMP JUMPDEST SWAP1 POP SWAP7 SWAP6 POP POP POP POP POP POP JUMP JUMPDEST PUSH0 DUP2 SWAP1 POP SWAP2 SWAP1 POP JUMP JUMPDEST PUSH0 PUSH2 0x5D9F PUSH2 0x5D9A PUSH2 0x5D95 DUP5 PUSH2 0x5D7C JUMP JUMPDEST PUSH2 0x5297 JUMP JUMPDEST PUSH2 0x4940 JUMP JUMPDEST SWAP1 POP SWAP2 SWAP1 POP JUMP JUMPDEST PUSH2 0x5DAF DUP2 PUSH2 0x5D85 JUMP JUMPDEST DUP3 MSTORE POP POP JUMP JUMPDEST PUSH0 PUSH1 0x40 DUP3 ADD SWAP1 POP PUSH2 0x5DC8 PUSH0 DUP4 ADD DUP6 PUSH2 0x5DA6 JUMP JUMPDEST PUSH2 0x5DD5 PUSH1 0x20 DUP4 ADD DUP5 PUSH2 0x4169 JUMP JUMPDEST SWAP4 SWAP3 POP POP POP JUMP JUMPDEST PUSH0 DUP2 MLOAD SWAP1 POP SWAP2 SWAP1 POP JUMP JUMPDEST PUSH0 DUP3 DUP3 MSTORE PUSH1 0x20 DUP3 ADD SWAP1 POP SWAP3 SWAP2 POP POP JUMP JUMPDEST PUSH0 DUP2 SWAP1 POP PUSH1 0x20 DUP3 ADD SWAP1 POP SWAP2 SWAP1 POP JUMP JUMPDEST PUSH0 DUP3 DUP3 MSTORE PUSH1 0x20 DUP3 ADD SWAP1 POP SWAP3 SWAP2 POP POP JUMP JUMPDEST PUSH0 PUSH2 0x5E1F DUP3 PUSH2 0x41E6 JUMP JUMPDEST PUSH2 0x5E29 DUP2 DUP6 PUSH2 0x5E05 JUMP JUMPDEST SWAP4 POP PUSH2 0x5E39 DUP2 DUP6 PUSH1 0x20 DUP7 ADD PUSH2 0x4200 JUMP JUMPDEST PUSH2 0x5E42 DUP2 PUSH2 0x420E JUMP JUMPDEST DUP5 ADD SWAP2 POP POP SWAP3 SWAP2 POP POP JUMP JUMPDEST PUSH0 PUSH2 0x5E58 DUP4 DUP4 PUSH2 0x5E15 JUMP JUMPDEST SWAP1 POP SWAP3 SWAP2 POP POP JUMP JUMPDEST PUSH0 PUSH1 0x20 DUP3 ADD SWAP1 POP SWAP2 SWAP1 POP JUMP JUMPDEST PUSH0 PUSH2 0x5E76 DUP3 PUSH2 0x5DDC JUMP JUMPDEST PUSH2 0x5E80 DUP2 DUP6 PUSH2 0x5DE6 JUMP JUMPDEST SWAP4 POP DUP4 PUSH1 0x20 DUP3 MUL DUP6 ADD PUSH2 0x5E92 DUP6 PUSH2 0x5DF6 JUMP JUMPDEST DUP1 PUSH0 JUMPDEST DUP6 DUP2 LT ISZERO PUSH2 0x5ECD JUMPI DUP5 DUP5 SUB DUP10 MSTORE DUP2 MLOAD PUSH2 0x5EAE DUP6 DUP3 PUSH2 0x5E4D JUMP JUMPDEST SWAP5 POP PUSH2 0x5EB9 DUP4 PUSH2 0x5E60 JUMP JUMPDEST SWAP3 POP PUSH1 0x20 DUP11 ADD SWAP10 POP POP PUSH1 0x1 DUP2 ADD SWAP1 POP PUSH2 0x5E95 JUMP JUMPDEST POP DUP3 SWAP8 POP DUP8 SWAP6 POP POP POP POP POP POP SWAP3 SWAP2 POP POP JUMP JUMPDEST PUSH0 PUSH2 0x120 DUP3 ADD SWAP1 POP PUSH2 0x5EF3 PUSH0 DUP4 ADD DUP13 PUSH2 0x4169 JUMP JUMPDEST PUSH2 0x5F00 PUSH1 0x20 DUP4 ADD DUP12 PUSH2 0x42A6 JUMP JUMPDEST DUP2 DUP2 SUB PUSH1 0x40 DUP4 ADD MSTORE PUSH2 0x5F12 DUP2 DUP11 PUSH2 0x576B JUMP JUMPDEST SWAP1 POP DUP2 DUP2 SUB PUSH1 0x60 DUP4 ADD MSTORE PUSH2 0x5F26 DUP2 DUP10 PUSH2 0x4E32 JUMP JUMPDEST SWAP1 POP DUP2 DUP2 SUB PUSH1 0x80 DUP4 ADD MSTORE PUSH2 0x5F3A DUP2 DUP9 PUSH2 0x5E6C JUMP JUMPDEST SWAP1 POP DUP2 DUP2 SUB PUSH1 0xA0 DUP4 ADD MSTORE PUSH2 0x5F4E DUP2 DUP8 PUSH2 0x5861 JUMP JUMPDEST SWAP1 POP PUSH2 0x5F5D PUSH1 0xC0 DUP4 ADD DUP7 PUSH2 0x4169 JUMP JUMPDEST PUSH2 0x5F6A PUSH1 0xE0 DUP4 ADD DUP6 PUSH2 0x4169 JUMP JUMPDEST DUP2 DUP2 SUB PUSH2 0x100 DUP4 ADD MSTORE PUSH2 0x5F7D DUP2 DUP5 PUSH2 0x421E JUMP JUMPDEST SWAP1 POP SWAP11 SWAP10 POP POP POP POP POP POP POP POP POP POP JUMP JUMPDEST PUSH0 PUSH1 0x40 DUP3 ADD SWAP1 POP PUSH2 0x5FA0 PUSH0 DUP4 ADD DUP6 PUSH2 0x42A6 JUMP JUMPDEST PUSH2 0x5FAD PUSH1 0x20 DUP4 ADD DUP5 PUSH2 0x4169 JUMP JUMPDEST SWAP4 SWAP3 POP POP POP JUMP JUMPDEST PUSH0 DUP2 SWAP1 POP SWAP2 SWAP1 POP JUMP JUMPDEST PUSH0 PUSH2 0x5FD7 PUSH2 0x5FD2 PUSH2 0x5FCD DUP5 PUSH2 0x5FB4 JUMP JUMPDEST PUSH2 0x5297 JUMP JUMPDEST PUSH2 0x4940 JUMP JUMPDEST SWAP1 POP SWAP2 SWAP1 POP JUMP JUMPDEST PUSH2 0x5FE7 DUP2 PUSH2 0x5FBD JUMP JUMPDEST DUP3 MSTORE POP POP JUMP JUMPDEST PUSH0 PUSH1 0x40 DUP3 ADD SWAP1 POP PUSH2 0x6000 PUSH0 DUP4 ADD DUP6 PUSH2 0x5FDE JUMP JUMPDEST PUSH2 0x600D PUSH1 0x20 DUP4 ADD DUP5 PUSH2 0x4169 JUMP JUMPDEST SWAP4 SWAP3 POP POP POP JUMP JUMPDEST PUSH0 PUSH1 0x40 DUP3 ADD SWAP1 POP PUSH2 0x6027 PUSH0 DUP4 ADD DUP6 PUSH2 0x4819 JUMP JUMPDEST DUP2 DUP2 SUB PUSH1 0x20 DUP4 ADD MSTORE PUSH2 0x6039 DUP2 DUP5 PUSH2 0x5CE5 JUMP JUMPDEST SWAP1 POP SWAP4 SWAP3 POP POP POP JUMP JUMPDEST PUSH0 DUP2 MLOAD SWAP1 POP PUSH2 0x6050 DUP2 PUSH2 0x4737 JUMP JUMPDEST SWAP3 SWAP2 POP POP JUMP JUMPDEST PUSH0 PUSH1 0x20 DUP3 DUP5 SUB SLT ISZERO PUSH2 0x606B JUMPI PUSH2 0x606A PUSH2 0x40A5 JUMP JUMPDEST JUMPDEST PUSH0 PUSH2 0x6078 DUP5 DUP3 DUP6 ADD PUSH2 0x6042 JUMP JUMPDEST SWAP2 POP POP SWAP3 SWAP2 POP POP JUMP JUMPDEST PUSH0 DUP2 SWAP1 POP SWAP2 SWAP1 POP JUMP JUMPDEST PUSH0 PUSH2 0x60A4 PUSH2 0x609F PUSH2 0x609A DUP5 PUSH2 0x6081 JUMP JUMPDEST PUSH2 0x5297 JUMP JUMPDEST PUSH2 0x4940 JUMP JUMPDEST SWAP1 POP SWAP2 SWAP1 POP JUMP JUMPDEST PUSH2 0x60B4 DUP2 PUSH2 0x608A JUMP JUMPDEST DUP3 MSTORE POP POP JUMP JUMPDEST PUSH0 PUSH1 0x40 DUP3 ADD SWAP1 POP PUSH2 0x60CD PUSH0 DUP4 ADD DUP6 PUSH2 0x60AB JUMP JUMPDEST PUSH2 0x60DA PUSH1 0x20 DUP4 ADD DUP5 PUSH2 0x4169 JUMP JUMPDEST SWAP4 SWAP3 POP POP POP JUMP JUMPDEST PUSH0 PUSH1 0xA0 DUP3 ADD SWAP1 POP PUSH2 0x60F4 PUSH0 DUP4 ADD DUP9 PUSH2 0x4819 JUMP JUMPDEST PUSH2 0x6101 PUSH1 0x20 DUP4 ADD DUP8 PUSH2 0x4819 JUMP JUMPDEST PUSH2 0x610E PUSH1 0x40 DUP4 ADD DUP7 PUSH2 0x4819 JUMP JUMPDEST PUSH2 0x611B PUSH1 0x60 DUP4 ADD DUP6 PUSH2 0x4169 JUMP JUMPDEST PUSH2 0x6128 PUSH1 0x80 DUP4 ADD DUP5 PUSH2 0x42A6 JUMP JUMPDEST SWAP7 SWAP6 POP POP POP POP POP POP JUMP JUMPDEST PUSH0 PUSH1 0x80 DUP3 ADD SWAP1 POP PUSH2 0x6145 PUSH0 DUP4 ADD DUP8 PUSH2 0x4819 JUMP JUMPDEST PUSH2 0x6152 PUSH1 0x20 DUP4 ADD DUP7 PUSH2 0x54E7 JUMP JUMPDEST PUSH2 0x615F PUSH1 0x40 DUP4 ADD DUP6 PUSH2 0x4819 JUMP JUMPDEST PUSH2 0x616C PUSH1 0x60 DUP4 ADD DUP5 PUSH2 0x4819 JUMP JUMPDEST SWAP6 SWAP5 POP POP POP POP POP JUMP INVALID LOG2 PUSH5 0x6970667358 0x22 SLT KECCAK256 0xD9 MSTORE8 0xB0 INVALID 0x2F PUSH27 0xA6CBCCEA932119C8A7881D601485CB330D7293F82A28E45AA1CE64 PUSH20 0x6F6C634300081A00330000000000000000000000 "
		},
		"gasEstimates": {
			"creation": {
				"codeDepositCost": "5000600",
				"executionCost": "infinite",
				"totalCost": "infinite"
			},
			"external": {
				"BALLOT_TYPEHASH()": "391",
				"CLOCK_MODE()": "infinite",
				"COUNTING_MODE()": "infinite",
				"EXTENDED_BALLOT_TYPEHASH()": "459",
				"cancel(address[],uint256[],bytes[],bytes32)": "infinite",
				"castVote(uint256,uint8)": "infinite",
				"castVoteBySig(uint256,uint8,address,bytes)": "infinite",
				"castVoteWithReason(uint256,uint8,string)": "infinite",
				"castVoteWithReasonAndParams(uint256,uint8,string,bytes)": "infinite",
				"castVoteWithReasonAndParamsBySig(uint256,uint8,address,string,bytes,bytes)": "infinite",
				"clock()": "infinite",
				"eip712Domain()": "infinite",
				"execute(address[],uint256[],bytes[],bytes32)": "infinite",
				"getVotes(address,uint256)": "infinite",
				"getVotesWithParams(address,uint256,bytes)": "infinite",
				"hasVoted(uint256,address)": "3213",
				"hashProposal(address[],uint256[],bytes[],bytes32)": "infinite",
				"name()": "infinite",
				"nonces(address)": "2919",
				"onERC1155BatchReceived(address,address,uint256[],uint256[],bytes)": "infinite",
				"onERC1155Received(address,address,uint256,uint256,bytes)": "infinite",
				"onERC721Received(address,address,uint256,bytes)": "infinite",
				"proposalDeadline(uint256)": "infinite",
				"proposalEta(uint256)": "infinite",
				"proposalNeedsQueuing(uint256)": "724",
				"proposalProposer(uint256)": "2992",
				"proposalSnapshot(uint256)": "infinite",
				"proposalThreshold()": "369",
				"proposalVotes(uint256)": "infinite",
				"propose(address[],uint256[],bytes[],string)": "infinite",
				"queue(address[],uint256[],bytes[],bytes32)": "infinite",
				"quorum(uint256)": "infinite",
				"quorumDenominator()": "399",
				"quorumNumerator()": "infinite",
				"quorumNumerator(uint256)": "infinite",
				"relay(address,uint256,bytes)": "infinite",
				"state(uint256)": "infinite",
				"supportsInterface(bytes4)": "810",
				"token()": "infinite",
				"updateQuorumNumerator(uint256)": "infinite",
				"version()": "infinite",
				"votingDelay()": "378",
				"votingPeriod()": "401"
			}
		},
		"methodIdentifiers": {
			"BALLOT_TYPEHASH()": "deaaa7cc",
			"CLOCK_MODE()": "4bf5d7e9",
			"COUNTING_MODE()": "dd4e2ba5",
			"EXTENDED_BALLOT_TYPEHASH()": "2fe3e261",
			"cancel(address[],uint256[],bytes[],bytes32)": "452115d6",
			"castVote(uint256,uint8)": "56781388",
			"castVoteBySig(uint256,uint8,address,bytes)": "8ff262e3",
			"castVoteWithReason(uint256,uint8,string)": "7b3c71d3",
			"castVoteWithReasonAndParams(uint256,uint8,string,bytes)": "5f398a14",
			"castVoteWithReasonAndParamsBySig(uint256,uint8,address,string,bytes,bytes)": "5b8d0e0d",
			"clock()": "91ddadf4",
			"eip712Domain()": "84b0196e",
			"execute(address[],uint256[],bytes[],bytes32)": "2656227d",
			"getVotes(address,uint256)": "eb9019d4",
			"getVotesWithParams(address,uint256,bytes)": "9a802a6d",
			"hasVoted(uint256,address)": "43859632",
			"hashProposal(address[],uint256[],bytes[],bytes32)": "c59057e4",
			"name()": "06fdde03",
			"nonces(address)": "7ecebe00",
			"onERC1155BatchReceived(address,address,uint256[],uint256[],bytes)": "bc197c81",
			"onERC1155Received(address,address,uint256,uint256,bytes)": "f23a6e61",
			"onERC721Received(address,address,uint256,bytes)": "150b7a02",
			"proposalDeadline(uint256)": "c01f9e37",
			"proposalEta(uint256)": "ab58fb8e",
			"proposalNeedsQueuing(uint256)": "a9a95294",
			"proposalProposer(uint256)": "143489d0",
			"proposalSnapshot(uint256)": "2d63f693",
			"proposalThreshold()": "b58131b0",
			"proposalVotes(uint256)": "544ffc9c",
			"propose(address[],uint256[],bytes[],string)": "7d5e81e2",
			"queue(address[],uint256[],bytes[],bytes32)": "160cbed7",
			"quorum(uint256)": "f8ce560a",
			"quorumDenominator()": "97c3d334",
			"quorumNumerator()": "a7713a70",
			"quorumNumerator(uint256)": "60c4247f",
			"relay(address,uint256,bytes)": "c28bc2fa",
			"state(uint256)": "3e4f49e6",
			"supportsInterface(bytes4)": "01ffc9a7",
			"token()": "fc0c546a",
			"updateQuorumNumerator(uint256)": "06f3f9e6",
			"version()": "54fd4d50",
			"votingDelay()": "3932abb1",
			"votingPeriod()": "02a251a3"
		}
	},
	"abi": [
		{
			"inputs": [
				{
					"internalType": "contract IVotes",
					"name": "_token",
					"type": "address"
				}
			],
			"stateMutability": "nonpayable",
			"type": "constructor"
		},
		{
			"inputs": [],
			"name": "CheckpointUnorderedInsertion",
			"type": "error"
		},
		{
			"inputs": [],
			"name": "FailedCall",
			"type": "error"
		},
		{
			"inputs": [
				{
					"internalType": "address",
					"name": "voter",
					"type": "address"
				}
			],
			"name": "GovernorAlreadyCastVote",
			"type": "error"
		},
		{
			"inputs": [
				{
					"internalType": "uint256",
					"name": "proposalId",
					"type": "uint256"
				}
			],
			"name": "GovernorAlreadyQueuedProposal",
			"type": "error"
		},
		{
			"inputs": [],
			"name": "GovernorDisabledDeposit",
			"type": "error"
		},
		{
			"inputs": [
				{
					"internalType": "address",
					"name": "proposer",
					"type": "address"
				},
				{
					"internalType": "uint256",
					"name": "votes",
					"type": "uint256"
				},
				{
					"internalType": "uint256",
					"name": "threshold",
					"type": "uint256"
				}
			],
			"name": "GovernorInsufficientProposerVotes",
			"type": "error"
		},
		{
			"inputs": [
				{
					"internalType": "uint256",
					"name": "targets",
					"type": "uint256"
				},
				{
					"internalType": "uint256",
					"name": "calldatas",
					"type": "uint256"
				},
				{
					"internalType": "uint256",
					"name": "values",
					"type": "uint256"
				}
			],
			"name": "GovernorInvalidProposalLength",
			"type": "error"
		},
		{
			"inputs": [
				{
					"internalType": "uint256",
					"name": "quorumNumerator",
					"type": "uint256"
				},
				{
					"internalType": "uint256",
					"name": "quorumDenominator",
					"type": "uint256"
				}
			],
			"name": "GovernorInvalidQuorumFraction",
			"type": "error"
		},
		{
			"inputs": [
				{
					"internalType": "address",
					"name": "voter",
					"type": "address"
				}
			],
			"name": "GovernorInvalidSignature",
			"type": "error"
		},
		{
			"inputs": [],
			"name": "GovernorInvalidVoteParams",
			"type": "error"
		},
		{
			"inputs": [],
			"name": "GovernorInvalidVoteType",
			"type": "error"
		},
		{
			"inputs": [
				{
					"internalType": "uint256",
					"name": "votingPeriod",
					"type": "uint256"
				}
			],
			"name": "GovernorInvalidVotingPeriod",
			"type": "error"
		},
		{
			"inputs": [
				{
					"internalType": "uint256",
					"name": "proposalId",
					"type": "uint256"
				}
			],
			"name": "GovernorNonexistentProposal",
			"type": "error"
		},
		{
			"inputs": [
				{
					"internalType": "uint256",
					"name": "proposalId",
					"type": "uint256"
				}
			],
			"name": "GovernorNotQueuedProposal",
			"type": "error"
		},
		{
			"inputs": [
				{
					"internalType": "address",
					"name": "account",
					"type": "address"
				}
			],
			"name": "GovernorOnlyExecutor",
			"type": "error"
		},
		{
			"inputs": [
				{
					"internalType": "address",
					"name": "account",
					"type": "address"
				}
			],
			"name": "GovernorOnlyProposer",
			"type": "error"
		},
		{
			"inputs": [],
			"name": "GovernorQueueNotImplemented",
			"type": "error"
		},
		{
			"inputs": [
				{
					"internalType": "address",
					"name": "proposer",
					"type": "address"
				}
			],
			"name": "GovernorRestrictedProposer",
			"type": "error"
		},
		{
			"inputs": [
				{
					"internalType": "uint256",
					"name": "proposalId",
					"type": "uint256"
				},
				{
					"internalType": "enum IGovernor.ProposalState",
					"name": "current",
					"type": "uint8"
				},
				{
					"internalType": "bytes32",
					"name": "expectedStates",
					"type": "bytes32"
				}
			],
			"name": "GovernorUnexpectedProposalState",
			"type": "error"
		},
		{
			"inputs": [
				{
					"internalType": "address",
					"name": "account",
					"type": "address"
				},
				{
					"internalType": "uint256",
					"name": "currentNonce",
					"type": "uint256"
				}
			],
			"name": "InvalidAccountNonce",
			"type": "error"
		},
		{
			"inputs": [],
			"name": "InvalidShortString",
			"type": "error"
		},
		{
			"inputs": [
				{
					"internalType": "uint8",
					"name": "bits",
					"type": "uint8"
				},
				{
					"internalType": "uint256",
					"name": "value",
					"type": "uint256"
				}
			],
			"name": "SafeCastOverflowedUintDowncast",
			"type": "error"
		},
		{
			"inputs": [
				{
					"internalType": "string",
					"name": "str",
					"type": "string"
				}
			],
			"name": "StringTooLong",
			"type": "error"
		},
		{
			"anonymous": false,
			"inputs": [],
			"name": "EIP712DomainChanged",
			"type": "event"
		},
		{
			"anonymous": false,
			"inputs": [
				{
					"indexed": false,
					"internalType": "uint256",
					"name": "proposalId",
					"type": "uint256"
				}
			],
			"name": "ProposalCanceled",
			"type": "event"
		},
		{
			"anonymous": false,
			"inputs": [
				{
					"indexed": false,
					"internalType": "uint256",
					"name": "proposalId",
					"type": "uint256"
				},
				{
					"indexed": false,
					"internalType": "address",
					"name": "proposer",
					"type": "address"
				},
				{
					"indexed": false,
					"internalType": "address[]",
					"name": "targets",
					"type": "address[]"
				},
				{
					"indexed": false,
					"internalType": "uint256[]",
					"name": "values",
					"type": "uint256[]"
				},
				{
					"indexed": false,
					"internalType": "string[]",
					"name": "signatures",
					"type": "string[]"
				},
				{
					"indexed": false,
					"internalType": "bytes[]",
					"name": "calldatas",
					"type": "bytes[]"
				},
				{
					"indexed": false,
					"internalType": "uint256",
					"name": "voteStart",
					"type": "uint256"
				},
				{
					"indexed": false,
					"internalType": "uint256",
					"name": "voteEnd",
					"type": "uint256"
				},
				{
					"indexed": false,
					"internalType": "string",
					"name": "description",
					"type": "string"
				}
			],
			"name": "ProposalCreated",
			"type": "event"
		},
		{
			"anonymous": false,
			"inputs": [
				{
					"indexed": false,
					"internalType": "uint256",
					"name": "proposalId",
					"type": "uint256"
				}
			],
			"name": "ProposalExecuted",
			"type": "event"
		},
		{
			"anonymous": false,
			"inputs": [
				{
					"indexed": false,
					"internalType": "uint256",
					"name": "proposalId",
					"type": "uint256"
				},
				{
					"indexed": false,
					"internalType": "uint256",
					"name": "etaSeconds",
					"type": "uint256"
				}
			],
			"name": "ProposalQueued",
			"type": "event"
		},
		{
			"anonymous": false,
			"inputs": [
				{
					"indexed": false,
					"internalType": "uint256",
					"name": "oldQuorumNumerator",
					"type": "uint256"
				},
				{
					"indexed": false,
					"internalType": "uint256",
					"name": "newQuorumNumerator",
					"type": "uint256"
				}
			],
			"name": "QuorumNumeratorUpdated",
			"type": "event"
		},
		{
			"anonymous": false,
			"inputs": [
				{
					"indexed": true,
					"internalType": "address",
					"name": "voter",
					"type": "address"
				},
				{
					"indexed": false,
					"internalType": "uint256",
					"name": "proposalId",
					"type": "uint256"
				},
				{
					"indexed": false,
					"internalType": "uint8",
					"name": "support",
					"type": "uint8"
				},
				{
					"indexed": false,
					"internalType": "uint256",
					"name": "weight",
					"type": "uint256"
				},
				{
					"indexed": false,
					"internalType": "string",
					"name": "reason",
					"type": "string"
				}
			],
			"name": "VoteCast",
			"type": "event"
		},
		{
			"anonymous": false,
			"inputs": [
				{
					"indexed": true,
					"internalType": "address",
					"name": "voter",
					"type": "address"
				},
				{
					"indexed": false,
					"internalType": "uint256",
					"name": "proposalId",
					"type": "uint256"
				},
				{
					"indexed": false,
					"internalType": "uint8",
					"name": "support",
					"type": "uint8"
				},
				{
					"indexed": false,
					"internalType": "uint256",
					"name": "weight",
					"type": "uint256"
				},
				{
					"indexed": false,
					"internalType": "string",
					"name": "reason",
					"type": "string"
				},
				{
					"indexed": false,
					"internalType": "bytes",
					"name": "params",
					"type": "bytes"
				}
			],
			"name": "VoteCastWithParams",
			"type": "event"
		},
		{
			"inputs": [],
			"name": "BALLOT_TYPEHASH",
			"outputs": [
				{
					"internalType": "bytes32",
					"name": "",
					"type": "bytes32"
				}
			],
			"stateMutability": "view",
			"type": "function"
		},
		{
			"inputs": [],
			"name": "CLOCK_MODE",
			"outputs": [
				{
					"internalType": "string",
					"name": "",
					"type": "string"
				}
			],
			"stateMutability": "view",
			"type": "function"
		},
		{
			"inputs": [],
			"name": "COUNTING_MODE",
			"outputs": [
				{
					"internalType": "string",
					"name": "",
					"type": "string"
				}
			],
			"stateMutability": "pure",
			"type": "function"
		},
		{
			"inputs": [],
			"name": "EXTENDED_BALLOT_TYPEHASH",
			"outputs": [
				{
					"internalType": "bytes32",
					"name": "",
					"type": "bytes32"
				}
			],
			"stateMutability": "view",
			"type": "function"
		},
		{
			"inputs": [
				{
					"internalType": "address[]",
					"name": "targets",
					"type": "address[]"
				},
				{
					"internalType": "uint256[]",
					"name": "values",
					"type": "uint256[]"
				},
				{
					"internalType": "bytes[]",
					"name": "calldatas",
					"type": "bytes[]"
				},
				{
					"internalType": "bytes32",
					"name": "descriptionHash",
					"type": "bytes32"
				}
			],
			"name": "cancel",
			"outputs": [
				{
					"internalType": "uint256",
					"name": "",
					"type": "uint256"
				}
			],
			"stateMutability": "nonpayable",
			"type": "function"
		},
		{
			"inputs": [
				{
					"internalType": "uint256",
					"name": "proposalId",
					"type": "uint256"
				},
				{
					"internalType": "uint8",
					"name": "support",
					"type": "uint8"
				}
			],
			"name": "castVote",
			"outputs": [
				{
					"internalType": "uint256",
					"name": "",
					"type": "uint256"
				}
			],
			"stateMutability": "nonpayable",
			"type": "function"
		},
		{
			"inputs": [
				{
					"internalType": "uint256",
					"name": "proposalId",
					"type": "uint256"
				},
				{
					"internalType": "uint8",
					"name": "support",
					"type": "uint8"
				},
				{
					"internalType": "address",
					"name": "voter",
					"type": "address"
				},
				{
					"internalType": "bytes",
					"name": "signature",
					"type": "bytes"
				}
			],
			"name": "castVoteBySig",
			"outputs": [
				{
					"internalType": "uint256",
					"name": "",
					"type": "uint256"
				}
			],
			"stateMutability": "nonpayable",
			"type": "function"
		},
		{
			"inputs": [
				{
					"internalType": "uint256",
					"name": "proposalId",
					"type": "uint256"
				},
				{
					"internalType": "uint8",
					"name": "support",
					"type": "uint8"
				},
				{
					"internalType": "string",
					"name": "reason",
					"type": "string"
				}
			],
			"name": "castVoteWithReason",
			"outputs": [
				{
					"internalType": "uint256",
					"name": "",
					"type": "uint256"
				}
			],
			"stateMutability": "nonpayable",
			"type": "function"
		},
		{
			"inputs": [
				{
					"internalType": "uint256",
					"name": "proposalId",
					"type": "uint256"
				},
				{
					"internalType": "uint8",
					"name": "support",
					"type": "uint8"
				},
				{
					"internalType": "string",
					"name": "reason",
					"type": "string"
				},
				{
					"internalType": "bytes",
					"name": "params",
					"type": "bytes"
				}
			],
			"name": "castVoteWithReasonAndParams",
			"outputs": [
				{
					"internalType": "uint256",
					"name": "",
					"type": "uint256"
				}
			],
			"stateMutability": "nonpayable",
			"type": "function"
		},
		{
			"inputs": [
				{
					"internalType": "uint256",
					"name": "proposalId",
					"type": "uint256"
				},
				{
					"internalType": "uint8",
					"name": "support",
					"type": "uint8"
				},
				{
					"internalType": "address",
					"name": "voter",
					"type": "address"
				},
				{
					"internalType": "string",
					"name": "reason",
					"type": "string"
				},
				{
					"internalType": "bytes",
					"name": "params",
					"type": "bytes"
				},
				{
					"internalType": "bytes",
					"name": "signature",
					"type": "bytes"
				}
			],
			"name": "castVoteWithReasonAndParamsBySig",
			"outputs": [
				{
					"internalType": "uint256",
					"name": "",
					"type": "uint256"
				}
			],
			"stateMutability": "nonpayable",
			"type": "function"
		},
		{
			"inputs": [],
			"name": "clock",
			"outputs": [
				{
					"internalType": "uint48",
					"name": "",
					"type": "uint48"
				}
			],
			"stateMutability": "view",
			"type": "function"
		},
		{
			"inputs": [],
			"name": "eip712Domain",
			"outputs": [
				{
					"internalType": "bytes1",
					"name": "fields",
					"type": "bytes1"
				},
				{
					"internalType": "string",
					"name": "name",
					"type": "string"
				},
				{
					"internalType": "string",
					"name": "version",
					"type": "string"
				},
				{
					"internalType": "uint256",
					"name": "chainId",
					"type": "uint256"
				},
				{
					"internalType": "address",
					"name": "verifyingContract",
					"type": "address"
				},
				{
					"internalType": "bytes32",
					"name": "salt",
					"type": "bytes32"
				},
				{
					"internalType": "uint256[]",
					"name": "extensions",
					"type": "uint256[]"
				}
			],
			"stateMutability": "view",
			"type": "function"
		},
		{
			"inputs": [
				{
					"internalType": "address[]",
					"name": "targets",
					"type": "address[]"
				},
				{
					"internalType": "uint256[]",
					"name": "values",
					"type": "uint256[]"
				},
				{
					"internalType": "bytes[]",
					"name": "calldatas",
					"type": "bytes[]"
				},
				{
					"internalType": "bytes32",
					"name": "descriptionHash",
					"type": "bytes32"
				}
			],
			"name": "execute",
			"outputs": [
				{
					"internalType": "uint256",
					"name": "",
					"type": "uint256"
				}
			],
			"stateMutability": "payable",
			"type": "function"
		},
		{
			"inputs": [
				{
					"internalType": "address",
					"name": "account",
					"type": "address"
				},
				{
					"internalType": "uint256",
					"name": "timepoint",
					"type": "uint256"
				}
			],
			"name": "getVotes",
			"outputs": [
				{
					"internalType": "uint256",
					"name": "",
					"type": "uint256"
				}
			],
			"stateMutability": "view",
			"type": "function"
		},
		{
			"inputs": [
				{
					"internalType": "address",
					"name": "account",
					"type": "address"
				},
				{
					"internalType": "uint256",
					"name": "timepoint",
					"type": "uint256"
				},
				{
					"internalType": "bytes",
					"name": "params",
					"type": "bytes"
				}
			],
			"name": "getVotesWithParams",
			"outputs": [
				{
					"internalType": "uint256",
					"name": "",
					"type": "uint256"
				}
			],
			"stateMutability": "view",
			"type": "function"
		},
		{
			"inputs": [
				{
					"internalType": "uint256",
					"name": "proposalId",
					"type": "uint256"
				},
				{
					"internalType": "address",
					"name": "account",
					"type": "address"
				}
			],
			"name": "hasVoted",
			"outputs": [
				{
					"internalType": "bool",
					"name": "",
					"type": "bool"
				}
			],
			"stateMutability": "view",
			"type": "function"
		},
		{
			"inputs": [
				{
					"internalType": "address[]",
					"name": "targets",
					"type": "address[]"
				},
				{
					"internalType": "uint256[]",
					"name": "values",
					"type": "uint256[]"
				},
				{
					"internalType": "bytes[]",
					"name": "calldatas",
					"type": "bytes[]"
				},
				{
					"internalType": "bytes32",
					"name": "descriptionHash",
					"type": "bytes32"
				}
			],
			"name": "hashProposal",
			"outputs": [
				{
					"internalType": "uint256",
					"name": "",
					"type": "uint256"
				}
			],
			"stateMutability": "pure",
			"type": "function"
		},
		{
			"inputs": [],
			"name": "name",
			"outputs": [
				{
					"internalType": "string",
					"name": "",
					"type": "string"
				}
			],
			"stateMutability": "view",
			"type": "function"
		},
		{
			"inputs": [
				{
					"internalType": "address",
					"name": "owner",
					"type": "address"
				}
			],
			"name": "nonces",
			"outputs": [
				{
					"internalType": "uint256",
					"name": "",
					"type": "uint256"
				}
			],
			"stateMutability": "view",
			"type": "function"
		},
		{
			"inputs": [
				{
					"internalType": "address",
					"name": "",
					"type": "address"
				},
				{
					"internalType": "address",
					"name": "",
					"type": "address"
				},
				{
					"internalType": "uint256[]",
					"name": "",
					"type": "uint256[]"
				},
				{
					"internalType": "uint256[]",
					"name": "",
					"type": "uint256[]"
				},
				{
					"internalType": "bytes",
					"name": "",
					"type": "bytes"
				}
			],
			"name": "onERC1155BatchReceived",
			"outputs": [
				{
					"internalType": "bytes4",
					"name": "",
					"type": "bytes4"
				}
			],
			"stateMutability": "nonpayable",
			"type": "function"
		},
		{
			"inputs": [
				{
					"internalType": "address",
					"name": "",
					"type": "address"
				},
				{
					"internalType": "address",
					"name": "",
					"type": "address"
				},
				{
					"internalType": "uint256",
					"name": "",
					"type": "uint256"
				},
				{
					"internalType": "uint256",
					"name": "",
					"type": "uint256"
				},
				{
					"internalType": "bytes",
					"name": "",
					"type": "bytes"
				}
			],
			"name": "onERC1155Received",
			"outputs": [
				{
					"internalType": "bytes4",
					"name": "",
					"type": "bytes4"
				}
			],
			"stateMutability": "nonpayable",
			"type": "function"
		},
		{
			"inputs": [
				{
					"internalType": "address",
					"name": "",
					"type": "address"
				},
				{
					"internalType": "address",
					"name": "",
					"type": "address"
				},
				{
					"internalType": "uint256",
					"name": "",
					"type": "uint256"
				},
				{
					"internalType": "bytes",
					"name": "",
					"type": "bytes"
				}
			],
			"name": "onERC721Received",
			"outputs": [
				{
					"internalType": "bytes4",
					"name": "",
					"type": "bytes4"
				}
			],
			"stateMutability": "nonpayable",
			"type": "function"
		},
		{
			"inputs": [
				{
					"internalType": "uint256",
					"name": "proposalId",
					"type": "uint256"
				}
			],
			"name": "proposalDeadline",
			"outputs": [
				{
					"internalType": "uint256",
					"name": "",
					"type": "uint256"
				}
			],
			"stateMutability": "view",
			"type": "function"
		},
		{
			"inputs": [
				{
					"internalType": "uint256",
					"name": "proposalId",
					"type": "uint256"
				}
			],
			"name": "proposalEta",
			"outputs": [
				{
					"internalType": "uint256",
					"name": "",
					"type": "uint256"
				}
			],
			"stateMutability": "view",
			"type": "function"
		},
		{
			"inputs": [
				{
					"internalType": "uint256",
					"name": "",
					"type": "uint256"
				}
			],
			"name": "proposalNeedsQueuing",
			"outputs": [
				{
					"internalType": "bool",
					"name": "",
					"type": "bool"
				}
			],
			"stateMutability": "view",
			"type": "function"
		},
		{
			"inputs": [
				{
					"internalType": "uint256",
					"name": "proposalId",
					"type": "uint256"
				}
			],
			"name": "proposalProposer",
			"outputs": [
				{
					"internalType": "address",
					"name": "",
					"type": "address"
				}
			],
			"stateMutability": "view",
			"type": "function"
		},
		{
			"inputs": [
				{
					"internalType": "uint256",
					"name": "proposalId",
					"type": "uint256"
				}
			],
			"name": "proposalSnapshot",
			"outputs": [
				{
					"internalType": "uint256",
					"name": "",
					"type": "uint256"
				}
			],
			"stateMutability": "view",
			"type": "function"
		},
		{
			"inputs": [],
			"name": "proposalThreshold",
			"outputs": [
				{
					"internalType": "uint256",
					"name": "",
					"type": "uint256"
				}
			],
			"stateMutability": "pure",
			"type": "function"
		},
		{
			"inputs": [
				{
					"internalType": "uint256",
					"name": "proposalId",
					"type": "uint256"
				}
			],
			"name": "proposalVotes",
			"outputs": [
				{
					"internalType": "uint256",
					"name": "againstVotes",
					"type": "uint256"
				},
				{
					"internalType": "uint256",
					"name": "forVotes",
					"type": "uint256"
				},
				{
					"internalType": "uint256",
					"name": "abstainVotes",
					"type": "uint256"
				}
			],
			"stateMutability": "view",
			"type": "function"
		},
		{
			"inputs": [
				{
					"internalType": "address[]",
					"name": "targets",
					"type": "address[]"
				},
				{
					"internalType": "uint256[]",
					"name": "values",
					"type": "uint256[]"
				},
				{
					"internalType": "bytes[]",
					"name": "calldatas",
					"type": "bytes[]"
				},
				{
					"internalType": "string",
					"name": "description",
					"type": "string"
				}
			],
			"name": "propose",
			"outputs": [
				{
					"internalType": "uint256",
					"name": "",
					"type": "uint256"
				}
			],
			"stateMutability": "nonpayable",
			"type": "function"
		},
		{
			"inputs": [
				{
					"internalType": "address[]",
					"name": "targets",
					"type": "address[]"
				},
				{
					"internalType": "uint256[]",
					"name": "values",
					"type": "uint256[]"
				},
				{
					"internalType": "bytes[]",
					"name": "calldatas",
					"type": "bytes[]"
				},
				{
					"internalType": "bytes32",
					"name": "descriptionHash",
					"type": "bytes32"
				}
			],
			"name": "queue",
			"outputs": [
				{
					"internalType": "uint256",
					"name": "",
					"type": "uint256"
				}
			],
			"stateMutability": "nonpayable",
			"type": "function"
		},
		{
			"inputs": [
				{
					"internalType": "uint256",
					"name": "timepoint",
					"type": "uint256"
				}
			],
			"name": "quorum",
			"outputs": [
				{
					"internalType": "uint256",
					"name": "",
					"type": "uint256"
				}
			],
			"stateMutability": "view",
			"type": "function"
		},
		{
			"inputs": [],
			"name": "quorumDenominator",
			"outputs": [
				{
					"internalType": "uint256",
					"name": "",
					"type": "uint256"
				}
			],
			"stateMutability": "view",
			"type": "function"
		},
		{
			"inputs": [
				{
					"internalType": "uint256",
					"name": "timepoint",
					"type": "uint256"
				}
			],
			"name": "quorumNumerator",
			"outputs": [
				{
					"internalType": "uint256",
					"name": "",
					"type": "uint256"
				}
			],
			"stateMutability": "view",
			"type": "function"
		},
		{
			"inputs": [],
			"name": "quorumNumerator",
			"outputs": [
				{
					"internalType": "uint256",
					"name": "",
					"type": "uint256"
				}
			],
			"stateMutability": "view",
			"type": "function"
		},
		{
			"inputs": [
				{
					"internalType": "address",
					"name": "target",
					"type": "address"
				},
				{
					"internalType": "uint256",
					"name": "value",
					"type": "uint256"
				},
				{
					"internalType": "bytes",
					"name": "data",
					"type": "bytes"
				}
			],
			"name": "relay",
			"outputs": [],
			"stateMutability": "payable",
			"type": "function"
		},
		{
			"inputs": [
				{
					"internalType": "uint256",
					"name": "proposalId",
					"type": "uint256"
				}
			],
			"name": "state",
			"outputs": [
				{
					"internalType": "enum IGovernor.ProposalState",
					"name": "",
					"type": "uint8"
				}
			],
			"stateMutability": "view",
			"type": "function"
		},
		{
			"inputs": [
				{
					"internalType": "bytes4",
					"name": "interfaceId",
					"type": "bytes4"
				}
			],
			"name": "supportsInterface",
			"outputs": [
				{
					"internalType": "bool",
					"name": "",
					"type": "bool"
				}
			],
			"stateMutability": "view",
			"type": "function"
		},
		{
			"inputs": [],
			"name": "token",
			"outputs": [
				{
					"internalType": "contract IERC5805",
					"name": "",
					"type": "address"
				}
			],
			"stateMutability": "view",
			"type": "function"
		},
		{
			"inputs": [
				{
					"internalType": "uint256",
					"name": "newQuorumNumerator",
					"type": "uint256"
				}
			],
			"name": "updateQuorumNumerator",
			"outputs": [],
			"stateMutability": "nonpayable",
			"type": "function"
		},
		{
			"inputs": [],
			"name": "version",
			"outputs": [
				{
					"internalType": "string",
					"name": "",
					"type": "string"
				}
			],
			"stateMutability": "view",
			"type": "function"
		},
		{
			"inputs": [],
			"name": "votingDelay",
			"outputs": [
				{
					"internalType": "uint256",
					"name": "",
					"type": "uint256"
				}
			],
			"stateMutability": "pure",
			"type": "function"
		},
		{
			"inputs": [],
			"name": "votingPeriod",
			"outputs": [
				{
					"internalType": "uint256",
					"name": "",
					"type": "uint256"
				}
			],
			"stateMutability": "pure",
			"type": "function"
		},
		{
			"stateMutability": "payable",
			"type": "receive"
		}
	]
}