{
	"contracts/AMM.sol": {
		"ConstantProductAMM": {
			"abi": [
				{
					"inputs": [
						{
							"internalType": "contract IERC20",
							"name": "_token0",
							"type": "address"
						},
						{
							"internalType": "contract IERC20",
							"name": "_token1",
							"type": "address"
						}
					],
					"stateMutability": "nonpayable",
					"type": "constructor"
				},
				{
					"anonymous": false,
					"inputs": [
						{
							"indexed": true,
							"internalType": "address",
							"name": "provider",
							"type": "address"
						},
						{
							"indexed": false,
							"internalType": "uint256",
							"name": "amount0",
							"type": "uint256"
						},
						{
							"indexed": false,
							"internalType": "uint256",
							"name": "amount1",
							"type": "uint256"
						},
						{
							"indexed": false,
							"internalType": "uint256",
							"name": "liquidity",
							"type": "uint256"
						}
					],
					"name": "AddLiquidity",
					"type": "event"
				},
				{
					"anonymous": false,
					"inputs": [
						{
							"indexed": true,
							"internalType": "address",
							"name": "provider",
							"type": "address"
						},
						{
							"indexed": false,
							"internalType": "uint256",
							"name": "amount0",
							"type": "uint256"
						},
						{
							"indexed": false,
							"internalType": "uint256",
							"name": "amount1",
							"type": "uint256"
						},
						{
							"indexed": false,
							"internalType": "uint256",
							"name": "liquidity",
							"type": "uint256"
						}
					],
					"name": "RemoveLiquidity",
					"type": "event"
				},
				{
					"anonymous": false,
					"inputs": [
						{
							"indexed": true,
							"internalType": "address",
							"name": "trader",
							"type": "address"
						},
						{
							"indexed": false,
							"internalType": "contract IERC20",
							"name": "inputToken",
							"type": "address"
						},
						{
							"indexed": false,
							"internalType": "uint256",
							"name": "inputAmount",
							"type": "uint256"
						},
						{
							"indexed": false,
							"internalType": "uint256",
							"name": "outputAmount",
							"type": "uint256"
						}
					],
					"name": "Swap",
					"type": "event"
				},
				{
					"inputs": [
						{
							"internalType": "uint256",
							"name": "amount0",
							"type": "uint256"
						},
						{
							"internalType": "uint256",
							"name": "amount1",
							"type": "uint256"
						}
					],
					"name": "addLiquidity",
					"outputs": [],
					"stateMutability": "nonpayable",
					"type": "function"
				},
				{
					"inputs": [
						{
							"internalType": "address",
							"name": "",
							"type": "address"
						}
					],
					"name": "balanceOf",
					"outputs": [
						{
							"internalType": "uint256",
							"name": "",
							"type": "uint256"
						}
					],
					"stateMutability": "view",
					"type": "function"
				},
				{
					"inputs": [
						{
							"internalType": "uint256",
							"name": "liquidity",
							"type": "uint256"
						}
					],
					"name": "removeLiquidity",
					"outputs": [],
					"stateMutability": "nonpayable",
					"type": "function"
				},
				{
					"inputs": [],
					"name": "reserve0",
					"outputs": [
						{
							"internalType": "uint256",
							"name": "",
							"type": "uint256"
						}
					],
					"stateMutability": "view",
					"type": "function"
				},
				{
					"inputs": [],
					"name": "reserve1",
					"outputs": [
						{
							"internalType": "uint256",
							"name": "",
							"type": "uint256"
						}
					],
					"stateMutability": "view",
					"type": "function"
				},
				{
					"inputs": [
						{
							"internalType": "contract IERC20",
							"name": "inputToken",
							"type": "address"
						},
						{
							"internalType": "uint256",
							"name": "inputAmount",
							"type": "uint256"
						}
					],
					"name": "swap",
					"outputs": [],
					"stateMutability": "nonpayable",
					"type": "function"
				},
				{
					"inputs": [],
					"name": "token0",
					"outputs": [
						{
							"internalType": "contract IERC20",
							"name": "",
							"type": "address"
						}
					],
					"stateMutability": "view",
					"type": "function"
				},
				{
					"inputs": [],
					"name": "token1",
					"outputs": [
						{
							"internalType": "contract IERC20",
							"name": "",
							"type": "address"
						}
					],
					"stateMutability": "view",
					"type": "function"
				},
				{
					"inputs": [],
					"name": "totalSupply",
					"outputs": [
						{
							"internalType": "uint256",
							"name": "",
							"type": "uint256"
						}
					],
					"stateMutability": "view",
					"type": "function"
				}
			],
			"devdoc": {
				"kind": "dev",
				"methods": {},
				"version": 1
			},
			"evm": {
				"assembly": "    /* \"contracts/AMM.sol\":116:4711  contract ConstantProductAMM {... */\n  mstore(0x40, 0x80)\n    /* \"contracts/AMM.sol\":771:874  constructor(IERC20 _token0, IERC20 _token1) {... */\n  callvalue\n  dup1\n  iszero\n  tag_1\n  jumpi\n  0x00\n  dup1\n  revert\ntag_1:\n  pop\n  mload(0x40)\n  sub(codesize, bytecodeSize)\n  dup1\n  bytecodeSize\n  dup4\n  codecopy\n  dup2\n  dup2\n  add\n  0x40\n  mstore\n  dup2\n  add\n  swap1\n  tag_2\n  swap2\n  swap1\n  tag_3\n  jump\t// in\ntag_2:\n    /* \"contracts/AMM.sol\":834:841  _token0 */\n  dup2\n    /* \"contracts/AMM.sol\":825:831  token0 */\n  0x00\n  dup1\n    /* \"contracts/AMM.sol\":825:841  token0 = _token0 */\n  0x0100\n  exp\n  dup2\n  sload\n  dup2\n  0xffffffffffffffffffffffffffffffffffffffff\n  mul\n  not\n  and\n  swap1\n  dup4\n  0xffffffffffffffffffffffffffffffffffffffff\n  and\n  mul\n  or\n  swap1\n  sstore\n  pop\n    /* \"contracts/AMM.sol\":860:867  _token1 */\n  dup1\n    /* \"contracts/AMM.sol\":851:857  token1 */\n  0x01\n  0x00\n    /* \"contracts/AMM.sol\":851:867  token1 = _token1 */\n  0x0100\n  exp\n  dup2\n  sload\n  dup2\n  0xffffffffffffffffffffffffffffffffffffffff\n  mul\n  not\n  and\n  swap1\n  dup4\n  0xffffffffffffffffffffffffffffffffffffffff\n  and\n  mul\n  or\n  swap1\n  sstore\n  pop\n    /* \"contracts/AMM.sol\":771:874  constructor(IERC20 _token0, IERC20 _token1) {... */\n  pop\n  pop\n    /* \"contracts/AMM.sol\":116:4711  contract ConstantProductAMM {... */\n  jump(tag_6)\n    /* \"#utility.yul\":88:205   */\ntag_8:\n    /* \"#utility.yul\":197:198   */\n  0x00\n    /* \"#utility.yul\":194:195   */\n  dup1\n    /* \"#utility.yul\":187:199   */\n  revert\n    /* \"#utility.yul\":334:460   */\ntag_10:\n    /* \"#utility.yul\":371:378   */\n  0x00\n    /* \"#utility.yul\":411:453   */\n  0xffffffffffffffffffffffffffffffffffffffff\n    /* \"#utility.yul\":404:409   */\n  dup3\n    /* \"#utility.yul\":400:454   */\n  and\n    /* \"#utility.yul\":389:454   */\n  swap1\n  pop\n    /* \"#utility.yul\":334:460   */\n  swap2\n  swap1\n  pop\n  jump\t// out\n    /* \"#utility.yul\":466:562   */\ntag_11:\n    /* \"#utility.yul\":503:510   */\n  0x00\n    /* \"#utility.yul\":532:556   */\n  tag_21\n    /* \"#utility.yul\":550:555   */\n  dup3\n    /* \"#utility.yul\":532:556   */\n  tag_10\n  jump\t// in\ntag_21:\n    /* \"#utility.yul\":521:556   */\n  swap1\n  pop\n    /* \"#utility.yul\":466:562   */\n  swap2\n  swap1\n  pop\n  jump\t// out\n    /* \"#utility.yul\":568:677   */\ntag_12:\n    /* \"#utility.yul\":618:625   */\n  0x00\n    /* \"#utility.yul\":647:671   */\n  tag_23\n    /* \"#utility.yul\":665:670   */\n  dup3\n    /* \"#utility.yul\":647:671   */\n  tag_11\n  jump\t// in\ntag_23:\n    /* \"#utility.yul\":636:671   */\n  swap1\n  pop\n    /* \"#utility.yul\":568:677   */\n  swap2\n  swap1\n  pop\n  jump\t// out\n    /* \"#utility.yul\":683:831   */\ntag_13:\n    /* \"#utility.yul\":769:806   */\n  tag_25\n    /* \"#utility.yul\":800:805   */\n  dup2\n    /* \"#utility.yul\":769:806   */\n  tag_12\n  jump\t// in\ntag_25:\n    /* \"#utility.yul\":762:767   */\n  dup2\n    /* \"#utility.yul\":759:807   */\n  eq\n    /* \"#utility.yul\":749:825   */\n  tag_26\n  jumpi\n    /* \"#utility.yul\":821:822   */\n  0x00\n    /* \"#utility.yul\":818:819   */\n  dup1\n    /* \"#utility.yul\":811:823   */\n  revert\n    /* \"#utility.yul\":749:825   */\ntag_26:\n    /* \"#utility.yul\":683:831   */\n  pop\n  jump\t// out\n    /* \"#utility.yul\":837:1006   */\ntag_14:\n    /* \"#utility.yul\":907:912   */\n  0x00\n    /* \"#utility.yul\":938:944   */\n  dup2\n    /* \"#utility.yul\":932:945   */\n  mload\n    /* \"#utility.yul\":923:945   */\n  swap1\n  pop\n    /* \"#utility.yul\":954:1000   */\n  tag_28\n    /* \"#utility.yul\":994:999   */\n  dup2\n    /* \"#utility.yul\":954:1000   */\n  tag_13\n  jump\t// in\ntag_28:\n    /* \"#utility.yul\":837:1006   */\n  swap3\n  swap2\n  pop\n  pop\n  jump\t// out\n    /* \"#utility.yul\":1012:1571   */\ntag_3:\n    /* \"#utility.yul\":1117:1123   */\n  0x00\n    /* \"#utility.yul\":1125:1131   */\n  dup1\n    /* \"#utility.yul\":1174:1176   */\n  0x40\n    /* \"#utility.yul\":1162:1171   */\n  dup4\n    /* \"#utility.yul\":1153:1160   */\n  dup6\n    /* \"#utility.yul\":1149:1172   */\n  sub\n    /* \"#utility.yul\":1145:1177   */\n  slt\n    /* \"#utility.yul\":1142:1261   */\n  iszero\n  tag_30\n  jumpi\n    /* \"#utility.yul\":1180:1259   */\n  tag_31\n  tag_8\n  jump\t// in\ntag_31:\n    /* \"#utility.yul\":1142:1261   */\ntag_30:\n    /* \"#utility.yul\":1300:1301   */\n  0x00\n    /* \"#utility.yul\":1325:1402   */\n  tag_32\n    /* \"#utility.yul\":1394:1401   */\n  dup6\n    /* \"#utility.yul\":1385:1391   */\n  dup3\n    /* \"#utility.yul\":1374:1383   */\n  dup7\n    /* \"#utility.yul\":1370:1392   */\n  add\n    /* \"#utility.yul\":1325:1402   */\n  tag_14\n  jump\t// in\ntag_32:\n    /* \"#utility.yul\":1315:1402   */\n  swap3\n  pop\n    /* \"#utility.yul\":1271:1412   */\n  pop\n    /* \"#utility.yul\":1451:1453   */\n  0x20\n    /* \"#utility.yul\":1477:1554   */\n  tag_33\n    /* \"#utility.yul\":1546:1553   */\n  dup6\n    /* \"#utility.yul\":1537:1543   */\n  dup3\n    /* \"#utility.yul\":1526:1535   */\n  dup7\n    /* \"#utility.yul\":1522:1544   */\n  add\n    /* \"#utility.yul\":1477:1554   */\n  tag_14\n  jump\t// in\ntag_33:\n    /* \"#utility.yul\":1467:1554   */\n  swap2\n  pop\n    /* \"#utility.yul\":1422:1564   */\n  pop\n    /* \"#utility.yul\":1012:1571   */\n  swap3\n  pop\n  swap3\n  swap1\n  pop\n  jump\t// out\n    /* \"contracts/AMM.sol\":116:4711  contract ConstantProductAMM {... */\ntag_6:\n  dataSize(sub_0)\n  dup1\n  dataOffset(sub_0)\n  0x00\n  codecopy\n  0x00\n  return\nstop\n\nsub_0: assembly {\n        /* \"contracts/AMM.sol\":116:4711  contract ConstantProductAMM {... */\n      mstore(0x40, 0x80)\n      callvalue\n      dup1\n      iszero\n      tag_1\n      jumpi\n      0x00\n      dup1\n      revert\n    tag_1:\n      pop\n      jumpi(tag_2, lt(calldatasize, 0x04))\n      shr(0xe0, calldataload(0x00))\n      dup1\n      0x70a08231\n      gt\n      tag_12\n      jumpi\n      dup1\n      0x70a08231\n      eq\n      tag_7\n      jumpi\n      dup1\n      0x9c8f9f23\n      eq\n      tag_8\n      jumpi\n      dup1\n      0x9cd441da\n      eq\n      tag_9\n      jumpi\n      dup1\n      0xd004f0f7\n      eq\n      tag_10\n      jumpi\n      dup1\n      0xd21220a7\n      eq\n      tag_11\n      jumpi\n      jump(tag_2)\n    tag_12:\n      dup1\n      0x0dfe1681\n      eq\n      tag_3\n      jumpi\n      dup1\n      0x18160ddd\n      eq\n      tag_4\n      jumpi\n      dup1\n      0x443cb4bc\n      eq\n      tag_5\n      jumpi\n      dup1\n      0x5a76f25e\n      eq\n      tag_6\n      jumpi\n    tag_2:\n      0x00\n      dup1\n      revert\n        /* \"contracts/AMM.sol\":150:170  IERC20 public token0 */\n    tag_3:\n      tag_13\n      tag_14\n      jump\t// in\n    tag_13:\n      mload(0x40)\n      tag_15\n      swap2\n      swap1\n      tag_16\n      jump\t// in\n    tag_15:\n      mload(0x40)\n      dup1\n      swap2\n      sub\n      swap1\n      return\n        /* \"contracts/AMM.sol\":302:328  uint256 public totalSupply */\n    tag_4:\n      tag_17\n      tag_18\n      jump\t// in\n    tag_17:\n      mload(0x40)\n      tag_19\n      swap2\n      swap1\n      tag_20\n      jump\t// in\n    tag_19:\n      mload(0x40)\n      dup1\n      swap2\n      sub\n      swap1\n      return\n        /* \"contracts/AMM.sol\":203:226  uint256 public reserve0 */\n    tag_5:\n      tag_21\n      tag_22\n      jump\t// in\n    tag_21:\n      mload(0x40)\n      tag_23\n      swap2\n      swap1\n      tag_20\n      jump\t// in\n    tag_23:\n      mload(0x40)\n      dup1\n      swap2\n      sub\n      swap1\n      return\n        /* \"contracts/AMM.sol\":252:275  uint256 public reserve1 */\n    tag_6:\n      tag_24\n      tag_25\n      jump\t// in\n    tag_24:\n      mload(0x40)\n      tag_26\n      swap2\n      swap1\n      tag_20\n      jump\t// in\n    tag_26:\n      mload(0x40)\n      dup1\n      swap2\n      sub\n      swap1\n      return\n        /* \"contracts/AMM.sol\":359:403  mapping(address => uint256) public balanceOf */\n    tag_7:\n      tag_27\n      0x04\n      dup1\n      calldatasize\n      sub\n      dup2\n      add\n      swap1\n      tag_28\n      swap2\n      swap1\n      tag_29\n      jump\t// in\n    tag_28:\n      tag_30\n      jump\t// in\n    tag_27:\n      mload(0x40)\n      tag_31\n      swap2\n      swap1\n      tag_20\n      jump\t// in\n    tag_31:\n      mload(0x40)\n      dup1\n      swap2\n      sub\n      swap1\n      return\n        /* \"contracts/AMM.sol\":3342:4104  function removeLiquidity(uint256 liquidity) external {... */\n    tag_8:\n      tag_32\n      0x04\n      dup1\n      calldatasize\n      sub\n      dup2\n      add\n      swap1\n      tag_33\n      swap2\n      swap1\n      tag_34\n      jump\t// in\n    tag_33:\n      tag_35\n      jump\t// in\n    tag_32:\n      stop\n        /* \"contracts/AMM.sol\":880:1870  function addLiquidity(uint256 amount0, uint256 amount1) external {... */\n    tag_9:\n      tag_36\n      0x04\n      dup1\n      calldatasize\n      sub\n      dup2\n      add\n      swap1\n      tag_37\n      swap2\n      swap1\n      tag_38\n      jump\t// in\n    tag_37:\n      tag_39\n      jump\t// in\n    tag_36:\n      stop\n        /* \"contracts/AMM.sol\":1876:3336  function swap(IERC20 inputToken, uint256 inputAmount) external {... */\n    tag_10:\n      tag_40\n      0x04\n      dup1\n      calldatasize\n      sub\n      dup2\n      add\n      swap1\n      tag_41\n      swap2\n      swap1\n      tag_42\n      jump\t// in\n    tag_41:\n      tag_43\n      jump\t// in\n    tag_40:\n      stop\n        /* \"contracts/AMM.sol\":176:196  IERC20 public token1 */\n    tag_11:\n      tag_44\n      tag_45\n      jump\t// in\n    tag_44:\n      mload(0x40)\n      tag_46\n      swap2\n      swap1\n      tag_16\n      jump\t// in\n    tag_46:\n      mload(0x40)\n      dup1\n      swap2\n      sub\n      swap1\n      return\n        /* \"contracts/AMM.sol\":150:170  IERC20 public token0 */\n    tag_14:\n      0x00\n      dup1\n      sload\n      swap1\n      0x0100\n      exp\n      swap1\n      div\n      0xffffffffffffffffffffffffffffffffffffffff\n      and\n      dup2\n      jump\t// out\n        /* \"contracts/AMM.sol\":302:328  uint256 public totalSupply */\n    tag_18:\n      sload(0x04)\n      dup2\n      jump\t// out\n        /* \"contracts/AMM.sol\":203:226  uint256 public reserve0 */\n    tag_22:\n      sload(0x02)\n      dup2\n      jump\t// out\n        /* \"contracts/AMM.sol\":252:275  uint256 public reserve1 */\n    tag_25:\n      sload(0x03)\n      dup2\n      jump\t// out\n        /* \"contracts/AMM.sol\":359:403  mapping(address => uint256) public balanceOf */\n    tag_30:\n      mstore(0x20, 0x05)\n      dup1\n      0x00\n      mstore\n      keccak256(0x00, 0x40)\n      0x00\n      swap2\n      pop\n      swap1\n      pop\n      sload\n      dup2\n      jump\t// out\n        /* \"contracts/AMM.sol\":3342:4104  function removeLiquidity(uint256 liquidity) external {... */\n    tag_35:\n        /* \"contracts/AMM.sol\":3425:3426  0 */\n      0x00\n        /* \"contracts/AMM.sol\":3413:3422  liquidity */\n      dup2\n        /* \"contracts/AMM.sol\":3413:3426  liquidity > 0 */\n      gt\n        /* \"contracts/AMM.sol\":3413:3464  liquidity > 0 && balanceOf[msg.sender] >= liquidity */\n      dup1\n      iszero\n      tag_48\n      jumpi\n      pop\n        /* \"contracts/AMM.sol\":3455:3464  liquidity */\n      dup1\n        /* \"contracts/AMM.sol\":3430:3439  balanceOf */\n      0x05\n        /* \"contracts/AMM.sol\":3430:3451  balanceOf[msg.sender] */\n      0x00\n        /* \"contracts/AMM.sol\":3440:3450  msg.sender */\n      caller\n        /* \"contracts/AMM.sol\":3430:3451  balanceOf[msg.sender] */\n      0xffffffffffffffffffffffffffffffffffffffff\n      and\n      0xffffffffffffffffffffffffffffffffffffffff\n      and\n      dup2\n      mstore\n      0x20\n      add\n      swap1\n      dup2\n      mstore\n      0x20\n      add\n      0x00\n      keccak256\n      sload\n        /* \"contracts/AMM.sol\":3430:3464  balanceOf[msg.sender] >= liquidity */\n      lt\n      iszero\n        /* \"contracts/AMM.sol\":3413:3464  liquidity > 0 && balanceOf[msg.sender] >= liquidity */\n    tag_48:\n        /* \"contracts/AMM.sol\":3405:3493  require(liquidity > 0 && balanceOf[msg.sender] >= liquidity, \"Invalid liquidity amount\") */\n      tag_49\n      jumpi\n      mload(0x40)\n      0x08c379a000000000000000000000000000000000000000000000000000000000\n      dup2\n      mstore\n      0x04\n      add\n      tag_50\n      swap1\n      tag_51\n      jump\t// in\n    tag_50:\n      mload(0x40)\n      dup1\n      swap2\n      sub\n      swap1\n      revert\n    tag_49:\n        /* \"contracts/AMM.sol\":3505:3520  uint256 amount0 */\n      0x00\n        /* \"contracts/AMM.sol\":3548:3559  totalSupply */\n      sload(0x04)\n        /* \"contracts/AMM.sol\":3535:3544  liquidity */\n      dup3\n        /* \"contracts/AMM.sol\":3524:3532  reserve0 */\n      sload(0x02)\n        /* \"contracts/AMM.sol\":3524:3544  reserve0 * liquidity */\n      tag_52\n      swap2\n      swap1\n      tag_53\n      jump\t// in\n    tag_52:\n        /* \"contracts/AMM.sol\":3523:3559  (reserve0 * liquidity) / totalSupply */\n      tag_54\n      swap2\n      swap1\n      tag_55\n      jump\t// in\n    tag_54:\n        /* \"contracts/AMM.sol\":3505:3559  uint256 amount0 = (reserve0 * liquidity) / totalSupply */\n      swap1\n      pop\n        /* \"contracts/AMM.sol\":3569:3584  uint256 amount1 */\n      0x00\n        /* \"contracts/AMM.sol\":3612:3623  totalSupply */\n      sload(0x04)\n        /* \"contracts/AMM.sol\":3599:3608  liquidity */\n      dup4\n        /* \"contracts/AMM.sol\":3588:3596  reserve1 */\n      sload(0x03)\n        /* \"contracts/AMM.sol\":3588:3608  reserve1 * liquidity */\n      tag_56\n      swap2\n      swap1\n      tag_53\n      jump\t// in\n    tag_56:\n        /* \"contracts/AMM.sol\":3587:3623  (reserve1 * liquidity) / totalSupply */\n      tag_57\n      swap2\n      swap1\n      tag_55\n      jump\t// in\n    tag_57:\n        /* \"contracts/AMM.sol\":3569:3623  uint256 amount1 = (reserve1 * liquidity) / totalSupply */\n      swap1\n      pop\n        /* \"contracts/AMM.sol\":3652:3653  0 */\n      0x00\n        /* \"contracts/AMM.sol\":3642:3649  amount0 */\n      dup3\n        /* \"contracts/AMM.sol\":3642:3653  amount0 > 0 */\n      gt\n        /* \"contracts/AMM.sol\":3642:3668  amount0 > 0 && amount1 > 0 */\n      dup1\n      iszero\n      tag_58\n      jumpi\n      pop\n        /* \"contracts/AMM.sol\":3667:3668  0 */\n      0x00\n        /* \"contracts/AMM.sol\":3657:3664  amount1 */\n      dup2\n        /* \"contracts/AMM.sol\":3657:3668  amount1 > 0 */\n      gt\n        /* \"contracts/AMM.sol\":3642:3668  amount0 > 0 && amount1 > 0 */\n    tag_58:\n        /* \"contracts/AMM.sol\":3634:3688  require(amount0 > 0 && amount1 > 0, \"Invalid amounts\") */\n      tag_59\n      jumpi\n      mload(0x40)\n      0x08c379a000000000000000000000000000000000000000000000000000000000\n      dup2\n      mstore\n      0x04\n      add\n      tag_60\n      swap1\n      tag_61\n      jump\t// in\n    tag_60:\n      mload(0x40)\n      dup1\n      swap2\n      sub\n      swap1\n      revert\n    tag_59:\n        /* \"contracts/AMM.sol\":3735:3742  amount0 */\n      dup2\n        /* \"contracts/AMM.sol\":3723:3731  reserve0 */\n      0x02\n      0x00\n        /* \"contracts/AMM.sol\":3723:3742  reserve0 -= amount0 */\n      dup3\n      dup3\n      sload\n      tag_62\n      swap2\n      swap1\n      tag_63\n      jump\t// in\n    tag_62:\n      swap3\n      pop\n      pop\n      dup2\n      swap1\n      sstore\n      pop\n        /* \"contracts/AMM.sol\":3764:3771  amount1 */\n      dup1\n        /* \"contracts/AMM.sol\":3752:3760  reserve1 */\n      0x03\n      0x00\n        /* \"contracts/AMM.sol\":3752:3771  reserve1 -= amount1 */\n      dup3\n      dup3\n      sload\n      tag_64\n      swap2\n      swap1\n      tag_63\n      jump\t// in\n    tag_64:\n      swap3\n      pop\n      pop\n      dup2\n      swap1\n      sstore\n      pop\n        /* \"contracts/AMM.sol\":3865:3874  liquidity */\n      dup3\n        /* \"contracts/AMM.sol\":3840:3849  balanceOf */\n      0x05\n        /* \"contracts/AMM.sol\":3840:3861  balanceOf[msg.sender] */\n      0x00\n        /* \"contracts/AMM.sol\":3850:3860  msg.sender */\n      caller\n        /* \"contracts/AMM.sol\":3840:3861  balanceOf[msg.sender] */\n      0xffffffffffffffffffffffffffffffffffffffff\n      and\n      0xffffffffffffffffffffffffffffffffffffffff\n      and\n      dup2\n      mstore\n      0x20\n      add\n      swap1\n      dup2\n      mstore\n      0x20\n      add\n      0x00\n      keccak256\n      0x00\n        /* \"contracts/AMM.sol\":3840:3874  balanceOf[msg.sender] -= liquidity */\n      dup3\n      dup3\n      sload\n      tag_65\n      swap2\n      swap1\n      tag_63\n      jump\t// in\n    tag_65:\n      swap3\n      pop\n      pop\n      dup2\n      swap1\n      sstore\n      pop\n        /* \"contracts/AMM.sol\":3899:3908  liquidity */\n      dup3\n        /* \"contracts/AMM.sol\":3884:3895  totalSupply */\n      0x04\n      0x00\n        /* \"contracts/AMM.sol\":3884:3908  totalSupply -= liquidity */\n      dup3\n      dup3\n      sload\n      tag_66\n      swap2\n      swap1\n      tag_63\n      jump\t// in\n    tag_66:\n      swap3\n      pop\n      pop\n      dup2\n      swap1\n      sstore\n      pop\n        /* \"contracts/AMM.sol\":3943:3949  token0 */\n      0x00\n      dup1\n      sload\n      swap1\n      0x0100\n      exp\n      swap1\n      div\n      0xffffffffffffffffffffffffffffffffffffffff\n      and\n        /* \"contracts/AMM.sol\":3943:3958  token0.transfer */\n      0xffffffffffffffffffffffffffffffffffffffff\n      and\n      0xa9059cbb\n        /* \"contracts/AMM.sol\":3959:3969  msg.sender */\n      caller\n        /* \"contracts/AMM.sol\":3971:3978  amount0 */\n      dup5\n        /* \"contracts/AMM.sol\":3943:3979  token0.transfer(msg.sender, amount0) */\n      mload(0x40)\n      dup4\n      0xffffffff\n      and\n      0xe0\n      shl\n      dup2\n      mstore\n      0x04\n      add\n      tag_67\n      swap3\n      swap2\n      swap1\n      tag_68\n      jump\t// in\n    tag_67:\n      0x20\n      mload(0x40)\n      dup1\n      dup4\n      sub\n      dup2\n      0x00\n      dup8\n      gas\n      call\n      iszero\n      dup1\n      iszero\n      tag_70\n      jumpi\n      returndatasize\n      0x00\n      dup1\n      returndatacopy\n      revert(0x00, returndatasize)\n    tag_70:\n      pop\n      pop\n      pop\n      pop\n      mload(0x40)\n      returndatasize\n      not(0x1f)\n      0x1f\n      dup3\n      add\n      and\n      dup3\n      add\n      dup1\n      0x40\n      mstore\n      pop\n      dup2\n      add\n      swap1\n      tag_71\n      swap2\n      swap1\n      tag_72\n      jump\t// in\n    tag_71:\n      pop\n        /* \"contracts/AMM.sol\":3989:3995  token1 */\n      0x01\n      0x00\n      swap1\n      sload\n      swap1\n      0x0100\n      exp\n      swap1\n      div\n      0xffffffffffffffffffffffffffffffffffffffff\n      and\n        /* \"contracts/AMM.sol\":3989:4004  token1.transfer */\n      0xffffffffffffffffffffffffffffffffffffffff\n      and\n      0xa9059cbb\n        /* \"contracts/AMM.sol\":4005:4015  msg.sender */\n      caller\n        /* \"contracts/AMM.sol\":4017:4024  amount1 */\n      dup4\n        /* \"contracts/AMM.sol\":3989:4025  token1.transfer(msg.sender, amount1) */\n      mload(0x40)\n      dup4\n      0xffffffff\n      and\n      0xe0\n      shl\n      dup2\n      mstore\n      0x04\n      add\n      tag_73\n      swap3\n      swap2\n      swap1\n      tag_68\n      jump\t// in\n    tag_73:\n      0x20\n      mload(0x40)\n      dup1\n      dup4\n      sub\n      dup2\n      0x00\n      dup8\n      gas\n      call\n      iszero\n      dup1\n      iszero\n      tag_75\n      jumpi\n      returndatasize\n      0x00\n      dup1\n      returndatacopy\n      revert(0x00, returndatasize)\n    tag_75:\n      pop\n      pop\n      pop\n      pop\n      mload(0x40)\n      returndatasize\n      not(0x1f)\n      0x1f\n      dup3\n      add\n      and\n      dup3\n      add\n      dup1\n      0x40\n      mstore\n      pop\n      dup2\n      add\n      swap1\n      tag_76\n      swap2\n      swap1\n      tag_72\n      jump\t// in\n    tag_76:\n      pop\n        /* \"contracts/AMM.sol\":4057:4067  msg.sender */\n      caller\n        /* \"contracts/AMM.sol\":4041:4097  RemoveLiquidity(msg.sender, amount0, amount1, liquidity) */\n      0xffffffffffffffffffffffffffffffffffffffff\n      and\n      0x59c3a0b60c6ab7deb62e1440c9e72441db6db7dfe514dba8cb18e60c0d896efa\n        /* \"contracts/AMM.sol\":4069:4076  amount0 */\n      dup4\n        /* \"contracts/AMM.sol\":4078:4085  amount1 */\n      dup4\n        /* \"contracts/AMM.sol\":4087:4096  liquidity */\n      dup7\n        /* \"contracts/AMM.sol\":4041:4097  RemoveLiquidity(msg.sender, amount0, amount1, liquidity) */\n      mload(0x40)\n      tag_77\n      swap4\n      swap3\n      swap2\n      swap1\n      tag_78\n      jump\t// in\n    tag_77:\n      mload(0x40)\n      dup1\n      swap2\n      sub\n      swap1\n      log2\n        /* \"contracts/AMM.sol\":3395:4104  {... */\n      pop\n      pop\n        /* \"contracts/AMM.sol\":3342:4104  function removeLiquidity(uint256 liquidity) external {... */\n      pop\n      jump\t// out\n        /* \"contracts/AMM.sol\":880:1870  function addLiquidity(uint256 amount0, uint256 amount1) external {... */\n    tag_39:\n        /* \"contracts/AMM.sol\":973:974  0 */\n      0x00\n        /* \"contracts/AMM.sol\":963:970  amount0 */\n      dup3\n        /* \"contracts/AMM.sol\":963:974  amount0 > 0 */\n      gt\n        /* \"contracts/AMM.sol\":963:989  amount0 > 0 && amount1 > 0 */\n      dup1\n      iszero\n      tag_80\n      jumpi\n      pop\n        /* \"contracts/AMM.sol\":988:989  0 */\n      0x00\n        /* \"contracts/AMM.sol\":978:985  amount1 */\n      dup2\n        /* \"contracts/AMM.sol\":978:989  amount1 > 0 */\n      gt\n        /* \"contracts/AMM.sol\":963:989  amount0 > 0 && amount1 > 0 */\n    tag_80:\n        /* \"contracts/AMM.sol\":955:1009  require(amount0 > 0 && amount1 > 0, \"Invalid amounts\") */\n      tag_81\n      jumpi\n      mload(0x40)\n      0x08c379a000000000000000000000000000000000000000000000000000000000\n      dup2\n      mstore\n      0x04\n      add\n      tag_82\n      swap1\n      tag_61\n      jump\t// in\n    tag_82:\n      mload(0x40)\n      dup1\n      swap2\n      sub\n      swap1\n      revert\n    tag_81:\n        /* \"contracts/AMM.sol\":1062:1068  token0 */\n      0x00\n      dup1\n      sload\n      swap1\n      0x0100\n      exp\n      swap1\n      div\n      0xffffffffffffffffffffffffffffffffffffffff\n      and\n        /* \"contracts/AMM.sol\":1062:1081  token0.transferFrom */\n      0xffffffffffffffffffffffffffffffffffffffff\n      and\n      0x23b872dd\n        /* \"contracts/AMM.sol\":1082:1092  msg.sender */\n      caller\n        /* \"contracts/AMM.sol\":1102:1106  this */\n      address\n        /* \"contracts/AMM.sol\":1109:1116  amount0 */\n      dup6\n        /* \"contracts/AMM.sol\":1062:1117  token0.transferFrom(msg.sender, address(this), amount0) */\n      mload(0x40)\n      dup5\n      0xffffffff\n      and\n      0xe0\n      shl\n      dup2\n      mstore\n      0x04\n      add\n      tag_83\n      swap4\n      swap3\n      swap2\n      swap1\n      tag_84\n      jump\t// in\n    tag_83:\n      0x20\n      mload(0x40)\n      dup1\n      dup4\n      sub\n      dup2\n      0x00\n      dup8\n      gas\n      call\n      iszero\n      dup1\n      iszero\n      tag_86\n      jumpi\n      returndatasize\n      0x00\n      dup1\n      returndatacopy\n      revert(0x00, returndatasize)\n    tag_86:\n      pop\n      pop\n      pop\n      pop\n      mload(0x40)\n      returndatasize\n      not(0x1f)\n      0x1f\n      dup3\n      add\n      and\n      dup3\n      add\n      dup1\n      0x40\n      mstore\n      pop\n      dup2\n      add\n      swap1\n      tag_87\n      swap2\n      swap1\n      tag_72\n      jump\t// in\n    tag_87:\n      pop\n        /* \"contracts/AMM.sol\":1127:1133  token1 */\n      0x01\n      0x00\n      swap1\n      sload\n      swap1\n      0x0100\n      exp\n      swap1\n      div\n      0xffffffffffffffffffffffffffffffffffffffff\n      and\n        /* \"contracts/AMM.sol\":1127:1146  token1.transferFrom */\n      0xffffffffffffffffffffffffffffffffffffffff\n      and\n      0x23b872dd\n        /* \"contracts/AMM.sol\":1147:1157  msg.sender */\n      caller\n        /* \"contracts/AMM.sol\":1167:1171  this */\n      address\n        /* \"contracts/AMM.sol\":1174:1181  amount1 */\n      dup5\n        /* \"contracts/AMM.sol\":1127:1182  token1.transferFrom(msg.sender, address(this), amount1) */\n      mload(0x40)\n      dup5\n      0xffffffff\n      and\n      0xe0\n      shl\n      dup2\n      mstore\n      0x04\n      add\n      tag_88\n      swap4\n      swap3\n      swap2\n      swap1\n      tag_84\n      jump\t// in\n    tag_88:\n      0x20\n      mload(0x40)\n      dup1\n      dup4\n      sub\n      dup2\n      0x00\n      dup8\n      gas\n      call\n      iszero\n      dup1\n      iszero\n      tag_90\n      jumpi\n      returndatasize\n      0x00\n      dup1\n      returndatacopy\n      revert(0x00, returndatasize)\n    tag_90:\n      pop\n      pop\n      pop\n      pop\n      mload(0x40)\n      returndatasize\n      not(0x1f)\n      0x1f\n      dup3\n      add\n      and\n      dup3\n      add\n      dup1\n      0x40\n      mstore\n      pop\n      dup2\n      add\n      swap1\n      tag_91\n      swap2\n      swap1\n      tag_72\n      jump\t// in\n    tag_91:\n      pop\n        /* \"contracts/AMM.sol\":1193:1210  uint256 liquidity */\n      0x00\n        /* \"contracts/AMM.sol\":1239:1240  0 */\n      dup1\n        /* \"contracts/AMM.sol\":1224:1235  totalSupply */\n      sload(0x04)\n        /* \"contracts/AMM.sol\":1224:1240  totalSupply == 0 */\n      sub\n        /* \"contracts/AMM.sol\":1220:1536  if (totalSupply == 0) {... */\n      tag_92\n      jumpi\n        /* \"contracts/AMM.sol\":1305:1328  sqrt(amount0 * amount1) */\n      tag_93\n        /* \"contracts/AMM.sol\":1320:1327  amount1 */\n      dup3\n        /* \"contracts/AMM.sol\":1310:1317  amount0 */\n      dup5\n        /* \"contracts/AMM.sol\":1310:1327  amount0 * amount1 */\n      tag_94\n      swap2\n      swap1\n      tag_53\n      jump\t// in\n    tag_94:\n        /* \"contracts/AMM.sol\":1305:1309  sqrt */\n      tag_95\n        /* \"contracts/AMM.sol\":1305:1328  sqrt(amount0 * amount1) */\n      jump\t// in\n    tag_93:\n        /* \"contracts/AMM.sol\":1293:1328  liquidity = sqrt(amount0 * amount1) */\n      swap1\n      pop\n        /* \"contracts/AMM.sol\":1220:1536  if (totalSupply == 0) {... */\n      jump(tag_96)\n    tag_92:\n        /* \"contracts/AMM.sol\":1417:1525  min(... */\n      tag_97\n        /* \"contracts/AMM.sol\":1464:1472  reserve0 */\n      sload(0x02)\n        /* \"contracts/AMM.sol\":1449:1460  totalSupply */\n      sload(0x04)\n        /* \"contracts/AMM.sol\":1439:1446  amount0 */\n      dup6\n        /* \"contracts/AMM.sol\":1439:1460  amount0 * totalSupply */\n      tag_98\n      swap2\n      swap1\n      tag_53\n      jump\t// in\n    tag_98:\n        /* \"contracts/AMM.sol\":1438:1472  (amount0 * totalSupply) / reserve0 */\n      tag_99\n      swap2\n      swap1\n      tag_55\n      jump\t// in\n    tag_99:\n        /* \"contracts/AMM.sol\":1516:1524  reserve1 */\n      sload(0x03)\n        /* \"contracts/AMM.sol\":1501:1512  totalSupply */\n      sload(0x04)\n        /* \"contracts/AMM.sol\":1491:1498  amount1 */\n      dup6\n        /* \"contracts/AMM.sol\":1491:1512  amount1 * totalSupply */\n      tag_100\n      swap2\n      swap1\n      tag_53\n      jump\t// in\n    tag_100:\n        /* \"contracts/AMM.sol\":1490:1524  (amount1 * totalSupply) / reserve1 */\n      tag_101\n      swap2\n      swap1\n      tag_55\n      jump\t// in\n    tag_101:\n        /* \"contracts/AMM.sol\":1417:1420  min */\n      tag_102\n        /* \"contracts/AMM.sol\":1417:1525  min(... */\n      jump\t// in\n    tag_97:\n        /* \"contracts/AMM.sol\":1405:1525  liquidity = min(... */\n      swap1\n      pop\n        /* \"contracts/AMM.sol\":1220:1536  if (totalSupply == 0) {... */\n    tag_96:\n        /* \"contracts/AMM.sol\":1565:1566  0 */\n      0x00\n        /* \"contracts/AMM.sol\":1553:1562  liquidity */\n      dup2\n        /* \"contracts/AMM.sol\":1553:1566  liquidity > 0 */\n      gt\n        /* \"contracts/AMM.sol\":1545:1600  require(liquidity > 0, \"Insufficient liquidity minted\") */\n      tag_103\n      jumpi\n      mload(0x40)\n      0x08c379a000000000000000000000000000000000000000000000000000000000\n      dup2\n      mstore\n      0x04\n      add\n      tag_104\n      swap1\n      tag_105\n      jump\t// in\n    tag_104:\n      mload(0x40)\n      dup1\n      swap2\n      sub\n      swap1\n      revert\n    tag_103:\n        /* \"contracts/AMM.sol\":1652:1659  amount0 */\n      dup3\n        /* \"contracts/AMM.sol\":1640:1648  reserve0 */\n      0x02\n      0x00\n        /* \"contracts/AMM.sol\":1640:1659  reserve0 += amount0 */\n      dup3\n      dup3\n      sload\n      tag_106\n      swap2\n      swap1\n      tag_107\n      jump\t// in\n    tag_106:\n      swap3\n      pop\n      pop\n      dup2\n      swap1\n      sstore\n      pop\n        /* \"contracts/AMM.sol\":1681:1688  amount1 */\n      dup2\n        /* \"contracts/AMM.sol\":1669:1677  reserve1 */\n      0x03\n      0x00\n        /* \"contracts/AMM.sol\":1669:1688  reserve1 += amount1 */\n      dup3\n      dup3\n      sload\n      tag_108\n      swap2\n      swap1\n      tag_107\n      jump\t// in\n    tag_108:\n      swap3\n      pop\n      pop\n      dup2\n      swap1\n      sstore\n      pop\n        /* \"contracts/AMM.sol\":1751:1760  liquidity */\n      dup1\n        /* \"contracts/AMM.sol\":1726:1735  balanceOf */\n      0x05\n        /* \"contracts/AMM.sol\":1726:1747  balanceOf[msg.sender] */\n      0x00\n        /* \"contracts/AMM.sol\":1736:1746  msg.sender */\n      caller\n        /* \"contracts/AMM.sol\":1726:1747  balanceOf[msg.sender] */\n      0xffffffffffffffffffffffffffffffffffffffff\n      and\n      0xffffffffffffffffffffffffffffffffffffffff\n      and\n      dup2\n      mstore\n      0x20\n      add\n      swap1\n      dup2\n      mstore\n      0x20\n      add\n      0x00\n      keccak256\n      0x00\n        /* \"contracts/AMM.sol\":1726:1760  balanceOf[msg.sender] += liquidity */\n      dup3\n      dup3\n      sload\n      tag_109\n      swap2\n      swap1\n      tag_107\n      jump\t// in\n    tag_109:\n      swap3\n      pop\n      pop\n      dup2\n      swap1\n      sstore\n      pop\n        /* \"contracts/AMM.sol\":1785:1794  liquidity */\n      dup1\n        /* \"contracts/AMM.sol\":1770:1781  totalSupply */\n      0x04\n      0x00\n        /* \"contracts/AMM.sol\":1770:1794  totalSupply += liquidity */\n      dup3\n      dup3\n      sload\n      tag_110\n      swap2\n      swap1\n      tag_107\n      jump\t// in\n    tag_110:\n      swap3\n      pop\n      pop\n      dup2\n      swap1\n      sstore\n      pop\n        /* \"contracts/AMM.sol\":1823:1833  msg.sender */\n      caller\n        /* \"contracts/AMM.sol\":1810:1863  AddLiquidity(msg.sender, amount0, amount1, liquidity) */\n      0xffffffffffffffffffffffffffffffffffffffff\n      and\n      0xbeb3885786d637a474cbc287c0a44587231633a077f0bd30354d5a4b18996fce\n        /* \"contracts/AMM.sol\":1835:1842  amount0 */\n      dup5\n        /* \"contracts/AMM.sol\":1844:1851  amount1 */\n      dup5\n        /* \"contracts/AMM.sol\":1853:1862  liquidity */\n      dup5\n        /* \"contracts/AMM.sol\":1810:1863  AddLiquidity(msg.sender, amount0, amount1, liquidity) */\n      mload(0x40)\n      tag_111\n      swap4\n      swap3\n      swap2\n      swap1\n      tag_78\n      jump\t// in\n    tag_111:\n      mload(0x40)\n      dup1\n      swap2\n      sub\n      swap1\n      log2\n        /* \"contracts/AMM.sol\":945:1870  {... */\n      pop\n        /* \"contracts/AMM.sol\":880:1870  function addLiquidity(uint256 amount0, uint256 amount1) external {... */\n      pop\n      pop\n      jump\t// out\n        /* \"contracts/AMM.sol\":1876:3336  function swap(IERC20 inputToken, uint256 inputAmount) external {... */\n    tag_43:\n        /* \"contracts/AMM.sol\":1971:1977  token0 */\n      0x00\n      dup1\n      sload\n      swap1\n      0x0100\n      exp\n      swap1\n      div\n      0xffffffffffffffffffffffffffffffffffffffff\n      and\n        /* \"contracts/AMM.sol\":1957:1977  inputToken == token0 */\n      0xffffffffffffffffffffffffffffffffffffffff\n      and\n        /* \"contracts/AMM.sol\":1957:1967  inputToken */\n      dup3\n        /* \"contracts/AMM.sol\":1957:1977  inputToken == token0 */\n      0xffffffffffffffffffffffffffffffffffffffff\n      and\n      eq\n        /* \"contracts/AMM.sol\":1957:2001  inputToken == token0 || inputToken == token1 */\n      dup1\n      tag_113\n      jumpi\n      pop\n        /* \"contracts/AMM.sol\":1995:2001  token1 */\n      0x01\n      0x00\n      swap1\n      sload\n      swap1\n      0x0100\n      exp\n      swap1\n      div\n      0xffffffffffffffffffffffffffffffffffffffff\n      and\n        /* \"contracts/AMM.sol\":1981:2001  inputToken == token1 */\n      0xffffffffffffffffffffffffffffffffffffffff\n      and\n        /* \"contracts/AMM.sol\":1981:1991  inputToken */\n      dup3\n        /* \"contracts/AMM.sol\":1981:2001  inputToken == token1 */\n      0xffffffffffffffffffffffffffffffffffffffff\n      and\n      eq\n        /* \"contracts/AMM.sol\":1957:2001  inputToken == token0 || inputToken == token1 */\n    tag_113:\n        /* \"contracts/AMM.sol\":1949:2019  require(inputToken == token0 || inputToken == token1, \"Invalid token\") */\n      tag_114\n      jumpi\n      mload(0x40)\n      0x08c379a000000000000000000000000000000000000000000000000000000000\n      dup2\n      mstore\n      0x04\n      add\n      tag_115\n      swap1\n      tag_116\n      jump\t// in\n    tag_115:\n      mload(0x40)\n      dup1\n      swap2\n      sub\n      swap1\n      revert\n    tag_114:\n        /* \"contracts/AMM.sol\":2074:2087  bool isToken0 */\n      0x00\n        /* \"contracts/AMM.sol\":2105:2111  token0 */\n      dup1\n      0x00\n      swap1\n      sload\n      swap1\n      0x0100\n      exp\n      swap1\n      div\n      0xffffffffffffffffffffffffffffffffffffffff\n      and\n        /* \"contracts/AMM.sol\":2091:2111  inputToken == token0 */\n      0xffffffffffffffffffffffffffffffffffffffff\n      and\n        /* \"contracts/AMM.sol\":2091:2101  inputToken */\n      dup4\n        /* \"contracts/AMM.sol\":2091:2111  inputToken == token0 */\n      0xffffffffffffffffffffffffffffffffffffffff\n      and\n      eq\n        /* \"contracts/AMM.sol\":2074:2112  bool isToken0 = (inputToken == token0) */\n      swap1\n      pop\n        /* \"contracts/AMM.sol\":2122:2140  IERC20 outputToken */\n      0x00\n        /* \"contracts/AMM.sol\":2143:2151  isToken0 */\n      dup2\n        /* \"contracts/AMM.sol\":2143:2169  isToken0 ? token1 : token0 */\n      tag_117\n      jumpi\n        /* \"contracts/AMM.sol\":2163:2169  token0 */\n      0x00\n      dup1\n      sload\n      swap1\n      0x0100\n      exp\n      swap1\n      div\n      0xffffffffffffffffffffffffffffffffffffffff\n      and\n        /* \"contracts/AMM.sol\":2143:2169  isToken0 ? token1 : token0 */\n      jump(tag_118)\n    tag_117:\n        /* \"contracts/AMM.sol\":2154:2160  token1 */\n      0x01\n      0x00\n      swap1\n      sload\n      swap1\n      0x0100\n      exp\n      swap1\n      div\n      0xffffffffffffffffffffffffffffffffffffffff\n      and\n        /* \"contracts/AMM.sol\":2143:2169  isToken0 ? token1 : token0 */\n    tag_118:\n        /* \"contracts/AMM.sol\":2122:2169  IERC20 outputToken = isToken0 ? token1 : token0 */\n      swap1\n      pop\n        /* \"contracts/AMM.sol\":2180:2200  uint256 inputReserve */\n      0x00\n        /* \"contracts/AMM.sol\":2203:2211  isToken0 */\n      dup3\n        /* \"contracts/AMM.sol\":2203:2233  isToken0 ? reserve0 : reserve1 */\n      tag_119\n      jumpi\n        /* \"contracts/AMM.sol\":2225:2233  reserve1 */\n      sload(0x03)\n        /* \"contracts/AMM.sol\":2203:2233  isToken0 ? reserve0 : reserve1 */\n      jump(tag_120)\n    tag_119:\n        /* \"contracts/AMM.sol\":2214:2222  reserve0 */\n      sload(0x02)\n        /* \"contracts/AMM.sol\":2203:2233  isToken0 ? reserve0 : reserve1 */\n    tag_120:\n        /* \"contracts/AMM.sol\":2180:2233  uint256 inputReserve = isToken0 ? reserve0 : reserve1 */\n      swap1\n      pop\n        /* \"contracts/AMM.sol\":2243:2264  uint256 outputReserve */\n      0x00\n        /* \"contracts/AMM.sol\":2267:2275  isToken0 */\n      dup4\n        /* \"contracts/AMM.sol\":2267:2297  isToken0 ? reserve1 : reserve0 */\n      tag_121\n      jumpi\n        /* \"contracts/AMM.sol\":2289:2297  reserve0 */\n      sload(0x02)\n        /* \"contracts/AMM.sol\":2267:2297  isToken0 ? reserve1 : reserve0 */\n      jump(tag_122)\n    tag_121:\n        /* \"contracts/AMM.sol\":2278:2286  reserve1 */\n      sload(0x03)\n        /* \"contracts/AMM.sol\":2267:2297  isToken0 ? reserve1 : reserve0 */\n    tag_122:\n        /* \"contracts/AMM.sol\":2243:2297  uint256 outputReserve = isToken0 ? reserve1 : reserve0 */\n      swap1\n      pop\n        /* \"contracts/AMM.sol\":2343:2344  0 */\n      0x00\n        /* \"contracts/AMM.sol\":2329:2340  inputAmount */\n      dup6\n        /* \"contracts/AMM.sol\":2329:2344  inputAmount > 0 */\n      gt\n        /* \"contracts/AMM.sol\":2329:2374  inputAmount > 0 && inputAmount < inputReserve */\n      dup1\n      iszero\n      tag_123\n      jumpi\n      pop\n        /* \"contracts/AMM.sol\":2362:2374  inputReserve */\n      dup2\n        /* \"contracts/AMM.sol\":2348:2359  inputAmount */\n      dup6\n        /* \"contracts/AMM.sol\":2348:2374  inputAmount < inputReserve */\n      lt\n        /* \"contracts/AMM.sol\":2329:2374  inputAmount > 0 && inputAmount < inputReserve */\n    tag_123:\n        /* \"contracts/AMM.sol\":2308:2420  require(... */\n      tag_124\n      jumpi\n      mload(0x40)\n      0x08c379a000000000000000000000000000000000000000000000000000000000\n      dup2\n      mstore\n      0x04\n      add\n      tag_125\n      swap1\n      tag_126\n      jump\t// in\n    tag_125:\n      mload(0x40)\n      dup1\n      swap2\n      sub\n      swap1\n      revert\n    tag_124:\n        /* \"contracts/AMM.sol\":2616:2637  uint256 inputAfterFee */\n      0x00\n        /* \"contracts/AMM.sol\":2662:2666  1000 */\n      0x03e8\n        /* \"contracts/AMM.sol\":2655:2658  997 */\n      0x03e5\n        /* \"contracts/AMM.sol\":2641:2652  inputAmount */\n      dup8\n        /* \"contracts/AMM.sol\":2641:2658  inputAmount * 997 */\n      tag_127\n      swap2\n      swap1\n      tag_53\n      jump\t// in\n    tag_127:\n        /* \"contracts/AMM.sol\":2640:2666  (inputAmount * 997) / 1000 */\n      tag_128\n      swap2\n      swap1\n      tag_55\n      jump\t// in\n    tag_128:\n        /* \"contracts/AMM.sol\":2616:2666  uint256 inputAfterFee = (inputAmount * 997) / 1000 */\n      swap1\n      pop\n        /* \"contracts/AMM.sol\":2676:2696  uint256 outputAmount */\n      0x00\n        /* \"contracts/AMM.sol\":2761:2774  inputAfterFee */\n      dup2\n        /* \"contracts/AMM.sol\":2746:2758  inputReserve */\n      dup5\n        /* \"contracts/AMM.sol\":2746:2774  inputReserve + inputAfterFee */\n      tag_129\n      swap2\n      swap1\n      tag_107\n      jump\t// in\n    tag_129:\n        /* \"contracts/AMM.sol\":2716:2729  outputReserve */\n      dup4\n        /* \"contracts/AMM.sol\":2700:2713  inputAfterFee */\n      dup4\n        /* \"contracts/AMM.sol\":2700:2729  inputAfterFee * outputReserve */\n      tag_130\n      swap2\n      swap1\n      tag_53\n      jump\t// in\n    tag_130:\n        /* \"contracts/AMM.sol\":2699:2775  (inputAfterFee * outputReserve) /... */\n      tag_131\n      swap2\n      swap1\n      tag_55\n      jump\t// in\n    tag_131:\n        /* \"contracts/AMM.sol\":2676:2775  uint256 outputAmount = (inputAfterFee * outputReserve) /... */\n      swap1\n      pop\n        /* \"contracts/AMM.sol\":2809:2810  0 */\n      0x00\n        /* \"contracts/AMM.sol\":2794:2806  outputAmount */\n      dup2\n        /* \"contracts/AMM.sol\":2794:2810  outputAmount > 0 */\n      gt\n        /* \"contracts/AMM.sol\":2786:2841  require(outputAmount > 0, \"Insufficient output amount\") */\n      tag_132\n      jumpi\n      mload(0x40)\n      0x08c379a000000000000000000000000000000000000000000000000000000000\n      dup2\n      mstore\n      0x04\n      add\n      tag_133\n      swap1\n      tag_134\n      jump\t// in\n    tag_133:\n      mload(0x40)\n      dup1\n      swap2\n      sub\n      swap1\n      revert\n    tag_132:\n        /* \"contracts/AMM.sol\":2882:2892  inputToken */\n      dup8\n        /* \"contracts/AMM.sol\":2882:2905  inputToken.transferFrom */\n      0xffffffffffffffffffffffffffffffffffffffff\n      and\n      0x23b872dd\n        /* \"contracts/AMM.sol\":2906:2916  msg.sender */\n      caller\n        /* \"contracts/AMM.sol\":2926:2930  this */\n      address\n        /* \"contracts/AMM.sol\":2933:2944  inputAmount */\n      dup11\n        /* \"contracts/AMM.sol\":2882:2945  inputToken.transferFrom(msg.sender, address(this), inputAmount) */\n      mload(0x40)\n      dup5\n      0xffffffff\n      and\n      0xe0\n      shl\n      dup2\n      mstore\n      0x04\n      add\n      tag_135\n      swap4\n      swap3\n      swap2\n      swap1\n      tag_84\n      jump\t// in\n    tag_135:\n      0x20\n      mload(0x40)\n      dup1\n      dup4\n      sub\n      dup2\n      0x00\n      dup8\n      gas\n      call\n      iszero\n      dup1\n      iszero\n      tag_137\n      jumpi\n      returndatasize\n      0x00\n      dup1\n      returndatacopy\n      revert(0x00, returndatasize)\n    tag_137:\n      pop\n      pop\n      pop\n      pop\n      mload(0x40)\n      returndatasize\n      not(0x1f)\n      0x1f\n      dup3\n      add\n      and\n      dup3\n      add\n      dup1\n      0x40\n      mstore\n      pop\n      dup2\n      add\n      swap1\n      tag_138\n      swap2\n      swap1\n      tag_72\n      jump\t// in\n    tag_138:\n      pop\n        /* \"contracts/AMM.sol\":2986:2997  outputToken */\n      dup5\n        /* \"contracts/AMM.sol\":2986:3006  outputToken.transfer */\n      0xffffffffffffffffffffffffffffffffffffffff\n      and\n      0xa9059cbb\n        /* \"contracts/AMM.sol\":3007:3017  msg.sender */\n      caller\n        /* \"contracts/AMM.sol\":3019:3031  outputAmount */\n      dup4\n        /* \"contracts/AMM.sol\":2986:3032  outputToken.transfer(msg.sender, outputAmount) */\n      mload(0x40)\n      dup4\n      0xffffffff\n      and\n      0xe0\n      shl\n      dup2\n      mstore\n      0x04\n      add\n      tag_139\n      swap3\n      swap2\n      swap1\n      tag_68\n      jump\t// in\n    tag_139:\n      0x20\n      mload(0x40)\n      dup1\n      dup4\n      sub\n      dup2\n      0x00\n      dup8\n      gas\n      call\n      iszero\n      dup1\n      iszero\n      tag_141\n      jumpi\n      returndatasize\n      0x00\n      dup1\n      returndatacopy\n      revert(0x00, returndatasize)\n    tag_141:\n      pop\n      pop\n      pop\n      pop\n      mload(0x40)\n      returndatasize\n      not(0x1f)\n      0x1f\n      dup3\n      add\n      and\n      dup3\n      add\n      dup1\n      0x40\n      mstore\n      pop\n      dup2\n      add\n      swap1\n      tag_142\n      swap2\n      swap1\n      tag_72\n      jump\t// in\n    tag_142:\n      pop\n        /* \"contracts/AMM.sol\":3071:3079  isToken0 */\n      dup6\n        /* \"contracts/AMM.sol\":3067:3259  if (isToken0) {... */\n      iszero\n      tag_143\n      jumpi\n        /* \"contracts/AMM.sol\":3107:3118  inputAmount */\n      dup7\n        /* \"contracts/AMM.sol\":3095:3103  reserve0 */\n      0x02\n      0x00\n        /* \"contracts/AMM.sol\":3095:3118  reserve0 += inputAmount */\n      dup3\n      dup3\n      sload\n      tag_144\n      swap2\n      swap1\n      tag_107\n      jump\t// in\n    tag_144:\n      swap3\n      pop\n      pop\n      dup2\n      swap1\n      sstore\n      pop\n        /* \"contracts/AMM.sol\":3144:3156  outputAmount */\n      dup1\n        /* \"contracts/AMM.sol\":3132:3140  reserve1 */\n      0x03\n      0x00\n        /* \"contracts/AMM.sol\":3132:3156  reserve1 -= outputAmount */\n      dup3\n      dup3\n      sload\n      tag_145\n      swap2\n      swap1\n      tag_63\n      jump\t// in\n    tag_145:\n      swap3\n      pop\n      pop\n      dup2\n      swap1\n      sstore\n      pop\n        /* \"contracts/AMM.sol\":3067:3259  if (isToken0) {... */\n      jump(tag_146)\n    tag_143:\n        /* \"contracts/AMM.sol\":3199:3210  inputAmount */\n      dup7\n        /* \"contracts/AMM.sol\":3187:3195  reserve1 */\n      0x03\n      0x00\n        /* \"contracts/AMM.sol\":3187:3210  reserve1 += inputAmount */\n      dup3\n      dup3\n      sload\n      tag_147\n      swap2\n      swap1\n      tag_107\n      jump\t// in\n    tag_147:\n      swap3\n      pop\n      pop\n      dup2\n      swap1\n      sstore\n      pop\n        /* \"contracts/AMM.sol\":3236:3248  outputAmount */\n      dup1\n        /* \"contracts/AMM.sol\":3224:3232  reserve0 */\n      0x02\n      0x00\n        /* \"contracts/AMM.sol\":3224:3248  reserve0 -= outputAmount */\n      dup3\n      dup3\n      sload\n      tag_148\n      swap2\n      swap1\n      tag_63\n      jump\t// in\n    tag_148:\n      swap3\n      pop\n      pop\n      dup2\n      swap1\n      sstore\n      pop\n        /* \"contracts/AMM.sol\":3067:3259  if (isToken0) {... */\n    tag_146:\n        /* \"contracts/AMM.sol\":3279:3289  msg.sender */\n      caller\n        /* \"contracts/AMM.sol\":3274:3329  Swap(msg.sender, inputToken, inputAmount, outputAmount) */\n      0xffffffffffffffffffffffffffffffffffffffff\n      and\n      0xfa2dda1cc1b86e41239702756b13effbc1a092b5c57e3ad320fbe4f3b13fe235\n        /* \"contracts/AMM.sol\":3291:3301  inputToken */\n      dup10\n        /* \"contracts/AMM.sol\":3303:3314  inputAmount */\n      dup10\n        /* \"contracts/AMM.sol\":3316:3328  outputAmount */\n      dup5\n        /* \"contracts/AMM.sol\":3274:3329  Swap(msg.sender, inputToken, inputAmount, outputAmount) */\n      mload(0x40)\n      tag_149\n      swap4\n      swap3\n      swap2\n      swap1\n      tag_150\n      jump\t// in\n    tag_149:\n      mload(0x40)\n      dup1\n      swap2\n      sub\n      swap1\n      log2\n        /* \"contracts/AMM.sol\":1939:3336  {... */\n      pop\n      pop\n      pop\n      pop\n      pop\n      pop\n        /* \"contracts/AMM.sol\":1876:3336  function swap(IERC20 inputToken, uint256 inputAmount) external {... */\n      pop\n      pop\n      jump\t// out\n        /* \"contracts/AMM.sol\":176:196  IERC20 public token1 */\n    tag_45:\n      0x01\n      0x00\n      swap1\n      sload\n      swap1\n      0x0100\n      exp\n      swap1\n      div\n      0xffffffffffffffffffffffffffffffffffffffff\n      and\n      dup2\n      jump\t// out\n        /* \"contracts/AMM.sol\":4486:4709  function sqrt(uint256 y) private pure returns (uint256) {... */\n    tag_95:\n        /* \"contracts/AMM.sol\":4533:4540  uint256 */\n      0x00\n        /* \"contracts/AMM.sol\":4552:4561  uint256 z */\n      dup1\n        /* \"contracts/AMM.sol\":4574:4575  2 */\n      0x02\n        /* \"contracts/AMM.sol\":4569:4570  1 */\n      0x01\n        /* \"contracts/AMM.sol\":4565:4566  y */\n      dup5\n        /* \"contracts/AMM.sol\":4565:4570  y + 1 */\n      tag_152\n      swap2\n      swap1\n      tag_107\n      jump\t// in\n    tag_152:\n        /* \"contracts/AMM.sol\":4564:4575  (y + 1) / 2 */\n      tag_153\n      swap2\n      swap1\n      tag_55\n      jump\t// in\n    tag_153:\n        /* \"contracts/AMM.sol\":4552:4575  uint256 z = (y + 1) / 2 */\n      swap1\n      pop\n        /* \"contracts/AMM.sol\":4585:4594  uint256 x */\n      0x00\n        /* \"contracts/AMM.sol\":4597:4598  y */\n      dup4\n        /* \"contracts/AMM.sol\":4585:4598  uint256 x = y */\n      swap1\n      pop\n        /* \"contracts/AMM.sol\":4608:4685  while (z < x) {... */\n    tag_154:\n        /* \"contracts/AMM.sol\":4619:4620  x */\n      dup1\n        /* \"contracts/AMM.sol\":4615:4616  z */\n      dup3\n        /* \"contracts/AMM.sol\":4615:4620  z < x */\n      lt\n        /* \"contracts/AMM.sol\":4608:4685  while (z < x) {... */\n      iszero\n      tag_155\n      jumpi\n        /* \"contracts/AMM.sol\":4640:4641  z */\n      dup2\n        /* \"contracts/AMM.sol\":4636:4641  x = z */\n      swap1\n      pop\n        /* \"contracts/AMM.sol\":4673:4674  2 */\n      0x02\n        /* \"contracts/AMM.sol\":4668:4669  z */\n      dup3\n        /* \"contracts/AMM.sol\":4664:4665  z */\n      dup4\n        /* \"contracts/AMM.sol\":4660:4661  y */\n      dup7\n        /* \"contracts/AMM.sol\":4660:4665  y / z */\n      tag_156\n      swap2\n      swap1\n      tag_55\n      jump\t// in\n    tag_156:\n        /* \"contracts/AMM.sol\":4660:4669  y / z + z */\n      tag_157\n      swap2\n      swap1\n      tag_107\n      jump\t// in\n    tag_157:\n        /* \"contracts/AMM.sol\":4659:4674  (y / z + z) / 2 */\n      tag_158\n      swap2\n      swap1\n      tag_55\n      jump\t// in\n    tag_158:\n        /* \"contracts/AMM.sol\":4655:4674  z = (y / z + z) / 2 */\n      swap2\n      pop\n        /* \"contracts/AMM.sol\":4608:4685  while (z < x) {... */\n      jump(tag_154)\n    tag_155:\n        /* \"contracts/AMM.sol\":4701:4702  x */\n      dup1\n        /* \"contracts/AMM.sol\":4694:4702  return x */\n      swap3\n      pop\n      pop\n      pop\n        /* \"contracts/AMM.sol\":4486:4709  function sqrt(uint256 y) private pure returns (uint256) {... */\n      swap2\n      swap1\n      pop\n      jump\t// out\n        /* \"contracts/AMM.sol\":4339:4442  function min(uint256 x, uint256 y) private pure returns (uint256) {... */\n    tag_102:\n        /* \"contracts/AMM.sol\":4396:4403  uint256 */\n      0x00\n        /* \"contracts/AMM.sol\":4426:4427  y */\n      dup2\n        /* \"contracts/AMM.sol\":4422:4423  x */\n      dup4\n        /* \"contracts/AMM.sol\":4422:4427  x < y */\n      lt\n        /* \"contracts/AMM.sol\":4422:4435  x < y ? x : y */\n      tag_160\n      jumpi\n        /* \"contracts/AMM.sol\":4434:4435  y */\n      dup2\n        /* \"contracts/AMM.sol\":4422:4435  x < y ? x : y */\n      jump(tag_161)\n    tag_160:\n        /* \"contracts/AMM.sol\":4430:4431  x */\n      dup3\n        /* \"contracts/AMM.sol\":4422:4435  x < y ? x : y */\n    tag_161:\n        /* \"contracts/AMM.sol\":4415:4435  return x < y ? x : y */\n      swap1\n      pop\n        /* \"contracts/AMM.sol\":4339:4442  function min(uint256 x, uint256 y) private pure returns (uint256) {... */\n      swap3\n      swap2\n      pop\n      pop\n      jump\t// out\n        /* \"#utility.yul\":7:133   */\n    tag_162:\n        /* \"#utility.yul\":44:51   */\n      0x00\n        /* \"#utility.yul\":84:126   */\n      0xffffffffffffffffffffffffffffffffffffffff\n        /* \"#utility.yul\":77:82   */\n      dup3\n        /* \"#utility.yul\":73:127   */\n      and\n        /* \"#utility.yul\":62:127   */\n      swap1\n      pop\n        /* \"#utility.yul\":7:133   */\n      swap2\n      swap1\n      pop\n      jump\t// out\n        /* \"#utility.yul\":139:199   */\n    tag_163:\n        /* \"#utility.yul\":167:170   */\n      0x00\n        /* \"#utility.yul\":188:193   */\n      dup2\n        /* \"#utility.yul\":181:193   */\n      swap1\n      pop\n        /* \"#utility.yul\":139:199   */\n      swap2\n      swap1\n      pop\n      jump\t// out\n        /* \"#utility.yul\":205:347   */\n    tag_164:\n        /* \"#utility.yul\":255:264   */\n      0x00\n        /* \"#utility.yul\":288:341   */\n      tag_204\n        /* \"#utility.yul\":306:340   */\n      tag_205\n        /* \"#utility.yul\":315:339   */\n      tag_206\n        /* \"#utility.yul\":333:338   */\n      dup5\n        /* \"#utility.yul\":315:339   */\n      tag_162\n      jump\t// in\n    tag_206:\n        /* \"#utility.yul\":306:340   */\n      tag_163\n      jump\t// in\n    tag_205:\n        /* \"#utility.yul\":288:341   */\n      tag_162\n      jump\t// in\n    tag_204:\n        /* \"#utility.yul\":275:341   */\n      swap1\n      pop\n        /* \"#utility.yul\":205:347   */\n      swap2\n      swap1\n      pop\n      jump\t// out\n        /* \"#utility.yul\":353:479   */\n    tag_165:\n        /* \"#utility.yul\":403:412   */\n      0x00\n        /* \"#utility.yul\":436:473   */\n      tag_208\n        /* \"#utility.yul\":467:472   */\n      dup3\n        /* \"#utility.yul\":436:473   */\n      tag_164\n      jump\t// in\n    tag_208:\n        /* \"#utility.yul\":423:473   */\n      swap1\n      pop\n        /* \"#utility.yul\":353:479   */\n      swap2\n      swap1\n      pop\n      jump\t// out\n        /* \"#utility.yul\":485:624   */\n    tag_166:\n        /* \"#utility.yul\":548:557   */\n      0x00\n        /* \"#utility.yul\":581:618   */\n      tag_210\n        /* \"#utility.yul\":612:617   */\n      dup3\n        /* \"#utility.yul\":581:618   */\n      tag_165\n      jump\t// in\n    tag_210:\n        /* \"#utility.yul\":568:618   */\n      swap1\n      pop\n        /* \"#utility.yul\":485:624   */\n      swap2\n      swap1\n      pop\n      jump\t// out\n        /* \"#utility.yul\":630:787   */\n    tag_167:\n        /* \"#utility.yul\":730:780   */\n      tag_212\n        /* \"#utility.yul\":774:779   */\n      dup2\n        /* \"#utility.yul\":730:780   */\n      tag_166\n      jump\t// in\n    tag_212:\n        /* \"#utility.yul\":725:728   */\n      dup3\n        /* \"#utility.yul\":718:781   */\n      mstore\n        /* \"#utility.yul\":630:787   */\n      pop\n      pop\n      jump\t// out\n        /* \"#utility.yul\":793:1041   */\n    tag_16:\n        /* \"#utility.yul\":899:903   */\n      0x00\n        /* \"#utility.yul\":937:939   */\n      0x20\n        /* \"#utility.yul\":926:935   */\n      dup3\n        /* \"#utility.yul\":922:940   */\n      add\n        /* \"#utility.yul\":914:940   */\n      swap1\n      pop\n        /* \"#utility.yul\":950:1034   */\n      tag_214\n        /* \"#utility.yul\":1031:1032   */\n      0x00\n        /* \"#utility.yul\":1020:1029   */\n      dup4\n        /* \"#utility.yul\":1016:1033   */\n      add\n        /* \"#utility.yul\":1007:1013   */\n      dup5\n        /* \"#utility.yul\":950:1034   */\n      tag_167\n      jump\t// in\n    tag_214:\n        /* \"#utility.yul\":793:1041   */\n      swap3\n      swap2\n      pop\n      pop\n      jump\t// out\n        /* \"#utility.yul\":1047:1124   */\n    tag_168:\n        /* \"#utility.yul\":1084:1091   */\n      0x00\n        /* \"#utility.yul\":1113:1118   */\n      dup2\n        /* \"#utility.yul\":1102:1118   */\n      swap1\n      pop\n        /* \"#utility.yul\":1047:1124   */\n      swap2\n      swap1\n      pop\n      jump\t// out\n        /* \"#utility.yul\":1130:1248   */\n    tag_169:\n        /* \"#utility.yul\":1217:1241   */\n      tag_217\n        /* \"#utility.yul\":1235:1240   */\n      dup2\n        /* \"#utility.yul\":1217:1241   */\n      tag_168\n      jump\t// in\n    tag_217:\n        /* \"#utility.yul\":1212:1215   */\n      dup3\n        /* \"#utility.yul\":1205:1242   */\n      mstore\n        /* \"#utility.yul\":1130:1248   */\n      pop\n      pop\n      jump\t// out\n        /* \"#utility.yul\":1254:1476   */\n    tag_20:\n        /* \"#utility.yul\":1347:1351   */\n      0x00\n        /* \"#utility.yul\":1385:1387   */\n      0x20\n        /* \"#utility.yul\":1374:1383   */\n      dup3\n        /* \"#utility.yul\":1370:1388   */\n      add\n        /* \"#utility.yul\":1362:1388   */\n      swap1\n      pop\n        /* \"#utility.yul\":1398:1469   */\n      tag_219\n        /* \"#utility.yul\":1466:1467   */\n      0x00\n        /* \"#utility.yul\":1455:1464   */\n      dup4\n        /* \"#utility.yul\":1451:1468   */\n      add\n        /* \"#utility.yul\":1442:1448   */\n      dup5\n        /* \"#utility.yul\":1398:1469   */\n      tag_169\n      jump\t// in\n    tag_219:\n        /* \"#utility.yul\":1254:1476   */\n      swap3\n      swap2\n      pop\n      pop\n      jump\t// out\n        /* \"#utility.yul\":1563:1680   */\n    tag_171:\n        /* \"#utility.yul\":1672:1673   */\n      0x00\n        /* \"#utility.yul\":1669:1670   */\n      dup1\n        /* \"#utility.yul\":1662:1674   */\n      revert\n        /* \"#utility.yul\":1809:1905   */\n    tag_173:\n        /* \"#utility.yul\":1846:1853   */\n      0x00\n        /* \"#utility.yul\":1875:1899   */\n      tag_224\n        /* \"#utility.yul\":1893:1898   */\n      dup3\n        /* \"#utility.yul\":1875:1899   */\n      tag_162\n      jump\t// in\n    tag_224:\n        /* \"#utility.yul\":1864:1899   */\n      swap1\n      pop\n        /* \"#utility.yul\":1809:1905   */\n      swap2\n      swap1\n      pop\n      jump\t// out\n        /* \"#utility.yul\":1911:2033   */\n    tag_174:\n        /* \"#utility.yul\":1984:2008   */\n      tag_226\n        /* \"#utility.yul\":2002:2007   */\n      dup2\n        /* \"#utility.yul\":1984:2008   */\n      tag_173\n      jump\t// in\n    tag_226:\n        /* \"#utility.yul\":1977:1982   */\n      dup2\n        /* \"#utility.yul\":1974:2009   */\n      eq\n        /* \"#utility.yul\":1964:2027   */\n      tag_227\n      jumpi\n        /* \"#utility.yul\":2023:2024   */\n      0x00\n        /* \"#utility.yul\":2020:2021   */\n      dup1\n        /* \"#utility.yul\":2013:2025   */\n      revert\n        /* \"#utility.yul\":1964:2027   */\n    tag_227:\n        /* \"#utility.yul\":1911:2033   */\n      pop\n      jump\t// out\n        /* \"#utility.yul\":2039:2178   */\n    tag_175:\n        /* \"#utility.yul\":2085:2090   */\n      0x00\n        /* \"#utility.yul\":2123:2129   */\n      dup2\n        /* \"#utility.yul\":2110:2130   */\n      calldataload\n        /* \"#utility.yul\":2101:2130   */\n      swap1\n      pop\n        /* \"#utility.yul\":2139:2172   */\n      tag_229\n        /* \"#utility.yul\":2166:2171   */\n      dup2\n        /* \"#utility.yul\":2139:2172   */\n      tag_174\n      jump\t// in\n    tag_229:\n        /* \"#utility.yul\":2039:2178   */\n      swap3\n      swap2\n      pop\n      pop\n      jump\t// out\n        /* \"#utility.yul\":2184:2513   */\n    tag_29:\n        /* \"#utility.yul\":2243:2249   */\n      0x00\n        /* \"#utility.yul\":2292:2294   */\n      0x20\n        /* \"#utility.yul\":2280:2289   */\n      dup3\n        /* \"#utility.yul\":2271:2278   */\n      dup5\n        /* \"#utility.yul\":2267:2290   */\n      sub\n        /* \"#utility.yul\":2263:2295   */\n      slt\n        /* \"#utility.yul\":2260:2379   */\n      iszero\n      tag_231\n      jumpi\n        /* \"#utility.yul\":2298:2377   */\n      tag_232\n      tag_171\n      jump\t// in\n    tag_232:\n        /* \"#utility.yul\":2260:2379   */\n    tag_231:\n        /* \"#utility.yul\":2418:2419   */\n      0x00\n        /* \"#utility.yul\":2443:2496   */\n      tag_233\n        /* \"#utility.yul\":2488:2495   */\n      dup5\n        /* \"#utility.yul\":2479:2485   */\n      dup3\n        /* \"#utility.yul\":2468:2477   */\n      dup6\n        /* \"#utility.yul\":2464:2486   */\n      add\n        /* \"#utility.yul\":2443:2496   */\n      tag_175\n      jump\t// in\n    tag_233:\n        /* \"#utility.yul\":2433:2496   */\n      swap2\n      pop\n        /* \"#utility.yul\":2389:2506   */\n      pop\n        /* \"#utility.yul\":2184:2513   */\n      swap3\n      swap2\n      pop\n      pop\n      jump\t// out\n        /* \"#utility.yul\":2519:2641   */\n    tag_176:\n        /* \"#utility.yul\":2592:2616   */\n      tag_235\n        /* \"#utility.yul\":2610:2615   */\n      dup2\n        /* \"#utility.yul\":2592:2616   */\n      tag_168\n      jump\t// in\n    tag_235:\n        /* \"#utility.yul\":2585:2590   */\n      dup2\n        /* \"#utility.yul\":2582:2617   */\n      eq\n        /* \"#utility.yul\":2572:2635   */\n      tag_236\n      jumpi\n        /* \"#utility.yul\":2631:2632   */\n      0x00\n        /* \"#utility.yul\":2628:2629   */\n      dup1\n        /* \"#utility.yul\":2621:2633   */\n      revert\n        /* \"#utility.yul\":2572:2635   */\n    tag_236:\n        /* \"#utility.yul\":2519:2641   */\n      pop\n      jump\t// out\n        /* \"#utility.yul\":2647:2786   */\n    tag_177:\n        /* \"#utility.yul\":2693:2698   */\n      0x00\n        /* \"#utility.yul\":2731:2737   */\n      dup2\n        /* \"#utility.yul\":2718:2738   */\n      calldataload\n        /* \"#utility.yul\":2709:2738   */\n      swap1\n      pop\n        /* \"#utility.yul\":2747:2780   */\n      tag_238\n        /* \"#utility.yul\":2774:2779   */\n      dup2\n        /* \"#utility.yul\":2747:2780   */\n      tag_176\n      jump\t// in\n    tag_238:\n        /* \"#utility.yul\":2647:2786   */\n      swap3\n      swap2\n      pop\n      pop\n      jump\t// out\n        /* \"#utility.yul\":2792:3121   */\n    tag_34:\n        /* \"#utility.yul\":2851:2857   */\n      0x00\n        /* \"#utility.yul\":2900:2902   */\n      0x20\n        /* \"#utility.yul\":2888:2897   */\n      dup3\n        /* \"#utility.yul\":2879:2886   */\n      dup5\n        /* \"#utility.yul\":2875:2898   */\n      sub\n        /* \"#utility.yul\":2871:2903   */\n      slt\n        /* \"#utility.yul\":2868:2987   */\n      iszero\n      tag_240\n      jumpi\n        /* \"#utility.yul\":2906:2985   */\n      tag_241\n      tag_171\n      jump\t// in\n    tag_241:\n        /* \"#utility.yul\":2868:2987   */\n    tag_240:\n        /* \"#utility.yul\":3026:3027   */\n      0x00\n        /* \"#utility.yul\":3051:3104   */\n      tag_242\n        /* \"#utility.yul\":3096:3103   */\n      dup5\n        /* \"#utility.yul\":3087:3093   */\n      dup3\n        /* \"#utility.yul\":3076:3085   */\n      dup6\n        /* \"#utility.yul\":3072:3094   */\n      add\n        /* \"#utility.yul\":3051:3104   */\n      tag_177\n      jump\t// in\n    tag_242:\n        /* \"#utility.yul\":3041:3104   */\n      swap2\n      pop\n        /* \"#utility.yul\":2997:3114   */\n      pop\n        /* \"#utility.yul\":2792:3121   */\n      swap3\n      swap2\n      pop\n      pop\n      jump\t// out\n        /* \"#utility.yul\":3127:3601   */\n    tag_38:\n        /* \"#utility.yul\":3195:3201   */\n      0x00\n        /* \"#utility.yul\":3203:3209   */\n      dup1\n        /* \"#utility.yul\":3252:3254   */\n      0x40\n        /* \"#utility.yul\":3240:3249   */\n      dup4\n        /* \"#utility.yul\":3231:3238   */\n      dup6\n        /* \"#utility.yul\":3227:3250   */\n      sub\n        /* \"#utility.yul\":3223:3255   */\n      slt\n        /* \"#utility.yul\":3220:3339   */\n      iszero\n      tag_244\n      jumpi\n        /* \"#utility.yul\":3258:3337   */\n      tag_245\n      tag_171\n      jump\t// in\n    tag_245:\n        /* \"#utility.yul\":3220:3339   */\n    tag_244:\n        /* \"#utility.yul\":3378:3379   */\n      0x00\n        /* \"#utility.yul\":3403:3456   */\n      tag_246\n        /* \"#utility.yul\":3448:3455   */\n      dup6\n        /* \"#utility.yul\":3439:3445   */\n      dup3\n        /* \"#utility.yul\":3428:3437   */\n      dup7\n        /* \"#utility.yul\":3424:3446   */\n      add\n        /* \"#utility.yul\":3403:3456   */\n      tag_177\n      jump\t// in\n    tag_246:\n        /* \"#utility.yul\":3393:3456   */\n      swap3\n      pop\n        /* \"#utility.yul\":3349:3466   */\n      pop\n        /* \"#utility.yul\":3505:3507   */\n      0x20\n        /* \"#utility.yul\":3531:3584   */\n      tag_247\n        /* \"#utility.yul\":3576:3583   */\n      dup6\n        /* \"#utility.yul\":3567:3573   */\n      dup3\n        /* \"#utility.yul\":3556:3565   */\n      dup7\n        /* \"#utility.yul\":3552:3574   */\n      add\n        /* \"#utility.yul\":3531:3584   */\n      tag_177\n      jump\t// in\n    tag_247:\n        /* \"#utility.yul\":3521:3584   */\n      swap2\n      pop\n        /* \"#utility.yul\":3476:3594   */\n      pop\n        /* \"#utility.yul\":3127:3601   */\n      swap3\n      pop\n      swap3\n      swap1\n      pop\n      jump\t// out\n        /* \"#utility.yul\":3607:3716   */\n    tag_178:\n        /* \"#utility.yul\":3657:3664   */\n      0x00\n        /* \"#utility.yul\":3686:3710   */\n      tag_249\n        /* \"#utility.yul\":3704:3709   */\n      dup3\n        /* \"#utility.yul\":3686:3710   */\n      tag_173\n      jump\t// in\n    tag_249:\n        /* \"#utility.yul\":3675:3710   */\n      swap1\n      pop\n        /* \"#utility.yul\":3607:3716   */\n      swap2\n      swap1\n      pop\n      jump\t// out\n        /* \"#utility.yul\":3722:3870   */\n    tag_179:\n        /* \"#utility.yul\":3808:3845   */\n      tag_251\n        /* \"#utility.yul\":3839:3844   */\n      dup2\n        /* \"#utility.yul\":3808:3845   */\n      tag_178\n      jump\t// in\n    tag_251:\n        /* \"#utility.yul\":3801:3806   */\n      dup2\n        /* \"#utility.yul\":3798:3846   */\n      eq\n        /* \"#utility.yul\":3788:3864   */\n      tag_252\n      jumpi\n        /* \"#utility.yul\":3860:3861   */\n      0x00\n        /* \"#utility.yul\":3857:3858   */\n      dup1\n        /* \"#utility.yul\":3850:3862   */\n      revert\n        /* \"#utility.yul\":3788:3864   */\n    tag_252:\n        /* \"#utility.yul\":3722:3870   */\n      pop\n      jump\t// out\n        /* \"#utility.yul\":3876:4041   */\n    tag_180:\n        /* \"#utility.yul\":3935:3940   */\n      0x00\n        /* \"#utility.yul\":3973:3979   */\n      dup2\n        /* \"#utility.yul\":3960:3980   */\n      calldataload\n        /* \"#utility.yul\":3951:3980   */\n      swap1\n      pop\n        /* \"#utility.yul\":3989:4035   */\n      tag_254\n        /* \"#utility.yul\":4029:4034   */\n      dup2\n        /* \"#utility.yul\":3989:4035   */\n      tag_179\n      jump\t// in\n    tag_254:\n        /* \"#utility.yul\":3876:4041   */\n      swap3\n      swap2\n      pop\n      pop\n      jump\t// out\n        /* \"#utility.yul\":4047:4547   */\n    tag_42:\n        /* \"#utility.yul\":4128:4134   */\n      0x00\n        /* \"#utility.yul\":4136:4142   */\n      dup1\n        /* \"#utility.yul\":4185:4187   */\n      0x40\n        /* \"#utility.yul\":4173:4182   */\n      dup4\n        /* \"#utility.yul\":4164:4171   */\n      dup6\n        /* \"#utility.yul\":4160:4183   */\n      sub\n        /* \"#utility.yul\":4156:4188   */\n      slt\n        /* \"#utility.yul\":4153:4272   */\n      iszero\n      tag_256\n      jumpi\n        /* \"#utility.yul\":4191:4270   */\n      tag_257\n      tag_171\n      jump\t// in\n    tag_257:\n        /* \"#utility.yul\":4153:4272   */\n    tag_256:\n        /* \"#utility.yul\":4311:4312   */\n      0x00\n        /* \"#utility.yul\":4336:4402   */\n      tag_258\n        /* \"#utility.yul\":4394:4401   */\n      dup6\n        /* \"#utility.yul\":4385:4391   */\n      dup3\n        /* \"#utility.yul\":4374:4383   */\n      dup7\n        /* \"#utility.yul\":4370:4392   */\n      add\n        /* \"#utility.yul\":4336:4402   */\n      tag_180\n      jump\t// in\n    tag_258:\n        /* \"#utility.yul\":4326:4402   */\n      swap3\n      pop\n        /* \"#utility.yul\":4282:4412   */\n      pop\n        /* \"#utility.yul\":4451:4453   */\n      0x20\n        /* \"#utility.yul\":4477:4530   */\n      tag_259\n        /* \"#utility.yul\":4522:4529   */\n      dup6\n        /* \"#utility.yul\":4513:4519   */\n      dup3\n        /* \"#utility.yul\":4502:4511   */\n      dup7\n        /* \"#utility.yul\":4498:4520   */\n      add\n        /* \"#utility.yul\":4477:4530   */\n      tag_177\n      jump\t// in\n    tag_259:\n        /* \"#utility.yul\":4467:4530   */\n      swap2\n      pop\n        /* \"#utility.yul\":4422:4540   */\n      pop\n        /* \"#utility.yul\":4047:4547   */\n      swap3\n      pop\n      swap3\n      swap1\n      pop\n      jump\t// out\n        /* \"#utility.yul\":4553:4722   */\n    tag_181:\n        /* \"#utility.yul\":4637:4648   */\n      0x00\n        /* \"#utility.yul\":4671:4677   */\n      dup3\n        /* \"#utility.yul\":4666:4669   */\n      dup3\n        /* \"#utility.yul\":4659:4678   */\n      mstore\n        /* \"#utility.yul\":4711:4715   */\n      0x20\n        /* \"#utility.yul\":4706:4709   */\n      dup3\n        /* \"#utility.yul\":4702:4716   */\n      add\n        /* \"#utility.yul\":4687:4716   */\n      swap1\n      pop\n        /* \"#utility.yul\":4553:4722   */\n      swap3\n      swap2\n      pop\n      pop\n      jump\t// out\n        /* \"#utility.yul\":4728:4902   */\n    tag_182:\n        /* \"#utility.yul\":4868:4894   */\n      0x496e76616c6964206c697175696469747920616d6f756e740000000000000000\n        /* \"#utility.yul\":4864:4865   */\n      0x00\n        /* \"#utility.yul\":4856:4862   */\n      dup3\n        /* \"#utility.yul\":4852:4866   */\n      add\n        /* \"#utility.yul\":4845:4895   */\n      mstore\n        /* \"#utility.yul\":4728:4902   */\n      pop\n      jump\t// out\n        /* \"#utility.yul\":4908:5274   */\n    tag_183:\n        /* \"#utility.yul\":5050:5053   */\n      0x00\n        /* \"#utility.yul\":5071:5138   */\n      tag_263\n        /* \"#utility.yul\":5135:5137   */\n      0x18\n        /* \"#utility.yul\":5130:5133   */\n      dup4\n        /* \"#utility.yul\":5071:5138   */\n      tag_181\n      jump\t// in\n    tag_263:\n        /* \"#utility.yul\":5064:5138   */\n      swap2\n      pop\n        /* \"#utility.yul\":5147:5240   */\n      tag_264\n        /* \"#utility.yul\":5236:5239   */\n      dup3\n        /* \"#utility.yul\":5147:5240   */\n      tag_182\n      jump\t// in\n    tag_264:\n        /* \"#utility.yul\":5265:5267   */\n      0x20\n        /* \"#utility.yul\":5260:5263   */\n      dup3\n        /* \"#utility.yul\":5256:5268   */\n      add\n        /* \"#utility.yul\":5249:5268   */\n      swap1\n      pop\n        /* \"#utility.yul\":4908:5274   */\n      swap2\n      swap1\n      pop\n      jump\t// out\n        /* \"#utility.yul\":5280:5699   */\n    tag_51:\n        /* \"#utility.yul\":5446:5450   */\n      0x00\n        /* \"#utility.yul\":5484:5486   */\n      0x20\n        /* \"#utility.yul\":5473:5482   */\n      dup3\n        /* \"#utility.yul\":5469:5487   */\n      add\n        /* \"#utility.yul\":5461:5487   */\n      swap1\n      pop\n        /* \"#utility.yul\":5533:5542   */\n      dup2\n        /* \"#utility.yul\":5527:5531   */\n      dup2\n        /* \"#utility.yul\":5523:5543   */\n      sub\n        /* \"#utility.yul\":5519:5520   */\n      0x00\n        /* \"#utility.yul\":5508:5517   */\n      dup4\n        /* \"#utility.yul\":5504:5521   */\n      add\n        /* \"#utility.yul\":5497:5544   */\n      mstore\n        /* \"#utility.yul\":5561:5692   */\n      tag_266\n        /* \"#utility.yul\":5687:5691   */\n      dup2\n        /* \"#utility.yul\":5561:5692   */\n      tag_183\n      jump\t// in\n    tag_266:\n        /* \"#utility.yul\":5553:5692   */\n      swap1\n      pop\n        /* \"#utility.yul\":5280:5699   */\n      swap2\n      swap1\n      pop\n      jump\t// out\n        /* \"#utility.yul\":5705:5885   */\n    tag_184:\n        /* \"#utility.yul\":5753:5830   */\n      0x4e487b7100000000000000000000000000000000000000000000000000000000\n        /* \"#utility.yul\":5750:5751   */\n      0x00\n        /* \"#utility.yul\":5743:5831   */\n      mstore\n        /* \"#utility.yul\":5850:5854   */\n      0x11\n        /* \"#utility.yul\":5847:5848   */\n      0x04\n        /* \"#utility.yul\":5840:5855   */\n      mstore\n        /* \"#utility.yul\":5874:5878   */\n      0x24\n        /* \"#utility.yul\":5871:5872   */\n      0x00\n        /* \"#utility.yul\":5864:5879   */\n      revert\n        /* \"#utility.yul\":5891:6301   */\n    tag_53:\n        /* \"#utility.yul\":5931:5938   */\n      0x00\n        /* \"#utility.yul\":5954:5974   */\n      tag_269\n        /* \"#utility.yul\":5972:5973   */\n      dup3\n        /* \"#utility.yul\":5954:5974   */\n      tag_168\n      jump\t// in\n    tag_269:\n        /* \"#utility.yul\":5949:5974   */\n      swap2\n      pop\n        /* \"#utility.yul\":5988:6008   */\n      tag_270\n        /* \"#utility.yul\":6006:6007   */\n      dup4\n        /* \"#utility.yul\":5988:6008   */\n      tag_168\n      jump\t// in\n    tag_270:\n        /* \"#utility.yul\":5983:6008   */\n      swap3\n      pop\n        /* \"#utility.yul\":6043:6044   */\n      dup3\n        /* \"#utility.yul\":6040:6041   */\n      dup3\n        /* \"#utility.yul\":6036:6045   */\n      mul\n        /* \"#utility.yul\":6065:6095   */\n      tag_271\n        /* \"#utility.yul\":6083:6094   */\n      dup2\n        /* \"#utility.yul\":6065:6095   */\n      tag_168\n      jump\t// in\n    tag_271:\n        /* \"#utility.yul\":6054:6095   */\n      swap2\n      pop\n        /* \"#utility.yul\":6244:6245   */\n      dup3\n        /* \"#utility.yul\":6235:6242   */\n      dup3\n        /* \"#utility.yul\":6231:6246   */\n      div\n        /* \"#utility.yul\":6228:6229   */\n      dup5\n        /* \"#utility.yul\":6225:6247   */\n      eq\n        /* \"#utility.yul\":6205:6206   */\n      dup4\n        /* \"#utility.yul\":6198:6207   */\n      iszero\n        /* \"#utility.yul\":6178:6261   */\n      or\n        /* \"#utility.yul\":6155:6294   */\n      tag_272\n      jumpi\n        /* \"#utility.yul\":6274:6292   */\n      tag_273\n      tag_184\n      jump\t// in\n    tag_273:\n        /* \"#utility.yul\":6155:6294   */\n    tag_272:\n        /* \"#utility.yul\":5939:6301   */\n      pop\n        /* \"#utility.yul\":5891:6301   */\n      swap3\n      swap2\n      pop\n      pop\n      jump\t// out\n        /* \"#utility.yul\":6307:6487   */\n    tag_185:\n        /* \"#utility.yul\":6355:6432   */\n      0x4e487b7100000000000000000000000000000000000000000000000000000000\n        /* \"#utility.yul\":6352:6353   */\n      0x00\n        /* \"#utility.yul\":6345:6433   */\n      mstore\n        /* \"#utility.yul\":6452:6456   */\n      0x12\n        /* \"#utility.yul\":6449:6450   */\n      0x04\n        /* \"#utility.yul\":6442:6457   */\n      mstore\n        /* \"#utility.yul\":6476:6480   */\n      0x24\n        /* \"#utility.yul\":6473:6474   */\n      0x00\n        /* \"#utility.yul\":6466:6481   */\n      revert\n        /* \"#utility.yul\":6493:6678   */\n    tag_55:\n        /* \"#utility.yul\":6533:6534   */\n      0x00\n        /* \"#utility.yul\":6550:6570   */\n      tag_276\n        /* \"#utility.yul\":6568:6569   */\n      dup3\n        /* \"#utility.yul\":6550:6570   */\n      tag_168\n      jump\t// in\n    tag_276:\n        /* \"#utility.yul\":6545:6570   */\n      swap2\n      pop\n        /* \"#utility.yul\":6584:6604   */\n      tag_277\n        /* \"#utility.yul\":6602:6603   */\n      dup4\n        /* \"#utility.yul\":6584:6604   */\n      tag_168\n      jump\t// in\n    tag_277:\n        /* \"#utility.yul\":6579:6604   */\n      swap3\n      pop\n        /* \"#utility.yul\":6623:6624   */\n      dup3\n        /* \"#utility.yul\":6613:6648   */\n      tag_278\n      jumpi\n        /* \"#utility.yul\":6628:6646   */\n      tag_279\n      tag_185\n      jump\t// in\n    tag_279:\n        /* \"#utility.yul\":6613:6648   */\n    tag_278:\n        /* \"#utility.yul\":6670:6671   */\n      dup3\n        /* \"#utility.yul\":6667:6668   */\n      dup3\n        /* \"#utility.yul\":6663:6672   */\n      div\n        /* \"#utility.yul\":6658:6672   */\n      swap1\n      pop\n        /* \"#utility.yul\":6493:6678   */\n      swap3\n      swap2\n      pop\n      pop\n      jump\t// out\n        /* \"#utility.yul\":6684:6849   */\n    tag_186:\n        /* \"#utility.yul\":6824:6841   */\n      0x496e76616c696420616d6f756e74730000000000000000000000000000000000\n        /* \"#utility.yul\":6820:6821   */\n      0x00\n        /* \"#utility.yul\":6812:6818   */\n      dup3\n        /* \"#utility.yul\":6808:6822   */\n      add\n        /* \"#utility.yul\":6801:6842   */\n      mstore\n        /* \"#utility.yul\":6684:6849   */\n      pop\n      jump\t// out\n        /* \"#utility.yul\":6855:7221   */\n    tag_187:\n        /* \"#utility.yul\":6997:7000   */\n      0x00\n        /* \"#utility.yul\":7018:7085   */\n      tag_282\n        /* \"#utility.yul\":7082:7084   */\n      0x0f\n        /* \"#utility.yul\":7077:7080   */\n      dup4\n        /* \"#utility.yul\":7018:7085   */\n      tag_181\n      jump\t// in\n    tag_282:\n        /* \"#utility.yul\":7011:7085   */\n      swap2\n      pop\n        /* \"#utility.yul\":7094:7187   */\n      tag_283\n        /* \"#utility.yul\":7183:7186   */\n      dup3\n        /* \"#utility.yul\":7094:7187   */\n      tag_186\n      jump\t// in\n    tag_283:\n        /* \"#utility.yul\":7212:7214   */\n      0x20\n        /* \"#utility.yul\":7207:7210   */\n      dup3\n        /* \"#utility.yul\":7203:7215   */\n      add\n        /* \"#utility.yul\":7196:7215   */\n      swap1\n      pop\n        /* \"#utility.yul\":6855:7221   */\n      swap2\n      swap1\n      pop\n      jump\t// out\n        /* \"#utility.yul\":7227:7646   */\n    tag_61:\n        /* \"#utility.yul\":7393:7397   */\n      0x00\n        /* \"#utility.yul\":7431:7433   */\n      0x20\n        /* \"#utility.yul\":7420:7429   */\n      dup3\n        /* \"#utility.yul\":7416:7434   */\n      add\n        /* \"#utility.yul\":7408:7434   */\n      swap1\n      pop\n        /* \"#utility.yul\":7480:7489   */\n      dup2\n        /* \"#utility.yul\":7474:7478   */\n      dup2\n        /* \"#utility.yul\":7470:7490   */\n      sub\n        /* \"#utility.yul\":7466:7467   */\n      0x00\n        /* \"#utility.yul\":7455:7464   */\n      dup4\n        /* \"#utility.yul\":7451:7468   */\n      add\n        /* \"#utility.yul\":7444:7491   */\n      mstore\n        /* \"#utility.yul\":7508:7639   */\n      tag_285\n        /* \"#utility.yul\":7634:7638   */\n      dup2\n        /* \"#utility.yul\":7508:7639   */\n      tag_187\n      jump\t// in\n    tag_285:\n        /* \"#utility.yul\":7500:7639   */\n      swap1\n      pop\n        /* \"#utility.yul\":7227:7646   */\n      swap2\n      swap1\n      pop\n      jump\t// out\n        /* \"#utility.yul\":7652:7846   */\n    tag_63:\n        /* \"#utility.yul\":7692:7696   */\n      0x00\n        /* \"#utility.yul\":7712:7732   */\n      tag_287\n        /* \"#utility.yul\":7730:7731   */\n      dup3\n        /* \"#utility.yul\":7712:7732   */\n      tag_168\n      jump\t// in\n    tag_287:\n        /* \"#utility.yul\":7707:7732   */\n      swap2\n      pop\n        /* \"#utility.yul\":7746:7766   */\n      tag_288\n        /* \"#utility.yul\":7764:7765   */\n      dup4\n        /* \"#utility.yul\":7746:7766   */\n      tag_168\n      jump\t// in\n    tag_288:\n        /* \"#utility.yul\":7741:7766   */\n      swap3\n      pop\n        /* \"#utility.yul\":7790:7791   */\n      dup3\n        /* \"#utility.yul\":7787:7788   */\n      dup3\n        /* \"#utility.yul\":7783:7792   */\n      sub\n        /* \"#utility.yul\":7775:7792   */\n      swap1\n      pop\n        /* \"#utility.yul\":7814:7815   */\n      dup2\n        /* \"#utility.yul\":7808:7812   */\n      dup2\n        /* \"#utility.yul\":7805:7816   */\n      gt\n        /* \"#utility.yul\":7802:7839   */\n      iszero\n      tag_289\n      jumpi\n        /* \"#utility.yul\":7819:7837   */\n      tag_290\n      tag_184\n      jump\t// in\n    tag_290:\n        /* \"#utility.yul\":7802:7839   */\n    tag_289:\n        /* \"#utility.yul\":7652:7846   */\n      swap3\n      swap2\n      pop\n      pop\n      jump\t// out\n        /* \"#utility.yul\":7852:7970   */\n    tag_188:\n        /* \"#utility.yul\":7939:7963   */\n      tag_292\n        /* \"#utility.yul\":7957:7962   */\n      dup2\n        /* \"#utility.yul\":7939:7963   */\n      tag_173\n      jump\t// in\n    tag_292:\n        /* \"#utility.yul\":7934:7937   */\n      dup3\n        /* \"#utility.yul\":7927:7964   */\n      mstore\n        /* \"#utility.yul\":7852:7970   */\n      pop\n      pop\n      jump\t// out\n        /* \"#utility.yul\":7976:8308   */\n    tag_68:\n        /* \"#utility.yul\":8097:8101   */\n      0x00\n        /* \"#utility.yul\":8135:8137   */\n      0x40\n        /* \"#utility.yul\":8124:8133   */\n      dup3\n        /* \"#utility.yul\":8120:8138   */\n      add\n        /* \"#utility.yul\":8112:8138   */\n      swap1\n      pop\n        /* \"#utility.yul\":8148:8219   */\n      tag_294\n        /* \"#utility.yul\":8216:8217   */\n      0x00\n        /* \"#utility.yul\":8205:8214   */\n      dup4\n        /* \"#utility.yul\":8201:8218   */\n      add\n        /* \"#utility.yul\":8192:8198   */\n      dup6\n        /* \"#utility.yul\":8148:8219   */\n      tag_188\n      jump\t// in\n    tag_294:\n        /* \"#utility.yul\":8229:8301   */\n      tag_295\n        /* \"#utility.yul\":8297:8299   */\n      0x20\n        /* \"#utility.yul\":8286:8295   */\n      dup4\n        /* \"#utility.yul\":8282:8300   */\n      add\n        /* \"#utility.yul\":8273:8279   */\n      dup5\n        /* \"#utility.yul\":8229:8301   */\n      tag_169\n      jump\t// in\n    tag_295:\n        /* \"#utility.yul\":7976:8308   */\n      swap4\n      swap3\n      pop\n      pop\n      pop\n      jump\t// out\n        /* \"#utility.yul\":8314:8404   */\n    tag_189:\n        /* \"#utility.yul\":8348:8355   */\n      0x00\n        /* \"#utility.yul\":8391:8396   */\n      dup2\n        /* \"#utility.yul\":8384:8397   */\n      iszero\n        /* \"#utility.yul\":8377:8398   */\n      iszero\n        /* \"#utility.yul\":8366:8398   */\n      swap1\n      pop\n        /* \"#utility.yul\":8314:8404   */\n      swap2\n      swap1\n      pop\n      jump\t// out\n        /* \"#utility.yul\":8410:8526   */\n    tag_190:\n        /* \"#utility.yul\":8480:8501   */\n      tag_298\n        /* \"#utility.yul\":8495:8500   */\n      dup2\n        /* \"#utility.yul\":8480:8501   */\n      tag_189\n      jump\t// in\n    tag_298:\n        /* \"#utility.yul\":8473:8478   */\n      dup2\n        /* \"#utility.yul\":8470:8502   */\n      eq\n        /* \"#utility.yul\":8460:8520   */\n      tag_299\n      jumpi\n        /* \"#utility.yul\":8516:8517   */\n      0x00\n        /* \"#utility.yul\":8513:8514   */\n      dup1\n        /* \"#utility.yul\":8506:8518   */\n      revert\n        /* \"#utility.yul\":8460:8520   */\n    tag_299:\n        /* \"#utility.yul\":8410:8526   */\n      pop\n      jump\t// out\n        /* \"#utility.yul\":8532:8669   */\n    tag_191:\n        /* \"#utility.yul\":8586:8591   */\n      0x00\n        /* \"#utility.yul\":8617:8623   */\n      dup2\n        /* \"#utility.yul\":8611:8624   */\n      mload\n        /* \"#utility.yul\":8602:8624   */\n      swap1\n      pop\n        /* \"#utility.yul\":8633:8663   */\n      tag_301\n        /* \"#utility.yul\":8657:8662   */\n      dup2\n        /* \"#utility.yul\":8633:8663   */\n      tag_190\n      jump\t// in\n    tag_301:\n        /* \"#utility.yul\":8532:8669   */\n      swap3\n      swap2\n      pop\n      pop\n      jump\t// out\n        /* \"#utility.yul\":8675:9020   */\n    tag_72:\n        /* \"#utility.yul\":8742:8748   */\n      0x00\n        /* \"#utility.yul\":8791:8793   */\n      0x20\n        /* \"#utility.yul\":8779:8788   */\n      dup3\n        /* \"#utility.yul\":8770:8777   */\n      dup5\n        /* \"#utility.yul\":8766:8789   */\n      sub\n        /* \"#utility.yul\":8762:8794   */\n      slt\n        /* \"#utility.yul\":8759:8878   */\n      iszero\n      tag_303\n      jumpi\n        /* \"#utility.yul\":8797:8876   */\n      tag_304\n      tag_171\n      jump\t// in\n    tag_304:\n        /* \"#utility.yul\":8759:8878   */\n    tag_303:\n        /* \"#utility.yul\":8917:8918   */\n      0x00\n        /* \"#utility.yul\":8942:9003   */\n      tag_305\n        /* \"#utility.yul\":8995:9002   */\n      dup5\n        /* \"#utility.yul\":8986:8992   */\n      dup3\n        /* \"#utility.yul\":8975:8984   */\n      dup6\n        /* \"#utility.yul\":8971:8993   */\n      add\n        /* \"#utility.yul\":8942:9003   */\n      tag_191\n      jump\t// in\n    tag_305:\n        /* \"#utility.yul\":8932:9003   */\n      swap2\n      pop\n        /* \"#utility.yul\":8888:9013   */\n      pop\n        /* \"#utility.yul\":8675:9020   */\n      swap3\n      swap2\n      pop\n      pop\n      jump\t// out\n        /* \"#utility.yul\":9026:9468   */\n    tag_78:\n        /* \"#utility.yul\":9175:9179   */\n      0x00\n        /* \"#utility.yul\":9213:9215   */\n      0x60\n        /* \"#utility.yul\":9202:9211   */\n      dup3\n        /* \"#utility.yul\":9198:9216   */\n      add\n        /* \"#utility.yul\":9190:9216   */\n      swap1\n      pop\n        /* \"#utility.yul\":9226:9297   */\n      tag_307\n        /* \"#utility.yul\":9294:9295   */\n      0x00\n        /* \"#utility.yul\":9283:9292   */\n      dup4\n        /* \"#utility.yul\":9279:9296   */\n      add\n        /* \"#utility.yul\":9270:9276   */\n      dup7\n        /* \"#utility.yul\":9226:9297   */\n      tag_169\n      jump\t// in\n    tag_307:\n        /* \"#utility.yul\":9307:9379   */\n      tag_308\n        /* \"#utility.yul\":9375:9377   */\n      0x20\n        /* \"#utility.yul\":9364:9373   */\n      dup4\n        /* \"#utility.yul\":9360:9378   */\n      add\n        /* \"#utility.yul\":9351:9357   */\n      dup6\n        /* \"#utility.yul\":9307:9379   */\n      tag_169\n      jump\t// in\n    tag_308:\n        /* \"#utility.yul\":9389:9461   */\n      tag_309\n        /* \"#utility.yul\":9457:9459   */\n      0x40\n        /* \"#utility.yul\":9446:9455   */\n      dup4\n        /* \"#utility.yul\":9442:9460   */\n      add\n        /* \"#utility.yul\":9433:9439   */\n      dup5\n        /* \"#utility.yul\":9389:9461   */\n      tag_169\n      jump\t// in\n    tag_309:\n        /* \"#utility.yul\":9026:9468   */\n      swap5\n      swap4\n      pop\n      pop\n      pop\n      pop\n      jump\t// out\n        /* \"#utility.yul\":9474:9916   */\n    tag_84:\n        /* \"#utility.yul\":9623:9627   */\n      0x00\n        /* \"#utility.yul\":9661:9663   */\n      0x60\n        /* \"#utility.yul\":9650:9659   */\n      dup3\n        /* \"#utility.yul\":9646:9664   */\n      add\n        /* \"#utility.yul\":9638:9664   */\n      swap1\n      pop\n        /* \"#utility.yul\":9674:9745   */\n      tag_311\n        /* \"#utility.yul\":9742:9743   */\n      0x00\n        /* \"#utility.yul\":9731:9740   */\n      dup4\n        /* \"#utility.yul\":9727:9744   */\n      add\n        /* \"#utility.yul\":9718:9724   */\n      dup7\n        /* \"#utility.yul\":9674:9745   */\n      tag_188\n      jump\t// in\n    tag_311:\n        /* \"#utility.yul\":9755:9827   */\n      tag_312\n        /* \"#utility.yul\":9823:9825   */\n      0x20\n        /* \"#utility.yul\":9812:9821   */\n      dup4\n        /* \"#utility.yul\":9808:9826   */\n      add\n        /* \"#utility.yul\":9799:9805   */\n      dup6\n        /* \"#utility.yul\":9755:9827   */\n      tag_188\n      jump\t// in\n    tag_312:\n        /* \"#utility.yul\":9837:9909   */\n      tag_313\n        /* \"#utility.yul\":9905:9907   */\n      0x40\n        /* \"#utility.yul\":9894:9903   */\n      dup4\n        /* \"#utility.yul\":9890:9908   */\n      add\n        /* \"#utility.yul\":9881:9887   */\n      dup5\n        /* \"#utility.yul\":9837:9909   */\n      tag_169\n      jump\t// in\n    tag_313:\n        /* \"#utility.yul\":9474:9916   */\n      swap5\n      swap4\n      pop\n      pop\n      pop\n      pop\n      jump\t// out\n        /* \"#utility.yul\":9922:10101   */\n    tag_192:\n        /* \"#utility.yul\":10062:10093   */\n      0x496e73756666696369656e74206c6971756964697479206d696e746564000000\n        /* \"#utility.yul\":10058:10059   */\n      0x00\n        /* \"#utility.yul\":10050:10056   */\n      dup3\n        /* \"#utility.yul\":10046:10060   */\n      add\n        /* \"#utility.yul\":10039:10094   */\n      mstore\n        /* \"#utility.yul\":9922:10101   */\n      pop\n      jump\t// out\n        /* \"#utility.yul\":10107:10473   */\n    tag_193:\n        /* \"#utility.yul\":10249:10252   */\n      0x00\n        /* \"#utility.yul\":10270:10337   */\n      tag_316\n        /* \"#utility.yul\":10334:10336   */\n      0x1d\n        /* \"#utility.yul\":10329:10332   */\n      dup4\n        /* \"#utility.yul\":10270:10337   */\n      tag_181\n      jump\t// in\n    tag_316:\n        /* \"#utility.yul\":10263:10337   */\n      swap2\n      pop\n        /* \"#utility.yul\":10346:10439   */\n      tag_317\n        /* \"#utility.yul\":10435:10438   */\n      dup3\n        /* \"#utility.yul\":10346:10439   */\n      tag_192\n      jump\t// in\n    tag_317:\n        /* \"#utility.yul\":10464:10466   */\n      0x20\n        /* \"#utility.yul\":10459:10462   */\n      dup3\n        /* \"#utility.yul\":10455:10467   */\n      add\n        /* \"#utility.yul\":10448:10467   */\n      swap1\n      pop\n        /* \"#utility.yul\":10107:10473   */\n      swap2\n      swap1\n      pop\n      jump\t// out\n        /* \"#utility.yul\":10479:10898   */\n    tag_105:\n        /* \"#utility.yul\":10645:10649   */\n      0x00\n        /* \"#utility.yul\":10683:10685   */\n      0x20\n        /* \"#utility.yul\":10672:10681   */\n      dup3\n        /* \"#utility.yul\":10668:10686   */\n      add\n        /* \"#utility.yul\":10660:10686   */\n      swap1\n      pop\n        /* \"#utility.yul\":10732:10741   */\n      dup2\n        /* \"#utility.yul\":10726:10730   */\n      dup2\n        /* \"#utility.yul\":10722:10742   */\n      sub\n        /* \"#utility.yul\":10718:10719   */\n      0x00\n        /* \"#utility.yul\":10707:10716   */\n      dup4\n        /* \"#utility.yul\":10703:10720   */\n      add\n        /* \"#utility.yul\":10696:10743   */\n      mstore\n        /* \"#utility.yul\":10760:10891   */\n      tag_319\n        /* \"#utility.yul\":10886:10890   */\n      dup2\n        /* \"#utility.yul\":10760:10891   */\n      tag_193\n      jump\t// in\n    tag_319:\n        /* \"#utility.yul\":10752:10891   */\n      swap1\n      pop\n        /* \"#utility.yul\":10479:10898   */\n      swap2\n      swap1\n      pop\n      jump\t// out\n        /* \"#utility.yul\":10904:11095   */\n    tag_107:\n        /* \"#utility.yul\":10944:10947   */\n      0x00\n        /* \"#utility.yul\":10963:10983   */\n      tag_321\n        /* \"#utility.yul\":10981:10982   */\n      dup3\n        /* \"#utility.yul\":10963:10983   */\n      tag_168\n      jump\t// in\n    tag_321:\n        /* \"#utility.yul\":10958:10983   */\n      swap2\n      pop\n        /* \"#utility.yul\":10997:11017   */\n      tag_322\n        /* \"#utility.yul\":11015:11016   */\n      dup4\n        /* \"#utility.yul\":10997:11017   */\n      tag_168\n      jump\t// in\n    tag_322:\n        /* \"#utility.yul\":10992:11017   */\n      swap3\n      pop\n        /* \"#utility.yul\":11040:11041   */\n      dup3\n        /* \"#utility.yul\":11037:11038   */\n      dup3\n        /* \"#utility.yul\":11033:11042   */\n      add\n        /* \"#utility.yul\":11026:11042   */\n      swap1\n      pop\n        /* \"#utility.yul\":11061:11064   */\n      dup1\n        /* \"#utility.yul\":11058:11059   */\n      dup3\n        /* \"#utility.yul\":11055:11065   */\n      gt\n        /* \"#utility.yul\":11052:11088   */\n      iszero\n      tag_323\n      jumpi\n        /* \"#utility.yul\":11068:11086   */\n      tag_324\n      tag_184\n      jump\t// in\n    tag_324:\n        /* \"#utility.yul\":11052:11088   */\n    tag_323:\n        /* \"#utility.yul\":10904:11095   */\n      swap3\n      swap2\n      pop\n      pop\n      jump\t// out\n        /* \"#utility.yul\":11101:11264   */\n    tag_194:\n        /* \"#utility.yul\":11241:11256   */\n      0x496e76616c696420746f6b656e00000000000000000000000000000000000000\n        /* \"#utility.yul\":11237:11238   */\n      0x00\n        /* \"#utility.yul\":11229:11235   */\n      dup3\n        /* \"#utility.yul\":11225:11239   */\n      add\n        /* \"#utility.yul\":11218:11257   */\n      mstore\n        /* \"#utility.yul\":11101:11264   */\n      pop\n      jump\t// out\n        /* \"#utility.yul\":11270:11636   */\n    tag_195:\n        /* \"#utility.yul\":11412:11415   */\n      0x00\n        /* \"#utility.yul\":11433:11500   */\n      tag_327\n        /* \"#utility.yul\":11497:11499   */\n      0x0d\n        /* \"#utility.yul\":11492:11495   */\n      dup4\n        /* \"#utility.yul\":11433:11500   */\n      tag_181\n      jump\t// in\n    tag_327:\n        /* \"#utility.yul\":11426:11500   */\n      swap2\n      pop\n        /* \"#utility.yul\":11509:11602   */\n      tag_328\n        /* \"#utility.yul\":11598:11601   */\n      dup3\n        /* \"#utility.yul\":11509:11602   */\n      tag_194\n      jump\t// in\n    tag_328:\n        /* \"#utility.yul\":11627:11629   */\n      0x20\n        /* \"#utility.yul\":11622:11625   */\n      dup3\n        /* \"#utility.yul\":11618:11630   */\n      add\n        /* \"#utility.yul\":11611:11630   */\n      swap1\n      pop\n        /* \"#utility.yul\":11270:11636   */\n      swap2\n      swap1\n      pop\n      jump\t// out\n        /* \"#utility.yul\":11642:12061   */\n    tag_116:\n        /* \"#utility.yul\":11808:11812   */\n      0x00\n        /* \"#utility.yul\":11846:11848   */\n      0x20\n        /* \"#utility.yul\":11835:11844   */\n      dup3\n        /* \"#utility.yul\":11831:11849   */\n      add\n        /* \"#utility.yul\":11823:11849   */\n      swap1\n      pop\n        /* \"#utility.yul\":11895:11904   */\n      dup2\n        /* \"#utility.yul\":11889:11893   */\n      dup2\n        /* \"#utility.yul\":11885:11905   */\n      sub\n        /* \"#utility.yul\":11881:11882   */\n      0x00\n        /* \"#utility.yul\":11870:11879   */\n      dup4\n        /* \"#utility.yul\":11866:11883   */\n      add\n        /* \"#utility.yul\":11859:11906   */\n      mstore\n        /* \"#utility.yul\":11923:12054   */\n      tag_330\n        /* \"#utility.yul\":12049:12053   */\n      dup2\n        /* \"#utility.yul\":11923:12054   */\n      tag_195\n      jump\t// in\n    tag_330:\n        /* \"#utility.yul\":11915:12054   */\n      swap1\n      pop\n        /* \"#utility.yul\":11642:12061   */\n      swap2\n      swap1\n      pop\n      jump\t// out\n        /* \"#utility.yul\":12067:12237   */\n    tag_196:\n        /* \"#utility.yul\":12207:12229   */\n      0x496e76616c696420696e70757420616d6f756e74000000000000000000000000\n        /* \"#utility.yul\":12203:12204   */\n      0x00\n        /* \"#utility.yul\":12195:12201   */\n      dup3\n        /* \"#utility.yul\":12191:12205   */\n      add\n        /* \"#utility.yul\":12184:12230   */\n      mstore\n        /* \"#utility.yul\":12067:12237   */\n      pop\n      jump\t// out\n        /* \"#utility.yul\":12243:12609   */\n    tag_197:\n        /* \"#utility.yul\":12385:12388   */\n      0x00\n        /* \"#utility.yul\":12406:12473   */\n      tag_333\n        /* \"#utility.yul\":12470:12472   */\n      0x14\n        /* \"#utility.yul\":12465:12468   */\n      dup4\n        /* \"#utility.yul\":12406:12473   */\n      tag_181\n      jump\t// in\n    tag_333:\n        /* \"#utility.yul\":12399:12473   */\n      swap2\n      pop\n        /* \"#utility.yul\":12482:12575   */\n      tag_334\n        /* \"#utility.yul\":12571:12574   */\n      dup3\n        /* \"#utility.yul\":12482:12575   */\n      tag_196\n      jump\t// in\n    tag_334:\n        /* \"#utility.yul\":12600:12602   */\n      0x20\n        /* \"#utility.yul\":12595:12598   */\n      dup3\n        /* \"#utility.yul\":12591:12603   */\n      add\n        /* \"#utility.yul\":12584:12603   */\n      swap1\n      pop\n        /* \"#utility.yul\":12243:12609   */\n      swap2\n      swap1\n      pop\n      jump\t// out\n        /* \"#utility.yul\":12615:13034   */\n    tag_126:\n        /* \"#utility.yul\":12781:12785   */\n      0x00\n        /* \"#utility.yul\":12819:12821   */\n      0x20\n        /* \"#utility.yul\":12808:12817   */\n      dup3\n        /* \"#utility.yul\":12804:12822   */\n      add\n        /* \"#utility.yul\":12796:12822   */\n      swap1\n      pop\n        /* \"#utility.yul\":12868:12877   */\n      dup2\n        /* \"#utility.yul\":12862:12866   */\n      dup2\n        /* \"#utility.yul\":12858:12878   */\n      sub\n        /* \"#utility.yul\":12854:12855   */\n      0x00\n        /* \"#utility.yul\":12843:12852   */\n      dup4\n        /* \"#utility.yul\":12839:12856   */\n      add\n        /* \"#utility.yul\":12832:12879   */\n      mstore\n        /* \"#utility.yul\":12896:13027   */\n      tag_336\n        /* \"#utility.yul\":13022:13026   */\n      dup2\n        /* \"#utility.yul\":12896:13027   */\n      tag_197\n      jump\t// in\n    tag_336:\n        /* \"#utility.yul\":12888:13027   */\n      swap1\n      pop\n        /* \"#utility.yul\":12615:13034   */\n      swap2\n      swap1\n      pop\n      jump\t// out\n        /* \"#utility.yul\":13040:13216   */\n    tag_198:\n        /* \"#utility.yul\":13180:13208   */\n      0x496e73756666696369656e74206f757470757420616d6f756e74000000000000\n        /* \"#utility.yul\":13176:13177   */\n      0x00\n        /* \"#utility.yul\":13168:13174   */\n      dup3\n        /* \"#utility.yul\":13164:13178   */\n      add\n        /* \"#utility.yul\":13157:13209   */\n      mstore\n        /* \"#utility.yul\":13040:13216   */\n      pop\n      jump\t// out\n        /* \"#utility.yul\":13222:13588   */\n    tag_199:\n        /* \"#utility.yul\":13364:13367   */\n      0x00\n        /* \"#utility.yul\":13385:13452   */\n      tag_339\n        /* \"#utility.yul\":13449:13451   */\n      0x1a\n        /* \"#utility.yul\":13444:13447   */\n      dup4\n        /* \"#utility.yul\":13385:13452   */\n      tag_181\n      jump\t// in\n    tag_339:\n        /* \"#utility.yul\":13378:13452   */\n      swap2\n      pop\n        /* \"#utility.yul\":13461:13554   */\n      tag_340\n        /* \"#utility.yul\":13550:13553   */\n      dup3\n        /* \"#utility.yul\":13461:13554   */\n      tag_198\n      jump\t// in\n    tag_340:\n        /* \"#utility.yul\":13579:13581   */\n      0x20\n        /* \"#utility.yul\":13574:13577   */\n      dup3\n        /* \"#utility.yul\":13570:13582   */\n      add\n        /* \"#utility.yul\":13563:13582   */\n      swap1\n      pop\n        /* \"#utility.yul\":13222:13588   */\n      swap2\n      swap1\n      pop\n      jump\t// out\n        /* \"#utility.yul\":13594:14013   */\n    tag_134:\n        /* \"#utility.yul\":13760:13764   */\n      0x00\n        /* \"#utility.yul\":13798:13800   */\n      0x20\n        /* \"#utility.yul\":13787:13796   */\n      dup3\n        /* \"#utility.yul\":13783:13801   */\n      add\n        /* \"#utility.yul\":13775:13801   */\n      swap1\n      pop\n        /* \"#utility.yul\":13847:13856   */\n      dup2\n        /* \"#utility.yul\":13841:13845   */\n      dup2\n        /* \"#utility.yul\":13837:13857   */\n      sub\n        /* \"#utility.yul\":13833:13834   */\n      0x00\n        /* \"#utility.yul\":13822:13831   */\n      dup4\n        /* \"#utility.yul\":13818:13835   */\n      add\n        /* \"#utility.yul\":13811:13858   */\n      mstore\n        /* \"#utility.yul\":13875:14006   */\n      tag_342\n        /* \"#utility.yul\":14001:14005   */\n      dup2\n        /* \"#utility.yul\":13875:14006   */\n      tag_199\n      jump\t// in\n    tag_342:\n        /* \"#utility.yul\":13867:14006   */\n      swap1\n      pop\n        /* \"#utility.yul\":13594:14013   */\n      swap2\n      swap1\n      pop\n      jump\t// out\n        /* \"#utility.yul\":14019:14487   */\n    tag_150:\n        /* \"#utility.yul\":14181:14185   */\n      0x00\n        /* \"#utility.yul\":14219:14221   */\n      0x60\n        /* \"#utility.yul\":14208:14217   */\n      dup3\n        /* \"#utility.yul\":14204:14222   */\n      add\n        /* \"#utility.yul\":14196:14222   */\n      swap1\n      pop\n        /* \"#utility.yul\":14232:14316   */\n      tag_344\n        /* \"#utility.yul\":14313:14314   */\n      0x00\n        /* \"#utility.yul\":14302:14311   */\n      dup4\n        /* \"#utility.yul\":14298:14315   */\n      add\n        /* \"#utility.yul\":14289:14295   */\n      dup7\n        /* \"#utility.yul\":14232:14316   */\n      tag_167\n      jump\t// in\n    tag_344:\n        /* \"#utility.yul\":14326:14398   */\n      tag_345\n        /* \"#utility.yul\":14394:14396   */\n      0x20\n        /* \"#utility.yul\":14383:14392   */\n      dup4\n        /* \"#utility.yul\":14379:14397   */\n      add\n        /* \"#utility.yul\":14370:14376   */\n      dup6\n        /* \"#utility.yul\":14326:14398   */\n      tag_169\n      jump\t// in\n    tag_345:\n        /* \"#utility.yul\":14408:14480   */\n      tag_346\n        /* \"#utility.yul\":14476:14478   */\n      0x40\n        /* \"#utility.yul\":14465:14474   */\n      dup4\n        /* \"#utility.yul\":14461:14479   */\n      add\n        /* \"#utility.yul\":14452:14458   */\n      dup5\n        /* \"#utility.yul\":14408:14480   */\n      tag_169\n      jump\t// in\n    tag_346:\n        /* \"#utility.yul\":14019:14487   */\n      swap5\n      swap4\n      pop\n      pop\n      pop\n      pop\n      jump\t// out\n\n    auxdata: 0xa26469706673582212207f3077d9847d3a8c541560dd36789b9a8a2fd38ab98d164d7f8123249e3044c764736f6c63430008180033\n}\n",
				"bytecode": {
					"linkReferences": {},
					"object": "608060405234801562000010575f80fd5b506040516200161838038062001618833981810160405281019062000036919062000135565b815f806101000a81548173ffffffffffffffffffffffffffffffffffffffff021916908373ffffffffffffffffffffffffffffffffffffffff1602179055508060015f6101000a81548173ffffffffffffffffffffffffffffffffffffffff021916908373ffffffffffffffffffffffffffffffffffffffff16021790555050506200017a565b5f80fd5b5f73ffffffffffffffffffffffffffffffffffffffff82169050919050565b5f620000ec82620000c1565b9050919050565b5f620000ff82620000e0565b9050919050565b6200011181620000f3565b81146200011c575f80fd5b50565b5f815190506200012f8162000106565b92915050565b5f80604083850312156200014e576200014d620000bd565b5b5f6200015d858286016200011f565b925050602062000170858286016200011f565b9150509250929050565b61149080620001885f395ff3fe608060405234801561000f575f80fd5b5060043610610091575f3560e01c806370a082311161006457806370a082311461010d5780639c8f9f231461013d5780639cd441da14610159578063d004f0f714610175578063d21220a71461019157610091565b80630dfe16811461009557806318160ddd146100b3578063443cb4bc146100d15780635a76f25e146100ef575b5f80fd5b61009d6101af565b6040516100aa9190610db4565b60405180910390f35b6100bb6101d2565b6040516100c89190610de5565b60405180910390f35b6100d96101d8565b6040516100e69190610de5565b60405180910390f35b6100f76101de565b6040516101049190610de5565b60405180910390f35b61012760048036038101906101229190610e3d565b6101e4565b6040516101349190610de5565b60405180910390f35b61015760048036038101906101529190610e92565b6101f9565b005b610173600480360381019061016e9190610ebd565b610537565b005b61018f600480360381019061018a9190610f36565b61085a565b005b610199610c9c565b6040516101a69190610db4565b60405180910390f35b5f8054906101000a900473ffffffffffffffffffffffffffffffffffffffff1681565b60045481565b60025481565b60035481565b6005602052805f5260405f205f915090505481565b5f8111801561024557508060055f3373ffffffffffffffffffffffffffffffffffffffff1673ffffffffffffffffffffffffffffffffffffffff1681526020019081526020015f205410155b610284576040517f08c379a000000000000000000000000000000000000000000000000000000000815260040161027b90610fce565b60405180910390fd5b5f600454826002546102969190611019565b6102a09190611087565b90505f600454836003546102b49190611019565b6102be9190611087565b90505f821180156102ce57505f81115b61030d576040517f08c379a000000000000000000000000000000000000000000000000000000000815260040161030490611101565b60405180910390fd5b8160025f82825461031e919061111f565b925050819055508060035f828254610336919061111f565b925050819055508260055f3373ffffffffffffffffffffffffffffffffffffffff1673ffffffffffffffffffffffffffffffffffffffff1681526020019081526020015f205f828254610389919061111f565b925050819055508260045f8282546103a1919061111f565b925050819055505f8054906101000a900473ffffffffffffffffffffffffffffffffffffffff1673ffffffffffffffffffffffffffffffffffffffff1663a9059cbb33846040518363ffffffff1660e01b8152600401610402929190611161565b6020604051808303815f875af115801561041e573d5f803e3d5ffd5b505050506040513d601f19601f8201168201806040525081019061044291906111bd565b5060015f9054906101000a900473ffffffffffffffffffffffffffffffffffffffff1673ffffffffffffffffffffffffffffffffffffffff1663a9059cbb33836040518363ffffffff1660e01b815260040161049f929190611161565b6020604051808303815f875af11580156104bb573d5f803e3d5ffd5b505050506040513d601f19601f820116820180604052508101906104df91906111bd565b503373ffffffffffffffffffffffffffffffffffffffff167f59c3a0b60c6ab7deb62e1440c9e72441db6db7dfe514dba8cb18e60c0d896efa83838660405161052a939291906111e8565b60405180910390a2505050565b5f8211801561054557505f81115b610584576040517f08c379a000000000000000000000000000000000000000000000000000000000815260040161057b90611101565b60405180910390fd5b5f8054906101000a900473ffffffffffffffffffffffffffffffffffffffff1673ffffffffffffffffffffffffffffffffffffffff166323b872dd3330856040518463ffffffff1660e01b81526004016105e09392919061121d565b6020604051808303815f875af11580156105fc573d5f803e3d5ffd5b505050506040513d601f19601f8201168201806040525081019061062091906111bd565b5060015f9054906101000a900473ffffffffffffffffffffffffffffffffffffffff1673ffffffffffffffffffffffffffffffffffffffff166323b872dd3330846040518463ffffffff1660e01b815260040161067f9392919061121d565b6020604051808303815f875af115801561069b573d5f803e3d5ffd5b505050506040513d601f19601f820116820180604052508101906106bf91906111bd565b505f80600454036106e5576106de82846106d99190611019565b610cc1565b9050610726565b610723600254600454856106f99190611019565b6107039190611087565b600354600454856107149190611019565b61071e9190611087565b610d22565b90505b5f8111610768576040517f08c379a000000000000000000000000000000000000000000000000000000000815260040161075f9061129c565b60405180910390fd5b8260025f82825461077991906112ba565b925050819055508160035f82825461079191906112ba565b925050819055508060055f3373ffffffffffffffffffffffffffffffffffffffff1673ffffffffffffffffffffffffffffffffffffffff1681526020019081526020015f205f8282546107e491906112ba565b925050819055508060045f8282546107fc91906112ba565b925050819055503373ffffffffffffffffffffffffffffffffffffffff167fbeb3885786d637a474cbc287c0a44587231633a077f0bd30354d5a4b18996fce84848460405161084d939291906111e8565b60405180910390a2505050565b5f8054906101000a900473ffffffffffffffffffffffffffffffffffffffff1673ffffffffffffffffffffffffffffffffffffffff168273ffffffffffffffffffffffffffffffffffffffff1614806108ff575060015f9054906101000a900473ffffffffffffffffffffffffffffffffffffffff1673ffffffffffffffffffffffffffffffffffffffff168273ffffffffffffffffffffffffffffffffffffffff16145b61093e576040517f08c379a000000000000000000000000000000000000000000000000000000000815260040161093590611337565b60405180910390fd5b5f805f9054906101000a900473ffffffffffffffffffffffffffffffffffffffff1673ffffffffffffffffffffffffffffffffffffffff168373ffffffffffffffffffffffffffffffffffffffff161490505f816109bb575f8054906101000a900473ffffffffffffffffffffffffffffffffffffffff166109de565b60015f9054906101000a900473ffffffffffffffffffffffffffffffffffffffff165b90505f826109ee576003546109f2565b6002545b90505f83610a0257600254610a06565b6003545b90505f85118015610a1657508185105b610a55576040517f08c379a0000000000000000000000000000000000000000000000000000000008152600401610a4c9061139f565b60405180910390fd5b5f6103e86103e587610a679190611019565b610a719190611087565b90505f8184610a8091906112ba565b8383610a8c9190611019565b610a969190611087565b90505f8111610ada576040517f08c379a0000000000000000000000000000000000000000000000000000000008152600401610ad190611407565b60405180910390fd5b8773ffffffffffffffffffffffffffffffffffffffff166323b872dd33308a6040518463ffffffff1660e01b8152600401610b179392919061121d565b6020604051808303815f875af1158015610b33573d5f803e3d5ffd5b505050506040513d601f19601f82011682018060405250810190610b5791906111bd565b508473ffffffffffffffffffffffffffffffffffffffff1663a9059cbb33836040518363ffffffff1660e01b8152600401610b93929190611161565b6020604051808303815f875af1158015610baf573d5f803e3d5ffd5b505050506040513d601f19601f82011682018060405250810190610bd391906111bd565b508515610c0f578660025f828254610beb91906112ba565b925050819055508060035f828254610c03919061111f565b92505081905550610c40565b8660035f828254610c2091906112ba565b925050819055508060025f828254610c38919061111f565b925050819055505b3373ffffffffffffffffffffffffffffffffffffffff167ffa2dda1cc1b86e41239702756b13effbc1a092b5c57e3ad320fbe4f3b13fe235898984604051610c8a93929190611425565b60405180910390a25050505050505050565b60015f9054906101000a900473ffffffffffffffffffffffffffffffffffffffff1681565b5f806002600184610cd291906112ba565b610cdc9190611087565b90505f8390505b80821015610d18578190506002828386610cfd9190611087565b610d0791906112ba565b610d119190611087565b9150610ce3565b8092505050919050565b5f818310610d305781610d32565b825b905092915050565b5f73ffffffffffffffffffffffffffffffffffffffff82169050919050565b5f819050919050565b5f610d7c610d77610d7284610d3a565b610d59565b610d3a565b9050919050565b5f610d8d82610d62565b9050919050565b5f610d9e82610d83565b9050919050565b610dae81610d94565b82525050565b5f602082019050610dc75f830184610da5565b92915050565b5f819050919050565b610ddf81610dcd565b82525050565b5f602082019050610df85f830184610dd6565b92915050565b5f80fd5b5f610e0c82610d3a565b9050919050565b610e1c81610e02565b8114610e26575f80fd5b50565b5f81359050610e3781610e13565b92915050565b5f60208284031215610e5257610e51610dfe565b5b5f610e5f84828501610e29565b91505092915050565b610e7181610dcd565b8114610e7b575f80fd5b50565b5f81359050610e8c81610e68565b92915050565b5f60208284031215610ea757610ea6610dfe565b5b5f610eb484828501610e7e565b91505092915050565b5f8060408385031215610ed357610ed2610dfe565b5b5f610ee085828601610e7e565b9250506020610ef185828601610e7e565b9150509250929050565b5f610f0582610e02565b9050919050565b610f1581610efb565b8114610f1f575f80fd5b50565b5f81359050610f3081610f0c565b92915050565b5f8060408385031215610f4c57610f4b610dfe565b5b5f610f5985828601610f22565b9250506020610f6a85828601610e7e565b9150509250929050565b5f82825260208201905092915050565b7f496e76616c6964206c697175696469747920616d6f756e7400000000000000005f82015250565b5f610fb8601883610f74565b9150610fc382610f84565b602082019050919050565b5f6020820190508181035f830152610fe581610fac565b9050919050565b7f4e487b71000000000000000000000000000000000000000000000000000000005f52601160045260245ffd5b5f61102382610dcd565b915061102e83610dcd565b925082820261103c81610dcd565b9150828204841483151761105357611052610fec565b5b5092915050565b7f4e487b71000000000000000000000000000000000000000000000000000000005f52601260045260245ffd5b5f61109182610dcd565b915061109c83610dcd565b9250826110ac576110ab61105a565b5b828204905092915050565b7f496e76616c696420616d6f756e747300000000000000000000000000000000005f82015250565b5f6110eb600f83610f74565b91506110f6826110b7565b602082019050919050565b5f6020820190508181035f830152611118816110df565b9050919050565b5f61112982610dcd565b915061113483610dcd565b925082820390508181111561114c5761114b610fec565b5b92915050565b61115b81610e02565b82525050565b5f6040820190506111745f830185611152565b6111816020830184610dd6565b9392505050565b5f8115159050919050565b61119c81611188565b81146111a6575f80fd5b50565b5f815190506111b781611193565b92915050565b5f602082840312156111d2576111d1610dfe565b5b5f6111df848285016111a9565b91505092915050565b5f6060820190506111fb5f830186610dd6565b6112086020830185610dd6565b6112156040830184610dd6565b949350505050565b5f6060820190506112305f830186611152565b61123d6020830185611152565b61124a6040830184610dd6565b949350505050565b7f496e73756666696369656e74206c6971756964697479206d696e7465640000005f82015250565b5f611286601d83610f74565b915061129182611252565b602082019050919050565b5f6020820190508181035f8301526112b38161127a565b9050919050565b5f6112c482610dcd565b91506112cf83610dcd565b92508282019050808211156112e7576112e6610fec565b5b92915050565b7f496e76616c696420746f6b656e000000000000000000000000000000000000005f82015250565b5f611321600d83610f74565b915061132c826112ed565b602082019050919050565b5f6020820190508181035f83015261134e81611315565b9050919050565b7f496e76616c696420696e70757420616d6f756e740000000000000000000000005f82015250565b5f611389601483610f74565b915061139482611355565b602082019050919050565b5f6020820190508181035f8301526113b68161137d565b9050919050565b7f496e73756666696369656e74206f757470757420616d6f756e740000000000005f82015250565b5f6113f1601a83610f74565b91506113fc826113bd565b602082019050919050565b5f6020820190508181035f83015261141e816113e5565b9050919050565b5f6060820190506114385f830186610da5565b6114456020830185610dd6565b6114526040830184610dd6565b94935050505056fea26469706673582212207f3077d9847d3a8c541560dd36789b9a8a2fd38ab98d164d7f8123249e3044c764736f6c63430008180033",
					"opcodes": "PUSH1 0x80 PUSH1 0x40 MSTORE CALLVALUE DUP1 ISZERO PUSH3 0x10 JUMPI PUSH0 DUP1 REVERT JUMPDEST POP PUSH1 0x40 MLOAD PUSH3 0x1618 CODESIZE SUB DUP1 PUSH3 0x1618 DUP4 CODECOPY DUP2 DUP2 ADD PUSH1 0x40 MSTORE DUP2 ADD SWAP1 PUSH3 0x36 SWAP2 SWAP1 PUSH3 0x135 JUMP JUMPDEST DUP2 PUSH0 DUP1 PUSH2 0x100 EXP DUP2 SLOAD DUP2 PUSH20 0xFFFFFFFFFFFFFFFFFFFFFFFFFFFFFFFFFFFFFFFF MUL NOT AND SWAP1 DUP4 PUSH20 0xFFFFFFFFFFFFFFFFFFFFFFFFFFFFFFFFFFFFFFFF AND MUL OR SWAP1 SSTORE POP DUP1 PUSH1 0x1 PUSH0 PUSH2 0x100 EXP DUP2 SLOAD DUP2 PUSH20 0xFFFFFFFFFFFFFFFFFFFFFFFFFFFFFFFFFFFFFFFF MUL NOT AND SWAP1 DUP4 PUSH20 0xFFFFFFFFFFFFFFFFFFFFFFFFFFFFFFFFFFFFFFFF AND MUL OR SWAP1 SSTORE POP POP POP PUSH3 0x17A JUMP JUMPDEST PUSH0 DUP1 REVERT JUMPDEST PUSH0 PUSH20 0xFFFFFFFFFFFFFFFFFFFFFFFFFFFFFFFFFFFFFFFF DUP3 AND SWAP1 POP SWAP2 SWAP1 POP JUMP JUMPDEST PUSH0 PUSH3 0xEC DUP3 PUSH3 0xC1 JUMP JUMPDEST SWAP1 POP SWAP2 SWAP1 POP JUMP JUMPDEST PUSH0 PUSH3 0xFF DUP3 PUSH3 0xE0 JUMP JUMPDEST SWAP1 POP SWAP2 SWAP1 POP JUMP JUMPDEST PUSH3 0x111 DUP2 PUSH3 0xF3 JUMP JUMPDEST DUP2 EQ PUSH3 0x11C JUMPI PUSH0 DUP1 REVERT JUMPDEST POP JUMP JUMPDEST PUSH0 DUP2 MLOAD SWAP1 POP PUSH3 0x12F DUP2 PUSH3 0x106 JUMP JUMPDEST SWAP3 SWAP2 POP POP JUMP JUMPDEST PUSH0 DUP1 PUSH1 0x40 DUP4 DUP6 SUB SLT ISZERO PUSH3 0x14E JUMPI PUSH3 0x14D PUSH3 0xBD JUMP JUMPDEST JUMPDEST PUSH0 PUSH3 0x15D DUP6 DUP3 DUP7 ADD PUSH3 0x11F JUMP JUMPDEST SWAP3 POP POP PUSH1 0x20 PUSH3 0x170 DUP6 DUP3 DUP7 ADD PUSH3 0x11F JUMP JUMPDEST SWAP2 POP POP SWAP3 POP SWAP3 SWAP1 POP JUMP JUMPDEST PUSH2 0x1490 DUP1 PUSH3 0x188 PUSH0 CODECOPY PUSH0 RETURN INVALID PUSH1 0x80 PUSH1 0x40 MSTORE CALLVALUE DUP1 ISZERO PUSH2 0xF JUMPI PUSH0 DUP1 REVERT JUMPDEST POP PUSH1 0x4 CALLDATASIZE LT PUSH2 0x91 JUMPI PUSH0 CALLDATALOAD PUSH1 0xE0 SHR DUP1 PUSH4 0x70A08231 GT PUSH2 0x64 JUMPI DUP1 PUSH4 0x70A08231 EQ PUSH2 0x10D JUMPI DUP1 PUSH4 0x9C8F9F23 EQ PUSH2 0x13D JUMPI DUP1 PUSH4 0x9CD441DA EQ PUSH2 0x159 JUMPI DUP1 PUSH4 0xD004F0F7 EQ PUSH2 0x175 JUMPI DUP1 PUSH4 0xD21220A7 EQ PUSH2 0x191 JUMPI PUSH2 0x91 JUMP JUMPDEST DUP1 PUSH4 0xDFE1681 EQ PUSH2 0x95 JUMPI DUP1 PUSH4 0x18160DDD EQ PUSH2 0xB3 JUMPI DUP1 PUSH4 0x443CB4BC EQ PUSH2 0xD1 JUMPI DUP1 PUSH4 0x5A76F25E EQ PUSH2 0xEF JUMPI JUMPDEST PUSH0 DUP1 REVERT JUMPDEST PUSH2 0x9D PUSH2 0x1AF JUMP JUMPDEST PUSH1 0x40 MLOAD PUSH2 0xAA SWAP2 SWAP1 PUSH2 0xDB4 JUMP JUMPDEST PUSH1 0x40 MLOAD DUP1 SWAP2 SUB SWAP1 RETURN JUMPDEST PUSH2 0xBB PUSH2 0x1D2 JUMP JUMPDEST PUSH1 0x40 MLOAD PUSH2 0xC8 SWAP2 SWAP1 PUSH2 0xDE5 JUMP JUMPDEST PUSH1 0x40 MLOAD DUP1 SWAP2 SUB SWAP1 RETURN JUMPDEST PUSH2 0xD9 PUSH2 0x1D8 JUMP JUMPDEST PUSH1 0x40 MLOAD PUSH2 0xE6 SWAP2 SWAP1 PUSH2 0xDE5 JUMP JUMPDEST PUSH1 0x40 MLOAD DUP1 SWAP2 SUB SWAP1 RETURN JUMPDEST PUSH2 0xF7 PUSH2 0x1DE JUMP JUMPDEST PUSH1 0x40 MLOAD PUSH2 0x104 SWAP2 SWAP1 PUSH2 0xDE5 JUMP JUMPDEST PUSH1 0x40 MLOAD DUP1 SWAP2 SUB SWAP1 RETURN JUMPDEST PUSH2 0x127 PUSH1 0x4 DUP1 CALLDATASIZE SUB DUP2 ADD SWAP1 PUSH2 0x122 SWAP2 SWAP1 PUSH2 0xE3D JUMP JUMPDEST PUSH2 0x1E4 JUMP JUMPDEST PUSH1 0x40 MLOAD PUSH2 0x134 SWAP2 SWAP1 PUSH2 0xDE5 JUMP JUMPDEST PUSH1 0x40 MLOAD DUP1 SWAP2 SUB SWAP1 RETURN JUMPDEST PUSH2 0x157 PUSH1 0x4 DUP1 CALLDATASIZE SUB DUP2 ADD SWAP1 PUSH2 0x152 SWAP2 SWAP1 PUSH2 0xE92 JUMP JUMPDEST PUSH2 0x1F9 JUMP JUMPDEST STOP JUMPDEST PUSH2 0x173 PUSH1 0x4 DUP1 CALLDATASIZE SUB DUP2 ADD SWAP1 PUSH2 0x16E SWAP2 SWAP1 PUSH2 0xEBD JUMP JUMPDEST PUSH2 0x537 JUMP JUMPDEST STOP JUMPDEST PUSH2 0x18F PUSH1 0x4 DUP1 CALLDATASIZE SUB DUP2 ADD SWAP1 PUSH2 0x18A SWAP2 SWAP1 PUSH2 0xF36 JUMP JUMPDEST PUSH2 0x85A JUMP JUMPDEST STOP JUMPDEST PUSH2 0x199 PUSH2 0xC9C JUMP JUMPDEST PUSH1 0x40 MLOAD PUSH2 0x1A6 SWAP2 SWAP1 PUSH2 0xDB4 JUMP JUMPDEST PUSH1 0x40 MLOAD DUP1 SWAP2 SUB SWAP1 RETURN JUMPDEST PUSH0 DUP1 SLOAD SWAP1 PUSH2 0x100 EXP SWAP1 DIV PUSH20 0xFFFFFFFFFFFFFFFFFFFFFFFFFFFFFFFFFFFFFFFF AND DUP2 JUMP JUMPDEST PUSH1 0x4 SLOAD DUP2 JUMP JUMPDEST PUSH1 0x2 SLOAD DUP2 JUMP JUMPDEST PUSH1 0x3 SLOAD DUP2 JUMP JUMPDEST PUSH1 0x5 PUSH1 0x20 MSTORE DUP1 PUSH0 MSTORE PUSH1 0x40 PUSH0 KECCAK256 PUSH0 SWAP2 POP SWAP1 POP SLOAD DUP2 JUMP JUMPDEST PUSH0 DUP2 GT DUP1 ISZERO PUSH2 0x245 JUMPI POP DUP1 PUSH1 0x5 PUSH0 CALLER PUSH20 0xFFFFFFFFFFFFFFFFFFFFFFFFFFFFFFFFFFFFFFFF AND PUSH20 0xFFFFFFFFFFFFFFFFFFFFFFFFFFFFFFFFFFFFFFFF AND DUP2 MSTORE PUSH1 0x20 ADD SWAP1 DUP2 MSTORE PUSH1 0x20 ADD PUSH0 KECCAK256 SLOAD LT ISZERO JUMPDEST PUSH2 0x284 JUMPI PUSH1 0x40 MLOAD PUSH32 0x8C379A000000000000000000000000000000000000000000000000000000000 DUP2 MSTORE PUSH1 0x4 ADD PUSH2 0x27B SWAP1 PUSH2 0xFCE JUMP JUMPDEST PUSH1 0x40 MLOAD DUP1 SWAP2 SUB SWAP1 REVERT JUMPDEST PUSH0 PUSH1 0x4 SLOAD DUP3 PUSH1 0x2 SLOAD PUSH2 0x296 SWAP2 SWAP1 PUSH2 0x1019 JUMP JUMPDEST PUSH2 0x2A0 SWAP2 SWAP1 PUSH2 0x1087 JUMP JUMPDEST SWAP1 POP PUSH0 PUSH1 0x4 SLOAD DUP4 PUSH1 0x3 SLOAD PUSH2 0x2B4 SWAP2 SWAP1 PUSH2 0x1019 JUMP JUMPDEST PUSH2 0x2BE SWAP2 SWAP1 PUSH2 0x1087 JUMP JUMPDEST SWAP1 POP PUSH0 DUP3 GT DUP1 ISZERO PUSH2 0x2CE JUMPI POP PUSH0 DUP2 GT JUMPDEST PUSH2 0x30D JUMPI PUSH1 0x40 MLOAD PUSH32 0x8C379A000000000000000000000000000000000000000000000000000000000 DUP2 MSTORE PUSH1 0x4 ADD PUSH2 0x304 SWAP1 PUSH2 0x1101 JUMP JUMPDEST PUSH1 0x40 MLOAD DUP1 SWAP2 SUB SWAP1 REVERT JUMPDEST DUP2 PUSH1 0x2 PUSH0 DUP3 DUP3 SLOAD PUSH2 0x31E SWAP2 SWAP1 PUSH2 0x111F JUMP JUMPDEST SWAP3 POP POP DUP2 SWAP1 SSTORE POP DUP1 PUSH1 0x3 PUSH0 DUP3 DUP3 SLOAD PUSH2 0x336 SWAP2 SWAP1 PUSH2 0x111F JUMP JUMPDEST SWAP3 POP POP DUP2 SWAP1 SSTORE POP DUP3 PUSH1 0x5 PUSH0 CALLER PUSH20 0xFFFFFFFFFFFFFFFFFFFFFFFFFFFFFFFFFFFFFFFF AND PUSH20 0xFFFFFFFFFFFFFFFFFFFFFFFFFFFFFFFFFFFFFFFF AND DUP2 MSTORE PUSH1 0x20 ADD SWAP1 DUP2 MSTORE PUSH1 0x20 ADD PUSH0 KECCAK256 PUSH0 DUP3 DUP3 SLOAD PUSH2 0x389 SWAP2 SWAP1 PUSH2 0x111F JUMP JUMPDEST SWAP3 POP POP DUP2 SWAP1 SSTORE POP DUP3 PUSH1 0x4 PUSH0 DUP3 DUP3 SLOAD PUSH2 0x3A1 SWAP2 SWAP1 PUSH2 0x111F JUMP JUMPDEST SWAP3 POP POP DUP2 SWAP1 SSTORE POP PUSH0 DUP1 SLOAD SWAP1 PUSH2 0x100 EXP SWAP1 DIV PUSH20 0xFFFFFFFFFFFFFFFFFFFFFFFFFFFFFFFFFFFFFFFF AND PUSH20 0xFFFFFFFFFFFFFFFFFFFFFFFFFFFFFFFFFFFFFFFF AND PUSH4 0xA9059CBB CALLER DUP5 PUSH1 0x40 MLOAD DUP4 PUSH4 0xFFFFFFFF AND PUSH1 0xE0 SHL DUP2 MSTORE PUSH1 0x4 ADD PUSH2 0x402 SWAP3 SWAP2 SWAP1 PUSH2 0x1161 JUMP JUMPDEST PUSH1 0x20 PUSH1 0x40 MLOAD DUP1 DUP4 SUB DUP2 PUSH0 DUP8 GAS CALL ISZERO DUP1 ISZERO PUSH2 0x41E JUMPI RETURNDATASIZE PUSH0 DUP1 RETURNDATACOPY RETURNDATASIZE PUSH0 REVERT JUMPDEST POP POP POP POP PUSH1 0x40 MLOAD RETURNDATASIZE PUSH1 0x1F NOT PUSH1 0x1F DUP3 ADD AND DUP3 ADD DUP1 PUSH1 0x40 MSTORE POP DUP2 ADD SWAP1 PUSH2 0x442 SWAP2 SWAP1 PUSH2 0x11BD JUMP JUMPDEST POP PUSH1 0x1 PUSH0 SWAP1 SLOAD SWAP1 PUSH2 0x100 EXP SWAP1 DIV PUSH20 0xFFFFFFFFFFFFFFFFFFFFFFFFFFFFFFFFFFFFFFFF AND PUSH20 0xFFFFFFFFFFFFFFFFFFFFFFFFFFFFFFFFFFFFFFFF AND PUSH4 0xA9059CBB CALLER DUP4 PUSH1 0x40 MLOAD DUP4 PUSH4 0xFFFFFFFF AND PUSH1 0xE0 SHL DUP2 MSTORE PUSH1 0x4 ADD PUSH2 0x49F SWAP3 SWAP2 SWAP1 PUSH2 0x1161 JUMP JUMPDEST PUSH1 0x20 PUSH1 0x40 MLOAD DUP1 DUP4 SUB DUP2 PUSH0 DUP8 GAS CALL ISZERO DUP1 ISZERO PUSH2 0x4BB JUMPI RETURNDATASIZE PUSH0 DUP1 RETURNDATACOPY RETURNDATASIZE PUSH0 REVERT JUMPDEST POP POP POP POP PUSH1 0x40 MLOAD RETURNDATASIZE PUSH1 0x1F NOT PUSH1 0x1F DUP3 ADD AND DUP3 ADD DUP1 PUSH1 0x40 MSTORE POP DUP2 ADD SWAP1 PUSH2 0x4DF SWAP2 SWAP1 PUSH2 0x11BD JUMP JUMPDEST POP CALLER PUSH20 0xFFFFFFFFFFFFFFFFFFFFFFFFFFFFFFFFFFFFFFFF AND PUSH32 0x59C3A0B60C6AB7DEB62E1440C9E72441DB6DB7DFE514DBA8CB18E60C0D896EFA DUP4 DUP4 DUP7 PUSH1 0x40 MLOAD PUSH2 0x52A SWAP4 SWAP3 SWAP2 SWAP1 PUSH2 0x11E8 JUMP JUMPDEST PUSH1 0x40 MLOAD DUP1 SWAP2 SUB SWAP1 LOG2 POP POP POP JUMP JUMPDEST PUSH0 DUP3 GT DUP1 ISZERO PUSH2 0x545 JUMPI POP PUSH0 DUP2 GT JUMPDEST PUSH2 0x584 JUMPI PUSH1 0x40 MLOAD PUSH32 0x8C379A000000000000000000000000000000000000000000000000000000000 DUP2 MSTORE PUSH1 0x4 ADD PUSH2 0x57B SWAP1 PUSH2 0x1101 JUMP JUMPDEST PUSH1 0x40 MLOAD DUP1 SWAP2 SUB SWAP1 REVERT JUMPDEST PUSH0 DUP1 SLOAD SWAP1 PUSH2 0x100 EXP SWAP1 DIV PUSH20 0xFFFFFFFFFFFFFFFFFFFFFFFFFFFFFFFFFFFFFFFF AND PUSH20 0xFFFFFFFFFFFFFFFFFFFFFFFFFFFFFFFFFFFFFFFF AND PUSH4 0x23B872DD CALLER ADDRESS DUP6 PUSH1 0x40 MLOAD DUP5 PUSH4 0xFFFFFFFF AND PUSH1 0xE0 SHL DUP2 MSTORE PUSH1 0x4 ADD PUSH2 0x5E0 SWAP4 SWAP3 SWAP2 SWAP1 PUSH2 0x121D JUMP JUMPDEST PUSH1 0x20 PUSH1 0x40 MLOAD DUP1 DUP4 SUB DUP2 PUSH0 DUP8 GAS CALL ISZERO DUP1 ISZERO PUSH2 0x5FC JUMPI RETURNDATASIZE PUSH0 DUP1 RETURNDATACOPY RETURNDATASIZE PUSH0 REVERT JUMPDEST POP POP POP POP PUSH1 0x40 MLOAD RETURNDATASIZE PUSH1 0x1F NOT PUSH1 0x1F DUP3 ADD AND DUP3 ADD DUP1 PUSH1 0x40 MSTORE POP DUP2 ADD SWAP1 PUSH2 0x620 SWAP2 SWAP1 PUSH2 0x11BD JUMP JUMPDEST POP PUSH1 0x1 PUSH0 SWAP1 SLOAD SWAP1 PUSH2 0x100 EXP SWAP1 DIV PUSH20 0xFFFFFFFFFFFFFFFFFFFFFFFFFFFFFFFFFFFFFFFF AND PUSH20 0xFFFFFFFFFFFFFFFFFFFFFFFFFFFFFFFFFFFFFFFF AND PUSH4 0x23B872DD CALLER ADDRESS DUP5 PUSH1 0x40 MLOAD DUP5 PUSH4 0xFFFFFFFF AND PUSH1 0xE0 SHL DUP2 MSTORE PUSH1 0x4 ADD PUSH2 0x67F SWAP4 SWAP3 SWAP2 SWAP1 PUSH2 0x121D JUMP JUMPDEST PUSH1 0x20 PUSH1 0x40 MLOAD DUP1 DUP4 SUB DUP2 PUSH0 DUP8 GAS CALL ISZERO DUP1 ISZERO PUSH2 0x69B JUMPI RETURNDATASIZE PUSH0 DUP1 RETURNDATACOPY RETURNDATASIZE PUSH0 REVERT JUMPDEST POP POP POP POP PUSH1 0x40 MLOAD RETURNDATASIZE PUSH1 0x1F NOT PUSH1 0x1F DUP3 ADD AND DUP3 ADD DUP1 PUSH1 0x40 MSTORE POP DUP2 ADD SWAP1 PUSH2 0x6BF SWAP2 SWAP1 PUSH2 0x11BD JUMP JUMPDEST POP PUSH0 DUP1 PUSH1 0x4 SLOAD SUB PUSH2 0x6E5 JUMPI PUSH2 0x6DE DUP3 DUP5 PUSH2 0x6D9 SWAP2 SWAP1 PUSH2 0x1019 JUMP JUMPDEST PUSH2 0xCC1 JUMP JUMPDEST SWAP1 POP PUSH2 0x726 JUMP JUMPDEST PUSH2 0x723 PUSH1 0x2 SLOAD PUSH1 0x4 SLOAD DUP6 PUSH2 0x6F9 SWAP2 SWAP1 PUSH2 0x1019 JUMP JUMPDEST PUSH2 0x703 SWAP2 SWAP1 PUSH2 0x1087 JUMP JUMPDEST PUSH1 0x3 SLOAD PUSH1 0x4 SLOAD DUP6 PUSH2 0x714 SWAP2 SWAP1 PUSH2 0x1019 JUMP JUMPDEST PUSH2 0x71E SWAP2 SWAP1 PUSH2 0x1087 JUMP JUMPDEST PUSH2 0xD22 JUMP JUMPDEST SWAP1 POP JUMPDEST PUSH0 DUP2 GT PUSH2 0x768 JUMPI PUSH1 0x40 MLOAD PUSH32 0x8C379A000000000000000000000000000000000000000000000000000000000 DUP2 MSTORE PUSH1 0x4 ADD PUSH2 0x75F SWAP1 PUSH2 0x129C JUMP JUMPDEST PUSH1 0x40 MLOAD DUP1 SWAP2 SUB SWAP1 REVERT JUMPDEST DUP3 PUSH1 0x2 PUSH0 DUP3 DUP3 SLOAD PUSH2 0x779 SWAP2 SWAP1 PUSH2 0x12BA JUMP JUMPDEST SWAP3 POP POP DUP2 SWAP1 SSTORE POP DUP2 PUSH1 0x3 PUSH0 DUP3 DUP3 SLOAD PUSH2 0x791 SWAP2 SWAP1 PUSH2 0x12BA JUMP JUMPDEST SWAP3 POP POP DUP2 SWAP1 SSTORE POP DUP1 PUSH1 0x5 PUSH0 CALLER PUSH20 0xFFFFFFFFFFFFFFFFFFFFFFFFFFFFFFFFFFFFFFFF AND PUSH20 0xFFFFFFFFFFFFFFFFFFFFFFFFFFFFFFFFFFFFFFFF AND DUP2 MSTORE PUSH1 0x20 ADD SWAP1 DUP2 MSTORE PUSH1 0x20 ADD PUSH0 KECCAK256 PUSH0 DUP3 DUP3 SLOAD PUSH2 0x7E4 SWAP2 SWAP1 PUSH2 0x12BA JUMP JUMPDEST SWAP3 POP POP DUP2 SWAP1 SSTORE POP DUP1 PUSH1 0x4 PUSH0 DUP3 DUP3 SLOAD PUSH2 0x7FC SWAP2 SWAP1 PUSH2 0x12BA JUMP JUMPDEST SWAP3 POP POP DUP2 SWAP1 SSTORE POP CALLER PUSH20 0xFFFFFFFFFFFFFFFFFFFFFFFFFFFFFFFFFFFFFFFF AND PUSH32 0xBEB3885786D637A474CBC287C0A44587231633A077F0BD30354D5A4B18996FCE DUP5 DUP5 DUP5 PUSH1 0x40 MLOAD PUSH2 0x84D SWAP4 SWAP3 SWAP2 SWAP1 PUSH2 0x11E8 JUMP JUMPDEST PUSH1 0x40 MLOAD DUP1 SWAP2 SUB SWAP1 LOG2 POP POP POP JUMP JUMPDEST PUSH0 DUP1 SLOAD SWAP1 PUSH2 0x100 EXP SWAP1 DIV PUSH20 0xFFFFFFFFFFFFFFFFFFFFFFFFFFFFFFFFFFFFFFFF AND PUSH20 0xFFFFFFFFFFFFFFFFFFFFFFFFFFFFFFFFFFFFFFFF AND DUP3 PUSH20 0xFFFFFFFFFFFFFFFFFFFFFFFFFFFFFFFFFFFFFFFF AND EQ DUP1 PUSH2 0x8FF JUMPI POP PUSH1 0x1 PUSH0 SWAP1 SLOAD SWAP1 PUSH2 0x100 EXP SWAP1 DIV PUSH20 0xFFFFFFFFFFFFFFFFFFFFFFFFFFFFFFFFFFFFFFFF AND PUSH20 0xFFFFFFFFFFFFFFFFFFFFFFFFFFFFFFFFFFFFFFFF AND DUP3 PUSH20 0xFFFFFFFFFFFFFFFFFFFFFFFFFFFFFFFFFFFFFFFF AND EQ JUMPDEST PUSH2 0x93E JUMPI PUSH1 0x40 MLOAD PUSH32 0x8C379A000000000000000000000000000000000000000000000000000000000 DUP2 MSTORE PUSH1 0x4 ADD PUSH2 0x935 SWAP1 PUSH2 0x1337 JUMP JUMPDEST PUSH1 0x40 MLOAD DUP1 SWAP2 SUB SWAP1 REVERT JUMPDEST PUSH0 DUP1 PUSH0 SWAP1 SLOAD SWAP1 PUSH2 0x100 EXP SWAP1 DIV PUSH20 0xFFFFFFFFFFFFFFFFFFFFFFFFFFFFFFFFFFFFFFFF AND PUSH20 0xFFFFFFFFFFFFFFFFFFFFFFFFFFFFFFFFFFFFFFFF AND DUP4 PUSH20 0xFFFFFFFFFFFFFFFFFFFFFFFFFFFFFFFFFFFFFFFF AND EQ SWAP1 POP PUSH0 DUP2 PUSH2 0x9BB JUMPI PUSH0 DUP1 SLOAD SWAP1 PUSH2 0x100 EXP SWAP1 DIV PUSH20 0xFFFFFFFFFFFFFFFFFFFFFFFFFFFFFFFFFFFFFFFF AND PUSH2 0x9DE JUMP JUMPDEST PUSH1 0x1 PUSH0 SWAP1 SLOAD SWAP1 PUSH2 0x100 EXP SWAP1 DIV PUSH20 0xFFFFFFFFFFFFFFFFFFFFFFFFFFFFFFFFFFFFFFFF AND JUMPDEST SWAP1 POP PUSH0 DUP3 PUSH2 0x9EE JUMPI PUSH1 0x3 SLOAD PUSH2 0x9F2 JUMP JUMPDEST PUSH1 0x2 SLOAD JUMPDEST SWAP1 POP PUSH0 DUP4 PUSH2 0xA02 JUMPI PUSH1 0x2 SLOAD PUSH2 0xA06 JUMP JUMPDEST PUSH1 0x3 SLOAD JUMPDEST SWAP1 POP PUSH0 DUP6 GT DUP1 ISZERO PUSH2 0xA16 JUMPI POP DUP2 DUP6 LT JUMPDEST PUSH2 0xA55 JUMPI PUSH1 0x40 MLOAD PUSH32 0x8C379A000000000000000000000000000000000000000000000000000000000 DUP2 MSTORE PUSH1 0x4 ADD PUSH2 0xA4C SWAP1 PUSH2 0x139F JUMP JUMPDEST PUSH1 0x40 MLOAD DUP1 SWAP2 SUB SWAP1 REVERT JUMPDEST PUSH0 PUSH2 0x3E8 PUSH2 0x3E5 DUP8 PUSH2 0xA67 SWAP2 SWAP1 PUSH2 0x1019 JUMP JUMPDEST PUSH2 0xA71 SWAP2 SWAP1 PUSH2 0x1087 JUMP JUMPDEST SWAP1 POP PUSH0 DUP2 DUP5 PUSH2 0xA80 SWAP2 SWAP1 PUSH2 0x12BA JUMP JUMPDEST DUP4 DUP4 PUSH2 0xA8C SWAP2 SWAP1 PUSH2 0x1019 JUMP JUMPDEST PUSH2 0xA96 SWAP2 SWAP1 PUSH2 0x1087 JUMP JUMPDEST SWAP1 POP PUSH0 DUP2 GT PUSH2 0xADA JUMPI PUSH1 0x40 MLOAD PUSH32 0x8C379A000000000000000000000000000000000000000000000000000000000 DUP2 MSTORE PUSH1 0x4 ADD PUSH2 0xAD1 SWAP1 PUSH2 0x1407 JUMP JUMPDEST PUSH1 0x40 MLOAD DUP1 SWAP2 SUB SWAP1 REVERT JUMPDEST DUP8 PUSH20 0xFFFFFFFFFFFFFFFFFFFFFFFFFFFFFFFFFFFFFFFF AND PUSH4 0x23B872DD CALLER ADDRESS DUP11 PUSH1 0x40 MLOAD DUP5 PUSH4 0xFFFFFFFF AND PUSH1 0xE0 SHL DUP2 MSTORE PUSH1 0x4 ADD PUSH2 0xB17 SWAP4 SWAP3 SWAP2 SWAP1 PUSH2 0x121D JUMP JUMPDEST PUSH1 0x20 PUSH1 0x40 MLOAD DUP1 DUP4 SUB DUP2 PUSH0 DUP8 GAS CALL ISZERO DUP1 ISZERO PUSH2 0xB33 JUMPI RETURNDATASIZE PUSH0 DUP1 RETURNDATACOPY RETURNDATASIZE PUSH0 REVERT JUMPDEST POP POP POP POP PUSH1 0x40 MLOAD RETURNDATASIZE PUSH1 0x1F NOT PUSH1 0x1F DUP3 ADD AND DUP3 ADD DUP1 PUSH1 0x40 MSTORE POP DUP2 ADD SWAP1 PUSH2 0xB57 SWAP2 SWAP1 PUSH2 0x11BD JUMP JUMPDEST POP DUP5 PUSH20 0xFFFFFFFFFFFFFFFFFFFFFFFFFFFFFFFFFFFFFFFF AND PUSH4 0xA9059CBB CALLER DUP4 PUSH1 0x40 MLOAD DUP4 PUSH4 0xFFFFFFFF AND PUSH1 0xE0 SHL DUP2 MSTORE PUSH1 0x4 ADD PUSH2 0xB93 SWAP3 SWAP2 SWAP1 PUSH2 0x1161 JUMP JUMPDEST PUSH1 0x20 PUSH1 0x40 MLOAD DUP1 DUP4 SUB DUP2 PUSH0 DUP8 GAS CALL ISZERO DUP1 ISZERO PUSH2 0xBAF JUMPI RETURNDATASIZE PUSH0 DUP1 RETURNDATACOPY RETURNDATASIZE PUSH0 REVERT JUMPDEST POP POP POP POP PUSH1 0x40 MLOAD RETURNDATASIZE PUSH1 0x1F NOT PUSH1 0x1F DUP3 ADD AND DUP3 ADD DUP1 PUSH1 0x40 MSTORE POP DUP2 ADD SWAP1 PUSH2 0xBD3 SWAP2 SWAP1 PUSH2 0x11BD JUMP JUMPDEST POP DUP6 ISZERO PUSH2 0xC0F JUMPI DUP7 PUSH1 0x2 PUSH0 DUP3 DUP3 SLOAD PUSH2 0xBEB SWAP2 SWAP1 PUSH2 0x12BA JUMP JUMPDEST SWAP3 POP POP DUP2 SWAP1 SSTORE POP DUP1 PUSH1 0x3 PUSH0 DUP3 DUP3 SLOAD PUSH2 0xC03 SWAP2 SWAP1 PUSH2 0x111F JUMP JUMPDEST SWAP3 POP POP DUP2 SWAP1 SSTORE POP PUSH2 0xC40 JUMP JUMPDEST DUP7 PUSH1 0x3 PUSH0 DUP3 DUP3 SLOAD PUSH2 0xC20 SWAP2 SWAP1 PUSH2 0x12BA JUMP JUMPDEST SWAP3 POP POP DUP2 SWAP1 SSTORE POP DUP1 PUSH1 0x2 PUSH0 DUP3 DUP3 SLOAD PUSH2 0xC38 SWAP2 SWAP1 PUSH2 0x111F JUMP JUMPDEST SWAP3 POP POP DUP2 SWAP1 SSTORE POP JUMPDEST CALLER PUSH20 0xFFFFFFFFFFFFFFFFFFFFFFFFFFFFFFFFFFFFFFFF AND PUSH32 0xFA2DDA1CC1B86E41239702756B13EFFBC1A092B5C57E3AD320FBE4F3B13FE235 DUP10 DUP10 DUP5 PUSH1 0x40 MLOAD PUSH2 0xC8A SWAP4 SWAP3 SWAP2 SWAP1 PUSH2 0x1425 JUMP JUMPDEST PUSH1 0x40 MLOAD DUP1 SWAP2 SUB SWAP1 LOG2 POP POP POP POP POP POP POP POP JUMP JUMPDEST PUSH1 0x1 PUSH0 SWAP1 SLOAD SWAP1 PUSH2 0x100 EXP SWAP1 DIV PUSH20 0xFFFFFFFFFFFFFFFFFFFFFFFFFFFFFFFFFFFFFFFF AND DUP2 JUMP JUMPDEST PUSH0 DUP1 PUSH1 0x2 PUSH1 0x1 DUP5 PUSH2 0xCD2 SWAP2 SWAP1 PUSH2 0x12BA JUMP JUMPDEST PUSH2 0xCDC SWAP2 SWAP1 PUSH2 0x1087 JUMP JUMPDEST SWAP1 POP PUSH0 DUP4 SWAP1 POP JUMPDEST DUP1 DUP3 LT ISZERO PUSH2 0xD18 JUMPI DUP2 SWAP1 POP PUSH1 0x2 DUP3 DUP4 DUP7 PUSH2 0xCFD SWAP2 SWAP1 PUSH2 0x1087 JUMP JUMPDEST PUSH2 0xD07 SWAP2 SWAP1 PUSH2 0x12BA JUMP JUMPDEST PUSH2 0xD11 SWAP2 SWAP1 PUSH2 0x1087 JUMP JUMPDEST SWAP2 POP PUSH2 0xCE3 JUMP JUMPDEST DUP1 SWAP3 POP POP POP SWAP2 SWAP1 POP JUMP JUMPDEST PUSH0 DUP2 DUP4 LT PUSH2 0xD30 JUMPI DUP2 PUSH2 0xD32 JUMP JUMPDEST DUP3 JUMPDEST SWAP1 POP SWAP3 SWAP2 POP POP JUMP JUMPDEST PUSH0 PUSH20 0xFFFFFFFFFFFFFFFFFFFFFFFFFFFFFFFFFFFFFFFF DUP3 AND SWAP1 POP SWAP2 SWAP1 POP JUMP JUMPDEST PUSH0 DUP2 SWAP1 POP SWAP2 SWAP1 POP JUMP JUMPDEST PUSH0 PUSH2 0xD7C PUSH2 0xD77 PUSH2 0xD72 DUP5 PUSH2 0xD3A JUMP JUMPDEST PUSH2 0xD59 JUMP JUMPDEST PUSH2 0xD3A JUMP JUMPDEST SWAP1 POP SWAP2 SWAP1 POP JUMP JUMPDEST PUSH0 PUSH2 0xD8D DUP3 PUSH2 0xD62 JUMP JUMPDEST SWAP1 POP SWAP2 SWAP1 POP JUMP JUMPDEST PUSH0 PUSH2 0xD9E DUP3 PUSH2 0xD83 JUMP JUMPDEST SWAP1 POP SWAP2 SWAP1 POP JUMP JUMPDEST PUSH2 0xDAE DUP2 PUSH2 0xD94 JUMP JUMPDEST DUP3 MSTORE POP POP JUMP JUMPDEST PUSH0 PUSH1 0x20 DUP3 ADD SWAP1 POP PUSH2 0xDC7 PUSH0 DUP4 ADD DUP5 PUSH2 0xDA5 JUMP JUMPDEST SWAP3 SWAP2 POP POP JUMP JUMPDEST PUSH0 DUP2 SWAP1 POP SWAP2 SWAP1 POP JUMP JUMPDEST PUSH2 0xDDF DUP2 PUSH2 0xDCD JUMP JUMPDEST DUP3 MSTORE POP POP JUMP JUMPDEST PUSH0 PUSH1 0x20 DUP3 ADD SWAP1 POP PUSH2 0xDF8 PUSH0 DUP4 ADD DUP5 PUSH2 0xDD6 JUMP JUMPDEST SWAP3 SWAP2 POP POP JUMP JUMPDEST PUSH0 DUP1 REVERT JUMPDEST PUSH0 PUSH2 0xE0C DUP3 PUSH2 0xD3A JUMP JUMPDEST SWAP1 POP SWAP2 SWAP1 POP JUMP JUMPDEST PUSH2 0xE1C DUP2 PUSH2 0xE02 JUMP JUMPDEST DUP2 EQ PUSH2 0xE26 JUMPI PUSH0 DUP1 REVERT JUMPDEST POP JUMP JUMPDEST PUSH0 DUP2 CALLDATALOAD SWAP1 POP PUSH2 0xE37 DUP2 PUSH2 0xE13 JUMP JUMPDEST SWAP3 SWAP2 POP POP JUMP JUMPDEST PUSH0 PUSH1 0x20 DUP3 DUP5 SUB SLT ISZERO PUSH2 0xE52 JUMPI PUSH2 0xE51 PUSH2 0xDFE JUMP JUMPDEST JUMPDEST PUSH0 PUSH2 0xE5F DUP5 DUP3 DUP6 ADD PUSH2 0xE29 JUMP JUMPDEST SWAP2 POP POP SWAP3 SWAP2 POP POP JUMP JUMPDEST PUSH2 0xE71 DUP2 PUSH2 0xDCD JUMP JUMPDEST DUP2 EQ PUSH2 0xE7B JUMPI PUSH0 DUP1 REVERT JUMPDEST POP JUMP JUMPDEST PUSH0 DUP2 CALLDATALOAD SWAP1 POP PUSH2 0xE8C DUP2 PUSH2 0xE68 JUMP JUMPDEST SWAP3 SWAP2 POP POP JUMP JUMPDEST PUSH0 PUSH1 0x20 DUP3 DUP5 SUB SLT ISZERO PUSH2 0xEA7 JUMPI PUSH2 0xEA6 PUSH2 0xDFE JUMP JUMPDEST JUMPDEST PUSH0 PUSH2 0xEB4 DUP5 DUP3 DUP6 ADD PUSH2 0xE7E JUMP JUMPDEST SWAP2 POP POP SWAP3 SWAP2 POP POP JUMP JUMPDEST PUSH0 DUP1 PUSH1 0x40 DUP4 DUP6 SUB SLT ISZERO PUSH2 0xED3 JUMPI PUSH2 0xED2 PUSH2 0xDFE JUMP JUMPDEST JUMPDEST PUSH0 PUSH2 0xEE0 DUP6 DUP3 DUP7 ADD PUSH2 0xE7E JUMP JUMPDEST SWAP3 POP POP PUSH1 0x20 PUSH2 0xEF1 DUP6 DUP3 DUP7 ADD PUSH2 0xE7E JUMP JUMPDEST SWAP2 POP POP SWAP3 POP SWAP3 SWAP1 POP JUMP JUMPDEST PUSH0 PUSH2 0xF05 DUP3 PUSH2 0xE02 JUMP JUMPDEST SWAP1 POP SWAP2 SWAP1 POP JUMP JUMPDEST PUSH2 0xF15 DUP2 PUSH2 0xEFB JUMP JUMPDEST DUP2 EQ PUSH2 0xF1F JUMPI PUSH0 DUP1 REVERT JUMPDEST POP JUMP JUMPDEST PUSH0 DUP2 CALLDATALOAD SWAP1 POP PUSH2 0xF30 DUP2 PUSH2 0xF0C JUMP JUMPDEST SWAP3 SWAP2 POP POP JUMP JUMPDEST PUSH0 DUP1 PUSH1 0x40 DUP4 DUP6 SUB SLT ISZERO PUSH2 0xF4C JUMPI PUSH2 0xF4B PUSH2 0xDFE JUMP JUMPDEST JUMPDEST PUSH0 PUSH2 0xF59 DUP6 DUP3 DUP7 ADD PUSH2 0xF22 JUMP JUMPDEST SWAP3 POP POP PUSH1 0x20 PUSH2 0xF6A DUP6 DUP3 DUP7 ADD PUSH2 0xE7E JUMP JUMPDEST SWAP2 POP POP SWAP3 POP SWAP3 SWAP1 POP JUMP JUMPDEST PUSH0 DUP3 DUP3 MSTORE PUSH1 0x20 DUP3 ADD SWAP1 POP SWAP3 SWAP2 POP POP JUMP JUMPDEST PUSH32 0x496E76616C6964206C697175696469747920616D6F756E740000000000000000 PUSH0 DUP3 ADD MSTORE POP JUMP JUMPDEST PUSH0 PUSH2 0xFB8 PUSH1 0x18 DUP4 PUSH2 0xF74 JUMP JUMPDEST SWAP2 POP PUSH2 0xFC3 DUP3 PUSH2 0xF84 JUMP JUMPDEST PUSH1 0x20 DUP3 ADD SWAP1 POP SWAP2 SWAP1 POP JUMP JUMPDEST PUSH0 PUSH1 0x20 DUP3 ADD SWAP1 POP DUP2 DUP2 SUB PUSH0 DUP4 ADD MSTORE PUSH2 0xFE5 DUP2 PUSH2 0xFAC JUMP JUMPDEST SWAP1 POP SWAP2 SWAP1 POP JUMP JUMPDEST PUSH32 0x4E487B7100000000000000000000000000000000000000000000000000000000 PUSH0 MSTORE PUSH1 0x11 PUSH1 0x4 MSTORE PUSH1 0x24 PUSH0 REVERT JUMPDEST PUSH0 PUSH2 0x1023 DUP3 PUSH2 0xDCD JUMP JUMPDEST SWAP2 POP PUSH2 0x102E DUP4 PUSH2 0xDCD JUMP JUMPDEST SWAP3 POP DUP3 DUP3 MUL PUSH2 0x103C DUP2 PUSH2 0xDCD JUMP JUMPDEST SWAP2 POP DUP3 DUP3 DIV DUP5 EQ DUP4 ISZERO OR PUSH2 0x1053 JUMPI PUSH2 0x1052 PUSH2 0xFEC JUMP JUMPDEST JUMPDEST POP SWAP3 SWAP2 POP POP JUMP JUMPDEST PUSH32 0x4E487B7100000000000000000000000000000000000000000000000000000000 PUSH0 MSTORE PUSH1 0x12 PUSH1 0x4 MSTORE PUSH1 0x24 PUSH0 REVERT JUMPDEST PUSH0 PUSH2 0x1091 DUP3 PUSH2 0xDCD JUMP JUMPDEST SWAP2 POP PUSH2 0x109C DUP4 PUSH2 0xDCD JUMP JUMPDEST SWAP3 POP DUP3 PUSH2 0x10AC JUMPI PUSH2 0x10AB PUSH2 0x105A JUMP JUMPDEST JUMPDEST DUP3 DUP3 DIV SWAP1 POP SWAP3 SWAP2 POP POP JUMP JUMPDEST PUSH32 0x496E76616C696420616D6F756E74730000000000000000000000000000000000 PUSH0 DUP3 ADD MSTORE POP JUMP JUMPDEST PUSH0 PUSH2 0x10EB PUSH1 0xF DUP4 PUSH2 0xF74 JUMP JUMPDEST SWAP2 POP PUSH2 0x10F6 DUP3 PUSH2 0x10B7 JUMP JUMPDEST PUSH1 0x20 DUP3 ADD SWAP1 POP SWAP2 SWAP1 POP JUMP JUMPDEST PUSH0 PUSH1 0x20 DUP3 ADD SWAP1 POP DUP2 DUP2 SUB PUSH0 DUP4 ADD MSTORE PUSH2 0x1118 DUP2 PUSH2 0x10DF JUMP JUMPDEST SWAP1 POP SWAP2 SWAP1 POP JUMP JUMPDEST PUSH0 PUSH2 0x1129 DUP3 PUSH2 0xDCD JUMP JUMPDEST SWAP2 POP PUSH2 0x1134 DUP4 PUSH2 0xDCD JUMP JUMPDEST SWAP3 POP DUP3 DUP3 SUB SWAP1 POP DUP2 DUP2 GT ISZERO PUSH2 0x114C JUMPI PUSH2 0x114B PUSH2 0xFEC JUMP JUMPDEST JUMPDEST SWAP3 SWAP2 POP POP JUMP JUMPDEST PUSH2 0x115B DUP2 PUSH2 0xE02 JUMP JUMPDEST DUP3 MSTORE POP POP JUMP JUMPDEST PUSH0 PUSH1 0x40 DUP3 ADD SWAP1 POP PUSH2 0x1174 PUSH0 DUP4 ADD DUP6 PUSH2 0x1152 JUMP JUMPDEST PUSH2 0x1181 PUSH1 0x20 DUP4 ADD DUP5 PUSH2 0xDD6 JUMP JUMPDEST SWAP4 SWAP3 POP POP POP JUMP JUMPDEST PUSH0 DUP2 ISZERO ISZERO SWAP1 POP SWAP2 SWAP1 POP JUMP JUMPDEST PUSH2 0x119C DUP2 PUSH2 0x1188 JUMP JUMPDEST DUP2 EQ PUSH2 0x11A6 JUMPI PUSH0 DUP1 REVERT JUMPDEST POP JUMP JUMPDEST PUSH0 DUP2 MLOAD SWAP1 POP PUSH2 0x11B7 DUP2 PUSH2 0x1193 JUMP JUMPDEST SWAP3 SWAP2 POP POP JUMP JUMPDEST PUSH0 PUSH1 0x20 DUP3 DUP5 SUB SLT ISZERO PUSH2 0x11D2 JUMPI PUSH2 0x11D1 PUSH2 0xDFE JUMP JUMPDEST JUMPDEST PUSH0 PUSH2 0x11DF DUP5 DUP3 DUP6 ADD PUSH2 0x11A9 JUMP JUMPDEST SWAP2 POP POP SWAP3 SWAP2 POP POP JUMP JUMPDEST PUSH0 PUSH1 0x60 DUP3 ADD SWAP1 POP PUSH2 0x11FB PUSH0 DUP4 ADD DUP7 PUSH2 0xDD6 JUMP JUMPDEST PUSH2 0x1208 PUSH1 0x20 DUP4 ADD DUP6 PUSH2 0xDD6 JUMP JUMPDEST PUSH2 0x1215 PUSH1 0x40 DUP4 ADD DUP5 PUSH2 0xDD6 JUMP JUMPDEST SWAP5 SWAP4 POP POP POP POP JUMP JUMPDEST PUSH0 PUSH1 0x60 DUP3 ADD SWAP1 POP PUSH2 0x1230 PUSH0 DUP4 ADD DUP7 PUSH2 0x1152 JUMP JUMPDEST PUSH2 0x123D PUSH1 0x20 DUP4 ADD DUP6 PUSH2 0x1152 JUMP JUMPDEST PUSH2 0x124A PUSH1 0x40 DUP4 ADD DUP5 PUSH2 0xDD6 JUMP JUMPDEST SWAP5 SWAP4 POP POP POP POP JUMP JUMPDEST PUSH32 0x496E73756666696369656E74206C6971756964697479206D696E746564000000 PUSH0 DUP3 ADD MSTORE POP JUMP JUMPDEST PUSH0 PUSH2 0x1286 PUSH1 0x1D DUP4 PUSH2 0xF74 JUMP JUMPDEST SWAP2 POP PUSH2 0x1291 DUP3 PUSH2 0x1252 JUMP JUMPDEST PUSH1 0x20 DUP3 ADD SWAP1 POP SWAP2 SWAP1 POP JUMP JUMPDEST PUSH0 PUSH1 0x20 DUP3 ADD SWAP1 POP DUP2 DUP2 SUB PUSH0 DUP4 ADD MSTORE PUSH2 0x12B3 DUP2 PUSH2 0x127A JUMP JUMPDEST SWAP1 POP SWAP2 SWAP1 POP JUMP JUMPDEST PUSH0 PUSH2 0x12C4 DUP3 PUSH2 0xDCD JUMP JUMPDEST SWAP2 POP PUSH2 0x12CF DUP4 PUSH2 0xDCD JUMP JUMPDEST SWAP3 POP DUP3 DUP3 ADD SWAP1 POP DUP1 DUP3 GT ISZERO PUSH2 0x12E7 JUMPI PUSH2 0x12E6 PUSH2 0xFEC JUMP JUMPDEST JUMPDEST SWAP3 SWAP2 POP POP JUMP JUMPDEST PUSH32 0x496E76616C696420746F6B656E00000000000000000000000000000000000000 PUSH0 DUP3 ADD MSTORE POP JUMP JUMPDEST PUSH0 PUSH2 0x1321 PUSH1 0xD DUP4 PUSH2 0xF74 JUMP JUMPDEST SWAP2 POP PUSH2 0x132C DUP3 PUSH2 0x12ED JUMP JUMPDEST PUSH1 0x20 DUP3 ADD SWAP1 POP SWAP2 SWAP1 POP JUMP JUMPDEST PUSH0 PUSH1 0x20 DUP3 ADD SWAP1 POP DUP2 DUP2 SUB PUSH0 DUP4 ADD MSTORE PUSH2 0x134E DUP2 PUSH2 0x1315 JUMP JUMPDEST SWAP1 POP SWAP2 SWAP1 POP JUMP JUMPDEST PUSH32 0x496E76616C696420696E70757420616D6F756E74000000000000000000000000 PUSH0 DUP3 ADD MSTORE POP JUMP JUMPDEST PUSH0 PUSH2 0x1389 PUSH1 0x14 DUP4 PUSH2 0xF74 JUMP JUMPDEST SWAP2 POP PUSH2 0x1394 DUP3 PUSH2 0x1355 JUMP JUMPDEST PUSH1 0x20 DUP3 ADD SWAP1 POP SWAP2 SWAP1 POP JUMP JUMPDEST PUSH0 PUSH1 0x20 DUP3 ADD SWAP1 POP DUP2 DUP2 SUB PUSH0 DUP4 ADD MSTORE PUSH2 0x13B6 DUP2 PUSH2 0x137D JUMP JUMPDEST SWAP1 POP SWAP2 SWAP1 POP JUMP JUMPDEST PUSH32 0x496E73756666696369656E74206F757470757420616D6F756E74000000000000 PUSH0 DUP3 ADD MSTORE POP JUMP JUMPDEST PUSH0 PUSH2 0x13F1 PUSH1 0x1A DUP4 PUSH2 0xF74 JUMP JUMPDEST SWAP2 POP PUSH2 0x13FC DUP3 PUSH2 0x13BD JUMP JUMPDEST PUSH1 0x20 DUP3 ADD SWAP1 POP SWAP2 SWAP1 POP JUMP JUMPDEST PUSH0 PUSH1 0x20 DUP3 ADD SWAP1 POP DUP2 DUP2 SUB PUSH0 DUP4 ADD MSTORE PUSH2 0x141E DUP2 PUSH2 0x13E5 JUMP JUMPDEST SWAP1 POP SWAP2 SWAP1 POP JUMP JUMPDEST PUSH0 PUSH1 0x60 DUP3 ADD SWAP1 POP PUSH2 0x1438 PUSH0 DUP4 ADD DUP7 PUSH2 0xDA5 JUMP JUMPDEST PUSH2 0x1445 PUSH1 0x20 DUP4 ADD DUP6 PUSH2 0xDD6 JUMP JUMPDEST PUSH2 0x1452 PUSH1 0x40 DUP4 ADD DUP5 PUSH2 0xDD6 JUMP JUMPDEST SWAP5 SWAP4 POP POP POP POP JUMP INVALID LOG2 PUSH5 0x6970667358 0x22 SLT KECCAK256 PUSH32 0x3077D9847D3A8C541560DD36789B9A8A2FD38AB98D164D7F8123249E3044C764 PUSH20 0x6F6C634300081800330000000000000000000000 "
				},
				"gasEstimates": {
					"creation": {
						"codeDepositCost": "1052800",
						"executionCost": "infinite",
						"totalCost": "infinite"
					},
					"external": {
						"addLiquidity(uint256,uint256)": "infinite",
						"balanceOf(address)": "2802",
						"removeLiquidity(uint256)": "infinite",
						"reserve0()": "2470",
						"reserve1()": "2492",
						"swap(address,uint256)": "infinite",
						"token0()": "infinite",
						"token1()": "infinite",
						"totalSupply()": "2448"
					},
					"internal": {
						"min(uint256,uint256)": "63",
						"sqrt(uint256)": "infinite"
					}
				},
				"methodIdentifiers": {
					"addLiquidity(uint256,uint256)": "9cd441da",
					"balanceOf(address)": "70a08231",
					"removeLiquidity(uint256)": "9c8f9f23",
					"reserve0()": "443cb4bc",
					"reserve1()": "5a76f25e",
					"swap(address,uint256)": "d004f0f7",
					"token0()": "0dfe1681",
					"token1()": "d21220a7",
					"totalSupply()": "18160ddd"
				}
			},
			"storageLayout": {
				"storage": [
					{
						"astId": 83,
						"contract": "contracts/AMM.sol:ConstantProductAMM",
						"label": "token0",
						"offset": 0,
						"slot": "0",
						"type": "t_contract(IERC20)77"
					},
					{
						"astId": 86,
						"contract": "contracts/AMM.sol:ConstantProductAMM",
						"label": "token1",
						"offset": 0,
						"slot": "1",
						"type": "t_contract(IERC20)77"
					},
					{
						"astId": 88,
						"contract": "contracts/AMM.sol:ConstantProductAMM",
						"label": "reserve0",
						"offset": 0,
						"slot": "2",
						"type": "t_uint256"
					},
					{
						"astId": 90,
						"contract": "contracts/AMM.sol:ConstantProductAMM",
						"label": "reserve1",
						"offset": 0,
						"slot": "3",
						"type": "t_uint256"
					},
					{
						"astId": 92,
						"contract": "contracts/AMM.sol:ConstantProductAMM",
						"label": "totalSupply",
						"offset": 0,
						"slot": "4",
						"type": "t_uint256"
					},
					{
						"astId": 96,
						"contract": "contracts/AMM.sol:ConstantProductAMM",
						"label": "balanceOf",
						"offset": 0,
						"slot": "5",
						"type": "t_mapping(t_address,t_uint256)"
					}
				],
				"types": {
					"t_address": {
						"encoding": "inplace",
						"label": "address",
						"numberOfBytes": "20"
					},
					"t_contract(IERC20)77": {
						"encoding": "inplace",
						"label": "contract IERC20",
						"numberOfBytes": "20"
					},
					"t_mapping(t_address,t_uint256)": {
						"encoding": "mapping",
						"key": "t_address",
						"label": "mapping(address => uint256)",
						"numberOfBytes": "32",
						"value": "t_uint256"
					},
					"t_uint256": {
						"encoding": "inplace",
						"label": "uint256",
						"numberOfBytes": "32"
					}
				}
			},
			"userdoc": {
				"kind": "user",
				"methods": {},
				"version": 1
			}
		}
	}
}