{
	"contracts/AccessControl.sol": {
		"AccessControl": {
			"abi": [
				{
					"inputs": [],
					"stateMutability": "nonpayable",
					"type": "constructor"
				},
				{
					"anonymous": false,
					"inputs": [
						{
							"indexed": true,
							"internalType": "bytes32",
							"name": "role",
							"type": "bytes32"
						},
						{
							"indexed": true,
							"internalType": "address",
							"name": "account",
							"type": "address"
						}
					],
					"name": "GrantRole",
					"type": "event"
				},
				{
					"anonymous": false,
					"inputs": [
						{
							"indexed": true,
							"internalType": "bytes32",
							"name": "role",
							"type": "bytes32"
						},
						{
							"indexed": true,
							"internalType": "address",
							"name": "account",
							"type": "address"
						}
					],
					"name": "RevokeRole",
					"type": "event"
				},
				{
					"inputs": [
						{
							"internalType": "bytes32",
							"name": "_role",
							"type": "bytes32"
						},
						{
							"internalType": "address",
							"name": "_account",
							"type": "address"
						}
					],
					"name": "grantRole",
					"outputs": [],
					"stateMutability": "nonpayable",
					"type": "function"
				},
				{
					"inputs": [
						{
							"internalType": "bytes32",
							"name": "_role",
							"type": "bytes32"
						},
						{
							"internalType": "address",
							"name": "_account",
							"type": "address"
						}
					],
					"name": "revokeRole",
					"outputs": [],
					"stateMutability": "nonpayable",
					"type": "function"
				},
				{
					"inputs": [
						{
							"internalType": "bytes32",
							"name": "",
							"type": "bytes32"
						},
						{
							"internalType": "address",
							"name": "",
							"type": "address"
						}
					],
					"name": "roles",
					"outputs": [
						{
							"internalType": "bool",
							"name": "",
							"type": "bool"
						}
					],
					"stateMutability": "view",
					"type": "function"
				}
			],
			"devdoc": {
				"kind": "dev",
				"methods": {},
				"version": 1
			},
			"evm": {
				"assembly": "    /* \"contracts/AccessControl.sol\":56:1298  contract AccessControl {... */\n  mstore(0x40, 0x80)\n    /* \"contracts/AccessControl.sol\":741:801  constructor() {... */\n  callvalue\n  dup1\n  iszero\n  tag_1\n  jumpi\n  0x00\n  dup1\n  revert\ntag_1:\n  pop\n    /* \"contracts/AccessControl.sol\":765:794  _grantRole(ADMIN, msg.sender) */\n  tag_4\n    /* \"contracts/AccessControl.sol\":440:465  abi.encodePacked(\"ADMIN\") */\n  add(0x20, mload(0x40))\n  tag_5\n  swap1\n  tag_6\n  jump\t// in\ntag_5:\n  mload(0x40)\n  0x20\n  dup2\n  dup4\n  sub\n  sub\n  dup2\n  mstore\n  swap1\n  0x40\n  mstore\n    /* \"contracts/AccessControl.sol\":430:466  keccak256(abi.encodePacked(\"ADMIN\")) */\n  dup1\n  mload\n  swap1\n  0x20\n  add\n  keccak256\n    /* \"contracts/AccessControl.sol\":783:793  msg.sender */\n  caller\n    /* \"contracts/AccessControl.sol\":765:775  _grantRole */\n  shl(0x20, tag_7)\n    /* \"contracts/AccessControl.sol\":765:794  _grantRole(ADMIN, msg.sender) */\n  0x20\n  shr\n  jump\t// in\ntag_4:\n    /* \"contracts/AccessControl.sol\":56:1298  contract AccessControl {... */\n  jump(tag_8)\n    /* \"contracts/AccessControl.sol\":807:956  function _grantRole(bytes32 _role, address _account) internal {... */\ntag_7:\n    /* \"contracts/AccessControl.sol\":904:908  true */\n  0x01\n    /* \"contracts/AccessControl.sol\":879:884  roles */\n  0x00\n    /* \"contracts/AccessControl.sol\":879:891  roles[_role] */\n  dup1\n    /* \"contracts/AccessControl.sol\":885:890  _role */\n  dup5\n    /* \"contracts/AccessControl.sol\":879:891  roles[_role] */\n  dup2\n  mstore\n  0x20\n  add\n  swap1\n  dup2\n  mstore\n  0x20\n  add\n  0x00\n  keccak256\n    /* \"contracts/AccessControl.sol\":879:901  roles[_role][_account] */\n  0x00\n    /* \"contracts/AccessControl.sol\":892:900  _account */\n  dup4\n    /* \"contracts/AccessControl.sol\":879:901  roles[_role][_account] */\n  0xffffffffffffffffffffffffffffffffffffffff\n  and\n  0xffffffffffffffffffffffffffffffffffffffff\n  and\n  dup2\n  mstore\n  0x20\n  add\n  swap1\n  dup2\n  mstore\n  0x20\n  add\n  0x00\n  keccak256\n  0x00\n    /* \"contracts/AccessControl.sol\":879:908  roles[_role][_account] = true */\n  0x0100\n  exp\n  dup2\n  sload\n  dup2\n  0xff\n  mul\n  not\n  and\n  swap1\n  dup4\n  iszero\n  iszero\n  mul\n  or\n  swap1\n  sstore\n  pop\n    /* \"contracts/AccessControl.sol\":940:948  _account */\n  dup1\n    /* \"contracts/AccessControl.sol\":923:949  GrantRole(_role, _account) */\n  0xffffffffffffffffffffffffffffffffffffffff\n  and\n    /* \"contracts/AccessControl.sol\":933:938  _role */\n  dup3\n    /* \"contracts/AccessControl.sol\":923:949  GrantRole(_role, _account) */\n  0x5a06360d65acf95e98445dc834f205063424c636e65418d928cdfabc33a95399\n  mload(0x40)\n  mload(0x40)\n  dup1\n  swap2\n  sub\n  swap1\n  log3\n    /* \"contracts/AccessControl.sol\":807:956  function _grantRole(bytes32 _role, address _account) internal {... */\n  pop\n  pop\n  jump\t// out\n    /* \"#utility.yul\":7:407   */\ntag_11:\n  0x00\n    /* \"#utility.yul\":188:272   */\n  tag_13\n    /* \"#utility.yul\":270:271   */\n  0x05\n    /* \"#utility.yul\":265:268   */\n  dup4\n    /* \"#utility.yul\":188:272   */\n  tag_14\n  jump\t// in\ntag_13:\n    /* \"#utility.yul\":181:272   */\n  swap2\n  pop\n    /* \"#utility.yul\":281:374   */\n  tag_15\n    /* \"#utility.yul\":370:373   */\n  dup3\n    /* \"#utility.yul\":281:374   */\n  tag_16\n  jump\t// in\ntag_15:\n    /* \"#utility.yul\":399:400   */\n  0x05\n    /* \"#utility.yul\":394:397   */\n  dup3\n    /* \"#utility.yul\":390:401   */\n  add\n    /* \"#utility.yul\":383:401   */\n  swap1\n  pop\n    /* \"#utility.yul\":171:407   */\n  swap2\n  swap1\n  pop\n  jump\t// out\n    /* \"#utility.yul\":413:794   */\ntag_6:\n  0x00\n    /* \"#utility.yul\":620:768   */\n  tag_18\n    /* \"#utility.yul\":764:767   */\n  dup3\n    /* \"#utility.yul\":620:768   */\n  tag_11\n  jump\t// in\ntag_18:\n    /* \"#utility.yul\":613:768   */\n  swap2\n  pop\n    /* \"#utility.yul\":785:788   */\n  dup2\n    /* \"#utility.yul\":778:788   */\n  swap1\n  pop\n    /* \"#utility.yul\":602:794   */\n  swap2\n  swap1\n  pop\n  jump\t// out\n    /* \"#utility.yul\":800:948   */\ntag_14:\n  0x00\n    /* \"#utility.yul\":939:942   */\n  dup2\n    /* \"#utility.yul\":924:942   */\n  swap1\n  pop\n    /* \"#utility.yul\":914:948   */\n  swap3\n  swap2\n  pop\n  pop\n  jump\t// out\n    /* \"#utility.yul\":954:1109   */\ntag_16:\n    /* \"#utility.yul\":1094:1101   */\n  0x41444d494e000000000000000000000000000000000000000000000000000000\n    /* \"#utility.yul\":1090:1091   */\n  0x00\n    /* \"#utility.yul\":1082:1088   */\n  dup3\n    /* \"#utility.yul\":1078:1092   */\n  add\n    /* \"#utility.yul\":1071:1102   */\n  mstore\n    /* \"#utility.yul\":1060:1109   */\n  pop\n  jump\t// out\n    /* \"contracts/AccessControl.sol\":56:1298  contract AccessControl {... */\ntag_8:\n  dataSize(sub_0)\n  dup1\n  dataOffset(sub_0)\n  0x00\n  codecopy\n  0x00\n  return\nstop\n\nsub_0: assembly {\n        /* \"contracts/AccessControl.sol\":56:1298  contract AccessControl {... */\n      mstore(0x40, 0x80)\n      callvalue\n      dup1\n      iszero\n      tag_1\n      jumpi\n      0x00\n      dup1\n      revert\n    tag_1:\n      pop\n      jumpi(tag_2, lt(calldatasize, 0x04))\n      shr(0xe0, calldataload(0x00))\n      dup1\n      0x2f2ff15d\n      eq\n      tag_3\n      jumpi\n      dup1\n      0xd547741f\n      eq\n      tag_4\n      jumpi\n      dup1\n      0xf8fc08b9\n      eq\n      tag_5\n      jumpi\n    tag_2:\n      0x00\n      dup1\n      revert\n        /* \"contracts/AccessControl.sol\":962:1103  function grantRole(bytes32 _role, address _account)... */\n    tag_3:\n      tag_6\n      0x04\n      dup1\n      calldatasize\n      sub\n      dup2\n      add\n      swap1\n      tag_7\n      swap2\n      swap1\n      tag_8\n      jump\t// in\n    tag_7:\n      tag_9\n      jump\t// in\n    tag_6:\n      stop\n        /* \"contracts/AccessControl.sol\":1109:1296  function revokeRole(bytes32 _role, address _account)... */\n    tag_4:\n      tag_10\n      0x04\n      dup1\n      calldatasize\n      sub\n      dup2\n      add\n      swap1\n      tag_11\n      swap2\n      swap1\n      tag_8\n      jump\t// in\n    tag_11:\n      tag_12\n      jump\t// in\n    tag_10:\n      stop\n        /* \"contracts/AccessControl.sol\":259:316  mapping(bytes32 => mapping(address => bool)) public roles */\n    tag_5:\n      tag_13\n      0x04\n      dup1\n      calldatasize\n      sub\n      dup2\n      add\n      swap1\n      tag_14\n      swap2\n      swap1\n      tag_8\n      jump\t// in\n    tag_14:\n      tag_15\n      jump\t// in\n    tag_13:\n      mload(0x40)\n      tag_16\n      swap2\n      swap1\n      tag_17\n      jump\t// in\n    tag_16:\n      mload(0x40)\n      dup1\n      swap2\n      sub\n      swap1\n      return\n        /* \"contracts/AccessControl.sol\":962:1103  function grantRole(bytes32 _role, address _account)... */\n    tag_9:\n        /* \"contracts/AccessControl.sol\":440:465  abi.encodePacked(\"ADMIN\") */\n      add(0x20, mload(0x40))\n      tag_18\n      swap1\n      tag_19\n      jump\t// in\n    tag_18:\n      mload(0x40)\n      0x20\n      dup2\n      dup4\n      sub\n      sub\n      dup2\n      mstore\n      swap1\n      0x40\n      mstore\n        /* \"contracts/AccessControl.sol\":430:466  keccak256(abi.encodePacked(\"ADMIN\")) */\n      dup1\n      mload\n      swap1\n      0x20\n      add\n      keccak256\n        /* \"contracts/AccessControl.sol\":675:680  roles */\n      0x00\n        /* \"contracts/AccessControl.sol\":675:687  roles[_role] */\n      dup1\n        /* \"contracts/AccessControl.sol\":681:686  _role */\n      dup3\n        /* \"contracts/AccessControl.sol\":675:687  roles[_role] */\n      dup2\n      mstore\n      0x20\n      add\n      swap1\n      dup2\n      mstore\n      0x20\n      add\n      0x00\n      keccak256\n        /* \"contracts/AccessControl.sol\":675:699  roles[_role][msg.sender] */\n      0x00\n        /* \"contracts/AccessControl.sol\":688:698  msg.sender */\n      caller\n        /* \"contracts/AccessControl.sol\":675:699  roles[_role][msg.sender] */\n      0xffffffffffffffffffffffffffffffffffffffff\n      and\n      0xffffffffffffffffffffffffffffffffffffffff\n      and\n      dup2\n      mstore\n      0x20\n      add\n      swap1\n      dup2\n      mstore\n      0x20\n      add\n      0x00\n      keccak256\n      0x00\n      swap1\n      sload\n      swap1\n      0x0100\n      exp\n      swap1\n      div\n      0xff\n      and\n        /* \"contracts/AccessControl.sol\":667:717  require(roles[_role][msg.sender], \"not authrized\") */\n      tag_21\n      jumpi\n      mload(0x40)\n      0x08c379a000000000000000000000000000000000000000000000000000000000\n      dup2\n      mstore\n      0x04\n      add\n      tag_22\n      swap1\n      tag_23\n      jump\t// in\n    tag_22:\n      mload(0x40)\n      dup1\n      swap2\n      sub\n      swap1\n      revert\n    tag_21:\n        /* \"contracts/AccessControl.sol\":1069:1096  _grantRole(_role, _account) */\n      tag_25\n        /* \"contracts/AccessControl.sol\":1080:1085  _role */\n      dup4\n        /* \"contracts/AccessControl.sol\":1087:1095  _account */\n      dup4\n        /* \"contracts/AccessControl.sol\":1069:1079  _grantRole */\n      tag_26\n        /* \"contracts/AccessControl.sol\":1069:1096  _grantRole(_role, _account) */\n      jump\t// in\n    tag_25:\n        /* \"contracts/AccessControl.sol\":962:1103  function grantRole(bytes32 _role, address _account)... */\n      pop\n      pop\n      pop\n      jump\t// out\n        /* \"contracts/AccessControl.sol\":1109:1296  function revokeRole(bytes32 _role, address _account)... */\n    tag_12:\n        /* \"contracts/AccessControl.sol\":440:465  abi.encodePacked(\"ADMIN\") */\n      add(0x20, mload(0x40))\n      tag_27\n      swap1\n      tag_19\n      jump\t// in\n    tag_27:\n      mload(0x40)\n      0x20\n      dup2\n      dup4\n      sub\n      sub\n      dup2\n      mstore\n      swap1\n      0x40\n      mstore\n        /* \"contracts/AccessControl.sol\":430:466  keccak256(abi.encodePacked(\"ADMIN\")) */\n      dup1\n      mload\n      swap1\n      0x20\n      add\n      keccak256\n        /* \"contracts/AccessControl.sol\":675:680  roles */\n      0x00\n        /* \"contracts/AccessControl.sol\":675:687  roles[_role] */\n      dup1\n        /* \"contracts/AccessControl.sol\":681:686  _role */\n      dup3\n        /* \"contracts/AccessControl.sol\":675:687  roles[_role] */\n      dup2\n      mstore\n      0x20\n      add\n      swap1\n      dup2\n      mstore\n      0x20\n      add\n      0x00\n      keccak256\n        /* \"contracts/AccessControl.sol\":675:699  roles[_role][msg.sender] */\n      0x00\n        /* \"contracts/AccessControl.sol\":688:698  msg.sender */\n      caller\n        /* \"contracts/AccessControl.sol\":675:699  roles[_role][msg.sender] */\n      0xffffffffffffffffffffffffffffffffffffffff\n      and\n      0xffffffffffffffffffffffffffffffffffffffff\n      and\n      dup2\n      mstore\n      0x20\n      add\n      swap1\n      dup2\n      mstore\n      0x20\n      add\n      0x00\n      keccak256\n      0x00\n      swap1\n      sload\n      swap1\n      0x0100\n      exp\n      swap1\n      div\n      0xff\n      and\n        /* \"contracts/AccessControl.sol\":667:717  require(roles[_role][msg.sender], \"not authrized\") */\n      tag_29\n      jumpi\n      mload(0x40)\n      0x08c379a000000000000000000000000000000000000000000000000000000000\n      dup2\n      mstore\n      0x04\n      add\n      tag_30\n      swap1\n      tag_23\n      jump\t// in\n    tag_30:\n      mload(0x40)\n      dup1\n      swap2\n      sub\n      swap1\n      revert\n    tag_29:\n        /* \"contracts/AccessControl.sol\":1242:1247  false */\n      0x00\n        /* \"contracts/AccessControl.sol\":1217:1222  roles */\n      dup1\n        /* \"contracts/AccessControl.sol\":1217:1229  roles[_role] */\n      0x00\n        /* \"contracts/AccessControl.sol\":1223:1228  _role */\n      dup6\n        /* \"contracts/AccessControl.sol\":1217:1229  roles[_role] */\n      dup2\n      mstore\n      0x20\n      add\n      swap1\n      dup2\n      mstore\n      0x20\n      add\n      0x00\n      keccak256\n        /* \"contracts/AccessControl.sol\":1217:1239  roles[_role][_account] */\n      0x00\n        /* \"contracts/AccessControl.sol\":1230:1238  _account */\n      dup5\n        /* \"contracts/AccessControl.sol\":1217:1239  roles[_role][_account] */\n      0xffffffffffffffffffffffffffffffffffffffff\n      and\n      0xffffffffffffffffffffffffffffffffffffffff\n      and\n      dup2\n      mstore\n      0x20\n      add\n      swap1\n      dup2\n      mstore\n      0x20\n      add\n      0x00\n      keccak256\n      0x00\n        /* \"contracts/AccessControl.sol\":1217:1247  roles[_role][_account] = false */\n      0x0100\n      exp\n      dup2\n      sload\n      dup2\n      0xff\n      mul\n      not\n      and\n      swap1\n      dup4\n      iszero\n      iszero\n      mul\n      or\n      swap1\n      sstore\n      pop\n        /* \"contracts/AccessControl.sol\":1280:1288  _account */\n      dup2\n        /* \"contracts/AccessControl.sol\":1262:1289  RevokeRole(_role, _account) */\n      0xffffffffffffffffffffffffffffffffffffffff\n      and\n        /* \"contracts/AccessControl.sol\":1273:1278  _role */\n      dup4\n        /* \"contracts/AccessControl.sol\":1262:1289  RevokeRole(_role, _account) */\n      0x76e6093c136cd7faa5a6d92b2b633f3b4595abd4a529b7a13917398355fea694\n      mload(0x40)\n      mload(0x40)\n      dup1\n      swap2\n      sub\n      swap1\n      log3\n        /* \"contracts/AccessControl.sol\":1109:1296  function revokeRole(bytes32 _role, address _account)... */\n      pop\n      pop\n      pop\n      jump\t// out\n        /* \"contracts/AccessControl.sol\":259:316  mapping(bytes32 => mapping(address => bool)) public roles */\n    tag_15:\n      mstore(0x20, 0x00)\n      dup2\n      0x00\n      mstore\n      mstore(0x20, keccak256(0x00, 0x40))\n      dup1\n      0x00\n      mstore\n      keccak256(0x00, 0x40)\n      0x00\n      swap2\n      pop\n      swap2\n      pop\n      swap1\n      sload\n      swap1\n      0x0100\n      exp\n      swap1\n      div\n      0xff\n      and\n      dup2\n      jump\t// out\n        /* \"contracts/AccessControl.sol\":807:956  function _grantRole(bytes32 _role, address _account) internal {... */\n    tag_26:\n        /* \"contracts/AccessControl.sol\":904:908  true */\n      0x01\n        /* \"contracts/AccessControl.sol\":879:884  roles */\n      0x00\n        /* \"contracts/AccessControl.sol\":879:891  roles[_role] */\n      dup1\n        /* \"contracts/AccessControl.sol\":885:890  _role */\n      dup5\n        /* \"contracts/AccessControl.sol\":879:891  roles[_role] */\n      dup2\n      mstore\n      0x20\n      add\n      swap1\n      dup2\n      mstore\n      0x20\n      add\n      0x00\n      keccak256\n        /* \"contracts/AccessControl.sol\":879:901  roles[_role][_account] */\n      0x00\n        /* \"contracts/AccessControl.sol\":892:900  _account */\n      dup4\n        /* \"contracts/AccessControl.sol\":879:901  roles[_role][_account] */\n      0xffffffffffffffffffffffffffffffffffffffff\n      and\n      0xffffffffffffffffffffffffffffffffffffffff\n      and\n      dup2\n      mstore\n      0x20\n      add\n      swap1\n      dup2\n      mstore\n      0x20\n      add\n      0x00\n      keccak256\n      0x00\n        /* \"contracts/AccessControl.sol\":879:908  roles[_role][_account] = true */\n      0x0100\n      exp\n      dup2\n      sload\n      dup2\n      0xff\n      mul\n      not\n      and\n      swap1\n      dup4\n      iszero\n      iszero\n      mul\n      or\n      swap1\n      sstore\n      pop\n        /* \"contracts/AccessControl.sol\":940:948  _account */\n      dup1\n        /* \"contracts/AccessControl.sol\":923:949  GrantRole(_role, _account) */\n      0xffffffffffffffffffffffffffffffffffffffff\n      and\n        /* \"contracts/AccessControl.sol\":933:938  _role */\n      dup3\n        /* \"contracts/AccessControl.sol\":923:949  GrantRole(_role, _account) */\n      0x5a06360d65acf95e98445dc834f205063424c636e65418d928cdfabc33a95399\n      mload(0x40)\n      mload(0x40)\n      dup1\n      swap2\n      sub\n      swap1\n      log3\n        /* \"contracts/AccessControl.sol\":807:956  function _grantRole(bytes32 _role, address _account) internal {... */\n      pop\n      pop\n      jump\t// out\n        /* \"#utility.yul\":7:146   */\n    tag_34:\n      0x00\n        /* \"#utility.yul\":91:97   */\n      dup2\n        /* \"#utility.yul\":78:98   */\n      calldataload\n        /* \"#utility.yul\":69:98   */\n      swap1\n      pop\n        /* \"#utility.yul\":107:140   */\n      tag_36\n        /* \"#utility.yul\":134:139   */\n      dup2\n        /* \"#utility.yul\":107:140   */\n      tag_37\n      jump\t// in\n    tag_36:\n        /* \"#utility.yul\":59:146   */\n      swap3\n      swap2\n      pop\n      pop\n      jump\t// out\n        /* \"#utility.yul\":152:291   */\n    tag_38:\n      0x00\n        /* \"#utility.yul\":236:242   */\n      dup2\n        /* \"#utility.yul\":223:243   */\n      calldataload\n        /* \"#utility.yul\":214:243   */\n      swap1\n      pop\n        /* \"#utility.yul\":252:285   */\n      tag_40\n        /* \"#utility.yul\":279:284   */\n      dup2\n        /* \"#utility.yul\":252:285   */\n      tag_41\n      jump\t// in\n    tag_40:\n        /* \"#utility.yul\":204:291   */\n      swap3\n      swap2\n      pop\n      pop\n      jump\t// out\n        /* \"#utility.yul\":297:704   */\n    tag_8:\n      0x00\n      dup1\n        /* \"#utility.yul\":422:424   */\n      0x40\n        /* \"#utility.yul\":410:419   */\n      dup4\n        /* \"#utility.yul\":401:408   */\n      dup6\n        /* \"#utility.yul\":397:420   */\n      sub\n        /* \"#utility.yul\":393:425   */\n      slt\n        /* \"#utility.yul\":390:392   */\n      iszero\n      tag_43\n      jumpi\n        /* \"#utility.yul\":438:439   */\n      0x00\n        /* \"#utility.yul\":435:436   */\n      dup1\n        /* \"#utility.yul\":428:440   */\n      revert\n        /* \"#utility.yul\":390:392   */\n    tag_43:\n        /* \"#utility.yul\":481:482   */\n      0x00\n        /* \"#utility.yul\":506:559   */\n      tag_44\n        /* \"#utility.yul\":551:558   */\n      dup6\n        /* \"#utility.yul\":542:548   */\n      dup3\n        /* \"#utility.yul\":531:540   */\n      dup7\n        /* \"#utility.yul\":527:549   */\n      add\n        /* \"#utility.yul\":506:559   */\n      tag_38\n      jump\t// in\n    tag_44:\n        /* \"#utility.yul\":496:559   */\n      swap3\n      pop\n        /* \"#utility.yul\":452:569   */\n      pop\n        /* \"#utility.yul\":608:610   */\n      0x20\n        /* \"#utility.yul\":634:687   */\n      tag_45\n        /* \"#utility.yul\":679:686   */\n      dup6\n        /* \"#utility.yul\":670:676   */\n      dup3\n        /* \"#utility.yul\":659:668   */\n      dup7\n        /* \"#utility.yul\":655:677   */\n      add\n        /* \"#utility.yul\":634:687   */\n      tag_34\n      jump\t// in\n    tag_45:\n        /* \"#utility.yul\":624:687   */\n      swap2\n      pop\n        /* \"#utility.yul\":579:697   */\n      pop\n        /* \"#utility.yul\":380:704   */\n      swap3\n      pop\n      swap3\n      swap1\n      pop\n      jump\t// out\n        /* \"#utility.yul\":710:819   */\n    tag_46:\n        /* \"#utility.yul\":791:812   */\n      tag_48\n        /* \"#utility.yul\":806:811   */\n      dup2\n        /* \"#utility.yul\":791:812   */\n      tag_49\n      jump\t// in\n    tag_48:\n        /* \"#utility.yul\":786:789   */\n      dup3\n        /* \"#utility.yul\":779:813   */\n      mstore\n        /* \"#utility.yul\":769:819   */\n      pop\n      pop\n      jump\t// out\n        /* \"#utility.yul\":825:1225   */\n    tag_50:\n      0x00\n        /* \"#utility.yul\":1006:1090   */\n      tag_52\n        /* \"#utility.yul\":1088:1089   */\n      0x05\n        /* \"#utility.yul\":1083:1086   */\n      dup4\n        /* \"#utility.yul\":1006:1090   */\n      tag_53\n      jump\t// in\n    tag_52:\n        /* \"#utility.yul\":999:1090   */\n      swap2\n      pop\n        /* \"#utility.yul\":1099:1192   */\n      tag_54\n        /* \"#utility.yul\":1188:1191   */\n      dup3\n        /* \"#utility.yul\":1099:1192   */\n      tag_55\n      jump\t// in\n    tag_54:\n        /* \"#utility.yul\":1217:1218   */\n      0x05\n        /* \"#utility.yul\":1212:1215   */\n      dup3\n        /* \"#utility.yul\":1208:1219   */\n      add\n        /* \"#utility.yul\":1201:1219   */\n      swap1\n      pop\n        /* \"#utility.yul\":989:1225   */\n      swap2\n      swap1\n      pop\n      jump\t// out\n        /* \"#utility.yul\":1231:1597   */\n    tag_56:\n      0x00\n        /* \"#utility.yul\":1394:1461   */\n      tag_58\n        /* \"#utility.yul\":1458:1460   */\n      0x0d\n        /* \"#utility.yul\":1453:1456   */\n      dup4\n        /* \"#utility.yul\":1394:1461   */\n      tag_59\n      jump\t// in\n    tag_58:\n        /* \"#utility.yul\":1387:1461   */\n      swap2\n      pop\n        /* \"#utility.yul\":1470:1563   */\n      tag_60\n        /* \"#utility.yul\":1559:1562   */\n      dup3\n        /* \"#utility.yul\":1470:1563   */\n      tag_61\n      jump\t// in\n    tag_60:\n        /* \"#utility.yul\":1588:1590   */\n      0x20\n        /* \"#utility.yul\":1583:1586   */\n      dup3\n        /* \"#utility.yul\":1579:1591   */\n      add\n        /* \"#utility.yul\":1572:1591   */\n      swap1\n      pop\n        /* \"#utility.yul\":1377:1597   */\n      swap2\n      swap1\n      pop\n      jump\t// out\n        /* \"#utility.yul\":1603:1984   */\n    tag_19:\n      0x00\n        /* \"#utility.yul\":1810:1958   */\n      tag_63\n        /* \"#utility.yul\":1954:1957   */\n      dup3\n        /* \"#utility.yul\":1810:1958   */\n      tag_50\n      jump\t// in\n    tag_63:\n        /* \"#utility.yul\":1803:1958   */\n      swap2\n      pop\n        /* \"#utility.yul\":1975:1978   */\n      dup2\n        /* \"#utility.yul\":1968:1978   */\n      swap1\n      pop\n        /* \"#utility.yul\":1792:1984   */\n      swap2\n      swap1\n      pop\n      jump\t// out\n        /* \"#utility.yul\":1990:2200   */\n    tag_17:\n      0x00\n        /* \"#utility.yul\":2115:2117   */\n      0x20\n        /* \"#utility.yul\":2104:2113   */\n      dup3\n        /* \"#utility.yul\":2100:2118   */\n      add\n        /* \"#utility.yul\":2092:2118   */\n      swap1\n      pop\n        /* \"#utility.yul\":2128:2193   */\n      tag_65\n        /* \"#utility.yul\":2190:2191   */\n      0x00\n        /* \"#utility.yul\":2179:2188   */\n      dup4\n        /* \"#utility.yul\":2175:2192   */\n      add\n        /* \"#utility.yul\":2166:2172   */\n      dup5\n        /* \"#utility.yul\":2128:2193   */\n      tag_46\n      jump\t// in\n    tag_65:\n        /* \"#utility.yul\":2082:2200   */\n      swap3\n      swap2\n      pop\n      pop\n      jump\t// out\n        /* \"#utility.yul\":2206:2625   */\n    tag_23:\n      0x00\n        /* \"#utility.yul\":2410:2412   */\n      0x20\n        /* \"#utility.yul\":2399:2408   */\n      dup3\n        /* \"#utility.yul\":2395:2413   */\n      add\n        /* \"#utility.yul\":2387:2413   */\n      swap1\n      pop\n        /* \"#utility.yul\":2459:2468   */\n      dup2\n        /* \"#utility.yul\":2453:2457   */\n      dup2\n        /* \"#utility.yul\":2449:2469   */\n      sub\n        /* \"#utility.yul\":2445:2446   */\n      0x00\n        /* \"#utility.yul\":2434:2443   */\n      dup4\n        /* \"#utility.yul\":2430:2447   */\n      add\n        /* \"#utility.yul\":2423:2470   */\n      mstore\n        /* \"#utility.yul\":2487:2618   */\n      tag_67\n        /* \"#utility.yul\":2613:2617   */\n      dup2\n        /* \"#utility.yul\":2487:2618   */\n      tag_56\n      jump\t// in\n    tag_67:\n        /* \"#utility.yul\":2479:2618   */\n      swap1\n      pop\n        /* \"#utility.yul\":2377:2625   */\n      swap2\n      swap1\n      pop\n      jump\t// out\n        /* \"#utility.yul\":2631:2800   */\n    tag_59:\n      0x00\n        /* \"#utility.yul\":2749:2755   */\n      dup3\n        /* \"#utility.yul\":2744:2747   */\n      dup3\n        /* \"#utility.yul\":2737:2756   */\n      mstore\n        /* \"#utility.yul\":2789:2793   */\n      0x20\n        /* \"#utility.yul\":2784:2787   */\n      dup3\n        /* \"#utility.yul\":2780:2794   */\n      add\n        /* \"#utility.yul\":2765:2794   */\n      swap1\n      pop\n        /* \"#utility.yul\":2727:2800   */\n      swap3\n      swap2\n      pop\n      pop\n      jump\t// out\n        /* \"#utility.yul\":2806:2954   */\n    tag_53:\n      0x00\n        /* \"#utility.yul\":2945:2948   */\n      dup2\n        /* \"#utility.yul\":2930:2948   */\n      swap1\n      pop\n        /* \"#utility.yul\":2920:2954   */\n      swap3\n      swap2\n      pop\n      pop\n      jump\t// out\n        /* \"#utility.yul\":2960:3056   */\n    tag_70:\n      0x00\n        /* \"#utility.yul\":3026:3050   */\n      tag_72\n        /* \"#utility.yul\":3044:3049   */\n      dup3\n        /* \"#utility.yul\":3026:3050   */\n      tag_73\n      jump\t// in\n    tag_72:\n        /* \"#utility.yul\":3015:3050   */\n      swap1\n      pop\n        /* \"#utility.yul\":3005:3056   */\n      swap2\n      swap1\n      pop\n      jump\t// out\n        /* \"#utility.yul\":3062:3152   */\n    tag_49:\n      0x00\n        /* \"#utility.yul\":3139:3144   */\n      dup2\n        /* \"#utility.yul\":3132:3145   */\n      iszero\n        /* \"#utility.yul\":3125:3146   */\n      iszero\n        /* \"#utility.yul\":3114:3146   */\n      swap1\n      pop\n        /* \"#utility.yul\":3104:3152   */\n      swap2\n      swap1\n      pop\n      jump\t// out\n        /* \"#utility.yul\":3158:3235   */\n    tag_75:\n      0x00\n        /* \"#utility.yul\":3224:3229   */\n      dup2\n        /* \"#utility.yul\":3213:3229   */\n      swap1\n      pop\n        /* \"#utility.yul\":3203:3235   */\n      swap2\n      swap1\n      pop\n      jump\t// out\n        /* \"#utility.yul\":3241:3367   */\n    tag_73:\n      0x00\n        /* \"#utility.yul\":3318:3360   */\n      0xffffffffffffffffffffffffffffffffffffffff\n        /* \"#utility.yul\":3311:3316   */\n      dup3\n        /* \"#utility.yul\":3307:3361   */\n      and\n        /* \"#utility.yul\":3296:3361   */\n      swap1\n      pop\n        /* \"#utility.yul\":3286:3367   */\n      swap2\n      swap1\n      pop\n      jump\t// out\n        /* \"#utility.yul\":3373:3528   */\n    tag_55:\n        /* \"#utility.yul\":3513:3520   */\n      0x41444d494e000000000000000000000000000000000000000000000000000000\n        /* \"#utility.yul\":3509:3510   */\n      0x00\n        /* \"#utility.yul\":3501:3507   */\n      dup3\n        /* \"#utility.yul\":3497:3511   */\n      add\n        /* \"#utility.yul\":3490:3521   */\n      mstore\n        /* \"#utility.yul\":3479:3528   */\n      pop\n      jump\t// out\n        /* \"#utility.yul\":3534:3697   */\n    tag_61:\n        /* \"#utility.yul\":3674:3689   */\n      0x6e6f74206175746872697a656400000000000000000000000000000000000000\n        /* \"#utility.yul\":3670:3671   */\n      0x00\n        /* \"#utility.yul\":3662:3668   */\n      dup3\n        /* \"#utility.yul\":3658:3672   */\n      add\n        /* \"#utility.yul\":3651:3690   */\n      mstore\n        /* \"#utility.yul\":3640:3697   */\n      pop\n      jump\t// out\n        /* \"#utility.yul\":3703:3825   */\n    tag_37:\n        /* \"#utility.yul\":3776:3800   */\n      tag_81\n        /* \"#utility.yul\":3794:3799   */\n      dup2\n        /* \"#utility.yul\":3776:3800   */\n      tag_70\n      jump\t// in\n    tag_81:\n        /* \"#utility.yul\":3769:3774   */\n      dup2\n        /* \"#utility.yul\":3766:3801   */\n      eq\n        /* \"#utility.yul\":3756:3758   */\n      tag_82\n      jumpi\n        /* \"#utility.yul\":3815:3816   */\n      0x00\n        /* \"#utility.yul\":3812:3813   */\n      dup1\n        /* \"#utility.yul\":3805:3817   */\n      revert\n        /* \"#utility.yul\":3756:3758   */\n    tag_82:\n        /* \"#utility.yul\":3746:3825   */\n      pop\n      jump\t// out\n        /* \"#utility.yul\":3831:3953   */\n    tag_41:\n        /* \"#utility.yul\":3904:3928   */\n      tag_84\n        /* \"#utility.yul\":3922:3927   */\n      dup2\n        /* \"#utility.yul\":3904:3928   */\n      tag_75\n      jump\t// in\n    tag_84:\n        /* \"#utility.yul\":3897:3902   */\n      dup2\n        /* \"#utility.yul\":3894:3929   */\n      eq\n        /* \"#utility.yul\":3884:3886   */\n      tag_85\n      jumpi\n        /* \"#utility.yul\":3943:3944   */\n      0x00\n        /* \"#utility.yul\":3940:3941   */\n      dup1\n        /* \"#utility.yul\":3933:3945   */\n      revert\n        /* \"#utility.yul\":3884:3886   */\n    tag_85:\n        /* \"#utility.yul\":3874:3953   */\n      pop\n      jump\t// out\n\n    auxdata: 0xa264697066735822122057fa3d0829f4785673dfb6d172e28232561db6ff186633f761be341314d0cff264736f6c63430008030033\n}\n",
				"bytecode": {
					"linkReferences": {},
					"object": "608060405234801561001057600080fd5b506100456040516020016100239061011d565b604051602081830303815290604052805190602001203361004a60201b60201c565b610166565b600160008084815260200190815260200160002060008373ffffffffffffffffffffffffffffffffffffffff1673ffffffffffffffffffffffffffffffffffffffff16815260200190815260200160002060006101000a81548160ff0219169083151502179055508073ffffffffffffffffffffffffffffffffffffffff16827f5a06360d65acf95e98445dc834f205063424c636e65418d928cdfabc33a9539960405160405180910390a35050565b6000610107600583610132565b91506101128261013d565b600582019050919050565b6000610128826100fa565b9150819050919050565b600081905092915050565b7f41444d494e000000000000000000000000000000000000000000000000000000600082015250565b6105f4806101756000396000f3fe608060405234801561001057600080fd5b50600436106100415760003560e01c80632f2ff15d14610046578063d547741f14610062578063f8fc08b91461007e575b600080fd5b610060600480360381019061005b91906103f9565b6100ae565b005b61007c600480360381019061007791906103f9565b61017e565b005b610098600480360381019061009391906103f9565b6102f0565b6040516100a5919061049f565b60405180910390f35b6040516020016100bd9061048a565b6040516020818303038152906040528051906020012060008082815260200190815260200160002060003373ffffffffffffffffffffffffffffffffffffffff1673ffffffffffffffffffffffffffffffffffffffff16815260200190815260200160002060009054906101000a900460ff1661016f576040517f08c379a0000000000000000000000000000000000000000000000000000000008152600401610166906104ba565b60405180910390fd5b610179838361031f565b505050565b60405160200161018d9061048a565b6040516020818303038152906040528051906020012060008082815260200190815260200160002060003373ffffffffffffffffffffffffffffffffffffffff1673ffffffffffffffffffffffffffffffffffffffff16815260200190815260200160002060009054906101000a900460ff1661023f576040517f08c379a0000000000000000000000000000000000000000000000000000000008152600401610236906104ba565b60405180910390fd5b600080600085815260200190815260200160002060008473ffffffffffffffffffffffffffffffffffffffff1673ffffffffffffffffffffffffffffffffffffffff16815260200190815260200160002060006101000a81548160ff0219169083151502179055508173ffffffffffffffffffffffffffffffffffffffff16837f76e6093c136cd7faa5a6d92b2b633f3b4595abd4a529b7a13917398355fea69460405160405180910390a3505050565b60006020528160005260406000206020528060005260406000206000915091509054906101000a900460ff1681565b600160008084815260200190815260200160002060008373ffffffffffffffffffffffffffffffffffffffff1673ffffffffffffffffffffffffffffffffffffffff16815260200190815260200160002060006101000a81548160ff0219169083151502179055508073ffffffffffffffffffffffffffffffffffffffff16827f5a06360d65acf95e98445dc834f205063424c636e65418d928cdfabc33a9539960405160405180910390a35050565b6000813590506103de81610590565b92915050565b6000813590506103f3816105a7565b92915050565b6000806040838503121561040c57600080fd5b600061041a858286016103e4565b925050602061042b858286016103cf565b9150509250929050565b61043e81610508565b82525050565b60006104516005836104eb565b915061045c8261053e565b600582019050919050565b6000610474600d836104da565b915061047f82610567565b602082019050919050565b600061049582610444565b9150819050919050565b60006020820190506104b46000830184610435565b92915050565b600060208201905081810360008301526104d381610467565b9050919050565b600082825260208201905092915050565b600081905092915050565b60006105018261051e565b9050919050565b60008115159050919050565b6000819050919050565b600073ffffffffffffffffffffffffffffffffffffffff82169050919050565b7f41444d494e000000000000000000000000000000000000000000000000000000600082015250565b7f6e6f74206175746872697a656400000000000000000000000000000000000000600082015250565b610599816104f6565b81146105a457600080fd5b50565b6105b081610514565b81146105bb57600080fd5b5056fea264697066735822122057fa3d0829f4785673dfb6d172e28232561db6ff186633f761be341314d0cff264736f6c63430008030033",
					"opcodes": "PUSH1 0x80 PUSH1 0x40 MSTORE CALLVALUE DUP1 ISZERO PUSH2 0x10 JUMPI PUSH1 0x0 DUP1 REVERT JUMPDEST POP PUSH2 0x45 PUSH1 0x40 MLOAD PUSH1 0x20 ADD PUSH2 0x23 SWAP1 PUSH2 0x11D JUMP JUMPDEST PUSH1 0x40 MLOAD PUSH1 0x20 DUP2 DUP4 SUB SUB DUP2 MSTORE SWAP1 PUSH1 0x40 MSTORE DUP1 MLOAD SWAP1 PUSH1 0x20 ADD KECCAK256 CALLER PUSH2 0x4A PUSH1 0x20 SHL PUSH1 0x20 SHR JUMP JUMPDEST PUSH2 0x166 JUMP JUMPDEST PUSH1 0x1 PUSH1 0x0 DUP1 DUP5 DUP2 MSTORE PUSH1 0x20 ADD SWAP1 DUP2 MSTORE PUSH1 0x20 ADD PUSH1 0x0 KECCAK256 PUSH1 0x0 DUP4 PUSH20 0xFFFFFFFFFFFFFFFFFFFFFFFFFFFFFFFFFFFFFFFF AND PUSH20 0xFFFFFFFFFFFFFFFFFFFFFFFFFFFFFFFFFFFFFFFF AND DUP2 MSTORE PUSH1 0x20 ADD SWAP1 DUP2 MSTORE PUSH1 0x20 ADD PUSH1 0x0 KECCAK256 PUSH1 0x0 PUSH2 0x100 EXP DUP2 SLOAD DUP2 PUSH1 0xFF MUL NOT AND SWAP1 DUP4 ISZERO ISZERO MUL OR SWAP1 SSTORE POP DUP1 PUSH20 0xFFFFFFFFFFFFFFFFFFFFFFFFFFFFFFFFFFFFFFFF AND DUP3 PUSH32 0x5A06360D65ACF95E98445DC834F205063424C636E65418D928CDFABC33A95399 PUSH1 0x40 MLOAD PUSH1 0x40 MLOAD DUP1 SWAP2 SUB SWAP1 LOG3 POP POP JUMP JUMPDEST PUSH1 0x0 PUSH2 0x107 PUSH1 0x5 DUP4 PUSH2 0x132 JUMP JUMPDEST SWAP2 POP PUSH2 0x112 DUP3 PUSH2 0x13D JUMP JUMPDEST PUSH1 0x5 DUP3 ADD SWAP1 POP SWAP2 SWAP1 POP JUMP JUMPDEST PUSH1 0x0 PUSH2 0x128 DUP3 PUSH2 0xFA JUMP JUMPDEST SWAP2 POP DUP2 SWAP1 POP SWAP2 SWAP1 POP JUMP JUMPDEST PUSH1 0x0 DUP2 SWAP1 POP SWAP3 SWAP2 POP POP JUMP JUMPDEST PUSH32 0x41444D494E000000000000000000000000000000000000000000000000000000 PUSH1 0x0 DUP3 ADD MSTORE POP JUMP JUMPDEST PUSH2 0x5F4 DUP1 PUSH2 0x175 PUSH1 0x0 CODECOPY PUSH1 0x0 RETURN INVALID PUSH1 0x80 PUSH1 0x40 MSTORE CALLVALUE DUP1 ISZERO PUSH2 0x10 JUMPI PUSH1 0x0 DUP1 REVERT JUMPDEST POP PUSH1 0x4 CALLDATASIZE LT PUSH2 0x41 JUMPI PUSH1 0x0 CALLDATALOAD PUSH1 0xE0 SHR DUP1 PUSH4 0x2F2FF15D EQ PUSH2 0x46 JUMPI DUP1 PUSH4 0xD547741F EQ PUSH2 0x62 JUMPI DUP1 PUSH4 0xF8FC08B9 EQ PUSH2 0x7E JUMPI JUMPDEST PUSH1 0x0 DUP1 REVERT JUMPDEST PUSH2 0x60 PUSH1 0x4 DUP1 CALLDATASIZE SUB DUP2 ADD SWAP1 PUSH2 0x5B SWAP2 SWAP1 PUSH2 0x3F9 JUMP JUMPDEST PUSH2 0xAE JUMP JUMPDEST STOP JUMPDEST PUSH2 0x7C PUSH1 0x4 DUP1 CALLDATASIZE SUB DUP2 ADD SWAP1 PUSH2 0x77 SWAP2 SWAP1 PUSH2 0x3F9 JUMP JUMPDEST PUSH2 0x17E JUMP JUMPDEST STOP JUMPDEST PUSH2 0x98 PUSH1 0x4 DUP1 CALLDATASIZE SUB DUP2 ADD SWAP1 PUSH2 0x93 SWAP2 SWAP1 PUSH2 0x3F9 JUMP JUMPDEST PUSH2 0x2F0 JUMP JUMPDEST PUSH1 0x40 MLOAD PUSH2 0xA5 SWAP2 SWAP1 PUSH2 0x49F JUMP JUMPDEST PUSH1 0x40 MLOAD DUP1 SWAP2 SUB SWAP1 RETURN JUMPDEST PUSH1 0x40 MLOAD PUSH1 0x20 ADD PUSH2 0xBD SWAP1 PUSH2 0x48A JUMP JUMPDEST PUSH1 0x40 MLOAD PUSH1 0x20 DUP2 DUP4 SUB SUB DUP2 MSTORE SWAP1 PUSH1 0x40 MSTORE DUP1 MLOAD SWAP1 PUSH1 0x20 ADD KECCAK256 PUSH1 0x0 DUP1 DUP3 DUP2 MSTORE PUSH1 0x20 ADD SWAP1 DUP2 MSTORE PUSH1 0x20 ADD PUSH1 0x0 KECCAK256 PUSH1 0x0 CALLER PUSH20 0xFFFFFFFFFFFFFFFFFFFFFFFFFFFFFFFFFFFFFFFF AND PUSH20 0xFFFFFFFFFFFFFFFFFFFFFFFFFFFFFFFFFFFFFFFF AND DUP2 MSTORE PUSH1 0x20 ADD SWAP1 DUP2 MSTORE PUSH1 0x20 ADD PUSH1 0x0 KECCAK256 PUSH1 0x0 SWAP1 SLOAD SWAP1 PUSH2 0x100 EXP SWAP1 DIV PUSH1 0xFF AND PUSH2 0x16F JUMPI PUSH1 0x40 MLOAD PUSH32 0x8C379A000000000000000000000000000000000000000000000000000000000 DUP2 MSTORE PUSH1 0x4 ADD PUSH2 0x166 SWAP1 PUSH2 0x4BA JUMP JUMPDEST PUSH1 0x40 MLOAD DUP1 SWAP2 SUB SWAP1 REVERT JUMPDEST PUSH2 0x179 DUP4 DUP4 PUSH2 0x31F JUMP JUMPDEST POP POP POP JUMP JUMPDEST PUSH1 0x40 MLOAD PUSH1 0x20 ADD PUSH2 0x18D SWAP1 PUSH2 0x48A JUMP JUMPDEST PUSH1 0x40 MLOAD PUSH1 0x20 DUP2 DUP4 SUB SUB DUP2 MSTORE SWAP1 PUSH1 0x40 MSTORE DUP1 MLOAD SWAP1 PUSH1 0x20 ADD KECCAK256 PUSH1 0x0 DUP1 DUP3 DUP2 MSTORE PUSH1 0x20 ADD SWAP1 DUP2 MSTORE PUSH1 0x20 ADD PUSH1 0x0 KECCAK256 PUSH1 0x0 CALLER PUSH20 0xFFFFFFFFFFFFFFFFFFFFFFFFFFFFFFFFFFFFFFFF AND PUSH20 0xFFFFFFFFFFFFFFFFFFFFFFFFFFFFFFFFFFFFFFFF AND DUP2 MSTORE PUSH1 0x20 ADD SWAP1 DUP2 MSTORE PUSH1 0x20 ADD PUSH1 0x0 KECCAK256 PUSH1 0x0 SWAP1 SLOAD SWAP1 PUSH2 0x100 EXP SWAP1 DIV PUSH1 0xFF AND PUSH2 0x23F JUMPI PUSH1 0x40 MLOAD PUSH32 0x8C379A000000000000000000000000000000000000000000000000000000000 DUP2 MSTORE PUSH1 0x4 ADD PUSH2 0x236 SWAP1 PUSH2 0x4BA JUMP JUMPDEST PUSH1 0x40 MLOAD DUP1 SWAP2 SUB SWAP1 REVERT JUMPDEST PUSH1 0x0 DUP1 PUSH1 0x0 DUP6 DUP2 MSTORE PUSH1 0x20 ADD SWAP1 DUP2 MSTORE PUSH1 0x20 ADD PUSH1 0x0 KECCAK256 PUSH1 0x0 DUP5 PUSH20 0xFFFFFFFFFFFFFFFFFFFFFFFFFFFFFFFFFFFFFFFF AND PUSH20 0xFFFFFFFFFFFFFFFFFFFFFFFFFFFFFFFFFFFFFFFF AND DUP2 MSTORE PUSH1 0x20 ADD SWAP1 DUP2 MSTORE PUSH1 0x20 ADD PUSH1 0x0 KECCAK256 PUSH1 0x0 PUSH2 0x100 EXP DUP2 SLOAD DUP2 PUSH1 0xFF MUL NOT AND SWAP1 DUP4 ISZERO ISZERO MUL OR SWAP1 SSTORE POP DUP2 PUSH20 0xFFFFFFFFFFFFFFFFFFFFFFFFFFFFFFFFFFFFFFFF AND DUP4 PUSH32 0x76E6093C136CD7FAA5A6D92B2B633F3B4595ABD4A529B7A13917398355FEA694 PUSH1 0x40 MLOAD PUSH1 0x40 MLOAD DUP1 SWAP2 SUB SWAP1 LOG3 POP POP POP JUMP JUMPDEST PUSH1 0x0 PUSH1 0x20 MSTORE DUP2 PUSH1 0x0 MSTORE PUSH1 0x40 PUSH1 0x0 KECCAK256 PUSH1 0x20 MSTORE DUP1 PUSH1 0x0 MSTORE PUSH1 0x40 PUSH1 0x0 KECCAK256 PUSH1 0x0 SWAP2 POP SWAP2 POP SWAP1 SLOAD SWAP1 PUSH2 0x100 EXP SWAP1 DIV PUSH1 0xFF AND DUP2 JUMP JUMPDEST PUSH1 0x1 PUSH1 0x0 DUP1 DUP5 DUP2 MSTORE PUSH1 0x20 ADD SWAP1 DUP2 MSTORE PUSH1 0x20 ADD PUSH1 0x0 KECCAK256 PUSH1 0x0 DUP4 PUSH20 0xFFFFFFFFFFFFFFFFFFFFFFFFFFFFFFFFFFFFFFFF AND PUSH20 0xFFFFFFFFFFFFFFFFFFFFFFFFFFFFFFFFFFFFFFFF AND DUP2 MSTORE PUSH1 0x20 ADD SWAP1 DUP2 MSTORE PUSH1 0x20 ADD PUSH1 0x0 KECCAK256 PUSH1 0x0 PUSH2 0x100 EXP DUP2 SLOAD DUP2 PUSH1 0xFF MUL NOT AND SWAP1 DUP4 ISZERO ISZERO MUL OR SWAP1 SSTORE POP DUP1 PUSH20 0xFFFFFFFFFFFFFFFFFFFFFFFFFFFFFFFFFFFFFFFF AND DUP3 PUSH32 0x5A06360D65ACF95E98445DC834F205063424C636E65418D928CDFABC33A95399 PUSH1 0x40 MLOAD PUSH1 0x40 MLOAD DUP1 SWAP2 SUB SWAP1 LOG3 POP POP JUMP JUMPDEST PUSH1 0x0 DUP2 CALLDATALOAD SWAP1 POP PUSH2 0x3DE DUP2 PUSH2 0x590 JUMP JUMPDEST SWAP3 SWAP2 POP POP JUMP JUMPDEST PUSH1 0x0 DUP2 CALLDATALOAD SWAP1 POP PUSH2 0x3F3 DUP2 PUSH2 0x5A7 JUMP JUMPDEST SWAP3 SWAP2 POP POP JUMP JUMPDEST PUSH1 0x0 DUP1 PUSH1 0x40 DUP4 DUP6 SUB SLT ISZERO PUSH2 0x40C JUMPI PUSH1 0x0 DUP1 REVERT JUMPDEST PUSH1 0x0 PUSH2 0x41A DUP6 DUP3 DUP7 ADD PUSH2 0x3E4 JUMP JUMPDEST SWAP3 POP POP PUSH1 0x20 PUSH2 0x42B DUP6 DUP3 DUP7 ADD PUSH2 0x3CF JUMP JUMPDEST SWAP2 POP POP SWAP3 POP SWAP3 SWAP1 POP JUMP JUMPDEST PUSH2 0x43E DUP2 PUSH2 0x508 JUMP JUMPDEST DUP3 MSTORE POP POP JUMP JUMPDEST PUSH1 0x0 PUSH2 0x451 PUSH1 0x5 DUP4 PUSH2 0x4EB JUMP JUMPDEST SWAP2 POP PUSH2 0x45C DUP3 PUSH2 0x53E JUMP JUMPDEST PUSH1 0x5 DUP3 ADD SWAP1 POP SWAP2 SWAP1 POP JUMP JUMPDEST PUSH1 0x0 PUSH2 0x474 PUSH1 0xD DUP4 PUSH2 0x4DA JUMP JUMPDEST SWAP2 POP PUSH2 0x47F DUP3 PUSH2 0x567 JUMP JUMPDEST PUSH1 0x20 DUP3 ADD SWAP1 POP SWAP2 SWAP1 POP JUMP JUMPDEST PUSH1 0x0 PUSH2 0x495 DUP3 PUSH2 0x444 JUMP JUMPDEST SWAP2 POP DUP2 SWAP1 POP SWAP2 SWAP1 POP JUMP JUMPDEST PUSH1 0x0 PUSH1 0x20 DUP3 ADD SWAP1 POP PUSH2 0x4B4 PUSH1 0x0 DUP4 ADD DUP5 PUSH2 0x435 JUMP JUMPDEST SWAP3 SWAP2 POP POP JUMP JUMPDEST PUSH1 0x0 PUSH1 0x20 DUP3 ADD SWAP1 POP DUP2 DUP2 SUB PUSH1 0x0 DUP4 ADD MSTORE PUSH2 0x4D3 DUP2 PUSH2 0x467 JUMP JUMPDEST SWAP1 POP SWAP2 SWAP1 POP JUMP JUMPDEST PUSH1 0x0 DUP3 DUP3 MSTORE PUSH1 0x20 DUP3 ADD SWAP1 POP SWAP3 SWAP2 POP POP JUMP JUMPDEST PUSH1 0x0 DUP2 SWAP1 POP SWAP3 SWAP2 POP POP JUMP JUMPDEST PUSH1 0x0 PUSH2 0x501 DUP3 PUSH2 0x51E JUMP JUMPDEST SWAP1 POP SWAP2 SWAP1 POP JUMP JUMPDEST PUSH1 0x0 DUP2 ISZERO ISZERO SWAP1 POP SWAP2 SWAP1 POP JUMP JUMPDEST PUSH1 0x0 DUP2 SWAP1 POP SWAP2 SWAP1 POP JUMP JUMPDEST PUSH1 0x0 PUSH20 0xFFFFFFFFFFFFFFFFFFFFFFFFFFFFFFFFFFFFFFFF DUP3 AND SWAP1 POP SWAP2 SWAP1 POP JUMP JUMPDEST PUSH32 0x41444D494E000000000000000000000000000000000000000000000000000000 PUSH1 0x0 DUP3 ADD MSTORE POP JUMP JUMPDEST PUSH32 0x6E6F74206175746872697A656400000000000000000000000000000000000000 PUSH1 0x0 DUP3 ADD MSTORE POP JUMP JUMPDEST PUSH2 0x599 DUP2 PUSH2 0x4F6 JUMP JUMPDEST DUP2 EQ PUSH2 0x5A4 JUMPI PUSH1 0x0 DUP1 REVERT JUMPDEST POP JUMP JUMPDEST PUSH2 0x5B0 DUP2 PUSH2 0x514 JUMP JUMPDEST DUP2 EQ PUSH2 0x5BB JUMPI PUSH1 0x0 DUP1 REVERT JUMPDEST POP JUMP INVALID LOG2 PUSH5 0x6970667358 0x22 SLT KECCAK256 JUMPI STATICCALL RETURNDATASIZE ADDMOD 0x29 DELEGATECALL PUSH25 0x5673DFB6D172E28232561DB6FF186633F761BE341314D0CFF2 PUSH5 0x736F6C6343 STOP ADDMOD SUB STOP CALLER "
				},
				"gasEstimates": {
					"creation": {
						"codeDepositCost": "304800",
						"executionCost": "infinite",
						"totalCost": "infinite"
					},
					"external": {
						"grantRole(bytes32,address)": "24547",
						"revokeRole(bytes32,address)": "24535",
						"roles(bytes32,address)": "1809"
					},
					"internal": {
						"_grantRole(bytes32,address)": "22596"
					}
				},
				"methodIdentifiers": {
					"grantRole(bytes32,address)": "2f2ff15d",
					"revokeRole(bytes32,address)": "d547741f",
					"roles(bytes32,address)": "f8fc08b9"
				}
			},
			"storageLayout": {
				"storage": [
					{
						"astId": 19,
						"contract": "contracts/AccessControl.sol:AccessControl",
						"label": "roles",
						"offset": 0,
						"slot": "0",
						"type": "t_mapping(t_bytes32,t_mapping(t_address,t_bool))"
					}
				],
				"types": {
					"t_address": {
						"encoding": "inplace",
						"label": "address",
						"numberOfBytes": "20"
					},
					"t_bool": {
						"encoding": "inplace",
						"label": "bool",
						"numberOfBytes": "1"
					},
					"t_bytes32": {
						"encoding": "inplace",
						"label": "bytes32",
						"numberOfBytes": "32"
					},
					"t_mapping(t_address,t_bool)": {
						"encoding": "mapping",
						"key": "t_address",
						"label": "mapping(address => bool)",
						"numberOfBytes": "32",
						"value": "t_bool"
					},
					"t_mapping(t_bytes32,t_mapping(t_address,t_bool))": {
						"encoding": "mapping",
						"key": "t_bytes32",
						"label": "mapping(bytes32 => mapping(address => bool))",
						"numberOfBytes": "32",
						"value": "t_mapping(t_address,t_bool)"
					}
				}
			},
			"userdoc": {
				"kind": "user",
				"methods": {},
				"version": 1
			}
		}
	}
}