{
	"contracts/CallingParentConstructors.sol": {
		"VV": {
			"abi": [
				{
					"inputs": [
						{
							"internalType": "string",
							"name": "_text",
							"type": "string"
						}
					],
					"stateMutability": "nonpayable",
					"type": "constructor"
				},
				{
					"inputs": [],
					"name": "name",
					"outputs": [
						{
							"internalType": "string",
							"name": "",
							"type": "string"
						}
					],
					"stateMutability": "view",
					"type": "function"
				},
				{
					"inputs": [],
					"name": "text",
					"outputs": [
						{
							"internalType": "string",
							"name": "",
							"type": "string"
						}
					],
					"stateMutability": "view",
					"type": "function"
				}
			],
			"devdoc": {
				"kind": "dev",
				"methods": {},
				"version": 1
			},
			"evm": {
				"assembly": "    /* \"contracts/CallingParentConstructors.sol\":473:550  contract VV is S(\"s\"), T {... */\n  mstore(0x40, 0x80)\n    /* \"contracts/CallingParentConstructors.sol\":504:548  constructor(string memory _text) T(_text) {} */\n  callvalue\n  dup1\n  iszero\n  tag_1\n  jumpi\n  0x00\n  dup1\n  revert\ntag_1:\n  pop\n  mload(0x40)\n  sub(codesize, bytecodeSize)\n  dup1\n  bytecodeSize\n  dup4\n  codecopy\n  dup2\n  dup2\n  add\n  0x40\n  mstore\n  dup2\n  add\n  swap1\n  tag_2\n  swap2\n  swap1\n  tag_3\n  jump\t// in\ntag_2:\n    /* \"contracts/CallingParentConstructors.sol\":539:544  _text */\n  dup1\n    /* \"contracts/CallingParentConstructors.sol\":163:225  constructor(string memory _name) {... */\n  mload(0x40)\n  dup1\n  0x40\n  add\n  0x40\n  mstore\n  dup1\n  0x01\n  dup2\n  mstore\n  0x20\n  add\n  0x7300000000000000000000000000000000000000000000000000000000000000\n  dup2\n  mstore\n  pop\n    /* \"contracts/CallingParentConstructors.sol\":213:218  _name */\n  dup1\n    /* \"contracts/CallingParentConstructors.sol\":206:210  name */\n  0x00\n    /* \"contracts/CallingParentConstructors.sol\":206:218  name = _name */\n  swap1\n  dup1\n  mload\n  swap1\n  0x20\n  add\n  swap1\n  tag_8\n  swap3\n  swap2\n  swap1\n  tag_9\n  jump\t// in\ntag_8:\n  pop\n    /* \"contracts/CallingParentConstructors.sol\":163:225  constructor(string memory _name) {... */\n  pop\n    /* \"contracts/CallingParentConstructors.sol\":321:326  _text */\n  dup1\n    /* \"contracts/CallingParentConstructors.sol\":314:318  text */\n  0x01\n    /* \"contracts/CallingParentConstructors.sol\":314:326  text = _text */\n  swap1\n  dup1\n  mload\n  swap1\n  0x20\n  add\n  swap1\n  tag_11\n  swap3\n  swap2\n  swap1\n  tag_9\n  jump\t// in\ntag_11:\n  pop\n    /* \"contracts/CallingParentConstructors.sol\":271:333  constructor(string memory _text) {... */\n  pop\n    /* \"contracts/CallingParentConstructors.sol\":504:548  constructor(string memory _text) T(_text) {} */\n  pop\n    /* \"contracts/CallingParentConstructors.sol\":473:550  contract VV is S(\"s\"), T {... */\n  jump(tag_13)\ntag_9:\n  dup3\n  dup1\n  sload\n  tag_14\n  swap1\n  tag_15\n  jump\t// in\ntag_14:\n  swap1\n  0x00\n  mstore\n  keccak256(0x00, 0x20)\n  swap1\n  0x1f\n  add\n  0x20\n  swap1\n  div\n  dup2\n  add\n  swap3\n  dup3\n  tag_17\n  jumpi\n  0x00\n  dup6\n  sstore\n  jump(tag_16)\ntag_17:\n  dup3\n  0x1f\n  lt\n  tag_18\n  jumpi\n  dup1\n  mload\n  not(0xff)\n  and\n  dup4\n  dup1\n  add\n  or\n  dup6\n  sstore\n  jump(tag_16)\ntag_18:\n  dup3\n  dup1\n  add\n  0x01\n  add\n  dup6\n  sstore\n  dup3\n  iszero\n  tag_16\n  jumpi\n  swap2\n  dup3\n  add\ntag_19:\n  dup3\n  dup2\n  gt\n  iszero\n  tag_20\n  jumpi\n  dup3\n  mload\n  dup3\n  sstore\n  swap2\n  0x20\n  add\n  swap2\n  swap1\n  0x01\n  add\n  swap1\n  jump(tag_19)\ntag_20:\ntag_16:\n  pop\n  swap1\n  pop\n  tag_21\n  swap2\n  swap1\n  tag_22\n  jump\t// in\ntag_21:\n  pop\n  swap1\n  jump\t// out\ntag_22:\ntag_23:\n  dup1\n  dup3\n  gt\n  iszero\n  tag_24\n  jumpi\n  0x00\n  dup2\n  0x00\n  swap1\n  sstore\n  pop\n  0x01\n  add\n  jump(tag_23)\ntag_24:\n  pop\n  swap1\n  jump\t// out\n    /* \"#utility.yul\":7:361   */\ntag_26:\n  0x00\n    /* \"#utility.yul\":121:187   */\n  tag_28\n    /* \"#utility.yul\":137:186   */\n  tag_29\n    /* \"#utility.yul\":179:185   */\n  dup5\n    /* \"#utility.yul\":137:186   */\n  tag_30\n  jump\t// in\ntag_29:\n    /* \"#utility.yul\":121:187   */\n  tag_31\n  jump\t// in\ntag_28:\n    /* \"#utility.yul\":112:187   */\n  swap1\n  pop\n    /* \"#utility.yul\":210:216   */\n  dup3\n    /* \"#utility.yul\":203:208   */\n  dup2\n    /* \"#utility.yul\":196:217   */\n  mstore\n    /* \"#utility.yul\":248:252   */\n  0x20\n    /* \"#utility.yul\":241:246   */\n  dup2\n    /* \"#utility.yul\":237:253   */\n  add\n    /* \"#utility.yul\":286:289   */\n  dup5\n    /* \"#utility.yul\":277:283   */\n  dup5\n    /* \"#utility.yul\":272:275   */\n  dup5\n    /* \"#utility.yul\":268:284   */\n  add\n    /* \"#utility.yul\":265:290   */\n  gt\n    /* \"#utility.yul\":262:264   */\n  iszero\n  tag_32\n  jumpi\n    /* \"#utility.yul\":303:304   */\n  0x00\n    /* \"#utility.yul\":300:301   */\n  dup1\n    /* \"#utility.yul\":293:305   */\n  revert\n    /* \"#utility.yul\":262:264   */\ntag_32:\n    /* \"#utility.yul\":316:355   */\n  tag_33\n    /* \"#utility.yul\":348:354   */\n  dup5\n    /* \"#utility.yul\":343:346   */\n  dup3\n    /* \"#utility.yul\":338:341   */\n  dup6\n    /* \"#utility.yul\":316:355   */\n  tag_34\n  jump\t// in\ntag_33:\n    /* \"#utility.yul\":102:361   */\n  pop\n  swap4\n  swap3\n  pop\n  pop\n  pop\n  jump\t// out\n    /* \"#utility.yul\":381:669   */\ntag_35:\n  0x00\n    /* \"#utility.yul\":497:500   */\n  dup3\n    /* \"#utility.yul\":490:494   */\n  0x1f\n    /* \"#utility.yul\":482:488   */\n  dup4\n    /* \"#utility.yul\":478:495   */\n  add\n    /* \"#utility.yul\":474:501   */\n  slt\n    /* \"#utility.yul\":464:466   */\n  tag_37\n  jumpi\n    /* \"#utility.yul\":515:516   */\n  0x00\n    /* \"#utility.yul\":512:513   */\n  dup1\n    /* \"#utility.yul\":505:517   */\n  revert\n    /* \"#utility.yul\":464:466   */\ntag_37:\n    /* \"#utility.yul\":548:554   */\n  dup2\n    /* \"#utility.yul\":542:555   */\n  mload\n    /* \"#utility.yul\":573:663   */\n  tag_38\n    /* \"#utility.yul\":659:662   */\n  dup5\n    /* \"#utility.yul\":651:657   */\n  dup3\n    /* \"#utility.yul\":644:648   */\n  0x20\n    /* \"#utility.yul\":636:642   */\n  dup7\n    /* \"#utility.yul\":632:649   */\n  add\n    /* \"#utility.yul\":573:663   */\n  tag_26\n  jump\t// in\ntag_38:\n    /* \"#utility.yul\":564:663   */\n  swap2\n  pop\n    /* \"#utility.yul\":454:669   */\n  pop\n  swap3\n  swap2\n  pop\n  pop\n  jump\t// out\n    /* \"#utility.yul\":675:1065   */\ntag_3:\n  0x00\n    /* \"#utility.yul\":804:806   */\n  0x20\n    /* \"#utility.yul\":792:801   */\n  dup3\n    /* \"#utility.yul\":783:790   */\n  dup5\n    /* \"#utility.yul\":779:802   */\n  sub\n    /* \"#utility.yul\":775:807   */\n  slt\n    /* \"#utility.yul\":772:774   */\n  iszero\n  tag_40\n  jumpi\n    /* \"#utility.yul\":820:821   */\n  0x00\n    /* \"#utility.yul\":817:818   */\n  dup1\n    /* \"#utility.yul\":810:822   */\n  revert\n    /* \"#utility.yul\":772:774   */\ntag_40:\n    /* \"#utility.yul\":884:885   */\n  0x00\n    /* \"#utility.yul\":873:882   */\n  dup3\n    /* \"#utility.yul\":869:886   */\n  add\n    /* \"#utility.yul\":863:887   */\n  mload\n    /* \"#utility.yul\":914:932   */\n  0xffffffffffffffff\n    /* \"#utility.yul\":906:912   */\n  dup2\n    /* \"#utility.yul\":903:933   */\n  gt\n    /* \"#utility.yul\":900:902   */\n  iszero\n  tag_41\n  jumpi\n    /* \"#utility.yul\":946:947   */\n  0x00\n    /* \"#utility.yul\":943:944   */\n  dup1\n    /* \"#utility.yul\":936:948   */\n  revert\n    /* \"#utility.yul\":900:902   */\ntag_41:\n    /* \"#utility.yul\":974:1048   */\n  tag_42\n    /* \"#utility.yul\":1040:1047   */\n  dup5\n    /* \"#utility.yul\":1031:1037   */\n  dup3\n    /* \"#utility.yul\":1020:1029   */\n  dup6\n    /* \"#utility.yul\":1016:1038   */\n  add\n    /* \"#utility.yul\":974:1048   */\n  tag_35\n  jump\t// in\ntag_42:\n    /* \"#utility.yul\":964:1048   */\n  swap2\n  pop\n    /* \"#utility.yul\":834:1058   */\n  pop\n    /* \"#utility.yul\":762:1065   */\n  swap3\n  swap2\n  pop\n  pop\n  jump\t// out\n    /* \"#utility.yul\":1071:1200   */\ntag_31:\n  0x00\n    /* \"#utility.yul\":1132:1152   */\n  tag_44\n  tag_45\n  jump\t// in\ntag_44:\n    /* \"#utility.yul\":1122:1152   */\n  swap1\n  pop\n    /* \"#utility.yul\":1161:1194   */\n  tag_46\n    /* \"#utility.yul\":1189:1193   */\n  dup3\n    /* \"#utility.yul\":1181:1187   */\n  dup3\n    /* \"#utility.yul\":1161:1194   */\n  tag_47\n  jump\t// in\ntag_46:\n    /* \"#utility.yul\":1112:1200   */\n  swap2\n  swap1\n  pop\n  jump\t// out\n    /* \"#utility.yul\":1206:1281   */\ntag_45:\n  0x00\n    /* \"#utility.yul\":1272:1274   */\n  0x40\n    /* \"#utility.yul\":1266:1275   */\n  mload\n    /* \"#utility.yul\":1256:1275   */\n  swap1\n  pop\n    /* \"#utility.yul\":1246:1281   */\n  swap1\n  jump\t// out\n    /* \"#utility.yul\":1287:1595   */\ntag_30:\n  0x00\n    /* \"#utility.yul\":1439:1457   */\n  0xffffffffffffffff\n    /* \"#utility.yul\":1431:1437   */\n  dup3\n    /* \"#utility.yul\":1428:1458   */\n  gt\n    /* \"#utility.yul\":1425:1427   */\n  iszero\n  tag_50\n  jumpi\n    /* \"#utility.yul\":1461:1479   */\n  tag_51\n  tag_52\n  jump\t// in\ntag_51:\n    /* \"#utility.yul\":1425:1427   */\ntag_50:\n    /* \"#utility.yul\":1499:1528   */\n  tag_53\n    /* \"#utility.yul\":1521:1527   */\n  dup3\n    /* \"#utility.yul\":1499:1528   */\n  tag_54\n  jump\t// in\ntag_53:\n    /* \"#utility.yul\":1491:1528   */\n  swap1\n  pop\n    /* \"#utility.yul\":1583:1587   */\n  0x20\n    /* \"#utility.yul\":1577:1581   */\n  dup2\n    /* \"#utility.yul\":1573:1588   */\n  add\n    /* \"#utility.yul\":1565:1588   */\n  swap1\n  pop\n    /* \"#utility.yul\":1354:1595   */\n  swap2\n  swap1\n  pop\n  jump\t// out\n    /* \"#utility.yul\":1601:1908   */\ntag_34:\n    /* \"#utility.yul\":1669:1670   */\n  0x00\n    /* \"#utility.yul\":1679:1792   */\ntag_56:\n    /* \"#utility.yul\":1693:1699   */\n  dup4\n    /* \"#utility.yul\":1690:1691   */\n  dup2\n    /* \"#utility.yul\":1687:1700   */\n  lt\n    /* \"#utility.yul\":1679:1792   */\n  iszero\n  tag_58\n  jumpi\n    /* \"#utility.yul\":1778:1779   */\n  dup1\n    /* \"#utility.yul\":1773:1776   */\n  dup3\n    /* \"#utility.yul\":1769:1780   */\n  add\n    /* \"#utility.yul\":1763:1781   */\n  mload\n    /* \"#utility.yul\":1759:1760   */\n  dup2\n    /* \"#utility.yul\":1754:1757   */\n  dup5\n    /* \"#utility.yul\":1750:1761   */\n  add\n    /* \"#utility.yul\":1743:1782   */\n  mstore\n    /* \"#utility.yul\":1715:1717   */\n  0x20\n    /* \"#utility.yul\":1712:1713   */\n  dup2\n    /* \"#utility.yul\":1708:1718   */\n  add\n    /* \"#utility.yul\":1703:1718   */\n  swap1\n  pop\n    /* \"#utility.yul\":1679:1792   */\n  jump(tag_56)\ntag_58:\n    /* \"#utility.yul\":1810:1816   */\n  dup4\n    /* \"#utility.yul\":1807:1808   */\n  dup2\n    /* \"#utility.yul\":1804:1817   */\n  gt\n    /* \"#utility.yul\":1801:1803   */\n  iszero\n  tag_59\n  jumpi\n    /* \"#utility.yul\":1890:1891   */\n  0x00\n    /* \"#utility.yul\":1881:1887   */\n  dup5\n    /* \"#utility.yul\":1876:1879   */\n  dup5\n    /* \"#utility.yul\":1872:1888   */\n  add\n    /* \"#utility.yul\":1865:1892   */\n  mstore\n    /* \"#utility.yul\":1801:1803   */\ntag_59:\n    /* \"#utility.yul\":1650:1908   */\n  pop\n  pop\n  pop\n  pop\n  jump\t// out\n    /* \"#utility.yul\":1914:2234   */\ntag_15:\n  0x00\n    /* \"#utility.yul\":1995:1996   */\n  0x02\n    /* \"#utility.yul\":1989:1993   */\n  dup3\n    /* \"#utility.yul\":1985:1997   */\n  div\n    /* \"#utility.yul\":1975:1997   */\n  swap1\n  pop\n    /* \"#utility.yul\":2042:2043   */\n  0x01\n    /* \"#utility.yul\":2036:2040   */\n  dup3\n    /* \"#utility.yul\":2032:2044   */\n  and\n    /* \"#utility.yul\":2063:2081   */\n  dup1\n    /* \"#utility.yul\":2053:2055   */\n  tag_61\n  jumpi\n    /* \"#utility.yul\":2119:2123   */\n  0x7f\n    /* \"#utility.yul\":2111:2117   */\n  dup3\n    /* \"#utility.yul\":2107:2124   */\n  and\n    /* \"#utility.yul\":2097:2124   */\n  swap2\n  pop\n    /* \"#utility.yul\":2053:2055   */\ntag_61:\n    /* \"#utility.yul\":2181:2183   */\n  0x20\n    /* \"#utility.yul\":2173:2179   */\n  dup3\n    /* \"#utility.yul\":2170:2184   */\n  lt\n    /* \"#utility.yul\":2150:2168   */\n  dup2\n    /* \"#utility.yul\":2147:2185   */\n  eq\n    /* \"#utility.yul\":2144:2146   */\n  iszero\n  tag_62\n  jumpi\n    /* \"#utility.yul\":2200:2218   */\n  tag_63\n  tag_64\n  jump\t// in\ntag_63:\n    /* \"#utility.yul\":2144:2146   */\ntag_62:\n    /* \"#utility.yul\":1965:2234   */\n  pop\n  swap2\n  swap1\n  pop\n  jump\t// out\n    /* \"#utility.yul\":2240:2521   */\ntag_47:\n    /* \"#utility.yul\":2323:2350   */\n  tag_66\n    /* \"#utility.yul\":2345:2349   */\n  dup3\n    /* \"#utility.yul\":2323:2350   */\n  tag_54\n  jump\t// in\ntag_66:\n    /* \"#utility.yul\":2315:2321   */\n  dup2\n    /* \"#utility.yul\":2311:2351   */\n  add\n    /* \"#utility.yul\":2453:2459   */\n  dup2\n    /* \"#utility.yul\":2441:2451   */\n  dup2\n    /* \"#utility.yul\":2438:2460   */\n  lt\n    /* \"#utility.yul\":2417:2435   */\n  0xffffffffffffffff\n    /* \"#utility.yul\":2405:2415   */\n  dup3\n    /* \"#utility.yul\":2402:2436   */\n  gt\n    /* \"#utility.yul\":2399:2461   */\n  or\n    /* \"#utility.yul\":2396:2398   */\n  iszero\n  tag_67\n  jumpi\n    /* \"#utility.yul\":2464:2482   */\n  tag_68\n  tag_52\n  jump\t// in\ntag_68:\n    /* \"#utility.yul\":2396:2398   */\ntag_67:\n    /* \"#utility.yul\":2504:2514   */\n  dup1\n    /* \"#utility.yul\":2500:2502   */\n  0x40\n    /* \"#utility.yul\":2493:2515   */\n  mstore\n    /* \"#utility.yul\":2283:2521   */\n  pop\n  pop\n  pop\n  jump\t// out\n    /* \"#utility.yul\":2527:2707   */\ntag_64:\n    /* \"#utility.yul\":2575:2652   */\n  0x4e487b7100000000000000000000000000000000000000000000000000000000\n    /* \"#utility.yul\":2572:2573   */\n  0x00\n    /* \"#utility.yul\":2565:2653   */\n  mstore\n    /* \"#utility.yul\":2672:2676   */\n  0x22\n    /* \"#utility.yul\":2669:2670   */\n  0x04\n    /* \"#utility.yul\":2662:2677   */\n  mstore\n    /* \"#utility.yul\":2696:2700   */\n  0x24\n    /* \"#utility.yul\":2693:2694   */\n  0x00\n    /* \"#utility.yul\":2686:2701   */\n  revert\n    /* \"#utility.yul\":2713:2893   */\ntag_52:\n    /* \"#utility.yul\":2761:2838   */\n  0x4e487b7100000000000000000000000000000000000000000000000000000000\n    /* \"#utility.yul\":2758:2759   */\n  0x00\n    /* \"#utility.yul\":2751:2839   */\n  mstore\n    /* \"#utility.yul\":2858:2862   */\n  0x41\n    /* \"#utility.yul\":2855:2856   */\n  0x04\n    /* \"#utility.yul\":2848:2863   */\n  mstore\n    /* \"#utility.yul\":2882:2886   */\n  0x24\n    /* \"#utility.yul\":2879:2880   */\n  0x00\n    /* \"#utility.yul\":2872:2887   */\n  revert\n    /* \"#utility.yul\":2899:3001   */\ntag_54:\n  0x00\n    /* \"#utility.yul\":2991:2993   */\n  0x1f\n    /* \"#utility.yul\":2987:2994   */\n  not\n    /* \"#utility.yul\":2982:2984   */\n  0x1f\n    /* \"#utility.yul\":2975:2980   */\n  dup4\n    /* \"#utility.yul\":2971:2985   */\n  add\n    /* \"#utility.yul\":2967:2995   */\n  and\n    /* \"#utility.yul\":2957:2995   */\n  swap1\n  pop\n    /* \"#utility.yul\":2947:3001   */\n  swap2\n  swap1\n  pop\n  jump\t// out\n    /* \"contracts/CallingParentConstructors.sol\":473:550  contract VV is S(\"s\"), T {... */\ntag_13:\n  dataSize(sub_0)\n  dup1\n  dataOffset(sub_0)\n  0x00\n  codecopy\n  0x00\n  return\nstop\n\nsub_0: assembly {\n        /* \"contracts/CallingParentConstructors.sol\":473:550  contract VV is S(\"s\"), T {... */\n      mstore(0x40, 0x80)\n      callvalue\n      dup1\n      iszero\n      tag_1\n      jumpi\n      0x00\n      dup1\n      revert\n    tag_1:\n      pop\n      jumpi(tag_2, lt(calldatasize, 0x04))\n      shr(0xe0, calldataload(0x00))\n      dup1\n      0x06fdde03\n      eq\n      tag_3\n      jumpi\n      dup1\n      0x1f1bd692\n      eq\n      tag_4\n      jumpi\n    tag_2:\n      0x00\n      dup1\n      revert\n        /* \"contracts/CallingParentConstructors.sol\":138:156  string public name */\n    tag_3:\n      tag_5\n      tag_6\n      jump\t// in\n    tag_5:\n      mload(0x40)\n      tag_7\n      swap2\n      swap1\n      tag_8\n      jump\t// in\n    tag_7:\n      mload(0x40)\n      dup1\n      swap2\n      sub\n      swap1\n      return\n        /* \"contracts/CallingParentConstructors.sol\":246:264  string public text */\n    tag_4:\n      tag_9\n      tag_10\n      jump\t// in\n    tag_9:\n      mload(0x40)\n      tag_11\n      swap2\n      swap1\n      tag_8\n      jump\t// in\n    tag_11:\n      mload(0x40)\n      dup1\n      swap2\n      sub\n      swap1\n      return\n        /* \"contracts/CallingParentConstructors.sol\":138:156  string public name */\n    tag_6:\n      0x00\n      dup1\n      sload\n      tag_12\n      swap1\n      tag_13\n      jump\t// in\n    tag_12:\n      dup1\n      0x1f\n      add\n      0x20\n      dup1\n      swap2\n      div\n      mul\n      0x20\n      add\n      mload(0x40)\n      swap1\n      dup2\n      add\n      0x40\n      mstore\n      dup1\n      swap3\n      swap2\n      swap1\n      dup2\n      dup2\n      mstore\n      0x20\n      add\n      dup3\n      dup1\n      sload\n      tag_14\n      swap1\n      tag_13\n      jump\t// in\n    tag_14:\n      dup1\n      iszero\n      tag_15\n      jumpi\n      dup1\n      0x1f\n      lt\n      tag_16\n      jumpi\n      0x0100\n      dup1\n      dup4\n      sload\n      div\n      mul\n      dup4\n      mstore\n      swap2\n      0x20\n      add\n      swap2\n      jump(tag_15)\n    tag_16:\n      dup3\n      add\n      swap2\n      swap1\n      0x00\n      mstore\n      keccak256(0x00, 0x20)\n      swap1\n    tag_17:\n      dup2\n      sload\n      dup2\n      mstore\n      swap1\n      0x01\n      add\n      swap1\n      0x20\n      add\n      dup1\n      dup4\n      gt\n      tag_17\n      jumpi\n      dup3\n      swap1\n      sub\n      0x1f\n      and\n      dup3\n      add\n      swap2\n    tag_15:\n      pop\n      pop\n      pop\n      pop\n      pop\n      dup2\n      jump\t// out\n        /* \"contracts/CallingParentConstructors.sol\":246:264  string public text */\n    tag_10:\n      0x01\n      dup1\n      sload\n      tag_18\n      swap1\n      tag_13\n      jump\t// in\n    tag_18:\n      dup1\n      0x1f\n      add\n      0x20\n      dup1\n      swap2\n      div\n      mul\n      0x20\n      add\n      mload(0x40)\n      swap1\n      dup2\n      add\n      0x40\n      mstore\n      dup1\n      swap3\n      swap2\n      swap1\n      dup2\n      dup2\n      mstore\n      0x20\n      add\n      dup3\n      dup1\n      sload\n      tag_19\n      swap1\n      tag_13\n      jump\t// in\n    tag_19:\n      dup1\n      iszero\n      tag_20\n      jumpi\n      dup1\n      0x1f\n      lt\n      tag_21\n      jumpi\n      0x0100\n      dup1\n      dup4\n      sload\n      div\n      mul\n      dup4\n      mstore\n      swap2\n      0x20\n      add\n      swap2\n      jump(tag_20)\n    tag_21:\n      dup3\n      add\n      swap2\n      swap1\n      0x00\n      mstore\n      keccak256(0x00, 0x20)\n      swap1\n    tag_22:\n      dup2\n      sload\n      dup2\n      mstore\n      swap1\n      0x01\n      add\n      swap1\n      0x20\n      add\n      dup1\n      dup4\n      gt\n      tag_22\n      jumpi\n      dup3\n      swap1\n      sub\n      0x1f\n      and\n      dup3\n      add\n      swap2\n    tag_20:\n      pop\n      pop\n      pop\n      pop\n      pop\n      dup2\n      jump\t// out\n        /* \"#utility.yul\":7:371   */\n    tag_24:\n      0x00\n        /* \"#utility.yul\":123:162   */\n      tag_26\n        /* \"#utility.yul\":156:161   */\n      dup3\n        /* \"#utility.yul\":123:162   */\n      tag_27\n      jump\t// in\n    tag_26:\n        /* \"#utility.yul\":178:249   */\n      tag_28\n        /* \"#utility.yul\":242:248   */\n      dup2\n        /* \"#utility.yul\":237:240   */\n      dup6\n        /* \"#utility.yul\":178:249   */\n      tag_29\n      jump\t// in\n    tag_28:\n        /* \"#utility.yul\":171:249   */\n      swap4\n      pop\n        /* \"#utility.yul\":258:310   */\n      tag_30\n        /* \"#utility.yul\":303:309   */\n      dup2\n        /* \"#utility.yul\":298:301   */\n      dup6\n        /* \"#utility.yul\":291:295   */\n      0x20\n        /* \"#utility.yul\":284:289   */\n      dup7\n        /* \"#utility.yul\":280:296   */\n      add\n        /* \"#utility.yul\":258:310   */\n      tag_31\n      jump\t// in\n    tag_30:\n        /* \"#utility.yul\":335:364   */\n      tag_32\n        /* \"#utility.yul\":357:363   */\n      dup2\n        /* \"#utility.yul\":335:364   */\n      tag_33\n      jump\t// in\n    tag_32:\n        /* \"#utility.yul\":330:333   */\n      dup5\n        /* \"#utility.yul\":326:365   */\n      add\n        /* \"#utility.yul\":319:365   */\n      swap2\n      pop\n        /* \"#utility.yul\":99:371   */\n      pop\n      swap3\n      swap2\n      pop\n      pop\n      jump\t// out\n        /* \"#utility.yul\":377:690   */\n    tag_8:\n      0x00\n        /* \"#utility.yul\":528:530   */\n      0x20\n        /* \"#utility.yul\":517:526   */\n      dup3\n        /* \"#utility.yul\":513:531   */\n      add\n        /* \"#utility.yul\":505:531   */\n      swap1\n      pop\n        /* \"#utility.yul\":577:586   */\n      dup2\n        /* \"#utility.yul\":571:575   */\n      dup2\n        /* \"#utility.yul\":567:587   */\n      sub\n        /* \"#utility.yul\":563:564   */\n      0x00\n        /* \"#utility.yul\":552:561   */\n      dup4\n        /* \"#utility.yul\":548:565   */\n      add\n        /* \"#utility.yul\":541:588   */\n      mstore\n        /* \"#utility.yul\":605:683   */\n      tag_35\n        /* \"#utility.yul\":678:682   */\n      dup2\n        /* \"#utility.yul\":669:675   */\n      dup5\n        /* \"#utility.yul\":605:683   */\n      tag_24\n      jump\t// in\n    tag_35:\n        /* \"#utility.yul\":597:683   */\n      swap1\n      pop\n        /* \"#utility.yul\":495:690   */\n      swap3\n      swap2\n      pop\n      pop\n      jump\t// out\n        /* \"#utility.yul\":696:795   */\n    tag_27:\n      0x00\n        /* \"#utility.yul\":782:787   */\n      dup2\n        /* \"#utility.yul\":776:788   */\n      mload\n        /* \"#utility.yul\":766:788   */\n      swap1\n      pop\n        /* \"#utility.yul\":755:795   */\n      swap2\n      swap1\n      pop\n      jump\t// out\n        /* \"#utility.yul\":801:970   */\n    tag_29:\n      0x00\n        /* \"#utility.yul\":919:925   */\n      dup3\n        /* \"#utility.yul\":914:917   */\n      dup3\n        /* \"#utility.yul\":907:926   */\n      mstore\n        /* \"#utility.yul\":959:963   */\n      0x20\n        /* \"#utility.yul\":954:957   */\n      dup3\n        /* \"#utility.yul\":950:964   */\n      add\n        /* \"#utility.yul\":935:964   */\n      swap1\n      pop\n        /* \"#utility.yul\":897:970   */\n      swap3\n      swap2\n      pop\n      pop\n      jump\t// out\n        /* \"#utility.yul\":976:1283   */\n    tag_31:\n        /* \"#utility.yul\":1044:1045   */\n      0x00\n        /* \"#utility.yul\":1054:1167   */\n    tag_39:\n        /* \"#utility.yul\":1068:1074   */\n      dup4\n        /* \"#utility.yul\":1065:1066   */\n      dup2\n        /* \"#utility.yul\":1062:1075   */\n      lt\n        /* \"#utility.yul\":1054:1167   */\n      iszero\n      tag_41\n      jumpi\n        /* \"#utility.yul\":1153:1154   */\n      dup1\n        /* \"#utility.yul\":1148:1151   */\n      dup3\n        /* \"#utility.yul\":1144:1155   */\n      add\n        /* \"#utility.yul\":1138:1156   */\n      mload\n        /* \"#utility.yul\":1134:1135   */\n      dup2\n        /* \"#utility.yul\":1129:1132   */\n      dup5\n        /* \"#utility.yul\":1125:1136   */\n      add\n        /* \"#utility.yul\":1118:1157   */\n      mstore\n        /* \"#utility.yul\":1090:1092   */\n      0x20\n        /* \"#utility.yul\":1087:1088   */\n      dup2\n        /* \"#utility.yul\":1083:1093   */\n      add\n        /* \"#utility.yul\":1078:1093   */\n      swap1\n      pop\n        /* \"#utility.yul\":1054:1167   */\n      jump(tag_39)\n    tag_41:\n        /* \"#utility.yul\":1185:1191   */\n      dup4\n        /* \"#utility.yul\":1182:1183   */\n      dup2\n        /* \"#utility.yul\":1179:1192   */\n      gt\n        /* \"#utility.yul\":1176:1178   */\n      iszero\n      tag_42\n      jumpi\n        /* \"#utility.yul\":1265:1266   */\n      0x00\n        /* \"#utility.yul\":1256:1262   */\n      dup5\n        /* \"#utility.yul\":1251:1254   */\n      dup5\n        /* \"#utility.yul\":1247:1263   */\n      add\n        /* \"#utility.yul\":1240:1267   */\n      mstore\n        /* \"#utility.yul\":1176:1178   */\n    tag_42:\n        /* \"#utility.yul\":1025:1283   */\n      pop\n      pop\n      pop\n      pop\n      jump\t// out\n        /* \"#utility.yul\":1289:1609   */\n    tag_13:\n      0x00\n        /* \"#utility.yul\":1370:1371   */\n      0x02\n        /* \"#utility.yul\":1364:1368   */\n      dup3\n        /* \"#utility.yul\":1360:1372   */\n      div\n        /* \"#utility.yul\":1350:1372   */\n      swap1\n      pop\n        /* \"#utility.yul\":1417:1418   */\n      0x01\n        /* \"#utility.yul\":1411:1415   */\n      dup3\n        /* \"#utility.yul\":1407:1419   */\n      and\n        /* \"#utility.yul\":1438:1456   */\n      dup1\n        /* \"#utility.yul\":1428:1430   */\n      tag_44\n      jumpi\n        /* \"#utility.yul\":1494:1498   */\n      0x7f\n        /* \"#utility.yul\":1486:1492   */\n      dup3\n        /* \"#utility.yul\":1482:1499   */\n      and\n        /* \"#utility.yul\":1472:1499   */\n      swap2\n      pop\n        /* \"#utility.yul\":1428:1430   */\n    tag_44:\n        /* \"#utility.yul\":1556:1558   */\n      0x20\n        /* \"#utility.yul\":1548:1554   */\n      dup3\n        /* \"#utility.yul\":1545:1559   */\n      lt\n        /* \"#utility.yul\":1525:1543   */\n      dup2\n        /* \"#utility.yul\":1522:1560   */\n      eq\n        /* \"#utility.yul\":1519:1521   */\n      iszero\n      tag_45\n      jumpi\n        /* \"#utility.yul\":1575:1593   */\n      tag_46\n      tag_47\n      jump\t// in\n    tag_46:\n        /* \"#utility.yul\":1519:1521   */\n    tag_45:\n        /* \"#utility.yul\":1340:1609   */\n      pop\n      swap2\n      swap1\n      pop\n      jump\t// out\n        /* \"#utility.yul\":1615:1795   */\n    tag_47:\n        /* \"#utility.yul\":1663:1740   */\n      0x4e487b7100000000000000000000000000000000000000000000000000000000\n        /* \"#utility.yul\":1660:1661   */\n      0x00\n        /* \"#utility.yul\":1653:1741   */\n      mstore\n        /* \"#utility.yul\":1760:1764   */\n      0x22\n        /* \"#utility.yul\":1757:1758   */\n      0x04\n        /* \"#utility.yul\":1750:1765   */\n      mstore\n        /* \"#utility.yul\":1784:1788   */\n      0x24\n        /* \"#utility.yul\":1781:1782   */\n      0x00\n        /* \"#utility.yul\":1774:1789   */\n      revert\n        /* \"#utility.yul\":1801:1903   */\n    tag_33:\n      0x00\n        /* \"#utility.yul\":1893:1895   */\n      0x1f\n        /* \"#utility.yul\":1889:1896   */\n      not\n        /* \"#utility.yul\":1884:1886   */\n      0x1f\n        /* \"#utility.yul\":1877:1882   */\n      dup4\n        /* \"#utility.yul\":1873:1887   */\n      add\n        /* \"#utility.yul\":1869:1897   */\n      and\n        /* \"#utility.yul\":1859:1897   */\n      swap1\n      pop\n        /* \"#utility.yul\":1849:1903   */\n      swap2\n      swap1\n      pop\n      jump\t// out\n\n    auxdata: 0xa26469706673582212205b61b96b6400af8c533f66470aa318ccf14200c1ea409e676deec2a4c875b43b64736f6c63430008030033\n}\n",
				"bytecode": {
					"linkReferences": {},
					"object": "608060405234801561001057600080fd5b5060405161063a38038061063a833981810160405281019061003291906101aa565b806040518060400160405280600181526020017f7300000000000000000000000000000000000000000000000000000000000000815250806000908051906020019061007f92919061009f565b5050806001908051906020019061009792919061009f565b505050610346565b8280546100ab90610274565b90600052602060002090601f0160209004810192826100cd5760008555610114565b82601f106100e657805160ff1916838001178555610114565b82800160010185558215610114579182015b828111156101135782518255916020019190600101906100f8565b5b5090506101219190610125565b5090565b5b8082111561013e576000816000905550600101610126565b5090565b600061015561015084610210565b6101eb565b90508281526020810184848401111561016d57600080fd5b610178848285610241565b509392505050565b600082601f83011261019157600080fd5b81516101a1848260208601610142565b91505092915050565b6000602082840312156101bc57600080fd5b600082015167ffffffffffffffff8111156101d657600080fd5b6101e284828501610180565b91505092915050565b60006101f5610206565b905061020182826102a6565b919050565b6000604051905090565b600067ffffffffffffffff82111561022b5761022a610306565b5b61023482610335565b9050602081019050919050565b60005b8381101561025f578082015181840152602081019050610244565b8381111561026e576000848401525b50505050565b6000600282049050600182168061028c57607f821691505b602082108114156102a05761029f6102d7565b5b50919050565b6102af82610335565b810181811067ffffffffffffffff821117156102ce576102cd610306565b5b80604052505050565b7f4e487b7100000000000000000000000000000000000000000000000000000000600052602260045260246000fd5b7f4e487b7100000000000000000000000000000000000000000000000000000000600052604160045260246000fd5b6000601f19601f8301169050919050565b6102e5806103556000396000f3fe608060405234801561001057600080fd5b50600436106100365760003560e01c806306fdde031461003b5780631f1bd69214610059575b600080fd5b610043610077565b60405161005091906101cc565b60405180910390f35b610061610105565b60405161006e91906101cc565b60405180910390f35b600080546100849061023d565b80601f01602080910402602001604051908101604052809291908181526020018280546100b09061023d565b80156100fd5780601f106100d2576101008083540402835291602001916100fd565b820191906000526020600020905b8154815290600101906020018083116100e057829003601f168201915b505050505081565b600180546101129061023d565b80601f016020809104026020016040519081016040528092919081815260200182805461013e9061023d565b801561018b5780601f106101605761010080835404028352916020019161018b565b820191906000526020600020905b81548152906001019060200180831161016e57829003601f168201915b505050505081565b600061019e826101ee565b6101a881856101f9565b93506101b881856020860161020a565b6101c18161029e565b840191505092915050565b600060208201905081810360008301526101e68184610193565b905092915050565b600081519050919050565b600082825260208201905092915050565b60005b8381101561022857808201518184015260208101905061020d565b83811115610237576000848401525b50505050565b6000600282049050600182168061025557607f821691505b602082108114156102695761026861026f565b5b50919050565b7f4e487b7100000000000000000000000000000000000000000000000000000000600052602260045260246000fd5b6000601f19601f830116905091905056fea26469706673582212205b61b96b6400af8c533f66470aa318ccf14200c1ea409e676deec2a4c875b43b64736f6c63430008030033",
					"opcodes": "PUSH1 0x80 PUSH1 0x40 MSTORE CALLVALUE DUP1 ISZERO PUSH2 0x10 JUMPI PUSH1 0x0 DUP1 REVERT JUMPDEST POP PUSH1 0x40 MLOAD PUSH2 0x63A CODESIZE SUB DUP1 PUSH2 0x63A DUP4 CODECOPY DUP2 DUP2 ADD PUSH1 0x40 MSTORE DUP2 ADD SWAP1 PUSH2 0x32 SWAP2 SWAP1 PUSH2 0x1AA JUMP JUMPDEST DUP1 PUSH1 0x40 MLOAD DUP1 PUSH1 0x40 ADD PUSH1 0x40 MSTORE DUP1 PUSH1 0x1 DUP2 MSTORE PUSH1 0x20 ADD PUSH32 0x7300000000000000000000000000000000000000000000000000000000000000 DUP2 MSTORE POP DUP1 PUSH1 0x0 SWAP1 DUP1 MLOAD SWAP1 PUSH1 0x20 ADD SWAP1 PUSH2 0x7F SWAP3 SWAP2 SWAP1 PUSH2 0x9F JUMP JUMPDEST POP POP DUP1 PUSH1 0x1 SWAP1 DUP1 MLOAD SWAP1 PUSH1 0x20 ADD SWAP1 PUSH2 0x97 SWAP3 SWAP2 SWAP1 PUSH2 0x9F JUMP JUMPDEST POP POP POP PUSH2 0x346 JUMP JUMPDEST DUP3 DUP1 SLOAD PUSH2 0xAB SWAP1 PUSH2 0x274 JUMP JUMPDEST SWAP1 PUSH1 0x0 MSTORE PUSH1 0x20 PUSH1 0x0 KECCAK256 SWAP1 PUSH1 0x1F ADD PUSH1 0x20 SWAP1 DIV DUP2 ADD SWAP3 DUP3 PUSH2 0xCD JUMPI PUSH1 0x0 DUP6 SSTORE PUSH2 0x114 JUMP JUMPDEST DUP3 PUSH1 0x1F LT PUSH2 0xE6 JUMPI DUP1 MLOAD PUSH1 0xFF NOT AND DUP4 DUP1 ADD OR DUP6 SSTORE PUSH2 0x114 JUMP JUMPDEST DUP3 DUP1 ADD PUSH1 0x1 ADD DUP6 SSTORE DUP3 ISZERO PUSH2 0x114 JUMPI SWAP2 DUP3 ADD JUMPDEST DUP3 DUP2 GT ISZERO PUSH2 0x113 JUMPI DUP3 MLOAD DUP3 SSTORE SWAP2 PUSH1 0x20 ADD SWAP2 SWAP1 PUSH1 0x1 ADD SWAP1 PUSH2 0xF8 JUMP JUMPDEST JUMPDEST POP SWAP1 POP PUSH2 0x121 SWAP2 SWAP1 PUSH2 0x125 JUMP JUMPDEST POP SWAP1 JUMP JUMPDEST JUMPDEST DUP1 DUP3 GT ISZERO PUSH2 0x13E JUMPI PUSH1 0x0 DUP2 PUSH1 0x0 SWAP1 SSTORE POP PUSH1 0x1 ADD PUSH2 0x126 JUMP JUMPDEST POP SWAP1 JUMP JUMPDEST PUSH1 0x0 PUSH2 0x155 PUSH2 0x150 DUP5 PUSH2 0x210 JUMP JUMPDEST PUSH2 0x1EB JUMP JUMPDEST SWAP1 POP DUP3 DUP2 MSTORE PUSH1 0x20 DUP2 ADD DUP5 DUP5 DUP5 ADD GT ISZERO PUSH2 0x16D JUMPI PUSH1 0x0 DUP1 REVERT JUMPDEST PUSH2 0x178 DUP5 DUP3 DUP6 PUSH2 0x241 JUMP JUMPDEST POP SWAP4 SWAP3 POP POP POP JUMP JUMPDEST PUSH1 0x0 DUP3 PUSH1 0x1F DUP4 ADD SLT PUSH2 0x191 JUMPI PUSH1 0x0 DUP1 REVERT JUMPDEST DUP2 MLOAD PUSH2 0x1A1 DUP5 DUP3 PUSH1 0x20 DUP7 ADD PUSH2 0x142 JUMP JUMPDEST SWAP2 POP POP SWAP3 SWAP2 POP POP JUMP JUMPDEST PUSH1 0x0 PUSH1 0x20 DUP3 DUP5 SUB SLT ISZERO PUSH2 0x1BC JUMPI PUSH1 0x0 DUP1 REVERT JUMPDEST PUSH1 0x0 DUP3 ADD MLOAD PUSH8 0xFFFFFFFFFFFFFFFF DUP2 GT ISZERO PUSH2 0x1D6 JUMPI PUSH1 0x0 DUP1 REVERT JUMPDEST PUSH2 0x1E2 DUP5 DUP3 DUP6 ADD PUSH2 0x180 JUMP JUMPDEST SWAP2 POP POP SWAP3 SWAP2 POP POP JUMP JUMPDEST PUSH1 0x0 PUSH2 0x1F5 PUSH2 0x206 JUMP JUMPDEST SWAP1 POP PUSH2 0x201 DUP3 DUP3 PUSH2 0x2A6 JUMP JUMPDEST SWAP2 SWAP1 POP JUMP JUMPDEST PUSH1 0x0 PUSH1 0x40 MLOAD SWAP1 POP SWAP1 JUMP JUMPDEST PUSH1 0x0 PUSH8 0xFFFFFFFFFFFFFFFF DUP3 GT ISZERO PUSH2 0x22B JUMPI PUSH2 0x22A PUSH2 0x306 JUMP JUMPDEST JUMPDEST PUSH2 0x234 DUP3 PUSH2 0x335 JUMP JUMPDEST SWAP1 POP PUSH1 0x20 DUP2 ADD SWAP1 POP SWAP2 SWAP1 POP JUMP JUMPDEST PUSH1 0x0 JUMPDEST DUP4 DUP2 LT ISZERO PUSH2 0x25F JUMPI DUP1 DUP3 ADD MLOAD DUP2 DUP5 ADD MSTORE PUSH1 0x20 DUP2 ADD SWAP1 POP PUSH2 0x244 JUMP JUMPDEST DUP4 DUP2 GT ISZERO PUSH2 0x26E JUMPI PUSH1 0x0 DUP5 DUP5 ADD MSTORE JUMPDEST POP POP POP POP JUMP JUMPDEST PUSH1 0x0 PUSH1 0x2 DUP3 DIV SWAP1 POP PUSH1 0x1 DUP3 AND DUP1 PUSH2 0x28C JUMPI PUSH1 0x7F DUP3 AND SWAP2 POP JUMPDEST PUSH1 0x20 DUP3 LT DUP2 EQ ISZERO PUSH2 0x2A0 JUMPI PUSH2 0x29F PUSH2 0x2D7 JUMP JUMPDEST JUMPDEST POP SWAP2 SWAP1 POP JUMP JUMPDEST PUSH2 0x2AF DUP3 PUSH2 0x335 JUMP JUMPDEST DUP2 ADD DUP2 DUP2 LT PUSH8 0xFFFFFFFFFFFFFFFF DUP3 GT OR ISZERO PUSH2 0x2CE JUMPI PUSH2 0x2CD PUSH2 0x306 JUMP JUMPDEST JUMPDEST DUP1 PUSH1 0x40 MSTORE POP POP POP JUMP JUMPDEST PUSH32 0x4E487B7100000000000000000000000000000000000000000000000000000000 PUSH1 0x0 MSTORE PUSH1 0x22 PUSH1 0x4 MSTORE PUSH1 0x24 PUSH1 0x0 REVERT JUMPDEST PUSH32 0x4E487B7100000000000000000000000000000000000000000000000000000000 PUSH1 0x0 MSTORE PUSH1 0x41 PUSH1 0x4 MSTORE PUSH1 0x24 PUSH1 0x0 REVERT JUMPDEST PUSH1 0x0 PUSH1 0x1F NOT PUSH1 0x1F DUP4 ADD AND SWAP1 POP SWAP2 SWAP1 POP JUMP JUMPDEST PUSH2 0x2E5 DUP1 PUSH2 0x355 PUSH1 0x0 CODECOPY PUSH1 0x0 RETURN INVALID PUSH1 0x80 PUSH1 0x40 MSTORE CALLVALUE DUP1 ISZERO PUSH2 0x10 JUMPI PUSH1 0x0 DUP1 REVERT JUMPDEST POP PUSH1 0x4 CALLDATASIZE LT PUSH2 0x36 JUMPI PUSH1 0x0 CALLDATALOAD PUSH1 0xE0 SHR DUP1 PUSH4 0x6FDDE03 EQ PUSH2 0x3B JUMPI DUP1 PUSH4 0x1F1BD692 EQ PUSH2 0x59 JUMPI JUMPDEST PUSH1 0x0 DUP1 REVERT JUMPDEST PUSH2 0x43 PUSH2 0x77 JUMP JUMPDEST PUSH1 0x40 MLOAD PUSH2 0x50 SWAP2 SWAP1 PUSH2 0x1CC JUMP JUMPDEST PUSH1 0x40 MLOAD DUP1 SWAP2 SUB SWAP1 RETURN JUMPDEST PUSH2 0x61 PUSH2 0x105 JUMP JUMPDEST PUSH1 0x40 MLOAD PUSH2 0x6E SWAP2 SWAP1 PUSH2 0x1CC JUMP JUMPDEST PUSH1 0x40 MLOAD DUP1 SWAP2 SUB SWAP1 RETURN JUMPDEST PUSH1 0x0 DUP1 SLOAD PUSH2 0x84 SWAP1 PUSH2 0x23D JUMP JUMPDEST DUP1 PUSH1 0x1F ADD PUSH1 0x20 DUP1 SWAP2 DIV MUL PUSH1 0x20 ADD PUSH1 0x40 MLOAD SWAP1 DUP2 ADD PUSH1 0x40 MSTORE DUP1 SWAP3 SWAP2 SWAP1 DUP2 DUP2 MSTORE PUSH1 0x20 ADD DUP3 DUP1 SLOAD PUSH2 0xB0 SWAP1 PUSH2 0x23D JUMP JUMPDEST DUP1 ISZERO PUSH2 0xFD JUMPI DUP1 PUSH1 0x1F LT PUSH2 0xD2 JUMPI PUSH2 0x100 DUP1 DUP4 SLOAD DIV MUL DUP4 MSTORE SWAP2 PUSH1 0x20 ADD SWAP2 PUSH2 0xFD JUMP JUMPDEST DUP3 ADD SWAP2 SWAP1 PUSH1 0x0 MSTORE PUSH1 0x20 PUSH1 0x0 KECCAK256 SWAP1 JUMPDEST DUP2 SLOAD DUP2 MSTORE SWAP1 PUSH1 0x1 ADD SWAP1 PUSH1 0x20 ADD DUP1 DUP4 GT PUSH2 0xE0 JUMPI DUP3 SWAP1 SUB PUSH1 0x1F AND DUP3 ADD SWAP2 JUMPDEST POP POP POP POP POP DUP2 JUMP JUMPDEST PUSH1 0x1 DUP1 SLOAD PUSH2 0x112 SWAP1 PUSH2 0x23D JUMP JUMPDEST DUP1 PUSH1 0x1F ADD PUSH1 0x20 DUP1 SWAP2 DIV MUL PUSH1 0x20 ADD PUSH1 0x40 MLOAD SWAP1 DUP2 ADD PUSH1 0x40 MSTORE DUP1 SWAP3 SWAP2 SWAP1 DUP2 DUP2 MSTORE PUSH1 0x20 ADD DUP3 DUP1 SLOAD PUSH2 0x13E SWAP1 PUSH2 0x23D JUMP JUMPDEST DUP1 ISZERO PUSH2 0x18B JUMPI DUP1 PUSH1 0x1F LT PUSH2 0x160 JUMPI PUSH2 0x100 DUP1 DUP4 SLOAD DIV MUL DUP4 MSTORE SWAP2 PUSH1 0x20 ADD SWAP2 PUSH2 0x18B JUMP JUMPDEST DUP3 ADD SWAP2 SWAP1 PUSH1 0x0 MSTORE PUSH1 0x20 PUSH1 0x0 KECCAK256 SWAP1 JUMPDEST DUP2 SLOAD DUP2 MSTORE SWAP1 PUSH1 0x1 ADD SWAP1 PUSH1 0x20 ADD DUP1 DUP4 GT PUSH2 0x16E JUMPI DUP3 SWAP1 SUB PUSH1 0x1F AND DUP3 ADD SWAP2 JUMPDEST POP POP POP POP POP DUP2 JUMP JUMPDEST PUSH1 0x0 PUSH2 0x19E DUP3 PUSH2 0x1EE JUMP JUMPDEST PUSH2 0x1A8 DUP2 DUP6 PUSH2 0x1F9 JUMP JUMPDEST SWAP4 POP PUSH2 0x1B8 DUP2 DUP6 PUSH1 0x20 DUP7 ADD PUSH2 0x20A JUMP JUMPDEST PUSH2 0x1C1 DUP2 PUSH2 0x29E JUMP JUMPDEST DUP5 ADD SWAP2 POP POP SWAP3 SWAP2 POP POP JUMP JUMPDEST PUSH1 0x0 PUSH1 0x20 DUP3 ADD SWAP1 POP DUP2 DUP2 SUB PUSH1 0x0 DUP4 ADD MSTORE PUSH2 0x1E6 DUP2 DUP5 PUSH2 0x193 JUMP JUMPDEST SWAP1 POP SWAP3 SWAP2 POP POP JUMP JUMPDEST PUSH1 0x0 DUP2 MLOAD SWAP1 POP SWAP2 SWAP1 POP JUMP JUMPDEST PUSH1 0x0 DUP3 DUP3 MSTORE PUSH1 0x20 DUP3 ADD SWAP1 POP SWAP3 SWAP2 POP POP JUMP JUMPDEST PUSH1 0x0 JUMPDEST DUP4 DUP2 LT ISZERO PUSH2 0x228 JUMPI DUP1 DUP3 ADD MLOAD DUP2 DUP5 ADD MSTORE PUSH1 0x20 DUP2 ADD SWAP1 POP PUSH2 0x20D JUMP JUMPDEST DUP4 DUP2 GT ISZERO PUSH2 0x237 JUMPI PUSH1 0x0 DUP5 DUP5 ADD MSTORE JUMPDEST POP POP POP POP JUMP JUMPDEST PUSH1 0x0 PUSH1 0x2 DUP3 DIV SWAP1 POP PUSH1 0x1 DUP3 AND DUP1 PUSH2 0x255 JUMPI PUSH1 0x7F DUP3 AND SWAP2 POP JUMPDEST PUSH1 0x20 DUP3 LT DUP2 EQ ISZERO PUSH2 0x269 JUMPI PUSH2 0x268 PUSH2 0x26F JUMP JUMPDEST JUMPDEST POP SWAP2 SWAP1 POP JUMP JUMPDEST PUSH32 0x4E487B7100000000000000000000000000000000000000000000000000000000 PUSH1 0x0 MSTORE PUSH1 0x22 PUSH1 0x4 MSTORE PUSH1 0x24 PUSH1 0x0 REVERT JUMPDEST PUSH1 0x0 PUSH1 0x1F NOT PUSH1 0x1F DUP4 ADD AND SWAP1 POP SWAP2 SWAP1 POP JUMP INVALID LOG2 PUSH5 0x6970667358 0x22 SLT KECCAK256 JUMPDEST PUSH2 0xB96B PUSH5 0xAF8C533F PUSH7 0x470AA318CCF142 STOP 0xC1 0xEA BLOCKHASH SWAP15 PUSH8 0x6DEEC2A4C875B43B PUSH5 0x736F6C6343 STOP ADDMOD SUB STOP CALLER "
				},
				"gasEstimates": {
					"creation": {
						"codeDepositCost": "148200",
						"executionCost": "infinite",
						"totalCost": "infinite"
					},
					"external": {
						"name()": "infinite",
						"text()": "infinite"
					}
				},
				"methodIdentifiers": {
					"name()": "06fdde03",
					"text()": "1f1bd692"
				}
			},
			"storageLayout": {
				"storage": [
					{
						"astId": 3,
						"contract": "contracts/CallingParentConstructors.sol:VV",
						"label": "name",
						"offset": 0,
						"slot": "0",
						"type": "t_string_storage"
					},
					{
						"astId": 16,
						"contract": "contracts/CallingParentConstructors.sol:VV",
						"label": "text",
						"offset": 0,
						"slot": "1",
						"type": "t_string_storage"
					}
				],
				"types": {
					"t_string_storage": {
						"encoding": "bytes",
						"label": "string",
						"numberOfBytes": "32"
					}
				}
			},
			"userdoc": {
				"kind": "user",
				"methods": {},
				"version": 1
			}
		}
	}
}