{
	"contracts/Event.sol": {
		"Event": {
			"abi": [
				{
					"anonymous": false,
					"inputs": [
						{
							"indexed": true,
							"internalType": "address",
							"name": "sender",
							"type": "address"
						},
						{
							"indexed": false,
							"internalType": "uint256",
							"name": "val",
							"type": "uint256"
						}
					],
					"name": "IndexedLog",
					"type": "event"
				},
				{
					"anonymous": false,
					"inputs": [
						{
							"indexed": false,
							"internalType": "string",
							"name": "message",
							"type": "string"
						},
						{
							"indexed": false,
							"internalType": "uint256",
							"name": "val",
							"type": "uint256"
						}
					],
					"name": "Log",
					"type": "event"
				},
				{
					"anonymous": false,
					"inputs": [
						{
							"indexed": true,
							"internalType": "address",
							"name": "_from",
							"type": "address"
						},
						{
							"indexed": true,
							"internalType": "address",
							"name": "_to",
							"type": "address"
						},
						{
							"indexed": false,
							"internalType": "string",
							"name": "message",
							"type": "string"
						}
					],
					"name": "Message",
					"type": "event"
				},
				{
					"inputs": [],
					"name": "example",
					"outputs": [],
					"stateMutability": "nonpayable",
					"type": "function"
				},
				{
					"inputs": [
						{
							"internalType": "address",
							"name": "_to",
							"type": "address"
						},
						{
							"internalType": "string",
							"name": "message",
							"type": "string"
						}
					],
					"name": "sendMessage",
					"outputs": [],
					"stateMutability": "nonpayable",
					"type": "function"
				}
			],
			"devdoc": {
				"kind": "dev",
				"methods": {},
				"version": 1
			},
			"evm": {
				"assembly": "    /* \"contracts/Event.sol\":56:521  contract Event {... */\n  mstore(0x40, 0x80)\n  callvalue\n  dup1\n  iszero\n  tag_1\n  jumpi\n  0x00\n  dup1\n  revert\ntag_1:\n  pop\n  dataSize(sub_0)\n  dup1\n  dataOffset(sub_0)\n  0x00\n  codecopy\n  0x00\n  return\nstop\n\nsub_0: assembly {\n        /* \"contracts/Event.sol\":56:521  contract Event {... */\n      mstore(0x40, 0x80)\n      callvalue\n      dup1\n      iszero\n      tag_1\n      jumpi\n      0x00\n      dup1\n      revert\n    tag_1:\n      pop\n      jumpi(tag_2, lt(calldatasize, 0x04))\n      shr(0xe0, calldataload(0x00))\n      dup1\n      0x54353f2f\n      eq\n      tag_3\n      jumpi\n      dup1\n      0xde6f24bb\n      eq\n      tag_4\n      jumpi\n    tag_2:\n      0x00\n      dup1\n      revert\n        /* \"contracts/Event.sol\":202:310  function example() external {... */\n    tag_3:\n      tag_5\n      tag_6\n      jump\t// in\n    tag_5:\n      stop\n        /* \"contracts/Event.sol\":396:519  function sendMessage(address _to, string calldata message) external {... */\n    tag_4:\n      tag_7\n      0x04\n      dup1\n      calldatasize\n      sub\n      dup2\n      add\n      swap1\n      tag_8\n      swap2\n      swap1\n      tag_9\n      jump\t// in\n    tag_8:\n      tag_10\n      jump\t// in\n    tag_7:\n      stop\n        /* \"contracts/Event.sol\":202:310  function example() external {... */\n    tag_6:\n        /* \"contracts/Event.sol\":245:261  Log(\"foo\", 1234) */\n      0xdd970dd9b5bfe707922155b058a407655cb18288b807e2216442bca8ad83d6b5\n        /* \"contracts/Event.sol\":256:260  1234 */\n      0x04d2\n        /* \"contracts/Event.sol\":245:261  Log(\"foo\", 1234) */\n      mload(0x40)\n      tag_12\n      swap2\n      swap1\n      tag_13\n      jump\t// in\n    tag_12:\n      mload(0x40)\n      dup1\n      swap2\n      sub\n      swap1\n      log1\n        /* \"contracts/Event.sol\":287:297  msg.sender */\n      caller\n        /* \"contracts/Event.sol\":276:303  IndexedLog(msg.sender, 789) */\n      0xffffffffffffffffffffffffffffffffffffffff\n      and\n      0x919a4e0615aef45fd56105241973bd25f287f1040399e7c9f97fa2ca1c2b5174\n        /* \"contracts/Event.sol\":299:302  789 */\n      0x0315\n        /* \"contracts/Event.sol\":276:303  IndexedLog(msg.sender, 789) */\n      mload(0x40)\n      tag_14\n      swap2\n      swap1\n      tag_15\n      jump\t// in\n    tag_14:\n      mload(0x40)\n      dup1\n      swap2\n      sub\n      swap1\n      log2\n        /* \"contracts/Event.sol\":202:310  function example() external {... */\n      jump\t// out\n        /* \"contracts/Event.sol\":396:519  function sendMessage(address _to, string calldata message) external {... */\n    tag_10:\n        /* \"contracts/Event.sol\":499:502  _to */\n      dup3\n        /* \"contracts/Event.sol\":479:512  Message(msg.sender, _to, message) */\n      0xffffffffffffffffffffffffffffffffffffffff\n      and\n        /* \"contracts/Event.sol\":487:497  msg.sender */\n      caller\n        /* \"contracts/Event.sol\":479:512  Message(msg.sender, _to, message) */\n      0xffffffffffffffffffffffffffffffffffffffff\n      and\n      0xb3dbe9e9894ca2c11cb6c80bd0b0bccb9f5b41d612dbeeda0d5474de40b874fe\n        /* \"contracts/Event.sol\":504:511  message */\n      dup5\n      dup5\n        /* \"contracts/Event.sol\":479:512  Message(msg.sender, _to, message) */\n      mload(0x40)\n      tag_17\n      swap3\n      swap2\n      swap1\n      tag_18\n      jump\t// in\n    tag_17:\n      mload(0x40)\n      dup1\n      swap2\n      sub\n      swap1\n      log3\n        /* \"contracts/Event.sol\":396:519  function sendMessage(address _to, string calldata message) external {... */\n      pop\n      pop\n      pop\n      jump\t// out\n        /* \"#utility.yul\":7:146   */\n    tag_20:\n      0x00\n        /* \"#utility.yul\":91:97   */\n      dup2\n        /* \"#utility.yul\":78:98   */\n      calldataload\n        /* \"#utility.yul\":69:98   */\n      swap1\n      pop\n        /* \"#utility.yul\":107:140   */\n      tag_22\n        /* \"#utility.yul\":134:139   */\n      dup2\n        /* \"#utility.yul\":107:140   */\n      tag_23\n      jump\t// in\n    tag_22:\n        /* \"#utility.yul\":59:146   */\n      swap3\n      swap2\n      pop\n      pop\n      jump\t// out\n        /* \"#utility.yul\":166:518   */\n    tag_24:\n      0x00\n      dup1\n        /* \"#utility.yul\":284:287   */\n      dup4\n        /* \"#utility.yul\":277:281   */\n      0x1f\n        /* \"#utility.yul\":269:275   */\n      dup5\n        /* \"#utility.yul\":265:282   */\n      add\n        /* \"#utility.yul\":261:288   */\n      slt\n        /* \"#utility.yul\":251:253   */\n      tag_26\n      jumpi\n        /* \"#utility.yul\":302:303   */\n      0x00\n        /* \"#utility.yul\":299:300   */\n      dup1\n        /* \"#utility.yul\":292:304   */\n      revert\n        /* \"#utility.yul\":251:253   */\n    tag_26:\n        /* \"#utility.yul\":338:344   */\n      dup3\n        /* \"#utility.yul\":325:345   */\n      calldataload\n        /* \"#utility.yul\":315:345   */\n      swap1\n      pop\n        /* \"#utility.yul\":368:386   */\n      0xffffffffffffffff\n        /* \"#utility.yul\":360:366   */\n      dup2\n        /* \"#utility.yul\":357:387   */\n      gt\n        /* \"#utility.yul\":354:356   */\n      iszero\n      tag_27\n      jumpi\n        /* \"#utility.yul\":400:401   */\n      0x00\n        /* \"#utility.yul\":397:398   */\n      dup1\n        /* \"#utility.yul\":390:402   */\n      revert\n        /* \"#utility.yul\":354:356   */\n    tag_27:\n        /* \"#utility.yul\":437:441   */\n      0x20\n        /* \"#utility.yul\":429:435   */\n      dup4\n        /* \"#utility.yul\":425:442   */\n      add\n        /* \"#utility.yul\":413:442   */\n      swap2\n      pop\n        /* \"#utility.yul\":491:494   */\n      dup4\n        /* \"#utility.yul\":483:487   */\n      0x01\n        /* \"#utility.yul\":475:481   */\n      dup3\n        /* \"#utility.yul\":471:488   */\n      mul\n        /* \"#utility.yul\":461:469   */\n      dup4\n        /* \"#utility.yul\":457:489   */\n      add\n        /* \"#utility.yul\":454:495   */\n      gt\n        /* \"#utility.yul\":451:453   */\n      iszero\n      tag_28\n      jumpi\n        /* \"#utility.yul\":508:509   */\n      0x00\n        /* \"#utility.yul\":505:506   */\n      dup1\n        /* \"#utility.yul\":498:510   */\n      revert\n        /* \"#utility.yul\":451:453   */\n    tag_28:\n        /* \"#utility.yul\":241:518   */\n      swap3\n      pop\n      swap3\n      swap1\n      pop\n      jump\t// out\n        /* \"#utility.yul\":524:1064   */\n    tag_9:\n      0x00\n      dup1\n      0x00\n        /* \"#utility.yul\":669:671   */\n      0x40\n        /* \"#utility.yul\":657:666   */\n      dup5\n        /* \"#utility.yul\":648:655   */\n      dup7\n        /* \"#utility.yul\":644:667   */\n      sub\n        /* \"#utility.yul\":640:672   */\n      slt\n        /* \"#utility.yul\":637:639   */\n      iszero\n      tag_30\n      jumpi\n        /* \"#utility.yul\":685:686   */\n      0x00\n        /* \"#utility.yul\":682:683   */\n      dup1\n        /* \"#utility.yul\":675:687   */\n      revert\n        /* \"#utility.yul\":637:639   */\n    tag_30:\n        /* \"#utility.yul\":728:729   */\n      0x00\n        /* \"#utility.yul\":753:806   */\n      tag_31\n        /* \"#utility.yul\":798:805   */\n      dup7\n        /* \"#utility.yul\":789:795   */\n      dup3\n        /* \"#utility.yul\":778:787   */\n      dup8\n        /* \"#utility.yul\":774:796   */\n      add\n        /* \"#utility.yul\":753:806   */\n      tag_20\n      jump\t// in\n    tag_31:\n        /* \"#utility.yul\":743:806   */\n      swap4\n      pop\n        /* \"#utility.yul\":699:816   */\n      pop\n        /* \"#utility.yul\":883:885   */\n      0x20\n        /* \"#utility.yul\":872:881   */\n      dup5\n        /* \"#utility.yul\":868:886   */\n      add\n        /* \"#utility.yul\":855:887   */\n      calldataload\n        /* \"#utility.yul\":914:932   */\n      0xffffffffffffffff\n        /* \"#utility.yul\":906:912   */\n      dup2\n        /* \"#utility.yul\":903:933   */\n      gt\n        /* \"#utility.yul\":900:902   */\n      iszero\n      tag_32\n      jumpi\n        /* \"#utility.yul\":946:947   */\n      0x00\n        /* \"#utility.yul\":943:944   */\n      dup1\n        /* \"#utility.yul\":936:948   */\n      revert\n        /* \"#utility.yul\":900:902   */\n    tag_32:\n        /* \"#utility.yul\":982:1047   */\n      tag_33\n        /* \"#utility.yul\":1039:1046   */\n      dup7\n        /* \"#utility.yul\":1030:1036   */\n      dup3\n        /* \"#utility.yul\":1019:1028   */\n      dup8\n        /* \"#utility.yul\":1015:1037   */\n      add\n        /* \"#utility.yul\":982:1047   */\n      tag_24\n      jump\t// in\n    tag_33:\n        /* \"#utility.yul\":964:1047   */\n      swap3\n      pop\n      swap3\n      pop\n        /* \"#utility.yul\":826:1057   */\n      pop\n        /* \"#utility.yul\":627:1064   */\n      swap3\n      pop\n      swap3\n      pop\n      swap3\n      jump\t// out\n        /* \"#utility.yul\":1070:1223   */\n    tag_34:\n        /* \"#utility.yul\":1168:1216   */\n      tag_36\n        /* \"#utility.yul\":1210:1215   */\n      dup2\n        /* \"#utility.yul\":1168:1216   */\n      tag_37\n      jump\t// in\n    tag_36:\n        /* \"#utility.yul\":1163:1166   */\n      dup3\n        /* \"#utility.yul\":1156:1217   */\n      mstore\n        /* \"#utility.yul\":1146:1223   */\n      pop\n      pop\n      jump\t// out\n        /* \"#utility.yul\":1229:1380   */\n    tag_38:\n        /* \"#utility.yul\":1326:1373   */\n      tag_40\n        /* \"#utility.yul\":1367:1372   */\n      dup2\n        /* \"#utility.yul\":1326:1373   */\n      tag_41\n      jump\t// in\n    tag_40:\n        /* \"#utility.yul\":1321:1324   */\n      dup3\n        /* \"#utility.yul\":1314:1374   */\n      mstore\n        /* \"#utility.yul\":1304:1380   */\n      pop\n      pop\n      jump\t// out\n        /* \"#utility.yul\":1410:1714   */\n    tag_42:\n      0x00\n        /* \"#utility.yul\":1529:1600   */\n      tag_44\n        /* \"#utility.yul\":1593:1599   */\n      dup4\n        /* \"#utility.yul\":1588:1591   */\n      dup6\n        /* \"#utility.yul\":1529:1600   */\n      tag_45\n      jump\t// in\n    tag_44:\n        /* \"#utility.yul\":1522:1600   */\n      swap4\n      pop\n        /* \"#utility.yul\":1610:1653   */\n      tag_46\n        /* \"#utility.yul\":1646:1652   */\n      dup4\n        /* \"#utility.yul\":1641:1644   */\n      dup6\n        /* \"#utility.yul\":1634:1639   */\n      dup5\n        /* \"#utility.yul\":1610:1653   */\n      tag_47\n      jump\t// in\n    tag_46:\n        /* \"#utility.yul\":1678:1707   */\n      tag_48\n        /* \"#utility.yul\":1700:1706   */\n      dup4\n        /* \"#utility.yul\":1678:1707   */\n      tag_49\n      jump\t// in\n    tag_48:\n        /* \"#utility.yul\":1673:1676   */\n      dup5\n        /* \"#utility.yul\":1669:1708   */\n      add\n        /* \"#utility.yul\":1662:1708   */\n      swap1\n      pop\n        /* \"#utility.yul\":1512:1714   */\n      swap4\n      swap3\n      pop\n      pop\n      pop\n      jump\t// out\n        /* \"#utility.yul\":1720:2085   */\n    tag_50:\n      0x00\n        /* \"#utility.yul\":1883:1949   */\n      tag_52\n        /* \"#utility.yul\":1947:1948   */\n      0x03\n        /* \"#utility.yul\":1942:1945   */\n      dup4\n        /* \"#utility.yul\":1883:1949   */\n      tag_45\n      jump\t// in\n    tag_52:\n        /* \"#utility.yul\":1876:1949   */\n      swap2\n      pop\n        /* \"#utility.yul\":1958:2051   */\n      tag_53\n        /* \"#utility.yul\":2047:2050   */\n      dup3\n        /* \"#utility.yul\":1958:2051   */\n      tag_54\n      jump\t// in\n    tag_53:\n        /* \"#utility.yul\":2076:2078   */\n      0x20\n        /* \"#utility.yul\":2071:2074   */\n      dup3\n        /* \"#utility.yul\":2067:2079   */\n      add\n        /* \"#utility.yul\":2060:2079   */\n      swap1\n      pop\n        /* \"#utility.yul\":1866:2085   */\n      swap2\n      swap1\n      pop\n      jump\t// out\n        /* \"#utility.yul\":2091:2333   */\n    tag_15:\n      0x00\n        /* \"#utility.yul\":2232:2234   */\n      0x20\n        /* \"#utility.yul\":2221:2230   */\n      dup3\n        /* \"#utility.yul\":2217:2235   */\n      add\n        /* \"#utility.yul\":2209:2235   */\n      swap1\n      pop\n        /* \"#utility.yul\":2245:2326   */\n      tag_56\n        /* \"#utility.yul\":2323:2324   */\n      0x00\n        /* \"#utility.yul\":2312:2321   */\n      dup4\n        /* \"#utility.yul\":2308:2325   */\n      add\n        /* \"#utility.yul\":2299:2305   */\n      dup5\n        /* \"#utility.yul\":2245:2326   */\n      tag_38\n      jump\t// in\n    tag_56:\n        /* \"#utility.yul\":2199:2333   */\n      swap3\n      swap2\n      pop\n      pop\n      jump\t// out\n        /* \"#utility.yul\":2339:2672   */\n    tag_18:\n      0x00\n        /* \"#utility.yul\":2500:2502   */\n      0x20\n        /* \"#utility.yul\":2489:2498   */\n      dup3\n        /* \"#utility.yul\":2485:2503   */\n      add\n        /* \"#utility.yul\":2477:2503   */\n      swap1\n      pop\n        /* \"#utility.yul\":2549:2558   */\n      dup2\n        /* \"#utility.yul\":2543:2547   */\n      dup2\n        /* \"#utility.yul\":2539:2559   */\n      sub\n        /* \"#utility.yul\":2535:2536   */\n      0x00\n        /* \"#utility.yul\":2524:2533   */\n      dup4\n        /* \"#utility.yul\":2520:2537   */\n      add\n        /* \"#utility.yul\":2513:2560   */\n      mstore\n        /* \"#utility.yul\":2577:2665   */\n      tag_58\n        /* \"#utility.yul\":2660:2664   */\n      dup2\n        /* \"#utility.yul\":2651:2657   */\n      dup5\n        /* \"#utility.yul\":2643:2649   */\n      dup7\n        /* \"#utility.yul\":2577:2665   */\n      tag_42\n      jump\t// in\n    tag_58:\n        /* \"#utility.yul\":2569:2665   */\n      swap1\n      pop\n        /* \"#utility.yul\":2467:2672   */\n      swap4\n      swap3\n      pop\n      pop\n      pop\n      jump\t// out\n        /* \"#utility.yul\":2678:3229   */\n    tag_13:\n      0x00\n        /* \"#utility.yul\":2921:2923   */\n      0x40\n        /* \"#utility.yul\":2910:2919   */\n      dup3\n        /* \"#utility.yul\":2906:2924   */\n      add\n        /* \"#utility.yul\":2898:2924   */\n      swap1\n      pop\n        /* \"#utility.yul\":2970:2979   */\n      dup2\n        /* \"#utility.yul\":2964:2968   */\n      dup2\n        /* \"#utility.yul\":2960:2980   */\n      sub\n        /* \"#utility.yul\":2956:2957   */\n      0x00\n        /* \"#utility.yul\":2945:2954   */\n      dup4\n        /* \"#utility.yul\":2941:2958   */\n      add\n        /* \"#utility.yul\":2934:2981   */\n      mstore\n        /* \"#utility.yul\":2998:3129   */\n      tag_60\n        /* \"#utility.yul\":3124:3128   */\n      dup2\n        /* \"#utility.yul\":2998:3129   */\n      tag_50\n      jump\t// in\n    tag_60:\n        /* \"#utility.yul\":2990:3129   */\n      swap1\n      pop\n        /* \"#utility.yul\":3139:3222   */\n      tag_61\n        /* \"#utility.yul\":3218:3220   */\n      0x20\n        /* \"#utility.yul\":3207:3216   */\n      dup4\n        /* \"#utility.yul\":3203:3221   */\n      add\n        /* \"#utility.yul\":3194:3200   */\n      dup5\n        /* \"#utility.yul\":3139:3222   */\n      tag_34\n      jump\t// in\n    tag_61:\n        /* \"#utility.yul\":2888:3229   */\n      swap3\n      swap2\n      pop\n      pop\n      jump\t// out\n        /* \"#utility.yul\":3235:3404   */\n    tag_45:\n      0x00\n        /* \"#utility.yul\":3353:3359   */\n      dup3\n        /* \"#utility.yul\":3348:3351   */\n      dup3\n        /* \"#utility.yul\":3341:3360   */\n      mstore\n        /* \"#utility.yul\":3393:3397   */\n      0x20\n        /* \"#utility.yul\":3388:3391   */\n      dup3\n        /* \"#utility.yul\":3384:3398   */\n      add\n        /* \"#utility.yul\":3369:3398   */\n      swap1\n      pop\n        /* \"#utility.yul\":3331:3404   */\n      swap3\n      swap2\n      pop\n      pop\n      jump\t// out\n        /* \"#utility.yul\":3410:3506   */\n    tag_63:\n      0x00\n        /* \"#utility.yul\":3476:3500   */\n      tag_65\n        /* \"#utility.yul\":3494:3499   */\n      dup3\n        /* \"#utility.yul\":3476:3500   */\n      tag_66\n      jump\t// in\n    tag_65:\n        /* \"#utility.yul\":3465:3500   */\n      swap1\n      pop\n        /* \"#utility.yul\":3455:3506   */\n      swap2\n      swap1\n      pop\n      jump\t// out\n        /* \"#utility.yul\":3512:3638   */\n    tag_66:\n      0x00\n        /* \"#utility.yul\":3589:3631   */\n      0xffffffffffffffffffffffffffffffffffffffff\n        /* \"#utility.yul\":3582:3587   */\n      dup3\n        /* \"#utility.yul\":3578:3632   */\n      and\n        /* \"#utility.yul\":3567:3632   */\n      swap1\n      pop\n        /* \"#utility.yul\":3557:3638   */\n      swap2\n      swap1\n      pop\n      jump\t// out\n        /* \"#utility.yul\":3644:3721   */\n    tag_68:\n      0x00\n        /* \"#utility.yul\":3710:3715   */\n      dup2\n        /* \"#utility.yul\":3699:3715   */\n      swap1\n      pop\n        /* \"#utility.yul\":3689:3721   */\n      swap2\n      swap1\n      pop\n      jump\t// out\n        /* \"#utility.yul\":3727:3851   */\n    tag_37:\n      0x00\n        /* \"#utility.yul\":3821:3845   */\n      tag_71\n        /* \"#utility.yul\":3839:3844   */\n      dup3\n        /* \"#utility.yul\":3821:3845   */\n      tag_68\n      jump\t// in\n    tag_71:\n        /* \"#utility.yul\":3808:3845   */\n      swap1\n      pop\n        /* \"#utility.yul\":3798:3851   */\n      swap2\n      swap1\n      pop\n      jump\t// out\n        /* \"#utility.yul\":3857:3980   */\n    tag_41:\n      0x00\n        /* \"#utility.yul\":3950:3974   */\n      tag_73\n        /* \"#utility.yul\":3968:3973   */\n      dup3\n        /* \"#utility.yul\":3950:3974   */\n      tag_68\n      jump\t// in\n    tag_73:\n        /* \"#utility.yul\":3937:3974   */\n      swap1\n      pop\n        /* \"#utility.yul\":3927:3980   */\n      swap2\n      swap1\n      pop\n      jump\t// out\n        /* \"#utility.yul\":3986:4140   */\n    tag_47:\n        /* \"#utility.yul\":4070:4076   */\n      dup3\n        /* \"#utility.yul\":4065:4068   */\n      dup2\n        /* \"#utility.yul\":4060:4063   */\n      dup4\n        /* \"#utility.yul\":4047:4077   */\n      calldatacopy\n        /* \"#utility.yul\":4132:4133   */\n      0x00\n        /* \"#utility.yul\":4123:4129   */\n      dup4\n        /* \"#utility.yul\":4118:4121   */\n      dup4\n        /* \"#utility.yul\":4114:4130   */\n      add\n        /* \"#utility.yul\":4107:4134   */\n      mstore\n        /* \"#utility.yul\":4037:4140   */\n      pop\n      pop\n      pop\n      jump\t// out\n        /* \"#utility.yul\":4146:4248   */\n    tag_49:\n      0x00\n        /* \"#utility.yul\":4238:4240   */\n      0x1f\n        /* \"#utility.yul\":4234:4241   */\n      not\n        /* \"#utility.yul\":4229:4231   */\n      0x1f\n        /* \"#utility.yul\":4222:4227   */\n      dup4\n        /* \"#utility.yul\":4218:4232   */\n      add\n        /* \"#utility.yul\":4214:4242   */\n      and\n        /* \"#utility.yul\":4204:4242   */\n      swap1\n      pop\n        /* \"#utility.yul\":4194:4248   */\n      swap2\n      swap1\n      pop\n      jump\t// out\n        /* \"#utility.yul\":4254:4407   */\n    tag_54:\n        /* \"#utility.yul\":4394:4399   */\n      0x666f6f0000000000000000000000000000000000000000000000000000000000\n        /* \"#utility.yul\":4390:4391   */\n      0x00\n        /* \"#utility.yul\":4382:4388   */\n      dup3\n        /* \"#utility.yul\":4378:4392   */\n      add\n        /* \"#utility.yul\":4371:4400   */\n      mstore\n        /* \"#utility.yul\":4360:4407   */\n      pop\n      jump\t// out\n        /* \"#utility.yul\":4413:4535   */\n    tag_23:\n        /* \"#utility.yul\":4486:4510   */\n      tag_78\n        /* \"#utility.yul\":4504:4509   */\n      dup2\n        /* \"#utility.yul\":4486:4510   */\n      tag_63\n      jump\t// in\n    tag_78:\n        /* \"#utility.yul\":4479:4484   */\n      dup2\n        /* \"#utility.yul\":4476:4511   */\n      eq\n        /* \"#utility.yul\":4466:4468   */\n      tag_79\n      jumpi\n        /* \"#utility.yul\":4525:4526   */\n      0x00\n        /* \"#utility.yul\":4522:4523   */\n      dup1\n        /* \"#utility.yul\":4515:4527   */\n      revert\n        /* \"#utility.yul\":4466:4468   */\n    tag_79:\n        /* \"#utility.yul\":4456:4535   */\n      pop\n      jump\t// out\n\n    auxdata: 0xa264697066735822122017d074cbd506adab8e9354520e32da317b7e35c271d1581c11780e932fa3213664736f6c63430008030033\n}\n",
				"bytecode": {
					"linkReferences": {},
					"object": "608060405234801561001057600080fd5b506103f1806100206000396000f3fe608060405234801561001057600080fd5b50600436106100365760003560e01c806354353f2f1461003b578063de6f24bb14610045575b600080fd5b610043610061565b005b61005f600480360381019061005a91906101b7565b6100ec565b005b7fdd970dd9b5bfe707922155b058a407655cb18288b807e2216442bca8ad83d6b56104d260405161009291906102bc565b60405180910390a13373ffffffffffffffffffffffffffffffffffffffff167f919a4e0615aef45fd56105241973bd25f287f1040399e7c9f97fa2ca1c2b51746103156040516100e2919061027d565b60405180910390a2565b8273ffffffffffffffffffffffffffffffffffffffff163373ffffffffffffffffffffffffffffffffffffffff167fb3dbe9e9894ca2c11cb6c80bd0b0bccb9f5b41d612dbeeda0d5474de40b874fe848460405161014b929190610298565b60405180910390a3505050565b600081359050610167816103a4565b92915050565b60008083601f84011261017f57600080fd5b8235905067ffffffffffffffff81111561019857600080fd5b6020830191508360018202830111156101b057600080fd5b9250929050565b6000806000604084860312156101cc57600080fd5b60006101da86828701610158565b935050602084013567ffffffffffffffff8111156101f757600080fd5b6102038682870161016d565b92509250509250925092565b61021881610337565b82525050565b61022781610349565b82525050565b600061023983856102ea565b935061024683858461035b565b61024f8361036a565b840190509392505050565b60006102676003836102ea565b91506102728261037b565b602082019050919050565b6000602082019050610292600083018461021e565b92915050565b600060208201905081810360008301526102b381848661022d565b90509392505050565b600060408201905081810360008301526102d58161025a565b90506102e4602083018461020f565b92915050565b600082825260208201905092915050565b60006103068261030d565b9050919050565b600073ffffffffffffffffffffffffffffffffffffffff82169050919050565b6000819050919050565b60006103428261032d565b9050919050565b60006103548261032d565b9050919050565b82818337600083830152505050565b6000601f19601f8301169050919050565b7f666f6f0000000000000000000000000000000000000000000000000000000000600082015250565b6103ad816102fb565b81146103b857600080fd5b5056fea264697066735822122017d074cbd506adab8e9354520e32da317b7e35c271d1581c11780e932fa3213664736f6c63430008030033",
					"opcodes": "PUSH1 0x80 PUSH1 0x40 MSTORE CALLVALUE DUP1 ISZERO PUSH2 0x10 JUMPI PUSH1 0x0 DUP1 REVERT JUMPDEST POP PUSH2 0x3F1 DUP1 PUSH2 0x20 PUSH1 0x0 CODECOPY PUSH1 0x0 RETURN INVALID PUSH1 0x80 PUSH1 0x40 MSTORE CALLVALUE DUP1 ISZERO PUSH2 0x10 JUMPI PUSH1 0x0 DUP1 REVERT JUMPDEST POP PUSH1 0x4 CALLDATASIZE LT PUSH2 0x36 JUMPI PUSH1 0x0 CALLDATALOAD PUSH1 0xE0 SHR DUP1 PUSH4 0x54353F2F EQ PUSH2 0x3B JUMPI DUP1 PUSH4 0xDE6F24BB EQ PUSH2 0x45 JUMPI JUMPDEST PUSH1 0x0 DUP1 REVERT JUMPDEST PUSH2 0x43 PUSH2 0x61 JUMP JUMPDEST STOP JUMPDEST PUSH2 0x5F PUSH1 0x4 DUP1 CALLDATASIZE SUB DUP2 ADD SWAP1 PUSH2 0x5A SWAP2 SWAP1 PUSH2 0x1B7 JUMP JUMPDEST PUSH2 0xEC JUMP JUMPDEST STOP JUMPDEST PUSH32 0xDD970DD9B5BFE707922155B058A407655CB18288B807E2216442BCA8AD83D6B5 PUSH2 0x4D2 PUSH1 0x40 MLOAD PUSH2 0x92 SWAP2 SWAP1 PUSH2 0x2BC JUMP JUMPDEST PUSH1 0x40 MLOAD DUP1 SWAP2 SUB SWAP1 LOG1 CALLER PUSH20 0xFFFFFFFFFFFFFFFFFFFFFFFFFFFFFFFFFFFFFFFF AND PUSH32 0x919A4E0615AEF45FD56105241973BD25F287F1040399E7C9F97FA2CA1C2B5174 PUSH2 0x315 PUSH1 0x40 MLOAD PUSH2 0xE2 SWAP2 SWAP1 PUSH2 0x27D JUMP JUMPDEST PUSH1 0x40 MLOAD DUP1 SWAP2 SUB SWAP1 LOG2 JUMP JUMPDEST DUP3 PUSH20 0xFFFFFFFFFFFFFFFFFFFFFFFFFFFFFFFFFFFFFFFF AND CALLER PUSH20 0xFFFFFFFFFFFFFFFFFFFFFFFFFFFFFFFFFFFFFFFF AND PUSH32 0xB3DBE9E9894CA2C11CB6C80BD0B0BCCB9F5B41D612DBEEDA0D5474DE40B874FE DUP5 DUP5 PUSH1 0x40 MLOAD PUSH2 0x14B SWAP3 SWAP2 SWAP1 PUSH2 0x298 JUMP JUMPDEST PUSH1 0x40 MLOAD DUP1 SWAP2 SUB SWAP1 LOG3 POP POP POP JUMP JUMPDEST PUSH1 0x0 DUP2 CALLDATALOAD SWAP1 POP PUSH2 0x167 DUP2 PUSH2 0x3A4 JUMP JUMPDEST SWAP3 SWAP2 POP POP JUMP JUMPDEST PUSH1 0x0 DUP1 DUP4 PUSH1 0x1F DUP5 ADD SLT PUSH2 0x17F JUMPI PUSH1 0x0 DUP1 REVERT JUMPDEST DUP3 CALLDATALOAD SWAP1 POP PUSH8 0xFFFFFFFFFFFFFFFF DUP2 GT ISZERO PUSH2 0x198 JUMPI PUSH1 0x0 DUP1 REVERT JUMPDEST PUSH1 0x20 DUP4 ADD SWAP2 POP DUP4 PUSH1 0x1 DUP3 MUL DUP4 ADD GT ISZERO PUSH2 0x1B0 JUMPI PUSH1 0x0 DUP1 REVERT JUMPDEST SWAP3 POP SWAP3 SWAP1 POP JUMP JUMPDEST PUSH1 0x0 DUP1 PUSH1 0x0 PUSH1 0x40 DUP5 DUP7 SUB SLT ISZERO PUSH2 0x1CC JUMPI PUSH1 0x0 DUP1 REVERT JUMPDEST PUSH1 0x0 PUSH2 0x1DA DUP7 DUP3 DUP8 ADD PUSH2 0x158 JUMP JUMPDEST SWAP4 POP POP PUSH1 0x20 DUP5 ADD CALLDATALOAD PUSH8 0xFFFFFFFFFFFFFFFF DUP2 GT ISZERO PUSH2 0x1F7 JUMPI PUSH1 0x0 DUP1 REVERT JUMPDEST PUSH2 0x203 DUP7 DUP3 DUP8 ADD PUSH2 0x16D JUMP JUMPDEST SWAP3 POP SWAP3 POP POP SWAP3 POP SWAP3 POP SWAP3 JUMP JUMPDEST PUSH2 0x218 DUP2 PUSH2 0x337 JUMP JUMPDEST DUP3 MSTORE POP POP JUMP JUMPDEST PUSH2 0x227 DUP2 PUSH2 0x349 JUMP JUMPDEST DUP3 MSTORE POP POP JUMP JUMPDEST PUSH1 0x0 PUSH2 0x239 DUP4 DUP6 PUSH2 0x2EA JUMP JUMPDEST SWAP4 POP PUSH2 0x246 DUP4 DUP6 DUP5 PUSH2 0x35B JUMP JUMPDEST PUSH2 0x24F DUP4 PUSH2 0x36A JUMP JUMPDEST DUP5 ADD SWAP1 POP SWAP4 SWAP3 POP POP POP JUMP JUMPDEST PUSH1 0x0 PUSH2 0x267 PUSH1 0x3 DUP4 PUSH2 0x2EA JUMP JUMPDEST SWAP2 POP PUSH2 0x272 DUP3 PUSH2 0x37B JUMP JUMPDEST PUSH1 0x20 DUP3 ADD SWAP1 POP SWAP2 SWAP1 POP JUMP JUMPDEST PUSH1 0x0 PUSH1 0x20 DUP3 ADD SWAP1 POP PUSH2 0x292 PUSH1 0x0 DUP4 ADD DUP5 PUSH2 0x21E JUMP JUMPDEST SWAP3 SWAP2 POP POP JUMP JUMPDEST PUSH1 0x0 PUSH1 0x20 DUP3 ADD SWAP1 POP DUP2 DUP2 SUB PUSH1 0x0 DUP4 ADD MSTORE PUSH2 0x2B3 DUP2 DUP5 DUP7 PUSH2 0x22D JUMP JUMPDEST SWAP1 POP SWAP4 SWAP3 POP POP POP JUMP JUMPDEST PUSH1 0x0 PUSH1 0x40 DUP3 ADD SWAP1 POP DUP2 DUP2 SUB PUSH1 0x0 DUP4 ADD MSTORE PUSH2 0x2D5 DUP2 PUSH2 0x25A JUMP JUMPDEST SWAP1 POP PUSH2 0x2E4 PUSH1 0x20 DUP4 ADD DUP5 PUSH2 0x20F JUMP JUMPDEST SWAP3 SWAP2 POP POP JUMP JUMPDEST PUSH1 0x0 DUP3 DUP3 MSTORE PUSH1 0x20 DUP3 ADD SWAP1 POP SWAP3 SWAP2 POP POP JUMP JUMPDEST PUSH1 0x0 PUSH2 0x306 DUP3 PUSH2 0x30D JUMP JUMPDEST SWAP1 POP SWAP2 SWAP1 POP JUMP JUMPDEST PUSH1 0x0 PUSH20 0xFFFFFFFFFFFFFFFFFFFFFFFFFFFFFFFFFFFFFFFF DUP3 AND SWAP1 POP SWAP2 SWAP1 POP JUMP JUMPDEST PUSH1 0x0 DUP2 SWAP1 POP SWAP2 SWAP1 POP JUMP JUMPDEST PUSH1 0x0 PUSH2 0x342 DUP3 PUSH2 0x32D JUMP JUMPDEST SWAP1 POP SWAP2 SWAP1 POP JUMP JUMPDEST PUSH1 0x0 PUSH2 0x354 DUP3 PUSH2 0x32D JUMP JUMPDEST SWAP1 POP SWAP2 SWAP1 POP JUMP JUMPDEST DUP3 DUP2 DUP4 CALLDATACOPY PUSH1 0x0 DUP4 DUP4 ADD MSTORE POP POP POP JUMP JUMPDEST PUSH1 0x0 PUSH1 0x1F NOT PUSH1 0x1F DUP4 ADD AND SWAP1 POP SWAP2 SWAP1 POP JUMP JUMPDEST PUSH32 0x666F6F0000000000000000000000000000000000000000000000000000000000 PUSH1 0x0 DUP3 ADD MSTORE POP JUMP JUMPDEST PUSH2 0x3AD DUP2 PUSH2 0x2FB JUMP JUMPDEST DUP2 EQ PUSH2 0x3B8 JUMPI PUSH1 0x0 DUP1 REVERT JUMPDEST POP JUMP INVALID LOG2 PUSH5 0x6970667358 0x22 SLT KECCAK256 OR 0xD0 PUSH21 0xCBD506ADAB8E9354520E32DA317B7E35C271D1581C GT PUSH25 0xE932FA3213664736F6C634300080300330000000000000000 "
				},
				"gasEstimates": {
					"creation": {
						"codeDepositCost": "201800",
						"executionCost": "245",
						"totalCost": "202045"
					},
					"external": {
						"example()": "infinite",
						"sendMessage(address,string)": "infinite"
					}
				},
				"methodIdentifiers": {
					"example()": "54353f2f",
					"sendMessage(address,string)": "de6f24bb"
				}
			},
			"storageLayout": {
				"storage": [],
				"types": null
			},
			"userdoc": {
				"kind": "user",
				"methods": {},
				"version": 1
			}
		}
	}
}