{
	"contracts/DelegateCall.sol": {
		"A": {
			"abi": [
				{
					"inputs": [],
					"name": "num",
					"outputs": [
						{
							"internalType": "uint256",
							"name": "",
							"type": "uint256"
						}
					],
					"stateMutability": "view",
					"type": "function"
				},
				{
					"inputs": [],
					"name": "sender",
					"outputs": [
						{
							"internalType": "address",
							"name": "",
							"type": "address"
						}
					],
					"stateMutability": "view",
					"type": "function"
				},
				{
					"inputs": [
						{
							"internalType": "address",
							"name": "_contract",
							"type": "address"
						},
						{
							"internalType": "uint256",
							"name": "_num",
							"type": "uint256"
						}
					],
					"name": "setVars",
					"outputs": [],
					"stateMutability": "payable",
					"type": "function"
				},
				{
					"inputs": [],
					"name": "value",
					"outputs": [
						{
							"internalType": "uint256",
							"name": "",
							"type": "uint256"
						}
					],
					"stateMutability": "view",
					"type": "function"
				}
			],
			"devdoc": {
				"kind": "dev",
				"methods": {},
				"version": 1
			},
			"evm": {
				"assembly": "    /* \"contracts/DelegateCall.sol\":745:1263  contract A {... */\n  mstore(0x40, 0x80)\n  callvalue\n  dup1\n  iszero\n  tag_1\n  jumpi\n  0x00\n  dup1\n  revert\ntag_1:\n  pop\n  dataSize(sub_0)\n  dup1\n  dataOffset(sub_0)\n  0x00\n  codecopy\n  0x00\n  return\nstop\n\nsub_0: assembly {\n        /* \"contracts/DelegateCall.sol\":745:1263  contract A {... */\n      mstore(0x40, 0x80)\n      jumpi(tag_1, lt(calldatasize, 0x04))\n      shr(0xe0, calldataload(0x00))\n      dup1\n      0x3fa4f245\n      eq\n      tag_2\n      jumpi\n      dup1\n      0x4e70b1dc\n      eq\n      tag_3\n      jumpi\n      dup1\n      0x67e404ce\n      eq\n      tag_4\n      jumpi\n      dup1\n      0xd1e0f308\n      eq\n      tag_5\n      jumpi\n    tag_1:\n      0x00\n      dup1\n      revert\n        /* \"contracts/DelegateCall.sol\":813:833  uint256 public value */\n    tag_2:\n      callvalue\n      dup1\n      iszero\n      tag_6\n      jumpi\n      0x00\n      dup1\n      revert\n    tag_6:\n      pop\n      tag_7\n      tag_8\n      jump\t// in\n    tag_7:\n      mload(0x40)\n      tag_9\n      swap2\n      swap1\n      tag_10\n      jump\t// in\n    tag_9:\n      mload(0x40)\n      dup1\n      swap2\n      sub\n      swap1\n      return\n        /* \"contracts/DelegateCall.sol\":762:780  uint256 public num */\n    tag_3:\n      callvalue\n      dup1\n      iszero\n      tag_11\n      jumpi\n      0x00\n      dup1\n      revert\n    tag_11:\n      pop\n      tag_12\n      tag_13\n      jump\t// in\n    tag_12:\n      mload(0x40)\n      tag_14\n      swap2\n      swap1\n      tag_10\n      jump\t// in\n    tag_14:\n      mload(0x40)\n      dup1\n      swap2\n      sub\n      swap1\n      return\n        /* \"contracts/DelegateCall.sol\":786:807  address public sender */\n    tag_4:\n      callvalue\n      dup1\n      iszero\n      tag_15\n      jumpi\n      0x00\n      dup1\n      revert\n    tag_15:\n      pop\n      tag_16\n      tag_17\n      jump\t// in\n    tag_16:\n      mload(0x40)\n      tag_18\n      swap2\n      swap1\n      tag_19\n      jump\t// in\n    tag_18:\n      mload(0x40)\n      dup1\n      swap2\n      sub\n      swap1\n      return\n        /* \"contracts/DelegateCall.sol\":840:1261  function setVars(address _contract, uint256 _num) public payable {... */\n    tag_5:\n      tag_20\n      0x04\n      dup1\n      calldatasize\n      sub\n      dup2\n      add\n      swap1\n      tag_21\n      swap2\n      swap1\n      tag_22\n      jump\t// in\n    tag_21:\n      tag_23\n      jump\t// in\n    tag_20:\n      stop\n        /* \"contracts/DelegateCall.sol\":813:833  uint256 public value */\n    tag_8:\n      sload(0x02)\n      dup2\n      jump\t// out\n        /* \"contracts/DelegateCall.sol\":762:780  uint256 public num */\n    tag_13:\n      sload(0x00)\n      dup2\n      jump\t// out\n        /* \"contracts/DelegateCall.sol\":786:807  address public sender */\n    tag_17:\n      0x01\n      0x00\n      swap1\n      sload\n      swap1\n      0x0100\n      exp\n      swap1\n      div\n      0xffffffffffffffffffffffffffffffffffffffff\n      and\n      dup2\n      jump\t// out\n        /* \"contracts/DelegateCall.sol\":840:1261  function setVars(address _contract, uint256 _num) public payable {... */\n    tag_23:\n        /* \"contracts/DelegateCall.sol\":1076:1088  bool success */\n      0x00\n        /* \"contracts/DelegateCall.sol\":1090:1107  bytes memory data */\n      dup1\n        /* \"contracts/DelegateCall.sol\":1111:1120  _contract */\n      dup4\n        /* \"contracts/DelegateCall.sol\":1111:1133  _contract.delegatecall */\n      0xffffffffffffffffffffffffffffffffffffffff\n      and\n        /* \"contracts/DelegateCall.sol\":1170:1188  B.setVars.selector */\n      shl(0xe0, 0x6466414b)\n        /* \"contracts/DelegateCall.sol\":1190:1194  _num */\n      dup5\n        /* \"contracts/DelegateCall.sol\":1147:1195  abi.encodeWithSelector(B.setVars.selector, _num) */\n      add(0x24, mload(0x40))\n      tag_25\n      swap2\n      swap1\n      tag_10\n      jump\t// in\n    tag_25:\n      mload(0x40)\n      0x20\n      dup2\n      dup4\n      sub\n      sub\n      dup2\n      mstore\n      swap1\n      0x40\n      mstore\n      swap1\n      not(0xffffffffffffffffffffffffffffffffffffffffffffffffffffffff)\n      and\n      0x20\n      dup3\n      add\n      dup1\n      mload\n      0xffffffffffffffffffffffffffffffffffffffffffffffffffffffff\n      dup4\n      dup2\n      dup4\n      and\n      or\n      dup4\n      mstore\n      pop\n      pop\n      pop\n      pop\n        /* \"contracts/DelegateCall.sol\":1111:1205  _contract.delegatecall(... */\n      mload(0x40)\n      tag_26\n      swap2\n      swap1\n      tag_27\n      jump\t// in\n    tag_26:\n      0x00\n      mload(0x40)\n      dup1\n      dup4\n      sub\n      dup2\n      dup6\n      gas\n      delegatecall\n      swap2\n      pop\n      pop\n      returndatasize\n      dup1\n      0x00\n      dup2\n      eq\n      tag_30\n      jumpi\n      mload(0x40)\n      swap2\n      pop\n      and(add(returndatasize, 0x3f), not(0x1f))\n      dup3\n      add\n      0x40\n      mstore\n      returndatasize\n      dup3\n      mstore\n      returndatasize\n      0x00\n      0x20\n      dup5\n      add\n      returndatacopy\n      jump(tag_29)\n    tag_30:\n      0x60\n      swap2\n      pop\n    tag_29:\n      pop\n        /* \"contracts/DelegateCall.sol\":1075:1205  (bool success, bytes memory data) = _contract.delegatecall(... */\n      swap2\n      pop\n      swap2\n      pop\n        /* \"contracts/DelegateCall.sol\":1223:1230  success */\n      dup2\n        /* \"contracts/DelegateCall.sol\":1215:1254  require(success, \"delegatecall failed\") */\n      tag_31\n      jumpi\n      mload(0x40)\n      0x08c379a000000000000000000000000000000000000000000000000000000000\n      dup2\n      mstore\n      0x04\n      add\n      tag_32\n      swap1\n      tag_33\n      jump\t// in\n    tag_32:\n      mload(0x40)\n      dup1\n      swap2\n      sub\n      swap1\n      revert\n    tag_31:\n        /* \"contracts/DelegateCall.sol\":840:1261  function setVars(address _contract, uint256 _num) public payable {... */\n      pop\n      pop\n      pop\n      pop\n      jump\t// out\n        /* \"#utility.yul\":7:146   */\n    tag_35:\n      0x00\n        /* \"#utility.yul\":91:97   */\n      dup2\n        /* \"#utility.yul\":78:98   */\n      calldataload\n        /* \"#utility.yul\":69:98   */\n      swap1\n      pop\n        /* \"#utility.yul\":107:140   */\n      tag_37\n        /* \"#utility.yul\":134:139   */\n      dup2\n        /* \"#utility.yul\":107:140   */\n      tag_38\n      jump\t// in\n    tag_37:\n        /* \"#utility.yul\":59:146   */\n      swap3\n      swap2\n      pop\n      pop\n      jump\t// out\n        /* \"#utility.yul\":152:291   */\n    tag_39:\n      0x00\n        /* \"#utility.yul\":236:242   */\n      dup2\n        /* \"#utility.yul\":223:243   */\n      calldataload\n        /* \"#utility.yul\":214:243   */\n      swap1\n      pop\n        /* \"#utility.yul\":252:285   */\n      tag_41\n        /* \"#utility.yul\":279:284   */\n      dup2\n        /* \"#utility.yul\":252:285   */\n      tag_42\n      jump\t// in\n    tag_41:\n        /* \"#utility.yul\":204:291   */\n      swap3\n      swap2\n      pop\n      pop\n      jump\t// out\n        /* \"#utility.yul\":297:704   */\n    tag_22:\n      0x00\n      dup1\n        /* \"#utility.yul\":422:424   */\n      0x40\n        /* \"#utility.yul\":410:419   */\n      dup4\n        /* \"#utility.yul\":401:408   */\n      dup6\n        /* \"#utility.yul\":397:420   */\n      sub\n        /* \"#utility.yul\":393:425   */\n      slt\n        /* \"#utility.yul\":390:392   */\n      iszero\n      tag_44\n      jumpi\n        /* \"#utility.yul\":438:439   */\n      0x00\n        /* \"#utility.yul\":435:436   */\n      dup1\n        /* \"#utility.yul\":428:440   */\n      revert\n        /* \"#utility.yul\":390:392   */\n    tag_44:\n        /* \"#utility.yul\":481:482   */\n      0x00\n        /* \"#utility.yul\":506:559   */\n      tag_45\n        /* \"#utility.yul\":551:558   */\n      dup6\n        /* \"#utility.yul\":542:548   */\n      dup3\n        /* \"#utility.yul\":531:540   */\n      dup7\n        /* \"#utility.yul\":527:549   */\n      add\n        /* \"#utility.yul\":506:559   */\n      tag_35\n      jump\t// in\n    tag_45:\n        /* \"#utility.yul\":496:559   */\n      swap3\n      pop\n        /* \"#utility.yul\":452:569   */\n      pop\n        /* \"#utility.yul\":608:610   */\n      0x20\n        /* \"#utility.yul\":634:687   */\n      tag_46\n        /* \"#utility.yul\":679:686   */\n      dup6\n        /* \"#utility.yul\":670:676   */\n      dup3\n        /* \"#utility.yul\":659:668   */\n      dup7\n        /* \"#utility.yul\":655:677   */\n      add\n        /* \"#utility.yul\":634:687   */\n      tag_39\n      jump\t// in\n    tag_46:\n        /* \"#utility.yul\":624:687   */\n      swap2\n      pop\n        /* \"#utility.yul\":579:697   */\n      pop\n        /* \"#utility.yul\":380:704   */\n      swap3\n      pop\n      swap3\n      swap1\n      pop\n      jump\t// out\n        /* \"#utility.yul\":710:828   */\n    tag_47:\n        /* \"#utility.yul\":797:821   */\n      tag_49\n        /* \"#utility.yul\":815:820   */\n      dup2\n        /* \"#utility.yul\":797:821   */\n      tag_50\n      jump\t// in\n    tag_49:\n        /* \"#utility.yul\":792:795   */\n      dup3\n        /* \"#utility.yul\":785:822   */\n      mstore\n        /* \"#utility.yul\":775:828   */\n      pop\n      pop\n      jump\t// out\n        /* \"#utility.yul\":834:1207   */\n    tag_51:\n      0x00\n        /* \"#utility.yul\":966:1004   */\n      tag_53\n        /* \"#utility.yul\":998:1003   */\n      dup3\n        /* \"#utility.yul\":966:1004   */\n      tag_54\n      jump\t// in\n    tag_53:\n        /* \"#utility.yul\":1020:1108   */\n      tag_55\n        /* \"#utility.yul\":1101:1107   */\n      dup2\n        /* \"#utility.yul\":1096:1099   */\n      dup6\n        /* \"#utility.yul\":1020:1108   */\n      tag_56\n      jump\t// in\n    tag_55:\n        /* \"#utility.yul\":1013:1108   */\n      swap4\n      pop\n        /* \"#utility.yul\":1117:1169   */\n      tag_57\n        /* \"#utility.yul\":1162:1168   */\n      dup2\n        /* \"#utility.yul\":1157:1160   */\n      dup6\n        /* \"#utility.yul\":1150:1154   */\n      0x20\n        /* \"#utility.yul\":1143:1148   */\n      dup7\n        /* \"#utility.yul\":1139:1155   */\n      add\n        /* \"#utility.yul\":1117:1169   */\n      tag_58\n      jump\t// in\n    tag_57:\n        /* \"#utility.yul\":1194:1200   */\n      dup1\n        /* \"#utility.yul\":1189:1192   */\n      dup5\n        /* \"#utility.yul\":1185:1201   */\n      add\n        /* \"#utility.yul\":1178:1201   */\n      swap2\n      pop\n        /* \"#utility.yul\":942:1207   */\n      pop\n      swap3\n      swap2\n      pop\n      pop\n      jump\t// out\n        /* \"#utility.yul\":1213:1579   */\n    tag_59:\n      0x00\n        /* \"#utility.yul\":1376:1443   */\n      tag_61\n        /* \"#utility.yul\":1440:1442   */\n      0x13\n        /* \"#utility.yul\":1435:1438   */\n      dup4\n        /* \"#utility.yul\":1376:1443   */\n      tag_62\n      jump\t// in\n    tag_61:\n        /* \"#utility.yul\":1369:1443   */\n      swap2\n      pop\n        /* \"#utility.yul\":1452:1545   */\n      tag_63\n        /* \"#utility.yul\":1541:1544   */\n      dup3\n        /* \"#utility.yul\":1452:1545   */\n      tag_64\n      jump\t// in\n    tag_63:\n        /* \"#utility.yul\":1570:1572   */\n      0x20\n        /* \"#utility.yul\":1565:1568   */\n      dup3\n        /* \"#utility.yul\":1561:1573   */\n      add\n        /* \"#utility.yul\":1554:1573   */\n      swap1\n      pop\n        /* \"#utility.yul\":1359:1579   */\n      swap2\n      swap1\n      pop\n      jump\t// out\n        /* \"#utility.yul\":1585:1703   */\n    tag_65:\n        /* \"#utility.yul\":1672:1696   */\n      tag_67\n        /* \"#utility.yul\":1690:1695   */\n      dup2\n        /* \"#utility.yul\":1672:1696   */\n      tag_68\n      jump\t// in\n    tag_67:\n        /* \"#utility.yul\":1667:1670   */\n      dup3\n        /* \"#utility.yul\":1660:1697   */\n      mstore\n        /* \"#utility.yul\":1650:1703   */\n      pop\n      pop\n      jump\t// out\n        /* \"#utility.yul\":1709:1980   */\n    tag_27:\n      0x00\n        /* \"#utility.yul\":1861:1954   */\n      tag_70\n        /* \"#utility.yul\":1950:1953   */\n      dup3\n        /* \"#utility.yul\":1941:1947   */\n      dup5\n        /* \"#utility.yul\":1861:1954   */\n      tag_51\n      jump\t// in\n    tag_70:\n        /* \"#utility.yul\":1854:1954   */\n      swap2\n      pop\n        /* \"#utility.yul\":1971:1974   */\n      dup2\n        /* \"#utility.yul\":1964:1974   */\n      swap1\n      pop\n        /* \"#utility.yul\":1843:1980   */\n      swap3\n      swap2\n      pop\n      pop\n      jump\t// out\n        /* \"#utility.yul\":1986:2208   */\n    tag_19:\n      0x00\n        /* \"#utility.yul\":2117:2119   */\n      0x20\n        /* \"#utility.yul\":2106:2115   */\n      dup3\n        /* \"#utility.yul\":2102:2120   */\n      add\n        /* \"#utility.yul\":2094:2120   */\n      swap1\n      pop\n        /* \"#utility.yul\":2130:2201   */\n      tag_72\n        /* \"#utility.yul\":2198:2199   */\n      0x00\n        /* \"#utility.yul\":2187:2196   */\n      dup4\n        /* \"#utility.yul\":2183:2200   */\n      add\n        /* \"#utility.yul\":2174:2180   */\n      dup5\n        /* \"#utility.yul\":2130:2201   */\n      tag_47\n      jump\t// in\n    tag_72:\n        /* \"#utility.yul\":2084:2208   */\n      swap3\n      swap2\n      pop\n      pop\n      jump\t// out\n        /* \"#utility.yul\":2214:2633   */\n    tag_33:\n      0x00\n        /* \"#utility.yul\":2418:2420   */\n      0x20\n        /* \"#utility.yul\":2407:2416   */\n      dup3\n        /* \"#utility.yul\":2403:2421   */\n      add\n        /* \"#utility.yul\":2395:2421   */\n      swap1\n      pop\n        /* \"#utility.yul\":2467:2476   */\n      dup2\n        /* \"#utility.yul\":2461:2465   */\n      dup2\n        /* \"#utility.yul\":2457:2477   */\n      sub\n        /* \"#utility.yul\":2453:2454   */\n      0x00\n        /* \"#utility.yul\":2442:2451   */\n      dup4\n        /* \"#utility.yul\":2438:2455   */\n      add\n        /* \"#utility.yul\":2431:2478   */\n      mstore\n        /* \"#utility.yul\":2495:2626   */\n      tag_74\n        /* \"#utility.yul\":2621:2625   */\n      dup2\n        /* \"#utility.yul\":2495:2626   */\n      tag_59\n      jump\t// in\n    tag_74:\n        /* \"#utility.yul\":2487:2626   */\n      swap1\n      pop\n        /* \"#utility.yul\":2385:2633   */\n      swap2\n      swap1\n      pop\n      jump\t// out\n        /* \"#utility.yul\":2639:2861   */\n    tag_10:\n      0x00\n        /* \"#utility.yul\":2770:2772   */\n      0x20\n        /* \"#utility.yul\":2759:2768   */\n      dup3\n        /* \"#utility.yul\":2755:2773   */\n      add\n        /* \"#utility.yul\":2747:2773   */\n      swap1\n      pop\n        /* \"#utility.yul\":2783:2854   */\n      tag_76\n        /* \"#utility.yul\":2851:2852   */\n      0x00\n        /* \"#utility.yul\":2840:2849   */\n      dup4\n        /* \"#utility.yul\":2836:2853   */\n      add\n        /* \"#utility.yul\":2827:2833   */\n      dup5\n        /* \"#utility.yul\":2783:2854   */\n      tag_65\n      jump\t// in\n    tag_76:\n        /* \"#utility.yul\":2737:2861   */\n      swap3\n      swap2\n      pop\n      pop\n      jump\t// out\n        /* \"#utility.yul\":2867:2965   */\n    tag_54:\n      0x00\n        /* \"#utility.yul\":2952:2957   */\n      dup2\n        /* \"#utility.yul\":2946:2958   */\n      mload\n        /* \"#utility.yul\":2936:2958   */\n      swap1\n      pop\n        /* \"#utility.yul\":2925:2965   */\n      swap2\n      swap1\n      pop\n      jump\t// out\n        /* \"#utility.yul\":2971:3118   */\n    tag_56:\n      0x00\n        /* \"#utility.yul\":3109:3112   */\n      dup2\n        /* \"#utility.yul\":3094:3112   */\n      swap1\n      pop\n        /* \"#utility.yul\":3084:3118   */\n      swap3\n      swap2\n      pop\n      pop\n      jump\t// out\n        /* \"#utility.yul\":3124:3293   */\n    tag_62:\n      0x00\n        /* \"#utility.yul\":3242:3248   */\n      dup3\n        /* \"#utility.yul\":3237:3240   */\n      dup3\n        /* \"#utility.yul\":3230:3249   */\n      mstore\n        /* \"#utility.yul\":3282:3286   */\n      0x20\n        /* \"#utility.yul\":3277:3280   */\n      dup3\n        /* \"#utility.yul\":3273:3287   */\n      add\n        /* \"#utility.yul\":3258:3287   */\n      swap1\n      pop\n        /* \"#utility.yul\":3220:3293   */\n      swap3\n      swap2\n      pop\n      pop\n      jump\t// out\n        /* \"#utility.yul\":3299:3395   */\n    tag_50:\n      0x00\n        /* \"#utility.yul\":3365:3389   */\n      tag_81\n        /* \"#utility.yul\":3383:3388   */\n      dup3\n        /* \"#utility.yul\":3365:3389   */\n      tag_82\n      jump\t// in\n    tag_81:\n        /* \"#utility.yul\":3354:3389   */\n      swap1\n      pop\n        /* \"#utility.yul\":3344:3395   */\n      swap2\n      swap1\n      pop\n      jump\t// out\n        /* \"#utility.yul\":3401:3527   */\n    tag_82:\n      0x00\n        /* \"#utility.yul\":3478:3520   */\n      0xffffffffffffffffffffffffffffffffffffffff\n        /* \"#utility.yul\":3471:3476   */\n      dup3\n        /* \"#utility.yul\":3467:3521   */\n      and\n        /* \"#utility.yul\":3456:3521   */\n      swap1\n      pop\n        /* \"#utility.yul\":3446:3527   */\n      swap2\n      swap1\n      pop\n      jump\t// out\n        /* \"#utility.yul\":3533:3610   */\n    tag_68:\n      0x00\n        /* \"#utility.yul\":3599:3604   */\n      dup2\n        /* \"#utility.yul\":3588:3604   */\n      swap1\n      pop\n        /* \"#utility.yul\":3578:3610   */\n      swap2\n      swap1\n      pop\n      jump\t// out\n        /* \"#utility.yul\":3616:3923   */\n    tag_58:\n        /* \"#utility.yul\":3684:3685   */\n      0x00\n        /* \"#utility.yul\":3694:3807   */\n    tag_86:\n        /* \"#utility.yul\":3708:3714   */\n      dup4\n        /* \"#utility.yul\":3705:3706   */\n      dup2\n        /* \"#utility.yul\":3702:3715   */\n      lt\n        /* \"#utility.yul\":3694:3807   */\n      iszero\n      tag_88\n      jumpi\n        /* \"#utility.yul\":3793:3794   */\n      dup1\n        /* \"#utility.yul\":3788:3791   */\n      dup3\n        /* \"#utility.yul\":3784:3795   */\n      add\n        /* \"#utility.yul\":3778:3796   */\n      mload\n        /* \"#utility.yul\":3774:3775   */\n      dup2\n        /* \"#utility.yul\":3769:3772   */\n      dup5\n        /* \"#utility.yul\":3765:3776   */\n      add\n        /* \"#utility.yul\":3758:3797   */\n      mstore\n        /* \"#utility.yul\":3730:3732   */\n      0x20\n        /* \"#utility.yul\":3727:3728   */\n      dup2\n        /* \"#utility.yul\":3723:3733   */\n      add\n        /* \"#utility.yul\":3718:3733   */\n      swap1\n      pop\n        /* \"#utility.yul\":3694:3807   */\n      jump(tag_86)\n    tag_88:\n        /* \"#utility.yul\":3825:3831   */\n      dup4\n        /* \"#utility.yul\":3822:3823   */\n      dup2\n        /* \"#utility.yul\":3819:3832   */\n      gt\n        /* \"#utility.yul\":3816:3818   */\n      iszero\n      tag_89\n      jumpi\n        /* \"#utility.yul\":3905:3906   */\n      0x00\n        /* \"#utility.yul\":3896:3902   */\n      dup5\n        /* \"#utility.yul\":3891:3894   */\n      dup5\n        /* \"#utility.yul\":3887:3903   */\n      add\n        /* \"#utility.yul\":3880:3907   */\n      mstore\n        /* \"#utility.yul\":3816:3818   */\n    tag_89:\n        /* \"#utility.yul\":3665:3923   */\n      pop\n      pop\n      pop\n      pop\n      jump\t// out\n        /* \"#utility.yul\":3929:4098   */\n    tag_64:\n        /* \"#utility.yul\":4069:4090   */\n      0x64656c656761746563616c6c206661696c656400000000000000000000000000\n        /* \"#utility.yul\":4065:4066   */\n      0x00\n        /* \"#utility.yul\":4057:4063   */\n      dup3\n        /* \"#utility.yul\":4053:4067   */\n      add\n        /* \"#utility.yul\":4046:4091   */\n      mstore\n        /* \"#utility.yul\":4035:4098   */\n      pop\n      jump\t// out\n        /* \"#utility.yul\":4104:4226   */\n    tag_38:\n        /* \"#utility.yul\":4177:4201   */\n      tag_92\n        /* \"#utility.yul\":4195:4200   */\n      dup2\n        /* \"#utility.yul\":4177:4201   */\n      tag_50\n      jump\t// in\n    tag_92:\n        /* \"#utility.yul\":4170:4175   */\n      dup2\n        /* \"#utility.yul\":4167:4202   */\n      eq\n        /* \"#utility.yul\":4157:4159   */\n      tag_93\n      jumpi\n        /* \"#utility.yul\":4216:4217   */\n      0x00\n        /* \"#utility.yul\":4213:4214   */\n      dup1\n        /* \"#utility.yul\":4206:4218   */\n      revert\n        /* \"#utility.yul\":4157:4159   */\n    tag_93:\n        /* \"#utility.yul\":4147:4226   */\n      pop\n      jump\t// out\n        /* \"#utility.yul\":4232:4354   */\n    tag_42:\n        /* \"#utility.yul\":4305:4329   */\n      tag_95\n        /* \"#utility.yul\":4323:4328   */\n      dup2\n        /* \"#utility.yul\":4305:4329   */\n      tag_68\n      jump\t// in\n    tag_95:\n        /* \"#utility.yul\":4298:4303   */\n      dup2\n        /* \"#utility.yul\":4295:4330   */\n      eq\n        /* \"#utility.yul\":4285:4287   */\n      tag_96\n      jumpi\n        /* \"#utility.yul\":4344:4345   */\n      0x00\n        /* \"#utility.yul\":4341:4342   */\n      dup1\n        /* \"#utility.yul\":4334:4346   */\n      revert\n        /* \"#utility.yul\":4285:4287   */\n    tag_96:\n        /* \"#utility.yul\":4275:4354   */\n      pop\n      jump\t// out\n\n    auxdata: 0xa2646970667358221220d2822f252fbfae3684d7a0346affc4008e191dbeb77143f12354337982496d5064736f6c63430008030033\n}\n",
				"bytecode": {
					"linkReferences": {},
					"object": "608060405234801561001057600080fd5b506104a3806100206000396000f3fe60806040526004361061003f5760003560e01c80633fa4f245146100445780634e70b1dc1461006f57806367e404ce1461009a578063d1e0f308146100c5575b600080fd5b34801561005057600080fd5b506100596100e1565b6040516100669190610365565b60405180910390f35b34801561007b57600080fd5b506100846100e7565b6040516100919190610365565b60405180910390f35b3480156100a657600080fd5b506100af6100ed565b6040516100bc919061032a565b60405180910390f35b6100df60048036038101906100da9190610265565b610113565b005b60025481565b60005481565b600160009054906101000a900473ffffffffffffffffffffffffffffffffffffffff1681565b6000808373ffffffffffffffffffffffffffffffffffffffff16636466414b60e01b846040516024016101469190610365565b604051602081830303815290604052907bffffffffffffffffffffffffffffffffffffffffffffffffffffffff19166020820180517bffffffffffffffffffffffffffffffffffffffffffffffffffffffff83818316178352505050506040516101b09190610313565b600060405180830381855af49150503d80600081146101eb576040519150601f19603f3d011682016040523d82523d6000602084013e6101f0565b606091505b509150915081610235576040517f08c379a000000000000000000000000000000000000000000000000000000000815260040161022c90610345565b60405180910390fd5b50505050565b60008135905061024a8161043f565b92915050565b60008135905061025f81610456565b92915050565b6000806040838503121561027857600080fd5b60006102868582860161023b565b925050602061029785828601610250565b9150509250929050565b6102aa816103a7565b82525050565b60006102bb82610380565b6102c5818561038b565b93506102d58185602086016103e3565b80840191505092915050565b60006102ee601383610396565b91506102f982610416565b602082019050919050565b61030d816103d9565b82525050565b600061031f82846102b0565b915081905092915050565b600060208201905061033f60008301846102a1565b92915050565b6000602082019050818103600083015261035e816102e1565b9050919050565b600060208201905061037a6000830184610304565b92915050565b600081519050919050565b600081905092915050565b600082825260208201905092915050565b60006103b2826103b9565b9050919050565b600073ffffffffffffffffffffffffffffffffffffffff82169050919050565b6000819050919050565b60005b838110156104015780820151818401526020810190506103e6565b83811115610410576000848401525b50505050565b7f64656c656761746563616c6c206661696c656400000000000000000000000000600082015250565b610448816103a7565b811461045357600080fd5b50565b61045f816103d9565b811461046a57600080fd5b5056fea2646970667358221220d2822f252fbfae3684d7a0346affc4008e191dbeb77143f12354337982496d5064736f6c63430008030033",
					"opcodes": "PUSH1 0x80 PUSH1 0x40 MSTORE CALLVALUE DUP1 ISZERO PUSH2 0x10 JUMPI PUSH1 0x0 DUP1 REVERT JUMPDEST POP PUSH2 0x4A3 DUP1 PUSH2 0x20 PUSH1 0x0 CODECOPY PUSH1 0x0 RETURN INVALID PUSH1 0x80 PUSH1 0x40 MSTORE PUSH1 0x4 CALLDATASIZE LT PUSH2 0x3F JUMPI PUSH1 0x0 CALLDATALOAD PUSH1 0xE0 SHR DUP1 PUSH4 0x3FA4F245 EQ PUSH2 0x44 JUMPI DUP1 PUSH4 0x4E70B1DC EQ PUSH2 0x6F JUMPI DUP1 PUSH4 0x67E404CE EQ PUSH2 0x9A JUMPI DUP1 PUSH4 0xD1E0F308 EQ PUSH2 0xC5 JUMPI JUMPDEST PUSH1 0x0 DUP1 REVERT JUMPDEST CALLVALUE DUP1 ISZERO PUSH2 0x50 JUMPI PUSH1 0x0 DUP1 REVERT JUMPDEST POP PUSH2 0x59 PUSH2 0xE1 JUMP JUMPDEST PUSH1 0x40 MLOAD PUSH2 0x66 SWAP2 SWAP1 PUSH2 0x365 JUMP JUMPDEST PUSH1 0x40 MLOAD DUP1 SWAP2 SUB SWAP1 RETURN JUMPDEST CALLVALUE DUP1 ISZERO PUSH2 0x7B JUMPI PUSH1 0x0 DUP1 REVERT JUMPDEST POP PUSH2 0x84 PUSH2 0xE7 JUMP JUMPDEST PUSH1 0x40 MLOAD PUSH2 0x91 SWAP2 SWAP1 PUSH2 0x365 JUMP JUMPDEST PUSH1 0x40 MLOAD DUP1 SWAP2 SUB SWAP1 RETURN JUMPDEST CALLVALUE DUP1 ISZERO PUSH2 0xA6 JUMPI PUSH1 0x0 DUP1 REVERT JUMPDEST POP PUSH2 0xAF PUSH2 0xED JUMP JUMPDEST PUSH1 0x40 MLOAD PUSH2 0xBC SWAP2 SWAP1 PUSH2 0x32A JUMP JUMPDEST PUSH1 0x40 MLOAD DUP1 SWAP2 SUB SWAP1 RETURN JUMPDEST PUSH2 0xDF PUSH1 0x4 DUP1 CALLDATASIZE SUB DUP2 ADD SWAP1 PUSH2 0xDA SWAP2 SWAP1 PUSH2 0x265 JUMP JUMPDEST PUSH2 0x113 JUMP JUMPDEST STOP JUMPDEST PUSH1 0x2 SLOAD DUP2 JUMP JUMPDEST PUSH1 0x0 SLOAD DUP2 JUMP JUMPDEST PUSH1 0x1 PUSH1 0x0 SWAP1 SLOAD SWAP1 PUSH2 0x100 EXP SWAP1 DIV PUSH20 0xFFFFFFFFFFFFFFFFFFFFFFFFFFFFFFFFFFFFFFFF AND DUP2 JUMP JUMPDEST PUSH1 0x0 DUP1 DUP4 PUSH20 0xFFFFFFFFFFFFFFFFFFFFFFFFFFFFFFFFFFFFFFFF AND PUSH4 0x6466414B PUSH1 0xE0 SHL DUP5 PUSH1 0x40 MLOAD PUSH1 0x24 ADD PUSH2 0x146 SWAP2 SWAP1 PUSH2 0x365 JUMP JUMPDEST PUSH1 0x40 MLOAD PUSH1 0x20 DUP2 DUP4 SUB SUB DUP2 MSTORE SWAP1 PUSH1 0x40 MSTORE SWAP1 PUSH28 0xFFFFFFFFFFFFFFFFFFFFFFFFFFFFFFFFFFFFFFFFFFFFFFFFFFFFFFFF NOT AND PUSH1 0x20 DUP3 ADD DUP1 MLOAD PUSH28 0xFFFFFFFFFFFFFFFFFFFFFFFFFFFFFFFFFFFFFFFFFFFFFFFFFFFFFFFF DUP4 DUP2 DUP4 AND OR DUP4 MSTORE POP POP POP POP PUSH1 0x40 MLOAD PUSH2 0x1B0 SWAP2 SWAP1 PUSH2 0x313 JUMP JUMPDEST PUSH1 0x0 PUSH1 0x40 MLOAD DUP1 DUP4 SUB DUP2 DUP6 GAS DELEGATECALL SWAP2 POP POP RETURNDATASIZE DUP1 PUSH1 0x0 DUP2 EQ PUSH2 0x1EB JUMPI PUSH1 0x40 MLOAD SWAP2 POP PUSH1 0x1F NOT PUSH1 0x3F RETURNDATASIZE ADD AND DUP3 ADD PUSH1 0x40 MSTORE RETURNDATASIZE DUP3 MSTORE RETURNDATASIZE PUSH1 0x0 PUSH1 0x20 DUP5 ADD RETURNDATACOPY PUSH2 0x1F0 JUMP JUMPDEST PUSH1 0x60 SWAP2 POP JUMPDEST POP SWAP2 POP SWAP2 POP DUP2 PUSH2 0x235 JUMPI PUSH1 0x40 MLOAD PUSH32 0x8C379A000000000000000000000000000000000000000000000000000000000 DUP2 MSTORE PUSH1 0x4 ADD PUSH2 0x22C SWAP1 PUSH2 0x345 JUMP JUMPDEST PUSH1 0x40 MLOAD DUP1 SWAP2 SUB SWAP1 REVERT JUMPDEST POP POP POP POP JUMP JUMPDEST PUSH1 0x0 DUP2 CALLDATALOAD SWAP1 POP PUSH2 0x24A DUP2 PUSH2 0x43F JUMP JUMPDEST SWAP3 SWAP2 POP POP JUMP JUMPDEST PUSH1 0x0 DUP2 CALLDATALOAD SWAP1 POP PUSH2 0x25F DUP2 PUSH2 0x456 JUMP JUMPDEST SWAP3 SWAP2 POP POP JUMP JUMPDEST PUSH1 0x0 DUP1 PUSH1 0x40 DUP4 DUP6 SUB SLT ISZERO PUSH2 0x278 JUMPI PUSH1 0x0 DUP1 REVERT JUMPDEST PUSH1 0x0 PUSH2 0x286 DUP6 DUP3 DUP7 ADD PUSH2 0x23B JUMP JUMPDEST SWAP3 POP POP PUSH1 0x20 PUSH2 0x297 DUP6 DUP3 DUP7 ADD PUSH2 0x250 JUMP JUMPDEST SWAP2 POP POP SWAP3 POP SWAP3 SWAP1 POP JUMP JUMPDEST PUSH2 0x2AA DUP2 PUSH2 0x3A7 JUMP JUMPDEST DUP3 MSTORE POP POP JUMP JUMPDEST PUSH1 0x0 PUSH2 0x2BB DUP3 PUSH2 0x380 JUMP JUMPDEST PUSH2 0x2C5 DUP2 DUP6 PUSH2 0x38B JUMP JUMPDEST SWAP4 POP PUSH2 0x2D5 DUP2 DUP6 PUSH1 0x20 DUP7 ADD PUSH2 0x3E3 JUMP JUMPDEST DUP1 DUP5 ADD SWAP2 POP POP SWAP3 SWAP2 POP POP JUMP JUMPDEST PUSH1 0x0 PUSH2 0x2EE PUSH1 0x13 DUP4 PUSH2 0x396 JUMP JUMPDEST SWAP2 POP PUSH2 0x2F9 DUP3 PUSH2 0x416 JUMP JUMPDEST PUSH1 0x20 DUP3 ADD SWAP1 POP SWAP2 SWAP1 POP JUMP JUMPDEST PUSH2 0x30D DUP2 PUSH2 0x3D9 JUMP JUMPDEST DUP3 MSTORE POP POP JUMP JUMPDEST PUSH1 0x0 PUSH2 0x31F DUP3 DUP5 PUSH2 0x2B0 JUMP JUMPDEST SWAP2 POP DUP2 SWAP1 POP SWAP3 SWAP2 POP POP JUMP JUMPDEST PUSH1 0x0 PUSH1 0x20 DUP3 ADD SWAP1 POP PUSH2 0x33F PUSH1 0x0 DUP4 ADD DUP5 PUSH2 0x2A1 JUMP JUMPDEST SWAP3 SWAP2 POP POP JUMP JUMPDEST PUSH1 0x0 PUSH1 0x20 DUP3 ADD SWAP1 POP DUP2 DUP2 SUB PUSH1 0x0 DUP4 ADD MSTORE PUSH2 0x35E DUP2 PUSH2 0x2E1 JUMP JUMPDEST SWAP1 POP SWAP2 SWAP1 POP JUMP JUMPDEST PUSH1 0x0 PUSH1 0x20 DUP3 ADD SWAP1 POP PUSH2 0x37A PUSH1 0x0 DUP4 ADD DUP5 PUSH2 0x304 JUMP JUMPDEST SWAP3 SWAP2 POP POP JUMP JUMPDEST PUSH1 0x0 DUP2 MLOAD SWAP1 POP SWAP2 SWAP1 POP JUMP JUMPDEST PUSH1 0x0 DUP2 SWAP1 POP SWAP3 SWAP2 POP POP JUMP JUMPDEST PUSH1 0x0 DUP3 DUP3 MSTORE PUSH1 0x20 DUP3 ADD SWAP1 POP SWAP3 SWAP2 POP POP JUMP JUMPDEST PUSH1 0x0 PUSH2 0x3B2 DUP3 PUSH2 0x3B9 JUMP JUMPDEST SWAP1 POP SWAP2 SWAP1 POP JUMP JUMPDEST PUSH1 0x0 PUSH20 0xFFFFFFFFFFFFFFFFFFFFFFFFFFFFFFFFFFFFFFFF DUP3 AND SWAP1 POP SWAP2 SWAP1 POP JUMP JUMPDEST PUSH1 0x0 DUP2 SWAP1 POP SWAP2 SWAP1 POP JUMP JUMPDEST PUSH1 0x0 JUMPDEST DUP4 DUP2 LT ISZERO PUSH2 0x401 JUMPI DUP1 DUP3 ADD MLOAD DUP2 DUP5 ADD MSTORE PUSH1 0x20 DUP2 ADD SWAP1 POP PUSH2 0x3E6 JUMP JUMPDEST DUP4 DUP2 GT ISZERO PUSH2 0x410 JUMPI PUSH1 0x0 DUP5 DUP5 ADD MSTORE JUMPDEST POP POP POP POP JUMP JUMPDEST PUSH32 0x64656C656761746563616C6C206661696C656400000000000000000000000000 PUSH1 0x0 DUP3 ADD MSTORE POP JUMP JUMPDEST PUSH2 0x448 DUP2 PUSH2 0x3A7 JUMP JUMPDEST DUP2 EQ PUSH2 0x453 JUMPI PUSH1 0x0 DUP1 REVERT JUMPDEST POP JUMP JUMPDEST PUSH2 0x45F DUP2 PUSH2 0x3D9 JUMP JUMPDEST DUP2 EQ PUSH2 0x46A JUMPI PUSH1 0x0 DUP1 REVERT JUMPDEST POP JUMP INVALID LOG2 PUSH5 0x6970667358 0x22 SLT KECCAK256 0xD2 DUP3 0x2F 0x25 0x2F 0xBF 0xAE CALLDATASIZE DUP5 0xD7 LOG0 CALLVALUE PUSH11 0xFFC4008E191DBEB77143F1 0x23 SLOAD CALLER PUSH26 0x82496D5064736F6C634300080300330000000000000000000000 "
				},
				"gasEstimates": {
					"creation": {
						"codeDepositCost": "237400",
						"executionCost": "281",
						"totalCost": "237681"
					},
					"external": {
						"num()": "1129",
						"sender()": "1236",
						"setVars(address,uint256)": "infinite",
						"value()": "1107"
					}
				},
				"methodIdentifiers": {
					"num()": "4e70b1dc",
					"sender()": "67e404ce",
					"setVars(address,uint256)": "d1e0f308",
					"value()": "3fa4f245"
				}
			},
			"storageLayout": {
				"storage": [
					{
						"astId": 34,
						"contract": "contracts/DelegateCall.sol:A",
						"label": "num",
						"offset": 0,
						"slot": "0",
						"type": "t_uint256"
					},
					{
						"astId": 36,
						"contract": "contracts/DelegateCall.sol:A",
						"label": "sender",
						"offset": 0,
						"slot": "1",
						"type": "t_address"
					},
					{
						"astId": 38,
						"contract": "contracts/DelegateCall.sol:A",
						"label": "value",
						"offset": 0,
						"slot": "2",
						"type": "t_uint256"
					}
				],
				"types": {
					"t_address": {
						"encoding": "inplace",
						"label": "address",
						"numberOfBytes": "20"
					},
					"t_uint256": {
						"encoding": "inplace",
						"label": "uint256",
						"numberOfBytes": "32"
					}
				}
			},
			"userdoc": {
				"kind": "user",
				"methods": {},
				"version": 1
			}
		}
	}
}