{
	"contracts/program/TimeLock.sol": {
		"TimeLock": {
			"abi": [
				{
					"inputs": [],
					"stateMutability": "nonpayable",
					"type": "constructor"
				},
				{
					"inputs": [
						{
							"internalType": "bytes32",
							"name": "txId",
							"type": "bytes32"
						}
					],
					"name": "AlreadyQueuedError",
					"type": "error"
				},
				{
					"inputs": [],
					"name": "NotOwnerError",
					"type": "error"
				},
				{
					"inputs": [
						{
							"internalType": "bytes32",
							"name": "txId",
							"type": "bytes32"
						}
					],
					"name": "NotQueuedError",
					"type": "error"
				},
				{
					"inputs": [
						{
							"internalType": "uint256",
							"name": "blockTimestamp",
							"type": "uint256"
						},
						{
							"internalType": "uint256",
							"name": "expiredAt",
							"type": "uint256"
						}
					],
					"name": "TimestampExpiredError",
					"type": "error"
				},
				{
					"inputs": [
						{
							"internalType": "uint256",
							"name": "blockTimestamp",
							"type": "uint256"
						},
						{
							"internalType": "uint256",
							"name": "timestamp",
							"type": "uint256"
						}
					],
					"name": "TimestampNotInRangeError",
					"type": "error"
				},
				{
					"inputs": [
						{
							"internalType": "uint256",
							"name": "blockTimestamp",
							"type": "uint256"
						},
						{
							"internalType": "uint256",
							"name": "timestamp",
							"type": "uint256"
						}
					],
					"name": "TimestampNotPassedError",
					"type": "error"
				},
				{
					"inputs": [],
					"name": "TxFailedError",
					"type": "error"
				},
				{
					"anonymous": false,
					"inputs": [
						{
							"indexed": true,
							"internalType": "bytes32",
							"name": "txId",
							"type": "bytes32"
						}
					],
					"name": "Cancel",
					"type": "event"
				},
				{
					"anonymous": false,
					"inputs": [
						{
							"indexed": true,
							"internalType": "bytes32",
							"name": "txId",
							"type": "bytes32"
						},
						{
							"indexed": true,
							"internalType": "address",
							"name": "target",
							"type": "address"
						},
						{
							"indexed": false,
							"internalType": "uint256",
							"name": "value",
							"type": "uint256"
						},
						{
							"indexed": false,
							"internalType": "string",
							"name": "func",
							"type": "string"
						},
						{
							"indexed": false,
							"internalType": "bytes",
							"name": "data",
							"type": "bytes"
						},
						{
							"indexed": false,
							"internalType": "uint256",
							"name": "timestamp",
							"type": "uint256"
						}
					],
					"name": "Execute",
					"type": "event"
				},
				{
					"anonymous": false,
					"inputs": [
						{
							"indexed": true,
							"internalType": "bytes32",
							"name": "txId",
							"type": "bytes32"
						},
						{
							"indexed": true,
							"internalType": "address",
							"name": "target",
							"type": "address"
						},
						{
							"indexed": false,
							"internalType": "uint256",
							"name": "value",
							"type": "uint256"
						},
						{
							"indexed": false,
							"internalType": "string",
							"name": "func",
							"type": "string"
						},
						{
							"indexed": false,
							"internalType": "bytes",
							"name": "data",
							"type": "bytes"
						},
						{
							"indexed": false,
							"internalType": "uint256",
							"name": "timestamp",
							"type": "uint256"
						}
					],
					"name": "Queue",
					"type": "event"
				},
				{
					"inputs": [],
					"name": "GRACE_PERIOD",
					"outputs": [
						{
							"internalType": "uint256",
							"name": "",
							"type": "uint256"
						}
					],
					"stateMutability": "view",
					"type": "function"
				},
				{
					"inputs": [],
					"name": "MAX_DELAY",
					"outputs": [
						{
							"internalType": "uint256",
							"name": "",
							"type": "uint256"
						}
					],
					"stateMutability": "view",
					"type": "function"
				},
				{
					"inputs": [],
					"name": "MIN_DELAY",
					"outputs": [
						{
							"internalType": "uint256",
							"name": "",
							"type": "uint256"
						}
					],
					"stateMutability": "view",
					"type": "function"
				},
				{
					"inputs": [
						{
							"internalType": "bytes32",
							"name": "_txId",
							"type": "bytes32"
						}
					],
					"name": "cancel",
					"outputs": [],
					"stateMutability": "nonpayable",
					"type": "function"
				},
				{
					"inputs": [
						{
							"internalType": "address",
							"name": "_target",
							"type": "address"
						},
						{
							"internalType": "uint256",
							"name": "_value",
							"type": "uint256"
						},
						{
							"internalType": "string",
							"name": "_func",
							"type": "string"
						},
						{
							"internalType": "bytes",
							"name": "_data",
							"type": "bytes"
						},
						{
							"internalType": "uint256",
							"name": "_timestamp",
							"type": "uint256"
						}
					],
					"name": "execute",
					"outputs": [
						{
							"internalType": "bytes",
							"name": "",
							"type": "bytes"
						}
					],
					"stateMutability": "payable",
					"type": "function"
				},
				{
					"inputs": [
						{
							"internalType": "address",
							"name": "_target",
							"type": "address"
						},
						{
							"internalType": "uint256",
							"name": "_value",
							"type": "uint256"
						},
						{
							"internalType": "string",
							"name": "_func",
							"type": "string"
						},
						{
							"internalType": "bytes",
							"name": "_data",
							"type": "bytes"
						},
						{
							"internalType": "uint256",
							"name": "_timestamp",
							"type": "uint256"
						}
					],
					"name": "getTxId",
					"outputs": [
						{
							"internalType": "bytes32",
							"name": "txId",
							"type": "bytes32"
						}
					],
					"stateMutability": "pure",
					"type": "function"
				},
				{
					"inputs": [],
					"name": "owner",
					"outputs": [
						{
							"internalType": "address",
							"name": "",
							"type": "address"
						}
					],
					"stateMutability": "view",
					"type": "function"
				},
				{
					"inputs": [
						{
							"internalType": "address",
							"name": "_target",
							"type": "address"
						},
						{
							"internalType": "uint256",
							"name": "_value",
							"type": "uint256"
						},
						{
							"internalType": "string",
							"name": "_func",
							"type": "string"
						},
						{
							"internalType": "bytes",
							"name": "_data",
							"type": "bytes"
						},
						{
							"internalType": "uint256",
							"name": "_timestamp",
							"type": "uint256"
						}
					],
					"name": "queue",
					"outputs": [],
					"stateMutability": "nonpayable",
					"type": "function"
				},
				{
					"inputs": [
						{
							"internalType": "bytes32",
							"name": "",
							"type": "bytes32"
						}
					],
					"name": "queued",
					"outputs": [
						{
							"internalType": "bool",
							"name": "",
							"type": "bool"
						}
					],
					"stateMutability": "view",
					"type": "function"
				},
				{
					"stateMutability": "payable",
					"type": "receive"
				}
			],
			"devdoc": {
				"kind": "dev",
				"methods": {},
				"version": 1
			},
			"evm": {
				"assembly": "    /* \"contracts/program/TimeLock.sol\":58:4022  contract TimeLock {... */\n  mstore(0x40, 0x80)\n    /* \"contracts/program/TimeLock.sol\":1157:1206  constructor() {... */\n  callvalue\n  dup1\n  iszero\n  tag_1\n  jumpi\n  revert(0x00, 0x00)\ntag_1:\n  pop\n    /* \"contracts/program/TimeLock.sol\":1189:1199  msg.sender */\n  caller\n    /* \"contracts/program/TimeLock.sol\":1181:1186  owner */\n  0x00\n  0x00\n    /* \"contracts/program/TimeLock.sol\":1181:1199  owner = msg.sender */\n  0x0100\n  exp\n  dup2\n  sload\n  dup2\n  0xffffffffffffffffffffffffffffffffffffffff\n  mul\n  not\n  and\n  swap1\n  dup4\n  0xffffffffffffffffffffffffffffffffffffffff\n  and\n  mul\n  or\n  swap1\n  sstore\n  pop\n    /* \"contracts/program/TimeLock.sol\":58:4022  contract TimeLock {... */\n  dataSize(sub_0)\n  dup1\n  dataOffset(sub_0)\n  0x00\n  codecopy\n  0x00\n  return\nstop\n\nsub_0: assembly {\n        /* \"contracts/program/TimeLock.sol\":58:4022  contract TimeLock {... */\n      mstore(0x40, 0x80)\n      jumpi(tag_1, lt(calldatasize, 0x04))\n      shr(0xe0, calldataload(0x00))\n      dup1\n      0x8da5cb5b\n      gt\n      tag_12\n      jumpi\n      dup1\n      0x8da5cb5b\n      eq\n      tag_7\n      jumpi\n      dup1\n      0x9f81aed7\n      eq\n      tag_8\n      jumpi\n      dup1\n      0xb0f8b142\n      eq\n      tag_9\n      jumpi\n      dup1\n      0xc1a287e2\n      eq\n      tag_10\n      jumpi\n      dup1\n      0xc4d252f5\n      eq\n      tag_11\n      jumpi\n      jump(tag_2)\n    tag_12:\n      dup1\n      0x228250c9\n      eq\n      tag_3\n      jumpi\n      dup1\n      0x4125ff90\n      eq\n      tag_4\n      jumpi\n      dup1\n      0x4b9915a5\n      eq\n      tag_5\n      jumpi\n      dup1\n      0x8a1ce0b6\n      eq\n      tag_6\n      jumpi\n      jump(tag_2)\n    tag_1:\n      jumpi(tag_2, calldatasize)\n      stop\n    tag_2:\n      revert(0x00, 0x00)\n        /* \"contracts/program/TimeLock.sol\":1112:1150  mapping(bytes32 => bool) public queued */\n    tag_3:\n      callvalue\n      dup1\n      iszero\n      tag_15\n      jumpi\n      revert(0x00, 0x00)\n    tag_15:\n      pop\n      tag_16\n      0x04\n      dup1\n      calldatasize\n      sub\n      dup2\n      add\n      swap1\n      tag_17\n      swap2\n      swap1\n      tag_18\n      jump\t// in\n    tag_17:\n      tag_19\n      jump\t// in\n    tag_16:\n      mload(0x40)\n      tag_20\n      swap2\n      swap1\n      tag_21\n      jump\t// in\n    tag_20:\n      mload(0x40)\n      dup1\n      swap2\n      sub\n      swap1\n      return\n        /* \"contracts/program/TimeLock.sol\":972:1012  uint256 public constant MAX_DELAY = 1000 */\n    tag_4:\n      callvalue\n      dup1\n      iszero\n      tag_22\n      jumpi\n      revert(0x00, 0x00)\n    tag_22:\n      pop\n      tag_23\n      tag_24\n      jump\t// in\n    tag_23:\n      mload(0x40)\n      tag_25\n      swap2\n      swap1\n      tag_26\n      jump\t// in\n    tag_25:\n      mload(0x40)\n      dup1\n      swap2\n      sub\n      swap1\n      return\n        /* \"contracts/program/TimeLock.sol\":1663:2435  function queue(... */\n    tag_5:\n      callvalue\n      dup1\n      iszero\n      tag_27\n      jumpi\n      revert(0x00, 0x00)\n    tag_27:\n      pop\n      tag_28\n      0x04\n      dup1\n      calldatasize\n      sub\n      dup2\n      add\n      swap1\n      tag_29\n      swap2\n      swap1\n      tag_30\n      jump\t// in\n    tag_29:\n      tag_31\n      jump\t// in\n    tag_28:\n      stop\n        /* \"contracts/program/TimeLock.sol\":1373:1657  function getTxId(... */\n    tag_6:\n      callvalue\n      dup1\n      iszero\n      tag_32\n      jumpi\n      revert(0x00, 0x00)\n    tag_32:\n      pop\n      tag_33\n      0x04\n      dup1\n      calldatasize\n      sub\n      dup2\n      add\n      swap1\n      tag_34\n      swap2\n      swap1\n      tag_30\n      jump\t// in\n    tag_34:\n      tag_35\n      jump\t// in\n    tag_33:\n      mload(0x40)\n      tag_36\n      swap2\n      swap1\n      tag_37\n      jump\t// in\n    tag_36:\n      mload(0x40)\n      dup1\n      swap2\n      sub\n      swap1\n      return\n        /* \"contracts/program/TimeLock.sol\":1086:1106  address public owner */\n    tag_7:\n      callvalue\n      dup1\n      iszero\n      tag_38\n      jumpi\n      revert(0x00, 0x00)\n    tag_38:\n      pop\n      tag_39\n      tag_40\n      jump\t// in\n    tag_39:\n      mload(0x40)\n      tag_41\n      swap2\n      swap1\n      tag_42\n      jump\t// in\n    tag_41:\n      mload(0x40)\n      dup1\n      swap2\n      sub\n      swap1\n      return\n        /* \"contracts/program/TimeLock.sol\":928:966  uint256 public constant MIN_DELAY = 10 */\n    tag_8:\n      callvalue\n      dup1\n      iszero\n      tag_43\n      jumpi\n      revert(0x00, 0x00)\n    tag_43:\n      pop\n      tag_44\n      tag_45\n      jump\t// in\n    tag_44:\n      mload(0x40)\n      tag_46\n      swap2\n      swap1\n      tag_26\n      jump\t// in\n    tag_46:\n      mload(0x40)\n      dup1\n      swap2\n      sub\n      swap1\n      return\n        /* \"contracts/program/TimeLock.sol\":2441:3816  function execute(... */\n    tag_9:\n      tag_47\n      0x04\n      dup1\n      calldatasize\n      sub\n      dup2\n      add\n      swap1\n      tag_48\n      swap2\n      swap1\n      tag_30\n      jump\t// in\n    tag_48:\n      tag_49\n      jump\t// in\n    tag_47:\n      mload(0x40)\n      tag_50\n      swap2\n      swap1\n      tag_51\n      jump\t// in\n    tag_50:\n      mload(0x40)\n      dup1\n      swap2\n      sub\n      swap1\n      return\n        /* \"contracts/program/TimeLock.sol\":1018:1061  uint256 public constant GRACE_PERIOD = 1000 */\n    tag_10:\n      callvalue\n      dup1\n      iszero\n      tag_52\n      jumpi\n      revert(0x00, 0x00)\n    tag_52:\n      pop\n      tag_53\n      tag_54\n      jump\t// in\n    tag_53:\n      mload(0x40)\n      tag_55\n      swap2\n      swap1\n      tag_26\n      jump\t// in\n    tag_55:\n      mload(0x40)\n      dup1\n      swap2\n      sub\n      swap1\n      return\n        /* \"contracts/program/TimeLock.sol\":3822:4020  function cancel(bytes32 _txId) external onlyOwner {... */\n    tag_11:\n      callvalue\n      dup1\n      iszero\n      tag_56\n      jumpi\n      revert(0x00, 0x00)\n    tag_56:\n      pop\n      tag_57\n      0x04\n      dup1\n      calldatasize\n      sub\n      dup2\n      add\n      swap1\n      tag_58\n      swap2\n      swap1\n      tag_18\n      jump\t// in\n    tag_58:\n      tag_59\n      jump\t// in\n    tag_57:\n      stop\n        /* \"contracts/program/TimeLock.sol\":1112:1150  mapping(bytes32 => bool) public queued */\n    tag_19:\n      mstore(0x20, 0x01)\n      dup1\n      0x00\n      mstore\n      keccak256(0x00, 0x40)\n      0x00\n      swap2\n      pop\n      sload\n      swap1\n      0x0100\n      exp\n      swap1\n      div\n      0xff\n      and\n      dup2\n      jump\t// out\n        /* \"contracts/program/TimeLock.sol\":972:1012  uint256 public constant MAX_DELAY = 1000 */\n    tag_24:\n        /* \"contracts/program/TimeLock.sol\":1008:1012  1000 */\n      0x03e8\n        /* \"contracts/program/TimeLock.sol\":972:1012  uint256 public constant MAX_DELAY = 1000 */\n      dup2\n      jump\t// out\n        /* \"contracts/program/TimeLock.sol\":1663:2435  function queue(... */\n    tag_31:\n        /* \"contracts/program/TimeLock.sol\":1296:1301  owner */\n      0x00\n      0x00\n      swap1\n      sload\n      swap1\n      0x0100\n      exp\n      swap1\n      div\n      0xffffffffffffffffffffffffffffffffffffffff\n      and\n        /* \"contracts/program/TimeLock.sol\":1282:1301  msg.sender != owner */\n      0xffffffffffffffffffffffffffffffffffffffff\n      and\n        /* \"contracts/program/TimeLock.sol\":1282:1292  msg.sender */\n      caller\n        /* \"contracts/program/TimeLock.sol\":1282:1301  msg.sender != owner */\n      0xffffffffffffffffffffffffffffffffffffffff\n      and\n      eq\n        /* \"contracts/program/TimeLock.sol\":1278:1350  if (msg.sender != owner) {... */\n      tag_61\n      jumpi\n        /* \"contracts/program/TimeLock.sol\":1324:1339  NotOwnerError() */\n      mload(0x40)\n      0x74a2152700000000000000000000000000000000000000000000000000000000\n      dup2\n      mstore\n      0x04\n      add\n      mload(0x40)\n      dup1\n      swap2\n      sub\n      swap1\n      revert\n        /* \"contracts/program/TimeLock.sol\":1278:1350  if (msg.sender != owner) {... */\n    tag_61:\n        /* \"contracts/program/TimeLock.sol\":1851:1863  bytes32 txId */\n      0x00\n        /* \"contracts/program/TimeLock.sol\":1866:1916  getTxId(_target, _value, _func, _data, _timestamp) */\n      tag_63\n        /* \"contracts/program/TimeLock.sol\":1874:1881  _target */\n      dup9\n        /* \"contracts/program/TimeLock.sol\":1883:1889  _value */\n      dup9\n        /* \"contracts/program/TimeLock.sol\":1891:1896  _func */\n      dup9\n      dup9\n        /* \"contracts/program/TimeLock.sol\":1898:1903  _data */\n      dup9\n      dup9\n        /* \"contracts/program/TimeLock.sol\":1905:1915  _timestamp */\n      dup9\n        /* \"contracts/program/TimeLock.sol\":1866:1873  getTxId */\n      tag_35\n        /* \"contracts/program/TimeLock.sol\":1866:1916  getTxId(_target, _value, _func, _data, _timestamp) */\n      jump\t// in\n    tag_63:\n        /* \"contracts/program/TimeLock.sol\":1851:1916  bytes32 txId = getTxId(_target, _value, _func, _data, _timestamp) */\n      swap1\n      pop\n        /* \"contracts/program/TimeLock.sol\":1930:1936  queued */\n      0x01\n        /* \"contracts/program/TimeLock.sol\":1930:1942  queued[txId] */\n      0x00\n        /* \"contracts/program/TimeLock.sol\":1937:1941  txId */\n      dup3\n        /* \"contracts/program/TimeLock.sol\":1930:1942  queued[txId] */\n      dup2\n      mstore\n      0x20\n      add\n      swap1\n      dup2\n      mstore\n      0x20\n      add\n      0x00\n      keccak256\n      0x00\n      swap1\n      sload\n      swap1\n      0x0100\n      exp\n      swap1\n      div\n      0xff\n      and\n        /* \"contracts/program/TimeLock.sol\":1926:2000  if (queued[txId]) {... */\n      iszero\n      tag_64\n      jumpi\n        /* \"contracts/program/TimeLock.sol\":1984:1988  txId */\n      dup1\n        /* \"contracts/program/TimeLock.sol\":1965:1989  AlreadyQueuedError(txId) */\n      mload(0x40)\n      0x995042be00000000000000000000000000000000000000000000000000000000\n      dup2\n      mstore\n      0x04\n      add\n      tag_65\n      swap2\n      swap1\n      tag_37\n      jump\t// in\n    tag_65:\n      mload(0x40)\n      dup1\n      swap2\n      sub\n      swap1\n      revert\n        /* \"contracts/program/TimeLock.sol\":1926:2000  if (queued[txId]) {... */\n    tag_64:\n        /* \"contracts/program/TimeLock.sol\":964:966  10 */\n      0x0a\n        /* \"contracts/program/TimeLock.sol\":2132:2147  block.timestamp */\n      timestamp\n        /* \"contracts/program/TimeLock.sol\":2132:2159  block.timestamp + MIN_DELAY */\n      tag_66\n      swap2\n      swap1\n      tag_67\n      jump\t// in\n    tag_66:\n        /* \"contracts/program/TimeLock.sol\":2119:2129  _timestamp */\n      dup3\n        /* \"contracts/program/TimeLock.sol\":2119:2159  _timestamp < block.timestamp + MIN_DELAY */\n      lt\n        /* \"contracts/program/TimeLock.sol\":2119:2215  _timestamp < block.timestamp + MIN_DELAY ||... */\n      dup1\n      tag_68\n      jumpi\n      pop\n        /* \"contracts/program/TimeLock.sol\":1008:1012  1000 */\n      0x03e8\n        /* \"contracts/program/TimeLock.sol\":2188:2203  block.timestamp */\n      timestamp\n        /* \"contracts/program/TimeLock.sol\":2188:2215  block.timestamp + MAX_DELAY */\n      tag_69\n      swap2\n      swap1\n      tag_67\n      jump\t// in\n    tag_69:\n        /* \"contracts/program/TimeLock.sol\":2175:2185  _timestamp */\n      dup3\n        /* \"contracts/program/TimeLock.sol\":2175:2215  _timestamp > block.timestamp + MAX_DELAY */\n      gt\n        /* \"contracts/program/TimeLock.sol\":2119:2215  _timestamp < block.timestamp + MIN_DELAY ||... */\n    tag_68:\n        /* \"contracts/program/TimeLock.sol\":2102:2311  if (... */\n      iszero\n      tag_70\n      jumpi\n        /* \"contracts/program/TimeLock.sol\":2272:2287  block.timestamp */\n      timestamp\n        /* \"contracts/program/TimeLock.sol\":2289:2299  _timestamp */\n      dup3\n        /* \"contracts/program/TimeLock.sol\":2247:2300  TimestampNotInRangeError(block.timestamp, _timestamp) */\n      mload(0x40)\n      0x1a9616c200000000000000000000000000000000000000000000000000000000\n      dup2\n      mstore\n      0x04\n      add\n      tag_71\n      swap3\n      swap2\n      swap1\n      tag_72\n      jump\t// in\n    tag_71:\n      mload(0x40)\n      dup1\n      swap2\n      sub\n      swap1\n      revert\n        /* \"contracts/program/TimeLock.sol\":2102:2311  if (... */\n    tag_70:\n        /* \"contracts/program/TimeLock.sol\":2355:2359  true */\n      0x01\n        /* \"contracts/program/TimeLock.sol\":2340:2346  queued */\n      dup1\n        /* \"contracts/program/TimeLock.sol\":2340:2352  queued[txId] */\n      0x00\n        /* \"contracts/program/TimeLock.sol\":2347:2351  txId */\n      dup4\n        /* \"contracts/program/TimeLock.sol\":2340:2352  queued[txId] */\n      dup2\n      mstore\n      0x20\n      add\n      swap1\n      dup2\n      mstore\n      0x20\n      add\n      0x00\n      keccak256\n      0x00\n        /* \"contracts/program/TimeLock.sol\":2340:2359  queued[txId] = true */\n      0x0100\n      exp\n      dup2\n      sload\n      dup2\n      0xff\n      mul\n      not\n      and\n      swap1\n      dup4\n      iszero\n      iszero\n      mul\n      or\n      swap1\n      sstore\n      pop\n        /* \"contracts/program/TimeLock.sol\":2386:2393  _target */\n      dup8\n        /* \"contracts/program/TimeLock.sol\":2374:2428  Queue(txId, _target, _value, _func, _data, _timestamp) */\n      0xffffffffffffffffffffffffffffffffffffffff\n      and\n        /* \"contracts/program/TimeLock.sol\":2380:2384  txId */\n      dup2\n        /* \"contracts/program/TimeLock.sol\":2374:2428  Queue(txId, _target, _value, _func, _data, _timestamp) */\n      0x3c22f47140594040d205a5533cfedd86c9ab8622c39ead03affb2d97052c794c\n        /* \"contracts/program/TimeLock.sol\":2395:2401  _value */\n      dup10\n        /* \"contracts/program/TimeLock.sol\":2403:2408  _func */\n      dup10\n      dup10\n        /* \"contracts/program/TimeLock.sol\":2410:2415  _data */\n      dup10\n      dup10\n        /* \"contracts/program/TimeLock.sol\":2417:2427  _timestamp */\n      dup10\n        /* \"contracts/program/TimeLock.sol\":2374:2428  Queue(txId, _target, _value, _func, _data, _timestamp) */\n      mload(0x40)\n      tag_73\n      swap7\n      swap6\n      swap5\n      swap4\n      swap3\n      swap2\n      swap1\n      tag_74\n      jump\t// in\n    tag_73:\n      mload(0x40)\n      dup1\n      swap2\n      sub\n      swap1\n      log3\n        /* \"contracts/program/TimeLock.sol\":1841:2435  {... */\n      pop\n        /* \"contracts/program/TimeLock.sol\":1663:2435  function queue(... */\n      pop\n      pop\n      pop\n      pop\n      pop\n      pop\n      pop\n      jump\t// out\n        /* \"contracts/program/TimeLock.sol\":1373:1657  function getTxId(... */\n    tag_35:\n        /* \"contracts/program/TimeLock.sol\":1555:1567  bytes32 txId */\n      0x00\n        /* \"contracts/program/TimeLock.sol\":1607:1614  _target */\n      dup8\n        /* \"contracts/program/TimeLock.sol\":1616:1622  _value */\n      dup8\n        /* \"contracts/program/TimeLock.sol\":1624:1629  _func */\n      dup8\n      dup8\n        /* \"contracts/program/TimeLock.sol\":1631:1636  _data */\n      dup8\n      dup8\n        /* \"contracts/program/TimeLock.sol\":1638:1648  _timestamp */\n      dup8\n        /* \"contracts/program/TimeLock.sol\":1596:1649  abi.encode(_target, _value, _func, _data, _timestamp) */\n      add(0x20, mload(0x40))\n      tag_76\n      swap8\n      swap7\n      swap6\n      swap5\n      swap4\n      swap3\n      swap2\n      swap1\n      tag_77\n      jump\t// in\n    tag_76:\n      mload(0x40)\n      0x20\n      dup2\n      dup4\n      sub\n      sub\n      dup2\n      mstore\n      swap1\n      0x40\n      mstore\n        /* \"contracts/program/TimeLock.sol\":1586:1650  keccak256(abi.encode(_target, _value, _func, _data, _timestamp)) */\n      dup1\n      mload\n      swap1\n      0x20\n      add\n      keccak256\n        /* \"contracts/program/TimeLock.sol\":1579:1650  return keccak256(abi.encode(_target, _value, _func, _data, _timestamp)) */\n      swap1\n      pop\n        /* \"contracts/program/TimeLock.sol\":1373:1657  function getTxId(... */\n      swap8\n      swap7\n      pop\n      pop\n      pop\n      pop\n      pop\n      pop\n      pop\n      jump\t// out\n        /* \"contracts/program/TimeLock.sol\":1086:1106  address public owner */\n    tag_40:\n      0x00\n      0x00\n      swap1\n      sload\n      swap1\n      0x0100\n      exp\n      swap1\n      div\n      0xffffffffffffffffffffffffffffffffffffffff\n      and\n      dup2\n      jump\t// out\n        /* \"contracts/program/TimeLock.sol\":928:966  uint256 public constant MIN_DELAY = 10 */\n    tag_45:\n        /* \"contracts/program/TimeLock.sol\":964:966  10 */\n      0x0a\n        /* \"contracts/program/TimeLock.sol\":928:966  uint256 public constant MIN_DELAY = 10 */\n      dup2\n      jump\t// out\n        /* \"contracts/program/TimeLock.sol\":2441:3816  function execute(... */\n    tag_49:\n        /* \"contracts/program/TimeLock.sol\":2638:2650  bytes memory */\n      0x60\n        /* \"contracts/program/TimeLock.sol\":1296:1301  owner */\n      0x00\n      0x00\n      swap1\n      sload\n      swap1\n      0x0100\n      exp\n      swap1\n      div\n      0xffffffffffffffffffffffffffffffffffffffff\n      and\n        /* \"contracts/program/TimeLock.sol\":1282:1301  msg.sender != owner */\n      0xffffffffffffffffffffffffffffffffffffffff\n      and\n        /* \"contracts/program/TimeLock.sol\":1282:1292  msg.sender */\n      caller\n        /* \"contracts/program/TimeLock.sol\":1282:1301  msg.sender != owner */\n      0xffffffffffffffffffffffffffffffffffffffff\n      and\n      eq\n        /* \"contracts/program/TimeLock.sol\":1278:1350  if (msg.sender != owner) {... */\n      tag_79\n      jumpi\n        /* \"contracts/program/TimeLock.sol\":1324:1339  NotOwnerError() */\n      mload(0x40)\n      0x74a2152700000000000000000000000000000000000000000000000000000000\n      dup2\n      mstore\n      0x04\n      add\n      mload(0x40)\n      dup1\n      swap2\n      sub\n      swap1\n      revert\n        /* \"contracts/program/TimeLock.sol\":1278:1350  if (msg.sender != owner) {... */\n    tag_79:\n        /* \"contracts/program/TimeLock.sol\":2662:2674  bytes32 txId */\n      0x00\n        /* \"contracts/program/TimeLock.sol\":2677:2727  getTxId(_target, _value, _func, _data, _timestamp) */\n      tag_81\n        /* \"contracts/program/TimeLock.sol\":2685:2692  _target */\n      dup10\n        /* \"contracts/program/TimeLock.sol\":2694:2700  _value */\n      dup10\n        /* \"contracts/program/TimeLock.sol\":2702:2707  _func */\n      dup10\n      dup10\n        /* \"contracts/program/TimeLock.sol\":2709:2714  _data */\n      dup10\n      dup10\n        /* \"contracts/program/TimeLock.sol\":2716:2726  _timestamp */\n      dup10\n        /* \"contracts/program/TimeLock.sol\":2677:2684  getTxId */\n      tag_35\n        /* \"contracts/program/TimeLock.sol\":2677:2727  getTxId(_target, _value, _func, _data, _timestamp) */\n      jump\t// in\n    tag_81:\n        /* \"contracts/program/TimeLock.sol\":2662:2727  bytes32 txId = getTxId(_target, _value, _func, _data, _timestamp) */\n      swap1\n      pop\n        /* \"contracts/program/TimeLock.sol\":2772:2778  queued */\n      0x01\n        /* \"contracts/program/TimeLock.sol\":2772:2784  queued[txId] */\n      0x00\n        /* \"contracts/program/TimeLock.sol\":2779:2783  txId */\n      dup3\n        /* \"contracts/program/TimeLock.sol\":2772:2784  queued[txId] */\n      dup2\n      mstore\n      0x20\n      add\n      swap1\n      dup2\n      mstore\n      0x20\n      add\n      0x00\n      keccak256\n      0x00\n      swap1\n      sload\n      swap1\n      0x0100\n      exp\n      swap1\n      div\n      0xff\n      and\n        /* \"contracts/program/TimeLock.sol\":2767:2838  if (!queued[txId]) {... */\n      tag_82\n      jumpi\n        /* \"contracts/program/TimeLock.sol\":2822:2826  txId */\n      dup1\n        /* \"contracts/program/TimeLock.sol\":2807:2827  NotQueuedError(txId) */\n      mload(0x40)\n      0x0995c9d500000000000000000000000000000000000000000000000000000000\n      dup2\n      mstore\n      0x04\n      add\n      tag_83\n      swap2\n      swap1\n      tag_37\n      jump\t// in\n    tag_83:\n      mload(0x40)\n      dup1\n      swap2\n      sub\n      swap1\n      revert\n        /* \"contracts/program/TimeLock.sol\":2767:2838  if (!queued[txId]) {... */\n    tag_82:\n        /* \"contracts/program/TimeLock.sol\":2915:2925  _timestamp */\n      dup3\n        /* \"contracts/program/TimeLock.sol\":2897:2912  block.timestamp */\n      timestamp\n        /* \"contracts/program/TimeLock.sol\":2897:2925  block.timestamp < _timestamp */\n      lt\n        /* \"contracts/program/TimeLock.sol\":2893:3011  if (block.timestamp < _timestamp) {... */\n      iszero\n      tag_84\n      jumpi\n        /* \"contracts/program/TimeLock.sol\":2972:2987  block.timestamp */\n      timestamp\n        /* \"contracts/program/TimeLock.sol\":2989:2999  _timestamp */\n      dup4\n        /* \"contracts/program/TimeLock.sol\":2948:3000  TimestampNotPassedError(block.timestamp, _timestamp) */\n      mload(0x40)\n      0x035fce5b00000000000000000000000000000000000000000000000000000000\n      dup2\n      mstore\n      0x04\n      add\n      tag_85\n      swap3\n      swap2\n      swap1\n      tag_72\n      jump\t// in\n    tag_85:\n      mload(0x40)\n      dup1\n      swap2\n      sub\n      swap1\n      revert\n        /* \"contracts/program/TimeLock.sol\":2893:3011  if (block.timestamp < _timestamp) {... */\n    tag_84:\n        /* \"contracts/program/TimeLock.sol\":1057:1061  1000 */\n      0x03e8\n        /* \"contracts/program/TimeLock.sol\":3132:3142  _timestamp */\n      dup4\n        /* \"contracts/program/TimeLock.sol\":3132:3157  _timestamp + GRACE_PERIOD */\n      tag_86\n      swap2\n      swap1\n      tag_67\n      jump\t// in\n    tag_86:\n        /* \"contracts/program/TimeLock.sol\":3114:3129  block.timestamp */\n      timestamp\n        /* \"contracts/program/TimeLock.sol\":3114:3157  block.timestamp > _timestamp + GRACE_PERIOD */\n      gt\n        /* \"contracts/program/TimeLock.sol\":3110:3302  if (block.timestamp > _timestamp + GRACE_PERIOD) {... */\n      iszero\n      tag_87\n      jumpi\n        /* \"contracts/program/TimeLock.sol\":3219:3234  block.timestamp */\n      timestamp\n        /* \"contracts/program/TimeLock.sol\":1057:1061  1000 */\n      0x03e8\n        /* \"contracts/program/TimeLock.sol\":3252:3262  _timestamp */\n      dup5\n        /* \"contracts/program/TimeLock.sol\":3252:3277  _timestamp + GRACE_PERIOD */\n      tag_88\n      swap2\n      swap1\n      tag_67\n      jump\t// in\n    tag_88:\n        /* \"contracts/program/TimeLock.sol\":3180:3291  TimestampExpiredError(... */\n      mload(0x40)\n      0x92ae26d100000000000000000000000000000000000000000000000000000000\n      dup2\n      mstore\n      0x04\n      add\n      tag_89\n      swap3\n      swap2\n      swap1\n      tag_72\n      jump\t// in\n    tag_89:\n      mload(0x40)\n      dup1\n      swap2\n      sub\n      swap1\n      revert\n        /* \"contracts/program/TimeLock.sol\":3110:3302  if (block.timestamp > _timestamp + GRACE_PERIOD) {... */\n    tag_87:\n        /* \"contracts/program/TimeLock.sol\":3326:3331  false */\n      0x00\n        /* \"contracts/program/TimeLock.sol\":3311:3317  queued */\n      0x01\n        /* \"contracts/program/TimeLock.sol\":3311:3323  queued[txId] */\n      0x00\n        /* \"contracts/program/TimeLock.sol\":3318:3322  txId */\n      dup4\n        /* \"contracts/program/TimeLock.sol\":3311:3323  queued[txId] */\n      dup2\n      mstore\n      0x20\n      add\n      swap1\n      dup2\n      mstore\n      0x20\n      add\n      0x00\n      keccak256\n      0x00\n        /* \"contracts/program/TimeLock.sol\":3311:3331  queued[txId] = false */\n      0x0100\n      exp\n      dup2\n      sload\n      dup2\n      0xff\n      mul\n      not\n      and\n      swap1\n      dup4\n      iszero\n      iszero\n      mul\n      or\n      swap1\n      sstore\n      pop\n        /* \"contracts/program/TimeLock.sol\":3341:3358  bytes memory data */\n      0x60\n        /* \"contracts/program/TimeLock.sol\":3421:3422  0 */\n      0x00\n        /* \"contracts/program/TimeLock.sol\":3405:3410  _func */\n      dup9\n      dup9\n        /* \"contracts/program/TimeLock.sol\":3399:3418  bytes(_func).length */\n      swap1\n      pop\n        /* \"contracts/program/TimeLock.sol\":3399:3422  bytes(_func).length > 0 */\n      gt\n        /* \"contracts/program/TimeLock.sol\":3395:3555  if (bytes(_func).length > 0) {... */\n      iszero\n      tag_90\n      jumpi\n        /* \"contracts/program/TimeLock.sol\":3485:3490  _func */\n      dup8\n      dup8\n        /* \"contracts/program/TimeLock.sol\":3469:3492  keccak256(bytes(_func)) */\n      mload(0x40)\n      tag_91\n      swap3\n      swap2\n      swap1\n      tag_92\n      jump\t// in\n    tag_91:\n      mload(0x40)\n      dup1\n      swap2\n      sub\n      swap1\n      keccak256\n        /* \"contracts/program/TimeLock.sol\":3495:3500  _data */\n      dup7\n      dup7\n        /* \"contracts/program/TimeLock.sol\":3445:3501  abi.encodePacked(bytes4(keccak256(bytes(_func))), _data) */\n      add(0x20, mload(0x40))\n      tag_93\n      swap4\n      swap3\n      swap2\n      swap1\n      tag_94\n      jump\t// in\n    tag_93:\n      mload(0x40)\n      0x20\n      dup2\n      dup4\n      sub\n      sub\n      dup2\n      mstore\n      swap1\n      0x40\n      mstore\n        /* \"contracts/program/TimeLock.sol\":3438:3501  data = abi.encodePacked(bytes4(keccak256(bytes(_func))), _data) */\n      swap1\n      pop\n        /* \"contracts/program/TimeLock.sol\":3395:3555  if (bytes(_func).length > 0) {... */\n      jump(tag_95)\n    tag_90:\n        /* \"contracts/program/TimeLock.sol\":3539:3544  _data */\n      dup6\n      dup6\n        /* \"contracts/program/TimeLock.sol\":3532:3544  data = _data */\n      dup1\n      dup1\n      0x1f\n      add\n      0x20\n      dup1\n      swap2\n      div\n      mul\n      0x20\n      add\n      mload(0x40)\n      swap1\n      dup2\n      add\n      0x40\n      mstore\n      dup1\n      swap4\n      swap3\n      swap2\n      swap1\n      dup2\n      dup2\n      mstore\n      0x20\n      add\n      dup4\n      dup4\n      dup1\n      dup3\n      dup5\n      calldatacopy\n      0x00\n      dup2\n      dup5\n      add\n      mstore\n      not(0x1f)\n      0x1f\n      dup3\n      add\n      and\n      swap1\n      pop\n      dup1\n      dup4\n      add\n      swap3\n      pop\n      pop\n      pop\n      pop\n      pop\n      pop\n      pop\n      swap1\n      pop\n        /* \"contracts/program/TimeLock.sol\":3395:3555  if (bytes(_func).length > 0) {... */\n    tag_95:\n        /* \"contracts/program/TimeLock.sol\":3591:3598  bool ok */\n      0x00\n        /* \"contracts/program/TimeLock.sol\":3600:3616  bytes memory res */\n      0x00\n        /* \"contracts/program/TimeLock.sol\":3620:3627  _target */\n      dup12\n        /* \"contracts/program/TimeLock.sol\":3620:3632  _target.call */\n      0xffffffffffffffffffffffffffffffffffffffff\n      and\n        /* \"contracts/program/TimeLock.sol\":3640:3646  _value */\n      dup12\n        /* \"contracts/program/TimeLock.sol\":3648:3652  data */\n      dup5\n        /* \"contracts/program/TimeLock.sol\":3620:3653  _target.call{value: _value}(data) */\n      mload(0x40)\n      tag_96\n      swap2\n      swap1\n      tag_97\n      jump\t// in\n    tag_96:\n      0x00\n      mload(0x40)\n      dup1\n      dup4\n      sub\n      dup2\n      dup6\n      dup8\n      gas\n      call\n      swap3\n      pop\n      pop\n      pop\n      returndatasize\n      dup1\n      0x00\n      dup2\n      eq\n      tag_100\n      jumpi\n      mload(0x40)\n      swap2\n      pop\n      and(add(returndatasize, 0x3f), not(0x1f))\n      dup3\n      add\n      0x40\n      mstore\n      returndatasize\n      dup3\n      mstore\n      returndatasize\n      0x00\n      0x20\n      dup5\n      add\n      returndatacopy\n      jump(tag_99)\n    tag_100:\n      0x60\n      swap2\n      pop\n    tag_99:\n      pop\n        /* \"contracts/program/TimeLock.sol\":3590:3653  (bool ok, bytes memory res) = _target.call{value: _value}(data) */\n      swap2\n      pop\n      swap2\n      pop\n        /* \"contracts/program/TimeLock.sol\":3668:3670  ok */\n      dup2\n        /* \"contracts/program/TimeLock.sol\":3663:3719  if (!ok) {... */\n      tag_101\n      jumpi\n        /* \"contracts/program/TimeLock.sol\":3693:3708  TxFailedError() */\n      mload(0x40)\n      0xd9b4f81e00000000000000000000000000000000000000000000000000000000\n      dup2\n      mstore\n      0x04\n      add\n      mload(0x40)\n      dup1\n      swap2\n      sub\n      swap1\n      revert\n        /* \"contracts/program/TimeLock.sol\":3663:3719  if (!ok) {... */\n    tag_101:\n        /* \"contracts/program/TimeLock.sol\":3747:3754  _target */\n      dup12\n        /* \"contracts/program/TimeLock.sol\":3733:3789  Execute(txId, _target, _value, _func, _data, _timestamp) */\n      0xffffffffffffffffffffffffffffffffffffffff\n      and\n        /* \"contracts/program/TimeLock.sol\":3741:3745  txId */\n      dup5\n        /* \"contracts/program/TimeLock.sol\":3733:3789  Execute(txId, _target, _value, _func, _data, _timestamp) */\n      0xd1d5c3c892c18716bd88852091d1b63dc6849e9d7c37f69d566884bf954d4bd9\n        /* \"contracts/program/TimeLock.sol\":3756:3762  _value */\n      dup14\n        /* \"contracts/program/TimeLock.sol\":3764:3769  _func */\n      dup14\n      dup14\n        /* \"contracts/program/TimeLock.sol\":3771:3776  _data */\n      dup14\n      dup14\n        /* \"contracts/program/TimeLock.sol\":3778:3788  _timestamp */\n      dup14\n        /* \"contracts/program/TimeLock.sol\":3733:3789  Execute(txId, _target, _value, _func, _data, _timestamp) */\n      mload(0x40)\n      tag_102\n      swap7\n      swap6\n      swap5\n      swap4\n      swap3\n      swap2\n      swap1\n      tag_74\n      jump\t// in\n    tag_102:\n      mload(0x40)\n      dup1\n      swap2\n      sub\n      swap1\n      log3\n        /* \"contracts/program/TimeLock.sol\":3806:3809  res */\n      dup1\n        /* \"contracts/program/TimeLock.sol\":3799:3809  return res */\n      swap5\n      pop\n      pop\n      pop\n      pop\n      pop\n        /* \"contracts/program/TimeLock.sol\":2441:3816  function execute(... */\n      swap8\n      swap7\n      pop\n      pop\n      pop\n      pop\n      pop\n      pop\n      pop\n      jump\t// out\n        /* \"contracts/program/TimeLock.sol\":1018:1061  uint256 public constant GRACE_PERIOD = 1000 */\n    tag_54:\n        /* \"contracts/program/TimeLock.sol\":1057:1061  1000 */\n      0x03e8\n        /* \"contracts/program/TimeLock.sol\":1018:1061  uint256 public constant GRACE_PERIOD = 1000 */\n      dup2\n      jump\t// out\n        /* \"contracts/program/TimeLock.sol\":3822:4020  function cancel(bytes32 _txId) external onlyOwner {... */\n    tag_59:\n        /* \"contracts/program/TimeLock.sol\":1296:1301  owner */\n      0x00\n      0x00\n      swap1\n      sload\n      swap1\n      0x0100\n      exp\n      swap1\n      div\n      0xffffffffffffffffffffffffffffffffffffffff\n      and\n        /* \"contracts/program/TimeLock.sol\":1282:1301  msg.sender != owner */\n      0xffffffffffffffffffffffffffffffffffffffff\n      and\n        /* \"contracts/program/TimeLock.sol\":1282:1292  msg.sender */\n      caller\n        /* \"contracts/program/TimeLock.sol\":1282:1301  msg.sender != owner */\n      0xffffffffffffffffffffffffffffffffffffffff\n      and\n      eq\n        /* \"contracts/program/TimeLock.sol\":1278:1350  if (msg.sender != owner) {... */\n      tag_104\n      jumpi\n        /* \"contracts/program/TimeLock.sol\":1324:1339  NotOwnerError() */\n      mload(0x40)\n      0x74a2152700000000000000000000000000000000000000000000000000000000\n      dup2\n      mstore\n      0x04\n      add\n      mload(0x40)\n      dup1\n      swap2\n      sub\n      swap1\n      revert\n        /* \"contracts/program/TimeLock.sol\":1278:1350  if (msg.sender != owner) {... */\n    tag_104:\n        /* \"contracts/program/TimeLock.sol\":3887:3893  queued */\n      0x01\n        /* \"contracts/program/TimeLock.sol\":3887:3900  queued[_txId] */\n      0x00\n        /* \"contracts/program/TimeLock.sol\":3894:3899  _txId */\n      dup3\n        /* \"contracts/program/TimeLock.sol\":3887:3900  queued[_txId] */\n      dup2\n      mstore\n      0x20\n      add\n      swap1\n      dup2\n      mstore\n      0x20\n      add\n      0x00\n      keccak256\n      0x00\n      swap1\n      sload\n      swap1\n      0x0100\n      exp\n      swap1\n      div\n      0xff\n      and\n        /* \"contracts/program/TimeLock.sol\":3882:3955  if (!queued[_txId]) {... */\n      tag_106\n      jumpi\n        /* \"contracts/program/TimeLock.sol\":3938:3943  _txId */\n      dup1\n        /* \"contracts/program/TimeLock.sol\":3923:3944  NotQueuedError(_txId) */\n      mload(0x40)\n      0x0995c9d500000000000000000000000000000000000000000000000000000000\n      dup2\n      mstore\n      0x04\n      add\n      tag_107\n      swap2\n      swap1\n      tag_37\n      jump\t// in\n    tag_107:\n      mload(0x40)\n      dup1\n      swap2\n      sub\n      swap1\n      revert\n        /* \"contracts/program/TimeLock.sol\":3882:3955  if (!queued[_txId]) {... */\n    tag_106:\n        /* \"contracts/program/TimeLock.sol\":3980:3985  false */\n      0x00\n        /* \"contracts/program/TimeLock.sol\":3964:3970  queued */\n      0x01\n        /* \"contracts/program/TimeLock.sol\":3964:3977  queued[_txId] */\n      0x00\n        /* \"contracts/program/TimeLock.sol\":3971:3976  _txId */\n      dup4\n        /* \"contracts/program/TimeLock.sol\":3964:3977  queued[_txId] */\n      dup2\n      mstore\n      0x20\n      add\n      swap1\n      dup2\n      mstore\n      0x20\n      add\n      0x00\n      keccak256\n      0x00\n        /* \"contracts/program/TimeLock.sol\":3964:3985  queued[_txId] = false */\n      0x0100\n      exp\n      dup2\n      sload\n      dup2\n      0xff\n      mul\n      not\n      and\n      swap1\n      dup4\n      iszero\n      iszero\n      mul\n      or\n      swap1\n      sstore\n      pop\n        /* \"contracts/program/TimeLock.sol\":4007:4012  _txId */\n      dup1\n        /* \"contracts/program/TimeLock.sol\":4000:4013  Cancel(_txId) */\n      0xe8d9861dbc9c663ed3accd261bbe2fe01e0d3d9e5f51fa38523b265c7757a93a\n      mload(0x40)\n      mload(0x40)\n      dup1\n      swap2\n      sub\n      swap1\n      log2\n        /* \"contracts/program/TimeLock.sol\":3822:4020  function cancel(bytes32 _txId) external onlyOwner {... */\n      pop\n      jump\t// out\n        /* \"#utility.yul\":88:205   */\n    tag_109:\n        /* \"#utility.yul\":197:198   */\n      0x00\n        /* \"#utility.yul\":194:195   */\n      0x00\n        /* \"#utility.yul\":187:199   */\n      revert\n        /* \"#utility.yul\":211:328   */\n    tag_110:\n        /* \"#utility.yul\":320:321   */\n      0x00\n        /* \"#utility.yul\":317:318   */\n      0x00\n        /* \"#utility.yul\":310:322   */\n      revert\n        /* \"#utility.yul\":334:411   */\n    tag_111:\n        /* \"#utility.yul\":371:378   */\n      0x00\n        /* \"#utility.yul\":400:405   */\n      dup2\n        /* \"#utility.yul\":389:405   */\n      swap1\n      pop\n        /* \"#utility.yul\":334:411   */\n      swap2\n      swap1\n      pop\n      jump\t// out\n        /* \"#utility.yul\":417:539   */\n    tag_112:\n        /* \"#utility.yul\":490:514   */\n      tag_153\n        /* \"#utility.yul\":508:513   */\n      dup2\n        /* \"#utility.yul\":490:514   */\n      tag_111\n      jump\t// in\n    tag_153:\n        /* \"#utility.yul\":483:488   */\n      dup2\n        /* \"#utility.yul\":480:515   */\n      eq\n        /* \"#utility.yul\":470:533   */\n      tag_154\n      jumpi\n        /* \"#utility.yul\":529:530   */\n      0x00\n        /* \"#utility.yul\":526:527   */\n      0x00\n        /* \"#utility.yul\":519:531   */\n      revert\n        /* \"#utility.yul\":470:533   */\n    tag_154:\n        /* \"#utility.yul\":417:539   */\n      pop\n      jump\t// out\n        /* \"#utility.yul\":545:684   */\n    tag_113:\n        /* \"#utility.yul\":591:596   */\n      0x00\n        /* \"#utility.yul\":629:635   */\n      dup2\n        /* \"#utility.yul\":616:636   */\n      calldataload\n        /* \"#utility.yul\":607:636   */\n      swap1\n      pop\n        /* \"#utility.yul\":645:678   */\n      tag_156\n        /* \"#utility.yul\":672:677   */\n      dup2\n        /* \"#utility.yul\":645:678   */\n      tag_112\n      jump\t// in\n    tag_156:\n        /* \"#utility.yul\":545:684   */\n      swap3\n      swap2\n      pop\n      pop\n      jump\t// out\n        /* \"#utility.yul\":690:1019   */\n    tag_18:\n        /* \"#utility.yul\":749:755   */\n      0x00\n        /* \"#utility.yul\":798:800   */\n      0x20\n        /* \"#utility.yul\":786:795   */\n      dup3\n        /* \"#utility.yul\":777:784   */\n      dup5\n        /* \"#utility.yul\":773:796   */\n      sub\n        /* \"#utility.yul\":769:801   */\n      slt\n        /* \"#utility.yul\":766:885   */\n      iszero\n      tag_158\n      jumpi\n        /* \"#utility.yul\":804:883   */\n      tag_159\n      tag_109\n      jump\t// in\n    tag_159:\n        /* \"#utility.yul\":766:885   */\n    tag_158:\n        /* \"#utility.yul\":924:925   */\n      0x00\n        /* \"#utility.yul\":949:1002   */\n      tag_160\n        /* \"#utility.yul\":994:1001   */\n      dup5\n        /* \"#utility.yul\":985:991   */\n      dup3\n        /* \"#utility.yul\":974:983   */\n      dup6\n        /* \"#utility.yul\":970:992   */\n      add\n        /* \"#utility.yul\":949:1002   */\n      tag_113\n      jump\t// in\n    tag_160:\n        /* \"#utility.yul\":939:1002   */\n      swap2\n      pop\n        /* \"#utility.yul\":895:1012   */\n      pop\n        /* \"#utility.yul\":690:1019   */\n      swap3\n      swap2\n      pop\n      pop\n      jump\t// out\n        /* \"#utility.yul\":1025:1115   */\n    tag_114:\n        /* \"#utility.yul\":1059:1066   */\n      0x00\n        /* \"#utility.yul\":1102:1107   */\n      dup2\n        /* \"#utility.yul\":1095:1108   */\n      iszero\n        /* \"#utility.yul\":1088:1109   */\n      iszero\n        /* \"#utility.yul\":1077:1109   */\n      swap1\n      pop\n        /* \"#utility.yul\":1025:1115   */\n      swap2\n      swap1\n      pop\n      jump\t// out\n        /* \"#utility.yul\":1121:1230   */\n    tag_115:\n        /* \"#utility.yul\":1202:1223   */\n      tag_163\n        /* \"#utility.yul\":1217:1222   */\n      dup2\n        /* \"#utility.yul\":1202:1223   */\n      tag_114\n      jump\t// in\n    tag_163:\n        /* \"#utility.yul\":1197:1200   */\n      dup3\n        /* \"#utility.yul\":1190:1224   */\n      mstore\n        /* \"#utility.yul\":1121:1230   */\n      pop\n      pop\n      jump\t// out\n        /* \"#utility.yul\":1236:1446   */\n    tag_21:\n        /* \"#utility.yul\":1323:1327   */\n      0x00\n        /* \"#utility.yul\":1361:1363   */\n      0x20\n        /* \"#utility.yul\":1350:1359   */\n      dup3\n        /* \"#utility.yul\":1346:1364   */\n      add\n        /* \"#utility.yul\":1338:1364   */\n      swap1\n      pop\n        /* \"#utility.yul\":1374:1439   */\n      tag_165\n        /* \"#utility.yul\":1436:1437   */\n      0x00\n        /* \"#utility.yul\":1425:1434   */\n      dup4\n        /* \"#utility.yul\":1421:1438   */\n      add\n        /* \"#utility.yul\":1412:1418   */\n      dup5\n        /* \"#utility.yul\":1374:1439   */\n      tag_115\n      jump\t// in\n    tag_165:\n        /* \"#utility.yul\":1236:1446   */\n      swap3\n      swap2\n      pop\n      pop\n      jump\t// out\n        /* \"#utility.yul\":1452:1529   */\n    tag_116:\n        /* \"#utility.yul\":1489:1496   */\n      0x00\n        /* \"#utility.yul\":1518:1523   */\n      dup2\n        /* \"#utility.yul\":1507:1523   */\n      swap1\n      pop\n        /* \"#utility.yul\":1452:1529   */\n      swap2\n      swap1\n      pop\n      jump\t// out\n        /* \"#utility.yul\":1535:1653   */\n    tag_117:\n        /* \"#utility.yul\":1622:1646   */\n      tag_168\n        /* \"#utility.yul\":1640:1645   */\n      dup2\n        /* \"#utility.yul\":1622:1646   */\n      tag_116\n      jump\t// in\n    tag_168:\n        /* \"#utility.yul\":1617:1620   */\n      dup3\n        /* \"#utility.yul\":1610:1647   */\n      mstore\n        /* \"#utility.yul\":1535:1653   */\n      pop\n      pop\n      jump\t// out\n        /* \"#utility.yul\":1659:1881   */\n    tag_26:\n        /* \"#utility.yul\":1752:1756   */\n      0x00\n        /* \"#utility.yul\":1790:1792   */\n      0x20\n        /* \"#utility.yul\":1779:1788   */\n      dup3\n        /* \"#utility.yul\":1775:1793   */\n      add\n        /* \"#utility.yul\":1767:1793   */\n      swap1\n      pop\n        /* \"#utility.yul\":1803:1874   */\n      tag_170\n        /* \"#utility.yul\":1871:1872   */\n      0x00\n        /* \"#utility.yul\":1860:1869   */\n      dup4\n        /* \"#utility.yul\":1856:1873   */\n      add\n        /* \"#utility.yul\":1847:1853   */\n      dup5\n        /* \"#utility.yul\":1803:1874   */\n      tag_117\n      jump\t// in\n    tag_170:\n        /* \"#utility.yul\":1659:1881   */\n      swap3\n      swap2\n      pop\n      pop\n      jump\t// out\n        /* \"#utility.yul\":1887:2013   */\n    tag_118:\n        /* \"#utility.yul\":1924:1931   */\n      0x00\n        /* \"#utility.yul\":1964:2006   */\n      0xffffffffffffffffffffffffffffffffffffffff\n        /* \"#utility.yul\":1957:1962   */\n      dup3\n        /* \"#utility.yul\":1953:2007   */\n      and\n        /* \"#utility.yul\":1942:2007   */\n      swap1\n      pop\n        /* \"#utility.yul\":1887:2013   */\n      swap2\n      swap1\n      pop\n      jump\t// out\n        /* \"#utility.yul\":2019:2115   */\n    tag_119:\n        /* \"#utility.yul\":2056:2063   */\n      0x00\n        /* \"#utility.yul\":2085:2109   */\n      tag_173\n        /* \"#utility.yul\":2103:2108   */\n      dup3\n        /* \"#utility.yul\":2085:2109   */\n      tag_118\n      jump\t// in\n    tag_173:\n        /* \"#utility.yul\":2074:2109   */\n      swap1\n      pop\n        /* \"#utility.yul\":2019:2115   */\n      swap2\n      swap1\n      pop\n      jump\t// out\n        /* \"#utility.yul\":2121:2243   */\n    tag_120:\n        /* \"#utility.yul\":2194:2218   */\n      tag_175\n        /* \"#utility.yul\":2212:2217   */\n      dup2\n        /* \"#utility.yul\":2194:2218   */\n      tag_119\n      jump\t// in\n    tag_175:\n        /* \"#utility.yul\":2187:2192   */\n      dup2\n        /* \"#utility.yul\":2184:2219   */\n      eq\n        /* \"#utility.yul\":2174:2237   */\n      tag_176\n      jumpi\n        /* \"#utility.yul\":2233:2234   */\n      0x00\n        /* \"#utility.yul\":2230:2231   */\n      0x00\n        /* \"#utility.yul\":2223:2235   */\n      revert\n        /* \"#utility.yul\":2174:2237   */\n    tag_176:\n        /* \"#utility.yul\":2121:2243   */\n      pop\n      jump\t// out\n        /* \"#utility.yul\":2249:2388   */\n    tag_121:\n        /* \"#utility.yul\":2295:2300   */\n      0x00\n        /* \"#utility.yul\":2333:2339   */\n      dup2\n        /* \"#utility.yul\":2320:2340   */\n      calldataload\n        /* \"#utility.yul\":2311:2340   */\n      swap1\n      pop\n        /* \"#utility.yul\":2349:2382   */\n      tag_178\n        /* \"#utility.yul\":2376:2381   */\n      dup2\n        /* \"#utility.yul\":2349:2382   */\n      tag_120\n      jump\t// in\n    tag_178:\n        /* \"#utility.yul\":2249:2388   */\n      swap3\n      swap2\n      pop\n      pop\n      jump\t// out\n        /* \"#utility.yul\":2394:2516   */\n    tag_122:\n        /* \"#utility.yul\":2467:2491   */\n      tag_180\n        /* \"#utility.yul\":2485:2490   */\n      dup2\n        /* \"#utility.yul\":2467:2491   */\n      tag_116\n      jump\t// in\n    tag_180:\n        /* \"#utility.yul\":2460:2465   */\n      dup2\n        /* \"#utility.yul\":2457:2492   */\n      eq\n        /* \"#utility.yul\":2447:2510   */\n      tag_181\n      jumpi\n        /* \"#utility.yul\":2506:2507   */\n      0x00\n        /* \"#utility.yul\":2503:2504   */\n      0x00\n        /* \"#utility.yul\":2496:2508   */\n      revert\n        /* \"#utility.yul\":2447:2510   */\n    tag_181:\n        /* \"#utility.yul\":2394:2516   */\n      pop\n      jump\t// out\n        /* \"#utility.yul\":2522:2661   */\n    tag_123:\n        /* \"#utility.yul\":2568:2573   */\n      0x00\n        /* \"#utility.yul\":2606:2612   */\n      dup2\n        /* \"#utility.yul\":2593:2613   */\n      calldataload\n        /* \"#utility.yul\":2584:2613   */\n      swap1\n      pop\n        /* \"#utility.yul\":2622:2655   */\n      tag_183\n        /* \"#utility.yul\":2649:2654   */\n      dup2\n        /* \"#utility.yul\":2622:2655   */\n      tag_122\n      jump\t// in\n    tag_183:\n        /* \"#utility.yul\":2522:2661   */\n      swap3\n      swap2\n      pop\n      pop\n      jump\t// out\n        /* \"#utility.yul\":2667:2784   */\n    tag_124:\n        /* \"#utility.yul\":2776:2777   */\n      0x00\n        /* \"#utility.yul\":2773:2774   */\n      0x00\n        /* \"#utility.yul\":2766:2778   */\n      revert\n        /* \"#utility.yul\":2790:2907   */\n    tag_125:\n        /* \"#utility.yul\":2899:2900   */\n      0x00\n        /* \"#utility.yul\":2896:2897   */\n      0x00\n        /* \"#utility.yul\":2889:2901   */\n      revert\n        /* \"#utility.yul\":2913:3030   */\n    tag_126:\n        /* \"#utility.yul\":3022:3023   */\n      0x00\n        /* \"#utility.yul\":3019:3020   */\n      0x00\n        /* \"#utility.yul\":3012:3024   */\n      revert\n        /* \"#utility.yul\":3050:3603   */\n    tag_127:\n        /* \"#utility.yul\":3108:3116   */\n      0x00\n        /* \"#utility.yul\":3118:3124   */\n      0x00\n        /* \"#utility.yul\":3168:3171   */\n      dup4\n        /* \"#utility.yul\":3161:3165   */\n      0x1f\n        /* \"#utility.yul\":3153:3159   */\n      dup5\n        /* \"#utility.yul\":3149:3166   */\n      add\n        /* \"#utility.yul\":3145:3172   */\n      slt\n        /* \"#utility.yul\":3135:3257   */\n      tag_188\n      jumpi\n        /* \"#utility.yul\":3176:3255   */\n      tag_189\n      tag_124\n      jump\t// in\n    tag_189:\n        /* \"#utility.yul\":3135:3257   */\n    tag_188:\n        /* \"#utility.yul\":3289:3295   */\n      dup3\n        /* \"#utility.yul\":3276:3296   */\n      calldataload\n        /* \"#utility.yul\":3266:3296   */\n      swap1\n      pop\n        /* \"#utility.yul\":3319:3337   */\n      0xffffffffffffffff\n        /* \"#utility.yul\":3311:3317   */\n      dup2\n        /* \"#utility.yul\":3308:3338   */\n      gt\n        /* \"#utility.yul\":3305:3422   */\n      iszero\n      tag_190\n      jumpi\n        /* \"#utility.yul\":3341:3420   */\n      tag_191\n      tag_125\n      jump\t// in\n    tag_191:\n        /* \"#utility.yul\":3305:3422   */\n    tag_190:\n        /* \"#utility.yul\":3455:3459   */\n      0x20\n        /* \"#utility.yul\":3447:3453   */\n      dup4\n        /* \"#utility.yul\":3443:3460   */\n      add\n        /* \"#utility.yul\":3431:3460   */\n      swap2\n      pop\n        /* \"#utility.yul\":3509:3512   */\n      dup4\n        /* \"#utility.yul\":3501:3505   */\n      0x01\n        /* \"#utility.yul\":3493:3499   */\n      dup3\n        /* \"#utility.yul\":3489:3506   */\n      mul\n        /* \"#utility.yul\":3479:3487   */\n      dup4\n        /* \"#utility.yul\":3475:3507   */\n      add\n        /* \"#utility.yul\":3472:3513   */\n      gt\n        /* \"#utility.yul\":3469:3597   */\n      iszero\n      tag_192\n      jumpi\n        /* \"#utility.yul\":3516:3595   */\n      tag_193\n      tag_126\n      jump\t// in\n    tag_193:\n        /* \"#utility.yul\":3469:3597   */\n    tag_192:\n        /* \"#utility.yul\":3050:3603   */\n      swap3\n      pop\n      swap3\n      swap1\n      pop\n      jump\t// out\n        /* \"#utility.yul\":3622:4174   */\n    tag_128:\n        /* \"#utility.yul\":3679:3687   */\n      0x00\n        /* \"#utility.yul\":3689:3695   */\n      0x00\n        /* \"#utility.yul\":3739:3742   */\n      dup4\n        /* \"#utility.yul\":3732:3736   */\n      0x1f\n        /* \"#utility.yul\":3724:3730   */\n      dup5\n        /* \"#utility.yul\":3720:3737   */\n      add\n        /* \"#utility.yul\":3716:3743   */\n      slt\n        /* \"#utility.yul\":3706:3828   */\n      tag_195\n      jumpi\n        /* \"#utility.yul\":3747:3826   */\n      tag_196\n      tag_124\n      jump\t// in\n    tag_196:\n        /* \"#utility.yul\":3706:3828   */\n    tag_195:\n        /* \"#utility.yul\":3860:3866   */\n      dup3\n        /* \"#utility.yul\":3847:3867   */\n      calldataload\n        /* \"#utility.yul\":3837:3867   */\n      swap1\n      pop\n        /* \"#utility.yul\":3890:3908   */\n      0xffffffffffffffff\n        /* \"#utility.yul\":3882:3888   */\n      dup2\n        /* \"#utility.yul\":3879:3909   */\n      gt\n        /* \"#utility.yul\":3876:3993   */\n      iszero\n      tag_197\n      jumpi\n        /* \"#utility.yul\":3912:3991   */\n      tag_198\n      tag_125\n      jump\t// in\n    tag_198:\n        /* \"#utility.yul\":3876:3993   */\n    tag_197:\n        /* \"#utility.yul\":4026:4030   */\n      0x20\n        /* \"#utility.yul\":4018:4024   */\n      dup4\n        /* \"#utility.yul\":4014:4031   */\n      add\n        /* \"#utility.yul\":4002:4031   */\n      swap2\n      pop\n        /* \"#utility.yul\":4080:4083   */\n      dup4\n        /* \"#utility.yul\":4072:4076   */\n      0x01\n        /* \"#utility.yul\":4064:4070   */\n      dup3\n        /* \"#utility.yul\":4060:4077   */\n      mul\n        /* \"#utility.yul\":4050:4058   */\n      dup4\n        /* \"#utility.yul\":4046:4078   */\n      add\n        /* \"#utility.yul\":4043:4084   */\n      gt\n        /* \"#utility.yul\":4040:4168   */\n      iszero\n      tag_199\n      jumpi\n        /* \"#utility.yul\":4087:4166   */\n      tag_200\n      tag_126\n      jump\t// in\n    tag_200:\n        /* \"#utility.yul\":4040:4168   */\n    tag_199:\n        /* \"#utility.yul\":3622:4174   */\n      swap3\n      pop\n      swap3\n      swap1\n      pop\n      jump\t// out\n        /* \"#utility.yul\":4180:5489   */\n    tag_30:\n        /* \"#utility.yul\":4298:4304   */\n      0x00\n        /* \"#utility.yul\":4306:4312   */\n      0x00\n        /* \"#utility.yul\":4314:4320   */\n      0x00\n        /* \"#utility.yul\":4322:4328   */\n      0x00\n        /* \"#utility.yul\":4330:4336   */\n      0x00\n        /* \"#utility.yul\":4338:4344   */\n      0x00\n        /* \"#utility.yul\":4346:4352   */\n      0x00\n        /* \"#utility.yul\":4395:4398   */\n      0xa0\n        /* \"#utility.yul\":4383:4392   */\n      dup9\n        /* \"#utility.yul\":4374:4381   */\n      dup11\n        /* \"#utility.yul\":4370:4393   */\n      sub\n        /* \"#utility.yul\":4366:4399   */\n      slt\n        /* \"#utility.yul\":4363:4483   */\n      iszero\n      tag_202\n      jumpi\n        /* \"#utility.yul\":4402:4481   */\n      tag_203\n      tag_109\n      jump\t// in\n    tag_203:\n        /* \"#utility.yul\":4363:4483   */\n    tag_202:\n        /* \"#utility.yul\":4522:4523   */\n      0x00\n        /* \"#utility.yul\":4547:4600   */\n      tag_204\n        /* \"#utility.yul\":4592:4599   */\n      dup11\n        /* \"#utility.yul\":4583:4589   */\n      dup3\n        /* \"#utility.yul\":4572:4581   */\n      dup12\n        /* \"#utility.yul\":4568:4590   */\n      add\n        /* \"#utility.yul\":4547:4600   */\n      tag_121\n      jump\t// in\n    tag_204:\n        /* \"#utility.yul\":4537:4600   */\n      swap8\n      pop\n        /* \"#utility.yul\":4493:4610   */\n      pop\n        /* \"#utility.yul\":4649:4651   */\n      0x20\n        /* \"#utility.yul\":4675:4728   */\n      tag_205\n        /* \"#utility.yul\":4720:4727   */\n      dup11\n        /* \"#utility.yul\":4711:4717   */\n      dup3\n        /* \"#utility.yul\":4700:4709   */\n      dup12\n        /* \"#utility.yul\":4696:4718   */\n      add\n        /* \"#utility.yul\":4675:4728   */\n      tag_123\n      jump\t// in\n    tag_205:\n        /* \"#utility.yul\":4665:4728   */\n      swap7\n      pop\n        /* \"#utility.yul\":4620:4738   */\n      pop\n        /* \"#utility.yul\":4805:4807   */\n      0x40\n        /* \"#utility.yul\":4794:4803   */\n      dup9\n        /* \"#utility.yul\":4790:4808   */\n      add\n        /* \"#utility.yul\":4777:4809   */\n      calldataload\n        /* \"#utility.yul\":4836:4854   */\n      0xffffffffffffffff\n        /* \"#utility.yul\":4828:4834   */\n      dup2\n        /* \"#utility.yul\":4825:4855   */\n      gt\n        /* \"#utility.yul\":4822:4939   */\n      iszero\n      tag_206\n      jumpi\n        /* \"#utility.yul\":4858:4937   */\n      tag_207\n      tag_110\n      jump\t// in\n    tag_207:\n        /* \"#utility.yul\":4822:4939   */\n    tag_206:\n        /* \"#utility.yul\":4971:5036   */\n      tag_208\n        /* \"#utility.yul\":5028:5035   */\n      dup11\n        /* \"#utility.yul\":5019:5025   */\n      dup3\n        /* \"#utility.yul\":5008:5017   */\n      dup12\n        /* \"#utility.yul\":5004:5026   */\n      add\n        /* \"#utility.yul\":4971:5036   */\n      tag_127\n      jump\t// in\n    tag_208:\n        /* \"#utility.yul\":4953:5036   */\n      swap6\n      pop\n      swap6\n      pop\n        /* \"#utility.yul\":4748:5046   */\n      pop\n        /* \"#utility.yul\":5113:5115   */\n      0x60\n        /* \"#utility.yul\":5102:5111   */\n      dup9\n        /* \"#utility.yul\":5098:5116   */\n      add\n        /* \"#utility.yul\":5085:5117   */\n      calldataload\n        /* \"#utility.yul\":5144:5162   */\n      0xffffffffffffffff\n        /* \"#utility.yul\":5136:5142   */\n      dup2\n        /* \"#utility.yul\":5133:5163   */\n      gt\n        /* \"#utility.yul\":5130:5247   */\n      iszero\n      tag_209\n      jumpi\n        /* \"#utility.yul\":5166:5245   */\n      tag_210\n      tag_110\n      jump\t// in\n    tag_210:\n        /* \"#utility.yul\":5130:5247   */\n    tag_209:\n        /* \"#utility.yul\":5279:5343   */\n      tag_211\n        /* \"#utility.yul\":5335:5342   */\n      dup11\n        /* \"#utility.yul\":5326:5332   */\n      dup3\n        /* \"#utility.yul\":5315:5324   */\n      dup12\n        /* \"#utility.yul\":5311:5333   */\n      add\n        /* \"#utility.yul\":5279:5343   */\n      tag_128\n      jump\t// in\n    tag_211:\n        /* \"#utility.yul\":5261:5343   */\n      swap4\n      pop\n      swap4\n      pop\n        /* \"#utility.yul\":5056:5353   */\n      pop\n        /* \"#utility.yul\":5392:5395   */\n      0x80\n        /* \"#utility.yul\":5419:5472   */\n      tag_212\n        /* \"#utility.yul\":5464:5471   */\n      dup11\n        /* \"#utility.yul\":5455:5461   */\n      dup3\n        /* \"#utility.yul\":5444:5453   */\n      dup12\n        /* \"#utility.yul\":5440:5462   */\n      add\n        /* \"#utility.yul\":5419:5472   */\n      tag_123\n      jump\t// in\n    tag_212:\n        /* \"#utility.yul\":5409:5472   */\n      swap2\n      pop\n        /* \"#utility.yul\":5363:5482   */\n      pop\n        /* \"#utility.yul\":4180:5489   */\n      swap3\n      swap6\n      swap9\n      swap2\n      swap5\n      swap8\n      pop\n      swap3\n      swap6\n      pop\n      jump\t// out\n        /* \"#utility.yul\":5495:5613   */\n    tag_129:\n        /* \"#utility.yul\":5582:5606   */\n      tag_214\n        /* \"#utility.yul\":5600:5605   */\n      dup2\n        /* \"#utility.yul\":5582:5606   */\n      tag_111\n      jump\t// in\n    tag_214:\n        /* \"#utility.yul\":5577:5580   */\n      dup3\n        /* \"#utility.yul\":5570:5607   */\n      mstore\n        /* \"#utility.yul\":5495:5613   */\n      pop\n      pop\n      jump\t// out\n        /* \"#utility.yul\":5619:5841   */\n    tag_37:\n        /* \"#utility.yul\":5712:5716   */\n      0x00\n        /* \"#utility.yul\":5750:5752   */\n      0x20\n        /* \"#utility.yul\":5739:5748   */\n      dup3\n        /* \"#utility.yul\":5735:5753   */\n      add\n        /* \"#utility.yul\":5727:5753   */\n      swap1\n      pop\n        /* \"#utility.yul\":5763:5834   */\n      tag_216\n        /* \"#utility.yul\":5831:5832   */\n      0x00\n        /* \"#utility.yul\":5820:5829   */\n      dup4\n        /* \"#utility.yul\":5816:5833   */\n      add\n        /* \"#utility.yul\":5807:5813   */\n      dup5\n        /* \"#utility.yul\":5763:5834   */\n      tag_129\n      jump\t// in\n    tag_216:\n        /* \"#utility.yul\":5619:5841   */\n      swap3\n      swap2\n      pop\n      pop\n      jump\t// out\n        /* \"#utility.yul\":5847:5965   */\n    tag_130:\n        /* \"#utility.yul\":5934:5958   */\n      tag_218\n        /* \"#utility.yul\":5952:5957   */\n      dup2\n        /* \"#utility.yul\":5934:5958   */\n      tag_119\n      jump\t// in\n    tag_218:\n        /* \"#utility.yul\":5929:5932   */\n      dup3\n        /* \"#utility.yul\":5922:5959   */\n      mstore\n        /* \"#utility.yul\":5847:5965   */\n      pop\n      pop\n      jump\t// out\n        /* \"#utility.yul\":5971:6193   */\n    tag_42:\n        /* \"#utility.yul\":6064:6068   */\n      0x00\n        /* \"#utility.yul\":6102:6104   */\n      0x20\n        /* \"#utility.yul\":6091:6100   */\n      dup3\n        /* \"#utility.yul\":6087:6105   */\n      add\n        /* \"#utility.yul\":6079:6105   */\n      swap1\n      pop\n        /* \"#utility.yul\":6115:6186   */\n      tag_220\n        /* \"#utility.yul\":6183:6184   */\n      0x00\n        /* \"#utility.yul\":6172:6181   */\n      dup4\n        /* \"#utility.yul\":6168:6185   */\n      add\n        /* \"#utility.yul\":6159:6165   */\n      dup5\n        /* \"#utility.yul\":6115:6186   */\n      tag_130\n      jump\t// in\n    tag_220:\n        /* \"#utility.yul\":5971:6193   */\n      swap3\n      swap2\n      pop\n      pop\n      jump\t// out\n        /* \"#utility.yul\":6199:6297   */\n    tag_131:\n        /* \"#utility.yul\":6250:6256   */\n      0x00\n        /* \"#utility.yul\":6284:6289   */\n      dup2\n        /* \"#utility.yul\":6278:6290   */\n      mload\n        /* \"#utility.yul\":6268:6290   */\n      swap1\n      pop\n        /* \"#utility.yul\":6199:6297   */\n      swap2\n      swap1\n      pop\n      jump\t// out\n        /* \"#utility.yul\":6303:6471   */\n    tag_132:\n        /* \"#utility.yul\":6386:6397   */\n      0x00\n        /* \"#utility.yul\":6420:6426   */\n      dup3\n        /* \"#utility.yul\":6415:6418   */\n      dup3\n        /* \"#utility.yul\":6408:6427   */\n      mstore\n        /* \"#utility.yul\":6460:6464   */\n      0x20\n        /* \"#utility.yul\":6455:6458   */\n      dup3\n        /* \"#utility.yul\":6451:6465   */\n      add\n        /* \"#utility.yul\":6436:6465   */\n      swap1\n      pop\n        /* \"#utility.yul\":6303:6471   */\n      swap3\n      swap2\n      pop\n      pop\n      jump\t// out\n        /* \"#utility.yul\":6477:6616   */\n    tag_133:\n        /* \"#utility.yul\":6566:6572   */\n      dup3\n        /* \"#utility.yul\":6561:6564   */\n      dup2\n        /* \"#utility.yul\":6556:6559   */\n      dup4\n        /* \"#utility.yul\":6550:6573   */\n      mcopy\n        /* \"#utility.yul\":6607:6608   */\n      0x00\n        /* \"#utility.yul\":6598:6604   */\n      dup4\n        /* \"#utility.yul\":6593:6596   */\n      dup4\n        /* \"#utility.yul\":6589:6605   */\n      add\n        /* \"#utility.yul\":6582:6609   */\n      mstore\n        /* \"#utility.yul\":6477:6616   */\n      pop\n      pop\n      pop\n      jump\t// out\n        /* \"#utility.yul\":6622:6724   */\n    tag_134:\n        /* \"#utility.yul\":6663:6669   */\n      0x00\n        /* \"#utility.yul\":6714:6716   */\n      0x1f\n        /* \"#utility.yul\":6710:6717   */\n      not\n        /* \"#utility.yul\":6705:6707   */\n      0x1f\n        /* \"#utility.yul\":6698:6703   */\n      dup4\n        /* \"#utility.yul\":6694:6708   */\n      add\n        /* \"#utility.yul\":6690:6718   */\n      and\n        /* \"#utility.yul\":6680:6718   */\n      swap1\n      pop\n        /* \"#utility.yul\":6622:6724   */\n      swap2\n      swap1\n      pop\n      jump\t// out\n        /* \"#utility.yul\":6730:7103   */\n    tag_135:\n        /* \"#utility.yul\":6816:6819   */\n      0x00\n        /* \"#utility.yul\":6844:6882   */\n      tag_226\n        /* \"#utility.yul\":6876:6881   */\n      dup3\n        /* \"#utility.yul\":6844:6882   */\n      tag_131\n      jump\t// in\n    tag_226:\n        /* \"#utility.yul\":6898:6968   */\n      tag_227\n        /* \"#utility.yul\":6961:6967   */\n      dup2\n        /* \"#utility.yul\":6956:6959   */\n      dup6\n        /* \"#utility.yul\":6898:6968   */\n      tag_132\n      jump\t// in\n    tag_227:\n        /* \"#utility.yul\":6891:6968   */\n      swap4\n      pop\n        /* \"#utility.yul\":6977:7042   */\n      tag_228\n        /* \"#utility.yul\":7035:7041   */\n      dup2\n        /* \"#utility.yul\":7030:7033   */\n      dup6\n        /* \"#utility.yul\":7023:7027   */\n      0x20\n        /* \"#utility.yul\":7016:7021   */\n      dup7\n        /* \"#utility.yul\":7012:7028   */\n      add\n        /* \"#utility.yul\":6977:7042   */\n      tag_133\n      jump\t// in\n    tag_228:\n        /* \"#utility.yul\":7067:7096   */\n      tag_229\n        /* \"#utility.yul\":7089:7095   */\n      dup2\n        /* \"#utility.yul\":7067:7096   */\n      tag_134\n      jump\t// in\n    tag_229:\n        /* \"#utility.yul\":7062:7065   */\n      dup5\n        /* \"#utility.yul\":7058:7097   */\n      add\n        /* \"#utility.yul\":7051:7097   */\n      swap2\n      pop\n        /* \"#utility.yul\":6820:7103   */\n      pop\n        /* \"#utility.yul\":6730:7103   */\n      swap3\n      swap2\n      pop\n      pop\n      jump\t// out\n        /* \"#utility.yul\":7109:7418   */\n    tag_51:\n        /* \"#utility.yul\":7220:7224   */\n      0x00\n        /* \"#utility.yul\":7258:7260   */\n      0x20\n        /* \"#utility.yul\":7247:7256   */\n      dup3\n        /* \"#utility.yul\":7243:7261   */\n      add\n        /* \"#utility.yul\":7235:7261   */\n      swap1\n      pop\n        /* \"#utility.yul\":7307:7316   */\n      dup2\n        /* \"#utility.yul\":7301:7305   */\n      dup2\n        /* \"#utility.yul\":7297:7317   */\n      sub\n        /* \"#utility.yul\":7293:7294   */\n      0x00\n        /* \"#utility.yul\":7282:7291   */\n      dup4\n        /* \"#utility.yul\":7278:7295   */\n      add\n        /* \"#utility.yul\":7271:7318   */\n      mstore\n        /* \"#utility.yul\":7335:7411   */\n      tag_231\n        /* \"#utility.yul\":7406:7410   */\n      dup2\n        /* \"#utility.yul\":7397:7403   */\n      dup5\n        /* \"#utility.yul\":7335:7411   */\n      tag_135\n      jump\t// in\n    tag_231:\n        /* \"#utility.yul\":7327:7411   */\n      swap1\n      pop\n        /* \"#utility.yul\":7109:7418   */\n      swap3\n      swap2\n      pop\n      pop\n      jump\t// out\n        /* \"#utility.yul\":7424:7604   */\n    tag_136:\n        /* \"#utility.yul\":7472:7549   */\n      0x4e487b7100000000000000000000000000000000000000000000000000000000\n        /* \"#utility.yul\":7469:7470   */\n      0x00\n        /* \"#utility.yul\":7462:7550   */\n      mstore\n        /* \"#utility.yul\":7569:7573   */\n      0x11\n        /* \"#utility.yul\":7566:7567   */\n      0x04\n        /* \"#utility.yul\":7559:7574   */\n      mstore\n        /* \"#utility.yul\":7593:7597   */\n      0x24\n        /* \"#utility.yul\":7590:7591   */\n      0x00\n        /* \"#utility.yul\":7583:7598   */\n      revert\n        /* \"#utility.yul\":7610:7801   */\n    tag_67:\n        /* \"#utility.yul\":7650:7653   */\n      0x00\n        /* \"#utility.yul\":7669:7689   */\n      tag_234\n        /* \"#utility.yul\":7687:7688   */\n      dup3\n        /* \"#utility.yul\":7669:7689   */\n      tag_116\n      jump\t// in\n    tag_234:\n        /* \"#utility.yul\":7664:7689   */\n      swap2\n      pop\n        /* \"#utility.yul\":7703:7723   */\n      tag_235\n        /* \"#utility.yul\":7721:7722   */\n      dup4\n        /* \"#utility.yul\":7703:7723   */\n      tag_116\n      jump\t// in\n    tag_235:\n        /* \"#utility.yul\":7698:7723   */\n      swap3\n      pop\n        /* \"#utility.yul\":7746:7747   */\n      dup3\n        /* \"#utility.yul\":7743:7744   */\n      dup3\n        /* \"#utility.yul\":7739:7748   */\n      add\n        /* \"#utility.yul\":7732:7748   */\n      swap1\n      pop\n        /* \"#utility.yul\":7767:7770   */\n      dup1\n        /* \"#utility.yul\":7764:7765   */\n      dup3\n        /* \"#utility.yul\":7761:7771   */\n      gt\n        /* \"#utility.yul\":7758:7794   */\n      iszero\n      tag_236\n      jumpi\n        /* \"#utility.yul\":7774:7792   */\n      tag_237\n      tag_136\n      jump\t// in\n    tag_237:\n        /* \"#utility.yul\":7758:7794   */\n    tag_236:\n        /* \"#utility.yul\":7610:7801   */\n      swap3\n      swap2\n      pop\n      pop\n      jump\t// out\n        /* \"#utility.yul\":7807:8139   */\n    tag_72:\n        /* \"#utility.yul\":7928:7932   */\n      0x00\n        /* \"#utility.yul\":7966:7968   */\n      0x40\n        /* \"#utility.yul\":7955:7964   */\n      dup3\n        /* \"#utility.yul\":7951:7969   */\n      add\n        /* \"#utility.yul\":7943:7969   */\n      swap1\n      pop\n        /* \"#utility.yul\":7979:8050   */\n      tag_239\n        /* \"#utility.yul\":8047:8048   */\n      0x00\n        /* \"#utility.yul\":8036:8045   */\n      dup4\n        /* \"#utility.yul\":8032:8049   */\n      add\n        /* \"#utility.yul\":8023:8029   */\n      dup6\n        /* \"#utility.yul\":7979:8050   */\n      tag_117\n      jump\t// in\n    tag_239:\n        /* \"#utility.yul\":8060:8132   */\n      tag_240\n        /* \"#utility.yul\":8128:8130   */\n      0x20\n        /* \"#utility.yul\":8117:8126   */\n      dup4\n        /* \"#utility.yul\":8113:8131   */\n      add\n        /* \"#utility.yul\":8104:8110   */\n      dup5\n        /* \"#utility.yul\":8060:8132   */\n      tag_117\n      jump\t// in\n    tag_240:\n        /* \"#utility.yul\":7807:8139   */\n      swap4\n      swap3\n      pop\n      pop\n      pop\n      jump\t// out\n        /* \"#utility.yul\":8145:8314   */\n    tag_137:\n        /* \"#utility.yul\":8229:8240   */\n      0x00\n        /* \"#utility.yul\":8263:8269   */\n      dup3\n        /* \"#utility.yul\":8258:8261   */\n      dup3\n        /* \"#utility.yul\":8251:8270   */\n      mstore\n        /* \"#utility.yul\":8303:8307   */\n      0x20\n        /* \"#utility.yul\":8298:8301   */\n      dup3\n        /* \"#utility.yul\":8294:8308   */\n      add\n        /* \"#utility.yul\":8279:8308   */\n      swap1\n      pop\n        /* \"#utility.yul\":8145:8314   */\n      swap3\n      swap2\n      pop\n      pop\n      jump\t// out\n        /* \"#utility.yul\":8320:8468   */\n    tag_138:\n        /* \"#utility.yul\":8418:8424   */\n      dup3\n        /* \"#utility.yul\":8413:8416   */\n      dup2\n        /* \"#utility.yul\":8408:8411   */\n      dup4\n        /* \"#utility.yul\":8395:8425   */\n      calldatacopy\n        /* \"#utility.yul\":8459:8460   */\n      0x00\n        /* \"#utility.yul\":8450:8456   */\n      dup4\n        /* \"#utility.yul\":8445:8448   */\n      dup4\n        /* \"#utility.yul\":8441:8457   */\n      add\n        /* \"#utility.yul\":8434:8461   */\n      mstore\n        /* \"#utility.yul\":8320:8468   */\n      pop\n      pop\n      pop\n      jump\t// out\n        /* \"#utility.yul\":8498:8815   */\n    tag_139:\n        /* \"#utility.yul\":8596:8599   */\n      0x00\n        /* \"#utility.yul\":8617:8688   */\n      tag_244\n        /* \"#utility.yul\":8681:8687   */\n      dup4\n        /* \"#utility.yul\":8676:8679   */\n      dup6\n        /* \"#utility.yul\":8617:8688   */\n      tag_137\n      jump\t// in\n    tag_244:\n        /* \"#utility.yul\":8610:8688   */\n      swap4\n      pop\n        /* \"#utility.yul\":8698:8754   */\n      tag_245\n        /* \"#utility.yul\":8747:8753   */\n      dup4\n        /* \"#utility.yul\":8742:8745   */\n      dup6\n        /* \"#utility.yul\":8735:8740   */\n      dup5\n        /* \"#utility.yul\":8698:8754   */\n      tag_138\n      jump\t// in\n    tag_245:\n        /* \"#utility.yul\":8779:8808   */\n      tag_246\n        /* \"#utility.yul\":8801:8807   */\n      dup4\n        /* \"#utility.yul\":8779:8808   */\n      tag_134\n      jump\t// in\n    tag_246:\n        /* \"#utility.yul\":8774:8777   */\n      dup5\n        /* \"#utility.yul\":8770:8809   */\n      add\n        /* \"#utility.yul\":8763:8809   */\n      swap1\n      pop\n        /* \"#utility.yul\":8498:8815   */\n      swap4\n      swap3\n      pop\n      pop\n      pop\n      jump\t// out\n        /* \"#utility.yul\":8843:9157   */\n    tag_140:\n        /* \"#utility.yul\":8939:8942   */\n      0x00\n        /* \"#utility.yul\":8960:9030   */\n      tag_248\n        /* \"#utility.yul\":9023:9029   */\n      dup4\n        /* \"#utility.yul\":9018:9021   */\n      dup6\n        /* \"#utility.yul\":8960:9030   */\n      tag_132\n      jump\t// in\n    tag_248:\n        /* \"#utility.yul\":8953:9030   */\n      swap4\n      pop\n        /* \"#utility.yul\":9040:9096   */\n      tag_249\n        /* \"#utility.yul\":9089:9095   */\n      dup4\n        /* \"#utility.yul\":9084:9087   */\n      dup6\n        /* \"#utility.yul\":9077:9082   */\n      dup5\n        /* \"#utility.yul\":9040:9096   */\n      tag_138\n      jump\t// in\n    tag_249:\n        /* \"#utility.yul\":9121:9150   */\n      tag_250\n        /* \"#utility.yul\":9143:9149   */\n      dup4\n        /* \"#utility.yul\":9121:9150   */\n      tag_134\n      jump\t// in\n    tag_250:\n        /* \"#utility.yul\":9116:9119   */\n      dup5\n        /* \"#utility.yul\":9112:9151   */\n      add\n        /* \"#utility.yul\":9105:9151   */\n      swap1\n      pop\n        /* \"#utility.yul\":8843:9157   */\n      swap4\n      swap3\n      pop\n      pop\n      pop\n      jump\t// out\n        /* \"#utility.yul\":9163:9934   */\n    tag_74:\n        /* \"#utility.yul\":9398:9402   */\n      0x00\n        /* \"#utility.yul\":9436:9439   */\n      0x80\n        /* \"#utility.yul\":9425:9434   */\n      dup3\n        /* \"#utility.yul\":9421:9440   */\n      add\n        /* \"#utility.yul\":9413:9440   */\n      swap1\n      pop\n        /* \"#utility.yul\":9450:9521   */\n      tag_252\n        /* \"#utility.yul\":9518:9519   */\n      0x00\n        /* \"#utility.yul\":9507:9516   */\n      dup4\n        /* \"#utility.yul\":9503:9520   */\n      add\n        /* \"#utility.yul\":9494:9500   */\n      dup10\n        /* \"#utility.yul\":9450:9521   */\n      tag_117\n      jump\t// in\n    tag_252:\n        /* \"#utility.yul\":9568:9577   */\n      dup2\n        /* \"#utility.yul\":9562:9566   */\n      dup2\n        /* \"#utility.yul\":9558:9578   */\n      sub\n        /* \"#utility.yul\":9553:9555   */\n      0x20\n        /* \"#utility.yul\":9542:9551   */\n      dup4\n        /* \"#utility.yul\":9538:9556   */\n      add\n        /* \"#utility.yul\":9531:9579   */\n      mstore\n        /* \"#utility.yul\":9596:9684   */\n      tag_253\n        /* \"#utility.yul\":9679:9683   */\n      dup2\n        /* \"#utility.yul\":9670:9676   */\n      dup8\n        /* \"#utility.yul\":9662:9668   */\n      dup10\n        /* \"#utility.yul\":9596:9684   */\n      tag_139\n      jump\t// in\n    tag_253:\n        /* \"#utility.yul\":9588:9684   */\n      swap1\n      pop\n        /* \"#utility.yul\":9731:9740   */\n      dup2\n        /* \"#utility.yul\":9725:9729   */\n      dup2\n        /* \"#utility.yul\":9721:9741   */\n      sub\n        /* \"#utility.yul\":9716:9718   */\n      0x40\n        /* \"#utility.yul\":9705:9714   */\n      dup4\n        /* \"#utility.yul\":9701:9719   */\n      add\n        /* \"#utility.yul\":9694:9742   */\n      mstore\n        /* \"#utility.yul\":9759:9845   */\n      tag_254\n        /* \"#utility.yul\":9840:9844   */\n      dup2\n        /* \"#utility.yul\":9831:9837   */\n      dup6\n        /* \"#utility.yul\":9823:9829   */\n      dup8\n        /* \"#utility.yul\":9759:9845   */\n      tag_140\n      jump\t// in\n    tag_254:\n        /* \"#utility.yul\":9751:9845   */\n      swap1\n      pop\n        /* \"#utility.yul\":9855:9927   */\n      tag_255\n        /* \"#utility.yul\":9923:9925   */\n      0x60\n        /* \"#utility.yul\":9912:9921   */\n      dup4\n        /* \"#utility.yul\":9908:9926   */\n      add\n        /* \"#utility.yul\":9899:9905   */\n      dup5\n        /* \"#utility.yul\":9855:9927   */\n      tag_117\n      jump\t// in\n    tag_255:\n        /* \"#utility.yul\":9163:9934   */\n      swap8\n      swap7\n      pop\n      pop\n      pop\n      pop\n      pop\n      pop\n      pop\n      jump\t// out\n        /* \"#utility.yul\":9940:10822   */\n    tag_77:\n        /* \"#utility.yul\":10203:10207   */\n      0x00\n        /* \"#utility.yul\":10241:10244   */\n      0xa0\n        /* \"#utility.yul\":10230:10239   */\n      dup3\n        /* \"#utility.yul\":10226:10245   */\n      add\n        /* \"#utility.yul\":10218:10245   */\n      swap1\n      pop\n        /* \"#utility.yul\":10255:10326   */\n      tag_257\n        /* \"#utility.yul\":10323:10324   */\n      0x00\n        /* \"#utility.yul\":10312:10321   */\n      dup4\n        /* \"#utility.yul\":10308:10325   */\n      add\n        /* \"#utility.yul\":10299:10305   */\n      dup11\n        /* \"#utility.yul\":10255:10326   */\n      tag_130\n      jump\t// in\n    tag_257:\n        /* \"#utility.yul\":10336:10408   */\n      tag_258\n        /* \"#utility.yul\":10404:10406   */\n      0x20\n        /* \"#utility.yul\":10393:10402   */\n      dup4\n        /* \"#utility.yul\":10389:10407   */\n      add\n        /* \"#utility.yul\":10380:10386   */\n      dup10\n        /* \"#utility.yul\":10336:10408   */\n      tag_117\n      jump\t// in\n    tag_258:\n        /* \"#utility.yul\":10455:10464   */\n      dup2\n        /* \"#utility.yul\":10449:10453   */\n      dup2\n        /* \"#utility.yul\":10445:10465   */\n      sub\n        /* \"#utility.yul\":10440:10442   */\n      0x40\n        /* \"#utility.yul\":10429:10438   */\n      dup4\n        /* \"#utility.yul\":10425:10443   */\n      add\n        /* \"#utility.yul\":10418:10466   */\n      mstore\n        /* \"#utility.yul\":10483:10571   */\n      tag_259\n        /* \"#utility.yul\":10566:10570   */\n      dup2\n        /* \"#utility.yul\":10557:10563   */\n      dup8\n        /* \"#utility.yul\":10549:10555   */\n      dup10\n        /* \"#utility.yul\":10483:10571   */\n      tag_139\n      jump\t// in\n    tag_259:\n        /* \"#utility.yul\":10475:10571   */\n      swap1\n      pop\n        /* \"#utility.yul\":10618:10627   */\n      dup2\n        /* \"#utility.yul\":10612:10616   */\n      dup2\n        /* \"#utility.yul\":10608:10628   */\n      sub\n        /* \"#utility.yul\":10603:10605   */\n      0x60\n        /* \"#utility.yul\":10592:10601   */\n      dup4\n        /* \"#utility.yul\":10588:10606   */\n      add\n        /* \"#utility.yul\":10581:10629   */\n      mstore\n        /* \"#utility.yul\":10646:10732   */\n      tag_260\n        /* \"#utility.yul\":10727:10731   */\n      dup2\n        /* \"#utility.yul\":10718:10724   */\n      dup6\n        /* \"#utility.yul\":10710:10716   */\n      dup8\n        /* \"#utility.yul\":10646:10732   */\n      tag_140\n      jump\t// in\n    tag_260:\n        /* \"#utility.yul\":10638:10732   */\n      swap1\n      pop\n        /* \"#utility.yul\":10742:10815   */\n      tag_261\n        /* \"#utility.yul\":10810:10813   */\n      0x80\n        /* \"#utility.yul\":10799:10808   */\n      dup4\n        /* \"#utility.yul\":10795:10814   */\n      add\n        /* \"#utility.yul\":10786:10792   */\n      dup5\n        /* \"#utility.yul\":10742:10815   */\n      tag_117\n      jump\t// in\n    tag_261:\n        /* \"#utility.yul\":9940:10822   */\n      swap9\n      swap8\n      pop\n      pop\n      pop\n      pop\n      pop\n      pop\n      pop\n      pop\n      jump\t// out\n        /* \"#utility.yul\":10828:10975   */\n    tag_141:\n        /* \"#utility.yul\":10929:10940   */\n      0x00\n        /* \"#utility.yul\":10966:10969   */\n      dup2\n        /* \"#utility.yul\":10951:10969   */\n      swap1\n      pop\n        /* \"#utility.yul\":10828:10975   */\n      swap3\n      swap2\n      pop\n      pop\n      jump\t// out\n        /* \"#utility.yul\":11003:11330   */\n    tag_142:\n        /* \"#utility.yul\":11117:11120   */\n      0x00\n        /* \"#utility.yul\":11138:11226   */\n      tag_264\n        /* \"#utility.yul\":11219:11225   */\n      dup4\n        /* \"#utility.yul\":11214:11217   */\n      dup6\n        /* \"#utility.yul\":11138:11226   */\n      tag_141\n      jump\t// in\n    tag_264:\n        /* \"#utility.yul\":11131:11226   */\n      swap4\n      pop\n        /* \"#utility.yul\":11236:11292   */\n      tag_265\n        /* \"#utility.yul\":11285:11291   */\n      dup4\n        /* \"#utility.yul\":11280:11283   */\n      dup6\n        /* \"#utility.yul\":11273:11278   */\n      dup5\n        /* \"#utility.yul\":11236:11292   */\n      tag_138\n      jump\t// in\n    tag_265:\n        /* \"#utility.yul\":11317:11323   */\n      dup3\n        /* \"#utility.yul\":11312:11315   */\n      dup5\n        /* \"#utility.yul\":11308:11324   */\n      add\n        /* \"#utility.yul\":11301:11324   */\n      swap1\n      pop\n        /* \"#utility.yul\":11003:11330   */\n      swap4\n      swap3\n      pop\n      pop\n      pop\n      jump\t// out\n        /* \"#utility.yul\":11336:11627   */\n    tag_92:\n        /* \"#utility.yul\":11476:11479   */\n      0x00\n        /* \"#utility.yul\":11498:11601   */\n      tag_267\n        /* \"#utility.yul\":11597:11600   */\n      dup3\n        /* \"#utility.yul\":11588:11594   */\n      dup5\n        /* \"#utility.yul\":11580:11586   */\n      dup7\n        /* \"#utility.yul\":11498:11601   */\n      tag_142\n      jump\t// in\n    tag_267:\n        /* \"#utility.yul\":11491:11601   */\n      swap2\n      pop\n        /* \"#utility.yul\":11618:11621   */\n      dup2\n        /* \"#utility.yul\":11611:11621   */\n      swap1\n      pop\n        /* \"#utility.yul\":11336:11627   */\n      swap4\n      swap3\n      pop\n      pop\n      pop\n      jump\t// out\n        /* \"#utility.yul\":11633:11782   */\n    tag_143:\n        /* \"#utility.yul\":11669:11676   */\n      0x00\n        /* \"#utility.yul\":11709:11775   */\n      0xffffffff00000000000000000000000000000000000000000000000000000000\n        /* \"#utility.yul\":11702:11707   */\n      dup3\n        /* \"#utility.yul\":11698:11776   */\n      and\n        /* \"#utility.yul\":11687:11776   */\n      swap1\n      pop\n        /* \"#utility.yul\":11633:11782   */\n      swap2\n      swap1\n      pop\n      jump\t// out\n        /* \"#utility.yul\":11788:11866   */\n    tag_144:\n        /* \"#utility.yul\":11826:11833   */\n      0x00\n        /* \"#utility.yul\":11855:11860   */\n      dup2\n        /* \"#utility.yul\":11844:11860   */\n      swap1\n      pop\n        /* \"#utility.yul\":11788:11866   */\n      swap2\n      swap1\n      pop\n      jump\t// out\n        /* \"#utility.yul\":11872:12025   */\n    tag_145:\n        /* \"#utility.yul\":11975:12018   */\n      tag_271\n        /* \"#utility.yul\":11994:12017   */\n      tag_272\n        /* \"#utility.yul\":12011:12016   */\n      dup3\n        /* \"#utility.yul\":11994:12017   */\n      tag_143\n      jump\t// in\n    tag_272:\n        /* \"#utility.yul\":11975:12018   */\n      tag_144\n      jump\t// in\n    tag_271:\n        /* \"#utility.yul\":11970:11973   */\n      dup3\n        /* \"#utility.yul\":11963:12019   */\n      mstore\n        /* \"#utility.yul\":11872:12025   */\n      pop\n      pop\n      jump\t// out\n        /* \"#utility.yul\":12031:12458   */\n    tag_94:\n        /* \"#utility.yul\":12197:12200   */\n      0x00\n        /* \"#utility.yul\":12212:12285   */\n      tag_274\n        /* \"#utility.yul\":12281:12284   */\n      dup3\n        /* \"#utility.yul\":12272:12278   */\n      dup7\n        /* \"#utility.yul\":12212:12285   */\n      tag_145\n      jump\t// in\n    tag_274:\n        /* \"#utility.yul\":12310:12311   */\n      0x04\n        /* \"#utility.yul\":12305:12308   */\n      dup3\n        /* \"#utility.yul\":12301:12312   */\n      add\n        /* \"#utility.yul\":12294:12312   */\n      swap2\n      pop\n        /* \"#utility.yul\":12329:12432   */\n      tag_275\n        /* \"#utility.yul\":12428:12431   */\n      dup3\n        /* \"#utility.yul\":12419:12425   */\n      dup5\n        /* \"#utility.yul\":12411:12417   */\n      dup7\n        /* \"#utility.yul\":12329:12432   */\n      tag_142\n      jump\t// in\n    tag_275:\n        /* \"#utility.yul\":12322:12432   */\n      swap2\n      pop\n        /* \"#utility.yul\":12449:12452   */\n      dup2\n        /* \"#utility.yul\":12442:12452   */\n      swap1\n      pop\n        /* \"#utility.yul\":12031:12458   */\n      swap5\n      swap4\n      pop\n      pop\n      pop\n      pop\n      jump\t// out\n        /* \"#utility.yul\":12464:12850   */\n    tag_146:\n        /* \"#utility.yul\":12568:12571   */\n      0x00\n        /* \"#utility.yul\":12596:12634   */\n      tag_277\n        /* \"#utility.yul\":12628:12633   */\n      dup3\n        /* \"#utility.yul\":12596:12634   */\n      tag_131\n      jump\t// in\n    tag_277:\n        /* \"#utility.yul\":12650:12738   */\n      tag_278\n        /* \"#utility.yul\":12731:12737   */\n      dup2\n        /* \"#utility.yul\":12726:12729   */\n      dup6\n        /* \"#utility.yul\":12650:12738   */\n      tag_141\n      jump\t// in\n    tag_278:\n        /* \"#utility.yul\":12643:12738   */\n      swap4\n      pop\n        /* \"#utility.yul\":12747:12812   */\n      tag_279\n        /* \"#utility.yul\":12805:12811   */\n      dup2\n        /* \"#utility.yul\":12800:12803   */\n      dup6\n        /* \"#utility.yul\":12793:12797   */\n      0x20\n        /* \"#utility.yul\":12786:12791   */\n      dup7\n        /* \"#utility.yul\":12782:12798   */\n      add\n        /* \"#utility.yul\":12747:12812   */\n      tag_133\n      jump\t// in\n    tag_279:\n        /* \"#utility.yul\":12837:12843   */\n      dup1\n        /* \"#utility.yul\":12832:12835   */\n      dup5\n        /* \"#utility.yul\":12828:12844   */\n      add\n        /* \"#utility.yul\":12821:12844   */\n      swap2\n      pop\n        /* \"#utility.yul\":12572:12850   */\n      pop\n        /* \"#utility.yul\":12464:12850   */\n      swap3\n      swap2\n      pop\n      pop\n      jump\t// out\n        /* \"#utility.yul\":12856:13127   */\n    tag_97:\n        /* \"#utility.yul\":12986:12989   */\n      0x00\n        /* \"#utility.yul\":13008:13101   */\n      tag_281\n        /* \"#utility.yul\":13097:13100   */\n      dup3\n        /* \"#utility.yul\":13088:13094   */\n      dup5\n        /* \"#utility.yul\":13008:13101   */\n      tag_146\n      jump\t// in\n    tag_281:\n        /* \"#utility.yul\":13001:13101   */\n      swap2\n      pop\n        /* \"#utility.yul\":13118:13121   */\n      dup2\n        /* \"#utility.yul\":13111:13121   */\n      swap1\n      pop\n        /* \"#utility.yul\":12856:13127   */\n      swap3\n      swap2\n      pop\n      pop\n      jump\t// out\n\n    auxdata: 0xa264697066735822122041cc5f55783658f8d81c05f156140465414b539c36e2e7639f1c4e14ede9d71a64736f6c634300081c0033\n}\n",
				"bytecode": {
					"linkReferences": {},
					"object": "6080604052348015600e575f5ffd5b50335f5f6101000a81548173ffffffffffffffffffffffffffffffffffffffff021916908373ffffffffffffffffffffffffffffffffffffffff160217905550610fe18061005b5f395ff3fe608060405260043610610089575f3560e01c80638da5cb5b116100585780638da5cb5b1461015e5780639f81aed714610188578063b0f8b142146101b2578063c1a287e2146101e2578063c4d252f51461020c57610090565b8063228250c9146100945780634125ff90146100d05780634b9915a5146100fa5780638a1ce0b61461012257610090565b3661009057005b5f5ffd5b34801561009f575f5ffd5b506100ba60048036038101906100b59190610996565b610234565b6040516100c791906109db565b60405180910390f35b3480156100db575f5ffd5b506100e4610251565b6040516100f19190610a0c565b60405180910390f35b348015610105575f5ffd5b50610120600480360381019061011b9190610b5f565b610257565b005b34801561012d575f5ffd5b5061014860048036038101906101439190610b5f565b610443565b6040516101559190610c25565b60405180910390f35b348015610169575f5ffd5b50610172610484565b60405161017f9190610c4d565b60405180910390f35b348015610193575f5ffd5b5061019c6104a8565b6040516101a99190610a0c565b60405180910390f35b6101cc60048036038101906101c79190610b5f565b6104ad565b6040516101d99190610cd6565b60405180910390f35b3480156101ed575f5ffd5b506101f6610819565b6040516102039190610a0c565b60405180910390f35b348015610217575f5ffd5b50610232600480360381019061022d9190610996565b61081f565b005b6001602052805f5260405f205f915054906101000a900460ff1681565b6103e881565b5f5f9054906101000a900473ffffffffffffffffffffffffffffffffffffffff1673ffffffffffffffffffffffffffffffffffffffff163373ffffffffffffffffffffffffffffffffffffffff16146102dc576040517f74a2152700000000000000000000000000000000000000000000000000000000815260040160405180910390fd5b5f6102ec88888888888888610443565b905060015f8281526020019081526020015f205f9054906101000a900460ff161561034e57806040517f995042be0000000000000000000000000000000000000000000000000000000081526004016103459190610c25565b60405180910390fd5b600a4261035b9190610d23565b82108061037457506103e8426103719190610d23565b82115b156103b85742826040517f1a9616c20000000000000000000000000000000000000000000000000000000081526004016103af929190610d56565b60405180910390fd5b6001805f8381526020019081526020015f205f6101000a81548160ff0219169083151502179055508773ffffffffffffffffffffffffffffffffffffffff16817f3c22f47140594040d205a5533cfedd86c9ab8622c39ead03affb2d97052c794c89898989898960405161043196959493929190610df3565b60405180910390a35050505050505050565b5f878787878787876040516020016104619796959493929190610e48565b604051602081830303815290604052805190602001209050979650505050505050565b5f5f9054906101000a900473ffffffffffffffffffffffffffffffffffffffff1681565b600a81565b60605f5f9054906101000a900473ffffffffffffffffffffffffffffffffffffffff1673ffffffffffffffffffffffffffffffffffffffff163373ffffffffffffffffffffffffffffffffffffffff1614610534576040517f74a2152700000000000000000000000000000000000000000000000000000000815260040160405180910390fd5b5f61054489898989898989610443565b905060015f8281526020019081526020015f205f9054906101000a900460ff166105a557806040517f0995c9d500000000000000000000000000000000000000000000000000000000815260040161059c9190610c25565b60405180910390fd5b824210156105ec5742836040517f035fce5b0000000000000000000000000000000000000000000000000000000081526004016105e3929190610d56565b60405180910390fd5b6103e8836105fa9190610d23565b42111561064d57426103e8846106109190610d23565b6040517f92ae26d1000000000000000000000000000000000000000000000000000000008152600401610644929190610d56565b60405180910390fd5b5f60015f8381526020019081526020015f205f6101000a81548160ff02191690831515021790555060605f8888905011156106c4578787604051610692929190610ed9565b604051809103902086866040516020016106ae93929190610f3c565b604051602081830303815290604052905061070b565b85858080601f0160208091040260200160405190810160405280939291908181526020018383808284375f81840152601f19601f8201169050808301925050505050505090505b5f5f8b73ffffffffffffffffffffffffffffffffffffffff168b846040516107339190610f95565b5f6040518083038185875af1925050503d805f811461076d576040519150601f19603f3d011682016040523d82523d5f602084013e610772565b606091505b5091509150816107ae576040517fd9b4f81e00000000000000000000000000000000000000000000000000000000815260040160405180910390fd5b8b73ffffffffffffffffffffffffffffffffffffffff16847fd1d5c3c892c18716bd88852091d1b63dc6849e9d7c37f69d566884bf954d4bd98d8d8d8d8d8d6040516107ff96959493929190610df3565b60405180910390a380945050505050979650505050505050565b6103e881565b5f5f9054906101000a900473ffffffffffffffffffffffffffffffffffffffff1673ffffffffffffffffffffffffffffffffffffffff163373ffffffffffffffffffffffffffffffffffffffff16146108a4576040517f74a2152700000000000000000000000000000000000000000000000000000000815260040160405180910390fd5b60015f8281526020019081526020015f205f9054906101000a900460ff1661090357806040517f0995c9d50000000000000000000000000000000000000000000000000000000081526004016108fa9190610c25565b60405180910390fd5b5f60015f8381526020019081526020015f205f6101000a81548160ff021916908315150217905550807fe8d9861dbc9c663ed3accd261bbe2fe01e0d3d9e5f51fa38523b265c7757a93a60405160405180910390a250565b5f5ffd5b5f5ffd5b5f819050919050565b61097581610963565b811461097f575f5ffd5b50565b5f813590506109908161096c565b92915050565b5f602082840312156109ab576109aa61095b565b5b5f6109b884828501610982565b91505092915050565b5f8115159050919050565b6109d5816109c1565b82525050565b5f6020820190506109ee5f8301846109cc565b92915050565b5f819050919050565b610a06816109f4565b82525050565b5f602082019050610a1f5f8301846109fd565b92915050565b5f73ffffffffffffffffffffffffffffffffffffffff82169050919050565b5f610a4e82610a25565b9050919050565b610a5e81610a44565b8114610a68575f5ffd5b50565b5f81359050610a7981610a55565b92915050565b610a88816109f4565b8114610a92575f5ffd5b50565b5f81359050610aa381610a7f565b92915050565b5f5ffd5b5f5ffd5b5f5ffd5b5f5f83601f840112610aca57610ac9610aa9565b5b8235905067ffffffffffffffff811115610ae757610ae6610aad565b5b602083019150836001820283011115610b0357610b02610ab1565b5b9250929050565b5f5f83601f840112610b1f57610b1e610aa9565b5b8235905067ffffffffffffffff811115610b3c57610b3b610aad565b5b602083019150836001820283011115610b5857610b57610ab1565b5b9250929050565b5f5f5f5f5f5f5f60a0888a031215610b7a57610b7961095b565b5b5f610b878a828b01610a6b565b9750506020610b988a828b01610a95565b965050604088013567ffffffffffffffff811115610bb957610bb861095f565b5b610bc58a828b01610ab5565b9550955050606088013567ffffffffffffffff811115610be857610be761095f565b5b610bf48a828b01610b0a565b93509350506080610c078a828b01610a95565b91505092959891949750929550565b610c1f81610963565b82525050565b5f602082019050610c385f830184610c16565b92915050565b610c4781610a44565b82525050565b5f602082019050610c605f830184610c3e565b92915050565b5f81519050919050565b5f82825260208201905092915050565b8281835e5f83830152505050565b5f601f19601f8301169050919050565b5f610ca882610c66565b610cb28185610c70565b9350610cc2818560208601610c80565b610ccb81610c8e565b840191505092915050565b5f6020820190508181035f830152610cee8184610c9e565b905092915050565b7f4e487b71000000000000000000000000000000000000000000000000000000005f52601160045260245ffd5b5f610d2d826109f4565b9150610d38836109f4565b9250828201905080821115610d5057610d4f610cf6565b5b92915050565b5f604082019050610d695f8301856109fd565b610d7660208301846109fd565b9392505050565b5f82825260208201905092915050565b828183375f83830152505050565b5f610da68385610d7d565b9350610db3838584610d8d565b610dbc83610c8e565b840190509392505050565b5f610dd28385610c70565b9350610ddf838584610d8d565b610de883610c8e565b840190509392505050565b5f608082019050610e065f8301896109fd565b8181036020830152610e19818789610d9b565b90508181036040830152610e2e818587610dc7565b9050610e3d60608301846109fd565b979650505050505050565b5f60a082019050610e5b5f83018a610c3e565b610e6860208301896109fd565b8181036040830152610e7b818789610d9b565b90508181036060830152610e90818587610dc7565b9050610e9f60808301846109fd565b98975050505050505050565b5f81905092915050565b5f610ec08385610eab565b9350610ecd838584610d8d565b82840190509392505050565b5f610ee5828486610eb5565b91508190509392505050565b5f7fffffffff0000000000000000000000000000000000000000000000000000000082169050919050565b5f819050919050565b610f36610f3182610ef1565b610f1c565b82525050565b5f610f478286610f25565b600482019150610f58828486610eb5565b9150819050949350505050565b5f610f6f82610c66565b610f798185610eab565b9350610f89818560208601610c80565b80840191505092915050565b5f610fa08284610f65565b91508190509291505056fea264697066735822122041cc5f55783658f8d81c05f156140465414b539c36e2e7639f1c4e14ede9d71a64736f6c634300081c0033",
					"opcodes": "PUSH1 0x80 PUSH1 0x40 MSTORE CALLVALUE DUP1 ISZERO PUSH1 0xE JUMPI PUSH0 PUSH0 REVERT JUMPDEST POP CALLER PUSH0 PUSH0 PUSH2 0x100 EXP DUP2 SLOAD DUP2 PUSH20 0xFFFFFFFFFFFFFFFFFFFFFFFFFFFFFFFFFFFFFFFF MUL NOT AND SWAP1 DUP4 PUSH20 0xFFFFFFFFFFFFFFFFFFFFFFFFFFFFFFFFFFFFFFFF AND MUL OR SWAP1 SSTORE POP PUSH2 0xFE1 DUP1 PUSH2 0x5B PUSH0 CODECOPY PUSH0 RETURN INVALID PUSH1 0x80 PUSH1 0x40 MSTORE PUSH1 0x4 CALLDATASIZE LT PUSH2 0x89 JUMPI PUSH0 CALLDATALOAD PUSH1 0xE0 SHR DUP1 PUSH4 0x8DA5CB5B GT PUSH2 0x58 JUMPI DUP1 PUSH4 0x8DA5CB5B EQ PUSH2 0x15E JUMPI DUP1 PUSH4 0x9F81AED7 EQ PUSH2 0x188 JUMPI DUP1 PUSH4 0xB0F8B142 EQ PUSH2 0x1B2 JUMPI DUP1 PUSH4 0xC1A287E2 EQ PUSH2 0x1E2 JUMPI DUP1 PUSH4 0xC4D252F5 EQ PUSH2 0x20C JUMPI PUSH2 0x90 JUMP JUMPDEST DUP1 PUSH4 0x228250C9 EQ PUSH2 0x94 JUMPI DUP1 PUSH4 0x4125FF90 EQ PUSH2 0xD0 JUMPI DUP1 PUSH4 0x4B9915A5 EQ PUSH2 0xFA JUMPI DUP1 PUSH4 0x8A1CE0B6 EQ PUSH2 0x122 JUMPI PUSH2 0x90 JUMP JUMPDEST CALLDATASIZE PUSH2 0x90 JUMPI STOP JUMPDEST PUSH0 PUSH0 REVERT JUMPDEST CALLVALUE DUP1 ISZERO PUSH2 0x9F JUMPI PUSH0 PUSH0 REVERT JUMPDEST POP PUSH2 0xBA PUSH1 0x4 DUP1 CALLDATASIZE SUB DUP2 ADD SWAP1 PUSH2 0xB5 SWAP2 SWAP1 PUSH2 0x996 JUMP JUMPDEST PUSH2 0x234 JUMP JUMPDEST PUSH1 0x40 MLOAD PUSH2 0xC7 SWAP2 SWAP1 PUSH2 0x9DB JUMP JUMPDEST PUSH1 0x40 MLOAD DUP1 SWAP2 SUB SWAP1 RETURN JUMPDEST CALLVALUE DUP1 ISZERO PUSH2 0xDB JUMPI PUSH0 PUSH0 REVERT JUMPDEST POP PUSH2 0xE4 PUSH2 0x251 JUMP JUMPDEST PUSH1 0x40 MLOAD PUSH2 0xF1 SWAP2 SWAP1 PUSH2 0xA0C JUMP JUMPDEST PUSH1 0x40 MLOAD DUP1 SWAP2 SUB SWAP1 RETURN JUMPDEST CALLVALUE DUP1 ISZERO PUSH2 0x105 JUMPI PUSH0 PUSH0 REVERT JUMPDEST POP PUSH2 0x120 PUSH1 0x4 DUP1 CALLDATASIZE SUB DUP2 ADD SWAP1 PUSH2 0x11B SWAP2 SWAP1 PUSH2 0xB5F JUMP JUMPDEST PUSH2 0x257 JUMP JUMPDEST STOP JUMPDEST CALLVALUE DUP1 ISZERO PUSH2 0x12D JUMPI PUSH0 PUSH0 REVERT JUMPDEST POP PUSH2 0x148 PUSH1 0x4 DUP1 CALLDATASIZE SUB DUP2 ADD SWAP1 PUSH2 0x143 SWAP2 SWAP1 PUSH2 0xB5F JUMP JUMPDEST PUSH2 0x443 JUMP JUMPDEST PUSH1 0x40 MLOAD PUSH2 0x155 SWAP2 SWAP1 PUSH2 0xC25 JUMP JUMPDEST PUSH1 0x40 MLOAD DUP1 SWAP2 SUB SWAP1 RETURN JUMPDEST CALLVALUE DUP1 ISZERO PUSH2 0x169 JUMPI PUSH0 PUSH0 REVERT JUMPDEST POP PUSH2 0x172 PUSH2 0x484 JUMP JUMPDEST PUSH1 0x40 MLOAD PUSH2 0x17F SWAP2 SWAP1 PUSH2 0xC4D JUMP JUMPDEST PUSH1 0x40 MLOAD DUP1 SWAP2 SUB SWAP1 RETURN JUMPDEST CALLVALUE DUP1 ISZERO PUSH2 0x193 JUMPI PUSH0 PUSH0 REVERT JUMPDEST POP PUSH2 0x19C PUSH2 0x4A8 JUMP JUMPDEST PUSH1 0x40 MLOAD PUSH2 0x1A9 SWAP2 SWAP1 PUSH2 0xA0C JUMP JUMPDEST PUSH1 0x40 MLOAD DUP1 SWAP2 SUB SWAP1 RETURN JUMPDEST PUSH2 0x1CC PUSH1 0x4 DUP1 CALLDATASIZE SUB DUP2 ADD SWAP1 PUSH2 0x1C7 SWAP2 SWAP1 PUSH2 0xB5F JUMP JUMPDEST PUSH2 0x4AD JUMP JUMPDEST PUSH1 0x40 MLOAD PUSH2 0x1D9 SWAP2 SWAP1 PUSH2 0xCD6 JUMP JUMPDEST PUSH1 0x40 MLOAD DUP1 SWAP2 SUB SWAP1 RETURN JUMPDEST CALLVALUE DUP1 ISZERO PUSH2 0x1ED JUMPI PUSH0 PUSH0 REVERT JUMPDEST POP PUSH2 0x1F6 PUSH2 0x819 JUMP JUMPDEST PUSH1 0x40 MLOAD PUSH2 0x203 SWAP2 SWAP1 PUSH2 0xA0C JUMP JUMPDEST PUSH1 0x40 MLOAD DUP1 SWAP2 SUB SWAP1 RETURN JUMPDEST CALLVALUE DUP1 ISZERO PUSH2 0x217 JUMPI PUSH0 PUSH0 REVERT JUMPDEST POP PUSH2 0x232 PUSH1 0x4 DUP1 CALLDATASIZE SUB DUP2 ADD SWAP1 PUSH2 0x22D SWAP2 SWAP1 PUSH2 0x996 JUMP JUMPDEST PUSH2 0x81F JUMP JUMPDEST STOP JUMPDEST PUSH1 0x1 PUSH1 0x20 MSTORE DUP1 PUSH0 MSTORE PUSH1 0x40 PUSH0 KECCAK256 PUSH0 SWAP2 POP SLOAD SWAP1 PUSH2 0x100 EXP SWAP1 DIV PUSH1 0xFF AND DUP2 JUMP JUMPDEST PUSH2 0x3E8 DUP2 JUMP JUMPDEST PUSH0 PUSH0 SWAP1 SLOAD SWAP1 PUSH2 0x100 EXP SWAP1 DIV PUSH20 0xFFFFFFFFFFFFFFFFFFFFFFFFFFFFFFFFFFFFFFFF AND PUSH20 0xFFFFFFFFFFFFFFFFFFFFFFFFFFFFFFFFFFFFFFFF AND CALLER PUSH20 0xFFFFFFFFFFFFFFFFFFFFFFFFFFFFFFFFFFFFFFFF AND EQ PUSH2 0x2DC JUMPI PUSH1 0x40 MLOAD PUSH32 0x74A2152700000000000000000000000000000000000000000000000000000000 DUP2 MSTORE PUSH1 0x4 ADD PUSH1 0x40 MLOAD DUP1 SWAP2 SUB SWAP1 REVERT JUMPDEST PUSH0 PUSH2 0x2EC DUP9 DUP9 DUP9 DUP9 DUP9 DUP9 DUP9 PUSH2 0x443 JUMP JUMPDEST SWAP1 POP PUSH1 0x1 PUSH0 DUP3 DUP2 MSTORE PUSH1 0x20 ADD SWAP1 DUP2 MSTORE PUSH1 0x20 ADD PUSH0 KECCAK256 PUSH0 SWAP1 SLOAD SWAP1 PUSH2 0x100 EXP SWAP1 DIV PUSH1 0xFF AND ISZERO PUSH2 0x34E JUMPI DUP1 PUSH1 0x40 MLOAD PUSH32 0x995042BE00000000000000000000000000000000000000000000000000000000 DUP2 MSTORE PUSH1 0x4 ADD PUSH2 0x345 SWAP2 SWAP1 PUSH2 0xC25 JUMP JUMPDEST PUSH1 0x40 MLOAD DUP1 SWAP2 SUB SWAP1 REVERT JUMPDEST PUSH1 0xA TIMESTAMP PUSH2 0x35B SWAP2 SWAP1 PUSH2 0xD23 JUMP JUMPDEST DUP3 LT DUP1 PUSH2 0x374 JUMPI POP PUSH2 0x3E8 TIMESTAMP PUSH2 0x371 SWAP2 SWAP1 PUSH2 0xD23 JUMP JUMPDEST DUP3 GT JUMPDEST ISZERO PUSH2 0x3B8 JUMPI TIMESTAMP DUP3 PUSH1 0x40 MLOAD PUSH32 0x1A9616C200000000000000000000000000000000000000000000000000000000 DUP2 MSTORE PUSH1 0x4 ADD PUSH2 0x3AF SWAP3 SWAP2 SWAP1 PUSH2 0xD56 JUMP JUMPDEST PUSH1 0x40 MLOAD DUP1 SWAP2 SUB SWAP1 REVERT JUMPDEST PUSH1 0x1 DUP1 PUSH0 DUP4 DUP2 MSTORE PUSH1 0x20 ADD SWAP1 DUP2 MSTORE PUSH1 0x20 ADD PUSH0 KECCAK256 PUSH0 PUSH2 0x100 EXP DUP2 SLOAD DUP2 PUSH1 0xFF MUL NOT AND SWAP1 DUP4 ISZERO ISZERO MUL OR SWAP1 SSTORE POP DUP8 PUSH20 0xFFFFFFFFFFFFFFFFFFFFFFFFFFFFFFFFFFFFFFFF AND DUP2 PUSH32 0x3C22F47140594040D205A5533CFEDD86C9AB8622C39EAD03AFFB2D97052C794C DUP10 DUP10 DUP10 DUP10 DUP10 DUP10 PUSH1 0x40 MLOAD PUSH2 0x431 SWAP7 SWAP6 SWAP5 SWAP4 SWAP3 SWAP2 SWAP1 PUSH2 0xDF3 JUMP JUMPDEST PUSH1 0x40 MLOAD DUP1 SWAP2 SUB SWAP1 LOG3 POP POP POP POP POP POP POP POP JUMP JUMPDEST PUSH0 DUP8 DUP8 DUP8 DUP8 DUP8 DUP8 DUP8 PUSH1 0x40 MLOAD PUSH1 0x20 ADD PUSH2 0x461 SWAP8 SWAP7 SWAP6 SWAP5 SWAP4 SWAP3 SWAP2 SWAP1 PUSH2 0xE48 JUMP JUMPDEST PUSH1 0x40 MLOAD PUSH1 0x20 DUP2 DUP4 SUB SUB DUP2 MSTORE SWAP1 PUSH1 0x40 MSTORE DUP1 MLOAD SWAP1 PUSH1 0x20 ADD KECCAK256 SWAP1 POP SWAP8 SWAP7 POP POP POP POP POP POP POP JUMP JUMPDEST PUSH0 PUSH0 SWAP1 SLOAD SWAP1 PUSH2 0x100 EXP SWAP1 DIV PUSH20 0xFFFFFFFFFFFFFFFFFFFFFFFFFFFFFFFFFFFFFFFF AND DUP2 JUMP JUMPDEST PUSH1 0xA DUP2 JUMP JUMPDEST PUSH1 0x60 PUSH0 PUSH0 SWAP1 SLOAD SWAP1 PUSH2 0x100 EXP SWAP1 DIV PUSH20 0xFFFFFFFFFFFFFFFFFFFFFFFFFFFFFFFFFFFFFFFF AND PUSH20 0xFFFFFFFFFFFFFFFFFFFFFFFFFFFFFFFFFFFFFFFF AND CALLER PUSH20 0xFFFFFFFFFFFFFFFFFFFFFFFFFFFFFFFFFFFFFFFF AND EQ PUSH2 0x534 JUMPI PUSH1 0x40 MLOAD PUSH32 0x74A2152700000000000000000000000000000000000000000000000000000000 DUP2 MSTORE PUSH1 0x4 ADD PUSH1 0x40 MLOAD DUP1 SWAP2 SUB SWAP1 REVERT JUMPDEST PUSH0 PUSH2 0x544 DUP10 DUP10 DUP10 DUP10 DUP10 DUP10 DUP10 PUSH2 0x443 JUMP JUMPDEST SWAP1 POP PUSH1 0x1 PUSH0 DUP3 DUP2 MSTORE PUSH1 0x20 ADD SWAP1 DUP2 MSTORE PUSH1 0x20 ADD PUSH0 KECCAK256 PUSH0 SWAP1 SLOAD SWAP1 PUSH2 0x100 EXP SWAP1 DIV PUSH1 0xFF AND PUSH2 0x5A5 JUMPI DUP1 PUSH1 0x40 MLOAD PUSH32 0x995C9D500000000000000000000000000000000000000000000000000000000 DUP2 MSTORE PUSH1 0x4 ADD PUSH2 0x59C SWAP2 SWAP1 PUSH2 0xC25 JUMP JUMPDEST PUSH1 0x40 MLOAD DUP1 SWAP2 SUB SWAP1 REVERT JUMPDEST DUP3 TIMESTAMP LT ISZERO PUSH2 0x5EC JUMPI TIMESTAMP DUP4 PUSH1 0x40 MLOAD PUSH32 0x35FCE5B00000000000000000000000000000000000000000000000000000000 DUP2 MSTORE PUSH1 0x4 ADD PUSH2 0x5E3 SWAP3 SWAP2 SWAP1 PUSH2 0xD56 JUMP JUMPDEST PUSH1 0x40 MLOAD DUP1 SWAP2 SUB SWAP1 REVERT JUMPDEST PUSH2 0x3E8 DUP4 PUSH2 0x5FA SWAP2 SWAP1 PUSH2 0xD23 JUMP JUMPDEST TIMESTAMP GT ISZERO PUSH2 0x64D JUMPI TIMESTAMP PUSH2 0x3E8 DUP5 PUSH2 0x610 SWAP2 SWAP1 PUSH2 0xD23 JUMP JUMPDEST PUSH1 0x40 MLOAD PUSH32 0x92AE26D100000000000000000000000000000000000000000000000000000000 DUP2 MSTORE PUSH1 0x4 ADD PUSH2 0x644 SWAP3 SWAP2 SWAP1 PUSH2 0xD56 JUMP JUMPDEST PUSH1 0x40 MLOAD DUP1 SWAP2 SUB SWAP1 REVERT JUMPDEST PUSH0 PUSH1 0x1 PUSH0 DUP4 DUP2 MSTORE PUSH1 0x20 ADD SWAP1 DUP2 MSTORE PUSH1 0x20 ADD PUSH0 KECCAK256 PUSH0 PUSH2 0x100 EXP DUP2 SLOAD DUP2 PUSH1 0xFF MUL NOT AND SWAP1 DUP4 ISZERO ISZERO MUL OR SWAP1 SSTORE POP PUSH1 0x60 PUSH0 DUP9 DUP9 SWAP1 POP GT ISZERO PUSH2 0x6C4 JUMPI DUP8 DUP8 PUSH1 0x40 MLOAD PUSH2 0x692 SWAP3 SWAP2 SWAP1 PUSH2 0xED9 JUMP JUMPDEST PUSH1 0x40 MLOAD DUP1 SWAP2 SUB SWAP1 KECCAK256 DUP7 DUP7 PUSH1 0x40 MLOAD PUSH1 0x20 ADD PUSH2 0x6AE SWAP4 SWAP3 SWAP2 SWAP1 PUSH2 0xF3C JUMP JUMPDEST PUSH1 0x40 MLOAD PUSH1 0x20 DUP2 DUP4 SUB SUB DUP2 MSTORE SWAP1 PUSH1 0x40 MSTORE SWAP1 POP PUSH2 0x70B JUMP JUMPDEST DUP6 DUP6 DUP1 DUP1 PUSH1 0x1F ADD PUSH1 0x20 DUP1 SWAP2 DIV MUL PUSH1 0x20 ADD PUSH1 0x40 MLOAD SWAP1 DUP2 ADD PUSH1 0x40 MSTORE DUP1 SWAP4 SWAP3 SWAP2 SWAP1 DUP2 DUP2 MSTORE PUSH1 0x20 ADD DUP4 DUP4 DUP1 DUP3 DUP5 CALLDATACOPY PUSH0 DUP2 DUP5 ADD MSTORE PUSH1 0x1F NOT PUSH1 0x1F DUP3 ADD AND SWAP1 POP DUP1 DUP4 ADD SWAP3 POP POP POP POP POP POP POP SWAP1 POP JUMPDEST PUSH0 PUSH0 DUP12 PUSH20 0xFFFFFFFFFFFFFFFFFFFFFFFFFFFFFFFFFFFFFFFF AND DUP12 DUP5 PUSH1 0x40 MLOAD PUSH2 0x733 SWAP2 SWAP1 PUSH2 0xF95 JUMP JUMPDEST PUSH0 PUSH1 0x40 MLOAD DUP1 DUP4 SUB DUP2 DUP6 DUP8 GAS CALL SWAP3 POP POP POP RETURNDATASIZE DUP1 PUSH0 DUP2 EQ PUSH2 0x76D JUMPI PUSH1 0x40 MLOAD SWAP2 POP PUSH1 0x1F NOT PUSH1 0x3F RETURNDATASIZE ADD AND DUP3 ADD PUSH1 0x40 MSTORE RETURNDATASIZE DUP3 MSTORE RETURNDATASIZE PUSH0 PUSH1 0x20 DUP5 ADD RETURNDATACOPY PUSH2 0x772 JUMP JUMPDEST PUSH1 0x60 SWAP2 POP JUMPDEST POP SWAP2 POP SWAP2 POP DUP2 PUSH2 0x7AE JUMPI PUSH1 0x40 MLOAD PUSH32 0xD9B4F81E00000000000000000000000000000000000000000000000000000000 DUP2 MSTORE PUSH1 0x4 ADD PUSH1 0x40 MLOAD DUP1 SWAP2 SUB SWAP1 REVERT JUMPDEST DUP12 PUSH20 0xFFFFFFFFFFFFFFFFFFFFFFFFFFFFFFFFFFFFFFFF AND DUP5 PUSH32 0xD1D5C3C892C18716BD88852091D1B63DC6849E9D7C37F69D566884BF954D4BD9 DUP14 DUP14 DUP14 DUP14 DUP14 DUP14 PUSH1 0x40 MLOAD PUSH2 0x7FF SWAP7 SWAP6 SWAP5 SWAP4 SWAP3 SWAP2 SWAP1 PUSH2 0xDF3 JUMP JUMPDEST PUSH1 0x40 MLOAD DUP1 SWAP2 SUB SWAP1 LOG3 DUP1 SWAP5 POP POP POP POP POP SWAP8 SWAP7 POP POP POP POP POP POP POP JUMP JUMPDEST PUSH2 0x3E8 DUP2 JUMP JUMPDEST PUSH0 PUSH0 SWAP1 SLOAD SWAP1 PUSH2 0x100 EXP SWAP1 DIV PUSH20 0xFFFFFFFFFFFFFFFFFFFFFFFFFFFFFFFFFFFFFFFF AND PUSH20 0xFFFFFFFFFFFFFFFFFFFFFFFFFFFFFFFFFFFFFFFF AND CALLER PUSH20 0xFFFFFFFFFFFFFFFFFFFFFFFFFFFFFFFFFFFFFFFF AND EQ PUSH2 0x8A4 JUMPI PUSH1 0x40 MLOAD PUSH32 0x74A2152700000000000000000000000000000000000000000000000000000000 DUP2 MSTORE PUSH1 0x4 ADD PUSH1 0x40 MLOAD DUP1 SWAP2 SUB SWAP1 REVERT JUMPDEST PUSH1 0x1 PUSH0 DUP3 DUP2 MSTORE PUSH1 0x20 ADD SWAP1 DUP2 MSTORE PUSH1 0x20 ADD PUSH0 KECCAK256 PUSH0 SWAP1 SLOAD SWAP1 PUSH2 0x100 EXP SWAP1 DIV PUSH1 0xFF AND PUSH2 0x903 JUMPI DUP1 PUSH1 0x40 MLOAD PUSH32 0x995C9D500000000000000000000000000000000000000000000000000000000 DUP2 MSTORE PUSH1 0x4 ADD PUSH2 0x8FA SWAP2 SWAP1 PUSH2 0xC25 JUMP JUMPDEST PUSH1 0x40 MLOAD DUP1 SWAP2 SUB SWAP1 REVERT JUMPDEST PUSH0 PUSH1 0x1 PUSH0 DUP4 DUP2 MSTORE PUSH1 0x20 ADD SWAP1 DUP2 MSTORE PUSH1 0x20 ADD PUSH0 KECCAK256 PUSH0 PUSH2 0x100 EXP DUP2 SLOAD DUP2 PUSH1 0xFF MUL NOT AND SWAP1 DUP4 ISZERO ISZERO MUL OR SWAP1 SSTORE POP DUP1 PUSH32 0xE8D9861DBC9C663ED3ACCD261BBE2FE01E0D3D9E5F51FA38523B265C7757A93A PUSH1 0x40 MLOAD PUSH1 0x40 MLOAD DUP1 SWAP2 SUB SWAP1 LOG2 POP JUMP JUMPDEST PUSH0 PUSH0 REVERT JUMPDEST PUSH0 PUSH0 REVERT JUMPDEST PUSH0 DUP2 SWAP1 POP SWAP2 SWAP1 POP JUMP JUMPDEST PUSH2 0x975 DUP2 PUSH2 0x963 JUMP JUMPDEST DUP2 EQ PUSH2 0x97F JUMPI PUSH0 PUSH0 REVERT JUMPDEST POP JUMP JUMPDEST PUSH0 DUP2 CALLDATALOAD SWAP1 POP PUSH2 0x990 DUP2 PUSH2 0x96C JUMP JUMPDEST SWAP3 SWAP2 POP POP JUMP JUMPDEST PUSH0 PUSH1 0x20 DUP3 DUP5 SUB SLT ISZERO PUSH2 0x9AB JUMPI PUSH2 0x9AA PUSH2 0x95B JUMP JUMPDEST JUMPDEST PUSH0 PUSH2 0x9B8 DUP5 DUP3 DUP6 ADD PUSH2 0x982 JUMP JUMPDEST SWAP2 POP POP SWAP3 SWAP2 POP POP JUMP JUMPDEST PUSH0 DUP2 ISZERO ISZERO SWAP1 POP SWAP2 SWAP1 POP JUMP JUMPDEST PUSH2 0x9D5 DUP2 PUSH2 0x9C1 JUMP JUMPDEST DUP3 MSTORE POP POP JUMP JUMPDEST PUSH0 PUSH1 0x20 DUP3 ADD SWAP1 POP PUSH2 0x9EE PUSH0 DUP4 ADD DUP5 PUSH2 0x9CC JUMP JUMPDEST SWAP3 SWAP2 POP POP JUMP JUMPDEST PUSH0 DUP2 SWAP1 POP SWAP2 SWAP1 POP JUMP JUMPDEST PUSH2 0xA06 DUP2 PUSH2 0x9F4 JUMP JUMPDEST DUP3 MSTORE POP POP JUMP JUMPDEST PUSH0 PUSH1 0x20 DUP3 ADD SWAP1 POP PUSH2 0xA1F PUSH0 DUP4 ADD DUP5 PUSH2 0x9FD JUMP JUMPDEST SWAP3 SWAP2 POP POP JUMP JUMPDEST PUSH0 PUSH20 0xFFFFFFFFFFFFFFFFFFFFFFFFFFFFFFFFFFFFFFFF DUP3 AND SWAP1 POP SWAP2 SWAP1 POP JUMP JUMPDEST PUSH0 PUSH2 0xA4E DUP3 PUSH2 0xA25 JUMP JUMPDEST SWAP1 POP SWAP2 SWAP1 POP JUMP JUMPDEST PUSH2 0xA5E DUP2 PUSH2 0xA44 JUMP JUMPDEST DUP2 EQ PUSH2 0xA68 JUMPI PUSH0 PUSH0 REVERT JUMPDEST POP JUMP JUMPDEST PUSH0 DUP2 CALLDATALOAD SWAP1 POP PUSH2 0xA79 DUP2 PUSH2 0xA55 JUMP JUMPDEST SWAP3 SWAP2 POP POP JUMP JUMPDEST PUSH2 0xA88 DUP2 PUSH2 0x9F4 JUMP JUMPDEST DUP2 EQ PUSH2 0xA92 JUMPI PUSH0 PUSH0 REVERT JUMPDEST POP JUMP JUMPDEST PUSH0 DUP2 CALLDATALOAD SWAP1 POP PUSH2 0xAA3 DUP2 PUSH2 0xA7F JUMP JUMPDEST SWAP3 SWAP2 POP POP JUMP JUMPDEST PUSH0 PUSH0 REVERT JUMPDEST PUSH0 PUSH0 REVERT JUMPDEST PUSH0 PUSH0 REVERT JUMPDEST PUSH0 PUSH0 DUP4 PUSH1 0x1F DUP5 ADD SLT PUSH2 0xACA JUMPI PUSH2 0xAC9 PUSH2 0xAA9 JUMP JUMPDEST JUMPDEST DUP3 CALLDATALOAD SWAP1 POP PUSH8 0xFFFFFFFFFFFFFFFF DUP2 GT ISZERO PUSH2 0xAE7 JUMPI PUSH2 0xAE6 PUSH2 0xAAD JUMP JUMPDEST JUMPDEST PUSH1 0x20 DUP4 ADD SWAP2 POP DUP4 PUSH1 0x1 DUP3 MUL DUP4 ADD GT ISZERO PUSH2 0xB03 JUMPI PUSH2 0xB02 PUSH2 0xAB1 JUMP JUMPDEST JUMPDEST SWAP3 POP SWAP3 SWAP1 POP JUMP JUMPDEST PUSH0 PUSH0 DUP4 PUSH1 0x1F DUP5 ADD SLT PUSH2 0xB1F JUMPI PUSH2 0xB1E PUSH2 0xAA9 JUMP JUMPDEST JUMPDEST DUP3 CALLDATALOAD SWAP1 POP PUSH8 0xFFFFFFFFFFFFFFFF DUP2 GT ISZERO PUSH2 0xB3C JUMPI PUSH2 0xB3B PUSH2 0xAAD JUMP JUMPDEST JUMPDEST PUSH1 0x20 DUP4 ADD SWAP2 POP DUP4 PUSH1 0x1 DUP3 MUL DUP4 ADD GT ISZERO PUSH2 0xB58 JUMPI PUSH2 0xB57 PUSH2 0xAB1 JUMP JUMPDEST JUMPDEST SWAP3 POP SWAP3 SWAP1 POP JUMP JUMPDEST PUSH0 PUSH0 PUSH0 PUSH0 PUSH0 PUSH0 PUSH0 PUSH1 0xA0 DUP9 DUP11 SUB SLT ISZERO PUSH2 0xB7A JUMPI PUSH2 0xB79 PUSH2 0x95B JUMP JUMPDEST JUMPDEST PUSH0 PUSH2 0xB87 DUP11 DUP3 DUP12 ADD PUSH2 0xA6B JUMP JUMPDEST SWAP8 POP POP PUSH1 0x20 PUSH2 0xB98 DUP11 DUP3 DUP12 ADD PUSH2 0xA95 JUMP JUMPDEST SWAP7 POP POP PUSH1 0x40 DUP9 ADD CALLDATALOAD PUSH8 0xFFFFFFFFFFFFFFFF DUP2 GT ISZERO PUSH2 0xBB9 JUMPI PUSH2 0xBB8 PUSH2 0x95F JUMP JUMPDEST JUMPDEST PUSH2 0xBC5 DUP11 DUP3 DUP12 ADD PUSH2 0xAB5 JUMP JUMPDEST SWAP6 POP SWAP6 POP POP PUSH1 0x60 DUP9 ADD CALLDATALOAD PUSH8 0xFFFFFFFFFFFFFFFF DUP2 GT ISZERO PUSH2 0xBE8 JUMPI PUSH2 0xBE7 PUSH2 0x95F JUMP JUMPDEST JUMPDEST PUSH2 0xBF4 DUP11 DUP3 DUP12 ADD PUSH2 0xB0A JUMP JUMPDEST SWAP4 POP SWAP4 POP POP PUSH1 0x80 PUSH2 0xC07 DUP11 DUP3 DUP12 ADD PUSH2 0xA95 JUMP JUMPDEST SWAP2 POP POP SWAP3 SWAP6 SWAP9 SWAP2 SWAP5 SWAP8 POP SWAP3 SWAP6 POP JUMP JUMPDEST PUSH2 0xC1F DUP2 PUSH2 0x963 JUMP JUMPDEST DUP3 MSTORE POP POP JUMP JUMPDEST PUSH0 PUSH1 0x20 DUP3 ADD SWAP1 POP PUSH2 0xC38 PUSH0 DUP4 ADD DUP5 PUSH2 0xC16 JUMP JUMPDEST SWAP3 SWAP2 POP POP JUMP JUMPDEST PUSH2 0xC47 DUP2 PUSH2 0xA44 JUMP JUMPDEST DUP3 MSTORE POP POP JUMP JUMPDEST PUSH0 PUSH1 0x20 DUP3 ADD SWAP1 POP PUSH2 0xC60 PUSH0 DUP4 ADD DUP5 PUSH2 0xC3E JUMP JUMPDEST SWAP3 SWAP2 POP POP JUMP JUMPDEST PUSH0 DUP2 MLOAD SWAP1 POP SWAP2 SWAP1 POP JUMP JUMPDEST PUSH0 DUP3 DUP3 MSTORE PUSH1 0x20 DUP3 ADD SWAP1 POP SWAP3 SWAP2 POP POP JUMP JUMPDEST DUP3 DUP2 DUP4 MCOPY PUSH0 DUP4 DUP4 ADD MSTORE POP POP POP JUMP JUMPDEST PUSH0 PUSH1 0x1F NOT PUSH1 0x1F DUP4 ADD AND SWAP1 POP SWAP2 SWAP1 POP JUMP JUMPDEST PUSH0 PUSH2 0xCA8 DUP3 PUSH2 0xC66 JUMP JUMPDEST PUSH2 0xCB2 DUP2 DUP6 PUSH2 0xC70 JUMP JUMPDEST SWAP4 POP PUSH2 0xCC2 DUP2 DUP6 PUSH1 0x20 DUP7 ADD PUSH2 0xC80 JUMP JUMPDEST PUSH2 0xCCB DUP2 PUSH2 0xC8E JUMP JUMPDEST DUP5 ADD SWAP2 POP POP SWAP3 SWAP2 POP POP JUMP JUMPDEST PUSH0 PUSH1 0x20 DUP3 ADD SWAP1 POP DUP2 DUP2 SUB PUSH0 DUP4 ADD MSTORE PUSH2 0xCEE DUP2 DUP5 PUSH2 0xC9E JUMP JUMPDEST SWAP1 POP SWAP3 SWAP2 POP POP JUMP JUMPDEST PUSH32 0x4E487B7100000000000000000000000000000000000000000000000000000000 PUSH0 MSTORE PUSH1 0x11 PUSH1 0x4 MSTORE PUSH1 0x24 PUSH0 REVERT JUMPDEST PUSH0 PUSH2 0xD2D DUP3 PUSH2 0x9F4 JUMP JUMPDEST SWAP2 POP PUSH2 0xD38 DUP4 PUSH2 0x9F4 JUMP JUMPDEST SWAP3 POP DUP3 DUP3 ADD SWAP1 POP DUP1 DUP3 GT ISZERO PUSH2 0xD50 JUMPI PUSH2 0xD4F PUSH2 0xCF6 JUMP JUMPDEST JUMPDEST SWAP3 SWAP2 POP POP JUMP JUMPDEST PUSH0 PUSH1 0x40 DUP3 ADD SWAP1 POP PUSH2 0xD69 PUSH0 DUP4 ADD DUP6 PUSH2 0x9FD JUMP JUMPDEST PUSH2 0xD76 PUSH1 0x20 DUP4 ADD DUP5 PUSH2 0x9FD JUMP JUMPDEST SWAP4 SWAP3 POP POP POP JUMP JUMPDEST PUSH0 DUP3 DUP3 MSTORE PUSH1 0x20 DUP3 ADD SWAP1 POP SWAP3 SWAP2 POP POP JUMP JUMPDEST DUP3 DUP2 DUP4 CALLDATACOPY PUSH0 DUP4 DUP4 ADD MSTORE POP POP POP JUMP JUMPDEST PUSH0 PUSH2 0xDA6 DUP4 DUP6 PUSH2 0xD7D JUMP JUMPDEST SWAP4 POP PUSH2 0xDB3 DUP4 DUP6 DUP5 PUSH2 0xD8D JUMP JUMPDEST PUSH2 0xDBC DUP4 PUSH2 0xC8E JUMP JUMPDEST DUP5 ADD SWAP1 POP SWAP4 SWAP3 POP POP POP JUMP JUMPDEST PUSH0 PUSH2 0xDD2 DUP4 DUP6 PUSH2 0xC70 JUMP JUMPDEST SWAP4 POP PUSH2 0xDDF DUP4 DUP6 DUP5 PUSH2 0xD8D JUMP JUMPDEST PUSH2 0xDE8 DUP4 PUSH2 0xC8E JUMP JUMPDEST DUP5 ADD SWAP1 POP SWAP4 SWAP3 POP POP POP JUMP JUMPDEST PUSH0 PUSH1 0x80 DUP3 ADD SWAP1 POP PUSH2 0xE06 PUSH0 DUP4 ADD DUP10 PUSH2 0x9FD JUMP JUMPDEST DUP2 DUP2 SUB PUSH1 0x20 DUP4 ADD MSTORE PUSH2 0xE19 DUP2 DUP8 DUP10 PUSH2 0xD9B JUMP JUMPDEST SWAP1 POP DUP2 DUP2 SUB PUSH1 0x40 DUP4 ADD MSTORE PUSH2 0xE2E DUP2 DUP6 DUP8 PUSH2 0xDC7 JUMP JUMPDEST SWAP1 POP PUSH2 0xE3D PUSH1 0x60 DUP4 ADD DUP5 PUSH2 0x9FD JUMP JUMPDEST SWAP8 SWAP7 POP POP POP POP POP POP POP JUMP JUMPDEST PUSH0 PUSH1 0xA0 DUP3 ADD SWAP1 POP PUSH2 0xE5B PUSH0 DUP4 ADD DUP11 PUSH2 0xC3E JUMP JUMPDEST PUSH2 0xE68 PUSH1 0x20 DUP4 ADD DUP10 PUSH2 0x9FD JUMP JUMPDEST DUP2 DUP2 SUB PUSH1 0x40 DUP4 ADD MSTORE PUSH2 0xE7B DUP2 DUP8 DUP10 PUSH2 0xD9B JUMP JUMPDEST SWAP1 POP DUP2 DUP2 SUB PUSH1 0x60 DUP4 ADD MSTORE PUSH2 0xE90 DUP2 DUP6 DUP8 PUSH2 0xDC7 JUMP JUMPDEST SWAP1 POP PUSH2 0xE9F PUSH1 0x80 DUP4 ADD DUP5 PUSH2 0x9FD JUMP JUMPDEST SWAP9 SWAP8 POP POP POP POP POP POP POP POP JUMP JUMPDEST PUSH0 DUP2 SWAP1 POP SWAP3 SWAP2 POP POP JUMP JUMPDEST PUSH0 PUSH2 0xEC0 DUP4 DUP6 PUSH2 0xEAB JUMP JUMPDEST SWAP4 POP PUSH2 0xECD DUP4 DUP6 DUP5 PUSH2 0xD8D JUMP JUMPDEST DUP3 DUP5 ADD SWAP1 POP SWAP4 SWAP3 POP POP POP JUMP JUMPDEST PUSH0 PUSH2 0xEE5 DUP3 DUP5 DUP7 PUSH2 0xEB5 JUMP JUMPDEST SWAP2 POP DUP2 SWAP1 POP SWAP4 SWAP3 POP POP POP JUMP JUMPDEST PUSH0 PUSH32 0xFFFFFFFF00000000000000000000000000000000000000000000000000000000 DUP3 AND SWAP1 POP SWAP2 SWAP1 POP JUMP JUMPDEST PUSH0 DUP2 SWAP1 POP SWAP2 SWAP1 POP JUMP JUMPDEST PUSH2 0xF36 PUSH2 0xF31 DUP3 PUSH2 0xEF1 JUMP JUMPDEST PUSH2 0xF1C JUMP JUMPDEST DUP3 MSTORE POP POP JUMP JUMPDEST PUSH0 PUSH2 0xF47 DUP3 DUP7 PUSH2 0xF25 JUMP JUMPDEST PUSH1 0x4 DUP3 ADD SWAP2 POP PUSH2 0xF58 DUP3 DUP5 DUP7 PUSH2 0xEB5 JUMP JUMPDEST SWAP2 POP DUP2 SWAP1 POP SWAP5 SWAP4 POP POP POP POP JUMP JUMPDEST PUSH0 PUSH2 0xF6F DUP3 PUSH2 0xC66 JUMP JUMPDEST PUSH2 0xF79 DUP2 DUP6 PUSH2 0xEAB JUMP JUMPDEST SWAP4 POP PUSH2 0xF89 DUP2 DUP6 PUSH1 0x20 DUP7 ADD PUSH2 0xC80 JUMP JUMPDEST DUP1 DUP5 ADD SWAP2 POP POP SWAP3 SWAP2 POP POP JUMP JUMPDEST PUSH0 PUSH2 0xFA0 DUP3 DUP5 PUSH2 0xF65 JUMP JUMPDEST SWAP2 POP DUP2 SWAP1 POP SWAP3 SWAP2 POP POP JUMP INVALID LOG2 PUSH5 0x6970667358 0x22 SLT KECCAK256 COINBASE 0xCC PUSH0 SSTORE PUSH25 0x3658F8D81C05F156140465414B539C36E2E7639F1C4E14EDE9 0xD7 BYTE PUSH5 0x736F6C6343 STOP ADDMOD SHR STOP CALLER "
				},
				"gasEstimates": {
					"creation": {
						"codeDepositCost": "813000",
						"executionCost": "25113",
						"totalCost": "838113"
					},
					"external": {
						"GRACE_PERIOD()": "391",
						"MAX_DELAY()": "348",
						"MIN_DELAY()": "347",
						"cancel(bytes32)": "infinite",
						"execute(address,uint256,string,bytes,uint256)": "infinite",
						"getTxId(address,uint256,string,bytes,uint256)": "infinite",
						"owner()": "2507",
						"queue(address,uint256,string,bytes,uint256)": "infinite",
						"queued(bytes32)": "2786"
					}
				},
				"methodIdentifiers": {
					"GRACE_PERIOD()": "c1a287e2",
					"MAX_DELAY()": "4125ff90",
					"MIN_DELAY()": "9f81aed7",
					"cancel(bytes32)": "c4d252f5",
					"execute(address,uint256,string,bytes,uint256)": "b0f8b142",
					"getTxId(address,uint256,string,bytes,uint256)": "8a1ce0b6",
					"owner()": "8da5cb5b",
					"queue(address,uint256,string,bytes,uint256)": "4b9915a5",
					"queued(bytes32)": "228250c9"
				}
			},
			"storageLayout": {
				"storage": [
					{
						"astId": 74,
						"contract": "contracts/program/TimeLock.sol:TimeLock",
						"label": "owner",
						"offset": 0,
						"slot": "0",
						"type": "t_address"
					},
					{
						"astId": 78,
						"contract": "contracts/program/TimeLock.sol:TimeLock",
						"label": "queued",
						"offset": 0,
						"slot": "1",
						"type": "t_mapping(t_bytes32,t_bool)"
					}
				],
				"types": {
					"t_address": {
						"encoding": "inplace",
						"label": "address",
						"numberOfBytes": "20"
					},
					"t_bool": {
						"encoding": "inplace",
						"label": "bool",
						"numberOfBytes": "1"
					},
					"t_bytes32": {
						"encoding": "inplace",
						"label": "bytes32",
						"numberOfBytes": "32"
					},
					"t_mapping(t_bytes32,t_bool)": {
						"encoding": "mapping",
						"key": "t_bytes32",
						"label": "mapping(bytes32 => bool)",
						"numberOfBytes": "32",
						"value": "t_bool"
					}
				}
			},
			"userdoc": {
				"kind": "user",
				"methods": {},
				"version": 1
			}
		}
	}
}