{
	"contracts/vault/vault02.sol": {
		"ERC4626": {
			"abi": [
				{
					"inputs": [
						{
							"internalType": "contract ERC20",
							"name": "asset_",
							"type": "address"
						},
						{
							"internalType": "string",
							"name": "name_",
							"type": "string"
						},
						{
							"internalType": "string",
							"name": "symbol_",
							"type": "string"
						}
					],
					"stateMutability": "nonpayable",
					"type": "constructor"
				},
				{
					"inputs": [
						{
							"internalType": "address",
							"name": "spender",
							"type": "address"
						},
						{
							"internalType": "uint256",
							"name": "allowance",
							"type": "uint256"
						},
						{
							"internalType": "uint256",
							"name": "needed",
							"type": "uint256"
						}
					],
					"name": "ERC20InsufficientAllowance",
					"type": "error"
				},
				{
					"inputs": [
						{
							"internalType": "address",
							"name": "sender",
							"type": "address"
						},
						{
							"internalType": "uint256",
							"name": "balance",
							"type": "uint256"
						},
						{
							"internalType": "uint256",
							"name": "needed",
							"type": "uint256"
						}
					],
					"name": "ERC20InsufficientBalance",
					"type": "error"
				},
				{
					"inputs": [
						{
							"internalType": "address",
							"name": "approver",
							"type": "address"
						}
					],
					"name": "ERC20InvalidApprover",
					"type": "error"
				},
				{
					"inputs": [
						{
							"internalType": "address",
							"name": "receiver",
							"type": "address"
						}
					],
					"name": "ERC20InvalidReceiver",
					"type": "error"
				},
				{
					"inputs": [
						{
							"internalType": "address",
							"name": "sender",
							"type": "address"
						}
					],
					"name": "ERC20InvalidSender",
					"type": "error"
				},
				{
					"inputs": [
						{
							"internalType": "address",
							"name": "spender",
							"type": "address"
						}
					],
					"name": "ERC20InvalidSpender",
					"type": "error"
				},
				{
					"anonymous": false,
					"inputs": [
						{
							"indexed": true,
							"internalType": "address",
							"name": "owner",
							"type": "address"
						},
						{
							"indexed": true,
							"internalType": "address",
							"name": "spender",
							"type": "address"
						},
						{
							"indexed": false,
							"internalType": "uint256",
							"name": "value",
							"type": "uint256"
						}
					],
					"name": "Approval",
					"type": "event"
				},
				{
					"anonymous": false,
					"inputs": [
						{
							"indexed": true,
							"internalType": "address",
							"name": "sender",
							"type": "address"
						},
						{
							"indexed": true,
							"internalType": "address",
							"name": "owner",
							"type": "address"
						},
						{
							"indexed": false,
							"internalType": "uint256",
							"name": "assets",
							"type": "uint256"
						},
						{
							"indexed": false,
							"internalType": "uint256",
							"name": "shares",
							"type": "uint256"
						}
					],
					"name": "Deposit",
					"type": "event"
				},
				{
					"anonymous": false,
					"inputs": [
						{
							"indexed": true,
							"internalType": "address",
							"name": "from",
							"type": "address"
						},
						{
							"indexed": true,
							"internalType": "address",
							"name": "to",
							"type": "address"
						},
						{
							"indexed": false,
							"internalType": "uint256",
							"name": "value",
							"type": "uint256"
						}
					],
					"name": "Transfer",
					"type": "event"
				},
				{
					"anonymous": false,
					"inputs": [
						{
							"indexed": true,
							"internalType": "address",
							"name": "sender",
							"type": "address"
						},
						{
							"indexed": true,
							"internalType": "address",
							"name": "receiver",
							"type": "address"
						},
						{
							"indexed": true,
							"internalType": "address",
							"name": "owner",
							"type": "address"
						},
						{
							"indexed": false,
							"internalType": "uint256",
							"name": "assets",
							"type": "uint256"
						},
						{
							"indexed": false,
							"internalType": "uint256",
							"name": "shares",
							"type": "uint256"
						}
					],
					"name": "Withdraw",
					"type": "event"
				},
				{
					"inputs": [
						{
							"internalType": "address",
							"name": "owner",
							"type": "address"
						},
						{
							"internalType": "address",
							"name": "spender",
							"type": "address"
						}
					],
					"name": "allowance",
					"outputs": [
						{
							"internalType": "uint256",
							"name": "",
							"type": "uint256"
						}
					],
					"stateMutability": "view",
					"type": "function"
				},
				{
					"inputs": [
						{
							"internalType": "address",
							"name": "spender",
							"type": "address"
						},
						{
							"internalType": "uint256",
							"name": "value",
							"type": "uint256"
						}
					],
					"name": "approve",
					"outputs": [
						{
							"internalType": "bool",
							"name": "",
							"type": "bool"
						}
					],
					"stateMutability": "nonpayable",
					"type": "function"
				},
				{
					"inputs": [],
					"name": "asset",
					"outputs": [
						{
							"internalType": "address",
							"name": "",
							"type": "address"
						}
					],
					"stateMutability": "view",
					"type": "function"
				},
				{
					"inputs": [
						{
							"internalType": "address",
							"name": "account",
							"type": "address"
						}
					],
					"name": "balanceOf",
					"outputs": [
						{
							"internalType": "uint256",
							"name": "",
							"type": "uint256"
						}
					],
					"stateMutability": "view",
					"type": "function"
				},
				{
					"inputs": [
						{
							"internalType": "uint256",
							"name": "shares",
							"type": "uint256"
						}
					],
					"name": "convertToAssets",
					"outputs": [
						{
							"internalType": "uint256",
							"name": "",
							"type": "uint256"
						}
					],
					"stateMutability": "view",
					"type": "function"
				},
				{
					"inputs": [
						{
							"internalType": "uint256",
							"name": "assets",
							"type": "uint256"
						}
					],
					"name": "convertToShares",
					"outputs": [
						{
							"internalType": "uint256",
							"name": "",
							"type": "uint256"
						}
					],
					"stateMutability": "view",
					"type": "function"
				},
				{
					"inputs": [],
					"name": "decimals",
					"outputs": [
						{
							"internalType": "uint8",
							"name": "",
							"type": "uint8"
						}
					],
					"stateMutability": "view",
					"type": "function"
				},
				{
					"inputs": [
						{
							"internalType": "uint256",
							"name": "assets",
							"type": "uint256"
						},
						{
							"internalType": "address",
							"name": "receiver",
							"type": "address"
						}
					],
					"name": "deposit",
					"outputs": [
						{
							"internalType": "uint256",
							"name": "shares",
							"type": "uint256"
						}
					],
					"stateMutability": "nonpayable",
					"type": "function"
				},
				{
					"inputs": [
						{
							"internalType": "address",
							"name": "",
							"type": "address"
						}
					],
					"name": "maxDeposit",
					"outputs": [
						{
							"internalType": "uint256",
							"name": "",
							"type": "uint256"
						}
					],
					"stateMutability": "view",
					"type": "function"
				},
				{
					"inputs": [
						{
							"internalType": "address",
							"name": "",
							"type": "address"
						}
					],
					"name": "maxMint",
					"outputs": [
						{
							"internalType": "uint256",
							"name": "",
							"type": "uint256"
						}
					],
					"stateMutability": "view",
					"type": "function"
				},
				{
					"inputs": [
						{
							"internalType": "address",
							"name": "owner",
							"type": "address"
						}
					],
					"name": "maxRedeem",
					"outputs": [
						{
							"internalType": "uint256",
							"name": "",
							"type": "uint256"
						}
					],
					"stateMutability": "view",
					"type": "function"
				},
				{
					"inputs": [
						{
							"internalType": "address",
							"name": "owner",
							"type": "address"
						}
					],
					"name": "maxWithdraw",
					"outputs": [
						{
							"internalType": "uint256",
							"name": "",
							"type": "uint256"
						}
					],
					"stateMutability": "view",
					"type": "function"
				},
				{
					"inputs": [
						{
							"internalType": "uint256",
							"name": "shares",
							"type": "uint256"
						},
						{
							"internalType": "address",
							"name": "receiver",
							"type": "address"
						}
					],
					"name": "mint",
					"outputs": [
						{
							"internalType": "uint256",
							"name": "assets",
							"type": "uint256"
						}
					],
					"stateMutability": "nonpayable",
					"type": "function"
				},
				{
					"inputs": [],
					"name": "name",
					"outputs": [
						{
							"internalType": "string",
							"name": "",
							"type": "string"
						}
					],
					"stateMutability": "view",
					"type": "function"
				},
				{
					"inputs": [
						{
							"internalType": "uint256",
							"name": "assets",
							"type": "uint256"
						}
					],
					"name": "previewDeposit",
					"outputs": [
						{
							"internalType": "uint256",
							"name": "",
							"type": "uint256"
						}
					],
					"stateMutability": "view",
					"type": "function"
				},
				{
					"inputs": [
						{
							"internalType": "uint256",
							"name": "shares",
							"type": "uint256"
						}
					],
					"name": "previewMint",
					"outputs": [
						{
							"internalType": "uint256",
							"name": "",
							"type": "uint256"
						}
					],
					"stateMutability": "view",
					"type": "function"
				},
				{
					"inputs": [
						{
							"internalType": "uint256",
							"name": "shares",
							"type": "uint256"
						}
					],
					"name": "previewRedeem",
					"outputs": [
						{
							"internalType": "uint256",
							"name": "",
							"type": "uint256"
						}
					],
					"stateMutability": "view",
					"type": "function"
				},
				{
					"inputs": [
						{
							"internalType": "uint256",
							"name": "assets",
							"type": "uint256"
						}
					],
					"name": "previewWithdraw",
					"outputs": [
						{
							"internalType": "uint256",
							"name": "",
							"type": "uint256"
						}
					],
					"stateMutability": "view",
					"type": "function"
				},
				{
					"inputs": [
						{
							"internalType": "uint256",
							"name": "shares",
							"type": "uint256"
						},
						{
							"internalType": "address",
							"name": "receiver",
							"type": "address"
						},
						{
							"internalType": "address",
							"name": "owner",
							"type": "address"
						}
					],
					"name": "redeem",
					"outputs": [
						{
							"internalType": "uint256",
							"name": "assets",
							"type": "uint256"
						}
					],
					"stateMutability": "nonpayable",
					"type": "function"
				},
				{
					"inputs": [],
					"name": "symbol",
					"outputs": [
						{
							"internalType": "string",
							"name": "",
							"type": "string"
						}
					],
					"stateMutability": "view",
					"type": "function"
				},
				{
					"inputs": [],
					"name": "totalAssets",
					"outputs": [
						{
							"internalType": "uint256",
							"name": "",
							"type": "uint256"
						}
					],
					"stateMutability": "view",
					"type": "function"
				},
				{
					"inputs": [],
					"name": "totalSupply",
					"outputs": [
						{
							"internalType": "uint256",
							"name": "",
							"type": "uint256"
						}
					],
					"stateMutability": "view",
					"type": "function"
				},
				{
					"inputs": [
						{
							"internalType": "address",
							"name": "to",
							"type": "address"
						},
						{
							"internalType": "uint256",
							"name": "value",
							"type": "uint256"
						}
					],
					"name": "transfer",
					"outputs": [
						{
							"internalType": "bool",
							"name": "",
							"type": "bool"
						}
					],
					"stateMutability": "nonpayable",
					"type": "function"
				},
				{
					"inputs": [
						{
							"internalType": "address",
							"name": "from",
							"type": "address"
						},
						{
							"internalType": "address",
							"name": "to",
							"type": "address"
						},
						{
							"internalType": "uint256",
							"name": "value",
							"type": "uint256"
						}
					],
					"name": "transferFrom",
					"outputs": [
						{
							"internalType": "bool",
							"name": "",
							"type": "bool"
						}
					],
					"stateMutability": "nonpayable",
					"type": "function"
				},
				{
					"inputs": [
						{
							"internalType": "uint256",
							"name": "assets",
							"type": "uint256"
						},
						{
							"internalType": "address",
							"name": "receiver",
							"type": "address"
						},
						{
							"internalType": "address",
							"name": "owner",
							"type": "address"
						}
					],
					"name": "withdraw",
					"outputs": [
						{
							"internalType": "uint256",
							"name": "shares",
							"type": "uint256"
						}
					],
					"stateMutability": "nonpayable",
					"type": "function"
				}
			],
			"devdoc": {
				"errors": {
					"ERC20InsufficientAllowance(address,uint256,uint256)": [
						{
							"details": "Indicates a failure with the `spender`’s `allowance`. Used in transfers.",
							"params": {
								"allowance": "Amount of tokens a `spender` is allowed to operate with.",
								"needed": "Minimum amount required to perform a transfer.",
								"spender": "Address that may be allowed to operate on tokens without being their owner."
							}
						}
					],
					"ERC20InsufficientBalance(address,uint256,uint256)": [
						{
							"details": "Indicates an error related to the current `balance` of a `sender`. Used in transfers.",
							"params": {
								"balance": "Current balance for the interacting account.",
								"needed": "Minimum amount required to perform a transfer.",
								"sender": "Address whose tokens are being transferred."
							}
						}
					],
					"ERC20InvalidApprover(address)": [
						{
							"details": "Indicates a failure with the `approver` of a token to be approved. Used in approvals.",
							"params": {
								"approver": "Address initiating an approval operation."
							}
						}
					],
					"ERC20InvalidReceiver(address)": [
						{
							"details": "Indicates a failure with the token `receiver`. Used in transfers.",
							"params": {
								"receiver": "Address to which tokens are being transferred."
							}
						}
					],
					"ERC20InvalidSender(address)": [
						{
							"details": "Indicates a failure with the token `sender`. Used in transfers.",
							"params": {
								"sender": "Address whose tokens are being transferred."
							}
						}
					],
					"ERC20InvalidSpender(address)": [
						{
							"details": "Indicates a failure with the `spender` to be approved. Used in approvals.",
							"params": {
								"spender": "Address that may be allowed to operate on tokens without being their owner."
							}
						}
					]
				},
				"events": {
					"Approval(address,address,uint256)": {
						"details": "Emitted when the allowance of a `spender` for an `owner` is set by a call to {approve}. `value` is the new allowance."
					},
					"Transfer(address,address,uint256)": {
						"details": "Emitted when `value` tokens are moved from one account (`from`) to another (`to`). Note that `value` may be zero."
					}
				},
				"kind": "dev",
				"methods": {
					"allowance(address,address)": {
						"details": "See {IERC20-allowance}."
					},
					"approve(address,uint256)": {
						"details": "See {IERC20-approve}. NOTE: If `value` is the maximum `uint256`, the allowance is not updated on `transferFrom`. This is semantically equivalent to an infinite approval. Requirements: - `spender` cannot be the zero address."
					},
					"asset()": {
						"details": "Returns the address of the underlying token used for the Vault for accounting, depositing, and withdrawing. - MUST be an ERC-20 token contract. - MUST NOT revert."
					},
					"balanceOf(address)": {
						"details": "See {IERC20-balanceOf}."
					},
					"convertToAssets(uint256)": {
						"details": "Returns the amount of assets that the Vault would exchange for the amount of shares provided, in an ideal scenario where all the conditions are met. - MUST NOT be inclusive of any fees that are charged against assets in the Vault. - MUST NOT show any variations depending on the caller. - MUST NOT reflect slippage or other on-chain conditions, when performing the actual exchange. - MUST NOT revert. NOTE: This calculation MAY NOT reflect the “per-user” price-per-share, and instead should reflect the “average-user’s” price-per-share, meaning what the average user should expect to see when exchanging to and from."
					},
					"convertToShares(uint256)": {
						"details": "Returns the amount of shares that the Vault would exchange for the amount of assets provided, in an ideal scenario where all the conditions are met. - MUST NOT be inclusive of any fees that are charged against assets in the Vault. - MUST NOT show any variations depending on the caller. - MUST NOT reflect slippage or other on-chain conditions, when performing the actual exchange. - MUST NOT revert. NOTE: This calculation MAY NOT reflect the “per-user” price-per-share, and instead should reflect the “average-user’s” price-per-share, meaning what the average user should expect to see when exchanging to and from."
					},
					"decimals()": {
						"details": "Returns the number of decimals used to get its user representation. For example, if `decimals` equals `2`, a balance of `505` tokens should be displayed to a user as `5.05` (`505 / 10 ** 2`). Tokens usually opt for a value of 18, imitating the relationship between Ether and Wei. This is the default value returned by this function, unless it's overridden. NOTE: This information is only used for _display_ purposes: it in no way affects any of the arithmetic of the contract, including {IERC20-balanceOf} and {IERC20-transfer}."
					},
					"deposit(uint256,address)": {
						"details": "Mints shares Vault shares to receiver by depositing exactly amount of underlying tokens. - MUST emit the Deposit event. - MAY support an additional flow in which the underlying tokens are owned by the Vault contract before the   deposit execution, and are accounted for during deposit. - MUST revert if all of assets cannot be deposited (due to deposit limit being reached, slippage, the user not   approving enough underlying tokens to the Vault contract, etc). NOTE: most implementations will require pre-approval of the Vault with the Vault’s underlying asset token."
					},
					"maxRedeem(address)": {
						"details": "Returns the maximum amount of Vault shares that can be redeemed from the owner balance in the Vault, through a redeem call. - MUST return a limited value if owner is subject to some withdrawal limit or timelock. - MUST return balanceOf(owner) if owner is not subject to any withdrawal limit or timelock. - MUST NOT revert."
					},
					"maxWithdraw(address)": {
						"details": "Returns the maximum amount of the underlying asset that can be withdrawn from the owner balance in the Vault, through a withdraw call. - MUST return a limited value if owner is subject to some withdrawal limit or timelock. - MUST NOT revert."
					},
					"mint(uint256,address)": {
						"details": "Mints exactly shares Vault shares to receiver by depositing amount of underlying tokens. - MUST emit the Deposit event. - MAY support an additional flow in which the underlying tokens are owned by the Vault contract before the mint   execution, and are accounted for during mint. - MUST revert if all of shares cannot be minted (due to deposit limit being reached, slippage, the user not   approving enough underlying tokens to the Vault contract, etc). NOTE: most implementations will require pre-approval of the Vault with the Vault’s underlying asset token."
					},
					"name()": {
						"details": "Returns the name of the token."
					},
					"previewDeposit(uint256)": {
						"details": "Allows an on-chain or off-chain user to simulate the effects of their deposit at the current block, given current on-chain conditions. - MUST return as close to and no more than the exact amount of Vault shares that would be minted in a deposit   call in the same transaction. I.e. deposit should return the same or more shares as previewDeposit if called   in the same transaction. - MUST NOT account for deposit limits like those returned from maxDeposit and should always act as though the   deposit would be accepted, regardless if the user has enough tokens approved, etc. - MUST be inclusive of deposit fees. Integrators should be aware of the existence of deposit fees. - MUST NOT revert. NOTE: any unfavorable discrepancy between convertToShares and previewDeposit SHOULD be considered slippage in share price or some other type of condition, meaning the depositor will lose assets by depositing."
					},
					"previewMint(uint256)": {
						"details": "Allows an on-chain or off-chain user to simulate the effects of their mint at the current block, given current on-chain conditions. - MUST return as close to and no fewer than the exact amount of assets that would be deposited in a mint call   in the same transaction. I.e. mint should return the same or fewer assets as previewMint if called in the   same transaction. - MUST NOT account for mint limits like those returned from maxMint and should always act as though the mint   would be accepted, regardless if the user has enough tokens approved, etc. - MUST be inclusive of deposit fees. Integrators should be aware of the existence of deposit fees. - MUST NOT revert. NOTE: any unfavorable discrepancy between convertToAssets and previewMint SHOULD be considered slippage in share price or some other type of condition, meaning the depositor will lose assets by minting."
					},
					"previewRedeem(uint256)": {
						"details": "Allows an on-chain or off-chain user to simulate the effects of their redeemption at the current block, given current on-chain conditions. - MUST return as close to and no more than the exact amount of assets that would be withdrawn in a redeem call   in the same transaction. I.e. redeem should return the same or more assets as previewRedeem if called in the   same transaction. - MUST NOT account for redemption limits like those returned from maxRedeem and should always act as though the   redemption would be accepted, regardless if the user has enough shares, etc. - MUST be inclusive of withdrawal fees. Integrators should be aware of the existence of withdrawal fees. - MUST NOT revert. NOTE: any unfavorable discrepancy between convertToAssets and previewRedeem SHOULD be considered slippage in share price or some other type of condition, meaning the depositor will lose assets by redeeming."
					},
					"previewWithdraw(uint256)": {
						"details": "Allows an on-chain or off-chain user to simulate the effects of their withdrawal at the current block, given current on-chain conditions. - MUST return as close to and no fewer than the exact amount of Vault shares that would be burned in a withdraw   call in the same transaction. I.e. withdraw should return the same or fewer shares as previewWithdraw if   called   in the same transaction. - MUST NOT account for withdrawal limits like those returned from maxWithdraw and should always act as though   the withdrawal would be accepted, regardless if the user has enough shares, etc. - MUST be inclusive of withdrawal fees. Integrators should be aware of the existence of withdrawal fees. - MUST NOT revert. NOTE: any unfavorable discrepancy between convertToShares and previewWithdraw SHOULD be considered slippage in share price or some other type of condition, meaning the depositor will lose assets by depositing."
					},
					"redeem(uint256,address,address)": {
						"details": "Burns exactly shares from owner and sends assets of underlying tokens to receiver. - MUST emit the Withdraw event. - MAY support an additional flow in which the underlying tokens are owned by the Vault contract before the   redeem execution, and are accounted for during redeem. - MUST revert if all of shares cannot be redeemed (due to withdrawal limit being reached, slippage, the owner   not having enough shares, etc). NOTE: some implementations will require pre-requesting to the Vault before a withdrawal may be performed. Those methods should be performed separately."
					},
					"symbol()": {
						"details": "Returns the symbol of the token, usually a shorter version of the name."
					},
					"totalAssets()": {
						"details": "Returns the total amount of the underlying asset that is “managed” by Vault. - SHOULD include any compounding that occurs from yield. - MUST be inclusive of any fees that are charged against assets in the Vault. - MUST NOT revert."
					},
					"totalSupply()": {
						"details": "See {IERC20-totalSupply}."
					},
					"transfer(address,uint256)": {
						"details": "See {IERC20-transfer}. Requirements: - `to` cannot be the zero address. - the caller must have a balance of at least `value`."
					},
					"transferFrom(address,address,uint256)": {
						"details": "See {IERC20-transferFrom}. Skips emitting an {Approval} event indicating an allowance update. This is not required by the ERC. See {xref-ERC20-_approve-address-address-uint256-bool-}[_approve]. NOTE: Does not update the allowance if the current allowance is the maximum `uint256`. Requirements: - `from` and `to` cannot be the zero address. - `from` must have a balance of at least `value`. - the caller must have allowance for ``from``'s tokens of at least `value`."
					},
					"withdraw(uint256,address,address)": {
						"details": "Burns shares from owner and sends exactly assets of underlying tokens to receiver. - MUST emit the Withdraw event. - MAY support an additional flow in which the underlying tokens are owned by the Vault contract before the   withdraw execution, and are accounted for during withdraw. - MUST revert if all of assets cannot be withdrawn (due to withdrawal limit being reached, slippage, the owner   not having enough shares, etc). Note that some implementations will require pre-requesting to the Vault before a withdrawal may be performed. Those methods should be performed separately."
					}
				},
				"version": 1
			},
			"evm": {
				"assembly": "    /* \"contracts/vault/vault02.sol\":216:4835  contract ERC4626 is ERC20, IERC4626 {... */\n  mstore(0x40, 0xa0)\n    /* \"contracts/vault/vault02.sol\":295:449  constructor(... */\n  callvalue\n  dup1\n  iszero\n  tag_1\n  jumpi\n  0x00\n  dup1\n  revert\ntag_1:\n  pop\n  mload(0x40)\n  sub(codesize, bytecodeSize)\n  dup1\n  bytecodeSize\n  dup4\n  codecopy\n  dup2\n  dup2\n  add\n  0x40\n  mstore\n  dup2\n  add\n  swap1\n  tag_2\n  swap2\n  swap1\n  tag_3\n  jump\t// in\ntag_2:\n    /* \"contracts/vault/vault02.sol\":401:406  name_ */\n  dup2\n    /* \"contracts/vault/vault02.sol\":408:415  symbol_ */\n  dup2\n    /* \"@openzeppelin/contracts/token/ERC20/ERC20.sol\":1675:1680  name_ */\n  dup2\n    /* \"@openzeppelin/contracts/token/ERC20/ERC20.sol\":1667:1672  _name */\n  0x03\n    /* \"@openzeppelin/contracts/token/ERC20/ERC20.sol\":1667:1680  _name = name_ */\n  swap1\n  dup2\n  tag_7\n  swap2\n  swap1\n  tag_8\n  jump\t// in\ntag_7:\n  pop\n    /* \"@openzeppelin/contracts/token/ERC20/ERC20.sol\":1700:1707  symbol_ */\n  dup1\n    /* \"@openzeppelin/contracts/token/ERC20/ERC20.sol\":1690:1697  _symbol */\n  0x04\n    /* \"@openzeppelin/contracts/token/ERC20/ERC20.sol\":1690:1707  _symbol = symbol_ */\n  swap1\n  dup2\n  tag_9\n  swap2\n  swap1\n  tag_8\n  jump\t// in\ntag_9:\n  pop\n    /* \"@openzeppelin/contracts/token/ERC20/ERC20.sol\":1601:1714  constructor(string memory name_, string memory symbol_) {... */\n  pop\n  pop\n    /* \"contracts/vault/vault02.sol\":436:442  asset_ */\n  dup3\n    /* \"contracts/vault/vault02.sol\":427:442  _asset = asset_ */\n  0xffffffffffffffffffffffffffffffffffffffff\n  and\n  0x80\n  dup2\n  0xffffffffffffffffffffffffffffffffffffffff\n  and\n  dup2\n  mstore\n  pop\n  pop\n    /* \"contracts/vault/vault02.sol\":295:449  constructor(... */\n  pop\n  pop\n  pop\n    /* \"contracts/vault/vault02.sol\":216:4835  contract ERC4626 is ERC20, IERC4626 {... */\n  jump(tag_11)\n    /* \"#utility.yul\":7:82   */\ntag_12:\n    /* \"#utility.yul\":40:46   */\n  0x00\n    /* \"#utility.yul\":73:75   */\n  0x40\n    /* \"#utility.yul\":67:76   */\n  mload\n    /* \"#utility.yul\":57:76   */\n  swap1\n  pop\n    /* \"#utility.yul\":7:82   */\n  swap1\n  jump\t// out\n    /* \"#utility.yul\":88:205   */\ntag_13:\n    /* \"#utility.yul\":197:198   */\n  0x00\n    /* \"#utility.yul\":194:195   */\n  dup1\n    /* \"#utility.yul\":187:199   */\n  revert\n    /* \"#utility.yul\":211:328   */\ntag_14:\n    /* \"#utility.yul\":320:321   */\n  0x00\n    /* \"#utility.yul\":317:318   */\n  dup1\n    /* \"#utility.yul\":310:322   */\n  revert\n    /* \"#utility.yul\":334:460   */\ntag_15:\n    /* \"#utility.yul\":371:378   */\n  0x00\n    /* \"#utility.yul\":411:453   */\n  0xffffffffffffffffffffffffffffffffffffffff\n    /* \"#utility.yul\":404:409   */\n  dup3\n    /* \"#utility.yul\":400:454   */\n  and\n    /* \"#utility.yul\":389:454   */\n  swap1\n  pop\n    /* \"#utility.yul\":334:460   */\n  swap2\n  swap1\n  pop\n  jump\t// out\n    /* \"#utility.yul\":466:562   */\ntag_16:\n    /* \"#utility.yul\":503:510   */\n  0x00\n    /* \"#utility.yul\":532:556   */\n  tag_55\n    /* \"#utility.yul\":550:555   */\n  dup3\n    /* \"#utility.yul\":532:556   */\n  tag_15\n  jump\t// in\ntag_55:\n    /* \"#utility.yul\":521:556   */\n  swap1\n  pop\n    /* \"#utility.yul\":466:562   */\n  swap2\n  swap1\n  pop\n  jump\t// out\n    /* \"#utility.yul\":568:677   */\ntag_17:\n    /* \"#utility.yul\":618:625   */\n  0x00\n    /* \"#utility.yul\":647:671   */\n  tag_57\n    /* \"#utility.yul\":665:670   */\n  dup3\n    /* \"#utility.yul\":647:671   */\n  tag_16\n  jump\t// in\ntag_57:\n    /* \"#utility.yul\":636:671   */\n  swap1\n  pop\n    /* \"#utility.yul\":568:677   */\n  swap2\n  swap1\n  pop\n  jump\t// out\n    /* \"#utility.yul\":683:831   */\ntag_18:\n    /* \"#utility.yul\":769:806   */\n  tag_59\n    /* \"#utility.yul\":800:805   */\n  dup2\n    /* \"#utility.yul\":769:806   */\n  tag_17\n  jump\t// in\ntag_59:\n    /* \"#utility.yul\":762:767   */\n  dup2\n    /* \"#utility.yul\":759:807   */\n  eq\n    /* \"#utility.yul\":749:825   */\n  tag_60\n  jumpi\n    /* \"#utility.yul\":821:822   */\n  0x00\n    /* \"#utility.yul\":818:819   */\n  dup1\n    /* \"#utility.yul\":811:823   */\n  revert\n    /* \"#utility.yul\":749:825   */\ntag_60:\n    /* \"#utility.yul\":683:831   */\n  pop\n  jump\t// out\n    /* \"#utility.yul\":837:1006   */\ntag_19:\n    /* \"#utility.yul\":907:912   */\n  0x00\n    /* \"#utility.yul\":938:944   */\n  dup2\n    /* \"#utility.yul\":932:945   */\n  mload\n    /* \"#utility.yul\":923:945   */\n  swap1\n  pop\n    /* \"#utility.yul\":954:1000   */\n  tag_62\n    /* \"#utility.yul\":994:999   */\n  dup2\n    /* \"#utility.yul\":954:1000   */\n  tag_18\n  jump\t// in\ntag_62:\n    /* \"#utility.yul\":837:1006   */\n  swap3\n  swap2\n  pop\n  pop\n  jump\t// out\n    /* \"#utility.yul\":1012:1129   */\ntag_20:\n    /* \"#utility.yul\":1121:1122   */\n  0x00\n    /* \"#utility.yul\":1118:1119   */\n  dup1\n    /* \"#utility.yul\":1111:1123   */\n  revert\n    /* \"#utility.yul\":1135:1252   */\ntag_21:\n    /* \"#utility.yul\":1244:1245   */\n  0x00\n    /* \"#utility.yul\":1241:1242   */\n  dup1\n    /* \"#utility.yul\":1234:1246   */\n  revert\n    /* \"#utility.yul\":1258:1360   */\ntag_22:\n    /* \"#utility.yul\":1299:1305   */\n  0x00\n    /* \"#utility.yul\":1350:1352   */\n  0x1f\n    /* \"#utility.yul\":1346:1353   */\n  not\n    /* \"#utility.yul\":1341:1343   */\n  0x1f\n    /* \"#utility.yul\":1334:1339   */\n  dup4\n    /* \"#utility.yul\":1330:1344   */\n  add\n    /* \"#utility.yul\":1326:1354   */\n  and\n    /* \"#utility.yul\":1316:1354   */\n  swap1\n  pop\n    /* \"#utility.yul\":1258:1360   */\n  swap2\n  swap1\n  pop\n  jump\t// out\n    /* \"#utility.yul\":1366:1546   */\ntag_23:\n    /* \"#utility.yul\":1414:1491   */\n  0x4e487b7100000000000000000000000000000000000000000000000000000000\n    /* \"#utility.yul\":1411:1412   */\n  0x00\n    /* \"#utility.yul\":1404:1492   */\n  mstore\n    /* \"#utility.yul\":1511:1515   */\n  0x41\n    /* \"#utility.yul\":1508:1509   */\n  0x04\n    /* \"#utility.yul\":1501:1516   */\n  mstore\n    /* \"#utility.yul\":1535:1539   */\n  0x24\n    /* \"#utility.yul\":1532:1533   */\n  0x00\n    /* \"#utility.yul\":1525:1540   */\n  revert\n    /* \"#utility.yul\":1552:1833   */\ntag_24:\n    /* \"#utility.yul\":1635:1662   */\n  tag_68\n    /* \"#utility.yul\":1657:1661   */\n  dup3\n    /* \"#utility.yul\":1635:1662   */\n  tag_22\n  jump\t// in\ntag_68:\n    /* \"#utility.yul\":1627:1633   */\n  dup2\n    /* \"#utility.yul\":1623:1663   */\n  add\n    /* \"#utility.yul\":1765:1771   */\n  dup2\n    /* \"#utility.yul\":1753:1763   */\n  dup2\n    /* \"#utility.yul\":1750:1772   */\n  lt\n    /* \"#utility.yul\":1729:1747   */\n  0xffffffffffffffff\n    /* \"#utility.yul\":1717:1727   */\n  dup3\n    /* \"#utility.yul\":1714:1748   */\n  gt\n    /* \"#utility.yul\":1711:1773   */\n  or\n    /* \"#utility.yul\":1708:1796   */\n  iszero\n  tag_69\n  jumpi\n    /* \"#utility.yul\":1776:1794   */\n  tag_70\n  tag_23\n  jump\t// in\ntag_70:\n    /* \"#utility.yul\":1708:1796   */\ntag_69:\n    /* \"#utility.yul\":1816:1826   */\n  dup1\n    /* \"#utility.yul\":1812:1814   */\n  0x40\n    /* \"#utility.yul\":1805:1827   */\n  mstore\n    /* \"#utility.yul\":1595:1833   */\n  pop\n    /* \"#utility.yul\":1552:1833   */\n  pop\n  pop\n  jump\t// out\n    /* \"#utility.yul\":1839:1968   */\ntag_25:\n    /* \"#utility.yul\":1873:1879   */\n  0x00\n    /* \"#utility.yul\":1900:1920   */\n  tag_72\n  tag_12\n  jump\t// in\ntag_72:\n    /* \"#utility.yul\":1890:1920   */\n  swap1\n  pop\n    /* \"#utility.yul\":1929:1962   */\n  tag_73\n    /* \"#utility.yul\":1957:1961   */\n  dup3\n    /* \"#utility.yul\":1949:1955   */\n  dup3\n    /* \"#utility.yul\":1929:1962   */\n  tag_24\n  jump\t// in\ntag_73:\n    /* \"#utility.yul\":1839:1968   */\n  swap2\n  swap1\n  pop\n  jump\t// out\n    /* \"#utility.yul\":1974:2282   */\ntag_26:\n    /* \"#utility.yul\":2036:2040   */\n  0x00\n    /* \"#utility.yul\":2126:2144   */\n  0xffffffffffffffff\n    /* \"#utility.yul\":2118:2124   */\n  dup3\n    /* \"#utility.yul\":2115:2145   */\n  gt\n    /* \"#utility.yul\":2112:2168   */\n  iszero\n  tag_75\n  jumpi\n    /* \"#utility.yul\":2148:2166   */\n  tag_76\n  tag_23\n  jump\t// in\ntag_76:\n    /* \"#utility.yul\":2112:2168   */\ntag_75:\n    /* \"#utility.yul\":2186:2215   */\n  tag_77\n    /* \"#utility.yul\":2208:2214   */\n  dup3\n    /* \"#utility.yul\":2186:2215   */\n  tag_22\n  jump\t// in\ntag_77:\n    /* \"#utility.yul\":2178:2215   */\n  swap1\n  pop\n    /* \"#utility.yul\":2270:2274   */\n  0x20\n    /* \"#utility.yul\":2264:2268   */\n  dup2\n    /* \"#utility.yul\":2260:2275   */\n  add\n    /* \"#utility.yul\":2252:2275   */\n  swap1\n  pop\n    /* \"#utility.yul\":1974:2282   */\n  swap2\n  swap1\n  pop\n  jump\t// out\n    /* \"#utility.yul\":2288:2427   */\ntag_27:\n    /* \"#utility.yul\":2377:2383   */\n  dup3\n    /* \"#utility.yul\":2372:2375   */\n  dup2\n    /* \"#utility.yul\":2367:2370   */\n  dup4\n    /* \"#utility.yul\":2361:2384   */\n  mcopy\n    /* \"#utility.yul\":2418:2419   */\n  0x00\n    /* \"#utility.yul\":2409:2415   */\n  dup4\n    /* \"#utility.yul\":2404:2407   */\n  dup4\n    /* \"#utility.yul\":2400:2416   */\n  add\n    /* \"#utility.yul\":2393:2420   */\n  mstore\n    /* \"#utility.yul\":2288:2427   */\n  pop\n  pop\n  pop\n  jump\t// out\n    /* \"#utility.yul\":2433:2867   */\ntag_28:\n    /* \"#utility.yul\":2522:2527   */\n  0x00\n    /* \"#utility.yul\":2547:2613   */\n  tag_80\n    /* \"#utility.yul\":2563:2612   */\n  tag_81\n    /* \"#utility.yul\":2605:2611   */\n  dup5\n    /* \"#utility.yul\":2563:2612   */\n  tag_26\n  jump\t// in\ntag_81:\n    /* \"#utility.yul\":2547:2613   */\n  tag_25\n  jump\t// in\ntag_80:\n    /* \"#utility.yul\":2538:2613   */\n  swap1\n  pop\n    /* \"#utility.yul\":2636:2642   */\n  dup3\n    /* \"#utility.yul\":2629:2634   */\n  dup2\n    /* \"#utility.yul\":2622:2643   */\n  mstore\n    /* \"#utility.yul\":2674:2678   */\n  0x20\n    /* \"#utility.yul\":2667:2672   */\n  dup2\n    /* \"#utility.yul\":2663:2679   */\n  add\n    /* \"#utility.yul\":2712:2715   */\n  dup5\n    /* \"#utility.yul\":2703:2709   */\n  dup5\n    /* \"#utility.yul\":2698:2701   */\n  dup5\n    /* \"#utility.yul\":2694:2710   */\n  add\n    /* \"#utility.yul\":2691:2716   */\n  gt\n    /* \"#utility.yul\":2688:2800   */\n  iszero\n  tag_82\n  jumpi\n    /* \"#utility.yul\":2719:2798   */\n  tag_83\n  tag_21\n  jump\t// in\ntag_83:\n    /* \"#utility.yul\":2688:2800   */\ntag_82:\n    /* \"#utility.yul\":2809:2861   */\n  tag_84\n    /* \"#utility.yul\":2854:2860   */\n  dup5\n    /* \"#utility.yul\":2849:2852   */\n  dup3\n    /* \"#utility.yul\":2844:2847   */\n  dup6\n    /* \"#utility.yul\":2809:2861   */\n  tag_27\n  jump\t// in\ntag_84:\n    /* \"#utility.yul\":2528:2867   */\n  pop\n    /* \"#utility.yul\":2433:2867   */\n  swap4\n  swap3\n  pop\n  pop\n  pop\n  jump\t// out\n    /* \"#utility.yul\":2887:3242   */\ntag_29:\n    /* \"#utility.yul\":2954:2959   */\n  0x00\n    /* \"#utility.yul\":3003:3006   */\n  dup3\n    /* \"#utility.yul\":2996:3000   */\n  0x1f\n    /* \"#utility.yul\":2988:2994   */\n  dup4\n    /* \"#utility.yul\":2984:3001   */\n  add\n    /* \"#utility.yul\":2980:3007   */\n  slt\n    /* \"#utility.yul\":2970:3092   */\n  tag_86\n  jumpi\n    /* \"#utility.yul\":3011:3090   */\n  tag_87\n  tag_20\n  jump\t// in\ntag_87:\n    /* \"#utility.yul\":2970:3092   */\ntag_86:\n    /* \"#utility.yul\":3121:3127   */\n  dup2\n    /* \"#utility.yul\":3115:3128   */\n  mload\n    /* \"#utility.yul\":3146:3236   */\n  tag_88\n    /* \"#utility.yul\":3232:3235   */\n  dup5\n    /* \"#utility.yul\":3224:3230   */\n  dup3\n    /* \"#utility.yul\":3217:3221   */\n  0x20\n    /* \"#utility.yul\":3209:3215   */\n  dup7\n    /* \"#utility.yul\":3205:3222   */\n  add\n    /* \"#utility.yul\":3146:3236   */\n  tag_28\n  jump\t// in\ntag_88:\n    /* \"#utility.yul\":3137:3236   */\n  swap2\n  pop\n    /* \"#utility.yul\":2960:3242   */\n  pop\n    /* \"#utility.yul\":2887:3242   */\n  swap3\n  swap2\n  pop\n  pop\n  jump\t// out\n    /* \"#utility.yul\":3248:4283   */\ntag_3:\n    /* \"#utility.yul\":3369:3375   */\n  0x00\n    /* \"#utility.yul\":3377:3383   */\n  dup1\n    /* \"#utility.yul\":3385:3391   */\n  0x00\n    /* \"#utility.yul\":3434:3436   */\n  0x60\n    /* \"#utility.yul\":3422:3431   */\n  dup5\n    /* \"#utility.yul\":3413:3420   */\n  dup7\n    /* \"#utility.yul\":3409:3432   */\n  sub\n    /* \"#utility.yul\":3405:3437   */\n  slt\n    /* \"#utility.yul\":3402:3521   */\n  iszero\n  tag_90\n  jumpi\n    /* \"#utility.yul\":3440:3519   */\n  tag_91\n  tag_13\n  jump\t// in\ntag_91:\n    /* \"#utility.yul\":3402:3521   */\ntag_90:\n    /* \"#utility.yul\":3560:3561   */\n  0x00\n    /* \"#utility.yul\":3585:3662   */\n  tag_92\n    /* \"#utility.yul\":3654:3661   */\n  dup7\n    /* \"#utility.yul\":3645:3651   */\n  dup3\n    /* \"#utility.yul\":3634:3643   */\n  dup8\n    /* \"#utility.yul\":3630:3652   */\n  add\n    /* \"#utility.yul\":3585:3662   */\n  tag_19\n  jump\t// in\ntag_92:\n    /* \"#utility.yul\":3575:3662   */\n  swap4\n  pop\n    /* \"#utility.yul\":3531:3672   */\n  pop\n    /* \"#utility.yul\":3732:3734   */\n  0x20\n    /* \"#utility.yul\":3721:3730   */\n  dup5\n    /* \"#utility.yul\":3717:3735   */\n  add\n    /* \"#utility.yul\":3711:3736   */\n  mload\n    /* \"#utility.yul\":3763:3781   */\n  0xffffffffffffffff\n    /* \"#utility.yul\":3755:3761   */\n  dup2\n    /* \"#utility.yul\":3752:3782   */\n  gt\n    /* \"#utility.yul\":3749:3866   */\n  iszero\n  tag_93\n  jumpi\n    /* \"#utility.yul\":3785:3864   */\n  tag_94\n  tag_14\n  jump\t// in\ntag_94:\n    /* \"#utility.yul\":3749:3866   */\ntag_93:\n    /* \"#utility.yul\":3890:3964   */\n  tag_95\n    /* \"#utility.yul\":3956:3963   */\n  dup7\n    /* \"#utility.yul\":3947:3953   */\n  dup3\n    /* \"#utility.yul\":3936:3945   */\n  dup8\n    /* \"#utility.yul\":3932:3954   */\n  add\n    /* \"#utility.yul\":3890:3964   */\n  tag_29\n  jump\t// in\ntag_95:\n    /* \"#utility.yul\":3880:3964   */\n  swap3\n  pop\n    /* \"#utility.yul\":3682:3974   */\n  pop\n    /* \"#utility.yul\":4034:4036   */\n  0x40\n    /* \"#utility.yul\":4023:4032   */\n  dup5\n    /* \"#utility.yul\":4019:4037   */\n  add\n    /* \"#utility.yul\":4013:4038   */\n  mload\n    /* \"#utility.yul\":4065:4083   */\n  0xffffffffffffffff\n    /* \"#utility.yul\":4057:4063   */\n  dup2\n    /* \"#utility.yul\":4054:4084   */\n  gt\n    /* \"#utility.yul\":4051:4168   */\n  iszero\n  tag_96\n  jumpi\n    /* \"#utility.yul\":4087:4166   */\n  tag_97\n  tag_14\n  jump\t// in\ntag_97:\n    /* \"#utility.yul\":4051:4168   */\ntag_96:\n    /* \"#utility.yul\":4192:4266   */\n  tag_98\n    /* \"#utility.yul\":4258:4265   */\n  dup7\n    /* \"#utility.yul\":4249:4255   */\n  dup3\n    /* \"#utility.yul\":4238:4247   */\n  dup8\n    /* \"#utility.yul\":4234:4256   */\n  add\n    /* \"#utility.yul\":4192:4266   */\n  tag_29\n  jump\t// in\ntag_98:\n    /* \"#utility.yul\":4182:4266   */\n  swap2\n  pop\n    /* \"#utility.yul\":3984:4276   */\n  pop\n    /* \"#utility.yul\":3248:4283   */\n  swap3\n  pop\n  swap3\n  pop\n  swap3\n  jump\t// out\n    /* \"#utility.yul\":4289:4388   */\ntag_30:\n    /* \"#utility.yul\":4341:4347   */\n  0x00\n    /* \"#utility.yul\":4375:4380   */\n  dup2\n    /* \"#utility.yul\":4369:4381   */\n  mload\n    /* \"#utility.yul\":4359:4381   */\n  swap1\n  pop\n    /* \"#utility.yul\":4289:4388   */\n  swap2\n  swap1\n  pop\n  jump\t// out\n    /* \"#utility.yul\":4394:4574   */\ntag_31:\n    /* \"#utility.yul\":4442:4519   */\n  0x4e487b7100000000000000000000000000000000000000000000000000000000\n    /* \"#utility.yul\":4439:4440   */\n  0x00\n    /* \"#utility.yul\":4432:4520   */\n  mstore\n    /* \"#utility.yul\":4539:4543   */\n  0x22\n    /* \"#utility.yul\":4536:4537   */\n  0x04\n    /* \"#utility.yul\":4529:4544   */\n  mstore\n    /* \"#utility.yul\":4563:4567   */\n  0x24\n    /* \"#utility.yul\":4560:4561   */\n  0x00\n    /* \"#utility.yul\":4553:4568   */\n  revert\n    /* \"#utility.yul\":4580:4900   */\ntag_32:\n    /* \"#utility.yul\":4624:4630   */\n  0x00\n    /* \"#utility.yul\":4661:4662   */\n  0x02\n    /* \"#utility.yul\":4655:4659   */\n  dup3\n    /* \"#utility.yul\":4651:4663   */\n  div\n    /* \"#utility.yul\":4641:4663   */\n  swap1\n  pop\n    /* \"#utility.yul\":4708:4709   */\n  0x01\n    /* \"#utility.yul\":4702:4706   */\n  dup3\n    /* \"#utility.yul\":4698:4710   */\n  and\n    /* \"#utility.yul\":4729:4747   */\n  dup1\n    /* \"#utility.yul\":4719:4800   */\n  tag_102\n  jumpi\n    /* \"#utility.yul\":4785:4789   */\n  0x7f\n    /* \"#utility.yul\":4777:4783   */\n  dup3\n    /* \"#utility.yul\":4773:4790   */\n  and\n    /* \"#utility.yul\":4763:4790   */\n  swap2\n  pop\n    /* \"#utility.yul\":4719:4800   */\ntag_102:\n    /* \"#utility.yul\":4847:4849   */\n  0x20\n    /* \"#utility.yul\":4839:4845   */\n  dup3\n    /* \"#utility.yul\":4836:4850   */\n  lt\n    /* \"#utility.yul\":4816:4834   */\n  dup2\n    /* \"#utility.yul\":4813:4851   */\n  sub\n    /* \"#utility.yul\":4810:4894   */\n  tag_103\n  jumpi\n    /* \"#utility.yul\":4866:4884   */\n  tag_104\n  tag_31\n  jump\t// in\ntag_104:\n    /* \"#utility.yul\":4810:4894   */\ntag_103:\n    /* \"#utility.yul\":4631:4900   */\n  pop\n    /* \"#utility.yul\":4580:4900   */\n  swap2\n  swap1\n  pop\n  jump\t// out\n    /* \"#utility.yul\":4906:5047   */\ntag_33:\n    /* \"#utility.yul\":4955:4959   */\n  0x00\n    /* \"#utility.yul\":4978:4981   */\n  dup2\n    /* \"#utility.yul\":4970:4981   */\n  swap1\n  pop\n    /* \"#utility.yul\":5001:5004   */\n  dup2\n    /* \"#utility.yul\":4998:4999   */\n  0x00\n    /* \"#utility.yul\":4991:5005   */\n  mstore\n    /* \"#utility.yul\":5035:5039   */\n  0x20\n    /* \"#utility.yul\":5032:5033   */\n  0x00\n    /* \"#utility.yul\":5022:5040   */\n  keccak256\n    /* \"#utility.yul\":5014:5040   */\n  swap1\n  pop\n    /* \"#utility.yul\":4906:5047   */\n  swap2\n  swap1\n  pop\n  jump\t// out\n    /* \"#utility.yul\":5053:5146   */\ntag_34:\n    /* \"#utility.yul\":5090:5096   */\n  0x00\n    /* \"#utility.yul\":5137:5139   */\n  0x20\n    /* \"#utility.yul\":5132:5134   */\n  0x1f\n    /* \"#utility.yul\":5125:5130   */\n  dup4\n    /* \"#utility.yul\":5121:5135   */\n  add\n    /* \"#utility.yul\":5117:5140   */\n  div\n    /* \"#utility.yul\":5107:5140   */\n  swap1\n  pop\n    /* \"#utility.yul\":5053:5146   */\n  swap2\n  swap1\n  pop\n  jump\t// out\n    /* \"#utility.yul\":5152:5259   */\ntag_35:\n    /* \"#utility.yul\":5196:5204   */\n  0x00\n    /* \"#utility.yul\":5246:5251   */\n  dup3\n    /* \"#utility.yul\":5240:5244   */\n  dup3\n    /* \"#utility.yul\":5236:5252   */\n  shl\n    /* \"#utility.yul\":5215:5252   */\n  swap1\n  pop\n    /* \"#utility.yul\":5152:5259   */\n  swap3\n  swap2\n  pop\n  pop\n  jump\t// out\n    /* \"#utility.yul\":5265:5658   */\ntag_36:\n    /* \"#utility.yul\":5334:5340   */\n  0x00\n    /* \"#utility.yul\":5384:5385   */\n  0x08\n    /* \"#utility.yul\":5372:5382   */\n  dup4\n    /* \"#utility.yul\":5368:5386   */\n  mul\n    /* \"#utility.yul\":5407:5504   */\n  tag_109\n    /* \"#utility.yul\":5437:5503   */\n  0xffffffffffffffffffffffffffffffffffffffffffffffffffffffffffffffff\n    /* \"#utility.yul\":5426:5435   */\n  dup3\n    /* \"#utility.yul\":5407:5504   */\n  tag_35\n  jump\t// in\ntag_109:\n    /* \"#utility.yul\":5525:5564   */\n  tag_110\n    /* \"#utility.yul\":5555:5563   */\n  dup7\n    /* \"#utility.yul\":5544:5553   */\n  dup4\n    /* \"#utility.yul\":5525:5564   */\n  tag_35\n  jump\t// in\ntag_110:\n    /* \"#utility.yul\":5513:5564   */\n  swap6\n  pop\n    /* \"#utility.yul\":5597:5601   */\n  dup1\n    /* \"#utility.yul\":5593:5602   */\n  not\n    /* \"#utility.yul\":5586:5591   */\n  dup5\n    /* \"#utility.yul\":5582:5603   */\n  and\n    /* \"#utility.yul\":5573:5603   */\n  swap4\n  pop\n    /* \"#utility.yul\":5646:5650   */\n  dup1\n    /* \"#utility.yul\":5636:5644   */\n  dup7\n    /* \"#utility.yul\":5632:5651   */\n  and\n    /* \"#utility.yul\":5625:5630   */\n  dup5\n    /* \"#utility.yul\":5622:5652   */\n  or\n    /* \"#utility.yul\":5612:5652   */\n  swap3\n  pop\n    /* \"#utility.yul\":5341:5658   */\n  pop\n  pop\n    /* \"#utility.yul\":5265:5658   */\n  swap4\n  swap3\n  pop\n  pop\n  pop\n  jump\t// out\n    /* \"#utility.yul\":5664:5741   */\ntag_37:\n    /* \"#utility.yul\":5701:5708   */\n  0x00\n    /* \"#utility.yul\":5730:5735   */\n  dup2\n    /* \"#utility.yul\":5719:5735   */\n  swap1\n  pop\n    /* \"#utility.yul\":5664:5741   */\n  swap2\n  swap1\n  pop\n  jump\t// out\n    /* \"#utility.yul\":5747:5807   */\ntag_38:\n    /* \"#utility.yul\":5775:5778   */\n  0x00\n    /* \"#utility.yul\":5796:5801   */\n  dup2\n    /* \"#utility.yul\":5789:5801   */\n  swap1\n  pop\n    /* \"#utility.yul\":5747:5807   */\n  swap2\n  swap1\n  pop\n  jump\t// out\n    /* \"#utility.yul\":5813:5955   */\ntag_39:\n    /* \"#utility.yul\":5863:5872   */\n  0x00\n    /* \"#utility.yul\":5896:5949   */\n  tag_114\n    /* \"#utility.yul\":5914:5948   */\n  tag_115\n    /* \"#utility.yul\":5923:5947   */\n  tag_116\n    /* \"#utility.yul\":5941:5946   */\n  dup5\n    /* \"#utility.yul\":5923:5947   */\n  tag_37\n  jump\t// in\ntag_116:\n    /* \"#utility.yul\":5914:5948   */\n  tag_38\n  jump\t// in\ntag_115:\n    /* \"#utility.yul\":5896:5949   */\n  tag_37\n  jump\t// in\ntag_114:\n    /* \"#utility.yul\":5883:5949   */\n  swap1\n  pop\n    /* \"#utility.yul\":5813:5955   */\n  swap2\n  swap1\n  pop\n  jump\t// out\n    /* \"#utility.yul\":5961:6036   */\ntag_40:\n    /* \"#utility.yul\":6004:6007   */\n  0x00\n    /* \"#utility.yul\":6025:6030   */\n  dup2\n    /* \"#utility.yul\":6018:6030   */\n  swap1\n  pop\n    /* \"#utility.yul\":5961:6036   */\n  swap2\n  swap1\n  pop\n  jump\t// out\n    /* \"#utility.yul\":6042:6311   */\ntag_41:\n    /* \"#utility.yul\":6152:6191   */\n  tag_119\n    /* \"#utility.yul\":6183:6190   */\n  dup4\n    /* \"#utility.yul\":6152:6191   */\n  tag_39\n  jump\t// in\ntag_119:\n    /* \"#utility.yul\":6213:6304   */\n  tag_120\n    /* \"#utility.yul\":6262:6303   */\n  tag_121\n    /* \"#utility.yul\":6286:6302   */\n  dup3\n    /* \"#utility.yul\":6262:6303   */\n  tag_40\n  jump\t// in\ntag_121:\n    /* \"#utility.yul\":6254:6260   */\n  dup5\n    /* \"#utility.yul\":6247:6251   */\n  dup5\n    /* \"#utility.yul\":6241:6252   */\n  sload\n    /* \"#utility.yul\":6213:6304   */\n  tag_36\n  jump\t// in\ntag_120:\n    /* \"#utility.yul\":6207:6211   */\n  dup3\n    /* \"#utility.yul\":6200:6305   */\n  sstore\n    /* \"#utility.yul\":6118:6311   */\n  pop\n    /* \"#utility.yul\":6042:6311   */\n  pop\n  pop\n  pop\n  jump\t// out\n    /* \"#utility.yul\":6317:6390   */\ntag_42:\n    /* \"#utility.yul\":6362:6365   */\n  0x00\n    /* \"#utility.yul\":6317:6390   */\n  swap1\n  jump\t// out\n    /* \"#utility.yul\":6396:6585   */\ntag_43:\n    /* \"#utility.yul\":6473:6505   */\n  tag_124\n  tag_42\n  jump\t// in\ntag_124:\n    /* \"#utility.yul\":6514:6579   */\n  tag_125\n    /* \"#utility.yul\":6572:6578   */\n  dup2\n    /* \"#utility.yul\":6564:6570   */\n  dup5\n    /* \"#utility.yul\":6558:6562   */\n  dup5\n    /* \"#utility.yul\":6514:6579   */\n  tag_41\n  jump\t// in\ntag_125:\n    /* \"#utility.yul\":6449:6585   */\n  pop\n    /* \"#utility.yul\":6396:6585   */\n  pop\n  pop\n  jump\t// out\n    /* \"#utility.yul\":6591:6777   */\ntag_44:\n    /* \"#utility.yul\":6651:6771   */\ntag_127:\n    /* \"#utility.yul\":6668:6671   */\n  dup2\n    /* \"#utility.yul\":6661:6666   */\n  dup2\n    /* \"#utility.yul\":6658:6672   */\n  lt\n    /* \"#utility.yul\":6651:6771   */\n  iszero\n  tag_129\n  jumpi\n    /* \"#utility.yul\":6722:6761   */\n  tag_130\n    /* \"#utility.yul\":6759:6760   */\n  0x00\n    /* \"#utility.yul\":6752:6757   */\n  dup3\n    /* \"#utility.yul\":6722:6761   */\n  tag_43\n  jump\t// in\ntag_130:\n    /* \"#utility.yul\":6695:6696   */\n  0x01\n    /* \"#utility.yul\":6688:6693   */\n  dup2\n    /* \"#utility.yul\":6684:6697   */\n  add\n    /* \"#utility.yul\":6675:6697   */\n  swap1\n  pop\n    /* \"#utility.yul\":6651:6771   */\n  jump(tag_127)\ntag_129:\n    /* \"#utility.yul\":6591:6777   */\n  pop\n  pop\n  jump\t// out\n    /* \"#utility.yul\":6783:7326   */\ntag_45:\n    /* \"#utility.yul\":6884:6886   */\n  0x1f\n    /* \"#utility.yul\":6879:6882   */\n  dup3\n    /* \"#utility.yul\":6876:6887   */\n  gt\n    /* \"#utility.yul\":6873:7319   */\n  iszero\n  tag_132\n  jumpi\n    /* \"#utility.yul\":6918:6956   */\n  tag_133\n    /* \"#utility.yul\":6950:6955   */\n  dup2\n    /* \"#utility.yul\":6918:6956   */\n  tag_33\n  jump\t// in\ntag_133:\n    /* \"#utility.yul\":7002:7031   */\n  tag_134\n    /* \"#utility.yul\":7020:7030   */\n  dup5\n    /* \"#utility.yul\":7002:7031   */\n  tag_34\n  jump\t// in\ntag_134:\n    /* \"#utility.yul\":6992:7000   */\n  dup2\n    /* \"#utility.yul\":6988:7032   */\n  add\n    /* \"#utility.yul\":7185:7187   */\n  0x20\n    /* \"#utility.yul\":7173:7183   */\n  dup6\n    /* \"#utility.yul\":7170:7188   */\n  lt\n    /* \"#utility.yul\":7167:7216   */\n  iszero\n  tag_135\n  jumpi\n    /* \"#utility.yul\":7206:7214   */\n  dup2\n    /* \"#utility.yul\":7191:7214   */\n  swap1\n  pop\n    /* \"#utility.yul\":7167:7216   */\ntag_135:\n    /* \"#utility.yul\":7229:7309   */\n  tag_136\n    /* \"#utility.yul\":7285:7307   */\n  tag_137\n    /* \"#utility.yul\":7303:7306   */\n  dup6\n    /* \"#utility.yul\":7285:7307   */\n  tag_34\n  jump\t// in\ntag_137:\n    /* \"#utility.yul\":7275:7283   */\n  dup4\n    /* \"#utility.yul\":7271:7308   */\n  add\n    /* \"#utility.yul\":7258:7269   */\n  dup3\n    /* \"#utility.yul\":7229:7309   */\n  tag_44\n  jump\t// in\ntag_136:\n    /* \"#utility.yul\":6888:7319   */\n  pop\n  pop\n    /* \"#utility.yul\":6873:7319   */\ntag_132:\n    /* \"#utility.yul\":6783:7326   */\n  pop\n  pop\n  pop\n  jump\t// out\n    /* \"#utility.yul\":7332:7449   */\ntag_46:\n    /* \"#utility.yul\":7386:7394   */\n  0x00\n    /* \"#utility.yul\":7436:7441   */\n  dup3\n    /* \"#utility.yul\":7430:7434   */\n  dup3\n    /* \"#utility.yul\":7426:7442   */\n  shr\n    /* \"#utility.yul\":7405:7442   */\n  swap1\n  pop\n    /* \"#utility.yul\":7332:7449   */\n  swap3\n  swap2\n  pop\n  pop\n  jump\t// out\n    /* \"#utility.yul\":7455:7624   */\ntag_47:\n    /* \"#utility.yul\":7499:7505   */\n  0x00\n    /* \"#utility.yul\":7532:7583   */\n  tag_140\n    /* \"#utility.yul\":7580:7581   */\n  0x00\n    /* \"#utility.yul\":7576:7582   */\n  not\n    /* \"#utility.yul\":7568:7573   */\n  dup5\n    /* \"#utility.yul\":7565:7566   */\n  0x08\n    /* \"#utility.yul\":7561:7574   */\n  mul\n    /* \"#utility.yul\":7532:7583   */\n  tag_46\n  jump\t// in\ntag_140:\n    /* \"#utility.yul\":7528:7584   */\n  not\n    /* \"#utility.yul\":7613:7617   */\n  dup1\n    /* \"#utility.yul\":7607:7611   */\n  dup4\n    /* \"#utility.yul\":7603:7618   */\n  and\n    /* \"#utility.yul\":7593:7618   */\n  swap2\n  pop\n    /* \"#utility.yul\":7506:7624   */\n  pop\n    /* \"#utility.yul\":7455:7624   */\n  swap3\n  swap2\n  pop\n  pop\n  jump\t// out\n    /* \"#utility.yul\":7629:7924   */\ntag_48:\n    /* \"#utility.yul\":7705:7709   */\n  0x00\n    /* \"#utility.yul\":7851:7880   */\n  tag_142\n    /* \"#utility.yul\":7876:7879   */\n  dup4\n    /* \"#utility.yul\":7870:7874   */\n  dup4\n    /* \"#utility.yul\":7851:7880   */\n  tag_47\n  jump\t// in\ntag_142:\n    /* \"#utility.yul\":7843:7880   */\n  swap2\n  pop\n    /* \"#utility.yul\":7913:7916   */\n  dup3\n    /* \"#utility.yul\":7910:7911   */\n  0x02\n    /* \"#utility.yul\":7906:7917   */\n  mul\n    /* \"#utility.yul\":7900:7904   */\n  dup3\n    /* \"#utility.yul\":7897:7918   */\n  or\n    /* \"#utility.yul\":7889:7918   */\n  swap1\n  pop\n    /* \"#utility.yul\":7629:7924   */\n  swap3\n  swap2\n  pop\n  pop\n  jump\t// out\n    /* \"#utility.yul\":7929:9324   */\ntag_8:\n    /* \"#utility.yul\":8046:8083   */\n  tag_144\n    /* \"#utility.yul\":8079:8082   */\n  dup3\n    /* \"#utility.yul\":8046:8083   */\n  tag_30\n  jump\t// in\ntag_144:\n    /* \"#utility.yul\":8148:8166   */\n  0xffffffffffffffff\n    /* \"#utility.yul\":8140:8146   */\n  dup2\n    /* \"#utility.yul\":8137:8167   */\n  gt\n    /* \"#utility.yul\":8134:8190   */\n  iszero\n  tag_145\n  jumpi\n    /* \"#utility.yul\":8170:8188   */\n  tag_146\n  tag_23\n  jump\t// in\ntag_146:\n    /* \"#utility.yul\":8134:8190   */\ntag_145:\n    /* \"#utility.yul\":8214:8252   */\n  tag_147\n    /* \"#utility.yul\":8246:8250   */\n  dup3\n    /* \"#utility.yul\":8240:8251   */\n  sload\n    /* \"#utility.yul\":8214:8252   */\n  tag_32\n  jump\t// in\ntag_147:\n    /* \"#utility.yul\":8299:8366   */\n  tag_148\n    /* \"#utility.yul\":8359:8365   */\n  dup3\n    /* \"#utility.yul\":8351:8357   */\n  dup3\n    /* \"#utility.yul\":8345:8349   */\n  dup6\n    /* \"#utility.yul\":8299:8366   */\n  tag_45\n  jump\t// in\ntag_148:\n    /* \"#utility.yul\":8393:8394   */\n  0x00\n    /* \"#utility.yul\":8417:8421   */\n  0x20\n    /* \"#utility.yul\":8404:8421   */\n  swap1\n  pop\n    /* \"#utility.yul\":8449:8451   */\n  0x1f\n    /* \"#utility.yul\":8441:8447   */\n  dup4\n    /* \"#utility.yul\":8438:8452   */\n  gt\n    /* \"#utility.yul\":8466:8467   */\n  0x01\n    /* \"#utility.yul\":8461:9079   */\n  dup2\n  eq\n  tag_150\n  jumpi\n    /* \"#utility.yul\":9123:9124   */\n  0x00\n    /* \"#utility.yul\":9140:9146   */\n  dup5\n    /* \"#utility.yul\":9137:9214   */\n  iszero\n  tag_151\n  jumpi\n    /* \"#utility.yul\":9189:9198   */\n  dup3\n    /* \"#utility.yul\":9184:9187   */\n  dup8\n    /* \"#utility.yul\":9180:9199   */\n  add\n    /* \"#utility.yul\":9174:9200   */\n  mload\n    /* \"#utility.yul\":9165:9200   */\n  swap1\n  pop\n    /* \"#utility.yul\":9137:9214   */\ntag_151:\n    /* \"#utility.yul\":9240:9307   */\n  tag_152\n    /* \"#utility.yul\":9300:9306   */\n  dup6\n    /* \"#utility.yul\":9293:9298   */\n  dup3\n    /* \"#utility.yul\":9240:9307   */\n  tag_48\n  jump\t// in\ntag_152:\n    /* \"#utility.yul\":9234:9238   */\n  dup7\n    /* \"#utility.yul\":9227:9308   */\n  sstore\n    /* \"#utility.yul\":9096:9318   */\n  pop\n    /* \"#utility.yul\":8431:9318   */\n  jump(tag_149)\n    /* \"#utility.yul\":8461:9079   */\ntag_150:\n    /* \"#utility.yul\":8513:8517   */\n  0x1f\n    /* \"#utility.yul\":8509:8518   */\n  not\n    /* \"#utility.yul\":8501:8507   */\n  dup5\n    /* \"#utility.yul\":8497:8519   */\n  and\n    /* \"#utility.yul\":8547:8584   */\n  tag_153\n    /* \"#utility.yul\":8579:8583   */\n  dup7\n    /* \"#utility.yul\":8547:8584   */\n  tag_33\n  jump\t// in\ntag_153:\n    /* \"#utility.yul\":8606:8607   */\n  0x00\n    /* \"#utility.yul\":8620:8828   */\ntag_154:\n    /* \"#utility.yul\":8634:8641   */\n  dup3\n    /* \"#utility.yul\":8631:8632   */\n  dup2\n    /* \"#utility.yul\":8628:8642   */\n  lt\n    /* \"#utility.yul\":8620:8828   */\n  iszero\n  tag_156\n  jumpi\n    /* \"#utility.yul\":8713:8722   */\n  dup5\n    /* \"#utility.yul\":8708:8711   */\n  dup10\n    /* \"#utility.yul\":8704:8723   */\n  add\n    /* \"#utility.yul\":8698:8724   */\n  mload\n    /* \"#utility.yul\":8690:8696   */\n  dup3\n    /* \"#utility.yul\":8683:8725   */\n  sstore\n    /* \"#utility.yul\":8764:8765   */\n  0x01\n    /* \"#utility.yul\":8756:8762   */\n  dup3\n    /* \"#utility.yul\":8752:8766   */\n  add\n    /* \"#utility.yul\":8742:8766   */\n  swap2\n  pop\n    /* \"#utility.yul\":8811:8813   */\n  0x20\n    /* \"#utility.yul\":8800:8809   */\n  dup6\n    /* \"#utility.yul\":8796:8814   */\n  add\n    /* \"#utility.yul\":8783:8814   */\n  swap5\n  pop\n    /* \"#utility.yul\":8657:8661   */\n  0x20\n    /* \"#utility.yul\":8654:8655   */\n  dup2\n    /* \"#utility.yul\":8650:8662   */\n  add\n    /* \"#utility.yul\":8645:8662   */\n  swap1\n  pop\n    /* \"#utility.yul\":8620:8828   */\n  jump(tag_154)\ntag_156:\n    /* \"#utility.yul\":8856:8862   */\n  dup7\n    /* \"#utility.yul\":8847:8854   */\n  dup4\n    /* \"#utility.yul\":8844:8863   */\n  lt\n    /* \"#utility.yul\":8841:9020   */\n  iszero\n  tag_157\n  jumpi\n    /* \"#utility.yul\":8914:8923   */\n  dup5\n    /* \"#utility.yul\":8909:8912   */\n  dup10\n    /* \"#utility.yul\":8905:8924   */\n  add\n    /* \"#utility.yul\":8899:8925   */\n  mload\n    /* \"#utility.yul\":8957:9005   */\n  tag_158\n    /* \"#utility.yul\":8999:9003   */\n  0x1f\n    /* \"#utility.yul\":8991:8997   */\n  dup10\n    /* \"#utility.yul\":8987:9004   */\n  and\n    /* \"#utility.yul\":8976:8985   */\n  dup3\n    /* \"#utility.yul\":8957:9005   */\n  tag_47\n  jump\t// in\ntag_158:\n    /* \"#utility.yul\":8949:8955   */\n  dup4\n    /* \"#utility.yul\":8942:9006   */\n  sstore\n    /* \"#utility.yul\":8864:9020   */\n  pop\n    /* \"#utility.yul\":8841:9020   */\ntag_157:\n    /* \"#utility.yul\":9066:9067   */\n  0x01\n    /* \"#utility.yul\":9062:9063   */\n  0x02\n    /* \"#utility.yul\":9054:9060   */\n  dup9\n    /* \"#utility.yul\":9050:9064   */\n  mul\n    /* \"#utility.yul\":9046:9068   */\n  add\n    /* \"#utility.yul\":9040:9044   */\n  dup9\n    /* \"#utility.yul\":9033:9069   */\n  sstore\n    /* \"#utility.yul\":8468:9079   */\n  pop\n  pop\n  pop\n    /* \"#utility.yul\":8431:9318   */\ntag_149:\n  pop\n    /* \"#utility.yul\":8021:9324   */\n  pop\n  pop\n  pop\n    /* \"#utility.yul\":7929:9324   */\n  pop\n  pop\n  jump\t// out\n    /* \"contracts/vault/vault02.sol\":216:4835  contract ERC4626 is ERC20, IERC4626 {... */\ntag_11:\n  mload(0x80)\n  codecopy(0x00, dataOffset(sub_0), dataSize(sub_0))\n  0x00\n  assignImmutable(\"0xd74e387d4432eb204e29b4c33d69dbbd245bbe36fa789e0c9387d7c3d660708c\")\n  return(0x00, dataSize(sub_0))\nstop\n\nsub_0: assembly {\n        /* \"contracts/vault/vault02.sol\":216:4835  contract ERC4626 is ERC20, IERC4626 {... */\n      mstore(0x40, 0x80)\n      callvalue\n      dup1\n      iszero\n      tag_1\n      jumpi\n      0x00\n      dup1\n      revert\n    tag_1:\n      pop\n      jumpi(tag_2, lt(calldatasize, 0x04))\n      shr(0xe0, calldataload(0x00))\n      dup1\n      0x70a08231\n      gt\n      tag_28\n      jumpi\n      dup1\n      0xba087652\n      gt\n      tag_29\n      jumpi\n      dup1\n      0xce96cb77\n      gt\n      tag_30\n      jumpi\n      dup1\n      0xce96cb77\n      eq\n      tag_24\n      jumpi\n      dup1\n      0xd905777e\n      eq\n      tag_25\n      jumpi\n      dup1\n      0xdd62ed3e\n      eq\n      tag_26\n      jumpi\n      dup1\n      0xef8b30f7\n      eq\n      tag_27\n      jumpi\n      jump(tag_2)\n    tag_30:\n      dup1\n      0xba087652\n      eq\n      tag_21\n      jumpi\n      dup1\n      0xc63d75b6\n      eq\n      tag_22\n      jumpi\n      dup1\n      0xc6e6f592\n      eq\n      tag_23\n      jumpi\n      jump(tag_2)\n    tag_29:\n      dup1\n      0x70a08231\n      eq\n      tag_15\n      jumpi\n      dup1\n      0x94bf804d\n      eq\n      tag_16\n      jumpi\n      dup1\n      0x95d89b41\n      eq\n      tag_17\n      jumpi\n      dup1\n      0xa9059cbb\n      eq\n      tag_18\n      jumpi\n      dup1\n      0xb3d7f6b9\n      eq\n      tag_19\n      jumpi\n      dup1\n      0xb460af94\n      eq\n      tag_20\n      jumpi\n      jump(tag_2)\n    tag_28:\n      dup1\n      0x23b872dd\n      gt\n      tag_31\n      jumpi\n      dup1\n      0x23b872dd\n      eq\n      tag_9\n      jumpi\n      dup1\n      0x313ce567\n      eq\n      tag_10\n      jumpi\n      dup1\n      0x38d52e0f\n      eq\n      tag_11\n      jumpi\n      dup1\n      0x402d267d\n      eq\n      tag_12\n      jumpi\n      dup1\n      0x4cdad506\n      eq\n      tag_13\n      jumpi\n      dup1\n      0x6e553f65\n      eq\n      tag_14\n      jumpi\n      jump(tag_2)\n    tag_31:\n      dup1\n      0x01e1d114\n      eq\n      tag_3\n      jumpi\n      dup1\n      0x06fdde03\n      eq\n      tag_4\n      jumpi\n      dup1\n      0x07a2d13a\n      eq\n      tag_5\n      jumpi\n      dup1\n      0x095ea7b3\n      eq\n      tag_6\n      jumpi\n      dup1\n      0x0a28a477\n      eq\n      tag_7\n      jumpi\n      dup1\n      0x18160ddd\n      eq\n      tag_8\n      jumpi\n    tag_2:\n      0x00\n      dup1\n      revert\n        /* \"contracts/vault/vault02.sol\":2849:3010  function totalAssets() public view virtual returns (uint256) {... */\n    tag_3:\n      tag_32\n      tag_33\n      jump\t// in\n    tag_32:\n      mload(0x40)\n      tag_34\n      swap2\n      swap1\n      tag_35\n      jump\t// in\n    tag_34:\n      mload(0x40)\n      dup1\n      swap2\n      sub\n      swap1\n      return\n        /* \"@openzeppelin/contracts/token/ERC20/ERC20.sol\":1779:1868  function name() public view virtual returns (string memory) {... */\n    tag_4:\n      tag_36\n      tag_37\n      jump\t// in\n    tag_36:\n      mload(0x40)\n      tag_38\n      swap2\n      swap1\n      tag_39\n      jump\t// in\n    tag_38:\n      mload(0x40)\n      dup1\n      swap2\n      sub\n      swap1\n      return\n        /* \"contracts/vault/vault02.sol\":3376:3724  function convertToAssets(uint256 shares)... */\n    tag_5:\n      tag_40\n      0x04\n      dup1\n      calldatasize\n      sub\n      dup2\n      add\n      swap1\n      tag_41\n      swap2\n      swap1\n      tag_42\n      jump\t// in\n    tag_41:\n      tag_43\n      jump\t// in\n    tag_40:\n      mload(0x40)\n      tag_44\n      swap2\n      swap1\n      tag_35\n      jump\t// in\n    tag_44:\n      mload(0x40)\n      dup1\n      swap2\n      sub\n      swap1\n      return\n        /* \"@openzeppelin/contracts/token/ERC20/ERC20.sol\":3998:4184  function approve(address spender, uint256 value) public virtual returns (bool) {... */\n    tag_6:\n      tag_45\n      0x04\n      dup1\n      calldatasize\n      sub\n      dup2\n      add\n      swap1\n      tag_46\n      swap2\n      swap1\n      tag_47\n      jump\t// in\n    tag_46:\n      tag_48\n      jump\t// in\n    tag_45:\n      mload(0x40)\n      tag_49\n      swap2\n      swap1\n      tag_50\n      jump\t// in\n    tag_49:\n      mload(0x40)\n      dup1\n      swap2\n      sub\n      swap1\n      return\n        /* \"contracts/vault/vault02.sol\":4025:4187  function previewWithdraw(uint256 assets)... */\n    tag_7:\n      tag_51\n      0x04\n      dup1\n      calldatasize\n      sub\n      dup2\n      add\n      swap1\n      tag_52\n      swap2\n      swap1\n      tag_42\n      jump\t// in\n    tag_52:\n      tag_53\n      jump\t// in\n    tag_51:\n      mload(0x40)\n      tag_54\n      swap2\n      swap1\n      tag_35\n      jump\t// in\n    tag_54:\n      mload(0x40)\n      dup1\n      swap2\n      sub\n      swap1\n      return\n        /* \"@openzeppelin/contracts/token/ERC20/ERC20.sol\":2849:2946  function totalSupply() public view virtual returns (uint256) {... */\n    tag_8:\n      tag_55\n      tag_56\n      jump\t// in\n    tag_55:\n      mload(0x40)\n      tag_57\n      swap2\n      swap1\n      tag_35\n      jump\t// in\n    tag_57:\n      mload(0x40)\n      dup1\n      swap2\n      sub\n      swap1\n      return\n        /* \"@openzeppelin/contracts/token/ERC20/ERC20.sol\":4776:5020  function transferFrom(address from, address to, uint256 value) public virtual returns (bool) {... */\n    tag_9:\n      tag_58\n      0x04\n      dup1\n      calldatasize\n      sub\n      dup2\n      add\n      swap1\n      tag_59\n      swap2\n      swap1\n      tag_60\n      jump\t// in\n    tag_59:\n      tag_61\n      jump\t// in\n    tag_58:\n      mload(0x40)\n      tag_62\n      swap2\n      swap1\n      tag_50\n      jump\t// in\n    tag_62:\n      mload(0x40)\n      dup1\n      swap2\n      sub\n      swap1\n      return\n        /* \"@openzeppelin/contracts/token/ERC20/ERC20.sol\":2707:2789  function decimals() public view virtual returns (uint8) {... */\n    tag_10:\n      tag_63\n      tag_64\n      jump\t// in\n    tag_63:\n      mload(0x40)\n      tag_65\n      swap2\n      swap1\n      tag_66\n      jump\t// in\n    tag_65:\n      mload(0x40)\n      dup1\n      swap2\n      sub\n      swap1\n      return\n        /* \"contracts/vault/vault02.sol\":455:558  function asset() public view virtual override returns (address) {... */\n    tag_11:\n      tag_67\n      tag_68\n      jump\t// in\n    tag_67:\n      mload(0x40)\n      tag_69\n      swap2\n      swap1\n      tag_70\n      jump\t// in\n    tag_69:\n      mload(0x40)\n      dup1\n      swap2\n      sub\n      swap1\n      return\n        /* \"contracts/vault/vault02.sol\":4359:4467  function maxDeposit(address) public view virtual returns (uint256) {... */\n    tag_12:\n      tag_71\n      0x04\n      dup1\n      calldatasize\n      sub\n      dup2\n      add\n      swap1\n      tag_72\n      swap2\n      swap1\n      tag_73\n      jump\t// in\n    tag_72:\n      tag_74\n      jump\t// in\n    tag_71:\n      mload(0x40)\n      tag_75\n      swap2\n      swap1\n      tag_35\n      jump\t// in\n    tag_75:\n      mload(0x40)\n      dup1\n      swap2\n      sub\n      swap1\n      return\n        /* \"contracts/vault/vault02.sol\":4193:4353  function previewRedeem(uint256 shares)... */\n    tag_13:\n      tag_76\n      0x04\n      dup1\n      calldatasize\n      sub\n      dup2\n      add\n      swap1\n      tag_77\n      swap2\n      swap1\n      tag_42\n      jump\t// in\n    tag_77:\n      tag_78\n      jump\t// in\n    tag_76:\n      mload(0x40)\n      tag_79\n      swap2\n      swap1\n      tag_35\n      jump\t// in\n    tag_79:\n      mload(0x40)\n      dup1\n      swap2\n      sub\n      swap1\n      return\n        /* \"contracts/vault/vault02.sol\":564:1051  function deposit(uint256 assets, address receiver)... */\n    tag_14:\n      tag_80\n      0x04\n      dup1\n      calldatasize\n      sub\n      dup2\n      add\n      swap1\n      tag_81\n      swap2\n      swap1\n      tag_82\n      jump\t// in\n    tag_81:\n      tag_83\n      jump\t// in\n    tag_80:\n      mload(0x40)\n      tag_84\n      swap2\n      swap1\n      tag_35\n      jump\t// in\n    tag_84:\n      mload(0x40)\n      dup1\n      swap2\n      sub\n      swap1\n      return\n        /* \"@openzeppelin/contracts/token/ERC20/ERC20.sol\":3004:3120  function balanceOf(address account) public view virtual returns (uint256) {... */\n    tag_15:\n      tag_85\n      0x04\n      dup1\n      calldatasize\n      sub\n      dup2\n      add\n      swap1\n      tag_86\n      swap2\n      swap1\n      tag_73\n      jump\t// in\n    tag_86:\n      tag_87\n      jump\t// in\n    tag_85:\n      mload(0x40)\n      tag_88\n      swap2\n      swap1\n      tag_35\n      jump\t// in\n    tag_88:\n      mload(0x40)\n      dup1\n      swap2\n      sub\n      swap1\n      return\n        /* \"contracts/vault/vault02.sol\":1057:1542  function mint(uint256 shares, address receiver)... */\n    tag_16:\n      tag_89\n      0x04\n      dup1\n      calldatasize\n      sub\n      dup2\n      add\n      swap1\n      tag_90\n      swap2\n      swap1\n      tag_82\n      jump\t// in\n    tag_90:\n      tag_91\n      jump\t// in\n    tag_89:\n      mload(0x40)\n      tag_92\n      swap2\n      swap1\n      tag_35\n      jump\t// in\n    tag_92:\n      mload(0x40)\n      dup1\n      swap2\n      sub\n      swap1\n      return\n        /* \"@openzeppelin/contracts/token/ERC20/ERC20.sol\":1981:2074  function symbol() public view virtual returns (string memory) {... */\n    tag_17:\n      tag_93\n      tag_94\n      jump\t// in\n    tag_93:\n      mload(0x40)\n      tag_95\n      swap2\n      swap1\n      tag_39\n      jump\t// in\n    tag_95:\n      mload(0x40)\n      dup1\n      swap2\n      sub\n      swap1\n      return\n        /* \"@openzeppelin/contracts/token/ERC20/ERC20.sol\":3315:3493  function transfer(address to, uint256 value) public virtual returns (bool) {... */\n    tag_18:\n      tag_96\n      0x04\n      dup1\n      calldatasize\n      sub\n      dup2\n      add\n      swap1\n      tag_97\n      swap2\n      swap1\n      tag_47\n      jump\t// in\n    tag_97:\n      tag_98\n      jump\t// in\n    tag_96:\n      mload(0x40)\n      tag_99\n      swap2\n      swap1\n      tag_50\n      jump\t// in\n    tag_99:\n      mload(0x40)\n      dup1\n      swap2\n      sub\n      swap1\n      return\n        /* \"contracts/vault/vault02.sol\":3897:4019  function previewMint(uint256 shares) public view virtual returns (uint256) {... */\n    tag_19:\n      tag_100\n      0x04\n      dup1\n      calldatasize\n      sub\n      dup2\n      add\n      swap1\n      tag_101\n      swap2\n      swap1\n      tag_42\n      jump\t// in\n    tag_101:\n      tag_102\n      jump\t// in\n    tag_100:\n      mload(0x40)\n      tag_103\n      swap2\n      swap1\n      tag_35\n      jump\t// in\n    tag_103:\n      mload(0x40)\n      dup1\n      swap2\n      sub\n      swap1\n      return\n        /* \"contracts/vault/vault02.sol\":1548:2192  function withdraw(... */\n    tag_20:\n      tag_104\n      0x04\n      dup1\n      calldatasize\n      sub\n      dup2\n      add\n      swap1\n      tag_105\n      swap2\n      swap1\n      tag_106\n      jump\t// in\n    tag_105:\n      tag_107\n      jump\t// in\n    tag_104:\n      mload(0x40)\n      tag_108\n      swap2\n      swap1\n      tag_35\n      jump\t// in\n    tag_108:\n      mload(0x40)\n      dup1\n      swap2\n      sub\n      swap1\n      return\n        /* \"contracts/vault/vault02.sol\":2198:2843  function redeem(... */\n    tag_21:\n      tag_109\n      0x04\n      dup1\n      calldatasize\n      sub\n      dup2\n      add\n      swap1\n      tag_110\n      swap2\n      swap1\n      tag_106\n      jump\t// in\n    tag_110:\n      tag_111\n      jump\t// in\n    tag_109:\n      mload(0x40)\n      tag_112\n      swap2\n      swap1\n      tag_35\n      jump\t// in\n    tag_112:\n      mload(0x40)\n      dup1\n      swap2\n      sub\n      swap1\n      return\n        /* \"contracts/vault/vault02.sol\":4473:4578  function maxMint(address) public view virtual returns (uint256) {... */\n    tag_22:\n      tag_113\n      0x04\n      dup1\n      calldatasize\n      sub\n      dup2\n      add\n      swap1\n      tag_114\n      swap2\n      swap1\n      tag_73\n      jump\t// in\n    tag_114:\n      tag_115\n      jump\t// in\n    tag_113:\n      mload(0x40)\n      tag_116\n      swap2\n      swap1\n      tag_35\n      jump\t// in\n    tag_116:\n      mload(0x40)\n      dup1\n      swap2\n      sub\n      swap1\n      return\n        /* \"contracts/vault/vault02.sol\":3016:3370  function convertToShares(uint256 assets)... */\n    tag_23:\n      tag_117\n      0x04\n      dup1\n      calldatasize\n      sub\n      dup2\n      add\n      swap1\n      tag_118\n      swap2\n      swap1\n      tag_42\n      jump\t// in\n    tag_118:\n      tag_119\n      jump\t// in\n    tag_117:\n      mload(0x40)\n      tag_120\n      swap2\n      swap1\n      tag_35\n      jump\t// in\n    tag_120:\n      mload(0x40)\n      dup1\n      swap2\n      sub\n      swap1\n      return\n        /* \"contracts/vault/vault02.sol\":4584:4715  function maxWithdraw(address owner) public view virtual returns (uint256) {... */\n    tag_24:\n      tag_121\n      0x04\n      dup1\n      calldatasize\n      sub\n      dup2\n      add\n      swap1\n      tag_122\n      swap2\n      swap1\n      tag_73\n      jump\t// in\n    tag_122:\n      tag_123\n      jump\t// in\n    tag_121:\n      mload(0x40)\n      tag_124\n      swap2\n      swap1\n      tag_35\n      jump\t// in\n    tag_124:\n      mload(0x40)\n      dup1\n      swap2\n      sub\n      swap1\n      return\n        /* \"contracts/vault/vault02.sol\":4721:4833  function maxRedeem(address owner) public view virtual returns (uint256) {... */\n    tag_25:\n      tag_125\n      0x04\n      dup1\n      calldatasize\n      sub\n      dup2\n      add\n      swap1\n      tag_126\n      swap2\n      swap1\n      tag_73\n      jump\t// in\n    tag_126:\n      tag_127\n      jump\t// in\n    tag_125:\n      mload(0x40)\n      tag_128\n      swap2\n      swap1\n      tag_35\n      jump\t// in\n    tag_128:\n      mload(0x40)\n      dup1\n      swap2\n      sub\n      swap1\n      return\n        /* \"@openzeppelin/contracts/token/ERC20/ERC20.sol\":3551:3691  function allowance(address owner, address spender) public view virtual returns (uint256) {... */\n    tag_26:\n      tag_129\n      0x04\n      dup1\n      calldatasize\n      sub\n      dup2\n      add\n      swap1\n      tag_130\n      swap2\n      swap1\n      tag_131\n      jump\t// in\n    tag_130:\n      tag_132\n      jump\t// in\n    tag_129:\n      mload(0x40)\n      tag_133\n      swap2\n      swap1\n      tag_35\n      jump\t// in\n    tag_133:\n      mload(0x40)\n      dup1\n      swap2\n      sub\n      swap1\n      return\n        /* \"contracts/vault/vault02.sol\":3730:3891  function previewDeposit(uint256 assets)... */\n    tag_27:\n      tag_134\n      0x04\n      dup1\n      calldatasize\n      sub\n      dup2\n      add\n      swap1\n      tag_135\n      swap2\n      swap1\n      tag_42\n      jump\t// in\n    tag_135:\n      tag_136\n      jump\t// in\n    tag_134:\n      mload(0x40)\n      tag_137\n      swap2\n      swap1\n      tag_35\n      jump\t// in\n    tag_137:\n      mload(0x40)\n      dup1\n      swap2\n      sub\n      swap1\n      return\n        /* \"contracts/vault/vault02.sol\":2849:3010  function totalAssets() public view virtual returns (uint256) {... */\n    tag_33:\n        /* \"contracts/vault/vault02.sol\":2901:2908  uint256 */\n      0x00\n        /* \"contracts/vault/vault02.sol\":2972:2978  _asset */\n      immutable(\"0xd74e387d4432eb204e29b4c33d69dbbd245bbe36fa789e0c9387d7c3d660708c\")\n        /* \"contracts/vault/vault02.sol\":2972:2988  _asset.balanceOf */\n      0xffffffffffffffffffffffffffffffffffffffff\n      and\n      0x70a08231\n        /* \"contracts/vault/vault02.sol\":2997:3001  this */\n      address\n        /* \"contracts/vault/vault02.sol\":2972:3003  _asset.balanceOf(address(this)) */\n      mload(0x40)\n      dup3\n      0xffffffff\n      and\n      0xe0\n      shl\n      dup2\n      mstore\n      0x04\n      add\n      tag_139\n      swap2\n      swap1\n      tag_70\n      jump\t// in\n    tag_139:\n      0x20\n      mload(0x40)\n      dup1\n      dup4\n      sub\n      dup2\n      dup7\n      gas\n      staticcall\n      iszero\n      dup1\n      iszero\n      tag_141\n      jumpi\n      returndatasize\n      0x00\n      dup1\n      returndatacopy\n      revert(0x00, returndatasize)\n    tag_141:\n      pop\n      pop\n      pop\n      pop\n      mload(0x40)\n      returndatasize\n      not(0x1f)\n      0x1f\n      dup3\n      add\n      and\n      dup3\n      add\n      dup1\n      0x40\n      mstore\n      pop\n      dup2\n      add\n      swap1\n      tag_142\n      swap2\n      swap1\n      tag_143\n      jump\t// in\n    tag_142:\n        /* \"contracts/vault/vault02.sol\":2965:3003  return _asset.balanceOf(address(this)) */\n      swap1\n      pop\n        /* \"contracts/vault/vault02.sol\":2849:3010  function totalAssets() public view virtual returns (uint256) {... */\n      swap1\n      jump\t// out\n        /* \"@openzeppelin/contracts/token/ERC20/ERC20.sol\":1779:1868  function name() public view virtual returns (string memory) {... */\n    tag_37:\n        /* \"@openzeppelin/contracts/token/ERC20/ERC20.sol\":1824:1837  string memory */\n      0x60\n        /* \"@openzeppelin/contracts/token/ERC20/ERC20.sol\":1856:1861  _name */\n      0x03\n        /* \"@openzeppelin/contracts/token/ERC20/ERC20.sol\":1849:1861  return _name */\n      dup1\n      sload\n      tag_145\n      swap1\n      tag_146\n      jump\t// in\n    tag_145:\n      dup1\n      0x1f\n      add\n      0x20\n      dup1\n      swap2\n      div\n      mul\n      0x20\n      add\n      mload(0x40)\n      swap1\n      dup2\n      add\n      0x40\n      mstore\n      dup1\n      swap3\n      swap2\n      swap1\n      dup2\n      dup2\n      mstore\n      0x20\n      add\n      dup3\n      dup1\n      sload\n      tag_147\n      swap1\n      tag_146\n      jump\t// in\n    tag_147:\n      dup1\n      iszero\n      tag_148\n      jumpi\n      dup1\n      0x1f\n      lt\n      tag_149\n      jumpi\n      0x0100\n      dup1\n      dup4\n      sload\n      div\n      mul\n      dup4\n      mstore\n      swap2\n      0x20\n      add\n      swap2\n      jump(tag_148)\n    tag_149:\n      dup3\n      add\n      swap2\n      swap1\n      0x00\n      mstore\n      keccak256(0x00, 0x20)\n      swap1\n    tag_150:\n      dup2\n      sload\n      dup2\n      mstore\n      swap1\n      0x01\n      add\n      swap1\n      0x20\n      add\n      dup1\n      dup4\n      gt\n      tag_150\n      jumpi\n      dup3\n      swap1\n      sub\n      0x1f\n      and\n      dup3\n      add\n      swap2\n    tag_148:\n      pop\n      pop\n      pop\n      pop\n      pop\n      swap1\n      pop\n        /* \"@openzeppelin/contracts/token/ERC20/ERC20.sol\":1779:1868  function name() public view virtual returns (string memory) {... */\n      swap1\n      jump\t// out\n        /* \"contracts/vault/vault02.sol\":3376:3724  function convertToAssets(uint256 shares)... */\n    tag_43:\n        /* \"contracts/vault/vault02.sol\":3478:3485  uint256 */\n      0x00\n        /* \"contracts/vault/vault02.sol\":3501:3515  uint256 supply */\n      dup1\n        /* \"contracts/vault/vault02.sol\":3518:3531  totalSupply() */\n      tag_152\n        /* \"contracts/vault/vault02.sol\":3518:3529  totalSupply */\n      tag_56\n        /* \"contracts/vault/vault02.sol\":3518:3531  totalSupply() */\n      jump\t// in\n    tag_152:\n        /* \"contracts/vault/vault02.sol\":3501:3531  uint256 supply = totalSupply() */\n      swap1\n      pop\n        /* \"contracts/vault/vault02.sol\":3671:3672  0 */\n      0x00\n        /* \"contracts/vault/vault02.sol\":3661:3667  supply */\n      dup2\n        /* \"contracts/vault/vault02.sol\":3661:3672  supply == 0 */\n      eq\n        /* \"contracts/vault/vault02.sol\":3661:3717  supply == 0 ? shares : (shares * totalAssets()) / supply */\n      tag_153\n      jumpi\n        /* \"contracts/vault/vault02.sol\":3711:3717  supply */\n      dup1\n        /* \"contracts/vault/vault02.sol\":3694:3707  totalAssets() */\n      tag_154\n        /* \"contracts/vault/vault02.sol\":3694:3705  totalAssets */\n      tag_33\n        /* \"contracts/vault/vault02.sol\":3694:3707  totalAssets() */\n      jump\t// in\n    tag_154:\n        /* \"contracts/vault/vault02.sol\":3685:3691  shares */\n      dup5\n        /* \"contracts/vault/vault02.sol\":3685:3707  shares * totalAssets() */\n      tag_155\n      swap2\n      swap1\n      tag_156\n      jump\t// in\n    tag_155:\n        /* \"contracts/vault/vault02.sol\":3684:3717  (shares * totalAssets()) / supply */\n      tag_157\n      swap2\n      swap1\n      tag_158\n      jump\t// in\n    tag_157:\n        /* \"contracts/vault/vault02.sol\":3661:3717  supply == 0 ? shares : (shares * totalAssets()) / supply */\n      jump(tag_159)\n    tag_153:\n        /* \"contracts/vault/vault02.sol\":3675:3681  shares */\n      dup3\n        /* \"contracts/vault/vault02.sol\":3661:3717  supply == 0 ? shares : (shares * totalAssets()) / supply */\n    tag_159:\n        /* \"contracts/vault/vault02.sol\":3654:3717  return supply == 0 ? shares : (shares * totalAssets()) / supply */\n      swap2\n      pop\n      pop\n        /* \"contracts/vault/vault02.sol\":3376:3724  function convertToAssets(uint256 shares)... */\n      swap2\n      swap1\n      pop\n      jump\t// out\n        /* \"@openzeppelin/contracts/token/ERC20/ERC20.sol\":3998:4184  function approve(address spender, uint256 value) public virtual returns (bool) {... */\n    tag_48:\n        /* \"@openzeppelin/contracts/token/ERC20/ERC20.sol\":4071:4075  bool */\n      0x00\n        /* \"@openzeppelin/contracts/token/ERC20/ERC20.sol\":4087:4100  address owner */\n      dup1\n        /* \"@openzeppelin/contracts/token/ERC20/ERC20.sol\":4103:4115  _msgSender() */\n      tag_161\n        /* \"@openzeppelin/contracts/token/ERC20/ERC20.sol\":4103:4113  _msgSender */\n      tag_162\n        /* \"@openzeppelin/contracts/token/ERC20/ERC20.sol\":4103:4115  _msgSender() */\n      jump\t// in\n    tag_161:\n        /* \"@openzeppelin/contracts/token/ERC20/ERC20.sol\":4087:4115  address owner = _msgSender() */\n      swap1\n      pop\n        /* \"@openzeppelin/contracts/token/ERC20/ERC20.sol\":4125:4156  _approve(owner, spender, value) */\n      tag_163\n        /* \"@openzeppelin/contracts/token/ERC20/ERC20.sol\":4134:4139  owner */\n      dup2\n        /* \"@openzeppelin/contracts/token/ERC20/ERC20.sol\":4141:4148  spender */\n      dup6\n        /* \"@openzeppelin/contracts/token/ERC20/ERC20.sol\":4150:4155  value */\n      dup6\n        /* \"@openzeppelin/contracts/token/ERC20/ERC20.sol\":4125:4133  _approve */\n      tag_164\n        /* \"@openzeppelin/contracts/token/ERC20/ERC20.sol\":4125:4156  _approve(owner, spender, value) */\n      jump\t// in\n    tag_163:\n        /* \"@openzeppelin/contracts/token/ERC20/ERC20.sol\":4173:4177  true */\n      0x01\n        /* \"@openzeppelin/contracts/token/ERC20/ERC20.sol\":4166:4177  return true */\n      swap2\n      pop\n      pop\n        /* \"@openzeppelin/contracts/token/ERC20/ERC20.sol\":3998:4184  function approve(address spender, uint256 value) public virtual returns (bool) {... */\n      swap3\n      swap2\n      pop\n      pop\n      jump\t// out\n        /* \"contracts/vault/vault02.sol\":4025:4187  function previewWithdraw(uint256 assets)... */\n    tag_53:\n        /* \"contracts/vault/vault02.sol\":4127:4134  uint256 */\n      0x00\n        /* \"contracts/vault/vault02.sol\":4157:4180  convertToShares(assets) */\n      tag_166\n        /* \"contracts/vault/vault02.sol\":4173:4179  assets */\n      dup3\n        /* \"contracts/vault/vault02.sol\":4157:4172  convertToShares */\n      tag_119\n        /* \"contracts/vault/vault02.sol\":4157:4180  convertToShares(assets) */\n      jump\t// in\n    tag_166:\n        /* \"contracts/vault/vault02.sol\":4150:4180  return convertToShares(assets) */\n      swap1\n      pop\n        /* \"contracts/vault/vault02.sol\":4025:4187  function previewWithdraw(uint256 assets)... */\n      swap2\n      swap1\n      pop\n      jump\t// out\n        /* \"@openzeppelin/contracts/token/ERC20/ERC20.sol\":2849:2946  function totalSupply() public view virtual returns (uint256) {... */\n    tag_56:\n        /* \"@openzeppelin/contracts/token/ERC20/ERC20.sol\":2901:2908  uint256 */\n      0x00\n        /* \"@openzeppelin/contracts/token/ERC20/ERC20.sol\":2927:2939  _totalSupply */\n      sload(0x02)\n        /* \"@openzeppelin/contracts/token/ERC20/ERC20.sol\":2920:2939  return _totalSupply */\n      swap1\n      pop\n        /* \"@openzeppelin/contracts/token/ERC20/ERC20.sol\":2849:2946  function totalSupply() public view virtual returns (uint256) {... */\n      swap1\n      jump\t// out\n        /* \"@openzeppelin/contracts/token/ERC20/ERC20.sol\":4776:5020  function transferFrom(address from, address to, uint256 value) public virtual returns (bool) {... */\n    tag_61:\n        /* \"@openzeppelin/contracts/token/ERC20/ERC20.sol\":4863:4867  bool */\n      0x00\n        /* \"@openzeppelin/contracts/token/ERC20/ERC20.sol\":4879:4894  address spender */\n      dup1\n        /* \"@openzeppelin/contracts/token/ERC20/ERC20.sol\":4897:4909  _msgSender() */\n      tag_169\n        /* \"@openzeppelin/contracts/token/ERC20/ERC20.sol\":4897:4907  _msgSender */\n      tag_162\n        /* \"@openzeppelin/contracts/token/ERC20/ERC20.sol\":4897:4909  _msgSender() */\n      jump\t// in\n    tag_169:\n        /* \"@openzeppelin/contracts/token/ERC20/ERC20.sol\":4879:4909  address spender = _msgSender() */\n      swap1\n      pop\n        /* \"@openzeppelin/contracts/token/ERC20/ERC20.sol\":4919:4956  _spendAllowance(from, spender, value) */\n      tag_170\n        /* \"@openzeppelin/contracts/token/ERC20/ERC20.sol\":4935:4939  from */\n      dup6\n        /* \"@openzeppelin/contracts/token/ERC20/ERC20.sol\":4941:4948  spender */\n      dup3\n        /* \"@openzeppelin/contracts/token/ERC20/ERC20.sol\":4950:4955  value */\n      dup6\n        /* \"@openzeppelin/contracts/token/ERC20/ERC20.sol\":4919:4934  _spendAllowance */\n      tag_171\n        /* \"@openzeppelin/contracts/token/ERC20/ERC20.sol\":4919:4956  _spendAllowance(from, spender, value) */\n      jump\t// in\n    tag_170:\n        /* \"@openzeppelin/contracts/token/ERC20/ERC20.sol\":4966:4992  _transfer(from, to, value) */\n      tag_172\n        /* \"@openzeppelin/contracts/token/ERC20/ERC20.sol\":4976:4980  from */\n      dup6\n        /* \"@openzeppelin/contracts/token/ERC20/ERC20.sol\":4982:4984  to */\n      dup6\n        /* \"@openzeppelin/contracts/token/ERC20/ERC20.sol\":4986:4991  value */\n      dup6\n        /* \"@openzeppelin/contracts/token/ERC20/ERC20.sol\":4966:4975  _transfer */\n      tag_173\n        /* \"@openzeppelin/contracts/token/ERC20/ERC20.sol\":4966:4992  _transfer(from, to, value) */\n      jump\t// in\n    tag_172:\n        /* \"@openzeppelin/contracts/token/ERC20/ERC20.sol\":5009:5013  true */\n      0x01\n        /* \"@openzeppelin/contracts/token/ERC20/ERC20.sol\":5002:5013  return true */\n      swap2\n      pop\n      pop\n        /* \"@openzeppelin/contracts/token/ERC20/ERC20.sol\":4776:5020  function transferFrom(address from, address to, uint256 value) public virtual returns (bool) {... */\n      swap4\n      swap3\n      pop\n      pop\n      pop\n      jump\t// out\n        /* \"@openzeppelin/contracts/token/ERC20/ERC20.sol\":2707:2789  function decimals() public view virtual returns (uint8) {... */\n    tag_64:\n        /* \"@openzeppelin/contracts/token/ERC20/ERC20.sol\":2756:2761  uint8 */\n      0x00\n        /* \"@openzeppelin/contracts/token/ERC20/ERC20.sol\":2780:2782  18 */\n      0x12\n        /* \"@openzeppelin/contracts/token/ERC20/ERC20.sol\":2773:2782  return 18 */\n      swap1\n      pop\n        /* \"@openzeppelin/contracts/token/ERC20/ERC20.sol\":2707:2789  function decimals() public view virtual returns (uint8) {... */\n      swap1\n      jump\t// out\n        /* \"contracts/vault/vault02.sol\":455:558  function asset() public view virtual override returns (address) {... */\n    tag_68:\n        /* \"contracts/vault/vault02.sol\":510:517  address */\n      0x00\n        /* \"contracts/vault/vault02.sol\":544:550  _asset */\n      immutable(\"0xd74e387d4432eb204e29b4c33d69dbbd245bbe36fa789e0c9387d7c3d660708c\")\n        /* \"contracts/vault/vault02.sol\":529:551  return address(_asset) */\n      swap1\n      pop\n        /* \"contracts/vault/vault02.sol\":455:558  function asset() public view virtual override returns (address) {... */\n      swap1\n      jump\t// out\n        /* \"contracts/vault/vault02.sol\":4359:4467  function maxDeposit(address) public view virtual returns (uint256) {... */\n    tag_74:\n        /* \"contracts/vault/vault02.sol\":4417:4424  uint256 */\n      0x00\n        /* \"contracts/vault/vault02.sol\":4443:4460  type(uint256).max */\n      0xffffffffffffffffffffffffffffffffffffffffffffffffffffffffffffffff\n        /* \"contracts/vault/vault02.sol\":4436:4460  return type(uint256).max */\n      swap1\n      pop\n        /* \"contracts/vault/vault02.sol\":4359:4467  function maxDeposit(address) public view virtual returns (uint256) {... */\n      swap2\n      swap1\n      pop\n      jump\t// out\n        /* \"contracts/vault/vault02.sol\":4193:4353  function previewRedeem(uint256 shares)... */\n    tag_78:\n        /* \"contracts/vault/vault02.sol\":4293:4300  uint256 */\n      0x00\n        /* \"contracts/vault/vault02.sol\":4323:4346  convertToAssets(shares) */\n      tag_178\n        /* \"contracts/vault/vault02.sol\":4339:4345  shares */\n      dup3\n        /* \"contracts/vault/vault02.sol\":4323:4338  convertToAssets */\n      tag_43\n        /* \"contracts/vault/vault02.sol\":4323:4346  convertToAssets(shares) */\n      jump\t// in\n    tag_178:\n        /* \"contracts/vault/vault02.sol\":4316:4346  return convertToAssets(shares) */\n      swap1\n      pop\n        /* \"contracts/vault/vault02.sol\":4193:4353  function previewRedeem(uint256 shares)... */\n      swap2\n      swap1\n      pop\n      jump\t// out\n        /* \"contracts/vault/vault02.sol\":564:1051  function deposit(uint256 assets, address receiver)... */\n    tag_83:\n        /* \"contracts/vault/vault02.sol\":680:694  uint256 shares */\n      0x00\n        /* \"contracts/vault/vault02.sol\":784:806  previewDeposit(assets) */\n      tag_180\n        /* \"contracts/vault/vault02.sol\":799:805  assets */\n      dup4\n        /* \"contracts/vault/vault02.sol\":784:798  previewDeposit */\n      tag_136\n        /* \"contracts/vault/vault02.sol\":784:806  previewDeposit(assets) */\n      jump\t// in\n    tag_180:\n        /* \"contracts/vault/vault02.sol\":775:806  shares = previewDeposit(assets) */\n      swap1\n      pop\n        /* \"contracts/vault/vault02.sol\":864:870  _asset */\n      immutable(\"0xd74e387d4432eb204e29b4c33d69dbbd245bbe36fa789e0c9387d7c3d660708c\")\n        /* \"contracts/vault/vault02.sol\":864:883  _asset.transferFrom */\n      0xffffffffffffffffffffffffffffffffffffffff\n      and\n      0x23b872dd\n        /* \"contracts/vault/vault02.sol\":884:894  msg.sender */\n      caller\n        /* \"contracts/vault/vault02.sol\":904:908  this */\n      address\n        /* \"contracts/vault/vault02.sol\":911:917  assets */\n      dup7\n        /* \"contracts/vault/vault02.sol\":864:918  _asset.transferFrom(msg.sender, address(this), assets) */\n      mload(0x40)\n      dup5\n      0xffffffff\n      and\n      0xe0\n      shl\n      dup2\n      mstore\n      0x04\n      add\n      tag_181\n      swap4\n      swap3\n      swap2\n      swap1\n      tag_182\n      jump\t// in\n    tag_181:\n      0x20\n      mload(0x40)\n      dup1\n      dup4\n      sub\n      dup2\n      0x00\n      dup8\n      gas\n      call\n      iszero\n      dup1\n      iszero\n      tag_184\n      jumpi\n      returndatasize\n      0x00\n      dup1\n      returndatacopy\n      revert(0x00, returndatasize)\n    tag_184:\n      pop\n      pop\n      pop\n      pop\n      mload(0x40)\n      returndatasize\n      not(0x1f)\n      0x1f\n      dup3\n      add\n      and\n      dup3\n      add\n      dup1\n      0x40\n      mstore\n      pop\n      dup2\n      add\n      swap1\n      tag_185\n      swap2\n      swap1\n      tag_186\n      jump\t// in\n    tag_185:\n      pop\n        /* \"contracts/vault/vault02.sol\":928:951  _mint(receiver, shares) */\n      tag_187\n        /* \"contracts/vault/vault02.sol\":934:942  receiver */\n      dup3\n        /* \"contracts/vault/vault02.sol\":944:950  shares */\n      dup3\n        /* \"contracts/vault/vault02.sol\":928:933  _mint */\n      tag_188\n        /* \"contracts/vault/vault02.sol\":928:951  _mint(receiver, shares) */\n      jump\t// in\n    tag_187:\n        /* \"contracts/vault/vault02.sol\":1019:1027  receiver */\n      dup2\n        /* \"contracts/vault/vault02.sol\":999:1044  Deposit(msg.sender, receiver, assets, shares) */\n      0xffffffffffffffffffffffffffffffffffffffff\n      and\n        /* \"contracts/vault/vault02.sol\":1007:1017  msg.sender */\n      caller\n        /* \"contracts/vault/vault02.sol\":999:1044  Deposit(msg.sender, receiver, assets, shares) */\n      0xffffffffffffffffffffffffffffffffffffffff\n      and\n      0xdcbc1c05240f31ff3ad067ef1ee35ce4997762752e3a095284754544f4c709d7\n        /* \"contracts/vault/vault02.sol\":1029:1035  assets */\n      dup6\n        /* \"contracts/vault/vault02.sol\":1037:1043  shares */\n      dup5\n        /* \"contracts/vault/vault02.sol\":999:1044  Deposit(msg.sender, receiver, assets, shares) */\n      mload(0x40)\n      tag_189\n      swap3\n      swap2\n      swap1\n      tag_190\n      jump\t// in\n    tag_189:\n      mload(0x40)\n      dup1\n      swap2\n      sub\n      swap1\n      log3\n        /* \"contracts/vault/vault02.sol\":564:1051  function deposit(uint256 assets, address receiver)... */\n      swap3\n      swap2\n      pop\n      pop\n      jump\t// out\n        /* \"@openzeppelin/contracts/token/ERC20/ERC20.sol\":3004:3120  function balanceOf(address account) public view virtual returns (uint256) {... */\n    tag_87:\n        /* \"@openzeppelin/contracts/token/ERC20/ERC20.sol\":3069:3076  uint256 */\n      0x00\n        /* \"@openzeppelin/contracts/token/ERC20/ERC20.sol\":3095:3104  _balances */\n      dup1\n        /* \"@openzeppelin/contracts/token/ERC20/ERC20.sol\":3095:3113  _balances[account] */\n      0x00\n        /* \"@openzeppelin/contracts/token/ERC20/ERC20.sol\":3105:3112  account */\n      dup4\n        /* \"@openzeppelin/contracts/token/ERC20/ERC20.sol\":3095:3113  _balances[account] */\n      0xffffffffffffffffffffffffffffffffffffffff\n      and\n      0xffffffffffffffffffffffffffffffffffffffff\n      and\n      dup2\n      mstore\n      0x20\n      add\n      swap1\n      dup2\n      mstore\n      0x20\n      add\n      0x00\n      keccak256\n      sload\n        /* \"@openzeppelin/contracts/token/ERC20/ERC20.sol\":3088:3113  return _balances[account] */\n      swap1\n      pop\n        /* \"@openzeppelin/contracts/token/ERC20/ERC20.sol\":3004:3120  function balanceOf(address account) public view virtual returns (uint256) {... */\n      swap2\n      swap1\n      pop\n      jump\t// out\n        /* \"contracts/vault/vault02.sol\":1057:1542  function mint(uint256 shares, address receiver)... */\n    tag_91:\n        /* \"contracts/vault/vault02.sol\":1170:1184  uint256 assets */\n      0x00\n        /* \"contracts/vault/vault02.sol\":1279:1298  previewMint(shares) */\n      tag_193\n        /* \"contracts/vault/vault02.sol\":1291:1297  shares */\n      dup4\n        /* \"contracts/vault/vault02.sol\":1279:1290  previewMint */\n      tag_102\n        /* \"contracts/vault/vault02.sol\":1279:1298  previewMint(shares) */\n      jump\t// in\n    tag_193:\n        /* \"contracts/vault/vault02.sol\":1270:1298  assets = previewMint(shares) */\n      swap1\n      pop\n        /* \"contracts/vault/vault02.sol\":1355:1361  _asset */\n      immutable(\"0xd74e387d4432eb204e29b4c33d69dbbd245bbe36fa789e0c9387d7c3d660708c\")\n        /* \"contracts/vault/vault02.sol\":1355:1374  _asset.transferFrom */\n      0xffffffffffffffffffffffffffffffffffffffff\n      and\n      0x23b872dd\n        /* \"contracts/vault/vault02.sol\":1375:1385  msg.sender */\n      caller\n        /* \"contracts/vault/vault02.sol\":1395:1399  this */\n      address\n        /* \"contracts/vault/vault02.sol\":1402:1408  assets */\n      dup5\n        /* \"contracts/vault/vault02.sol\":1355:1409  _asset.transferFrom(msg.sender, address(this), assets) */\n      mload(0x40)\n      dup5\n      0xffffffff\n      and\n      0xe0\n      shl\n      dup2\n      mstore\n      0x04\n      add\n      tag_194\n      swap4\n      swap3\n      swap2\n      swap1\n      tag_182\n      jump\t// in\n    tag_194:\n      0x20\n      mload(0x40)\n      dup1\n      dup4\n      sub\n      dup2\n      0x00\n      dup8\n      gas\n      call\n      iszero\n      dup1\n      iszero\n      tag_196\n      jumpi\n      returndatasize\n      0x00\n      dup1\n      returndatacopy\n      revert(0x00, returndatasize)\n    tag_196:\n      pop\n      pop\n      pop\n      pop\n      mload(0x40)\n      returndatasize\n      not(0x1f)\n      0x1f\n      dup3\n      add\n      and\n      dup3\n      add\n      dup1\n      0x40\n      mstore\n      pop\n      dup2\n      add\n      swap1\n      tag_197\n      swap2\n      swap1\n      tag_186\n      jump\t// in\n    tag_197:\n      pop\n        /* \"contracts/vault/vault02.sol\":1419:1442  _mint(receiver, shares) */\n      tag_198\n        /* \"contracts/vault/vault02.sol\":1425:1433  receiver */\n      dup3\n        /* \"contracts/vault/vault02.sol\":1435:1441  shares */\n      dup5\n        /* \"contracts/vault/vault02.sol\":1419:1424  _mint */\n      tag_188\n        /* \"contracts/vault/vault02.sol\":1419:1442  _mint(receiver, shares) */\n      jump\t// in\n    tag_198:\n        /* \"contracts/vault/vault02.sol\":1510:1518  receiver */\n      dup2\n        /* \"contracts/vault/vault02.sol\":1490:1535  Deposit(msg.sender, receiver, assets, shares) */\n      0xffffffffffffffffffffffffffffffffffffffff\n      and\n        /* \"contracts/vault/vault02.sol\":1498:1508  msg.sender */\n      caller\n        /* \"contracts/vault/vault02.sol\":1490:1535  Deposit(msg.sender, receiver, assets, shares) */\n      0xffffffffffffffffffffffffffffffffffffffff\n      and\n      0xdcbc1c05240f31ff3ad067ef1ee35ce4997762752e3a095284754544f4c709d7\n        /* \"contracts/vault/vault02.sol\":1520:1526  assets */\n      dup4\n        /* \"contracts/vault/vault02.sol\":1528:1534  shares */\n      dup7\n        /* \"contracts/vault/vault02.sol\":1490:1535  Deposit(msg.sender, receiver, assets, shares) */\n      mload(0x40)\n      tag_199\n      swap3\n      swap2\n      swap1\n      tag_190\n      jump\t// in\n    tag_199:\n      mload(0x40)\n      dup1\n      swap2\n      sub\n      swap1\n      log3\n        /* \"contracts/vault/vault02.sol\":1057:1542  function mint(uint256 shares, address receiver)... */\n      swap3\n      swap2\n      pop\n      pop\n      jump\t// out\n        /* \"@openzeppelin/contracts/token/ERC20/ERC20.sol\":1981:2074  function symbol() public view virtual returns (string memory) {... */\n    tag_94:\n        /* \"@openzeppelin/contracts/token/ERC20/ERC20.sol\":2028:2041  string memory */\n      0x60\n        /* \"@openzeppelin/contracts/token/ERC20/ERC20.sol\":2060:2067  _symbol */\n      0x04\n        /* \"@openzeppelin/contracts/token/ERC20/ERC20.sol\":2053:2067  return _symbol */\n      dup1\n      sload\n      tag_201\n      swap1\n      tag_146\n      jump\t// in\n    tag_201:\n      dup1\n      0x1f\n      add\n      0x20\n      dup1\n      swap2\n      div\n      mul\n      0x20\n      add\n      mload(0x40)\n      swap1\n      dup2\n      add\n      0x40\n      mstore\n      dup1\n      swap3\n      swap2\n      swap1\n      dup2\n      dup2\n      mstore\n      0x20\n      add\n      dup3\n      dup1\n      sload\n      tag_202\n      swap1\n      tag_146\n      jump\t// in\n    tag_202:\n      dup1\n      iszero\n      tag_203\n      jumpi\n      dup1\n      0x1f\n      lt\n      tag_204\n      jumpi\n      0x0100\n      dup1\n      dup4\n      sload\n      div\n      mul\n      dup4\n      mstore\n      swap2\n      0x20\n      add\n      swap2\n      jump(tag_203)\n    tag_204:\n      dup3\n      add\n      swap2\n      swap1\n      0x00\n      mstore\n      keccak256(0x00, 0x20)\n      swap1\n    tag_205:\n      dup2\n      sload\n      dup2\n      mstore\n      swap1\n      0x01\n      add\n      swap1\n      0x20\n      add\n      dup1\n      dup4\n      gt\n      tag_205\n      jumpi\n      dup3\n      swap1\n      sub\n      0x1f\n      and\n      dup3\n      add\n      swap2\n    tag_203:\n      pop\n      pop\n      pop\n      pop\n      pop\n      swap1\n      pop\n        /* \"@openzeppelin/contracts/token/ERC20/ERC20.sol\":1981:2074  function symbol() public view virtual returns (string memory) {... */\n      swap1\n      jump\t// out\n        /* \"@openzeppelin/contracts/token/ERC20/ERC20.sol\":3315:3493  function transfer(address to, uint256 value) public virtual returns (bool) {... */\n    tag_98:\n        /* \"@openzeppelin/contracts/token/ERC20/ERC20.sol\":3384:3388  bool */\n      0x00\n        /* \"@openzeppelin/contracts/token/ERC20/ERC20.sol\":3400:3413  address owner */\n      dup1\n        /* \"@openzeppelin/contracts/token/ERC20/ERC20.sol\":3416:3428  _msgSender() */\n      tag_207\n        /* \"@openzeppelin/contracts/token/ERC20/ERC20.sol\":3416:3426  _msgSender */\n      tag_162\n        /* \"@openzeppelin/contracts/token/ERC20/ERC20.sol\":3416:3428  _msgSender() */\n      jump\t// in\n    tag_207:\n        /* \"@openzeppelin/contracts/token/ERC20/ERC20.sol\":3400:3428  address owner = _msgSender() */\n      swap1\n      pop\n        /* \"@openzeppelin/contracts/token/ERC20/ERC20.sol\":3438:3465  _transfer(owner, to, value) */\n      tag_208\n        /* \"@openzeppelin/contracts/token/ERC20/ERC20.sol\":3448:3453  owner */\n      dup2\n        /* \"@openzeppelin/contracts/token/ERC20/ERC20.sol\":3455:3457  to */\n      dup6\n        /* \"@openzeppelin/contracts/token/ERC20/ERC20.sol\":3459:3464  value */\n      dup6\n        /* \"@openzeppelin/contracts/token/ERC20/ERC20.sol\":3438:3447  _transfer */\n      tag_173\n        /* \"@openzeppelin/contracts/token/ERC20/ERC20.sol\":3438:3465  _transfer(owner, to, value) */\n      jump\t// in\n    tag_208:\n        /* \"@openzeppelin/contracts/token/ERC20/ERC20.sol\":3482:3486  true */\n      0x01\n        /* \"@openzeppelin/contracts/token/ERC20/ERC20.sol\":3475:3486  return true */\n      swap2\n      pop\n      pop\n        /* \"@openzeppelin/contracts/token/ERC20/ERC20.sol\":3315:3493  function transfer(address to, uint256 value) public virtual returns (bool) {... */\n      swap3\n      swap2\n      pop\n      pop\n      jump\t// out\n        /* \"contracts/vault/vault02.sol\":3897:4019  function previewMint(uint256 shares) public view virtual returns (uint256) {... */\n    tag_102:\n        /* \"contracts/vault/vault02.sol\":3963:3970  uint256 */\n      0x00\n        /* \"contracts/vault/vault02.sol\":3989:4012  convertToAssets(shares) */\n      tag_210\n        /* \"contracts/vault/vault02.sol\":4005:4011  shares */\n      dup3\n        /* \"contracts/vault/vault02.sol\":3989:4004  convertToAssets */\n      tag_43\n        /* \"contracts/vault/vault02.sol\":3989:4012  convertToAssets(shares) */\n      jump\t// in\n    tag_210:\n        /* \"contracts/vault/vault02.sol\":3982:4012  return convertToAssets(shares) */\n      swap1\n      pop\n        /* \"contracts/vault/vault02.sol\":3897:4019  function previewMint(uint256 shares) public view virtual returns (uint256) {... */\n      swap2\n      swap1\n      pop\n      jump\t// out\n        /* \"contracts/vault/vault02.sol\":1548:2192  function withdraw(... */\n    tag_107:\n        /* \"contracts/vault/vault02.sol\":1669:1683  uint256 shares */\n      0x00\n        /* \"contracts/vault/vault02.sol\":1770:1793  previewWithdraw(assets) */\n      tag_212\n        /* \"contracts/vault/vault02.sol\":1786:1792  assets */\n      dup5\n        /* \"contracts/vault/vault02.sol\":1770:1785  previewWithdraw */\n      tag_53\n        /* \"contracts/vault/vault02.sol\":1770:1793  previewWithdraw(assets) */\n      jump\t// in\n    tag_212:\n        /* \"contracts/vault/vault02.sol\":1761:1793  shares = previewWithdraw(assets) */\n      swap1\n      pop\n        /* \"contracts/vault/vault02.sol\":1888:1893  owner */\n      dup2\n        /* \"contracts/vault/vault02.sol\":1874:1893  msg.sender != owner */\n      0xffffffffffffffffffffffffffffffffffffffff\n      and\n        /* \"contracts/vault/vault02.sol\":1874:1884  msg.sender */\n      caller\n        /* \"contracts/vault/vault02.sol\":1874:1893  msg.sender != owner */\n      0xffffffffffffffffffffffffffffffffffffffff\n      and\n      eq\n        /* \"contracts/vault/vault02.sol\":1870:1962  if (msg.sender != owner) {... */\n      tag_213\n      jumpi\n        /* \"contracts/vault/vault02.sol\":1909:1951  _spendAllowance(owner, msg.sender, shares) */\n      tag_214\n        /* \"contracts/vault/vault02.sol\":1925:1930  owner */\n      dup3\n        /* \"contracts/vault/vault02.sol\":1932:1942  msg.sender */\n      caller\n        /* \"contracts/vault/vault02.sol\":1944:1950  shares */\n      dup4\n        /* \"contracts/vault/vault02.sol\":1909:1924  _spendAllowance */\n      tag_171\n        /* \"contracts/vault/vault02.sol\":1909:1951  _spendAllowance(owner, msg.sender, shares) */\n      jump\t// in\n    tag_214:\n        /* \"contracts/vault/vault02.sol\":1870:1962  if (msg.sender != owner) {... */\n    tag_213:\n        /* \"contracts/vault/vault02.sol\":2020:2040  _burn(owner, shares) */\n      tag_215\n        /* \"contracts/vault/vault02.sol\":2026:2031  owner */\n      dup3\n        /* \"contracts/vault/vault02.sol\":2033:2039  shares */\n      dup3\n        /* \"contracts/vault/vault02.sol\":2020:2025  _burn */\n      tag_216\n        /* \"contracts/vault/vault02.sol\":2020:2040  _burn(owner, shares) */\n      jump\t// in\n    tag_215:\n        /* \"contracts/vault/vault02.sol\":2050:2056  _asset */\n      immutable(\"0xd74e387d4432eb204e29b4c33d69dbbd245bbe36fa789e0c9387d7c3d660708c\")\n        /* \"contracts/vault/vault02.sol\":2050:2065  _asset.transfer */\n      0xffffffffffffffffffffffffffffffffffffffff\n      and\n      0xa9059cbb\n        /* \"contracts/vault/vault02.sol\":2066:2074  receiver */\n      dup5\n        /* \"contracts/vault/vault02.sol\":2076:2082  assets */\n      dup7\n        /* \"contracts/vault/vault02.sol\":2050:2083  _asset.transfer(receiver, assets) */\n      mload(0x40)\n      dup4\n      0xffffffff\n      and\n      0xe0\n      shl\n      dup2\n      mstore\n      0x04\n      add\n      tag_217\n      swap3\n      swap2\n      swap1\n      tag_218\n      jump\t// in\n    tag_217:\n      0x20\n      mload(0x40)\n      dup1\n      dup4\n      sub\n      dup2\n      0x00\n      dup8\n      gas\n      call\n      iszero\n      dup1\n      iszero\n      tag_220\n      jumpi\n      returndatasize\n      0x00\n      dup1\n      returndatacopy\n      revert(0x00, returndatasize)\n    tag_220:\n      pop\n      pop\n      pop\n      pop\n      mload(0x40)\n      returndatasize\n      not(0x1f)\n      0x1f\n      dup3\n      add\n      and\n      dup3\n      add\n      dup1\n      0x40\n      mstore\n      pop\n      dup2\n      add\n      swap1\n      tag_221\n      swap2\n      swap1\n      tag_186\n      jump\t// in\n    tag_221:\n      pop\n        /* \"contracts/vault/vault02.sol\":2163:2168  owner */\n      dup2\n        /* \"contracts/vault/vault02.sol\":2132:2185  Withdraw(msg.sender, receiver, owner, assets, shares) */\n      0xffffffffffffffffffffffffffffffffffffffff\n      and\n        /* \"contracts/vault/vault02.sol\":2153:2161  receiver */\n      dup4\n        /* \"contracts/vault/vault02.sol\":2132:2185  Withdraw(msg.sender, receiver, owner, assets, shares) */\n      0xffffffffffffffffffffffffffffffffffffffff\n      and\n        /* \"contracts/vault/vault02.sol\":2141:2151  msg.sender */\n      caller\n        /* \"contracts/vault/vault02.sol\":2132:2185  Withdraw(msg.sender, receiver, owner, assets, shares) */\n      0xffffffffffffffffffffffffffffffffffffffff\n      and\n      0xfbde797d201c681b91056529119e0b02407c7bb96a4a2c75c01fc9667232c8db\n        /* \"contracts/vault/vault02.sol\":2170:2176  assets */\n      dup8\n        /* \"contracts/vault/vault02.sol\":2178:2184  shares */\n      dup6\n        /* \"contracts/vault/vault02.sol\":2132:2185  Withdraw(msg.sender, receiver, owner, assets, shares) */\n      mload(0x40)\n      tag_222\n      swap3\n      swap2\n      swap1\n      tag_190\n      jump\t// in\n    tag_222:\n      mload(0x40)\n      dup1\n      swap2\n      sub\n      swap1\n      log4\n        /* \"contracts/vault/vault02.sol\":1548:2192  function withdraw(... */\n      swap4\n      swap3\n      pop\n      pop\n      pop\n      jump\t// out\n        /* \"contracts/vault/vault02.sol\":2198:2843  function redeem(... */\n    tag_111:\n        /* \"contracts/vault/vault02.sol\":2317:2331  uint256 assets */\n      0x00\n        /* \"contracts/vault/vault02.sol\":2422:2443  previewRedeem(shares) */\n      tag_224\n        /* \"contracts/vault/vault02.sol\":2436:2442  shares */\n      dup5\n        /* \"contracts/vault/vault02.sol\":2422:2435  previewRedeem */\n      tag_78\n        /* \"contracts/vault/vault02.sol\":2422:2443  previewRedeem(shares) */\n      jump\t// in\n    tag_224:\n        /* \"contracts/vault/vault02.sol\":2413:2443  assets = previewRedeem(shares) */\n      swap1\n      pop\n        /* \"contracts/vault/vault02.sol\":2538:2543  owner */\n      dup2\n        /* \"contracts/vault/vault02.sol\":2524:2543  msg.sender != owner */\n      0xffffffffffffffffffffffffffffffffffffffff\n      and\n        /* \"contracts/vault/vault02.sol\":2524:2534  msg.sender */\n      caller\n        /* \"contracts/vault/vault02.sol\":2524:2543  msg.sender != owner */\n      0xffffffffffffffffffffffffffffffffffffffff\n      and\n      eq\n        /* \"contracts/vault/vault02.sol\":2520:2612  if (msg.sender != owner) {... */\n      tag_225\n      jumpi\n        /* \"contracts/vault/vault02.sol\":2559:2601  _spendAllowance(owner, msg.sender, shares) */\n      tag_226\n        /* \"contracts/vault/vault02.sol\":2575:2580  owner */\n      dup3\n        /* \"contracts/vault/vault02.sol\":2582:2592  msg.sender */\n      caller\n        /* \"contracts/vault/vault02.sol\":2594:2600  shares */\n      dup7\n        /* \"contracts/vault/vault02.sol\":2559:2574  _spendAllowance */\n      tag_171\n        /* \"contracts/vault/vault02.sol\":2559:2601  _spendAllowance(owner, msg.sender, shares) */\n      jump\t// in\n    tag_226:\n        /* \"contracts/vault/vault02.sol\":2520:2612  if (msg.sender != owner) {... */\n    tag_225:\n        /* \"contracts/vault/vault02.sol\":2670:2690  _burn(owner, shares) */\n      tag_227\n        /* \"contracts/vault/vault02.sol\":2676:2681  owner */\n      dup3\n        /* \"contracts/vault/vault02.sol\":2683:2689  shares */\n      dup6\n        /* \"contracts/vault/vault02.sol\":2670:2675  _burn */\n      tag_216\n        /* \"contracts/vault/vault02.sol\":2670:2690  _burn(owner, shares) */\n      jump\t// in\n    tag_227:\n        /* \"contracts/vault/vault02.sol\":2700:2706  _asset */\n      immutable(\"0xd74e387d4432eb204e29b4c33d69dbbd245bbe36fa789e0c9387d7c3d660708c\")\n        /* \"contracts/vault/vault02.sol\":2700:2715  _asset.transfer */\n      0xffffffffffffffffffffffffffffffffffffffff\n      and\n      0xa9059cbb\n        /* \"contracts/vault/vault02.sol\":2716:2724  receiver */\n      dup5\n        /* \"contracts/vault/vault02.sol\":2726:2732  assets */\n      dup4\n        /* \"contracts/vault/vault02.sol\":2700:2733  _asset.transfer(receiver, assets) */\n      mload(0x40)\n      dup4\n      0xffffffff\n      and\n      0xe0\n      shl\n      dup2\n      mstore\n      0x04\n      add\n      tag_228\n      swap3\n      swap2\n      swap1\n      tag_218\n      jump\t// in\n    tag_228:\n      0x20\n      mload(0x40)\n      dup1\n      dup4\n      sub\n      dup2\n      0x00\n      dup8\n      gas\n      call\n      iszero\n      dup1\n      iszero\n      tag_230\n      jumpi\n      returndatasize\n      0x00\n      dup1\n      returndatacopy\n      revert(0x00, returndatasize)\n    tag_230:\n      pop\n      pop\n      pop\n      pop\n      mload(0x40)\n      returndatasize\n      not(0x1f)\n      0x1f\n      dup3\n      add\n      and\n      dup3\n      add\n      dup1\n      0x40\n      mstore\n      pop\n      dup2\n      add\n      swap1\n      tag_231\n      swap2\n      swap1\n      tag_186\n      jump\t// in\n    tag_231:\n      pop\n        /* \"contracts/vault/vault02.sol\":2814:2819  owner */\n      dup2\n        /* \"contracts/vault/vault02.sol\":2783:2836  Withdraw(msg.sender, receiver, owner, assets, shares) */\n      0xffffffffffffffffffffffffffffffffffffffff\n      and\n        /* \"contracts/vault/vault02.sol\":2804:2812  receiver */\n      dup4\n        /* \"contracts/vault/vault02.sol\":2783:2836  Withdraw(msg.sender, receiver, owner, assets, shares) */\n      0xffffffffffffffffffffffffffffffffffffffff\n      and\n        /* \"contracts/vault/vault02.sol\":2792:2802  msg.sender */\n      caller\n        /* \"contracts/vault/vault02.sol\":2783:2836  Withdraw(msg.sender, receiver, owner, assets, shares) */\n      0xffffffffffffffffffffffffffffffffffffffff\n      and\n      0xfbde797d201c681b91056529119e0b02407c7bb96a4a2c75c01fc9667232c8db\n        /* \"contracts/vault/vault02.sol\":2821:2827  assets */\n      dup5\n        /* \"contracts/vault/vault02.sol\":2829:2835  shares */\n      dup9\n        /* \"contracts/vault/vault02.sol\":2783:2836  Withdraw(msg.sender, receiver, owner, assets, shares) */\n      mload(0x40)\n      tag_232\n      swap3\n      swap2\n      swap1\n      tag_190\n      jump\t// in\n    tag_232:\n      mload(0x40)\n      dup1\n      swap2\n      sub\n      swap1\n      log4\n        /* \"contracts/vault/vault02.sol\":2198:2843  function redeem(... */\n      swap4\n      swap3\n      pop\n      pop\n      pop\n      jump\t// out\n        /* \"contracts/vault/vault02.sol\":4473:4578  function maxMint(address) public view virtual returns (uint256) {... */\n    tag_115:\n        /* \"contracts/vault/vault02.sol\":4528:4535  uint256 */\n      0x00\n        /* \"contracts/vault/vault02.sol\":4554:4571  type(uint256).max */\n      0xffffffffffffffffffffffffffffffffffffffffffffffffffffffffffffffff\n        /* \"contracts/vault/vault02.sol\":4547:4571  return type(uint256).max */\n      swap1\n      pop\n        /* \"contracts/vault/vault02.sol\":4473:4578  function maxMint(address) public view virtual returns (uint256) {... */\n      swap2\n      swap1\n      pop\n      jump\t// out\n        /* \"contracts/vault/vault02.sol\":3016:3370  function convertToShares(uint256 assets)... */\n    tag_119:\n        /* \"contracts/vault/vault02.sol\":3118:3125  uint256 */\n      0x00\n        /* \"contracts/vault/vault02.sol\":3141:3155  uint256 supply */\n      dup1\n        /* \"contracts/vault/vault02.sol\":3158:3171  totalSupply() */\n      tag_235\n        /* \"contracts/vault/vault02.sol\":3158:3169  totalSupply */\n      tag_56\n        /* \"contracts/vault/vault02.sol\":3158:3171  totalSupply() */\n      jump\t// in\n    tag_235:\n        /* \"contracts/vault/vault02.sol\":3141:3171  uint256 supply = totalSupply() */\n      swap1\n      pop\n        /* \"contracts/vault/vault02.sol\":3317:3318  0 */\n      0x00\n        /* \"contracts/vault/vault02.sol\":3307:3313  supply */\n      dup2\n        /* \"contracts/vault/vault02.sol\":3307:3318  supply == 0 */\n      eq\n        /* \"contracts/vault/vault02.sol\":3307:3363  supply == 0 ? assets : (assets * supply) / totalAssets() */\n      tag_236\n      jumpi\n        /* \"contracts/vault/vault02.sol\":3350:3363  totalAssets() */\n      tag_237\n        /* \"contracts/vault/vault02.sol\":3350:3361  totalAssets */\n      tag_33\n        /* \"contracts/vault/vault02.sol\":3350:3363  totalAssets() */\n      jump\t// in\n    tag_237:\n        /* \"contracts/vault/vault02.sol\":3340:3346  supply */\n      dup2\n        /* \"contracts/vault/vault02.sol\":3331:3337  assets */\n      dup5\n        /* \"contracts/vault/vault02.sol\":3331:3346  assets * supply */\n      tag_238\n      swap2\n      swap1\n      tag_156\n      jump\t// in\n    tag_238:\n        /* \"contracts/vault/vault02.sol\":3330:3363  (assets * supply) / totalAssets() */\n      tag_239\n      swap2\n      swap1\n      tag_158\n      jump\t// in\n    tag_239:\n        /* \"contracts/vault/vault02.sol\":3307:3363  supply == 0 ? assets : (assets * supply) / totalAssets() */\n      jump(tag_240)\n    tag_236:\n        /* \"contracts/vault/vault02.sol\":3321:3327  assets */\n      dup3\n        /* \"contracts/vault/vault02.sol\":3307:3363  supply == 0 ? assets : (assets * supply) / totalAssets() */\n    tag_240:\n        /* \"contracts/vault/vault02.sol\":3300:3363  return supply == 0 ? assets : (assets * supply) / totalAssets() */\n      swap2\n      pop\n      pop\n        /* \"contracts/vault/vault02.sol\":3016:3370  function convertToShares(uint256 assets)... */\n      swap2\n      swap1\n      pop\n      jump\t// out\n        /* \"contracts/vault/vault02.sol\":4584:4715  function maxWithdraw(address owner) public view virtual returns (uint256) {... */\n    tag_123:\n        /* \"contracts/vault/vault02.sol\":4649:4656  uint256 */\n      0x00\n        /* \"contracts/vault/vault02.sol\":4675:4708  convertToAssets(balanceOf(owner)) */\n      tag_242\n        /* \"contracts/vault/vault02.sol\":4691:4707  balanceOf(owner) */\n      tag_243\n        /* \"contracts/vault/vault02.sol\":4701:4706  owner */\n      dup4\n        /* \"contracts/vault/vault02.sol\":4691:4700  balanceOf */\n      tag_87\n        /* \"contracts/vault/vault02.sol\":4691:4707  balanceOf(owner) */\n      jump\t// in\n    tag_243:\n        /* \"contracts/vault/vault02.sol\":4675:4690  convertToAssets */\n      tag_43\n        /* \"contracts/vault/vault02.sol\":4675:4708  convertToAssets(balanceOf(owner)) */\n      jump\t// in\n    tag_242:\n        /* \"contracts/vault/vault02.sol\":4668:4708  return convertToAssets(balanceOf(owner)) */\n      swap1\n      pop\n        /* \"contracts/vault/vault02.sol\":4584:4715  function maxWithdraw(address owner) public view virtual returns (uint256) {... */\n      swap2\n      swap1\n      pop\n      jump\t// out\n        /* \"contracts/vault/vault02.sol\":4721:4833  function maxRedeem(address owner) public view virtual returns (uint256) {... */\n    tag_127:\n        /* \"contracts/vault/vault02.sol\":4784:4791  uint256 */\n      0x00\n        /* \"contracts/vault/vault02.sol\":4810:4826  balanceOf(owner) */\n      tag_245\n        /* \"contracts/vault/vault02.sol\":4820:4825  owner */\n      dup3\n        /* \"contracts/vault/vault02.sol\":4810:4819  balanceOf */\n      tag_87\n        /* \"contracts/vault/vault02.sol\":4810:4826  balanceOf(owner) */\n      jump\t// in\n    tag_245:\n        /* \"contracts/vault/vault02.sol\":4803:4826  return balanceOf(owner) */\n      swap1\n      pop\n        /* \"contracts/vault/vault02.sol\":4721:4833  function maxRedeem(address owner) public view virtual returns (uint256) {... */\n      swap2\n      swap1\n      pop\n      jump\t// out\n        /* \"@openzeppelin/contracts/token/ERC20/ERC20.sol\":3551:3691  function allowance(address owner, address spender) public view virtual returns (uint256) {... */\n    tag_132:\n        /* \"@openzeppelin/contracts/token/ERC20/ERC20.sol\":3631:3638  uint256 */\n      0x00\n        /* \"@openzeppelin/contracts/token/ERC20/ERC20.sol\":3657:3668  _allowances */\n      0x01\n        /* \"@openzeppelin/contracts/token/ERC20/ERC20.sol\":3657:3675  _allowances[owner] */\n      0x00\n        /* \"@openzeppelin/contracts/token/ERC20/ERC20.sol\":3669:3674  owner */\n      dup5\n        /* \"@openzeppelin/contracts/token/ERC20/ERC20.sol\":3657:3675  _allowances[owner] */\n      0xffffffffffffffffffffffffffffffffffffffff\n      and\n      0xffffffffffffffffffffffffffffffffffffffff\n      and\n      dup2\n      mstore\n      0x20\n      add\n      swap1\n      dup2\n      mstore\n      0x20\n      add\n      0x00\n      keccak256\n        /* \"@openzeppelin/contracts/token/ERC20/ERC20.sol\":3657:3684  _allowances[owner][spender] */\n      0x00\n        /* \"@openzeppelin/contracts/token/ERC20/ERC20.sol\":3676:3683  spender */\n      dup4\n        /* \"@openzeppelin/contracts/token/ERC20/ERC20.sol\":3657:3684  _allowances[owner][spender] */\n      0xffffffffffffffffffffffffffffffffffffffff\n      and\n      0xffffffffffffffffffffffffffffffffffffffff\n      and\n      dup2\n      mstore\n      0x20\n      add\n      swap1\n      dup2\n      mstore\n      0x20\n      add\n      0x00\n      keccak256\n      sload\n        /* \"@openzeppelin/contracts/token/ERC20/ERC20.sol\":3650:3684  return _allowances[owner][spender] */\n      swap1\n      pop\n        /* \"@openzeppelin/contracts/token/ERC20/ERC20.sol\":3551:3691  function allowance(address owner, address spender) public view virtual returns (uint256) {... */\n      swap3\n      swap2\n      pop\n      pop\n      jump\t// out\n        /* \"contracts/vault/vault02.sol\":3730:3891  function previewDeposit(uint256 assets)... */\n    tag_136:\n        /* \"contracts/vault/vault02.sol\":3831:3838  uint256 */\n      0x00\n        /* \"contracts/vault/vault02.sol\":3861:3884  convertToShares(assets) */\n      tag_248\n        /* \"contracts/vault/vault02.sol\":3877:3883  assets */\n      dup3\n        /* \"contracts/vault/vault02.sol\":3861:3876  convertToShares */\n      tag_119\n        /* \"contracts/vault/vault02.sol\":3861:3884  convertToShares(assets) */\n      jump\t// in\n    tag_248:\n        /* \"contracts/vault/vault02.sol\":3854:3884  return convertToShares(assets) */\n      swap1\n      pop\n        /* \"contracts/vault/vault02.sol\":3730:3891  function previewDeposit(uint256 assets)... */\n      swap2\n      swap1\n      pop\n      jump\t// out\n        /* \"@openzeppelin/contracts/utils/Context.sol\":656:752  function _msgSender() internal view virtual returns (address) {... */\n    tag_162:\n        /* \"@openzeppelin/contracts/utils/Context.sol\":709:716  address */\n      0x00\n        /* \"@openzeppelin/contracts/utils/Context.sol\":735:745  msg.sender */\n      caller\n        /* \"@openzeppelin/contracts/utils/Context.sol\":728:745  return msg.sender */\n      swap1\n      pop\n        /* \"@openzeppelin/contracts/utils/Context.sol\":656:752  function _msgSender() internal view virtual returns (address) {... */\n      swap1\n      jump\t// out\n        /* \"@openzeppelin/contracts/token/ERC20/ERC20.sol\":8726:8854  function _approve(address owner, address spender, uint256 value) internal {... */\n    tag_164:\n        /* \"@openzeppelin/contracts/token/ERC20/ERC20.sol\":8810:8847  _approve(owner, spender, value, true) */\n      tag_251\n        /* \"@openzeppelin/contracts/token/ERC20/ERC20.sol\":8819:8824  owner */\n      dup4\n        /* \"@openzeppelin/contracts/token/ERC20/ERC20.sol\":8826:8833  spender */\n      dup4\n        /* \"@openzeppelin/contracts/token/ERC20/ERC20.sol\":8835:8840  value */\n      dup4\n        /* \"@openzeppelin/contracts/token/ERC20/ERC20.sol\":8842:8846  true */\n      0x01\n        /* \"@openzeppelin/contracts/token/ERC20/ERC20.sol\":8810:8818  _approve */\n      tag_252\n        /* \"@openzeppelin/contracts/token/ERC20/ERC20.sol\":8810:8847  _approve(owner, spender, value, true) */\n      jump\t// in\n    tag_251:\n        /* \"@openzeppelin/contracts/token/ERC20/ERC20.sol\":8726:8854  function _approve(address owner, address spender, uint256 value) internal {... */\n      pop\n      pop\n      pop\n      jump\t// out\n        /* \"@openzeppelin/contracts/token/ERC20/ERC20.sol\":10415:10892  function _spendAllowance(address owner, address spender, uint256 value) internal virtual {... */\n    tag_171:\n        /* \"@openzeppelin/contracts/token/ERC20/ERC20.sol\":10514:10538  uint256 currentAllowance */\n      0x00\n        /* \"@openzeppelin/contracts/token/ERC20/ERC20.sol\":10541:10566  allowance(owner, spender) */\n      tag_254\n        /* \"@openzeppelin/contracts/token/ERC20/ERC20.sol\":10551:10556  owner */\n      dup5\n        /* \"@openzeppelin/contracts/token/ERC20/ERC20.sol\":10558:10565  spender */\n      dup5\n        /* \"@openzeppelin/contracts/token/ERC20/ERC20.sol\":10541:10550  allowance */\n      tag_132\n        /* \"@openzeppelin/contracts/token/ERC20/ERC20.sol\":10541:10566  allowance(owner, spender) */\n      jump\t// in\n    tag_254:\n        /* \"@openzeppelin/contracts/token/ERC20/ERC20.sol\":10514:10566  uint256 currentAllowance = allowance(owner, spender) */\n      swap1\n      pop\n        /* \"@openzeppelin/contracts/token/ERC20/ERC20.sol\":10600:10617  type(uint256).max */\n      0xffffffffffffffffffffffffffffffffffffffffffffffffffffffffffffffff\n        /* \"@openzeppelin/contracts/token/ERC20/ERC20.sol\":10580:10596  currentAllowance */\n      dup2\n        /* \"@openzeppelin/contracts/token/ERC20/ERC20.sol\":10580:10617  currentAllowance != type(uint256).max */\n      eq\n        /* \"@openzeppelin/contracts/token/ERC20/ERC20.sol\":10576:10886  if (currentAllowance != type(uint256).max) {... */\n      tag_255\n      jumpi\n        /* \"@openzeppelin/contracts/token/ERC20/ERC20.sol\":10656:10661  value */\n      dup2\n        /* \"@openzeppelin/contracts/token/ERC20/ERC20.sol\":10637:10653  currentAllowance */\n      dup2\n        /* \"@openzeppelin/contracts/token/ERC20/ERC20.sol\":10637:10661  currentAllowance < value */\n      lt\n        /* \"@openzeppelin/contracts/token/ERC20/ERC20.sol\":10633:10763  if (currentAllowance < value) {... */\n      iszero\n      tag_256\n      jumpi\n        /* \"@openzeppelin/contracts/token/ERC20/ERC20.sol\":10715:10722  spender */\n      dup3\n        /* \"@openzeppelin/contracts/token/ERC20/ERC20.sol\":10724:10740  currentAllowance */\n      dup2\n        /* \"@openzeppelin/contracts/token/ERC20/ERC20.sol\":10742:10747  value */\n      dup4\n        /* \"@openzeppelin/contracts/token/ERC20/ERC20.sol\":10688:10748  ERC20InsufficientAllowance(spender, currentAllowance, value) */\n      mload(0x40)\n      0xfb8f41b200000000000000000000000000000000000000000000000000000000\n      dup2\n      mstore\n      0x04\n      add\n      tag_257\n      swap4\n      swap3\n      swap2\n      swap1\n      tag_258\n      jump\t// in\n    tag_257:\n      mload(0x40)\n      dup1\n      swap2\n      sub\n      swap1\n      revert\n        /* \"@openzeppelin/contracts/token/ERC20/ERC20.sol\":10633:10763  if (currentAllowance < value) {... */\n    tag_256:\n        /* \"@openzeppelin/contracts/token/ERC20/ERC20.sol\":10804:10861  _approve(owner, spender, currentAllowance - value, false) */\n      tag_259\n        /* \"@openzeppelin/contracts/token/ERC20/ERC20.sol\":10813:10818  owner */\n      dup5\n        /* \"@openzeppelin/contracts/token/ERC20/ERC20.sol\":10820:10827  spender */\n      dup5\n        /* \"@openzeppelin/contracts/token/ERC20/ERC20.sol\":10848:10853  value */\n      dup5\n        /* \"@openzeppelin/contracts/token/ERC20/ERC20.sol\":10829:10845  currentAllowance */\n      dup5\n        /* \"@openzeppelin/contracts/token/ERC20/ERC20.sol\":10829:10853  currentAllowance - value */\n      sub\n        /* \"@openzeppelin/contracts/token/ERC20/ERC20.sol\":10855:10860  false */\n      0x00\n        /* \"@openzeppelin/contracts/token/ERC20/ERC20.sol\":10804:10812  _approve */\n      tag_252\n        /* \"@openzeppelin/contracts/token/ERC20/ERC20.sol\":10804:10861  _approve(owner, spender, currentAllowance - value, false) */\n      jump\t// in\n    tag_259:\n        /* \"@openzeppelin/contracts/token/ERC20/ERC20.sol\":10576:10886  if (currentAllowance != type(uint256).max) {... */\n    tag_255:\n        /* \"@openzeppelin/contracts/token/ERC20/ERC20.sol\":10504:10892  {... */\n      pop\n        /* \"@openzeppelin/contracts/token/ERC20/ERC20.sol\":10415:10892  function _spendAllowance(address owner, address spender, uint256 value) internal virtual {... */\n      pop\n      pop\n      pop\n      jump\t// out\n        /* \"@openzeppelin/contracts/token/ERC20/ERC20.sol\":5393:5693  function _transfer(address from, address to, uint256 value) internal {... */\n    tag_173:\n        /* \"@openzeppelin/contracts/token/ERC20/ERC20.sol\":5492:5493  0 */\n      0x00\n        /* \"@openzeppelin/contracts/token/ERC20/ERC20.sol\":5476:5494  from == address(0) */\n      0xffffffffffffffffffffffffffffffffffffffff\n      and\n        /* \"@openzeppelin/contracts/token/ERC20/ERC20.sol\":5476:5480  from */\n      dup4\n        /* \"@openzeppelin/contracts/token/ERC20/ERC20.sol\":5476:5494  from == address(0) */\n      0xffffffffffffffffffffffffffffffffffffffff\n      and\n      sub\n        /* \"@openzeppelin/contracts/token/ERC20/ERC20.sol\":5472:5558  if (from == address(0)) {... */\n      tag_261\n      jumpi\n        /* \"@openzeppelin/contracts/token/ERC20/ERC20.sol\":5544:5545  0 */\n      0x00\n        /* \"@openzeppelin/contracts/token/ERC20/ERC20.sol\":5517:5547  ERC20InvalidSender(address(0)) */\n      mload(0x40)\n      0x96c6fd1e00000000000000000000000000000000000000000000000000000000\n      dup2\n      mstore\n      0x04\n      add\n      tag_262\n      swap2\n      swap1\n      tag_70\n      jump\t// in\n    tag_262:\n      mload(0x40)\n      dup1\n      swap2\n      sub\n      swap1\n      revert\n        /* \"@openzeppelin/contracts/token/ERC20/ERC20.sol\":5472:5558  if (from == address(0)) {... */\n    tag_261:\n        /* \"@openzeppelin/contracts/token/ERC20/ERC20.sol\":5585:5586  0 */\n      0x00\n        /* \"@openzeppelin/contracts/token/ERC20/ERC20.sol\":5571:5587  to == address(0) */\n      0xffffffffffffffffffffffffffffffffffffffff\n      and\n        /* \"@openzeppelin/contracts/token/ERC20/ERC20.sol\":5571:5573  to */\n      dup3\n        /* \"@openzeppelin/contracts/token/ERC20/ERC20.sol\":5571:5587  to == address(0) */\n      0xffffffffffffffffffffffffffffffffffffffff\n      and\n      sub\n        /* \"@openzeppelin/contracts/token/ERC20/ERC20.sol\":5567:5653  if (to == address(0)) {... */\n      tag_263\n      jumpi\n        /* \"@openzeppelin/contracts/token/ERC20/ERC20.sol\":5639:5640  0 */\n      0x00\n        /* \"@openzeppelin/contracts/token/ERC20/ERC20.sol\":5610:5642  ERC20InvalidReceiver(address(0)) */\n      mload(0x40)\n      0xec442f0500000000000000000000000000000000000000000000000000000000\n      dup2\n      mstore\n      0x04\n      add\n      tag_264\n      swap2\n      swap1\n      tag_70\n      jump\t// in\n    tag_264:\n      mload(0x40)\n      dup1\n      swap2\n      sub\n      swap1\n      revert\n        /* \"@openzeppelin/contracts/token/ERC20/ERC20.sol\":5567:5653  if (to == address(0)) {... */\n    tag_263:\n        /* \"@openzeppelin/contracts/token/ERC20/ERC20.sol\":5662:5686  _update(from, to, value) */\n      tag_265\n        /* \"@openzeppelin/contracts/token/ERC20/ERC20.sol\":5670:5674  from */\n      dup4\n        /* \"@openzeppelin/contracts/token/ERC20/ERC20.sol\":5676:5678  to */\n      dup4\n        /* \"@openzeppelin/contracts/token/ERC20/ERC20.sol\":5680:5685  value */\n      dup4\n        /* \"@openzeppelin/contracts/token/ERC20/ERC20.sol\":5662:5669  _update */\n      tag_266\n        /* \"@openzeppelin/contracts/token/ERC20/ERC20.sol\":5662:5686  _update(from, to, value) */\n      jump\t// in\n    tag_265:\n        /* \"@openzeppelin/contracts/token/ERC20/ERC20.sol\":5393:5693  function _transfer(address from, address to, uint256 value) internal {... */\n      pop\n      pop\n      pop\n      jump\t// out\n        /* \"@openzeppelin/contracts/token/ERC20/ERC20.sol\":7458:7666  function _mint(address account, uint256 value) internal {... */\n    tag_188:\n        /* \"@openzeppelin/contracts/token/ERC20/ERC20.sol\":7547:7548  0 */\n      0x00\n        /* \"@openzeppelin/contracts/token/ERC20/ERC20.sol\":7528:7549  account == address(0) */\n      0xffffffffffffffffffffffffffffffffffffffff\n      and\n        /* \"@openzeppelin/contracts/token/ERC20/ERC20.sol\":7528:7535  account */\n      dup3\n        /* \"@openzeppelin/contracts/token/ERC20/ERC20.sol\":7528:7549  account == address(0) */\n      0xffffffffffffffffffffffffffffffffffffffff\n      and\n      sub\n        /* \"@openzeppelin/contracts/token/ERC20/ERC20.sol\":7524:7615  if (account == address(0)) {... */\n      tag_268\n      jumpi\n        /* \"@openzeppelin/contracts/token/ERC20/ERC20.sol\":7601:7602  0 */\n      0x00\n        /* \"@openzeppelin/contracts/token/ERC20/ERC20.sol\":7572:7604  ERC20InvalidReceiver(address(0)) */\n      mload(0x40)\n      0xec442f0500000000000000000000000000000000000000000000000000000000\n      dup2\n      mstore\n      0x04\n      add\n      tag_269\n      swap2\n      swap1\n      tag_70\n      jump\t// in\n    tag_269:\n      mload(0x40)\n      dup1\n      swap2\n      sub\n      swap1\n      revert\n        /* \"@openzeppelin/contracts/token/ERC20/ERC20.sol\":7524:7615  if (account == address(0)) {... */\n    tag_268:\n        /* \"@openzeppelin/contracts/token/ERC20/ERC20.sol\":7624:7659  _update(address(0), account, value) */\n      tag_270\n        /* \"@openzeppelin/contracts/token/ERC20/ERC20.sol\":7640:7641  0 */\n      0x00\n        /* \"@openzeppelin/contracts/token/ERC20/ERC20.sol\":7644:7651  account */\n      dup4\n        /* \"@openzeppelin/contracts/token/ERC20/ERC20.sol\":7653:7658  value */\n      dup4\n        /* \"@openzeppelin/contracts/token/ERC20/ERC20.sol\":7624:7631  _update */\n      tag_266\n        /* \"@openzeppelin/contracts/token/ERC20/ERC20.sol\":7624:7659  _update(address(0), account, value) */\n      jump\t// in\n    tag_270:\n        /* \"@openzeppelin/contracts/token/ERC20/ERC20.sol\":7458:7666  function _mint(address account, uint256 value) internal {... */\n      pop\n      pop\n      jump\t// out\n        /* \"@openzeppelin/contracts/token/ERC20/ERC20.sol\":7984:8190  function _burn(address account, uint256 value) internal {... */\n    tag_216:\n        /* \"@openzeppelin/contracts/token/ERC20/ERC20.sol\":8073:8074  0 */\n      0x00\n        /* \"@openzeppelin/contracts/token/ERC20/ERC20.sol\":8054:8075  account == address(0) */\n      0xffffffffffffffffffffffffffffffffffffffff\n      and\n        /* \"@openzeppelin/contracts/token/ERC20/ERC20.sol\":8054:8061  account */\n      dup3\n        /* \"@openzeppelin/contracts/token/ERC20/ERC20.sol\":8054:8075  account == address(0) */\n      0xffffffffffffffffffffffffffffffffffffffff\n      and\n      sub\n        /* \"@openzeppelin/contracts/token/ERC20/ERC20.sol\":8050:8139  if (account == address(0)) {... */\n      tag_272\n      jumpi\n        /* \"@openzeppelin/contracts/token/ERC20/ERC20.sol\":8125:8126  0 */\n      0x00\n        /* \"@openzeppelin/contracts/token/ERC20/ERC20.sol\":8098:8128  ERC20InvalidSender(address(0)) */\n      mload(0x40)\n      0x96c6fd1e00000000000000000000000000000000000000000000000000000000\n      dup2\n      mstore\n      0x04\n      add\n      tag_273\n      swap2\n      swap1\n      tag_70\n      jump\t// in\n    tag_273:\n      mload(0x40)\n      dup1\n      swap2\n      sub\n      swap1\n      revert\n        /* \"@openzeppelin/contracts/token/ERC20/ERC20.sol\":8050:8139  if (account == address(0)) {... */\n    tag_272:\n        /* \"@openzeppelin/contracts/token/ERC20/ERC20.sol\":8148:8183  _update(account, address(0), value) */\n      tag_274\n        /* \"@openzeppelin/contracts/token/ERC20/ERC20.sol\":8156:8163  account */\n      dup3\n        /* \"@openzeppelin/contracts/token/ERC20/ERC20.sol\":8173:8174  0 */\n      0x00\n        /* \"@openzeppelin/contracts/token/ERC20/ERC20.sol\":8177:8182  value */\n      dup4\n        /* \"@openzeppelin/contracts/token/ERC20/ERC20.sol\":8148:8155  _update */\n      tag_266\n        /* \"@openzeppelin/contracts/token/ERC20/ERC20.sol\":8148:8183  _update(account, address(0), value) */\n      jump\t// in\n    tag_274:\n        /* \"@openzeppelin/contracts/token/ERC20/ERC20.sol\":7984:8190  function _burn(address account, uint256 value) internal {... */\n      pop\n      pop\n      jump\t// out\n        /* \"@openzeppelin/contracts/token/ERC20/ERC20.sol\":9701:10133  function _approve(address owner, address spender, uint256 value, bool emitEvent) internal virtual {... */\n    tag_252:\n        /* \"@openzeppelin/contracts/token/ERC20/ERC20.sol\":9830:9831  0 */\n      0x00\n        /* \"@openzeppelin/contracts/token/ERC20/ERC20.sol\":9813:9832  owner == address(0) */\n      0xffffffffffffffffffffffffffffffffffffffff\n      and\n        /* \"@openzeppelin/contracts/token/ERC20/ERC20.sol\":9813:9818  owner */\n      dup5\n        /* \"@openzeppelin/contracts/token/ERC20/ERC20.sol\":9813:9832  owner == address(0) */\n      0xffffffffffffffffffffffffffffffffffffffff\n      and\n      sub\n        /* \"@openzeppelin/contracts/token/ERC20/ERC20.sol\":9809:9898  if (owner == address(0)) {... */\n      tag_276\n      jumpi\n        /* \"@openzeppelin/contracts/token/ERC20/ERC20.sol\":9884:9885  0 */\n      0x00\n        /* \"@openzeppelin/contracts/token/ERC20/ERC20.sol\":9855:9887  ERC20InvalidApprover(address(0)) */\n      mload(0x40)\n      0xe602df0500000000000000000000000000000000000000000000000000000000\n      dup2\n      mstore\n      0x04\n      add\n      tag_277\n      swap2\n      swap1\n      tag_70\n      jump\t// in\n    tag_277:\n      mload(0x40)\n      dup1\n      swap2\n      sub\n      swap1\n      revert\n        /* \"@openzeppelin/contracts/token/ERC20/ERC20.sol\":9809:9898  if (owner == address(0)) {... */\n    tag_276:\n        /* \"@openzeppelin/contracts/token/ERC20/ERC20.sol\":9930:9931  0 */\n      0x00\n        /* \"@openzeppelin/contracts/token/ERC20/ERC20.sol\":9911:9932  spender == address(0) */\n      0xffffffffffffffffffffffffffffffffffffffff\n      and\n        /* \"@openzeppelin/contracts/token/ERC20/ERC20.sol\":9911:9918  spender */\n      dup4\n        /* \"@openzeppelin/contracts/token/ERC20/ERC20.sol\":9911:9932  spender == address(0) */\n      0xffffffffffffffffffffffffffffffffffffffff\n      and\n      sub\n        /* \"@openzeppelin/contracts/token/ERC20/ERC20.sol\":9907:9997  if (spender == address(0)) {... */\n      tag_278\n      jumpi\n        /* \"@openzeppelin/contracts/token/ERC20/ERC20.sol\":9983:9984  0 */\n      0x00\n        /* \"@openzeppelin/contracts/token/ERC20/ERC20.sol\":9955:9986  ERC20InvalidSpender(address(0)) */\n      mload(0x40)\n      0x94280d6200000000000000000000000000000000000000000000000000000000\n      dup2\n      mstore\n      0x04\n      add\n      tag_279\n      swap2\n      swap1\n      tag_70\n      jump\t// in\n    tag_279:\n      mload(0x40)\n      dup1\n      swap2\n      sub\n      swap1\n      revert\n        /* \"@openzeppelin/contracts/token/ERC20/ERC20.sol\":9907:9997  if (spender == address(0)) {... */\n    tag_278:\n        /* \"@openzeppelin/contracts/token/ERC20/ERC20.sol\":10036:10041  value */\n      dup2\n        /* \"@openzeppelin/contracts/token/ERC20/ERC20.sol\":10006:10017  _allowances */\n      0x01\n        /* \"@openzeppelin/contracts/token/ERC20/ERC20.sol\":10006:10024  _allowances[owner] */\n      0x00\n        /* \"@openzeppelin/contracts/token/ERC20/ERC20.sol\":10018:10023  owner */\n      dup7\n        /* \"@openzeppelin/contracts/token/ERC20/ERC20.sol\":10006:10024  _allowances[owner] */\n      0xffffffffffffffffffffffffffffffffffffffff\n      and\n      0xffffffffffffffffffffffffffffffffffffffff\n      and\n      dup2\n      mstore\n      0x20\n      add\n      swap1\n      dup2\n      mstore\n      0x20\n      add\n      0x00\n      keccak256\n        /* \"@openzeppelin/contracts/token/ERC20/ERC20.sol\":10006:10033  _allowances[owner][spender] */\n      0x00\n        /* \"@openzeppelin/contracts/token/ERC20/ERC20.sol\":10025:10032  spender */\n      dup6\n        /* \"@openzeppelin/contracts/token/ERC20/ERC20.sol\":10006:10033  _allowances[owner][spender] */\n      0xffffffffffffffffffffffffffffffffffffffff\n      and\n      0xffffffffffffffffffffffffffffffffffffffff\n      and\n      dup2\n      mstore\n      0x20\n      add\n      swap1\n      dup2\n      mstore\n      0x20\n      add\n      0x00\n      keccak256\n        /* \"@openzeppelin/contracts/token/ERC20/ERC20.sol\":10006:10041  _allowances[owner][spender] = value */\n      dup2\n      swap1\n      sstore\n      pop\n        /* \"@openzeppelin/contracts/token/ERC20/ERC20.sol\":10055:10064  emitEvent */\n      dup1\n        /* \"@openzeppelin/contracts/token/ERC20/ERC20.sol\":10051:10127  if (emitEvent) {... */\n      iszero\n      tag_280\n      jumpi\n        /* \"@openzeppelin/contracts/token/ERC20/ERC20.sol\":10101:10108  spender */\n      dup3\n        /* \"@openzeppelin/contracts/token/ERC20/ERC20.sol\":10085:10116  Approval(owner, spender, value) */\n      0xffffffffffffffffffffffffffffffffffffffff\n      and\n        /* \"@openzeppelin/contracts/token/ERC20/ERC20.sol\":10094:10099  owner */\n      dup5\n        /* \"@openzeppelin/contracts/token/ERC20/ERC20.sol\":10085:10116  Approval(owner, spender, value) */\n      0xffffffffffffffffffffffffffffffffffffffff\n      and\n      0x8c5be1e5ebec7d5bd14f71427d1e84f3dd0314c0f7b2291e5b200ac8c7c3b925\n        /* \"@openzeppelin/contracts/token/ERC20/ERC20.sol\":10110:10115  value */\n      dup5\n        /* \"@openzeppelin/contracts/token/ERC20/ERC20.sol\":10085:10116  Approval(owner, spender, value) */\n      mload(0x40)\n      tag_281\n      swap2\n      swap1\n      tag_35\n      jump\t// in\n    tag_281:\n      mload(0x40)\n      dup1\n      swap2\n      sub\n      swap1\n      log3\n        /* \"@openzeppelin/contracts/token/ERC20/ERC20.sol\":10051:10127  if (emitEvent) {... */\n    tag_280:\n        /* \"@openzeppelin/contracts/token/ERC20/ERC20.sol\":9701:10133  function _approve(address owner, address spender, uint256 value, bool emitEvent) internal virtual {... */\n      pop\n      pop\n      pop\n      pop\n      jump\t// out\n        /* \"@openzeppelin/contracts/token/ERC20/ERC20.sol\":6008:7115  function _update(address from, address to, uint256 value) internal virtual {... */\n    tag_266:\n        /* \"@openzeppelin/contracts/token/ERC20/ERC20.sol\":6113:6114  0 */\n      0x00\n        /* \"@openzeppelin/contracts/token/ERC20/ERC20.sol\":6097:6115  from == address(0) */\n      0xffffffffffffffffffffffffffffffffffffffff\n      and\n        /* \"@openzeppelin/contracts/token/ERC20/ERC20.sol\":6097:6101  from */\n      dup4\n        /* \"@openzeppelin/contracts/token/ERC20/ERC20.sol\":6097:6115  from == address(0) */\n      0xffffffffffffffffffffffffffffffffffffffff\n      and\n      sub\n        /* \"@openzeppelin/contracts/token/ERC20/ERC20.sol\":6093:6633  if (from == address(0)) {... */\n      tag_283\n      jumpi\n        /* \"@openzeppelin/contracts/token/ERC20/ERC20.sol\":6249:6254  value */\n      dup1\n        /* \"@openzeppelin/contracts/token/ERC20/ERC20.sol\":6233:6245  _totalSupply */\n      0x02\n      0x00\n        /* \"@openzeppelin/contracts/token/ERC20/ERC20.sol\":6233:6254  _totalSupply += value */\n      dup3\n      dup3\n      sload\n      tag_284\n      swap2\n      swap1\n      tag_285\n      jump\t// in\n    tag_284:\n      swap3\n      pop\n      pop\n      dup2\n      swap1\n      sstore\n      pop\n        /* \"@openzeppelin/contracts/token/ERC20/ERC20.sol\":6093:6633  if (from == address(0)) {... */\n      jump(tag_286)\n    tag_283:\n        /* \"@openzeppelin/contracts/token/ERC20/ERC20.sol\":6285:6304  uint256 fromBalance */\n      0x00\n        /* \"@openzeppelin/contracts/token/ERC20/ERC20.sol\":6307:6316  _balances */\n      dup1\n        /* \"@openzeppelin/contracts/token/ERC20/ERC20.sol\":6307:6322  _balances[from] */\n      0x00\n        /* \"@openzeppelin/contracts/token/ERC20/ERC20.sol\":6317:6321  from */\n      dup6\n        /* \"@openzeppelin/contracts/token/ERC20/ERC20.sol\":6307:6322  _balances[from] */\n      0xffffffffffffffffffffffffffffffffffffffff\n      and\n      0xffffffffffffffffffffffffffffffffffffffff\n      and\n      dup2\n      mstore\n      0x20\n      add\n      swap1\n      dup2\n      mstore\n      0x20\n      add\n      0x00\n      keccak256\n      sload\n        /* \"@openzeppelin/contracts/token/ERC20/ERC20.sol\":6285:6322  uint256 fromBalance = _balances[from] */\n      swap1\n      pop\n        /* \"@openzeppelin/contracts/token/ERC20/ERC20.sol\":6354:6359  value */\n      dup2\n        /* \"@openzeppelin/contracts/token/ERC20/ERC20.sol\":6340:6351  fromBalance */\n      dup2\n        /* \"@openzeppelin/contracts/token/ERC20/ERC20.sol\":6340:6359  fromBalance < value */\n      lt\n        /* \"@openzeppelin/contracts/token/ERC20/ERC20.sol\":6336:6451  if (fromBalance < value) {... */\n      iszero\n      tag_287\n      jumpi\n        /* \"@openzeppelin/contracts/token/ERC20/ERC20.sol\":6411:6415  from */\n      dup4\n        /* \"@openzeppelin/contracts/token/ERC20/ERC20.sol\":6417:6428  fromBalance */\n      dup2\n        /* \"@openzeppelin/contracts/token/ERC20/ERC20.sol\":6430:6435  value */\n      dup4\n        /* \"@openzeppelin/contracts/token/ERC20/ERC20.sol\":6386:6436  ERC20InsufficientBalance(from, fromBalance, value) */\n      mload(0x40)\n      0xe450d38c00000000000000000000000000000000000000000000000000000000\n      dup2\n      mstore\n      0x04\n      add\n      tag_288\n      swap4\n      swap3\n      swap2\n      swap1\n      tag_258\n      jump\t// in\n    tag_288:\n      mload(0x40)\n      dup1\n      swap2\n      sub\n      swap1\n      revert\n        /* \"@openzeppelin/contracts/token/ERC20/ERC20.sol\":6336:6451  if (fromBalance < value) {... */\n    tag_287:\n        /* \"@openzeppelin/contracts/token/ERC20/ERC20.sol\":6603:6608  value */\n      dup2\n        /* \"@openzeppelin/contracts/token/ERC20/ERC20.sol\":6589:6600  fromBalance */\n      dup2\n        /* \"@openzeppelin/contracts/token/ERC20/ERC20.sol\":6589:6608  fromBalance - value */\n      sub\n        /* \"@openzeppelin/contracts/token/ERC20/ERC20.sol\":6571:6580  _balances */\n      0x00\n        /* \"@openzeppelin/contracts/token/ERC20/ERC20.sol\":6571:6586  _balances[from] */\n      dup1\n        /* \"@openzeppelin/contracts/token/ERC20/ERC20.sol\":6581:6585  from */\n      dup7\n        /* \"@openzeppelin/contracts/token/ERC20/ERC20.sol\":6571:6586  _balances[from] */\n      0xffffffffffffffffffffffffffffffffffffffff\n      and\n      0xffffffffffffffffffffffffffffffffffffffff\n      and\n      dup2\n      mstore\n      0x20\n      add\n      swap1\n      dup2\n      mstore\n      0x20\n      add\n      0x00\n      keccak256\n        /* \"@openzeppelin/contracts/token/ERC20/ERC20.sol\":6571:6608  _balances[from] = fromBalance - value */\n      dup2\n      swap1\n      sstore\n      pop\n        /* \"@openzeppelin/contracts/token/ERC20/ERC20.sol\":6271:6633  {... */\n      pop\n        /* \"@openzeppelin/contracts/token/ERC20/ERC20.sol\":6093:6633  if (from == address(0)) {... */\n    tag_286:\n        /* \"@openzeppelin/contracts/token/ERC20/ERC20.sol\":6661:6662  0 */\n      0x00\n        /* \"@openzeppelin/contracts/token/ERC20/ERC20.sol\":6647:6663  to == address(0) */\n      0xffffffffffffffffffffffffffffffffffffffff\n      and\n        /* \"@openzeppelin/contracts/token/ERC20/ERC20.sol\":6647:6649  to */\n      dup3\n        /* \"@openzeppelin/contracts/token/ERC20/ERC20.sol\":6647:6663  to == address(0) */\n      0xffffffffffffffffffffffffffffffffffffffff\n      and\n      sub\n        /* \"@openzeppelin/contracts/token/ERC20/ERC20.sol\":6643:7068  if (to == address(0)) {... */\n      tag_289\n      jumpi\n        /* \"@openzeppelin/contracts/token/ERC20/ERC20.sol\":6826:6831  value */\n      dup1\n        /* \"@openzeppelin/contracts/token/ERC20/ERC20.sol\":6810:6822  _totalSupply */\n      0x02\n      0x00\n        /* \"@openzeppelin/contracts/token/ERC20/ERC20.sol\":6810:6831  _totalSupply -= value */\n      dup3\n      dup3\n      sload\n      sub\n      swap3\n      pop\n      pop\n      dup2\n      swap1\n      sstore\n      pop\n        /* \"@openzeppelin/contracts/token/ERC20/ERC20.sol\":6643:7068  if (to == address(0)) {... */\n      jump(tag_290)\n    tag_289:\n        /* \"@openzeppelin/contracts/token/ERC20/ERC20.sol\":7038:7043  value */\n      dup1\n        /* \"@openzeppelin/contracts/token/ERC20/ERC20.sol\":7021:7030  _balances */\n      0x00\n        /* \"@openzeppelin/contracts/token/ERC20/ERC20.sol\":7021:7034  _balances[to] */\n      dup1\n        /* \"@openzeppelin/contracts/token/ERC20/ERC20.sol\":7031:7033  to */\n      dup5\n        /* \"@openzeppelin/contracts/token/ERC20/ERC20.sol\":7021:7034  _balances[to] */\n      0xffffffffffffffffffffffffffffffffffffffff\n      and\n      0xffffffffffffffffffffffffffffffffffffffff\n      and\n      dup2\n      mstore\n      0x20\n      add\n      swap1\n      dup2\n      mstore\n      0x20\n      add\n      0x00\n      keccak256\n      0x00\n        /* \"@openzeppelin/contracts/token/ERC20/ERC20.sol\":7021:7043  _balances[to] += value */\n      dup3\n      dup3\n      sload\n      add\n      swap3\n      pop\n      pop\n      dup2\n      swap1\n      sstore\n      pop\n        /* \"@openzeppelin/contracts/token/ERC20/ERC20.sol\":6643:7068  if (to == address(0)) {... */\n    tag_290:\n        /* \"@openzeppelin/contracts/token/ERC20/ERC20.sol\":7098:7100  to */\n      dup2\n        /* \"@openzeppelin/contracts/token/ERC20/ERC20.sol\":7083:7108  Transfer(from, to, value) */\n      0xffffffffffffffffffffffffffffffffffffffff\n      and\n        /* \"@openzeppelin/contracts/token/ERC20/ERC20.sol\":7092:7096  from */\n      dup4\n        /* \"@openzeppelin/contracts/token/ERC20/ERC20.sol\":7083:7108  Transfer(from, to, value) */\n      0xffffffffffffffffffffffffffffffffffffffff\n      and\n      0xddf252ad1be2c89b69c2b068fc378daa952ba7f163c4a11628f55a4df523b3ef\n        /* \"@openzeppelin/contracts/token/ERC20/ERC20.sol\":7102:7107  value */\n      dup4\n        /* \"@openzeppelin/contracts/token/ERC20/ERC20.sol\":7083:7108  Transfer(from, to, value) */\n      mload(0x40)\n      tag_291\n      swap2\n      swap1\n      tag_35\n      jump\t// in\n    tag_291:\n      mload(0x40)\n      dup1\n      swap2\n      sub\n      swap1\n      log3\n        /* \"@openzeppelin/contracts/token/ERC20/ERC20.sol\":6008:7115  function _update(address from, address to, uint256 value) internal virtual {... */\n      pop\n      pop\n      pop\n      jump\t// out\n        /* \"#utility.yul\":7:84   */\n    tag_292:\n        /* \"#utility.yul\":44:51   */\n      0x00\n        /* \"#utility.yul\":73:78   */\n      dup2\n        /* \"#utility.yul\":62:78   */\n      swap1\n      pop\n        /* \"#utility.yul\":7:84   */\n      swap2\n      swap1\n      pop\n      jump\t// out\n        /* \"#utility.yul\":90:208   */\n    tag_293:\n        /* \"#utility.yul\":177:201   */\n      tag_322\n        /* \"#utility.yul\":195:200   */\n      dup2\n        /* \"#utility.yul\":177:201   */\n      tag_292\n      jump\t// in\n    tag_322:\n        /* \"#utility.yul\":172:175   */\n      dup3\n        /* \"#utility.yul\":165:202   */\n      mstore\n        /* \"#utility.yul\":90:208   */\n      pop\n      pop\n      jump\t// out\n        /* \"#utility.yul\":214:436   */\n    tag_35:\n        /* \"#utility.yul\":307:311   */\n      0x00\n        /* \"#utility.yul\":345:347   */\n      0x20\n        /* \"#utility.yul\":334:343   */\n      dup3\n        /* \"#utility.yul\":330:348   */\n      add\n        /* \"#utility.yul\":322:348   */\n      swap1\n      pop\n        /* \"#utility.yul\":358:429   */\n      tag_324\n        /* \"#utility.yul\":426:427   */\n      0x00\n        /* \"#utility.yul\":415:424   */\n      dup4\n        /* \"#utility.yul\":411:428   */\n      add\n        /* \"#utility.yul\":402:408   */\n      dup5\n        /* \"#utility.yul\":358:429   */\n      tag_293\n      jump\t// in\n    tag_324:\n        /* \"#utility.yul\":214:436   */\n      swap3\n      swap2\n      pop\n      pop\n      jump\t// out\n        /* \"#utility.yul\":442:541   */\n    tag_294:\n        /* \"#utility.yul\":494:500   */\n      0x00\n        /* \"#utility.yul\":528:533   */\n      dup2\n        /* \"#utility.yul\":522:534   */\n      mload\n        /* \"#utility.yul\":512:534   */\n      swap1\n      pop\n        /* \"#utility.yul\":442:541   */\n      swap2\n      swap1\n      pop\n      jump\t// out\n        /* \"#utility.yul\":547:716   */\n    tag_295:\n        /* \"#utility.yul\":631:642   */\n      0x00\n        /* \"#utility.yul\":665:671   */\n      dup3\n        /* \"#utility.yul\":660:663   */\n      dup3\n        /* \"#utility.yul\":653:672   */\n      mstore\n        /* \"#utility.yul\":705:709   */\n      0x20\n        /* \"#utility.yul\":700:703   */\n      dup3\n        /* \"#utility.yul\":696:710   */\n      add\n        /* \"#utility.yul\":681:710   */\n      swap1\n      pop\n        /* \"#utility.yul\":547:716   */\n      swap3\n      swap2\n      pop\n      pop\n      jump\t// out\n        /* \"#utility.yul\":722:861   */\n    tag_296:\n        /* \"#utility.yul\":811:817   */\n      dup3\n        /* \"#utility.yul\":806:809   */\n      dup2\n        /* \"#utility.yul\":801:804   */\n      dup4\n        /* \"#utility.yul\":795:818   */\n      mcopy\n        /* \"#utility.yul\":852:853   */\n      0x00\n        /* \"#utility.yul\":843:849   */\n      dup4\n        /* \"#utility.yul\":838:841   */\n      dup4\n        /* \"#utility.yul\":834:850   */\n      add\n        /* \"#utility.yul\":827:854   */\n      mstore\n        /* \"#utility.yul\":722:861   */\n      pop\n      pop\n      pop\n      jump\t// out\n        /* \"#utility.yul\":867:969   */\n    tag_297:\n        /* \"#utility.yul\":908:914   */\n      0x00\n        /* \"#utility.yul\":959:961   */\n      0x1f\n        /* \"#utility.yul\":955:962   */\n      not\n        /* \"#utility.yul\":950:952   */\n      0x1f\n        /* \"#utility.yul\":943:948   */\n      dup4\n        /* \"#utility.yul\":939:953   */\n      add\n        /* \"#utility.yul\":935:963   */\n      and\n        /* \"#utility.yul\":925:963   */\n      swap1\n      pop\n        /* \"#utility.yul\":867:969   */\n      swap2\n      swap1\n      pop\n      jump\t// out\n        /* \"#utility.yul\":975:1352   */\n    tag_298:\n        /* \"#utility.yul\":1063:1066   */\n      0x00\n        /* \"#utility.yul\":1091:1130   */\n      tag_330\n        /* \"#utility.yul\":1124:1129   */\n      dup3\n        /* \"#utility.yul\":1091:1130   */\n      tag_294\n      jump\t// in\n    tag_330:\n        /* \"#utility.yul\":1146:1217   */\n      tag_331\n        /* \"#utility.yul\":1210:1216   */\n      dup2\n        /* \"#utility.yul\":1205:1208   */\n      dup6\n        /* \"#utility.yul\":1146:1217   */\n      tag_295\n      jump\t// in\n    tag_331:\n        /* \"#utility.yul\":1139:1217   */\n      swap4\n      pop\n        /* \"#utility.yul\":1226:1291   */\n      tag_332\n        /* \"#utility.yul\":1284:1290   */\n      dup2\n        /* \"#utility.yul\":1279:1282   */\n      dup6\n        /* \"#utility.yul\":1272:1276   */\n      0x20\n        /* \"#utility.yul\":1265:1270   */\n      dup7\n        /* \"#utility.yul\":1261:1277   */\n      add\n        /* \"#utility.yul\":1226:1291   */\n      tag_296\n      jump\t// in\n    tag_332:\n        /* \"#utility.yul\":1316:1345   */\n      tag_333\n        /* \"#utility.yul\":1338:1344   */\n      dup2\n        /* \"#utility.yul\":1316:1345   */\n      tag_297\n      jump\t// in\n    tag_333:\n        /* \"#utility.yul\":1311:1314   */\n      dup5\n        /* \"#utility.yul\":1307:1346   */\n      add\n        /* \"#utility.yul\":1300:1346   */\n      swap2\n      pop\n        /* \"#utility.yul\":1067:1352   */\n      pop\n        /* \"#utility.yul\":975:1352   */\n      swap3\n      swap2\n      pop\n      pop\n      jump\t// out\n        /* \"#utility.yul\":1358:1671   */\n    tag_39:\n        /* \"#utility.yul\":1471:1475   */\n      0x00\n        /* \"#utility.yul\":1509:1511   */\n      0x20\n        /* \"#utility.yul\":1498:1507   */\n      dup3\n        /* \"#utility.yul\":1494:1512   */\n      add\n        /* \"#utility.yul\":1486:1512   */\n      swap1\n      pop\n        /* \"#utility.yul\":1558:1567   */\n      dup2\n        /* \"#utility.yul\":1552:1556   */\n      dup2\n        /* \"#utility.yul\":1548:1568   */\n      sub\n        /* \"#utility.yul\":1544:1545   */\n      0x00\n        /* \"#utility.yul\":1533:1542   */\n      dup4\n        /* \"#utility.yul\":1529:1546   */\n      add\n        /* \"#utility.yul\":1522:1569   */\n      mstore\n        /* \"#utility.yul\":1586:1664   */\n      tag_335\n        /* \"#utility.yul\":1659:1663   */\n      dup2\n        /* \"#utility.yul\":1650:1656   */\n      dup5\n        /* \"#utility.yul\":1586:1664   */\n      tag_298\n      jump\t// in\n    tag_335:\n        /* \"#utility.yul\":1578:1664   */\n      swap1\n      pop\n        /* \"#utility.yul\":1358:1671   */\n      swap3\n      swap2\n      pop\n      pop\n      jump\t// out\n        /* \"#utility.yul\":1758:1875   */\n    tag_300:\n        /* \"#utility.yul\":1867:1868   */\n      0x00\n        /* \"#utility.yul\":1864:1865   */\n      dup1\n        /* \"#utility.yul\":1857:1869   */\n      revert\n        /* \"#utility.yul\":2004:2126   */\n    tag_302:\n        /* \"#utility.yul\":2077:2101   */\n      tag_340\n        /* \"#utility.yul\":2095:2100   */\n      dup2\n        /* \"#utility.yul\":2077:2101   */\n      tag_292\n      jump\t// in\n    tag_340:\n        /* \"#utility.yul\":2070:2075   */\n      dup2\n        /* \"#utility.yul\":2067:2102   */\n      eq\n        /* \"#utility.yul\":2057:2120   */\n      tag_341\n      jumpi\n        /* \"#utility.yul\":2116:2117   */\n      0x00\n        /* \"#utility.yul\":2113:2114   */\n      dup1\n        /* \"#utility.yul\":2106:2118   */\n      revert\n        /* \"#utility.yul\":2057:2120   */\n    tag_341:\n        /* \"#utility.yul\":2004:2126   */\n      pop\n      jump\t// out\n        /* \"#utility.yul\":2132:2271   */\n    tag_303:\n        /* \"#utility.yul\":2178:2183   */\n      0x00\n        /* \"#utility.yul\":2216:2222   */\n      dup2\n        /* \"#utility.yul\":2203:2223   */\n      calldataload\n        /* \"#utility.yul\":2194:2223   */\n      swap1\n      pop\n        /* \"#utility.yul\":2232:2265   */\n      tag_343\n        /* \"#utility.yul\":2259:2264   */\n      dup2\n        /* \"#utility.yul\":2232:2265   */\n      tag_302\n      jump\t// in\n    tag_343:\n        /* \"#utility.yul\":2132:2271   */\n      swap3\n      swap2\n      pop\n      pop\n      jump\t// out\n        /* \"#utility.yul\":2277:2606   */\n    tag_42:\n        /* \"#utility.yul\":2336:2342   */\n      0x00\n        /* \"#utility.yul\":2385:2387   */\n      0x20\n        /* \"#utility.yul\":2373:2382   */\n      dup3\n        /* \"#utility.yul\":2364:2371   */\n      dup5\n        /* \"#utility.yul\":2360:2383   */\n      sub\n        /* \"#utility.yul\":2356:2388   */\n      slt\n        /* \"#utility.yul\":2353:2472   */\n      iszero\n      tag_345\n      jumpi\n        /* \"#utility.yul\":2391:2470   */\n      tag_346\n      tag_300\n      jump\t// in\n    tag_346:\n        /* \"#utility.yul\":2353:2472   */\n    tag_345:\n        /* \"#utility.yul\":2511:2512   */\n      0x00\n        /* \"#utility.yul\":2536:2589   */\n      tag_347\n        /* \"#utility.yul\":2581:2588   */\n      dup5\n        /* \"#utility.yul\":2572:2578   */\n      dup3\n        /* \"#utility.yul\":2561:2570   */\n      dup6\n        /* \"#utility.yul\":2557:2579   */\n      add\n        /* \"#utility.yul\":2536:2589   */\n      tag_303\n      jump\t// in\n    tag_347:\n        /* \"#utility.yul\":2526:2589   */\n      swap2\n      pop\n        /* \"#utility.yul\":2482:2599   */\n      pop\n        /* \"#utility.yul\":2277:2606   */\n      swap3\n      swap2\n      pop\n      pop\n      jump\t// out\n        /* \"#utility.yul\":2612:2738   */\n    tag_304:\n        /* \"#utility.yul\":2649:2656   */\n      0x00\n        /* \"#utility.yul\":2689:2731   */\n      0xffffffffffffffffffffffffffffffffffffffff\n        /* \"#utility.yul\":2682:2687   */\n      dup3\n        /* \"#utility.yul\":2678:2732   */\n      and\n        /* \"#utility.yul\":2667:2732   */\n      swap1\n      pop\n        /* \"#utility.yul\":2612:2738   */\n      swap2\n      swap1\n      pop\n      jump\t// out\n        /* \"#utility.yul\":2744:2840   */\n    tag_305:\n        /* \"#utility.yul\":2781:2788   */\n      0x00\n        /* \"#utility.yul\":2810:2834   */\n      tag_350\n        /* \"#utility.yul\":2828:2833   */\n      dup3\n        /* \"#utility.yul\":2810:2834   */\n      tag_304\n      jump\t// in\n    tag_350:\n        /* \"#utility.yul\":2799:2834   */\n      swap1\n      pop\n        /* \"#utility.yul\":2744:2840   */\n      swap2\n      swap1\n      pop\n      jump\t// out\n        /* \"#utility.yul\":2846:2968   */\n    tag_306:\n        /* \"#utility.yul\":2919:2943   */\n      tag_352\n        /* \"#utility.yul\":2937:2942   */\n      dup2\n        /* \"#utility.yul\":2919:2943   */\n      tag_305\n      jump\t// in\n    tag_352:\n        /* \"#utility.yul\":2912:2917   */\n      dup2\n        /* \"#utility.yul\":2909:2944   */\n      eq\n        /* \"#utility.yul\":2899:2962   */\n      tag_353\n      jumpi\n        /* \"#utility.yul\":2958:2959   */\n      0x00\n        /* \"#utility.yul\":2955:2956   */\n      dup1\n        /* \"#utility.yul\":2948:2960   */\n      revert\n        /* \"#utility.yul\":2899:2962   */\n    tag_353:\n        /* \"#utility.yul\":2846:2968   */\n      pop\n      jump\t// out\n        /* \"#utility.yul\":2974:3113   */\n    tag_307:\n        /* \"#utility.yul\":3020:3025   */\n      0x00\n        /* \"#utility.yul\":3058:3064   */\n      dup2\n        /* \"#utility.yul\":3045:3065   */\n      calldataload\n        /* \"#utility.yul\":3036:3065   */\n      swap1\n      pop\n        /* \"#utility.yul\":3074:3107   */\n      tag_355\n        /* \"#utility.yul\":3101:3106   */\n      dup2\n        /* \"#utility.yul\":3074:3107   */\n      tag_306\n      jump\t// in\n    tag_355:\n        /* \"#utility.yul\":2974:3113   */\n      swap3\n      swap2\n      pop\n      pop\n      jump\t// out\n        /* \"#utility.yul\":3119:3593   */\n    tag_47:\n        /* \"#utility.yul\":3187:3193   */\n      0x00\n        /* \"#utility.yul\":3195:3201   */\n      dup1\n        /* \"#utility.yul\":3244:3246   */\n      0x40\n        /* \"#utility.yul\":3232:3241   */\n      dup4\n        /* \"#utility.yul\":3223:3230   */\n      dup6\n        /* \"#utility.yul\":3219:3242   */\n      sub\n        /* \"#utility.yul\":3215:3247   */\n      slt\n        /* \"#utility.yul\":3212:3331   */\n      iszero\n      tag_357\n      jumpi\n        /* \"#utility.yul\":3250:3329   */\n      tag_358\n      tag_300\n      jump\t// in\n    tag_358:\n        /* \"#utility.yul\":3212:3331   */\n    tag_357:\n        /* \"#utility.yul\":3370:3371   */\n      0x00\n        /* \"#utility.yul\":3395:3448   */\n      tag_359\n        /* \"#utility.yul\":3440:3447   */\n      dup6\n        /* \"#utility.yul\":3431:3437   */\n      dup3\n        /* \"#utility.yul\":3420:3429   */\n      dup7\n        /* \"#utility.yul\":3416:3438   */\n      add\n        /* \"#utility.yul\":3395:3448   */\n      tag_307\n      jump\t// in\n    tag_359:\n        /* \"#utility.yul\":3385:3448   */\n      swap3\n      pop\n        /* \"#utility.yul\":3341:3458   */\n      pop\n        /* \"#utility.yul\":3497:3499   */\n      0x20\n        /* \"#utility.yul\":3523:3576   */\n      tag_360\n        /* \"#utility.yul\":3568:3575   */\n      dup6\n        /* \"#utility.yul\":3559:3565   */\n      dup3\n        /* \"#utility.yul\":3548:3557   */\n      dup7\n        /* \"#utility.yul\":3544:3566   */\n      add\n        /* \"#utility.yul\":3523:3576   */\n      tag_303\n      jump\t// in\n    tag_360:\n        /* \"#utility.yul\":3513:3576   */\n      swap2\n      pop\n        /* \"#utility.yul\":3468:3586   */\n      pop\n        /* \"#utility.yul\":3119:3593   */\n      swap3\n      pop\n      swap3\n      swap1\n      pop\n      jump\t// out\n        /* \"#utility.yul\":3599:3689   */\n    tag_308:\n        /* \"#utility.yul\":3633:3640   */\n      0x00\n        /* \"#utility.yul\":3676:3681   */\n      dup2\n        /* \"#utility.yul\":3669:3682   */\n      iszero\n        /* \"#utility.yul\":3662:3683   */\n      iszero\n        /* \"#utility.yul\":3651:3683   */\n      swap1\n      pop\n        /* \"#utility.yul\":3599:3689   */\n      swap2\n      swap1\n      pop\n      jump\t// out\n        /* \"#utility.yul\":3695:3804   */\n    tag_309:\n        /* \"#utility.yul\":3776:3797   */\n      tag_363\n        /* \"#utility.yul\":3791:3796   */\n      dup2\n        /* \"#utility.yul\":3776:3797   */\n      tag_308\n      jump\t// in\n    tag_363:\n        /* \"#utility.yul\":3771:3774   */\n      dup3\n        /* \"#utility.yul\":3764:3798   */\n      mstore\n        /* \"#utility.yul\":3695:3804   */\n      pop\n      pop\n      jump\t// out\n        /* \"#utility.yul\":3810:4020   */\n    tag_50:\n        /* \"#utility.yul\":3897:3901   */\n      0x00\n        /* \"#utility.yul\":3935:3937   */\n      0x20\n        /* \"#utility.yul\":3924:3933   */\n      dup3\n        /* \"#utility.yul\":3920:3938   */\n      add\n        /* \"#utility.yul\":3912:3938   */\n      swap1\n      pop\n        /* \"#utility.yul\":3948:4013   */\n      tag_365\n        /* \"#utility.yul\":4010:4011   */\n      0x00\n        /* \"#utility.yul\":3999:4008   */\n      dup4\n        /* \"#utility.yul\":3995:4012   */\n      add\n        /* \"#utility.yul\":3986:3992   */\n      dup5\n        /* \"#utility.yul\":3948:4013   */\n      tag_309\n      jump\t// in\n    tag_365:\n        /* \"#utility.yul\":3810:4020   */\n      swap3\n      swap2\n      pop\n      pop\n      jump\t// out\n        /* \"#utility.yul\":4026:4645   */\n    tag_60:\n        /* \"#utility.yul\":4103:4109   */\n      0x00\n        /* \"#utility.yul\":4111:4117   */\n      dup1\n        /* \"#utility.yul\":4119:4125   */\n      0x00\n        /* \"#utility.yul\":4168:4170   */\n      0x60\n        /* \"#utility.yul\":4156:4165   */\n      dup5\n        /* \"#utility.yul\":4147:4154   */\n      dup7\n        /* \"#utility.yul\":4143:4166   */\n      sub\n        /* \"#utility.yul\":4139:4171   */\n      slt\n        /* \"#utility.yul\":4136:4255   */\n      iszero\n      tag_367\n      jumpi\n        /* \"#utility.yul\":4174:4253   */\n      tag_368\n      tag_300\n      jump\t// in\n    tag_368:\n        /* \"#utility.yul\":4136:4255   */\n    tag_367:\n        /* \"#utility.yul\":4294:4295   */\n      0x00\n        /* \"#utility.yul\":4319:4372   */\n      tag_369\n        /* \"#utility.yul\":4364:4371   */\n      dup7\n        /* \"#utility.yul\":4355:4361   */\n      dup3\n        /* \"#utility.yul\":4344:4353   */\n      dup8\n        /* \"#utility.yul\":4340:4362   */\n      add\n        /* \"#utility.yul\":4319:4372   */\n      tag_307\n      jump\t// in\n    tag_369:\n        /* \"#utility.yul\":4309:4372   */\n      swap4\n      pop\n        /* \"#utility.yul\":4265:4382   */\n      pop\n        /* \"#utility.yul\":4421:4423   */\n      0x20\n        /* \"#utility.yul\":4447:4500   */\n      tag_370\n        /* \"#utility.yul\":4492:4499   */\n      dup7\n        /* \"#utility.yul\":4483:4489   */\n      dup3\n        /* \"#utility.yul\":4472:4481   */\n      dup8\n        /* \"#utility.yul\":4468:4490   */\n      add\n        /* \"#utility.yul\":4447:4500   */\n      tag_307\n      jump\t// in\n    tag_370:\n        /* \"#utility.yul\":4437:4500   */\n      swap3\n      pop\n        /* \"#utility.yul\":4392:4510   */\n      pop\n        /* \"#utility.yul\":4549:4551   */\n      0x40\n        /* \"#utility.yul\":4575:4628   */\n      tag_371\n        /* \"#utility.yul\":4620:4627   */\n      dup7\n        /* \"#utility.yul\":4611:4617   */\n      dup3\n        /* \"#utility.yul\":4600:4609   */\n      dup8\n        /* \"#utility.yul\":4596:4618   */\n      add\n        /* \"#utility.yul\":4575:4628   */\n      tag_303\n      jump\t// in\n    tag_371:\n        /* \"#utility.yul\":4565:4628   */\n      swap2\n      pop\n        /* \"#utility.yul\":4520:4638   */\n      pop\n        /* \"#utility.yul\":4026:4645   */\n      swap3\n      pop\n      swap3\n      pop\n      swap3\n      jump\t// out\n        /* \"#utility.yul\":4651:4737   */\n    tag_310:\n        /* \"#utility.yul\":4686:4693   */\n      0x00\n        /* \"#utility.yul\":4726:4730   */\n      0xff\n        /* \"#utility.yul\":4719:4724   */\n      dup3\n        /* \"#utility.yul\":4715:4731   */\n      and\n        /* \"#utility.yul\":4704:4731   */\n      swap1\n      pop\n        /* \"#utility.yul\":4651:4737   */\n      swap2\n      swap1\n      pop\n      jump\t// out\n        /* \"#utility.yul\":4743:4855   */\n    tag_311:\n        /* \"#utility.yul\":4826:4848   */\n      tag_374\n        /* \"#utility.yul\":4842:4847   */\n      dup2\n        /* \"#utility.yul\":4826:4848   */\n      tag_310\n      jump\t// in\n    tag_374:\n        /* \"#utility.yul\":4821:4824   */\n      dup3\n        /* \"#utility.yul\":4814:4849   */\n      mstore\n        /* \"#utility.yul\":4743:4855   */\n      pop\n      pop\n      jump\t// out\n        /* \"#utility.yul\":4861:5075   */\n    tag_66:\n        /* \"#utility.yul\":4950:4954   */\n      0x00\n        /* \"#utility.yul\":4988:4990   */\n      0x20\n        /* \"#utility.yul\":4977:4986   */\n      dup3\n        /* \"#utility.yul\":4973:4991   */\n      add\n        /* \"#utility.yul\":4965:4991   */\n      swap1\n      pop\n        /* \"#utility.yul\":5001:5068   */\n      tag_376\n        /* \"#utility.yul\":5065:5066   */\n      0x00\n        /* \"#utility.yul\":5054:5063   */\n      dup4\n        /* \"#utility.yul\":5050:5067   */\n      add\n        /* \"#utility.yul\":5041:5047   */\n      dup5\n        /* \"#utility.yul\":5001:5068   */\n      tag_311\n      jump\t// in\n    tag_376:\n        /* \"#utility.yul\":4861:5075   */\n      swap3\n      swap2\n      pop\n      pop\n      jump\t// out\n        /* \"#utility.yul\":5081:5199   */\n    tag_312:\n        /* \"#utility.yul\":5168:5192   */\n      tag_378\n        /* \"#utility.yul\":5186:5191   */\n      dup2\n        /* \"#utility.yul\":5168:5192   */\n      tag_305\n      jump\t// in\n    tag_378:\n        /* \"#utility.yul\":5163:5166   */\n      dup3\n        /* \"#utility.yul\":5156:5193   */\n      mstore\n        /* \"#utility.yul\":5081:5199   */\n      pop\n      pop\n      jump\t// out\n        /* \"#utility.yul\":5205:5427   */\n    tag_70:\n        /* \"#utility.yul\":5298:5302   */\n      0x00\n        /* \"#utility.yul\":5336:5338   */\n      0x20\n        /* \"#utility.yul\":5325:5334   */\n      dup3\n        /* \"#utility.yul\":5321:5339   */\n      add\n        /* \"#utility.yul\":5313:5339   */\n      swap1\n      pop\n        /* \"#utility.yul\":5349:5420   */\n      tag_380\n        /* \"#utility.yul\":5417:5418   */\n      0x00\n        /* \"#utility.yul\":5406:5415   */\n      dup4\n        /* \"#utility.yul\":5402:5419   */\n      add\n        /* \"#utility.yul\":5393:5399   */\n      dup5\n        /* \"#utility.yul\":5349:5420   */\n      tag_312\n      jump\t// in\n    tag_380:\n        /* \"#utility.yul\":5205:5427   */\n      swap3\n      swap2\n      pop\n      pop\n      jump\t// out\n        /* \"#utility.yul\":5433:5762   */\n    tag_73:\n        /* \"#utility.yul\":5492:5498   */\n      0x00\n        /* \"#utility.yul\":5541:5543   */\n      0x20\n        /* \"#utility.yul\":5529:5538   */\n      dup3\n        /* \"#utility.yul\":5520:5527   */\n      dup5\n        /* \"#utility.yul\":5516:5539   */\n      sub\n        /* \"#utility.yul\":5512:5544   */\n      slt\n        /* \"#utility.yul\":5509:5628   */\n      iszero\n      tag_382\n      jumpi\n        /* \"#utility.yul\":5547:5626   */\n      tag_383\n      tag_300\n      jump\t// in\n    tag_383:\n        /* \"#utility.yul\":5509:5628   */\n    tag_382:\n        /* \"#utility.yul\":5667:5668   */\n      0x00\n        /* \"#utility.yul\":5692:5745   */\n      tag_384\n        /* \"#utility.yul\":5737:5744   */\n      dup5\n        /* \"#utility.yul\":5728:5734   */\n      dup3\n        /* \"#utility.yul\":5717:5726   */\n      dup6\n        /* \"#utility.yul\":5713:5735   */\n      add\n        /* \"#utility.yul\":5692:5745   */\n      tag_307\n      jump\t// in\n    tag_384:\n        /* \"#utility.yul\":5682:5745   */\n      swap2\n      pop\n        /* \"#utility.yul\":5638:5755   */\n      pop\n        /* \"#utility.yul\":5433:5762   */\n      swap3\n      swap2\n      pop\n      pop\n      jump\t// out\n        /* \"#utility.yul\":5768:6242   */\n    tag_82:\n        /* \"#utility.yul\":5836:5842   */\n      0x00\n        /* \"#utility.yul\":5844:5850   */\n      dup1\n        /* \"#utility.yul\":5893:5895   */\n      0x40\n        /* \"#utility.yul\":5881:5890   */\n      dup4\n        /* \"#utility.yul\":5872:5879   */\n      dup6\n        /* \"#utility.yul\":5868:5891   */\n      sub\n        /* \"#utility.yul\":5864:5896   */\n      slt\n        /* \"#utility.yul\":5861:5980   */\n      iszero\n      tag_386\n      jumpi\n        /* \"#utility.yul\":5899:5978   */\n      tag_387\n      tag_300\n      jump\t// in\n    tag_387:\n        /* \"#utility.yul\":5861:5980   */\n    tag_386:\n        /* \"#utility.yul\":6019:6020   */\n      0x00\n        /* \"#utility.yul\":6044:6097   */\n      tag_388\n        /* \"#utility.yul\":6089:6096   */\n      dup6\n        /* \"#utility.yul\":6080:6086   */\n      dup3\n        /* \"#utility.yul\":6069:6078   */\n      dup7\n        /* \"#utility.yul\":6065:6087   */\n      add\n        /* \"#utility.yul\":6044:6097   */\n      tag_303\n      jump\t// in\n    tag_388:\n        /* \"#utility.yul\":6034:6097   */\n      swap3\n      pop\n        /* \"#utility.yul\":5990:6107   */\n      pop\n        /* \"#utility.yul\":6146:6148   */\n      0x20\n        /* \"#utility.yul\":6172:6225   */\n      tag_389\n        /* \"#utility.yul\":6217:6224   */\n      dup6\n        /* \"#utility.yul\":6208:6214   */\n      dup3\n        /* \"#utility.yul\":6197:6206   */\n      dup7\n        /* \"#utility.yul\":6193:6215   */\n      add\n        /* \"#utility.yul\":6172:6225   */\n      tag_307\n      jump\t// in\n    tag_389:\n        /* \"#utility.yul\":6162:6225   */\n      swap2\n      pop\n        /* \"#utility.yul\":6117:6235   */\n      pop\n        /* \"#utility.yul\":5768:6242   */\n      swap3\n      pop\n      swap3\n      swap1\n      pop\n      jump\t// out\n        /* \"#utility.yul\":6248:6867   */\n    tag_106:\n        /* \"#utility.yul\":6325:6331   */\n      0x00\n        /* \"#utility.yul\":6333:6339   */\n      dup1\n        /* \"#utility.yul\":6341:6347   */\n      0x00\n        /* \"#utility.yul\":6390:6392   */\n      0x60\n        /* \"#utility.yul\":6378:6387   */\n      dup5\n        /* \"#utility.yul\":6369:6376   */\n      dup7\n        /* \"#utility.yul\":6365:6388   */\n      sub\n        /* \"#utility.yul\":6361:6393   */\n      slt\n        /* \"#utility.yul\":6358:6477   */\n      iszero\n      tag_391\n      jumpi\n        /* \"#utility.yul\":6396:6475   */\n      tag_392\n      tag_300\n      jump\t// in\n    tag_392:\n        /* \"#utility.yul\":6358:6477   */\n    tag_391:\n        /* \"#utility.yul\":6516:6517   */\n      0x00\n        /* \"#utility.yul\":6541:6594   */\n      tag_393\n        /* \"#utility.yul\":6586:6593   */\n      dup7\n        /* \"#utility.yul\":6577:6583   */\n      dup3\n        /* \"#utility.yul\":6566:6575   */\n      dup8\n        /* \"#utility.yul\":6562:6584   */\n      add\n        /* \"#utility.yul\":6541:6594   */\n      tag_303\n      jump\t// in\n    tag_393:\n        /* \"#utility.yul\":6531:6594   */\n      swap4\n      pop\n        /* \"#utility.yul\":6487:6604   */\n      pop\n        /* \"#utility.yul\":6643:6645   */\n      0x20\n        /* \"#utility.yul\":6669:6722   */\n      tag_394\n        /* \"#utility.yul\":6714:6721   */\n      dup7\n        /* \"#utility.yul\":6705:6711   */\n      dup3\n        /* \"#utility.yul\":6694:6703   */\n      dup8\n        /* \"#utility.yul\":6690:6712   */\n      add\n        /* \"#utility.yul\":6669:6722   */\n      tag_307\n      jump\t// in\n    tag_394:\n        /* \"#utility.yul\":6659:6722   */\n      swap3\n      pop\n        /* \"#utility.yul\":6614:6732   */\n      pop\n        /* \"#utility.yul\":6771:6773   */\n      0x40\n        /* \"#utility.yul\":6797:6850   */\n      tag_395\n        /* \"#utility.yul\":6842:6849   */\n      dup7\n        /* \"#utility.yul\":6833:6839   */\n      dup3\n        /* \"#utility.yul\":6822:6831   */\n      dup8\n        /* \"#utility.yul\":6818:6840   */\n      add\n        /* \"#utility.yul\":6797:6850   */\n      tag_307\n      jump\t// in\n    tag_395:\n        /* \"#utility.yul\":6787:6850   */\n      swap2\n      pop\n        /* \"#utility.yul\":6742:6860   */\n      pop\n        /* \"#utility.yul\":6248:6867   */\n      swap3\n      pop\n      swap3\n      pop\n      swap3\n      jump\t// out\n        /* \"#utility.yul\":6873:7347   */\n    tag_131:\n        /* \"#utility.yul\":6941:6947   */\n      0x00\n        /* \"#utility.yul\":6949:6955   */\n      dup1\n        /* \"#utility.yul\":6998:7000   */\n      0x40\n        /* \"#utility.yul\":6986:6995   */\n      dup4\n        /* \"#utility.yul\":6977:6984   */\n      dup6\n        /* \"#utility.yul\":6973:6996   */\n      sub\n        /* \"#utility.yul\":6969:7001   */\n      slt\n        /* \"#utility.yul\":6966:7085   */\n      iszero\n      tag_397\n      jumpi\n        /* \"#utility.yul\":7004:7083   */\n      tag_398\n      tag_300\n      jump\t// in\n    tag_398:\n        /* \"#utility.yul\":6966:7085   */\n    tag_397:\n        /* \"#utility.yul\":7124:7125   */\n      0x00\n        /* \"#utility.yul\":7149:7202   */\n      tag_399\n        /* \"#utility.yul\":7194:7201   */\n      dup6\n        /* \"#utility.yul\":7185:7191   */\n      dup3\n        /* \"#utility.yul\":7174:7183   */\n      dup7\n        /* \"#utility.yul\":7170:7192   */\n      add\n        /* \"#utility.yul\":7149:7202   */\n      tag_307\n      jump\t// in\n    tag_399:\n        /* \"#utility.yul\":7139:7202   */\n      swap3\n      pop\n        /* \"#utility.yul\":7095:7212   */\n      pop\n        /* \"#utility.yul\":7251:7253   */\n      0x20\n        /* \"#utility.yul\":7277:7330   */\n      tag_400\n        /* \"#utility.yul\":7322:7329   */\n      dup6\n        /* \"#utility.yul\":7313:7319   */\n      dup3\n        /* \"#utility.yul\":7302:7311   */\n      dup7\n        /* \"#utility.yul\":7298:7320   */\n      add\n        /* \"#utility.yul\":7277:7330   */\n      tag_307\n      jump\t// in\n    tag_400:\n        /* \"#utility.yul\":7267:7330   */\n      swap2\n      pop\n        /* \"#utility.yul\":7222:7340   */\n      pop\n        /* \"#utility.yul\":6873:7347   */\n      swap3\n      pop\n      swap3\n      swap1\n      pop\n      jump\t// out\n        /* \"#utility.yul\":7353:7496   */\n    tag_313:\n        /* \"#utility.yul\":7410:7415   */\n      0x00\n        /* \"#utility.yul\":7441:7447   */\n      dup2\n        /* \"#utility.yul\":7435:7448   */\n      mload\n        /* \"#utility.yul\":7426:7448   */\n      swap1\n      pop\n        /* \"#utility.yul\":7457:7490   */\n      tag_402\n        /* \"#utility.yul\":7484:7489   */\n      dup2\n        /* \"#utility.yul\":7457:7490   */\n      tag_302\n      jump\t// in\n    tag_402:\n        /* \"#utility.yul\":7353:7496   */\n      swap3\n      swap2\n      pop\n      pop\n      jump\t// out\n        /* \"#utility.yul\":7502:7853   */\n    tag_143:\n        /* \"#utility.yul\":7572:7578   */\n      0x00\n        /* \"#utility.yul\":7621:7623   */\n      0x20\n        /* \"#utility.yul\":7609:7618   */\n      dup3\n        /* \"#utility.yul\":7600:7607   */\n      dup5\n        /* \"#utility.yul\":7596:7619   */\n      sub\n        /* \"#utility.yul\":7592:7624   */\n      slt\n        /* \"#utility.yul\":7589:7708   */\n      iszero\n      tag_404\n      jumpi\n        /* \"#utility.yul\":7627:7706   */\n      tag_405\n      tag_300\n      jump\t// in\n    tag_405:\n        /* \"#utility.yul\":7589:7708   */\n    tag_404:\n        /* \"#utility.yul\":7747:7748   */\n      0x00\n        /* \"#utility.yul\":7772:7836   */\n      tag_406\n        /* \"#utility.yul\":7828:7835   */\n      dup5\n        /* \"#utility.yul\":7819:7825   */\n      dup3\n        /* \"#utility.yul\":7808:7817   */\n      dup6\n        /* \"#utility.yul\":7804:7826   */\n      add\n        /* \"#utility.yul\":7772:7836   */\n      tag_313\n      jump\t// in\n    tag_406:\n        /* \"#utility.yul\":7762:7836   */\n      swap2\n      pop\n        /* \"#utility.yul\":7718:7846   */\n      pop\n        /* \"#utility.yul\":7502:7853   */\n      swap3\n      swap2\n      pop\n      pop\n      jump\t// out\n        /* \"#utility.yul\":7859:8039   */\n    tag_314:\n        /* \"#utility.yul\":7907:7984   */\n      0x4e487b7100000000000000000000000000000000000000000000000000000000\n        /* \"#utility.yul\":7904:7905   */\n      0x00\n        /* \"#utility.yul\":7897:7985   */\n      mstore\n        /* \"#utility.yul\":8004:8008   */\n      0x22\n        /* \"#utility.yul\":8001:8002   */\n      0x04\n        /* \"#utility.yul\":7994:8009   */\n      mstore\n        /* \"#utility.yul\":8028:8032   */\n      0x24\n        /* \"#utility.yul\":8025:8026   */\n      0x00\n        /* \"#utility.yul\":8018:8033   */\n      revert\n        /* \"#utility.yul\":8045:8365   */\n    tag_146:\n        /* \"#utility.yul\":8089:8095   */\n      0x00\n        /* \"#utility.yul\":8126:8127   */\n      0x02\n        /* \"#utility.yul\":8120:8124   */\n      dup3\n        /* \"#utility.yul\":8116:8128   */\n      div\n        /* \"#utility.yul\":8106:8128   */\n      swap1\n      pop\n        /* \"#utility.yul\":8173:8174   */\n      0x01\n        /* \"#utility.yul\":8167:8171   */\n      dup3\n        /* \"#utility.yul\":8163:8175   */\n      and\n        /* \"#utility.yul\":8194:8212   */\n      dup1\n        /* \"#utility.yul\":8184:8265   */\n      tag_409\n      jumpi\n        /* \"#utility.yul\":8250:8254   */\n      0x7f\n        /* \"#utility.yul\":8242:8248   */\n      dup3\n        /* \"#utility.yul\":8238:8255   */\n      and\n        /* \"#utility.yul\":8228:8255   */\n      swap2\n      pop\n        /* \"#utility.yul\":8184:8265   */\n    tag_409:\n        /* \"#utility.yul\":8312:8314   */\n      0x20\n        /* \"#utility.yul\":8304:8310   */\n      dup3\n        /* \"#utility.yul\":8301:8315   */\n      lt\n        /* \"#utility.yul\":8281:8299   */\n      dup2\n        /* \"#utility.yul\":8278:8316   */\n      sub\n        /* \"#utility.yul\":8275:8359   */\n      tag_410\n      jumpi\n        /* \"#utility.yul\":8331:8349   */\n      tag_411\n      tag_314\n      jump\t// in\n    tag_411:\n        /* \"#utility.yul\":8275:8359   */\n    tag_410:\n        /* \"#utility.yul\":8096:8365   */\n      pop\n        /* \"#utility.yul\":8045:8365   */\n      swap2\n      swap1\n      pop\n      jump\t// out\n        /* \"#utility.yul\":8371:8551   */\n    tag_315:\n        /* \"#utility.yul\":8419:8496   */\n      0x4e487b7100000000000000000000000000000000000000000000000000000000\n        /* \"#utility.yul\":8416:8417   */\n      0x00\n        /* \"#utility.yul\":8409:8497   */\n      mstore\n        /* \"#utility.yul\":8516:8520   */\n      0x11\n        /* \"#utility.yul\":8513:8514   */\n      0x04\n        /* \"#utility.yul\":8506:8521   */\n      mstore\n        /* \"#utility.yul\":8540:8544   */\n      0x24\n        /* \"#utility.yul\":8537:8538   */\n      0x00\n        /* \"#utility.yul\":8530:8545   */\n      revert\n        /* \"#utility.yul\":8557:8967   */\n    tag_156:\n        /* \"#utility.yul\":8597:8604   */\n      0x00\n        /* \"#utility.yul\":8620:8640   */\n      tag_414\n        /* \"#utility.yul\":8638:8639   */\n      dup3\n        /* \"#utility.yul\":8620:8640   */\n      tag_292\n      jump\t// in\n    tag_414:\n        /* \"#utility.yul\":8615:8640   */\n      swap2\n      pop\n        /* \"#utility.yul\":8654:8674   */\n      tag_415\n        /* \"#utility.yul\":8672:8673   */\n      dup4\n        /* \"#utility.yul\":8654:8674   */\n      tag_292\n      jump\t// in\n    tag_415:\n        /* \"#utility.yul\":8649:8674   */\n      swap3\n      pop\n        /* \"#utility.yul\":8709:8710   */\n      dup3\n        /* \"#utility.yul\":8706:8707   */\n      dup3\n        /* \"#utility.yul\":8702:8711   */\n      mul\n        /* \"#utility.yul\":8731:8761   */\n      tag_416\n        /* \"#utility.yul\":8749:8760   */\n      dup2\n        /* \"#utility.yul\":8731:8761   */\n      tag_292\n      jump\t// in\n    tag_416:\n        /* \"#utility.yul\":8720:8761   */\n      swap2\n      pop\n        /* \"#utility.yul\":8910:8911   */\n      dup3\n        /* \"#utility.yul\":8901:8908   */\n      dup3\n        /* \"#utility.yul\":8897:8912   */\n      div\n        /* \"#utility.yul\":8894:8895   */\n      dup5\n        /* \"#utility.yul\":8891:8913   */\n      eq\n        /* \"#utility.yul\":8871:8872   */\n      dup4\n        /* \"#utility.yul\":8864:8873   */\n      iszero\n        /* \"#utility.yul\":8844:8927   */\n      or\n        /* \"#utility.yul\":8821:8960   */\n      tag_417\n      jumpi\n        /* \"#utility.yul\":8940:8958   */\n      tag_418\n      tag_315\n      jump\t// in\n    tag_418:\n        /* \"#utility.yul\":8821:8960   */\n    tag_417:\n        /* \"#utility.yul\":8605:8967   */\n      pop\n        /* \"#utility.yul\":8557:8967   */\n      swap3\n      swap2\n      pop\n      pop\n      jump\t// out\n        /* \"#utility.yul\":8973:9153   */\n    tag_316:\n        /* \"#utility.yul\":9021:9098   */\n      0x4e487b7100000000000000000000000000000000000000000000000000000000\n        /* \"#utility.yul\":9018:9019   */\n      0x00\n        /* \"#utility.yul\":9011:9099   */\n      mstore\n        /* \"#utility.yul\":9118:9122   */\n      0x12\n        /* \"#utility.yul\":9115:9116   */\n      0x04\n        /* \"#utility.yul\":9108:9123   */\n      mstore\n        /* \"#utility.yul\":9142:9146   */\n      0x24\n        /* \"#utility.yul\":9139:9140   */\n      0x00\n        /* \"#utility.yul\":9132:9147   */\n      revert\n        /* \"#utility.yul\":9159:9344   */\n    tag_158:\n        /* \"#utility.yul\":9199:9200   */\n      0x00\n        /* \"#utility.yul\":9216:9236   */\n      tag_421\n        /* \"#utility.yul\":9234:9235   */\n      dup3\n        /* \"#utility.yul\":9216:9236   */\n      tag_292\n      jump\t// in\n    tag_421:\n        /* \"#utility.yul\":9211:9236   */\n      swap2\n      pop\n        /* \"#utility.yul\":9250:9270   */\n      tag_422\n        /* \"#utility.yul\":9268:9269   */\n      dup4\n        /* \"#utility.yul\":9250:9270   */\n      tag_292\n      jump\t// in\n    tag_422:\n        /* \"#utility.yul\":9245:9270   */\n      swap3\n      pop\n        /* \"#utility.yul\":9289:9290   */\n      dup3\n        /* \"#utility.yul\":9279:9314   */\n      tag_423\n      jumpi\n        /* \"#utility.yul\":9294:9312   */\n      tag_424\n      tag_316\n      jump\t// in\n    tag_424:\n        /* \"#utility.yul\":9279:9314   */\n    tag_423:\n        /* \"#utility.yul\":9336:9337   */\n      dup3\n        /* \"#utility.yul\":9333:9334   */\n      dup3\n        /* \"#utility.yul\":9329:9338   */\n      div\n        /* \"#utility.yul\":9324:9338   */\n      swap1\n      pop\n        /* \"#utility.yul\":9159:9344   */\n      swap3\n      swap2\n      pop\n      pop\n      jump\t// out\n        /* \"#utility.yul\":9350:9792   */\n    tag_182:\n        /* \"#utility.yul\":9499:9503   */\n      0x00\n        /* \"#utility.yul\":9537:9539   */\n      0x60\n        /* \"#utility.yul\":9526:9535   */\n      dup3\n        /* \"#utility.yul\":9522:9540   */\n      add\n        /* \"#utility.yul\":9514:9540   */\n      swap1\n      pop\n        /* \"#utility.yul\":9550:9621   */\n      tag_426\n        /* \"#utility.yul\":9618:9619   */\n      0x00\n        /* \"#utility.yul\":9607:9616   */\n      dup4\n        /* \"#utility.yul\":9603:9620   */\n      add\n        /* \"#utility.yul\":9594:9600   */\n      dup7\n        /* \"#utility.yul\":9550:9621   */\n      tag_312\n      jump\t// in\n    tag_426:\n        /* \"#utility.yul\":9631:9703   */\n      tag_427\n        /* \"#utility.yul\":9699:9701   */\n      0x20\n        /* \"#utility.yul\":9688:9697   */\n      dup4\n        /* \"#utility.yul\":9684:9702   */\n      add\n        /* \"#utility.yul\":9675:9681   */\n      dup6\n        /* \"#utility.yul\":9631:9703   */\n      tag_312\n      jump\t// in\n    tag_427:\n        /* \"#utility.yul\":9713:9785   */\n      tag_428\n        /* \"#utility.yul\":9781:9783   */\n      0x40\n        /* \"#utility.yul\":9770:9779   */\n      dup4\n        /* \"#utility.yul\":9766:9784   */\n      add\n        /* \"#utility.yul\":9757:9763   */\n      dup5\n        /* \"#utility.yul\":9713:9785   */\n      tag_293\n      jump\t// in\n    tag_428:\n        /* \"#utility.yul\":9350:9792   */\n      swap5\n      swap4\n      pop\n      pop\n      pop\n      pop\n      jump\t// out\n        /* \"#utility.yul\":9798:9914   */\n    tag_317:\n        /* \"#utility.yul\":9868:9889   */\n      tag_430\n        /* \"#utility.yul\":9883:9888   */\n      dup2\n        /* \"#utility.yul\":9868:9889   */\n      tag_308\n      jump\t// in\n    tag_430:\n        /* \"#utility.yul\":9861:9866   */\n      dup2\n        /* \"#utility.yul\":9858:9890   */\n      eq\n        /* \"#utility.yul\":9848:9908   */\n      tag_431\n      jumpi\n        /* \"#utility.yul\":9904:9905   */\n      0x00\n        /* \"#utility.yul\":9901:9902   */\n      dup1\n        /* \"#utility.yul\":9894:9906   */\n      revert\n        /* \"#utility.yul\":9848:9908   */\n    tag_431:\n        /* \"#utility.yul\":9798:9914   */\n      pop\n      jump\t// out\n        /* \"#utility.yul\":9920:10057   */\n    tag_318:\n        /* \"#utility.yul\":9974:9979   */\n      0x00\n        /* \"#utility.yul\":10005:10011   */\n      dup2\n        /* \"#utility.yul\":9999:10012   */\n      mload\n        /* \"#utility.yul\":9990:10012   */\n      swap1\n      pop\n        /* \"#utility.yul\":10021:10051   */\n      tag_433\n        /* \"#utility.yul\":10045:10050   */\n      dup2\n        /* \"#utility.yul\":10021:10051   */\n      tag_317\n      jump\t// in\n    tag_433:\n        /* \"#utility.yul\":9920:10057   */\n      swap3\n      swap2\n      pop\n      pop\n      jump\t// out\n        /* \"#utility.yul\":10063:10408   */\n    tag_186:\n        /* \"#utility.yul\":10130:10136   */\n      0x00\n        /* \"#utility.yul\":10179:10181   */\n      0x20\n        /* \"#utility.yul\":10167:10176   */\n      dup3\n        /* \"#utility.yul\":10158:10165   */\n      dup5\n        /* \"#utility.yul\":10154:10177   */\n      sub\n        /* \"#utility.yul\":10150:10182   */\n      slt\n        /* \"#utility.yul\":10147:10266   */\n      iszero\n      tag_435\n      jumpi\n        /* \"#utility.yul\":10185:10264   */\n      tag_436\n      tag_300\n      jump\t// in\n    tag_436:\n        /* \"#utility.yul\":10147:10266   */\n    tag_435:\n        /* \"#utility.yul\":10305:10306   */\n      0x00\n        /* \"#utility.yul\":10330:10391   */\n      tag_437\n        /* \"#utility.yul\":10383:10390   */\n      dup5\n        /* \"#utility.yul\":10374:10380   */\n      dup3\n        /* \"#utility.yul\":10363:10372   */\n      dup6\n        /* \"#utility.yul\":10359:10381   */\n      add\n        /* \"#utility.yul\":10330:10391   */\n      tag_318\n      jump\t// in\n    tag_437:\n        /* \"#utility.yul\":10320:10391   */\n      swap2\n      pop\n        /* \"#utility.yul\":10276:10401   */\n      pop\n        /* \"#utility.yul\":10063:10408   */\n      swap3\n      swap2\n      pop\n      pop\n      jump\t// out\n        /* \"#utility.yul\":10414:10746   */\n    tag_190:\n        /* \"#utility.yul\":10535:10539   */\n      0x00\n        /* \"#utility.yul\":10573:10575   */\n      0x40\n        /* \"#utility.yul\":10562:10571   */\n      dup3\n        /* \"#utility.yul\":10558:10576   */\n      add\n        /* \"#utility.yul\":10550:10576   */\n      swap1\n      pop\n        /* \"#utility.yul\":10586:10657   */\n      tag_439\n        /* \"#utility.yul\":10654:10655   */\n      0x00\n        /* \"#utility.yul\":10643:10652   */\n      dup4\n        /* \"#utility.yul\":10639:10656   */\n      add\n        /* \"#utility.yul\":10630:10636   */\n      dup6\n        /* \"#utility.yul\":10586:10657   */\n      tag_293\n      jump\t// in\n    tag_439:\n        /* \"#utility.yul\":10667:10739   */\n      tag_440\n        /* \"#utility.yul\":10735:10737   */\n      0x20\n        /* \"#utility.yul\":10724:10733   */\n      dup4\n        /* \"#utility.yul\":10720:10738   */\n      add\n        /* \"#utility.yul\":10711:10717   */\n      dup5\n        /* \"#utility.yul\":10667:10739   */\n      tag_293\n      jump\t// in\n    tag_440:\n        /* \"#utility.yul\":10414:10746   */\n      swap4\n      swap3\n      pop\n      pop\n      pop\n      jump\t// out\n        /* \"#utility.yul\":10752:11084   */\n    tag_218:\n        /* \"#utility.yul\":10873:10877   */\n      0x00\n        /* \"#utility.yul\":10911:10913   */\n      0x40\n        /* \"#utility.yul\":10900:10909   */\n      dup3\n        /* \"#utility.yul\":10896:10914   */\n      add\n        /* \"#utility.yul\":10888:10914   */\n      swap1\n      pop\n        /* \"#utility.yul\":10924:10995   */\n      tag_442\n        /* \"#utility.yul\":10992:10993   */\n      0x00\n        /* \"#utility.yul\":10981:10990   */\n      dup4\n        /* \"#utility.yul\":10977:10994   */\n      add\n        /* \"#utility.yul\":10968:10974   */\n      dup6\n        /* \"#utility.yul\":10924:10995   */\n      tag_312\n      jump\t// in\n    tag_442:\n        /* \"#utility.yul\":11005:11077   */\n      tag_443\n        /* \"#utility.yul\":11073:11075   */\n      0x20\n        /* \"#utility.yul\":11062:11071   */\n      dup4\n        /* \"#utility.yul\":11058:11076   */\n      add\n        /* \"#utility.yul\":11049:11055   */\n      dup5\n        /* \"#utility.yul\":11005:11077   */\n      tag_293\n      jump\t// in\n    tag_443:\n        /* \"#utility.yul\":10752:11084   */\n      swap4\n      swap3\n      pop\n      pop\n      pop\n      jump\t// out\n        /* \"#utility.yul\":11090:11532   */\n    tag_258:\n        /* \"#utility.yul\":11239:11243   */\n      0x00\n        /* \"#utility.yul\":11277:11279   */\n      0x60\n        /* \"#utility.yul\":11266:11275   */\n      dup3\n        /* \"#utility.yul\":11262:11280   */\n      add\n        /* \"#utility.yul\":11254:11280   */\n      swap1\n      pop\n        /* \"#utility.yul\":11290:11361   */\n      tag_445\n        /* \"#utility.yul\":11358:11359   */\n      0x00\n        /* \"#utility.yul\":11347:11356   */\n      dup4\n        /* \"#utility.yul\":11343:11360   */\n      add\n        /* \"#utility.yul\":11334:11340   */\n      dup7\n        /* \"#utility.yul\":11290:11361   */\n      tag_312\n      jump\t// in\n    tag_445:\n        /* \"#utility.yul\":11371:11443   */\n      tag_446\n        /* \"#utility.yul\":11439:11441   */\n      0x20\n        /* \"#utility.yul\":11428:11437   */\n      dup4\n        /* \"#utility.yul\":11424:11442   */\n      add\n        /* \"#utility.yul\":11415:11421   */\n      dup6\n        /* \"#utility.yul\":11371:11443   */\n      tag_293\n      jump\t// in\n    tag_446:\n        /* \"#utility.yul\":11453:11525   */\n      tag_447\n        /* \"#utility.yul\":11521:11523   */\n      0x40\n        /* \"#utility.yul\":11510:11519   */\n      dup4\n        /* \"#utility.yul\":11506:11524   */\n      add\n        /* \"#utility.yul\":11497:11503   */\n      dup5\n        /* \"#utility.yul\":11453:11525   */\n      tag_293\n      jump\t// in\n    tag_447:\n        /* \"#utility.yul\":11090:11532   */\n      swap5\n      swap4\n      pop\n      pop\n      pop\n      pop\n      jump\t// out\n        /* \"#utility.yul\":11538:11729   */\n    tag_285:\n        /* \"#utility.yul\":11578:11581   */\n      0x00\n        /* \"#utility.yul\":11597:11617   */\n      tag_449\n        /* \"#utility.yul\":11615:11616   */\n      dup3\n        /* \"#utility.yul\":11597:11617   */\n      tag_292\n      jump\t// in\n    tag_449:\n        /* \"#utility.yul\":11592:11617   */\n      swap2\n      pop\n        /* \"#utility.yul\":11631:11651   */\n      tag_450\n        /* \"#utility.yul\":11649:11650   */\n      dup4\n        /* \"#utility.yul\":11631:11651   */\n      tag_292\n      jump\t// in\n    tag_450:\n        /* \"#utility.yul\":11626:11651   */\n      swap3\n      pop\n        /* \"#utility.yul\":11674:11675   */\n      dup3\n        /* \"#utility.yul\":11671:11672   */\n      dup3\n        /* \"#utility.yul\":11667:11676   */\n      add\n        /* \"#utility.yul\":11660:11676   */\n      swap1\n      pop\n        /* \"#utility.yul\":11695:11698   */\n      dup1\n        /* \"#utility.yul\":11692:11693   */\n      dup3\n        /* \"#utility.yul\":11689:11699   */\n      gt\n        /* \"#utility.yul\":11686:11722   */\n      iszero\n      tag_451\n      jumpi\n        /* \"#utility.yul\":11702:11720   */\n      tag_452\n      tag_315\n      jump\t// in\n    tag_452:\n        /* \"#utility.yul\":11686:11722   */\n    tag_451:\n        /* \"#utility.yul\":11538:11729   */\n      swap3\n      swap2\n      pop\n      pop\n      jump\t// out\n\n    auxdata: 0xa26469706673582212206fb021ce22641704cd51eceb87e2285a808e0f04bf61ee47109d1cb938ff85c364736f6c634300081a0033\n}\n",
				"bytecode": {
					"linkReferences": {},
					"object": "60a060405234801561000f575f80fd5b5060405161222438038061222483398181016040528101906100319190610249565b8181816003908161004291906104de565b50806004908161005291906104de565b5050508273ffffffffffffffffffffffffffffffffffffffff1660808173ffffffffffffffffffffffffffffffffffffffff16815250505050506105ad565b5f604051905090565b5f80fd5b5f80fd5b5f73ffffffffffffffffffffffffffffffffffffffff82169050919050565b5f6100cb826100a2565b9050919050565b5f6100dc826100c1565b9050919050565b6100ec816100d2565b81146100f6575f80fd5b50565b5f81519050610107816100e3565b92915050565b5f80fd5b5f80fd5b5f601f19601f8301169050919050565b7f4e487b71000000000000000000000000000000000000000000000000000000005f52604160045260245ffd5b61015b82610115565b810181811067ffffffffffffffff8211171561017a57610179610125565b5b80604052505050565b5f61018c610091565b90506101988282610152565b919050565b5f67ffffffffffffffff8211156101b7576101b6610125565b5b6101c082610115565b9050602081019050919050565b8281835e5f83830152505050565b5f6101ed6101e88461019d565b610183565b90508281526020810184848401111561020957610208610111565b5b6102148482856101cd565b509392505050565b5f82601f8301126102305761022f61010d565b5b81516102408482602086016101db565b91505092915050565b5f805f606084860312156102605761025f61009a565b5b5f61026d868287016100f9565b935050602084015167ffffffffffffffff81111561028e5761028d61009e565b5b61029a8682870161021c565b925050604084015167ffffffffffffffff8111156102bb576102ba61009e565b5b6102c78682870161021c565b9150509250925092565b5f81519050919050565b7f4e487b71000000000000000000000000000000000000000000000000000000005f52602260045260245ffd5b5f600282049050600182168061031f57607f821691505b602082108103610332576103316102db565b5b50919050565b5f819050815f5260205f209050919050565b5f6020601f8301049050919050565b5f82821b905092915050565b5f600883026103947fffffffffffffffffffffffffffffffffffffffffffffffffffffffffffffffff82610359565b61039e8683610359565b95508019841693508086168417925050509392505050565b5f819050919050565b5f819050919050565b5f6103e26103dd6103d8846103b6565b6103bf565b6103b6565b9050919050565b5f819050919050565b6103fb836103c8565b61040f610407826103e9565b848454610365565b825550505050565b5f90565b610423610417565b61042e8184846103f2565b505050565b5b81811015610451576104465f8261041b565b600181019050610434565b5050565b601f8211156104965761046781610338565b6104708461034a565b8101602085101561047f578190505b61049361048b8561034a565b830182610433565b50505b505050565b5f82821c905092915050565b5f6104b65f198460080261049b565b1980831691505092915050565b5f6104ce83836104a7565b9150826002028217905092915050565b6104e7826102d1565b67ffffffffffffffff811115610500576104ff610125565b5b61050a8254610308565b610515828285610455565b5f60209050601f831160018114610546575f8415610534578287015190505b61053e85826104c3565b8655506105a5565b601f19841661055486610338565b5f5b8281101561057b57848901518255600182019150602085019450602081019050610556565b868310156105985784890151610594601f8916826104a7565b8355505b6001600288020188555050505b505050505050565b608051611c3c6105e85f395f81816105bc0152818161079c015281816108080152818161096e01528181610b9b0152610d110152611c3c5ff3fe608060405234801561000f575f80fd5b5060043610610171575f3560e01c806370a08231116100dc578063ba08765211610095578063ce96cb771161006f578063ce96cb77146104f9578063d905777e14610529578063dd62ed3e14610559578063ef8b30f71461058957610171565b8063ba08765214610469578063c63d75b614610499578063c6e6f592146104c957610171565b806370a082311461035b57806394bf804d1461038b57806395d89b41146103bb578063a9059cbb146103d9578063b3d7f6b914610409578063b460af941461043957610171565b806323b872dd1161012e57806323b872dd1461025f578063313ce5671461028f57806338d52e0f146102ad578063402d267d146102cb5780634cdad506146102fb5780636e553f651461032b57610171565b806301e1d1141461017557806306fdde031461019357806307a2d13a146101b1578063095ea7b3146101e15780630a28a4771461021157806318160ddd14610241575b5f80fd5b61017d6105b9565b60405161018a91906115ef565b60405180910390f35b61019b610657565b6040516101a89190611678565b60405180910390f35b6101cb60048036038101906101c691906116c6565b6106e7565b6040516101d891906115ef565b60405180910390f35b6101fb60048036038101906101f6919061174b565b610727565b60405161020891906117a3565b60405180910390f35b61022b600480360381019061022691906116c6565b610749565b60405161023891906115ef565b60405180910390f35b61024961075a565b60405161025691906115ef565b60405180910390f35b610279600480360381019061027491906117bc565b610763565b60405161028691906117a3565b60405180910390f35b610297610791565b6040516102a49190611827565b60405180910390f35b6102b5610799565b6040516102c2919061184f565b60405180910390f35b6102e560048036038101906102e09190611868565b6107c0565b6040516102f291906115ef565b60405180910390f35b610315600480360381019061031091906116c6565b6107e9565b60405161032291906115ef565b60405180910390f35b61034560048036038101906103409190611893565b6107fa565b60405161035291906115ef565b60405180910390f35b61037560048036038101906103709190611868565b61091b565b60405161038291906115ef565b60405180910390f35b6103a560048036038101906103a09190611893565b610960565b6040516103b291906115ef565b60405180910390f35b6103c3610a81565b6040516103d09190611678565b60405180910390f35b6103f360048036038101906103ee919061174b565b610b11565b60405161040091906117a3565b60405180910390f35b610423600480360381019061041e91906116c6565b610b33565b60405161043091906115ef565b60405180910390f35b610453600480360381019061044e91906118d1565b610b44565b60405161046091906115ef565b60405180910390f35b610483600480360381019061047e91906118d1565b610cba565b60405161049091906115ef565b60405180910390f35b6104b360048036038101906104ae9190611868565b610e30565b6040516104c091906115ef565b60405180910390f35b6104e360048036038101906104de91906116c6565b610e59565b6040516104f091906115ef565b60405180910390f35b610513600480360381019061050e9190611868565b610e99565b60405161052091906115ef565b60405180910390f35b610543600480360381019061053e9190611868565b610eb2565b60405161055091906115ef565b60405180910390f35b610573600480360381019061056e9190611921565b610ec3565b60405161058091906115ef565b60405180910390f35b6105a3600480360381019061059e91906116c6565b610f45565b6040516105b091906115ef565b60405180910390f35b5f7f000000000000000000000000000000000000000000000000000000000000000073ffffffffffffffffffffffffffffffffffffffff166370a08231306040518263ffffffff1660e01b8152600401610613919061184f565b602060405180830381865afa15801561062e573d5f803e3d5ffd5b505050506040513d601f19601f820116820180604052508101906106529190611973565b905090565b606060038054610666906119cb565b80601f0160208091040260200160405190810160405280929190818152602001828054610692906119cb565b80156106dd5780601f106106b4576101008083540402835291602001916106dd565b820191905f5260205f20905b8154815290600101906020018083116106c057829003601f168201915b5050505050905090565b5f806106f161075a565b90505f811461071d57806107036105b9565b8461070e9190611a28565b6107189190611a96565b61071f565b825b915050919050565b5f80610731610f56565b905061073e818585610f5d565b600191505092915050565b5f61075382610e59565b9050919050565b5f600254905090565b5f8061076d610f56565b905061077a858285610f6f565b610785858585611001565b60019150509392505050565b5f6012905090565b5f7f0000000000000000000000000000000000000000000000000000000000000000905090565b5f7fffffffffffffffffffffffffffffffffffffffffffffffffffffffffffffffff9050919050565b5f6107f3826106e7565b9050919050565b5f61080483610f45565b90507f000000000000000000000000000000000000000000000000000000000000000073ffffffffffffffffffffffffffffffffffffffff166323b872dd3330866040518463ffffffff1660e01b815260040161086393929190611ac6565b6020604051808303815f875af115801561087f573d5f803e3d5ffd5b505050506040513d601f19601f820116820180604052508101906108a39190611b25565b506108ae82826110f1565b8173ffffffffffffffffffffffffffffffffffffffff163373ffffffffffffffffffffffffffffffffffffffff167fdcbc1c05240f31ff3ad067ef1ee35ce4997762752e3a095284754544f4c709d7858460405161090d929190611b50565b60405180910390a392915050565b5f805f8373ffffffffffffffffffffffffffffffffffffffff1673ffffffffffffffffffffffffffffffffffffffff1681526020019081526020015f20549050919050565b5f61096a83610b33565b90507f000000000000000000000000000000000000000000000000000000000000000073ffffffffffffffffffffffffffffffffffffffff166323b872dd3330846040518463ffffffff1660e01b81526004016109c993929190611ac6565b6020604051808303815f875af11580156109e5573d5f803e3d5ffd5b505050506040513d601f19601f82011682018060405250810190610a099190611b25565b50610a1482846110f1565b8173ffffffffffffffffffffffffffffffffffffffff163373ffffffffffffffffffffffffffffffffffffffff167fdcbc1c05240f31ff3ad067ef1ee35ce4997762752e3a095284754544f4c709d78386604051610a73929190611b50565b60405180910390a392915050565b606060048054610a90906119cb565b80601f0160208091040260200160405190810160405280929190818152602001828054610abc906119cb565b8015610b075780601f10610ade57610100808354040283529160200191610b07565b820191905f5260205f20905b815481529060010190602001808311610aea57829003601f168201915b5050505050905090565b5f80610b1b610f56565b9050610b28818585611001565b600191505092915050565b5f610b3d826106e7565b9050919050565b5f610b4e84610749565b90508173ffffffffffffffffffffffffffffffffffffffff163373ffffffffffffffffffffffffffffffffffffffff1614610b8f57610b8e823383610f6f565b5b610b998282611170565b7f000000000000000000000000000000000000000000000000000000000000000073ffffffffffffffffffffffffffffffffffffffff1663a9059cbb84866040518363ffffffff1660e01b8152600401610bf4929190611b77565b6020604051808303815f875af1158015610c10573d5f803e3d5ffd5b505050506040513d601f19601f82011682018060405250810190610c349190611b25565b508173ffffffffffffffffffffffffffffffffffffffff168373ffffffffffffffffffffffffffffffffffffffff163373ffffffffffffffffffffffffffffffffffffffff167ffbde797d201c681b91056529119e0b02407c7bb96a4a2c75c01fc9667232c8db8785604051610cab929190611b50565b60405180910390a49392505050565b5f610cc4846107e9565b90508173ffffffffffffffffffffffffffffffffffffffff163373ffffffffffffffffffffffffffffffffffffffff1614610d0557610d04823386610f6f565b5b610d0f8285611170565b7f000000000000000000000000000000000000000000000000000000000000000073ffffffffffffffffffffffffffffffffffffffff1663a9059cbb84836040518363ffffffff1660e01b8152600401610d6a929190611b77565b6020604051808303815f875af1158015610d86573d5f803e3d5ffd5b505050506040513d601f19601f82011682018060405250810190610daa9190611b25565b508173ffffffffffffffffffffffffffffffffffffffff168373ffffffffffffffffffffffffffffffffffffffff163373ffffffffffffffffffffffffffffffffffffffff167ffbde797d201c681b91056529119e0b02407c7bb96a4a2c75c01fc9667232c8db8488604051610e21929190611b50565b60405180910390a49392505050565b5f7fffffffffffffffffffffffffffffffffffffffffffffffffffffffffffffffff9050919050565b5f80610e6361075a565b90505f8114610e8f57610e746105b9565b8184610e809190611a28565b610e8a9190611a96565b610e91565b825b915050919050565b5f610eab610ea68361091b565b6106e7565b9050919050565b5f610ebc8261091b565b9050919050565b5f60015f8473ffffffffffffffffffffffffffffffffffffffff1673ffffffffffffffffffffffffffffffffffffffff1681526020019081526020015f205f8373ffffffffffffffffffffffffffffffffffffffff1673ffffffffffffffffffffffffffffffffffffffff1681526020019081526020015f2054905092915050565b5f610f4f82610e59565b9050919050565b5f33905090565b610f6a83838360016111ef565b505050565b5f610f7a8484610ec3565b90507fffffffffffffffffffffffffffffffffffffffffffffffffffffffffffffffff8114610ffb5781811015610fec578281836040517ffb8f41b2000000000000000000000000000000000000000000000000000000008152600401610fe393929190611b9e565b60405180910390fd5b610ffa84848484035f6111ef565b5b50505050565b5f73ffffffffffffffffffffffffffffffffffffffff168373ffffffffffffffffffffffffffffffffffffffff1603611071575f6040517f96c6fd1e000000000000000000000000000000000000000000000000000000008152600401611068919061184f565b60405180910390fd5b5f73ffffffffffffffffffffffffffffffffffffffff168273ffffffffffffffffffffffffffffffffffffffff16036110e1575f6040517fec442f050000000000000000000000000000000000000000000000000000000081526004016110d8919061184f565b60405180910390fd5b6110ec8383836113be565b505050565b5f73ffffffffffffffffffffffffffffffffffffffff168273ffffffffffffffffffffffffffffffffffffffff1603611161575f6040517fec442f05000000000000000000000000000000000000000000000000000000008152600401611158919061184f565b60405180910390fd5b61116c5f83836113be565b5050565b5f73ffffffffffffffffffffffffffffffffffffffff168273ffffffffffffffffffffffffffffffffffffffff16036111e0575f6040517f96c6fd1e0000000000000000000000000000000000000000000000000000000081526004016111d7919061184f565b60405180910390fd5b6111eb825f836113be565b5050565b5f73ffffffffffffffffffffffffffffffffffffffff168473ffffffffffffffffffffffffffffffffffffffff160361125f575f6040517fe602df05000000000000000000000000000000000000000000000000000000008152600401611256919061184f565b60405180910390fd5b5f73ffffffffffffffffffffffffffffffffffffffff168373ffffffffffffffffffffffffffffffffffffffff16036112cf575f6040517f94280d620000000000000000000000000000000000000000000000000000000081526004016112c6919061184f565b60405180910390fd5b8160015f8673ffffffffffffffffffffffffffffffffffffffff1673ffffffffffffffffffffffffffffffffffffffff1681526020019081526020015f205f8573ffffffffffffffffffffffffffffffffffffffff1673ffffffffffffffffffffffffffffffffffffffff1681526020019081526020015f208190555080156113b8578273ffffffffffffffffffffffffffffffffffffffff168473ffffffffffffffffffffffffffffffffffffffff167f8c5be1e5ebec7d5bd14f71427d1e84f3dd0314c0f7b2291e5b200ac8c7c3b925846040516113af91906115ef565b60405180910390a35b50505050565b5f73ffffffffffffffffffffffffffffffffffffffff168373ffffffffffffffffffffffffffffffffffffffff160361140e578060025f8282546114029190611bd3565b925050819055506114dc565b5f805f8573ffffffffffffffffffffffffffffffffffffffff1673ffffffffffffffffffffffffffffffffffffffff1681526020019081526020015f2054905081811015611497578381836040517fe450d38c00000000000000000000000000000000000000000000000000000000815260040161148e93929190611b9e565b60405180910390fd5b8181035f808673ffffffffffffffffffffffffffffffffffffffff1673ffffffffffffffffffffffffffffffffffffffff1681526020019081526020015f2081905550505b5f73ffffffffffffffffffffffffffffffffffffffff168273ffffffffffffffffffffffffffffffffffffffff1603611523578060025f828254039250508190555061156d565b805f808473ffffffffffffffffffffffffffffffffffffffff1673ffffffffffffffffffffffffffffffffffffffff1681526020019081526020015f205f82825401925050819055505b8173ffffffffffffffffffffffffffffffffffffffff168373ffffffffffffffffffffffffffffffffffffffff167fddf252ad1be2c89b69c2b068fc378daa952ba7f163c4a11628f55a4df523b3ef836040516115ca91906115ef565b60405180910390a3505050565b5f819050919050565b6115e9816115d7565b82525050565b5f6020820190506116025f8301846115e0565b92915050565b5f81519050919050565b5f82825260208201905092915050565b8281835e5f83830152505050565b5f601f19601f8301169050919050565b5f61164a82611608565b6116548185611612565b9350611664818560208601611622565b61166d81611630565b840191505092915050565b5f6020820190508181035f8301526116908184611640565b905092915050565b5f80fd5b6116a5816115d7565b81146116af575f80fd5b50565b5f813590506116c08161169c565b92915050565b5f602082840312156116db576116da611698565b5b5f6116e8848285016116b2565b91505092915050565b5f73ffffffffffffffffffffffffffffffffffffffff82169050919050565b5f61171a826116f1565b9050919050565b61172a81611710565b8114611734575f80fd5b50565b5f8135905061174581611721565b92915050565b5f806040838503121561176157611760611698565b5b5f61176e85828601611737565b925050602061177f858286016116b2565b9150509250929050565b5f8115159050919050565b61179d81611789565b82525050565b5f6020820190506117b65f830184611794565b92915050565b5f805f606084860312156117d3576117d2611698565b5b5f6117e086828701611737565b93505060206117f186828701611737565b9250506040611802868287016116b2565b9150509250925092565b5f60ff82169050919050565b6118218161180c565b82525050565b5f60208201905061183a5f830184611818565b92915050565b61184981611710565b82525050565b5f6020820190506118625f830184611840565b92915050565b5f6020828403121561187d5761187c611698565b5b5f61188a84828501611737565b91505092915050565b5f80604083850312156118a9576118a8611698565b5b5f6118b6858286016116b2565b92505060206118c785828601611737565b9150509250929050565b5f805f606084860312156118e8576118e7611698565b5b5f6118f5868287016116b2565b935050602061190686828701611737565b925050604061191786828701611737565b9150509250925092565b5f806040838503121561193757611936611698565b5b5f61194485828601611737565b925050602061195585828601611737565b9150509250929050565b5f8151905061196d8161169c565b92915050565b5f6020828403121561198857611987611698565b5b5f6119958482850161195f565b91505092915050565b7f4e487b71000000000000000000000000000000000000000000000000000000005f52602260045260245ffd5b5f60028204905060018216806119e257607f821691505b6020821081036119f5576119f461199e565b5b50919050565b7f4e487b71000000000000000000000000000000000000000000000000000000005f52601160045260245ffd5b5f611a32826115d7565b9150611a3d836115d7565b9250828202611a4b816115d7565b91508282048414831517611a6257611a616119fb565b5b5092915050565b7f4e487b71000000000000000000000000000000000000000000000000000000005f52601260045260245ffd5b5f611aa0826115d7565b9150611aab836115d7565b925082611abb57611aba611a69565b5b828204905092915050565b5f606082019050611ad95f830186611840565b611ae66020830185611840565b611af360408301846115e0565b949350505050565b611b0481611789565b8114611b0e575f80fd5b50565b5f81519050611b1f81611afb565b92915050565b5f60208284031215611b3a57611b39611698565b5b5f611b4784828501611b11565b91505092915050565b5f604082019050611b635f8301856115e0565b611b7060208301846115e0565b9392505050565b5f604082019050611b8a5f830185611840565b611b9760208301846115e0565b9392505050565b5f606082019050611bb15f830186611840565b611bbe60208301856115e0565b611bcb60408301846115e0565b949350505050565b5f611bdd826115d7565b9150611be8836115d7565b9250828201905080821115611c0057611bff6119fb565b5b9291505056fea26469706673582212206fb021ce22641704cd51eceb87e2285a808e0f04bf61ee47109d1cb938ff85c364736f6c634300081a0033",
					"opcodes": "PUSH1 0xA0 PUSH1 0x40 MSTORE CALLVALUE DUP1 ISZERO PUSH2 0xF JUMPI PUSH0 DUP1 REVERT JUMPDEST POP PUSH1 0x40 MLOAD PUSH2 0x2224 CODESIZE SUB DUP1 PUSH2 0x2224 DUP4 CODECOPY DUP2 DUP2 ADD PUSH1 0x40 MSTORE DUP2 ADD SWAP1 PUSH2 0x31 SWAP2 SWAP1 PUSH2 0x249 JUMP JUMPDEST DUP2 DUP2 DUP2 PUSH1 0x3 SWAP1 DUP2 PUSH2 0x42 SWAP2 SWAP1 PUSH2 0x4DE JUMP JUMPDEST POP DUP1 PUSH1 0x4 SWAP1 DUP2 PUSH2 0x52 SWAP2 SWAP1 PUSH2 0x4DE JUMP JUMPDEST POP POP POP DUP3 PUSH20 0xFFFFFFFFFFFFFFFFFFFFFFFFFFFFFFFFFFFFFFFF AND PUSH1 0x80 DUP2 PUSH20 0xFFFFFFFFFFFFFFFFFFFFFFFFFFFFFFFFFFFFFFFF AND DUP2 MSTORE POP POP POP POP POP PUSH2 0x5AD JUMP JUMPDEST PUSH0 PUSH1 0x40 MLOAD SWAP1 POP SWAP1 JUMP JUMPDEST PUSH0 DUP1 REVERT JUMPDEST PUSH0 DUP1 REVERT JUMPDEST PUSH0 PUSH20 0xFFFFFFFFFFFFFFFFFFFFFFFFFFFFFFFFFFFFFFFF DUP3 AND SWAP1 POP SWAP2 SWAP1 POP JUMP JUMPDEST PUSH0 PUSH2 0xCB DUP3 PUSH2 0xA2 JUMP JUMPDEST SWAP1 POP SWAP2 SWAP1 POP JUMP JUMPDEST PUSH0 PUSH2 0xDC DUP3 PUSH2 0xC1 JUMP JUMPDEST SWAP1 POP SWAP2 SWAP1 POP JUMP JUMPDEST PUSH2 0xEC DUP2 PUSH2 0xD2 JUMP JUMPDEST DUP2 EQ PUSH2 0xF6 JUMPI PUSH0 DUP1 REVERT JUMPDEST POP JUMP JUMPDEST PUSH0 DUP2 MLOAD SWAP1 POP PUSH2 0x107 DUP2 PUSH2 0xE3 JUMP JUMPDEST SWAP3 SWAP2 POP POP JUMP JUMPDEST PUSH0 DUP1 REVERT JUMPDEST PUSH0 DUP1 REVERT JUMPDEST PUSH0 PUSH1 0x1F NOT PUSH1 0x1F DUP4 ADD AND SWAP1 POP SWAP2 SWAP1 POP JUMP JUMPDEST PUSH32 0x4E487B7100000000000000000000000000000000000000000000000000000000 PUSH0 MSTORE PUSH1 0x41 PUSH1 0x4 MSTORE PUSH1 0x24 PUSH0 REVERT JUMPDEST PUSH2 0x15B DUP3 PUSH2 0x115 JUMP JUMPDEST DUP2 ADD DUP2 DUP2 LT PUSH8 0xFFFFFFFFFFFFFFFF DUP3 GT OR ISZERO PUSH2 0x17A JUMPI PUSH2 0x179 PUSH2 0x125 JUMP JUMPDEST JUMPDEST DUP1 PUSH1 0x40 MSTORE POP POP POP JUMP JUMPDEST PUSH0 PUSH2 0x18C PUSH2 0x91 JUMP JUMPDEST SWAP1 POP PUSH2 0x198 DUP3 DUP3 PUSH2 0x152 JUMP JUMPDEST SWAP2 SWAP1 POP JUMP JUMPDEST PUSH0 PUSH8 0xFFFFFFFFFFFFFFFF DUP3 GT ISZERO PUSH2 0x1B7 JUMPI PUSH2 0x1B6 PUSH2 0x125 JUMP JUMPDEST JUMPDEST PUSH2 0x1C0 DUP3 PUSH2 0x115 JUMP JUMPDEST SWAP1 POP PUSH1 0x20 DUP2 ADD SWAP1 POP SWAP2 SWAP1 POP JUMP JUMPDEST DUP3 DUP2 DUP4 MCOPY PUSH0 DUP4 DUP4 ADD MSTORE POP POP POP JUMP JUMPDEST PUSH0 PUSH2 0x1ED PUSH2 0x1E8 DUP5 PUSH2 0x19D JUMP JUMPDEST PUSH2 0x183 JUMP JUMPDEST SWAP1 POP DUP3 DUP2 MSTORE PUSH1 0x20 DUP2 ADD DUP5 DUP5 DUP5 ADD GT ISZERO PUSH2 0x209 JUMPI PUSH2 0x208 PUSH2 0x111 JUMP JUMPDEST JUMPDEST PUSH2 0x214 DUP5 DUP3 DUP6 PUSH2 0x1CD JUMP JUMPDEST POP SWAP4 SWAP3 POP POP POP JUMP JUMPDEST PUSH0 DUP3 PUSH1 0x1F DUP4 ADD SLT PUSH2 0x230 JUMPI PUSH2 0x22F PUSH2 0x10D JUMP JUMPDEST JUMPDEST DUP2 MLOAD PUSH2 0x240 DUP5 DUP3 PUSH1 0x20 DUP7 ADD PUSH2 0x1DB JUMP JUMPDEST SWAP2 POP POP SWAP3 SWAP2 POP POP JUMP JUMPDEST PUSH0 DUP1 PUSH0 PUSH1 0x60 DUP5 DUP7 SUB SLT ISZERO PUSH2 0x260 JUMPI PUSH2 0x25F PUSH2 0x9A JUMP JUMPDEST JUMPDEST PUSH0 PUSH2 0x26D DUP7 DUP3 DUP8 ADD PUSH2 0xF9 JUMP JUMPDEST SWAP4 POP POP PUSH1 0x20 DUP5 ADD MLOAD PUSH8 0xFFFFFFFFFFFFFFFF DUP2 GT ISZERO PUSH2 0x28E JUMPI PUSH2 0x28D PUSH2 0x9E JUMP JUMPDEST JUMPDEST PUSH2 0x29A DUP7 DUP3 DUP8 ADD PUSH2 0x21C JUMP JUMPDEST SWAP3 POP POP PUSH1 0x40 DUP5 ADD MLOAD PUSH8 0xFFFFFFFFFFFFFFFF DUP2 GT ISZERO PUSH2 0x2BB JUMPI PUSH2 0x2BA PUSH2 0x9E JUMP JUMPDEST JUMPDEST PUSH2 0x2C7 DUP7 DUP3 DUP8 ADD PUSH2 0x21C JUMP JUMPDEST SWAP2 POP POP SWAP3 POP SWAP3 POP SWAP3 JUMP JUMPDEST PUSH0 DUP2 MLOAD SWAP1 POP SWAP2 SWAP1 POP JUMP JUMPDEST PUSH32 0x4E487B7100000000000000000000000000000000000000000000000000000000 PUSH0 MSTORE PUSH1 0x22 PUSH1 0x4 MSTORE PUSH1 0x24 PUSH0 REVERT JUMPDEST PUSH0 PUSH1 0x2 DUP3 DIV SWAP1 POP PUSH1 0x1 DUP3 AND DUP1 PUSH2 0x31F JUMPI PUSH1 0x7F DUP3 AND SWAP2 POP JUMPDEST PUSH1 0x20 DUP3 LT DUP2 SUB PUSH2 0x332 JUMPI PUSH2 0x331 PUSH2 0x2DB JUMP JUMPDEST JUMPDEST POP SWAP2 SWAP1 POP JUMP JUMPDEST PUSH0 DUP2 SWAP1 POP DUP2 PUSH0 MSTORE PUSH1 0x20 PUSH0 KECCAK256 SWAP1 POP SWAP2 SWAP1 POP JUMP JUMPDEST PUSH0 PUSH1 0x20 PUSH1 0x1F DUP4 ADD DIV SWAP1 POP SWAP2 SWAP1 POP JUMP JUMPDEST PUSH0 DUP3 DUP3 SHL SWAP1 POP SWAP3 SWAP2 POP POP JUMP JUMPDEST PUSH0 PUSH1 0x8 DUP4 MUL PUSH2 0x394 PUSH32 0xFFFFFFFFFFFFFFFFFFFFFFFFFFFFFFFFFFFFFFFFFFFFFFFFFFFFFFFFFFFFFFFF DUP3 PUSH2 0x359 JUMP JUMPDEST PUSH2 0x39E DUP7 DUP4 PUSH2 0x359 JUMP JUMPDEST SWAP6 POP DUP1 NOT DUP5 AND SWAP4 POP DUP1 DUP7 AND DUP5 OR SWAP3 POP POP POP SWAP4 SWAP3 POP POP POP JUMP JUMPDEST PUSH0 DUP2 SWAP1 POP SWAP2 SWAP1 POP JUMP JUMPDEST PUSH0 DUP2 SWAP1 POP SWAP2 SWAP1 POP JUMP JUMPDEST PUSH0 PUSH2 0x3E2 PUSH2 0x3DD PUSH2 0x3D8 DUP5 PUSH2 0x3B6 JUMP JUMPDEST PUSH2 0x3BF JUMP JUMPDEST PUSH2 0x3B6 JUMP JUMPDEST SWAP1 POP SWAP2 SWAP1 POP JUMP JUMPDEST PUSH0 DUP2 SWAP1 POP SWAP2 SWAP1 POP JUMP JUMPDEST PUSH2 0x3FB DUP4 PUSH2 0x3C8 JUMP JUMPDEST PUSH2 0x40F PUSH2 0x407 DUP3 PUSH2 0x3E9 JUMP JUMPDEST DUP5 DUP5 SLOAD PUSH2 0x365 JUMP JUMPDEST DUP3 SSTORE POP POP POP POP JUMP JUMPDEST PUSH0 SWAP1 JUMP JUMPDEST PUSH2 0x423 PUSH2 0x417 JUMP JUMPDEST PUSH2 0x42E DUP2 DUP5 DUP5 PUSH2 0x3F2 JUMP JUMPDEST POP POP POP JUMP JUMPDEST JUMPDEST DUP2 DUP2 LT ISZERO PUSH2 0x451 JUMPI PUSH2 0x446 PUSH0 DUP3 PUSH2 0x41B JUMP JUMPDEST PUSH1 0x1 DUP2 ADD SWAP1 POP PUSH2 0x434 JUMP JUMPDEST POP POP JUMP JUMPDEST PUSH1 0x1F DUP3 GT ISZERO PUSH2 0x496 JUMPI PUSH2 0x467 DUP2 PUSH2 0x338 JUMP JUMPDEST PUSH2 0x470 DUP5 PUSH2 0x34A JUMP JUMPDEST DUP2 ADD PUSH1 0x20 DUP6 LT ISZERO PUSH2 0x47F JUMPI DUP2 SWAP1 POP JUMPDEST PUSH2 0x493 PUSH2 0x48B DUP6 PUSH2 0x34A JUMP JUMPDEST DUP4 ADD DUP3 PUSH2 0x433 JUMP JUMPDEST POP POP JUMPDEST POP POP POP JUMP JUMPDEST PUSH0 DUP3 DUP3 SHR SWAP1 POP SWAP3 SWAP2 POP POP JUMP JUMPDEST PUSH0 PUSH2 0x4B6 PUSH0 NOT DUP5 PUSH1 0x8 MUL PUSH2 0x49B JUMP JUMPDEST NOT DUP1 DUP4 AND SWAP2 POP POP SWAP3 SWAP2 POP POP JUMP JUMPDEST PUSH0 PUSH2 0x4CE DUP4 DUP4 PUSH2 0x4A7 JUMP JUMPDEST SWAP2 POP DUP3 PUSH1 0x2 MUL DUP3 OR SWAP1 POP SWAP3 SWAP2 POP POP JUMP JUMPDEST PUSH2 0x4E7 DUP3 PUSH2 0x2D1 JUMP JUMPDEST PUSH8 0xFFFFFFFFFFFFFFFF DUP2 GT ISZERO PUSH2 0x500 JUMPI PUSH2 0x4FF PUSH2 0x125 JUMP JUMPDEST JUMPDEST PUSH2 0x50A DUP3 SLOAD PUSH2 0x308 JUMP JUMPDEST PUSH2 0x515 DUP3 DUP3 DUP6 PUSH2 0x455 JUMP JUMPDEST PUSH0 PUSH1 0x20 SWAP1 POP PUSH1 0x1F DUP4 GT PUSH1 0x1 DUP2 EQ PUSH2 0x546 JUMPI PUSH0 DUP5 ISZERO PUSH2 0x534 JUMPI DUP3 DUP8 ADD MLOAD SWAP1 POP JUMPDEST PUSH2 0x53E DUP6 DUP3 PUSH2 0x4C3 JUMP JUMPDEST DUP7 SSTORE POP PUSH2 0x5A5 JUMP JUMPDEST PUSH1 0x1F NOT DUP5 AND PUSH2 0x554 DUP7 PUSH2 0x338 JUMP JUMPDEST PUSH0 JUMPDEST DUP3 DUP2 LT ISZERO PUSH2 0x57B JUMPI DUP5 DUP10 ADD MLOAD DUP3 SSTORE PUSH1 0x1 DUP3 ADD SWAP2 POP PUSH1 0x20 DUP6 ADD SWAP5 POP PUSH1 0x20 DUP2 ADD SWAP1 POP PUSH2 0x556 JUMP JUMPDEST DUP7 DUP4 LT ISZERO PUSH2 0x598 JUMPI DUP5 DUP10 ADD MLOAD PUSH2 0x594 PUSH1 0x1F DUP10 AND DUP3 PUSH2 0x4A7 JUMP JUMPDEST DUP4 SSTORE POP JUMPDEST PUSH1 0x1 PUSH1 0x2 DUP9 MUL ADD DUP9 SSTORE POP POP POP JUMPDEST POP POP POP POP POP POP JUMP JUMPDEST PUSH1 0x80 MLOAD PUSH2 0x1C3C PUSH2 0x5E8 PUSH0 CODECOPY PUSH0 DUP2 DUP2 PUSH2 0x5BC ADD MSTORE DUP2 DUP2 PUSH2 0x79C ADD MSTORE DUP2 DUP2 PUSH2 0x808 ADD MSTORE DUP2 DUP2 PUSH2 0x96E ADD MSTORE DUP2 DUP2 PUSH2 0xB9B ADD MSTORE PUSH2 0xD11 ADD MSTORE PUSH2 0x1C3C PUSH0 RETURN INVALID PUSH1 0x80 PUSH1 0x40 MSTORE CALLVALUE DUP1 ISZERO PUSH2 0xF JUMPI PUSH0 DUP1 REVERT JUMPDEST POP PUSH1 0x4 CALLDATASIZE LT PUSH2 0x171 JUMPI PUSH0 CALLDATALOAD PUSH1 0xE0 SHR DUP1 PUSH4 0x70A08231 GT PUSH2 0xDC JUMPI DUP1 PUSH4 0xBA087652 GT PUSH2 0x95 JUMPI DUP1 PUSH4 0xCE96CB77 GT PUSH2 0x6F JUMPI DUP1 PUSH4 0xCE96CB77 EQ PUSH2 0x4F9 JUMPI DUP1 PUSH4 0xD905777E EQ PUSH2 0x529 JUMPI DUP1 PUSH4 0xDD62ED3E EQ PUSH2 0x559 JUMPI DUP1 PUSH4 0xEF8B30F7 EQ PUSH2 0x589 JUMPI PUSH2 0x171 JUMP JUMPDEST DUP1 PUSH4 0xBA087652 EQ PUSH2 0x469 JUMPI DUP1 PUSH4 0xC63D75B6 EQ PUSH2 0x499 JUMPI DUP1 PUSH4 0xC6E6F592 EQ PUSH2 0x4C9 JUMPI PUSH2 0x171 JUMP JUMPDEST DUP1 PUSH4 0x70A08231 EQ PUSH2 0x35B JUMPI DUP1 PUSH4 0x94BF804D EQ PUSH2 0x38B JUMPI DUP1 PUSH4 0x95D89B41 EQ PUSH2 0x3BB JUMPI DUP1 PUSH4 0xA9059CBB EQ PUSH2 0x3D9 JUMPI DUP1 PUSH4 0xB3D7F6B9 EQ PUSH2 0x409 JUMPI DUP1 PUSH4 0xB460AF94 EQ PUSH2 0x439 JUMPI PUSH2 0x171 JUMP JUMPDEST DUP1 PUSH4 0x23B872DD GT PUSH2 0x12E JUMPI DUP1 PUSH4 0x23B872DD EQ PUSH2 0x25F JUMPI DUP1 PUSH4 0x313CE567 EQ PUSH2 0x28F JUMPI DUP1 PUSH4 0x38D52E0F EQ PUSH2 0x2AD JUMPI DUP1 PUSH4 0x402D267D EQ PUSH2 0x2CB JUMPI DUP1 PUSH4 0x4CDAD506 EQ PUSH2 0x2FB JUMPI DUP1 PUSH4 0x6E553F65 EQ PUSH2 0x32B JUMPI PUSH2 0x171 JUMP JUMPDEST DUP1 PUSH4 0x1E1D114 EQ PUSH2 0x175 JUMPI DUP1 PUSH4 0x6FDDE03 EQ PUSH2 0x193 JUMPI DUP1 PUSH4 0x7A2D13A EQ PUSH2 0x1B1 JUMPI DUP1 PUSH4 0x95EA7B3 EQ PUSH2 0x1E1 JUMPI DUP1 PUSH4 0xA28A477 EQ PUSH2 0x211 JUMPI DUP1 PUSH4 0x18160DDD EQ PUSH2 0x241 JUMPI JUMPDEST PUSH0 DUP1 REVERT JUMPDEST PUSH2 0x17D PUSH2 0x5B9 JUMP JUMPDEST PUSH1 0x40 MLOAD PUSH2 0x18A SWAP2 SWAP1 PUSH2 0x15EF JUMP JUMPDEST PUSH1 0x40 MLOAD DUP1 SWAP2 SUB SWAP1 RETURN JUMPDEST PUSH2 0x19B PUSH2 0x657 JUMP JUMPDEST PUSH1 0x40 MLOAD PUSH2 0x1A8 SWAP2 SWAP1 PUSH2 0x1678 JUMP JUMPDEST PUSH1 0x40 MLOAD DUP1 SWAP2 SUB SWAP1 RETURN JUMPDEST PUSH2 0x1CB PUSH1 0x4 DUP1 CALLDATASIZE SUB DUP2 ADD SWAP1 PUSH2 0x1C6 SWAP2 SWAP1 PUSH2 0x16C6 JUMP JUMPDEST PUSH2 0x6E7 JUMP JUMPDEST PUSH1 0x40 MLOAD PUSH2 0x1D8 SWAP2 SWAP1 PUSH2 0x15EF JUMP JUMPDEST PUSH1 0x40 MLOAD DUP1 SWAP2 SUB SWAP1 RETURN JUMPDEST PUSH2 0x1FB PUSH1 0x4 DUP1 CALLDATASIZE SUB DUP2 ADD SWAP1 PUSH2 0x1F6 SWAP2 SWAP1 PUSH2 0x174B JUMP JUMPDEST PUSH2 0x727 JUMP JUMPDEST PUSH1 0x40 MLOAD PUSH2 0x208 SWAP2 SWAP1 PUSH2 0x17A3 JUMP JUMPDEST PUSH1 0x40 MLOAD DUP1 SWAP2 SUB SWAP1 RETURN JUMPDEST PUSH2 0x22B PUSH1 0x4 DUP1 CALLDATASIZE SUB DUP2 ADD SWAP1 PUSH2 0x226 SWAP2 SWAP1 PUSH2 0x16C6 JUMP JUMPDEST PUSH2 0x749 JUMP JUMPDEST PUSH1 0x40 MLOAD PUSH2 0x238 SWAP2 SWAP1 PUSH2 0x15EF JUMP JUMPDEST PUSH1 0x40 MLOAD DUP1 SWAP2 SUB SWAP1 RETURN JUMPDEST PUSH2 0x249 PUSH2 0x75A JUMP JUMPDEST PUSH1 0x40 MLOAD PUSH2 0x256 SWAP2 SWAP1 PUSH2 0x15EF JUMP JUMPDEST PUSH1 0x40 MLOAD DUP1 SWAP2 SUB SWAP1 RETURN JUMPDEST PUSH2 0x279 PUSH1 0x4 DUP1 CALLDATASIZE SUB DUP2 ADD SWAP1 PUSH2 0x274 SWAP2 SWAP1 PUSH2 0x17BC JUMP JUMPDEST PUSH2 0x763 JUMP JUMPDEST PUSH1 0x40 MLOAD PUSH2 0x286 SWAP2 SWAP1 PUSH2 0x17A3 JUMP JUMPDEST PUSH1 0x40 MLOAD DUP1 SWAP2 SUB SWAP1 RETURN JUMPDEST PUSH2 0x297 PUSH2 0x791 JUMP JUMPDEST PUSH1 0x40 MLOAD PUSH2 0x2A4 SWAP2 SWAP1 PUSH2 0x1827 JUMP JUMPDEST PUSH1 0x40 MLOAD DUP1 SWAP2 SUB SWAP1 RETURN JUMPDEST PUSH2 0x2B5 PUSH2 0x799 JUMP JUMPDEST PUSH1 0x40 MLOAD PUSH2 0x2C2 SWAP2 SWAP1 PUSH2 0x184F JUMP JUMPDEST PUSH1 0x40 MLOAD DUP1 SWAP2 SUB SWAP1 RETURN JUMPDEST PUSH2 0x2E5 PUSH1 0x4 DUP1 CALLDATASIZE SUB DUP2 ADD SWAP1 PUSH2 0x2E0 SWAP2 SWAP1 PUSH2 0x1868 JUMP JUMPDEST PUSH2 0x7C0 JUMP JUMPDEST PUSH1 0x40 MLOAD PUSH2 0x2F2 SWAP2 SWAP1 PUSH2 0x15EF JUMP JUMPDEST PUSH1 0x40 MLOAD DUP1 SWAP2 SUB SWAP1 RETURN JUMPDEST PUSH2 0x315 PUSH1 0x4 DUP1 CALLDATASIZE SUB DUP2 ADD SWAP1 PUSH2 0x310 SWAP2 SWAP1 PUSH2 0x16C6 JUMP JUMPDEST PUSH2 0x7E9 JUMP JUMPDEST PUSH1 0x40 MLOAD PUSH2 0x322 SWAP2 SWAP1 PUSH2 0x15EF JUMP JUMPDEST PUSH1 0x40 MLOAD DUP1 SWAP2 SUB SWAP1 RETURN JUMPDEST PUSH2 0x345 PUSH1 0x4 DUP1 CALLDATASIZE SUB DUP2 ADD SWAP1 PUSH2 0x340 SWAP2 SWAP1 PUSH2 0x1893 JUMP JUMPDEST PUSH2 0x7FA JUMP JUMPDEST PUSH1 0x40 MLOAD PUSH2 0x352 SWAP2 SWAP1 PUSH2 0x15EF JUMP JUMPDEST PUSH1 0x40 MLOAD DUP1 SWAP2 SUB SWAP1 RETURN JUMPDEST PUSH2 0x375 PUSH1 0x4 DUP1 CALLDATASIZE SUB DUP2 ADD SWAP1 PUSH2 0x370 SWAP2 SWAP1 PUSH2 0x1868 JUMP JUMPDEST PUSH2 0x91B JUMP JUMPDEST PUSH1 0x40 MLOAD PUSH2 0x382 SWAP2 SWAP1 PUSH2 0x15EF JUMP JUMPDEST PUSH1 0x40 MLOAD DUP1 SWAP2 SUB SWAP1 RETURN JUMPDEST PUSH2 0x3A5 PUSH1 0x4 DUP1 CALLDATASIZE SUB DUP2 ADD SWAP1 PUSH2 0x3A0 SWAP2 SWAP1 PUSH2 0x1893 JUMP JUMPDEST PUSH2 0x960 JUMP JUMPDEST PUSH1 0x40 MLOAD PUSH2 0x3B2 SWAP2 SWAP1 PUSH2 0x15EF JUMP JUMPDEST PUSH1 0x40 MLOAD DUP1 SWAP2 SUB SWAP1 RETURN JUMPDEST PUSH2 0x3C3 PUSH2 0xA81 JUMP JUMPDEST PUSH1 0x40 MLOAD PUSH2 0x3D0 SWAP2 SWAP1 PUSH2 0x1678 JUMP JUMPDEST PUSH1 0x40 MLOAD DUP1 SWAP2 SUB SWAP1 RETURN JUMPDEST PUSH2 0x3F3 PUSH1 0x4 DUP1 CALLDATASIZE SUB DUP2 ADD SWAP1 PUSH2 0x3EE SWAP2 SWAP1 PUSH2 0x174B JUMP JUMPDEST PUSH2 0xB11 JUMP JUMPDEST PUSH1 0x40 MLOAD PUSH2 0x400 SWAP2 SWAP1 PUSH2 0x17A3 JUMP JUMPDEST PUSH1 0x40 MLOAD DUP1 SWAP2 SUB SWAP1 RETURN JUMPDEST PUSH2 0x423 PUSH1 0x4 DUP1 CALLDATASIZE SUB DUP2 ADD SWAP1 PUSH2 0x41E SWAP2 SWAP1 PUSH2 0x16C6 JUMP JUMPDEST PUSH2 0xB33 JUMP JUMPDEST PUSH1 0x40 MLOAD PUSH2 0x430 SWAP2 SWAP1 PUSH2 0x15EF JUMP JUMPDEST PUSH1 0x40 MLOAD DUP1 SWAP2 SUB SWAP1 RETURN JUMPDEST PUSH2 0x453 PUSH1 0x4 DUP1 CALLDATASIZE SUB DUP2 ADD SWAP1 PUSH2 0x44E SWAP2 SWAP1 PUSH2 0x18D1 JUMP JUMPDEST PUSH2 0xB44 JUMP JUMPDEST PUSH1 0x40 MLOAD PUSH2 0x460 SWAP2 SWAP1 PUSH2 0x15EF JUMP JUMPDEST PUSH1 0x40 MLOAD DUP1 SWAP2 SUB SWAP1 RETURN JUMPDEST PUSH2 0x483 PUSH1 0x4 DUP1 CALLDATASIZE SUB DUP2 ADD SWAP1 PUSH2 0x47E SWAP2 SWAP1 PUSH2 0x18D1 JUMP JUMPDEST PUSH2 0xCBA JUMP JUMPDEST PUSH1 0x40 MLOAD PUSH2 0x490 SWAP2 SWAP1 PUSH2 0x15EF JUMP JUMPDEST PUSH1 0x40 MLOAD DUP1 SWAP2 SUB SWAP1 RETURN JUMPDEST PUSH2 0x4B3 PUSH1 0x4 DUP1 CALLDATASIZE SUB DUP2 ADD SWAP1 PUSH2 0x4AE SWAP2 SWAP1 PUSH2 0x1868 JUMP JUMPDEST PUSH2 0xE30 JUMP JUMPDEST PUSH1 0x40 MLOAD PUSH2 0x4C0 SWAP2 SWAP1 PUSH2 0x15EF JUMP JUMPDEST PUSH1 0x40 MLOAD DUP1 SWAP2 SUB SWAP1 RETURN JUMPDEST PUSH2 0x4E3 PUSH1 0x4 DUP1 CALLDATASIZE SUB DUP2 ADD SWAP1 PUSH2 0x4DE SWAP2 SWAP1 PUSH2 0x16C6 JUMP JUMPDEST PUSH2 0xE59 JUMP JUMPDEST PUSH1 0x40 MLOAD PUSH2 0x4F0 SWAP2 SWAP1 PUSH2 0x15EF JUMP JUMPDEST PUSH1 0x40 MLOAD DUP1 SWAP2 SUB SWAP1 RETURN JUMPDEST PUSH2 0x513 PUSH1 0x4 DUP1 CALLDATASIZE SUB DUP2 ADD SWAP1 PUSH2 0x50E SWAP2 SWAP1 PUSH2 0x1868 JUMP JUMPDEST PUSH2 0xE99 JUMP JUMPDEST PUSH1 0x40 MLOAD PUSH2 0x520 SWAP2 SWAP1 PUSH2 0x15EF JUMP JUMPDEST PUSH1 0x40 MLOAD DUP1 SWAP2 SUB SWAP1 RETURN JUMPDEST PUSH2 0x543 PUSH1 0x4 DUP1 CALLDATASIZE SUB DUP2 ADD SWAP1 PUSH2 0x53E SWAP2 SWAP1 PUSH2 0x1868 JUMP JUMPDEST PUSH2 0xEB2 JUMP JUMPDEST PUSH1 0x40 MLOAD PUSH2 0x550 SWAP2 SWAP1 PUSH2 0x15EF JUMP JUMPDEST PUSH1 0x40 MLOAD DUP1 SWAP2 SUB SWAP1 RETURN JUMPDEST PUSH2 0x573 PUSH1 0x4 DUP1 CALLDATASIZE SUB DUP2 ADD SWAP1 PUSH2 0x56E SWAP2 SWAP1 PUSH2 0x1921 JUMP JUMPDEST PUSH2 0xEC3 JUMP JUMPDEST PUSH1 0x40 MLOAD PUSH2 0x580 SWAP2 SWAP1 PUSH2 0x15EF JUMP JUMPDEST PUSH1 0x40 MLOAD DUP1 SWAP2 SUB SWAP1 RETURN JUMPDEST PUSH2 0x5A3 PUSH1 0x4 DUP1 CALLDATASIZE SUB DUP2 ADD SWAP1 PUSH2 0x59E SWAP2 SWAP1 PUSH2 0x16C6 JUMP JUMPDEST PUSH2 0xF45 JUMP JUMPDEST PUSH1 0x40 MLOAD PUSH2 0x5B0 SWAP2 SWAP1 PUSH2 0x15EF JUMP JUMPDEST PUSH1 0x40 MLOAD DUP1 SWAP2 SUB SWAP1 RETURN JUMPDEST PUSH0 PUSH32 0x0 PUSH20 0xFFFFFFFFFFFFFFFFFFFFFFFFFFFFFFFFFFFFFFFF AND PUSH4 0x70A08231 ADDRESS PUSH1 0x40 MLOAD DUP3 PUSH4 0xFFFFFFFF AND PUSH1 0xE0 SHL DUP2 MSTORE PUSH1 0x4 ADD PUSH2 0x613 SWAP2 SWAP1 PUSH2 0x184F JUMP JUMPDEST PUSH1 0x20 PUSH1 0x40 MLOAD DUP1 DUP4 SUB DUP2 DUP7 GAS STATICCALL ISZERO DUP1 ISZERO PUSH2 0x62E JUMPI RETURNDATASIZE PUSH0 DUP1 RETURNDATACOPY RETURNDATASIZE PUSH0 REVERT JUMPDEST POP POP POP POP PUSH1 0x40 MLOAD RETURNDATASIZE PUSH1 0x1F NOT PUSH1 0x1F DUP3 ADD AND DUP3 ADD DUP1 PUSH1 0x40 MSTORE POP DUP2 ADD SWAP1 PUSH2 0x652 SWAP2 SWAP1 PUSH2 0x1973 JUMP JUMPDEST SWAP1 POP SWAP1 JUMP JUMPDEST PUSH1 0x60 PUSH1 0x3 DUP1 SLOAD PUSH2 0x666 SWAP1 PUSH2 0x19CB JUMP JUMPDEST DUP1 PUSH1 0x1F ADD PUSH1 0x20 DUP1 SWAP2 DIV MUL PUSH1 0x20 ADD PUSH1 0x40 MLOAD SWAP1 DUP2 ADD PUSH1 0x40 MSTORE DUP1 SWAP3 SWAP2 SWAP1 DUP2 DUP2 MSTORE PUSH1 0x20 ADD DUP3 DUP1 SLOAD PUSH2 0x692 SWAP1 PUSH2 0x19CB JUMP JUMPDEST DUP1 ISZERO PUSH2 0x6DD JUMPI DUP1 PUSH1 0x1F LT PUSH2 0x6B4 JUMPI PUSH2 0x100 DUP1 DUP4 SLOAD DIV MUL DUP4 MSTORE SWAP2 PUSH1 0x20 ADD SWAP2 PUSH2 0x6DD JUMP JUMPDEST DUP3 ADD SWAP2 SWAP1 PUSH0 MSTORE PUSH1 0x20 PUSH0 KECCAK256 SWAP1 JUMPDEST DUP2 SLOAD DUP2 MSTORE SWAP1 PUSH1 0x1 ADD SWAP1 PUSH1 0x20 ADD DUP1 DUP4 GT PUSH2 0x6C0 JUMPI DUP3 SWAP1 SUB PUSH1 0x1F AND DUP3 ADD SWAP2 JUMPDEST POP POP POP POP POP SWAP1 POP SWAP1 JUMP JUMPDEST PUSH0 DUP1 PUSH2 0x6F1 PUSH2 0x75A JUMP JUMPDEST SWAP1 POP PUSH0 DUP2 EQ PUSH2 0x71D JUMPI DUP1 PUSH2 0x703 PUSH2 0x5B9 JUMP JUMPDEST DUP5 PUSH2 0x70E SWAP2 SWAP1 PUSH2 0x1A28 JUMP JUMPDEST PUSH2 0x718 SWAP2 SWAP1 PUSH2 0x1A96 JUMP JUMPDEST PUSH2 0x71F JUMP JUMPDEST DUP3 JUMPDEST SWAP2 POP POP SWAP2 SWAP1 POP JUMP JUMPDEST PUSH0 DUP1 PUSH2 0x731 PUSH2 0xF56 JUMP JUMPDEST SWAP1 POP PUSH2 0x73E DUP2 DUP6 DUP6 PUSH2 0xF5D JUMP JUMPDEST PUSH1 0x1 SWAP2 POP POP SWAP3 SWAP2 POP POP JUMP JUMPDEST PUSH0 PUSH2 0x753 DUP3 PUSH2 0xE59 JUMP JUMPDEST SWAP1 POP SWAP2 SWAP1 POP JUMP JUMPDEST PUSH0 PUSH1 0x2 SLOAD SWAP1 POP SWAP1 JUMP JUMPDEST PUSH0 DUP1 PUSH2 0x76D PUSH2 0xF56 JUMP JUMPDEST SWAP1 POP PUSH2 0x77A DUP6 DUP3 DUP6 PUSH2 0xF6F JUMP JUMPDEST PUSH2 0x785 DUP6 DUP6 DUP6 PUSH2 0x1001 JUMP JUMPDEST PUSH1 0x1 SWAP2 POP POP SWAP4 SWAP3 POP POP POP JUMP JUMPDEST PUSH0 PUSH1 0x12 SWAP1 POP SWAP1 JUMP JUMPDEST PUSH0 PUSH32 0x0 SWAP1 POP SWAP1 JUMP JUMPDEST PUSH0 PUSH32 0xFFFFFFFFFFFFFFFFFFFFFFFFFFFFFFFFFFFFFFFFFFFFFFFFFFFFFFFFFFFFFFFF SWAP1 POP SWAP2 SWAP1 POP JUMP JUMPDEST PUSH0 PUSH2 0x7F3 DUP3 PUSH2 0x6E7 JUMP JUMPDEST SWAP1 POP SWAP2 SWAP1 POP JUMP JUMPDEST PUSH0 PUSH2 0x804 DUP4 PUSH2 0xF45 JUMP JUMPDEST SWAP1 POP PUSH32 0x0 PUSH20 0xFFFFFFFFFFFFFFFFFFFFFFFFFFFFFFFFFFFFFFFF AND PUSH4 0x23B872DD CALLER ADDRESS DUP7 PUSH1 0x40 MLOAD DUP5 PUSH4 0xFFFFFFFF AND PUSH1 0xE0 SHL DUP2 MSTORE PUSH1 0x4 ADD PUSH2 0x863 SWAP4 SWAP3 SWAP2 SWAP1 PUSH2 0x1AC6 JUMP JUMPDEST PUSH1 0x20 PUSH1 0x40 MLOAD DUP1 DUP4 SUB DUP2 PUSH0 DUP8 GAS CALL ISZERO DUP1 ISZERO PUSH2 0x87F JUMPI RETURNDATASIZE PUSH0 DUP1 RETURNDATACOPY RETURNDATASIZE PUSH0 REVERT JUMPDEST POP POP POP POP PUSH1 0x40 MLOAD RETURNDATASIZE PUSH1 0x1F NOT PUSH1 0x1F DUP3 ADD AND DUP3 ADD DUP1 PUSH1 0x40 MSTORE POP DUP2 ADD SWAP1 PUSH2 0x8A3 SWAP2 SWAP1 PUSH2 0x1B25 JUMP JUMPDEST POP PUSH2 0x8AE DUP3 DUP3 PUSH2 0x10F1 JUMP JUMPDEST DUP2 PUSH20 0xFFFFFFFFFFFFFFFFFFFFFFFFFFFFFFFFFFFFFFFF AND CALLER PUSH20 0xFFFFFFFFFFFFFFFFFFFFFFFFFFFFFFFFFFFFFFFF AND PUSH32 0xDCBC1C05240F31FF3AD067EF1EE35CE4997762752E3A095284754544F4C709D7 DUP6 DUP5 PUSH1 0x40 MLOAD PUSH2 0x90D SWAP3 SWAP2 SWAP1 PUSH2 0x1B50 JUMP JUMPDEST PUSH1 0x40 MLOAD DUP1 SWAP2 SUB SWAP1 LOG3 SWAP3 SWAP2 POP POP JUMP JUMPDEST PUSH0 DUP1 PUSH0 DUP4 PUSH20 0xFFFFFFFFFFFFFFFFFFFFFFFFFFFFFFFFFFFFFFFF AND PUSH20 0xFFFFFFFFFFFFFFFFFFFFFFFFFFFFFFFFFFFFFFFF AND DUP2 MSTORE PUSH1 0x20 ADD SWAP1 DUP2 MSTORE PUSH1 0x20 ADD PUSH0 KECCAK256 SLOAD SWAP1 POP SWAP2 SWAP1 POP JUMP JUMPDEST PUSH0 PUSH2 0x96A DUP4 PUSH2 0xB33 JUMP JUMPDEST SWAP1 POP PUSH32 0x0 PUSH20 0xFFFFFFFFFFFFFFFFFFFFFFFFFFFFFFFFFFFFFFFF AND PUSH4 0x23B872DD CALLER ADDRESS DUP5 PUSH1 0x40 MLOAD DUP5 PUSH4 0xFFFFFFFF AND PUSH1 0xE0 SHL DUP2 MSTORE PUSH1 0x4 ADD PUSH2 0x9C9 SWAP4 SWAP3 SWAP2 SWAP1 PUSH2 0x1AC6 JUMP JUMPDEST PUSH1 0x20 PUSH1 0x40 MLOAD DUP1 DUP4 SUB DUP2 PUSH0 DUP8 GAS CALL ISZERO DUP1 ISZERO PUSH2 0x9E5 JUMPI RETURNDATASIZE PUSH0 DUP1 RETURNDATACOPY RETURNDATASIZE PUSH0 REVERT JUMPDEST POP POP POP POP PUSH1 0x40 MLOAD RETURNDATASIZE PUSH1 0x1F NOT PUSH1 0x1F DUP3 ADD AND DUP3 ADD DUP1 PUSH1 0x40 MSTORE POP DUP2 ADD SWAP1 PUSH2 0xA09 SWAP2 SWAP1 PUSH2 0x1B25 JUMP JUMPDEST POP PUSH2 0xA14 DUP3 DUP5 PUSH2 0x10F1 JUMP JUMPDEST DUP2 PUSH20 0xFFFFFFFFFFFFFFFFFFFFFFFFFFFFFFFFFFFFFFFF AND CALLER PUSH20 0xFFFFFFFFFFFFFFFFFFFFFFFFFFFFFFFFFFFFFFFF AND PUSH32 0xDCBC1C05240F31FF3AD067EF1EE35CE4997762752E3A095284754544F4C709D7 DUP4 DUP7 PUSH1 0x40 MLOAD PUSH2 0xA73 SWAP3 SWAP2 SWAP1 PUSH2 0x1B50 JUMP JUMPDEST PUSH1 0x40 MLOAD DUP1 SWAP2 SUB SWAP1 LOG3 SWAP3 SWAP2 POP POP JUMP JUMPDEST PUSH1 0x60 PUSH1 0x4 DUP1 SLOAD PUSH2 0xA90 SWAP1 PUSH2 0x19CB JUMP JUMPDEST DUP1 PUSH1 0x1F ADD PUSH1 0x20 DUP1 SWAP2 DIV MUL PUSH1 0x20 ADD PUSH1 0x40 MLOAD SWAP1 DUP2 ADD PUSH1 0x40 MSTORE DUP1 SWAP3 SWAP2 SWAP1 DUP2 DUP2 MSTORE PUSH1 0x20 ADD DUP3 DUP1 SLOAD PUSH2 0xABC SWAP1 PUSH2 0x19CB JUMP JUMPDEST DUP1 ISZERO PUSH2 0xB07 JUMPI DUP1 PUSH1 0x1F LT PUSH2 0xADE JUMPI PUSH2 0x100 DUP1 DUP4 SLOAD DIV MUL DUP4 MSTORE SWAP2 PUSH1 0x20 ADD SWAP2 PUSH2 0xB07 JUMP JUMPDEST DUP3 ADD SWAP2 SWAP1 PUSH0 MSTORE PUSH1 0x20 PUSH0 KECCAK256 SWAP1 JUMPDEST DUP2 SLOAD DUP2 MSTORE SWAP1 PUSH1 0x1 ADD SWAP1 PUSH1 0x20 ADD DUP1 DUP4 GT PUSH2 0xAEA JUMPI DUP3 SWAP1 SUB PUSH1 0x1F AND DUP3 ADD SWAP2 JUMPDEST POP POP POP POP POP SWAP1 POP SWAP1 JUMP JUMPDEST PUSH0 DUP1 PUSH2 0xB1B PUSH2 0xF56 JUMP JUMPDEST SWAP1 POP PUSH2 0xB28 DUP2 DUP6 DUP6 PUSH2 0x1001 JUMP JUMPDEST PUSH1 0x1 SWAP2 POP POP SWAP3 SWAP2 POP POP JUMP JUMPDEST PUSH0 PUSH2 0xB3D DUP3 PUSH2 0x6E7 JUMP JUMPDEST SWAP1 POP SWAP2 SWAP1 POP JUMP JUMPDEST PUSH0 PUSH2 0xB4E DUP5 PUSH2 0x749 JUMP JUMPDEST SWAP1 POP DUP2 PUSH20 0xFFFFFFFFFFFFFFFFFFFFFFFFFFFFFFFFFFFFFFFF AND CALLER PUSH20 0xFFFFFFFFFFFFFFFFFFFFFFFFFFFFFFFFFFFFFFFF AND EQ PUSH2 0xB8F JUMPI PUSH2 0xB8E DUP3 CALLER DUP4 PUSH2 0xF6F JUMP JUMPDEST JUMPDEST PUSH2 0xB99 DUP3 DUP3 PUSH2 0x1170 JUMP JUMPDEST PUSH32 0x0 PUSH20 0xFFFFFFFFFFFFFFFFFFFFFFFFFFFFFFFFFFFFFFFF AND PUSH4 0xA9059CBB DUP5 DUP7 PUSH1 0x40 MLOAD DUP4 PUSH4 0xFFFFFFFF AND PUSH1 0xE0 SHL DUP2 MSTORE PUSH1 0x4 ADD PUSH2 0xBF4 SWAP3 SWAP2 SWAP1 PUSH2 0x1B77 JUMP JUMPDEST PUSH1 0x20 PUSH1 0x40 MLOAD DUP1 DUP4 SUB DUP2 PUSH0 DUP8 GAS CALL ISZERO DUP1 ISZERO PUSH2 0xC10 JUMPI RETURNDATASIZE PUSH0 DUP1 RETURNDATACOPY RETURNDATASIZE PUSH0 REVERT JUMPDEST POP POP POP POP PUSH1 0x40 MLOAD RETURNDATASIZE PUSH1 0x1F NOT PUSH1 0x1F DUP3 ADD AND DUP3 ADD DUP1 PUSH1 0x40 MSTORE POP DUP2 ADD SWAP1 PUSH2 0xC34 SWAP2 SWAP1 PUSH2 0x1B25 JUMP JUMPDEST POP DUP2 PUSH20 0xFFFFFFFFFFFFFFFFFFFFFFFFFFFFFFFFFFFFFFFF AND DUP4 PUSH20 0xFFFFFFFFFFFFFFFFFFFFFFFFFFFFFFFFFFFFFFFF AND CALLER PUSH20 0xFFFFFFFFFFFFFFFFFFFFFFFFFFFFFFFFFFFFFFFF AND PUSH32 0xFBDE797D201C681B91056529119E0B02407C7BB96A4A2C75C01FC9667232C8DB DUP8 DUP6 PUSH1 0x40 MLOAD PUSH2 0xCAB SWAP3 SWAP2 SWAP1 PUSH2 0x1B50 JUMP JUMPDEST PUSH1 0x40 MLOAD DUP1 SWAP2 SUB SWAP1 LOG4 SWAP4 SWAP3 POP POP POP JUMP JUMPDEST PUSH0 PUSH2 0xCC4 DUP5 PUSH2 0x7E9 JUMP JUMPDEST SWAP1 POP DUP2 PUSH20 0xFFFFFFFFFFFFFFFFFFFFFFFFFFFFFFFFFFFFFFFF AND CALLER PUSH20 0xFFFFFFFFFFFFFFFFFFFFFFFFFFFFFFFFFFFFFFFF AND EQ PUSH2 0xD05 JUMPI PUSH2 0xD04 DUP3 CALLER DUP7 PUSH2 0xF6F JUMP JUMPDEST JUMPDEST PUSH2 0xD0F DUP3 DUP6 PUSH2 0x1170 JUMP JUMPDEST PUSH32 0x0 PUSH20 0xFFFFFFFFFFFFFFFFFFFFFFFFFFFFFFFFFFFFFFFF AND PUSH4 0xA9059CBB DUP5 DUP4 PUSH1 0x40 MLOAD DUP4 PUSH4 0xFFFFFFFF AND PUSH1 0xE0 SHL DUP2 MSTORE PUSH1 0x4 ADD PUSH2 0xD6A SWAP3 SWAP2 SWAP1 PUSH2 0x1B77 JUMP JUMPDEST PUSH1 0x20 PUSH1 0x40 MLOAD DUP1 DUP4 SUB DUP2 PUSH0 DUP8 GAS CALL ISZERO DUP1 ISZERO PUSH2 0xD86 JUMPI RETURNDATASIZE PUSH0 DUP1 RETURNDATACOPY RETURNDATASIZE PUSH0 REVERT JUMPDEST POP POP POP POP PUSH1 0x40 MLOAD RETURNDATASIZE PUSH1 0x1F NOT PUSH1 0x1F DUP3 ADD AND DUP3 ADD DUP1 PUSH1 0x40 MSTORE POP DUP2 ADD SWAP1 PUSH2 0xDAA SWAP2 SWAP1 PUSH2 0x1B25 JUMP JUMPDEST POP DUP2 PUSH20 0xFFFFFFFFFFFFFFFFFFFFFFFFFFFFFFFFFFFFFFFF AND DUP4 PUSH20 0xFFFFFFFFFFFFFFFFFFFFFFFFFFFFFFFFFFFFFFFF AND CALLER PUSH20 0xFFFFFFFFFFFFFFFFFFFFFFFFFFFFFFFFFFFFFFFF AND PUSH32 0xFBDE797D201C681B91056529119E0B02407C7BB96A4A2C75C01FC9667232C8DB DUP5 DUP9 PUSH1 0x40 MLOAD PUSH2 0xE21 SWAP3 SWAP2 SWAP1 PUSH2 0x1B50 JUMP JUMPDEST PUSH1 0x40 MLOAD DUP1 SWAP2 SUB SWAP1 LOG4 SWAP4 SWAP3 POP POP POP JUMP JUMPDEST PUSH0 PUSH32 0xFFFFFFFFFFFFFFFFFFFFFFFFFFFFFFFFFFFFFFFFFFFFFFFFFFFFFFFFFFFFFFFF SWAP1 POP SWAP2 SWAP1 POP JUMP JUMPDEST PUSH0 DUP1 PUSH2 0xE63 PUSH2 0x75A JUMP JUMPDEST SWAP1 POP PUSH0 DUP2 EQ PUSH2 0xE8F JUMPI PUSH2 0xE74 PUSH2 0x5B9 JUMP JUMPDEST DUP2 DUP5 PUSH2 0xE80 SWAP2 SWAP1 PUSH2 0x1A28 JUMP JUMPDEST PUSH2 0xE8A SWAP2 SWAP1 PUSH2 0x1A96 JUMP JUMPDEST PUSH2 0xE91 JUMP JUMPDEST DUP3 JUMPDEST SWAP2 POP POP SWAP2 SWAP1 POP JUMP JUMPDEST PUSH0 PUSH2 0xEAB PUSH2 0xEA6 DUP4 PUSH2 0x91B JUMP JUMPDEST PUSH2 0x6E7 JUMP JUMPDEST SWAP1 POP SWAP2 SWAP1 POP JUMP JUMPDEST PUSH0 PUSH2 0xEBC DUP3 PUSH2 0x91B JUMP JUMPDEST SWAP1 POP SWAP2 SWAP1 POP JUMP JUMPDEST PUSH0 PUSH1 0x1 PUSH0 DUP5 PUSH20 0xFFFFFFFFFFFFFFFFFFFFFFFFFFFFFFFFFFFFFFFF AND PUSH20 0xFFFFFFFFFFFFFFFFFFFFFFFFFFFFFFFFFFFFFFFF AND DUP2 MSTORE PUSH1 0x20 ADD SWAP1 DUP2 MSTORE PUSH1 0x20 ADD PUSH0 KECCAK256 PUSH0 DUP4 PUSH20 0xFFFFFFFFFFFFFFFFFFFFFFFFFFFFFFFFFFFFFFFF AND PUSH20 0xFFFFFFFFFFFFFFFFFFFFFFFFFFFFFFFFFFFFFFFF AND DUP2 MSTORE PUSH1 0x20 ADD SWAP1 DUP2 MSTORE PUSH1 0x20 ADD PUSH0 KECCAK256 SLOAD SWAP1 POP SWAP3 SWAP2 POP POP JUMP JUMPDEST PUSH0 PUSH2 0xF4F DUP3 PUSH2 0xE59 JUMP JUMPDEST SWAP1 POP SWAP2 SWAP1 POP JUMP JUMPDEST PUSH0 CALLER SWAP1 POP SWAP1 JUMP JUMPDEST PUSH2 0xF6A DUP4 DUP4 DUP4 PUSH1 0x1 PUSH2 0x11EF JUMP JUMPDEST POP POP POP JUMP JUMPDEST PUSH0 PUSH2 0xF7A DUP5 DUP5 PUSH2 0xEC3 JUMP JUMPDEST SWAP1 POP PUSH32 0xFFFFFFFFFFFFFFFFFFFFFFFFFFFFFFFFFFFFFFFFFFFFFFFFFFFFFFFFFFFFFFFF DUP2 EQ PUSH2 0xFFB JUMPI DUP2 DUP2 LT ISZERO PUSH2 0xFEC JUMPI DUP3 DUP2 DUP4 PUSH1 0x40 MLOAD PUSH32 0xFB8F41B200000000000000000000000000000000000000000000000000000000 DUP2 MSTORE PUSH1 0x4 ADD PUSH2 0xFE3 SWAP4 SWAP3 SWAP2 SWAP1 PUSH2 0x1B9E JUMP JUMPDEST PUSH1 0x40 MLOAD DUP1 SWAP2 SUB SWAP1 REVERT JUMPDEST PUSH2 0xFFA DUP5 DUP5 DUP5 DUP5 SUB PUSH0 PUSH2 0x11EF JUMP JUMPDEST JUMPDEST POP POP POP POP JUMP JUMPDEST PUSH0 PUSH20 0xFFFFFFFFFFFFFFFFFFFFFFFFFFFFFFFFFFFFFFFF AND DUP4 PUSH20 0xFFFFFFFFFFFFFFFFFFFFFFFFFFFFFFFFFFFFFFFF AND SUB PUSH2 0x1071 JUMPI PUSH0 PUSH1 0x40 MLOAD PUSH32 0x96C6FD1E00000000000000000000000000000000000000000000000000000000 DUP2 MSTORE PUSH1 0x4 ADD PUSH2 0x1068 SWAP2 SWAP1 PUSH2 0x184F JUMP JUMPDEST PUSH1 0x40 MLOAD DUP1 SWAP2 SUB SWAP1 REVERT JUMPDEST PUSH0 PUSH20 0xFFFFFFFFFFFFFFFFFFFFFFFFFFFFFFFFFFFFFFFF AND DUP3 PUSH20 0xFFFFFFFFFFFFFFFFFFFFFFFFFFFFFFFFFFFFFFFF AND SUB PUSH2 0x10E1 JUMPI PUSH0 PUSH1 0x40 MLOAD PUSH32 0xEC442F0500000000000000000000000000000000000000000000000000000000 DUP2 MSTORE PUSH1 0x4 ADD PUSH2 0x10D8 SWAP2 SWAP1 PUSH2 0x184F JUMP JUMPDEST PUSH1 0x40 MLOAD DUP1 SWAP2 SUB SWAP1 REVERT JUMPDEST PUSH2 0x10EC DUP4 DUP4 DUP4 PUSH2 0x13BE JUMP JUMPDEST POP POP POP JUMP JUMPDEST PUSH0 PUSH20 0xFFFFFFFFFFFFFFFFFFFFFFFFFFFFFFFFFFFFFFFF AND DUP3 PUSH20 0xFFFFFFFFFFFFFFFFFFFFFFFFFFFFFFFFFFFFFFFF AND SUB PUSH2 0x1161 JUMPI PUSH0 PUSH1 0x40 MLOAD PUSH32 0xEC442F0500000000000000000000000000000000000000000000000000000000 DUP2 MSTORE PUSH1 0x4 ADD PUSH2 0x1158 SWAP2 SWAP1 PUSH2 0x184F JUMP JUMPDEST PUSH1 0x40 MLOAD DUP1 SWAP2 SUB SWAP1 REVERT JUMPDEST PUSH2 0x116C PUSH0 DUP4 DUP4 PUSH2 0x13BE JUMP JUMPDEST POP POP JUMP JUMPDEST PUSH0 PUSH20 0xFFFFFFFFFFFFFFFFFFFFFFFFFFFFFFFFFFFFFFFF AND DUP3 PUSH20 0xFFFFFFFFFFFFFFFFFFFFFFFFFFFFFFFFFFFFFFFF AND SUB PUSH2 0x11E0 JUMPI PUSH0 PUSH1 0x40 MLOAD PUSH32 0x96C6FD1E00000000000000000000000000000000000000000000000000000000 DUP2 MSTORE PUSH1 0x4 ADD PUSH2 0x11D7 SWAP2 SWAP1 PUSH2 0x184F JUMP JUMPDEST PUSH1 0x40 MLOAD DUP1 SWAP2 SUB SWAP1 REVERT JUMPDEST PUSH2 0x11EB DUP3 PUSH0 DUP4 PUSH2 0x13BE JUMP JUMPDEST POP POP JUMP JUMPDEST PUSH0 PUSH20 0xFFFFFFFFFFFFFFFFFFFFFFFFFFFFFFFFFFFFFFFF AND DUP5 PUSH20 0xFFFFFFFFFFFFFFFFFFFFFFFFFFFFFFFFFFFFFFFF AND SUB PUSH2 0x125F JUMPI PUSH0 PUSH1 0x40 MLOAD PUSH32 0xE602DF0500000000000000000000000000000000000000000000000000000000 DUP2 MSTORE PUSH1 0x4 ADD PUSH2 0x1256 SWAP2 SWAP1 PUSH2 0x184F JUMP JUMPDEST PUSH1 0x40 MLOAD DUP1 SWAP2 SUB SWAP1 REVERT JUMPDEST PUSH0 PUSH20 0xFFFFFFFFFFFFFFFFFFFFFFFFFFFFFFFFFFFFFFFF AND DUP4 PUSH20 0xFFFFFFFFFFFFFFFFFFFFFFFFFFFFFFFFFFFFFFFF AND SUB PUSH2 0x12CF JUMPI PUSH0 PUSH1 0x40 MLOAD PUSH32 0x94280D6200000000000000000000000000000000000000000000000000000000 DUP2 MSTORE PUSH1 0x4 ADD PUSH2 0x12C6 SWAP2 SWAP1 PUSH2 0x184F JUMP JUMPDEST PUSH1 0x40 MLOAD DUP1 SWAP2 SUB SWAP1 REVERT JUMPDEST DUP2 PUSH1 0x1 PUSH0 DUP7 PUSH20 0xFFFFFFFFFFFFFFFFFFFFFFFFFFFFFFFFFFFFFFFF AND PUSH20 0xFFFFFFFFFFFFFFFFFFFFFFFFFFFFFFFFFFFFFFFF AND DUP2 MSTORE PUSH1 0x20 ADD SWAP1 DUP2 MSTORE PUSH1 0x20 ADD PUSH0 KECCAK256 PUSH0 DUP6 PUSH20 0xFFFFFFFFFFFFFFFFFFFFFFFFFFFFFFFFFFFFFFFF AND PUSH20 0xFFFFFFFFFFFFFFFFFFFFFFFFFFFFFFFFFFFFFFFF AND DUP2 MSTORE PUSH1 0x20 ADD SWAP1 DUP2 MSTORE PUSH1 0x20 ADD PUSH0 KECCAK256 DUP2 SWAP1 SSTORE POP DUP1 ISZERO PUSH2 0x13B8 JUMPI DUP3 PUSH20 0xFFFFFFFFFFFFFFFFFFFFFFFFFFFFFFFFFFFFFFFF AND DUP5 PUSH20 0xFFFFFFFFFFFFFFFFFFFFFFFFFFFFFFFFFFFFFFFF AND PUSH32 0x8C5BE1E5EBEC7D5BD14F71427D1E84F3DD0314C0F7B2291E5B200AC8C7C3B925 DUP5 PUSH1 0x40 MLOAD PUSH2 0x13AF SWAP2 SWAP1 PUSH2 0x15EF JUMP JUMPDEST PUSH1 0x40 MLOAD DUP1 SWAP2 SUB SWAP1 LOG3 JUMPDEST POP POP POP POP JUMP JUMPDEST PUSH0 PUSH20 0xFFFFFFFFFFFFFFFFFFFFFFFFFFFFFFFFFFFFFFFF AND DUP4 PUSH20 0xFFFFFFFFFFFFFFFFFFFFFFFFFFFFFFFFFFFFFFFF AND SUB PUSH2 0x140E JUMPI DUP1 PUSH1 0x2 PUSH0 DUP3 DUP3 SLOAD PUSH2 0x1402 SWAP2 SWAP1 PUSH2 0x1BD3 JUMP JUMPDEST SWAP3 POP POP DUP2 SWAP1 SSTORE POP PUSH2 0x14DC JUMP JUMPDEST PUSH0 DUP1 PUSH0 DUP6 PUSH20 0xFFFFFFFFFFFFFFFFFFFFFFFFFFFFFFFFFFFFFFFF AND PUSH20 0xFFFFFFFFFFFFFFFFFFFFFFFFFFFFFFFFFFFFFFFF AND DUP2 MSTORE PUSH1 0x20 ADD SWAP1 DUP2 MSTORE PUSH1 0x20 ADD PUSH0 KECCAK256 SLOAD SWAP1 POP DUP2 DUP2 LT ISZERO PUSH2 0x1497 JUMPI DUP4 DUP2 DUP4 PUSH1 0x40 MLOAD PUSH32 0xE450D38C00000000000000000000000000000000000000000000000000000000 DUP2 MSTORE PUSH1 0x4 ADD PUSH2 0x148E SWAP4 SWAP3 SWAP2 SWAP1 PUSH2 0x1B9E JUMP JUMPDEST PUSH1 0x40 MLOAD DUP1 SWAP2 SUB SWAP1 REVERT JUMPDEST DUP2 DUP2 SUB PUSH0 DUP1 DUP7 PUSH20 0xFFFFFFFFFFFFFFFFFFFFFFFFFFFFFFFFFFFFFFFF AND PUSH20 0xFFFFFFFFFFFFFFFFFFFFFFFFFFFFFFFFFFFFFFFF AND DUP2 MSTORE PUSH1 0x20 ADD SWAP1 DUP2 MSTORE PUSH1 0x20 ADD PUSH0 KECCAK256 DUP2 SWAP1 SSTORE POP POP JUMPDEST PUSH0 PUSH20 0xFFFFFFFFFFFFFFFFFFFFFFFFFFFFFFFFFFFFFFFF AND DUP3 PUSH20 0xFFFFFFFFFFFFFFFFFFFFFFFFFFFFFFFFFFFFFFFF AND SUB PUSH2 0x1523 JUMPI DUP1 PUSH1 0x2 PUSH0 DUP3 DUP3 SLOAD SUB SWAP3 POP POP DUP2 SWAP1 SSTORE POP PUSH2 0x156D JUMP JUMPDEST DUP1 PUSH0 DUP1 DUP5 PUSH20 0xFFFFFFFFFFFFFFFFFFFFFFFFFFFFFFFFFFFFFFFF AND PUSH20 0xFFFFFFFFFFFFFFFFFFFFFFFFFFFFFFFFFFFFFFFF AND DUP2 MSTORE PUSH1 0x20 ADD SWAP1 DUP2 MSTORE PUSH1 0x20 ADD PUSH0 KECCAK256 PUSH0 DUP3 DUP3 SLOAD ADD SWAP3 POP POP DUP2 SWAP1 SSTORE POP JUMPDEST DUP2 PUSH20 0xFFFFFFFFFFFFFFFFFFFFFFFFFFFFFFFFFFFFFFFF AND DUP4 PUSH20 0xFFFFFFFFFFFFFFFFFFFFFFFFFFFFFFFFFFFFFFFF AND PUSH32 0xDDF252AD1BE2C89B69C2B068FC378DAA952BA7F163C4A11628F55A4DF523B3EF DUP4 PUSH1 0x40 MLOAD PUSH2 0x15CA SWAP2 SWAP1 PUSH2 0x15EF JUMP JUMPDEST PUSH1 0x40 MLOAD DUP1 SWAP2 SUB SWAP1 LOG3 POP POP POP JUMP JUMPDEST PUSH0 DUP2 SWAP1 POP SWAP2 SWAP1 POP JUMP JUMPDEST PUSH2 0x15E9 DUP2 PUSH2 0x15D7 JUMP JUMPDEST DUP3 MSTORE POP POP JUMP JUMPDEST PUSH0 PUSH1 0x20 DUP3 ADD SWAP1 POP PUSH2 0x1602 PUSH0 DUP4 ADD DUP5 PUSH2 0x15E0 JUMP JUMPDEST SWAP3 SWAP2 POP POP JUMP JUMPDEST PUSH0 DUP2 MLOAD SWAP1 POP SWAP2 SWAP1 POP JUMP JUMPDEST PUSH0 DUP3 DUP3 MSTORE PUSH1 0x20 DUP3 ADD SWAP1 POP SWAP3 SWAP2 POP POP JUMP JUMPDEST DUP3 DUP2 DUP4 MCOPY PUSH0 DUP4 DUP4 ADD MSTORE POP POP POP JUMP JUMPDEST PUSH0 PUSH1 0x1F NOT PUSH1 0x1F DUP4 ADD AND SWAP1 POP SWAP2 SWAP1 POP JUMP JUMPDEST PUSH0 PUSH2 0x164A DUP3 PUSH2 0x1608 JUMP JUMPDEST PUSH2 0x1654 DUP2 DUP6 PUSH2 0x1612 JUMP JUMPDEST SWAP4 POP PUSH2 0x1664 DUP2 DUP6 PUSH1 0x20 DUP7 ADD PUSH2 0x1622 JUMP JUMPDEST PUSH2 0x166D DUP2 PUSH2 0x1630 JUMP JUMPDEST DUP5 ADD SWAP2 POP POP SWAP3 SWAP2 POP POP JUMP JUMPDEST PUSH0 PUSH1 0x20 DUP3 ADD SWAP1 POP DUP2 DUP2 SUB PUSH0 DUP4 ADD MSTORE PUSH2 0x1690 DUP2 DUP5 PUSH2 0x1640 JUMP JUMPDEST SWAP1 POP SWAP3 SWAP2 POP POP JUMP JUMPDEST PUSH0 DUP1 REVERT JUMPDEST PUSH2 0x16A5 DUP2 PUSH2 0x15D7 JUMP JUMPDEST DUP2 EQ PUSH2 0x16AF JUMPI PUSH0 DUP1 REVERT JUMPDEST POP JUMP JUMPDEST PUSH0 DUP2 CALLDATALOAD SWAP1 POP PUSH2 0x16C0 DUP2 PUSH2 0x169C JUMP JUMPDEST SWAP3 SWAP2 POP POP JUMP JUMPDEST PUSH0 PUSH1 0x20 DUP3 DUP5 SUB SLT ISZERO PUSH2 0x16DB JUMPI PUSH2 0x16DA PUSH2 0x1698 JUMP JUMPDEST JUMPDEST PUSH0 PUSH2 0x16E8 DUP5 DUP3 DUP6 ADD PUSH2 0x16B2 JUMP JUMPDEST SWAP2 POP POP SWAP3 SWAP2 POP POP JUMP JUMPDEST PUSH0 PUSH20 0xFFFFFFFFFFFFFFFFFFFFFFFFFFFFFFFFFFFFFFFF DUP3 AND SWAP1 POP SWAP2 SWAP1 POP JUMP JUMPDEST PUSH0 PUSH2 0x171A DUP3 PUSH2 0x16F1 JUMP JUMPDEST SWAP1 POP SWAP2 SWAP1 POP JUMP JUMPDEST PUSH2 0x172A DUP2 PUSH2 0x1710 JUMP JUMPDEST DUP2 EQ PUSH2 0x1734 JUMPI PUSH0 DUP1 REVERT JUMPDEST POP JUMP JUMPDEST PUSH0 DUP2 CALLDATALOAD SWAP1 POP PUSH2 0x1745 DUP2 PUSH2 0x1721 JUMP JUMPDEST SWAP3 SWAP2 POP POP JUMP JUMPDEST PUSH0 DUP1 PUSH1 0x40 DUP4 DUP6 SUB SLT ISZERO PUSH2 0x1761 JUMPI PUSH2 0x1760 PUSH2 0x1698 JUMP JUMPDEST JUMPDEST PUSH0 PUSH2 0x176E DUP6 DUP3 DUP7 ADD PUSH2 0x1737 JUMP JUMPDEST SWAP3 POP POP PUSH1 0x20 PUSH2 0x177F DUP6 DUP3 DUP7 ADD PUSH2 0x16B2 JUMP JUMPDEST SWAP2 POP POP SWAP3 POP SWAP3 SWAP1 POP JUMP JUMPDEST PUSH0 DUP2 ISZERO ISZERO SWAP1 POP SWAP2 SWAP1 POP JUMP JUMPDEST PUSH2 0x179D DUP2 PUSH2 0x1789 JUMP JUMPDEST DUP3 MSTORE POP POP JUMP JUMPDEST PUSH0 PUSH1 0x20 DUP3 ADD SWAP1 POP PUSH2 0x17B6 PUSH0 DUP4 ADD DUP5 PUSH2 0x1794 JUMP JUMPDEST SWAP3 SWAP2 POP POP JUMP JUMPDEST PUSH0 DUP1 PUSH0 PUSH1 0x60 DUP5 DUP7 SUB SLT ISZERO PUSH2 0x17D3 JUMPI PUSH2 0x17D2 PUSH2 0x1698 JUMP JUMPDEST JUMPDEST PUSH0 PUSH2 0x17E0 DUP7 DUP3 DUP8 ADD PUSH2 0x1737 JUMP JUMPDEST SWAP4 POP POP PUSH1 0x20 PUSH2 0x17F1 DUP7 DUP3 DUP8 ADD PUSH2 0x1737 JUMP JUMPDEST SWAP3 POP POP PUSH1 0x40 PUSH2 0x1802 DUP7 DUP3 DUP8 ADD PUSH2 0x16B2 JUMP JUMPDEST SWAP2 POP POP SWAP3 POP SWAP3 POP SWAP3 JUMP JUMPDEST PUSH0 PUSH1 0xFF DUP3 AND SWAP1 POP SWAP2 SWAP1 POP JUMP JUMPDEST PUSH2 0x1821 DUP2 PUSH2 0x180C JUMP JUMPDEST DUP3 MSTORE POP POP JUMP JUMPDEST PUSH0 PUSH1 0x20 DUP3 ADD SWAP1 POP PUSH2 0x183A PUSH0 DUP4 ADD DUP5 PUSH2 0x1818 JUMP JUMPDEST SWAP3 SWAP2 POP POP JUMP JUMPDEST PUSH2 0x1849 DUP2 PUSH2 0x1710 JUMP JUMPDEST DUP3 MSTORE POP POP JUMP JUMPDEST PUSH0 PUSH1 0x20 DUP3 ADD SWAP1 POP PUSH2 0x1862 PUSH0 DUP4 ADD DUP5 PUSH2 0x1840 JUMP JUMPDEST SWAP3 SWAP2 POP POP JUMP JUMPDEST PUSH0 PUSH1 0x20 DUP3 DUP5 SUB SLT ISZERO PUSH2 0x187D JUMPI PUSH2 0x187C PUSH2 0x1698 JUMP JUMPDEST JUMPDEST PUSH0 PUSH2 0x188A DUP5 DUP3 DUP6 ADD PUSH2 0x1737 JUMP JUMPDEST SWAP2 POP POP SWAP3 SWAP2 POP POP JUMP JUMPDEST PUSH0 DUP1 PUSH1 0x40 DUP4 DUP6 SUB SLT ISZERO PUSH2 0x18A9 JUMPI PUSH2 0x18A8 PUSH2 0x1698 JUMP JUMPDEST JUMPDEST PUSH0 PUSH2 0x18B6 DUP6 DUP3 DUP7 ADD PUSH2 0x16B2 JUMP JUMPDEST SWAP3 POP POP PUSH1 0x20 PUSH2 0x18C7 DUP6 DUP3 DUP7 ADD PUSH2 0x1737 JUMP JUMPDEST SWAP2 POP POP SWAP3 POP SWAP3 SWAP1 POP JUMP JUMPDEST PUSH0 DUP1 PUSH0 PUSH1 0x60 DUP5 DUP7 SUB SLT ISZERO PUSH2 0x18E8 JUMPI PUSH2 0x18E7 PUSH2 0x1698 JUMP JUMPDEST JUMPDEST PUSH0 PUSH2 0x18F5 DUP7 DUP3 DUP8 ADD PUSH2 0x16B2 JUMP JUMPDEST SWAP4 POP POP PUSH1 0x20 PUSH2 0x1906 DUP7 DUP3 DUP8 ADD PUSH2 0x1737 JUMP JUMPDEST SWAP3 POP POP PUSH1 0x40 PUSH2 0x1917 DUP7 DUP3 DUP8 ADD PUSH2 0x1737 JUMP JUMPDEST SWAP2 POP POP SWAP3 POP SWAP3 POP SWAP3 JUMP JUMPDEST PUSH0 DUP1 PUSH1 0x40 DUP4 DUP6 SUB SLT ISZERO PUSH2 0x1937 JUMPI PUSH2 0x1936 PUSH2 0x1698 JUMP JUMPDEST JUMPDEST PUSH0 PUSH2 0x1944 DUP6 DUP3 DUP7 ADD PUSH2 0x1737 JUMP JUMPDEST SWAP3 POP POP PUSH1 0x20 PUSH2 0x1955 DUP6 DUP3 DUP7 ADD PUSH2 0x1737 JUMP JUMPDEST SWAP2 POP POP SWAP3 POP SWAP3 SWAP1 POP JUMP JUMPDEST PUSH0 DUP2 MLOAD SWAP1 POP PUSH2 0x196D DUP2 PUSH2 0x169C JUMP JUMPDEST SWAP3 SWAP2 POP POP JUMP JUMPDEST PUSH0 PUSH1 0x20 DUP3 DUP5 SUB SLT ISZERO PUSH2 0x1988 JUMPI PUSH2 0x1987 PUSH2 0x1698 JUMP JUMPDEST JUMPDEST PUSH0 PUSH2 0x1995 DUP5 DUP3 DUP6 ADD PUSH2 0x195F JUMP JUMPDEST SWAP2 POP POP SWAP3 SWAP2 POP POP JUMP JUMPDEST PUSH32 0x4E487B7100000000000000000000000000000000000000000000000000000000 PUSH0 MSTORE PUSH1 0x22 PUSH1 0x4 MSTORE PUSH1 0x24 PUSH0 REVERT JUMPDEST PUSH0 PUSH1 0x2 DUP3 DIV SWAP1 POP PUSH1 0x1 DUP3 AND DUP1 PUSH2 0x19E2 JUMPI PUSH1 0x7F DUP3 AND SWAP2 POP JUMPDEST PUSH1 0x20 DUP3 LT DUP2 SUB PUSH2 0x19F5 JUMPI PUSH2 0x19F4 PUSH2 0x199E JUMP JUMPDEST JUMPDEST POP SWAP2 SWAP1 POP JUMP JUMPDEST PUSH32 0x4E487B7100000000000000000000000000000000000000000000000000000000 PUSH0 MSTORE PUSH1 0x11 PUSH1 0x4 MSTORE PUSH1 0x24 PUSH0 REVERT JUMPDEST PUSH0 PUSH2 0x1A32 DUP3 PUSH2 0x15D7 JUMP JUMPDEST SWAP2 POP PUSH2 0x1A3D DUP4 PUSH2 0x15D7 JUMP JUMPDEST SWAP3 POP DUP3 DUP3 MUL PUSH2 0x1A4B DUP2 PUSH2 0x15D7 JUMP JUMPDEST SWAP2 POP DUP3 DUP3 DIV DUP5 EQ DUP4 ISZERO OR PUSH2 0x1A62 JUMPI PUSH2 0x1A61 PUSH2 0x19FB JUMP JUMPDEST JUMPDEST POP SWAP3 SWAP2 POP POP JUMP JUMPDEST PUSH32 0x4E487B7100000000000000000000000000000000000000000000000000000000 PUSH0 MSTORE PUSH1 0x12 PUSH1 0x4 MSTORE PUSH1 0x24 PUSH0 REVERT JUMPDEST PUSH0 PUSH2 0x1AA0 DUP3 PUSH2 0x15D7 JUMP JUMPDEST SWAP2 POP PUSH2 0x1AAB DUP4 PUSH2 0x15D7 JUMP JUMPDEST SWAP3 POP DUP3 PUSH2 0x1ABB JUMPI PUSH2 0x1ABA PUSH2 0x1A69 JUMP JUMPDEST JUMPDEST DUP3 DUP3 DIV SWAP1 POP SWAP3 SWAP2 POP POP JUMP JUMPDEST PUSH0 PUSH1 0x60 DUP3 ADD SWAP1 POP PUSH2 0x1AD9 PUSH0 DUP4 ADD DUP7 PUSH2 0x1840 JUMP JUMPDEST PUSH2 0x1AE6 PUSH1 0x20 DUP4 ADD DUP6 PUSH2 0x1840 JUMP JUMPDEST PUSH2 0x1AF3 PUSH1 0x40 DUP4 ADD DUP5 PUSH2 0x15E0 JUMP JUMPDEST SWAP5 SWAP4 POP POP POP POP JUMP JUMPDEST PUSH2 0x1B04 DUP2 PUSH2 0x1789 JUMP JUMPDEST DUP2 EQ PUSH2 0x1B0E JUMPI PUSH0 DUP1 REVERT JUMPDEST POP JUMP JUMPDEST PUSH0 DUP2 MLOAD SWAP1 POP PUSH2 0x1B1F DUP2 PUSH2 0x1AFB JUMP JUMPDEST SWAP3 SWAP2 POP POP JUMP JUMPDEST PUSH0 PUSH1 0x20 DUP3 DUP5 SUB SLT ISZERO PUSH2 0x1B3A JUMPI PUSH2 0x1B39 PUSH2 0x1698 JUMP JUMPDEST JUMPDEST PUSH0 PUSH2 0x1B47 DUP5 DUP3 DUP6 ADD PUSH2 0x1B11 JUMP JUMPDEST SWAP2 POP POP SWAP3 SWAP2 POP POP JUMP JUMPDEST PUSH0 PUSH1 0x40 DUP3 ADD SWAP1 POP PUSH2 0x1B63 PUSH0 DUP4 ADD DUP6 PUSH2 0x15E0 JUMP JUMPDEST PUSH2 0x1B70 PUSH1 0x20 DUP4 ADD DUP5 PUSH2 0x15E0 JUMP JUMPDEST SWAP4 SWAP3 POP POP POP JUMP JUMPDEST PUSH0 PUSH1 0x40 DUP3 ADD SWAP1 POP PUSH2 0x1B8A PUSH0 DUP4 ADD DUP6 PUSH2 0x1840 JUMP JUMPDEST PUSH2 0x1B97 PUSH1 0x20 DUP4 ADD DUP5 PUSH2 0x15E0 JUMP JUMPDEST SWAP4 SWAP3 POP POP POP JUMP JUMPDEST PUSH0 PUSH1 0x60 DUP3 ADD SWAP1 POP PUSH2 0x1BB1 PUSH0 DUP4 ADD DUP7 PUSH2 0x1840 JUMP JUMPDEST PUSH2 0x1BBE PUSH1 0x20 DUP4 ADD DUP6 PUSH2 0x15E0 JUMP JUMPDEST PUSH2 0x1BCB PUSH1 0x40 DUP4 ADD DUP5 PUSH2 0x15E0 JUMP JUMPDEST SWAP5 SWAP4 POP POP POP POP JUMP JUMPDEST PUSH0 PUSH2 0x1BDD DUP3 PUSH2 0x15D7 JUMP JUMPDEST SWAP2 POP PUSH2 0x1BE8 DUP4 PUSH2 0x15D7 JUMP JUMPDEST SWAP3 POP DUP3 DUP3 ADD SWAP1 POP DUP1 DUP3 GT ISZERO PUSH2 0x1C00 JUMPI PUSH2 0x1BFF PUSH2 0x19FB JUMP JUMPDEST JUMPDEST SWAP3 SWAP2 POP POP JUMP INVALID LOG2 PUSH5 0x6970667358 0x22 SLT KECCAK256 PUSH16 0xB021CE22641704CD51ECEB87E2285A80 DUP15 0xF DIV 0xBF PUSH2 0xEE47 LT SWAP14 SHR 0xB9 CODESIZE SELFDESTRUCT DUP6 0xC3 PUSH5 0x736F6C6343 STOP ADDMOD BYTE STOP CALLER "
				},
				"gasEstimates": {
					"creation": {
						"codeDepositCost": "1445600",
						"executionCost": "infinite",
						"totalCost": "infinite"
					},
					"external": {
						"allowance(address,address)": "infinite",
						"approve(address,uint256)": "infinite",
						"asset()": "infinite",
						"balanceOf(address)": "2852",
						"convertToAssets(uint256)": "infinite",
						"convertToShares(uint256)": "infinite",
						"decimals()": "383",
						"deposit(uint256,address)": "infinite",
						"maxDeposit(address)": "730",
						"maxMint(address)": "708",
						"maxRedeem(address)": "2937",
						"maxWithdraw(address)": "infinite",
						"mint(uint256,address)": "infinite",
						"name()": "infinite",
						"previewDeposit(uint256)": "infinite",
						"previewMint(uint256)": "infinite",
						"previewRedeem(uint256)": "infinite",
						"previewWithdraw(uint256)": "infinite",
						"redeem(uint256,address,address)": "infinite",
						"symbol()": "infinite",
						"totalAssets()": "infinite",
						"totalSupply()": "2566",
						"transfer(address,uint256)": "infinite",
						"transferFrom(address,address,uint256)": "infinite",
						"withdraw(uint256,address,address)": "infinite"
					}
				},
				"methodIdentifiers": {
					"allowance(address,address)": "dd62ed3e",
					"approve(address,uint256)": "095ea7b3",
					"asset()": "38d52e0f",
					"balanceOf(address)": "70a08231",
					"convertToAssets(uint256)": "07a2d13a",
					"convertToShares(uint256)": "c6e6f592",
					"decimals()": "313ce567",
					"deposit(uint256,address)": "6e553f65",
					"maxDeposit(address)": "402d267d",
					"maxMint(address)": "c63d75b6",
					"maxRedeem(address)": "d905777e",
					"maxWithdraw(address)": "ce96cb77",
					"mint(uint256,address)": "94bf804d",
					"name()": "06fdde03",
					"previewDeposit(uint256)": "ef8b30f7",
					"previewMint(uint256)": "b3d7f6b9",
					"previewRedeem(uint256)": "4cdad506",
					"previewWithdraw(uint256)": "0a28a477",
					"redeem(uint256,address,address)": "ba087652",
					"symbol()": "95d89b41",
					"totalAssets()": "01e1d114",
					"totalSupply()": "18160ddd",
					"transfer(address,uint256)": "a9059cbb",
					"transferFrom(address,address,uint256)": "23b872dd",
					"withdraw(uint256,address,address)": "b460af94"
				}
			},
			"storageLayout": {
				"storage": [
					{
						"astId": 329,
						"contract": "contracts/vault/vault02.sol:ERC4626",
						"label": "_balances",
						"offset": 0,
						"slot": "0",
						"type": "t_mapping(t_address,t_uint256)"
					},
					{
						"astId": 335,
						"contract": "contracts/vault/vault02.sol:ERC4626",
						"label": "_allowances",
						"offset": 0,
						"slot": "1",
						"type": "t_mapping(t_address,t_mapping(t_address,t_uint256))"
					},
					{
						"astId": 337,
						"contract": "contracts/vault/vault02.sol:ERC4626",
						"label": "_totalSupply",
						"offset": 0,
						"slot": "2",
						"type": "t_uint256"
					},
					{
						"astId": 339,
						"contract": "contracts/vault/vault02.sol:ERC4626",
						"label": "_name",
						"offset": 0,
						"slot": "3",
						"type": "t_string_storage"
					},
					{
						"astId": 341,
						"contract": "contracts/vault/vault02.sol:ERC4626",
						"label": "_symbol",
						"offset": 0,
						"slot": "4",
						"type": "t_string_storage"
					}
				],
				"types": {
					"t_address": {
						"encoding": "inplace",
						"label": "address",
						"numberOfBytes": "20"
					},
					"t_mapping(t_address,t_mapping(t_address,t_uint256))": {
						"encoding": "mapping",
						"key": "t_address",
						"label": "mapping(address => mapping(address => uint256))",
						"numberOfBytes": "32",
						"value": "t_mapping(t_address,t_uint256)"
					},
					"t_mapping(t_address,t_uint256)": {
						"encoding": "mapping",
						"key": "t_address",
						"label": "mapping(address => uint256)",
						"numberOfBytes": "32",
						"value": "t_uint256"
					},
					"t_string_storage": {
						"encoding": "bytes",
						"label": "string",
						"numberOfBytes": "32"
					},
					"t_uint256": {
						"encoding": "inplace",
						"label": "uint256",
						"numberOfBytes": "32"
					}
				}
			},
			"userdoc": {
				"kind": "user",
				"methods": {},
				"version": 1
			}
		}
	}
}