{
	"data": {
		"bytecode": {
			"linkReferences": {},
			"object": "610180604052348015610010575f5ffd5b506040516174b33803806174b383398181016040528101906100329190610966565b6004816040518060400160405280600a81526020017f4d79476f7665726e6f72000000000000000000000000000000000000000000008152508061007a61018060201b60201c565b61008d5f836101bd60201b90919060201c565b61012081815250506100a96001826101bd60201b90919060201c565b6101408181525050818051906020012060e08181525050808051906020012061010081815250504660a081815250506100e661020a60201b60201c565b608081815250503073ffffffffffffffffffffffffffffffffffffffff1660c08173ffffffffffffffffffffffffffffffffffffffff1681525050505080600390816101329190610bce565b50508073ffffffffffffffffffffffffffffffffffffffff166101608173ffffffffffffffffffffffffffffffffffffffff1681525050506101798161026460201b60201c565b5050610ff6565b60606040518060400160405280600181526020017f3100000000000000000000000000000000000000000000000000000000000000815250905090565b5f6020835110156101de576101d78361033e60201b60201c565b9050610204565b826101ee836103a360201b60201c565b5f0190816101fc9190610bce565b5060ff5f1b90505b92915050565b5f7f8b73c3c69bb8fe3d512ecc4cf759cc79239f7b179b0ffacaa9a75d522b39400f60e051610100514630604051602001610249959493929190610cd3565b60405160208183030381529060405280519060200120905090565b5f6102736103ac60201b60201c565b9050808211156102bc5781816040517f243e54450000000000000000000000000000000000000000000000000000000081526004016102b3929190610d24565b60405180910390fd5b5f6102cb6103b460201b60201c565b90506102fe6102de6103e660201b60201c565b6102ed8561047d60201b60201c565b60086104ea60201b9092919060201c565b50507f0553476bf02ef2726e8ce5ced78d63e26e602e4a2257b1f559418e24b46339978184604051610331929190610d24565b60405180910390a1505050565b5f5f829050601f8151111561038a57826040517f305a27a90000000000000000000000000000000000000000000000000000000081526004016103819190610db1565b60405180910390fd5b80518161039690610dfe565b5f1c175f1b915050919050565b5f819050919050565b5f6064905090565b5f6103c5600861050b60201b60201c565b79ffffffffffffffffffffffffffffffffffffffffffffffffffff16905090565b5f6103f561057360201b60201c565b73ffffffffffffffffffffffffffffffffffffffff166391ddadf46040518163ffffffff1660e01b8152600401602060405180830381865afa92505050801561045c57506040513d601f19601f820116820180604052508101906104599190610e9f565b60015b6104755761046e61057d60201b60201c565b905061047a565b809150505b90565b5f79ffffffffffffffffffffffffffffffffffffffffffffffffffff80168211156104e25760d0826040517f6dfcc6500000000000000000000000000000000000000000000000000000000081526004016104d9929190610f0f565b60405180910390fd5b819050919050565b5f5f6104ff855f01858561059260201b60201c565b91509150935093915050565b5f5f825f018054905090505f81146105695761053b835f016001836105309190610f63565b61088c60201b60201c565b5f0160069054906101000a900479ffffffffffffffffffffffffffffffffffffffffffffffffffff1661056b565b5f5b915050919050565b5f61016051905090565b5f61058d4361089e60201b60201c565b905090565b5f5f5f858054905090505f8111156107a4575f6105c1876001846105b69190610f63565b61088c60201b60201c565b90505f815f015f9054906101000a900465ffffffffffff1690505f825f0160069054906101000a900479ffffffffffffffffffffffffffffffffffffffffffffffffffff1690508765ffffffffffff168265ffffffffffff161115610652576040517f2520601d00000000000000000000000000000000000000000000000000000000815260040160405180910390fd5b8765ffffffffffff168265ffffffffffff16036106bc5786835f0160066101000a81548179ffffffffffffffffffffffffffffffffffffffffffffffffffff021916908379ffffffffffffffffffffffffffffffffffffffffffffffffffff160217905550610795565b8860405180604001604052808a65ffffffffffff1681526020018979ffffffffffffffffffffffffffffffffffffffffffffffffffff16815250908060018154018082558091505060019003905f5260205f20015f909190919091505f820151815f015f6101000a81548165ffffffffffff021916908365ffffffffffff1602179055506020820151815f0160066101000a81548179ffffffffffffffffffffffffffffffffffffffffffffffffffff021916908379ffffffffffffffffffffffffffffffffffffffffffffffffffff16021790555050505b80879550955050505050610884565b8560405180604001604052808765ffffffffffff1681526020018679ffffffffffffffffffffffffffffffffffffffffffffffffffff16815250908060018154018082558091505060019003905f5260205f20015f909190919091505f820151815f015f6101000a81548165ffffffffffff021916908365ffffffffffff1602179055506020820151815f0160066101000a81548179ffffffffffffffffffffffffffffffffffffffffffffffffffff021916908379ffffffffffffffffffffffffffffffffffffffffffffffffffff16021790555050505f8492509250505b935093915050565b5f825f528160205f2001905092915050565b5f65ffffffffffff80168211156108ef576030826040517f6dfcc6500000000000000000000000000000000000000000000000000000000081526004016108e6929190610fcf565b60405180910390fd5b819050919050565b5f5ffd5b5f73ffffffffffffffffffffffffffffffffffffffff82169050919050565b5f610924826108fb565b9050919050565b5f6109358261091a565b9050919050565b6109458161092b565b811461094f575f5ffd5b50565b5f815190506109608161093c565b92915050565b5f6020828403121561097b5761097a6108f7565b5b5f61098884828501610952565b91505092915050565b5f81519050919050565b7f4e487b71000000000000000000000000000000000000000000000000000000005f52604160045260245ffd5b7f4e487b71000000000000000000000000000000000000000000000000000000005f52602260045260245ffd5b5f6002820490506001821680610a0c57607f821691505b602082108103610a1f57610a1e6109c8565b5b50919050565b5f819050815f5260205f209050919050565b5f6020601f8301049050919050565b5f82821b905092915050565b5f60088302610a817fffffffffffffffffffffffffffffffffffffffffffffffffffffffffffffffff82610a46565b610a8b8683610a46565b95508019841693508086168417925050509392505050565b5f819050919050565b5f819050919050565b5f610acf610aca610ac584610aa3565b610aac565b610aa3565b9050919050565b5f819050919050565b610ae883610ab5565b610afc610af482610ad6565b848454610a52565b825550505050565b5f5f905090565b610b13610b04565b610b1e818484610adf565b505050565b5b81811015610b4157610b365f82610b0b565b600181019050610b24565b5050565b601f821115610b8657610b5781610a25565b610b6084610a37565b81016020851015610b6f578190505b610b83610b7b85610a37565b830182610b23565b50505b505050565b5f82821c905092915050565b5f610ba65f1984600802610b8b565b1980831691505092915050565b5f610bbe8383610b97565b9150826002028217905092915050565b610bd782610991565b67ffffffffffffffff811115610bf057610bef61099b565b5b610bfa82546109f5565b610c05828285610b45565b5f60209050601f831160018114610c36575f8415610c24578287015190505b610c2e8582610bb3565b865550610c95565b601f198416610c4486610a25565b5f5b82811015610c6b57848901518255600182019150602085019450602081019050610c46565b86831015610c885784890151610c84601f891682610b97565b8355505b6001600288020188555050505b505050505050565b5f819050919050565b610caf81610c9d565b82525050565b610cbe81610aa3565b82525050565b610ccd8161091a565b82525050565b5f60a082019050610ce65f830188610ca6565b610cf36020830187610ca6565b610d006040830186610ca6565b610d0d6060830185610cb5565b610d1a6080830184610cc4565b9695505050505050565b5f604082019050610d375f830185610cb5565b610d446020830184610cb5565b9392505050565b5f82825260208201905092915050565b8281835e5f83830152505050565b5f601f19601f8301169050919050565b5f610d8382610991565b610d8d8185610d4b565b9350610d9d818560208601610d5b565b610da681610d69565b840191505092915050565b5f6020820190508181035f830152610dc98184610d79565b905092915050565b5f81519050919050565b5f819050602082019050919050565b5f610df58251610c9d565b80915050919050565b5f610e0882610dd1565b82610e1284610ddb565b9050610e1d81610dea565b92506020821015610e5d57610e587fffffffffffffffffffffffffffffffffffffffffffffffffffffffffffffffff83602003600802610a46565b831692505b5050919050565b5f65ffffffffffff82169050919050565b610e7e81610e64565b8114610e88575f5ffd5b50565b5f81519050610e9981610e75565b92915050565b5f60208284031215610eb457610eb36108f7565b5b5f610ec184828501610e8b565b91505092915050565b5f819050919050565b5f60ff82169050919050565b5f610ef9610ef4610eef84610eca565b610aac565b610ed3565b9050919050565b610f0981610edf565b82525050565b5f604082019050610f225f830185610f00565b610f2f6020830184610cb5565b9392505050565b7f4e487b71000000000000000000000000000000000000000000000000000000005f52601160045260245ffd5b5f610f6d82610aa3565b9150610f7883610aa3565b9250828203905081811115610f9057610f8f610f36565b5b92915050565b5f819050919050565b5f610fb9610fb4610faf84610f96565b610aac565b610ed3565b9050919050565b610fc981610f9f565b82525050565b5f604082019050610fe25f830185610fc0565b610fef6020830184610cb5565b9392505050565b60805160a05160c05160e051610100516101205161014051610160516164626110515f395f611e2a01525f612b5f01525f612b2401525f6140f201525f6140d101525f613a7c01525f613ad201525f613afb01526164625ff3fe60806040526004361061026a575f3560e01c80637d5e81e211610143578063b58131b0116100b5578063dd4e2ba511610079578063dd4e2ba514610acb578063deaaa7cc14610af5578063eb9019d414610b1f578063f23a6e6114610b5b578063f8ce560a14610b97578063fc0c546a14610bd3576102dd565b8063b58131b0146109d1578063bc197c81146109fb578063c01f9e3714610a37578063c28bc2fa14610a73578063c59057e414610a8f576102dd565b806397c3d3341161010757806397c3d3341461088d5780639a802a6d146108b7578063a7713a70146108f3578063a8f8a6681461091d578063a9a9529414610959578063ab58fb8e14610995576102dd565b80637d5e81e21461077f5780637ecebe00146107bb57806384b0196e146107f75780638ff262e31461082757806391ddadf414610863576102dd565b80633e4f49e6116101dc57806354fd4d50116101a057806354fd4d501461062957806356781388146106535780635b8d0e0d1461068f5780635f398a14146106cb57806360c4247f146107075780637b3c71d314610743576102dd565b80633e4f49e61461050d5780634385963214610549578063452115d6146105855780634bf5d7e9146105c1578063544ffc9c146105eb576102dd565b8063150b7a021161022e578063150b7a02146103d5578063160cbed7146104115780632656227d1461044d5780632d63f6931461047d5780632fe3e261146104b95780633932abb1146104e3576102dd565b806301ffc9a7146102e157806302a251a31461031d57806306f3f9e61461034757806306fdde031461036f578063143489d014610399576102dd565b366102dd573073ffffffffffffffffffffffffffffffffffffffff1661028e610bfd565b73ffffffffffffffffffffffffffffffffffffffff16146102db576040517fe90a651e00000000000000000000000000000000000000000000000000000000815260040160405180910390fd5b005b5f5ffd5b3480156102ec575f5ffd5b5061030760048036038101906103029190614392565b610c04565b60405161031491906143d7565b60405180910390f35b348015610328575f5ffd5b50610331610d56565b60405161033e9190614408565b60405180910390f35b348015610352575f5ffd5b5061036d6004803603810190610368919061444b565b610d5e565b005b34801561037a575f5ffd5b50610383610d72565b60405161039091906144e6565b60405180910390f35b3480156103a4575f5ffd5b506103bf60048036038101906103ba919061444b565b610e02565b6040516103cc9190614545565b60405180910390f35b3480156103e0575f5ffd5b506103fb60048036038101906103f691906146b4565b610e3d565b6040516104089190614743565b60405180910390f35b34801561041c575f5ffd5b50610437600480360381019061043291906149f1565b610ebc565b6040516104449190614408565b60405180910390f35b610467600480360381019061046291906149f1565b610fb2565b6040516104749190614408565b60405180910390f35b348015610488575f5ffd5b506104a3600480360381019061049e919061444b565b61118f565b6040516104b09190614408565b60405180910390f35b3480156104c4575f5ffd5b506104cd6111c5565b6040516104da9190614ab8565b60405180910390f35b3480156104ee575f5ffd5b506104f76111e9565b6040516105049190614408565b60405180910390f35b348015610518575f5ffd5b50610533600480360381019061052e919061444b565b6111f1565b6040516105409190614b44565b60405180910390f35b348015610554575f5ffd5b5061056f600480360381019061056a9190614b5d565b611348565b60405161057c91906143d7565b60405180910390f35b348015610590575f5ffd5b506105ab60048036038101906105a691906149f1565b6113ad565b6040516105b89190614408565b60405180910390f35b3480156105cc575f5ffd5b506105d561142d565b6040516105e291906144e6565b60405180910390f35b3480156105f6575f5ffd5b50610611600480360381019061060c919061444b565b6114ea565b60405161062093929190614b9b565b60405180910390f35b348015610634575f5ffd5b5061063d61151d565b60405161064a91906144e6565b60405180910390f35b34801561065e575f5ffd5b5061067960048036038101906106749190614c06565b61155a565b6040516106869190614408565b60405180910390f35b34801561069a575f5ffd5b506106b560048036038101906106b09190614c9d565b611589565b6040516106c29190614408565b60405180910390f35b3480156106d6575f5ffd5b506106f160048036038101906106ec9190614d7f565b611679565b6040516106fe9190614408565b60405180910390f35b348015610712575f5ffd5b5061072d6004803603810190610728919061444b565b6116e1565b60405161073a9190614408565b60405180910390f35b34801561074e575f5ffd5b5061076960048036038101906107649190614e1f565b6116f4565b6040516107769190614408565b60405180910390f35b34801561078a575f5ffd5b506107a560048036038101906107a09190614f2e565b61175a565b6040516107b29190614408565b60405180910390f35b3480156107c6575f5ffd5b506107e160048036038101906107dc9190615002565b611850565b6040516107ee9190614408565b60405180910390f35b348015610802575f5ffd5b5061080b611896565b60405161081e979695949392919061511e565b60405180910390f35b348015610832575f5ffd5b5061084d600480360381019061084891906151a0565b61193b565b60405161085a9190614408565b60405180910390f35b34801561086e575f5ffd5b506108776119ad565b6040516108849190615240565b60405180910390f35b348015610898575f5ffd5b506108a1611a38565b6040516108ae9190614408565b60405180910390f35b3480156108c2575f5ffd5b506108dd60048036038101906108d89190615259565b611a40565b6040516108ea9190614408565b60405180910390f35b3480156108fe575f5ffd5b50610907611a55565b6040516109149190614408565b60405180910390f35b348015610928575f5ffd5b50610943600480360381019061093e91906149f1565b611a81565b6040516109509190614408565b60405180910390f35b348015610964575f5ffd5b5061097f600480360381019061097a919061444b565b611a98565b60405161098c91906143d7565b60405180910390f35b3480156109a0575f5ffd5b506109bb60048036038101906109b6919061444b565b611aa1565b6040516109c89190614408565b60405180910390f35b3480156109dc575f5ffd5b506109e5611ad7565b6040516109f29190614408565b60405180910390f35b348015610a06575f5ffd5b50610a216004803603810190610a1c91906152c5565b611ade565b604051610a2e9190614743565b60405180910390f35b348015610a42575f5ffd5b50610a5d6004803603810190610a58919061444b565b611b5e565b604051610a6a9190614408565b60405180910390f35b610a8d6004803603810190610a8891906153e5565b611bc8565b005b348015610a9a575f5ffd5b50610ab56004803603810190610ab091906149f1565b611c51565b604051610ac29190614408565b60405180910390f35b348015610ad6575f5ffd5b50610adf611c8b565b604051610aec91906144e6565b60405180910390f35b348015610b00575f5ffd5b50610b09611cc8565b604051610b169190614ab8565b60405180910390f35b348015610b2a575f5ffd5b50610b456004803603810190610b409190615456565b611cec565b604051610b529190614408565b60405180910390f35b348015610b66575f5ffd5b50610b816004803603810190610b7c9190615494565b611d07565b604051610b8e9190614743565b60405180910390f35b348015610ba2575f5ffd5b50610bbd6004803603810190610bb8919061444b565b611d87565b604051610bca9190614408565b60405180910390f35b348015610bde575f5ffd5b50610be7611e27565b604051610bf49190615582565b60405180910390f35b5f30905090565b5f7fcdbdfcee000000000000000000000000000000000000000000000000000000007bffffffffffffffffffffffffffffffffffffffffffffffffffffffff1916827bffffffffffffffffffffffffffffffffffffffffffffffffffffffff19161480610cd7575063a8f8a66860e01b7fcdbdfcee00000000000000000000000000000000000000000000000000000000187bffffffffffffffffffffffffffffffffffffffffffffffffffffffff1916827bffffffffffffffffffffffffffffffffffffffffffffffffffffffff1916145b80610d3f57507f4e2312e0000000000000000000000000000000000000000000000000000000007bffffffffffffffffffffffffffffffffffffffffffffffffffffffff1916827bffffffffffffffffffffffffffffffffffffffffffffffffffffffff1916145b80610d4f5750610d4e82611e4e565b5b9050919050565b5f6002905090565b610d66611eb7565b610d6f81611fac565b50565b606060038054610d81906155c8565b80601f0160208091040260200160405190810160405280929190818152602001828054610dad906155c8565b8015610df85780601f10610dcf57610100808354040283529160200191610df8565b820191905f5260205f20905b815481529060010190602001808311610ddb57829003601f168201915b5050505050905090565b5f60045f8381526020019081526020015f205f015f9054906101000a900473ffffffffffffffffffffffffffffffffffffffff169050919050565b5f3073ffffffffffffffffffffffffffffffffffffffff16610e5d610bfd565b73ffffffffffffffffffffffffffffffffffffffff1614610eaa576040517fe90a651e00000000000000000000000000000000000000000000000000000000815260040160405180910390fd5b63150b7a0260e01b9050949350505050565b5f5f610eca86868686611a81565b9050610edf81610eda600461206e565b612092565b505f610eee82888888886120fd565b90505f8165ffffffffffff1614610f73578060045f8481526020019081526020015f206001015f6101000a81548165ffffffffffff021916908365ffffffffffff1602179055507f9a2e42fd6722813d69113e7d0079d3d940171428df7373df9c7f7617cfda28928282604051610f66929190615628565b60405180910390a1610fa5565b6040517f90884a4600000000000000000000000000000000000000000000000000000000815260040160405180910390fd5b8192505050949350505050565b5f5f610fc086868686611a81565b9050610fe081610fd0600561206e565b610fda600461206e565b17612092565b50600160045f8381526020019081526020015f205f01601e6101000a81548160ff0219169083151502179055503073ffffffffffffffffffffffffffffffffffffffff1661102c610bfd565b73ffffffffffffffffffffffffffffffffffffffff16146110e5575f5f90505b86518110156110e3573073ffffffffffffffffffffffffffffffffffffffff1687828151811061107f5761107e61564f565b5b602002602001015173ffffffffffffffffffffffffffffffffffffffff16036110d8576110d78582815181106110b8576110b761564f565b5b602002602001015180519060200120600561210a90919063ffffffff16565b5b80600101905061104c565b505b6110f28187878787612202565b3073ffffffffffffffffffffffffffffffffffffffff16611111610bfd565b73ffffffffffffffffffffffffffffffffffffffff161415801561113c575061113a60056122ea565b155b1561114c5761114b6005612356565b5b7f712ae1383f79ac853f8d882153778e0260ef8f03b504e2866e0593e04d2b291f8160405161117b9190614408565b60405180910390a180915050949350505050565b5f60045f8381526020019081526020015f205f0160149054906101000a900465ffffffffffff1665ffffffffffff169050919050565b7f3e83946653575f9a39005e1545185629e92736b7528ab20ca3816f315424a81181565b5f6002905090565b5f5f60045f8481526020019081526020015f2090505f815f01601e9054906101000a900460ff1690505f825f01601f9054906101000a900460ff16905081156112405760079350505050611343565b80156112525760029350505050611343565b5f61125c8661118f565b90505f81036112a257856040517f6ad060750000000000000000000000000000000000000000000000000000000081526004016112999190614408565b60405180910390fd5b5f6112ab6119ad565b65ffffffffffff1690508082106112c9575f95505050505050611343565b5f6112d388611b5e565b90508181106112eb5760019650505050505050611343565b6112f4886123cc565b1580611306575061130488612410565b155b1561131a5760039650505050505050611343565b5f61132489611aa1565b036113385760049650505050505050611343565b600596505050505050505b919050565b5f60075f8481526020019081526020015f206003015f8373ffffffffffffffffffffffffffffffffffffffff1673ffffffffffffffffffffffffffffffffffffffff1681526020019081526020015f205f9054906101000a900460ff16905092915050565b5f5f6113bb86868686611a81565b90505f6113c6612437565b90506113d2828261243e565b6114155781816040517f8fe5d8a900000000000000000000000000000000000000000000000000000000815260040161140c92919061567c565b60405180910390fd5b611421878787876124b5565b92505050949350505050565b6060611437611e27565b73ffffffffffffffffffffffffffffffffffffffff16634bf5d7e96040518163ffffffff1660e01b81526004015f60405180830381865afa9250505080156114a157506040513d5f823e3d601f19601f8201168201806040525081019061149e9190615711565b60015b6114e2576040518060400160405280601d81526020017f6d6f64653d626c6f636b6e756d6265722666726f6d3d64656661756c7400000081525090506114e7565b809150505b90565b5f5f5f5f60075f8681526020019081526020015f209050805f015481600101548260020154935093509350509193909250565b60606040518060400160405280600181526020017f3100000000000000000000000000000000000000000000000000000000000000815250905090565b5f5f611564612437565b905061158084828560405180602001604052805f815250612597565b91505092915050565b5f6115db88888888888080601f0160208091040260200160405190810160405280939291908181526020018383808284375f81840152601f19601f8201169050808301925050505050505087876125b6565b61161c57856040517f94ab6c070000000000000000000000000000000000000000000000000000000081526004016116139190614545565b60405180910390fd5b61166c88878988888080601f0160208091040260200160405190810160405280939291908181526020018383808284375f81840152601f19601f820116905080830192505050505050508761263e565b9050979650505050505050565b5f5f611683612437565b90506116d587828888888080601f0160208091040260200160405190810160405280939291908181526020018383808284375f81840152601f19601f820116905080830192505050505050508761263e565b91505095945050505050565b5f6116ed600883612748565b9050919050565b5f5f6116fe612437565b905061174f86828787878080601f0160208091040260200160405190810160405280939291908181526020018383808284375f81840152601f19601f82011690508083019250505050505050612597565b915050949350505050565b5f5f611764612437565b905061177081846127b1565b6117b157806040517fd9b395570000000000000000000000000000000000000000000000000000000081526004016117a89190614545565b60405180910390fd5b5f6117ba611ad7565b90505f811115611837575f6117ea8360016117d36119ad565b6117dd9190615785565b65ffffffffffff16611cec565b905081811015611835578281836040517fc242ee1600000000000000000000000000000000000000000000000000000000815260040161182c939291906157be565b60405180910390fd5b505b6118448787878786612897565b92505050949350505050565b5f60025f8373ffffffffffffffffffffffffffffffffffffffff1673ffffffffffffffffffffffffffffffffffffffff1681526020019081526020015f20549050919050565b5f6060805f5f5f60606118a7612b1c565b6118af612b56565b46305f5f1b5f67ffffffffffffffff8111156118ce576118cd614590565b5b6040519080825280602002602001820160405280156118fc5781602001602082028036833780820191505090505b507f0f00000000000000000000000000000000000000000000000000000000000000959493929190965096509650965096509650965090919293949596565b5f61194885858585612b91565b61198957826040517f94ab6c070000000000000000000000000000000000000000000000000000000081526004016119809190614545565b60405180910390fd5b6119a385848660405180602001604052805f815250612597565b9050949350505050565b5f6119b6611e27565b73ffffffffffffffffffffffffffffffffffffffff166391ddadf46040518163ffffffff1660e01b8152600401602060405180830381865afa925050508015611a1d57506040513d601f19601f82011682018060405250810190611a1a919061581d565b60015b611a3057611a29612c05565b9050611a35565b809150505b90565b5f6064905090565b5f611a4c848484612c14565b90509392505050565b5f611a606008612c9f565b79ffffffffffffffffffffffffffffffffffffffffffffffffffff16905090565b5f611a8e85858585611c51565b9050949350505050565b5f5f9050919050565b5f60045f8381526020019081526020015f206001015f9054906101000a900465ffffffffffff1665ffffffffffff169050919050565b5f5f905090565b5f3073ffffffffffffffffffffffffffffffffffffffff16611afe610bfd565b73ffffffffffffffffffffffffffffffffffffffff1614611b4b576040517fe90a651e00000000000000000000000000000000000000000000000000000000815260040160405180910390fd5b63bc197c8160e01b905095945050505050565b5f60045f8381526020019081526020015f205f01601a9054906101000a900463ffffffff1663ffffffff1660045f8481526020019081526020015f205f0160149054906101000a900465ffffffffffff16611bb99190615848565b65ffffffffffff169050919050565b611bd0611eb7565b5f5f8573ffffffffffffffffffffffffffffffffffffffff16858585604051611bfa9291906158af565b5f6040518083038185875af1925050503d805f8114611c34576040519150601f19603f3d011682016040523d82523d5f602084013e611c39565b606091505b5091509150611c488282612d01565b50505050505050565b5f84848484604051602001611c699493929190615a8b565b604051602081830303815290604052805190602001205f1c9050949350505050565b60606040518060400160405280602081526020017f737570706f72743d627261766f2671756f72756d3d666f722c6162737461696e815250905090565b7ff2aad550cf55f045cb27e9c559f9889fdfb6e6cdaa032301d6ea397784ae51d781565b5f611cff8383611cfa612d25565b612c14565b905092915050565b5f3073ffffffffffffffffffffffffffffffffffffffff16611d27610bfd565b73ffffffffffffffffffffffffffffffffffffffff1614611d74576040517fe90a651e00000000000000000000000000000000000000000000000000000000815260040160405180910390fd5b63f23a6e6160e01b905095945050505050565b5f611e20611d93611e27565b73ffffffffffffffffffffffffffffffffffffffff16638e539e8c846040518263ffffffff1660e01b8152600401611dcb9190614408565b602060405180830381865afa158015611de6573d5f5f3e3d5ffd5b505050506040513d601f19601f82011682018060405250810190611e0a9190615af7565b611e13846116e1565b611e1b611a38565b612d3b565b9050919050565b5f7f0000000000000000000000000000000000000000000000000000000000000000905090565b5f7f01ffc9a7000000000000000000000000000000000000000000000000000000007bffffffffffffffffffffffffffffffffffffffffffffffffffffffff1916827bffffffffffffffffffffffffffffffffffffffffffffffffffffffff1916149050919050565b611ebf612437565b73ffffffffffffffffffffffffffffffffffffffff16611edd610bfd565b73ffffffffffffffffffffffffffffffffffffffff1614611f3c57611f00612437565b6040517f47096e47000000000000000000000000000000000000000000000000000000008152600401611f339190614545565b60405180910390fd5b3073ffffffffffffffffffffffffffffffffffffffff16611f5b610bfd565b73ffffffffffffffffffffffffffffffffffffffff1614611faa575f611f7f612e1a565b604051611f8d9291906158af565b604051809103902090505b80611fa36005612e26565b03611f9857505b565b5f611fb5611a38565b905080821115611ffe5781816040517f243e5445000000000000000000000000000000000000000000000000000000008152600401611ff5929190615b22565b60405180910390fd5b5f612007611a55565b905061202e6120146119ad565b61201d85612f54565b6008612fc19092919063ffffffff16565b50507f0553476bf02ef2726e8ce5ced78d63e26e602e4a2257b1f559418e24b46339978184604051612061929190615b22565b60405180910390a1505050565b5f81600781111561208257612081614ad1565b5b60ff166001901b5f1b9050919050565b5f5f61209d846111f1565b90505f5f1b836120ac8361206e565b16036120f3578381846040517f31b75e4d0000000000000000000000000000000000000000000000000000000081526004016120ea93929190615b49565b60405180910390fd5b8091505092915050565b5f5f905095945050505050565b5f825f0160109054906101000a90046fffffffffffffffffffffffffffffffff169050825f015f9054906101000a90046fffffffffffffffffffffffffffffffff166fffffffffffffffffffffffffffffffff16600182016fffffffffffffffffffffffffffffffff1603612184576121836041612fdc565b5b81836001015f836fffffffffffffffffffffffffffffffff166fffffffffffffffffffffffffffffffff1681526020019081526020015f208190555060018101835f0160106101000a8154816fffffffffffffffffffffffffffffffff02191690836fffffffffffffffffffffffffffffffff160217905550505050565b5f5f90505b84518110156122e2575f5f8683815181106122255761222461564f565b5b602002602001015173ffffffffffffffffffffffffffffffffffffffff168684815181106122565761225561564f565b5b60200260200101518685815181106122715761227061564f565b5b60200260200101516040516122869190615bae565b5f6040518083038185875af1925050503d805f81146122c0576040519150601f19603f3d011682016040523d82523d5f602084013e6122c5565b606091505b50915091506122d48282612d01565b505050806001019050612207565b505050505050565b5f815f015f9054906101000a90046fffffffffffffffffffffffffffffffff166fffffffffffffffffffffffffffffffff16825f0160109054906101000a90046fffffffffffffffffffffffffffffffff166fffffffffffffffffffffffffffffffff16149050919050565b5f815f015f6101000a8154816fffffffffffffffffffffffffffffffff02191690836fffffffffffffffffffffffffffffffff1602179055505f815f0160106101000a8154816fffffffffffffffffffffffffffffffff02191690836fffffffffffffffffffffffffffffffff16021790555050565b5f5f60075f8481526020019081526020015f209050806002015481600101546123f59190615bc4565b6124066124018561118f565b611d87565b1115915050919050565b5f5f60075f8481526020019081526020015f209050805f0154816001015411915050919050565b5f33905090565b5f5f600781111561245257612451614ad1565b5b61245b846111f1565b600781111561246d5761246c614ad1565b5b1480156124ad575061247e83610e02565b73ffffffffffffffffffffffffffffffffffffffff168273ffffffffffffffffffffffffffffffffffffffff16145b905092915050565b5f5f6124c386868686611a81565b9050612527816124d3600761206e565b6124dd600661206e565b6124e7600261206e565b6001806007808111156124fd576124fc614ad1565b5b6125079190615bf7565b60026125139190615d5a565b61251d9190615da4565b5f1b181818612092565b50600160045f8381526020019081526020015f205f01601f6101000a81548160ff0219169083151502179055507f789cf55be980739dad1d0699b93b58e806b51c9d96619bfa8fe0a28abaa7b30c816040516125839190614408565b60405180910390a180915050949350505050565b5f6125ac858585856125a7612d25565b61263e565b9050949350505050565b5f6126328561262c7f3e83946653575f9a39005e1545185629e92736b7528ab20ca3816f315424a8118a8a8a6125eb8c612fed565b8b805190602001208b805190602001206040516020016126119796959493929190615de6565b60405160208183030381529060405280519060200120613040565b84613059565b90509695505050505050565b5f6126528661264d600161206e565b612092565b505f612667866126618961118f565b85612c14565b90505f6126778888888588613105565b90505f8451036126da578673ffffffffffffffffffffffffffffffffffffffff167fb8e138887d0aa13bab447e82de9d5c1777041ecd21ca36ba824ff1e6c07ddda4898884896040516126cd9493929190615e53565b60405180910390a2612731565b8673ffffffffffffffffffffffffffffffffffffffff167fe2babfbac5889a709b63bb7f598b324e08bc5a4fb9ec647fb3cbc9ec07eb87128988848989604051612728959493929190615ee5565b60405180910390a25b61273a886132fa565b809250505095945050505050565b5f5f5f612754856132fd565b9250925050838265ffffffffffff161115612789576127846127758561338c565b866133e590919063ffffffff16565b61278b565b805b79ffffffffffffffffffffffffffffffffffffffffffffffffffff169250505092915050565b5f5f8251905060348110156127ca576001915050612891565b5f6127d884603484036134d5565b90507f2370726f706f7365723d0000000000000000000000000000000000000000000075ffffffffffffffffffffffffffffffffffffffffffff19168175ffffffffffffffffffffffffffffffffffffffffffff19161461283e57600192505050612891565b5f5f61284e86602a8603866134e5565b9150915081158061288a57508673ffffffffffffffffffffffffffffffffffffffff168173ffffffffffffffffffffffffffffffffffffffff16145b9450505050505b92915050565b5f6128ab8686868680519060200120611a81565b9050845186511415806128c057508351865114155b806128cb57505f8651145b15612914578551845186516040517f447b05d000000000000000000000000000000000000000000000000000000000815260040161290b93929190614b9b565b60405180910390fd5b5f60045f8381526020019081526020015f205f0160149054906101000a900465ffffffffffff1665ffffffffffff16146129935780612952826111f1565b5f5f1b6040517f31b75e4d00000000000000000000000000000000000000000000000000000000815260040161298a93929190615b49565b60405180910390fd5b5f61299c6111e9565b6129a46119ad565b65ffffffffffff166129b69190615bc4565b90505f6129c1610d56565b90505f60045f8581526020019081526020015f20905084815f015f6101000a81548173ffffffffffffffffffffffffffffffffffffffff021916908373ffffffffffffffffffffffffffffffffffffffff160217905550612a218361338c565b815f0160146101000a81548165ffffffffffff021916908365ffffffffffff160217905550612a4f826135f6565b815f01601a6101000a81548163ffffffff021916908363ffffffff1602179055507f7d84a6263ae0d98d3329bd7b46bb4e8d6f98cd35a7adb45c274c8b7fd5ebd5e084868b8b8d5167ffffffffffffffff811115612ab057612aaf614590565b5b604051908082528060200260200182016040528015612ae357816020015b6060815260200190600190039081612ace5790505b508c89898b612af29190615bc4565b8e604051612b0899989796959493929190616047565b60405180910390a150505095945050505050565b6060612b515f7f000000000000000000000000000000000000000000000000000000000000000061364d90919063ffffffff16565b905090565b6060612b8c60017f000000000000000000000000000000000000000000000000000000000000000061364d90919063ffffffff16565b905090565b5f612bfb83612bf57ff2aad550cf55f045cb27e9c559f9889fdfb6e6cdaa032301d6ea397784ae51d7888888612bc68a612fed565b604051602001612bda9594939291906160f5565b60405160208183030381529060405280519060200120613040565b84613059565b9050949350505050565b5f612c0f4361338c565b905090565b5f612c1d611e27565b73ffffffffffffffffffffffffffffffffffffffff16633a46b1a885856040518363ffffffff1660e01b8152600401612c57929190616146565b602060405180830381865afa158015612c72573d5f5f3e3d5ffd5b505050506040513d601f19601f82011682018060405250810190612c969190615af7565b90509392505050565b5f5f825f018054905090505f8114612cf757612cc9835f01600183612cc49190615da4565b6136fa565b5f0160069054906101000a900479ffffffffffffffffffffffffffffffffffffffffffffffffffff16612cf9565b5f5b915050919050565b606082612d1657612d118261370c565b612d1e565b819050612d1f565b5b92915050565b606060405180602001604052805f815250905090565b5f5f5f612d48868661374f565b915091505f8203612d6d57838181612d6357612d6261616d565b5b0492505050612e13565b818411612d8c57612d8b612d865f86146012601161376c565b612fdc565b5b5f8486880990508181118303925080820391505f855f038616905080860495508083049250600181825f0304019050808402831792505f600287600302189050808702600203810290508087026002038102905080870260020381029050808702600203810290508087026002038102905080870260020381029050808402955050505050505b9392505050565b365f5f36915091509091565b5f5f825f015f9054906101000a90046fffffffffffffffffffffffffffffffff169050825f0160109054906101000a90046fffffffffffffffffffffffffffffffff166fffffffffffffffffffffffffffffffff16816fffffffffffffffffffffffffffffffff1603612e9e57612e9d6031612fdc565b5b826001015f826fffffffffffffffffffffffffffffffff166fffffffffffffffffffffffffffffffff1681526020019081526020015f20549150826001015f826fffffffffffffffffffffffffffffffff166fffffffffffffffffffffffffffffffff1681526020019081526020015f205f905560018101835f015f6101000a8154816fffffffffffffffffffffffffffffffff02191690836fffffffffffffffffffffffffffffffff16021790555050919050565b5f79ffffffffffffffffffffffffffffffffffffffffffffffffffff8016821115612fb95760d0826040517f6dfcc650000000000000000000000000000000000000000000000000000000008152600401612fb09291906161d3565b60405180910390fd5b819050919050565b5f5f612fd0855f018585613785565b91509150935093915050565b634e487b715f52806020526024601cfd5b5f60025f8373ffffffffffffffffffffffffffffffffffffffff1673ffffffffffffffffffffffffffffffffffffffff1681526020019081526020015f205f815480929190600101919050559050919050565b5f61305261304c613a79565b83613b2f565b9050919050565b5f5f8473ffffffffffffffffffffffffffffffffffffffff163b036130f0575f5f6130848585613b6f565b50915091505f600381111561309c5761309b614ad1565b5b8160038111156130af576130ae614ad1565b5b1480156130e757508573ffffffffffffffffffffffffffffffffffffffff168273ffffffffffffffffffffffffffffffffffffffff16145b925050506130fe565b6130fb848484613bc4565b90505b9392505050565b5f5f60075f8881526020019081526020015f209050806003015f8773ffffffffffffffffffffffffffffffffffffffff1673ffffffffffffffffffffffffffffffffffffffff1681526020019081526020015f205f9054906101000a900460ff16156131a857856040517f71c6af4900000000000000000000000000000000000000000000000000000000815260040161319f9190614545565b60405180910390fd5b6001816003015f8873ffffffffffffffffffffffffffffffffffffffff1673ffffffffffffffffffffffffffffffffffffffff1681526020019081526020015f205f6101000a81548160ff0219169083151502179055505f600281111561321257613211614ad1565b5b60ff168560ff160361323c5783815f015f8282546132309190615bc4565b925050819055506132ed565b600160028111156132505761324f614ad1565b5b60ff168560ff160361327b5783816001015f82825461326f9190615bc4565b925050819055506132ec565b60028081111561328e5761328d614ad1565b5b60ff168560ff16036132b95783816002015f8282546132ad9190615bc4565b925050819055506132eb565b6040517f06b337c200000000000000000000000000000000000000000000000000000000815260040160405180910390fd5b5b5b8391505095945050505050565b50565b5f5f5f5f845f018054905090505f8103613320575f5f5f93509350935050613385565b5f613339865f016001846133349190615da4565b6136fa565b90506001815f015f9054906101000a900465ffffffffffff16825f0160069054906101000a900479ffffffffffffffffffffffffffffffffffffffffffffffffffff1694509450945050505b9193909250565b5f65ffffffffffff80168211156133dd576030826040517f6dfcc6500000000000000000000000000000000000000000000000000000000081526004016133d4929190616233565b60405180910390fd5b819050919050565b5f5f835f018054905090505f5f90505f8290506005831115613469575f61340b84613ce3565b846134169190615da4565b9050613424875f01826136fa565b5f015f9054906101000a900465ffffffffffff1665ffffffffffff168665ffffffffffff16101561345757809150613467565b6001816134649190615bc4565b92505b505b5f613478875f01878585613e7d565b90505f81146134c757613499875f016001836134949190615da4565b6136fa565b5f0160069054906101000a900479ffffffffffffffffffffffffffffffffffffffffffffffffffff166134c9565b5f5b94505050505092915050565b5f81602084010151905092915050565b5f5f84518311806134f557508284115b15613505575f5f915091506135ee565b5f6001856135139190615bc4565b8411801561358b57507f30780000000000000000000000000000000000000000000000000000000000007dffffffffffffffffffffffffffffffffffffffffffffffffffffffffffff19166135688787613ef2565b7dffffffffffffffffffffffffffffffffffffffffffffffffffffffffffff1916145b90505f600261359b831515613f02565b6135a5919061625a565b60286135b19190615bc4565b90508086866135c09190615da4565b036135e5575f5f6135d2898989613f0d565b91509150818195509550505050506135ee565b5f5f9350935050505b935093915050565b5f63ffffffff8016821115613645576020826040517f6dfcc65000000000000000000000000000000000000000000000000000000000815260040161363c9291906162d4565b60405180910390fd5b819050919050565b606060ff5f1b8314613669576136628361403b565b90506136f4565b818054613675906155c8565b80601f01602080910402602001604051908101604052809291908181526020018280546136a1906155c8565b80156136ec5780601f106136c3576101008083540402835291602001916136ec565b820191905f5260205f20905b8154815290600101906020018083116136cf57829003601f168201915b505050505090505b92915050565b5f825f528160205f2001905092915050565b5f8151111561371d57805160208201fd5b6040517fd6bda27500000000000000000000000000000000000000000000000000000000815260040160405180910390fd5b5f5f5f198385098385029150818110828203039250509250929050565b5f61377684613f02565b82841802821890509392505050565b5f5f5f858054905090505f811115613991575f6137ae876001846137a99190615da4565b6136fa565b90505f815f015f9054906101000a900465ffffffffffff1690505f825f0160069054906101000a900479ffffffffffffffffffffffffffffffffffffffffffffffffffff1690508765ffffffffffff168265ffffffffffff16111561383f576040517f2520601d00000000000000000000000000000000000000000000000000000000815260040160405180910390fd5b8765ffffffffffff168265ffffffffffff16036138a95786835f0160066101000a81548179ffffffffffffffffffffffffffffffffffffffffffffffffffff021916908379ffffffffffffffffffffffffffffffffffffffffffffffffffff160217905550613982565b8860405180604001604052808a65ffffffffffff1681526020018979ffffffffffffffffffffffffffffffffffffffffffffffffffff16815250908060018154018082558091505060019003905f5260205f20015f909190919091505f820151815f015f6101000a81548165ffffffffffff021916908365ffffffffffff1602179055506020820151815f0160066101000a81548179ffffffffffffffffffffffffffffffffffffffffffffffffffff021916908379ffffffffffffffffffffffffffffffffffffffffffffffffffff16021790555050505b80879550955050505050613a71565b8560405180604001604052808765ffffffffffff1681526020018679ffffffffffffffffffffffffffffffffffffffffffffffffffff16815250908060018154018082558091505060019003905f5260205f20015f909190919091505f820151815f015f6101000a81548165ffffffffffff021916908365ffffffffffff1602179055506020820151815f0160066101000a81548179ffffffffffffffffffffffffffffffffffffffffffffffffffff021916908379ffffffffffffffffffffffffffffffffffffffffffffffffffff16021790555050505f8492509250505b935093915050565b5f7f000000000000000000000000000000000000000000000000000000000000000073ffffffffffffffffffffffffffffffffffffffff163073ffffffffffffffffffffffffffffffffffffffff16148015613af457507f000000000000000000000000000000000000000000000000000000000000000046145b15613b21577f00000000000000000000000000000000000000000000000000000000000000009050613b2c565b613b296140ad565b90505b90565b5f6040517f190100000000000000000000000000000000000000000000000000000000000081528360028201528260228201526042812091505092915050565b5f5f5f6041845103613baf575f5f5f602087015192506040870151915060608701515f1a9050613ba188828585614142565b955095509550505050613bbd565b5f600285515f1b9250925092505b9250925092565b5f5f5f8573ffffffffffffffffffffffffffffffffffffffff168585604051602401613bf19291906162fb565b604051602081830303815290604052631626ba7e60e01b6020820180517bffffffffffffffffffffffffffffffffffffffffffffffffffffffff8381831617835250505050604051613c439190615bae565b5f60405180830381855afa9150503d805f8114613c7b576040519150601f19603f3d011682016040523d82523d5f602084013e613c80565b606091505b5091509150818015613c9457506020815110155b8015613cd85750631626ba7e60e01b7bffffffffffffffffffffffffffffffffffffffffffffffffffffffff191681806020019051810190613cd6919061633d565b145b925050509392505050565b5f60018211613cf457819050613e78565b5f8290505f600190507001000000000000000000000000000000008210613d2457608082901c9150604081901b90505b680100000000000000008210613d4357604082901c9150602081901b90505b6401000000008210613d5e57602082901c9150601081901b90505b620100008210613d7757601082901c9150600881901b90505b6101008210613d8f57600882901c9150600481901b90505b60108210613da657600482901c9150600281901b90505b60048210613db657600181901b90505b600181600302901c90506001818581613dd257613dd161616d565b5b048201901c90506001818581613deb57613dea61616d565b5b048201901c90506001818581613e0457613e0361616d565b5b048201901c90506001818581613e1d57613e1c61616d565b5b048201901c90506001818581613e3657613e3561616d565b5b048201901c90506001818581613e4f57613e4e61616d565b5b048201901c9050613e71818581613e6957613e6861616d565b5b048211613f02565b8103925050505b919050565b5f5b81831015613ee7575f613e928484614229565b90508465ffffffffffff16613ea787836136fa565b5f015f9054906101000a900465ffffffffffff1665ffffffffffff161115613ed157809250613ee1565b600181613ede9190615bc4565b93505b50613e7f565b819050949350505050565b5f81602084010151905092915050565b5f8115159050919050565b5f5f5f8590505f600186613f219190615bc4565b85118015613f9957507f30780000000000000000000000000000000000000000000000000000000000007dffffffffffffffffffffffffffffffffffffffffffffffffffffffffffff1916613f768388613ef2565b7dffffffffffffffffffffffffffffffffffffffffffffffffffffffffffff1916145b90505f6002613fa9831515613f02565b613fb3919061625a565b90505f5f90505f8289613fc69190615bc4565b90505b87811015614026575f613fe4613fdf8784613ef2565b61424e565b9050600f8160ff161115614003575f5f97509750505050505050614033565b601083614010919061625a565b92508060ff168301925050806001019050613fc9565b5060018195509550505050505b935093915050565b60605f614047836142de565b90505f602067ffffffffffffffff81111561406557614064614590565b5b6040519080825280601f01601f1916602001820160405280156140975781602001600182028036833780820191505090505b5090508181528360208201528092505050919050565b5f7f8b73c3c69bb8fe3d512ecc4cf759cc79239f7b179b0ffacaa9a75d522b39400f7f00000000000000000000000000000000000000000000000000000000000000007f00000000000000000000000000000000000000000000000000000000000000004630604051602001614127959493929190616368565b60405160208183030381529060405280519060200120905090565b5f5f5f7f7fffffffffffffffffffffffffffffff5d576e7357a4501ddfe92f46681b20a0845f1c111561417e575f60038592509250925061421f565b5f6001888888886040515f81526020016040526040516141a194939291906163b9565b6020604051602081039080840390855afa1580156141c1573d5f5f3e3d5ffd5b5050506020604051035190505f73ffffffffffffffffffffffffffffffffffffffff168173ffffffffffffffffffffffffffffffffffffffff1603614212575f60015f5f1b9350935093505061421f565b805f5f5f1b935093509350505b9450945094915050565b5f600282841861423991906163fc565b8284166142469190615bc4565b905092915050565b5f5f8260f81c9050602f8160ff1611801561426c5750603a8160ff16105b1561427c576030810390506142d4565b60608160ff16118015614292575060678160ff16105b156142a2576057810390506142d3565b60408160ff161180156142b8575060478160ff16105b156142c8576037810390506142d2565b60ff9150506142d9565b5b5b809150505b919050565b5f5f60ff835f1c169050601f811115614323576040517fb3512b0c00000000000000000000000000000000000000000000000000000000815260040160405180910390fd5b80915050919050565b5f604051905090565b5f5ffd5b5f5ffd5b5f7fffffffff0000000000000000000000000000000000000000000000000000000082169050919050565b6143718161433d565b811461437b575f5ffd5b50565b5f8135905061438c81614368565b92915050565b5f602082840312156143a7576143a6614335565b5b5f6143b48482850161437e565b91505092915050565b5f8115159050919050565b6143d1816143bd565b82525050565b5f6020820190506143ea5f8301846143c8565b92915050565b5f819050919050565b614402816143f0565b82525050565b5f60208201905061441b5f8301846143f9565b92915050565b61442a816143f0565b8114614434575f5ffd5b50565b5f8135905061444581614421565b92915050565b5f602082840312156144605761445f614335565b5b5f61446d84828501614437565b91505092915050565b5f81519050919050565b5f82825260208201905092915050565b8281835e5f83830152505050565b5f601f19601f8301169050919050565b5f6144b882614476565b6144c28185614480565b93506144d2818560208601614490565b6144db8161449e565b840191505092915050565b5f6020820190508181035f8301526144fe81846144ae565b905092915050565b5f73ffffffffffffffffffffffffffffffffffffffff82169050919050565b5f61452f82614506565b9050919050565b61453f81614525565b82525050565b5f6020820190506145585f830184614536565b92915050565b61456781614525565b8114614571575f5ffd5b50565b5f813590506145828161455e565b92915050565b5f5ffd5b5f5ffd5b7f4e487b71000000000000000000000000000000000000000000000000000000005f52604160045260245ffd5b6145c68261449e565b810181811067ffffffffffffffff821117156145e5576145e4614590565b5b80604052505050565b5f6145f761432c565b905061460382826145bd565b919050565b5f67ffffffffffffffff82111561462257614621614590565b5b61462b8261449e565b9050602081019050919050565b828183375f83830152505050565b5f61465861465384614608565b6145ee565b9050828152602081018484840111156146745761467361458c565b5b61467f848285614638565b509392505050565b5f82601f83011261469b5761469a614588565b5b81356146ab848260208601614646565b91505092915050565b5f5f5f5f608085870312156146cc576146cb614335565b5b5f6146d987828801614574565b94505060206146ea87828801614574565b93505060406146fb87828801614437565b925050606085013567ffffffffffffffff81111561471c5761471b614339565b5b61472887828801614687565b91505092959194509250565b61473d8161433d565b82525050565b5f6020820190506147565f830184614734565b92915050565b5f67ffffffffffffffff82111561477657614775614590565b5b602082029050602081019050919050565b5f5ffd5b5f61479d6147988461475c565b6145ee565b905080838252602082019050602084028301858111156147c0576147bf614787565b5b835b818110156147e957806147d58882614574565b8452602084019350506020810190506147c2565b5050509392505050565b5f82601f83011261480757614806614588565b5b813561481784826020860161478b565b91505092915050565b5f67ffffffffffffffff82111561483a57614839614590565b5b602082029050602081019050919050565b5f61485d61485884614820565b6145ee565b905080838252602082019050602084028301858111156148805761487f614787565b5b835b818110156148a957806148958882614437565b845260208401935050602081019050614882565b5050509392505050565b5f82601f8301126148c7576148c6614588565b5b81356148d784826020860161484b565b91505092915050565b5f67ffffffffffffffff8211156148fa576148f9614590565b5b602082029050602081019050919050565b5f61491d614918846148e0565b6145ee565b905080838252602082019050602084028301858111156149405761493f614787565b5b835b8181101561498757803567ffffffffffffffff81111561496557614964614588565b5b8086016149728982614687565b85526020850194505050602081019050614942565b5050509392505050565b5f82601f8301126149a5576149a4614588565b5b81356149b584826020860161490b565b91505092915050565b5f819050919050565b6149d0816149be565b81146149da575f5ffd5b50565b5f813590506149eb816149c7565b92915050565b5f5f5f5f60808587031215614a0957614a08614335565b5b5f85013567ffffffffffffffff811115614a2657614a25614339565b5b614a32878288016147f3565b945050602085013567ffffffffffffffff811115614a5357614a52614339565b5b614a5f878288016148b3565b935050604085013567ffffffffffffffff811115614a8057614a7f614339565b5b614a8c87828801614991565b9250506060614a9d878288016149dd565b91505092959194509250565b614ab2816149be565b82525050565b5f602082019050614acb5f830184614aa9565b92915050565b7f4e487b71000000000000000000000000000000000000000000000000000000005f52602160045260245ffd5b60088110614b0f57614b0e614ad1565b5b50565b5f819050614b1f82614afe565b919050565b5f614b2e82614b12565b9050919050565b614b3e81614b24565b82525050565b5f602082019050614b575f830184614b35565b92915050565b5f5f60408385031215614b7357614b72614335565b5b5f614b8085828601614437565b9250506020614b9185828601614574565b9150509250929050565b5f606082019050614bae5f8301866143f9565b614bbb60208301856143f9565b614bc860408301846143f9565b949350505050565b5f60ff82169050919050565b614be581614bd0565b8114614bef575f5ffd5b50565b5f81359050614c0081614bdc565b92915050565b5f5f60408385031215614c1c57614c1b614335565b5b5f614c2985828601614437565b9250506020614c3a85828601614bf2565b9150509250929050565b5f5ffd5b5f5f83601f840112614c5d57614c5c614588565b5b8235905067ffffffffffffffff811115614c7a57614c79614c44565b5b602083019150836001820283011115614c9657614c95614787565b5b9250929050565b5f5f5f5f5f5f5f60c0888a031215614cb857614cb7614335565b5b5f614cc58a828b01614437565b9750506020614cd68a828b01614bf2565b9650506040614ce78a828b01614574565b955050606088013567ffffffffffffffff811115614d0857614d07614339565b5b614d148a828b01614c48565b9450945050608088013567ffffffffffffffff811115614d3757614d36614339565b5b614d438a828b01614687565b92505060a088013567ffffffffffffffff811115614d6457614d63614339565b5b614d708a828b01614687565b91505092959891949750929550565b5f5f5f5f5f60808688031215614d9857614d97614335565b5b5f614da588828901614437565b9550506020614db688828901614bf2565b945050604086013567ffffffffffffffff811115614dd757614dd6614339565b5b614de388828901614c48565b9350935050606086013567ffffffffffffffff811115614e0657614e05614339565b5b614e1288828901614687565b9150509295509295909350565b5f5f5f5f60608587031215614e3757614e36614335565b5b5f614e4487828801614437565b9450506020614e5587828801614bf2565b935050604085013567ffffffffffffffff811115614e7657614e75614339565b5b614e8287828801614c48565b925092505092959194509250565b5f67ffffffffffffffff821115614eaa57614ea9614590565b5b614eb38261449e565b9050602081019050919050565b5f614ed2614ecd84614e90565b6145ee565b905082815260208101848484011115614eee57614eed61458c565b5b614ef9848285614638565b509392505050565b5f82601f830112614f1557614f14614588565b5b8135614f25848260208601614ec0565b91505092915050565b5f5f5f5f60808587031215614f4657614f45614335565b5b5f85013567ffffffffffffffff811115614f6357614f62614339565b5b614f6f878288016147f3565b945050602085013567ffffffffffffffff811115614f9057614f8f614339565b5b614f9c878288016148b3565b935050604085013567ffffffffffffffff811115614fbd57614fbc614339565b5b614fc987828801614991565b925050606085013567ffffffffffffffff811115614fea57614fe9614339565b5b614ff687828801614f01565b91505092959194509250565b5f6020828403121561501757615016614335565b5b5f61502484828501614574565b91505092915050565b5f7fff0000000000000000000000000000000000000000000000000000000000000082169050919050565b6150618161502d565b82525050565b5f81519050919050565b5f82825260208201905092915050565b5f819050602082019050919050565b615099816143f0565b82525050565b5f6150aa8383615090565b60208301905092915050565b5f602082019050919050565b5f6150cc82615067565b6150d68185615071565b93506150e183615081565b805f5b838110156151115781516150f8888261509f565b9750615103836150b6565b9250506001810190506150e4565b5085935050505092915050565b5f60e0820190506151315f83018a615058565b818103602083015261514381896144ae565b9050818103604083015261515781886144ae565b905061516660608301876143f9565b6151736080830186614536565b61518060a0830185614aa9565b81810360c083015261519281846150c2565b905098975050505050505050565b5f5f5f5f608085870312156151b8576151b7614335565b5b5f6151c587828801614437565b94505060206151d687828801614bf2565b93505060406151e787828801614574565b925050606085013567ffffffffffffffff81111561520857615207614339565b5b61521487828801614687565b91505092959194509250565b5f65ffffffffffff82169050919050565b61523a81615220565b82525050565b5f6020820190506152535f830184615231565b92915050565b5f5f5f606084860312156152705761526f614335565b5b5f61527d86828701614574565b935050602061528e86828701614437565b925050604084013567ffffffffffffffff8111156152af576152ae614339565b5b6152bb86828701614687565b9150509250925092565b5f5f5f5f5f60a086880312156152de576152dd614335565b5b5f6152eb88828901614574565b95505060206152fc88828901614574565b945050604086013567ffffffffffffffff81111561531d5761531c614339565b5b615329888289016148b3565b935050606086013567ffffffffffffffff81111561534a57615349614339565b5b615356888289016148b3565b925050608086013567ffffffffffffffff81111561537757615376614339565b5b61538388828901614687565b9150509295509295909350565b5f5f83601f8401126153a5576153a4614588565b5b8235905067ffffffffffffffff8111156153c2576153c1614c44565b5b6020830191508360018202830111156153de576153dd614787565b5b9250929050565b5f5f5f5f606085870312156153fd576153fc614335565b5b5f61540a87828801614574565b945050602061541b87828801614437565b935050604085013567ffffffffffffffff81111561543c5761543b614339565b5b61544887828801615390565b925092505092959194509250565b5f5f6040838503121561546c5761546b614335565b5b5f61547985828601614574565b925050602061548a85828601614437565b9150509250929050565b5f5f5f5f5f60a086880312156154ad576154ac614335565b5b5f6154ba88828901614574565b95505060206154cb88828901614574565b94505060406154dc88828901614437565b93505060606154ed88828901614437565b925050608086013567ffffffffffffffff81111561550e5761550d614339565b5b61551a88828901614687565b9150509295509295909350565b5f819050919050565b5f61554a61554561554084614506565b615527565b614506565b9050919050565b5f61555b82615530565b9050919050565b5f61556c82615551565b9050919050565b61557c81615562565b82525050565b5f6020820190506155955f830184615573565b92915050565b7f4e487b71000000000000000000000000000000000000000000000000000000005f52602260045260245ffd5b5f60028204905060018216806155df57607f821691505b6020821081036155f2576155f161559b565b5b50919050565b5f61561261560d61560884615220565b615527565b6143f0565b9050919050565b615622816155f8565b82525050565b5f60408201905061563b5f8301856143f9565b6156486020830184615619565b9392505050565b7f4e487b71000000000000000000000000000000000000000000000000000000005f52603260045260245ffd5b5f60408201905061568f5f8301856143f9565b61569c6020830184614536565b9392505050565b5f6156b56156b084614e90565b6145ee565b9050828152602081018484840111156156d1576156d061458c565b5b6156dc848285614490565b509392505050565b5f82601f8301126156f8576156f7614588565b5b81516157088482602086016156a3565b91505092915050565b5f6020828403121561572657615725614335565b5b5f82015167ffffffffffffffff81111561574357615742614339565b5b61574f848285016156e4565b91505092915050565b7f4e487b71000000000000000000000000000000000000000000000000000000005f52601160045260245ffd5b5f61578f82615220565b915061579a83615220565b9250828203905065ffffffffffff8111156157b8576157b7615758565b5b92915050565b5f6060820190506157d15f830186614536565b6157de60208301856143f9565b6157eb60408301846143f9565b949350505050565b6157fc81615220565b8114615806575f5ffd5b50565b5f81519050615817816157f3565b92915050565b5f6020828403121561583257615831614335565b5b5f61583f84828501615809565b91505092915050565b5f61585282615220565b915061585d83615220565b9250828201905065ffffffffffff81111561587b5761587a615758565b5b92915050565b5f81905092915050565b5f6158968385615881565b93506158a3838584614638565b82840190509392505050565b5f6158bb82848661588b565b91508190509392505050565b5f81519050919050565b5f82825260208201905092915050565b5f819050602082019050919050565b6158f981614525565b82525050565b5f61590a83836158f0565b60208301905092915050565b5f602082019050919050565b5f61592c826158c7565b61593681856158d1565b9350615941836158e1565b805f5b8381101561597157815161595888826158ff565b975061596383615916565b925050600181019050615944565b5085935050505092915050565b5f81519050919050565b5f82825260208201905092915050565b5f819050602082019050919050565b5f81519050919050565b5f82825260208201905092915050565b5f6159cb826159a7565b6159d581856159b1565b93506159e5818560208601614490565b6159ee8161449e565b840191505092915050565b5f615a0483836159c1565b905092915050565b5f602082019050919050565b5f615a228261597e565b615a2c8185615988565b935083602082028501615a3e85615998565b805f5b85811015615a795784840389528151615a5a85826159f9565b9450615a6583615a0c565b925060208a01995050600181019050615a41565b50829750879550505050505092915050565b5f6080820190508181035f830152615aa38187615922565b90508181036020830152615ab781866150c2565b90508181036040830152615acb8185615a18565b9050615ada6060830184614aa9565b95945050505050565b5f81519050615af181614421565b92915050565b5f60208284031215615b0c57615b0b614335565b5b5f615b1984828501615ae3565b91505092915050565b5f604082019050615b355f8301856143f9565b615b4260208301846143f9565b9392505050565b5f606082019050615b5c5f8301866143f9565b615b696020830185614b35565b615b766040830184614aa9565b949350505050565b5f615b88826159a7565b615b928185615881565b9350615ba2818560208601614490565b80840191505092915050565b5f615bb98284615b7e565b915081905092915050565b5f615bce826143f0565b9150615bd9836143f0565b9250828201905080821115615bf157615bf0615758565b5b92915050565b5f615c0182614bd0565b9150615c0c83614bd0565b9250828201905060ff811115615c2557615c24615758565b5b92915050565b5f8160011c9050919050565b5f5f8291508390505b6001851115615c8057808604811115615c5c57615c5b615758565b5b6001851615615c6b5780820291505b8081029050615c7985615c2b565b9450615c40565b94509492505050565b5f82615c985760019050615d53565b81615ca5575f9050615d53565b8160018114615cbb5760028114615cc557615cf4565b6001915050615d53565b60ff841115615cd757615cd6615758565b5b8360020a915084821115615cee57615ced615758565b5b50615d53565b5060208310610133831016604e8410600b8410161715615d295782820a905083811115615d2457615d23615758565b5b615d53565b615d368484846001615c37565b92509050818404811115615d4d57615d4c615758565b5b81810290505b9392505050565b5f615d64826143f0565b9150615d6f83614bd0565b9250615d9c7fffffffffffffffffffffffffffffffffffffffffffffffffffffffffffffffff8484615c89565b905092915050565b5f615dae826143f0565b9150615db9836143f0565b9250828203905081811115615dd157615dd0615758565b5b92915050565b615de081614bd0565b82525050565b5f60e082019050615df95f83018a614aa9565b615e0660208301896143f9565b615e136040830188615dd7565b615e206060830187614536565b615e2d60808301866143f9565b615e3a60a0830185614aa9565b615e4760c0830184614aa9565b98975050505050505050565b5f608082019050615e665f8301876143f9565b615e736020830186615dd7565b615e8060408301856143f9565b8181036060830152615e9281846144ae565b905095945050505050565b5f82825260208201905092915050565b5f615eb7826159a7565b615ec18185615e9d565b9350615ed1818560208601614490565b615eda8161449e565b840191505092915050565b5f60a082019050615ef85f8301886143f9565b615f056020830187615dd7565b615f1260408301866143f9565b8181036060830152615f2481856144ae565b90508181036080830152615f388184615ead565b90509695505050505050565b5f81519050919050565b5f82825260208201905092915050565b5f819050602082019050919050565b5f82825260208201905092915050565b5f615f8782614476565b615f918185615f6d565b9350615fa1818560208601614490565b615faa8161449e565b840191505092915050565b5f615fc08383615f7d565b905092915050565b5f602082019050919050565b5f615fde82615f44565b615fe88185615f4e565b935083602082028501615ffa85615f5e565b805f5b8581101561603557848403895281516160168582615fb5565b945061602183615fc8565b925060208a01995050600181019050615ffd565b50829750879550505050505092915050565b5f6101208201905061605b5f83018c6143f9565b616068602083018b614536565b818103604083015261607a818a615922565b9050818103606083015261608e81896150c2565b905081810360808301526160a28188615fd4565b905081810360a08301526160b68187615a18565b90506160c560c08301866143f9565b6160d260e08301856143f9565b8181036101008301526160e581846144ae565b90509a9950505050505050505050565b5f60a0820190506161085f830188614aa9565b61611560208301876143f9565b6161226040830186615dd7565b61612f6060830185614536565b61613c60808301846143f9565b9695505050505050565b5f6040820190506161595f830185614536565b61616660208301846143f9565b9392505050565b7f4e487b71000000000000000000000000000000000000000000000000000000005f52601260045260245ffd5b5f819050919050565b5f6161bd6161b86161b38461619a565b615527565b614bd0565b9050919050565b6161cd816161a3565b82525050565b5f6040820190506161e65f8301856161c4565b6161f360208301846143f9565b9392505050565b5f819050919050565b5f61621d616218616213846161fa565b615527565b614bd0565b9050919050565b61622d81616203565b82525050565b5f6040820190506162465f830185616224565b61625360208301846143f9565b9392505050565b5f616264826143f0565b915061626f836143f0565b925082820261627d816143f0565b9150828204841483151761629457616293615758565b5b5092915050565b5f819050919050565b5f6162be6162b96162b48461629b565b615527565b614bd0565b9050919050565b6162ce816162a4565b82525050565b5f6040820190506162e75f8301856162c5565b6162f460208301846143f9565b9392505050565b5f60408201905061630e5f830185614aa9565b81810360208301526163208184615ead565b90509392505050565b5f81519050616337816149c7565b92915050565b5f6020828403121561635257616351614335565b5b5f61635f84828501616329565b91505092915050565b5f60a08201905061637b5f830188614aa9565b6163886020830187614aa9565b6163956040830186614aa9565b6163a260608301856143f9565b6163af6080830184614536565b9695505050505050565b5f6080820190506163cc5f830187614aa9565b6163d96020830186615dd7565b6163e66040830185614aa9565b6163f36060830184614aa9565b95945050505050565b5f616406826143f0565b9150616411836143f0565b9250826164215761642061616d565b5b82820490509291505056fea26469706673582212204a92e94425aa1ed436e5db54aad7d3f1caa4cdc0bef36e6a659f6922e4627ad164736f6c634300081e0033",
			"opcodes": "PUSH2 0x180 PUSH1 0x40 MSTORE CALLVALUE DUP1 ISZERO PUSH2 0x10 JUMPI PUSH0 PUSH0 REVERT JUMPDEST POP PUSH1 0x40 MLOAD PUSH2 0x74B3 CODESIZE SUB DUP1 PUSH2 0x74B3 DUP4 CODECOPY DUP2 DUP2 ADD PUSH1 0x40 MSTORE DUP2 ADD SWAP1 PUSH2 0x32 SWAP2 SWAP1 PUSH2 0x966 JUMP JUMPDEST PUSH1 0x4 DUP2 PUSH1 0x40 MLOAD DUP1 PUSH1 0x40 ADD PUSH1 0x40 MSTORE DUP1 PUSH1 0xA DUP2 MSTORE PUSH1 0x20 ADD PUSH32 0x4D79476F7665726E6F7200000000000000000000000000000000000000000000 DUP2 MSTORE POP DUP1 PUSH2 0x7A PUSH2 0x180 PUSH1 0x20 SHL PUSH1 0x20 SHR JUMP JUMPDEST PUSH2 0x8D PUSH0 DUP4 PUSH2 0x1BD PUSH1 0x20 SHL SWAP1 SWAP2 SWAP1 PUSH1 0x20 SHR JUMP JUMPDEST PUSH2 0x120 DUP2 DUP2 MSTORE POP POP PUSH2 0xA9 PUSH1 0x1 DUP3 PUSH2 0x1BD PUSH1 0x20 SHL SWAP1 SWAP2 SWAP1 PUSH1 0x20 SHR JUMP JUMPDEST PUSH2 0x140 DUP2 DUP2 MSTORE POP POP DUP2 DUP1 MLOAD SWAP1 PUSH1 0x20 ADD KECCAK256 PUSH1 0xE0 DUP2 DUP2 MSTORE POP POP DUP1 DUP1 MLOAD SWAP1 PUSH1 0x20 ADD KECCAK256 PUSH2 0x100 DUP2 DUP2 MSTORE POP POP CHAINID PUSH1 0xA0 DUP2 DUP2 MSTORE POP POP PUSH2 0xE6 PUSH2 0x20A PUSH1 0x20 SHL PUSH1 0x20 SHR JUMP JUMPDEST PUSH1 0x80 DUP2 DUP2 MSTORE POP POP ADDRESS PUSH20 0xFFFFFFFFFFFFFFFFFFFFFFFFFFFFFFFFFFFFFFFF AND PUSH1 0xC0 DUP2 PUSH20 0xFFFFFFFFFFFFFFFFFFFFFFFFFFFFFFFFFFFFFFFF AND DUP2 MSTORE POP POP POP POP DUP1 PUSH1 0x3 SWAP1 DUP2 PUSH2 0x132 SWAP2 SWAP1 PUSH2 0xBCE JUMP JUMPDEST POP POP DUP1 PUSH20 0xFFFFFFFFFFFFFFFFFFFFFFFFFFFFFFFFFFFFFFFF AND PUSH2 0x160 DUP2 PUSH20 0xFFFFFFFFFFFFFFFFFFFFFFFFFFFFFFFFFFFFFFFF AND DUP2 MSTORE POP POP POP PUSH2 0x179 DUP2 PUSH2 0x264 PUSH1 0x20 SHL PUSH1 0x20 SHR JUMP JUMPDEST POP POP PUSH2 0xFF6 JUMP JUMPDEST PUSH1 0x60 PUSH1 0x40 MLOAD DUP1 PUSH1 0x40 ADD PUSH1 0x40 MSTORE DUP1 PUSH1 0x1 DUP2 MSTORE PUSH1 0x20 ADD PUSH32 0x3100000000000000000000000000000000000000000000000000000000000000 DUP2 MSTORE POP SWAP1 POP SWAP1 JUMP JUMPDEST PUSH0 PUSH1 0x20 DUP4 MLOAD LT ISZERO PUSH2 0x1DE JUMPI PUSH2 0x1D7 DUP4 PUSH2 0x33E PUSH1 0x20 SHL PUSH1 0x20 SHR JUMP JUMPDEST SWAP1 POP PUSH2 0x204 JUMP JUMPDEST DUP3 PUSH2 0x1EE DUP4 PUSH2 0x3A3 PUSH1 0x20 SHL PUSH1 0x20 SHR JUMP JUMPDEST PUSH0 ADD SWAP1 DUP2 PUSH2 0x1FC SWAP2 SWAP1 PUSH2 0xBCE JUMP JUMPDEST POP PUSH1 0xFF PUSH0 SHL SWAP1 POP JUMPDEST SWAP3 SWAP2 POP POP JUMP JUMPDEST PUSH0 PUSH32 0x8B73C3C69BB8FE3D512ECC4CF759CC79239F7B179B0FFACAA9A75D522B39400F PUSH1 0xE0 MLOAD PUSH2 0x100 MLOAD CHAINID ADDRESS PUSH1 0x40 MLOAD PUSH1 0x20 ADD PUSH2 0x249 SWAP6 SWAP5 SWAP4 SWAP3 SWAP2 SWAP1 PUSH2 0xCD3 JUMP JUMPDEST PUSH1 0x40 MLOAD PUSH1 0x20 DUP2 DUP4 SUB SUB DUP2 MSTORE SWAP1 PUSH1 0x40 MSTORE DUP1 MLOAD SWAP1 PUSH1 0x20 ADD KECCAK256 SWAP1 POP SWAP1 JUMP JUMPDEST PUSH0 PUSH2 0x273 PUSH2 0x3AC PUSH1 0x20 SHL PUSH1 0x20 SHR JUMP JUMPDEST SWAP1 POP DUP1 DUP3 GT ISZERO PUSH2 0x2BC JUMPI DUP2 DUP2 PUSH1 0x40 MLOAD PUSH32 0x243E544500000000000000000000000000000000000000000000000000000000 DUP2 MSTORE PUSH1 0x4 ADD PUSH2 0x2B3 SWAP3 SWAP2 SWAP1 PUSH2 0xD24 JUMP JUMPDEST PUSH1 0x40 MLOAD DUP1 SWAP2 SUB SWAP1 REVERT JUMPDEST PUSH0 PUSH2 0x2CB PUSH2 0x3B4 PUSH1 0x20 SHL PUSH1 0x20 SHR JUMP JUMPDEST SWAP1 POP PUSH2 0x2FE PUSH2 0x2DE PUSH2 0x3E6 PUSH1 0x20 SHL PUSH1 0x20 SHR JUMP JUMPDEST PUSH2 0x2ED DUP6 PUSH2 0x47D PUSH1 0x20 SHL PUSH1 0x20 SHR JUMP JUMPDEST PUSH1 0x8 PUSH2 0x4EA PUSH1 0x20 SHL SWAP1 SWAP3 SWAP2 SWAP1 PUSH1 0x20 SHR JUMP JUMPDEST POP POP PUSH32 0x553476BF02EF2726E8CE5CED78D63E26E602E4A2257B1F559418E24B4633997 DUP2 DUP5 PUSH1 0x40 MLOAD PUSH2 0x331 SWAP3 SWAP2 SWAP1 PUSH2 0xD24 JUMP JUMPDEST PUSH1 0x40 MLOAD DUP1 SWAP2 SUB SWAP1 LOG1 POP POP POP JUMP JUMPDEST PUSH0 PUSH0 DUP3 SWAP1 POP PUSH1 0x1F DUP2 MLOAD GT ISZERO PUSH2 0x38A JUMPI DUP3 PUSH1 0x40 MLOAD PUSH32 0x305A27A900000000000000000000000000000000000000000000000000000000 DUP2 MSTORE PUSH1 0x4 ADD PUSH2 0x381 SWAP2 SWAP1 PUSH2 0xDB1 JUMP JUMPDEST PUSH1 0x40 MLOAD DUP1 SWAP2 SUB SWAP1 REVERT JUMPDEST DUP1 MLOAD DUP2 PUSH2 0x396 SWAP1 PUSH2 0xDFE JUMP JUMPDEST PUSH0 SHR OR PUSH0 SHL SWAP2 POP POP SWAP2 SWAP1 POP JUMP JUMPDEST PUSH0 DUP2 SWAP1 POP SWAP2 SWAP1 POP JUMP JUMPDEST PUSH0 PUSH1 0x64 SWAP1 POP SWAP1 JUMP JUMPDEST PUSH0 PUSH2 0x3C5 PUSH1 0x8 PUSH2 0x50B PUSH1 0x20 SHL PUSH1 0x20 SHR JUMP JUMPDEST PUSH26 0xFFFFFFFFFFFFFFFFFFFFFFFFFFFFFFFFFFFFFFFFFFFFFFFFFFFF AND SWAP1 POP SWAP1 JUMP JUMPDEST PUSH0 PUSH2 0x3F5 PUSH2 0x573 PUSH1 0x20 SHL PUSH1 0x20 SHR JUMP JUMPDEST PUSH20 0xFFFFFFFFFFFFFFFFFFFFFFFFFFFFFFFFFFFFFFFF AND PUSH4 0x91DDADF4 PUSH1 0x40 MLOAD DUP2 PUSH4 0xFFFFFFFF AND PUSH1 0xE0 SHL DUP2 MSTORE PUSH1 0x4 ADD PUSH1 0x20 PUSH1 0x40 MLOAD DUP1 DUP4 SUB DUP2 DUP7 GAS STATICCALL SWAP3 POP POP POP DUP1 ISZERO PUSH2 0x45C JUMPI POP PUSH1 0x40 MLOAD RETURNDATASIZE PUSH1 0x1F NOT PUSH1 0x1F DUP3 ADD AND DUP3 ADD DUP1 PUSH1 0x40 MSTORE POP DUP2 ADD SWAP1 PUSH2 0x459 SWAP2 SWAP1 PUSH2 0xE9F JUMP JUMPDEST PUSH1 0x1 JUMPDEST PUSH2 0x475 JUMPI PUSH2 0x46E PUSH2 0x57D PUSH1 0x20 SHL PUSH1 0x20 SHR JUMP JUMPDEST SWAP1 POP PUSH2 0x47A JUMP JUMPDEST DUP1 SWAP2 POP POP JUMPDEST SWAP1 JUMP JUMPDEST PUSH0 PUSH26 0xFFFFFFFFFFFFFFFFFFFFFFFFFFFFFFFFFFFFFFFFFFFFFFFFFFFF DUP1 AND DUP3 GT ISZERO PUSH2 0x4E2 JUMPI PUSH1 0xD0 DUP3 PUSH1 0x40 MLOAD PUSH32 0x6DFCC65000000000000000000000000000000000000000000000000000000000 DUP2 MSTORE PUSH1 0x4 ADD PUSH2 0x4D9 SWAP3 SWAP2 SWAP1 PUSH2 0xF0F JUMP JUMPDEST PUSH1 0x40 MLOAD DUP1 SWAP2 SUB SWAP1 REVERT JUMPDEST DUP2 SWAP1 POP SWAP2 SWAP1 POP JUMP JUMPDEST PUSH0 PUSH0 PUSH2 0x4FF DUP6 PUSH0 ADD DUP6 DUP6 PUSH2 0x592 PUSH1 0x20 SHL PUSH1 0x20 SHR JUMP JUMPDEST SWAP2 POP SWAP2 POP SWAP4 POP SWAP4 SWAP2 POP POP JUMP JUMPDEST PUSH0 PUSH0 DUP3 PUSH0 ADD DUP1 SLOAD SWAP1 POP SWAP1 POP PUSH0 DUP2 EQ PUSH2 0x569 JUMPI PUSH2 0x53B DUP4 PUSH0 ADD PUSH1 0x1 DUP4 PUSH2 0x530 SWAP2 SWAP1 PUSH2 0xF63 JUMP JUMPDEST PUSH2 0x88C PUSH1 0x20 SHL PUSH1 0x20 SHR JUMP JUMPDEST PUSH0 ADD PUSH1 0x6 SWAP1 SLOAD SWAP1 PUSH2 0x100 EXP SWAP1 DIV PUSH26 0xFFFFFFFFFFFFFFFFFFFFFFFFFFFFFFFFFFFFFFFFFFFFFFFFFFFF AND PUSH2 0x56B JUMP JUMPDEST PUSH0 JUMPDEST SWAP2 POP POP SWAP2 SWAP1 POP JUMP JUMPDEST PUSH0 PUSH2 0x160 MLOAD SWAP1 POP SWAP1 JUMP JUMPDEST PUSH0 PUSH2 0x58D NUMBER PUSH2 0x89E PUSH1 0x20 SHL PUSH1 0x20 SHR JUMP JUMPDEST SWAP1 POP SWAP1 JUMP JUMPDEST PUSH0 PUSH0 PUSH0 DUP6 DUP1 SLOAD SWAP1 POP SWAP1 POP PUSH0 DUP2 GT ISZERO PUSH2 0x7A4 JUMPI PUSH0 PUSH2 0x5C1 DUP8 PUSH1 0x1 DUP5 PUSH2 0x5B6 SWAP2 SWAP1 PUSH2 0xF63 JUMP JUMPDEST PUSH2 0x88C PUSH1 0x20 SHL PUSH1 0x20 SHR JUMP JUMPDEST SWAP1 POP PUSH0 DUP2 PUSH0 ADD PUSH0 SWAP1 SLOAD SWAP1 PUSH2 0x100 EXP SWAP1 DIV PUSH6 0xFFFFFFFFFFFF AND SWAP1 POP PUSH0 DUP3 PUSH0 ADD PUSH1 0x6 SWAP1 SLOAD SWAP1 PUSH2 0x100 EXP SWAP1 DIV PUSH26 0xFFFFFFFFFFFFFFFFFFFFFFFFFFFFFFFFFFFFFFFFFFFFFFFFFFFF AND SWAP1 POP DUP8 PUSH6 0xFFFFFFFFFFFF AND DUP3 PUSH6 0xFFFFFFFFFFFF AND GT ISZERO PUSH2 0x652 JUMPI PUSH1 0x40 MLOAD PUSH32 0x2520601D00000000000000000000000000000000000000000000000000000000 DUP2 MSTORE PUSH1 0x4 ADD PUSH1 0x40 MLOAD DUP1 SWAP2 SUB SWAP1 REVERT JUMPDEST DUP8 PUSH6 0xFFFFFFFFFFFF AND DUP3 PUSH6 0xFFFFFFFFFFFF AND SUB PUSH2 0x6BC JUMPI DUP7 DUP4 PUSH0 ADD PUSH1 0x6 PUSH2 0x100 EXP DUP2 SLOAD DUP2 PUSH26 0xFFFFFFFFFFFFFFFFFFFFFFFFFFFFFFFFFFFFFFFFFFFFFFFFFFFF MUL NOT AND SWAP1 DUP4 PUSH26 0xFFFFFFFFFFFFFFFFFFFFFFFFFFFFFFFFFFFFFFFFFFFFFFFFFFFF AND MUL OR SWAP1 SSTORE POP PUSH2 0x795 JUMP JUMPDEST DUP9 PUSH1 0x40 MLOAD DUP1 PUSH1 0x40 ADD PUSH1 0x40 MSTORE DUP1 DUP11 PUSH6 0xFFFFFFFFFFFF AND DUP2 MSTORE PUSH1 0x20 ADD DUP10 PUSH26 0xFFFFFFFFFFFFFFFFFFFFFFFFFFFFFFFFFFFFFFFFFFFFFFFFFFFF AND DUP2 MSTORE POP SWAP1 DUP1 PUSH1 0x1 DUP2 SLOAD ADD DUP1 DUP3 SSTORE DUP1 SWAP2 POP POP PUSH1 0x1 SWAP1 SUB SWAP1 PUSH0 MSTORE PUSH1 0x20 PUSH0 KECCAK256 ADD PUSH0 SWAP1 SWAP2 SWAP1 SWAP2 SWAP1 SWAP2 POP PUSH0 DUP3 ADD MLOAD DUP2 PUSH0 ADD PUSH0 PUSH2 0x100 EXP DUP2 SLOAD DUP2 PUSH6 0xFFFFFFFFFFFF MUL NOT AND SWAP1 DUP4 PUSH6 0xFFFFFFFFFFFF AND MUL OR SWAP1 SSTORE POP PUSH1 0x20 DUP3 ADD MLOAD DUP2 PUSH0 ADD PUSH1 0x6 PUSH2 0x100 EXP DUP2 SLOAD DUP2 PUSH26 0xFFFFFFFFFFFFFFFFFFFFFFFFFFFFFFFFFFFFFFFFFFFFFFFFFFFF MUL NOT AND SWAP1 DUP4 PUSH26 0xFFFFFFFFFFFFFFFFFFFFFFFFFFFFFFFFFFFFFFFFFFFFFFFFFFFF AND MUL OR SWAP1 SSTORE POP POP POP JUMPDEST DUP1 DUP8 SWAP6 POP SWAP6 POP POP POP POP POP PUSH2 0x884 JUMP JUMPDEST DUP6 PUSH1 0x40 MLOAD DUP1 PUSH1 0x40 ADD PUSH1 0x40 MSTORE DUP1 DUP8 PUSH6 0xFFFFFFFFFFFF AND DUP2 MSTORE PUSH1 0x20 ADD DUP7 PUSH26 0xFFFFFFFFFFFFFFFFFFFFFFFFFFFFFFFFFFFFFFFFFFFFFFFFFFFF AND DUP2 MSTORE POP SWAP1 DUP1 PUSH1 0x1 DUP2 SLOAD ADD DUP1 DUP3 SSTORE DUP1 SWAP2 POP POP PUSH1 0x1 SWAP1 SUB SWAP1 PUSH0 MSTORE PUSH1 0x20 PUSH0 KECCAK256 ADD PUSH0 SWAP1 SWAP2 SWAP1 SWAP2 SWAP1 SWAP2 POP PUSH0 DUP3 ADD MLOAD DUP2 PUSH0 ADD PUSH0 PUSH2 0x100 EXP DUP2 SLOAD DUP2 PUSH6 0xFFFFFFFFFFFF MUL NOT AND SWAP1 DUP4 PUSH6 0xFFFFFFFFFFFF AND MUL OR SWAP1 SSTORE POP PUSH1 0x20 DUP3 ADD MLOAD DUP2 PUSH0 ADD PUSH1 0x6 PUSH2 0x100 EXP DUP2 SLOAD DUP2 PUSH26 0xFFFFFFFFFFFFFFFFFFFFFFFFFFFFFFFFFFFFFFFFFFFFFFFFFFFF MUL NOT AND SWAP1 DUP4 PUSH26 0xFFFFFFFFFFFFFFFFFFFFFFFFFFFFFFFFFFFFFFFFFFFFFFFFFFFF AND MUL OR SWAP1 SSTORE POP POP POP PUSH0 DUP5 SWAP3 POP SWAP3 POP POP JUMPDEST SWAP4 POP SWAP4 SWAP2 POP POP JUMP JUMPDEST PUSH0 DUP3 PUSH0 MSTORE DUP2 PUSH1 0x20 PUSH0 KECCAK256 ADD SWAP1 POP SWAP3 SWAP2 POP POP JUMP JUMPDEST PUSH0 PUSH6 0xFFFFFFFFFFFF DUP1 AND DUP3 GT ISZERO PUSH2 0x8EF JUMPI PUSH1 0x30 DUP3 PUSH1 0x40 MLOAD PUSH32 0x6DFCC65000000000000000000000000000000000000000000000000000000000 DUP2 MSTORE PUSH1 0x4 ADD PUSH2 0x8E6 SWAP3 SWAP2 SWAP1 PUSH2 0xFCF JUMP JUMPDEST PUSH1 0x40 MLOAD DUP1 SWAP2 SUB SWAP1 REVERT JUMPDEST DUP2 SWAP1 POP SWAP2 SWAP1 POP JUMP JUMPDEST PUSH0 PUSH0 REVERT JUMPDEST PUSH0 PUSH20 0xFFFFFFFFFFFFFFFFFFFFFFFFFFFFFFFFFFFFFFFF DUP3 AND SWAP1 POP SWAP2 SWAP1 POP JUMP JUMPDEST PUSH0 PUSH2 0x924 DUP3 PUSH2 0x8FB JUMP JUMPDEST SWAP1 POP SWAP2 SWAP1 POP JUMP JUMPDEST PUSH0 PUSH2 0x935 DUP3 PUSH2 0x91A JUMP JUMPDEST SWAP1 POP SWAP2 SWAP1 POP JUMP JUMPDEST PUSH2 0x945 DUP2 PUSH2 0x92B JUMP JUMPDEST DUP2 EQ PUSH2 0x94F JUMPI PUSH0 PUSH0 REVERT JUMPDEST POP JUMP JUMPDEST PUSH0 DUP2 MLOAD SWAP1 POP PUSH2 0x960 DUP2 PUSH2 0x93C JUMP JUMPDEST SWAP3 SWAP2 POP POP JUMP JUMPDEST PUSH0 PUSH1 0x20 DUP3 DUP5 SUB SLT ISZERO PUSH2 0x97B JUMPI PUSH2 0x97A PUSH2 0x8F7 JUMP JUMPDEST JUMPDEST PUSH0 PUSH2 0x988 DUP5 DUP3 DUP6 ADD PUSH2 0x952 JUMP JUMPDEST SWAP2 POP POP SWAP3 SWAP2 POP POP JUMP JUMPDEST PUSH0 DUP2 MLOAD SWAP1 POP SWAP2 SWAP1 POP JUMP JUMPDEST PUSH32 0x4E487B7100000000000000000000000000000000000000000000000000000000 PUSH0 MSTORE PUSH1 0x41 PUSH1 0x4 MSTORE PUSH1 0x24 PUSH0 REVERT JUMPDEST PUSH32 0x4E487B7100000000000000000000000000000000000000000000000000000000 PUSH0 MSTORE PUSH1 0x22 PUSH1 0x4 MSTORE PUSH1 0x24 PUSH0 REVERT JUMPDEST PUSH0 PUSH1 0x2 DUP3 DIV SWAP1 POP PUSH1 0x1 DUP3 AND DUP1 PUSH2 0xA0C JUMPI PUSH1 0x7F DUP3 AND SWAP2 POP JUMPDEST PUSH1 0x20 DUP3 LT DUP2 SUB PUSH2 0xA1F JUMPI PUSH2 0xA1E PUSH2 0x9C8 JUMP JUMPDEST JUMPDEST POP SWAP2 SWAP1 POP JUMP JUMPDEST PUSH0 DUP2 SWAP1 POP DUP2 PUSH0 MSTORE PUSH1 0x20 PUSH0 KECCAK256 SWAP1 POP SWAP2 SWAP1 POP JUMP JUMPDEST PUSH0 PUSH1 0x20 PUSH1 0x1F DUP4 ADD DIV SWAP1 POP SWAP2 SWAP1 POP JUMP JUMPDEST PUSH0 DUP3 DUP3 SHL SWAP1 POP SWAP3 SWAP2 POP POP JUMP JUMPDEST PUSH0 PUSH1 0x8 DUP4 MUL PUSH2 0xA81 PUSH32 0xFFFFFFFFFFFFFFFFFFFFFFFFFFFFFFFFFFFFFFFFFFFFFFFFFFFFFFFFFFFFFFFF DUP3 PUSH2 0xA46 JUMP JUMPDEST PUSH2 0xA8B DUP7 DUP4 PUSH2 0xA46 JUMP JUMPDEST SWAP6 POP DUP1 NOT DUP5 AND SWAP4 POP DUP1 DUP7 AND DUP5 OR SWAP3 POP POP POP SWAP4 SWAP3 POP POP POP JUMP JUMPDEST PUSH0 DUP2 SWAP1 POP SWAP2 SWAP1 POP JUMP JUMPDEST PUSH0 DUP2 SWAP1 POP SWAP2 SWAP1 POP JUMP JUMPDEST PUSH0 PUSH2 0xACF PUSH2 0xACA PUSH2 0xAC5 DUP5 PUSH2 0xAA3 JUMP JUMPDEST PUSH2 0xAAC JUMP JUMPDEST PUSH2 0xAA3 JUMP JUMPDEST SWAP1 POP SWAP2 SWAP1 POP JUMP JUMPDEST PUSH0 DUP2 SWAP1 POP SWAP2 SWAP1 POP JUMP JUMPDEST PUSH2 0xAE8 DUP4 PUSH2 0xAB5 JUMP JUMPDEST PUSH2 0xAFC PUSH2 0xAF4 DUP3 PUSH2 0xAD6 JUMP JUMPDEST DUP5 DUP5 SLOAD PUSH2 0xA52 JUMP JUMPDEST DUP3 SSTORE POP POP POP POP JUMP JUMPDEST PUSH0 PUSH0 SWAP1 POP SWAP1 JUMP JUMPDEST PUSH2 0xB13 PUSH2 0xB04 JUMP JUMPDEST PUSH2 0xB1E DUP2 DUP5 DUP5 PUSH2 0xADF JUMP JUMPDEST POP POP POP JUMP JUMPDEST JUMPDEST DUP2 DUP2 LT ISZERO PUSH2 0xB41 JUMPI PUSH2 0xB36 PUSH0 DUP3 PUSH2 0xB0B JUMP JUMPDEST PUSH1 0x1 DUP2 ADD SWAP1 POP PUSH2 0xB24 JUMP JUMPDEST POP POP JUMP JUMPDEST PUSH1 0x1F DUP3 GT ISZERO PUSH2 0xB86 JUMPI PUSH2 0xB57 DUP2 PUSH2 0xA25 JUMP JUMPDEST PUSH2 0xB60 DUP5 PUSH2 0xA37 JUMP JUMPDEST DUP2 ADD PUSH1 0x20 DUP6 LT ISZERO PUSH2 0xB6F JUMPI DUP2 SWAP1 POP JUMPDEST PUSH2 0xB83 PUSH2 0xB7B DUP6 PUSH2 0xA37 JUMP JUMPDEST DUP4 ADD DUP3 PUSH2 0xB23 JUMP JUMPDEST POP POP JUMPDEST POP POP POP JUMP JUMPDEST PUSH0 DUP3 DUP3 SHR SWAP1 POP SWAP3 SWAP2 POP POP JUMP JUMPDEST PUSH0 PUSH2 0xBA6 PUSH0 NOT DUP5 PUSH1 0x8 MUL PUSH2 0xB8B JUMP JUMPDEST NOT DUP1 DUP4 AND SWAP2 POP POP SWAP3 SWAP2 POP POP JUMP JUMPDEST PUSH0 PUSH2 0xBBE DUP4 DUP4 PUSH2 0xB97 JUMP JUMPDEST SWAP2 POP DUP3 PUSH1 0x2 MUL DUP3 OR SWAP1 POP SWAP3 SWAP2 POP POP JUMP JUMPDEST PUSH2 0xBD7 DUP3 PUSH2 0x991 JUMP JUMPDEST PUSH8 0xFFFFFFFFFFFFFFFF DUP2 GT ISZERO PUSH2 0xBF0 JUMPI PUSH2 0xBEF PUSH2 0x99B JUMP JUMPDEST JUMPDEST PUSH2 0xBFA DUP3 SLOAD PUSH2 0x9F5 JUMP JUMPDEST PUSH2 0xC05 DUP3 DUP3 DUP6 PUSH2 0xB45 JUMP JUMPDEST PUSH0 PUSH1 0x20 SWAP1 POP PUSH1 0x1F DUP4 GT PUSH1 0x1 DUP2 EQ PUSH2 0xC36 JUMPI PUSH0 DUP5 ISZERO PUSH2 0xC24 JUMPI DUP3 DUP8 ADD MLOAD SWAP1 POP JUMPDEST PUSH2 0xC2E DUP6 DUP3 PUSH2 0xBB3 JUMP JUMPDEST DUP7 SSTORE POP PUSH2 0xC95 JUMP JUMPDEST PUSH1 0x1F NOT DUP5 AND PUSH2 0xC44 DUP7 PUSH2 0xA25 JUMP JUMPDEST PUSH0 JUMPDEST DUP3 DUP2 LT ISZERO PUSH2 0xC6B JUMPI DUP5 DUP10 ADD MLOAD DUP3 SSTORE PUSH1 0x1 DUP3 ADD SWAP2 POP PUSH1 0x20 DUP6 ADD SWAP5 POP PUSH1 0x20 DUP2 ADD SWAP1 POP PUSH2 0xC46 JUMP JUMPDEST DUP7 DUP4 LT ISZERO PUSH2 0xC88 JUMPI DUP5 DUP10 ADD MLOAD PUSH2 0xC84 PUSH1 0x1F DUP10 AND DUP3 PUSH2 0xB97 JUMP JUMPDEST DUP4 SSTORE POP JUMPDEST PUSH1 0x1 PUSH1 0x2 DUP9 MUL ADD DUP9 SSTORE POP POP POP JUMPDEST POP POP POP POP POP POP JUMP JUMPDEST PUSH0 DUP2 SWAP1 POP SWAP2 SWAP1 POP JUMP JUMPDEST PUSH2 0xCAF DUP2 PUSH2 0xC9D JUMP JUMPDEST DUP3 MSTORE POP POP JUMP JUMPDEST PUSH2 0xCBE DUP2 PUSH2 0xAA3 JUMP JUMPDEST DUP3 MSTORE POP POP JUMP JUMPDEST PUSH2 0xCCD DUP2 PUSH2 0x91A JUMP JUMPDEST DUP3 MSTORE POP POP JUMP JUMPDEST PUSH0 PUSH1 0xA0 DUP3 ADD SWAP1 POP PUSH2 0xCE6 PUSH0 DUP4 ADD DUP9 PUSH2 0xCA6 JUMP JUMPDEST PUSH2 0xCF3 PUSH1 0x20 DUP4 ADD DUP8 PUSH2 0xCA6 JUMP JUMPDEST PUSH2 0xD00 PUSH1 0x40 DUP4 ADD DUP7 PUSH2 0xCA6 JUMP JUMPDEST PUSH2 0xD0D PUSH1 0x60 DUP4 ADD DUP6 PUSH2 0xCB5 JUMP JUMPDEST PUSH2 0xD1A PUSH1 0x80 DUP4 ADD DUP5 PUSH2 0xCC4 JUMP JUMPDEST SWAP7 SWAP6 POP POP POP POP POP POP JUMP JUMPDEST PUSH0 PUSH1 0x40 DUP3 ADD SWAP1 POP PUSH2 0xD37 PUSH0 DUP4 ADD DUP6 PUSH2 0xCB5 JUMP JUMPDEST PUSH2 0xD44 PUSH1 0x20 DUP4 ADD DUP5 PUSH2 0xCB5 JUMP JUMPDEST SWAP4 SWAP3 POP POP POP JUMP JUMPDEST PUSH0 DUP3 DUP3 MSTORE PUSH1 0x20 DUP3 ADD SWAP1 POP SWAP3 SWAP2 POP POP JUMP JUMPDEST DUP3 DUP2 DUP4 MCOPY PUSH0 DUP4 DUP4 ADD MSTORE POP POP POP JUMP JUMPDEST PUSH0 PUSH1 0x1F NOT PUSH1 0x1F DUP4 ADD AND SWAP1 POP SWAP2 SWAP1 POP JUMP JUMPDEST PUSH0 PUSH2 0xD83 DUP3 PUSH2 0x991 JUMP JUMPDEST PUSH2 0xD8D DUP2 DUP6 PUSH2 0xD4B JUMP JUMPDEST SWAP4 POP PUSH2 0xD9D DUP2 DUP6 PUSH1 0x20 DUP7 ADD PUSH2 0xD5B JUMP JUMPDEST PUSH2 0xDA6 DUP2 PUSH2 0xD69 JUMP JUMPDEST DUP5 ADD SWAP2 POP POP SWAP3 SWAP2 POP POP JUMP JUMPDEST PUSH0 PUSH1 0x20 DUP3 ADD SWAP1 POP DUP2 DUP2 SUB PUSH0 DUP4 ADD MSTORE PUSH2 0xDC9 DUP2 DUP5 PUSH2 0xD79 JUMP JUMPDEST SWAP1 POP SWAP3 SWAP2 POP POP JUMP JUMPDEST PUSH0 DUP2 MLOAD SWAP1 POP SWAP2 SWAP1 POP JUMP JUMPDEST PUSH0 DUP2 SWAP1 POP PUSH1 0x20 DUP3 ADD SWAP1 POP SWAP2 SWAP1 POP JUMP JUMPDEST PUSH0 PUSH2 0xDF5 DUP3 MLOAD PUSH2 0xC9D JUMP JUMPDEST DUP1 SWAP2 POP POP SWAP2 SWAP1 POP JUMP JUMPDEST PUSH0 PUSH2 0xE08 DUP3 PUSH2 0xDD1 JUMP JUMPDEST DUP3 PUSH2 0xE12 DUP5 PUSH2 0xDDB JUMP JUMPDEST SWAP1 POP PUSH2 0xE1D DUP2 PUSH2 0xDEA JUMP JUMPDEST SWAP3 POP PUSH1 0x20 DUP3 LT ISZERO PUSH2 0xE5D JUMPI PUSH2 0xE58 PUSH32 0xFFFFFFFFFFFFFFFFFFFFFFFFFFFFFFFFFFFFFFFFFFFFFFFFFFFFFFFFFFFFFFFF DUP4 PUSH1 0x20 SUB PUSH1 0x8 MUL PUSH2 0xA46 JUMP JUMPDEST DUP4 AND SWAP3 POP JUMPDEST POP POP SWAP2 SWAP1 POP JUMP JUMPDEST PUSH0 PUSH6 0xFFFFFFFFFFFF DUP3 AND SWAP1 POP SWAP2 SWAP1 POP JUMP JUMPDEST PUSH2 0xE7E DUP2 PUSH2 0xE64 JUMP JUMPDEST DUP2 EQ PUSH2 0xE88 JUMPI PUSH0 PUSH0 REVERT JUMPDEST POP JUMP JUMPDEST PUSH0 DUP2 MLOAD SWAP1 POP PUSH2 0xE99 DUP2 PUSH2 0xE75 JUMP JUMPDEST SWAP3 SWAP2 POP POP JUMP JUMPDEST PUSH0 PUSH1 0x20 DUP3 DUP5 SUB SLT ISZERO PUSH2 0xEB4 JUMPI PUSH2 0xEB3 PUSH2 0x8F7 JUMP JUMPDEST JUMPDEST PUSH0 PUSH2 0xEC1 DUP5 DUP3 DUP6 ADD PUSH2 0xE8B JUMP JUMPDEST SWAP2 POP POP SWAP3 SWAP2 POP POP JUMP JUMPDEST PUSH0 DUP2 SWAP1 POP SWAP2 SWAP1 POP JUMP JUMPDEST PUSH0 PUSH1 0xFF DUP3 AND SWAP1 POP SWAP2 SWAP1 POP JUMP JUMPDEST PUSH0 PUSH2 0xEF9 PUSH2 0xEF4 PUSH2 0xEEF DUP5 PUSH2 0xECA JUMP JUMPDEST PUSH2 0xAAC JUMP JUMPDEST PUSH2 0xED3 JUMP JUMPDEST SWAP1 POP SWAP2 SWAP1 POP JUMP JUMPDEST PUSH2 0xF09 DUP2 PUSH2 0xEDF JUMP JUMPDEST DUP3 MSTORE POP POP JUMP JUMPDEST PUSH0 PUSH1 0x40 DUP3 ADD SWAP1 POP PUSH2 0xF22 PUSH0 DUP4 ADD DUP6 PUSH2 0xF00 JUMP JUMPDEST PUSH2 0xF2F PUSH1 0x20 DUP4 ADD DUP5 PUSH2 0xCB5 JUMP JUMPDEST SWAP4 SWAP3 POP POP POP JUMP JUMPDEST PUSH32 0x4E487B7100000000000000000000000000000000000000000000000000000000 PUSH0 MSTORE PUSH1 0x11 PUSH1 0x4 MSTORE PUSH1 0x24 PUSH0 REVERT JUMPDEST PUSH0 PUSH2 0xF6D DUP3 PUSH2 0xAA3 JUMP JUMPDEST SWAP2 POP PUSH2 0xF78 DUP4 PUSH2 0xAA3 JUMP JUMPDEST SWAP3 POP DUP3 DUP3 SUB SWAP1 POP DUP2 DUP2 GT ISZERO PUSH2 0xF90 JUMPI PUSH2 0xF8F PUSH2 0xF36 JUMP JUMPDEST JUMPDEST SWAP3 SWAP2 POP POP JUMP JUMPDEST PUSH0 DUP2 SWAP1 POP SWAP2 SWAP1 POP JUMP JUMPDEST PUSH0 PUSH2 0xFB9 PUSH2 0xFB4 PUSH2 0xFAF DUP5 PUSH2 0xF96 JUMP JUMPDEST PUSH2 0xAAC JUMP JUMPDEST PUSH2 0xED3 JUMP JUMPDEST SWAP1 POP SWAP2 SWAP1 POP JUMP JUMPDEST PUSH2 0xFC9 DUP2 PUSH2 0xF9F JUMP JUMPDEST DUP3 MSTORE POP POP JUMP JUMPDEST PUSH0 PUSH1 0x40 DUP3 ADD SWAP1 POP PUSH2 0xFE2 PUSH0 DUP4 ADD DUP6 PUSH2 0xFC0 JUMP JUMPDEST PUSH2 0xFEF PUSH1 0x20 DUP4 ADD DUP5 PUSH2 0xCB5 JUMP JUMPDEST SWAP4 SWAP3 POP POP POP JUMP JUMPDEST PUSH1 0x80 MLOAD PUSH1 0xA0 MLOAD PUSH1 0xC0 MLOAD PUSH1 0xE0 MLOAD PUSH2 0x100 MLOAD PUSH2 0x120 MLOAD PUSH2 0x140 MLOAD PUSH2 0x160 MLOAD PUSH2 0x6462 PUSH2 0x1051 PUSH0 CODECOPY PUSH0 PUSH2 0x1E2A ADD MSTORE PUSH0 PUSH2 0x2B5F ADD MSTORE PUSH0 PUSH2 0x2B24 ADD MSTORE PUSH0 PUSH2 0x40F2 ADD MSTORE PUSH0 PUSH2 0x40D1 ADD MSTORE PUSH0 PUSH2 0x3A7C ADD MSTORE PUSH0 PUSH2 0x3AD2 ADD MSTORE PUSH0 PUSH2 0x3AFB ADD MSTORE PUSH2 0x6462 PUSH0 RETURN INVALID PUSH1 0x80 PUSH1 0x40 MSTORE PUSH1 0x4 CALLDATASIZE LT PUSH2 0x26A JUMPI PUSH0 CALLDATALOAD PUSH1 0xE0 SHR DUP1 PUSH4 0x7D5E81E2 GT PUSH2 0x143 JUMPI DUP1 PUSH4 0xB58131B0 GT PUSH2 0xB5 JUMPI DUP1 PUSH4 0xDD4E2BA5 GT PUSH2 0x79 JUMPI DUP1 PUSH4 0xDD4E2BA5 EQ PUSH2 0xACB JUMPI DUP1 PUSH4 0xDEAAA7CC EQ PUSH2 0xAF5 JUMPI DUP1 PUSH4 0xEB9019D4 EQ PUSH2 0xB1F JUMPI DUP1 PUSH4 0xF23A6E61 EQ PUSH2 0xB5B JUMPI DUP1 PUSH4 0xF8CE560A EQ PUSH2 0xB97 JUMPI DUP1 PUSH4 0xFC0C546A EQ PUSH2 0xBD3 JUMPI PUSH2 0x2DD JUMP JUMPDEST DUP1 PUSH4 0xB58131B0 EQ PUSH2 0x9D1 JUMPI DUP1 PUSH4 0xBC197C81 EQ PUSH2 0x9FB JUMPI DUP1 PUSH4 0xC01F9E37 EQ PUSH2 0xA37 JUMPI DUP1 PUSH4 0xC28BC2FA EQ PUSH2 0xA73 JUMPI DUP1 PUSH4 0xC59057E4 EQ PUSH2 0xA8F JUMPI PUSH2 0x2DD JUMP JUMPDEST DUP1 PUSH4 0x97C3D334 GT PUSH2 0x107 JUMPI DUP1 PUSH4 0x97C3D334 EQ PUSH2 0x88D JUMPI DUP1 PUSH4 0x9A802A6D EQ PUSH2 0x8B7 JUMPI DUP1 PUSH4 0xA7713A70 EQ PUSH2 0x8F3 JUMPI DUP1 PUSH4 0xA8F8A668 EQ PUSH2 0x91D JUMPI DUP1 PUSH4 0xA9A95294 EQ PUSH2 0x959 JUMPI DUP1 PUSH4 0xAB58FB8E EQ PUSH2 0x995 JUMPI PUSH2 0x2DD JUMP JUMPDEST DUP1 PUSH4 0x7D5E81E2 EQ PUSH2 0x77F JUMPI DUP1 PUSH4 0x7ECEBE00 EQ PUSH2 0x7BB JUMPI DUP1 PUSH4 0x84B0196E EQ PUSH2 0x7F7 JUMPI DUP1 PUSH4 0x8FF262E3 EQ PUSH2 0x827 JUMPI DUP1 PUSH4 0x91DDADF4 EQ PUSH2 0x863 JUMPI PUSH2 0x2DD JUMP JUMPDEST DUP1 PUSH4 0x3E4F49E6 GT PUSH2 0x1DC JUMPI DUP1 PUSH4 0x54FD4D50 GT PUSH2 0x1A0 JUMPI DUP1 PUSH4 0x54FD4D50 EQ PUSH2 0x629 JUMPI DUP1 PUSH4 0x56781388 EQ PUSH2 0x653 JUMPI DUP1 PUSH4 0x5B8D0E0D EQ PUSH2 0x68F JUMPI DUP1 PUSH4 0x5F398A14 EQ PUSH2 0x6CB JUMPI DUP1 PUSH4 0x60C4247F EQ PUSH2 0x707 JUMPI DUP1 PUSH4 0x7B3C71D3 EQ PUSH2 0x743 JUMPI PUSH2 0x2DD JUMP JUMPDEST DUP1 PUSH4 0x3E4F49E6 EQ PUSH2 0x50D JUMPI DUP1 PUSH4 0x43859632 EQ PUSH2 0x549 JUMPI DUP1 PUSH4 0x452115D6 EQ PUSH2 0x585 JUMPI DUP1 PUSH4 0x4BF5D7E9 EQ PUSH2 0x5C1 JUMPI DUP1 PUSH4 0x544FFC9C EQ PUSH2 0x5EB JUMPI PUSH2 0x2DD JUMP JUMPDEST DUP1 PUSH4 0x150B7A02 GT PUSH2 0x22E JUMPI DUP1 PUSH4 0x150B7A02 EQ PUSH2 0x3D5 JUMPI DUP1 PUSH4 0x160CBED7 EQ PUSH2 0x411 JUMPI DUP1 PUSH4 0x2656227D EQ PUSH2 0x44D JUMPI DUP1 PUSH4 0x2D63F693 EQ PUSH2 0x47D JUMPI DUP1 PUSH4 0x2FE3E261 EQ PUSH2 0x4B9 JUMPI DUP1 PUSH4 0x3932ABB1 EQ PUSH2 0x4E3 JUMPI PUSH2 0x2DD JUMP JUMPDEST DUP1 PUSH4 0x1FFC9A7 EQ PUSH2 0x2E1 JUMPI DUP1 PUSH4 0x2A251A3 EQ PUSH2 0x31D JUMPI DUP1 PUSH4 0x6F3F9E6 EQ PUSH2 0x347 JUMPI DUP1 PUSH4 0x6FDDE03 EQ PUSH2 0x36F JUMPI DUP1 PUSH4 0x143489D0 EQ PUSH2 0x399 JUMPI PUSH2 0x2DD JUMP JUMPDEST CALLDATASIZE PUSH2 0x2DD JUMPI ADDRESS PUSH20 0xFFFFFFFFFFFFFFFFFFFFFFFFFFFFFFFFFFFFFFFF AND PUSH2 0x28E PUSH2 0xBFD JUMP JUMPDEST PUSH20 0xFFFFFFFFFFFFFFFFFFFFFFFFFFFFFFFFFFFFFFFF AND EQ PUSH2 0x2DB JUMPI PUSH1 0x40 MLOAD PUSH32 0xE90A651E00000000000000000000000000000000000000000000000000000000 DUP2 MSTORE PUSH1 0x4 ADD PUSH1 0x40 MLOAD DUP1 SWAP2 SUB SWAP1 REVERT JUMPDEST STOP JUMPDEST PUSH0 PUSH0 REVERT JUMPDEST CALLVALUE DUP1 ISZERO PUSH2 0x2EC JUMPI PUSH0 PUSH0 REVERT JUMPDEST POP PUSH2 0x307 PUSH1 0x4 DUP1 CALLDATASIZE SUB DUP2 ADD SWAP1 PUSH2 0x302 SWAP2 SWAP1 PUSH2 0x4392 JUMP JUMPDEST PUSH2 0xC04 JUMP JUMPDEST PUSH1 0x40 MLOAD PUSH2 0x314 SWAP2 SWAP1 PUSH2 0x43D7 JUMP JUMPDEST PUSH1 0x40 MLOAD DUP1 SWAP2 SUB SWAP1 RETURN JUMPDEST CALLVALUE DUP1 ISZERO PUSH2 0x328 JUMPI PUSH0 PUSH0 REVERT JUMPDEST POP PUSH2 0x331 PUSH2 0xD56 JUMP JUMPDEST PUSH1 0x40 MLOAD PUSH2 0x33E SWAP2 SWAP1 PUSH2 0x4408 JUMP JUMPDEST PUSH1 0x40 MLOAD DUP1 SWAP2 SUB SWAP1 RETURN JUMPDEST CALLVALUE DUP1 ISZERO PUSH2 0x352 JUMPI PUSH0 PUSH0 REVERT JUMPDEST POP PUSH2 0x36D PUSH1 0x4 DUP1 CALLDATASIZE SUB DUP2 ADD SWAP1 PUSH2 0x368 SWAP2 SWAP1 PUSH2 0x444B JUMP JUMPDEST PUSH2 0xD5E JUMP JUMPDEST STOP JUMPDEST CALLVALUE DUP1 ISZERO PUSH2 0x37A JUMPI PUSH0 PUSH0 REVERT JUMPDEST POP PUSH2 0x383 PUSH2 0xD72 JUMP JUMPDEST PUSH1 0x40 MLOAD PUSH2 0x390 SWAP2 SWAP1 PUSH2 0x44E6 JUMP JUMPDEST PUSH1 0x40 MLOAD DUP1 SWAP2 SUB SWAP1 RETURN JUMPDEST CALLVALUE DUP1 ISZERO PUSH2 0x3A4 JUMPI PUSH0 PUSH0 REVERT JUMPDEST POP PUSH2 0x3BF PUSH1 0x4 DUP1 CALLDATASIZE SUB DUP2 ADD SWAP1 PUSH2 0x3BA SWAP2 SWAP1 PUSH2 0x444B JUMP JUMPDEST PUSH2 0xE02 JUMP JUMPDEST PUSH1 0x40 MLOAD PUSH2 0x3CC SWAP2 SWAP1 PUSH2 0x4545 JUMP JUMPDEST PUSH1 0x40 MLOAD DUP1 SWAP2 SUB SWAP1 RETURN JUMPDEST CALLVALUE DUP1 ISZERO PUSH2 0x3E0 JUMPI PUSH0 PUSH0 REVERT JUMPDEST POP PUSH2 0x3FB PUSH1 0x4 DUP1 CALLDATASIZE SUB DUP2 ADD SWAP1 PUSH2 0x3F6 SWAP2 SWAP1 PUSH2 0x46B4 JUMP JUMPDEST PUSH2 0xE3D JUMP JUMPDEST PUSH1 0x40 MLOAD PUSH2 0x408 SWAP2 SWAP1 PUSH2 0x4743 JUMP JUMPDEST PUSH1 0x40 MLOAD DUP1 SWAP2 SUB SWAP1 RETURN JUMPDEST CALLVALUE DUP1 ISZERO PUSH2 0x41C JUMPI PUSH0 PUSH0 REVERT JUMPDEST POP PUSH2 0x437 PUSH1 0x4 DUP1 CALLDATASIZE SUB DUP2 ADD SWAP1 PUSH2 0x432 SWAP2 SWAP1 PUSH2 0x49F1 JUMP JUMPDEST PUSH2 0xEBC JUMP JUMPDEST PUSH1 0x40 MLOAD PUSH2 0x444 SWAP2 SWAP1 PUSH2 0x4408 JUMP JUMPDEST PUSH1 0x40 MLOAD DUP1 SWAP2 SUB SWAP1 RETURN JUMPDEST PUSH2 0x467 PUSH1 0x4 DUP1 CALLDATASIZE SUB DUP2 ADD SWAP1 PUSH2 0x462 SWAP2 SWAP1 PUSH2 0x49F1 JUMP JUMPDEST PUSH2 0xFB2 JUMP JUMPDEST PUSH1 0x40 MLOAD PUSH2 0x474 SWAP2 SWAP1 PUSH2 0x4408 JUMP JUMPDEST PUSH1 0x40 MLOAD DUP1 SWAP2 SUB SWAP1 RETURN JUMPDEST CALLVALUE DUP1 ISZERO PUSH2 0x488 JUMPI PUSH0 PUSH0 REVERT JUMPDEST POP PUSH2 0x4A3 PUSH1 0x4 DUP1 CALLDATASIZE SUB DUP2 ADD SWAP1 PUSH2 0x49E SWAP2 SWAP1 PUSH2 0x444B JUMP JUMPDEST PUSH2 0x118F JUMP JUMPDEST PUSH1 0x40 MLOAD PUSH2 0x4B0 SWAP2 SWAP1 PUSH2 0x4408 JUMP JUMPDEST PUSH1 0x40 MLOAD DUP1 SWAP2 SUB SWAP1 RETURN JUMPDEST CALLVALUE DUP1 ISZERO PUSH2 0x4C4 JUMPI PUSH0 PUSH0 REVERT JUMPDEST POP PUSH2 0x4CD PUSH2 0x11C5 JUMP JUMPDEST PUSH1 0x40 MLOAD PUSH2 0x4DA SWAP2 SWAP1 PUSH2 0x4AB8 JUMP JUMPDEST PUSH1 0x40 MLOAD DUP1 SWAP2 SUB SWAP1 RETURN JUMPDEST CALLVALUE DUP1 ISZERO PUSH2 0x4EE JUMPI PUSH0 PUSH0 REVERT JUMPDEST POP PUSH2 0x4F7 PUSH2 0x11E9 JUMP JUMPDEST PUSH1 0x40 MLOAD PUSH2 0x504 SWAP2 SWAP1 PUSH2 0x4408 JUMP JUMPDEST PUSH1 0x40 MLOAD DUP1 SWAP2 SUB SWAP1 RETURN JUMPDEST CALLVALUE DUP1 ISZERO PUSH2 0x518 JUMPI PUSH0 PUSH0 REVERT JUMPDEST POP PUSH2 0x533 PUSH1 0x4 DUP1 CALLDATASIZE SUB DUP2 ADD SWAP1 PUSH2 0x52E SWAP2 SWAP1 PUSH2 0x444B JUMP JUMPDEST PUSH2 0x11F1 JUMP JUMPDEST PUSH1 0x40 MLOAD PUSH2 0x540 SWAP2 SWAP1 PUSH2 0x4B44 JUMP JUMPDEST PUSH1 0x40 MLOAD DUP1 SWAP2 SUB SWAP1 RETURN JUMPDEST CALLVALUE DUP1 ISZERO PUSH2 0x554 JUMPI PUSH0 PUSH0 REVERT JUMPDEST POP PUSH2 0x56F PUSH1 0x4 DUP1 CALLDATASIZE SUB DUP2 ADD SWAP1 PUSH2 0x56A SWAP2 SWAP1 PUSH2 0x4B5D JUMP JUMPDEST PUSH2 0x1348 JUMP JUMPDEST PUSH1 0x40 MLOAD PUSH2 0x57C SWAP2 SWAP1 PUSH2 0x43D7 JUMP JUMPDEST PUSH1 0x40 MLOAD DUP1 SWAP2 SUB SWAP1 RETURN JUMPDEST CALLVALUE DUP1 ISZERO PUSH2 0x590 JUMPI PUSH0 PUSH0 REVERT JUMPDEST POP PUSH2 0x5AB PUSH1 0x4 DUP1 CALLDATASIZE SUB DUP2 ADD SWAP1 PUSH2 0x5A6 SWAP2 SWAP1 PUSH2 0x49F1 JUMP JUMPDEST PUSH2 0x13AD JUMP JUMPDEST PUSH1 0x40 MLOAD PUSH2 0x5B8 SWAP2 SWAP1 PUSH2 0x4408 JUMP JUMPDEST PUSH1 0x40 MLOAD DUP1 SWAP2 SUB SWAP1 RETURN JUMPDEST CALLVALUE DUP1 ISZERO PUSH2 0x5CC JUMPI PUSH0 PUSH0 REVERT JUMPDEST POP PUSH2 0x5D5 PUSH2 0x142D JUMP JUMPDEST PUSH1 0x40 MLOAD PUSH2 0x5E2 SWAP2 SWAP1 PUSH2 0x44E6 JUMP JUMPDEST PUSH1 0x40 MLOAD DUP1 SWAP2 SUB SWAP1 RETURN JUMPDEST CALLVALUE DUP1 ISZERO PUSH2 0x5F6 JUMPI PUSH0 PUSH0 REVERT JUMPDEST POP PUSH2 0x611 PUSH1 0x4 DUP1 CALLDATASIZE SUB DUP2 ADD SWAP1 PUSH2 0x60C SWAP2 SWAP1 PUSH2 0x444B JUMP JUMPDEST PUSH2 0x14EA JUMP JUMPDEST PUSH1 0x40 MLOAD PUSH2 0x620 SWAP4 SWAP3 SWAP2 SWAP1 PUSH2 0x4B9B JUMP JUMPDEST PUSH1 0x40 MLOAD DUP1 SWAP2 SUB SWAP1 RETURN JUMPDEST CALLVALUE DUP1 ISZERO PUSH2 0x634 JUMPI PUSH0 PUSH0 REVERT JUMPDEST POP PUSH2 0x63D PUSH2 0x151D JUMP JUMPDEST PUSH1 0x40 MLOAD PUSH2 0x64A SWAP2 SWAP1 PUSH2 0x44E6 JUMP JUMPDEST PUSH1 0x40 MLOAD DUP1 SWAP2 SUB SWAP1 RETURN JUMPDEST CALLVALUE DUP1 ISZERO PUSH2 0x65E JUMPI PUSH0 PUSH0 REVERT JUMPDEST POP PUSH2 0x679 PUSH1 0x4 DUP1 CALLDATASIZE SUB DUP2 ADD SWAP1 PUSH2 0x674 SWAP2 SWAP1 PUSH2 0x4C06 JUMP JUMPDEST PUSH2 0x155A JUMP JUMPDEST PUSH1 0x40 MLOAD PUSH2 0x686 SWAP2 SWAP1 PUSH2 0x4408 JUMP JUMPDEST PUSH1 0x40 MLOAD DUP1 SWAP2 SUB SWAP1 RETURN JUMPDEST CALLVALUE DUP1 ISZERO PUSH2 0x69A JUMPI PUSH0 PUSH0 REVERT JUMPDEST POP PUSH2 0x6B5 PUSH1 0x4 DUP1 CALLDATASIZE SUB DUP2 ADD SWAP1 PUSH2 0x6B0 SWAP2 SWAP1 PUSH2 0x4C9D JUMP JUMPDEST PUSH2 0x1589 JUMP JUMPDEST PUSH1 0x40 MLOAD PUSH2 0x6C2 SWAP2 SWAP1 PUSH2 0x4408 JUMP JUMPDEST PUSH1 0x40 MLOAD DUP1 SWAP2 SUB SWAP1 RETURN JUMPDEST CALLVALUE DUP1 ISZERO PUSH2 0x6D6 JUMPI PUSH0 PUSH0 REVERT JUMPDEST POP PUSH2 0x6F1 PUSH1 0x4 DUP1 CALLDATASIZE SUB DUP2 ADD SWAP1 PUSH2 0x6EC SWAP2 SWAP1 PUSH2 0x4D7F JUMP JUMPDEST PUSH2 0x1679 JUMP JUMPDEST PUSH1 0x40 MLOAD PUSH2 0x6FE SWAP2 SWAP1 PUSH2 0x4408 JUMP JUMPDEST PUSH1 0x40 MLOAD DUP1 SWAP2 SUB SWAP1 RETURN JUMPDEST CALLVALUE DUP1 ISZERO PUSH2 0x712 JUMPI PUSH0 PUSH0 REVERT JUMPDEST POP PUSH2 0x72D PUSH1 0x4 DUP1 CALLDATASIZE SUB DUP2 ADD SWAP1 PUSH2 0x728 SWAP2 SWAP1 PUSH2 0x444B JUMP JUMPDEST PUSH2 0x16E1 JUMP JUMPDEST PUSH1 0x40 MLOAD PUSH2 0x73A SWAP2 SWAP1 PUSH2 0x4408 JUMP JUMPDEST PUSH1 0x40 MLOAD DUP1 SWAP2 SUB SWAP1 RETURN JUMPDEST CALLVALUE DUP1 ISZERO PUSH2 0x74E JUMPI PUSH0 PUSH0 REVERT JUMPDEST POP PUSH2 0x769 PUSH1 0x4 DUP1 CALLDATASIZE SUB DUP2 ADD SWAP1 PUSH2 0x764 SWAP2 SWAP1 PUSH2 0x4E1F JUMP JUMPDEST PUSH2 0x16F4 JUMP JUMPDEST PUSH1 0x40 MLOAD PUSH2 0x776 SWAP2 SWAP1 PUSH2 0x4408 JUMP JUMPDEST PUSH1 0x40 MLOAD DUP1 SWAP2 SUB SWAP1 RETURN JUMPDEST CALLVALUE DUP1 ISZERO PUSH2 0x78A JUMPI PUSH0 PUSH0 REVERT JUMPDEST POP PUSH2 0x7A5 PUSH1 0x4 DUP1 CALLDATASIZE SUB DUP2 ADD SWAP1 PUSH2 0x7A0 SWAP2 SWAP1 PUSH2 0x4F2E JUMP JUMPDEST PUSH2 0x175A JUMP JUMPDEST PUSH1 0x40 MLOAD PUSH2 0x7B2 SWAP2 SWAP1 PUSH2 0x4408 JUMP JUMPDEST PUSH1 0x40 MLOAD DUP1 SWAP2 SUB SWAP1 RETURN JUMPDEST CALLVALUE DUP1 ISZERO PUSH2 0x7C6 JUMPI PUSH0 PUSH0 REVERT JUMPDEST POP PUSH2 0x7E1 PUSH1 0x4 DUP1 CALLDATASIZE SUB DUP2 ADD SWAP1 PUSH2 0x7DC SWAP2 SWAP1 PUSH2 0x5002 JUMP JUMPDEST PUSH2 0x1850 JUMP JUMPDEST PUSH1 0x40 MLOAD PUSH2 0x7EE SWAP2 SWAP1 PUSH2 0x4408 JUMP JUMPDEST PUSH1 0x40 MLOAD DUP1 SWAP2 SUB SWAP1 RETURN JUMPDEST CALLVALUE DUP1 ISZERO PUSH2 0x802 JUMPI PUSH0 PUSH0 REVERT JUMPDEST POP PUSH2 0x80B PUSH2 0x1896 JUMP JUMPDEST PUSH1 0x40 MLOAD PUSH2 0x81E SWAP8 SWAP7 SWAP6 SWAP5 SWAP4 SWAP3 SWAP2 SWAP1 PUSH2 0x511E JUMP JUMPDEST PUSH1 0x40 MLOAD DUP1 SWAP2 SUB SWAP1 RETURN JUMPDEST CALLVALUE DUP1 ISZERO PUSH2 0x832 JUMPI PUSH0 PUSH0 REVERT JUMPDEST POP PUSH2 0x84D PUSH1 0x4 DUP1 CALLDATASIZE SUB DUP2 ADD SWAP1 PUSH2 0x848 SWAP2 SWAP1 PUSH2 0x51A0 JUMP JUMPDEST PUSH2 0x193B JUMP JUMPDEST PUSH1 0x40 MLOAD PUSH2 0x85A SWAP2 SWAP1 PUSH2 0x4408 JUMP JUMPDEST PUSH1 0x40 MLOAD DUP1 SWAP2 SUB SWAP1 RETURN JUMPDEST CALLVALUE DUP1 ISZERO PUSH2 0x86E JUMPI PUSH0 PUSH0 REVERT JUMPDEST POP PUSH2 0x877 PUSH2 0x19AD JUMP JUMPDEST PUSH1 0x40 MLOAD PUSH2 0x884 SWAP2 SWAP1 PUSH2 0x5240 JUMP JUMPDEST PUSH1 0x40 MLOAD DUP1 SWAP2 SUB SWAP1 RETURN JUMPDEST CALLVALUE DUP1 ISZERO PUSH2 0x898 JUMPI PUSH0 PUSH0 REVERT JUMPDEST POP PUSH2 0x8A1 PUSH2 0x1A38 JUMP JUMPDEST PUSH1 0x40 MLOAD PUSH2 0x8AE SWAP2 SWAP1 PUSH2 0x4408 JUMP JUMPDEST PUSH1 0x40 MLOAD DUP1 SWAP2 SUB SWAP1 RETURN JUMPDEST CALLVALUE DUP1 ISZERO PUSH2 0x8C2 JUMPI PUSH0 PUSH0 REVERT JUMPDEST POP PUSH2 0x8DD PUSH1 0x4 DUP1 CALLDATASIZE SUB DUP2 ADD SWAP1 PUSH2 0x8D8 SWAP2 SWAP1 PUSH2 0x5259 JUMP JUMPDEST PUSH2 0x1A40 JUMP JUMPDEST PUSH1 0x40 MLOAD PUSH2 0x8EA SWAP2 SWAP1 PUSH2 0x4408 JUMP JUMPDEST PUSH1 0x40 MLOAD DUP1 SWAP2 SUB SWAP1 RETURN JUMPDEST CALLVALUE DUP1 ISZERO PUSH2 0x8FE JUMPI PUSH0 PUSH0 REVERT JUMPDEST POP PUSH2 0x907 PUSH2 0x1A55 JUMP JUMPDEST PUSH1 0x40 MLOAD PUSH2 0x914 SWAP2 SWAP1 PUSH2 0x4408 JUMP JUMPDEST PUSH1 0x40 MLOAD DUP1 SWAP2 SUB SWAP1 RETURN JUMPDEST CALLVALUE DUP1 ISZERO PUSH2 0x928 JUMPI PUSH0 PUSH0 REVERT JUMPDEST POP PUSH2 0x943 PUSH1 0x4 DUP1 CALLDATASIZE SUB DUP2 ADD SWAP1 PUSH2 0x93E SWAP2 SWAP1 PUSH2 0x49F1 JUMP JUMPDEST PUSH2 0x1A81 JUMP JUMPDEST PUSH1 0x40 MLOAD PUSH2 0x950 SWAP2 SWAP1 PUSH2 0x4408 JUMP JUMPDEST PUSH1 0x40 MLOAD DUP1 SWAP2 SUB SWAP1 RETURN JUMPDEST CALLVALUE DUP1 ISZERO PUSH2 0x964 JUMPI PUSH0 PUSH0 REVERT JUMPDEST POP PUSH2 0x97F PUSH1 0x4 DUP1 CALLDATASIZE SUB DUP2 ADD SWAP1 PUSH2 0x97A SWAP2 SWAP1 PUSH2 0x444B JUMP JUMPDEST PUSH2 0x1A98 JUMP JUMPDEST PUSH1 0x40 MLOAD PUSH2 0x98C SWAP2 SWAP1 PUSH2 0x43D7 JUMP JUMPDEST PUSH1 0x40 MLOAD DUP1 SWAP2 SUB SWAP1 RETURN JUMPDEST CALLVALUE DUP1 ISZERO PUSH2 0x9A0 JUMPI PUSH0 PUSH0 REVERT JUMPDEST POP PUSH2 0x9BB PUSH1 0x4 DUP1 CALLDATASIZE SUB DUP2 ADD SWAP1 PUSH2 0x9B6 SWAP2 SWAP1 PUSH2 0x444B JUMP JUMPDEST PUSH2 0x1AA1 JUMP JUMPDEST PUSH1 0x40 MLOAD PUSH2 0x9C8 SWAP2 SWAP1 PUSH2 0x4408 JUMP JUMPDEST PUSH1 0x40 MLOAD DUP1 SWAP2 SUB SWAP1 RETURN JUMPDEST CALLVALUE DUP1 ISZERO PUSH2 0x9DC JUMPI PUSH0 PUSH0 REVERT JUMPDEST POP PUSH2 0x9E5 PUSH2 0x1AD7 JUMP JUMPDEST PUSH1 0x40 MLOAD PUSH2 0x9F2 SWAP2 SWAP1 PUSH2 0x4408 JUMP JUMPDEST PUSH1 0x40 MLOAD DUP1 SWAP2 SUB SWAP1 RETURN JUMPDEST CALLVALUE DUP1 ISZERO PUSH2 0xA06 JUMPI PUSH0 PUSH0 REVERT JUMPDEST POP PUSH2 0xA21 PUSH1 0x4 DUP1 CALLDATASIZE SUB DUP2 ADD SWAP1 PUSH2 0xA1C SWAP2 SWAP1 PUSH2 0x52C5 JUMP JUMPDEST PUSH2 0x1ADE JUMP JUMPDEST PUSH1 0x40 MLOAD PUSH2 0xA2E SWAP2 SWAP1 PUSH2 0x4743 JUMP JUMPDEST PUSH1 0x40 MLOAD DUP1 SWAP2 SUB SWAP1 RETURN JUMPDEST CALLVALUE DUP1 ISZERO PUSH2 0xA42 JUMPI PUSH0 PUSH0 REVERT JUMPDEST POP PUSH2 0xA5D PUSH1 0x4 DUP1 CALLDATASIZE SUB DUP2 ADD SWAP1 PUSH2 0xA58 SWAP2 SWAP1 PUSH2 0x444B JUMP JUMPDEST PUSH2 0x1B5E JUMP JUMPDEST PUSH1 0x40 MLOAD PUSH2 0xA6A SWAP2 SWAP1 PUSH2 0x4408 JUMP JUMPDEST PUSH1 0x40 MLOAD DUP1 SWAP2 SUB SWAP1 RETURN JUMPDEST PUSH2 0xA8D PUSH1 0x4 DUP1 CALLDATASIZE SUB DUP2 ADD SWAP1 PUSH2 0xA88 SWAP2 SWAP1 PUSH2 0x53E5 JUMP JUMPDEST PUSH2 0x1BC8 JUMP JUMPDEST STOP JUMPDEST CALLVALUE DUP1 ISZERO PUSH2 0xA9A JUMPI PUSH0 PUSH0 REVERT JUMPDEST POP PUSH2 0xAB5 PUSH1 0x4 DUP1 CALLDATASIZE SUB DUP2 ADD SWAP1 PUSH2 0xAB0 SWAP2 SWAP1 PUSH2 0x49F1 JUMP JUMPDEST PUSH2 0x1C51 JUMP JUMPDEST PUSH1 0x40 MLOAD PUSH2 0xAC2 SWAP2 SWAP1 PUSH2 0x4408 JUMP JUMPDEST PUSH1 0x40 MLOAD DUP1 SWAP2 SUB SWAP1 RETURN JUMPDEST CALLVALUE DUP1 ISZERO PUSH2 0xAD6 JUMPI PUSH0 PUSH0 REVERT JUMPDEST POP PUSH2 0xADF PUSH2 0x1C8B JUMP JUMPDEST PUSH1 0x40 MLOAD PUSH2 0xAEC SWAP2 SWAP1 PUSH2 0x44E6 JUMP JUMPDEST PUSH1 0x40 MLOAD DUP1 SWAP2 SUB SWAP1 RETURN JUMPDEST CALLVALUE DUP1 ISZERO PUSH2 0xB00 JUMPI PUSH0 PUSH0 REVERT JUMPDEST POP PUSH2 0xB09 PUSH2 0x1CC8 JUMP JUMPDEST PUSH1 0x40 MLOAD PUSH2 0xB16 SWAP2 SWAP1 PUSH2 0x4AB8 JUMP JUMPDEST PUSH1 0x40 MLOAD DUP1 SWAP2 SUB SWAP1 RETURN JUMPDEST CALLVALUE DUP1 ISZERO PUSH2 0xB2A JUMPI PUSH0 PUSH0 REVERT JUMPDEST POP PUSH2 0xB45 PUSH1 0x4 DUP1 CALLDATASIZE SUB DUP2 ADD SWAP1 PUSH2 0xB40 SWAP2 SWAP1 PUSH2 0x5456 JUMP JUMPDEST PUSH2 0x1CEC JUMP JUMPDEST PUSH1 0x40 MLOAD PUSH2 0xB52 SWAP2 SWAP1 PUSH2 0x4408 JUMP JUMPDEST PUSH1 0x40 MLOAD DUP1 SWAP2 SUB SWAP1 RETURN JUMPDEST CALLVALUE DUP1 ISZERO PUSH2 0xB66 JUMPI PUSH0 PUSH0 REVERT JUMPDEST POP PUSH2 0xB81 PUSH1 0x4 DUP1 CALLDATASIZE SUB DUP2 ADD SWAP1 PUSH2 0xB7C SWAP2 SWAP1 PUSH2 0x5494 JUMP JUMPDEST PUSH2 0x1D07 JUMP JUMPDEST PUSH1 0x40 MLOAD PUSH2 0xB8E SWAP2 SWAP1 PUSH2 0x4743 JUMP JUMPDEST PUSH1 0x40 MLOAD DUP1 SWAP2 SUB SWAP1 RETURN JUMPDEST CALLVALUE DUP1 ISZERO PUSH2 0xBA2 JUMPI PUSH0 PUSH0 REVERT JUMPDEST POP PUSH2 0xBBD PUSH1 0x4 DUP1 CALLDATASIZE SUB DUP2 ADD SWAP1 PUSH2 0xBB8 SWAP2 SWAP1 PUSH2 0x444B JUMP JUMPDEST PUSH2 0x1D87 JUMP JUMPDEST PUSH1 0x40 MLOAD PUSH2 0xBCA SWAP2 SWAP1 PUSH2 0x4408 JUMP JUMPDEST PUSH1 0x40 MLOAD DUP1 SWAP2 SUB SWAP1 RETURN JUMPDEST CALLVALUE DUP1 ISZERO PUSH2 0xBDE JUMPI PUSH0 PUSH0 REVERT JUMPDEST POP PUSH2 0xBE7 PUSH2 0x1E27 JUMP JUMPDEST PUSH1 0x40 MLOAD PUSH2 0xBF4 SWAP2 SWAP1 PUSH2 0x5582 JUMP JUMPDEST PUSH1 0x40 MLOAD DUP1 SWAP2 SUB SWAP1 RETURN JUMPDEST PUSH0 ADDRESS SWAP1 POP SWAP1 JUMP JUMPDEST PUSH0 PUSH32 0xCDBDFCEE00000000000000000000000000000000000000000000000000000000 PUSH28 0xFFFFFFFFFFFFFFFFFFFFFFFFFFFFFFFFFFFFFFFFFFFFFFFFFFFFFFFF NOT AND DUP3 PUSH28 0xFFFFFFFFFFFFFFFFFFFFFFFFFFFFFFFFFFFFFFFFFFFFFFFFFFFFFFFF NOT AND EQ DUP1 PUSH2 0xCD7 JUMPI POP PUSH4 0xA8F8A668 PUSH1 0xE0 SHL PUSH32 0xCDBDFCEE00000000000000000000000000000000000000000000000000000000 XOR PUSH28 0xFFFFFFFFFFFFFFFFFFFFFFFFFFFFFFFFFFFFFFFFFFFFFFFFFFFFFFFF NOT AND DUP3 PUSH28 0xFFFFFFFFFFFFFFFFFFFFFFFFFFFFFFFFFFFFFFFFFFFFFFFFFFFFFFFF NOT AND EQ JUMPDEST DUP1 PUSH2 0xD3F JUMPI POP PUSH32 0x4E2312E000000000000000000000000000000000000000000000000000000000 PUSH28 0xFFFFFFFFFFFFFFFFFFFFFFFFFFFFFFFFFFFFFFFFFFFFFFFFFFFFFFFF NOT AND DUP3 PUSH28 0xFFFFFFFFFFFFFFFFFFFFFFFFFFFFFFFFFFFFFFFFFFFFFFFFFFFFFFFF NOT AND EQ JUMPDEST DUP1 PUSH2 0xD4F JUMPI POP PUSH2 0xD4E DUP3 PUSH2 0x1E4E JUMP JUMPDEST JUMPDEST SWAP1 POP SWAP2 SWAP1 POP JUMP JUMPDEST PUSH0 PUSH1 0x2 SWAP1 POP SWAP1 JUMP JUMPDEST PUSH2 0xD66 PUSH2 0x1EB7 JUMP JUMPDEST PUSH2 0xD6F DUP2 PUSH2 0x1FAC JUMP JUMPDEST POP JUMP JUMPDEST PUSH1 0x60 PUSH1 0x3 DUP1 SLOAD PUSH2 0xD81 SWAP1 PUSH2 0x55C8 JUMP JUMPDEST DUP1 PUSH1 0x1F ADD PUSH1 0x20 DUP1 SWAP2 DIV MUL PUSH1 0x20 ADD PUSH1 0x40 MLOAD SWAP1 DUP2 ADD PUSH1 0x40 MSTORE DUP1 SWAP3 SWAP2 SWAP1 DUP2 DUP2 MSTORE PUSH1 0x20 ADD DUP3 DUP1 SLOAD PUSH2 0xDAD SWAP1 PUSH2 0x55C8 JUMP JUMPDEST DUP1 ISZERO PUSH2 0xDF8 JUMPI DUP1 PUSH1 0x1F LT PUSH2 0xDCF JUMPI PUSH2 0x100 DUP1 DUP4 SLOAD DIV MUL DUP4 MSTORE SWAP2 PUSH1 0x20 ADD SWAP2 PUSH2 0xDF8 JUMP JUMPDEST DUP3 ADD SWAP2 SWAP1 PUSH0 MSTORE PUSH1 0x20 PUSH0 KECCAK256 SWAP1 JUMPDEST DUP2 SLOAD DUP2 MSTORE SWAP1 PUSH1 0x1 ADD SWAP1 PUSH1 0x20 ADD DUP1 DUP4 GT PUSH2 0xDDB JUMPI DUP3 SWAP1 SUB PUSH1 0x1F AND DUP3 ADD SWAP2 JUMPDEST POP POP POP POP POP SWAP1 POP SWAP1 JUMP JUMPDEST PUSH0 PUSH1 0x4 PUSH0 DUP4 DUP2 MSTORE PUSH1 0x20 ADD SWAP1 DUP2 MSTORE PUSH1 0x20 ADD PUSH0 KECCAK256 PUSH0 ADD PUSH0 SWAP1 SLOAD SWAP1 PUSH2 0x100 EXP SWAP1 DIV PUSH20 0xFFFFFFFFFFFFFFFFFFFFFFFFFFFFFFFFFFFFFFFF AND SWAP1 POP SWAP2 SWAP1 POP JUMP JUMPDEST PUSH0 ADDRESS PUSH20 0xFFFFFFFFFFFFFFFFFFFFFFFFFFFFFFFFFFFFFFFF AND PUSH2 0xE5D PUSH2 0xBFD JUMP JUMPDEST PUSH20 0xFFFFFFFFFFFFFFFFFFFFFFFFFFFFFFFFFFFFFFFF AND EQ PUSH2 0xEAA JUMPI PUSH1 0x40 MLOAD PUSH32 0xE90A651E00000000000000000000000000000000000000000000000000000000 DUP2 MSTORE PUSH1 0x4 ADD PUSH1 0x40 MLOAD DUP1 SWAP2 SUB SWAP1 REVERT JUMPDEST PUSH4 0x150B7A02 PUSH1 0xE0 SHL SWAP1 POP SWAP5 SWAP4 POP POP POP POP JUMP JUMPDEST PUSH0 PUSH0 PUSH2 0xECA DUP7 DUP7 DUP7 DUP7 PUSH2 0x1A81 JUMP JUMPDEST SWAP1 POP PUSH2 0xEDF DUP2 PUSH2 0xEDA PUSH1 0x4 PUSH2 0x206E JUMP JUMPDEST PUSH2 0x2092 JUMP JUMPDEST POP PUSH0 PUSH2 0xEEE DUP3 DUP9 DUP9 DUP9 DUP9 PUSH2 0x20FD JUMP JUMPDEST SWAP1 POP PUSH0 DUP2 PUSH6 0xFFFFFFFFFFFF AND EQ PUSH2 0xF73 JUMPI DUP1 PUSH1 0x4 PUSH0 DUP5 DUP2 MSTORE PUSH1 0x20 ADD SWAP1 DUP2 MSTORE PUSH1 0x20 ADD PUSH0 KECCAK256 PUSH1 0x1 ADD PUSH0 PUSH2 0x100 EXP DUP2 SLOAD DUP2 PUSH6 0xFFFFFFFFFFFF MUL NOT AND SWAP1 DUP4 PUSH6 0xFFFFFFFFFFFF AND MUL OR SWAP1 SSTORE POP PUSH32 0x9A2E42FD6722813D69113E7D0079D3D940171428DF7373DF9C7F7617CFDA2892 DUP3 DUP3 PUSH1 0x40 MLOAD PUSH2 0xF66 SWAP3 SWAP2 SWAP1 PUSH2 0x5628 JUMP JUMPDEST PUSH1 0x40 MLOAD DUP1 SWAP2 SUB SWAP1 LOG1 PUSH2 0xFA5 JUMP JUMPDEST PUSH1 0x40 MLOAD PUSH32 0x90884A4600000000000000000000000000000000000000000000000000000000 DUP2 MSTORE PUSH1 0x4 ADD PUSH1 0x40 MLOAD DUP1 SWAP2 SUB SWAP1 REVERT JUMPDEST DUP2 SWAP3 POP POP POP SWAP5 SWAP4 POP POP POP POP JUMP JUMPDEST PUSH0 PUSH0 PUSH2 0xFC0 DUP7 DUP7 DUP7 DUP7 PUSH2 0x1A81 JUMP JUMPDEST SWAP1 POP PUSH2 0xFE0 DUP2 PUSH2 0xFD0 PUSH1 0x5 PUSH2 0x206E JUMP JUMPDEST PUSH2 0xFDA PUSH1 0x4 PUSH2 0x206E JUMP JUMPDEST OR PUSH2 0x2092 JUMP JUMPDEST POP PUSH1 0x1 PUSH1 0x4 PUSH0 DUP4 DUP2 MSTORE PUSH1 0x20 ADD SWAP1 DUP2 MSTORE PUSH1 0x20 ADD PUSH0 KECCAK256 PUSH0 ADD PUSH1 0x1E PUSH2 0x100 EXP DUP2 SLOAD DUP2 PUSH1 0xFF MUL NOT AND SWAP1 DUP4 ISZERO ISZERO MUL OR SWAP1 SSTORE POP ADDRESS PUSH20 0xFFFFFFFFFFFFFFFFFFFFFFFFFFFFFFFFFFFFFFFF AND PUSH2 0x102C PUSH2 0xBFD JUMP JUMPDEST PUSH20 0xFFFFFFFFFFFFFFFFFFFFFFFFFFFFFFFFFFFFFFFF AND EQ PUSH2 0x10E5 JUMPI PUSH0 PUSH0 SWAP1 POP JUMPDEST DUP7 MLOAD DUP2 LT ISZERO PUSH2 0x10E3 JUMPI ADDRESS PUSH20 0xFFFFFFFFFFFFFFFFFFFFFFFFFFFFFFFFFFFFFFFF AND DUP8 DUP3 DUP2 MLOAD DUP2 LT PUSH2 0x107F JUMPI PUSH2 0x107E PUSH2 0x564F JUMP JUMPDEST JUMPDEST PUSH1 0x20 MUL PUSH1 0x20 ADD ADD MLOAD PUSH20 0xFFFFFFFFFFFFFFFFFFFFFFFFFFFFFFFFFFFFFFFF AND SUB PUSH2 0x10D8 JUMPI PUSH2 0x10D7 DUP6 DUP3 DUP2 MLOAD DUP2 LT PUSH2 0x10B8 JUMPI PUSH2 0x10B7 PUSH2 0x564F JUMP JUMPDEST JUMPDEST PUSH1 0x20 MUL PUSH1 0x20 ADD ADD MLOAD DUP1 MLOAD SWAP1 PUSH1 0x20 ADD KECCAK256 PUSH1 0x5 PUSH2 0x210A SWAP1 SWAP2 SWAP1 PUSH4 0xFFFFFFFF AND JUMP JUMPDEST JUMPDEST DUP1 PUSH1 0x1 ADD SWAP1 POP PUSH2 0x104C JUMP JUMPDEST POP JUMPDEST PUSH2 0x10F2 DUP2 DUP8 DUP8 DUP8 DUP8 PUSH2 0x2202 JUMP JUMPDEST ADDRESS PUSH20 0xFFFFFFFFFFFFFFFFFFFFFFFFFFFFFFFFFFFFFFFF AND PUSH2 0x1111 PUSH2 0xBFD JUMP JUMPDEST PUSH20 0xFFFFFFFFFFFFFFFFFFFFFFFFFFFFFFFFFFFFFFFF AND EQ ISZERO DUP1 ISZERO PUSH2 0x113C JUMPI POP PUSH2 0x113A PUSH1 0x5 PUSH2 0x22EA JUMP JUMPDEST ISZERO JUMPDEST ISZERO PUSH2 0x114C JUMPI PUSH2 0x114B PUSH1 0x5 PUSH2 0x2356 JUMP JUMPDEST JUMPDEST PUSH32 0x712AE1383F79AC853F8D882153778E0260EF8F03B504E2866E0593E04D2B291F DUP2 PUSH1 0x40 MLOAD PUSH2 0x117B SWAP2 SWAP1 PUSH2 0x4408 JUMP JUMPDEST PUSH1 0x40 MLOAD DUP1 SWAP2 SUB SWAP1 LOG1 DUP1 SWAP2 POP POP SWAP5 SWAP4 POP POP POP POP JUMP JUMPDEST PUSH0 PUSH1 0x4 PUSH0 DUP4 DUP2 MSTORE PUSH1 0x20 ADD SWAP1 DUP2 MSTORE PUSH1 0x20 ADD PUSH0 KECCAK256 PUSH0 ADD PUSH1 0x14 SWAP1 SLOAD SWAP1 PUSH2 0x100 EXP SWAP1 DIV PUSH6 0xFFFFFFFFFFFF AND PUSH6 0xFFFFFFFFFFFF AND SWAP1 POP SWAP2 SWAP1 POP JUMP JUMPDEST PUSH32 0x3E83946653575F9A39005E1545185629E92736B7528AB20CA3816F315424A811 DUP2 JUMP JUMPDEST PUSH0 PUSH1 0x2 SWAP1 POP SWAP1 JUMP JUMPDEST PUSH0 PUSH0 PUSH1 0x4 PUSH0 DUP5 DUP2 MSTORE PUSH1 0x20 ADD SWAP1 DUP2 MSTORE PUSH1 0x20 ADD PUSH0 KECCAK256 SWAP1 POP PUSH0 DUP2 PUSH0 ADD PUSH1 0x1E SWAP1 SLOAD SWAP1 PUSH2 0x100 EXP SWAP1 DIV PUSH1 0xFF AND SWAP1 POP PUSH0 DUP3 PUSH0 ADD PUSH1 0x1F SWAP1 SLOAD SWAP1 PUSH2 0x100 EXP SWAP1 DIV PUSH1 0xFF AND SWAP1 POP DUP2 ISZERO PUSH2 0x1240 JUMPI PUSH1 0x7 SWAP4 POP POP POP POP PUSH2 0x1343 JUMP JUMPDEST DUP1 ISZERO PUSH2 0x1252 JUMPI PUSH1 0x2 SWAP4 POP POP POP POP PUSH2 0x1343 JUMP JUMPDEST PUSH0 PUSH2 0x125C DUP7 PUSH2 0x118F JUMP JUMPDEST SWAP1 POP PUSH0 DUP2 SUB PUSH2 0x12A2 JUMPI DUP6 PUSH1 0x40 MLOAD PUSH32 0x6AD0607500000000000000000000000000000000000000000000000000000000 DUP2 MSTORE PUSH1 0x4 ADD PUSH2 0x1299 SWAP2 SWAP1 PUSH2 0x4408 JUMP JUMPDEST PUSH1 0x40 MLOAD DUP1 SWAP2 SUB SWAP1 REVERT JUMPDEST PUSH0 PUSH2 0x12AB PUSH2 0x19AD JUMP JUMPDEST PUSH6 0xFFFFFFFFFFFF AND SWAP1 POP DUP1 DUP3 LT PUSH2 0x12C9 JUMPI PUSH0 SWAP6 POP POP POP POP POP POP PUSH2 0x1343 JUMP JUMPDEST PUSH0 PUSH2 0x12D3 DUP9 PUSH2 0x1B5E JUMP JUMPDEST SWAP1 POP DUP2 DUP2 LT PUSH2 0x12EB JUMPI PUSH1 0x1 SWAP7 POP POP POP POP POP POP POP PUSH2 0x1343 JUMP JUMPDEST PUSH2 0x12F4 DUP9 PUSH2 0x23CC JUMP JUMPDEST ISZERO DUP1 PUSH2 0x1306 JUMPI POP PUSH2 0x1304 DUP9 PUSH2 0x2410 JUMP JUMPDEST ISZERO JUMPDEST ISZERO PUSH2 0x131A JUMPI PUSH1 0x3 SWAP7 POP POP POP POP POP POP POP PUSH2 0x1343 JUMP JUMPDEST PUSH0 PUSH2 0x1324 DUP10 PUSH2 0x1AA1 JUMP JUMPDEST SUB PUSH2 0x1338 JUMPI PUSH1 0x4 SWAP7 POP POP POP POP POP POP POP PUSH2 0x1343 JUMP JUMPDEST PUSH1 0x5 SWAP7 POP POP POP POP POP POP POP JUMPDEST SWAP2 SWAP1 POP JUMP JUMPDEST PUSH0 PUSH1 0x7 PUSH0 DUP5 DUP2 MSTORE PUSH1 0x20 ADD SWAP1 DUP2 MSTORE PUSH1 0x20 ADD PUSH0 KECCAK256 PUSH1 0x3 ADD PUSH0 DUP4 PUSH20 0xFFFFFFFFFFFFFFFFFFFFFFFFFFFFFFFFFFFFFFFF AND PUSH20 0xFFFFFFFFFFFFFFFFFFFFFFFFFFFFFFFFFFFFFFFF AND DUP2 MSTORE PUSH1 0x20 ADD SWAP1 DUP2 MSTORE PUSH1 0x20 ADD PUSH0 KECCAK256 PUSH0 SWAP1 SLOAD SWAP1 PUSH2 0x100 EXP SWAP1 DIV PUSH1 0xFF AND SWAP1 POP SWAP3 SWAP2 POP POP JUMP JUMPDEST PUSH0 PUSH0 PUSH2 0x13BB DUP7 DUP7 DUP7 DUP7 PUSH2 0x1A81 JUMP JUMPDEST SWAP1 POP PUSH0 PUSH2 0x13C6 PUSH2 0x2437 JUMP JUMPDEST SWAP1 POP PUSH2 0x13D2 DUP3 DUP3 PUSH2 0x243E JUMP JUMPDEST PUSH2 0x1415 JUMPI DUP2 DUP2 PUSH1 0x40 MLOAD PUSH32 0x8FE5D8A900000000000000000000000000000000000000000000000000000000 DUP2 MSTORE PUSH1 0x4 ADD PUSH2 0x140C SWAP3 SWAP2 SWAP1 PUSH2 0x567C JUMP JUMPDEST PUSH1 0x40 MLOAD DUP1 SWAP2 SUB SWAP1 REVERT JUMPDEST PUSH2 0x1421 DUP8 DUP8 DUP8 DUP8 PUSH2 0x24B5 JUMP JUMPDEST SWAP3 POP POP POP SWAP5 SWAP4 POP POP POP POP JUMP JUMPDEST PUSH1 0x60 PUSH2 0x1437 PUSH2 0x1E27 JUMP JUMPDEST PUSH20 0xFFFFFFFFFFFFFFFFFFFFFFFFFFFFFFFFFFFFFFFF AND PUSH4 0x4BF5D7E9 PUSH1 0x40 MLOAD DUP2 PUSH4 0xFFFFFFFF AND PUSH1 0xE0 SHL DUP2 MSTORE PUSH1 0x4 ADD PUSH0 PUSH1 0x40 MLOAD DUP1 DUP4 SUB DUP2 DUP7 GAS STATICCALL SWAP3 POP POP POP DUP1 ISZERO PUSH2 0x14A1 JUMPI POP PUSH1 0x40 MLOAD RETURNDATASIZE PUSH0 DUP3 RETURNDATACOPY RETURNDATASIZE PUSH1 0x1F NOT PUSH1 0x1F DUP3 ADD AND DUP3 ADD DUP1 PUSH1 0x40 MSTORE POP DUP2 ADD SWAP1 PUSH2 0x149E SWAP2 SWAP1 PUSH2 0x5711 JUMP JUMPDEST PUSH1 0x1 JUMPDEST PUSH2 0x14E2 JUMPI PUSH1 0x40 MLOAD DUP1 PUSH1 0x40 ADD PUSH1 0x40 MSTORE DUP1 PUSH1 0x1D DUP2 MSTORE PUSH1 0x20 ADD PUSH32 0x6D6F64653D626C6F636B6E756D6265722666726F6D3D64656661756C74000000 DUP2 MSTORE POP SWAP1 POP PUSH2 0x14E7 JUMP JUMPDEST DUP1 SWAP2 POP POP JUMPDEST SWAP1 JUMP JUMPDEST PUSH0 PUSH0 PUSH0 PUSH0 PUSH1 0x7 PUSH0 DUP7 DUP2 MSTORE PUSH1 0x20 ADD SWAP1 DUP2 MSTORE PUSH1 0x20 ADD PUSH0 KECCAK256 SWAP1 POP DUP1 PUSH0 ADD SLOAD DUP2 PUSH1 0x1 ADD SLOAD DUP3 PUSH1 0x2 ADD SLOAD SWAP4 POP SWAP4 POP SWAP4 POP POP SWAP2 SWAP4 SWAP1 SWAP3 POP JUMP JUMPDEST PUSH1 0x60 PUSH1 0x40 MLOAD DUP1 PUSH1 0x40 ADD PUSH1 0x40 MSTORE DUP1 PUSH1 0x1 DUP2 MSTORE PUSH1 0x20 ADD PUSH32 0x3100000000000000000000000000000000000000000000000000000000000000 DUP2 MSTORE POP SWAP1 POP SWAP1 JUMP JUMPDEST PUSH0 PUSH0 PUSH2 0x1564 PUSH2 0x2437 JUMP JUMPDEST SWAP1 POP PUSH2 0x1580 DUP5 DUP3 DUP6 PUSH1 0x40 MLOAD DUP1 PUSH1 0x20 ADD PUSH1 0x40 MSTORE DUP1 PUSH0 DUP2 MSTORE POP PUSH2 0x2597 JUMP JUMPDEST SWAP2 POP POP SWAP3 SWAP2 POP POP JUMP JUMPDEST PUSH0 PUSH2 0x15DB DUP9 DUP9 DUP9 DUP9 DUP9 DUP1 DUP1 PUSH1 0x1F ADD PUSH1 0x20 DUP1 SWAP2 DIV MUL PUSH1 0x20 ADD PUSH1 0x40 MLOAD SWAP1 DUP2 ADD PUSH1 0x40 MSTORE DUP1 SWAP4 SWAP3 SWAP2 SWAP1 DUP2 DUP2 MSTORE PUSH1 0x20 ADD DUP4 DUP4 DUP1 DUP3 DUP5 CALLDATACOPY PUSH0 DUP2 DUP5 ADD MSTORE PUSH1 0x1F NOT PUSH1 0x1F DUP3 ADD AND SWAP1 POP DUP1 DUP4 ADD SWAP3 POP POP POP POP POP POP POP DUP8 DUP8 PUSH2 0x25B6 JUMP JUMPDEST PUSH2 0x161C JUMPI DUP6 PUSH1 0x40 MLOAD PUSH32 0x94AB6C0700000000000000000000000000000000000000000000000000000000 DUP2 MSTORE PUSH1 0x4 ADD PUSH2 0x1613 SWAP2 SWAP1 PUSH2 0x4545 JUMP JUMPDEST PUSH1 0x40 MLOAD DUP1 SWAP2 SUB SWAP1 REVERT JUMPDEST PUSH2 0x166C DUP9 DUP8 DUP10 DUP9 DUP9 DUP1 DUP1 PUSH1 0x1F ADD PUSH1 0x20 DUP1 SWAP2 DIV MUL PUSH1 0x20 ADD PUSH1 0x40 MLOAD SWAP1 DUP2 ADD PUSH1 0x40 MSTORE DUP1 SWAP4 SWAP3 SWAP2 SWAP1 DUP2 DUP2 MSTORE PUSH1 0x20 ADD DUP4 DUP4 DUP1 DUP3 DUP5 CALLDATACOPY PUSH0 DUP2 DUP5 ADD MSTORE PUSH1 0x1F NOT PUSH1 0x1F DUP3 ADD AND SWAP1 POP DUP1 DUP4 ADD SWAP3 POP POP POP POP POP POP POP DUP8 PUSH2 0x263E JUMP JUMPDEST SWAP1 POP SWAP8 SWAP7 POP POP POP POP POP POP POP JUMP JUMPDEST PUSH0 PUSH0 PUSH2 0x1683 PUSH2 0x2437 JUMP JUMPDEST SWAP1 POP PUSH2 0x16D5 DUP8 DUP3 DUP9 DUP9 DUP9 DUP1 DUP1 PUSH1 0x1F ADD PUSH1 0x20 DUP1 SWAP2 DIV MUL PUSH1 0x20 ADD PUSH1 0x40 MLOAD SWAP1 DUP2 ADD PUSH1 0x40 MSTORE DUP1 SWAP4 SWAP3 SWAP2 SWAP1 DUP2 DUP2 MSTORE PUSH1 0x20 ADD DUP4 DUP4 DUP1 DUP3 DUP5 CALLDATACOPY PUSH0 DUP2 DUP5 ADD MSTORE PUSH1 0x1F NOT PUSH1 0x1F DUP3 ADD AND SWAP1 POP DUP1 DUP4 ADD SWAP3 POP POP POP POP POP POP POP DUP8 PUSH2 0x263E JUMP JUMPDEST SWAP2 POP POP SWAP6 SWAP5 POP POP POP POP POP JUMP JUMPDEST PUSH0 PUSH2 0x16ED PUSH1 0x8 DUP4 PUSH2 0x2748 JUMP JUMPDEST SWAP1 POP SWAP2 SWAP1 POP JUMP JUMPDEST PUSH0 PUSH0 PUSH2 0x16FE PUSH2 0x2437 JUMP JUMPDEST SWAP1 POP PUSH2 0x174F DUP7 DUP3 DUP8 DUP8 DUP8 DUP1 DUP1 PUSH1 0x1F ADD PUSH1 0x20 DUP1 SWAP2 DIV MUL PUSH1 0x20 ADD PUSH1 0x40 MLOAD SWAP1 DUP2 ADD PUSH1 0x40 MSTORE DUP1 SWAP4 SWAP3 SWAP2 SWAP1 DUP2 DUP2 MSTORE PUSH1 0x20 ADD DUP4 DUP4 DUP1 DUP3 DUP5 CALLDATACOPY PUSH0 DUP2 DUP5 ADD MSTORE PUSH1 0x1F NOT PUSH1 0x1F DUP3 ADD AND SWAP1 POP DUP1 DUP4 ADD SWAP3 POP POP POP POP POP POP POP PUSH2 0x2597 JUMP JUMPDEST SWAP2 POP POP SWAP5 SWAP4 POP POP POP POP JUMP JUMPDEST PUSH0 PUSH0 PUSH2 0x1764 PUSH2 0x2437 JUMP JUMPDEST SWAP1 POP PUSH2 0x1770 DUP2 DUP5 PUSH2 0x27B1 JUMP JUMPDEST PUSH2 0x17B1 JUMPI DUP1 PUSH1 0x40 MLOAD PUSH32 0xD9B3955700000000000000000000000000000000000000000000000000000000 DUP2 MSTORE PUSH1 0x4 ADD PUSH2 0x17A8 SWAP2 SWAP1 PUSH2 0x4545 JUMP JUMPDEST PUSH1 0x40 MLOAD DUP1 SWAP2 SUB SWAP1 REVERT JUMPDEST PUSH0 PUSH2 0x17BA PUSH2 0x1AD7 JUMP JUMPDEST SWAP1 POP PUSH0 DUP2 GT ISZERO PUSH2 0x1837 JUMPI PUSH0 PUSH2 0x17EA DUP4 PUSH1 0x1 PUSH2 0x17D3 PUSH2 0x19AD JUMP JUMPDEST PUSH2 0x17DD SWAP2 SWAP1 PUSH2 0x5785 JUMP JUMPDEST PUSH6 0xFFFFFFFFFFFF AND PUSH2 0x1CEC JUMP JUMPDEST SWAP1 POP DUP2 DUP2 LT ISZERO PUSH2 0x1835 JUMPI DUP3 DUP2 DUP4 PUSH1 0x40 MLOAD PUSH32 0xC242EE1600000000000000000000000000000000000000000000000000000000 DUP2 MSTORE PUSH1 0x4 ADD PUSH2 0x182C SWAP4 SWAP3 SWAP2 SWAP1 PUSH2 0x57BE JUMP JUMPDEST PUSH1 0x40 MLOAD DUP1 SWAP2 SUB SWAP1 REVERT JUMPDEST POP JUMPDEST PUSH2 0x1844 DUP8 DUP8 DUP8 DUP8 DUP7 PUSH2 0x2897 JUMP JUMPDEST SWAP3 POP POP POP SWAP5 SWAP4 POP POP POP POP JUMP JUMPDEST PUSH0 PUSH1 0x2 PUSH0 DUP4 PUSH20 0xFFFFFFFFFFFFFFFFFFFFFFFFFFFFFFFFFFFFFFFF AND PUSH20 0xFFFFFFFFFFFFFFFFFFFFFFFFFFFFFFFFFFFFFFFF AND DUP2 MSTORE PUSH1 0x20 ADD SWAP1 DUP2 MSTORE PUSH1 0x20 ADD PUSH0 KECCAK256 SLOAD SWAP1 POP SWAP2 SWAP1 POP JUMP JUMPDEST PUSH0 PUSH1 0x60 DUP1 PUSH0 PUSH0 PUSH0 PUSH1 0x60 PUSH2 0x18A7 PUSH2 0x2B1C JUMP JUMPDEST PUSH2 0x18AF PUSH2 0x2B56 JUMP JUMPDEST CHAINID ADDRESS PUSH0 PUSH0 SHL PUSH0 PUSH8 0xFFFFFFFFFFFFFFFF DUP2 GT ISZERO PUSH2 0x18CE JUMPI PUSH2 0x18CD PUSH2 0x4590 JUMP JUMPDEST JUMPDEST PUSH1 0x40 MLOAD SWAP1 DUP1 DUP3 MSTORE DUP1 PUSH1 0x20 MUL PUSH1 0x20 ADD DUP3 ADD PUSH1 0x40 MSTORE DUP1 ISZERO PUSH2 0x18FC JUMPI DUP2 PUSH1 0x20 ADD PUSH1 0x20 DUP3 MUL DUP1 CALLDATASIZE DUP4 CALLDATACOPY DUP1 DUP3 ADD SWAP2 POP POP SWAP1 POP JUMPDEST POP PUSH32 0xF00000000000000000000000000000000000000000000000000000000000000 SWAP6 SWAP5 SWAP4 SWAP3 SWAP2 SWAP1 SWAP7 POP SWAP7 POP SWAP7 POP SWAP7 POP SWAP7 POP SWAP7 POP SWAP7 POP SWAP1 SWAP2 SWAP3 SWAP4 SWAP5 SWAP6 SWAP7 JUMP JUMPDEST PUSH0 PUSH2 0x1948 DUP6 DUP6 DUP6 DUP6 PUSH2 0x2B91 JUMP JUMPDEST PUSH2 0x1989 JUMPI DUP3 PUSH1 0x40 MLOAD PUSH32 0x94AB6C0700000000000000000000000000000000000000000000000000000000 DUP2 MSTORE PUSH1 0x4 ADD PUSH2 0x1980 SWAP2 SWAP1 PUSH2 0x4545 JUMP JUMPDEST PUSH1 0x40 MLOAD DUP1 SWAP2 SUB SWAP1 REVERT JUMPDEST PUSH2 0x19A3 DUP6 DUP5 DUP7 PUSH1 0x40 MLOAD DUP1 PUSH1 0x20 ADD PUSH1 0x40 MSTORE DUP1 PUSH0 DUP2 MSTORE POP PUSH2 0x2597 JUMP JUMPDEST SWAP1 POP SWAP5 SWAP4 POP POP POP POP JUMP JUMPDEST PUSH0 PUSH2 0x19B6 PUSH2 0x1E27 JUMP JUMPDEST PUSH20 0xFFFFFFFFFFFFFFFFFFFFFFFFFFFFFFFFFFFFFFFF AND PUSH4 0x91DDADF4 PUSH1 0x40 MLOAD DUP2 PUSH4 0xFFFFFFFF AND PUSH1 0xE0 SHL DUP2 MSTORE PUSH1 0x4 ADD PUSH1 0x20 PUSH1 0x40 MLOAD DUP1 DUP4 SUB DUP2 DUP7 GAS STATICCALL SWAP3 POP POP POP DUP1 ISZERO PUSH2 0x1A1D JUMPI POP PUSH1 0x40 MLOAD RETURNDATASIZE PUSH1 0x1F NOT PUSH1 0x1F DUP3 ADD AND DUP3 ADD DUP1 PUSH1 0x40 MSTORE POP DUP2 ADD SWAP1 PUSH2 0x1A1A SWAP2 SWAP1 PUSH2 0x581D JUMP JUMPDEST PUSH1 0x1 JUMPDEST PUSH2 0x1A30 JUMPI PUSH2 0x1A29 PUSH2 0x2C05 JUMP JUMPDEST SWAP1 POP PUSH2 0x1A35 JUMP JUMPDEST DUP1 SWAP2 POP POP JUMPDEST SWAP1 JUMP JUMPDEST PUSH0 PUSH1 0x64 SWAP1 POP SWAP1 JUMP JUMPDEST PUSH0 PUSH2 0x1A4C DUP5 DUP5 DUP5 PUSH2 0x2C14 JUMP JUMPDEST SWAP1 POP SWAP4 SWAP3 POP POP POP JUMP JUMPDEST PUSH0 PUSH2 0x1A60 PUSH1 0x8 PUSH2 0x2C9F JUMP JUMPDEST PUSH26 0xFFFFFFFFFFFFFFFFFFFFFFFFFFFFFFFFFFFFFFFFFFFFFFFFFFFF AND SWAP1 POP SWAP1 JUMP JUMPDEST PUSH0 PUSH2 0x1A8E DUP6 DUP6 DUP6 DUP6 PUSH2 0x1C51 JUMP JUMPDEST SWAP1 POP SWAP5 SWAP4 POP POP POP POP JUMP JUMPDEST PUSH0 PUSH0 SWAP1 POP SWAP2 SWAP1 POP JUMP JUMPDEST PUSH0 PUSH1 0x4 PUSH0 DUP4 DUP2 MSTORE PUSH1 0x20 ADD SWAP1 DUP2 MSTORE PUSH1 0x20 ADD PUSH0 KECCAK256 PUSH1 0x1 ADD PUSH0 SWAP1 SLOAD SWAP1 PUSH2 0x100 EXP SWAP1 DIV PUSH6 0xFFFFFFFFFFFF AND PUSH6 0xFFFFFFFFFFFF AND SWAP1 POP SWAP2 SWAP1 POP JUMP JUMPDEST PUSH0 PUSH0 SWAP1 POP SWAP1 JUMP JUMPDEST PUSH0 ADDRESS PUSH20 0xFFFFFFFFFFFFFFFFFFFFFFFFFFFFFFFFFFFFFFFF AND PUSH2 0x1AFE PUSH2 0xBFD JUMP JUMPDEST PUSH20 0xFFFFFFFFFFFFFFFFFFFFFFFFFFFFFFFFFFFFFFFF AND EQ PUSH2 0x1B4B JUMPI PUSH1 0x40 MLOAD PUSH32 0xE90A651E00000000000000000000000000000000000000000000000000000000 DUP2 MSTORE PUSH1 0x4 ADD PUSH1 0x40 MLOAD DUP1 SWAP2 SUB SWAP1 REVERT JUMPDEST PUSH4 0xBC197C81 PUSH1 0xE0 SHL SWAP1 POP SWAP6 SWAP5 POP POP POP POP POP JUMP JUMPDEST PUSH0 PUSH1 0x4 PUSH0 DUP4 DUP2 MSTORE PUSH1 0x20 ADD SWAP1 DUP2 MSTORE PUSH1 0x20 ADD PUSH0 KECCAK256 PUSH0 ADD PUSH1 0x1A SWAP1 SLOAD SWAP1 PUSH2 0x100 EXP SWAP1 DIV PUSH4 0xFFFFFFFF AND PUSH4 0xFFFFFFFF AND PUSH1 0x4 PUSH0 DUP5 DUP2 MSTORE PUSH1 0x20 ADD SWAP1 DUP2 MSTORE PUSH1 0x20 ADD PUSH0 KECCAK256 PUSH0 ADD PUSH1 0x14 SWAP1 SLOAD SWAP1 PUSH2 0x100 EXP SWAP1 DIV PUSH6 0xFFFFFFFFFFFF AND PUSH2 0x1BB9 SWAP2 SWAP1 PUSH2 0x5848 JUMP JUMPDEST PUSH6 0xFFFFFFFFFFFF AND SWAP1 POP SWAP2 SWAP1 POP JUMP JUMPDEST PUSH2 0x1BD0 PUSH2 0x1EB7 JUMP JUMPDEST PUSH0 PUSH0 DUP6 PUSH20 0xFFFFFFFFFFFFFFFFFFFFFFFFFFFFFFFFFFFFFFFF AND DUP6 DUP6 DUP6 PUSH1 0x40 MLOAD PUSH2 0x1BFA SWAP3 SWAP2 SWAP1 PUSH2 0x58AF JUMP JUMPDEST PUSH0 PUSH1 0x40 MLOAD DUP1 DUP4 SUB DUP2 DUP6 DUP8 GAS CALL SWAP3 POP POP POP RETURNDATASIZE DUP1 PUSH0 DUP2 EQ PUSH2 0x1C34 JUMPI PUSH1 0x40 MLOAD SWAP2 POP PUSH1 0x1F NOT PUSH1 0x3F RETURNDATASIZE ADD AND DUP3 ADD PUSH1 0x40 MSTORE RETURNDATASIZE DUP3 MSTORE RETURNDATASIZE PUSH0 PUSH1 0x20 DUP5 ADD RETURNDATACOPY PUSH2 0x1C39 JUMP JUMPDEST PUSH1 0x60 SWAP2 POP JUMPDEST POP SWAP2 POP SWAP2 POP PUSH2 0x1C48 DUP3 DUP3 PUSH2 0x2D01 JUMP JUMPDEST POP POP POP POP POP POP POP JUMP JUMPDEST PUSH0 DUP5 DUP5 DUP5 DUP5 PUSH1 0x40 MLOAD PUSH1 0x20 ADD PUSH2 0x1C69 SWAP5 SWAP4 SWAP3 SWAP2 SWAP1 PUSH2 0x5A8B JUMP JUMPDEST PUSH1 0x40 MLOAD PUSH1 0x20 DUP2 DUP4 SUB SUB DUP2 MSTORE SWAP1 PUSH1 0x40 MSTORE DUP1 MLOAD SWAP1 PUSH1 0x20 ADD KECCAK256 PUSH0 SHR SWAP1 POP SWAP5 SWAP4 POP POP POP POP JUMP JUMPDEST PUSH1 0x60 PUSH1 0x40 MLOAD DUP1 PUSH1 0x40 ADD PUSH1 0x40 MSTORE DUP1 PUSH1 0x20 DUP2 MSTORE PUSH1 0x20 ADD PUSH32 0x737570706F72743D627261766F2671756F72756D3D666F722C6162737461696E DUP2 MSTORE POP SWAP1 POP SWAP1 JUMP JUMPDEST PUSH32 0xF2AAD550CF55F045CB27E9C559F9889FDFB6E6CDAA032301D6EA397784AE51D7 DUP2 JUMP JUMPDEST PUSH0 PUSH2 0x1CFF DUP4 DUP4 PUSH2 0x1CFA PUSH2 0x2D25 JUMP JUMPDEST PUSH2 0x2C14 JUMP JUMPDEST SWAP1 POP SWAP3 SWAP2 POP POP JUMP JUMPDEST PUSH0 ADDRESS PUSH20 0xFFFFFFFFFFFFFFFFFFFFFFFFFFFFFFFFFFFFFFFF AND PUSH2 0x1D27 PUSH2 0xBFD JUMP JUMPDEST PUSH20 0xFFFFFFFFFFFFFFFFFFFFFFFFFFFFFFFFFFFFFFFF AND EQ PUSH2 0x1D74 JUMPI PUSH1 0x40 MLOAD PUSH32 0xE90A651E00000000000000000000000000000000000000000000000000000000 DUP2 MSTORE PUSH1 0x4 ADD PUSH1 0x40 MLOAD DUP1 SWAP2 SUB SWAP1 REVERT JUMPDEST PUSH4 0xF23A6E61 PUSH1 0xE0 SHL SWAP1 POP SWAP6 SWAP5 POP POP POP POP POP JUMP JUMPDEST PUSH0 PUSH2 0x1E20 PUSH2 0x1D93 PUSH2 0x1E27 JUMP JUMPDEST PUSH20 0xFFFFFFFFFFFFFFFFFFFFFFFFFFFFFFFFFFFFFFFF AND PUSH4 0x8E539E8C DUP5 PUSH1 0x40 MLOAD DUP3 PUSH4 0xFFFFFFFF AND PUSH1 0xE0 SHL DUP2 MSTORE PUSH1 0x4 ADD PUSH2 0x1DCB SWAP2 SWAP1 PUSH2 0x4408 JUMP JUMPDEST PUSH1 0x20 PUSH1 0x40 MLOAD DUP1 DUP4 SUB DUP2 DUP7 GAS STATICCALL ISZERO DUP1 ISZERO PUSH2 0x1DE6 JUMPI RETURNDATASIZE PUSH0 PUSH0 RETURNDATACOPY RETURNDATASIZE PUSH0 REVERT JUMPDEST POP POP POP POP PUSH1 0x40 MLOAD RETURNDATASIZE PUSH1 0x1F NOT PUSH1 0x1F DUP3 ADD AND DUP3 ADD DUP1 PUSH1 0x40 MSTORE POP DUP2 ADD SWAP1 PUSH2 0x1E0A SWAP2 SWAP1 PUSH2 0x5AF7 JUMP JUMPDEST PUSH2 0x1E13 DUP5 PUSH2 0x16E1 JUMP JUMPDEST PUSH2 0x1E1B PUSH2 0x1A38 JUMP JUMPDEST PUSH2 0x2D3B JUMP JUMPDEST SWAP1 POP SWAP2 SWAP1 POP JUMP JUMPDEST PUSH0 PUSH32 0x0 SWAP1 POP SWAP1 JUMP JUMPDEST PUSH0 PUSH32 0x1FFC9A700000000000000000000000000000000000000000000000000000000 PUSH28 0xFFFFFFFFFFFFFFFFFFFFFFFFFFFFFFFFFFFFFFFFFFFFFFFFFFFFFFFF NOT AND DUP3 PUSH28 0xFFFFFFFFFFFFFFFFFFFFFFFFFFFFFFFFFFFFFFFFFFFFFFFFFFFFFFFF NOT AND EQ SWAP1 POP SWAP2 SWAP1 POP JUMP JUMPDEST PUSH2 0x1EBF PUSH2 0x2437 JUMP JUMPDEST PUSH20 0xFFFFFFFFFFFFFFFFFFFFFFFFFFFFFFFFFFFFFFFF AND PUSH2 0x1EDD PUSH2 0xBFD JUMP JUMPDEST PUSH20 0xFFFFFFFFFFFFFFFFFFFFFFFFFFFFFFFFFFFFFFFF AND EQ PUSH2 0x1F3C JUMPI PUSH2 0x1F00 PUSH2 0x2437 JUMP JUMPDEST PUSH1 0x40 MLOAD PUSH32 0x47096E4700000000000000000000000000000000000000000000000000000000 DUP2 MSTORE PUSH1 0x4 ADD PUSH2 0x1F33 SWAP2 SWAP1 PUSH2 0x4545 JUMP JUMPDEST PUSH1 0x40 MLOAD DUP1 SWAP2 SUB SWAP1 REVERT JUMPDEST ADDRESS PUSH20 0xFFFFFFFFFFFFFFFFFFFFFFFFFFFFFFFFFFFFFFFF AND PUSH2 0x1F5B PUSH2 0xBFD JUMP JUMPDEST PUSH20 0xFFFFFFFFFFFFFFFFFFFFFFFFFFFFFFFFFFFFFFFF AND EQ PUSH2 0x1FAA JUMPI PUSH0 PUSH2 0x1F7F PUSH2 0x2E1A JUMP JUMPDEST PUSH1 0x40 MLOAD PUSH2 0x1F8D SWAP3 SWAP2 SWAP1 PUSH2 0x58AF JUMP JUMPDEST PUSH1 0x40 MLOAD DUP1 SWAP2 SUB SWAP1 KECCAK256 SWAP1 POP JUMPDEST DUP1 PUSH2 0x1FA3 PUSH1 0x5 PUSH2 0x2E26 JUMP JUMPDEST SUB PUSH2 0x1F98 JUMPI POP JUMPDEST JUMP JUMPDEST PUSH0 PUSH2 0x1FB5 PUSH2 0x1A38 JUMP JUMPDEST SWAP1 POP DUP1 DUP3 GT ISZERO PUSH2 0x1FFE JUMPI DUP2 DUP2 PUSH1 0x40 MLOAD PUSH32 0x243E544500000000000000000000000000000000000000000000000000000000 DUP2 MSTORE PUSH1 0x4 ADD PUSH2 0x1FF5 SWAP3 SWAP2 SWAP1 PUSH2 0x5B22 JUMP JUMPDEST PUSH1 0x40 MLOAD DUP1 SWAP2 SUB SWAP1 REVERT JUMPDEST PUSH0 PUSH2 0x2007 PUSH2 0x1A55 JUMP JUMPDEST SWAP1 POP PUSH2 0x202E PUSH2 0x2014 PUSH2 0x19AD JUMP JUMPDEST PUSH2 0x201D DUP6 PUSH2 0x2F54 JUMP JUMPDEST PUSH1 0x8 PUSH2 0x2FC1 SWAP1 SWAP3 SWAP2 SWAP1 PUSH4 0xFFFFFFFF AND JUMP JUMPDEST POP POP PUSH32 0x553476BF02EF2726E8CE5CED78D63E26E602E4A2257B1F559418E24B4633997 DUP2 DUP5 PUSH1 0x40 MLOAD PUSH2 0x2061 SWAP3 SWAP2 SWAP1 PUSH2 0x5B22 JUMP JUMPDEST PUSH1 0x40 MLOAD DUP1 SWAP2 SUB SWAP1 LOG1 POP POP POP JUMP JUMPDEST PUSH0 DUP2 PUSH1 0x7 DUP2 GT ISZERO PUSH2 0x2082 JUMPI PUSH2 0x2081 PUSH2 0x4AD1 JUMP JUMPDEST JUMPDEST PUSH1 0xFF AND PUSH1 0x1 SWAP1 SHL PUSH0 SHL SWAP1 POP SWAP2 SWAP1 POP JUMP JUMPDEST PUSH0 PUSH0 PUSH2 0x209D DUP5 PUSH2 0x11F1 JUMP JUMPDEST SWAP1 POP PUSH0 PUSH0 SHL DUP4 PUSH2 0x20AC DUP4 PUSH2 0x206E JUMP JUMPDEST AND SUB PUSH2 0x20F3 JUMPI DUP4 DUP2 DUP5 PUSH1 0x40 MLOAD PUSH32 0x31B75E4D00000000000000000000000000000000000000000000000000000000 DUP2 MSTORE PUSH1 0x4 ADD PUSH2 0x20EA SWAP4 SWAP3 SWAP2 SWAP1 PUSH2 0x5B49 JUMP JUMPDEST PUSH1 0x40 MLOAD DUP1 SWAP2 SUB SWAP1 REVERT JUMPDEST DUP1 SWAP2 POP POP SWAP3 SWAP2 POP POP JUMP JUMPDEST PUSH0 PUSH0 SWAP1 POP SWAP6 SWAP5 POP POP POP POP POP JUMP JUMPDEST PUSH0 DUP3 PUSH0 ADD PUSH1 0x10 SWAP1 SLOAD SWAP1 PUSH2 0x100 EXP SWAP1 DIV PUSH16 0xFFFFFFFFFFFFFFFFFFFFFFFFFFFFFFFF AND SWAP1 POP DUP3 PUSH0 ADD PUSH0 SWAP1 SLOAD SWAP1 PUSH2 0x100 EXP SWAP1 DIV PUSH16 0xFFFFFFFFFFFFFFFFFFFFFFFFFFFFFFFF AND PUSH16 0xFFFFFFFFFFFFFFFFFFFFFFFFFFFFFFFF AND PUSH1 0x1 DUP3 ADD PUSH16 0xFFFFFFFFFFFFFFFFFFFFFFFFFFFFFFFF AND SUB PUSH2 0x2184 JUMPI PUSH2 0x2183 PUSH1 0x41 PUSH2 0x2FDC JUMP JUMPDEST JUMPDEST DUP2 DUP4 PUSH1 0x1 ADD PUSH0 DUP4 PUSH16 0xFFFFFFFFFFFFFFFFFFFFFFFFFFFFFFFF AND PUSH16 0xFFFFFFFFFFFFFFFFFFFFFFFFFFFFFFFF AND DUP2 MSTORE PUSH1 0x20 ADD SWAP1 DUP2 MSTORE PUSH1 0x20 ADD PUSH0 KECCAK256 DUP2 SWAP1 SSTORE POP PUSH1 0x1 DUP2 ADD DUP4 PUSH0 ADD PUSH1 0x10 PUSH2 0x100 EXP DUP2 SLOAD DUP2 PUSH16 0xFFFFFFFFFFFFFFFFFFFFFFFFFFFFFFFF MUL NOT AND SWAP1 DUP4 PUSH16 0xFFFFFFFFFFFFFFFFFFFFFFFFFFFFFFFF AND MUL OR SWAP1 SSTORE POP POP POP POP JUMP JUMPDEST PUSH0 PUSH0 SWAP1 POP JUMPDEST DUP5 MLOAD DUP2 LT ISZERO PUSH2 0x22E2 JUMPI PUSH0 PUSH0 DUP7 DUP4 DUP2 MLOAD DUP2 LT PUSH2 0x2225 JUMPI PUSH2 0x2224 PUSH2 0x564F JUMP JUMPDEST JUMPDEST PUSH1 0x20 MUL PUSH1 0x20 ADD ADD MLOAD PUSH20 0xFFFFFFFFFFFFFFFFFFFFFFFFFFFFFFFFFFFFFFFF AND DUP7 DUP5 DUP2 MLOAD DUP2 LT PUSH2 0x2256 JUMPI PUSH2 0x2255 PUSH2 0x564F JUMP JUMPDEST JUMPDEST PUSH1 0x20 MUL PUSH1 0x20 ADD ADD MLOAD DUP7 DUP6 DUP2 MLOAD DUP2 LT PUSH2 0x2271 JUMPI PUSH2 0x2270 PUSH2 0x564F JUMP JUMPDEST JUMPDEST PUSH1 0x20 MUL PUSH1 0x20 ADD ADD MLOAD PUSH1 0x40 MLOAD PUSH2 0x2286 SWAP2 SWAP1 PUSH2 0x5BAE JUMP JUMPDEST PUSH0 PUSH1 0x40 MLOAD DUP1 DUP4 SUB DUP2 DUP6 DUP8 GAS CALL SWAP3 POP POP POP RETURNDATASIZE DUP1 PUSH0 DUP2 EQ PUSH2 0x22C0 JUMPI PUSH1 0x40 MLOAD SWAP2 POP PUSH1 0x1F NOT PUSH1 0x3F RETURNDATASIZE ADD AND DUP3 ADD PUSH1 0x40 MSTORE RETURNDATASIZE DUP3 MSTORE RETURNDATASIZE PUSH0 PUSH1 0x20 DUP5 ADD RETURNDATACOPY PUSH2 0x22C5 JUMP JUMPDEST PUSH1 0x60 SWAP2 POP JUMPDEST POP SWAP2 POP SWAP2 POP PUSH2 0x22D4 DUP3 DUP3 PUSH2 0x2D01 JUMP JUMPDEST POP POP POP DUP1 PUSH1 0x1 ADD SWAP1 POP PUSH2 0x2207 JUMP JUMPDEST POP POP POP POP POP POP JUMP JUMPDEST PUSH0 DUP2 PUSH0 ADD PUSH0 SWAP1 SLOAD SWAP1 PUSH2 0x100 EXP SWAP1 DIV PUSH16 0xFFFFFFFFFFFFFFFFFFFFFFFFFFFFFFFF AND PUSH16 0xFFFFFFFFFFFFFFFFFFFFFFFFFFFFFFFF AND DUP3 PUSH0 ADD PUSH1 0x10 SWAP1 SLOAD SWAP1 PUSH2 0x100 EXP SWAP1 DIV PUSH16 0xFFFFFFFFFFFFFFFFFFFFFFFFFFFFFFFF AND PUSH16 0xFFFFFFFFFFFFFFFFFFFFFFFFFFFFFFFF AND EQ SWAP1 POP SWAP2 SWAP1 POP JUMP JUMPDEST PUSH0 DUP2 PUSH0 ADD PUSH0 PUSH2 0x100 EXP DUP2 SLOAD DUP2 PUSH16 0xFFFFFFFFFFFFFFFFFFFFFFFFFFFFFFFF MUL NOT AND SWAP1 DUP4 PUSH16 0xFFFFFFFFFFFFFFFFFFFFFFFFFFFFFFFF AND MUL OR SWAP1 SSTORE POP PUSH0 DUP2 PUSH0 ADD PUSH1 0x10 PUSH2 0x100 EXP DUP2 SLOAD DUP2 PUSH16 0xFFFFFFFFFFFFFFFFFFFFFFFFFFFFFFFF MUL NOT AND SWAP1 DUP4 PUSH16 0xFFFFFFFFFFFFFFFFFFFFFFFFFFFFFFFF AND MUL OR SWAP1 SSTORE POP POP JUMP JUMPDEST PUSH0 PUSH0 PUSH1 0x7 PUSH0 DUP5 DUP2 MSTORE PUSH1 0x20 ADD SWAP1 DUP2 MSTORE PUSH1 0x20 ADD PUSH0 KECCAK256 SWAP1 POP DUP1 PUSH1 0x2 ADD SLOAD DUP2 PUSH1 0x1 ADD SLOAD PUSH2 0x23F5 SWAP2 SWAP1 PUSH2 0x5BC4 JUMP JUMPDEST PUSH2 0x2406 PUSH2 0x2401 DUP6 PUSH2 0x118F JUMP JUMPDEST PUSH2 0x1D87 JUMP JUMPDEST GT ISZERO SWAP2 POP POP SWAP2 SWAP1 POP JUMP JUMPDEST PUSH0 PUSH0 PUSH1 0x7 PUSH0 DUP5 DUP2 MSTORE PUSH1 0x20 ADD SWAP1 DUP2 MSTORE PUSH1 0x20 ADD PUSH0 KECCAK256 SWAP1 POP DUP1 PUSH0 ADD SLOAD DUP2 PUSH1 0x1 ADD SLOAD GT SWAP2 POP POP SWAP2 SWAP1 POP JUMP JUMPDEST PUSH0 CALLER SWAP1 POP SWAP1 JUMP JUMPDEST PUSH0 PUSH0 PUSH1 0x7 DUP2 GT ISZERO PUSH2 0x2452 JUMPI PUSH2 0x2451 PUSH2 0x4AD1 JUMP JUMPDEST JUMPDEST PUSH2 0x245B DUP5 PUSH2 0x11F1 JUMP JUMPDEST PUSH1 0x7 DUP2 GT ISZERO PUSH2 0x246D JUMPI PUSH2 0x246C PUSH2 0x4AD1 JUMP JUMPDEST JUMPDEST EQ DUP1 ISZERO PUSH2 0x24AD JUMPI POP PUSH2 0x247E DUP4 PUSH2 0xE02 JUMP JUMPDEST PUSH20 0xFFFFFFFFFFFFFFFFFFFFFFFFFFFFFFFFFFFFFFFF AND DUP3 PUSH20 0xFFFFFFFFFFFFFFFFFFFFFFFFFFFFFFFFFFFFFFFF AND EQ JUMPDEST SWAP1 POP SWAP3 SWAP2 POP POP JUMP JUMPDEST PUSH0 PUSH0 PUSH2 0x24C3 DUP7 DUP7 DUP7 DUP7 PUSH2 0x1A81 JUMP JUMPDEST SWAP1 POP PUSH2 0x2527 DUP2 PUSH2 0x24D3 PUSH1 0x7 PUSH2 0x206E JUMP JUMPDEST PUSH2 0x24DD PUSH1 0x6 PUSH2 0x206E JUMP JUMPDEST PUSH2 0x24E7 PUSH1 0x2 PUSH2 0x206E JUMP JUMPDEST PUSH1 0x1 DUP1 PUSH1 0x7 DUP1 DUP2 GT ISZERO PUSH2 0x24FD JUMPI PUSH2 0x24FC PUSH2 0x4AD1 JUMP JUMPDEST JUMPDEST PUSH2 0x2507 SWAP2 SWAP1 PUSH2 0x5BF7 JUMP JUMPDEST PUSH1 0x2 PUSH2 0x2513 SWAP2 SWAP1 PUSH2 0x5D5A JUMP JUMPDEST PUSH2 0x251D SWAP2 SWAP1 PUSH2 0x5DA4 JUMP JUMPDEST PUSH0 SHL XOR XOR XOR PUSH2 0x2092 JUMP JUMPDEST POP PUSH1 0x1 PUSH1 0x4 PUSH0 DUP4 DUP2 MSTORE PUSH1 0x20 ADD SWAP1 DUP2 MSTORE PUSH1 0x20 ADD PUSH0 KECCAK256 PUSH0 ADD PUSH1 0x1F PUSH2 0x100 EXP DUP2 SLOAD DUP2 PUSH1 0xFF MUL NOT AND SWAP1 DUP4 ISZERO ISZERO MUL OR SWAP1 SSTORE POP PUSH32 0x789CF55BE980739DAD1D0699B93B58E806B51C9D96619BFA8FE0A28ABAA7B30C DUP2 PUSH1 0x40 MLOAD PUSH2 0x2583 SWAP2 SWAP1 PUSH2 0x4408 JUMP JUMPDEST PUSH1 0x40 MLOAD DUP1 SWAP2 SUB SWAP1 LOG1 DUP1 SWAP2 POP POP SWAP5 SWAP4 POP POP POP POP JUMP JUMPDEST PUSH0 PUSH2 0x25AC DUP6 DUP6 DUP6 DUP6 PUSH2 0x25A7 PUSH2 0x2D25 JUMP JUMPDEST PUSH2 0x263E JUMP JUMPDEST SWAP1 POP SWAP5 SWAP4 POP POP POP POP JUMP JUMPDEST PUSH0 PUSH2 0x2632 DUP6 PUSH2 0x262C PUSH32 0x3E83946653575F9A39005E1545185629E92736B7528AB20CA3816F315424A811 DUP11 DUP11 DUP11 PUSH2 0x25EB DUP13 PUSH2 0x2FED JUMP JUMPDEST DUP12 DUP1 MLOAD SWAP1 PUSH1 0x20 ADD KECCAK256 DUP12 DUP1 MLOAD SWAP1 PUSH1 0x20 ADD KECCAK256 PUSH1 0x40 MLOAD PUSH1 0x20 ADD PUSH2 0x2611 SWAP8 SWAP7 SWAP6 SWAP5 SWAP4 SWAP3 SWAP2 SWAP1 PUSH2 0x5DE6 JUMP JUMPDEST PUSH1 0x40 MLOAD PUSH1 0x20 DUP2 DUP4 SUB SUB DUP2 MSTORE SWAP1 PUSH1 0x40 MSTORE DUP1 MLOAD SWAP1 PUSH1 0x20 ADD KECCAK256 PUSH2 0x3040 JUMP JUMPDEST DUP5 PUSH2 0x3059 JUMP JUMPDEST SWAP1 POP SWAP7 SWAP6 POP POP POP POP POP POP JUMP JUMPDEST PUSH0 PUSH2 0x2652 DUP7 PUSH2 0x264D PUSH1 0x1 PUSH2 0x206E JUMP JUMPDEST PUSH2 0x2092 JUMP JUMPDEST POP PUSH0 PUSH2 0x2667 DUP7 PUSH2 0x2661 DUP10 PUSH2 0x118F JUMP JUMPDEST DUP6 PUSH2 0x2C14 JUMP JUMPDEST SWAP1 POP PUSH0 PUSH2 0x2677 DUP9 DUP9 DUP9 DUP6 DUP9 PUSH2 0x3105 JUMP JUMPDEST SWAP1 POP PUSH0 DUP5 MLOAD SUB PUSH2 0x26DA JUMPI DUP7 PUSH20 0xFFFFFFFFFFFFFFFFFFFFFFFFFFFFFFFFFFFFFFFF AND PUSH32 0xB8E138887D0AA13BAB447E82DE9D5C1777041ECD21CA36BA824FF1E6C07DDDA4 DUP10 DUP9 DUP5 DUP10 PUSH1 0x40 MLOAD PUSH2 0x26CD SWAP5 SWAP4 SWAP3 SWAP2 SWAP1 PUSH2 0x5E53 JUMP JUMPDEST PUSH1 0x40 MLOAD DUP1 SWAP2 SUB SWAP1 LOG2 PUSH2 0x2731 JUMP JUMPDEST DUP7 PUSH20 0xFFFFFFFFFFFFFFFFFFFFFFFFFFFFFFFFFFFFFFFF AND PUSH32 0xE2BABFBAC5889A709B63BB7F598B324E08BC5A4FB9EC647FB3CBC9EC07EB8712 DUP10 DUP9 DUP5 DUP10 DUP10 PUSH1 0x40 MLOAD PUSH2 0x2728 SWAP6 SWAP5 SWAP4 SWAP3 SWAP2 SWAP1 PUSH2 0x5EE5 JUMP JUMPDEST PUSH1 0x40 MLOAD DUP1 SWAP2 SUB SWAP1 LOG2 JUMPDEST PUSH2 0x273A DUP9 PUSH2 0x32FA JUMP JUMPDEST DUP1 SWAP3 POP POP POP SWAP6 SWAP5 POP POP POP POP POP JUMP JUMPDEST PUSH0 PUSH0 PUSH0 PUSH2 0x2754 DUP6 PUSH2 0x32FD JUMP JUMPDEST SWAP3 POP SWAP3 POP POP DUP4 DUP3 PUSH6 0xFFFFFFFFFFFF AND GT ISZERO PUSH2 0x2789 JUMPI PUSH2 0x2784 PUSH2 0x2775 DUP6 PUSH2 0x338C JUMP JUMPDEST DUP7 PUSH2 0x33E5 SWAP1 SWAP2 SWAP1 PUSH4 0xFFFFFFFF AND JUMP JUMPDEST PUSH2 0x278B JUMP JUMPDEST DUP1 JUMPDEST PUSH26 0xFFFFFFFFFFFFFFFFFFFFFFFFFFFFFFFFFFFFFFFFFFFFFFFFFFFF AND SWAP3 POP POP POP SWAP3 SWAP2 POP POP JUMP JUMPDEST PUSH0 PUSH0 DUP3 MLOAD SWAP1 POP PUSH1 0x34 DUP2 LT ISZERO PUSH2 0x27CA JUMPI PUSH1 0x1 SWAP2 POP POP PUSH2 0x2891 JUMP JUMPDEST PUSH0 PUSH2 0x27D8 DUP5 PUSH1 0x34 DUP5 SUB PUSH2 0x34D5 JUMP JUMPDEST SWAP1 POP PUSH32 0x2370726F706F7365723D00000000000000000000000000000000000000000000 PUSH22 0xFFFFFFFFFFFFFFFFFFFFFFFFFFFFFFFFFFFFFFFFFFFF NOT AND DUP2 PUSH22 0xFFFFFFFFFFFFFFFFFFFFFFFFFFFFFFFFFFFFFFFFFFFF NOT AND EQ PUSH2 0x283E JUMPI PUSH1 0x1 SWAP3 POP POP POP PUSH2 0x2891 JUMP JUMPDEST PUSH0 PUSH0 PUSH2 0x284E DUP7 PUSH1 0x2A DUP7 SUB DUP7 PUSH2 0x34E5 JUMP JUMPDEST SWAP2 POP SWAP2 POP DUP2 ISZERO DUP1 PUSH2 0x288A JUMPI POP DUP7 PUSH20 0xFFFFFFFFFFFFFFFFFFFFFFFFFFFFFFFFFFFFFFFF AND DUP2 PUSH20 0xFFFFFFFFFFFFFFFFFFFFFFFFFFFFFFFFFFFFFFFF AND EQ JUMPDEST SWAP5 POP POP POP POP POP JUMPDEST SWAP3 SWAP2 POP POP JUMP JUMPDEST PUSH0 PUSH2 0x28AB DUP7 DUP7 DUP7 DUP7 DUP1 MLOAD SWAP1 PUSH1 0x20 ADD KECCAK256 PUSH2 0x1A81 JUMP JUMPDEST SWAP1 POP DUP5 MLOAD DUP7 MLOAD EQ ISZERO DUP1 PUSH2 0x28C0 JUMPI POP DUP4 MLOAD DUP7 MLOAD EQ ISZERO JUMPDEST DUP1 PUSH2 0x28CB JUMPI POP PUSH0 DUP7 MLOAD EQ JUMPDEST ISZERO PUSH2 0x2914 JUMPI DUP6 MLOAD DUP5 MLOAD DUP7 MLOAD PUSH1 0x40 MLOAD PUSH32 0x447B05D000000000000000000000000000000000000000000000000000000000 DUP2 MSTORE PUSH1 0x4 ADD PUSH2 0x290B SWAP4 SWAP3 SWAP2 SWAP1 PUSH2 0x4B9B JUMP JUMPDEST PUSH1 0x40 MLOAD DUP1 SWAP2 SUB SWAP1 REVERT JUMPDEST PUSH0 PUSH1 0x4 PUSH0 DUP4 DUP2 MSTORE PUSH1 0x20 ADD SWAP1 DUP2 MSTORE PUSH1 0x20 ADD PUSH0 KECCAK256 PUSH0 ADD PUSH1 0x14 SWAP1 SLOAD SWAP1 PUSH2 0x100 EXP SWAP1 DIV PUSH6 0xFFFFFFFFFFFF AND PUSH6 0xFFFFFFFFFFFF AND EQ PUSH2 0x2993 JUMPI DUP1 PUSH2 0x2952 DUP3 PUSH2 0x11F1 JUMP JUMPDEST PUSH0 PUSH0 SHL PUSH1 0x40 MLOAD PUSH32 0x31B75E4D00000000000000000000000000000000000000000000000000000000 DUP2 MSTORE PUSH1 0x4 ADD PUSH2 0x298A SWAP4 SWAP3 SWAP2 SWAP1 PUSH2 0x5B49 JUMP JUMPDEST PUSH1 0x40 MLOAD DUP1 SWAP2 SUB SWAP1 REVERT JUMPDEST PUSH0 PUSH2 0x299C PUSH2 0x11E9 JUMP JUMPDEST PUSH2 0x29A4 PUSH2 0x19AD JUMP JUMPDEST PUSH6 0xFFFFFFFFFFFF AND PUSH2 0x29B6 SWAP2 SWAP1 PUSH2 0x5BC4 JUMP JUMPDEST SWAP1 POP PUSH0 PUSH2 0x29C1 PUSH2 0xD56 JUMP JUMPDEST SWAP1 POP PUSH0 PUSH1 0x4 PUSH0 DUP6 DUP2 MSTORE PUSH1 0x20 ADD SWAP1 DUP2 MSTORE PUSH1 0x20 ADD PUSH0 KECCAK256 SWAP1 POP DUP5 DUP2 PUSH0 ADD PUSH0 PUSH2 0x100 EXP DUP2 SLOAD DUP2 PUSH20 0xFFFFFFFFFFFFFFFFFFFFFFFFFFFFFFFFFFFFFFFF MUL NOT AND SWAP1 DUP4 PUSH20 0xFFFFFFFFFFFFFFFFFFFFFFFFFFFFFFFFFFFFFFFF AND MUL OR SWAP1 SSTORE POP PUSH2 0x2A21 DUP4 PUSH2 0x338C JUMP JUMPDEST DUP2 PUSH0 ADD PUSH1 0x14 PUSH2 0x100 EXP DUP2 SLOAD DUP2 PUSH6 0xFFFFFFFFFFFF MUL NOT AND SWAP1 DUP4 PUSH6 0xFFFFFFFFFFFF AND MUL OR SWAP1 SSTORE POP PUSH2 0x2A4F DUP3 PUSH2 0x35F6 JUMP JUMPDEST DUP2 PUSH0 ADD PUSH1 0x1A PUSH2 0x100 EXP DUP2 SLOAD DUP2 PUSH4 0xFFFFFFFF MUL NOT AND SWAP1 DUP4 PUSH4 0xFFFFFFFF AND MUL OR SWAP1 SSTORE POP PUSH32 0x7D84A6263AE0D98D3329BD7B46BB4E8D6F98CD35A7ADB45C274C8B7FD5EBD5E0 DUP5 DUP7 DUP12 DUP12 DUP14 MLOAD PUSH8 0xFFFFFFFFFFFFFFFF DUP2 GT ISZERO PUSH2 0x2AB0 JUMPI PUSH2 0x2AAF PUSH2 0x4590 JUMP JUMPDEST JUMPDEST PUSH1 0x40 MLOAD SWAP1 DUP1 DUP3 MSTORE DUP1 PUSH1 0x20 MUL PUSH1 0x20 ADD DUP3 ADD PUSH1 0x40 MSTORE DUP1 ISZERO PUSH2 0x2AE3 JUMPI DUP2 PUSH1 0x20 ADD JUMPDEST PUSH1 0x60 DUP2 MSTORE PUSH1 0x20 ADD SWAP1 PUSH1 0x1 SWAP1 SUB SWAP1 DUP2 PUSH2 0x2ACE JUMPI SWAP1 POP JUMPDEST POP DUP13 DUP10 DUP10 DUP12 PUSH2 0x2AF2 SWAP2 SWAP1 PUSH2 0x5BC4 JUMP JUMPDEST DUP15 PUSH1 0x40 MLOAD PUSH2 0x2B08 SWAP10 SWAP9 SWAP8 SWAP7 SWAP6 SWAP5 SWAP4 SWAP3 SWAP2 SWAP1 PUSH2 0x6047 JUMP JUMPDEST PUSH1 0x40 MLOAD DUP1 SWAP2 SUB SWAP1 LOG1 POP POP POP SWAP6 SWAP5 POP POP POP POP POP JUMP JUMPDEST PUSH1 0x60 PUSH2 0x2B51 PUSH0 PUSH32 0x0 PUSH2 0x364D SWAP1 SWAP2 SWAP1 PUSH4 0xFFFFFFFF AND JUMP JUMPDEST SWAP1 POP SWAP1 JUMP JUMPDEST PUSH1 0x60 PUSH2 0x2B8C PUSH1 0x1 PUSH32 0x0 PUSH2 0x364D SWAP1 SWAP2 SWAP1 PUSH4 0xFFFFFFFF AND JUMP JUMPDEST SWAP1 POP SWAP1 JUMP JUMPDEST PUSH0 PUSH2 0x2BFB DUP4 PUSH2 0x2BF5 PUSH32 0xF2AAD550CF55F045CB27E9C559F9889FDFB6E6CDAA032301D6EA397784AE51D7 DUP9 DUP9 DUP9 PUSH2 0x2BC6 DUP11 PUSH2 0x2FED JUMP JUMPDEST PUSH1 0x40 MLOAD PUSH1 0x20 ADD PUSH2 0x2BDA SWAP6 SWAP5 SWAP4 SWAP3 SWAP2 SWAP1 PUSH2 0x60F5 JUMP JUMPDEST PUSH1 0x40 MLOAD PUSH1 0x20 DUP2 DUP4 SUB SUB DUP2 MSTORE SWAP1 PUSH1 0x40 MSTORE DUP1 MLOAD SWAP1 PUSH1 0x20 ADD KECCAK256 PUSH2 0x3040 JUMP JUMPDEST DUP5 PUSH2 0x3059 JUMP JUMPDEST SWAP1 POP SWAP5 SWAP4 POP POP POP POP JUMP JUMPDEST PUSH0 PUSH2 0x2C0F NUMBER PUSH2 0x338C JUMP JUMPDEST SWAP1 POP SWAP1 JUMP JUMPDEST PUSH0 PUSH2 0x2C1D PUSH2 0x1E27 JUMP JUMPDEST PUSH20 0xFFFFFFFFFFFFFFFFFFFFFFFFFFFFFFFFFFFFFFFF AND PUSH4 0x3A46B1A8 DUP6 DUP6 PUSH1 0x40 MLOAD DUP4 PUSH4 0xFFFFFFFF AND PUSH1 0xE0 SHL DUP2 MSTORE PUSH1 0x4 ADD PUSH2 0x2C57 SWAP3 SWAP2 SWAP1 PUSH2 0x6146 JUMP JUMPDEST PUSH1 0x20 PUSH1 0x40 MLOAD DUP1 DUP4 SUB DUP2 DUP7 GAS STATICCALL ISZERO DUP1 ISZERO PUSH2 0x2C72 JUMPI RETURNDATASIZE PUSH0 PUSH0 RETURNDATACOPY RETURNDATASIZE PUSH0 REVERT JUMPDEST POP POP POP POP PUSH1 0x40 MLOAD RETURNDATASIZE PUSH1 0x1F NOT PUSH1 0x1F DUP3 ADD AND DUP3 ADD DUP1 PUSH1 0x40 MSTORE POP DUP2 ADD SWAP1 PUSH2 0x2C96 SWAP2 SWAP1 PUSH2 0x5AF7 JUMP JUMPDEST SWAP1 POP SWAP4 SWAP3 POP POP POP JUMP JUMPDEST PUSH0 PUSH0 DUP3 PUSH0 ADD DUP1 SLOAD SWAP1 POP SWAP1 POP PUSH0 DUP2 EQ PUSH2 0x2CF7 JUMPI PUSH2 0x2CC9 DUP4 PUSH0 ADD PUSH1 0x1 DUP4 PUSH2 0x2CC4 SWAP2 SWAP1 PUSH2 0x5DA4 JUMP JUMPDEST PUSH2 0x36FA JUMP JUMPDEST PUSH0 ADD PUSH1 0x6 SWAP1 SLOAD SWAP1 PUSH2 0x100 EXP SWAP1 DIV PUSH26 0xFFFFFFFFFFFFFFFFFFFFFFFFFFFFFFFFFFFFFFFFFFFFFFFFFFFF AND PUSH2 0x2CF9 JUMP JUMPDEST PUSH0 JUMPDEST SWAP2 POP POP SWAP2 SWAP1 POP JUMP JUMPDEST PUSH1 0x60 DUP3 PUSH2 0x2D16 JUMPI PUSH2 0x2D11 DUP3 PUSH2 0x370C JUMP JUMPDEST PUSH2 0x2D1E JUMP JUMPDEST DUP2 SWAP1 POP PUSH2 0x2D1F JUMP JUMPDEST JUMPDEST SWAP3 SWAP2 POP POP JUMP JUMPDEST PUSH1 0x60 PUSH1 0x40 MLOAD DUP1 PUSH1 0x20 ADD PUSH1 0x40 MSTORE DUP1 PUSH0 DUP2 MSTORE POP SWAP1 POP SWAP1 JUMP JUMPDEST PUSH0 PUSH0 PUSH0 PUSH2 0x2D48 DUP7 DUP7 PUSH2 0x374F JUMP JUMPDEST SWAP2 POP SWAP2 POP PUSH0 DUP3 SUB PUSH2 0x2D6D JUMPI DUP4 DUP2 DUP2 PUSH2 0x2D63 JUMPI PUSH2 0x2D62 PUSH2 0x616D JUMP JUMPDEST JUMPDEST DIV SWAP3 POP POP POP PUSH2 0x2E13 JUMP JUMPDEST DUP2 DUP5 GT PUSH2 0x2D8C JUMPI PUSH2 0x2D8B PUSH2 0x2D86 PUSH0 DUP7 EQ PUSH1 0x12 PUSH1 0x11 PUSH2 0x376C JUMP JUMPDEST PUSH2 0x2FDC JUMP JUMPDEST JUMPDEST PUSH0 DUP5 DUP7 DUP9 MULMOD SWAP1 POP DUP2 DUP2 GT DUP4 SUB SWAP3 POP DUP1 DUP3 SUB SWAP2 POP PUSH0 DUP6 PUSH0 SUB DUP7 AND SWAP1 POP DUP1 DUP7 DIV SWAP6 POP DUP1 DUP4 DIV SWAP3 POP PUSH1 0x1 DUP2 DUP3 PUSH0 SUB DIV ADD SWAP1 POP DUP1 DUP5 MUL DUP4 OR SWAP3 POP PUSH0 PUSH1 0x2 DUP8 PUSH1 0x3 MUL XOR SWAP1 POP DUP1 DUP8 MUL PUSH1 0x2 SUB DUP2 MUL SWAP1 POP DUP1 DUP8 MUL PUSH1 0x2 SUB DUP2 MUL SWAP1 POP DUP1 DUP8 MUL PUSH1 0x2 SUB DUP2 MUL SWAP1 POP DUP1 DUP8 MUL PUSH1 0x2 SUB DUP2 MUL SWAP1 POP DUP1 DUP8 MUL PUSH1 0x2 SUB DUP2 MUL SWAP1 POP DUP1 DUP8 MUL PUSH1 0x2 SUB DUP2 MUL SWAP1 POP DUP1 DUP5 MUL SWAP6 POP POP POP POP POP POP JUMPDEST SWAP4 SWAP3 POP POP POP JUMP JUMPDEST CALLDATASIZE PUSH0 PUSH0 CALLDATASIZE SWAP2 POP SWAP2 POP SWAP1 SWAP2 JUMP JUMPDEST PUSH0 PUSH0 DUP3 PUSH0 ADD PUSH0 SWAP1 SLOAD SWAP1 PUSH2 0x100 EXP SWAP1 DIV PUSH16 0xFFFFFFFFFFFFFFFFFFFFFFFFFFFFFFFF AND SWAP1 POP DUP3 PUSH0 ADD PUSH1 0x10 SWAP1 SLOAD SWAP1 PUSH2 0x100 EXP SWAP1 DIV PUSH16 0xFFFFFFFFFFFFFFFFFFFFFFFFFFFFFFFF AND PUSH16 0xFFFFFFFFFFFFFFFFFFFFFFFFFFFFFFFF AND DUP2 PUSH16 0xFFFFFFFFFFFFFFFFFFFFFFFFFFFFFFFF AND SUB PUSH2 0x2E9E JUMPI PUSH2 0x2E9D PUSH1 0x31 PUSH2 0x2FDC JUMP JUMPDEST JUMPDEST DUP3 PUSH1 0x1 ADD PUSH0 DUP3 PUSH16 0xFFFFFFFFFFFFFFFFFFFFFFFFFFFFFFFF AND PUSH16 0xFFFFFFFFFFFFFFFFFFFFFFFFFFFFFFFF AND DUP2 MSTORE PUSH1 0x20 ADD SWAP1 DUP2 MSTORE PUSH1 0x20 ADD PUSH0 KECCAK256 SLOAD SWAP2 POP DUP3 PUSH1 0x1 ADD PUSH0 DUP3 PUSH16 0xFFFFFFFFFFFFFFFFFFFFFFFFFFFFFFFF AND PUSH16 0xFFFFFFFFFFFFFFFFFFFFFFFFFFFFFFFF AND DUP2 MSTORE PUSH1 0x20 ADD SWAP1 DUP2 MSTORE PUSH1 0x20 ADD PUSH0 KECCAK256 PUSH0 SWAP1 SSTORE PUSH1 0x1 DUP2 ADD DUP4 PUSH0 ADD PUSH0 PUSH2 0x100 EXP DUP2 SLOAD DUP2 PUSH16 0xFFFFFFFFFFFFFFFFFFFFFFFFFFFFFFFF MUL NOT AND SWAP1 DUP4 PUSH16 0xFFFFFFFFFFFFFFFFFFFFFFFFFFFFFFFF AND MUL OR SWAP1 SSTORE POP POP SWAP2 SWAP1 POP JUMP JUMPDEST PUSH0 PUSH26 0xFFFFFFFFFFFFFFFFFFFFFFFFFFFFFFFFFFFFFFFFFFFFFFFFFFFF DUP1 AND DUP3 GT ISZERO PUSH2 0x2FB9 JUMPI PUSH1 0xD0 DUP3 PUSH1 0x40 MLOAD PUSH32 0x6DFCC65000000000000000000000000000000000000000000000000000000000 DUP2 MSTORE PUSH1 0x4 ADD PUSH2 0x2FB0 SWAP3 SWAP2 SWAP1 PUSH2 0x61D3 JUMP JUMPDEST PUSH1 0x40 MLOAD DUP1 SWAP2 SUB SWAP1 REVERT JUMPDEST DUP2 SWAP1 POP SWAP2 SWAP1 POP JUMP JUMPDEST PUSH0 PUSH0 PUSH2 0x2FD0 DUP6 PUSH0 ADD DUP6 DUP6 PUSH2 0x3785 JUMP JUMPDEST SWAP2 POP SWAP2 POP SWAP4 POP SWAP4 SWAP2 POP POP JUMP JUMPDEST PUSH4 0x4E487B71 PUSH0 MSTORE DUP1 PUSH1 0x20 MSTORE PUSH1 0x24 PUSH1 0x1C REVERT JUMPDEST PUSH0 PUSH1 0x2 PUSH0 DUP4 PUSH20 0xFFFFFFFFFFFFFFFFFFFFFFFFFFFFFFFFFFFFFFFF AND PUSH20 0xFFFFFFFFFFFFFFFFFFFFFFFFFFFFFFFFFFFFFFFF AND DUP2 MSTORE PUSH1 0x20 ADD SWAP1 DUP2 MSTORE PUSH1 0x20 ADD PUSH0 KECCAK256 PUSH0 DUP2 SLOAD DUP1 SWAP3 SWAP2 SWAP1 PUSH1 0x1 ADD SWAP2 SWAP1 POP SSTORE SWAP1 POP SWAP2 SWAP1 POP JUMP JUMPDEST PUSH0 PUSH2 0x3052 PUSH2 0x304C PUSH2 0x3A79 JUMP JUMPDEST DUP4 PUSH2 0x3B2F JUMP JUMPDEST SWAP1 POP SWAP2 SWAP1 POP JUMP JUMPDEST PUSH0 PUSH0 DUP5 PUSH20 0xFFFFFFFFFFFFFFFFFFFFFFFFFFFFFFFFFFFFFFFF AND EXTCODESIZE SUB PUSH2 0x30F0 JUMPI PUSH0 PUSH0 PUSH2 0x3084 DUP6 DUP6 PUSH2 0x3B6F JUMP JUMPDEST POP SWAP2 POP SWAP2 POP PUSH0 PUSH1 0x3 DUP2 GT ISZERO PUSH2 0x309C JUMPI PUSH2 0x309B PUSH2 0x4AD1 JUMP JUMPDEST JUMPDEST DUP2 PUSH1 0x3 DUP2 GT ISZERO PUSH2 0x30AF JUMPI PUSH2 0x30AE PUSH2 0x4AD1 JUMP JUMPDEST JUMPDEST EQ DUP1 ISZERO PUSH2 0x30E7 JUMPI POP DUP6 PUSH20 0xFFFFFFFFFFFFFFFFFFFFFFFFFFFFFFFFFFFFFFFF AND DUP3 PUSH20 0xFFFFFFFFFFFFFFFFFFFFFFFFFFFFFFFFFFFFFFFF AND EQ JUMPDEST SWAP3 POP POP POP PUSH2 0x30FE JUMP JUMPDEST PUSH2 0x30FB DUP5 DUP5 DUP5 PUSH2 0x3BC4 JUMP JUMPDEST SWAP1 POP JUMPDEST SWAP4 SWAP3 POP POP POP JUMP JUMPDEST PUSH0 PUSH0 PUSH1 0x7 PUSH0 DUP9 DUP2 MSTORE PUSH1 0x20 ADD SWAP1 DUP2 MSTORE PUSH1 0x20 ADD PUSH0 KECCAK256 SWAP1 POP DUP1 PUSH1 0x3 ADD PUSH0 DUP8 PUSH20 0xFFFFFFFFFFFFFFFFFFFFFFFFFFFFFFFFFFFFFFFF AND PUSH20 0xFFFFFFFFFFFFFFFFFFFFFFFFFFFFFFFFFFFFFFFF AND DUP2 MSTORE PUSH1 0x20 ADD SWAP1 DUP2 MSTORE PUSH1 0x20 ADD PUSH0 KECCAK256 PUSH0 SWAP1 SLOAD SWAP1 PUSH2 0x100 EXP SWAP1 DIV PUSH1 0xFF AND ISZERO PUSH2 0x31A8 JUMPI DUP6 PUSH1 0x40 MLOAD PUSH32 0x71C6AF4900000000000000000000000000000000000000000000000000000000 DUP2 MSTORE PUSH1 0x4 ADD PUSH2 0x319F SWAP2 SWAP1 PUSH2 0x4545 JUMP JUMPDEST PUSH1 0x40 MLOAD DUP1 SWAP2 SUB SWAP1 REVERT JUMPDEST PUSH1 0x1 DUP2 PUSH1 0x3 ADD PUSH0 DUP9 PUSH20 0xFFFFFFFFFFFFFFFFFFFFFFFFFFFFFFFFFFFFFFFF AND PUSH20 0xFFFFFFFFFFFFFFFFFFFFFFFFFFFFFFFFFFFFFFFF AND DUP2 MSTORE PUSH1 0x20 ADD SWAP1 DUP2 MSTORE PUSH1 0x20 ADD PUSH0 KECCAK256 PUSH0 PUSH2 0x100 EXP DUP2 SLOAD DUP2 PUSH1 0xFF MUL NOT AND SWAP1 DUP4 ISZERO ISZERO MUL OR SWAP1 SSTORE POP PUSH0 PUSH1 0x2 DUP2 GT ISZERO PUSH2 0x3212 JUMPI PUSH2 0x3211 PUSH2 0x4AD1 JUMP JUMPDEST JUMPDEST PUSH1 0xFF AND DUP6 PUSH1 0xFF AND SUB PUSH2 0x323C JUMPI DUP4 DUP2 PUSH0 ADD PUSH0 DUP3 DUP3 SLOAD PUSH2 0x3230 SWAP2 SWAP1 PUSH2 0x5BC4 JUMP JUMPDEST SWAP3 POP POP DUP2 SWAP1 SSTORE POP PUSH2 0x32ED JUMP JUMPDEST PUSH1 0x1 PUSH1 0x2 DUP2 GT ISZERO PUSH2 0x3250 JUMPI PUSH2 0x324F PUSH2 0x4AD1 JUMP JUMPDEST JUMPDEST PUSH1 0xFF AND DUP6 PUSH1 0xFF AND SUB PUSH2 0x327B JUMPI DUP4 DUP2 PUSH1 0x1 ADD PUSH0 DUP3 DUP3 SLOAD PUSH2 0x326F SWAP2 SWAP1 PUSH2 0x5BC4 JUMP JUMPDEST SWAP3 POP POP DUP2 SWAP1 SSTORE POP PUSH2 0x32EC JUMP JUMPDEST PUSH1 0x2 DUP1 DUP2 GT ISZERO PUSH2 0x328E JUMPI PUSH2 0x328D PUSH2 0x4AD1 JUMP JUMPDEST JUMPDEST PUSH1 0xFF AND DUP6 PUSH1 0xFF AND SUB PUSH2 0x32B9 JUMPI DUP4 DUP2 PUSH1 0x2 ADD PUSH0 DUP3 DUP3 SLOAD PUSH2 0x32AD SWAP2 SWAP1 PUSH2 0x5BC4 JUMP JUMPDEST SWAP3 POP POP DUP2 SWAP1 SSTORE POP PUSH2 0x32EB JUMP JUMPDEST PUSH1 0x40 MLOAD PUSH32 0x6B337C200000000000000000000000000000000000000000000000000000000 DUP2 MSTORE PUSH1 0x4 ADD PUSH1 0x40 MLOAD DUP1 SWAP2 SUB SWAP1 REVERT JUMPDEST JUMPDEST JUMPDEST DUP4 SWAP2 POP POP SWAP6 SWAP5 POP POP POP POP POP JUMP JUMPDEST POP JUMP JUMPDEST PUSH0 PUSH0 PUSH0 PUSH0 DUP5 PUSH0 ADD DUP1 SLOAD SWAP1 POP SWAP1 POP PUSH0 DUP2 SUB PUSH2 0x3320 JUMPI PUSH0 PUSH0 PUSH0 SWAP4 POP SWAP4 POP SWAP4 POP POP PUSH2 0x3385 JUMP JUMPDEST PUSH0 PUSH2 0x3339 DUP7 PUSH0 ADD PUSH1 0x1 DUP5 PUSH2 0x3334 SWAP2 SWAP1 PUSH2 0x5DA4 JUMP JUMPDEST PUSH2 0x36FA JUMP JUMPDEST SWAP1 POP PUSH1 0x1 DUP2 PUSH0 ADD PUSH0 SWAP1 SLOAD SWAP1 PUSH2 0x100 EXP SWAP1 DIV PUSH6 0xFFFFFFFFFFFF AND DUP3 PUSH0 ADD PUSH1 0x6 SWAP1 SLOAD SWAP1 PUSH2 0x100 EXP SWAP1 DIV PUSH26 0xFFFFFFFFFFFFFFFFFFFFFFFFFFFFFFFFFFFFFFFFFFFFFFFFFFFF AND SWAP5 POP SWAP5 POP SWAP5 POP POP POP JUMPDEST SWAP2 SWAP4 SWAP1 SWAP3 POP JUMP JUMPDEST PUSH0 PUSH6 0xFFFFFFFFFFFF DUP1 AND DUP3 GT ISZERO PUSH2 0x33DD JUMPI PUSH1 0x30 DUP3 PUSH1 0x40 MLOAD PUSH32 0x6DFCC65000000000000000000000000000000000000000000000000000000000 DUP2 MSTORE PUSH1 0x4 ADD PUSH2 0x33D4 SWAP3 SWAP2 SWAP1 PUSH2 0x6233 JUMP JUMPDEST PUSH1 0x40 MLOAD DUP1 SWAP2 SUB SWAP1 REVERT JUMPDEST DUP2 SWAP1 POP SWAP2 SWAP1 POP JUMP JUMPDEST PUSH0 PUSH0 DUP4 PUSH0 ADD DUP1 SLOAD SWAP1 POP SWAP1 POP PUSH0 PUSH0 SWAP1 POP PUSH0 DUP3 SWAP1 POP PUSH1 0x5 DUP4 GT ISZERO PUSH2 0x3469 JUMPI PUSH0 PUSH2 0x340B DUP5 PUSH2 0x3CE3 JUMP JUMPDEST DUP5 PUSH2 0x3416 SWAP2 SWAP1 PUSH2 0x5DA4 JUMP JUMPDEST SWAP1 POP PUSH2 0x3424 DUP8 PUSH0 ADD DUP3 PUSH2 0x36FA JUMP JUMPDEST PUSH0 ADD PUSH0 SWAP1 SLOAD SWAP1 PUSH2 0x100 EXP SWAP1 DIV PUSH6 0xFFFFFFFFFFFF AND PUSH6 0xFFFFFFFFFFFF AND DUP7 PUSH6 0xFFFFFFFFFFFF AND LT ISZERO PUSH2 0x3457 JUMPI DUP1 SWAP2 POP PUSH2 0x3467 JUMP JUMPDEST PUSH1 0x1 DUP2 PUSH2 0x3464 SWAP2 SWAP1 PUSH2 0x5BC4 JUMP JUMPDEST SWAP3 POP JUMPDEST POP JUMPDEST PUSH0 PUSH2 0x3478 DUP8 PUSH0 ADD DUP8 DUP6 DUP6 PUSH2 0x3E7D JUMP JUMPDEST SWAP1 POP PUSH0 DUP2 EQ PUSH2 0x34C7 JUMPI PUSH2 0x3499 DUP8 PUSH0 ADD PUSH1 0x1 DUP4 PUSH2 0x3494 SWAP2 SWAP1 PUSH2 0x5DA4 JUMP JUMPDEST PUSH2 0x36FA JUMP JUMPDEST PUSH0 ADD PUSH1 0x6 SWAP1 SLOAD SWAP1 PUSH2 0x100 EXP SWAP1 DIV PUSH26 0xFFFFFFFFFFFFFFFFFFFFFFFFFFFFFFFFFFFFFFFFFFFFFFFFFFFF AND PUSH2 0x34C9 JUMP JUMPDEST PUSH0 JUMPDEST SWAP5 POP POP POP POP POP SWAP3 SWAP2 POP POP JUMP JUMPDEST PUSH0 DUP2 PUSH1 0x20 DUP5 ADD ADD MLOAD SWAP1 POP SWAP3 SWAP2 POP POP JUMP JUMPDEST PUSH0 PUSH0 DUP5 MLOAD DUP4 GT DUP1 PUSH2 0x34F5 JUMPI POP DUP3 DUP5 GT JUMPDEST ISZERO PUSH2 0x3505 JUMPI PUSH0 PUSH0 SWAP2 POP SWAP2 POP PUSH2 0x35EE JUMP JUMPDEST PUSH0 PUSH1 0x1 DUP6 PUSH2 0x3513 SWAP2 SWAP1 PUSH2 0x5BC4 JUMP JUMPDEST DUP5 GT DUP1 ISZERO PUSH2 0x358B JUMPI POP PUSH32 0x3078000000000000000000000000000000000000000000000000000000000000 PUSH30 0xFFFFFFFFFFFFFFFFFFFFFFFFFFFFFFFFFFFFFFFFFFFFFFFFFFFFFFFFFFFF NOT AND PUSH2 0x3568 DUP8 DUP8 PUSH2 0x3EF2 JUMP JUMPDEST PUSH30 0xFFFFFFFFFFFFFFFFFFFFFFFFFFFFFFFFFFFFFFFFFFFFFFFFFFFFFFFFFFFF NOT AND EQ JUMPDEST SWAP1 POP PUSH0 PUSH1 0x2 PUSH2 0x359B DUP4 ISZERO ISZERO PUSH2 0x3F02 JUMP JUMPDEST PUSH2 0x35A5 SWAP2 SWAP1 PUSH2 0x625A JUMP JUMPDEST PUSH1 0x28 PUSH2 0x35B1 SWAP2 SWAP1 PUSH2 0x5BC4 JUMP JUMPDEST SWAP1 POP DUP1 DUP7 DUP7 PUSH2 0x35C0 SWAP2 SWAP1 PUSH2 0x5DA4 JUMP JUMPDEST SUB PUSH2 0x35E5 JUMPI PUSH0 PUSH0 PUSH2 0x35D2 DUP10 DUP10 DUP10 PUSH2 0x3F0D JUMP JUMPDEST SWAP2 POP SWAP2 POP DUP2 DUP2 SWAP6 POP SWAP6 POP POP POP POP POP PUSH2 0x35EE JUMP JUMPDEST PUSH0 PUSH0 SWAP4 POP SWAP4 POP POP POP JUMPDEST SWAP4 POP SWAP4 SWAP2 POP POP JUMP JUMPDEST PUSH0 PUSH4 0xFFFFFFFF DUP1 AND DUP3 GT ISZERO PUSH2 0x3645 JUMPI PUSH1 0x20 DUP3 PUSH1 0x40 MLOAD PUSH32 0x6DFCC65000000000000000000000000000000000000000000000000000000000 DUP2 MSTORE PUSH1 0x4 ADD PUSH2 0x363C SWAP3 SWAP2 SWAP1 PUSH2 0x62D4 JUMP JUMPDEST PUSH1 0x40 MLOAD DUP1 SWAP2 SUB SWAP1 REVERT JUMPDEST DUP2 SWAP1 POP SWAP2 SWAP1 POP JUMP JUMPDEST PUSH1 0x60 PUSH1 0xFF PUSH0 SHL DUP4 EQ PUSH2 0x3669 JUMPI PUSH2 0x3662 DUP4 PUSH2 0x403B JUMP JUMPDEST SWAP1 POP PUSH2 0x36F4 JUMP JUMPDEST DUP2 DUP1 SLOAD PUSH2 0x3675 SWAP1 PUSH2 0x55C8 JUMP JUMPDEST DUP1 PUSH1 0x1F ADD PUSH1 0x20 DUP1 SWAP2 DIV MUL PUSH1 0x20 ADD PUSH1 0x40 MLOAD SWAP1 DUP2 ADD PUSH1 0x40 MSTORE DUP1 SWAP3 SWAP2 SWAP1 DUP2 DUP2 MSTORE PUSH1 0x20 ADD DUP3 DUP1 SLOAD PUSH2 0x36A1 SWAP1 PUSH2 0x55C8 JUMP JUMPDEST DUP1 ISZERO PUSH2 0x36EC JUMPI DUP1 PUSH1 0x1F LT PUSH2 0x36C3 JUMPI PUSH2 0x100 DUP1 DUP4 SLOAD DIV MUL DUP4 MSTORE SWAP2 PUSH1 0x20 ADD SWAP2 PUSH2 0x36EC JUMP JUMPDEST DUP3 ADD SWAP2 SWAP1 PUSH0 MSTORE PUSH1 0x20 PUSH0 KECCAK256 SWAP1 JUMPDEST DUP2 SLOAD DUP2 MSTORE SWAP1 PUSH1 0x1 ADD SWAP1 PUSH1 0x20 ADD DUP1 DUP4 GT PUSH2 0x36CF JUMPI DUP3 SWAP1 SUB PUSH1 0x1F AND DUP3 ADD SWAP2 JUMPDEST POP POP POP POP POP SWAP1 POP JUMPDEST SWAP3 SWAP2 POP POP JUMP JUMPDEST PUSH0 DUP3 PUSH0 MSTORE DUP2 PUSH1 0x20 PUSH0 KECCAK256 ADD SWAP1 POP SWAP3 SWAP2 POP POP JUMP JUMPDEST PUSH0 DUP2 MLOAD GT ISZERO PUSH2 0x371D JUMPI DUP1 MLOAD PUSH1 0x20 DUP3 ADD REVERT JUMPDEST PUSH1 0x40 MLOAD PUSH32 0xD6BDA27500000000000000000000000000000000000000000000000000000000 DUP2 MSTORE PUSH1 0x4 ADD PUSH1 0x40 MLOAD DUP1 SWAP2 SUB SWAP1 REVERT JUMPDEST PUSH0 PUSH0 PUSH0 NOT DUP4 DUP6 MULMOD DUP4 DUP6 MUL SWAP2 POP DUP2 DUP2 LT DUP3 DUP3 SUB SUB SWAP3 POP POP SWAP3 POP SWAP3 SWAP1 POP JUMP JUMPDEST PUSH0 PUSH2 0x3776 DUP5 PUSH2 0x3F02 JUMP JUMPDEST DUP3 DUP5 XOR MUL DUP3 XOR SWAP1 POP SWAP4 SWAP3 POP POP POP JUMP JUMPDEST PUSH0 PUSH0 PUSH0 DUP6 DUP1 SLOAD SWAP1 POP SWAP1 POP PUSH0 DUP2 GT ISZERO PUSH2 0x3991 JUMPI PUSH0 PUSH2 0x37AE DUP8 PUSH1 0x1 DUP5 PUSH2 0x37A9 SWAP2 SWAP1 PUSH2 0x5DA4 JUMP JUMPDEST PUSH2 0x36FA JUMP JUMPDEST SWAP1 POP PUSH0 DUP2 PUSH0 ADD PUSH0 SWAP1 SLOAD SWAP1 PUSH2 0x100 EXP SWAP1 DIV PUSH6 0xFFFFFFFFFFFF AND SWAP1 POP PUSH0 DUP3 PUSH0 ADD PUSH1 0x6 SWAP1 SLOAD SWAP1 PUSH2 0x100 EXP SWAP1 DIV PUSH26 0xFFFFFFFFFFFFFFFFFFFFFFFFFFFFFFFFFFFFFFFFFFFFFFFFFFFF AND SWAP1 POP DUP8 PUSH6 0xFFFFFFFFFFFF AND DUP3 PUSH6 0xFFFFFFFFFFFF AND GT ISZERO PUSH2 0x383F JUMPI PUSH1 0x40 MLOAD PUSH32 0x2520601D00000000000000000000000000000000000000000000000000000000 DUP2 MSTORE PUSH1 0x4 ADD PUSH1 0x40 MLOAD DUP1 SWAP2 SUB SWAP1 REVERT JUMPDEST DUP8 PUSH6 0xFFFFFFFFFFFF AND DUP3 PUSH6 0xFFFFFFFFFFFF AND SUB PUSH2 0x38A9 JUMPI DUP7 DUP4 PUSH0 ADD PUSH1 0x6 PUSH2 0x100 EXP DUP2 SLOAD DUP2 PUSH26 0xFFFFFFFFFFFFFFFFFFFFFFFFFFFFFFFFFFFFFFFFFFFFFFFFFFFF MUL NOT AND SWAP1 DUP4 PUSH26 0xFFFFFFFFFFFFFFFFFFFFFFFFFFFFFFFFFFFFFFFFFFFFFFFFFFFF AND MUL OR SWAP1 SSTORE POP PUSH2 0x3982 JUMP JUMPDEST DUP9 PUSH1 0x40 MLOAD DUP1 PUSH1 0x40 ADD PUSH1 0x40 MSTORE DUP1 DUP11 PUSH6 0xFFFFFFFFFFFF AND DUP2 MSTORE PUSH1 0x20 ADD DUP10 PUSH26 0xFFFFFFFFFFFFFFFFFFFFFFFFFFFFFFFFFFFFFFFFFFFFFFFFFFFF AND DUP2 MSTORE POP SWAP1 DUP1 PUSH1 0x1 DUP2 SLOAD ADD DUP1 DUP3 SSTORE DUP1 SWAP2 POP POP PUSH1 0x1 SWAP1 SUB SWAP1 PUSH0 MSTORE PUSH1 0x20 PUSH0 KECCAK256 ADD PUSH0 SWAP1 SWAP2 SWAP1 SWAP2 SWAP1 SWAP2 POP PUSH0 DUP3 ADD MLOAD DUP2 PUSH0 ADD PUSH0 PUSH2 0x100 EXP DUP2 SLOAD DUP2 PUSH6 0xFFFFFFFFFFFF MUL NOT AND SWAP1 DUP4 PUSH6 0xFFFFFFFFFFFF AND MUL OR SWAP1 SSTORE POP PUSH1 0x20 DUP3 ADD MLOAD DUP2 PUSH0 ADD PUSH1 0x6 PUSH2 0x100 EXP DUP2 SLOAD DUP2 PUSH26 0xFFFFFFFFFFFFFFFFFFFFFFFFFFFFFFFFFFFFFFFFFFFFFFFFFFFF MUL NOT AND SWAP1 DUP4 PUSH26 0xFFFFFFFFFFFFFFFFFFFFFFFFFFFFFFFFFFFFFFFFFFFFFFFFFFFF AND MUL OR SWAP1 SSTORE POP POP POP JUMPDEST DUP1 DUP8 SWAP6 POP SWAP6 POP POP POP POP POP PUSH2 0x3A71 JUMP JUMPDEST DUP6 PUSH1 0x40 MLOAD DUP1 PUSH1 0x40 ADD PUSH1 0x40 MSTORE DUP1 DUP8 PUSH6 0xFFFFFFFFFFFF AND DUP2 MSTORE PUSH1 0x20 ADD DUP7 PUSH26 0xFFFFFFFFFFFFFFFFFFFFFFFFFFFFFFFFFFFFFFFFFFFFFFFFFFFF AND DUP2 MSTORE POP SWAP1 DUP1 PUSH1 0x1 DUP2 SLOAD ADD DUP1 DUP3 SSTORE DUP1 SWAP2 POP POP PUSH1 0x1 SWAP1 SUB SWAP1 PUSH0 MSTORE PUSH1 0x20 PUSH0 KECCAK256 ADD PUSH0 SWAP1 SWAP2 SWAP1 SWAP2 SWAP1 SWAP2 POP PUSH0 DUP3 ADD MLOAD DUP2 PUSH0 ADD PUSH0 PUSH2 0x100 EXP DUP2 SLOAD DUP2 PUSH6 0xFFFFFFFFFFFF MUL NOT AND SWAP1 DUP4 PUSH6 0xFFFFFFFFFFFF AND MUL OR SWAP1 SSTORE POP PUSH1 0x20 DUP3 ADD MLOAD DUP2 PUSH0 ADD PUSH1 0x6 PUSH2 0x100 EXP DUP2 SLOAD DUP2 PUSH26 0xFFFFFFFFFFFFFFFFFFFFFFFFFFFFFFFFFFFFFFFFFFFFFFFFFFFF MUL NOT AND SWAP1 DUP4 PUSH26 0xFFFFFFFFFFFFFFFFFFFFFFFFFFFFFFFFFFFFFFFFFFFFFFFFFFFF AND MUL OR SWAP1 SSTORE POP POP POP PUSH0 DUP5 SWAP3 POP SWAP3 POP POP JUMPDEST SWAP4 POP SWAP4 SWAP2 POP POP JUMP JUMPDEST PUSH0 PUSH32 0x0 PUSH20 0xFFFFFFFFFFFFFFFFFFFFFFFFFFFFFFFFFFFFFFFF AND ADDRESS PUSH20 0xFFFFFFFFFFFFFFFFFFFFFFFFFFFFFFFFFFFFFFFF AND EQ DUP1 ISZERO PUSH2 0x3AF4 JUMPI POP PUSH32 0x0 CHAINID EQ JUMPDEST ISZERO PUSH2 0x3B21 JUMPI PUSH32 0x0 SWAP1 POP PUSH2 0x3B2C JUMP JUMPDEST PUSH2 0x3B29 PUSH2 0x40AD JUMP JUMPDEST SWAP1 POP JUMPDEST SWAP1 JUMP JUMPDEST PUSH0 PUSH1 0x40 MLOAD PUSH32 0x1901000000000000000000000000000000000000000000000000000000000000 DUP2 MSTORE DUP4 PUSH1 0x2 DUP3 ADD MSTORE DUP3 PUSH1 0x22 DUP3 ADD MSTORE PUSH1 0x42 DUP2 KECCAK256 SWAP2 POP POP SWAP3 SWAP2 POP POP JUMP JUMPDEST PUSH0 PUSH0 PUSH0 PUSH1 0x41 DUP5 MLOAD SUB PUSH2 0x3BAF JUMPI PUSH0 PUSH0 PUSH0 PUSH1 0x20 DUP8 ADD MLOAD SWAP3 POP PUSH1 0x40 DUP8 ADD MLOAD SWAP2 POP PUSH1 0x60 DUP8 ADD MLOAD PUSH0 BYTE SWAP1 POP PUSH2 0x3BA1 DUP9 DUP3 DUP6 DUP6 PUSH2 0x4142 JUMP JUMPDEST SWAP6 POP SWAP6 POP SWAP6 POP POP POP POP PUSH2 0x3BBD JUMP JUMPDEST PUSH0 PUSH1 0x2 DUP6 MLOAD PUSH0 SHL SWAP3 POP SWAP3 POP SWAP3 POP JUMPDEST SWAP3 POP SWAP3 POP SWAP3 JUMP JUMPDEST PUSH0 PUSH0 PUSH0 DUP6 PUSH20 0xFFFFFFFFFFFFFFFFFFFFFFFFFFFFFFFFFFFFFFFF AND DUP6 DUP6 PUSH1 0x40 MLOAD PUSH1 0x24 ADD PUSH2 0x3BF1 SWAP3 SWAP2 SWAP1 PUSH2 0x62FB JUMP JUMPDEST PUSH1 0x40 MLOAD PUSH1 0x20 DUP2 DUP4 SUB SUB DUP2 MSTORE SWAP1 PUSH1 0x40 MSTORE PUSH4 0x1626BA7E PUSH1 0xE0 SHL PUSH1 0x20 DUP3 ADD DUP1 MLOAD PUSH28 0xFFFFFFFFFFFFFFFFFFFFFFFFFFFFFFFFFFFFFFFFFFFFFFFFFFFFFFFF DUP4 DUP2 DUP4 AND OR DUP4 MSTORE POP POP POP POP PUSH1 0x40 MLOAD PUSH2 0x3C43 SWAP2 SWAP1 PUSH2 0x5BAE JUMP JUMPDEST PUSH0 PUSH1 0x40 MLOAD DUP1 DUP4 SUB DUP2 DUP6 GAS STATICCALL SWAP2 POP POP RETURNDATASIZE DUP1 PUSH0 DUP2 EQ PUSH2 0x3C7B JUMPI PUSH1 0x40 MLOAD SWAP2 POP PUSH1 0x1F NOT PUSH1 0x3F RETURNDATASIZE ADD AND DUP3 ADD PUSH1 0x40 MSTORE RETURNDATASIZE DUP3 MSTORE RETURNDATASIZE PUSH0 PUSH1 0x20 DUP5 ADD RETURNDATACOPY PUSH2 0x3C80 JUMP JUMPDEST PUSH1 0x60 SWAP2 POP JUMPDEST POP SWAP2 POP SWAP2 POP DUP2 DUP1 ISZERO PUSH2 0x3C94 JUMPI POP PUSH1 0x20 DUP2 MLOAD LT ISZERO JUMPDEST DUP1 ISZERO PUSH2 0x3CD8 JUMPI POP PUSH4 0x1626BA7E PUSH1 0xE0 SHL PUSH28 0xFFFFFFFFFFFFFFFFFFFFFFFFFFFFFFFFFFFFFFFFFFFFFFFFFFFFFFFF NOT AND DUP2 DUP1 PUSH1 0x20 ADD SWAP1 MLOAD DUP2 ADD SWAP1 PUSH2 0x3CD6 SWAP2 SWAP1 PUSH2 0x633D JUMP JUMPDEST EQ JUMPDEST SWAP3 POP POP POP SWAP4 SWAP3 POP POP POP JUMP JUMPDEST PUSH0 PUSH1 0x1 DUP3 GT PUSH2 0x3CF4 JUMPI DUP2 SWAP1 POP PUSH2 0x3E78 JUMP JUMPDEST PUSH0 DUP3 SWAP1 POP PUSH0 PUSH1 0x1 SWAP1 POP PUSH17 0x100000000000000000000000000000000 DUP3 LT PUSH2 0x3D24 JUMPI PUSH1 0x80 DUP3 SWAP1 SHR SWAP2 POP PUSH1 0x40 DUP2 SWAP1 SHL SWAP1 POP JUMPDEST PUSH9 0x10000000000000000 DUP3 LT PUSH2 0x3D43 JUMPI PUSH1 0x40 DUP3 SWAP1 SHR SWAP2 POP PUSH1 0x20 DUP2 SWAP1 SHL SWAP1 POP JUMPDEST PUSH5 0x100000000 DUP3 LT PUSH2 0x3D5E JUMPI PUSH1 0x20 DUP3 SWAP1 SHR SWAP2 POP PUSH1 0x10 DUP2 SWAP1 SHL SWAP1 POP JUMPDEST PUSH3 0x10000 DUP3 LT PUSH2 0x3D77 JUMPI PUSH1 0x10 DUP3 SWAP1 SHR SWAP2 POP PUSH1 0x8 DUP2 SWAP1 SHL SWAP1 POP JUMPDEST PUSH2 0x100 DUP3 LT PUSH2 0x3D8F JUMPI PUSH1 0x8 DUP3 SWAP1 SHR SWAP2 POP PUSH1 0x4 DUP2 SWAP1 SHL SWAP1 POP JUMPDEST PUSH1 0x10 DUP3 LT PUSH2 0x3DA6 JUMPI PUSH1 0x4 DUP3 SWAP1 SHR SWAP2 POP PUSH1 0x2 DUP2 SWAP1 SHL SWAP1 POP JUMPDEST PUSH1 0x4 DUP3 LT PUSH2 0x3DB6 JUMPI PUSH1 0x1 DUP2 SWAP1 SHL SWAP1 POP JUMPDEST PUSH1 0x1 DUP2 PUSH1 0x3 MUL SWAP1 SHR SWAP1 POP PUSH1 0x1 DUP2 DUP6 DUP2 PUSH2 0x3DD2 JUMPI PUSH2 0x3DD1 PUSH2 0x616D JUMP JUMPDEST JUMPDEST DIV DUP3 ADD SWAP1 SHR SWAP1 POP PUSH1 0x1 DUP2 DUP6 DUP2 PUSH2 0x3DEB JUMPI PUSH2 0x3DEA PUSH2 0x616D JUMP JUMPDEST JUMPDEST DIV DUP3 ADD SWAP1 SHR SWAP1 POP PUSH1 0x1 DUP2 DUP6 DUP2 PUSH2 0x3E04 JUMPI PUSH2 0x3E03 PUSH2 0x616D JUMP JUMPDEST JUMPDEST DIV DUP3 ADD SWAP1 SHR SWAP1 POP PUSH1 0x1 DUP2 DUP6 DUP2 PUSH2 0x3E1D JUMPI PUSH2 0x3E1C PUSH2 0x616D JUMP JUMPDEST JUMPDEST DIV DUP3 ADD SWAP1 SHR SWAP1 POP PUSH1 0x1 DUP2 DUP6 DUP2 PUSH2 0x3E36 JUMPI PUSH2 0x3E35 PUSH2 0x616D JUMP JUMPDEST JUMPDEST DIV DUP3 ADD SWAP1 SHR SWAP1 POP PUSH1 0x1 DUP2 DUP6 DUP2 PUSH2 0x3E4F JUMPI PUSH2 0x3E4E PUSH2 0x616D JUMP JUMPDEST JUMPDEST DIV DUP3 ADD SWAP1 SHR SWAP1 POP PUSH2 0x3E71 DUP2 DUP6 DUP2 PUSH2 0x3E69 JUMPI PUSH2 0x3E68 PUSH2 0x616D JUMP JUMPDEST JUMPDEST DIV DUP3 GT PUSH2 0x3F02 JUMP JUMPDEST DUP2 SUB SWAP3 POP POP POP JUMPDEST SWAP2 SWAP1 POP JUMP JUMPDEST PUSH0 JUMPDEST DUP2 DUP4 LT ISZERO PUSH2 0x3EE7 JUMPI PUSH0 PUSH2 0x3E92 DUP5 DUP5 PUSH2 0x4229 JUMP JUMPDEST SWAP1 POP DUP5 PUSH6 0xFFFFFFFFFFFF AND PUSH2 0x3EA7 DUP8 DUP4 PUSH2 0x36FA JUMP JUMPDEST PUSH0 ADD PUSH0 SWAP1 SLOAD SWAP1 PUSH2 0x100 EXP SWAP1 DIV PUSH6 0xFFFFFFFFFFFF AND PUSH6 0xFFFFFFFFFFFF AND GT ISZERO PUSH2 0x3ED1 JUMPI DUP1 SWAP3 POP PUSH2 0x3EE1 JUMP JUMPDEST PUSH1 0x1 DUP2 PUSH2 0x3EDE SWAP2 SWAP1 PUSH2 0x5BC4 JUMP JUMPDEST SWAP4 POP JUMPDEST POP PUSH2 0x3E7F JUMP JUMPDEST DUP2 SWAP1 POP SWAP5 SWAP4 POP POP POP POP JUMP JUMPDEST PUSH0 DUP2 PUSH1 0x20 DUP5 ADD ADD MLOAD SWAP1 POP SWAP3 SWAP2 POP POP JUMP JUMPDEST PUSH0 DUP2 ISZERO ISZERO SWAP1 POP SWAP2 SWAP1 POP JUMP JUMPDEST PUSH0 PUSH0 PUSH0 DUP6 SWAP1 POP PUSH0 PUSH1 0x1 DUP7 PUSH2 0x3F21 SWAP2 SWAP1 PUSH2 0x5BC4 JUMP JUMPDEST DUP6 GT DUP1 ISZERO PUSH2 0x3F99 JUMPI POP PUSH32 0x3078000000000000000000000000000000000000000000000000000000000000 PUSH30 0xFFFFFFFFFFFFFFFFFFFFFFFFFFFFFFFFFFFFFFFFFFFFFFFFFFFFFFFFFFFF NOT AND PUSH2 0x3F76 DUP4 DUP9 PUSH2 0x3EF2 JUMP JUMPDEST PUSH30 0xFFFFFFFFFFFFFFFFFFFFFFFFFFFFFFFFFFFFFFFFFFFFFFFFFFFFFFFFFFFF NOT AND EQ JUMPDEST SWAP1 POP PUSH0 PUSH1 0x2 PUSH2 0x3FA9 DUP4 ISZERO ISZERO PUSH2 0x3F02 JUMP JUMPDEST PUSH2 0x3FB3 SWAP2 SWAP1 PUSH2 0x625A JUMP JUMPDEST SWAP1 POP PUSH0 PUSH0 SWAP1 POP PUSH0 DUP3 DUP10 PUSH2 0x3FC6 SWAP2 SWAP1 PUSH2 0x5BC4 JUMP JUMPDEST SWAP1 POP JUMPDEST DUP8 DUP2 LT ISZERO PUSH2 0x4026 JUMPI PUSH0 PUSH2 0x3FE4 PUSH2 0x3FDF DUP8 DUP5 PUSH2 0x3EF2 JUMP JUMPDEST PUSH2 0x424E JUMP JUMPDEST SWAP1 POP PUSH1 0xF DUP2 PUSH1 0xFF AND GT ISZERO PUSH2 0x4003 JUMPI PUSH0 PUSH0 SWAP8 POP SWAP8 POP POP POP POP POP POP POP PUSH2 0x4033 JUMP JUMPDEST PUSH1 0x10 DUP4 PUSH2 0x4010 SWAP2 SWAP1 PUSH2 0x625A JUMP JUMPDEST SWAP3 POP DUP1 PUSH1 0xFF AND DUP4 ADD SWAP3 POP POP DUP1 PUSH1 0x1 ADD SWAP1 POP PUSH2 0x3FC9 JUMP JUMPDEST POP PUSH1 0x1 DUP2 SWAP6 POP SWAP6 POP POP POP POP POP JUMPDEST SWAP4 POP SWAP4 SWAP2 POP POP JUMP JUMPDEST PUSH1 0x60 PUSH0 PUSH2 0x4047 DUP4 PUSH2 0x42DE JUMP JUMPDEST SWAP1 POP PUSH0 PUSH1 0x20 PUSH8 0xFFFFFFFFFFFFFFFF DUP2 GT ISZERO PUSH2 0x4065 JUMPI PUSH2 0x4064 PUSH2 0x4590 JUMP JUMPDEST JUMPDEST PUSH1 0x40 MLOAD SWAP1 DUP1 DUP3 MSTORE DUP1 PUSH1 0x1F ADD PUSH1 0x1F NOT AND PUSH1 0x20 ADD DUP3 ADD PUSH1 0x40 MSTORE DUP1 ISZERO PUSH2 0x4097 JUMPI DUP2 PUSH1 0x20 ADD PUSH1 0x1 DUP3 MUL DUP1 CALLDATASIZE DUP4 CALLDATACOPY DUP1 DUP3 ADD SWAP2 POP POP SWAP1 POP JUMPDEST POP SWAP1 POP DUP2 DUP2 MSTORE DUP4 PUSH1 0x20 DUP3 ADD MSTORE DUP1 SWAP3 POP POP POP SWAP2 SWAP1 POP JUMP JUMPDEST PUSH0 PUSH32 0x8B73C3C69BB8FE3D512ECC4CF759CC79239F7B179B0FFACAA9A75D522B39400F PUSH32 0x0 PUSH32 0x0 CHAINID ADDRESS PUSH1 0x40 MLOAD PUSH1 0x20 ADD PUSH2 0x4127 SWAP6 SWAP5 SWAP4 SWAP3 SWAP2 SWAP1 PUSH2 0x6368 JUMP JUMPDEST PUSH1 0x40 MLOAD PUSH1 0x20 DUP2 DUP4 SUB SUB DUP2 MSTORE SWAP1 PUSH1 0x40 MSTORE DUP1 MLOAD SWAP1 PUSH1 0x20 ADD KECCAK256 SWAP1 POP SWAP1 JUMP JUMPDEST PUSH0 PUSH0 PUSH0 PUSH32 0x7FFFFFFFFFFFFFFFFFFFFFFFFFFFFFFF5D576E7357A4501DDFE92F46681B20A0 DUP5 PUSH0 SHR GT ISZERO PUSH2 0x417E JUMPI PUSH0 PUSH1 0x3 DUP6 SWAP3 POP SWAP3 POP SWAP3 POP PUSH2 0x421F JUMP JUMPDEST PUSH0 PUSH1 0x1 DUP9 DUP9 DUP9 DUP9 PUSH1 0x40 MLOAD PUSH0 DUP2 MSTORE PUSH1 0x20 ADD PUSH1 0x40 MSTORE PUSH1 0x40 MLOAD PUSH2 0x41A1 SWAP5 SWAP4 SWAP3 SWAP2 SWAP1 PUSH2 0x63B9 JUMP JUMPDEST PUSH1 0x20 PUSH1 0x40 MLOAD PUSH1 0x20 DUP2 SUB SWAP1 DUP1 DUP5 SUB SWAP1 DUP6 GAS STATICCALL ISZERO DUP1 ISZERO PUSH2 0x41C1 JUMPI RETURNDATASIZE PUSH0 PUSH0 RETURNDATACOPY RETURNDATASIZE PUSH0 REVERT JUMPDEST POP POP POP PUSH1 0x20 PUSH1 0x40 MLOAD SUB MLOAD SWAP1 POP PUSH0 PUSH20 0xFFFFFFFFFFFFFFFFFFFFFFFFFFFFFFFFFFFFFFFF AND DUP2 PUSH20 0xFFFFFFFFFFFFFFFFFFFFFFFFFFFFFFFFFFFFFFFF AND SUB PUSH2 0x4212 JUMPI PUSH0 PUSH1 0x1 PUSH0 PUSH0 SHL SWAP4 POP SWAP4 POP SWAP4 POP POP PUSH2 0x421F JUMP JUMPDEST DUP1 PUSH0 PUSH0 PUSH0 SHL SWAP4 POP SWAP4 POP SWAP4 POP POP JUMPDEST SWAP5 POP SWAP5 POP SWAP5 SWAP2 POP POP JUMP JUMPDEST PUSH0 PUSH1 0x2 DUP3 DUP5 XOR PUSH2 0x4239 SWAP2 SWAP1 PUSH2 0x63FC JUMP JUMPDEST DUP3 DUP5 AND PUSH2 0x4246 SWAP2 SWAP1 PUSH2 0x5BC4 JUMP JUMPDEST SWAP1 POP SWAP3 SWAP2 POP POP JUMP JUMPDEST PUSH0 PUSH0 DUP3 PUSH1 0xF8 SHR SWAP1 POP PUSH1 0x2F DUP2 PUSH1 0xFF AND GT DUP1 ISZERO PUSH2 0x426C JUMPI POP PUSH1 0x3A DUP2 PUSH1 0xFF AND LT JUMPDEST ISZERO PUSH2 0x427C JUMPI PUSH1 0x30 DUP2 SUB SWAP1 POP PUSH2 0x42D4 JUMP JUMPDEST PUSH1 0x60 DUP2 PUSH1 0xFF AND GT DUP1 ISZERO PUSH2 0x4292 JUMPI POP PUSH1 0x67 DUP2 PUSH1 0xFF AND LT JUMPDEST ISZERO PUSH2 0x42A2 JUMPI PUSH1 0x57 DUP2 SUB SWAP1 POP PUSH2 0x42D3 JUMP JUMPDEST PUSH1 0x40 DUP2 PUSH1 0xFF AND GT DUP1 ISZERO PUSH2 0x42B8 JUMPI POP PUSH1 0x47 DUP2 PUSH1 0xFF AND LT JUMPDEST ISZERO PUSH2 0x42C8 JUMPI PUSH1 0x37 DUP2 SUB SWAP1 POP PUSH2 0x42D2 JUMP JUMPDEST PUSH1 0xFF SWAP2 POP POP PUSH2 0x42D9 JUMP JUMPDEST JUMPDEST JUMPDEST DUP1 SWAP2 POP POP JUMPDEST SWAP2 SWAP1 POP JUMP JUMPDEST PUSH0 PUSH0 PUSH1 0xFF DUP4 PUSH0 SHR AND SWAP1 POP PUSH1 0x1F DUP2 GT ISZERO PUSH2 0x4323 JUMPI PUSH1 0x40 MLOAD PUSH32 0xB3512B0C00000000000000000000000000000000000000000000000000000000 DUP2 MSTORE PUSH1 0x4 ADD PUSH1 0x40 MLOAD DUP1 SWAP2 SUB SWAP1 REVERT JUMPDEST DUP1 SWAP2 POP POP SWAP2 SWAP1 POP JUMP JUMPDEST PUSH0 PUSH1 0x40 MLOAD SWAP1 POP SWAP1 JUMP JUMPDEST PUSH0 PUSH0 REVERT JUMPDEST PUSH0 PUSH0 REVERT JUMPDEST PUSH0 PUSH32 0xFFFFFFFF00000000000000000000000000000000000000000000000000000000 DUP3 AND SWAP1 POP SWAP2 SWAP1 POP JUMP JUMPDEST PUSH2 0x4371 DUP2 PUSH2 0x433D JUMP JUMPDEST DUP2 EQ PUSH2 0x437B JUMPI PUSH0 PUSH0 REVERT JUMPDEST POP JUMP JUMPDEST PUSH0 DUP2 CALLDATALOAD SWAP1 POP PUSH2 0x438C DUP2 PUSH2 0x4368 JUMP JUMPDEST SWAP3 SWAP2 POP POP JUMP JUMPDEST PUSH0 PUSH1 0x20 DUP3 DUP5 SUB SLT ISZERO PUSH2 0x43A7 JUMPI PUSH2 0x43A6 PUSH2 0x4335 JUMP JUMPDEST JUMPDEST PUSH0 PUSH2 0x43B4 DUP5 DUP3 DUP6 ADD PUSH2 0x437E JUMP JUMPDEST SWAP2 POP POP SWAP3 SWAP2 POP POP JUMP JUMPDEST PUSH0 DUP2 ISZERO ISZERO SWAP1 POP SWAP2 SWAP1 POP JUMP JUMPDEST PUSH2 0x43D1 DUP2 PUSH2 0x43BD JUMP JUMPDEST DUP3 MSTORE POP POP JUMP JUMPDEST PUSH0 PUSH1 0x20 DUP3 ADD SWAP1 POP PUSH2 0x43EA PUSH0 DUP4 ADD DUP5 PUSH2 0x43C8 JUMP JUMPDEST SWAP3 SWAP2 POP POP JUMP JUMPDEST PUSH0 DUP2 SWAP1 POP SWAP2 SWAP1 POP JUMP JUMPDEST PUSH2 0x4402 DUP2 PUSH2 0x43F0 JUMP JUMPDEST DUP3 MSTORE POP POP JUMP JUMPDEST PUSH0 PUSH1 0x20 DUP3 ADD SWAP1 POP PUSH2 0x441B PUSH0 DUP4 ADD DUP5 PUSH2 0x43F9 JUMP JUMPDEST SWAP3 SWAP2 POP POP JUMP JUMPDEST PUSH2 0x442A DUP2 PUSH2 0x43F0 JUMP JUMPDEST DUP2 EQ PUSH2 0x4434 JUMPI PUSH0 PUSH0 REVERT JUMPDEST POP JUMP JUMPDEST PUSH0 DUP2 CALLDATALOAD SWAP1 POP PUSH2 0x4445 DUP2 PUSH2 0x4421 JUMP JUMPDEST SWAP3 SWAP2 POP POP JUMP JUMPDEST PUSH0 PUSH1 0x20 DUP3 DUP5 SUB SLT ISZERO PUSH2 0x4460 JUMPI PUSH2 0x445F PUSH2 0x4335 JUMP JUMPDEST JUMPDEST PUSH0 PUSH2 0x446D DUP5 DUP3 DUP6 ADD PUSH2 0x4437 JUMP JUMPDEST SWAP2 POP POP SWAP3 SWAP2 POP POP JUMP JUMPDEST PUSH0 DUP2 MLOAD SWAP1 POP SWAP2 SWAP1 POP JUMP JUMPDEST PUSH0 DUP3 DUP3 MSTORE PUSH1 0x20 DUP3 ADD SWAP1 POP SWAP3 SWAP2 POP POP JUMP JUMPDEST DUP3 DUP2 DUP4 MCOPY PUSH0 DUP4 DUP4 ADD MSTORE POP POP POP JUMP JUMPDEST PUSH0 PUSH1 0x1F NOT PUSH1 0x1F DUP4 ADD AND SWAP1 POP SWAP2 SWAP1 POP JUMP JUMPDEST PUSH0 PUSH2 0x44B8 DUP3 PUSH2 0x4476 JUMP JUMPDEST PUSH2 0x44C2 DUP2 DUP6 PUSH2 0x4480 JUMP JUMPDEST SWAP4 POP PUSH2 0x44D2 DUP2 DUP6 PUSH1 0x20 DUP7 ADD PUSH2 0x4490 JUMP JUMPDEST PUSH2 0x44DB DUP2 PUSH2 0x449E JUMP JUMPDEST DUP5 ADD SWAP2 POP POP SWAP3 SWAP2 POP POP JUMP JUMPDEST PUSH0 PUSH1 0x20 DUP3 ADD SWAP1 POP DUP2 DUP2 SUB PUSH0 DUP4 ADD MSTORE PUSH2 0x44FE DUP2 DUP5 PUSH2 0x44AE JUMP JUMPDEST SWAP1 POP SWAP3 SWAP2 POP POP JUMP JUMPDEST PUSH0 PUSH20 0xFFFFFFFFFFFFFFFFFFFFFFFFFFFFFFFFFFFFFFFF DUP3 AND SWAP1 POP SWAP2 SWAP1 POP JUMP JUMPDEST PUSH0 PUSH2 0x452F DUP3 PUSH2 0x4506 JUMP JUMPDEST SWAP1 POP SWAP2 SWAP1 POP JUMP JUMPDEST PUSH2 0x453F DUP2 PUSH2 0x4525 JUMP JUMPDEST DUP3 MSTORE POP POP JUMP JUMPDEST PUSH0 PUSH1 0x20 DUP3 ADD SWAP1 POP PUSH2 0x4558 PUSH0 DUP4 ADD DUP5 PUSH2 0x4536 JUMP JUMPDEST SWAP3 SWAP2 POP POP JUMP JUMPDEST PUSH2 0x4567 DUP2 PUSH2 0x4525 JUMP JUMPDEST DUP2 EQ PUSH2 0x4571 JUMPI PUSH0 PUSH0 REVERT JUMPDEST POP JUMP JUMPDEST PUSH0 DUP2 CALLDATALOAD SWAP1 POP PUSH2 0x4582 DUP2 PUSH2 0x455E JUMP JUMPDEST SWAP3 SWAP2 POP POP JUMP JUMPDEST PUSH0 PUSH0 REVERT JUMPDEST PUSH0 PUSH0 REVERT JUMPDEST PUSH32 0x4E487B7100000000000000000000000000000000000000000000000000000000 PUSH0 MSTORE PUSH1 0x41 PUSH1 0x4 MSTORE PUSH1 0x24 PUSH0 REVERT JUMPDEST PUSH2 0x45C6 DUP3 PUSH2 0x449E JUMP JUMPDEST DUP2 ADD DUP2 DUP2 LT PUSH8 0xFFFFFFFFFFFFFFFF DUP3 GT OR ISZERO PUSH2 0x45E5 JUMPI PUSH2 0x45E4 PUSH2 0x4590 JUMP JUMPDEST JUMPDEST DUP1 PUSH1 0x40 MSTORE POP POP POP JUMP JUMPDEST PUSH0 PUSH2 0x45F7 PUSH2 0x432C JUMP JUMPDEST SWAP1 POP PUSH2 0x4603 DUP3 DUP3 PUSH2 0x45BD JUMP JUMPDEST SWAP2 SWAP1 POP JUMP JUMPDEST PUSH0 PUSH8 0xFFFFFFFFFFFFFFFF DUP3 GT ISZERO PUSH2 0x4622 JUMPI PUSH2 0x4621 PUSH2 0x4590 JUMP JUMPDEST JUMPDEST PUSH2 0x462B DUP3 PUSH2 0x449E JUMP JUMPDEST SWAP1 POP PUSH1 0x20 DUP2 ADD SWAP1 POP SWAP2 SWAP1 POP JUMP JUMPDEST DUP3 DUP2 DUP4 CALLDATACOPY PUSH0 DUP4 DUP4 ADD MSTORE POP POP POP JUMP JUMPDEST PUSH0 PUSH2 0x4658 PUSH2 0x4653 DUP5 PUSH2 0x4608 JUMP JUMPDEST PUSH2 0x45EE JUMP JUMPDEST SWAP1 POP DUP3 DUP2 MSTORE PUSH1 0x20 DUP2 ADD DUP5 DUP5 DUP5 ADD GT ISZERO PUSH2 0x4674 JUMPI PUSH2 0x4673 PUSH2 0x458C JUMP JUMPDEST JUMPDEST PUSH2 0x467F DUP5 DUP3 DUP6 PUSH2 0x4638 JUMP JUMPDEST POP SWAP4 SWAP3 POP POP POP JUMP JUMPDEST PUSH0 DUP3 PUSH1 0x1F DUP4 ADD SLT PUSH2 0x469B JUMPI PUSH2 0x469A PUSH2 0x4588 JUMP JUMPDEST JUMPDEST DUP2 CALLDATALOAD PUSH2 0x46AB DUP5 DUP3 PUSH1 0x20 DUP7 ADD PUSH2 0x4646 JUMP JUMPDEST SWAP2 POP POP SWAP3 SWAP2 POP POP JUMP JUMPDEST PUSH0 PUSH0 PUSH0 PUSH0 PUSH1 0x80 DUP6 DUP8 SUB SLT ISZERO PUSH2 0x46CC JUMPI PUSH2 0x46CB PUSH2 0x4335 JUMP JUMPDEST JUMPDEST PUSH0 PUSH2 0x46D9 DUP8 DUP3 DUP9 ADD PUSH2 0x4574 JUMP JUMPDEST SWAP5 POP POP PUSH1 0x20 PUSH2 0x46EA DUP8 DUP3 DUP9 ADD PUSH2 0x4574 JUMP JUMPDEST SWAP4 POP POP PUSH1 0x40 PUSH2 0x46FB DUP8 DUP3 DUP9 ADD PUSH2 0x4437 JUMP JUMPDEST SWAP3 POP POP PUSH1 0x60 DUP6 ADD CALLDATALOAD PUSH8 0xFFFFFFFFFFFFFFFF DUP2 GT ISZERO PUSH2 0x471C JUMPI PUSH2 0x471B PUSH2 0x4339 JUMP JUMPDEST JUMPDEST PUSH2 0x4728 DUP8 DUP3 DUP9 ADD PUSH2 0x4687 JUMP JUMPDEST SWAP2 POP POP SWAP3 SWAP6 SWAP2 SWAP5 POP SWAP3 POP JUMP JUMPDEST PUSH2 0x473D DUP2 PUSH2 0x433D JUMP JUMPDEST DUP3 MSTORE POP POP JUMP JUMPDEST PUSH0 PUSH1 0x20 DUP3 ADD SWAP1 POP PUSH2 0x4756 PUSH0 DUP4 ADD DUP5 PUSH2 0x4734 JUMP JUMPDEST SWAP3 SWAP2 POP POP JUMP JUMPDEST PUSH0 PUSH8 0xFFFFFFFFFFFFFFFF DUP3 GT ISZERO PUSH2 0x4776 JUMPI PUSH2 0x4775 PUSH2 0x4590 JUMP JUMPDEST JUMPDEST PUSH1 0x20 DUP3 MUL SWAP1 POP PUSH1 0x20 DUP2 ADD SWAP1 POP SWAP2 SWAP1 POP JUMP JUMPDEST PUSH0 PUSH0 REVERT JUMPDEST PUSH0 PUSH2 0x479D PUSH2 0x4798 DUP5 PUSH2 0x475C JUMP JUMPDEST PUSH2 0x45EE JUMP JUMPDEST SWAP1 POP DUP1 DUP4 DUP3 MSTORE PUSH1 0x20 DUP3 ADD SWAP1 POP PUSH1 0x20 DUP5 MUL DUP4 ADD DUP6 DUP2 GT ISZERO PUSH2 0x47C0 JUMPI PUSH2 0x47BF PUSH2 0x4787 JUMP JUMPDEST JUMPDEST DUP4 JUMPDEST DUP2 DUP2 LT ISZERO PUSH2 0x47E9 JUMPI DUP1 PUSH2 0x47D5 DUP9 DUP3 PUSH2 0x4574 JUMP JUMPDEST DUP5 MSTORE PUSH1 0x20 DUP5 ADD SWAP4 POP POP PUSH1 0x20 DUP2 ADD SWAP1 POP PUSH2 0x47C2 JUMP JUMPDEST POP POP POP SWAP4 SWAP3 POP POP POP JUMP JUMPDEST PUSH0 DUP3 PUSH1 0x1F DUP4 ADD SLT PUSH2 0x4807 JUMPI PUSH2 0x4806 PUSH2 0x4588 JUMP JUMPDEST JUMPDEST DUP2 CALLDATALOAD PUSH2 0x4817 DUP5 DUP3 PUSH1 0x20 DUP7 ADD PUSH2 0x478B JUMP JUMPDEST SWAP2 POP POP SWAP3 SWAP2 POP POP JUMP JUMPDEST PUSH0 PUSH8 0xFFFFFFFFFFFFFFFF DUP3 GT ISZERO PUSH2 0x483A JUMPI PUSH2 0x4839 PUSH2 0x4590 JUMP JUMPDEST JUMPDEST PUSH1 0x20 DUP3 MUL SWAP1 POP PUSH1 0x20 DUP2 ADD SWAP1 POP SWAP2 SWAP1 POP JUMP JUMPDEST PUSH0 PUSH2 0x485D PUSH2 0x4858 DUP5 PUSH2 0x4820 JUMP JUMPDEST PUSH2 0x45EE JUMP JUMPDEST SWAP1 POP DUP1 DUP4 DUP3 MSTORE PUSH1 0x20 DUP3 ADD SWAP1 POP PUSH1 0x20 DUP5 MUL DUP4 ADD DUP6 DUP2 GT ISZERO PUSH2 0x4880 JUMPI PUSH2 0x487F PUSH2 0x4787 JUMP JUMPDEST JUMPDEST DUP4 JUMPDEST DUP2 DUP2 LT ISZERO PUSH2 0x48A9 JUMPI DUP1 PUSH2 0x4895 DUP9 DUP3 PUSH2 0x4437 JUMP JUMPDEST DUP5 MSTORE PUSH1 0x20 DUP5 ADD SWAP4 POP POP PUSH1 0x20 DUP2 ADD SWAP1 POP PUSH2 0x4882 JUMP JUMPDEST POP POP POP SWAP4 SWAP3 POP POP POP JUMP JUMPDEST PUSH0 DUP3 PUSH1 0x1F DUP4 ADD SLT PUSH2 0x48C7 JUMPI PUSH2 0x48C6 PUSH2 0x4588 JUMP JUMPDEST JUMPDEST DUP2 CALLDATALOAD PUSH2 0x48D7 DUP5 DUP3 PUSH1 0x20 DUP7 ADD PUSH2 0x484B JUMP JUMPDEST SWAP2 POP POP SWAP3 SWAP2 POP POP JUMP JUMPDEST PUSH0 PUSH8 0xFFFFFFFFFFFFFFFF DUP3 GT ISZERO PUSH2 0x48FA JUMPI PUSH2 0x48F9 PUSH2 0x4590 JUMP JUMPDEST JUMPDEST PUSH1 0x20 DUP3 MUL SWAP1 POP PUSH1 0x20 DUP2 ADD SWAP1 POP SWAP2 SWAP1 POP JUMP JUMPDEST PUSH0 PUSH2 0x491D PUSH2 0x4918 DUP5 PUSH2 0x48E0 JUMP JUMPDEST PUSH2 0x45EE JUMP JUMPDEST SWAP1 POP DUP1 DUP4 DUP3 MSTORE PUSH1 0x20 DUP3 ADD SWAP1 POP PUSH1 0x20 DUP5 MUL DUP4 ADD DUP6 DUP2 GT ISZERO PUSH2 0x4940 JUMPI PUSH2 0x493F PUSH2 0x4787 JUMP JUMPDEST JUMPDEST DUP4 JUMPDEST DUP2 DUP2 LT ISZERO PUSH2 0x4987 JUMPI DUP1 CALLDATALOAD PUSH8 0xFFFFFFFFFFFFFFFF DUP2 GT ISZERO PUSH2 0x4965 JUMPI PUSH2 0x4964 PUSH2 0x4588 JUMP JUMPDEST JUMPDEST DUP1 DUP7 ADD PUSH2 0x4972 DUP10 DUP3 PUSH2 0x4687 JUMP JUMPDEST DUP6 MSTORE PUSH1 0x20 DUP6 ADD SWAP5 POP POP POP PUSH1 0x20 DUP2 ADD SWAP1 POP PUSH2 0x4942 JUMP JUMPDEST POP POP POP SWAP4 SWAP3 POP POP POP JUMP JUMPDEST PUSH0 DUP3 PUSH1 0x1F DUP4 ADD SLT PUSH2 0x49A5 JUMPI PUSH2 0x49A4 PUSH2 0x4588 JUMP JUMPDEST JUMPDEST DUP2 CALLDATALOAD PUSH2 0x49B5 DUP5 DUP3 PUSH1 0x20 DUP7 ADD PUSH2 0x490B JUMP JUMPDEST SWAP2 POP POP SWAP3 SWAP2 POP POP JUMP JUMPDEST PUSH0 DUP2 SWAP1 POP SWAP2 SWAP1 POP JUMP JUMPDEST PUSH2 0x49D0 DUP2 PUSH2 0x49BE JUMP JUMPDEST DUP2 EQ PUSH2 0x49DA JUMPI PUSH0 PUSH0 REVERT JUMPDEST POP JUMP JUMPDEST PUSH0 DUP2 CALLDATALOAD SWAP1 POP PUSH2 0x49EB DUP2 PUSH2 0x49C7 JUMP JUMPDEST SWAP3 SWAP2 POP POP JUMP JUMPDEST PUSH0 PUSH0 PUSH0 PUSH0 PUSH1 0x80 DUP6 DUP8 SUB SLT ISZERO PUSH2 0x4A09 JUMPI PUSH2 0x4A08 PUSH2 0x4335 JUMP JUMPDEST JUMPDEST PUSH0 DUP6 ADD CALLDATALOAD PUSH8 0xFFFFFFFFFFFFFFFF DUP2 GT ISZERO PUSH2 0x4A26 JUMPI PUSH2 0x4A25 PUSH2 0x4339 JUMP JUMPDEST JUMPDEST PUSH2 0x4A32 DUP8 DUP3 DUP9 ADD PUSH2 0x47F3 JUMP JUMPDEST SWAP5 POP POP PUSH1 0x20 DUP6 ADD CALLDATALOAD PUSH8 0xFFFFFFFFFFFFFFFF DUP2 GT ISZERO PUSH2 0x4A53 JUMPI PUSH2 0x4A52 PUSH2 0x4339 JUMP JUMPDEST JUMPDEST PUSH2 0x4A5F DUP8 DUP3 DUP9 ADD PUSH2 0x48B3 JUMP JUMPDEST SWAP4 POP POP PUSH1 0x40 DUP6 ADD CALLDATALOAD PUSH8 0xFFFFFFFFFFFFFFFF DUP2 GT ISZERO PUSH2 0x4A80 JUMPI PUSH2 0x4A7F PUSH2 0x4339 JUMP JUMPDEST JUMPDEST PUSH2 0x4A8C DUP8 DUP3 DUP9 ADD PUSH2 0x4991 JUMP JUMPDEST SWAP3 POP POP PUSH1 0x60 PUSH2 0x4A9D DUP8 DUP3 DUP9 ADD PUSH2 0x49DD JUMP JUMPDEST SWAP2 POP POP SWAP3 SWAP6 SWAP2 SWAP5 POP SWAP3 POP JUMP JUMPDEST PUSH2 0x4AB2 DUP2 PUSH2 0x49BE JUMP JUMPDEST DUP3 MSTORE POP POP JUMP JUMPDEST PUSH0 PUSH1 0x20 DUP3 ADD SWAP1 POP PUSH2 0x4ACB PUSH0 DUP4 ADD DUP5 PUSH2 0x4AA9 JUMP JUMPDEST SWAP3 SWAP2 POP POP JUMP JUMPDEST PUSH32 0x4E487B7100000000000000000000000000000000000000000000000000000000 PUSH0 MSTORE PUSH1 0x21 PUSH1 0x4 MSTORE PUSH1 0x24 PUSH0 REVERT JUMPDEST PUSH1 0x8 DUP2 LT PUSH2 0x4B0F JUMPI PUSH2 0x4B0E PUSH2 0x4AD1 JUMP JUMPDEST JUMPDEST POP JUMP JUMPDEST PUSH0 DUP2 SWAP1 POP PUSH2 0x4B1F DUP3 PUSH2 0x4AFE JUMP JUMPDEST SWAP2 SWAP1 POP JUMP JUMPDEST PUSH0 PUSH2 0x4B2E DUP3 PUSH2 0x4B12 JUMP JUMPDEST SWAP1 POP SWAP2 SWAP1 POP JUMP JUMPDEST PUSH2 0x4B3E DUP2 PUSH2 0x4B24 JUMP JUMPDEST DUP3 MSTORE POP POP JUMP JUMPDEST PUSH0 PUSH1 0x20 DUP3 ADD SWAP1 POP PUSH2 0x4B57 PUSH0 DUP4 ADD DUP5 PUSH2 0x4B35 JUMP JUMPDEST SWAP3 SWAP2 POP POP JUMP JUMPDEST PUSH0 PUSH0 PUSH1 0x40 DUP4 DUP6 SUB SLT ISZERO PUSH2 0x4B73 JUMPI PUSH2 0x4B72 PUSH2 0x4335 JUMP JUMPDEST JUMPDEST PUSH0 PUSH2 0x4B80 DUP6 DUP3 DUP7 ADD PUSH2 0x4437 JUMP JUMPDEST SWAP3 POP POP PUSH1 0x20 PUSH2 0x4B91 DUP6 DUP3 DUP7 ADD PUSH2 0x4574 JUMP JUMPDEST SWAP2 POP POP SWAP3 POP SWAP3 SWAP1 POP JUMP JUMPDEST PUSH0 PUSH1 0x60 DUP3 ADD SWAP1 POP PUSH2 0x4BAE PUSH0 DUP4 ADD DUP7 PUSH2 0x43F9 JUMP JUMPDEST PUSH2 0x4BBB PUSH1 0x20 DUP4 ADD DUP6 PUSH2 0x43F9 JUMP JUMPDEST PUSH2 0x4BC8 PUSH1 0x40 DUP4 ADD DUP5 PUSH2 0x43F9 JUMP JUMPDEST SWAP5 SWAP4 POP POP POP POP JUMP JUMPDEST PUSH0 PUSH1 0xFF DUP3 AND SWAP1 POP SWAP2 SWAP1 POP JUMP JUMPDEST PUSH2 0x4BE5 DUP2 PUSH2 0x4BD0 JUMP JUMPDEST DUP2 EQ PUSH2 0x4BEF JUMPI PUSH0 PUSH0 REVERT JUMPDEST POP JUMP JUMPDEST PUSH0 DUP2 CALLDATALOAD SWAP1 POP PUSH2 0x4C00 DUP2 PUSH2 0x4BDC JUMP JUMPDEST SWAP3 SWAP2 POP POP JUMP JUMPDEST PUSH0 PUSH0 PUSH1 0x40 DUP4 DUP6 SUB SLT ISZERO PUSH2 0x4C1C JUMPI PUSH2 0x4C1B PUSH2 0x4335 JUMP JUMPDEST JUMPDEST PUSH0 PUSH2 0x4C29 DUP6 DUP3 DUP7 ADD PUSH2 0x4437 JUMP JUMPDEST SWAP3 POP POP PUSH1 0x20 PUSH2 0x4C3A DUP6 DUP3 DUP7 ADD PUSH2 0x4BF2 JUMP JUMPDEST SWAP2 POP POP SWAP3 POP SWAP3 SWAP1 POP JUMP JUMPDEST PUSH0 PUSH0 REVERT JUMPDEST PUSH0 PUSH0 DUP4 PUSH1 0x1F DUP5 ADD SLT PUSH2 0x4C5D JUMPI PUSH2 0x4C5C PUSH2 0x4588 JUMP JUMPDEST JUMPDEST DUP3 CALLDATALOAD SWAP1 POP PUSH8 0xFFFFFFFFFFFFFFFF DUP2 GT ISZERO PUSH2 0x4C7A JUMPI PUSH2 0x4C79 PUSH2 0x4C44 JUMP JUMPDEST JUMPDEST PUSH1 0x20 DUP4 ADD SWAP2 POP DUP4 PUSH1 0x1 DUP3 MUL DUP4 ADD GT ISZERO PUSH2 0x4C96 JUMPI PUSH2 0x4C95 PUSH2 0x4787 JUMP JUMPDEST JUMPDEST SWAP3 POP SWAP3 SWAP1 POP JUMP JUMPDEST PUSH0 PUSH0 PUSH0 PUSH0 PUSH0 PUSH0 PUSH0 PUSH1 0xC0 DUP9 DUP11 SUB SLT ISZERO PUSH2 0x4CB8 JUMPI PUSH2 0x4CB7 PUSH2 0x4335 JUMP JUMPDEST JUMPDEST PUSH0 PUSH2 0x4CC5 DUP11 DUP3 DUP12 ADD PUSH2 0x4437 JUMP JUMPDEST SWAP8 POP POP PUSH1 0x20 PUSH2 0x4CD6 DUP11 DUP3 DUP12 ADD PUSH2 0x4BF2 JUMP JUMPDEST SWAP7 POP POP PUSH1 0x40 PUSH2 0x4CE7 DUP11 DUP3 DUP12 ADD PUSH2 0x4574 JUMP JUMPDEST SWAP6 POP POP PUSH1 0x60 DUP9 ADD CALLDATALOAD PUSH8 0xFFFFFFFFFFFFFFFF DUP2 GT ISZERO PUSH2 0x4D08 JUMPI PUSH2 0x4D07 PUSH2 0x4339 JUMP JUMPDEST JUMPDEST PUSH2 0x4D14 DUP11 DUP3 DUP12 ADD PUSH2 0x4C48 JUMP JUMPDEST SWAP5 POP SWAP5 POP POP PUSH1 0x80 DUP9 ADD CALLDATALOAD PUSH8 0xFFFFFFFFFFFFFFFF DUP2 GT ISZERO PUSH2 0x4D37 JUMPI PUSH2 0x4D36 PUSH2 0x4339 JUMP JUMPDEST JUMPDEST PUSH2 0x4D43 DUP11 DUP3 DUP12 ADD PUSH2 0x4687 JUMP JUMPDEST SWAP3 POP POP PUSH1 0xA0 DUP9 ADD CALLDATALOAD PUSH8 0xFFFFFFFFFFFFFFFF DUP2 GT ISZERO PUSH2 0x4D64 JUMPI PUSH2 0x4D63 PUSH2 0x4339 JUMP JUMPDEST JUMPDEST PUSH2 0x4D70 DUP11 DUP3 DUP12 ADD PUSH2 0x4687 JUMP JUMPDEST SWAP2 POP POP SWAP3 SWAP6 SWAP9 SWAP2 SWAP5 SWAP8 POP SWAP3 SWAP6 POP JUMP JUMPDEST PUSH0 PUSH0 PUSH0 PUSH0 PUSH0 PUSH1 0x80 DUP7 DUP9 SUB SLT ISZERO PUSH2 0x4D98 JUMPI PUSH2 0x4D97 PUSH2 0x4335 JUMP JUMPDEST JUMPDEST PUSH0 PUSH2 0x4DA5 DUP9 DUP3 DUP10 ADD PUSH2 0x4437 JUMP JUMPDEST SWAP6 POP POP PUSH1 0x20 PUSH2 0x4DB6 DUP9 DUP3 DUP10 ADD PUSH2 0x4BF2 JUMP JUMPDEST SWAP5 POP POP PUSH1 0x40 DUP7 ADD CALLDATALOAD PUSH8 0xFFFFFFFFFFFFFFFF DUP2 GT ISZERO PUSH2 0x4DD7 JUMPI PUSH2 0x4DD6 PUSH2 0x4339 JUMP JUMPDEST JUMPDEST PUSH2 0x4DE3 DUP9 DUP3 DUP10 ADD PUSH2 0x4C48 JUMP JUMPDEST SWAP4 POP SWAP4 POP POP PUSH1 0x60 DUP7 ADD CALLDATALOAD PUSH8 0xFFFFFFFFFFFFFFFF DUP2 GT ISZERO PUSH2 0x4E06 JUMPI PUSH2 0x4E05 PUSH2 0x4339 JUMP JUMPDEST JUMPDEST PUSH2 0x4E12 DUP9 DUP3 DUP10 ADD PUSH2 0x4687 JUMP JUMPDEST SWAP2 POP POP SWAP3 SWAP6 POP SWAP3 SWAP6 SWAP1 SWAP4 POP JUMP JUMPDEST PUSH0 PUSH0 PUSH0 PUSH0 PUSH1 0x60 DUP6 DUP8 SUB SLT ISZERO PUSH2 0x4E37 JUMPI PUSH2 0x4E36 PUSH2 0x4335 JUMP JUMPDEST JUMPDEST PUSH0 PUSH2 0x4E44 DUP8 DUP3 DUP9 ADD PUSH2 0x4437 JUMP JUMPDEST SWAP5 POP POP PUSH1 0x20 PUSH2 0x4E55 DUP8 DUP3 DUP9 ADD PUSH2 0x4BF2 JUMP JUMPDEST SWAP4 POP POP PUSH1 0x40 DUP6 ADD CALLDATALOAD PUSH8 0xFFFFFFFFFFFFFFFF DUP2 GT ISZERO PUSH2 0x4E76 JUMPI PUSH2 0x4E75 PUSH2 0x4339 JUMP JUMPDEST JUMPDEST PUSH2 0x4E82 DUP8 DUP3 DUP9 ADD PUSH2 0x4C48 JUMP JUMPDEST SWAP3 POP SWAP3 POP POP SWAP3 SWAP6 SWAP2 SWAP5 POP SWAP3 POP JUMP JUMPDEST PUSH0 PUSH8 0xFFFFFFFFFFFFFFFF DUP3 GT ISZERO PUSH2 0x4EAA JUMPI PUSH2 0x4EA9 PUSH2 0x4590 JUMP JUMPDEST JUMPDEST PUSH2 0x4EB3 DUP3 PUSH2 0x449E JUMP JUMPDEST SWAP1 POP PUSH1 0x20 DUP2 ADD SWAP1 POP SWAP2 SWAP1 POP JUMP JUMPDEST PUSH0 PUSH2 0x4ED2 PUSH2 0x4ECD DUP5 PUSH2 0x4E90 JUMP JUMPDEST PUSH2 0x45EE JUMP JUMPDEST SWAP1 POP DUP3 DUP2 MSTORE PUSH1 0x20 DUP2 ADD DUP5 DUP5 DUP5 ADD GT ISZERO PUSH2 0x4EEE JUMPI PUSH2 0x4EED PUSH2 0x458C JUMP JUMPDEST JUMPDEST PUSH2 0x4EF9 DUP5 DUP3 DUP6 PUSH2 0x4638 JUMP JUMPDEST POP SWAP4 SWAP3 POP POP POP JUMP JUMPDEST PUSH0 DUP3 PUSH1 0x1F DUP4 ADD SLT PUSH2 0x4F15 JUMPI PUSH2 0x4F14 PUSH2 0x4588 JUMP JUMPDEST JUMPDEST DUP2 CALLDATALOAD PUSH2 0x4F25 DUP5 DUP3 PUSH1 0x20 DUP7 ADD PUSH2 0x4EC0 JUMP JUMPDEST SWAP2 POP POP SWAP3 SWAP2 POP POP JUMP JUMPDEST PUSH0 PUSH0 PUSH0 PUSH0 PUSH1 0x80 DUP6 DUP8 SUB SLT ISZERO PUSH2 0x4F46 JUMPI PUSH2 0x4F45 PUSH2 0x4335 JUMP JUMPDEST JUMPDEST PUSH0 DUP6 ADD CALLDATALOAD PUSH8 0xFFFFFFFFFFFFFFFF DUP2 GT ISZERO PUSH2 0x4F63 JUMPI PUSH2 0x4F62 PUSH2 0x4339 JUMP JUMPDEST JUMPDEST PUSH2 0x4F6F DUP8 DUP3 DUP9 ADD PUSH2 0x47F3 JUMP JUMPDEST SWAP5 POP POP PUSH1 0x20 DUP6 ADD CALLDATALOAD PUSH8 0xFFFFFFFFFFFFFFFF DUP2 GT ISZERO PUSH2 0x4F90 JUMPI PUSH2 0x4F8F PUSH2 0x4339 JUMP JUMPDEST JUMPDEST PUSH2 0x4F9C DUP8 DUP3 DUP9 ADD PUSH2 0x48B3 JUMP JUMPDEST SWAP4 POP POP PUSH1 0x40 DUP6 ADD CALLDATALOAD PUSH8 0xFFFFFFFFFFFFFFFF DUP2 GT ISZERO PUSH2 0x4FBD JUMPI PUSH2 0x4FBC PUSH2 0x4339 JUMP JUMPDEST JUMPDEST PUSH2 0x4FC9 DUP8 DUP3 DUP9 ADD PUSH2 0x4991 JUMP JUMPDEST SWAP3 POP POP PUSH1 0x60 DUP6 ADD CALLDATALOAD PUSH8 0xFFFFFFFFFFFFFFFF DUP2 GT ISZERO PUSH2 0x4FEA JUMPI PUSH2 0x4FE9 PUSH2 0x4339 JUMP JUMPDEST JUMPDEST PUSH2 0x4FF6 DUP8 DUP3 DUP9 ADD PUSH2 0x4F01 JUMP JUMPDEST SWAP2 POP POP SWAP3 SWAP6 SWAP2 SWAP5 POP SWAP3 POP JUMP JUMPDEST PUSH0 PUSH1 0x20 DUP3 DUP5 SUB SLT ISZERO PUSH2 0x5017 JUMPI PUSH2 0x5016 PUSH2 0x4335 JUMP JUMPDEST JUMPDEST PUSH0 PUSH2 0x5024 DUP5 DUP3 DUP6 ADD PUSH2 0x4574 JUMP JUMPDEST SWAP2 POP POP SWAP3 SWAP2 POP POP JUMP JUMPDEST PUSH0 PUSH32 0xFF00000000000000000000000000000000000000000000000000000000000000 DUP3 AND SWAP1 POP SWAP2 SWAP1 POP JUMP JUMPDEST PUSH2 0x5061 DUP2 PUSH2 0x502D JUMP JUMPDEST DUP3 MSTORE POP POP JUMP JUMPDEST PUSH0 DUP2 MLOAD SWAP1 POP SWAP2 SWAP1 POP JUMP JUMPDEST PUSH0 DUP3 DUP3 MSTORE PUSH1 0x20 DUP3 ADD SWAP1 POP SWAP3 SWAP2 POP POP JUMP JUMPDEST PUSH0 DUP2 SWAP1 POP PUSH1 0x20 DUP3 ADD SWAP1 POP SWAP2 SWAP1 POP JUMP JUMPDEST PUSH2 0x5099 DUP2 PUSH2 0x43F0 JUMP JUMPDEST DUP3 MSTORE POP POP JUMP JUMPDEST PUSH0 PUSH2 0x50AA DUP4 DUP4 PUSH2 0x5090 JUMP JUMPDEST PUSH1 0x20 DUP4 ADD SWAP1 POP SWAP3 SWAP2 POP POP JUMP JUMPDEST PUSH0 PUSH1 0x20 DUP3 ADD SWAP1 POP SWAP2 SWAP1 POP JUMP JUMPDEST PUSH0 PUSH2 0x50CC DUP3 PUSH2 0x5067 JUMP JUMPDEST PUSH2 0x50D6 DUP2 DUP6 PUSH2 0x5071 JUMP JUMPDEST SWAP4 POP PUSH2 0x50E1 DUP4 PUSH2 0x5081 JUMP JUMPDEST DUP1 PUSH0 JUMPDEST DUP4 DUP2 LT ISZERO PUSH2 0x5111 JUMPI DUP2 MLOAD PUSH2 0x50F8 DUP9 DUP3 PUSH2 0x509F JUMP JUMPDEST SWAP8 POP PUSH2 0x5103 DUP4 PUSH2 0x50B6 JUMP JUMPDEST SWAP3 POP POP PUSH1 0x1 DUP2 ADD SWAP1 POP PUSH2 0x50E4 JUMP JUMPDEST POP DUP6 SWAP4 POP POP POP POP SWAP3 SWAP2 POP POP JUMP JUMPDEST PUSH0 PUSH1 0xE0 DUP3 ADD SWAP1 POP PUSH2 0x5131 PUSH0 DUP4 ADD DUP11 PUSH2 0x5058 JUMP JUMPDEST DUP2 DUP2 SUB PUSH1 0x20 DUP4 ADD MSTORE PUSH2 0x5143 DUP2 DUP10 PUSH2 0x44AE JUMP JUMPDEST SWAP1 POP DUP2 DUP2 SUB PUSH1 0x40 DUP4 ADD MSTORE PUSH2 0x5157 DUP2 DUP9 PUSH2 0x44AE JUMP JUMPDEST SWAP1 POP PUSH2 0x5166 PUSH1 0x60 DUP4 ADD DUP8 PUSH2 0x43F9 JUMP JUMPDEST PUSH2 0x5173 PUSH1 0x80 DUP4 ADD DUP7 PUSH2 0x4536 JUMP JUMPDEST PUSH2 0x5180 PUSH1 0xA0 DUP4 ADD DUP6 PUSH2 0x4AA9 JUMP JUMPDEST DUP2 DUP2 SUB PUSH1 0xC0 DUP4 ADD MSTORE PUSH2 0x5192 DUP2 DUP5 PUSH2 0x50C2 JUMP JUMPDEST SWAP1 POP SWAP9 SWAP8 POP POP POP POP POP POP POP POP JUMP JUMPDEST PUSH0 PUSH0 PUSH0 PUSH0 PUSH1 0x80 DUP6 DUP8 SUB SLT ISZERO PUSH2 0x51B8 JUMPI PUSH2 0x51B7 PUSH2 0x4335 JUMP JUMPDEST JUMPDEST PUSH0 PUSH2 0x51C5 DUP8 DUP3 DUP9 ADD PUSH2 0x4437 JUMP JUMPDEST SWAP5 POP POP PUSH1 0x20 PUSH2 0x51D6 DUP8 DUP3 DUP9 ADD PUSH2 0x4BF2 JUMP JUMPDEST SWAP4 POP POP PUSH1 0x40 PUSH2 0x51E7 DUP8 DUP3 DUP9 ADD PUSH2 0x4574 JUMP JUMPDEST SWAP3 POP POP PUSH1 0x60 DUP6 ADD CALLDATALOAD PUSH8 0xFFFFFFFFFFFFFFFF DUP2 GT ISZERO PUSH2 0x5208 JUMPI PUSH2 0x5207 PUSH2 0x4339 JUMP JUMPDEST JUMPDEST PUSH2 0x5214 DUP8 DUP3 DUP9 ADD PUSH2 0x4687 JUMP JUMPDEST SWAP2 POP POP SWAP3 SWAP6 SWAP2 SWAP5 POP SWAP3 POP JUMP JUMPDEST PUSH0 PUSH6 0xFFFFFFFFFFFF DUP3 AND SWAP1 POP SWAP2 SWAP1 POP JUMP JUMPDEST PUSH2 0x523A DUP2 PUSH2 0x5220 JUMP JUMPDEST DUP3 MSTORE POP POP JUMP JUMPDEST PUSH0 PUSH1 0x20 DUP3 ADD SWAP1 POP PUSH2 0x5253 PUSH0 DUP4 ADD DUP5 PUSH2 0x5231 JUMP JUMPDEST SWAP3 SWAP2 POP POP JUMP JUMPDEST PUSH0 PUSH0 PUSH0 PUSH1 0x60 DUP5 DUP7 SUB SLT ISZERO PUSH2 0x5270 JUMPI PUSH2 0x526F PUSH2 0x4335 JUMP JUMPDEST JUMPDEST PUSH0 PUSH2 0x527D DUP7 DUP3 DUP8 ADD PUSH2 0x4574 JUMP JUMPDEST SWAP4 POP POP PUSH1 0x20 PUSH2 0x528E DUP7 DUP3 DUP8 ADD PUSH2 0x4437 JUMP JUMPDEST SWAP3 POP POP PUSH1 0x40 DUP5 ADD CALLDATALOAD PUSH8 0xFFFFFFFFFFFFFFFF DUP2 GT ISZERO PUSH2 0x52AF JUMPI PUSH2 0x52AE PUSH2 0x4339 JUMP JUMPDEST JUMPDEST PUSH2 0x52BB DUP7 DUP3 DUP8 ADD PUSH2 0x4687 JUMP JUMPDEST SWAP2 POP POP SWAP3 POP SWAP3 POP SWAP3 JUMP JUMPDEST PUSH0 PUSH0 PUSH0 PUSH0 PUSH0 PUSH1 0xA0 DUP7 DUP9 SUB SLT ISZERO PUSH2 0x52DE JUMPI PUSH2 0x52DD PUSH2 0x4335 JUMP JUMPDEST JUMPDEST PUSH0 PUSH2 0x52EB DUP9 DUP3 DUP10 ADD PUSH2 0x4574 JUMP JUMPDEST SWAP6 POP POP PUSH1 0x20 PUSH2 0x52FC DUP9 DUP3 DUP10 ADD PUSH2 0x4574 JUMP JUMPDEST SWAP5 POP POP PUSH1 0x40 DUP7 ADD CALLDATALOAD PUSH8 0xFFFFFFFFFFFFFFFF DUP2 GT ISZERO PUSH2 0x531D JUMPI PUSH2 0x531C PUSH2 0x4339 JUMP JUMPDEST JUMPDEST PUSH2 0x5329 DUP9 DUP3 DUP10 ADD PUSH2 0x48B3 JUMP JUMPDEST SWAP4 POP POP PUSH1 0x60 DUP7 ADD CALLDATALOAD PUSH8 0xFFFFFFFFFFFFFFFF DUP2 GT ISZERO PUSH2 0x534A JUMPI PUSH2 0x5349 PUSH2 0x4339 JUMP JUMPDEST JUMPDEST PUSH2 0x5356 DUP9 DUP3 DUP10 ADD PUSH2 0x48B3 JUMP JUMPDEST SWAP3 POP POP PUSH1 0x80 DUP7 ADD CALLDATALOAD PUSH8 0xFFFFFFFFFFFFFFFF DUP2 GT ISZERO PUSH2 0x5377 JUMPI PUSH2 0x5376 PUSH2 0x4339 JUMP JUMPDEST JUMPDEST PUSH2 0x5383 DUP9 DUP3 DUP10 ADD PUSH2 0x4687 JUMP JUMPDEST SWAP2 POP POP SWAP3 SWAP6 POP SWAP3 SWAP6 SWAP1 SWAP4 POP JUMP JUMPDEST PUSH0 PUSH0 DUP4 PUSH1 0x1F DUP5 ADD SLT PUSH2 0x53A5 JUMPI PUSH2 0x53A4 PUSH2 0x4588 JUMP JUMPDEST JUMPDEST DUP3 CALLDATALOAD SWAP1 POP PUSH8 0xFFFFFFFFFFFFFFFF DUP2 GT ISZERO PUSH2 0x53C2 JUMPI PUSH2 0x53C1 PUSH2 0x4C44 JUMP JUMPDEST JUMPDEST PUSH1 0x20 DUP4 ADD SWAP2 POP DUP4 PUSH1 0x1 DUP3 MUL DUP4 ADD GT ISZERO PUSH2 0x53DE JUMPI PUSH2 0x53DD PUSH2 0x4787 JUMP JUMPDEST JUMPDEST SWAP3 POP SWAP3 SWAP1 POP JUMP JUMPDEST PUSH0 PUSH0 PUSH0 PUSH0 PUSH1 0x60 DUP6 DUP8 SUB SLT ISZERO PUSH2 0x53FD JUMPI PUSH2 0x53FC PUSH2 0x4335 JUMP JUMPDEST JUMPDEST PUSH0 PUSH2 0x540A DUP8 DUP3 DUP9 ADD PUSH2 0x4574 JUMP JUMPDEST SWAP5 POP POP PUSH1 0x20 PUSH2 0x541B DUP8 DUP3 DUP9 ADD PUSH2 0x4437 JUMP JUMPDEST SWAP4 POP POP PUSH1 0x40 DUP6 ADD CALLDATALOAD PUSH8 0xFFFFFFFFFFFFFFFF DUP2 GT ISZERO PUSH2 0x543C JUMPI PUSH2 0x543B PUSH2 0x4339 JUMP JUMPDEST JUMPDEST PUSH2 0x5448 DUP8 DUP3 DUP9 ADD PUSH2 0x5390 JUMP JUMPDEST SWAP3 POP SWAP3 POP POP SWAP3 SWAP6 SWAP2 SWAP5 POP SWAP3 POP JUMP JUMPDEST PUSH0 PUSH0 PUSH1 0x40 DUP4 DUP6 SUB SLT ISZERO PUSH2 0x546C JUMPI PUSH2 0x546B PUSH2 0x4335 JUMP JUMPDEST JUMPDEST PUSH0 PUSH2 0x5479 DUP6 DUP3 DUP7 ADD PUSH2 0x4574 JUMP JUMPDEST SWAP3 POP POP PUSH1 0x20 PUSH2 0x548A DUP6 DUP3 DUP7 ADD PUSH2 0x4437 JUMP JUMPDEST SWAP2 POP POP SWAP3 POP SWAP3 SWAP1 POP JUMP JUMPDEST PUSH0 PUSH0 PUSH0 PUSH0 PUSH0 PUSH1 0xA0 DUP7 DUP9 SUB SLT ISZERO PUSH2 0x54AD JUMPI PUSH2 0x54AC PUSH2 0x4335 JUMP JUMPDEST JUMPDEST PUSH0 PUSH2 0x54BA DUP9 DUP3 DUP10 ADD PUSH2 0x4574 JUMP JUMPDEST SWAP6 POP POP PUSH1 0x20 PUSH2 0x54CB DUP9 DUP3 DUP10 ADD PUSH2 0x4574 JUMP JUMPDEST SWAP5 POP POP PUSH1 0x40 PUSH2 0x54DC DUP9 DUP3 DUP10 ADD PUSH2 0x4437 JUMP JUMPDEST SWAP4 POP POP PUSH1 0x60 PUSH2 0x54ED DUP9 DUP3 DUP10 ADD PUSH2 0x4437 JUMP JUMPDEST SWAP3 POP POP PUSH1 0x80 DUP7 ADD CALLDATALOAD PUSH8 0xFFFFFFFFFFFFFFFF DUP2 GT ISZERO PUSH2 0x550E JUMPI PUSH2 0x550D PUSH2 0x4339 JUMP JUMPDEST JUMPDEST PUSH2 0x551A DUP9 DUP3 DUP10 ADD PUSH2 0x4687 JUMP JUMPDEST SWAP2 POP POP SWAP3 SWAP6 POP SWAP3 SWAP6 SWAP1 SWAP4 POP JUMP JUMPDEST PUSH0 DUP2 SWAP1 POP SWAP2 SWAP1 POP JUMP JUMPDEST PUSH0 PUSH2 0x554A PUSH2 0x5545 PUSH2 0x5540 DUP5 PUSH2 0x4506 JUMP JUMPDEST PUSH2 0x5527 JUMP JUMPDEST PUSH2 0x4506 JUMP JUMPDEST SWAP1 POP SWAP2 SWAP1 POP JUMP JUMPDEST PUSH0 PUSH2 0x555B DUP3 PUSH2 0x5530 JUMP JUMPDEST SWAP1 POP SWAP2 SWAP1 POP JUMP JUMPDEST PUSH0 PUSH2 0x556C DUP3 PUSH2 0x5551 JUMP JUMPDEST SWAP1 POP SWAP2 SWAP1 POP JUMP JUMPDEST PUSH2 0x557C DUP2 PUSH2 0x5562 JUMP JUMPDEST DUP3 MSTORE POP POP JUMP JUMPDEST PUSH0 PUSH1 0x20 DUP3 ADD SWAP1 POP PUSH2 0x5595 PUSH0 DUP4 ADD DUP5 PUSH2 0x5573 JUMP JUMPDEST SWAP3 SWAP2 POP POP JUMP JUMPDEST PUSH32 0x4E487B7100000000000000000000000000000000000000000000000000000000 PUSH0 MSTORE PUSH1 0x22 PUSH1 0x4 MSTORE PUSH1 0x24 PUSH0 REVERT JUMPDEST PUSH0 PUSH1 0x2 DUP3 DIV SWAP1 POP PUSH1 0x1 DUP3 AND DUP1 PUSH2 0x55DF JUMPI PUSH1 0x7F DUP3 AND SWAP2 POP JUMPDEST PUSH1 0x20 DUP3 LT DUP2 SUB PUSH2 0x55F2 JUMPI PUSH2 0x55F1 PUSH2 0x559B JUMP JUMPDEST JUMPDEST POP SWAP2 SWAP1 POP JUMP JUMPDEST PUSH0 PUSH2 0x5612 PUSH2 0x560D PUSH2 0x5608 DUP5 PUSH2 0x5220 JUMP JUMPDEST PUSH2 0x5527 JUMP JUMPDEST PUSH2 0x43F0 JUMP JUMPDEST SWAP1 POP SWAP2 SWAP1 POP JUMP JUMPDEST PUSH2 0x5622 DUP2 PUSH2 0x55F8 JUMP JUMPDEST DUP3 MSTORE POP POP JUMP JUMPDEST PUSH0 PUSH1 0x40 DUP3 ADD SWAP1 POP PUSH2 0x563B PUSH0 DUP4 ADD DUP6 PUSH2 0x43F9 JUMP JUMPDEST PUSH2 0x5648 PUSH1 0x20 DUP4 ADD DUP5 PUSH2 0x5619 JUMP JUMPDEST SWAP4 SWAP3 POP POP POP JUMP JUMPDEST PUSH32 0x4E487B7100000000000000000000000000000000000000000000000000000000 PUSH0 MSTORE PUSH1 0x32 PUSH1 0x4 MSTORE PUSH1 0x24 PUSH0 REVERT JUMPDEST PUSH0 PUSH1 0x40 DUP3 ADD SWAP1 POP PUSH2 0x568F PUSH0 DUP4 ADD DUP6 PUSH2 0x43F9 JUMP JUMPDEST PUSH2 0x569C PUSH1 0x20 DUP4 ADD DUP5 PUSH2 0x4536 JUMP JUMPDEST SWAP4 SWAP3 POP POP POP JUMP JUMPDEST PUSH0 PUSH2 0x56B5 PUSH2 0x56B0 DUP5 PUSH2 0x4E90 JUMP JUMPDEST PUSH2 0x45EE JUMP JUMPDEST SWAP1 POP DUP3 DUP2 MSTORE PUSH1 0x20 DUP2 ADD DUP5 DUP5 DUP5 ADD GT ISZERO PUSH2 0x56D1 JUMPI PUSH2 0x56D0 PUSH2 0x458C JUMP JUMPDEST JUMPDEST PUSH2 0x56DC DUP5 DUP3 DUP6 PUSH2 0x4490 JUMP JUMPDEST POP SWAP4 SWAP3 POP POP POP JUMP JUMPDEST PUSH0 DUP3 PUSH1 0x1F DUP4 ADD SLT PUSH2 0x56F8 JUMPI PUSH2 0x56F7 PUSH2 0x4588 JUMP JUMPDEST JUMPDEST DUP2 MLOAD PUSH2 0x5708 DUP5 DUP3 PUSH1 0x20 DUP7 ADD PUSH2 0x56A3 JUMP JUMPDEST SWAP2 POP POP SWAP3 SWAP2 POP POP JUMP JUMPDEST PUSH0 PUSH1 0x20 DUP3 DUP5 SUB SLT ISZERO PUSH2 0x5726 JUMPI PUSH2 0x5725 PUSH2 0x4335 JUMP JUMPDEST JUMPDEST PUSH0 DUP3 ADD MLOAD PUSH8 0xFFFFFFFFFFFFFFFF DUP2 GT ISZERO PUSH2 0x5743 JUMPI PUSH2 0x5742 PUSH2 0x4339 JUMP JUMPDEST JUMPDEST PUSH2 0x574F DUP5 DUP3 DUP6 ADD PUSH2 0x56E4 JUMP JUMPDEST SWAP2 POP POP SWAP3 SWAP2 POP POP JUMP JUMPDEST PUSH32 0x4E487B7100000000000000000000000000000000000000000000000000000000 PUSH0 MSTORE PUSH1 0x11 PUSH1 0x4 MSTORE PUSH1 0x24 PUSH0 REVERT JUMPDEST PUSH0 PUSH2 0x578F DUP3 PUSH2 0x5220 JUMP JUMPDEST SWAP2 POP PUSH2 0x579A DUP4 PUSH2 0x5220 JUMP JUMPDEST SWAP3 POP DUP3 DUP3 SUB SWAP1 POP PUSH6 0xFFFFFFFFFFFF DUP2 GT ISZERO PUSH2 0x57B8 JUMPI PUSH2 0x57B7 PUSH2 0x5758 JUMP JUMPDEST JUMPDEST SWAP3 SWAP2 POP POP JUMP JUMPDEST PUSH0 PUSH1 0x60 DUP3 ADD SWAP1 POP PUSH2 0x57D1 PUSH0 DUP4 ADD DUP7 PUSH2 0x4536 JUMP JUMPDEST PUSH2 0x57DE PUSH1 0x20 DUP4 ADD DUP6 PUSH2 0x43F9 JUMP JUMPDEST PUSH2 0x57EB PUSH1 0x40 DUP4 ADD DUP5 PUSH2 0x43F9 JUMP JUMPDEST SWAP5 SWAP4 POP POP POP POP JUMP JUMPDEST PUSH2 0x57FC DUP2 PUSH2 0x5220 JUMP JUMPDEST DUP2 EQ PUSH2 0x5806 JUMPI PUSH0 PUSH0 REVERT JUMPDEST POP JUMP JUMPDEST PUSH0 DUP2 MLOAD SWAP1 POP PUSH2 0x5817 DUP2 PUSH2 0x57F3 JUMP JUMPDEST SWAP3 SWAP2 POP POP JUMP JUMPDEST PUSH0 PUSH1 0x20 DUP3 DUP5 SUB SLT ISZERO PUSH2 0x5832 JUMPI PUSH2 0x5831 PUSH2 0x4335 JUMP JUMPDEST JUMPDEST PUSH0 PUSH2 0x583F DUP5 DUP3 DUP6 ADD PUSH2 0x5809 JUMP JUMPDEST SWAP2 POP POP SWAP3 SWAP2 POP POP JUMP JUMPDEST PUSH0 PUSH2 0x5852 DUP3 PUSH2 0x5220 JUMP JUMPDEST SWAP2 POP PUSH2 0x585D DUP4 PUSH2 0x5220 JUMP JUMPDEST SWAP3 POP DUP3 DUP3 ADD SWAP1 POP PUSH6 0xFFFFFFFFFFFF DUP2 GT ISZERO PUSH2 0x587B JUMPI PUSH2 0x587A PUSH2 0x5758 JUMP JUMPDEST JUMPDEST SWAP3 SWAP2 POP POP JUMP JUMPDEST PUSH0 DUP2 SWAP1 POP SWAP3 SWAP2 POP POP JUMP JUMPDEST PUSH0 PUSH2 0x5896 DUP4 DUP6 PUSH2 0x5881 JUMP JUMPDEST SWAP4 POP PUSH2 0x58A3 DUP4 DUP6 DUP5 PUSH2 0x4638 JUMP JUMPDEST DUP3 DUP5 ADD SWAP1 POP SWAP4 SWAP3 POP POP POP JUMP JUMPDEST PUSH0 PUSH2 0x58BB DUP3 DUP5 DUP7 PUSH2 0x588B JUMP JUMPDEST SWAP2 POP DUP2 SWAP1 POP SWAP4 SWAP3 POP POP POP JUMP JUMPDEST PUSH0 DUP2 MLOAD SWAP1 POP SWAP2 SWAP1 POP JUMP JUMPDEST PUSH0 DUP3 DUP3 MSTORE PUSH1 0x20 DUP3 ADD SWAP1 POP SWAP3 SWAP2 POP POP JUMP JUMPDEST PUSH0 DUP2 SWAP1 POP PUSH1 0x20 DUP3 ADD SWAP1 POP SWAP2 SWAP1 POP JUMP JUMPDEST PUSH2 0x58F9 DUP2 PUSH2 0x4525 JUMP JUMPDEST DUP3 MSTORE POP POP JUMP JUMPDEST PUSH0 PUSH2 0x590A DUP4 DUP4 PUSH2 0x58F0 JUMP JUMPDEST PUSH1 0x20 DUP4 ADD SWAP1 POP SWAP3 SWAP2 POP POP JUMP JUMPDEST PUSH0 PUSH1 0x20 DUP3 ADD SWAP1 POP SWAP2 SWAP1 POP JUMP JUMPDEST PUSH0 PUSH2 0x592C DUP3 PUSH2 0x58C7 JUMP JUMPDEST PUSH2 0x5936 DUP2 DUP6 PUSH2 0x58D1 JUMP JUMPDEST SWAP4 POP PUSH2 0x5941 DUP4 PUSH2 0x58E1 JUMP JUMPDEST DUP1 PUSH0 JUMPDEST DUP4 DUP2 LT ISZERO PUSH2 0x5971 JUMPI DUP2 MLOAD PUSH2 0x5958 DUP9 DUP3 PUSH2 0x58FF JUMP JUMPDEST SWAP8 POP PUSH2 0x5963 DUP4 PUSH2 0x5916 JUMP JUMPDEST SWAP3 POP POP PUSH1 0x1 DUP2 ADD SWAP1 POP PUSH2 0x5944 JUMP JUMPDEST POP DUP6 SWAP4 POP POP POP POP SWAP3 SWAP2 POP POP JUMP JUMPDEST PUSH0 DUP2 MLOAD SWAP1 POP SWAP2 SWAP1 POP JUMP JUMPDEST PUSH0 DUP3 DUP3 MSTORE PUSH1 0x20 DUP3 ADD SWAP1 POP SWAP3 SWAP2 POP POP JUMP JUMPDEST PUSH0 DUP2 SWAP1 POP PUSH1 0x20 DUP3 ADD SWAP1 POP SWAP2 SWAP1 POP JUMP JUMPDEST PUSH0 DUP2 MLOAD SWAP1 POP SWAP2 SWAP1 POP JUMP JUMPDEST PUSH0 DUP3 DUP3 MSTORE PUSH1 0x20 DUP3 ADD SWAP1 POP SWAP3 SWAP2 POP POP JUMP JUMPDEST PUSH0 PUSH2 0x59CB DUP3 PUSH2 0x59A7 JUMP JUMPDEST PUSH2 0x59D5 DUP2 DUP6 PUSH2 0x59B1 JUMP JUMPDEST SWAP4 POP PUSH2 0x59E5 DUP2 DUP6 PUSH1 0x20 DUP7 ADD PUSH2 0x4490 JUMP JUMPDEST PUSH2 0x59EE DUP2 PUSH2 0x449E JUMP JUMPDEST DUP5 ADD SWAP2 POP POP SWAP3 SWAP2 POP POP JUMP JUMPDEST PUSH0 PUSH2 0x5A04 DUP4 DUP4 PUSH2 0x59C1 JUMP JUMPDEST SWAP1 POP SWAP3 SWAP2 POP POP JUMP JUMPDEST PUSH0 PUSH1 0x20 DUP3 ADD SWAP1 POP SWAP2 SWAP1 POP JUMP JUMPDEST PUSH0 PUSH2 0x5A22 DUP3 PUSH2 0x597E JUMP JUMPDEST PUSH2 0x5A2C DUP2 DUP6 PUSH2 0x5988 JUMP JUMPDEST SWAP4 POP DUP4 PUSH1 0x20 DUP3 MUL DUP6 ADD PUSH2 0x5A3E DUP6 PUSH2 0x5998 JUMP JUMPDEST DUP1 PUSH0 JUMPDEST DUP6 DUP2 LT ISZERO PUSH2 0x5A79 JUMPI DUP5 DUP5 SUB DUP10 MSTORE DUP2 MLOAD PUSH2 0x5A5A DUP6 DUP3 PUSH2 0x59F9 JUMP JUMPDEST SWAP5 POP PUSH2 0x5A65 DUP4 PUSH2 0x5A0C JUMP JUMPDEST SWAP3 POP PUSH1 0x20 DUP11 ADD SWAP10 POP POP PUSH1 0x1 DUP2 ADD SWAP1 POP PUSH2 0x5A41 JUMP JUMPDEST POP DUP3 SWAP8 POP DUP8 SWAP6 POP POP POP POP POP POP SWAP3 SWAP2 POP POP JUMP JUMPDEST PUSH0 PUSH1 0x80 DUP3 ADD SWAP1 POP DUP2 DUP2 SUB PUSH0 DUP4 ADD MSTORE PUSH2 0x5AA3 DUP2 DUP8 PUSH2 0x5922 JUMP JUMPDEST SWAP1 POP DUP2 DUP2 SUB PUSH1 0x20 DUP4 ADD MSTORE PUSH2 0x5AB7 DUP2 DUP7 PUSH2 0x50C2 JUMP JUMPDEST SWAP1 POP DUP2 DUP2 SUB PUSH1 0x40 DUP4 ADD MSTORE PUSH2 0x5ACB DUP2 DUP6 PUSH2 0x5A18 JUMP JUMPDEST SWAP1 POP PUSH2 0x5ADA PUSH1 0x60 DUP4 ADD DUP5 PUSH2 0x4AA9 JUMP JUMPDEST SWAP6 SWAP5 POP POP POP POP POP JUMP JUMPDEST PUSH0 DUP2 MLOAD SWAP1 POP PUSH2 0x5AF1 DUP2 PUSH2 0x4421 JUMP JUMPDEST SWAP3 SWAP2 POP POP JUMP JUMPDEST PUSH0 PUSH1 0x20 DUP3 DUP5 SUB SLT ISZERO PUSH2 0x5B0C JUMPI PUSH2 0x5B0B PUSH2 0x4335 JUMP JUMPDEST JUMPDEST PUSH0 PUSH2 0x5B19 DUP5 DUP3 DUP6 ADD PUSH2 0x5AE3 JUMP JUMPDEST SWAP2 POP POP SWAP3 SWAP2 POP POP JUMP JUMPDEST PUSH0 PUSH1 0x40 DUP3 ADD SWAP1 POP PUSH2 0x5B35 PUSH0 DUP4 ADD DUP6 PUSH2 0x43F9 JUMP JUMPDEST PUSH2 0x5B42 PUSH1 0x20 DUP4 ADD DUP5 PUSH2 0x43F9 JUMP JUMPDEST SWAP4 SWAP3 POP POP POP JUMP JUMPDEST PUSH0 PUSH1 0x60 DUP3 ADD SWAP1 POP PUSH2 0x5B5C PUSH0 DUP4 ADD DUP7 PUSH2 0x43F9 JUMP JUMPDEST PUSH2 0x5B69 PUSH1 0x20 DUP4 ADD DUP6 PUSH2 0x4B35 JUMP JUMPDEST PUSH2 0x5B76 PUSH1 0x40 DUP4 ADD DUP5 PUSH2 0x4AA9 JUMP JUMPDEST SWAP5 SWAP4 POP POP POP POP JUMP JUMPDEST PUSH0 PUSH2 0x5B88 DUP3 PUSH2 0x59A7 JUMP JUMPDEST PUSH2 0x5B92 DUP2 DUP6 PUSH2 0x5881 JUMP JUMPDEST SWAP4 POP PUSH2 0x5BA2 DUP2 DUP6 PUSH1 0x20 DUP7 ADD PUSH2 0x4490 JUMP JUMPDEST DUP1 DUP5 ADD SWAP2 POP POP SWAP3 SWAP2 POP POP JUMP JUMPDEST PUSH0 PUSH2 0x5BB9 DUP3 DUP5 PUSH2 0x5B7E JUMP JUMPDEST SWAP2 POP DUP2 SWAP1 POP SWAP3 SWAP2 POP POP JUMP JUMPDEST PUSH0 PUSH2 0x5BCE DUP3 PUSH2 0x43F0 JUMP JUMPDEST SWAP2 POP PUSH2 0x5BD9 DUP4 PUSH2 0x43F0 JUMP JUMPDEST SWAP3 POP DUP3 DUP3 ADD SWAP1 POP DUP1 DUP3 GT ISZERO PUSH2 0x5BF1 JUMPI PUSH2 0x5BF0 PUSH2 0x5758 JUMP JUMPDEST JUMPDEST SWAP3 SWAP2 POP POP JUMP JUMPDEST PUSH0 PUSH2 0x5C01 DUP3 PUSH2 0x4BD0 JUMP JUMPDEST SWAP2 POP PUSH2 0x5C0C DUP4 PUSH2 0x4BD0 JUMP JUMPDEST SWAP3 POP DUP3 DUP3 ADD SWAP1 POP PUSH1 0xFF DUP2 GT ISZERO PUSH2 0x5C25 JUMPI PUSH2 0x5C24 PUSH2 0x5758 JUMP JUMPDEST JUMPDEST SWAP3 SWAP2 POP POP JUMP JUMPDEST PUSH0 DUP2 PUSH1 0x1 SHR SWAP1 POP SWAP2 SWAP1 POP JUMP JUMPDEST PUSH0 PUSH0 DUP3 SWAP2 POP DUP4 SWAP1 POP JUMPDEST PUSH1 0x1 DUP6 GT ISZERO PUSH2 0x5C80 JUMPI DUP1 DUP7 DIV DUP2 GT ISZERO PUSH2 0x5C5C JUMPI PUSH2 0x5C5B PUSH2 0x5758 JUMP JUMPDEST JUMPDEST PUSH1 0x1 DUP6 AND ISZERO PUSH2 0x5C6B JUMPI DUP1 DUP3 MUL SWAP2 POP JUMPDEST DUP1 DUP2 MUL SWAP1 POP PUSH2 0x5C79 DUP6 PUSH2 0x5C2B JUMP JUMPDEST SWAP5 POP PUSH2 0x5C40 JUMP JUMPDEST SWAP5 POP SWAP5 SWAP3 POP POP POP JUMP JUMPDEST PUSH0 DUP3 PUSH2 0x5C98 JUMPI PUSH1 0x1 SWAP1 POP PUSH2 0x5D53 JUMP JUMPDEST DUP2 PUSH2 0x5CA5 JUMPI PUSH0 SWAP1 POP PUSH2 0x5D53 JUMP JUMPDEST DUP2 PUSH1 0x1 DUP2 EQ PUSH2 0x5CBB JUMPI PUSH1 0x2 DUP2 EQ PUSH2 0x5CC5 JUMPI PUSH2 0x5CF4 JUMP JUMPDEST PUSH1 0x1 SWAP2 POP POP PUSH2 0x5D53 JUMP JUMPDEST PUSH1 0xFF DUP5 GT ISZERO PUSH2 0x5CD7 JUMPI PUSH2 0x5CD6 PUSH2 0x5758 JUMP JUMPDEST JUMPDEST DUP4 PUSH1 0x2 EXP SWAP2 POP DUP5 DUP3 GT ISZERO PUSH2 0x5CEE JUMPI PUSH2 0x5CED PUSH2 0x5758 JUMP JUMPDEST JUMPDEST POP PUSH2 0x5D53 JUMP JUMPDEST POP PUSH1 0x20 DUP4 LT PUSH2 0x133 DUP4 LT AND PUSH1 0x4E DUP5 LT PUSH1 0xB DUP5 LT AND OR ISZERO PUSH2 0x5D29 JUMPI DUP3 DUP3 EXP SWAP1 POP DUP4 DUP2 GT ISZERO PUSH2 0x5D24 JUMPI PUSH2 0x5D23 PUSH2 0x5758 JUMP JUMPDEST JUMPDEST PUSH2 0x5D53 JUMP JUMPDEST PUSH2 0x5D36 DUP5 DUP5 DUP5 PUSH1 0x1 PUSH2 0x5C37 JUMP JUMPDEST SWAP3 POP SWAP1 POP DUP2 DUP5 DIV DUP2 GT ISZERO PUSH2 0x5D4D JUMPI PUSH2 0x5D4C PUSH2 0x5758 JUMP JUMPDEST JUMPDEST DUP2 DUP2 MUL SWAP1 POP JUMPDEST SWAP4 SWAP3 POP POP POP JUMP JUMPDEST PUSH0 PUSH2 0x5D64 DUP3 PUSH2 0x43F0 JUMP JUMPDEST SWAP2 POP PUSH2 0x5D6F DUP4 PUSH2 0x4BD0 JUMP JUMPDEST SWAP3 POP PUSH2 0x5D9C PUSH32 0xFFFFFFFFFFFFFFFFFFFFFFFFFFFFFFFFFFFFFFFFFFFFFFFFFFFFFFFFFFFFFFFF DUP5 DUP5 PUSH2 0x5C89 JUMP JUMPDEST SWAP1 POP SWAP3 SWAP2 POP POP JUMP JUMPDEST PUSH0 PUSH2 0x5DAE DUP3 PUSH2 0x43F0 JUMP JUMPDEST SWAP2 POP PUSH2 0x5DB9 DUP4 PUSH2 0x43F0 JUMP JUMPDEST SWAP3 POP DUP3 DUP3 SUB SWAP1 POP DUP2 DUP2 GT ISZERO PUSH2 0x5DD1 JUMPI PUSH2 0x5DD0 PUSH2 0x5758 JUMP JUMPDEST JUMPDEST SWAP3 SWAP2 POP POP JUMP JUMPDEST PUSH2 0x5DE0 DUP2 PUSH2 0x4BD0 JUMP JUMPDEST DUP3 MSTORE POP POP JUMP JUMPDEST PUSH0 PUSH1 0xE0 DUP3 ADD SWAP1 POP PUSH2 0x5DF9 PUSH0 DUP4 ADD DUP11 PUSH2 0x4AA9 JUMP JUMPDEST PUSH2 0x5E06 PUSH1 0x20 DUP4 ADD DUP10 PUSH2 0x43F9 JUMP JUMPDEST PUSH2 0x5E13 PUSH1 0x40 DUP4 ADD DUP9 PUSH2 0x5DD7 JUMP JUMPDEST PUSH2 0x5E20 PUSH1 0x60 DUP4 ADD DUP8 PUSH2 0x4536 JUMP JUMPDEST PUSH2 0x5E2D PUSH1 0x80 DUP4 ADD DUP7 PUSH2 0x43F9 JUMP JUMPDEST PUSH2 0x5E3A PUSH1 0xA0 DUP4 ADD DUP6 PUSH2 0x4AA9 JUMP JUMPDEST PUSH2 0x5E47 PUSH1 0xC0 DUP4 ADD DUP5 PUSH2 0x4AA9 JUMP JUMPDEST SWAP9 SWAP8 POP POP POP POP POP POP POP POP JUMP JUMPDEST PUSH0 PUSH1 0x80 DUP3 ADD SWAP1 POP PUSH2 0x5E66 PUSH0 DUP4 ADD DUP8 PUSH2 0x43F9 JUMP JUMPDEST PUSH2 0x5E73 PUSH1 0x20 DUP4 ADD DUP7 PUSH2 0x5DD7 JUMP JUMPDEST PUSH2 0x5E80 PUSH1 0x40 DUP4 ADD DUP6 PUSH2 0x43F9 JUMP JUMPDEST DUP2 DUP2 SUB PUSH1 0x60 DUP4 ADD MSTORE PUSH2 0x5E92 DUP2 DUP5 PUSH2 0x44AE JUMP JUMPDEST SWAP1 POP SWAP6 SWAP5 POP POP POP POP POP JUMP JUMPDEST PUSH0 DUP3 DUP3 MSTORE PUSH1 0x20 DUP3 ADD SWAP1 POP SWAP3 SWAP2 POP POP JUMP JUMPDEST PUSH0 PUSH2 0x5EB7 DUP3 PUSH2 0x59A7 JUMP JUMPDEST PUSH2 0x5EC1 DUP2 DUP6 PUSH2 0x5E9D JUMP JUMPDEST SWAP4 POP PUSH2 0x5ED1 DUP2 DUP6 PUSH1 0x20 DUP7 ADD PUSH2 0x4490 JUMP JUMPDEST PUSH2 0x5EDA DUP2 PUSH2 0x449E JUMP JUMPDEST DUP5 ADD SWAP2 POP POP SWAP3 SWAP2 POP POP JUMP JUMPDEST PUSH0 PUSH1 0xA0 DUP3 ADD SWAP1 POP PUSH2 0x5EF8 PUSH0 DUP4 ADD DUP9 PUSH2 0x43F9 JUMP JUMPDEST PUSH2 0x5F05 PUSH1 0x20 DUP4 ADD DUP8 PUSH2 0x5DD7 JUMP JUMPDEST PUSH2 0x5F12 PUSH1 0x40 DUP4 ADD DUP7 PUSH2 0x43F9 JUMP JUMPDEST DUP2 DUP2 SUB PUSH1 0x60 DUP4 ADD MSTORE PUSH2 0x5F24 DUP2 DUP6 PUSH2 0x44AE JUMP JUMPDEST SWAP1 POP DUP2 DUP2 SUB PUSH1 0x80 DUP4 ADD MSTORE PUSH2 0x5F38 DUP2 DUP5 PUSH2 0x5EAD JUMP JUMPDEST SWAP1 POP SWAP7 SWAP6 POP POP POP POP POP POP JUMP JUMPDEST PUSH0 DUP2 MLOAD SWAP1 POP SWAP2 SWAP1 POP JUMP JUMPDEST PUSH0 DUP3 DUP3 MSTORE PUSH1 0x20 DUP3 ADD SWAP1 POP SWAP3 SWAP2 POP POP JUMP JUMPDEST PUSH0 DUP2 SWAP1 POP PUSH1 0x20 DUP3 ADD SWAP1 POP SWAP2 SWAP1 POP JUMP JUMPDEST PUSH0 DUP3 DUP3 MSTORE PUSH1 0x20 DUP3 ADD SWAP1 POP SWAP3 SWAP2 POP POP JUMP JUMPDEST PUSH0 PUSH2 0x5F87 DUP3 PUSH2 0x4476 JUMP JUMPDEST PUSH2 0x5F91 DUP2 DUP6 PUSH2 0x5F6D JUMP JUMPDEST SWAP4 POP PUSH2 0x5FA1 DUP2 DUP6 PUSH1 0x20 DUP7 ADD PUSH2 0x4490 JUMP JUMPDEST PUSH2 0x5FAA DUP2 PUSH2 0x449E JUMP JUMPDEST DUP5 ADD SWAP2 POP POP SWAP3 SWAP2 POP POP JUMP JUMPDEST PUSH0 PUSH2 0x5FC0 DUP4 DUP4 PUSH2 0x5F7D JUMP JUMPDEST SWAP1 POP SWAP3 SWAP2 POP POP JUMP JUMPDEST PUSH0 PUSH1 0x20 DUP3 ADD SWAP1 POP SWAP2 SWAP1 POP JUMP JUMPDEST PUSH0 PUSH2 0x5FDE DUP3 PUSH2 0x5F44 JUMP JUMPDEST PUSH2 0x5FE8 DUP2 DUP6 PUSH2 0x5F4E JUMP JUMPDEST SWAP4 POP DUP4 PUSH1 0x20 DUP3 MUL DUP6 ADD PUSH2 0x5FFA DUP6 PUSH2 0x5F5E JUMP JUMPDEST DUP1 PUSH0 JUMPDEST DUP6 DUP2 LT ISZERO PUSH2 0x6035 JUMPI DUP5 DUP5 SUB DUP10 MSTORE DUP2 MLOAD PUSH2 0x6016 DUP6 DUP3 PUSH2 0x5FB5 JUMP JUMPDEST SWAP5 POP PUSH2 0x6021 DUP4 PUSH2 0x5FC8 JUMP JUMPDEST SWAP3 POP PUSH1 0x20 DUP11 ADD SWAP10 POP POP PUSH1 0x1 DUP2 ADD SWAP1 POP PUSH2 0x5FFD JUMP JUMPDEST POP DUP3 SWAP8 POP DUP8 SWAP6 POP POP POP POP POP POP SWAP3 SWAP2 POP POP JUMP JUMPDEST PUSH0 PUSH2 0x120 DUP3 ADD SWAP1 POP PUSH2 0x605B PUSH0 DUP4 ADD DUP13 PUSH2 0x43F9 JUMP JUMPDEST PUSH2 0x6068 PUSH1 0x20 DUP4 ADD DUP12 PUSH2 0x4536 JUMP JUMPDEST DUP2 DUP2 SUB PUSH1 0x40 DUP4 ADD MSTORE PUSH2 0x607A DUP2 DUP11 PUSH2 0x5922 JUMP JUMPDEST SWAP1 POP DUP2 DUP2 SUB PUSH1 0x60 DUP4 ADD MSTORE PUSH2 0x608E DUP2 DUP10 PUSH2 0x50C2 JUMP JUMPDEST SWAP1 POP DUP2 DUP2 SUB PUSH1 0x80 DUP4 ADD MSTORE PUSH2 0x60A2 DUP2 DUP9 PUSH2 0x5FD4 JUMP JUMPDEST SWAP1 POP DUP2 DUP2 SUB PUSH1 0xA0 DUP4 ADD MSTORE PUSH2 0x60B6 DUP2 DUP8 PUSH2 0x5A18 JUMP JUMPDEST SWAP1 POP PUSH2 0x60C5 PUSH1 0xC0 DUP4 ADD DUP7 PUSH2 0x43F9 JUMP JUMPDEST PUSH2 0x60D2 PUSH1 0xE0 DUP4 ADD DUP6 PUSH2 0x43F9 JUMP JUMPDEST DUP2 DUP2 SUB PUSH2 0x100 DUP4 ADD MSTORE PUSH2 0x60E5 DUP2 DUP5 PUSH2 0x44AE JUMP JUMPDEST SWAP1 POP SWAP11 SWAP10 POP POP POP POP POP POP POP POP POP POP JUMP JUMPDEST PUSH0 PUSH1 0xA0 DUP3 ADD SWAP1 POP PUSH2 0x6108 PUSH0 DUP4 ADD DUP9 PUSH2 0x4AA9 JUMP JUMPDEST PUSH2 0x6115 PUSH1 0x20 DUP4 ADD DUP8 PUSH2 0x43F9 JUMP JUMPDEST PUSH2 0x6122 PUSH1 0x40 DUP4 ADD DUP7 PUSH2 0x5DD7 JUMP JUMPDEST PUSH2 0x612F PUSH1 0x60 DUP4 ADD DUP6 PUSH2 0x4536 JUMP JUMPDEST PUSH2 0x613C PUSH1 0x80 DUP4 ADD DUP5 PUSH2 0x43F9 JUMP JUMPDEST SWAP7 SWAP6 POP POP POP POP POP POP JUMP JUMPDEST PUSH0 PUSH1 0x40 DUP3 ADD SWAP1 POP PUSH2 0x6159 PUSH0 DUP4 ADD DUP6 PUSH2 0x4536 JUMP JUMPDEST PUSH2 0x6166 PUSH1 0x20 DUP4 ADD DUP5 PUSH2 0x43F9 JUMP JUMPDEST SWAP4 SWAP3 POP POP POP JUMP JUMPDEST PUSH32 0x4E487B7100000000000000000000000000000000000000000000000000000000 PUSH0 MSTORE PUSH1 0x12 PUSH1 0x4 MSTORE PUSH1 0x24 PUSH0 REVERT JUMPDEST PUSH0 DUP2 SWAP1 POP SWAP2 SWAP1 POP JUMP JUMPDEST PUSH0 PUSH2 0x61BD PUSH2 0x61B8 PUSH2 0x61B3 DUP5 PUSH2 0x619A JUMP JUMPDEST PUSH2 0x5527 JUMP JUMPDEST PUSH2 0x4BD0 JUMP JUMPDEST SWAP1 POP SWAP2 SWAP1 POP JUMP JUMPDEST PUSH2 0x61CD DUP2 PUSH2 0x61A3 JUMP JUMPDEST DUP3 MSTORE POP POP JUMP JUMPDEST PUSH0 PUSH1 0x40 DUP3 ADD SWAP1 POP PUSH2 0x61E6 PUSH0 DUP4 ADD DUP6 PUSH2 0x61C4 JUMP JUMPDEST PUSH2 0x61F3 PUSH1 0x20 DUP4 ADD DUP5 PUSH2 0x43F9 JUMP JUMPDEST SWAP4 SWAP3 POP POP POP JUMP JUMPDEST PUSH0 DUP2 SWAP1 POP SWAP2 SWAP1 POP JUMP JUMPDEST PUSH0 PUSH2 0x621D PUSH2 0x6218 PUSH2 0x6213 DUP5 PUSH2 0x61FA JUMP JUMPDEST PUSH2 0x5527 JUMP JUMPDEST PUSH2 0x4BD0 JUMP JUMPDEST SWAP1 POP SWAP2 SWAP1 POP JUMP JUMPDEST PUSH2 0x622D DUP2 PUSH2 0x6203 JUMP JUMPDEST DUP3 MSTORE POP POP JUMP JUMPDEST PUSH0 PUSH1 0x40 DUP3 ADD SWAP1 POP PUSH2 0x6246 PUSH0 DUP4 ADD DUP6 PUSH2 0x6224 JUMP JUMPDEST PUSH2 0x6253 PUSH1 0x20 DUP4 ADD DUP5 PUSH2 0x43F9 JUMP JUMPDEST SWAP4 SWAP3 POP POP POP JUMP JUMPDEST PUSH0 PUSH2 0x6264 DUP3 PUSH2 0x43F0 JUMP JUMPDEST SWAP2 POP PUSH2 0x626F DUP4 PUSH2 0x43F0 JUMP JUMPDEST SWAP3 POP DUP3 DUP3 MUL PUSH2 0x627D DUP2 PUSH2 0x43F0 JUMP JUMPDEST SWAP2 POP DUP3 DUP3 DIV DUP5 EQ DUP4 ISZERO OR PUSH2 0x6294 JUMPI PUSH2 0x6293 PUSH2 0x5758 JUMP JUMPDEST JUMPDEST POP SWAP3 SWAP2 POP POP JUMP JUMPDEST PUSH0 DUP2 SWAP1 POP SWAP2 SWAP1 POP JUMP JUMPDEST PUSH0 PUSH2 0x62BE PUSH2 0x62B9 PUSH2 0x62B4 DUP5 PUSH2 0x629B JUMP JUMPDEST PUSH2 0x5527 JUMP JUMPDEST PUSH2 0x4BD0 JUMP JUMPDEST SWAP1 POP SWAP2 SWAP1 POP JUMP JUMPDEST PUSH2 0x62CE DUP2 PUSH2 0x62A4 JUMP JUMPDEST DUP3 MSTORE POP POP JUMP JUMPDEST PUSH0 PUSH1 0x40 DUP3 ADD SWAP1 POP PUSH2 0x62E7 PUSH0 DUP4 ADD DUP6 PUSH2 0x62C5 JUMP JUMPDEST PUSH2 0x62F4 PUSH1 0x20 DUP4 ADD DUP5 PUSH2 0x43F9 JUMP JUMPDEST SWAP4 SWAP3 POP POP POP JUMP JUMPDEST PUSH0 PUSH1 0x40 DUP3 ADD SWAP1 POP PUSH2 0x630E PUSH0 DUP4 ADD DUP6 PUSH2 0x4AA9 JUMP JUMPDEST DUP2 DUP2 SUB PUSH1 0x20 DUP4 ADD MSTORE PUSH2 0x6320 DUP2 DUP5 PUSH2 0x5EAD JUMP JUMPDEST SWAP1 POP SWAP4 SWAP3 POP POP POP JUMP JUMPDEST PUSH0 DUP2 MLOAD SWAP1 POP PUSH2 0x6337 DUP2 PUSH2 0x49C7 JUMP JUMPDEST SWAP3 SWAP2 POP POP JUMP JUMPDEST PUSH0 PUSH1 0x20 DUP3 DUP5 SUB SLT ISZERO PUSH2 0x6352 JUMPI PUSH2 0x6351 PUSH2 0x4335 JUMP JUMPDEST JUMPDEST PUSH0 PUSH2 0x635F DUP5 DUP3 DUP6 ADD PUSH2 0x6329 JUMP JUMPDEST SWAP2 POP POP SWAP3 SWAP2 POP POP JUMP JUMPDEST PUSH0 PUSH1 0xA0 DUP3 ADD SWAP1 POP PUSH2 0x637B PUSH0 DUP4 ADD DUP9 PUSH2 0x4AA9 JUMP JUMPDEST PUSH2 0x6388 PUSH1 0x20 DUP4 ADD DUP8 PUSH2 0x4AA9 JUMP JUMPDEST PUSH2 0x6395 PUSH1 0x40 DUP4 ADD DUP7 PUSH2 0x4AA9 JUMP JUMPDEST PUSH2 0x63A2 PUSH1 0x60 DUP4 ADD DUP6 PUSH2 0x43F9 JUMP JUMPDEST PUSH2 0x63AF PUSH1 0x80 DUP4 ADD DUP5 PUSH2 0x4536 JUMP JUMPDEST SWAP7 SWAP6 POP POP POP POP POP POP JUMP JUMPDEST PUSH0 PUSH1 0x80 DUP3 ADD SWAP1 POP PUSH2 0x63CC PUSH0 DUP4 ADD DUP8 PUSH2 0x4AA9 JUMP JUMPDEST PUSH2 0x63D9 PUSH1 0x20 DUP4 ADD DUP7 PUSH2 0x5DD7 JUMP JUMPDEST PUSH2 0x63E6 PUSH1 0x40 DUP4 ADD DUP6 PUSH2 0x4AA9 JUMP JUMPDEST PUSH2 0x63F3 PUSH1 0x60 DUP4 ADD DUP5 PUSH2 0x4AA9 JUMP JUMPDEST SWAP6 SWAP5 POP POP POP POP POP JUMP JUMPDEST PUSH0 PUSH2 0x6406 DUP3 PUSH2 0x43F0 JUMP JUMPDEST SWAP2 POP PUSH2 0x6411 DUP4 PUSH2 0x43F0 JUMP JUMPDEST SWAP3 POP DUP3 PUSH2 0x6421 JUMPI PUSH2 0x6420 PUSH2 0x616D JUMP JUMPDEST JUMPDEST DUP3 DUP3 DIV SWAP1 POP SWAP3 SWAP2 POP POP JUMP INVALID LOG2 PUSH5 0x6970667358 0x22 SLT KECCAK256 BLOBBASEFEE SWAP3 0xE9 PREVRANDAO 0x25 0xAA 0x1E 0xD4 CALLDATASIZE JUMPF 0xDB54 0xAA 0xD7 0xD3 CALL 0xCA LOG4 0xCD 0xC0 0xBE RETURN PUSH15 0x6A659F6922E4627AD164736F6C6343 STOP ADDMOD 0x1E STOP CALLER "
		},
		"gasEstimates": {
			"creation": {
				"codeDepositCost": "5139600",
				"executionCost": "infinite",
				"totalCost": "infinite"
			},
			"external": {
				"BALLOT_TYPEHASH()": "391",
				"CLOCK_MODE()": "infinite",
				"COUNTING_MODE()": "infinite",
				"EXTENDED_BALLOT_TYPEHASH()": "459",
				"cancel(address[],uint256[],bytes[],bytes32)": "infinite",
				"castVote(uint256,uint8)": "infinite",
				"castVoteBySig(uint256,uint8,address,bytes)": "infinite",
				"castVoteWithReason(uint256,uint8,string)": "infinite",
				"castVoteWithReasonAndParams(uint256,uint8,string,bytes)": "infinite",
				"castVoteWithReasonAndParamsBySig(uint256,uint8,address,string,bytes,bytes)": "infinite",
				"clock()": "infinite",
				"eip712Domain()": "infinite",
				"execute(address[],uint256[],bytes[],bytes32)": "infinite",
				"getProposalId(address[],uint256[],bytes[],bytes32)": "infinite",
				"getVotes(address,uint256)": "infinite",
				"getVotesWithParams(address,uint256,bytes)": "infinite",
				"hasVoted(uint256,address)": "3190",
				"hashProposal(address[],uint256[],bytes[],bytes32)": "infinite",
				"name()": "infinite",
				"nonces(address)": "2897",
				"onERC1155BatchReceived(address,address,uint256[],uint256[],bytes)": "infinite",
				"onERC1155Received(address,address,uint256,uint256,bytes)": "infinite",
				"onERC721Received(address,address,uint256,bytes)": "infinite",
				"proposalDeadline(uint256)": "infinite",
				"proposalEta(uint256)": "infinite",
				"proposalNeedsQueuing(uint256)": "731",
				"proposalProposer(uint256)": "2992",
				"proposalSnapshot(uint256)": "infinite",
				"proposalThreshold()": "376",
				"proposalVotes(uint256)": "infinite",
				"propose(address[],uint256[],bytes[],string)": "infinite",
				"queue(address[],uint256[],bytes[],bytes32)": "infinite",
				"quorum(uint256)": "infinite",
				"quorumDenominator()": "377",
				"quorumNumerator()": "infinite",
				"quorumNumerator(uint256)": "infinite",
				"relay(address,uint256,bytes)": "infinite",
				"state(uint256)": "infinite",
				"supportsInterface(bytes4)": "868",
				"token()": "infinite",
				"updateQuorumNumerator(uint256)": "infinite",
				"version()": "infinite",
				"votingDelay()": "488",
				"votingPeriod()": "401"
			}
		},
		"methodIdentifiers": {
			"BALLOT_TYPEHASH()": "deaaa7cc",
			"CLOCK_MODE()": "4bf5d7e9",
			"COUNTING_MODE()": "dd4e2ba5",
			"EXTENDED_BALLOT_TYPEHASH()": "2fe3e261",
			"cancel(address[],uint256[],bytes[],bytes32)": "452115d6",
			"castVote(uint256,uint8)": "56781388",
			"castVoteBySig(uint256,uint8,address,bytes)": "8ff262e3",
			"castVoteWithReason(uint256,uint8,string)": "7b3c71d3",
			"castVoteWithReasonAndParams(uint256,uint8,string,bytes)": "5f398a14",
			"castVoteWithReasonAndParamsBySig(uint256,uint8,address,string,bytes,bytes)": "5b8d0e0d",
			"clock()": "91ddadf4",
			"eip712Domain()": "84b0196e",
			"execute(address[],uint256[],bytes[],bytes32)": "2656227d",
			"getProposalId(address[],uint256[],bytes[],bytes32)": "a8f8a668",
			"getVotes(address,uint256)": "eb9019d4",
			"getVotesWithParams(address,uint256,bytes)": "9a802a6d",
			"hasVoted(uint256,address)": "43859632",
			"hashProposal(address[],uint256[],bytes[],bytes32)": "c59057e4",
			"name()": "06fdde03",
			"nonces(address)": "7ecebe00",
			"onERC1155BatchReceived(address,address,uint256[],uint256[],bytes)": "bc197c81",
			"onERC1155Received(address,address,uint256,uint256,bytes)": "f23a6e61",
			"onERC721Received(address,address,uint256,bytes)": "150b7a02",
			"proposalDeadline(uint256)": "c01f9e37",
			"proposalEta(uint256)": "ab58fb8e",
			"proposalNeedsQueuing(uint256)": "a9a95294",
			"proposalProposer(uint256)": "143489d0",
			"proposalSnapshot(uint256)": "2d63f693",
			"proposalThreshold()": "b58131b0",
			"proposalVotes(uint256)": "544ffc9c",
			"propose(address[],uint256[],bytes[],string)": "7d5e81e2",
			"queue(address[],uint256[],bytes[],bytes32)": "160cbed7",
			"quorum(uint256)": "f8ce560a",
			"quorumDenominator()": "97c3d334",
			"quorumNumerator()": "a7713a70",
			"quorumNumerator(uint256)": "60c4247f",
			"relay(address,uint256,bytes)": "c28bc2fa",
			"state(uint256)": "3e4f49e6",
			"supportsInterface(bytes4)": "01ffc9a7",
			"token()": "fc0c546a",
			"updateQuorumNumerator(uint256)": "06f3f9e6",
			"version()": "54fd4d50",
			"votingDelay()": "3932abb1",
			"votingPeriod()": "02a251a3"
		}
	},
	"abi": [
		{
			"inputs": [
				{
					"internalType": "contract IVotes",
					"name": "_token",
					"type": "address"
				}
			],
			"stateMutability": "nonpayable",
			"type": "constructor"
		},
		{
			"inputs": [],
			"name": "CheckpointUnorderedInsertion",
			"type": "error"
		},
		{
			"inputs": [],
			"name": "FailedCall",
			"type": "error"
		},
		{
			"inputs": [
				{
					"internalType": "address",
					"name": "voter",
					"type": "address"
				}
			],
			"name": "GovernorAlreadyCastVote",
			"type": "error"
		},
		{
			"inputs": [
				{
					"internalType": "uint256",
					"name": "proposalId",
					"type": "uint256"
				}
			],
			"name": "GovernorAlreadyQueuedProposal",
			"type": "error"
		},
		{
			"inputs": [],
			"name": "GovernorDisabledDeposit",
			"type": "error"
		},
		{
			"inputs": [
				{
					"internalType": "address",
					"name": "proposer",
					"type": "address"
				},
				{
					"internalType": "uint256",
					"name": "votes",
					"type": "uint256"
				},
				{
					"internalType": "uint256",
					"name": "threshold",
					"type": "uint256"
				}
			],
			"name": "GovernorInsufficientProposerVotes",
			"type": "error"
		},
		{
			"inputs": [
				{
					"internalType": "uint256",
					"name": "targets",
					"type": "uint256"
				},
				{
					"internalType": "uint256",
					"name": "calldatas",
					"type": "uint256"
				},
				{
					"internalType": "uint256",
					"name": "values",
					"type": "uint256"
				}
			],
			"name": "GovernorInvalidProposalLength",
			"type": "error"
		},
		{
			"inputs": [
				{
					"internalType": "uint256",
					"name": "quorumNumerator",
					"type": "uint256"
				},
				{
					"internalType": "uint256",
					"name": "quorumDenominator",
					"type": "uint256"
				}
			],
			"name": "GovernorInvalidQuorumFraction",
			"type": "error"
		},
		{
			"inputs": [
				{
					"internalType": "address",
					"name": "voter",
					"type": "address"
				}
			],
			"name": "GovernorInvalidSignature",
			"type": "error"
		},
		{
			"inputs": [],
			"name": "GovernorInvalidVoteParams",
			"type": "error"
		},
		{
			"inputs": [],
			"name": "GovernorInvalidVoteType",
			"type": "error"
		},
		{
			"inputs": [
				{
					"internalType": "uint256",
					"name": "votingPeriod",
					"type": "uint256"
				}
			],
			"name": "GovernorInvalidVotingPeriod",
			"type": "error"
		},
		{
			"inputs": [
				{
					"internalType": "uint256",
					"name": "proposalId",
					"type": "uint256"
				}
			],
			"name": "GovernorNonexistentProposal",
			"type": "error"
		},
		{
			"inputs": [
				{
					"internalType": "uint256",
					"name": "proposalId",
					"type": "uint256"
				}
			],
			"name": "GovernorNotQueuedProposal",
			"type": "error"
		},
		{
			"inputs": [
				{
					"internalType": "address",
					"name": "account",
					"type": "address"
				}
			],
			"name": "GovernorOnlyExecutor",
			"type": "error"
		},
		{
			"inputs": [],
			"name": "GovernorQueueNotImplemented",
			"type": "error"
		},
		{
			"inputs": [
				{
					"internalType": "address",
					"name": "proposer",
					"type": "address"
				}
			],
			"name": "GovernorRestrictedProposer",
			"type": "error"
		},
		{
			"inputs": [
				{
					"internalType": "uint256",
					"name": "proposalId",
					"type": "uint256"
				},
				{
					"internalType": "address",
					"name": "account",
					"type": "address"
				}
			],
			"name": "GovernorUnableToCancel",
			"type": "error"
		},
		{
			"inputs": [
				{
					"internalType": "uint256",
					"name": "proposalId",
					"type": "uint256"
				},
				{
					"internalType": "enum IGovernor.ProposalState",
					"name": "current",
					"type": "uint8"
				},
				{
					"internalType": "bytes32",
					"name": "expectedStates",
					"type": "bytes32"
				}
			],
			"name": "GovernorUnexpectedProposalState",
			"type": "error"
		},
		{
			"inputs": [
				{
					"internalType": "address",
					"name": "account",
					"type": "address"
				},
				{
					"internalType": "uint256",
					"name": "currentNonce",
					"type": "uint256"
				}
			],
			"name": "InvalidAccountNonce",
			"type": "error"
		},
		{
			"inputs": [],
			"name": "InvalidShortString",
			"type": "error"
		},
		{
			"inputs": [
				{
					"internalType": "uint8",
					"name": "bits",
					"type": "uint8"
				},
				{
					"internalType": "uint256",
					"name": "value",
					"type": "uint256"
				}
			],
			"name": "SafeCastOverflowedUintDowncast",
			"type": "error"
		},
		{
			"inputs": [
				{
					"internalType": "string",
					"name": "str",
					"type": "string"
				}
			],
			"name": "StringTooLong",
			"type": "error"
		},
		{
			"anonymous": false,
			"inputs": [],
			"name": "EIP712DomainChanged",
			"type": "event"
		},
		{
			"anonymous": false,
			"inputs": [
				{
					"indexed": false,
					"internalType": "uint256",
					"name": "proposalId",
					"type": "uint256"
				}
			],
			"name": "ProposalCanceled",
			"type": "event"
		},
		{
			"anonymous": false,
			"inputs": [
				{
					"indexed": false,
					"internalType": "uint256",
					"name": "proposalId",
					"type": "uint256"
				},
				{
					"indexed": false,
					"internalType": "address",
					"name": "proposer",
					"type": "address"
				},
				{
					"indexed": false,
					"internalType": "address[]",
					"name": "targets",
					"type": "address[]"
				},
				{
					"indexed": false,
					"internalType": "uint256[]",
					"name": "values",
					"type": "uint256[]"
				},
				{
					"indexed": false,
					"internalType": "string[]",
					"name": "signatures",
					"type": "string[]"
				},
				{
					"indexed": false,
					"internalType": "bytes[]",
					"name": "calldatas",
					"type": "bytes[]"
				},
				{
					"indexed": false,
					"internalType": "uint256",
					"name": "voteStart",
					"type": "uint256"
				},
				{
					"indexed": false,
					"internalType": "uint256",
					"name": "voteEnd",
					"type": "uint256"
				},
				{
					"indexed": false,
					"internalType": "string",
					"name": "description",
					"type": "string"
				}
			],
			"name": "ProposalCreated",
			"type": "event"
		},
		{
			"anonymous": false,
			"inputs": [
				{
					"indexed": false,
					"internalType": "uint256",
					"name": "proposalId",
					"type": "uint256"
				}
			],
			"name": "ProposalExecuted",
			"type": "event"
		},
		{
			"anonymous": false,
			"inputs": [
				{
					"indexed": false,
					"internalType": "uint256",
					"name": "proposalId",
					"type": "uint256"
				},
				{
					"indexed": false,
					"internalType": "uint256",
					"name": "etaSeconds",
					"type": "uint256"
				}
			],
			"name": "ProposalQueued",
			"type": "event"
		},
		{
			"anonymous": false,
			"inputs": [
				{
					"indexed": false,
					"internalType": "uint256",
					"name": "oldQuorumNumerator",
					"type": "uint256"
				},
				{
					"indexed": false,
					"internalType": "uint256",
					"name": "newQuorumNumerator",
					"type": "uint256"
				}
			],
			"name": "QuorumNumeratorUpdated",
			"type": "event"
		},
		{
			"anonymous": false,
			"inputs": [
				{
					"indexed": true,
					"internalType": "address",
					"name": "voter",
					"type": "address"
				},
				{
					"indexed": false,
					"internalType": "uint256",
					"name": "proposalId",
					"type": "uint256"
				},
				{
					"indexed": false,
					"internalType": "uint8",
					"name": "support",
					"type": "uint8"
				},
				{
					"indexed": false,
					"internalType": "uint256",
					"name": "weight",
					"type": "uint256"
				},
				{
					"indexed": false,
					"internalType": "string",
					"name": "reason",
					"type": "string"
				}
			],
			"name": "VoteCast",
			"type": "event"
		},
		{
			"anonymous": false,
			"inputs": [
				{
					"indexed": true,
					"internalType": "address",
					"name": "voter",
					"type": "address"
				},
				{
					"indexed": false,
					"internalType": "uint256",
					"name": "proposalId",
					"type": "uint256"
				},
				{
					"indexed": false,
					"internalType": "uint8",
					"name": "support",
					"type": "uint8"
				},
				{
					"indexed": false,
					"internalType": "uint256",
					"name": "weight",
					"type": "uint256"
				},
				{
					"indexed": false,
					"internalType": "string",
					"name": "reason",
					"type": "string"
				},
				{
					"indexed": false,
					"internalType": "bytes",
					"name": "params",
					"type": "bytes"
				}
			],
			"name": "VoteCastWithParams",
			"type": "event"
		},
		{
			"inputs": [],
			"name": "BALLOT_TYPEHASH",
			"outputs": [
				{
					"internalType": "bytes32",
					"name": "",
					"type": "bytes32"
				}
			],
			"stateMutability": "view",
			"type": "function"
		},
		{
			"inputs": [],
			"name": "CLOCK_MODE",
			"outputs": [
				{
					"internalType": "string",
					"name": "",
					"type": "string"
				}
			],
			"stateMutability": "view",
			"type": "function"
		},
		{
			"inputs": [],
			"name": "COUNTING_MODE",
			"outputs": [
				{
					"internalType": "string",
					"name": "",
					"type": "string"
				}
			],
			"stateMutability": "pure",
			"type": "function"
		},
		{
			"inputs": [],
			"name": "EXTENDED_BALLOT_TYPEHASH",
			"outputs": [
				{
					"internalType": "bytes32",
					"name": "",
					"type": "bytes32"
				}
			],
			"stateMutability": "view",
			"type": "function"
		},
		{
			"inputs": [
				{
					"internalType": "address[]",
					"name": "targets",
					"type": "address[]"
				},
				{
					"internalType": "uint256[]",
					"name": "values",
					"type": "uint256[]"
				},
				{
					"internalType": "bytes[]",
					"name": "calldatas",
					"type": "bytes[]"
				},
				{
					"internalType": "bytes32",
					"name": "descriptionHash",
					"type": "bytes32"
				}
			],
			"name": "cancel",
			"outputs": [
				{
					"internalType": "uint256",
					"name": "",
					"type": "uint256"
				}
			],
			"stateMutability": "nonpayable",
			"type": "function"
		},
		{
			"inputs": [
				{
					"internalType": "uint256",
					"name": "proposalId",
					"type": "uint256"
				},
				{
					"internalType": "uint8",
					"name": "support",
					"type": "uint8"
				}
			],
			"name": "castVote",
			"outputs": [
				{
					"internalType": "uint256",
					"name": "",
					"type": "uint256"
				}
			],
			"stateMutability": "nonpayable",
			"type": "function"
		},
		{
			"inputs": [
				{
					"internalType": "uint256",
					"name": "proposalId",
					"type": "uint256"
				},
				{
					"internalType": "uint8",
					"name": "support",
					"type": "uint8"
				},
				{
					"internalType": "address",
					"name": "voter",
					"type": "address"
				},
				{
					"internalType": "bytes",
					"name": "signature",
					"type": "bytes"
				}
			],
			"name": "castVoteBySig",
			"outputs": [
				{
					"internalType": "uint256",
					"name": "",
					"type": "uint256"
				}
			],
			"stateMutability": "nonpayable",
			"type": "function"
		},
		{
			"inputs": [
				{
					"internalType": "uint256",
					"name": "proposalId",
					"type": "uint256"
				},
				{
					"internalType": "uint8",
					"name": "support",
					"type": "uint8"
				},
				{
					"internalType": "string",
					"name": "reason",
					"type": "string"
				}
			],
			"name": "castVoteWithReason",
			"outputs": [
				{
					"internalType": "uint256",
					"name": "",
					"type": "uint256"
				}
			],
			"stateMutability": "nonpayable",
			"type": "function"
		},
		{
			"inputs": [
				{
					"internalType": "uint256",
					"name": "proposalId",
					"type": "uint256"
				},
				{
					"internalType": "uint8",
					"name": "support",
					"type": "uint8"
				},
				{
					"internalType": "string",
					"name": "reason",
					"type": "string"
				},
				{
					"internalType": "bytes",
					"name": "params",
					"type": "bytes"
				}
			],
			"name": "castVoteWithReasonAndParams",
			"outputs": [
				{
					"internalType": "uint256",
					"name": "",
					"type": "uint256"
				}
			],
			"stateMutability": "nonpayable",
			"type": "function"
		},
		{
			"inputs": [
				{
					"internalType": "uint256",
					"name": "proposalId",
					"type": "uint256"
				},
				{
					"internalType": "uint8",
					"name": "support",
					"type": "uint8"
				},
				{
					"internalType": "address",
					"name": "voter",
					"type": "address"
				},
				{
					"internalType": "string",
					"name": "reason",
					"type": "string"
				},
				{
					"internalType": "bytes",
					"name": "params",
					"type": "bytes"
				},
				{
					"internalType": "bytes",
					"name": "signature",
					"type": "bytes"
				}
			],
			"name": "castVoteWithReasonAndParamsBySig",
			"outputs": [
				{
					"internalType": "uint256",
					"name": "",
					"type": "uint256"
				}
			],
			"stateMutability": "nonpayable",
			"type": "function"
		},
		{
			"inputs": [],
			"name": "clock",
			"outputs": [
				{
					"internalType": "uint48",
					"name": "",
					"type": "uint48"
				}
			],
			"stateMutability": "view",
			"type": "function"
		},
		{
			"inputs": [],
			"name": "eip712Domain",
			"outputs": [
				{
					"internalType": "bytes1",
					"name": "fields",
					"type": "bytes1"
				},
				{
					"internalType": "string",
					"name": "name",
					"type": "string"
				},
				{
					"internalType": "string",
					"name": "version",
					"type": "string"
				},
				{
					"internalType": "uint256",
					"name": "chainId",
					"type": "uint256"
				},
				{
					"internalType": "address",
					"name": "verifyingContract",
					"type": "address"
				},
				{
					"internalType": "bytes32",
					"name": "salt",
					"type": "bytes32"
				},
				{
					"internalType": "uint256[]",
					"name": "extensions",
					"type": "uint256[]"
				}
			],
			"stateMutability": "view",
			"type": "function"
		},
		{
			"inputs": [
				{
					"internalType": "address[]",
					"name": "targets",
					"type": "address[]"
				},
				{
					"internalType": "uint256[]",
					"name": "values",
					"type": "uint256[]"
				},
				{
					"internalType": "bytes[]",
					"name": "calldatas",
					"type": "bytes[]"
				},
				{
					"internalType": "bytes32",
					"name": "descriptionHash",
					"type": "bytes32"
				}
			],
			"name": "execute",
			"outputs": [
				{
					"internalType": "uint256",
					"name": "",
					"type": "uint256"
				}
			],
			"stateMutability": "payable",
			"type": "function"
		},
		{
			"inputs": [
				{
					"internalType": "address[]",
					"name": "targets",
					"type": "address[]"
				},
				{
					"internalType": "uint256[]",
					"name": "values",
					"type": "uint256[]"
				},
				{
					"internalType": "bytes[]",
					"name": "calldatas",
					"type": "bytes[]"
				},
				{
					"internalType": "bytes32",
					"name": "descriptionHash",
					"type": "bytes32"
				}
			],
			"name": "getProposalId",
			"outputs": [
				{
					"internalType": "uint256",
					"name": "",
					"type": "uint256"
				}
			],
			"stateMutability": "view",
			"type": "function"
		},
		{
			"inputs": [
				{
					"internalType": "address",
					"name": "account",
					"type": "address"
				},
				{
					"internalType": "uint256",
					"name": "timepoint",
					"type": "uint256"
				}
			],
			"name": "getVotes",
			"outputs": [
				{
					"internalType": "uint256",
					"name": "",
					"type": "uint256"
				}
			],
			"stateMutability": "view",
			"type": "function"
		},
		{
			"inputs": [
				{
					"internalType": "address",
					"name": "account",
					"type": "address"
				},
				{
					"internalType": "uint256",
					"name": "timepoint",
					"type": "uint256"
				},
				{
					"internalType": "bytes",
					"name": "params",
					"type": "bytes"
				}
			],
			"name": "getVotesWithParams",
			"outputs": [
				{
					"internalType": "uint256",
					"name": "",
					"type": "uint256"
				}
			],
			"stateMutability": "view",
			"type": "function"
		},
		{
			"inputs": [
				{
					"internalType": "uint256",
					"name": "proposalId",
					"type": "uint256"
				},
				{
					"internalType": "address",
					"name": "account",
					"type": "address"
				}
			],
			"name": "hasVoted",
			"outputs": [
				{
					"internalType": "bool",
					"name": "",
					"type": "bool"
				}
			],
			"stateMutability": "view",
			"type": "function"
		},
		{
			"inputs": [
				{
					"internalType": "address[]",
					"name": "targets",
					"type": "address[]"
				},
				{
					"internalType": "uint256[]",
					"name": "values",
					"type": "uint256[]"
				},
				{
					"internalType": "bytes[]",
					"name": "calldatas",
					"type": "bytes[]"
				},
				{
					"internalType": "bytes32",
					"name": "descriptionHash",
					"type": "bytes32"
				}
			],
			"name": "hashProposal",
			"outputs": [
				{
					"internalType": "uint256",
					"name": "",
					"type": "uint256"
				}
			],
			"stateMutability": "pure",
			"type": "function"
		},
		{
			"inputs": [],
			"name": "name",
			"outputs": [
				{
					"internalType": "string",
					"name": "",
					"type": "string"
				}
			],
			"stateMutability": "view",
			"type": "function"
		},
		{
			"inputs": [
				{
					"internalType": "address",
					"name": "owner",
					"type": "address"
				}
			],
			"name": "nonces",
			"outputs": [
				{
					"internalType": "uint256",
					"name": "",
					"type": "uint256"
				}
			],
			"stateMutability": "view",
			"type": "function"
		},
		{
			"inputs": [
				{
					"internalType": "address",
					"name": "",
					"type": "address"
				},
				{
					"internalType": "address",
					"name": "",
					"type": "address"
				},
				{
					"internalType": "uint256[]",
					"name": "",
					"type": "uint256[]"
				},
				{
					"internalType": "uint256[]",
					"name": "",
					"type": "uint256[]"
				},
				{
					"internalType": "bytes",
					"name": "",
					"type": "bytes"
				}
			],
			"name": "onERC1155BatchReceived",
			"outputs": [
				{
					"internalType": "bytes4",
					"name": "",
					"type": "bytes4"
				}
			],
			"stateMutability": "nonpayable",
			"type": "function"
		},
		{
			"inputs": [
				{
					"internalType": "address",
					"name": "",
					"type": "address"
				},
				{
					"internalType": "address",
					"name": "",
					"type": "address"
				},
				{
					"internalType": "uint256",
					"name": "",
					"type": "uint256"
				},
				{
					"internalType": "uint256",
					"name": "",
					"type": "uint256"
				},
				{
					"internalType": "bytes",
					"name": "",
					"type": "bytes"
				}
			],
			"name": "onERC1155Received",
			"outputs": [
				{
					"internalType": "bytes4",
					"name": "",
					"type": "bytes4"
				}
			],
			"stateMutability": "nonpayable",
			"type": "function"
		},
		{
			"inputs": [
				{
					"internalType": "address",
					"name": "",
					"type": "address"
				},
				{
					"internalType": "address",
					"name": "",
					"type": "address"
				},
				{
					"internalType": "uint256",
					"name": "",
					"type": "uint256"
				},
				{
					"internalType": "bytes",
					"name": "",
					"type": "bytes"
				}
			],
			"name": "onERC721Received",
			"outputs": [
				{
					"internalType": "bytes4",
					"name": "",
					"type": "bytes4"
				}
			],
			"stateMutability": "nonpayable",
			"type": "function"
		},
		{
			"inputs": [
				{
					"internalType": "uint256",
					"name": "proposalId",
					"type": "uint256"
				}
			],
			"name": "proposalDeadline",
			"outputs": [
				{
					"internalType": "uint256",
					"name": "",
					"type": "uint256"
				}
			],
			"stateMutability": "view",
			"type": "function"
		},
		{
			"inputs": [
				{
					"internalType": "uint256",
					"name": "proposalId",
					"type": "uint256"
				}
			],
			"name": "proposalEta",
			"outputs": [
				{
					"internalType": "uint256",
					"name": "",
					"type": "uint256"
				}
			],
			"stateMutability": "view",
			"type": "function"
		},
		{
			"inputs": [
				{
					"internalType": "uint256",
					"name": "",
					"type": "uint256"
				}
			],
			"name": "proposalNeedsQueuing",
			"outputs": [
				{
					"internalType": "bool",
					"name": "",
					"type": "bool"
				}
			],
			"stateMutability": "view",
			"type": "function"
		},
		{
			"inputs": [
				{
					"internalType": "uint256",
					"name": "proposalId",
					"type": "uint256"
				}
			],
			"name": "proposalProposer",
			"outputs": [
				{
					"internalType": "address",
					"name": "",
					"type": "address"
				}
			],
			"stateMutability": "view",
			"type": "function"
		},
		{
			"inputs": [
				{
					"internalType": "uint256",
					"name": "proposalId",
					"type": "uint256"
				}
			],
			"name": "proposalSnapshot",
			"outputs": [
				{
					"internalType": "uint256",
					"name": "",
					"type": "uint256"
				}
			],
			"stateMutability": "view",
			"type": "function"
		},
		{
			"inputs": [],
			"name": "proposalThreshold",
			"outputs": [
				{
					"internalType": "uint256",
					"name": "",
					"type": "uint256"
				}
			],
			"stateMutability": "pure",
			"type": "function"
		},
		{
			"inputs": [
				{
					"internalType": "uint256",
					"name": "proposalId",
					"type": "uint256"
				}
			],
			"name": "proposalVotes",
			"outputs": [
				{
					"internalType": "uint256",
					"name": "againstVotes",
					"type": "uint256"
				},
				{
					"internalType": "uint256",
					"name": "forVotes",
					"type": "uint256"
				},
				{
					"internalType": "uint256",
					"name": "abstainVotes",
					"type": "uint256"
				}
			],
			"stateMutability": "view",
			"type": "function"
		},
		{
			"inputs": [
				{
					"internalType": "address[]",
					"name": "targets",
					"type": "address[]"
				},
				{
					"internalType": "uint256[]",
					"name": "values",
					"type": "uint256[]"
				},
				{
					"internalType": "bytes[]",
					"name": "calldatas",
					"type": "bytes[]"
				},
				{
					"internalType": "string",
					"name": "description",
					"type": "string"
				}
			],
			"name": "propose",
			"outputs": [
				{
					"internalType": "uint256",
					"name": "",
					"type": "uint256"
				}
			],
			"stateMutability": "nonpayable",
			"type": "function"
		},
		{
			"inputs": [
				{
					"internalType": "address[]",
					"name": "targets",
					"type": "address[]"
				},
				{
					"internalType": "uint256[]",
					"name": "values",
					"type": "uint256[]"
				},
				{
					"internalType": "bytes[]",
					"name": "calldatas",
					"type": "bytes[]"
				},
				{
					"internalType": "bytes32",
					"name": "descriptionHash",
					"type": "bytes32"
				}
			],
			"name": "queue",
			"outputs": [
				{
					"internalType": "uint256",
					"name": "",
					"type": "uint256"
				}
			],
			"stateMutability": "nonpayable",
			"type": "function"
		},
		{
			"inputs": [
				{
					"internalType": "uint256",
					"name": "timepoint",
					"type": "uint256"
				}
			],
			"name": "quorum",
			"outputs": [
				{
					"internalType": "uint256",
					"name": "",
					"type": "uint256"
				}
			],
			"stateMutability": "view",
			"type": "function"
		},
		{
			"inputs": [],
			"name": "quorumDenominator",
			"outputs": [
				{
					"internalType": "uint256",
					"name": "",
					"type": "uint256"
				}
			],
			"stateMutability": "view",
			"type": "function"
		},
		{
			"inputs": [
				{
					"internalType": "uint256",
					"name": "timepoint",
					"type": "uint256"
				}
			],
			"name": "quorumNumerator",
			"outputs": [
				{
					"internalType": "uint256",
					"name": "",
					"type": "uint256"
				}
			],
			"stateMutability": "view",
			"type": "function"
		},
		{
			"inputs": [],
			"name": "quorumNumerator",
			"outputs": [
				{
					"internalType": "uint256",
					"name": "",
					"type": "uint256"
				}
			],
			"stateMutability": "view",
			"type": "function"
		},
		{
			"inputs": [
				{
					"internalType": "address",
					"name": "target",
					"type": "address"
				},
				{
					"internalType": "uint256",
					"name": "value",
					"type": "uint256"
				},
				{
					"internalType": "bytes",
					"name": "data",
					"type": "bytes"
				}
			],
			"name": "relay",
			"outputs": [],
			"stateMutability": "payable",
			"type": "function"
		},
		{
			"inputs": [
				{
					"internalType": "uint256",
					"name": "proposalId",
					"type": "uint256"
				}
			],
			"name": "state",
			"outputs": [
				{
					"internalType": "enum IGovernor.ProposalState",
					"name": "",
					"type": "uint8"
				}
			],
			"stateMutability": "view",
			"type": "function"
		},
		{
			"inputs": [
				{
					"internalType": "bytes4",
					"name": "interfaceId",
					"type": "bytes4"
				}
			],
			"name": "supportsInterface",
			"outputs": [
				{
					"internalType": "bool",
					"name": "",
					"type": "bool"
				}
			],
			"stateMutability": "view",
			"type": "function"
		},
		{
			"inputs": [],
			"name": "token",
			"outputs": [
				{
					"internalType": "contract IERC5805",
					"name": "",
					"type": "address"
				}
			],
			"stateMutability": "view",
			"type": "function"
		},
		{
			"inputs": [
				{
					"internalType": "uint256",
					"name": "newQuorumNumerator",
					"type": "uint256"
				}
			],
			"name": "updateQuorumNumerator",
			"outputs": [],
			"stateMutability": "nonpayable",
			"type": "function"
		},
		{
			"inputs": [],
			"name": "version",
			"outputs": [
				{
					"internalType": "string",
					"name": "",
					"type": "string"
				}
			],
			"stateMutability": "view",
			"type": "function"
		},
		{
			"inputs": [],
			"name": "votingDelay",
			"outputs": [
				{
					"internalType": "uint256",
					"name": "",
					"type": "uint256"
				}
			],
			"stateMutability": "pure",
			"type": "function"
		},
		{
			"inputs": [],
			"name": "votingPeriod",
			"outputs": [
				{
					"internalType": "uint256",
					"name": "",
					"type": "uint256"
				}
			],
			"stateMutability": "pure",
			"type": "function"
		},
		{
			"stateMutability": "payable",
			"type": "receive"
		}
	]
}